{
	"data": {
		"bytecode": {
			"linkReferences": {},
			"object": "60c06040523480156200001157600080fd5b5060405162001629380380620016298339818101604052810190620000379190620001e0565b84600160006101000a81548173ffffffffffffffffffffffffffffffffffffffff021916908373ffffffffffffffffffffffffffffffffffffffff1602179055508360028190555082608081815250508173ffffffffffffffffffffffffffffffffffffffff1660a08173ffffffffffffffffffffffffffffffffffffffff16815250506001600a60006101000a81548160ff02191690836001811115620000e457620000e362000268565b5b021790555080600981905550816000806101000a81548173ffffffffffffffffffffffffffffffffffffffff021916908373ffffffffffffffffffffffffffffffffffffffff160217905550505050505062000297565b600080fd5b600073ffffffffffffffffffffffffffffffffffffffff82169050919050565b60006200016d8262000140565b9050919050565b6200017f8162000160565b81146200018b57600080fd5b50565b6000815190506200019f8162000174565b92915050565b6000819050919050565b620001ba81620001a5565b8114620001c657600080fd5b50565b600081519050620001da81620001af565b92915050565b600080600080600060a08688031215620001ff57620001fe6200013b565b5b60006200020f888289016200018e565b95505060206200022288828901620001c9565b94505060406200023588828901620001c9565b935050606062000248888289016200018e565b92505060806200025b88828901620001c9565b9150509295509295909350565b7f4e487b7100000000000000000000000000000000000000000000000000000000600052602160045260246000fd5b60805160a051611365620002c4600039600061040a01526000818161027f015261095201526113656000f3fe6080604052600436106100a75760003560e01c80636e04ff0d116100645780636e04ff0d1461017757806383197ef0146101b557806391f90157146101bf578063b8da82ea146101ea578063d57bde7914610215578063dc68950414610240576100a7565b806317d70f7c146100ac5780631998aeef146100d75780631d0806ae146100e15780634585e33b1461010c57806355a373d6146101355780636b64c76914610160575b600080fd5b3480156100b857600080fd5b506100c161027d565b6040516100ce9190610b85565b60405180910390f35b6100df6102a1565b005b3480156100ed57600080fd5b506100f66103df565b6040516101039190610b85565b60405180910390f35b34801561011857600080fd5b50610133600480360381019061012e9190610c0f565b6103e5565b005b34801561014157600080fd5b5061014a610408565b6040516101579190610c9d565b60405180910390f35b34801561016c57600080fd5b5061017561042c565b005b34801561018357600080fd5b5061019e60048036038101906101999190610c0f565b6105ab565b6040516101ac929190610d63565b60405180910390f35b6101bd6105cb565b005b3480156101cb57600080fd5b506101d4610606565b6040516101e19190610c9d565b60405180910390f35b3480156101f657600080fd5b506101ff61062c565b60405161020c9190610b85565b60405180910390f35b34801561022157600080fd5b5061022a610632565b6040516102379190610b85565b60405180910390f35b34801561024c57600080fd5b5061026760048036038101906102629190610dbf565b610638565b6040516102749190610c9d565b60405180910390f35b7f000000000000000000000000000000000000000000000000000000000000000081565b600060018111156102b5576102b4610dec565b5b600a60009054906101000a900460ff1660018111156102d7576102d6610dec565b5b14610317576040517f08c379a000000000000000000000000000000000000000000000000000000000815260040161030e90610e78565b60405180910390fd5b600454341161035b576040517f08c379a000000000000000000000000000000000000000000000000000000000815260040161035290610ee4565b60405180910390fd5b336006600034815260200190815260200160002060006101000a81548173ffffffffffffffffffffffffffffffffffffffff021916908373ffffffffffffffffffffffffffffffffffffffff160217905550346004819055506007349080600181540180825580915050600190039060005260206000200160009091909190915055565b60025481565b600954600854426103f69190610f33565b106104045761040361066b565b5b5050565b7f000000000000000000000000000000000000000000000000000000000000000081565b600160009054906101000a900473ffffffffffffffffffffffffffffffffffffffff1673ffffffffffffffffffffffffffffffffffffffff163373ffffffffffffffffffffffffffffffffffffffff16146104bc576040517f08c379a00000000000000000000000000000000000000000000000000000000081526004016104b390610fd9565b60405180910390fd5b6001808111156104cf576104ce610dec565b5b600a60009054906101000a900460ff1660018111156104f1576104f0610dec565b5b14610531576040517f08c379a000000000000000000000000000000000000000000000000000000000815260040161052890611045565b60405180910390fd5b6000600a60006101000a81548160ff0219169083600181111561055757610556610dec565b5b0217905550426008819055507f8caed3b4bf01375b22dc7f84afe719ce12ab14864751a7d5e4142fe4e4a50a51600a60009054906101000a900460ff166040516105a191906110ad565b60405180910390a1565b60006060600954600854426105c09190610f33565b101591509250929050565b600160009054906101000a900473ffffffffffffffffffffffffffffffffffffffff1673ffffffffffffffffffffffffffffffffffffffff16ff5b600560009054906101000a900473ffffffffffffffffffffffffffffffffffffffff1681565b60045481565b60035481565b60066020528060005260406000206000915054906101000a900473ffffffffffffffffffffffffffffffffffffffff1681565b60008054906101000a900473ffffffffffffffffffffffffffffffffffffffff1673ffffffffffffffffffffffffffffffffffffffff1663e985e9c5600160009054906101000a900473ffffffffffffffffffffffffffffffffffffffff16306040518363ffffffff1660e01b81526004016106e8929190611127565b602060405180830381865afa158015610705573d6000803e3d6000fd5b505050506040513d601f19601f82011682018060405250810190610729919061117c565b610768576040517f08c379a000000000000000000000000000000000000000000000000000000000815260040161075f9061121b565b60405180910390fd5b6000600181111561077c5761077b610dec565b5b600a60009054906101000a900460ff16600181111561079e5761079d610dec565b5b146107de576040517f08c379a00000000000000000000000000000000000000000000000000000000081526004016107d590610e78565b60405180910390fd5b6001600a60006101000a81548160ff0219169083600181111561080457610803610dec565b5b02179055507f8caed3b4bf01375b22dc7f84afe719ce12ab14864751a7d5e4142fe4e4a50a51600a60009054906101000a900460ff1660405161084791906110ad565b60405180910390a160045460038190555060066000600454815260200190815260200160002060009054906101000a900473ffffffffffffffffffffffffffffffffffffffff16600560006101000a81548173ffffffffffffffffffffffffffffffffffffffff021916908373ffffffffffffffffffffffffffffffffffffffff16021790555060008054906101000a900473ffffffffffffffffffffffffffffffffffffffff1673ffffffffffffffffffffffffffffffffffffffff166323b872dd600160009054906101000a900473ffffffffffffffffffffffffffffffffffffffff16600560009054906101000a900473ffffffffffffffffffffffffffffffffffffffff167f00000000000000000000000000000000000000000000000000000000000000006040518463ffffffff1660e01b815260040161098f9392919061123b565b600060405180830381600087803b1580156109a957600080fd5b505af11580156109bd573d6000803e3d6000fd5b505050506109c9610a66565b6000600160009054906101000a900473ffffffffffffffffffffffffffffffffffffffff1673ffffffffffffffffffffffffffffffffffffffff16600354604051610a13906112a3565b60006040518083038185875af1925050503d8060008114610a50576040519150601f19603f3d011682016040523d82523d6000602084013e610a55565b606091505b5050905080610a6357600080fd5b50565b60005b6001600780549050610a7b9190610f33565b811015610b6957600060078281548110610a9857610a976112b8565b5b9060005260206000200154905060006006600083815260200190815260200160002060009054906101000a900473ffffffffffffffffffffffffffffffffffffffff16905060008173ffffffffffffffffffffffffffffffffffffffff1683604051610b03906112a3565b60006040518083038185875af1925050503d8060008114610b40576040519150601f19603f3d011682016040523d82523d6000602084013e610b45565b606091505b5050905080610b5357600080fd5b5050508080610b61906112e7565b915050610a69565b50565b6000819050919050565b610b7f81610b6c565b82525050565b6000602082019050610b9a6000830184610b76565b92915050565b600080fd5b600080fd5b600080fd5b600080fd5b600080fd5b60008083601f840112610bcf57610bce610baa565b5b8235905067ffffffffffffffff811115610bec57610beb610baf565b5b602083019150836001820283011115610c0857610c07610bb4565b5b9250929050565b60008060208385031215610c2657610c25610ba0565b5b600083013567ffffffffffffffff811115610c4457610c43610ba5565b5b610c5085828601610bb9565b92509250509250929050565b600073ffffffffffffffffffffffffffffffffffffffff82169050919050565b6000610c8782610c5c565b9050919050565b610c9781610c7c565b82525050565b6000602082019050610cb26000830184610c8e565b92915050565b60008115159050919050565b610ccd81610cb8565b82525050565b600081519050919050565b600082825260208201905092915050565b60005b83811015610d0d578082015181840152602081019050610cf2565b60008484015250505050565b6000601f19601f8301169050919050565b6000610d3582610cd3565b610d3f8185610cde565b9350610d4f818560208601610cef565b610d5881610d19565b840191505092915050565b6000604082019050610d786000830185610cc4565b8181036020830152610d8a8184610d2a565b90509392505050565b610d9c81610b6c565b8114610da757600080fd5b50565b600081359050610db981610d93565b92915050565b600060208284031215610dd557610dd4610ba0565b5b6000610de384828501610daa565b91505092915050565b7f4e487b7100000000000000000000000000000000000000000000000000000000600052602160045260246000fd5b600082825260208201905092915050565b7f5468652041756374696f6e20697320616c726561647920636c6f736564000000600082015250565b6000610e62601d83610e1b565b9150610e6d82610e2c565b602082019050919050565b60006020820190508181036000830152610e9181610e55565b9050919050565b7f596f752063616e277420626964206c6f77657200000000000000000000000000600082015250565b6000610ece601383610e1b565b9150610ed982610e98565b602082019050919050565b60006020820190508181036000830152610efd81610ec1565b9050919050565b7f4e487b7100000000000000000000000000000000000000000000000000000000600052601160045260246000fd5b6000610f3e82610b6c565b9150610f4983610b6c565b9250828203905081811115610f6157610f60610f04565b5b92915050565b7f4f6e6c792074686520636f6e7472616374206f776e65722063616e2063616c6c60008201527f20746869732066756e6374696f6e000000000000000000000000000000000000602082015250565b6000610fc3602e83610e1b565b9150610fce82610f67565b604082019050919050565b60006020820190508181036000830152610ff281610fb6565b9050919050565b7f5468652041756374696f6e20697320616c7265616479206f70656e0000000000600082015250565b600061102f601b83610e1b565b915061103a82610ff9565b602082019050919050565b6000602082019050818103600083015261105e81611022565b9050919050565b6002811061107657611075610dec565b5b50565b600081905061108782611065565b919050565b600061109782611079565b9050919050565b6110a78161108c565b82525050565b60006020820190506110c2600083018461109e565b92915050565b6000819050919050565b60006110ed6110e86110e384610c5c565b6110c8565b610c5c565b9050919050565b60006110ff826110d2565b9050919050565b6000611111826110f4565b9050919050565b61112181611106565b82525050565b600060408201905061113c6000830185611118565b6111496020830184610c8e565b9392505050565b61115981610cb8565b811461116457600080fd5b50565b60008151905061117681611150565b92915050565b60006020828403121561119257611191610ba0565b5b60006111a084828501611167565b91505092915050565b7f436f6e7472616374206973206e6f7420617070726f76656420746f207472616e60008201527f73666572204e4654000000000000000000000000000000000000000000000000602082015250565b6000611205602883610e1b565b9150611210826111a9565b604082019050919050565b60006020820190508181036000830152611234816111f8565b9050919050565b60006060820190506112506000830186611118565b61125d6020830185610c8e565b61126a6040830184610b76565b949350505050565b600081905092915050565b50565b600061128d600083611272565b91506112988261127d565b600082019050919050565b60006112ae82611280565b9150819050919050565b7f4e487b7100000000000000000000000000000000000000000000000000000000600052603260045260246000fd5b60006112f282610b6c565b91507fffffffffffffffffffffffffffffffffffffffffffffffffffffffffffffffff820361132457611323610f04565b5b60018201905091905056fea264697066735822122074c2fc8ee3b96f4eb9ba1d78cad4ee799a68bb667f52f6310cd6ded4021428ed64736f6c63430008110033",
			"opcodes": "PUSH1 0xC0 PUSH1 0x40 MSTORE CALLVALUE DUP1 ISZERO PUSH3 0x11 JUMPI PUSH1 0x0 DUP1 REVERT JUMPDEST POP PUSH1 0x40 MLOAD PUSH3 0x1629 CODESIZE SUB DUP1 PUSH3 0x1629 DUP4 CODECOPY DUP2 DUP2 ADD PUSH1 0x40 MSTORE DUP2 ADD SWAP1 PUSH3 0x37 SWAP2 SWAP1 PUSH3 0x1E0 JUMP JUMPDEST DUP5 PUSH1 0x1 PUSH1 0x0 PUSH2 0x100 EXP DUP2 SLOAD DUP2 PUSH20 0xFFFFFFFFFFFFFFFFFFFFFFFFFFFFFFFFFFFFFFFF MUL NOT AND SWAP1 DUP4 PUSH20 0xFFFFFFFFFFFFFFFFFFFFFFFFFFFFFFFFFFFFFFFF AND MUL OR SWAP1 SSTORE POP DUP4 PUSH1 0x2 DUP2 SWAP1 SSTORE POP DUP3 PUSH1 0x80 DUP2 DUP2 MSTORE POP POP DUP2 PUSH20 0xFFFFFFFFFFFFFFFFFFFFFFFFFFFFFFFFFFFFFFFF AND PUSH1 0xA0 DUP2 PUSH20 0xFFFFFFFFFFFFFFFFFFFFFFFFFFFFFFFFFFFFFFFF AND DUP2 MSTORE POP POP PUSH1 0x1 PUSH1 0xA PUSH1 0x0 PUSH2 0x100 EXP DUP2 SLOAD DUP2 PUSH1 0xFF MUL NOT AND SWAP1 DUP4 PUSH1 0x1 DUP2 GT ISZERO PUSH3 0xE4 JUMPI PUSH3 0xE3 PUSH3 0x268 JUMP JUMPDEST JUMPDEST MUL OR SWAP1 SSTORE POP DUP1 PUSH1 0x9 DUP2 SWAP1 SSTORE POP DUP2 PUSH1 0x0 DUP1 PUSH2 0x100 EXP DUP2 SLOAD DUP2 PUSH20 0xFFFFFFFFFFFFFFFFFFFFFFFFFFFFFFFFFFFFFFFF MUL NOT AND SWAP1 DUP4 PUSH20 0xFFFFFFFFFFFFFFFFFFFFFFFFFFFFFFFFFFFFFFFF AND MUL OR SWAP1 SSTORE POP POP POP POP POP POP PUSH3 0x297 JUMP JUMPDEST PUSH1 0x0 DUP1 REVERT JUMPDEST PUSH1 0x0 PUSH20 0xFFFFFFFFFFFFFFFFFFFFFFFFFFFFFFFFFFFFFFFF DUP3 AND SWAP1 POP SWAP2 SWAP1 POP JUMP JUMPDEST PUSH1 0x0 PUSH3 0x16D DUP3 PUSH3 0x140 JUMP JUMPDEST SWAP1 POP SWAP2 SWAP1 POP JUMP JUMPDEST PUSH3 0x17F DUP2 PUSH3 0x160 JUMP JUMPDEST DUP2 EQ PUSH3 0x18B JUMPI PUSH1 0x0 DUP1 REVERT JUMPDEST POP JUMP JUMPDEST PUSH1 0x0 DUP2 MLOAD SWAP1 POP PUSH3 0x19F DUP2 PUSH3 0x174 JUMP JUMPDEST SWAP3 SWAP2 POP POP JUMP JUMPDEST PUSH1 0x0 DUP2 SWAP1 POP SWAP2 SWAP1 POP JUMP JUMPDEST PUSH3 0x1BA DUP2 PUSH3 0x1A5 JUMP JUMPDEST DUP2 EQ PUSH3 0x1C6 JUMPI PUSH1 0x0 DUP1 REVERT JUMPDEST POP JUMP JUMPDEST PUSH1 0x0 DUP2 MLOAD SWAP1 POP PUSH3 0x1DA DUP2 PUSH3 0x1AF JUMP JUMPDEST SWAP3 SWAP2 POP POP JUMP JUMPDEST PUSH1 0x0 DUP1 PUSH1 0x0 DUP1 PUSH1 0x0 PUSH1 0xA0 DUP7 DUP9 SUB SLT ISZERO PUSH3 0x1FF JUMPI PUSH3 0x1FE PUSH3 0x13B JUMP JUMPDEST JUMPDEST PUSH1 0x0 PUSH3 0x20F DUP9 DUP3 DUP10 ADD PUSH3 0x18E JUMP JUMPDEST SWAP6 POP POP PUSH1 0x20 PUSH3 0x222 DUP9 DUP3 DUP10 ADD PUSH3 0x1C9 JUMP JUMPDEST SWAP5 POP POP PUSH1 0x40 PUSH3 0x235 DUP9 DUP3 DUP10 ADD PUSH3 0x1C9 JUMP JUMPDEST SWAP4 POP POP PUSH1 0x60 PUSH3 0x248 DUP9 DUP3 DUP10 ADD PUSH3 0x18E JUMP JUMPDEST SWAP3 POP POP PUSH1 0x80 PUSH3 0x25B DUP9 DUP3 DUP10 ADD PUSH3 0x1C9 JUMP JUMPDEST SWAP2 POP POP SWAP3 SWAP6 POP SWAP3 SWAP6 SWAP1 SWAP4 POP JUMP JUMPDEST PUSH32 0x4E487B7100000000000000000000000000000000000000000000000000000000 PUSH1 0x0 MSTORE PUSH1 0x21 PUSH1 0x4 MSTORE PUSH1 0x24 PUSH1 0x0 REVERT JUMPDEST PUSH1 0x80 MLOAD PUSH1 0xA0 MLOAD PUSH2 0x1365 PUSH3 0x2C4 PUSH1 0x0 CODECOPY PUSH1 0x0 PUSH2 0x40A ADD MSTORE PUSH1 0x0 DUP2 DUP2 PUSH2 0x27F ADD MSTORE PUSH2 0x952 ADD MSTORE PUSH2 0x1365 PUSH1 0x0 RETURN INVALID PUSH1 0x80 PUSH1 0x40 MSTORE PUSH1 0x4 CALLDATASIZE LT PUSH2 0xA7 JUMPI PUSH1 0x0 CALLDATALOAD PUSH1 0xE0 SHR DUP1 PUSH4 0x6E04FF0D GT PUSH2 0x64 JUMPI DUP1 PUSH4 0x6E04FF0D EQ PUSH2 0x177 JUMPI DUP1 PUSH4 0x83197EF0 EQ PUSH2 0x1B5 JUMPI DUP1 PUSH4 0x91F90157 EQ PUSH2 0x1BF JUMPI DUP1 PUSH4 0xB8DA82EA EQ PUSH2 0x1EA JUMPI DUP1 PUSH4 0xD57BDE79 EQ PUSH2 0x215 JUMPI DUP1 PUSH4 0xDC689504 EQ PUSH2 0x240 JUMPI PUSH2 0xA7 JUMP JUMPDEST DUP1 PUSH4 0x17D70F7C EQ PUSH2 0xAC JUMPI DUP1 PUSH4 0x1998AEEF EQ PUSH2 0xD7 JUMPI DUP1 PUSH4 0x1D0806AE EQ PUSH2 0xE1 JUMPI DUP1 PUSH4 0x4585E33B EQ PUSH2 0x10C JUMPI DUP1 PUSH4 0x55A373D6 EQ PUSH2 0x135 JUMPI DUP1 PUSH4 0x6B64C769 EQ PUSH2 0x160 JUMPI JUMPDEST PUSH1 0x0 DUP1 REVERT JUMPDEST CALLVALUE DUP1 ISZERO PUSH2 0xB8 JUMPI PUSH1 0x0 DUP1 REVERT JUMPDEST POP PUSH2 0xC1 PUSH2 0x27D JUMP JUMPDEST PUSH1 0x40 MLOAD PUSH2 0xCE SWAP2 SWAP1 PUSH2 0xB85 JUMP JUMPDEST PUSH1 0x40 MLOAD DUP1 SWAP2 SUB SWAP1 RETURN JUMPDEST PUSH2 0xDF PUSH2 0x2A1 JUMP JUMPDEST STOP JUMPDEST CALLVALUE DUP1 ISZERO PUSH2 0xED JUMPI PUSH1 0x0 DUP1 REVERT JUMPDEST POP PUSH2 0xF6 PUSH2 0x3DF JUMP JUMPDEST PUSH1 0x40 MLOAD PUSH2 0x103 SWAP2 SWAP1 PUSH2 0xB85 JUMP JUMPDEST PUSH1 0x40 MLOAD DUP1 SWAP2 SUB SWAP1 RETURN JUMPDEST CALLVALUE DUP1 ISZERO PUSH2 0x118 JUMPI PUSH1 0x0 DUP1 REVERT JUMPDEST POP PUSH2 0x133 PUSH1 0x4 DUP1 CALLDATASIZE SUB DUP2 ADD SWAP1 PUSH2 0x12E SWAP2 SWAP1 PUSH2 0xC0F JUMP JUMPDEST PUSH2 0x3E5 JUMP JUMPDEST STOP JUMPDEST CALLVALUE DUP1 ISZERO PUSH2 0x141 JUMPI PUSH1 0x0 DUP1 REVERT JUMPDEST POP PUSH2 0x14A PUSH2 0x408 JUMP JUMPDEST PUSH1 0x40 MLOAD PUSH2 0x157 SWAP2 SWAP1 PUSH2 0xC9D JUMP JUMPDEST PUSH1 0x40 MLOAD DUP1 SWAP2 SUB SWAP1 RETURN JUMPDEST CALLVALUE DUP1 ISZERO PUSH2 0x16C JUMPI PUSH1 0x0 DUP1 REVERT JUMPDEST POP PUSH2 0x175 PUSH2 0x42C JUMP JUMPDEST STOP JUMPDEST CALLVALUE DUP1 ISZERO PUSH2 0x183 JUMPI PUSH1 0x0 DUP1 REVERT JUMPDEST POP PUSH2 0x19E PUSH1 0x4 DUP1 CALLDATASIZE SUB DUP2 ADD SWAP1 PUSH2 0x199 SWAP2 SWAP1 PUSH2 0xC0F JUMP JUMPDEST PUSH2 0x5AB JUMP JUMPDEST PUSH1 0x40 MLOAD PUSH2 0x1AC SWAP3 SWAP2 SWAP1 PUSH2 0xD63 JUMP JUMPDEST PUSH1 0x40 MLOAD DUP1 SWAP2 SUB SWAP1 RETURN JUMPDEST PUSH2 0x1BD PUSH2 0x5CB JUMP JUMPDEST STOP JUMPDEST CALLVALUE DUP1 ISZERO PUSH2 0x1CB JUMPI PUSH1 0x0 DUP1 REVERT JUMPDEST POP PUSH2 0x1D4 PUSH2 0x606 JUMP JUMPDEST PUSH1 0x40 MLOAD PUSH2 0x1E1 SWAP2 SWAP1 PUSH2 0xC9D JUMP JUMPDEST PUSH1 0x40 MLOAD DUP1 SWAP2 SUB SWAP1 RETURN JUMPDEST CALLVALUE DUP1 ISZERO PUSH2 0x1F6 JUMPI PUSH1 0x0 DUP1 REVERT JUMPDEST POP PUSH2 0x1FF PUSH2 0x62C JUMP JUMPDEST PUSH1 0x40 MLOAD PUSH2 0x20C SWAP2 SWAP1 PUSH2 0xB85 JUMP JUMPDEST PUSH1 0x40 MLOAD DUP1 SWAP2 SUB SWAP1 RETURN JUMPDEST CALLVALUE DUP1 ISZERO PUSH2 0x221 JUMPI PUSH1 0x0 DUP1 REVERT JUMPDEST POP PUSH2 0x22A PUSH2 0x632 JUMP JUMPDEST PUSH1 0x40 MLOAD PUSH2 0x237 SWAP2 SWAP1 PUSH2 0xB85 JUMP JUMPDEST PUSH1 0x40 MLOAD DUP1 SWAP2 SUB SWAP1 RETURN JUMPDEST CALLVALUE DUP1 ISZERO PUSH2 0x24C JUMPI PUSH1 0x0 DUP1 REVERT JUMPDEST POP PUSH2 0x267 PUSH1 0x4 DUP1 CALLDATASIZE SUB DUP2 ADD SWAP1 PUSH2 0x262 SWAP2 SWAP1 PUSH2 0xDBF JUMP JUMPDEST PUSH2 0x638 JUMP JUMPDEST PUSH1 0x40 MLOAD PUSH2 0x274 SWAP2 SWAP1 PUSH2 0xC9D JUMP JUMPDEST PUSH1 0x40 MLOAD DUP1 SWAP2 SUB SWAP1 RETURN JUMPDEST PUSH32 0x0 DUP2 JUMP JUMPDEST PUSH1 0x0 PUSH1 0x1 DUP2 GT ISZERO PUSH2 0x2B5 JUMPI PUSH2 0x2B4 PUSH2 0xDEC JUMP JUMPDEST JUMPDEST PUSH1 0xA PUSH1 0x0 SWAP1 SLOAD SWAP1 PUSH2 0x100 EXP SWAP1 DIV PUSH1 0xFF AND PUSH1 0x1 DUP2 GT ISZERO PUSH2 0x2D7 JUMPI PUSH2 0x2D6 PUSH2 0xDEC JUMP JUMPDEST JUMPDEST EQ PUSH2 0x317 JUMPI PUSH1 0x40 MLOAD PUSH32 0x8C379A000000000000000000000000000000000000000000000000000000000 DUP2 MSTORE PUSH1 0x4 ADD PUSH2 0x30E SWAP1 PUSH2 0xE78 JUMP JUMPDEST PUSH1 0x40 MLOAD DUP1 SWAP2 SUB SWAP1 REVERT JUMPDEST PUSH1 0x4 SLOAD CALLVALUE GT PUSH2 0x35B JUMPI PUSH1 0x40 MLOAD PUSH32 0x8C379A000000000000000000000000000000000000000000000000000000000 DUP2 MSTORE PUSH1 0x4 ADD PUSH2 0x352 SWAP1 PUSH2 0xEE4 JUMP JUMPDEST PUSH1 0x40 MLOAD DUP1 SWAP2 SUB SWAP1 REVERT JUMPDEST CALLER PUSH1 0x6 PUSH1 0x0 CALLVALUE DUP2 MSTORE PUSH1 0x20 ADD SWAP1 DUP2 MSTORE PUSH1 0x20 ADD PUSH1 0x0 KECCAK256 PUSH1 0x0 PUSH2 0x100 EXP DUP2 SLOAD DUP2 PUSH20 0xFFFFFFFFFFFFFFFFFFFFFFFFFFFFFFFFFFFFFFFF MUL NOT AND SWAP1 DUP4 PUSH20 0xFFFFFFFFFFFFFFFFFFFFFFFFFFFFFFFFFFFFFFFF AND MUL OR SWAP1 SSTORE POP CALLVALUE PUSH1 0x4 DUP2 SWAP1 SSTORE POP PUSH1 0x7 CALLVALUE SWAP1 DUP1 PUSH1 0x1 DUP2 SLOAD ADD DUP1 DUP3 SSTORE DUP1 SWAP2 POP POP PUSH1 0x1 SWAP1 SUB SWAP1 PUSH1 0x0 MSTORE PUSH1 0x20 PUSH1 0x0 KECCAK256 ADD PUSH1 0x0 SWAP1 SWAP2 SWAP1 SWAP2 SWAP1 SWAP2 POP SSTORE JUMP JUMPDEST PUSH1 0x2 SLOAD DUP2 JUMP JUMPDEST PUSH1 0x9 SLOAD PUSH1 0x8 SLOAD TIMESTAMP PUSH2 0x3F6 SWAP2 SWAP1 PUSH2 0xF33 JUMP JUMPDEST LT PUSH2 0x404 JUMPI PUSH2 0x403 PUSH2 0x66B JUMP JUMPDEST JUMPDEST POP POP JUMP JUMPDEST PUSH32 0x0 DUP2 JUMP JUMPDEST PUSH1 0x1 PUSH1 0x0 SWAP1 SLOAD SWAP1 PUSH2 0x100 EXP SWAP1 DIV PUSH20 0xFFFFFFFFFFFFFFFFFFFFFFFFFFFFFFFFFFFFFFFF AND PUSH20 0xFFFFFFFFFFFFFFFFFFFFFFFFFFFFFFFFFFFFFFFF AND CALLER PUSH20 0xFFFFFFFFFFFFFFFFFFFFFFFFFFFFFFFFFFFFFFFF AND EQ PUSH2 0x4BC JUMPI PUSH1 0x40 MLOAD PUSH32 0x8C379A000000000000000000000000000000000000000000000000000000000 DUP2 MSTORE PUSH1 0x4 ADD PUSH2 0x4B3 SWAP1 PUSH2 0xFD9 JUMP JUMPDEST PUSH1 0x40 MLOAD DUP1 SWAP2 SUB SWAP1 REVERT JUMPDEST PUSH1 0x1 DUP1 DUP2 GT ISZERO PUSH2 0x4CF JUMPI PUSH2 0x4CE PUSH2 0xDEC JUMP JUMPDEST JUMPDEST PUSH1 0xA PUSH1 0x0 SWAP1 SLOAD SWAP1 PUSH2 0x100 EXP SWAP1 DIV PUSH1 0xFF AND PUSH1 0x1 DUP2 GT ISZERO PUSH2 0x4F1 JUMPI PUSH2 0x4F0 PUSH2 0xDEC JUMP JUMPDEST JUMPDEST EQ PUSH2 0x531 JUMPI PUSH1 0x40 MLOAD PUSH32 0x8C379A000000000000000000000000000000000000000000000000000000000 DUP2 MSTORE PUSH1 0x4 ADD PUSH2 0x528 SWAP1 PUSH2 0x1045 JUMP JUMPDEST PUSH1 0x40 MLOAD DUP1 SWAP2 SUB SWAP1 REVERT JUMPDEST PUSH1 0x0 PUSH1 0xA PUSH1 0x0 PUSH2 0x100 EXP DUP2 SLOAD DUP2 PUSH1 0xFF MUL NOT AND SWAP1 DUP4 PUSH1 0x1 DUP2 GT ISZERO PUSH2 0x557 JUMPI PUSH2 0x556 PUSH2 0xDEC JUMP JUMPDEST JUMPDEST MUL OR SWAP1 SSTORE POP TIMESTAMP PUSH1 0x8 DUP2 SWAP1 SSTORE POP PUSH32 0x8CAED3B4BF01375B22DC7F84AFE719CE12AB14864751A7D5E4142FE4E4A50A51 PUSH1 0xA PUSH1 0x0 SWAP1 SLOAD SWAP1 PUSH2 0x100 EXP SWAP1 DIV PUSH1 0xFF AND PUSH1 0x40 MLOAD PUSH2 0x5A1 SWAP2 SWAP1 PUSH2 0x10AD JUMP JUMPDEST PUSH1 0x40 MLOAD DUP1 SWAP2 SUB SWAP1 LOG1 JUMP JUMPDEST PUSH1 0x0 PUSH1 0x60 PUSH1 0x9 SLOAD PUSH1 0x8 SLOAD TIMESTAMP PUSH2 0x5C0 SWAP2 SWAP1 PUSH2 0xF33 JUMP JUMPDEST LT ISZERO SWAP2 POP SWAP3 POP SWAP3 SWAP1 POP JUMP JUMPDEST PUSH1 0x1 PUSH1 0x0 SWAP1 SLOAD SWAP1 PUSH2 0x100 EXP SWAP1 DIV PUSH20 0xFFFFFFFFFFFFFFFFFFFFFFFFFFFFFFFFFFFFFFFF AND PUSH20 0xFFFFFFFFFFFFFFFFFFFFFFFFFFFFFFFFFFFFFFFF AND SELFDESTRUCT JUMPDEST PUSH1 0x5 PUSH1 0x0 SWAP1 SLOAD SWAP1 PUSH2 0x100 EXP SWAP1 DIV PUSH20 0xFFFFFFFFFFFFFFFFFFFFFFFFFFFFFFFFFFFFFFFF AND DUP2 JUMP JUMPDEST PUSH1 0x4 SLOAD DUP2 JUMP JUMPDEST PUSH1 0x3 SLOAD DUP2 JUMP JUMPDEST PUSH1 0x6 PUSH1 0x20 MSTORE DUP1 PUSH1 0x0 MSTORE PUSH1 0x40 PUSH1 0x0 KECCAK256 PUSH1 0x0 SWAP2 POP SLOAD SWAP1 PUSH2 0x100 EXP SWAP1 DIV PUSH20 0xFFFFFFFFFFFFFFFFFFFFFFFFFFFFFFFFFFFFFFFF AND DUP2 JUMP JUMPDEST PUSH1 0x0 DUP1 SLOAD SWAP1 PUSH2 0x100 EXP SWAP1 DIV PUSH20 0xFFFFFFFFFFFFFFFFFFFFFFFFFFFFFFFFFFFFFFFF AND PUSH20 0xFFFFFFFFFFFFFFFFFFFFFFFFFFFFFFFFFFFFFFFF AND PUSH4 0xE985E9C5 PUSH1 0x1 PUSH1 0x0 SWAP1 SLOAD SWAP1 PUSH2 0x100 EXP SWAP1 DIV PUSH20 0xFFFFFFFFFFFFFFFFFFFFFFFFFFFFFFFFFFFFFFFF AND ADDRESS PUSH1 0x40 MLOAD DUP4 PUSH4 0xFFFFFFFF AND PUSH1 0xE0 SHL DUP2 MSTORE PUSH1 0x4 ADD PUSH2 0x6E8 SWAP3 SWAP2 SWAP1 PUSH2 0x1127 JUMP JUMPDEST PUSH1 0x20 PUSH1 0x40 MLOAD DUP1 DUP4 SUB DUP2 DUP7 GAS STATICCALL ISZERO DUP1 ISZERO PUSH2 0x705 JUMPI RETURNDATASIZE PUSH1 0x0 DUP1 RETURNDATACOPY RETURNDATASIZE PUSH1 0x0 REVERT JUMPDEST POP POP POP POP PUSH1 0x40 MLOAD RETURNDATASIZE PUSH1 0x1F NOT PUSH1 0x1F DUP3 ADD AND DUP3 ADD DUP1 PUSH1 0x40 MSTORE POP DUP2 ADD SWAP1 PUSH2 0x729 SWAP2 SWAP1 PUSH2 0x117C JUMP JUMPDEST PUSH2 0x768 JUMPI PUSH1 0x40 MLOAD PUSH32 0x8C379A000000000000000000000000000000000000000000000000000000000 DUP2 MSTORE PUSH1 0x4 ADD PUSH2 0x75F SWAP1 PUSH2 0x121B JUMP JUMPDEST PUSH1 0x40 MLOAD DUP1 SWAP2 SUB SWAP1 REVERT JUMPDEST PUSH1 0x0 PUSH1 0x1 DUP2 GT ISZERO PUSH2 0x77C JUMPI PUSH2 0x77B PUSH2 0xDEC JUMP JUMPDEST JUMPDEST PUSH1 0xA PUSH1 0x0 SWAP1 SLOAD SWAP1 PUSH2 0x100 EXP SWAP1 DIV PUSH1 0xFF AND PUSH1 0x1 DUP2 GT ISZERO PUSH2 0x79E JUMPI PUSH2 0x79D PUSH2 0xDEC JUMP JUMPDEST JUMPDEST EQ PUSH2 0x7DE JUMPI PUSH1 0x40 MLOAD PUSH32 0x8C379A000000000000000000000000000000000000000000000000000000000 DUP2 MSTORE PUSH1 0x4 ADD PUSH2 0x7D5 SWAP1 PUSH2 0xE78 JUMP JUMPDEST PUSH1 0x40 MLOAD DUP1 SWAP2 SUB SWAP1 REVERT JUMPDEST PUSH1 0x1 PUSH1 0xA PUSH1 0x0 PUSH2 0x100 EXP DUP2 SLOAD DUP2 PUSH1 0xFF MUL NOT AND SWAP1 DUP4 PUSH1 0x1 DUP2 GT ISZERO PUSH2 0x804 JUMPI PUSH2 0x803 PUSH2 0xDEC JUMP JUMPDEST JUMPDEST MUL OR SWAP1 SSTORE POP PUSH32 0x8CAED3B4BF01375B22DC7F84AFE719CE12AB14864751A7D5E4142FE4E4A50A51 PUSH1 0xA PUSH1 0x0 SWAP1 SLOAD SWAP1 PUSH2 0x100 EXP SWAP1 DIV PUSH1 0xFF AND PUSH1 0x40 MLOAD PUSH2 0x847 SWAP2 SWAP1 PUSH2 0x10AD JUMP JUMPDEST PUSH1 0x40 MLOAD DUP1 SWAP2 SUB SWAP1 LOG1 PUSH1 0x4 SLOAD PUSH1 0x3 DUP2 SWAP1 SSTORE POP PUSH1 0x6 PUSH1 0x0 PUSH1 0x4 SLOAD DUP2 MSTORE PUSH1 0x20 ADD SWAP1 DUP2 MSTORE PUSH1 0x20 ADD PUSH1 0x0 KECCAK256 PUSH1 0x0 SWAP1 SLOAD SWAP1 PUSH2 0x100 EXP SWAP1 DIV PUSH20 0xFFFFFFFFFFFFFFFFFFFFFFFFFFFFFFFFFFFFFFFF AND PUSH1 0x5 PUSH1 0x0 PUSH2 0x100 EXP DUP2 SLOAD DUP2 PUSH20 0xFFFFFFFFFFFFFFFFFFFFFFFFFFFFFFFFFFFFFFFF MUL NOT AND SWAP1 DUP4 PUSH20 0xFFFFFFFFFFFFFFFFFFFFFFFFFFFFFFFFFFFFFFFF AND MUL OR SWAP1 SSTORE POP PUSH1 0x0 DUP1 SLOAD SWAP1 PUSH2 0x100 EXP SWAP1 DIV PUSH20 0xFFFFFFFFFFFFFFFFFFFFFFFFFFFFFFFFFFFFFFFF AND PUSH20 0xFFFFFFFFFFFFFFFFFFFFFFFFFFFFFFFFFFFFFFFF AND PUSH4 0x23B872DD PUSH1 0x1 PUSH1 0x0 SWAP1 SLOAD SWAP1 PUSH2 0x100 EXP SWAP1 DIV PUSH20 0xFFFFFFFFFFFFFFFFFFFFFFFFFFFFFFFFFFFFFFFF AND PUSH1 0x5 PUSH1 0x0 SWAP1 SLOAD SWAP1 PUSH2 0x100 EXP SWAP1 DIV PUSH20 0xFFFFFFFFFFFFFFFFFFFFFFFFFFFFFFFFFFFFFFFF AND PUSH32 0x0 PUSH1 0x40 MLOAD DUP5 PUSH4 0xFFFFFFFF AND PUSH1 0xE0 SHL DUP2 MSTORE PUSH1 0x4 ADD PUSH2 0x98F SWAP4 SWAP3 SWAP2 SWAP1 PUSH2 0x123B JUMP JUMPDEST PUSH1 0x0 PUSH1 0x40 MLOAD DUP1 DUP4 SUB DUP2 PUSH1 0x0 DUP8 DUP1 EXTCODESIZE ISZERO DUP1 ISZERO PUSH2 0x9A9 JUMPI PUSH1 0x0 DUP1 REVERT JUMPDEST POP GAS CALL ISZERO DUP1 ISZERO PUSH2 0x9BD JUMPI RETURNDATASIZE PUSH1 0x0 DUP1 RETURNDATACOPY RETURNDATASIZE PUSH1 0x0 REVERT JUMPDEST POP POP POP POP PUSH2 0x9C9 PUSH2 0xA66 JUMP JUMPDEST PUSH1 0x0 PUSH1 0x1 PUSH1 0x0 SWAP1 SLOAD SWAP1 PUSH2 0x100 EXP SWAP1 DIV PUSH20 0xFFFFFFFFFFFFFFFFFFFFFFFFFFFFFFFFFFFFFFFF AND PUSH20 0xFFFFFFFFFFFFFFFFFFFFFFFFFFFFFFFFFFFFFFFF AND PUSH1 0x3 SLOAD PUSH1 0x40 MLOAD PUSH2 0xA13 SWAP1 PUSH2 0x12A3 JUMP JUMPDEST PUSH1 0x0 PUSH1 0x40 MLOAD DUP1 DUP4 SUB DUP2 DUP6 DUP8 GAS CALL SWAP3 POP POP POP RETURNDATASIZE DUP1 PUSH1 0x0 DUP2 EQ PUSH2 0xA50 JUMPI PUSH1 0x40 MLOAD SWAP2 POP PUSH1 0x1F NOT PUSH1 0x3F RETURNDATASIZE ADD AND DUP3 ADD PUSH1 0x40 MSTORE RETURNDATASIZE DUP3 MSTORE RETURNDATASIZE PUSH1 0x0 PUSH1 0x20 DUP5 ADD RETURNDATACOPY PUSH2 0xA55 JUMP JUMPDEST PUSH1 0x60 SWAP2 POP JUMPDEST POP POP SWAP1 POP DUP1 PUSH2 0xA63 JUMPI PUSH1 0x0 DUP1 REVERT JUMPDEST POP JUMP JUMPDEST PUSH1 0x0 JUMPDEST PUSH1 0x1 PUSH1 0x7 DUP1 SLOAD SWAP1 POP PUSH2 0xA7B SWAP2 SWAP1 PUSH2 0xF33 JUMP JUMPDEST DUP2 LT ISZERO PUSH2 0xB69 JUMPI PUSH1 0x0 PUSH1 0x7 DUP3 DUP2 SLOAD DUP2 LT PUSH2 0xA98 JUMPI PUSH2 0xA97 PUSH2 0x12B8 JUMP JUMPDEST JUMPDEST SWAP1 PUSH1 0x0 MSTORE PUSH1 0x20 PUSH1 0x0 KECCAK256 ADD SLOAD SWAP1 POP PUSH1 0x0 PUSH1 0x6 PUSH1 0x0 DUP4 DUP2 MSTORE PUSH1 0x20 ADD SWAP1 DUP2 MSTORE PUSH1 0x20 ADD PUSH1 0x0 KECCAK256 PUSH1 0x0 SWAP1 SLOAD SWAP1 PUSH2 0x100 EXP SWAP1 DIV PUSH20 0xFFFFFFFFFFFFFFFFFFFFFFFFFFFFFFFFFFFFFFFF AND SWAP1 POP PUSH1 0x0 DUP2 PUSH20 0xFFFFFFFFFFFFFFFFFFFFFFFFFFFFFFFFFFFFFFFF AND DUP4 PUSH1 0x40 MLOAD PUSH2 0xB03 SWAP1 PUSH2 0x12A3 JUMP JUMPDEST PUSH1 0x0 PUSH1 0x40 MLOAD DUP1 DUP4 SUB DUP2 DUP6 DUP8 GAS CALL SWAP3 POP POP POP RETURNDATASIZE DUP1 PUSH1 0x0 DUP2 EQ PUSH2 0xB40 JUMPI PUSH1 0x40 MLOAD SWAP2 POP PUSH1 0x1F NOT PUSH1 0x3F RETURNDATASIZE ADD AND DUP3 ADD PUSH1 0x40 MSTORE RETURNDATASIZE DUP3 MSTORE RETURNDATASIZE PUSH1 0x0 PUSH1 0x20 DUP5 ADD RETURNDATACOPY PUSH2 0xB45 JUMP JUMPDEST PUSH1 0x60 SWAP2 POP JUMPDEST POP POP SWAP1 POP DUP1 PUSH2 0xB53 JUMPI PUSH1 0x0 DUP1 REVERT JUMPDEST POP POP POP DUP1 DUP1 PUSH2 0xB61 SWAP1 PUSH2 0x12E7 JUMP JUMPDEST SWAP2 POP POP PUSH2 0xA69 JUMP JUMPDEST POP JUMP JUMPDEST PUSH1 0x0 DUP2 SWAP1 POP SWAP2 SWAP1 POP JUMP JUMPDEST PUSH2 0xB7F DUP2 PUSH2 0xB6C JUMP JUMPDEST DUP3 MSTORE POP POP JUMP JUMPDEST PUSH1 0x0 PUSH1 0x20 DUP3 ADD SWAP1 POP PUSH2 0xB9A PUSH1 0x0 DUP4 ADD DUP5 PUSH2 0xB76 JUMP JUMPDEST SWAP3 SWAP2 POP POP JUMP JUMPDEST PUSH1 0x0 DUP1 REVERT JUMPDEST PUSH1 0x0 DUP1 REVERT JUMPDEST PUSH1 0x0 DUP1 REVERT JUMPDEST PUSH1 0x0 DUP1 REVERT JUMPDEST PUSH1 0x0 DUP1 REVERT JUMPDEST PUSH1 0x0 DUP1 DUP4 PUSH1 0x1F DUP5 ADD SLT PUSH2 0xBCF JUMPI PUSH2 0xBCE PUSH2 0xBAA JUMP JUMPDEST JUMPDEST DUP3 CALLDATALOAD SWAP1 POP PUSH8 0xFFFFFFFFFFFFFFFF DUP2 GT ISZERO PUSH2 0xBEC JUMPI PUSH2 0xBEB PUSH2 0xBAF JUMP JUMPDEST JUMPDEST PUSH1 0x20 DUP4 ADD SWAP2 POP DUP4 PUSH1 0x1 DUP3 MUL DUP4 ADD GT ISZERO PUSH2 0xC08 JUMPI PUSH2 0xC07 PUSH2 0xBB4 JUMP JUMPDEST JUMPDEST SWAP3 POP SWAP3 SWAP1 POP JUMP JUMPDEST PUSH1 0x0 DUP1 PUSH1 0x20 DUP4 DUP6 SUB SLT ISZERO PUSH2 0xC26 JUMPI PUSH2 0xC25 PUSH2 0xBA0 JUMP JUMPDEST JUMPDEST PUSH1 0x0 DUP4 ADD CALLDATALOAD PUSH8 0xFFFFFFFFFFFFFFFF DUP2 GT ISZERO PUSH2 0xC44 JUMPI PUSH2 0xC43 PUSH2 0xBA5 JUMP JUMPDEST JUMPDEST PUSH2 0xC50 DUP6 DUP3 DUP7 ADD PUSH2 0xBB9 JUMP JUMPDEST SWAP3 POP SWAP3 POP POP SWAP3 POP SWAP3 SWAP1 POP JUMP JUMPDEST PUSH1 0x0 PUSH20 0xFFFFFFFFFFFFFFFFFFFFFFFFFFFFFFFFFFFFFFFF DUP3 AND SWAP1 POP SWAP2 SWAP1 POP JUMP JUMPDEST PUSH1 0x0 PUSH2 0xC87 DUP3 PUSH2 0xC5C JUMP JUMPDEST SWAP1 POP SWAP2 SWAP1 POP JUMP JUMPDEST PUSH2 0xC97 DUP2 PUSH2 0xC7C JUMP JUMPDEST DUP3 MSTORE POP POP JUMP JUMPDEST PUSH1 0x0 PUSH1 0x20 DUP3 ADD SWAP1 POP PUSH2 0xCB2 PUSH1 0x0 DUP4 ADD DUP5 PUSH2 0xC8E JUMP JUMPDEST SWAP3 SWAP2 POP POP JUMP JUMPDEST PUSH1 0x0 DUP2 ISZERO ISZERO SWAP1 POP SWAP2 SWAP1 POP JUMP JUMPDEST PUSH2 0xCCD DUP2 PUSH2 0xCB8 JUMP JUMPDEST DUP3 MSTORE POP POP JUMP JUMPDEST PUSH1 0x0 DUP2 MLOAD SWAP1 POP SWAP2 SWAP1 POP JUMP JUMPDEST PUSH1 0x0 DUP3 DUP3 MSTORE PUSH1 0x20 DUP3 ADD SWAP1 POP SWAP3 SWAP2 POP POP JUMP JUMPDEST PUSH1 0x0 JUMPDEST DUP4 DUP2 LT ISZERO PUSH2 0xD0D JUMPI DUP1 DUP3 ADD MLOAD DUP2 DUP5 ADD MSTORE PUSH1 0x20 DUP2 ADD SWAP1 POP PUSH2 0xCF2 JUMP JUMPDEST PUSH1 0x0 DUP5 DUP5 ADD MSTORE POP POP POP POP JUMP JUMPDEST PUSH1 0x0 PUSH1 0x1F NOT PUSH1 0x1F DUP4 ADD AND SWAP1 POP SWAP2 SWAP1 POP JUMP JUMPDEST PUSH1 0x0 PUSH2 0xD35 DUP3 PUSH2 0xCD3 JUMP JUMPDEST PUSH2 0xD3F DUP2 DUP6 PUSH2 0xCDE JUMP JUMPDEST SWAP4 POP PUSH2 0xD4F DUP2 DUP6 PUSH1 0x20 DUP7 ADD PUSH2 0xCEF JUMP JUMPDEST PUSH2 0xD58 DUP2 PUSH2 0xD19 JUMP JUMPDEST DUP5 ADD SWAP2 POP POP SWAP3 SWAP2 POP POP JUMP JUMPDEST PUSH1 0x0 PUSH1 0x40 DUP3 ADD SWAP1 POP PUSH2 0xD78 PUSH1 0x0 DUP4 ADD DUP6 PUSH2 0xCC4 JUMP JUMPDEST DUP2 DUP2 SUB PUSH1 0x20 DUP4 ADD MSTORE PUSH2 0xD8A DUP2 DUP5 PUSH2 0xD2A JUMP JUMPDEST SWAP1 POP SWAP4 SWAP3 POP POP POP JUMP JUMPDEST PUSH2 0xD9C DUP2 PUSH2 0xB6C JUMP JUMPDEST DUP2 EQ PUSH2 0xDA7 JUMPI PUSH1 0x0 DUP1 REVERT JUMPDEST POP JUMP JUMPDEST PUSH1 0x0 DUP2 CALLDATALOAD SWAP1 POP PUSH2 0xDB9 DUP2 PUSH2 0xD93 JUMP JUMPDEST SWAP3 SWAP2 POP POP JUMP JUMPDEST PUSH1 0x0 PUSH1 0x20 DUP3 DUP5 SUB SLT ISZERO PUSH2 0xDD5 JUMPI PUSH2 0xDD4 PUSH2 0xBA0 JUMP JUMPDEST JUMPDEST PUSH1 0x0 PUSH2 0xDE3 DUP5 DUP3 DUP6 ADD PUSH2 0xDAA JUMP JUMPDEST SWAP2 POP POP SWAP3 SWAP2 POP POP JUMP JUMPDEST PUSH32 0x4E487B7100000000000000000000000000000000000000000000000000000000 PUSH1 0x0 MSTORE PUSH1 0x21 PUSH1 0x4 MSTORE PUSH1 0x24 PUSH1 0x0 REVERT JUMPDEST PUSH1 0x0 DUP3 DUP3 MSTORE PUSH1 0x20 DUP3 ADD SWAP1 POP SWAP3 SWAP2 POP POP JUMP JUMPDEST PUSH32 0x5468652041756374696F6E20697320616C726561647920636C6F736564000000 PUSH1 0x0 DUP3 ADD MSTORE POP JUMP JUMPDEST PUSH1 0x0 PUSH2 0xE62 PUSH1 0x1D DUP4 PUSH2 0xE1B JUMP JUMPDEST SWAP2 POP PUSH2 0xE6D DUP3 PUSH2 0xE2C JUMP JUMPDEST PUSH1 0x20 DUP3 ADD SWAP1 POP SWAP2 SWAP1 POP JUMP JUMPDEST PUSH1 0x0 PUSH1 0x20 DUP3 ADD SWAP1 POP DUP2 DUP2 SUB PUSH1 0x0 DUP4 ADD MSTORE PUSH2 0xE91 DUP2 PUSH2 0xE55 JUMP JUMPDEST SWAP1 POP SWAP2 SWAP1 POP JUMP JUMPDEST PUSH32 0x596F752063616E277420626964206C6F77657200000000000000000000000000 PUSH1 0x0 DUP3 ADD MSTORE POP JUMP JUMPDEST PUSH1 0x0 PUSH2 0xECE PUSH1 0x13 DUP4 PUSH2 0xE1B JUMP JUMPDEST SWAP2 POP PUSH2 0xED9 DUP3 PUSH2 0xE98 JUMP JUMPDEST PUSH1 0x20 DUP3 ADD SWAP1 POP SWAP2 SWAP1 POP JUMP JUMPDEST PUSH1 0x0 PUSH1 0x20 DUP3 ADD SWAP1 POP DUP2 DUP2 SUB PUSH1 0x0 DUP4 ADD MSTORE PUSH2 0xEFD DUP2 PUSH2 0xEC1 JUMP JUMPDEST SWAP1 POP SWAP2 SWAP1 POP JUMP JUMPDEST PUSH32 0x4E487B7100000000000000000000000000000000000000000000000000000000 PUSH1 0x0 MSTORE PUSH1 0x11 PUSH1 0x4 MSTORE PUSH1 0x24 PUSH1 0x0 REVERT JUMPDEST PUSH1 0x0 PUSH2 0xF3E DUP3 PUSH2 0xB6C JUMP JUMPDEST SWAP2 POP PUSH2 0xF49 DUP4 PUSH2 0xB6C JUMP JUMPDEST SWAP3 POP DUP3 DUP3 SUB SWAP1 POP DUP2 DUP2 GT ISZERO PUSH2 0xF61 JUMPI PUSH2 0xF60 PUSH2 0xF04 JUMP JUMPDEST JUMPDEST SWAP3 SWAP2 POP POP JUMP JUMPDEST PUSH32 0x4F6E6C792074686520636F6E7472616374206F776E65722063616E2063616C6C PUSH1 0x0 DUP3 ADD MSTORE PUSH32 0x20746869732066756E6374696F6E000000000000000000000000000000000000 PUSH1 0x20 DUP3 ADD MSTORE POP JUMP JUMPDEST PUSH1 0x0 PUSH2 0xFC3 PUSH1 0x2E DUP4 PUSH2 0xE1B JUMP JUMPDEST SWAP2 POP PUSH2 0xFCE DUP3 PUSH2 0xF67 JUMP JUMPDEST PUSH1 0x40 DUP3 ADD SWAP1 POP SWAP2 SWAP1 POP JUMP JUMPDEST PUSH1 0x0 PUSH1 0x20 DUP3 ADD SWAP1 POP DUP2 DUP2 SUB PUSH1 0x0 DUP4 ADD MSTORE PUSH2 0xFF2 DUP2 PUSH2 0xFB6 JUMP JUMPDEST SWAP1 POP SWAP2 SWAP1 POP JUMP JUMPDEST PUSH32 0x5468652041756374696F6E20697320616C7265616479206F70656E0000000000 PUSH1 0x0 DUP3 ADD MSTORE POP JUMP JUMPDEST PUSH1 0x0 PUSH2 0x102F PUSH1 0x1B DUP4 PUSH2 0xE1B JUMP JUMPDEST SWAP2 POP PUSH2 0x103A DUP3 PUSH2 0xFF9 JUMP JUMPDEST PUSH1 0x20 DUP3 ADD SWAP1 POP SWAP2 SWAP1 POP JUMP JUMPDEST PUSH1 0x0 PUSH1 0x20 DUP3 ADD SWAP1 POP DUP2 DUP2 SUB PUSH1 0x0 DUP4 ADD MSTORE PUSH2 0x105E DUP2 PUSH2 0x1022 JUMP JUMPDEST SWAP1 POP SWAP2 SWAP1 POP JUMP JUMPDEST PUSH1 0x2 DUP2 LT PUSH2 0x1076 JUMPI PUSH2 0x1075 PUSH2 0xDEC JUMP JUMPDEST JUMPDEST POP JUMP JUMPDEST PUSH1 0x0 DUP2 SWAP1 POP PUSH2 0x1087 DUP3 PUSH2 0x1065 JUMP JUMPDEST SWAP2 SWAP1 POP JUMP JUMPDEST PUSH1 0x0 PUSH2 0x1097 DUP3 PUSH2 0x1079 JUMP JUMPDEST SWAP1 POP SWAP2 SWAP1 POP JUMP JUMPDEST PUSH2 0x10A7 DUP2 PUSH2 0x108C JUMP JUMPDEST DUP3 MSTORE POP POP JUMP JUMPDEST PUSH1 0x0 PUSH1 0x20 DUP3 ADD SWAP1 POP PUSH2 0x10C2 PUSH1 0x0 DUP4 ADD DUP5 PUSH2 0x109E JUMP JUMPDEST SWAP3 SWAP2 POP POP JUMP JUMPDEST PUSH1 0x0 DUP2 SWAP1 POP SWAP2 SWAP1 POP JUMP JUMPDEST PUSH1 0x0 PUSH2 0x10ED PUSH2 0x10E8 PUSH2 0x10E3 DUP5 PUSH2 0xC5C JUMP JUMPDEST PUSH2 0x10C8 JUMP JUMPDEST PUSH2 0xC5C JUMP JUMPDEST SWAP1 POP SWAP2 SWAP1 POP JUMP JUMPDEST PUSH1 0x0 PUSH2 0x10FF DUP3 PUSH2 0x10D2 JUMP JUMPDEST SWAP1 POP SWAP2 SWAP1 POP JUMP JUMPDEST PUSH1 0x0 PUSH2 0x1111 DUP3 PUSH2 0x10F4 JUMP JUMPDEST SWAP1 POP SWAP2 SWAP1 POP JUMP JUMPDEST PUSH2 0x1121 DUP2 PUSH2 0x1106 JUMP JUMPDEST DUP3 MSTORE POP POP JUMP JUMPDEST PUSH1 0x0 PUSH1 0x40 DUP3 ADD SWAP1 POP PUSH2 0x113C PUSH1 0x0 DUP4 ADD DUP6 PUSH2 0x1118 JUMP JUMPDEST PUSH2 0x1149 PUSH1 0x20 DUP4 ADD DUP5 PUSH2 0xC8E JUMP JUMPDEST SWAP4 SWAP3 POP POP POP JUMP JUMPDEST PUSH2 0x1159 DUP2 PUSH2 0xCB8 JUMP JUMPDEST DUP2 EQ PUSH2 0x1164 JUMPI PUSH1 0x0 DUP1 REVERT JUMPDEST POP JUMP JUMPDEST PUSH1 0x0 DUP2 MLOAD SWAP1 POP PUSH2 0x1176 DUP2 PUSH2 0x1150 JUMP JUMPDEST SWAP3 SWAP2 POP POP JUMP JUMPDEST PUSH1 0x0 PUSH1 0x20 DUP3 DUP5 SUB SLT ISZERO PUSH2 0x1192 JUMPI PUSH2 0x1191 PUSH2 0xBA0 JUMP JUMPDEST JUMPDEST PUSH1 0x0 PUSH2 0x11A0 DUP5 DUP3 DUP6 ADD PUSH2 0x1167 JUMP JUMPDEST SWAP2 POP POP SWAP3 SWAP2 POP POP JUMP JUMPDEST PUSH32 0x436F6E7472616374206973206E6F7420617070726F76656420746F207472616E PUSH1 0x0 DUP3 ADD MSTORE PUSH32 0x73666572204E4654000000000000000000000000000000000000000000000000 PUSH1 0x20 DUP3 ADD MSTORE POP JUMP JUMPDEST PUSH1 0x0 PUSH2 0x1205 PUSH1 0x28 DUP4 PUSH2 0xE1B JUMP JUMPDEST SWAP2 POP PUSH2 0x1210 DUP3 PUSH2 0x11A9 JUMP JUMPDEST PUSH1 0x40 DUP3 ADD SWAP1 POP SWAP2 SWAP1 POP JUMP JUMPDEST PUSH1 0x0 PUSH1 0x20 DUP3 ADD SWAP1 POP DUP2 DUP2 SUB PUSH1 0x0 DUP4 ADD MSTORE PUSH2 0x1234 DUP2 PUSH2 0x11F8 JUMP JUMPDEST SWAP1 POP SWAP2 SWAP1 POP JUMP JUMPDEST PUSH1 0x0 PUSH1 0x60 DUP3 ADD SWAP1 POP PUSH2 0x1250 PUSH1 0x0 DUP4 ADD DUP7 PUSH2 0x1118 JUMP JUMPDEST PUSH2 0x125D PUSH1 0x20 DUP4 ADD DUP6 PUSH2 0xC8E JUMP JUMPDEST PUSH2 0x126A PUSH1 0x40 DUP4 ADD DUP5 PUSH2 0xB76 JUMP JUMPDEST SWAP5 SWAP4 POP POP POP POP JUMP JUMPDEST PUSH1 0x0 DUP2 SWAP1 POP SWAP3 SWAP2 POP POP JUMP JUMPDEST POP JUMP JUMPDEST PUSH1 0x0 PUSH2 0x128D PUSH1 0x0 DUP4 PUSH2 0x1272 JUMP JUMPDEST SWAP2 POP PUSH2 0x1298 DUP3 PUSH2 0x127D JUMP JUMPDEST PUSH1 0x0 DUP3 ADD SWAP1 POP SWAP2 SWAP1 POP JUMP JUMPDEST PUSH1 0x0 PUSH2 0x12AE DUP3 PUSH2 0x1280 JUMP JUMPDEST SWAP2 POP DUP2 SWAP1 POP SWAP2 SWAP1 POP JUMP JUMPDEST PUSH32 0x4E487B7100000000000000000000000000000000000000000000000000000000 PUSH1 0x0 MSTORE PUSH1 0x32 PUSH1 0x4 MSTORE PUSH1 0x24 PUSH1 0x0 REVERT JUMPDEST PUSH1 0x0 PUSH2 0x12F2 DUP3 PUSH2 0xB6C JUMP JUMPDEST SWAP2 POP PUSH32 0xFFFFFFFFFFFFFFFFFFFFFFFFFFFFFFFFFFFFFFFFFFFFFFFFFFFFFFFFFFFFFFFF DUP3 SUB PUSH2 0x1324 JUMPI PUSH2 0x1323 PUSH2 0xF04 JUMP JUMPDEST JUMPDEST PUSH1 0x1 DUP3 ADD SWAP1 POP SWAP2 SWAP1 POP JUMP INVALID LOG2 PUSH5 0x6970667358 0x22 SLT KECCAK256 PUSH21 0xC2FC8EE3B96F4EB9BA1D78CAD4EE799A68BB667F52 0xF6 BALANCE 0xC 0xD6 0xDE 0xD4 MUL EQ 0x28 0xED PUSH5 0x736F6C6343 STOP ADDMOD GT STOP CALLER "
		},
		"gasEstimates": {
			"creation": {
				"codeDepositCost": "993000",
				"executionCost": "infinite",
				"totalCost": "infinite"
			},
			"external": {
				"bid()": "97354",
				"bidsRegister(uint256)": "2949",
				"checkUpkeep(bytes)": "infinite",
				"currentBidPrice()": "2495",
				"destroy()": "29878",
				"highestBid()": "2517",
				"highestBidder()": "2558",
				"initialPrice()": "2474",
				"performUpkeep(bytes)": "infinite",
				"startAuction()": "54458",
				"tokenContract()": "infinite",
				"tokenId()": "infinite"
			},
			"internal": {
				"batchTransfer()": "infinite",
				"closeAuction()": "infinite"
			}
		},
		"methodIdentifiers": {
			"bid()": "1998aeef",
			"bidsRegister(uint256)": "dc689504",
			"checkUpkeep(bytes)": "6e04ff0d",
			"currentBidPrice()": "b8da82ea",
			"destroy()": "83197ef0",
			"highestBid()": "d57bde79",
			"highestBidder()": "91f90157",
			"initialPrice()": "1d0806ae",
			"performUpkeep(bytes)": "4585e33b",
			"startAuction()": "6b64c769",
			"tokenContract()": "55a373d6",
			"tokenId()": "17d70f7c"
		}
	},
	"abi": [
		{
			"inputs": [
				{
					"internalType": "address",
					"name": "_auctioneer",
					"type": "address"
				},
				{
					"internalType": "uint256",
					"name": "_startPrice",
					"type": "uint256"
				},
				{
					"internalType": "uint256",
					"name": "_tokenId",
					"type": "uint256"
				},
				{
					"internalType": "address",
					"name": "_tokenContract",
					"type": "address"
				},
				{
					"internalType": "uint256",
					"name": "_runningTime",
					"type": "uint256"
				}
			],
			"stateMutability": "nonpayable",
			"type": "constructor"
		},
		{
			"anonymous": false,
			"inputs": [
				{
					"indexed": false,
					"internalType": "enum NFTAuction.AuctionStatus",
					"name": "_status",
					"type": "uint8"
				}
			],
			"name": "AuctionState",
			"type": "event"
		},
		{
			"inputs": [],
			"name": "bid",
			"outputs": [],
			"stateMutability": "payable",
			"type": "function"
		},
		{
			"inputs": [
				{
					"internalType": "uint256",
					"name": "",
					"type": "uint256"
				}
			],
			"name": "bidsRegister",
			"outputs": [
				{
					"internalType": "address",
					"name": "",
					"type": "address"
				}
			],
			"stateMutability": "view",
			"type": "function"
		},
		{
			"inputs": [
				{
					"internalType": "bytes",
					"name": "",
					"type": "bytes"
				}
			],
			"name": "checkUpkeep",
			"outputs": [
				{
					"internalType": "bool",
					"name": "upkeepNeeded",
					"type": "bool"
				},
				{
					"internalType": "bytes",
					"name": "",
					"type": "bytes"
				}
			],
			"stateMutability": "view",
			"type": "function"
		},
		{
			"inputs": [],
			"name": "currentBidPrice",
			"outputs": [
				{
					"internalType": "uint256",
					"name": "",
					"type": "uint256"
				}
			],
			"stateMutability": "view",
			"type": "function"
		},
		{
			"inputs": [],
			"name": "destroy",
			"outputs": [],
			"stateMutability": "payable",
			"type": "function"
		},
		{
			"inputs": [],
			"name": "highestBid",
			"outputs": [
				{
					"internalType": "uint256",
					"name": "",
					"type": "uint256"
				}
			],
			"stateMutability": "view",
			"type": "function"
		},
		{
			"inputs": [],
			"name": "highestBidder",
			"outputs": [
				{
					"internalType": "address",
					"name": "",
					"type": "address"
				}
			],
			"stateMutability": "view",
			"type": "function"
		},
		{
			"inputs": [],
			"name": "initialPrice",
			"outputs": [
				{
					"internalType": "uint256",
					"name": "",
					"type": "uint256"
				}
			],
			"stateMutability": "view",
			"type": "function"
		},
		{
			"inputs": [
				{
					"internalType": "bytes",
					"name": "",
					"type": "bytes"
				}
			],
			"name": "performUpkeep",
			"outputs": [],
			"stateMutability": "nonpayable",
			"type": "function"
		},
		{
			"inputs": [],
			"name": "startAuction",
			"outputs": [],
			"stateMutability": "nonpayable",
			"type": "function"
		},
		{
			"inputs": [],
			"name": "tokenContract",
			"outputs": [
				{
					"internalType": "address",
					"name": "",
					"type": "address"
				}
			],
			"stateMutability": "view",
			"type": "function"
		},
		{
			"inputs": [],
			"name": "tokenId",
			"outputs": [
				{
					"internalType": "uint256",
					"name": "",
					"type": "uint256"
				}
			],
			"stateMutability": "view",
			"type": "function"
		}
	]
}