{
	"contracts/LiquidityPool.sol": {
		"LiquidityPool": {
			"abi": [
				{
					"inputs": [
						{
							"internalType": "address",
							"name": "_tokenAddress",
							"type": "address"
						}
					],
					"stateMutability": "nonpayable",
					"type": "constructor"
				},
				{
					"anonymous": false,
					"inputs": [
						{
							"indexed": false,
							"internalType": "address",
							"name": "_liquidityProvider",
							"type": "address"
						},
						{
							"indexed": false,
							"internalType": "uint256",
							"name": "_shares",
							"type": "uint256"
						}
					],
					"name": "liquidityProvided",
					"type": "event"
				},
				{
					"inputs": [],
					"name": "destroy",
					"outputs": [],
					"stateMutability": "nonpayable",
					"type": "function"
				},
				{
					"inputs": [],
					"name": "getDAI",
					"outputs": [],
					"stateMutability": "payable",
					"type": "function"
				},
				{
					"inputs": [
						{
							"internalType": "uint256",
							"name": "_DAIAmount",
							"type": "uint256"
						}
					],
					"name": "getEth",
					"outputs": [],
					"stateMutability": "nonpayable",
					"type": "function"
				},
				{
					"inputs": [],
					"name": "kLast",
					"outputs": [
						{
							"internalType": "uint256",
							"name": "",
							"type": "uint256"
						}
					],
					"stateMutability": "view",
					"type": "function"
				},
				{
					"inputs": [
						{
							"internalType": "uint256",
							"name": "_amount",
							"type": "uint256"
						}
					],
					"name": "provideLiquidity",
					"outputs": [],
					"stateMutability": "payable",
					"type": "function"
				},
				{
					"inputs": [
						{
							"internalType": "uint256",
							"name": "_sharesAmount",
							"type": "uint256"
						}
					],
					"name": "reedemShares",
					"outputs": [],
					"stateMutability": "nonpayable",
					"type": "function"
				},
				{
					"inputs": [],
					"name": "reserveToken",
					"outputs": [
						{
							"internalType": "address",
							"name": "",
							"type": "address"
						}
					],
					"stateMutability": "view",
					"type": "function"
				},
				{
					"inputs": [
						{
							"internalType": "uint256",
							"name": "daiAmount",
							"type": "uint256"
						}
					],
					"name": "swap",
					"outputs": [],
					"stateMutability": "payable",
					"type": "function"
				},
				{
					"inputs": [
						{
							"internalType": "address",
							"name": "to",
							"type": "address"
						},
						{
							"internalType": "uint256",
							"name": "_amount",
							"type": "uint256"
						}
					],
					"name": "transferTokens",
					"outputs": [],
					"stateMutability": "nonpayable",
					"type": "function"
				}
			],
			"devdoc": {
				"kind": "dev",
				"methods": {},
				"version": 1
			},
			"evm": {
				"assembly": "    /* \"contracts/LiquidityPool.sol\":622:3645  contract LiquidityPool {... */\n  mstore(0x40, 0x80)\n    /* \"contracts/LiquidityPool.sol\":918:997  constructor(address _tokenAddress){... */\n  callvalue\n  dup1\n  iszero\n  tag_1\n  jumpi\n  0x00\n  dup1\n  revert\ntag_1:\n  pop\n  mload(0x40)\n  sub(codesize, bytecodeSize)\n  dup1\n  bytecodeSize\n  dup4\n  codecopy\n  dup2\n  dup2\n  add\n  0x40\n  mstore\n  dup2\n  add\n  swap1\n  tag_2\n  swap2\n  swap1\n  tag_3\n  jump\t// in\ntag_2:\n    /* \"contracts/LiquidityPool.sol\":977:990  _tokenAddress */\n  dup1\n    /* \"contracts/LiquidityPool.sol\":962:974  reserveToken */\n  0x00\n  dup1\n    /* \"contracts/LiquidityPool.sol\":962:990  reserveToken = _tokenAddress */\n  0x0100\n  exp\n  dup2\n  sload\n  dup2\n  0xffffffffffffffffffffffffffffffffffffffff\n  mul\n  not\n  and\n  swap1\n  dup4\n  0xffffffffffffffffffffffffffffffffffffffff\n  and\n  mul\n  or\n  swap1\n  sstore\n  pop\n    /* \"contracts/LiquidityPool.sol\":918:997  constructor(address _tokenAddress){... */\n  pop\n    /* \"contracts/LiquidityPool.sol\":622:3645  contract LiquidityPool {... */\n  jump(tag_6)\n    /* \"#utility.yul\":88:205   */\ntag_8:\n    /* \"#utility.yul\":197:198   */\n  0x00\n    /* \"#utility.yul\":194:195   */\n  dup1\n    /* \"#utility.yul\":187:199   */\n  revert\n    /* \"#utility.yul\":334:460   */\ntag_10:\n    /* \"#utility.yul\":371:378   */\n  0x00\n    /* \"#utility.yul\":411:453   */\n  0xffffffffffffffffffffffffffffffffffffffff\n    /* \"#utility.yul\":404:409   */\n  dup3\n    /* \"#utility.yul\":400:454   */\n  and\n    /* \"#utility.yul\":389:454   */\n  swap1\n  pop\n    /* \"#utility.yul\":334:460   */\n  swap2\n  swap1\n  pop\n  jump\t// out\n    /* \"#utility.yul\":466:562   */\ntag_11:\n    /* \"#utility.yul\":503:510   */\n  0x00\n    /* \"#utility.yul\":532:556   */\n  tag_20\n    /* \"#utility.yul\":550:555   */\n  dup3\n    /* \"#utility.yul\":532:556   */\n  tag_10\n  jump\t// in\ntag_20:\n    /* \"#utility.yul\":521:556   */\n  swap1\n  pop\n    /* \"#utility.yul\":466:562   */\n  swap2\n  swap1\n  pop\n  jump\t// out\n    /* \"#utility.yul\":568:690   */\ntag_12:\n    /* \"#utility.yul\":641:665   */\n  tag_22\n    /* \"#utility.yul\":659:664   */\n  dup2\n    /* \"#utility.yul\":641:665   */\n  tag_11\n  jump\t// in\ntag_22:\n    /* \"#utility.yul\":634:639   */\n  dup2\n    /* \"#utility.yul\":631:666   */\n  eq\n    /* \"#utility.yul\":621:684   */\n  tag_23\n  jumpi\n    /* \"#utility.yul\":680:681   */\n  0x00\n    /* \"#utility.yul\":677:678   */\n  dup1\n    /* \"#utility.yul\":670:682   */\n  revert\n    /* \"#utility.yul\":621:684   */\ntag_23:\n    /* \"#utility.yul\":568:690   */\n  pop\n  jump\t// out\n    /* \"#utility.yul\":696:839   */\ntag_13:\n    /* \"#utility.yul\":753:758   */\n  0x00\n    /* \"#utility.yul\":784:790   */\n  dup2\n    /* \"#utility.yul\":778:791   */\n  mload\n    /* \"#utility.yul\":769:791   */\n  swap1\n  pop\n    /* \"#utility.yul\":800:833   */\n  tag_25\n    /* \"#utility.yul\":827:832   */\n  dup2\n    /* \"#utility.yul\":800:833   */\n  tag_12\n  jump\t// in\ntag_25:\n    /* \"#utility.yul\":696:839   */\n  swap3\n  swap2\n  pop\n  pop\n  jump\t// out\n    /* \"#utility.yul\":845:1196   */\ntag_3:\n    /* \"#utility.yul\":915:921   */\n  0x00\n    /* \"#utility.yul\":964:966   */\n  0x20\n    /* \"#utility.yul\":952:961   */\n  dup3\n    /* \"#utility.yul\":943:950   */\n  dup5\n    /* \"#utility.yul\":939:962   */\n  sub\n    /* \"#utility.yul\":935:967   */\n  slt\n    /* \"#utility.yul\":932:1051   */\n  iszero\n  tag_27\n  jumpi\n    /* \"#utility.yul\":970:1049   */\n  tag_28\n  tag_8\n  jump\t// in\ntag_28:\n    /* \"#utility.yul\":932:1051   */\ntag_27:\n    /* \"#utility.yul\":1090:1091   */\n  0x00\n    /* \"#utility.yul\":1115:1179   */\n  tag_29\n    /* \"#utility.yul\":1171:1178   */\n  dup5\n    /* \"#utility.yul\":1162:1168   */\n  dup3\n    /* \"#utility.yul\":1151:1160   */\n  dup6\n    /* \"#utility.yul\":1147:1169   */\n  add\n    /* \"#utility.yul\":1115:1179   */\n  tag_13\n  jump\t// in\ntag_29:\n    /* \"#utility.yul\":1105:1179   */\n  swap2\n  pop\n    /* \"#utility.yul\":1061:1189   */\n  pop\n    /* \"#utility.yul\":845:1196   */\n  swap3\n  swap2\n  pop\n  pop\n  jump\t// out\n    /* \"contracts/LiquidityPool.sol\":622:3645  contract LiquidityPool {... */\ntag_6:\n  dataSize(sub_0)\n  dup1\n  dataOffset(sub_0)\n  0x00\n  codecopy\n  0x00\n  return\nstop\n\nsub_0: assembly {\n        /* \"contracts/LiquidityPool.sol\":622:3645  contract LiquidityPool {... */\n      mstore(0x40, 0x80)\n      jumpi(tag_1, lt(calldatasize, 0x04))\n      shr(0xe0, calldataload(0x00))\n      dup1\n      0x94b918de\n      gt\n      tag_11\n      jumpi\n      dup1\n      0x94b918de\n      eq\n      tag_6\n      jumpi\n      dup1\n      0xbec3fa17\n      eq\n      tag_7\n      jumpi\n      dup1\n      0xeb521a4c\n      eq\n      tag_8\n      jumpi\n      dup1\n      0xf4325d67\n      eq\n      tag_9\n      jumpi\n      dup1\n      0xff9b3758\n      eq\n      tag_10\n      jumpi\n      jump(tag_1)\n    tag_11:\n      dup1\n      0x7464fc3d\n      eq\n      tag_2\n      jumpi\n      dup1\n      0x83197ef0\n      eq\n      tag_3\n      jumpi\n      dup1\n      0x8e3073a6\n      eq\n      tag_4\n      jumpi\n      dup1\n      0x8ef85568\n      eq\n      tag_5\n      jumpi\n    tag_1:\n      0x00\n      dup1\n      revert\n        /* \"contracts/LiquidityPool.sol\":891:911  uint256 public kLast */\n    tag_2:\n      callvalue\n      dup1\n      iszero\n      tag_12\n      jumpi\n      0x00\n      dup1\n      revert\n    tag_12:\n      pop\n      tag_13\n      tag_14\n      jump\t// in\n    tag_13:\n      mload(0x40)\n      tag_15\n      swap2\n      swap1\n      tag_16\n      jump\t// in\n    tag_15:\n      mload(0x40)\n      dup1\n      swap2\n      sub\n      swap1\n      return\n        /* \"contracts/LiquidityPool.sol\":3535:3643  function destroy() public {... */\n    tag_3:\n      callvalue\n      dup1\n      iszero\n      tag_17\n      jumpi\n      0x00\n      dup1\n      revert\n    tag_17:\n      pop\n      tag_18\n      tag_19\n      jump\t// in\n    tag_18:\n      stop\n        /* \"contracts/LiquidityPool.sol\":2134:2746  function getEth(uint256 _DAIAmount) public {... */\n    tag_4:\n      callvalue\n      dup1\n      iszero\n      tag_20\n      jumpi\n      0x00\n      dup1\n      revert\n    tag_20:\n      pop\n      tag_21\n      0x04\n      dup1\n      calldatasize\n      sub\n      dup2\n      add\n      swap1\n      tag_22\n      swap2\n      swap1\n      tag_23\n      jump\t// in\n    tag_22:\n      tag_24\n      jump\t// in\n    tag_21:\n      stop\n        /* \"contracts/LiquidityPool.sol\":2752:3226  function getDAI() public payable {... */\n    tag_5:\n      tag_25\n      tag_26\n      jump\t// in\n    tag_25:\n      stop\n        /* \"contracts/LiquidityPool.sol\":3357:3529  function swap(uint256 daiAmount) public payable{... */\n    tag_6:\n      tag_27\n      0x04\n      dup1\n      calldatasize\n      sub\n      dup2\n      add\n      swap1\n      tag_28\n      swap2\n      swap1\n      tag_23\n      jump\t// in\n    tag_28:\n      tag_29\n      jump\t// in\n    tag_27:\n      stop\n        /* \"contracts/LiquidityPool.sol\":3232:3351  function transferTokens(address to, uint256 _amount) external {... */\n    tag_7:\n      callvalue\n      dup1\n      iszero\n      tag_30\n      jumpi\n      0x00\n      dup1\n      revert\n    tag_30:\n      pop\n      tag_31\n      0x04\n      dup1\n      calldatasize\n      sub\n      dup2\n      add\n      swap1\n      tag_32\n      swap2\n      swap1\n      tag_33\n      jump\t// in\n    tag_32:\n      tag_34\n      jump\t// in\n    tag_31:\n      stop\n        /* \"contracts/LiquidityPool.sol\":1078:1565  function provideLiquidity(uint256 _amount) external payable {... */\n    tag_8:\n      tag_35\n      0x04\n      dup1\n      calldatasize\n      sub\n      dup2\n      add\n      swap1\n      tag_36\n      swap2\n      swap1\n      tag_23\n      jump\t// in\n    tag_36:\n      tag_37\n      jump\t// in\n    tag_35:\n      stop\n        /* \"contracts/LiquidityPool.sol\":739:766  address public reserveToken */\n    tag_9:\n      callvalue\n      dup1\n      iszero\n      tag_38\n      jumpi\n      0x00\n      dup1\n      revert\n    tag_38:\n      pop\n      tag_39\n      tag_40\n      jump\t// in\n    tag_39:\n      mload(0x40)\n      tag_41\n      swap2\n      swap1\n      tag_42\n      jump\t// in\n    tag_41:\n      mload(0x40)\n      dup1\n      swap2\n      sub\n      swap1\n      return\n        /* \"contracts/LiquidityPool.sol\":1571:2128  function reedemShares(uint256 _sharesAmount) public {... */\n    tag_10:\n      callvalue\n      dup1\n      iszero\n      tag_43\n      jumpi\n      0x00\n      dup1\n      revert\n    tag_43:\n      pop\n      tag_44\n      0x04\n      dup1\n      calldatasize\n      sub\n      dup2\n      add\n      swap1\n      tag_45\n      swap2\n      swap1\n      tag_23\n      jump\t// in\n    tag_45:\n      tag_46\n      jump\t// in\n    tag_44:\n      stop\n        /* \"contracts/LiquidityPool.sol\":891:911  uint256 public kLast */\n    tag_14:\n      sload(0x01)\n      dup2\n      jump\t// out\n        /* \"contracts/LiquidityPool.sol\":3535:3643  function destroy() public {... */\n    tag_19:\n        /* \"contracts/LiquidityPool.sol\":3592:3634  0xeE88B109b526F6306151f969E293709F2907F042 */\n      0xee88b109b526f6306151f969e293709f2907f042\n        /* \"contracts/LiquidityPool.sol\":3571:3636  selfdestruct(payable(0xeE88B109b526F6306151f969E293709F2907F042)) */\n      0xffffffffffffffffffffffffffffffffffffffff\n      and\n      selfdestruct\n        /* \"contracts/LiquidityPool.sol\":2134:2746  function getEth(uint256 _DAIAmount) public {... */\n    tag_24:\n        /* \"contracts/LiquidityPool.sol\":2256:2266  _DAIAmount */\n      dup1\n        /* \"contracts/LiquidityPool.sol\":2202:2214  reserveToken */\n      0x00\n      dup1\n      sload\n      swap1\n      0x0100\n      exp\n      swap1\n      div\n      0xffffffffffffffffffffffffffffffffffffffff\n      and\n        /* \"contracts/LiquidityPool.sol\":2195:2225  IERC20(reserveToken).allowance */\n      0xffffffffffffffffffffffffffffffffffffffff\n      and\n      0xdd62ed3e\n        /* \"contracts/LiquidityPool.sol\":2226:2236  msg.sender */\n      caller\n        /* \"contracts/LiquidityPool.sol\":2246:2250  this */\n      address\n        /* \"contracts/LiquidityPool.sol\":2195:2252  IERC20(reserveToken).allowance(msg.sender, address(this)) */\n      mload(0x40)\n      dup4\n      0xffffffff\n      and\n      0xe0\n      shl\n      dup2\n      mstore\n      0x04\n      add\n      tag_49\n      swap3\n      swap2\n      swap1\n      tag_50\n      jump\t// in\n    tag_49:\n      0x20\n      mload(0x40)\n      dup1\n      dup4\n      sub\n      dup2\n      dup7\n      gas\n      staticcall\n      iszero\n      dup1\n      iszero\n      tag_52\n      jumpi\n      returndatasize\n      0x00\n      dup1\n      returndatacopy\n      revert(0x00, returndatasize)\n    tag_52:\n      pop\n      pop\n      pop\n      pop\n      mload(0x40)\n      returndatasize\n      not(0x1f)\n      0x1f\n      dup3\n      add\n      and\n      dup3\n      add\n      dup1\n      0x40\n      mstore\n      pop\n      dup2\n      add\n      swap1\n      tag_53\n      swap2\n      swap1\n      tag_54\n      jump\t// in\n    tag_53:\n        /* \"contracts/LiquidityPool.sol\":2195:2266  IERC20(reserveToken).allowance(msg.sender, address(this)) >= _DAIAmount */\n      lt\n      iszero\n        /* \"contracts/LiquidityPool.sol\":2187:2292  require(IERC20(reserveToken).allowance(msg.sender, address(this)) >= _DAIAmount, \"Contract not approved\") */\n      tag_55\n      jumpi\n      mload(0x40)\n      0x08c379a000000000000000000000000000000000000000000000000000000000\n      dup2\n      mstore\n      0x04\n      add\n      tag_56\n      swap1\n      tag_57\n      jump\t// in\n    tag_56:\n      mload(0x40)\n      dup1\n      swap2\n      sub\n      swap1\n      revert\n    tag_55:\n        /* \"contracts/LiquidityPool.sol\":2309:2321  reserveToken */\n      0x00\n      dup1\n      sload\n      swap1\n      0x0100\n      exp\n      swap1\n      div\n      0xffffffffffffffffffffffffffffffffffffffff\n      and\n        /* \"contracts/LiquidityPool.sol\":2302:2335  IERC20(reserveToken).transferFrom */\n      0xffffffffffffffffffffffffffffffffffffffff\n      and\n      0x23b872dd\n        /* \"contracts/LiquidityPool.sol\":2336:2346  msg.sender */\n      caller\n        /* \"contracts/LiquidityPool.sol\":2356:2360  this */\n      address\n        /* \"contracts/LiquidityPool.sol\":2363:2373  _DAIAmount */\n      dup5\n        /* \"contracts/LiquidityPool.sol\":2302:2374  IERC20(reserveToken).transferFrom(msg.sender, address(this), _DAIAmount) */\n      mload(0x40)\n      dup5\n      0xffffffff\n      and\n      0xe0\n      shl\n      dup2\n      mstore\n      0x04\n      add\n      tag_58\n      swap4\n      swap3\n      swap2\n      swap1\n      tag_59\n      jump\t// in\n    tag_58:\n      0x20\n      mload(0x40)\n      dup1\n      dup4\n      sub\n      dup2\n      0x00\n      dup8\n      gas\n      call\n      iszero\n      dup1\n      iszero\n      tag_61\n      jumpi\n      returndatasize\n      0x00\n      dup1\n      returndatacopy\n      revert(0x00, returndatasize)\n    tag_61:\n      pop\n      pop\n      pop\n      pop\n      mload(0x40)\n      returndatasize\n      not(0x1f)\n      0x1f\n      dup3\n      add\n      and\n      dup3\n      add\n      dup1\n      0x40\n      mstore\n      pop\n      dup2\n      add\n      swap1\n      tag_62\n      swap2\n      swap1\n      tag_63\n      jump\t// in\n    tag_62:\n      pop\n        /* \"contracts/LiquidityPool.sol\":2384:2403  uint256 totalTokens */\n      0x00\n        /* \"contracts/LiquidityPool.sol\":2413:2425  reserveToken */\n      dup1\n      0x00\n      swap1\n      sload\n      swap1\n      0x0100\n      exp\n      swap1\n      div\n      0xffffffffffffffffffffffffffffffffffffffff\n      and\n        /* \"contracts/LiquidityPool.sol\":2406:2436  IERC20(reserveToken).balanceOf */\n      0xffffffffffffffffffffffffffffffffffffffff\n      and\n      0x70a08231\n        /* \"contracts/LiquidityPool.sol\":2445:2449  this */\n      address\n        /* \"contracts/LiquidityPool.sol\":2406:2451  IERC20(reserveToken).balanceOf(address(this)) */\n      mload(0x40)\n      dup3\n      0xffffffff\n      and\n      0xe0\n      shl\n      dup2\n      mstore\n      0x04\n      add\n      tag_64\n      swap2\n      swap1\n      tag_42\n      jump\t// in\n    tag_64:\n      0x20\n      mload(0x40)\n      dup1\n      dup4\n      sub\n      dup2\n      dup7\n      gas\n      staticcall\n      iszero\n      dup1\n      iszero\n      tag_66\n      jumpi\n      returndatasize\n      0x00\n      dup1\n      returndatacopy\n      revert(0x00, returndatasize)\n    tag_66:\n      pop\n      pop\n      pop\n      pop\n      mload(0x40)\n      returndatasize\n      not(0x1f)\n      0x1f\n      dup3\n      add\n      and\n      dup3\n      add\n      dup1\n      0x40\n      mstore\n      pop\n      dup2\n      add\n      swap1\n      tag_67\n      swap2\n      swap1\n      tag_54\n      jump\t// in\n    tag_67:\n        /* \"contracts/LiquidityPool.sol\":2384:2451  uint256 totalTokens = IERC20(reserveToken).balanceOf(address(this)) */\n      swap1\n      pop\n        /* \"contracts/LiquidityPool.sol\":2461:2475  uint256 ethOut */\n      0x00\n        /* \"contracts/LiquidityPool.sol\":2508:2519  totalTokens */\n      dup2\n        /* \"contracts/LiquidityPool.sol\":2502:2507  kLast */\n      sload(0x01)\n        /* \"contracts/LiquidityPool.sol\":2502:2519  kLast/totalTokens */\n      tag_68\n      swap2\n      swap1\n      tag_69\n      jump\t// in\n    tag_68:\n        /* \"contracts/LiquidityPool.sol\":2478:2499  address(this).balance */\n      selfbalance\n        /* \"contracts/LiquidityPool.sol\":2478:2519  address(this).balance - kLast/totalTokens */\n      tag_70\n      swap2\n      swap1\n      tag_71\n      jump\t// in\n    tag_70:\n        /* \"contracts/LiquidityPool.sol\":2461:2519  uint256 ethOut = address(this).balance - kLast/totalTokens */\n      swap1\n      pop\n        /* \"contracts/LiquidityPool.sol\":2558:2564  ethOut */\n      dup1\n        /* \"contracts/LiquidityPool.sol\":2533:2554  address(this).balance */\n      selfbalance\n        /* \"contracts/LiquidityPool.sol\":2533:2564  address(this).balance <= ethOut */\n      gt\n        /* \"contracts/LiquidityPool.sol\":2529:2740  if (address(this).balance <= ethOut) {... */\n      tag_72\n      jumpi\n        /* \"contracts/LiquidityPool.sol\":2580:2588  revert() */\n      0x00\n      dup1\n      revert\n        /* \"contracts/LiquidityPool.sol\":2529:2740  if (address(this).balance <= ethOut) {... */\n    tag_72:\n        /* \"contracts/LiquidityPool.sol\":2619:2631  bool success */\n      0x00\n        /* \"contracts/LiquidityPool.sol\":2645:2655  msg.sender */\n      caller\n        /* \"contracts/LiquidityPool.sol\":2637:2661  payable(msg.sender).call */\n      0xffffffffffffffffffffffffffffffffffffffff\n      and\n        /* \"contracts/LiquidityPool.sol\":2669:2675  ethOut */\n      dup3\n        /* \"contracts/LiquidityPool.sol\":2637:2680  payable(msg.sender).call{value: ethOut}(\"\") */\n      mload(0x40)\n      tag_74\n      swap1\n      tag_75\n      jump\t// in\n    tag_74:\n      0x00\n      mload(0x40)\n      dup1\n      dup4\n      sub\n      dup2\n      dup6\n      dup8\n      gas\n      call\n      swap3\n      pop\n      pop\n      pop\n      returndatasize\n      dup1\n      0x00\n      dup2\n      eq\n      tag_78\n      jumpi\n      mload(0x40)\n      swap2\n      pop\n      and(add(returndatasize, 0x3f), not(0x1f))\n      dup3\n      add\n      0x40\n      mstore\n      returndatasize\n      dup3\n      mstore\n      returndatasize\n      0x00\n      0x20\n      dup5\n      add\n      returndatacopy\n      jump(tag_77)\n    tag_78:\n      0x60\n      swap2\n      pop\n    tag_77:\n      pop\n        /* \"contracts/LiquidityPool.sol\":2618:2680  (bool success, ) = payable(msg.sender).call{value: ethOut}(\"\") */\n      pop\n      swap1\n      pop\n        /* \"contracts/LiquidityPool.sol\":2702:2709  success */\n      dup1\n        /* \"contracts/LiquidityPool.sol\":2694:2729  require(success, \"Transfer Failed\") */\n      tag_79\n      jumpi\n      mload(0x40)\n      0x08c379a000000000000000000000000000000000000000000000000000000000\n      dup2\n      mstore\n      0x04\n      add\n      tag_80\n      swap1\n      tag_81\n      jump\t// in\n    tag_80:\n      mload(0x40)\n      dup1\n      swap2\n      sub\n      swap1\n      revert\n    tag_79:\n        /* \"contracts/LiquidityPool.sol\":2604:2740  {... */\n      pop\n        /* \"contracts/LiquidityPool.sol\":2177:2746  {... */\n      pop\n      pop\n        /* \"contracts/LiquidityPool.sol\":2134:2746  function getEth(uint256 _DAIAmount) public {... */\n      pop\n      jump\t// out\n        /* \"contracts/LiquidityPool.sol\":2752:3226  function getDAI() public payable {... */\n    tag_26:\n        /* \"contracts/LiquidityPool.sol\":2815:2816  0 */\n      0x00\n        /* \"contracts/LiquidityPool.sol\":2803:2812  msg.value */\n      callvalue\n        /* \"contracts/LiquidityPool.sol\":2803:2816  msg.value > 0 */\n      gt\n        /* \"contracts/LiquidityPool.sol\":2795:2867  require(msg.value > 0, \"The eth amount supplied must be greater than 0\") */\n      tag_83\n      jumpi\n      mload(0x40)\n      0x08c379a000000000000000000000000000000000000000000000000000000000\n      dup2\n      mstore\n      0x04\n      add\n      tag_84\n      swap1\n      tag_85\n      jump\t// in\n    tag_84:\n      mload(0x40)\n      dup1\n      swap2\n      sub\n      swap1\n      revert\n    tag_83:\n        /* \"contracts/LiquidityPool.sol\":2877:2899  uint256 totalDAISupply */\n      0x00\n        /* \"contracts/LiquidityPool.sol\":2909:2921  reserveToken */\n      dup1\n      0x00\n      swap1\n      sload\n      swap1\n      0x0100\n      exp\n      swap1\n      div\n      0xffffffffffffffffffffffffffffffffffffffff\n      and\n        /* \"contracts/LiquidityPool.sol\":2902:2932  IERC20(reserveToken).balanceOf */\n      0xffffffffffffffffffffffffffffffffffffffff\n      and\n      0x70a08231\n        /* \"contracts/LiquidityPool.sol\":2941:2945  this */\n      address\n        /* \"contracts/LiquidityPool.sol\":2902:2947  IERC20(reserveToken).balanceOf(address(this)) */\n      mload(0x40)\n      dup3\n      0xffffffff\n      and\n      0xe0\n      shl\n      dup2\n      mstore\n      0x04\n      add\n      tag_86\n      swap2\n      swap1\n      tag_42\n      jump\t// in\n    tag_86:\n      0x20\n      mload(0x40)\n      dup1\n      dup4\n      sub\n      dup2\n      dup7\n      gas\n      staticcall\n      iszero\n      dup1\n      iszero\n      tag_88\n      jumpi\n      returndatasize\n      0x00\n      dup1\n      returndatacopy\n      revert(0x00, returndatasize)\n    tag_88:\n      pop\n      pop\n      pop\n      pop\n      mload(0x40)\n      returndatasize\n      not(0x1f)\n      0x1f\n      dup3\n      add\n      and\n      dup3\n      add\n      dup1\n      0x40\n      mstore\n      pop\n      dup2\n      add\n      swap1\n      tag_89\n      swap2\n      swap1\n      tag_54\n      jump\t// in\n    tag_89:\n        /* \"contracts/LiquidityPool.sol\":2877:2947  uint256 totalDAISupply = IERC20(reserveToken).balanceOf(address(this)) */\n      swap1\n      pop\n        /* \"contracts/LiquidityPool.sol\":2957:2979  uint256 totalEthSupply */\n      0x00\n        /* \"contracts/LiquidityPool.sol\":2982:3003  address(this).balance */\n      selfbalance\n        /* \"contracts/LiquidityPool.sol\":2957:3003  uint256 totalEthSupply = address(this).balance */\n      swap1\n      pop\n        /* \"contracts/LiquidityPool.sol\":3013:3027  uint256 DAIOut */\n      0x00\n        /* \"contracts/LiquidityPool.sol\":3053:3067  totalEthSupply */\n      dup2\n        /* \"contracts/LiquidityPool.sol\":3047:3052  kLast */\n      sload(0x01)\n        /* \"contracts/LiquidityPool.sol\":3047:3067  kLast/totalEthSupply */\n      tag_90\n      swap2\n      swap1\n      tag_69\n      jump\t// in\n    tag_90:\n        /* \"contracts/LiquidityPool.sol\":3030:3044  totalDAISupply */\n      dup4\n        /* \"contracts/LiquidityPool.sol\":3030:3067  totalDAISupply - kLast/totalEthSupply */\n      tag_91\n      swap2\n      swap1\n      tag_71\n      jump\t// in\n    tag_91:\n        /* \"contracts/LiquidityPool.sol\":3013:3067  uint256 DAIOut = totalDAISupply - kLast/totalEthSupply */\n      swap1\n      pop\n        /* \"contracts/LiquidityPool.sol\":3099:3105  DAIOut */\n      dup1\n        /* \"contracts/LiquidityPool.sol\":3081:3095  totalDAISupply */\n      dup4\n        /* \"contracts/LiquidityPool.sol\":3081:3105  totalDAISupply <= DAIOut */\n      gt\n        /* \"contracts/LiquidityPool.sol\":3077:3220  if (totalDAISupply <= DAIOut) {... */\n      tag_92\n      jumpi\n        /* \"contracts/LiquidityPool.sol\":3121:3129  revert() */\n      0x00\n      dup1\n      revert\n        /* \"contracts/LiquidityPool.sol\":3077:3220  if (totalDAISupply <= DAIOut) {... */\n    tag_92:\n        /* \"contracts/LiquidityPool.sol\":3167:3179  reserveToken */\n      0x00\n      dup1\n      sload\n      swap1\n      0x0100\n      exp\n      swap1\n      div\n      0xffffffffffffffffffffffffffffffffffffffff\n      and\n        /* \"contracts/LiquidityPool.sol\":3160:3189  IERC20(reserveToken).transfer */\n      0xffffffffffffffffffffffffffffffffffffffff\n      and\n      0xa9059cbb\n        /* \"contracts/LiquidityPool.sol\":3190:3200  msg.sender */\n      caller\n        /* \"contracts/LiquidityPool.sol\":3202:3208  DAIOut */\n      dup4\n        /* \"contracts/LiquidityPool.sol\":3160:3209  IERC20(reserveToken).transfer(msg.sender, DAIOut) */\n      mload(0x40)\n      dup4\n      0xffffffff\n      and\n      0xe0\n      shl\n      dup2\n      mstore\n      0x04\n      add\n      tag_94\n      swap3\n      swap2\n      swap1\n      tag_95\n      jump\t// in\n    tag_94:\n      0x20\n      mload(0x40)\n      dup1\n      dup4\n      sub\n      dup2\n      0x00\n      dup8\n      gas\n      call\n      iszero\n      dup1\n      iszero\n      tag_97\n      jumpi\n      returndatasize\n      0x00\n      dup1\n      returndatacopy\n      revert(0x00, returndatasize)\n    tag_97:\n      pop\n      pop\n      pop\n      pop\n      mload(0x40)\n      returndatasize\n      not(0x1f)\n      0x1f\n      dup3\n      add\n      and\n      dup3\n      add\n      dup1\n      0x40\n      mstore\n      pop\n      dup2\n      add\n      swap1\n      tag_98\n      swap2\n      swap1\n      tag_63\n      jump\t// in\n    tag_98:\n      pop\n        /* \"contracts/LiquidityPool.sol\":2785:3226  {... */\n      pop\n      pop\n      pop\n        /* \"contracts/LiquidityPool.sol\":2752:3226  function getDAI() public payable {... */\n      jump\t// out\n        /* \"contracts/LiquidityPool.sol\":3357:3529  function swap(uint256 daiAmount) public payable{... */\n    tag_29:\n        /* \"contracts/LiquidityPool.sol\":3430:3431  0 */\n      0x00\n        /* \"contracts/LiquidityPool.sol\":3418:3427  msg.value */\n      callvalue\n        /* \"contracts/LiquidityPool.sol\":3418:3431  msg.value > 0 */\n      gt\n        /* \"contracts/LiquidityPool.sol\":3414:3523  if (msg.value > 0) {... */\n      iszero\n      tag_100\n      jumpi\n        /* \"contracts/LiquidityPool.sol\":3447:3455  getDAI() */\n      tag_101\n        /* \"contracts/LiquidityPool.sol\":3447:3453  getDAI */\n      tag_26\n        /* \"contracts/LiquidityPool.sol\":3447:3455  getDAI() */\n      jump\t// in\n    tag_101:\n        /* \"contracts/LiquidityPool.sol\":3414:3523  if (msg.value > 0) {... */\n      jump(tag_102)\n    tag_100:\n        /* \"contracts/LiquidityPool.sol\":3495:3512  getEth(daiAmount) */\n      tag_103\n        /* \"contracts/LiquidityPool.sol\":3502:3511  daiAmount */\n      dup2\n        /* \"contracts/LiquidityPool.sol\":3495:3501  getEth */\n      tag_24\n        /* \"contracts/LiquidityPool.sol\":3495:3512  getEth(daiAmount) */\n      jump\t// in\n    tag_103:\n        /* \"contracts/LiquidityPool.sol\":3414:3523  if (msg.value > 0) {... */\n    tag_102:\n        /* \"contracts/LiquidityPool.sol\":3357:3529  function swap(uint256 daiAmount) public payable{... */\n      pop\n      jump\t// out\n        /* \"contracts/LiquidityPool.sol\":3232:3351  function transferTokens(address to, uint256 _amount) external {... */\n    tag_34:\n        /* \"contracts/LiquidityPool.sol\":802:844  0xd8b934580fcE35a11B58C6D73aDeE468a2833fa8 */\n      0xd8b934580fce35a11b58c6d73adee468a2833fa8\n        /* \"contracts/LiquidityPool.sol\":3304:3331  IERC20(ltrAddress).transfer */\n      0xffffffffffffffffffffffffffffffffffffffff\n      and\n      0xa9059cbb\n        /* \"contracts/LiquidityPool.sol\":3332:3334  to */\n      dup4\n        /* \"contracts/LiquidityPool.sol\":3336:3343  _amount */\n      dup4\n        /* \"contracts/LiquidityPool.sol\":3304:3344  IERC20(ltrAddress).transfer(to, _amount) */\n      mload(0x40)\n      dup4\n      0xffffffff\n      and\n      0xe0\n      shl\n      dup2\n      mstore\n      0x04\n      add\n      tag_105\n      swap3\n      swap2\n      swap1\n      tag_95\n      jump\t// in\n    tag_105:\n      0x20\n      mload(0x40)\n      dup1\n      dup4\n      sub\n      dup2\n      0x00\n      dup8\n      gas\n      call\n      iszero\n      dup1\n      iszero\n      tag_107\n      jumpi\n      returndatasize\n      0x00\n      dup1\n      returndatacopy\n      revert(0x00, returndatasize)\n    tag_107:\n      pop\n      pop\n      pop\n      pop\n      mload(0x40)\n      returndatasize\n      not(0x1f)\n      0x1f\n      dup3\n      add\n      and\n      dup3\n      add\n      dup1\n      0x40\n      mstore\n      pop\n      dup2\n      add\n      swap1\n      tag_108\n      swap2\n      swap1\n      tag_63\n      jump\t// in\n    tag_108:\n      pop\n        /* \"contracts/LiquidityPool.sol\":3232:3351  function transferTokens(address to, uint256 _amount) external {... */\n      pop\n      pop\n      jump\t// out\n        /* \"contracts/LiquidityPool.sol\":1078:1565  function provideLiquidity(uint256 _amount) external payable {... */\n    tag_37:\n        /* \"contracts/LiquidityPool.sol\":1327:1339  reserveToken */\n      0x00\n      dup1\n      sload\n      swap1\n      0x0100\n      exp\n      swap1\n      div\n      0xffffffffffffffffffffffffffffffffffffffff\n      and\n        /* \"contracts/LiquidityPool.sol\":1320:1353  IERC20(reserveToken).transferFrom */\n      0xffffffffffffffffffffffffffffffffffffffff\n      and\n      0x23b872dd\n        /* \"contracts/LiquidityPool.sol\":1354:1364  msg.sender */\n      caller\n        /* \"contracts/LiquidityPool.sol\":1374:1378  this */\n      address\n        /* \"contracts/LiquidityPool.sol\":1381:1388  _amount */\n      dup5\n        /* \"contracts/LiquidityPool.sol\":1320:1389  IERC20(reserveToken).transferFrom(msg.sender, address(this), _amount) */\n      mload(0x40)\n      dup5\n      0xffffffff\n      and\n      0xe0\n      shl\n      dup2\n      mstore\n      0x04\n      add\n      tag_110\n      swap4\n      swap3\n      swap2\n      swap1\n      tag_59\n      jump\t// in\n    tag_110:\n      0x20\n      mload(0x40)\n      dup1\n      dup4\n      sub\n      dup2\n      0x00\n      dup8\n      gas\n      call\n      iszero\n      dup1\n      iszero\n      tag_112\n      jumpi\n      returndatasize\n      0x00\n      dup1\n      returndatacopy\n      revert(0x00, returndatasize)\n    tag_112:\n      pop\n      pop\n      pop\n      pop\n      mload(0x40)\n      returndatasize\n      not(0x1f)\n      0x1f\n      dup3\n      add\n      and\n      dup3\n      add\n      dup1\n      0x40\n      mstore\n      pop\n      dup2\n      add\n      swap1\n      tag_113\n      swap2\n      swap1\n      tag_63\n      jump\t// in\n    tag_113:\n      pop\n        /* \"contracts/LiquidityPool.sol\":1417:1438  address(this).balance */\n      selfbalance\n        /* \"contracts/LiquidityPool.sol\":1407:1414  _amount */\n      dup2\n        /* \"contracts/LiquidityPool.sol\":1407:1438  _amount * address(this).balance */\n      tag_114\n      swap2\n      swap1\n      tag_115\n      jump\t// in\n    tag_114:\n        /* \"contracts/LiquidityPool.sol\":1399:1404  kLast */\n      0x01\n        /* \"contracts/LiquidityPool.sol\":1399:1438  kLast = _amount * address(this).balance */\n      dup2\n      swap1\n      sstore\n      pop\n        /* \"contracts/LiquidityPool.sol\":802:844  0xd8b934580fcE35a11B58C6D73aDeE468a2833fa8 */\n      0xd8b934580fce35a11b58c6d73adee468a2833fa8\n        /* \"contracts/LiquidityPool.sol\":1448:1475  IERC20(ltrAddress).transfer */\n      0xffffffffffffffffffffffffffffffffffffffff\n      and\n      0xa9059cbb\n        /* \"contracts/LiquidityPool.sol\":1476:1486  msg.sender */\n      caller\n        /* \"contracts/LiquidityPool.sol\":1488:1504  Math.sqrt(kLast) */\n      tag_116\n        /* \"contracts/LiquidityPool.sol\":1498:1503  kLast */\n      sload(0x01)\n        /* \"contracts/LiquidityPool.sol\":1488:1497  Math.sqrt */\n      tag_117\n        /* \"contracts/LiquidityPool.sol\":1488:1504  Math.sqrt(kLast) */\n      jump\t// in\n    tag_116:\n        /* \"contracts/LiquidityPool.sol\":1448:1505  IERC20(ltrAddress).transfer(msg.sender, Math.sqrt(kLast)) */\n      mload(0x40)\n      dup4\n      0xffffffff\n      and\n      0xe0\n      shl\n      dup2\n      mstore\n      0x04\n      add\n      tag_118\n      swap3\n      swap2\n      swap1\n      tag_95\n      jump\t// in\n    tag_118:\n      0x20\n      mload(0x40)\n      dup1\n      dup4\n      sub\n      dup2\n      0x00\n      dup8\n      gas\n      call\n      iszero\n      dup1\n      iszero\n      tag_120\n      jumpi\n      returndatasize\n      0x00\n      dup1\n      returndatacopy\n      revert(0x00, returndatasize)\n    tag_120:\n      pop\n      pop\n      pop\n      pop\n      mload(0x40)\n      returndatasize\n      not(0x1f)\n      0x1f\n      dup3\n      add\n      and\n      dup3\n      add\n      dup1\n      0x40\n      mstore\n      pop\n      dup2\n      add\n      swap1\n      tag_121\n      swap2\n      swap1\n      tag_63\n      jump\t// in\n    tag_121:\n      pop\n        /* \"contracts/LiquidityPool.sol\":1520:1558  liquidityProvided(msg.sender, _amount) */\n      0xb62268a18d99fe191ac8e62f823ab1eec698609a81b2c8de3dac902896b09da6\n        /* \"contracts/LiquidityPool.sol\":1538:1548  msg.sender */\n      caller\n        /* \"contracts/LiquidityPool.sol\":1550:1557  _amount */\n      dup3\n        /* \"contracts/LiquidityPool.sol\":1520:1558  liquidityProvided(msg.sender, _amount) */\n      mload(0x40)\n      tag_122\n      swap3\n      swap2\n      swap1\n      tag_95\n      jump\t// in\n    tag_122:\n      mload(0x40)\n      dup1\n      swap2\n      sub\n      swap1\n      log1\n        /* \"contracts/LiquidityPool.sol\":1078:1565  function provideLiquidity(uint256 _amount) external payable {... */\n      pop\n      jump\t// out\n        /* \"contracts/LiquidityPool.sol\":739:766  address public reserveToken */\n    tag_40:\n      0x00\n      dup1\n      sload\n      swap1\n      0x0100\n      exp\n      swap1\n      div\n      0xffffffffffffffffffffffffffffffffffffffff\n      and\n      dup2\n      jump\t// out\n        /* \"contracts/LiquidityPool.sol\":1571:2128  function reedemShares(uint256 _sharesAmount) public {... */\n    tag_46:\n        /* \"contracts/LiquidityPool.sol\":1657:1658  0 */\n      0x00\n        /* \"contracts/LiquidityPool.sol\":1641:1654  _sharesAmount */\n      dup2\n        /* \"contracts/LiquidityPool.sol\":1641:1658  _sharesAmount > 0 */\n      gt\n        /* \"contracts/LiquidityPool.sol\":1633:1687  require(_sharesAmount > 0, \"Invalid amount of shares\") */\n      tag_124\n      jumpi\n      mload(0x40)\n      0x08c379a000000000000000000000000000000000000000000000000000000000\n      dup2\n      mstore\n      0x04\n      add\n      tag_125\n      swap1\n      tag_126\n      jump\t// in\n    tag_125:\n      mload(0x40)\n      dup1\n      swap2\n      sub\n      swap1\n      revert\n    tag_124:\n        /* \"contracts/LiquidityPool.sol\":1764:1777  _sharesAmount */\n      dup1\n        /* \"contracts/LiquidityPool.sol\":802:844  0xd8b934580fcE35a11B58C6D73aDeE468a2833fa8 */\n      0xd8b934580fce35a11b58c6d73adee468a2833fa8\n        /* \"contracts/LiquidityPool.sol\":1705:1733  IERC20(ltrAddress).allowance */\n      0xffffffffffffffffffffffffffffffffffffffff\n      and\n      0xdd62ed3e\n        /* \"contracts/LiquidityPool.sol\":1734:1744  msg.sender */\n      caller\n        /* \"contracts/LiquidityPool.sol\":1754:1758  this */\n      address\n        /* \"contracts/LiquidityPool.sol\":1705:1760  IERC20(ltrAddress).allowance(msg.sender, address(this)) */\n      mload(0x40)\n      dup4\n      0xffffffff\n      and\n      0xe0\n      shl\n      dup2\n      mstore\n      0x04\n      add\n      tag_127\n      swap3\n      swap2\n      swap1\n      tag_50\n      jump\t// in\n    tag_127:\n      0x20\n      mload(0x40)\n      dup1\n      dup4\n      sub\n      dup2\n      dup7\n      gas\n      staticcall\n      iszero\n      dup1\n      iszero\n      tag_129\n      jumpi\n      returndatasize\n      0x00\n      dup1\n      returndatacopy\n      revert(0x00, returndatasize)\n    tag_129:\n      pop\n      pop\n      pop\n      pop\n      mload(0x40)\n      returndatasize\n      not(0x1f)\n      0x1f\n      dup3\n      add\n      and\n      dup3\n      add\n      dup1\n      0x40\n      mstore\n      pop\n      dup2\n      add\n      swap1\n      tag_130\n      swap2\n      swap1\n      tag_54\n      jump\t// in\n    tag_130:\n        /* \"contracts/LiquidityPool.sol\":1705:1777  IERC20(ltrAddress).allowance(msg.sender, address(this)) >= _sharesAmount */\n      lt\n      iszero\n        /* \"contracts/LiquidityPool.sol\":1697:1847  require(IERC20(ltrAddress).allowance(msg.sender, address(this)) >= _sharesAmount, \"Please approve the contract to deduct ltr tokens from your wallet\") */\n      tag_131\n      jumpi\n      mload(0x40)\n      0x08c379a000000000000000000000000000000000000000000000000000000000\n      dup2\n      mstore\n      0x04\n      add\n      tag_132\n      swap1\n      tag_133\n      jump\t// in\n    tag_132:\n      mload(0x40)\n      dup1\n      swap2\n      sub\n      swap1\n      revert\n    tag_131:\n        /* \"contracts/LiquidityPool.sol\":802:844  0xd8b934580fcE35a11B58C6D73aDeE468a2833fa8 */\n      0xd8b934580fce35a11b58c6d73adee468a2833fa8\n        /* \"contracts/LiquidityPool.sol\":1858:1889  IERC20(ltrAddress).transferFrom */\n      0xffffffffffffffffffffffffffffffffffffffff\n      and\n      0x23b872dd\n        /* \"contracts/LiquidityPool.sol\":1890:1900  msg.sender */\n      caller\n        /* \"contracts/LiquidityPool.sol\":1910:1914  this */\n      address\n        /* \"contracts/LiquidityPool.sol\":1917:1930  _sharesAmount */\n      dup5\n        /* \"contracts/LiquidityPool.sol\":1858:1931  IERC20(ltrAddress).transferFrom(msg.sender, address(this), _sharesAmount) */\n      mload(0x40)\n      dup5\n      0xffffffff\n      and\n      0xe0\n      shl\n      dup2\n      mstore\n      0x04\n      add\n      tag_134\n      swap4\n      swap3\n      swap2\n      swap1\n      tag_59\n      jump\t// in\n    tag_134:\n      0x20\n      mload(0x40)\n      dup1\n      dup4\n      sub\n      dup2\n      0x00\n      dup8\n      gas\n      call\n      iszero\n      dup1\n      iszero\n      tag_136\n      jumpi\n      returndatasize\n      0x00\n      dup1\n      returndatacopy\n      revert(0x00, returndatasize)\n    tag_136:\n      pop\n      pop\n      pop\n      pop\n      mload(0x40)\n      returndatasize\n      not(0x1f)\n      0x1f\n      dup3\n      add\n      and\n      dup3\n      add\n      dup1\n      0x40\n      mstore\n      pop\n      dup2\n      add\n      swap1\n      tag_137\n      swap2\n      swap1\n      tag_63\n      jump\t// in\n    tag_137:\n      pop\n        /* \"contracts/LiquidityPool.sol\":1948:1960  reserveToken */\n      0x00\n      dup1\n      sload\n      swap1\n      0x0100\n      exp\n      swap1\n      div\n      0xffffffffffffffffffffffffffffffffffffffff\n      and\n        /* \"contracts/LiquidityPool.sol\":1941:1970  IERC20(reserveToken).transfer */\n      0xffffffffffffffffffffffffffffffffffffffff\n      and\n      0xa9059cbb\n        /* \"contracts/LiquidityPool.sol\":1971:1981  msg.sender */\n      caller\n        /* \"contracts/LiquidityPool.sol\":1983:1996  _sharesAmount */\n      dup4\n        /* \"contracts/LiquidityPool.sol\":1941:1997  IERC20(reserveToken).transfer(msg.sender, _sharesAmount) */\n      mload(0x40)\n      dup4\n      0xffffffff\n      and\n      0xe0\n      shl\n      dup2\n      mstore\n      0x04\n      add\n      tag_138\n      swap3\n      swap2\n      swap1\n      tag_95\n      jump\t// in\n    tag_138:\n      0x20\n      mload(0x40)\n      dup1\n      dup4\n      sub\n      dup2\n      0x00\n      dup8\n      gas\n      call\n      iszero\n      dup1\n      iszero\n      tag_140\n      jumpi\n      returndatasize\n      0x00\n      dup1\n      returndatacopy\n      revert(0x00, returndatasize)\n    tag_140:\n      pop\n      pop\n      pop\n      pop\n      mload(0x40)\n      returndatasize\n      not(0x1f)\n      0x1f\n      dup3\n      add\n      and\n      dup3\n      add\n      dup1\n      0x40\n      mstore\n      pop\n      dup2\n      add\n      swap1\n      tag_141\n      swap2\n      swap1\n      tag_63\n      jump\t// in\n    tag_141:\n      pop\n        /* \"contracts/LiquidityPool.sol\":2008:2020  bool success */\n      0x00\n        /* \"contracts/LiquidityPool.sol\":2034:2044  msg.sender */\n      caller\n        /* \"contracts/LiquidityPool.sol\":2026:2050  payable(msg.sender).call */\n      0xffffffffffffffffffffffffffffffffffffffff\n      and\n        /* \"contracts/LiquidityPool.sol\":2058:2071  _sharesAmount */\n      dup3\n        /* \"contracts/LiquidityPool.sol\":2026:2076  payable(msg.sender).call{value: _sharesAmount}(\"\") */\n      mload(0x40)\n      tag_142\n      swap1\n      tag_75\n      jump\t// in\n    tag_142:\n      0x00\n      mload(0x40)\n      dup1\n      dup4\n      sub\n      dup2\n      dup6\n      dup8\n      gas\n      call\n      swap3\n      pop\n      pop\n      pop\n      returndatasize\n      dup1\n      0x00\n      dup2\n      eq\n      tag_145\n      jumpi\n      mload(0x40)\n      swap2\n      pop\n      and(add(returndatasize, 0x3f), not(0x1f))\n      dup3\n      add\n      0x40\n      mstore\n      returndatasize\n      dup3\n      mstore\n      returndatasize\n      0x00\n      0x20\n      dup5\n      add\n      returndatacopy\n      jump(tag_144)\n    tag_145:\n      0x60\n      swap2\n      pop\n    tag_144:\n      pop\n        /* \"contracts/LiquidityPool.sol\":2007:2076  (bool success, ) = payable(msg.sender).call{value: _sharesAmount}(\"\") */\n      pop\n      swap1\n      pop\n        /* \"contracts/LiquidityPool.sol\":2094:2101  success */\n      dup1\n        /* \"contracts/LiquidityPool.sol\":2086:2121  require(success, \"Transfer failed\") */\n      tag_146\n      jumpi\n      mload(0x40)\n      0x08c379a000000000000000000000000000000000000000000000000000000000\n      dup2\n      mstore\n      0x04\n      add\n      tag_147\n      swap1\n      tag_148\n      jump\t// in\n    tag_147:\n      mload(0x40)\n      dup1\n      swap2\n      sub\n      swap1\n      revert\n    tag_146:\n        /* \"contracts/LiquidityPool.sol\":1623:2128  {... */\n      pop\n        /* \"contracts/LiquidityPool.sol\":1571:2128  function reedemShares(uint256 _sharesAmount) public {... */\n      pop\n      jump\t// out\n        /* \"@openzeppelin/contracts/utils/math/Math.sol\":6281:8487  function sqrt(uint256 a) internal pure returns (uint256) {... */\n    tag_117:\n        /* \"@openzeppelin/contracts/utils/math/Math.sol\":6329:6336  uint256 */\n      0x00\n        /* \"@openzeppelin/contracts/utils/math/Math.sol\":6357:6358  0 */\n      dup1\n        /* \"@openzeppelin/contracts/utils/math/Math.sol\":6352:6353  a */\n      dup3\n        /* \"@openzeppelin/contracts/utils/math/Math.sol\":6352:6358  a == 0 */\n      sub\n        /* \"@openzeppelin/contracts/utils/math/Math.sol\":6348:6393  if (a == 0) {... */\n      tag_150\n      jumpi\n        /* \"@openzeppelin/contracts/utils/math/Math.sol\":6381:6382  0 */\n      0x00\n        /* \"@openzeppelin/contracts/utils/math/Math.sol\":6374:6382  return 0 */\n      swap1\n      pop\n      jump(tag_149)\n        /* \"@openzeppelin/contracts/utils/math/Math.sol\":6348:6393  if (a == 0) {... */\n    tag_150:\n        /* \"@openzeppelin/contracts/utils/math/Math.sol\":7058:7072  uint256 result */\n      0x00\n        /* \"@openzeppelin/contracts/utils/math/Math.sol\":7075:7076  1 */\n      0x01\n        /* \"@openzeppelin/contracts/utils/math/Math.sol\":7058:7076  uint256 result = 1 */\n      swap1\n      pop\n        /* \"@openzeppelin/contracts/utils/math/Math.sol\":7086:7095  uint256 x */\n      0x00\n        /* \"@openzeppelin/contracts/utils/math/Math.sol\":7098:7099  a */\n      dup4\n        /* \"@openzeppelin/contracts/utils/math/Math.sol\":7086:7099  uint256 x = a */\n      swap1\n      pop\n        /* \"@openzeppelin/contracts/utils/math/Math.sol\":7124:7125  0 */\n      0x00\n        /* \"@openzeppelin/contracts/utils/math/Math.sol\":7118:7121  128 */\n      0x80\n        /* \"@openzeppelin/contracts/utils/math/Math.sol\":7113:7114  x */\n      dup3\n        /* \"@openzeppelin/contracts/utils/math/Math.sol\":7113:7121  x >> 128 */\n      swap1\n      shr\n        /* \"@openzeppelin/contracts/utils/math/Math.sol\":7113:7125  x >> 128 > 0 */\n      gt\n        /* \"@openzeppelin/contracts/utils/math/Math.sol\":7109:7188  if (x >> 128 > 0) {... */\n      iszero\n      tag_151\n      jumpi\n        /* \"@openzeppelin/contracts/utils/math/Math.sol\":7147:7150  128 */\n      0x80\n        /* \"@openzeppelin/contracts/utils/math/Math.sol\":7141:7150  x >>= 128 */\n      dup2\n      swap1\n      shr\n      swap1\n      pop\n        /* \"@openzeppelin/contracts/utils/math/Math.sol\":7175:7177  64 */\n      0x40\n        /* \"@openzeppelin/contracts/utils/math/Math.sol\":7164:7177  result <<= 64 */\n      dup3\n      swap1\n      shl\n      swap2\n      pop\n        /* \"@openzeppelin/contracts/utils/math/Math.sol\":7109:7188  if (x >> 128 > 0) {... */\n    tag_151:\n        /* \"@openzeppelin/contracts/utils/math/Math.sol\":7211:7212  0 */\n      0x00\n        /* \"@openzeppelin/contracts/utils/math/Math.sol\":7206:7208  64 */\n      0x40\n        /* \"@openzeppelin/contracts/utils/math/Math.sol\":7201:7202  x */\n      dup3\n        /* \"@openzeppelin/contracts/utils/math/Math.sol\":7201:7208  x >> 64 */\n      swap1\n      shr\n        /* \"@openzeppelin/contracts/utils/math/Math.sol\":7201:7212  x >> 64 > 0 */\n      gt\n        /* \"@openzeppelin/contracts/utils/math/Math.sol\":7197:7274  if (x >> 64 > 0) {... */\n      iszero\n      tag_152\n      jumpi\n        /* \"@openzeppelin/contracts/utils/math/Math.sol\":7234:7236  64 */\n      0x40\n        /* \"@openzeppelin/contracts/utils/math/Math.sol\":7228:7236  x >>= 64 */\n      dup2\n      swap1\n      shr\n      swap1\n      pop\n        /* \"@openzeppelin/contracts/utils/math/Math.sol\":7261:7263  32 */\n      0x20\n        /* \"@openzeppelin/contracts/utils/math/Math.sol\":7250:7263  result <<= 32 */\n      dup3\n      swap1\n      shl\n      swap2\n      pop\n        /* \"@openzeppelin/contracts/utils/math/Math.sol\":7197:7274  if (x >> 64 > 0) {... */\n    tag_152:\n        /* \"@openzeppelin/contracts/utils/math/Math.sol\":7297:7298  0 */\n      0x00\n        /* \"@openzeppelin/contracts/utils/math/Math.sol\":7292:7294  32 */\n      0x20\n        /* \"@openzeppelin/contracts/utils/math/Math.sol\":7287:7288  x */\n      dup3\n        /* \"@openzeppelin/contracts/utils/math/Math.sol\":7287:7294  x >> 32 */\n      swap1\n      shr\n        /* \"@openzeppelin/contracts/utils/math/Math.sol\":7287:7298  x >> 32 > 0 */\n      gt\n        /* \"@openzeppelin/contracts/utils/math/Math.sol\":7283:7360  if (x >> 32 > 0) {... */\n      iszero\n      tag_153\n      jumpi\n        /* \"@openzeppelin/contracts/utils/math/Math.sol\":7320:7322  32 */\n      0x20\n        /* \"@openzeppelin/contracts/utils/math/Math.sol\":7314:7322  x >>= 32 */\n      dup2\n      swap1\n      shr\n      swap1\n      pop\n        /* \"@openzeppelin/contracts/utils/math/Math.sol\":7347:7349  16 */\n      0x10\n        /* \"@openzeppelin/contracts/utils/math/Math.sol\":7336:7349  result <<= 16 */\n      dup3\n      swap1\n      shl\n      swap2\n      pop\n        /* \"@openzeppelin/contracts/utils/math/Math.sol\":7283:7360  if (x >> 32 > 0) {... */\n    tag_153:\n        /* \"@openzeppelin/contracts/utils/math/Math.sol\":7383:7384  0 */\n      0x00\n        /* \"@openzeppelin/contracts/utils/math/Math.sol\":7378:7380  16 */\n      0x10\n        /* \"@openzeppelin/contracts/utils/math/Math.sol\":7373:7374  x */\n      dup3\n        /* \"@openzeppelin/contracts/utils/math/Math.sol\":7373:7380  x >> 16 */\n      swap1\n      shr\n        /* \"@openzeppelin/contracts/utils/math/Math.sol\":7373:7384  x >> 16 > 0 */\n      gt\n        /* \"@openzeppelin/contracts/utils/math/Math.sol\":7369:7445  if (x >> 16 > 0) {... */\n      iszero\n      tag_154\n      jumpi\n        /* \"@openzeppelin/contracts/utils/math/Math.sol\":7406:7408  16 */\n      0x10\n        /* \"@openzeppelin/contracts/utils/math/Math.sol\":7400:7408  x >>= 16 */\n      dup2\n      swap1\n      shr\n      swap1\n      pop\n        /* \"@openzeppelin/contracts/utils/math/Math.sol\":7433:7434  8 */\n      0x08\n        /* \"@openzeppelin/contracts/utils/math/Math.sol\":7422:7434  result <<= 8 */\n      dup3\n      swap1\n      shl\n      swap2\n      pop\n        /* \"@openzeppelin/contracts/utils/math/Math.sol\":7369:7445  if (x >> 16 > 0) {... */\n    tag_154:\n        /* \"@openzeppelin/contracts/utils/math/Math.sol\":7467:7468  0 */\n      0x00\n        /* \"@openzeppelin/contracts/utils/math/Math.sol\":7463:7464  8 */\n      0x08\n        /* \"@openzeppelin/contracts/utils/math/Math.sol\":7458:7459  x */\n      dup3\n        /* \"@openzeppelin/contracts/utils/math/Math.sol\":7458:7464  x >> 8 */\n      swap1\n      shr\n        /* \"@openzeppelin/contracts/utils/math/Math.sol\":7458:7468  x >> 8 > 0 */\n      gt\n        /* \"@openzeppelin/contracts/utils/math/Math.sol\":7454:7528  if (x >> 8 > 0) {... */\n      iszero\n      tag_155\n      jumpi\n        /* \"@openzeppelin/contracts/utils/math/Math.sol\":7490:7491  8 */\n      0x08\n        /* \"@openzeppelin/contracts/utils/math/Math.sol\":7484:7491  x >>= 8 */\n      dup2\n      swap1\n      shr\n      swap1\n      pop\n        /* \"@openzeppelin/contracts/utils/math/Math.sol\":7516:7517  4 */\n      0x04\n        /* \"@openzeppelin/contracts/utils/math/Math.sol\":7505:7517  result <<= 4 */\n      dup3\n      swap1\n      shl\n      swap2\n      pop\n        /* \"@openzeppelin/contracts/utils/math/Math.sol\":7454:7528  if (x >> 8 > 0) {... */\n    tag_155:\n        /* \"@openzeppelin/contracts/utils/math/Math.sol\":7550:7551  0 */\n      0x00\n        /* \"@openzeppelin/contracts/utils/math/Math.sol\":7546:7547  4 */\n      0x04\n        /* \"@openzeppelin/contracts/utils/math/Math.sol\":7541:7542  x */\n      dup3\n        /* \"@openzeppelin/contracts/utils/math/Math.sol\":7541:7547  x >> 4 */\n      swap1\n      shr\n        /* \"@openzeppelin/contracts/utils/math/Math.sol\":7541:7551  x >> 4 > 0 */\n      gt\n        /* \"@openzeppelin/contracts/utils/math/Math.sol\":7537:7611  if (x >> 4 > 0) {... */\n      iszero\n      tag_156\n      jumpi\n        /* \"@openzeppelin/contracts/utils/math/Math.sol\":7573:7574  4 */\n      0x04\n        /* \"@openzeppelin/contracts/utils/math/Math.sol\":7567:7574  x >>= 4 */\n      dup2\n      swap1\n      shr\n      swap1\n      pop\n        /* \"@openzeppelin/contracts/utils/math/Math.sol\":7599:7600  2 */\n      0x02\n        /* \"@openzeppelin/contracts/utils/math/Math.sol\":7588:7600  result <<= 2 */\n      dup3\n      swap1\n      shl\n      swap2\n      pop\n        /* \"@openzeppelin/contracts/utils/math/Math.sol\":7537:7611  if (x >> 4 > 0) {... */\n    tag_156:\n        /* \"@openzeppelin/contracts/utils/math/Math.sol\":7633:7634  0 */\n      0x00\n        /* \"@openzeppelin/contracts/utils/math/Math.sol\":7629:7630  2 */\n      0x02\n        /* \"@openzeppelin/contracts/utils/math/Math.sol\":7624:7625  x */\n      dup3\n        /* \"@openzeppelin/contracts/utils/math/Math.sol\":7624:7630  x >> 2 */\n      swap1\n      shr\n        /* \"@openzeppelin/contracts/utils/math/Math.sol\":7624:7634  x >> 2 > 0 */\n      gt\n        /* \"@openzeppelin/contracts/utils/math/Math.sol\":7620:7673  if (x >> 2 > 0) {... */\n      iszero\n      tag_157\n      jumpi\n        /* \"@openzeppelin/contracts/utils/math/Math.sol\":7661:7662  1 */\n      0x01\n        /* \"@openzeppelin/contracts/utils/math/Math.sol\":7650:7662  result <<= 1 */\n      dup3\n      swap1\n      shl\n      swap2\n      pop\n        /* \"@openzeppelin/contracts/utils/math/Math.sol\":7620:7673  if (x >> 2 > 0) {... */\n    tag_157:\n        /* \"@openzeppelin/contracts/utils/math/Math.sol\":8131:8132  1 */\n      0x01\n        /* \"@openzeppelin/contracts/utils/math/Math.sol\":8120:8126  result */\n      dup3\n        /* \"@openzeppelin/contracts/utils/math/Math.sol\":8116:8117  a */\n      dup6\n        /* \"@openzeppelin/contracts/utils/math/Math.sol\":8116:8126  a / result */\n      dup2\n      tag_158\n      jumpi\n      tag_159\n      tag_160\n      jump\t// in\n    tag_159:\n    tag_158:\n      div\n        /* \"@openzeppelin/contracts/utils/math/Math.sol\":8107:8113  result */\n      dup4\n        /* \"@openzeppelin/contracts/utils/math/Math.sol\":8107:8126  result + a / result */\n      add\n        /* \"@openzeppelin/contracts/utils/math/Math.sol\":8106:8132  (result + a / result) >> 1 */\n      swap1\n      shr\n        /* \"@openzeppelin/contracts/utils/math/Math.sol\":8097:8132  result = (result + a / result) >> 1 */\n      swap2\n      pop\n        /* \"@openzeppelin/contracts/utils/math/Math.sol\":8180:8181  1 */\n      0x01\n        /* \"@openzeppelin/contracts/utils/math/Math.sol\":8169:8175  result */\n      dup3\n        /* \"@openzeppelin/contracts/utils/math/Math.sol\":8165:8166  a */\n      dup6\n        /* \"@openzeppelin/contracts/utils/math/Math.sol\":8165:8175  a / result */\n      dup2\n      tag_161\n      jumpi\n      tag_162\n      tag_160\n      jump\t// in\n    tag_162:\n    tag_161:\n      div\n        /* \"@openzeppelin/contracts/utils/math/Math.sol\":8156:8162  result */\n      dup4\n        /* \"@openzeppelin/contracts/utils/math/Math.sol\":8156:8175  result + a / result */\n      add\n        /* \"@openzeppelin/contracts/utils/math/Math.sol\":8155:8181  (result + a / result) >> 1 */\n      swap1\n      shr\n        /* \"@openzeppelin/contracts/utils/math/Math.sol\":8146:8181  result = (result + a / result) >> 1 */\n      swap2\n      pop\n        /* \"@openzeppelin/contracts/utils/math/Math.sol\":8229:8230  1 */\n      0x01\n        /* \"@openzeppelin/contracts/utils/math/Math.sol\":8218:8224  result */\n      dup3\n        /* \"@openzeppelin/contracts/utils/math/Math.sol\":8214:8215  a */\n      dup6\n        /* \"@openzeppelin/contracts/utils/math/Math.sol\":8214:8224  a / result */\n      dup2\n      tag_163\n      jumpi\n      tag_164\n      tag_160\n      jump\t// in\n    tag_164:\n    tag_163:\n      div\n        /* \"@openzeppelin/contracts/utils/math/Math.sol\":8205:8211  result */\n      dup4\n        /* \"@openzeppelin/contracts/utils/math/Math.sol\":8205:8224  result + a / result */\n      add\n        /* \"@openzeppelin/contracts/utils/math/Math.sol\":8204:8230  (result + a / result) >> 1 */\n      swap1\n      shr\n        /* \"@openzeppelin/contracts/utils/math/Math.sol\":8195:8230  result = (result + a / result) >> 1 */\n      swap2\n      pop\n        /* \"@openzeppelin/contracts/utils/math/Math.sol\":8278:8279  1 */\n      0x01\n        /* \"@openzeppelin/contracts/utils/math/Math.sol\":8267:8273  result */\n      dup3\n        /* \"@openzeppelin/contracts/utils/math/Math.sol\":8263:8264  a */\n      dup6\n        /* \"@openzeppelin/contracts/utils/math/Math.sol\":8263:8273  a / result */\n      dup2\n      tag_165\n      jumpi\n      tag_166\n      tag_160\n      jump\t// in\n    tag_166:\n    tag_165:\n      div\n        /* \"@openzeppelin/contracts/utils/math/Math.sol\":8254:8260  result */\n      dup4\n        /* \"@openzeppelin/contracts/utils/math/Math.sol\":8254:8273  result + a / result */\n      add\n        /* \"@openzeppelin/contracts/utils/math/Math.sol\":8253:8279  (result + a / result) >> 1 */\n      swap1\n      shr\n        /* \"@openzeppelin/contracts/utils/math/Math.sol\":8244:8279  result = (result + a / result) >> 1 */\n      swap2\n      pop\n        /* \"@openzeppelin/contracts/utils/math/Math.sol\":8327:8328  1 */\n      0x01\n        /* \"@openzeppelin/contracts/utils/math/Math.sol\":8316:8322  result */\n      dup3\n        /* \"@openzeppelin/contracts/utils/math/Math.sol\":8312:8313  a */\n      dup6\n        /* \"@openzeppelin/contracts/utils/math/Math.sol\":8312:8322  a / result */\n      dup2\n      tag_167\n      jumpi\n      tag_168\n      tag_160\n      jump\t// in\n    tag_168:\n    tag_167:\n      div\n        /* \"@openzeppelin/contracts/utils/math/Math.sol\":8303:8309  result */\n      dup4\n        /* \"@openzeppelin/contracts/utils/math/Math.sol\":8303:8322  result + a / result */\n      add\n        /* \"@openzeppelin/contracts/utils/math/Math.sol\":8302:8328  (result + a / result) >> 1 */\n      swap1\n      shr\n        /* \"@openzeppelin/contracts/utils/math/Math.sol\":8293:8328  result = (result + a / result) >> 1 */\n      swap2\n      pop\n        /* \"@openzeppelin/contracts/utils/math/Math.sol\":8376:8377  1 */\n      0x01\n        /* \"@openzeppelin/contracts/utils/math/Math.sol\":8365:8371  result */\n      dup3\n        /* \"@openzeppelin/contracts/utils/math/Math.sol\":8361:8362  a */\n      dup6\n        /* \"@openzeppelin/contracts/utils/math/Math.sol\":8361:8371  a / result */\n      dup2\n      tag_169\n      jumpi\n      tag_170\n      tag_160\n      jump\t// in\n    tag_170:\n    tag_169:\n      div\n        /* \"@openzeppelin/contracts/utils/math/Math.sol\":8352:8358  result */\n      dup4\n        /* \"@openzeppelin/contracts/utils/math/Math.sol\":8352:8371  result + a / result */\n      add\n        /* \"@openzeppelin/contracts/utils/math/Math.sol\":8351:8377  (result + a / result) >> 1 */\n      swap1\n      shr\n        /* \"@openzeppelin/contracts/utils/math/Math.sol\":8342:8377  result = (result + a / result) >> 1 */\n      swap2\n      pop\n        /* \"@openzeppelin/contracts/utils/math/Math.sol\":8425:8426  1 */\n      0x01\n        /* \"@openzeppelin/contracts/utils/math/Math.sol\":8414:8420  result */\n      dup3\n        /* \"@openzeppelin/contracts/utils/math/Math.sol\":8410:8411  a */\n      dup6\n        /* \"@openzeppelin/contracts/utils/math/Math.sol\":8410:8420  a / result */\n      dup2\n      tag_171\n      jumpi\n      tag_172\n      tag_160\n      jump\t// in\n    tag_172:\n    tag_171:\n      div\n        /* \"@openzeppelin/contracts/utils/math/Math.sol\":8401:8407  result */\n      dup4\n        /* \"@openzeppelin/contracts/utils/math/Math.sol\":8401:8420  result + a / result */\n      add\n        /* \"@openzeppelin/contracts/utils/math/Math.sol\":8400:8426  (result + a / result) >> 1 */\n      swap1\n      shr\n        /* \"@openzeppelin/contracts/utils/math/Math.sol\":8391:8426  result = (result + a / result) >> 1 */\n      swap2\n      pop\n        /* \"@openzeppelin/contracts/utils/math/Math.sol\":8447:8470  min(result, a / result) */\n      tag_173\n        /* \"@openzeppelin/contracts/utils/math/Math.sol\":8451:8457  result */\n      dup3\n        /* \"@openzeppelin/contracts/utils/math/Math.sol\":8463:8469  result */\n      dup4\n        /* \"@openzeppelin/contracts/utils/math/Math.sol\":8459:8460  a */\n      dup7\n        /* \"@openzeppelin/contracts/utils/math/Math.sol\":8459:8469  a / result */\n      dup2\n      tag_174\n      jumpi\n      tag_175\n      tag_160\n      jump\t// in\n    tag_175:\n    tag_174:\n      div\n        /* \"@openzeppelin/contracts/utils/math/Math.sol\":8447:8450  min */\n      tag_176\n        /* \"@openzeppelin/contracts/utils/math/Math.sol\":8447:8470  min(result, a / result) */\n      jump\t// in\n    tag_173:\n        /* \"@openzeppelin/contracts/utils/math/Math.sol\":8440:8470  return min(result, a / result) */\n      swap3\n      pop\n      pop\n      pop\n        /* \"@openzeppelin/contracts/utils/math/Math.sol\":6281:8487  function sqrt(uint256 a) internal pure returns (uint256) {... */\n    tag_149:\n      swap2\n      swap1\n      pop\n      jump\t// out\n        /* \"@openzeppelin/contracts/utils/math/Math.sol\":589:693  function min(uint256 a, uint256 b) internal pure returns (uint256) {... */\n    tag_176:\n        /* \"@openzeppelin/contracts/utils/math/Math.sol\":647:654  uint256 */\n      0x00\n        /* \"@openzeppelin/contracts/utils/math/Math.sol\":677:678  b */\n      dup2\n        /* \"@openzeppelin/contracts/utils/math/Math.sol\":673:674  a */\n      dup4\n        /* \"@openzeppelin/contracts/utils/math/Math.sol\":673:678  a < b */\n      lt\n        /* \"@openzeppelin/contracts/utils/math/Math.sol\":673:686  a < b ? a : b */\n      tag_178\n      jumpi\n        /* \"@openzeppelin/contracts/utils/math/Math.sol\":685:686  b */\n      dup2\n        /* \"@openzeppelin/contracts/utils/math/Math.sol\":673:686  a < b ? a : b */\n      jump(tag_179)\n    tag_178:\n        /* \"@openzeppelin/contracts/utils/math/Math.sol\":681:682  a */\n      dup3\n        /* \"@openzeppelin/contracts/utils/math/Math.sol\":673:686  a < b ? a : b */\n    tag_179:\n        /* \"@openzeppelin/contracts/utils/math/Math.sol\":666:686  return a < b ? a : b */\n      swap1\n      pop\n        /* \"@openzeppelin/contracts/utils/math/Math.sol\":589:693  function min(uint256 a, uint256 b) internal pure returns (uint256) {... */\n      swap3\n      swap2\n      pop\n      pop\n      jump\t// out\n        /* \"#utility.yul\":7:84   */\n    tag_180:\n        /* \"#utility.yul\":44:51   */\n      0x00\n        /* \"#utility.yul\":73:78   */\n      dup2\n        /* \"#utility.yul\":62:78   */\n      swap1\n      pop\n        /* \"#utility.yul\":7:84   */\n      swap2\n      swap1\n      pop\n      jump\t// out\n        /* \"#utility.yul\":90:208   */\n    tag_181:\n        /* \"#utility.yul\":177:201   */\n      tag_216\n        /* \"#utility.yul\":195:200   */\n      dup2\n        /* \"#utility.yul\":177:201   */\n      tag_180\n      jump\t// in\n    tag_216:\n        /* \"#utility.yul\":172:175   */\n      dup3\n        /* \"#utility.yul\":165:202   */\n      mstore\n        /* \"#utility.yul\":90:208   */\n      pop\n      pop\n      jump\t// out\n        /* \"#utility.yul\":214:436   */\n    tag_16:\n        /* \"#utility.yul\":307:311   */\n      0x00\n        /* \"#utility.yul\":345:347   */\n      0x20\n        /* \"#utility.yul\":334:343   */\n      dup3\n        /* \"#utility.yul\":330:348   */\n      add\n        /* \"#utility.yul\":322:348   */\n      swap1\n      pop\n        /* \"#utility.yul\":358:429   */\n      tag_218\n        /* \"#utility.yul\":426:427   */\n      0x00\n        /* \"#utility.yul\":415:424   */\n      dup4\n        /* \"#utility.yul\":411:428   */\n      add\n        /* \"#utility.yul\":402:408   */\n      dup5\n        /* \"#utility.yul\":358:429   */\n      tag_181\n      jump\t// in\n    tag_218:\n        /* \"#utility.yul\":214:436   */\n      swap3\n      swap2\n      pop\n      pop\n      jump\t// out\n        /* \"#utility.yul\":523:640   */\n    tag_183:\n        /* \"#utility.yul\":632:633   */\n      0x00\n        /* \"#utility.yul\":629:630   */\n      dup1\n        /* \"#utility.yul\":622:634   */\n      revert\n        /* \"#utility.yul\":769:891   */\n    tag_185:\n        /* \"#utility.yul\":842:866   */\n      tag_223\n        /* \"#utility.yul\":860:865   */\n      dup2\n        /* \"#utility.yul\":842:866   */\n      tag_180\n      jump\t// in\n    tag_223:\n        /* \"#utility.yul\":835:840   */\n      dup2\n        /* \"#utility.yul\":832:867   */\n      eq\n        /* \"#utility.yul\":822:885   */\n      tag_224\n      jumpi\n        /* \"#utility.yul\":881:882   */\n      0x00\n        /* \"#utility.yul\":878:879   */\n      dup1\n        /* \"#utility.yul\":871:883   */\n      revert\n        /* \"#utility.yul\":822:885   */\n    tag_224:\n        /* \"#utility.yul\":769:891   */\n      pop\n      jump\t// out\n        /* \"#utility.yul\":897:1036   */\n    tag_186:\n        /* \"#utility.yul\":943:948   */\n      0x00\n        /* \"#utility.yul\":981:987   */\n      dup2\n        /* \"#utility.yul\":968:988   */\n      calldataload\n        /* \"#utility.yul\":959:988   */\n      swap1\n      pop\n        /* \"#utility.yul\":997:1030   */\n      tag_226\n        /* \"#utility.yul\":1024:1029   */\n      dup2\n        /* \"#utility.yul\":997:1030   */\n      tag_185\n      jump\t// in\n    tag_226:\n        /* \"#utility.yul\":897:1036   */\n      swap3\n      swap2\n      pop\n      pop\n      jump\t// out\n        /* \"#utility.yul\":1042:1371   */\n    tag_23:\n        /* \"#utility.yul\":1101:1107   */\n      0x00\n        /* \"#utility.yul\":1150:1152   */\n      0x20\n        /* \"#utility.yul\":1138:1147   */\n      dup3\n        /* \"#utility.yul\":1129:1136   */\n      dup5\n        /* \"#utility.yul\":1125:1148   */\n      sub\n        /* \"#utility.yul\":1121:1153   */\n      slt\n        /* \"#utility.yul\":1118:1237   */\n      iszero\n      tag_228\n      jumpi\n        /* \"#utility.yul\":1156:1235   */\n      tag_229\n      tag_183\n      jump\t// in\n    tag_229:\n        /* \"#utility.yul\":1118:1237   */\n    tag_228:\n        /* \"#utility.yul\":1276:1277   */\n      0x00\n        /* \"#utility.yul\":1301:1354   */\n      tag_230\n        /* \"#utility.yul\":1346:1353   */\n      dup5\n        /* \"#utility.yul\":1337:1343   */\n      dup3\n        /* \"#utility.yul\":1326:1335   */\n      dup6\n        /* \"#utility.yul\":1322:1344   */\n      add\n        /* \"#utility.yul\":1301:1354   */\n      tag_186\n      jump\t// in\n    tag_230:\n        /* \"#utility.yul\":1291:1354   */\n      swap2\n      pop\n        /* \"#utility.yul\":1247:1364   */\n      pop\n        /* \"#utility.yul\":1042:1371   */\n      swap3\n      swap2\n      pop\n      pop\n      jump\t// out\n        /* \"#utility.yul\":1377:1503   */\n    tag_187:\n        /* \"#utility.yul\":1414:1421   */\n      0x00\n        /* \"#utility.yul\":1454:1496   */\n      0xffffffffffffffffffffffffffffffffffffffff\n        /* \"#utility.yul\":1447:1452   */\n      dup3\n        /* \"#utility.yul\":1443:1497   */\n      and\n        /* \"#utility.yul\":1432:1497   */\n      swap1\n      pop\n        /* \"#utility.yul\":1377:1503   */\n      swap2\n      swap1\n      pop\n      jump\t// out\n        /* \"#utility.yul\":1509:1605   */\n    tag_188:\n        /* \"#utility.yul\":1546:1553   */\n      0x00\n        /* \"#utility.yul\":1575:1599   */\n      tag_233\n        /* \"#utility.yul\":1593:1598   */\n      dup3\n        /* \"#utility.yul\":1575:1599   */\n      tag_187\n      jump\t// in\n    tag_233:\n        /* \"#utility.yul\":1564:1599   */\n      swap1\n      pop\n        /* \"#utility.yul\":1509:1605   */\n      swap2\n      swap1\n      pop\n      jump\t// out\n        /* \"#utility.yul\":1611:1733   */\n    tag_189:\n        /* \"#utility.yul\":1684:1708   */\n      tag_235\n        /* \"#utility.yul\":1702:1707   */\n      dup2\n        /* \"#utility.yul\":1684:1708   */\n      tag_188\n      jump\t// in\n    tag_235:\n        /* \"#utility.yul\":1677:1682   */\n      dup2\n        /* \"#utility.yul\":1674:1709   */\n      eq\n        /* \"#utility.yul\":1664:1727   */\n      tag_236\n      jumpi\n        /* \"#utility.yul\":1723:1724   */\n      0x00\n        /* \"#utility.yul\":1720:1721   */\n      dup1\n        /* \"#utility.yul\":1713:1725   */\n      revert\n        /* \"#utility.yul\":1664:1727   */\n    tag_236:\n        /* \"#utility.yul\":1611:1733   */\n      pop\n      jump\t// out\n        /* \"#utility.yul\":1739:1878   */\n    tag_190:\n        /* \"#utility.yul\":1785:1790   */\n      0x00\n        /* \"#utility.yul\":1823:1829   */\n      dup2\n        /* \"#utility.yul\":1810:1830   */\n      calldataload\n        /* \"#utility.yul\":1801:1830   */\n      swap1\n      pop\n        /* \"#utility.yul\":1839:1872   */\n      tag_238\n        /* \"#utility.yul\":1866:1871   */\n      dup2\n        /* \"#utility.yul\":1839:1872   */\n      tag_189\n      jump\t// in\n    tag_238:\n        /* \"#utility.yul\":1739:1878   */\n      swap3\n      swap2\n      pop\n      pop\n      jump\t// out\n        /* \"#utility.yul\":1884:2358   */\n    tag_33:\n        /* \"#utility.yul\":1952:1958   */\n      0x00\n        /* \"#utility.yul\":1960:1966   */\n      dup1\n        /* \"#utility.yul\":2009:2011   */\n      0x40\n        /* \"#utility.yul\":1997:2006   */\n      dup4\n        /* \"#utility.yul\":1988:1995   */\n      dup6\n        /* \"#utility.yul\":1984:2007   */\n      sub\n        /* \"#utility.yul\":1980:2012   */\n      slt\n        /* \"#utility.yul\":1977:2096   */\n      iszero\n      tag_240\n      jumpi\n        /* \"#utility.yul\":2015:2094   */\n      tag_241\n      tag_183\n      jump\t// in\n    tag_241:\n        /* \"#utility.yul\":1977:2096   */\n    tag_240:\n        /* \"#utility.yul\":2135:2136   */\n      0x00\n        /* \"#utility.yul\":2160:2213   */\n      tag_242\n        /* \"#utility.yul\":2205:2212   */\n      dup6\n        /* \"#utility.yul\":2196:2202   */\n      dup3\n        /* \"#utility.yul\":2185:2194   */\n      dup7\n        /* \"#utility.yul\":2181:2203   */\n      add\n        /* \"#utility.yul\":2160:2213   */\n      tag_190\n      jump\t// in\n    tag_242:\n        /* \"#utility.yul\":2150:2213   */\n      swap3\n      pop\n        /* \"#utility.yul\":2106:2223   */\n      pop\n        /* \"#utility.yul\":2262:2264   */\n      0x20\n        /* \"#utility.yul\":2288:2341   */\n      tag_243\n        /* \"#utility.yul\":2333:2340   */\n      dup6\n        /* \"#utility.yul\":2324:2330   */\n      dup3\n        /* \"#utility.yul\":2313:2322   */\n      dup7\n        /* \"#utility.yul\":2309:2331   */\n      add\n        /* \"#utility.yul\":2288:2341   */\n      tag_186\n      jump\t// in\n    tag_243:\n        /* \"#utility.yul\":2278:2341   */\n      swap2\n      pop\n        /* \"#utility.yul\":2233:2351   */\n      pop\n        /* \"#utility.yul\":1884:2358   */\n      swap3\n      pop\n      swap3\n      swap1\n      pop\n      jump\t// out\n        /* \"#utility.yul\":2364:2482   */\n    tag_191:\n        /* \"#utility.yul\":2451:2475   */\n      tag_245\n        /* \"#utility.yul\":2469:2474   */\n      dup2\n        /* \"#utility.yul\":2451:2475   */\n      tag_188\n      jump\t// in\n    tag_245:\n        /* \"#utility.yul\":2446:2449   */\n      dup3\n        /* \"#utility.yul\":2439:2476   */\n      mstore\n        /* \"#utility.yul\":2364:2482   */\n      pop\n      pop\n      jump\t// out\n        /* \"#utility.yul\":2488:2710   */\n    tag_42:\n        /* \"#utility.yul\":2581:2585   */\n      0x00\n        /* \"#utility.yul\":2619:2621   */\n      0x20\n        /* \"#utility.yul\":2608:2617   */\n      dup3\n        /* \"#utility.yul\":2604:2622   */\n      add\n        /* \"#utility.yul\":2596:2622   */\n      swap1\n      pop\n        /* \"#utility.yul\":2632:2703   */\n      tag_247\n        /* \"#utility.yul\":2700:2701   */\n      0x00\n        /* \"#utility.yul\":2689:2698   */\n      dup4\n        /* \"#utility.yul\":2685:2702   */\n      add\n        /* \"#utility.yul\":2676:2682   */\n      dup5\n        /* \"#utility.yul\":2632:2703   */\n      tag_191\n      jump\t// in\n    tag_247:\n        /* \"#utility.yul\":2488:2710   */\n      swap3\n      swap2\n      pop\n      pop\n      jump\t// out\n        /* \"#utility.yul\":2716:3048   */\n    tag_50:\n        /* \"#utility.yul\":2837:2841   */\n      0x00\n        /* \"#utility.yul\":2875:2877   */\n      0x40\n        /* \"#utility.yul\":2864:2873   */\n      dup3\n        /* \"#utility.yul\":2860:2878   */\n      add\n        /* \"#utility.yul\":2852:2878   */\n      swap1\n      pop\n        /* \"#utility.yul\":2888:2959   */\n      tag_249\n        /* \"#utility.yul\":2956:2957   */\n      0x00\n        /* \"#utility.yul\":2945:2954   */\n      dup4\n        /* \"#utility.yul\":2941:2958   */\n      add\n        /* \"#utility.yul\":2932:2938   */\n      dup6\n        /* \"#utility.yul\":2888:2959   */\n      tag_191\n      jump\t// in\n    tag_249:\n        /* \"#utility.yul\":2969:3041   */\n      tag_250\n        /* \"#utility.yul\":3037:3039   */\n      0x20\n        /* \"#utility.yul\":3026:3035   */\n      dup4\n        /* \"#utility.yul\":3022:3040   */\n      add\n        /* \"#utility.yul\":3013:3019   */\n      dup5\n        /* \"#utility.yul\":2969:3041   */\n      tag_191\n      jump\t// in\n    tag_250:\n        /* \"#utility.yul\":2716:3048   */\n      swap4\n      swap3\n      pop\n      pop\n      pop\n      jump\t// out\n        /* \"#utility.yul\":3054:3197   */\n    tag_192:\n        /* \"#utility.yul\":3111:3116   */\n      0x00\n        /* \"#utility.yul\":3142:3148   */\n      dup2\n        /* \"#utility.yul\":3136:3149   */\n      mload\n        /* \"#utility.yul\":3127:3149   */\n      swap1\n      pop\n        /* \"#utility.yul\":3158:3191   */\n      tag_252\n        /* \"#utility.yul\":3185:3190   */\n      dup2\n        /* \"#utility.yul\":3158:3191   */\n      tag_185\n      jump\t// in\n    tag_252:\n        /* \"#utility.yul\":3054:3197   */\n      swap3\n      swap2\n      pop\n      pop\n      jump\t// out\n        /* \"#utility.yul\":3203:3554   */\n    tag_54:\n        /* \"#utility.yul\":3273:3279   */\n      0x00\n        /* \"#utility.yul\":3322:3324   */\n      0x20\n        /* \"#utility.yul\":3310:3319   */\n      dup3\n        /* \"#utility.yul\":3301:3308   */\n      dup5\n        /* \"#utility.yul\":3297:3320   */\n      sub\n        /* \"#utility.yul\":3293:3325   */\n      slt\n        /* \"#utility.yul\":3290:3409   */\n      iszero\n      tag_254\n      jumpi\n        /* \"#utility.yul\":3328:3407   */\n      tag_255\n      tag_183\n      jump\t// in\n    tag_255:\n        /* \"#utility.yul\":3290:3409   */\n    tag_254:\n        /* \"#utility.yul\":3448:3449   */\n      0x00\n        /* \"#utility.yul\":3473:3537   */\n      tag_256\n        /* \"#utility.yul\":3529:3536   */\n      dup5\n        /* \"#utility.yul\":3520:3526   */\n      dup3\n        /* \"#utility.yul\":3509:3518   */\n      dup6\n        /* \"#utility.yul\":3505:3527   */\n      add\n        /* \"#utility.yul\":3473:3537   */\n      tag_192\n      jump\t// in\n    tag_256:\n        /* \"#utility.yul\":3463:3537   */\n      swap2\n      pop\n        /* \"#utility.yul\":3419:3547   */\n      pop\n        /* \"#utility.yul\":3203:3554   */\n      swap3\n      swap2\n      pop\n      pop\n      jump\t// out\n        /* \"#utility.yul\":3560:3729   */\n    tag_193:\n        /* \"#utility.yul\":3644:3655   */\n      0x00\n        /* \"#utility.yul\":3678:3684   */\n      dup3\n        /* \"#utility.yul\":3673:3676   */\n      dup3\n        /* \"#utility.yul\":3666:3685   */\n      mstore\n        /* \"#utility.yul\":3718:3722   */\n      0x20\n        /* \"#utility.yul\":3713:3716   */\n      dup3\n        /* \"#utility.yul\":3709:3723   */\n      add\n        /* \"#utility.yul\":3694:3723   */\n      swap1\n      pop\n        /* \"#utility.yul\":3560:3729   */\n      swap3\n      swap2\n      pop\n      pop\n      jump\t// out\n        /* \"#utility.yul\":3735:3906   */\n    tag_194:\n        /* \"#utility.yul\":3875:3898   */\n      0x436f6e7472616374206e6f7420617070726f7665640000000000000000000000\n        /* \"#utility.yul\":3871:3872   */\n      0x00\n        /* \"#utility.yul\":3863:3869   */\n      dup3\n        /* \"#utility.yul\":3859:3873   */\n      add\n        /* \"#utility.yul\":3852:3899   */\n      mstore\n        /* \"#utility.yul\":3735:3906   */\n      pop\n      jump\t// out\n        /* \"#utility.yul\":3912:4278   */\n    tag_195:\n        /* \"#utility.yul\":4054:4057   */\n      0x00\n        /* \"#utility.yul\":4075:4142   */\n      tag_260\n        /* \"#utility.yul\":4139:4141   */\n      0x15\n        /* \"#utility.yul\":4134:4137   */\n      dup4\n        /* \"#utility.yul\":4075:4142   */\n      tag_193\n      jump\t// in\n    tag_260:\n        /* \"#utility.yul\":4068:4142   */\n      swap2\n      pop\n        /* \"#utility.yul\":4151:4244   */\n      tag_261\n        /* \"#utility.yul\":4240:4243   */\n      dup3\n        /* \"#utility.yul\":4151:4244   */\n      tag_194\n      jump\t// in\n    tag_261:\n        /* \"#utility.yul\":4269:4271   */\n      0x20\n        /* \"#utility.yul\":4264:4267   */\n      dup3\n        /* \"#utility.yul\":4260:4272   */\n      add\n        /* \"#utility.yul\":4253:4272   */\n      swap1\n      pop\n        /* \"#utility.yul\":3912:4278   */\n      swap2\n      swap1\n      pop\n      jump\t// out\n        /* \"#utility.yul\":4284:4703   */\n    tag_57:\n        /* \"#utility.yul\":4450:4454   */\n      0x00\n        /* \"#utility.yul\":4488:4490   */\n      0x20\n        /* \"#utility.yul\":4477:4486   */\n      dup3\n        /* \"#utility.yul\":4473:4491   */\n      add\n        /* \"#utility.yul\":4465:4491   */\n      swap1\n      pop\n        /* \"#utility.yul\":4537:4546   */\n      dup2\n        /* \"#utility.yul\":4531:4535   */\n      dup2\n        /* \"#utility.yul\":4527:4547   */\n      sub\n        /* \"#utility.yul\":4523:4524   */\n      0x00\n        /* \"#utility.yul\":4512:4521   */\n      dup4\n        /* \"#utility.yul\":4508:4525   */\n      add\n        /* \"#utility.yul\":4501:4548   */\n      mstore\n        /* \"#utility.yul\":4565:4696   */\n      tag_263\n        /* \"#utility.yul\":4691:4695   */\n      dup2\n        /* \"#utility.yul\":4565:4696   */\n      tag_195\n      jump\t// in\n    tag_263:\n        /* \"#utility.yul\":4557:4696   */\n      swap1\n      pop\n        /* \"#utility.yul\":4284:4703   */\n      swap2\n      swap1\n      pop\n      jump\t// out\n        /* \"#utility.yul\":4709:5151   */\n    tag_59:\n        /* \"#utility.yul\":4858:4862   */\n      0x00\n        /* \"#utility.yul\":4896:4898   */\n      0x60\n        /* \"#utility.yul\":4885:4894   */\n      dup3\n        /* \"#utility.yul\":4881:4899   */\n      add\n        /* \"#utility.yul\":4873:4899   */\n      swap1\n      pop\n        /* \"#utility.yul\":4909:4980   */\n      tag_265\n        /* \"#utility.yul\":4977:4978   */\n      0x00\n        /* \"#utility.yul\":4966:4975   */\n      dup4\n        /* \"#utility.yul\":4962:4979   */\n      add\n        /* \"#utility.yul\":4953:4959   */\n      dup7\n        /* \"#utility.yul\":4909:4980   */\n      tag_191\n      jump\t// in\n    tag_265:\n        /* \"#utility.yul\":4990:5062   */\n      tag_266\n        /* \"#utility.yul\":5058:5060   */\n      0x20\n        /* \"#utility.yul\":5047:5056   */\n      dup4\n        /* \"#utility.yul\":5043:5061   */\n      add\n        /* \"#utility.yul\":5034:5040   */\n      dup6\n        /* \"#utility.yul\":4990:5062   */\n      tag_191\n      jump\t// in\n    tag_266:\n        /* \"#utility.yul\":5072:5144   */\n      tag_267\n        /* \"#utility.yul\":5140:5142   */\n      0x40\n        /* \"#utility.yul\":5129:5138   */\n      dup4\n        /* \"#utility.yul\":5125:5143   */\n      add\n        /* \"#utility.yul\":5116:5122   */\n      dup5\n        /* \"#utility.yul\":5072:5144   */\n      tag_181\n      jump\t// in\n    tag_267:\n        /* \"#utility.yul\":4709:5151   */\n      swap5\n      swap4\n      pop\n      pop\n      pop\n      pop\n      jump\t// out\n        /* \"#utility.yul\":5157:5247   */\n    tag_196:\n        /* \"#utility.yul\":5191:5198   */\n      0x00\n        /* \"#utility.yul\":5234:5239   */\n      dup2\n        /* \"#utility.yul\":5227:5240   */\n      iszero\n        /* \"#utility.yul\":5220:5241   */\n      iszero\n        /* \"#utility.yul\":5209:5241   */\n      swap1\n      pop\n        /* \"#utility.yul\":5157:5247   */\n      swap2\n      swap1\n      pop\n      jump\t// out\n        /* \"#utility.yul\":5253:5369   */\n    tag_197:\n        /* \"#utility.yul\":5323:5344   */\n      tag_270\n        /* \"#utility.yul\":5338:5343   */\n      dup2\n        /* \"#utility.yul\":5323:5344   */\n      tag_196\n      jump\t// in\n    tag_270:\n        /* \"#utility.yul\":5316:5321   */\n      dup2\n        /* \"#utility.yul\":5313:5345   */\n      eq\n        /* \"#utility.yul\":5303:5363   */\n      tag_271\n      jumpi\n        /* \"#utility.yul\":5359:5360   */\n      0x00\n        /* \"#utility.yul\":5356:5357   */\n      dup1\n        /* \"#utility.yul\":5349:5361   */\n      revert\n        /* \"#utility.yul\":5303:5363   */\n    tag_271:\n        /* \"#utility.yul\":5253:5369   */\n      pop\n      jump\t// out\n        /* \"#utility.yul\":5375:5512   */\n    tag_198:\n        /* \"#utility.yul\":5429:5434   */\n      0x00\n        /* \"#utility.yul\":5460:5466   */\n      dup2\n        /* \"#utility.yul\":5454:5467   */\n      mload\n        /* \"#utility.yul\":5445:5467   */\n      swap1\n      pop\n        /* \"#utility.yul\":5476:5506   */\n      tag_273\n        /* \"#utility.yul\":5500:5505   */\n      dup2\n        /* \"#utility.yul\":5476:5506   */\n      tag_197\n      jump\t// in\n    tag_273:\n        /* \"#utility.yul\":5375:5512   */\n      swap3\n      swap2\n      pop\n      pop\n      jump\t// out\n        /* \"#utility.yul\":5518:5863   */\n    tag_63:\n        /* \"#utility.yul\":5585:5591   */\n      0x00\n        /* \"#utility.yul\":5634:5636   */\n      0x20\n        /* \"#utility.yul\":5622:5631   */\n      dup3\n        /* \"#utility.yul\":5613:5620   */\n      dup5\n        /* \"#utility.yul\":5609:5632   */\n      sub\n        /* \"#utility.yul\":5605:5637   */\n      slt\n        /* \"#utility.yul\":5602:5721   */\n      iszero\n      tag_275\n      jumpi\n        /* \"#utility.yul\":5640:5719   */\n      tag_276\n      tag_183\n      jump\t// in\n    tag_276:\n        /* \"#utility.yul\":5602:5721   */\n    tag_275:\n        /* \"#utility.yul\":5760:5761   */\n      0x00\n        /* \"#utility.yul\":5785:5846   */\n      tag_277\n        /* \"#utility.yul\":5838:5845   */\n      dup5\n        /* \"#utility.yul\":5829:5835   */\n      dup3\n        /* \"#utility.yul\":5818:5827   */\n      dup6\n        /* \"#utility.yul\":5814:5836   */\n      add\n        /* \"#utility.yul\":5785:5846   */\n      tag_198\n      jump\t// in\n    tag_277:\n        /* \"#utility.yul\":5775:5846   */\n      swap2\n      pop\n        /* \"#utility.yul\":5731:5856   */\n      pop\n        /* \"#utility.yul\":5518:5863   */\n      swap3\n      swap2\n      pop\n      pop\n      jump\t// out\n        /* \"#utility.yul\":5869:6049   */\n    tag_160:\n        /* \"#utility.yul\":5917:5994   */\n      0x4e487b7100000000000000000000000000000000000000000000000000000000\n        /* \"#utility.yul\":5914:5915   */\n      0x00\n        /* \"#utility.yul\":5907:5995   */\n      mstore\n        /* \"#utility.yul\":6014:6018   */\n      0x12\n        /* \"#utility.yul\":6011:6012   */\n      0x04\n        /* \"#utility.yul\":6004:6019   */\n      mstore\n        /* \"#utility.yul\":6038:6042   */\n      0x24\n        /* \"#utility.yul\":6035:6036   */\n      0x00\n        /* \"#utility.yul\":6028:6043   */\n      revert\n        /* \"#utility.yul\":6055:6235   */\n    tag_199:\n        /* \"#utility.yul\":6103:6180   */\n      0x4e487b7100000000000000000000000000000000000000000000000000000000\n        /* \"#utility.yul\":6100:6101   */\n      0x00\n        /* \"#utility.yul\":6093:6181   */\n      mstore\n        /* \"#utility.yul\":6200:6204   */\n      0x11\n        /* \"#utility.yul\":6197:6198   */\n      0x04\n        /* \"#utility.yul\":6190:6205   */\n      mstore\n        /* \"#utility.yul\":6224:6228   */\n      0x24\n        /* \"#utility.yul\":6221:6222   */\n      0x00\n        /* \"#utility.yul\":6214:6229   */\n      revert\n        /* \"#utility.yul\":6241:6426   */\n    tag_69:\n        /* \"#utility.yul\":6281:6282   */\n      0x00\n        /* \"#utility.yul\":6298:6318   */\n      tag_281\n        /* \"#utility.yul\":6316:6317   */\n      dup3\n        /* \"#utility.yul\":6298:6318   */\n      tag_180\n      jump\t// in\n    tag_281:\n        /* \"#utility.yul\":6293:6318   */\n      swap2\n      pop\n        /* \"#utility.yul\":6332:6352   */\n      tag_282\n        /* \"#utility.yul\":6350:6351   */\n      dup4\n        /* \"#utility.yul\":6332:6352   */\n      tag_180\n      jump\t// in\n    tag_282:\n        /* \"#utility.yul\":6327:6352   */\n      swap3\n      pop\n        /* \"#utility.yul\":6371:6372   */\n      dup3\n        /* \"#utility.yul\":6361:6396   */\n      tag_283\n      jumpi\n        /* \"#utility.yul\":6376:6394   */\n      tag_284\n      tag_160\n      jump\t// in\n    tag_284:\n        /* \"#utility.yul\":6361:6396   */\n    tag_283:\n        /* \"#utility.yul\":6418:6419   */\n      dup3\n        /* \"#utility.yul\":6415:6416   */\n      dup3\n        /* \"#utility.yul\":6411:6420   */\n      div\n        /* \"#utility.yul\":6406:6420   */\n      swap1\n      pop\n        /* \"#utility.yul\":6241:6426   */\n      swap3\n      swap2\n      pop\n      pop\n      jump\t// out\n        /* \"#utility.yul\":6432:6626   */\n    tag_71:\n        /* \"#utility.yul\":6472:6476   */\n      0x00\n        /* \"#utility.yul\":6492:6512   */\n      tag_286\n        /* \"#utility.yul\":6510:6511   */\n      dup3\n        /* \"#utility.yul\":6492:6512   */\n      tag_180\n      jump\t// in\n    tag_286:\n        /* \"#utility.yul\":6487:6512   */\n      swap2\n      pop\n        /* \"#utility.yul\":6526:6546   */\n      tag_287\n        /* \"#utility.yul\":6544:6545   */\n      dup4\n        /* \"#utility.yul\":6526:6546   */\n      tag_180\n      jump\t// in\n    tag_287:\n        /* \"#utility.yul\":6521:6546   */\n      swap3\n      pop\n        /* \"#utility.yul\":6570:6571   */\n      dup3\n        /* \"#utility.yul\":6567:6568   */\n      dup3\n        /* \"#utility.yul\":6563:6572   */\n      sub\n        /* \"#utility.yul\":6555:6572   */\n      swap1\n      pop\n        /* \"#utility.yul\":6594:6595   */\n      dup2\n        /* \"#utility.yul\":6588:6592   */\n      dup2\n        /* \"#utility.yul\":6585:6596   */\n      gt\n        /* \"#utility.yul\":6582:6619   */\n      iszero\n      tag_288\n      jumpi\n        /* \"#utility.yul\":6599:6617   */\n      tag_289\n      tag_199\n      jump\t// in\n    tag_289:\n        /* \"#utility.yul\":6582:6619   */\n    tag_288:\n        /* \"#utility.yul\":6432:6626   */\n      swap3\n      swap2\n      pop\n      pop\n      jump\t// out\n        /* \"#utility.yul\":6632:6779   */\n    tag_200:\n        /* \"#utility.yul\":6733:6744   */\n      0x00\n        /* \"#utility.yul\":6770:6773   */\n      dup2\n        /* \"#utility.yul\":6755:6773   */\n      swap1\n      pop\n        /* \"#utility.yul\":6632:6779   */\n      swap3\n      swap2\n      pop\n      pop\n      jump\t// out\n        /* \"#utility.yul\":6785:6899   */\n    tag_201:\n      pop\n      jump\t// out\n        /* \"#utility.yul\":6905:7303   */\n    tag_202:\n        /* \"#utility.yul\":7064:7067   */\n      0x00\n        /* \"#utility.yul\":7085:7168   */\n      tag_293\n        /* \"#utility.yul\":7166:7167   */\n      0x00\n        /* \"#utility.yul\":7161:7164   */\n      dup4\n        /* \"#utility.yul\":7085:7168   */\n      tag_200\n      jump\t// in\n    tag_293:\n        /* \"#utility.yul\":7078:7168   */\n      swap2\n      pop\n        /* \"#utility.yul\":7177:7270   */\n      tag_294\n        /* \"#utility.yul\":7266:7269   */\n      dup3\n        /* \"#utility.yul\":7177:7270   */\n      tag_201\n      jump\t// in\n    tag_294:\n        /* \"#utility.yul\":7295:7296   */\n      0x00\n        /* \"#utility.yul\":7290:7293   */\n      dup3\n        /* \"#utility.yul\":7286:7297   */\n      add\n        /* \"#utility.yul\":7279:7297   */\n      swap1\n      pop\n        /* \"#utility.yul\":6905:7303   */\n      swap2\n      swap1\n      pop\n      jump\t// out\n        /* \"#utility.yul\":7309:7688   */\n    tag_75:\n        /* \"#utility.yul\":7493:7496   */\n      0x00\n        /* \"#utility.yul\":7515:7662   */\n      tag_296\n        /* \"#utility.yul\":7658:7661   */\n      dup3\n        /* \"#utility.yul\":7515:7662   */\n      tag_202\n      jump\t// in\n    tag_296:\n        /* \"#utility.yul\":7508:7662   */\n      swap2\n      pop\n        /* \"#utility.yul\":7679:7682   */\n      dup2\n        /* \"#utility.yul\":7672:7682   */\n      swap1\n      pop\n        /* \"#utility.yul\":7309:7688   */\n      swap2\n      swap1\n      pop\n      jump\t// out\n        /* \"#utility.yul\":7694:7859   */\n    tag_203:\n        /* \"#utility.yul\":7834:7851   */\n      0x5472616e73666572204661696c65640000000000000000000000000000000000\n        /* \"#utility.yul\":7830:7831   */\n      0x00\n        /* \"#utility.yul\":7822:7828   */\n      dup3\n        /* \"#utility.yul\":7818:7832   */\n      add\n        /* \"#utility.yul\":7811:7852   */\n      mstore\n        /* \"#utility.yul\":7694:7859   */\n      pop\n      jump\t// out\n        /* \"#utility.yul\":7865:8231   */\n    tag_204:\n        /* \"#utility.yul\":8007:8010   */\n      0x00\n        /* \"#utility.yul\":8028:8095   */\n      tag_299\n        /* \"#utility.yul\":8092:8094   */\n      0x0f\n        /* \"#utility.yul\":8087:8090   */\n      dup4\n        /* \"#utility.yul\":8028:8095   */\n      tag_193\n      jump\t// in\n    tag_299:\n        /* \"#utility.yul\":8021:8095   */\n      swap2\n      pop\n        /* \"#utility.yul\":8104:8197   */\n      tag_300\n        /* \"#utility.yul\":8193:8196   */\n      dup3\n        /* \"#utility.yul\":8104:8197   */\n      tag_203\n      jump\t// in\n    tag_300:\n        /* \"#utility.yul\":8222:8224   */\n      0x20\n        /* \"#utility.yul\":8217:8220   */\n      dup3\n        /* \"#utility.yul\":8213:8225   */\n      add\n        /* \"#utility.yul\":8206:8225   */\n      swap1\n      pop\n        /* \"#utility.yul\":7865:8231   */\n      swap2\n      swap1\n      pop\n      jump\t// out\n        /* \"#utility.yul\":8237:8656   */\n    tag_81:\n        /* \"#utility.yul\":8403:8407   */\n      0x00\n        /* \"#utility.yul\":8441:8443   */\n      0x20\n        /* \"#utility.yul\":8430:8439   */\n      dup3\n        /* \"#utility.yul\":8426:8444   */\n      add\n        /* \"#utility.yul\":8418:8444   */\n      swap1\n      pop\n        /* \"#utility.yul\":8490:8499   */\n      dup2\n        /* \"#utility.yul\":8484:8488   */\n      dup2\n        /* \"#utility.yul\":8480:8500   */\n      sub\n        /* \"#utility.yul\":8476:8477   */\n      0x00\n        /* \"#utility.yul\":8465:8474   */\n      dup4\n        /* \"#utility.yul\":8461:8478   */\n      add\n        /* \"#utility.yul\":8454:8501   */\n      mstore\n        /* \"#utility.yul\":8518:8649   */\n      tag_302\n        /* \"#utility.yul\":8644:8648   */\n      dup2\n        /* \"#utility.yul\":8518:8649   */\n      tag_204\n      jump\t// in\n    tag_302:\n        /* \"#utility.yul\":8510:8649   */\n      swap1\n      pop\n        /* \"#utility.yul\":8237:8656   */\n      swap2\n      swap1\n      pop\n      jump\t// out\n        /* \"#utility.yul\":8662:8895   */\n    tag_205:\n        /* \"#utility.yul\":8802:8836   */\n      0x5468652065746820616d6f756e7420737570706c696564206d75737420626520\n        /* \"#utility.yul\":8798:8799   */\n      0x00\n        /* \"#utility.yul\":8790:8796   */\n      dup3\n        /* \"#utility.yul\":8786:8800   */\n      add\n        /* \"#utility.yul\":8779:8837   */\n      mstore\n        /* \"#utility.yul\":8871:8887   */\n      0x67726561746572207468616e2030000000000000000000000000000000000000\n        /* \"#utility.yul\":8866:8868   */\n      0x20\n        /* \"#utility.yul\":8858:8864   */\n      dup3\n        /* \"#utility.yul\":8854:8869   */\n      add\n        /* \"#utility.yul\":8847:8888   */\n      mstore\n        /* \"#utility.yul\":8662:8895   */\n      pop\n      jump\t// out\n        /* \"#utility.yul\":8901:9267   */\n    tag_206:\n        /* \"#utility.yul\":9043:9046   */\n      0x00\n        /* \"#utility.yul\":9064:9131   */\n      tag_305\n        /* \"#utility.yul\":9128:9130   */\n      0x2e\n        /* \"#utility.yul\":9123:9126   */\n      dup4\n        /* \"#utility.yul\":9064:9131   */\n      tag_193\n      jump\t// in\n    tag_305:\n        /* \"#utility.yul\":9057:9131   */\n      swap2\n      pop\n        /* \"#utility.yul\":9140:9233   */\n      tag_306\n        /* \"#utility.yul\":9229:9232   */\n      dup3\n        /* \"#utility.yul\":9140:9233   */\n      tag_205\n      jump\t// in\n    tag_306:\n        /* \"#utility.yul\":9258:9260   */\n      0x40\n        /* \"#utility.yul\":9253:9256   */\n      dup3\n        /* \"#utility.yul\":9249:9261   */\n      add\n        /* \"#utility.yul\":9242:9261   */\n      swap1\n      pop\n        /* \"#utility.yul\":8901:9267   */\n      swap2\n      swap1\n      pop\n      jump\t// out\n        /* \"#utility.yul\":9273:9692   */\n    tag_85:\n        /* \"#utility.yul\":9439:9443   */\n      0x00\n        /* \"#utility.yul\":9477:9479   */\n      0x20\n        /* \"#utility.yul\":9466:9475   */\n      dup3\n        /* \"#utility.yul\":9462:9480   */\n      add\n        /* \"#utility.yul\":9454:9480   */\n      swap1\n      pop\n        /* \"#utility.yul\":9526:9535   */\n      dup2\n        /* \"#utility.yul\":9520:9524   */\n      dup2\n        /* \"#utility.yul\":9516:9536   */\n      sub\n        /* \"#utility.yul\":9512:9513   */\n      0x00\n        /* \"#utility.yul\":9501:9510   */\n      dup4\n        /* \"#utility.yul\":9497:9514   */\n      add\n        /* \"#utility.yul\":9490:9537   */\n      mstore\n        /* \"#utility.yul\":9554:9685   */\n      tag_308\n        /* \"#utility.yul\":9680:9684   */\n      dup2\n        /* \"#utility.yul\":9554:9685   */\n      tag_206\n      jump\t// in\n    tag_308:\n        /* \"#utility.yul\":9546:9685   */\n      swap1\n      pop\n        /* \"#utility.yul\":9273:9692   */\n      swap2\n      swap1\n      pop\n      jump\t// out\n        /* \"#utility.yul\":9698:10030   */\n    tag_95:\n        /* \"#utility.yul\":9819:9823   */\n      0x00\n        /* \"#utility.yul\":9857:9859   */\n      0x40\n        /* \"#utility.yul\":9846:9855   */\n      dup3\n        /* \"#utility.yul\":9842:9860   */\n      add\n        /* \"#utility.yul\":9834:9860   */\n      swap1\n      pop\n        /* \"#utility.yul\":9870:9941   */\n      tag_310\n        /* \"#utility.yul\":9938:9939   */\n      0x00\n        /* \"#utility.yul\":9927:9936   */\n      dup4\n        /* \"#utility.yul\":9923:9940   */\n      add\n        /* \"#utility.yul\":9914:9920   */\n      dup6\n        /* \"#utility.yul\":9870:9941   */\n      tag_191\n      jump\t// in\n    tag_310:\n        /* \"#utility.yul\":9951:10023   */\n      tag_311\n        /* \"#utility.yul\":10019:10021   */\n      0x20\n        /* \"#utility.yul\":10008:10017   */\n      dup4\n        /* \"#utility.yul\":10004:10022   */\n      add\n        /* \"#utility.yul\":9995:10001   */\n      dup5\n        /* \"#utility.yul\":9951:10023   */\n      tag_181\n      jump\t// in\n    tag_311:\n        /* \"#utility.yul\":9698:10030   */\n      swap4\n      swap3\n      pop\n      pop\n      pop\n      jump\t// out\n        /* \"#utility.yul\":10036:10446   */\n    tag_115:\n        /* \"#utility.yul\":10076:10083   */\n      0x00\n        /* \"#utility.yul\":10099:10119   */\n      tag_313\n        /* \"#utility.yul\":10117:10118   */\n      dup3\n        /* \"#utility.yul\":10099:10119   */\n      tag_180\n      jump\t// in\n    tag_313:\n        /* \"#utility.yul\":10094:10119   */\n      swap2\n      pop\n        /* \"#utility.yul\":10133:10153   */\n      tag_314\n        /* \"#utility.yul\":10151:10152   */\n      dup4\n        /* \"#utility.yul\":10133:10153   */\n      tag_180\n      jump\t// in\n    tag_314:\n        /* \"#utility.yul\":10128:10153   */\n      swap3\n      pop\n        /* \"#utility.yul\":10188:10189   */\n      dup3\n        /* \"#utility.yul\":10185:10186   */\n      dup3\n        /* \"#utility.yul\":10181:10190   */\n      mul\n        /* \"#utility.yul\":10210:10240   */\n      tag_315\n        /* \"#utility.yul\":10228:10239   */\n      dup2\n        /* \"#utility.yul\":10210:10240   */\n      tag_180\n      jump\t// in\n    tag_315:\n        /* \"#utility.yul\":10199:10240   */\n      swap2\n      pop\n        /* \"#utility.yul\":10389:10390   */\n      dup3\n        /* \"#utility.yul\":10380:10387   */\n      dup3\n        /* \"#utility.yul\":10376:10391   */\n      div\n        /* \"#utility.yul\":10373:10374   */\n      dup5\n        /* \"#utility.yul\":10370:10392   */\n      eq\n        /* \"#utility.yul\":10350:10351   */\n      dup4\n        /* \"#utility.yul\":10343:10352   */\n      iszero\n        /* \"#utility.yul\":10323:10406   */\n      or\n        /* \"#utility.yul\":10300:10439   */\n      tag_316\n      jumpi\n        /* \"#utility.yul\":10419:10437   */\n      tag_317\n      tag_199\n      jump\t// in\n    tag_317:\n        /* \"#utility.yul\":10300:10439   */\n    tag_316:\n        /* \"#utility.yul\":10084:10446   */\n      pop\n        /* \"#utility.yul\":10036:10446   */\n      swap3\n      swap2\n      pop\n      pop\n      jump\t// out\n        /* \"#utility.yul\":10452:10626   */\n    tag_207:\n        /* \"#utility.yul\":10592:10618   */\n      0x496e76616c696420616d6f756e74206f66207368617265730000000000000000\n        /* \"#utility.yul\":10588:10589   */\n      0x00\n        /* \"#utility.yul\":10580:10586   */\n      dup3\n        /* \"#utility.yul\":10576:10590   */\n      add\n        /* \"#utility.yul\":10569:10619   */\n      mstore\n        /* \"#utility.yul\":10452:10626   */\n      pop\n      jump\t// out\n        /* \"#utility.yul\":10632:10998   */\n    tag_208:\n        /* \"#utility.yul\":10774:10777   */\n      0x00\n        /* \"#utility.yul\":10795:10862   */\n      tag_320\n        /* \"#utility.yul\":10859:10861   */\n      0x18\n        /* \"#utility.yul\":10854:10857   */\n      dup4\n        /* \"#utility.yul\":10795:10862   */\n      tag_193\n      jump\t// in\n    tag_320:\n        /* \"#utility.yul\":10788:10862   */\n      swap2\n      pop\n        /* \"#utility.yul\":10871:10964   */\n      tag_321\n        /* \"#utility.yul\":10960:10963   */\n      dup3\n        /* \"#utility.yul\":10871:10964   */\n      tag_207\n      jump\t// in\n    tag_321:\n        /* \"#utility.yul\":10989:10991   */\n      0x20\n        /* \"#utility.yul\":10984:10987   */\n      dup3\n        /* \"#utility.yul\":10980:10992   */\n      add\n        /* \"#utility.yul\":10973:10992   */\n      swap1\n      pop\n        /* \"#utility.yul\":10632:10998   */\n      swap2\n      swap1\n      pop\n      jump\t// out\n        /* \"#utility.yul\":11004:11423   */\n    tag_126:\n        /* \"#utility.yul\":11170:11174   */\n      0x00\n        /* \"#utility.yul\":11208:11210   */\n      0x20\n        /* \"#utility.yul\":11197:11206   */\n      dup3\n        /* \"#utility.yul\":11193:11211   */\n      add\n        /* \"#utility.yul\":11185:11211   */\n      swap1\n      pop\n        /* \"#utility.yul\":11257:11266   */\n      dup2\n        /* \"#utility.yul\":11251:11255   */\n      dup2\n        /* \"#utility.yul\":11247:11267   */\n      sub\n        /* \"#utility.yul\":11243:11244   */\n      0x00\n        /* \"#utility.yul\":11232:11241   */\n      dup4\n        /* \"#utility.yul\":11228:11245   */\n      add\n        /* \"#utility.yul\":11221:11268   */\n      mstore\n        /* \"#utility.yul\":11285:11416   */\n      tag_323\n        /* \"#utility.yul\":11411:11415   */\n      dup2\n        /* \"#utility.yul\":11285:11416   */\n      tag_208\n      jump\t// in\n    tag_323:\n        /* \"#utility.yul\":11277:11416   */\n      swap1\n      pop\n        /* \"#utility.yul\":11004:11423   */\n      swap2\n      swap1\n      pop\n      jump\t// out\n        /* \"#utility.yul\":11429:11718   */\n    tag_209:\n        /* \"#utility.yul\":11569:11603   */\n      0x506c6561736520617070726f76652074686520636f6e747261637420746f2064\n        /* \"#utility.yul\":11565:11566   */\n      0x00\n        /* \"#utility.yul\":11557:11563   */\n      dup3\n        /* \"#utility.yul\":11553:11567   */\n      add\n        /* \"#utility.yul\":11546:11604   */\n      mstore\n        /* \"#utility.yul\":11638:11672   */\n      0x6564756374206c747220746f6b656e732066726f6d20796f75722077616c6c65\n        /* \"#utility.yul\":11633:11635   */\n      0x20\n        /* \"#utility.yul\":11625:11631   */\n      dup3\n        /* \"#utility.yul\":11621:11636   */\n      add\n        /* \"#utility.yul\":11614:11673   */\n      mstore\n        /* \"#utility.yul\":11707:11710   */\n      0x7400000000000000000000000000000000000000000000000000000000000000\n        /* \"#utility.yul\":11702:11704   */\n      0x40\n        /* \"#utility.yul\":11694:11700   */\n      dup3\n        /* \"#utility.yul\":11690:11705   */\n      add\n        /* \"#utility.yul\":11683:11711   */\n      mstore\n        /* \"#utility.yul\":11429:11718   */\n      pop\n      jump\t// out\n        /* \"#utility.yul\":11724:12090   */\n    tag_210:\n        /* \"#utility.yul\":11866:11869   */\n      0x00\n        /* \"#utility.yul\":11887:11954   */\n      tag_326\n        /* \"#utility.yul\":11951:11953   */\n      0x41\n        /* \"#utility.yul\":11946:11949   */\n      dup4\n        /* \"#utility.yul\":11887:11954   */\n      tag_193\n      jump\t// in\n    tag_326:\n        /* \"#utility.yul\":11880:11954   */\n      swap2\n      pop\n        /* \"#utility.yul\":11963:12056   */\n      tag_327\n        /* \"#utility.yul\":12052:12055   */\n      dup3\n        /* \"#utility.yul\":11963:12056   */\n      tag_209\n      jump\t// in\n    tag_327:\n        /* \"#utility.yul\":12081:12083   */\n      0x60\n        /* \"#utility.yul\":12076:12079   */\n      dup3\n        /* \"#utility.yul\":12072:12084   */\n      add\n        /* \"#utility.yul\":12065:12084   */\n      swap1\n      pop\n        /* \"#utility.yul\":11724:12090   */\n      swap2\n      swap1\n      pop\n      jump\t// out\n        /* \"#utility.yul\":12096:12515   */\n    tag_133:\n        /* \"#utility.yul\":12262:12266   */\n      0x00\n        /* \"#utility.yul\":12300:12302   */\n      0x20\n        /* \"#utility.yul\":12289:12298   */\n      dup3\n        /* \"#utility.yul\":12285:12303   */\n      add\n        /* \"#utility.yul\":12277:12303   */\n      swap1\n      pop\n        /* \"#utility.yul\":12349:12358   */\n      dup2\n        /* \"#utility.yul\":12343:12347   */\n      dup2\n        /* \"#utility.yul\":12339:12359   */\n      sub\n        /* \"#utility.yul\":12335:12336   */\n      0x00\n        /* \"#utility.yul\":12324:12333   */\n      dup4\n        /* \"#utility.yul\":12320:12337   */\n      add\n        /* \"#utility.yul\":12313:12360   */\n      mstore\n        /* \"#utility.yul\":12377:12508   */\n      tag_329\n        /* \"#utility.yul\":12503:12507   */\n      dup2\n        /* \"#utility.yul\":12377:12508   */\n      tag_210\n      jump\t// in\n    tag_329:\n        /* \"#utility.yul\":12369:12508   */\n      swap1\n      pop\n        /* \"#utility.yul\":12096:12515   */\n      swap2\n      swap1\n      pop\n      jump\t// out\n        /* \"#utility.yul\":12521:12686   */\n    tag_211:\n        /* \"#utility.yul\":12661:12678   */\n      0x5472616e73666572206661696c65640000000000000000000000000000000000\n        /* \"#utility.yul\":12657:12658   */\n      0x00\n        /* \"#utility.yul\":12649:12655   */\n      dup3\n        /* \"#utility.yul\":12645:12659   */\n      add\n        /* \"#utility.yul\":12638:12679   */\n      mstore\n        /* \"#utility.yul\":12521:12686   */\n      pop\n      jump\t// out\n        /* \"#utility.yul\":12692:13058   */\n    tag_212:\n        /* \"#utility.yul\":12834:12837   */\n      0x00\n        /* \"#utility.yul\":12855:12922   */\n      tag_332\n        /* \"#utility.yul\":12919:12921   */\n      0x0f\n        /* \"#utility.yul\":12914:12917   */\n      dup4\n        /* \"#utility.yul\":12855:12922   */\n      tag_193\n      jump\t// in\n    tag_332:\n        /* \"#utility.yul\":12848:12922   */\n      swap2\n      pop\n        /* \"#utility.yul\":12931:13024   */\n      tag_333\n        /* \"#utility.yul\":13020:13023   */\n      dup3\n        /* \"#utility.yul\":12931:13024   */\n      tag_211\n      jump\t// in\n    tag_333:\n        /* \"#utility.yul\":13049:13051   */\n      0x20\n        /* \"#utility.yul\":13044:13047   */\n      dup3\n        /* \"#utility.yul\":13040:13052   */\n      add\n        /* \"#utility.yul\":13033:13052   */\n      swap1\n      pop\n        /* \"#utility.yul\":12692:13058   */\n      swap2\n      swap1\n      pop\n      jump\t// out\n        /* \"#utility.yul\":13064:13483   */\n    tag_148:\n        /* \"#utility.yul\":13230:13234   */\n      0x00\n        /* \"#utility.yul\":13268:13270   */\n      0x20\n        /* \"#utility.yul\":13257:13266   */\n      dup3\n        /* \"#utility.yul\":13253:13271   */\n      add\n        /* \"#utility.yul\":13245:13271   */\n      swap1\n      pop\n        /* \"#utility.yul\":13317:13326   */\n      dup2\n        /* \"#utility.yul\":13311:13315   */\n      dup2\n        /* \"#utility.yul\":13307:13327   */\n      sub\n        /* \"#utility.yul\":13303:13304   */\n      0x00\n        /* \"#utility.yul\":13292:13301   */\n      dup4\n        /* \"#utility.yul\":13288:13305   */\n      add\n        /* \"#utility.yul\":13281:13328   */\n      mstore\n        /* \"#utility.yul\":13345:13476   */\n      tag_335\n        /* \"#utility.yul\":13471:13475   */\n      dup2\n        /* \"#utility.yul\":13345:13476   */\n      tag_212\n      jump\t// in\n    tag_335:\n        /* \"#utility.yul\":13337:13476   */\n      swap1\n      pop\n        /* \"#utility.yul\":13064:13483   */\n      swap2\n      swap1\n      pop\n      jump\t// out\n\n    auxdata: 0xa26469706673582212203adbb5c11bd8d452245768fa5d72ada832807ebe6c41719ace343812bf4dd89264736f6c63430008110033\n}\n",
				"bytecode": {
					"linkReferences": {},
					"object": "60806040523480156200001157600080fd5b50604051620015fe380380620015fe8339818101604052810190620000379190620000e8565b806000806101000a81548173ffffffffffffffffffffffffffffffffffffffff021916908373ffffffffffffffffffffffffffffffffffffffff160217905550506200011a565b600080fd5b600073ffffffffffffffffffffffffffffffffffffffff82169050919050565b6000620000b08262000083565b9050919050565b620000c281620000a3565b8114620000ce57600080fd5b50565b600081519050620000e281620000b7565b92915050565b6000602082840312156200010157620001006200007e565b5b60006200011184828501620000d1565b91505092915050565b6114d4806200012a6000396000f3fe6080604052600436106100865760003560e01c806394b918de1161005957806394b918de14610100578063bec3fa171461011c578063eb521a4c14610145578063f4325d6714610161578063ff9b37581461018c57610086565b80637464fc3d1461008b57806383197ef0146100b65780638e3073a6146100cd5780638ef85568146100f6575b600080fd5b34801561009757600080fd5b506100a06101b5565b6040516100ad9190610dd7565b60405180910390f35b3480156100c257600080fd5b506100cb6101bb565b005b3480156100d957600080fd5b506100f460048036038101906100ef9190610e23565b6101e8565b005b6100fe6104e1565b005b61011a60048036038101906101159190610e23565b610695565b005b34801561012857600080fd5b50610143600480360381019061013e9190610eae565b6106b8565b005b61015f600480360381019061015a9190610e23565b61074f565b005b34801561016d57600080fd5b506101766108db565b6040516101839190610efd565b60405180910390f35b34801561019857600080fd5b506101b360048036038101906101ae9190610e23565b6108ff565b005b60015481565b73ee88b109b526f6306151f969e293709f2907f04273ffffffffffffffffffffffffffffffffffffffff16ff5b8060008054906101000a900473ffffffffffffffffffffffffffffffffffffffff1673ffffffffffffffffffffffffffffffffffffffff1663dd62ed3e33306040518363ffffffff1660e01b8152600401610244929190610f18565b602060405180830381865afa158015610261573d6000803e3d6000fd5b505050506040513d601f19601f820116820180604052508101906102859190610f56565b10156102c6576040517f08c379a00000000000000000000000000000000000000000000000000000000081526004016102bd90610fe0565b60405180910390fd5b60008054906101000a900473ffffffffffffffffffffffffffffffffffffffff1673ffffffffffffffffffffffffffffffffffffffff166323b872dd3330846040518463ffffffff1660e01b815260040161032393929190611000565b6020604051808303816000875af1158015610342573d6000803e3d6000fd5b505050506040513d601f19601f82011682018060405250810190610366919061106f565b5060008060009054906101000a900473ffffffffffffffffffffffffffffffffffffffff1673ffffffffffffffffffffffffffffffffffffffff166370a08231306040518263ffffffff1660e01b81526004016103c39190610efd565b602060405180830381865afa1580156103e0573d6000803e3d6000fd5b505050506040513d601f19601f820116820180604052508101906104049190610f56565b905060008160015461041691906110fa565b47610421919061112b565b905080471161042f57600080fd5b60003373ffffffffffffffffffffffffffffffffffffffff168260405161045590611190565b60006040518083038185875af1925050503d8060008114610492576040519150601f19603f3d011682016040523d82523d6000602084013e610497565b606091505b50509050806104db576040517f08c379a00000000000000000000000000000000000000000000000000000000081526004016104d2906111f1565b60405180910390fd5b50505050565b60003411610524576040517f08c379a000000000000000000000000000000000000000000000000000000000815260040161051b90611283565b60405180910390fd5b60008060009054906101000a900473ffffffffffffffffffffffffffffffffffffffff1673ffffffffffffffffffffffffffffffffffffffff166370a08231306040518263ffffffff1660e01b81526004016105809190610efd565b602060405180830381865afa15801561059d573d6000803e3d6000fd5b505050506040513d601f19601f820116820180604052508101906105c19190610f56565b905060004790506000816001546105d891906110fa565b836105e3919061112b565b90508083116105f157600080fd5b60008054906101000a900473ffffffffffffffffffffffffffffffffffffffff1673ffffffffffffffffffffffffffffffffffffffff1663a9059cbb33836040518363ffffffff1660e01b815260040161064c9291906112a3565b6020604051808303816000875af115801561066b573d6000803e3d6000fd5b505050506040513d601f19601f8201168201806040525081019061068f919061106f565b50505050565b60003411156106ab576106a66104e1565b6106b5565b6106b4816101e8565b5b50565b73d8b934580fce35a11b58c6d73adee468a2833fa873ffffffffffffffffffffffffffffffffffffffff1663a9059cbb83836040518363ffffffff1660e01b81526004016107079291906112a3565b6020604051808303816000875af1158015610726573d6000803e3d6000fd5b505050506040513d601f19601f8201168201806040525081019061074a919061106f565b505050565b60008054906101000a900473ffffffffffffffffffffffffffffffffffffffff1673ffffffffffffffffffffffffffffffffffffffff166323b872dd3330846040518463ffffffff1660e01b81526004016107ac93929190611000565b6020604051808303816000875af11580156107cb573d6000803e3d6000fd5b505050506040513d601f19601f820116820180604052508101906107ef919061106f565b5047816107fc91906112cc565b60018190555073d8b934580fce35a11b58c6d73adee468a2833fa873ffffffffffffffffffffffffffffffffffffffff1663a9059cbb3361083e600154610bf8565b6040518363ffffffff1660e01b815260040161085b9291906112a3565b6020604051808303816000875af115801561087a573d6000803e3d6000fd5b505050506040513d601f19601f8201168201806040525081019061089e919061106f565b507fb62268a18d99fe191ac8e62f823ab1eec698609a81b2c8de3dac902896b09da633826040516108d09291906112a3565b60405180910390a150565b60008054906101000a900473ffffffffffffffffffffffffffffffffffffffff1681565b60008111610942576040517f08c379a00000000000000000000000000000000000000000000000000000000081526004016109399061135a565b60405180910390fd5b8073d8b934580fce35a11b58c6d73adee468a2833fa873ffffffffffffffffffffffffffffffffffffffff1663dd62ed3e33306040518363ffffffff1660e01b8152600401610992929190610f18565b602060405180830381865afa1580156109af573d6000803e3d6000fd5b505050506040513d601f19601f820116820180604052508101906109d39190610f56565b1015610a14576040517f08c379a0000000000000000000000000000000000000000000000000000000008152600401610a0b90611412565b60405180910390fd5b73d8b934580fce35a11b58c6d73adee468a2833fa873ffffffffffffffffffffffffffffffffffffffff166323b872dd3330846040518463ffffffff1660e01b8152600401610a6593929190611000565b6020604051808303816000875af1158015610a84573d6000803e3d6000fd5b505050506040513d601f19601f82011682018060405250810190610aa8919061106f565b5060008054906101000a900473ffffffffffffffffffffffffffffffffffffffff1673ffffffffffffffffffffffffffffffffffffffff1663a9059cbb33836040518363ffffffff1660e01b8152600401610b049291906112a3565b6020604051808303816000875af1158015610b23573d6000803e3d6000fd5b505050506040513d601f19601f82011682018060405250810190610b47919061106f565b5060003373ffffffffffffffffffffffffffffffffffffffff1682604051610b6e90611190565b60006040518083038185875af1925050503d8060008114610bab576040519150601f19603f3d011682016040523d82523d6000602084013e610bb0565b606091505b5050905080610bf4576040517f08c379a0000000000000000000000000000000000000000000000000000000008152600401610beb9061147e565b60405180910390fd5b5050565b6000808203610c0a5760009050610da0565b60006001905060008390506000608082901c1115610c3157608081901c9050604082901b91505b6000604082901c1115610c4d57604081901c9050602082901b91505b6000602082901c1115610c6957602081901c9050601082901b91505b6000601082901c1115610c8557601081901c9050600882901b91505b6000600882901c1115610ca157600881901c9050600482901b91505b6000600482901c1115610cbd57600481901c9050600282901b91505b6000600282901c1115610cd257600182901b91505b6001828581610ce457610ce361109c565b5b048301901c91506001828581610cfd57610cfc61109c565b5b048301901c91506001828581610d1657610d1561109c565b5b048301901c91506001828581610d2f57610d2e61109c565b5b048301901c91506001828581610d4857610d4761109c565b5b048301901c91506001828581610d6157610d6061109c565b5b048301901c91506001828581610d7a57610d7961109c565b5b048301901c9150610d9b82838681610d9557610d9461109c565b5b04610da5565b925050505b919050565b6000818310610db45781610db6565b825b905092915050565b6000819050919050565b610dd181610dbe565b82525050565b6000602082019050610dec6000830184610dc8565b92915050565b600080fd5b610e0081610dbe565b8114610e0b57600080fd5b50565b600081359050610e1d81610df7565b92915050565b600060208284031215610e3957610e38610df2565b5b6000610e4784828501610e0e565b91505092915050565b600073ffffffffffffffffffffffffffffffffffffffff82169050919050565b6000610e7b82610e50565b9050919050565b610e8b81610e70565b8114610e9657600080fd5b50565b600081359050610ea881610e82565b92915050565b60008060408385031215610ec557610ec4610df2565b5b6000610ed385828601610e99565b9250506020610ee485828601610e0e565b9150509250929050565b610ef781610e70565b82525050565b6000602082019050610f126000830184610eee565b92915050565b6000604082019050610f2d6000830185610eee565b610f3a6020830184610eee565b9392505050565b600081519050610f5081610df7565b92915050565b600060208284031215610f6c57610f6b610df2565b5b6000610f7a84828501610f41565b91505092915050565b600082825260208201905092915050565b7f436f6e7472616374206e6f7420617070726f7665640000000000000000000000600082015250565b6000610fca601583610f83565b9150610fd582610f94565b602082019050919050565b60006020820190508181036000830152610ff981610fbd565b9050919050565b60006060820190506110156000830186610eee565b6110226020830185610eee565b61102f6040830184610dc8565b949350505050565b60008115159050919050565b61104c81611037565b811461105757600080fd5b50565b60008151905061106981611043565b92915050565b60006020828403121561108557611084610df2565b5b60006110938482850161105a565b91505092915050565b7f4e487b7100000000000000000000000000000000000000000000000000000000600052601260045260246000fd5b7f4e487b7100000000000000000000000000000000000000000000000000000000600052601160045260246000fd5b600061110582610dbe565b915061111083610dbe565b9250826111205761111f61109c565b5b828204905092915050565b600061113682610dbe565b915061114183610dbe565b9250828203905081811115611159576111586110cb565b5b92915050565b600081905092915050565b50565b600061117a60008361115f565b91506111858261116a565b600082019050919050565b600061119b8261116d565b9150819050919050565b7f5472616e73666572204661696c65640000000000000000000000000000000000600082015250565b60006111db600f83610f83565b91506111e6826111a5565b602082019050919050565b6000602082019050818103600083015261120a816111ce565b9050919050565b7f5468652065746820616d6f756e7420737570706c696564206d7573742062652060008201527f67726561746572207468616e2030000000000000000000000000000000000000602082015250565b600061126d602e83610f83565b915061127882611211565b604082019050919050565b6000602082019050818103600083015261129c81611260565b9050919050565b60006040820190506112b86000830185610eee565b6112c56020830184610dc8565b9392505050565b60006112d782610dbe565b91506112e283610dbe565b92508282026112f081610dbe565b91508282048414831517611307576113066110cb565b5b5092915050565b7f496e76616c696420616d6f756e74206f66207368617265730000000000000000600082015250565b6000611344601883610f83565b915061134f8261130e565b602082019050919050565b6000602082019050818103600083015261137381611337565b9050919050565b7f506c6561736520617070726f76652074686520636f6e747261637420746f206460008201527f6564756374206c747220746f6b656e732066726f6d20796f75722077616c6c6560208201527f7400000000000000000000000000000000000000000000000000000000000000604082015250565b60006113fc604183610f83565b91506114078261137a565b606082019050919050565b6000602082019050818103600083015261142b816113ef565b9050919050565b7f5472616e73666572206661696c65640000000000000000000000000000000000600082015250565b6000611468600f83610f83565b915061147382611432565b602082019050919050565b600060208201905081810360008301526114978161145b565b905091905056fea26469706673582212203adbb5c11bd8d452245768fa5d72ada832807ebe6c41719ace343812bf4dd89264736f6c63430008110033",
					"opcodes": "PUSH1 0x80 PUSH1 0x40 MSTORE CALLVALUE DUP1 ISZERO PUSH3 0x11 JUMPI PUSH1 0x0 DUP1 REVERT JUMPDEST POP PUSH1 0x40 MLOAD PUSH3 0x15FE CODESIZE SUB DUP1 PUSH3 0x15FE DUP4 CODECOPY DUP2 DUP2 ADD PUSH1 0x40 MSTORE DUP2 ADD SWAP1 PUSH3 0x37 SWAP2 SWAP1 PUSH3 0xE8 JUMP JUMPDEST DUP1 PUSH1 0x0 DUP1 PUSH2 0x100 EXP DUP2 SLOAD DUP2 PUSH20 0xFFFFFFFFFFFFFFFFFFFFFFFFFFFFFFFFFFFFFFFF MUL NOT AND SWAP1 DUP4 PUSH20 0xFFFFFFFFFFFFFFFFFFFFFFFFFFFFFFFFFFFFFFFF AND MUL OR SWAP1 SSTORE POP POP PUSH3 0x11A JUMP JUMPDEST PUSH1 0x0 DUP1 REVERT JUMPDEST PUSH1 0x0 PUSH20 0xFFFFFFFFFFFFFFFFFFFFFFFFFFFFFFFFFFFFFFFF DUP3 AND SWAP1 POP SWAP2 SWAP1 POP JUMP JUMPDEST PUSH1 0x0 PUSH3 0xB0 DUP3 PUSH3 0x83 JUMP JUMPDEST SWAP1 POP SWAP2 SWAP1 POP JUMP JUMPDEST PUSH3 0xC2 DUP2 PUSH3 0xA3 JUMP JUMPDEST DUP2 EQ PUSH3 0xCE JUMPI PUSH1 0x0 DUP1 REVERT JUMPDEST POP JUMP JUMPDEST PUSH1 0x0 DUP2 MLOAD SWAP1 POP PUSH3 0xE2 DUP2 PUSH3 0xB7 JUMP JUMPDEST SWAP3 SWAP2 POP POP JUMP JUMPDEST PUSH1 0x0 PUSH1 0x20 DUP3 DUP5 SUB SLT ISZERO PUSH3 0x101 JUMPI PUSH3 0x100 PUSH3 0x7E JUMP JUMPDEST JUMPDEST PUSH1 0x0 PUSH3 0x111 DUP5 DUP3 DUP6 ADD PUSH3 0xD1 JUMP JUMPDEST SWAP2 POP POP SWAP3 SWAP2 POP POP JUMP JUMPDEST PUSH2 0x14D4 DUP1 PUSH3 0x12A PUSH1 0x0 CODECOPY PUSH1 0x0 RETURN INVALID PUSH1 0x80 PUSH1 0x40 MSTORE PUSH1 0x4 CALLDATASIZE LT PUSH2 0x86 JUMPI PUSH1 0x0 CALLDATALOAD PUSH1 0xE0 SHR DUP1 PUSH4 0x94B918DE GT PUSH2 0x59 JUMPI DUP1 PUSH4 0x94B918DE EQ PUSH2 0x100 JUMPI DUP1 PUSH4 0xBEC3FA17 EQ PUSH2 0x11C JUMPI DUP1 PUSH4 0xEB521A4C EQ PUSH2 0x145 JUMPI DUP1 PUSH4 0xF4325D67 EQ PUSH2 0x161 JUMPI DUP1 PUSH4 0xFF9B3758 EQ PUSH2 0x18C JUMPI PUSH2 0x86 JUMP JUMPDEST DUP1 PUSH4 0x7464FC3D EQ PUSH2 0x8B JUMPI DUP1 PUSH4 0x83197EF0 EQ PUSH2 0xB6 JUMPI DUP1 PUSH4 0x8E3073A6 EQ PUSH2 0xCD JUMPI DUP1 PUSH4 0x8EF85568 EQ PUSH2 0xF6 JUMPI JUMPDEST PUSH1 0x0 DUP1 REVERT JUMPDEST CALLVALUE DUP1 ISZERO PUSH2 0x97 JUMPI PUSH1 0x0 DUP1 REVERT JUMPDEST POP PUSH2 0xA0 PUSH2 0x1B5 JUMP JUMPDEST PUSH1 0x40 MLOAD PUSH2 0xAD SWAP2 SWAP1 PUSH2 0xDD7 JUMP JUMPDEST PUSH1 0x40 MLOAD DUP1 SWAP2 SUB SWAP1 RETURN JUMPDEST CALLVALUE DUP1 ISZERO PUSH2 0xC2 JUMPI PUSH1 0x0 DUP1 REVERT JUMPDEST POP PUSH2 0xCB PUSH2 0x1BB JUMP JUMPDEST STOP JUMPDEST CALLVALUE DUP1 ISZERO PUSH2 0xD9 JUMPI PUSH1 0x0 DUP1 REVERT JUMPDEST POP PUSH2 0xF4 PUSH1 0x4 DUP1 CALLDATASIZE SUB DUP2 ADD SWAP1 PUSH2 0xEF SWAP2 SWAP1 PUSH2 0xE23 JUMP JUMPDEST PUSH2 0x1E8 JUMP JUMPDEST STOP JUMPDEST PUSH2 0xFE PUSH2 0x4E1 JUMP JUMPDEST STOP JUMPDEST PUSH2 0x11A PUSH1 0x4 DUP1 CALLDATASIZE SUB DUP2 ADD SWAP1 PUSH2 0x115 SWAP2 SWAP1 PUSH2 0xE23 JUMP JUMPDEST PUSH2 0x695 JUMP JUMPDEST STOP JUMPDEST CALLVALUE DUP1 ISZERO PUSH2 0x128 JUMPI PUSH1 0x0 DUP1 REVERT JUMPDEST POP PUSH2 0x143 PUSH1 0x4 DUP1 CALLDATASIZE SUB DUP2 ADD SWAP1 PUSH2 0x13E SWAP2 SWAP1 PUSH2 0xEAE JUMP JUMPDEST PUSH2 0x6B8 JUMP JUMPDEST STOP JUMPDEST PUSH2 0x15F PUSH1 0x4 DUP1 CALLDATASIZE SUB DUP2 ADD SWAP1 PUSH2 0x15A SWAP2 SWAP1 PUSH2 0xE23 JUMP JUMPDEST PUSH2 0x74F JUMP JUMPDEST STOP JUMPDEST CALLVALUE DUP1 ISZERO PUSH2 0x16D JUMPI PUSH1 0x0 DUP1 REVERT JUMPDEST POP PUSH2 0x176 PUSH2 0x8DB JUMP JUMPDEST PUSH1 0x40 MLOAD PUSH2 0x183 SWAP2 SWAP1 PUSH2 0xEFD JUMP JUMPDEST PUSH1 0x40 MLOAD DUP1 SWAP2 SUB SWAP1 RETURN JUMPDEST CALLVALUE DUP1 ISZERO PUSH2 0x198 JUMPI PUSH1 0x0 DUP1 REVERT JUMPDEST POP PUSH2 0x1B3 PUSH1 0x4 DUP1 CALLDATASIZE SUB DUP2 ADD SWAP1 PUSH2 0x1AE SWAP2 SWAP1 PUSH2 0xE23 JUMP JUMPDEST PUSH2 0x8FF JUMP JUMPDEST STOP JUMPDEST PUSH1 0x1 SLOAD DUP2 JUMP JUMPDEST PUSH20 0xEE88B109B526F6306151F969E293709F2907F042 PUSH20 0xFFFFFFFFFFFFFFFFFFFFFFFFFFFFFFFFFFFFFFFF AND SELFDESTRUCT JUMPDEST DUP1 PUSH1 0x0 DUP1 SLOAD SWAP1 PUSH2 0x100 EXP SWAP1 DIV PUSH20 0xFFFFFFFFFFFFFFFFFFFFFFFFFFFFFFFFFFFFFFFF AND PUSH20 0xFFFFFFFFFFFFFFFFFFFFFFFFFFFFFFFFFFFFFFFF AND PUSH4 0xDD62ED3E CALLER ADDRESS PUSH1 0x40 MLOAD DUP4 PUSH4 0xFFFFFFFF AND PUSH1 0xE0 SHL DUP2 MSTORE PUSH1 0x4 ADD PUSH2 0x244 SWAP3 SWAP2 SWAP1 PUSH2 0xF18 JUMP JUMPDEST PUSH1 0x20 PUSH1 0x40 MLOAD DUP1 DUP4 SUB DUP2 DUP7 GAS STATICCALL ISZERO DUP1 ISZERO PUSH2 0x261 JUMPI RETURNDATASIZE PUSH1 0x0 DUP1 RETURNDATACOPY RETURNDATASIZE PUSH1 0x0 REVERT JUMPDEST POP POP POP POP PUSH1 0x40 MLOAD RETURNDATASIZE PUSH1 0x1F NOT PUSH1 0x1F DUP3 ADD AND DUP3 ADD DUP1 PUSH1 0x40 MSTORE POP DUP2 ADD SWAP1 PUSH2 0x285 SWAP2 SWAP1 PUSH2 0xF56 JUMP JUMPDEST LT ISZERO PUSH2 0x2C6 JUMPI PUSH1 0x40 MLOAD PUSH32 0x8C379A000000000000000000000000000000000000000000000000000000000 DUP2 MSTORE PUSH1 0x4 ADD PUSH2 0x2BD SWAP1 PUSH2 0xFE0 JUMP JUMPDEST PUSH1 0x40 MLOAD DUP1 SWAP2 SUB SWAP1 REVERT JUMPDEST PUSH1 0x0 DUP1 SLOAD SWAP1 PUSH2 0x100 EXP SWAP1 DIV PUSH20 0xFFFFFFFFFFFFFFFFFFFFFFFFFFFFFFFFFFFFFFFF AND PUSH20 0xFFFFFFFFFFFFFFFFFFFFFFFFFFFFFFFFFFFFFFFF AND PUSH4 0x23B872DD CALLER ADDRESS DUP5 PUSH1 0x40 MLOAD DUP5 PUSH4 0xFFFFFFFF AND PUSH1 0xE0 SHL DUP2 MSTORE PUSH1 0x4 ADD PUSH2 0x323 SWAP4 SWAP3 SWAP2 SWAP1 PUSH2 0x1000 JUMP JUMPDEST PUSH1 0x20 PUSH1 0x40 MLOAD DUP1 DUP4 SUB DUP2 PUSH1 0x0 DUP8 GAS CALL ISZERO DUP1 ISZERO PUSH2 0x342 JUMPI RETURNDATASIZE PUSH1 0x0 DUP1 RETURNDATACOPY RETURNDATASIZE PUSH1 0x0 REVERT JUMPDEST POP POP POP POP PUSH1 0x40 MLOAD RETURNDATASIZE PUSH1 0x1F NOT PUSH1 0x1F DUP3 ADD AND DUP3 ADD DUP1 PUSH1 0x40 MSTORE POP DUP2 ADD SWAP1 PUSH2 0x366 SWAP2 SWAP1 PUSH2 0x106F JUMP JUMPDEST POP PUSH1 0x0 DUP1 PUSH1 0x0 SWAP1 SLOAD SWAP1 PUSH2 0x100 EXP SWAP1 DIV PUSH20 0xFFFFFFFFFFFFFFFFFFFFFFFFFFFFFFFFFFFFFFFF AND PUSH20 0xFFFFFFFFFFFFFFFFFFFFFFFFFFFFFFFFFFFFFFFF AND PUSH4 0x70A08231 ADDRESS PUSH1 0x40 MLOAD DUP3 PUSH4 0xFFFFFFFF AND PUSH1 0xE0 SHL DUP2 MSTORE PUSH1 0x4 ADD PUSH2 0x3C3 SWAP2 SWAP1 PUSH2 0xEFD JUMP JUMPDEST PUSH1 0x20 PUSH1 0x40 MLOAD DUP1 DUP4 SUB DUP2 DUP7 GAS STATICCALL ISZERO DUP1 ISZERO PUSH2 0x3E0 JUMPI RETURNDATASIZE PUSH1 0x0 DUP1 RETURNDATACOPY RETURNDATASIZE PUSH1 0x0 REVERT JUMPDEST POP POP POP POP PUSH1 0x40 MLOAD RETURNDATASIZE PUSH1 0x1F NOT PUSH1 0x1F DUP3 ADD AND DUP3 ADD DUP1 PUSH1 0x40 MSTORE POP DUP2 ADD SWAP1 PUSH2 0x404 SWAP2 SWAP1 PUSH2 0xF56 JUMP JUMPDEST SWAP1 POP PUSH1 0x0 DUP2 PUSH1 0x1 SLOAD PUSH2 0x416 SWAP2 SWAP1 PUSH2 0x10FA JUMP JUMPDEST SELFBALANCE PUSH2 0x421 SWAP2 SWAP1 PUSH2 0x112B JUMP JUMPDEST SWAP1 POP DUP1 SELFBALANCE GT PUSH2 0x42F JUMPI PUSH1 0x0 DUP1 REVERT JUMPDEST PUSH1 0x0 CALLER PUSH20 0xFFFFFFFFFFFFFFFFFFFFFFFFFFFFFFFFFFFFFFFF AND DUP3 PUSH1 0x40 MLOAD PUSH2 0x455 SWAP1 PUSH2 0x1190 JUMP JUMPDEST PUSH1 0x0 PUSH1 0x40 MLOAD DUP1 DUP4 SUB DUP2 DUP6 DUP8 GAS CALL SWAP3 POP POP POP RETURNDATASIZE DUP1 PUSH1 0x0 DUP2 EQ PUSH2 0x492 JUMPI PUSH1 0x40 MLOAD SWAP2 POP PUSH1 0x1F NOT PUSH1 0x3F RETURNDATASIZE ADD AND DUP3 ADD PUSH1 0x40 MSTORE RETURNDATASIZE DUP3 MSTORE RETURNDATASIZE PUSH1 0x0 PUSH1 0x20 DUP5 ADD RETURNDATACOPY PUSH2 0x497 JUMP JUMPDEST PUSH1 0x60 SWAP2 POP JUMPDEST POP POP SWAP1 POP DUP1 PUSH2 0x4DB JUMPI PUSH1 0x40 MLOAD PUSH32 0x8C379A000000000000000000000000000000000000000000000000000000000 DUP2 MSTORE PUSH1 0x4 ADD PUSH2 0x4D2 SWAP1 PUSH2 0x11F1 JUMP JUMPDEST PUSH1 0x40 MLOAD DUP1 SWAP2 SUB SWAP1 REVERT JUMPDEST POP POP POP POP JUMP JUMPDEST PUSH1 0x0 CALLVALUE GT PUSH2 0x524 JUMPI PUSH1 0x40 MLOAD PUSH32 0x8C379A000000000000000000000000000000000000000000000000000000000 DUP2 MSTORE PUSH1 0x4 ADD PUSH2 0x51B SWAP1 PUSH2 0x1283 JUMP JUMPDEST PUSH1 0x40 MLOAD DUP1 SWAP2 SUB SWAP1 REVERT JUMPDEST PUSH1 0x0 DUP1 PUSH1 0x0 SWAP1 SLOAD SWAP1 PUSH2 0x100 EXP SWAP1 DIV PUSH20 0xFFFFFFFFFFFFFFFFFFFFFFFFFFFFFFFFFFFFFFFF AND PUSH20 0xFFFFFFFFFFFFFFFFFFFFFFFFFFFFFFFFFFFFFFFF AND PUSH4 0x70A08231 ADDRESS PUSH1 0x40 MLOAD DUP3 PUSH4 0xFFFFFFFF AND PUSH1 0xE0 SHL DUP2 MSTORE PUSH1 0x4 ADD PUSH2 0x580 SWAP2 SWAP1 PUSH2 0xEFD JUMP JUMPDEST PUSH1 0x20 PUSH1 0x40 MLOAD DUP1 DUP4 SUB DUP2 DUP7 GAS STATICCALL ISZERO DUP1 ISZERO PUSH2 0x59D JUMPI RETURNDATASIZE PUSH1 0x0 DUP1 RETURNDATACOPY RETURNDATASIZE PUSH1 0x0 REVERT JUMPDEST POP POP POP POP PUSH1 0x40 MLOAD RETURNDATASIZE PUSH1 0x1F NOT PUSH1 0x1F DUP3 ADD AND DUP3 ADD DUP1 PUSH1 0x40 MSTORE POP DUP2 ADD SWAP1 PUSH2 0x5C1 SWAP2 SWAP1 PUSH2 0xF56 JUMP JUMPDEST SWAP1 POP PUSH1 0x0 SELFBALANCE SWAP1 POP PUSH1 0x0 DUP2 PUSH1 0x1 SLOAD PUSH2 0x5D8 SWAP2 SWAP1 PUSH2 0x10FA JUMP JUMPDEST DUP4 PUSH2 0x5E3 SWAP2 SWAP1 PUSH2 0x112B JUMP JUMPDEST SWAP1 POP DUP1 DUP4 GT PUSH2 0x5F1 JUMPI PUSH1 0x0 DUP1 REVERT JUMPDEST PUSH1 0x0 DUP1 SLOAD SWAP1 PUSH2 0x100 EXP SWAP1 DIV PUSH20 0xFFFFFFFFFFFFFFFFFFFFFFFFFFFFFFFFFFFFFFFF AND PUSH20 0xFFFFFFFFFFFFFFFFFFFFFFFFFFFFFFFFFFFFFFFF AND PUSH4 0xA9059CBB CALLER DUP4 PUSH1 0x40 MLOAD DUP4 PUSH4 0xFFFFFFFF AND PUSH1 0xE0 SHL DUP2 MSTORE PUSH1 0x4 ADD PUSH2 0x64C SWAP3 SWAP2 SWAP1 PUSH2 0x12A3 JUMP JUMPDEST PUSH1 0x20 PUSH1 0x40 MLOAD DUP1 DUP4 SUB DUP2 PUSH1 0x0 DUP8 GAS CALL ISZERO DUP1 ISZERO PUSH2 0x66B JUMPI RETURNDATASIZE PUSH1 0x0 DUP1 RETURNDATACOPY RETURNDATASIZE PUSH1 0x0 REVERT JUMPDEST POP POP POP POP PUSH1 0x40 MLOAD RETURNDATASIZE PUSH1 0x1F NOT PUSH1 0x1F DUP3 ADD AND DUP3 ADD DUP1 PUSH1 0x40 MSTORE POP DUP2 ADD SWAP1 PUSH2 0x68F SWAP2 SWAP1 PUSH2 0x106F JUMP JUMPDEST POP POP POP POP JUMP JUMPDEST PUSH1 0x0 CALLVALUE GT ISZERO PUSH2 0x6AB JUMPI PUSH2 0x6A6 PUSH2 0x4E1 JUMP JUMPDEST PUSH2 0x6B5 JUMP JUMPDEST PUSH2 0x6B4 DUP2 PUSH2 0x1E8 JUMP JUMPDEST JUMPDEST POP JUMP JUMPDEST PUSH20 0xD8B934580FCE35A11B58C6D73ADEE468A2833FA8 PUSH20 0xFFFFFFFFFFFFFFFFFFFFFFFFFFFFFFFFFFFFFFFF AND PUSH4 0xA9059CBB DUP4 DUP4 PUSH1 0x40 MLOAD DUP4 PUSH4 0xFFFFFFFF AND PUSH1 0xE0 SHL DUP2 MSTORE PUSH1 0x4 ADD PUSH2 0x707 SWAP3 SWAP2 SWAP1 PUSH2 0x12A3 JUMP JUMPDEST PUSH1 0x20 PUSH1 0x40 MLOAD DUP1 DUP4 SUB DUP2 PUSH1 0x0 DUP8 GAS CALL ISZERO DUP1 ISZERO PUSH2 0x726 JUMPI RETURNDATASIZE PUSH1 0x0 DUP1 RETURNDATACOPY RETURNDATASIZE PUSH1 0x0 REVERT JUMPDEST POP POP POP POP PUSH1 0x40 MLOAD RETURNDATASIZE PUSH1 0x1F NOT PUSH1 0x1F DUP3 ADD AND DUP3 ADD DUP1 PUSH1 0x40 MSTORE POP DUP2 ADD SWAP1 PUSH2 0x74A SWAP2 SWAP1 PUSH2 0x106F JUMP JUMPDEST POP POP POP JUMP JUMPDEST PUSH1 0x0 DUP1 SLOAD SWAP1 PUSH2 0x100 EXP SWAP1 DIV PUSH20 0xFFFFFFFFFFFFFFFFFFFFFFFFFFFFFFFFFFFFFFFF AND PUSH20 0xFFFFFFFFFFFFFFFFFFFFFFFFFFFFFFFFFFFFFFFF AND PUSH4 0x23B872DD CALLER ADDRESS DUP5 PUSH1 0x40 MLOAD DUP5 PUSH4 0xFFFFFFFF AND PUSH1 0xE0 SHL DUP2 MSTORE PUSH1 0x4 ADD PUSH2 0x7AC SWAP4 SWAP3 SWAP2 SWAP1 PUSH2 0x1000 JUMP JUMPDEST PUSH1 0x20 PUSH1 0x40 MLOAD DUP1 DUP4 SUB DUP2 PUSH1 0x0 DUP8 GAS CALL ISZERO DUP1 ISZERO PUSH2 0x7CB JUMPI RETURNDATASIZE PUSH1 0x0 DUP1 RETURNDATACOPY RETURNDATASIZE PUSH1 0x0 REVERT JUMPDEST POP POP POP POP PUSH1 0x40 MLOAD RETURNDATASIZE PUSH1 0x1F NOT PUSH1 0x1F DUP3 ADD AND DUP3 ADD DUP1 PUSH1 0x40 MSTORE POP DUP2 ADD SWAP1 PUSH2 0x7EF SWAP2 SWAP1 PUSH2 0x106F JUMP JUMPDEST POP SELFBALANCE DUP2 PUSH2 0x7FC SWAP2 SWAP1 PUSH2 0x12CC JUMP JUMPDEST PUSH1 0x1 DUP2 SWAP1 SSTORE POP PUSH20 0xD8B934580FCE35A11B58C6D73ADEE468A2833FA8 PUSH20 0xFFFFFFFFFFFFFFFFFFFFFFFFFFFFFFFFFFFFFFFF AND PUSH4 0xA9059CBB CALLER PUSH2 0x83E PUSH1 0x1 SLOAD PUSH2 0xBF8 JUMP JUMPDEST PUSH1 0x40 MLOAD DUP4 PUSH4 0xFFFFFFFF AND PUSH1 0xE0 SHL DUP2 MSTORE PUSH1 0x4 ADD PUSH2 0x85B SWAP3 SWAP2 SWAP1 PUSH2 0x12A3 JUMP JUMPDEST PUSH1 0x20 PUSH1 0x40 MLOAD DUP1 DUP4 SUB DUP2 PUSH1 0x0 DUP8 GAS CALL ISZERO DUP1 ISZERO PUSH2 0x87A JUMPI RETURNDATASIZE PUSH1 0x0 DUP1 RETURNDATACOPY RETURNDATASIZE PUSH1 0x0 REVERT JUMPDEST POP POP POP POP PUSH1 0x40 MLOAD RETURNDATASIZE PUSH1 0x1F NOT PUSH1 0x1F DUP3 ADD AND DUP3 ADD DUP1 PUSH1 0x40 MSTORE POP DUP2 ADD SWAP1 PUSH2 0x89E SWAP2 SWAP1 PUSH2 0x106F JUMP JUMPDEST POP PUSH32 0xB62268A18D99FE191AC8E62F823AB1EEC698609A81B2C8DE3DAC902896B09DA6 CALLER DUP3 PUSH1 0x40 MLOAD PUSH2 0x8D0 SWAP3 SWAP2 SWAP1 PUSH2 0x12A3 JUMP JUMPDEST PUSH1 0x40 MLOAD DUP1 SWAP2 SUB SWAP1 LOG1 POP JUMP JUMPDEST PUSH1 0x0 DUP1 SLOAD SWAP1 PUSH2 0x100 EXP SWAP1 DIV PUSH20 0xFFFFFFFFFFFFFFFFFFFFFFFFFFFFFFFFFFFFFFFF AND DUP2 JUMP JUMPDEST PUSH1 0x0 DUP2 GT PUSH2 0x942 JUMPI PUSH1 0x40 MLOAD PUSH32 0x8C379A000000000000000000000000000000000000000000000000000000000 DUP2 MSTORE PUSH1 0x4 ADD PUSH2 0x939 SWAP1 PUSH2 0x135A JUMP JUMPDEST PUSH1 0x40 MLOAD DUP1 SWAP2 SUB SWAP1 REVERT JUMPDEST DUP1 PUSH20 0xD8B934580FCE35A11B58C6D73ADEE468A2833FA8 PUSH20 0xFFFFFFFFFFFFFFFFFFFFFFFFFFFFFFFFFFFFFFFF AND PUSH4 0xDD62ED3E CALLER ADDRESS PUSH1 0x40 MLOAD DUP4 PUSH4 0xFFFFFFFF AND PUSH1 0xE0 SHL DUP2 MSTORE PUSH1 0x4 ADD PUSH2 0x992 SWAP3 SWAP2 SWAP1 PUSH2 0xF18 JUMP JUMPDEST PUSH1 0x20 PUSH1 0x40 MLOAD DUP1 DUP4 SUB DUP2 DUP7 GAS STATICCALL ISZERO DUP1 ISZERO PUSH2 0x9AF JUMPI RETURNDATASIZE PUSH1 0x0 DUP1 RETURNDATACOPY RETURNDATASIZE PUSH1 0x0 REVERT JUMPDEST POP POP POP POP PUSH1 0x40 MLOAD RETURNDATASIZE PUSH1 0x1F NOT PUSH1 0x1F DUP3 ADD AND DUP3 ADD DUP1 PUSH1 0x40 MSTORE POP DUP2 ADD SWAP1 PUSH2 0x9D3 SWAP2 SWAP1 PUSH2 0xF56 JUMP JUMPDEST LT ISZERO PUSH2 0xA14 JUMPI PUSH1 0x40 MLOAD PUSH32 0x8C379A000000000000000000000000000000000000000000000000000000000 DUP2 MSTORE PUSH1 0x4 ADD PUSH2 0xA0B SWAP1 PUSH2 0x1412 JUMP JUMPDEST PUSH1 0x40 MLOAD DUP1 SWAP2 SUB SWAP1 REVERT JUMPDEST PUSH20 0xD8B934580FCE35A11B58C6D73ADEE468A2833FA8 PUSH20 0xFFFFFFFFFFFFFFFFFFFFFFFFFFFFFFFFFFFFFFFF AND PUSH4 0x23B872DD CALLER ADDRESS DUP5 PUSH1 0x40 MLOAD DUP5 PUSH4 0xFFFFFFFF AND PUSH1 0xE0 SHL DUP2 MSTORE PUSH1 0x4 ADD PUSH2 0xA65 SWAP4 SWAP3 SWAP2 SWAP1 PUSH2 0x1000 JUMP JUMPDEST PUSH1 0x20 PUSH1 0x40 MLOAD DUP1 DUP4 SUB DUP2 PUSH1 0x0 DUP8 GAS CALL ISZERO DUP1 ISZERO PUSH2 0xA84 JUMPI RETURNDATASIZE PUSH1 0x0 DUP1 RETURNDATACOPY RETURNDATASIZE PUSH1 0x0 REVERT JUMPDEST POP POP POP POP PUSH1 0x40 MLOAD RETURNDATASIZE PUSH1 0x1F NOT PUSH1 0x1F DUP3 ADD AND DUP3 ADD DUP1 PUSH1 0x40 MSTORE POP DUP2 ADD SWAP1 PUSH2 0xAA8 SWAP2 SWAP1 PUSH2 0x106F JUMP JUMPDEST POP PUSH1 0x0 DUP1 SLOAD SWAP1 PUSH2 0x100 EXP SWAP1 DIV PUSH20 0xFFFFFFFFFFFFFFFFFFFFFFFFFFFFFFFFFFFFFFFF AND PUSH20 0xFFFFFFFFFFFFFFFFFFFFFFFFFFFFFFFFFFFFFFFF AND PUSH4 0xA9059CBB CALLER DUP4 PUSH1 0x40 MLOAD DUP4 PUSH4 0xFFFFFFFF AND PUSH1 0xE0 SHL DUP2 MSTORE PUSH1 0x4 ADD PUSH2 0xB04 SWAP3 SWAP2 SWAP1 PUSH2 0x12A3 JUMP JUMPDEST PUSH1 0x20 PUSH1 0x40 MLOAD DUP1 DUP4 SUB DUP2 PUSH1 0x0 DUP8 GAS CALL ISZERO DUP1 ISZERO PUSH2 0xB23 JUMPI RETURNDATASIZE PUSH1 0x0 DUP1 RETURNDATACOPY RETURNDATASIZE PUSH1 0x0 REVERT JUMPDEST POP POP POP POP PUSH1 0x40 MLOAD RETURNDATASIZE PUSH1 0x1F NOT PUSH1 0x1F DUP3 ADD AND DUP3 ADD DUP1 PUSH1 0x40 MSTORE POP DUP2 ADD SWAP1 PUSH2 0xB47 SWAP2 SWAP1 PUSH2 0x106F JUMP JUMPDEST POP PUSH1 0x0 CALLER PUSH20 0xFFFFFFFFFFFFFFFFFFFFFFFFFFFFFFFFFFFFFFFF AND DUP3 PUSH1 0x40 MLOAD PUSH2 0xB6E SWAP1 PUSH2 0x1190 JUMP JUMPDEST PUSH1 0x0 PUSH1 0x40 MLOAD DUP1 DUP4 SUB DUP2 DUP6 DUP8 GAS CALL SWAP3 POP POP POP RETURNDATASIZE DUP1 PUSH1 0x0 DUP2 EQ PUSH2 0xBAB JUMPI PUSH1 0x40 MLOAD SWAP2 POP PUSH1 0x1F NOT PUSH1 0x3F RETURNDATASIZE ADD AND DUP3 ADD PUSH1 0x40 MSTORE RETURNDATASIZE DUP3 MSTORE RETURNDATASIZE PUSH1 0x0 PUSH1 0x20 DUP5 ADD RETURNDATACOPY PUSH2 0xBB0 JUMP JUMPDEST PUSH1 0x60 SWAP2 POP JUMPDEST POP POP SWAP1 POP DUP1 PUSH2 0xBF4 JUMPI PUSH1 0x40 MLOAD PUSH32 0x8C379A000000000000000000000000000000000000000000000000000000000 DUP2 MSTORE PUSH1 0x4 ADD PUSH2 0xBEB SWAP1 PUSH2 0x147E JUMP JUMPDEST PUSH1 0x40 MLOAD DUP1 SWAP2 SUB SWAP1 REVERT JUMPDEST POP POP JUMP JUMPDEST PUSH1 0x0 DUP1 DUP3 SUB PUSH2 0xC0A JUMPI PUSH1 0x0 SWAP1 POP PUSH2 0xDA0 JUMP JUMPDEST PUSH1 0x0 PUSH1 0x1 SWAP1 POP PUSH1 0x0 DUP4 SWAP1 POP PUSH1 0x0 PUSH1 0x80 DUP3 SWAP1 SHR GT ISZERO PUSH2 0xC31 JUMPI PUSH1 0x80 DUP2 SWAP1 SHR SWAP1 POP PUSH1 0x40 DUP3 SWAP1 SHL SWAP2 POP JUMPDEST PUSH1 0x0 PUSH1 0x40 DUP3 SWAP1 SHR GT ISZERO PUSH2 0xC4D JUMPI PUSH1 0x40 DUP2 SWAP1 SHR SWAP1 POP PUSH1 0x20 DUP3 SWAP1 SHL SWAP2 POP JUMPDEST PUSH1 0x0 PUSH1 0x20 DUP3 SWAP1 SHR GT ISZERO PUSH2 0xC69 JUMPI PUSH1 0x20 DUP2 SWAP1 SHR SWAP1 POP PUSH1 0x10 DUP3 SWAP1 SHL SWAP2 POP JUMPDEST PUSH1 0x0 PUSH1 0x10 DUP3 SWAP1 SHR GT ISZERO PUSH2 0xC85 JUMPI PUSH1 0x10 DUP2 SWAP1 SHR SWAP1 POP PUSH1 0x8 DUP3 SWAP1 SHL SWAP2 POP JUMPDEST PUSH1 0x0 PUSH1 0x8 DUP3 SWAP1 SHR GT ISZERO PUSH2 0xCA1 JUMPI PUSH1 0x8 DUP2 SWAP1 SHR SWAP1 POP PUSH1 0x4 DUP3 SWAP1 SHL SWAP2 POP JUMPDEST PUSH1 0x0 PUSH1 0x4 DUP3 SWAP1 SHR GT ISZERO PUSH2 0xCBD JUMPI PUSH1 0x4 DUP2 SWAP1 SHR SWAP1 POP PUSH1 0x2 DUP3 SWAP1 SHL SWAP2 POP JUMPDEST PUSH1 0x0 PUSH1 0x2 DUP3 SWAP1 SHR GT ISZERO PUSH2 0xCD2 JUMPI PUSH1 0x1 DUP3 SWAP1 SHL SWAP2 POP JUMPDEST PUSH1 0x1 DUP3 DUP6 DUP2 PUSH2 0xCE4 JUMPI PUSH2 0xCE3 PUSH2 0x109C JUMP JUMPDEST JUMPDEST DIV DUP4 ADD SWAP1 SHR SWAP2 POP PUSH1 0x1 DUP3 DUP6 DUP2 PUSH2 0xCFD JUMPI PUSH2 0xCFC PUSH2 0x109C JUMP JUMPDEST JUMPDEST DIV DUP4 ADD SWAP1 SHR SWAP2 POP PUSH1 0x1 DUP3 DUP6 DUP2 PUSH2 0xD16 JUMPI PUSH2 0xD15 PUSH2 0x109C JUMP JUMPDEST JUMPDEST DIV DUP4 ADD SWAP1 SHR SWAP2 POP PUSH1 0x1 DUP3 DUP6 DUP2 PUSH2 0xD2F JUMPI PUSH2 0xD2E PUSH2 0x109C JUMP JUMPDEST JUMPDEST DIV DUP4 ADD SWAP1 SHR SWAP2 POP PUSH1 0x1 DUP3 DUP6 DUP2 PUSH2 0xD48 JUMPI PUSH2 0xD47 PUSH2 0x109C JUMP JUMPDEST JUMPDEST DIV DUP4 ADD SWAP1 SHR SWAP2 POP PUSH1 0x1 DUP3 DUP6 DUP2 PUSH2 0xD61 JUMPI PUSH2 0xD60 PUSH2 0x109C JUMP JUMPDEST JUMPDEST DIV DUP4 ADD SWAP1 SHR SWAP2 POP PUSH1 0x1 DUP3 DUP6 DUP2 PUSH2 0xD7A JUMPI PUSH2 0xD79 PUSH2 0x109C JUMP JUMPDEST JUMPDEST DIV DUP4 ADD SWAP1 SHR SWAP2 POP PUSH2 0xD9B DUP3 DUP4 DUP7 DUP2 PUSH2 0xD95 JUMPI PUSH2 0xD94 PUSH2 0x109C JUMP JUMPDEST JUMPDEST DIV PUSH2 0xDA5 JUMP JUMPDEST SWAP3 POP POP POP JUMPDEST SWAP2 SWAP1 POP JUMP JUMPDEST PUSH1 0x0 DUP2 DUP4 LT PUSH2 0xDB4 JUMPI DUP2 PUSH2 0xDB6 JUMP JUMPDEST DUP3 JUMPDEST SWAP1 POP SWAP3 SWAP2 POP POP JUMP JUMPDEST PUSH1 0x0 DUP2 SWAP1 POP SWAP2 SWAP1 POP JUMP JUMPDEST PUSH2 0xDD1 DUP2 PUSH2 0xDBE JUMP JUMPDEST DUP3 MSTORE POP POP JUMP JUMPDEST PUSH1 0x0 PUSH1 0x20 DUP3 ADD SWAP1 POP PUSH2 0xDEC PUSH1 0x0 DUP4 ADD DUP5 PUSH2 0xDC8 JUMP JUMPDEST SWAP3 SWAP2 POP POP JUMP JUMPDEST PUSH1 0x0 DUP1 REVERT JUMPDEST PUSH2 0xE00 DUP2 PUSH2 0xDBE JUMP JUMPDEST DUP2 EQ PUSH2 0xE0B JUMPI PUSH1 0x0 DUP1 REVERT JUMPDEST POP JUMP JUMPDEST PUSH1 0x0 DUP2 CALLDATALOAD SWAP1 POP PUSH2 0xE1D DUP2 PUSH2 0xDF7 JUMP JUMPDEST SWAP3 SWAP2 POP POP JUMP JUMPDEST PUSH1 0x0 PUSH1 0x20 DUP3 DUP5 SUB SLT ISZERO PUSH2 0xE39 JUMPI PUSH2 0xE38 PUSH2 0xDF2 JUMP JUMPDEST JUMPDEST PUSH1 0x0 PUSH2 0xE47 DUP5 DUP3 DUP6 ADD PUSH2 0xE0E JUMP JUMPDEST SWAP2 POP POP SWAP3 SWAP2 POP POP JUMP JUMPDEST PUSH1 0x0 PUSH20 0xFFFFFFFFFFFFFFFFFFFFFFFFFFFFFFFFFFFFFFFF DUP3 AND SWAP1 POP SWAP2 SWAP1 POP JUMP JUMPDEST PUSH1 0x0 PUSH2 0xE7B DUP3 PUSH2 0xE50 JUMP JUMPDEST SWAP1 POP SWAP2 SWAP1 POP JUMP JUMPDEST PUSH2 0xE8B DUP2 PUSH2 0xE70 JUMP JUMPDEST DUP2 EQ PUSH2 0xE96 JUMPI PUSH1 0x0 DUP1 REVERT JUMPDEST POP JUMP JUMPDEST PUSH1 0x0 DUP2 CALLDATALOAD SWAP1 POP PUSH2 0xEA8 DUP2 PUSH2 0xE82 JUMP JUMPDEST SWAP3 SWAP2 POP POP JUMP JUMPDEST PUSH1 0x0 DUP1 PUSH1 0x40 DUP4 DUP6 SUB SLT ISZERO PUSH2 0xEC5 JUMPI PUSH2 0xEC4 PUSH2 0xDF2 JUMP JUMPDEST JUMPDEST PUSH1 0x0 PUSH2 0xED3 DUP6 DUP3 DUP7 ADD PUSH2 0xE99 JUMP JUMPDEST SWAP3 POP POP PUSH1 0x20 PUSH2 0xEE4 DUP6 DUP3 DUP7 ADD PUSH2 0xE0E JUMP JUMPDEST SWAP2 POP POP SWAP3 POP SWAP3 SWAP1 POP JUMP JUMPDEST PUSH2 0xEF7 DUP2 PUSH2 0xE70 JUMP JUMPDEST DUP3 MSTORE POP POP JUMP JUMPDEST PUSH1 0x0 PUSH1 0x20 DUP3 ADD SWAP1 POP PUSH2 0xF12 PUSH1 0x0 DUP4 ADD DUP5 PUSH2 0xEEE JUMP JUMPDEST SWAP3 SWAP2 POP POP JUMP JUMPDEST PUSH1 0x0 PUSH1 0x40 DUP3 ADD SWAP1 POP PUSH2 0xF2D PUSH1 0x0 DUP4 ADD DUP6 PUSH2 0xEEE JUMP JUMPDEST PUSH2 0xF3A PUSH1 0x20 DUP4 ADD DUP5 PUSH2 0xEEE JUMP JUMPDEST SWAP4 SWAP3 POP POP POP JUMP JUMPDEST PUSH1 0x0 DUP2 MLOAD SWAP1 POP PUSH2 0xF50 DUP2 PUSH2 0xDF7 JUMP JUMPDEST SWAP3 SWAP2 POP POP JUMP JUMPDEST PUSH1 0x0 PUSH1 0x20 DUP3 DUP5 SUB SLT ISZERO PUSH2 0xF6C JUMPI PUSH2 0xF6B PUSH2 0xDF2 JUMP JUMPDEST JUMPDEST PUSH1 0x0 PUSH2 0xF7A DUP5 DUP3 DUP6 ADD PUSH2 0xF41 JUMP JUMPDEST SWAP2 POP POP SWAP3 SWAP2 POP POP JUMP JUMPDEST PUSH1 0x0 DUP3 DUP3 MSTORE PUSH1 0x20 DUP3 ADD SWAP1 POP SWAP3 SWAP2 POP POP JUMP JUMPDEST PUSH32 0x436F6E7472616374206E6F7420617070726F7665640000000000000000000000 PUSH1 0x0 DUP3 ADD MSTORE POP JUMP JUMPDEST PUSH1 0x0 PUSH2 0xFCA PUSH1 0x15 DUP4 PUSH2 0xF83 JUMP JUMPDEST SWAP2 POP PUSH2 0xFD5 DUP3 PUSH2 0xF94 JUMP JUMPDEST PUSH1 0x20 DUP3 ADD SWAP1 POP SWAP2 SWAP1 POP JUMP JUMPDEST PUSH1 0x0 PUSH1 0x20 DUP3 ADD SWAP1 POP DUP2 DUP2 SUB PUSH1 0x0 DUP4 ADD MSTORE PUSH2 0xFF9 DUP2 PUSH2 0xFBD JUMP JUMPDEST SWAP1 POP SWAP2 SWAP1 POP JUMP JUMPDEST PUSH1 0x0 PUSH1 0x60 DUP3 ADD SWAP1 POP PUSH2 0x1015 PUSH1 0x0 DUP4 ADD DUP7 PUSH2 0xEEE JUMP JUMPDEST PUSH2 0x1022 PUSH1 0x20 DUP4 ADD DUP6 PUSH2 0xEEE JUMP JUMPDEST PUSH2 0x102F PUSH1 0x40 DUP4 ADD DUP5 PUSH2 0xDC8 JUMP JUMPDEST SWAP5 SWAP4 POP POP POP POP JUMP JUMPDEST PUSH1 0x0 DUP2 ISZERO ISZERO SWAP1 POP SWAP2 SWAP1 POP JUMP JUMPDEST PUSH2 0x104C DUP2 PUSH2 0x1037 JUMP JUMPDEST DUP2 EQ PUSH2 0x1057 JUMPI PUSH1 0x0 DUP1 REVERT JUMPDEST POP JUMP JUMPDEST PUSH1 0x0 DUP2 MLOAD SWAP1 POP PUSH2 0x1069 DUP2 PUSH2 0x1043 JUMP JUMPDEST SWAP3 SWAP2 POP POP JUMP JUMPDEST PUSH1 0x0 PUSH1 0x20 DUP3 DUP5 SUB SLT ISZERO PUSH2 0x1085 JUMPI PUSH2 0x1084 PUSH2 0xDF2 JUMP JUMPDEST JUMPDEST PUSH1 0x0 PUSH2 0x1093 DUP5 DUP3 DUP6 ADD PUSH2 0x105A JUMP JUMPDEST SWAP2 POP POP SWAP3 SWAP2 POP POP JUMP JUMPDEST PUSH32 0x4E487B7100000000000000000000000000000000000000000000000000000000 PUSH1 0x0 MSTORE PUSH1 0x12 PUSH1 0x4 MSTORE PUSH1 0x24 PUSH1 0x0 REVERT JUMPDEST PUSH32 0x4E487B7100000000000000000000000000000000000000000000000000000000 PUSH1 0x0 MSTORE PUSH1 0x11 PUSH1 0x4 MSTORE PUSH1 0x24 PUSH1 0x0 REVERT JUMPDEST PUSH1 0x0 PUSH2 0x1105 DUP3 PUSH2 0xDBE JUMP JUMPDEST SWAP2 POP PUSH2 0x1110 DUP4 PUSH2 0xDBE JUMP JUMPDEST SWAP3 POP DUP3 PUSH2 0x1120 JUMPI PUSH2 0x111F PUSH2 0x109C JUMP JUMPDEST JUMPDEST DUP3 DUP3 DIV SWAP1 POP SWAP3 SWAP2 POP POP JUMP JUMPDEST PUSH1 0x0 PUSH2 0x1136 DUP3 PUSH2 0xDBE JUMP JUMPDEST SWAP2 POP PUSH2 0x1141 DUP4 PUSH2 0xDBE JUMP JUMPDEST SWAP3 POP DUP3 DUP3 SUB SWAP1 POP DUP2 DUP2 GT ISZERO PUSH2 0x1159 JUMPI PUSH2 0x1158 PUSH2 0x10CB JUMP JUMPDEST JUMPDEST SWAP3 SWAP2 POP POP JUMP JUMPDEST PUSH1 0x0 DUP2 SWAP1 POP SWAP3 SWAP2 POP POP JUMP JUMPDEST POP JUMP JUMPDEST PUSH1 0x0 PUSH2 0x117A PUSH1 0x0 DUP4 PUSH2 0x115F JUMP JUMPDEST SWAP2 POP PUSH2 0x1185 DUP3 PUSH2 0x116A JUMP JUMPDEST PUSH1 0x0 DUP3 ADD SWAP1 POP SWAP2 SWAP1 POP JUMP JUMPDEST PUSH1 0x0 PUSH2 0x119B DUP3 PUSH2 0x116D JUMP JUMPDEST SWAP2 POP DUP2 SWAP1 POP SWAP2 SWAP1 POP JUMP JUMPDEST PUSH32 0x5472616E73666572204661696C65640000000000000000000000000000000000 PUSH1 0x0 DUP3 ADD MSTORE POP JUMP JUMPDEST PUSH1 0x0 PUSH2 0x11DB PUSH1 0xF DUP4 PUSH2 0xF83 JUMP JUMPDEST SWAP2 POP PUSH2 0x11E6 DUP3 PUSH2 0x11A5 JUMP JUMPDEST PUSH1 0x20 DUP3 ADD SWAP1 POP SWAP2 SWAP1 POP JUMP JUMPDEST PUSH1 0x0 PUSH1 0x20 DUP3 ADD SWAP1 POP DUP2 DUP2 SUB PUSH1 0x0 DUP4 ADD MSTORE PUSH2 0x120A DUP2 PUSH2 0x11CE JUMP JUMPDEST SWAP1 POP SWAP2 SWAP1 POP JUMP JUMPDEST PUSH32 0x5468652065746820616D6F756E7420737570706C696564206D75737420626520 PUSH1 0x0 DUP3 ADD MSTORE PUSH32 0x67726561746572207468616E2030000000000000000000000000000000000000 PUSH1 0x20 DUP3 ADD MSTORE POP JUMP JUMPDEST PUSH1 0x0 PUSH2 0x126D PUSH1 0x2E DUP4 PUSH2 0xF83 JUMP JUMPDEST SWAP2 POP PUSH2 0x1278 DUP3 PUSH2 0x1211 JUMP JUMPDEST PUSH1 0x40 DUP3 ADD SWAP1 POP SWAP2 SWAP1 POP JUMP JUMPDEST PUSH1 0x0 PUSH1 0x20 DUP3 ADD SWAP1 POP DUP2 DUP2 SUB PUSH1 0x0 DUP4 ADD MSTORE PUSH2 0x129C DUP2 PUSH2 0x1260 JUMP JUMPDEST SWAP1 POP SWAP2 SWAP1 POP JUMP JUMPDEST PUSH1 0x0 PUSH1 0x40 DUP3 ADD SWAP1 POP PUSH2 0x12B8 PUSH1 0x0 DUP4 ADD DUP6 PUSH2 0xEEE JUMP JUMPDEST PUSH2 0x12C5 PUSH1 0x20 DUP4 ADD DUP5 PUSH2 0xDC8 JUMP JUMPDEST SWAP4 SWAP3 POP POP POP JUMP JUMPDEST PUSH1 0x0 PUSH2 0x12D7 DUP3 PUSH2 0xDBE JUMP JUMPDEST SWAP2 POP PUSH2 0x12E2 DUP4 PUSH2 0xDBE JUMP JUMPDEST SWAP3 POP DUP3 DUP3 MUL PUSH2 0x12F0 DUP2 PUSH2 0xDBE JUMP JUMPDEST SWAP2 POP DUP3 DUP3 DIV DUP5 EQ DUP4 ISZERO OR PUSH2 0x1307 JUMPI PUSH2 0x1306 PUSH2 0x10CB JUMP JUMPDEST JUMPDEST POP SWAP3 SWAP2 POP POP JUMP JUMPDEST PUSH32 0x496E76616C696420616D6F756E74206F66207368617265730000000000000000 PUSH1 0x0 DUP3 ADD MSTORE POP JUMP JUMPDEST PUSH1 0x0 PUSH2 0x1344 PUSH1 0x18 DUP4 PUSH2 0xF83 JUMP JUMPDEST SWAP2 POP PUSH2 0x134F DUP3 PUSH2 0x130E JUMP JUMPDEST PUSH1 0x20 DUP3 ADD SWAP1 POP SWAP2 SWAP1 POP JUMP JUMPDEST PUSH1 0x0 PUSH1 0x20 DUP3 ADD SWAP1 POP DUP2 DUP2 SUB PUSH1 0x0 DUP4 ADD MSTORE PUSH2 0x1373 DUP2 PUSH2 0x1337 JUMP JUMPDEST SWAP1 POP SWAP2 SWAP1 POP JUMP JUMPDEST PUSH32 0x506C6561736520617070726F76652074686520636F6E747261637420746F2064 PUSH1 0x0 DUP3 ADD MSTORE PUSH32 0x6564756374206C747220746F6B656E732066726F6D20796F75722077616C6C65 PUSH1 0x20 DUP3 ADD MSTORE PUSH32 0x7400000000000000000000000000000000000000000000000000000000000000 PUSH1 0x40 DUP3 ADD MSTORE POP JUMP JUMPDEST PUSH1 0x0 PUSH2 0x13FC PUSH1 0x41 DUP4 PUSH2 0xF83 JUMP JUMPDEST SWAP2 POP PUSH2 0x1407 DUP3 PUSH2 0x137A JUMP JUMPDEST PUSH1 0x60 DUP3 ADD SWAP1 POP SWAP2 SWAP1 POP JUMP JUMPDEST PUSH1 0x0 PUSH1 0x20 DUP3 ADD SWAP1 POP DUP2 DUP2 SUB PUSH1 0x0 DUP4 ADD MSTORE PUSH2 0x142B DUP2 PUSH2 0x13EF JUMP JUMPDEST SWAP1 POP SWAP2 SWAP1 POP JUMP JUMPDEST PUSH32 0x5472616E73666572206661696C65640000000000000000000000000000000000 PUSH1 0x0 DUP3 ADD MSTORE POP JUMP JUMPDEST PUSH1 0x0 PUSH2 0x1468 PUSH1 0xF DUP4 PUSH2 0xF83 JUMP JUMPDEST SWAP2 POP PUSH2 0x1473 DUP3 PUSH2 0x1432 JUMP JUMPDEST PUSH1 0x20 DUP3 ADD SWAP1 POP SWAP2 SWAP1 POP JUMP JUMPDEST PUSH1 0x0 PUSH1 0x20 DUP3 ADD SWAP1 POP DUP2 DUP2 SUB PUSH1 0x0 DUP4 ADD MSTORE PUSH2 0x1497 DUP2 PUSH2 0x145B JUMP JUMPDEST SWAP1 POP SWAP2 SWAP1 POP JUMP INVALID LOG2 PUSH5 0x6970667358 0x22 SLT KECCAK256 GASPRICE 0xDB 0xB5 0xC1 SHL 0xD8 0xD4 MSTORE 0x24 JUMPI PUSH9 0xFA5D72ADA832807EBE PUSH13 0x41719ACE343812BF4DD8926473 PUSH16 0x6C634300081100330000000000000000 "
				},
				"gasEstimates": {
					"creation": {
						"codeDepositCost": "1066400",
						"executionCost": "infinite",
						"totalCost": "infinite"
					},
					"external": {
						"destroy()": "27767",
						"getDAI()": "infinite",
						"getEth(uint256)": "infinite",
						"kLast()": "2430",
						"provideLiquidity(uint256)": "infinite",
						"reedemShares(uint256)": "infinite",
						"reserveToken()": "2577",
						"swap(uint256)": "infinite",
						"transferTokens(address,uint256)": "infinite"
					}
				},
				"methodIdentifiers": {
					"destroy()": "83197ef0",
					"getDAI()": "8ef85568",
					"getEth(uint256)": "8e3073a6",
					"kLast()": "7464fc3d",
					"provideLiquidity(uint256)": "eb521a4c",
					"reedemShares(uint256)": "ff9b3758",
					"reserveToken()": "f4325d67",
					"swap(uint256)": "94b918de",
					"transferTokens(address,uint256)": "bec3fa17"
				}
			},
			"storageLayout": {
				"storage": [
					{
						"astId": 587,
						"contract": "contracts/LiquidityPool.sol:LiquidityPool",
						"label": "reserveToken",
						"offset": 0,
						"slot": "0",
						"type": "t_address"
					},
					{
						"astId": 592,
						"contract": "contracts/LiquidityPool.sol:LiquidityPool",
						"label": "kLast",
						"offset": 0,
						"slot": "1",
						"type": "t_uint256"
					}
				],
				"types": {
					"t_address": {
						"encoding": "inplace",
						"label": "address",
						"numberOfBytes": "20"
					},
					"t_uint256": {
						"encoding": "inplace",
						"label": "uint256",
						"numberOfBytes": "32"
					}
				}
			},
			"userdoc": {
				"kind": "user",
				"methods": {},
				"version": 1
			}
		}
	}
}