{
	"contracts/Pool.sol": {
		"Pool": {
			"abi": [
				{
					"inputs": [
						{
							"internalType": "address",
							"name": "_token0",
							"type": "address"
						},
						{
							"internalType": "address",
							"name": "_token1",
							"type": "address"
						},
						{
							"internalType": "address",
							"name": "_ltrAddress",
							"type": "address"
						}
					],
					"stateMutability": "nonpayable",
					"type": "constructor"
				},
				{
					"anonymous": false,
					"inputs": [
						{
							"indexed": false,
							"internalType": "address",
							"name": "_liquidityProvider",
							"type": "address"
						},
						{
							"indexed": false,
							"internalType": "uint256",
							"name": "_shares",
							"type": "uint256"
						}
					],
					"name": "liquidityProvided",
					"type": "event"
				},
				{
					"inputs": [],
					"name": "kLast",
					"outputs": [
						{
							"internalType": "uint256",
							"name": "",
							"type": "uint256"
						}
					],
					"stateMutability": "view",
					"type": "function"
				},
				{
					"inputs": [],
					"name": "ltrAddress",
					"outputs": [
						{
							"internalType": "address",
							"name": "",
							"type": "address"
						}
					],
					"stateMutability": "view",
					"type": "function"
				},
				{
					"inputs": [],
					"name": "price0",
					"outputs": [
						{
							"internalType": "uint256",
							"name": "",
							"type": "uint256"
						}
					],
					"stateMutability": "view",
					"type": "function"
				},
				{
					"inputs": [],
					"name": "price1",
					"outputs": [
						{
							"internalType": "uint256",
							"name": "",
							"type": "uint256"
						}
					],
					"stateMutability": "view",
					"type": "function"
				},
				{
					"inputs": [
						{
							"internalType": "uint256",
							"name": "_amount0",
							"type": "uint256"
						},
						{
							"internalType": "uint256",
							"name": "_amount1",
							"type": "uint256"
						}
					],
					"name": "provideLiquidity",
					"outputs": [],
					"stateMutability": "nonpayable",
					"type": "function"
				},
				{
					"inputs": [],
					"name": "reserve0",
					"outputs": [
						{
							"internalType": "uint256",
							"name": "",
							"type": "uint256"
						}
					],
					"stateMutability": "view",
					"type": "function"
				},
				{
					"inputs": [],
					"name": "reserve1",
					"outputs": [
						{
							"internalType": "uint256",
							"name": "",
							"type": "uint256"
						}
					],
					"stateMutability": "view",
					"type": "function"
				},
				{
					"inputs": [
						{
							"internalType": "uint256",
							"name": "_token0",
							"type": "uint256"
						},
						{
							"internalType": "uint256",
							"name": "_token1",
							"type": "uint256"
						}
					],
					"name": "swap",
					"outputs": [],
					"stateMutability": "nonpayable",
					"type": "function"
				},
				{
					"inputs": [],
					"name": "token0",
					"outputs": [
						{
							"internalType": "address",
							"name": "",
							"type": "address"
						}
					],
					"stateMutability": "view",
					"type": "function"
				},
				{
					"inputs": [],
					"name": "token1",
					"outputs": [
						{
							"internalType": "address",
							"name": "",
							"type": "address"
						}
					],
					"stateMutability": "view",
					"type": "function"
				}
			],
			"devdoc": {
				"kind": "dev",
				"methods": {},
				"version": 1
			},
			"evm": {
				"assembly": "    /* \"contracts/Pool.sol\":136:2803  contract Pool {... */\n  mstore(0x40, 0xe0)\n    /* \"contracts/Pool.sol\":485:645  constructor(address _token0, address _token1, address _ltrAddress) {... */\n  callvalue\n  dup1\n  iszero\n  tag_1\n  jumpi\n  0x00\n  dup1\n  revert\ntag_1:\n  pop\n  mload(0x40)\n  sub(codesize, bytecodeSize)\n  dup1\n  bytecodeSize\n  dup4\n  codecopy\n  dup2\n  dup2\n  add\n  0x40\n  mstore\n  dup2\n  add\n  swap1\n  tag_2\n  swap2\n  swap1\n  tag_3\n  jump\t// in\ntag_2:\n    /* \"contracts/Pool.sol\":571:578  _token0 */\n  dup3\n    /* \"contracts/Pool.sol\":562:578  token0 = _token0 */\n  0xffffffffffffffffffffffffffffffffffffffff\n  and\n  0x80\n  dup2\n  0xffffffffffffffffffffffffffffffffffffffff\n  and\n  dup2\n  mstore\n  pop\n  pop\n    /* \"contracts/Pool.sol\":597:604  _token1 */\n  dup2\n    /* \"contracts/Pool.sol\":588:604  token1 = _token1 */\n  0xffffffffffffffffffffffffffffffffffffffff\n  and\n  0xa0\n  dup2\n  0xffffffffffffffffffffffffffffffffffffffff\n  and\n  dup2\n  mstore\n  pop\n  pop\n    /* \"contracts/Pool.sol\":627:638  _ltrAddress */\n  dup1\n    /* \"contracts/Pool.sol\":614:638  ltrAddress = _ltrAddress */\n  0xffffffffffffffffffffffffffffffffffffffff\n  and\n  0xc0\n  dup2\n  0xffffffffffffffffffffffffffffffffffffffff\n  and\n  dup2\n  mstore\n  pop\n  pop\n    /* \"contracts/Pool.sol\":485:645  constructor(address _token0, address _token1, address _ltrAddress) {... */\n  pop\n  pop\n  pop\n    /* \"contracts/Pool.sol\":136:2803  contract Pool {... */\n  jump(tag_6)\n    /* \"#utility.yul\":88:205   */\ntag_8:\n    /* \"#utility.yul\":197:198   */\n  0x00\n    /* \"#utility.yul\":194:195   */\n  dup1\n    /* \"#utility.yul\":187:199   */\n  revert\n    /* \"#utility.yul\":334:460   */\ntag_10:\n    /* \"#utility.yul\":371:378   */\n  0x00\n    /* \"#utility.yul\":411:453   */\n  0xffffffffffffffffffffffffffffffffffffffff\n    /* \"#utility.yul\":404:409   */\n  dup3\n    /* \"#utility.yul\":400:454   */\n  and\n    /* \"#utility.yul\":389:454   */\n  swap1\n  pop\n    /* \"#utility.yul\":334:460   */\n  swap2\n  swap1\n  pop\n  jump\t// out\n    /* \"#utility.yul\":466:562   */\ntag_11:\n    /* \"#utility.yul\":503:510   */\n  0x00\n    /* \"#utility.yul\":532:556   */\n  tag_20\n    /* \"#utility.yul\":550:555   */\n  dup3\n    /* \"#utility.yul\":532:556   */\n  tag_10\n  jump\t// in\ntag_20:\n    /* \"#utility.yul\":521:556   */\n  swap1\n  pop\n    /* \"#utility.yul\":466:562   */\n  swap2\n  swap1\n  pop\n  jump\t// out\n    /* \"#utility.yul\":568:690   */\ntag_12:\n    /* \"#utility.yul\":641:665   */\n  tag_22\n    /* \"#utility.yul\":659:664   */\n  dup2\n    /* \"#utility.yul\":641:665   */\n  tag_11\n  jump\t// in\ntag_22:\n    /* \"#utility.yul\":634:639   */\n  dup2\n    /* \"#utility.yul\":631:666   */\n  eq\n    /* \"#utility.yul\":621:684   */\n  tag_23\n  jumpi\n    /* \"#utility.yul\":680:681   */\n  0x00\n    /* \"#utility.yul\":677:678   */\n  dup1\n    /* \"#utility.yul\":670:682   */\n  revert\n    /* \"#utility.yul\":621:684   */\ntag_23:\n    /* \"#utility.yul\":568:690   */\n  pop\n  jump\t// out\n    /* \"#utility.yul\":696:839   */\ntag_13:\n    /* \"#utility.yul\":753:758   */\n  0x00\n    /* \"#utility.yul\":784:790   */\n  dup2\n    /* \"#utility.yul\":778:791   */\n  mload\n    /* \"#utility.yul\":769:791   */\n  swap1\n  pop\n    /* \"#utility.yul\":800:833   */\n  tag_25\n    /* \"#utility.yul\":827:832   */\n  dup2\n    /* \"#utility.yul\":800:833   */\n  tag_12\n  jump\t// in\ntag_25:\n    /* \"#utility.yul\":696:839   */\n  swap3\n  swap2\n  pop\n  pop\n  jump\t// out\n    /* \"#utility.yul\":845:1508   */\ntag_3:\n    /* \"#utility.yul\":933:939   */\n  0x00\n    /* \"#utility.yul\":941:947   */\n  dup1\n    /* \"#utility.yul\":949:955   */\n  0x00\n    /* \"#utility.yul\":998:1000   */\n  0x60\n    /* \"#utility.yul\":986:995   */\n  dup5\n    /* \"#utility.yul\":977:984   */\n  dup7\n    /* \"#utility.yul\":973:996   */\n  sub\n    /* \"#utility.yul\":969:1001   */\n  slt\n    /* \"#utility.yul\":966:1085   */\n  iszero\n  tag_27\n  jumpi\n    /* \"#utility.yul\":1004:1083   */\n  tag_28\n  tag_8\n  jump\t// in\ntag_28:\n    /* \"#utility.yul\":966:1085   */\ntag_27:\n    /* \"#utility.yul\":1124:1125   */\n  0x00\n    /* \"#utility.yul\":1149:1213   */\n  tag_29\n    /* \"#utility.yul\":1205:1212   */\n  dup7\n    /* \"#utility.yul\":1196:1202   */\n  dup3\n    /* \"#utility.yul\":1185:1194   */\n  dup8\n    /* \"#utility.yul\":1181:1203   */\n  add\n    /* \"#utility.yul\":1149:1213   */\n  tag_13\n  jump\t// in\ntag_29:\n    /* \"#utility.yul\":1139:1213   */\n  swap4\n  pop\n    /* \"#utility.yul\":1095:1223   */\n  pop\n    /* \"#utility.yul\":1262:1264   */\n  0x20\n    /* \"#utility.yul\":1288:1352   */\n  tag_30\n    /* \"#utility.yul\":1344:1351   */\n  dup7\n    /* \"#utility.yul\":1335:1341   */\n  dup3\n    /* \"#utility.yul\":1324:1333   */\n  dup8\n    /* \"#utility.yul\":1320:1342   */\n  add\n    /* \"#utility.yul\":1288:1352   */\n  tag_13\n  jump\t// in\ntag_30:\n    /* \"#utility.yul\":1278:1352   */\n  swap3\n  pop\n    /* \"#utility.yul\":1233:1362   */\n  pop\n    /* \"#utility.yul\":1401:1403   */\n  0x40\n    /* \"#utility.yul\":1427:1491   */\n  tag_31\n    /* \"#utility.yul\":1483:1490   */\n  dup7\n    /* \"#utility.yul\":1474:1480   */\n  dup3\n    /* \"#utility.yul\":1463:1472   */\n  dup8\n    /* \"#utility.yul\":1459:1481   */\n  add\n    /* \"#utility.yul\":1427:1491   */\n  tag_13\n  jump\t// in\ntag_31:\n    /* \"#utility.yul\":1417:1491   */\n  swap2\n  pop\n    /* \"#utility.yul\":1372:1501   */\n  pop\n    /* \"#utility.yul\":845:1508   */\n  swap3\n  pop\n  swap3\n  pop\n  swap3\n  jump\t// out\n    /* \"contracts/Pool.sol\":136:2803  contract Pool {... */\ntag_6:\n  mload(0x80)\n  mload(0xa0)\n  mload(0xc0)\n  codecopy(0x00, dataOffset(sub_0), dataSize(sub_0))\n  0x00\n  assignImmutable(\"0xd76482dbf35305fc91ee39a65e61582d738cabad2061a7d338ce335afa2bb483\")\n  0x00\n  assignImmutable(\"0x8568f76a03b01e78020c34eaf7d99444bdfcfc02740b9216953e88c42652898d\")\n  0x00\n  assignImmutable(\"0x7c4b9619c581b88a141b2eb4807c7231fe75a5bedaa863d4150e3dabc19d88ab\")\n  return(0x00, dataSize(sub_0))\nstop\n\nsub_0: assembly {\n        /* \"contracts/Pool.sol\":136:2803  contract Pool {... */\n      mstore(0x40, 0x80)\n      callvalue\n      dup1\n      iszero\n      tag_1\n      jumpi\n      0x00\n      dup1\n      revert\n    tag_1:\n      pop\n      jumpi(tag_2, lt(calldatasize, 0x04))\n      shr(0xe0, calldataload(0x00))\n      dup1\n      0x7a16af7f\n      gt\n      tag_13\n      jumpi\n      dup1\n      0x7a16af7f\n      eq\n      tag_8\n      jumpi\n      dup1\n      0xa0a986f1\n      eq\n      tag_9\n      jumpi\n      dup1\n      0xba9c6845\n      eq\n      tag_10\n      jumpi\n      dup1\n      0xd21220a7\n      eq\n      tag_11\n      jumpi\n      dup1\n      0xd96073cf\n      eq\n      tag_12\n      jumpi\n      jump(tag_2)\n    tag_13:\n      dup1\n      0x0dfe1681\n      eq\n      tag_3\n      jumpi\n      dup1\n      0x443cb4bc\n      eq\n      tag_4\n      jumpi\n      dup1\n      0x5a76f25e\n      eq\n      tag_5\n      jumpi\n      dup1\n      0x6caf25ce\n      eq\n      tag_6\n      jumpi\n      dup1\n      0x7464fc3d\n      eq\n      tag_7\n      jumpi\n    tag_2:\n      0x00\n      dup1\n      revert\n        /* \"contracts/Pool.sol\":156:187  address public immutable token0 */\n    tag_3:\n      tag_14\n      tag_15\n      jump\t// in\n    tag_14:\n      mload(0x40)\n      tag_16\n      swap2\n      swap1\n      tag_17\n      jump\t// in\n    tag_16:\n      mload(0x40)\n      dup1\n      swap2\n      sub\n      swap1\n      return\n        /* \"contracts/Pool.sol\":297:320  uint256 public reserve0 */\n    tag_4:\n      tag_18\n      tag_19\n      jump\t// in\n    tag_18:\n      mload(0x40)\n      tag_20\n      swap2\n      swap1\n      tag_21\n      jump\t// in\n    tag_20:\n      mload(0x40)\n      dup1\n      swap2\n      sub\n      swap1\n      return\n        /* \"contracts/Pool.sol\":326:349  uint256 public reserve1 */\n    tag_5:\n      tag_22\n      tag_23\n      jump\t// in\n    tag_22:\n      mload(0x40)\n      tag_24\n      swap2\n      swap1\n      tag_21\n      jump\t// in\n    tag_24:\n      mload(0x40)\n      dup1\n      swap2\n      sub\n      swap1\n      return\n        /* \"contracts/Pool.sol\":382:403  uint256 public price1 */\n    tag_6:\n      tag_25\n      tag_26\n      jump\t// in\n    tag_25:\n      mload(0x40)\n      tag_27\n      swap2\n      swap1\n      tag_21\n      jump\t// in\n    tag_27:\n      mload(0x40)\n      dup1\n      swap2\n      sub\n      swap1\n      return\n        /* \"contracts/Pool.sol\":271:291  uint256 public kLast */\n    tag_7:\n      tag_28\n      tag_29\n      jump\t// in\n    tag_28:\n      mload(0x40)\n      tag_30\n      swap2\n      swap1\n      tag_21\n      jump\t// in\n    tag_30:\n      mload(0x40)\n      dup1\n      swap2\n      sub\n      swap1\n      return\n        /* \"contracts/Pool.sol\":888:1597  function provideLiquidity(uint256 _amount0, uint256 _amount1) external {... */\n    tag_8:\n      tag_31\n      0x04\n      dup1\n      calldatasize\n      sub\n      dup2\n      add\n      swap1\n      tag_32\n      swap2\n      swap1\n      tag_33\n      jump\t// in\n    tag_32:\n      tag_34\n      jump\t// in\n    tag_31:\n      stop\n        /* \"contracts/Pool.sol\":355:376  uint256 public price0 */\n    tag_9:\n      tag_35\n      tag_36\n      jump\t// in\n    tag_35:\n      mload(0x40)\n      tag_37\n      swap2\n      swap1\n      tag_21\n      jump\t// in\n    tag_37:\n      mload(0x40)\n      dup1\n      swap2\n      sub\n      swap1\n      return\n        /* \"contracts/Pool.sol\":230:265  address public immutable ltrAddress */\n    tag_10:\n      tag_38\n      tag_39\n      jump\t// in\n    tag_38:\n      mload(0x40)\n      tag_40\n      swap2\n      swap1\n      tag_17\n      jump\t// in\n    tag_40:\n      mload(0x40)\n      dup1\n      swap2\n      sub\n      swap1\n      return\n        /* \"contracts/Pool.sol\":193:224  address public immutable token1 */\n    tag_11:\n      tag_41\n      tag_42\n      jump\t// in\n    tag_41:\n      mload(0x40)\n      tag_43\n      swap2\n      swap1\n      tag_17\n      jump\t// in\n    tag_43:\n      mload(0x40)\n      dup1\n      swap2\n      sub\n      swap1\n      return\n        /* \"contracts/Pool.sol\":2543:2801  function swap(uint256 _token0, uint256 _token1) public {... */\n    tag_12:\n      tag_44\n      0x04\n      dup1\n      calldatasize\n      sub\n      dup2\n      add\n      swap1\n      tag_45\n      swap2\n      swap1\n      tag_33\n      jump\t// in\n    tag_45:\n      tag_46\n      jump\t// in\n    tag_44:\n      stop\n        /* \"contracts/Pool.sol\":156:187  address public immutable token0 */\n    tag_15:\n      immutable(\"0x7c4b9619c581b88a141b2eb4807c7231fe75a5bedaa863d4150e3dabc19d88ab\")\n      dup2\n      jump\t// out\n        /* \"contracts/Pool.sol\":297:320  uint256 public reserve0 */\n    tag_19:\n      sload(0x01)\n      dup2\n      jump\t// out\n        /* \"contracts/Pool.sol\":326:349  uint256 public reserve1 */\n    tag_23:\n      sload(0x02)\n      dup2\n      jump\t// out\n        /* \"contracts/Pool.sol\":382:403  uint256 public price1 */\n    tag_26:\n      sload(0x04)\n      dup2\n      jump\t// out\n        /* \"contracts/Pool.sol\":271:291  uint256 public kLast */\n    tag_29:\n      sload(0x00)\n      dup2\n      jump\t// out\n        /* \"contracts/Pool.sol\":888:1597  function provideLiquidity(uint256 _amount0, uint256 _amount1) external {... */\n    tag_34:\n        /* \"contracts/Pool.sol\":1032:1040  _amount0 */\n      dup2\n        /* \"contracts/Pool.sol\":984:990  token0 */\n      immutable(\"0x7c4b9619c581b88a141b2eb4807c7231fe75a5bedaa863d4150e3dabc19d88ab\")\n        /* \"contracts/Pool.sol\":977:1001  IERC20(token0).allowance */\n      0xffffffffffffffffffffffffffffffffffffffff\n      and\n      0xdd62ed3e\n        /* \"contracts/Pool.sol\":1002:1012  msg.sender */\n      caller\n        /* \"contracts/Pool.sol\":1022:1026  this */\n      address\n        /* \"contracts/Pool.sol\":977:1028  IERC20(token0).allowance(msg.sender, address(this)) */\n      mload(0x40)\n      dup4\n      0xffffffff\n      and\n      0xe0\n      shl\n      dup2\n      mstore\n      0x04\n      add\n      tag_48\n      swap3\n      swap2\n      swap1\n      tag_49\n      jump\t// in\n    tag_48:\n      0x20\n      mload(0x40)\n      dup1\n      dup4\n      sub\n      dup2\n      dup7\n      gas\n      staticcall\n      iszero\n      dup1\n      iszero\n      tag_51\n      jumpi\n      returndatasize\n      0x00\n      dup1\n      returndatacopy\n      revert(0x00, returndatasize)\n    tag_51:\n      pop\n      pop\n      pop\n      pop\n      mload(0x40)\n      returndatasize\n      not(0x1f)\n      0x1f\n      dup3\n      add\n      and\n      dup3\n      add\n      dup1\n      0x40\n      mstore\n      pop\n      dup2\n      add\n      swap1\n      tag_52\n      swap2\n      swap1\n      tag_53\n      jump\t// in\n    tag_52:\n        /* \"contracts/Pool.sol\":977:1040  IERC20(token0).allowance(msg.sender, address(this)) >= _amount0 */\n      lt\n      iszero\n        /* \"contracts/Pool.sol\":969:1066  require(IERC20(token0).allowance(msg.sender, address(this)) >= _amount0, \"Contract not approved\") */\n      tag_54\n      jumpi\n      mload(0x40)\n      0x08c379a000000000000000000000000000000000000000000000000000000000\n      dup2\n      mstore\n      0x04\n      add\n      tag_55\n      swap1\n      tag_56\n      jump\t// in\n    tag_55:\n      mload(0x40)\n      dup1\n      swap2\n      sub\n      swap1\n      revert\n    tag_54:\n        /* \"contracts/Pool.sol\":1139:1147  _amount1 */\n      dup1\n        /* \"contracts/Pool.sol\":1091:1097  token1 */\n      immutable(\"0x8568f76a03b01e78020c34eaf7d99444bdfcfc02740b9216953e88c42652898d\")\n        /* \"contracts/Pool.sol\":1084:1108  IERC20(token1).allowance */\n      0xffffffffffffffffffffffffffffffffffffffff\n      and\n      0xdd62ed3e\n        /* \"contracts/Pool.sol\":1109:1119  msg.sender */\n      caller\n        /* \"contracts/Pool.sol\":1129:1133  this */\n      address\n        /* \"contracts/Pool.sol\":1084:1135  IERC20(token1).allowance(msg.sender, address(this)) */\n      mload(0x40)\n      dup4\n      0xffffffff\n      and\n      0xe0\n      shl\n      dup2\n      mstore\n      0x04\n      add\n      tag_57\n      swap3\n      swap2\n      swap1\n      tag_49\n      jump\t// in\n    tag_57:\n      0x20\n      mload(0x40)\n      dup1\n      dup4\n      sub\n      dup2\n      dup7\n      gas\n      staticcall\n      iszero\n      dup1\n      iszero\n      tag_59\n      jumpi\n      returndatasize\n      0x00\n      dup1\n      returndatacopy\n      revert(0x00, returndatasize)\n    tag_59:\n      pop\n      pop\n      pop\n      pop\n      mload(0x40)\n      returndatasize\n      not(0x1f)\n      0x1f\n      dup3\n      add\n      and\n      dup3\n      add\n      dup1\n      0x40\n      mstore\n      pop\n      dup2\n      add\n      swap1\n      tag_60\n      swap2\n      swap1\n      tag_53\n      jump\t// in\n    tag_60:\n        /* \"contracts/Pool.sol\":1084:1147  IERC20(token1).allowance(msg.sender, address(this)) >= _amount1 */\n      lt\n      iszero\n        /* \"contracts/Pool.sol\":1076:1173  require(IERC20(token1).allowance(msg.sender, address(this)) >= _amount1, \"Contract not approved\") */\n      tag_61\n      jumpi\n      mload(0x40)\n      0x08c379a000000000000000000000000000000000000000000000000000000000\n      dup2\n      mstore\n      0x04\n      add\n      tag_62\n      swap1\n      tag_56\n      jump\t// in\n    tag_62:\n      mload(0x40)\n      dup1\n      swap2\n      sub\n      swap1\n      revert\n    tag_61:\n        /* \"contracts/Pool.sol\":1190:1196  token0 */\n      immutable(\"0x7c4b9619c581b88a141b2eb4807c7231fe75a5bedaa863d4150e3dabc19d88ab\")\n        /* \"contracts/Pool.sol\":1183:1210  IERC20(token0).transferFrom */\n      0xffffffffffffffffffffffffffffffffffffffff\n      and\n      0x23b872dd\n        /* \"contracts/Pool.sol\":1211:1221  msg.sender */\n      caller\n        /* \"contracts/Pool.sol\":1231:1235  this */\n      address\n        /* \"contracts/Pool.sol\":1238:1246  _amount0 */\n      dup6\n        /* \"contracts/Pool.sol\":1183:1247  IERC20(token0).transferFrom(msg.sender, address(this), _amount0) */\n      mload(0x40)\n      dup5\n      0xffffffff\n      and\n      0xe0\n      shl\n      dup2\n      mstore\n      0x04\n      add\n      tag_63\n      swap4\n      swap3\n      swap2\n      swap1\n      tag_64\n      jump\t// in\n    tag_63:\n      0x20\n      mload(0x40)\n      dup1\n      dup4\n      sub\n      dup2\n      0x00\n      dup8\n      gas\n      call\n      iszero\n      dup1\n      iszero\n      tag_66\n      jumpi\n      returndatasize\n      0x00\n      dup1\n      returndatacopy\n      revert(0x00, returndatasize)\n    tag_66:\n      pop\n      pop\n      pop\n      pop\n      mload(0x40)\n      returndatasize\n      not(0x1f)\n      0x1f\n      dup3\n      add\n      and\n      dup3\n      add\n      dup1\n      0x40\n      mstore\n      pop\n      dup2\n      add\n      swap1\n      tag_67\n      swap2\n      swap1\n      tag_68\n      jump\t// in\n    tag_67:\n      pop\n        /* \"contracts/Pool.sol\":1264:1270  token1 */\n      immutable(\"0x8568f76a03b01e78020c34eaf7d99444bdfcfc02740b9216953e88c42652898d\")\n        /* \"contracts/Pool.sol\":1257:1284  IERC20(token1).transferFrom */\n      0xffffffffffffffffffffffffffffffffffffffff\n      and\n      0x23b872dd\n        /* \"contracts/Pool.sol\":1285:1295  msg.sender */\n      caller\n        /* \"contracts/Pool.sol\":1305:1309  this */\n      address\n        /* \"contracts/Pool.sol\":1312:1320  _amount1 */\n      dup5\n        /* \"contracts/Pool.sol\":1257:1321  IERC20(token1).transferFrom(msg.sender, address(this), _amount1) */\n      mload(0x40)\n      dup5\n      0xffffffff\n      and\n      0xe0\n      shl\n      dup2\n      mstore\n      0x04\n      add\n      tag_69\n      swap4\n      swap3\n      swap2\n      swap1\n      tag_64\n      jump\t// in\n    tag_69:\n      0x20\n      mload(0x40)\n      dup1\n      dup4\n      sub\n      dup2\n      0x00\n      dup8\n      gas\n      call\n      iszero\n      dup1\n      iszero\n      tag_71\n      jumpi\n      returndatasize\n      0x00\n      dup1\n      returndatacopy\n      revert(0x00, returndatasize)\n    tag_71:\n      pop\n      pop\n      pop\n      pop\n      mload(0x40)\n      returndatasize\n      not(0x1f)\n      0x1f\n      dup3\n      add\n      and\n      dup3\n      add\n      dup1\n      0x40\n      mstore\n      pop\n      dup2\n      add\n      swap1\n      tag_72\n      swap2\n      swap1\n      tag_68\n      jump\t// in\n    tag_72:\n      pop\n        /* \"contracts/Pool.sol\":1388:1394  token1 */\n      immutable(\"0x8568f76a03b01e78020c34eaf7d99444bdfcfc02740b9216953e88c42652898d\")\n        /* \"contracts/Pool.sol\":1381:1405  IERC20(token1).balanceOf */\n      0xffffffffffffffffffffffffffffffffffffffff\n      and\n      0x70a08231\n        /* \"contracts/Pool.sol\":1414:1418  this */\n      address\n        /* \"contracts/Pool.sol\":1381:1420  IERC20(token1).balanceOf(address(this)) */\n      mload(0x40)\n      dup3\n      0xffffffff\n      and\n      0xe0\n      shl\n      dup2\n      mstore\n      0x04\n      add\n      tag_73\n      swap2\n      swap1\n      tag_17\n      jump\t// in\n    tag_73:\n      0x20\n      mload(0x40)\n      dup1\n      dup4\n      sub\n      dup2\n      dup7\n      gas\n      staticcall\n      iszero\n      dup1\n      iszero\n      tag_75\n      jumpi\n      returndatasize\n      0x00\n      dup1\n      returndatacopy\n      revert(0x00, returndatasize)\n    tag_75:\n      pop\n      pop\n      pop\n      pop\n      mload(0x40)\n      returndatasize\n      not(0x1f)\n      0x1f\n      dup3\n      add\n      and\n      dup3\n      add\n      dup1\n      0x40\n      mstore\n      pop\n      dup2\n      add\n      swap1\n      tag_76\n      swap2\n      swap1\n      tag_53\n      jump\t// in\n    tag_76:\n        /* \"contracts/Pool.sol\":1346:1352  token0 */\n      immutable(\"0x7c4b9619c581b88a141b2eb4807c7231fe75a5bedaa863d4150e3dabc19d88ab\")\n        /* \"contracts/Pool.sol\":1339:1363  IERC20(token0).balanceOf */\n      0xffffffffffffffffffffffffffffffffffffffff\n      and\n      0x70a08231\n        /* \"contracts/Pool.sol\":1372:1376  this */\n      address\n        /* \"contracts/Pool.sol\":1339:1378  IERC20(token0).balanceOf(address(this)) */\n      mload(0x40)\n      dup3\n      0xffffffff\n      and\n      0xe0\n      shl\n      dup2\n      mstore\n      0x04\n      add\n      tag_77\n      swap2\n      swap1\n      tag_17\n      jump\t// in\n    tag_77:\n      0x20\n      mload(0x40)\n      dup1\n      dup4\n      sub\n      dup2\n      dup7\n      gas\n      staticcall\n      iszero\n      dup1\n      iszero\n      tag_79\n      jumpi\n      returndatasize\n      0x00\n      dup1\n      returndatacopy\n      revert(0x00, returndatasize)\n    tag_79:\n      pop\n      pop\n      pop\n      pop\n      mload(0x40)\n      returndatasize\n      not(0x1f)\n      0x1f\n      dup3\n      add\n      and\n      dup3\n      add\n      dup1\n      0x40\n      mstore\n      pop\n      dup2\n      add\n      swap1\n      tag_80\n      swap2\n      swap1\n      tag_53\n      jump\t// in\n    tag_80:\n        /* \"contracts/Pool.sol\":1339:1420  IERC20(token0).balanceOf(address(this)) * IERC20(token1).balanceOf(address(this)) */\n      tag_81\n      swap2\n      swap1\n      tag_82\n      jump\t// in\n    tag_81:\n        /* \"contracts/Pool.sol\":1331:1336  kLast */\n      0x00\n        /* \"contracts/Pool.sol\":1331:1420  kLast = IERC20(token0).balanceOf(address(this)) * IERC20(token1).balanceOf(address(this)) */\n      dup2\n      swap1\n      sstore\n      pop\n        /* \"contracts/Pool.sol\":1430:1444  uint256 shares */\n      0x00\n        /* \"contracts/Pool.sol\":1447:1463  Math.sqrt(kLast) */\n      tag_83\n        /* \"contracts/Pool.sol\":1457:1462  kLast */\n      sload(0x00)\n        /* \"contracts/Pool.sol\":1447:1456  Math.sqrt */\n      tag_84\n        /* \"contracts/Pool.sol\":1447:1463  Math.sqrt(kLast) */\n      jump\t// in\n    tag_83:\n        /* \"contracts/Pool.sol\":1430:1463  uint256 shares = Math.sqrt(kLast) */\n      swap1\n      pop\n        /* \"contracts/Pool.sol\":1480:1490  ltrAddress */\n      immutable(\"0xd76482dbf35305fc91ee39a65e61582d738cabad2061a7d338ce335afa2bb483\")\n        /* \"contracts/Pool.sol\":1473:1500  IERC20(ltrAddress).transfer */\n      0xffffffffffffffffffffffffffffffffffffffff\n      and\n      0xa9059cbb\n        /* \"contracts/Pool.sol\":1501:1511  msg.sender */\n      caller\n        /* \"contracts/Pool.sol\":1513:1519  shares */\n      dup4\n        /* \"contracts/Pool.sol\":1473:1520  IERC20(ltrAddress).transfer(msg.sender, shares) */\n      mload(0x40)\n      dup4\n      0xffffffff\n      and\n      0xe0\n      shl\n      dup2\n      mstore\n      0x04\n      add\n      tag_85\n      swap3\n      swap2\n      swap1\n      tag_86\n      jump\t// in\n    tag_85:\n      0x20\n      mload(0x40)\n      dup1\n      dup4\n      sub\n      dup2\n      0x00\n      dup8\n      gas\n      call\n      iszero\n      dup1\n      iszero\n      tag_88\n      jumpi\n      returndatasize\n      0x00\n      dup1\n      returndatacopy\n      revert(0x00, returndatasize)\n    tag_88:\n      pop\n      pop\n      pop\n      pop\n      mload(0x40)\n      returndatasize\n      not(0x1f)\n      0x1f\n      dup3\n      add\n      and\n      dup3\n      add\n      dup1\n      0x40\n      mstore\n      pop\n      dup2\n      add\n      swap1\n      tag_89\n      swap2\n      swap1\n      tag_68\n      jump\t// in\n    tag_89:\n      pop\n        /* \"contracts/Pool.sol\":1530:1538  update() */\n      tag_90\n        /* \"contracts/Pool.sol\":1530:1536  update */\n      tag_91\n        /* \"contracts/Pool.sol\":1530:1538  update() */\n      jump\t// in\n    tag_90:\n        /* \"contracts/Pool.sol\":1553:1590  liquidityProvided(msg.sender, shares) */\n      0xb62268a18d99fe191ac8e62f823ab1eec698609a81b2c8de3dac902896b09da6\n        /* \"contracts/Pool.sol\":1571:1581  msg.sender */\n      caller\n        /* \"contracts/Pool.sol\":1583:1589  shares */\n      dup3\n        /* \"contracts/Pool.sol\":1553:1590  liquidityProvided(msg.sender, shares) */\n      mload(0x40)\n      tag_92\n      swap3\n      swap2\n      swap1\n      tag_86\n      jump\t// in\n    tag_92:\n      mload(0x40)\n      dup1\n      swap2\n      sub\n      swap1\n      log1\n        /* \"contracts/Pool.sol\":959:1597  {... */\n      pop\n        /* \"contracts/Pool.sol\":888:1597  function provideLiquidity(uint256 _amount0, uint256 _amount1) external {... */\n      pop\n      pop\n      jump\t// out\n        /* \"contracts/Pool.sol\":355:376  uint256 public price0 */\n    tag_36:\n      sload(0x03)\n      dup2\n      jump\t// out\n        /* \"contracts/Pool.sol\":230:265  address public immutable ltrAddress */\n    tag_39:\n      immutable(\"0xd76482dbf35305fc91ee39a65e61582d738cabad2061a7d338ce335afa2bb483\")\n      dup2\n      jump\t// out\n        /* \"contracts/Pool.sol\":193:224  address public immutable token1 */\n    tag_42:\n      immutable(\"0x8568f76a03b01e78020c34eaf7d99444bdfcfc02740b9216953e88c42652898d\")\n      dup2\n      jump\t// out\n        /* \"contracts/Pool.sol\":2543:2801  function swap(uint256 _token0, uint256 _token1) public {... */\n    tag_46:\n        /* \"contracts/Pool.sol\":2622:2623  0 */\n      0x00\n        /* \"contracts/Pool.sol\":2612:2619  _token0 */\n      dup3\n        /* \"contracts/Pool.sol\":2612:2623  _token0 > 0 */\n      gt\n        /* \"contracts/Pool.sol\":2612:2639  _token0 > 0 && _token1 == 0 */\n      dup1\n      iszero\n      tag_94\n      jumpi\n      pop\n        /* \"contracts/Pool.sol\":2638:2639  0 */\n      0x00\n        /* \"contracts/Pool.sol\":2627:2634  _token1 */\n      dup2\n        /* \"contracts/Pool.sol\":2627:2639  _token1 == 0 */\n      eq\n        /* \"contracts/Pool.sol\":2612:2639  _token0 > 0 && _token1 == 0 */\n    tag_94:\n        /* \"contracts/Pool.sol\":2608:2795  if (_token0 > 0 && _token1 == 0) {... */\n      iszero\n      tag_95\n      jumpi\n        /* \"contracts/Pool.sol\":2655:2668  get1(_token0) */\n      tag_96\n        /* \"contracts/Pool.sol\":2660:2667  _token0 */\n      dup3\n        /* \"contracts/Pool.sol\":2655:2659  get1 */\n      tag_97\n        /* \"contracts/Pool.sol\":2655:2668  get1(_token0) */\n      jump\t// in\n    tag_96:\n        /* \"contracts/Pool.sol\":2608:2795  if (_token0 > 0 && _token1 == 0) {... */\n      jump(tag_98)\n    tag_95:\n        /* \"contracts/Pool.sol\":2699:2700  0 */\n      0x00\n        /* \"contracts/Pool.sol\":2689:2696  _token1 */\n      dup2\n        /* \"contracts/Pool.sol\":2689:2700  _token1 > 0 */\n      gt\n        /* \"contracts/Pool.sol\":2689:2716  _token1 > 0 && _token0 == 0 */\n      dup1\n      iszero\n      tag_99\n      jumpi\n      pop\n        /* \"contracts/Pool.sol\":2715:2716  0 */\n      0x00\n        /* \"contracts/Pool.sol\":2704:2711  _token0 */\n      dup3\n        /* \"contracts/Pool.sol\":2704:2716  _token0 == 0 */\n      eq\n        /* \"contracts/Pool.sol\":2689:2716  _token1 > 0 && _token0 == 0 */\n    tag_99:\n        /* \"contracts/Pool.sol\":2685:2795  if (_token1 > 0 && _token0 == 0) {... */\n      iszero\n      tag_100\n      jumpi\n        /* \"contracts/Pool.sol\":2732:2745  get0(_token1) */\n      tag_101\n        /* \"contracts/Pool.sol\":2737:2744  _token1 */\n      dup2\n        /* \"contracts/Pool.sol\":2732:2736  get0 */\n      tag_102\n        /* \"contracts/Pool.sol\":2732:2745  get0(_token1) */\n      jump\t// in\n    tag_101:\n        /* \"contracts/Pool.sol\":2685:2795  if (_token1 > 0 && _token0 == 0) {... */\n      jump(tag_103)\n    tag_100:\n        /* \"contracts/Pool.sol\":2776:2784  revert() */\n      0x00\n      dup1\n      revert\n        /* \"contracts/Pool.sol\":2685:2795  if (_token1 > 0 && _token0 == 0) {... */\n    tag_103:\n        /* \"contracts/Pool.sol\":2608:2795  if (_token0 > 0 && _token1 == 0) {... */\n    tag_98:\n        /* \"contracts/Pool.sol\":2543:2801  function swap(uint256 _token0, uint256 _token1) public {... */\n      pop\n      pop\n      jump\t// out\n        /* \"@openzeppelin/contracts/utils/math/Math.sol\":6281:8487  function sqrt(uint256 a) internal pure returns (uint256) {... */\n    tag_84:\n        /* \"@openzeppelin/contracts/utils/math/Math.sol\":6329:6336  uint256 */\n      0x00\n        /* \"@openzeppelin/contracts/utils/math/Math.sol\":6357:6358  0 */\n      dup1\n        /* \"@openzeppelin/contracts/utils/math/Math.sol\":6352:6353  a */\n      dup3\n        /* \"@openzeppelin/contracts/utils/math/Math.sol\":6352:6358  a == 0 */\n      sub\n        /* \"@openzeppelin/contracts/utils/math/Math.sol\":6348:6393  if (a == 0) {... */\n      tag_105\n      jumpi\n        /* \"@openzeppelin/contracts/utils/math/Math.sol\":6381:6382  0 */\n      0x00\n        /* \"@openzeppelin/contracts/utils/math/Math.sol\":6374:6382  return 0 */\n      swap1\n      pop\n      jump(tag_104)\n        /* \"@openzeppelin/contracts/utils/math/Math.sol\":6348:6393  if (a == 0) {... */\n    tag_105:\n        /* \"@openzeppelin/contracts/utils/math/Math.sol\":7058:7072  uint256 result */\n      0x00\n        /* \"@openzeppelin/contracts/utils/math/Math.sol\":7075:7076  1 */\n      0x01\n        /* \"@openzeppelin/contracts/utils/math/Math.sol\":7058:7076  uint256 result = 1 */\n      swap1\n      pop\n        /* \"@openzeppelin/contracts/utils/math/Math.sol\":7086:7095  uint256 x */\n      0x00\n        /* \"@openzeppelin/contracts/utils/math/Math.sol\":7098:7099  a */\n      dup4\n        /* \"@openzeppelin/contracts/utils/math/Math.sol\":7086:7099  uint256 x = a */\n      swap1\n      pop\n        /* \"@openzeppelin/contracts/utils/math/Math.sol\":7124:7125  0 */\n      0x00\n        /* \"@openzeppelin/contracts/utils/math/Math.sol\":7118:7121  128 */\n      0x80\n        /* \"@openzeppelin/contracts/utils/math/Math.sol\":7113:7114  x */\n      dup3\n        /* \"@openzeppelin/contracts/utils/math/Math.sol\":7113:7121  x >> 128 */\n      swap1\n      shr\n        /* \"@openzeppelin/contracts/utils/math/Math.sol\":7113:7125  x >> 128 > 0 */\n      gt\n        /* \"@openzeppelin/contracts/utils/math/Math.sol\":7109:7188  if (x >> 128 > 0) {... */\n      iszero\n      tag_106\n      jumpi\n        /* \"@openzeppelin/contracts/utils/math/Math.sol\":7147:7150  128 */\n      0x80\n        /* \"@openzeppelin/contracts/utils/math/Math.sol\":7141:7150  x >>= 128 */\n      dup2\n      swap1\n      shr\n      swap1\n      pop\n        /* \"@openzeppelin/contracts/utils/math/Math.sol\":7175:7177  64 */\n      0x40\n        /* \"@openzeppelin/contracts/utils/math/Math.sol\":7164:7177  result <<= 64 */\n      dup3\n      swap1\n      shl\n      swap2\n      pop\n        /* \"@openzeppelin/contracts/utils/math/Math.sol\":7109:7188  if (x >> 128 > 0) {... */\n    tag_106:\n        /* \"@openzeppelin/contracts/utils/math/Math.sol\":7211:7212  0 */\n      0x00\n        /* \"@openzeppelin/contracts/utils/math/Math.sol\":7206:7208  64 */\n      0x40\n        /* \"@openzeppelin/contracts/utils/math/Math.sol\":7201:7202  x */\n      dup3\n        /* \"@openzeppelin/contracts/utils/math/Math.sol\":7201:7208  x >> 64 */\n      swap1\n      shr\n        /* \"@openzeppelin/contracts/utils/math/Math.sol\":7201:7212  x >> 64 > 0 */\n      gt\n        /* \"@openzeppelin/contracts/utils/math/Math.sol\":7197:7274  if (x >> 64 > 0) {... */\n      iszero\n      tag_107\n      jumpi\n        /* \"@openzeppelin/contracts/utils/math/Math.sol\":7234:7236  64 */\n      0x40\n        /* \"@openzeppelin/contracts/utils/math/Math.sol\":7228:7236  x >>= 64 */\n      dup2\n      swap1\n      shr\n      swap1\n      pop\n        /* \"@openzeppelin/contracts/utils/math/Math.sol\":7261:7263  32 */\n      0x20\n        /* \"@openzeppelin/contracts/utils/math/Math.sol\":7250:7263  result <<= 32 */\n      dup3\n      swap1\n      shl\n      swap2\n      pop\n        /* \"@openzeppelin/contracts/utils/math/Math.sol\":7197:7274  if (x >> 64 > 0) {... */\n    tag_107:\n        /* \"@openzeppelin/contracts/utils/math/Math.sol\":7297:7298  0 */\n      0x00\n        /* \"@openzeppelin/contracts/utils/math/Math.sol\":7292:7294  32 */\n      0x20\n        /* \"@openzeppelin/contracts/utils/math/Math.sol\":7287:7288  x */\n      dup3\n        /* \"@openzeppelin/contracts/utils/math/Math.sol\":7287:7294  x >> 32 */\n      swap1\n      shr\n        /* \"@openzeppelin/contracts/utils/math/Math.sol\":7287:7298  x >> 32 > 0 */\n      gt\n        /* \"@openzeppelin/contracts/utils/math/Math.sol\":7283:7360  if (x >> 32 > 0) {... */\n      iszero\n      tag_108\n      jumpi\n        /* \"@openzeppelin/contracts/utils/math/Math.sol\":7320:7322  32 */\n      0x20\n        /* \"@openzeppelin/contracts/utils/math/Math.sol\":7314:7322  x >>= 32 */\n      dup2\n      swap1\n      shr\n      swap1\n      pop\n        /* \"@openzeppelin/contracts/utils/math/Math.sol\":7347:7349  16 */\n      0x10\n        /* \"@openzeppelin/contracts/utils/math/Math.sol\":7336:7349  result <<= 16 */\n      dup3\n      swap1\n      shl\n      swap2\n      pop\n        /* \"@openzeppelin/contracts/utils/math/Math.sol\":7283:7360  if (x >> 32 > 0) {... */\n    tag_108:\n        /* \"@openzeppelin/contracts/utils/math/Math.sol\":7383:7384  0 */\n      0x00\n        /* \"@openzeppelin/contracts/utils/math/Math.sol\":7378:7380  16 */\n      0x10\n        /* \"@openzeppelin/contracts/utils/math/Math.sol\":7373:7374  x */\n      dup3\n        /* \"@openzeppelin/contracts/utils/math/Math.sol\":7373:7380  x >> 16 */\n      swap1\n      shr\n        /* \"@openzeppelin/contracts/utils/math/Math.sol\":7373:7384  x >> 16 > 0 */\n      gt\n        /* \"@openzeppelin/contracts/utils/math/Math.sol\":7369:7445  if (x >> 16 > 0) {... */\n      iszero\n      tag_109\n      jumpi\n        /* \"@openzeppelin/contracts/utils/math/Math.sol\":7406:7408  16 */\n      0x10\n        /* \"@openzeppelin/contracts/utils/math/Math.sol\":7400:7408  x >>= 16 */\n      dup2\n      swap1\n      shr\n      swap1\n      pop\n        /* \"@openzeppelin/contracts/utils/math/Math.sol\":7433:7434  8 */\n      0x08\n        /* \"@openzeppelin/contracts/utils/math/Math.sol\":7422:7434  result <<= 8 */\n      dup3\n      swap1\n      shl\n      swap2\n      pop\n        /* \"@openzeppelin/contracts/utils/math/Math.sol\":7369:7445  if (x >> 16 > 0) {... */\n    tag_109:\n        /* \"@openzeppelin/contracts/utils/math/Math.sol\":7467:7468  0 */\n      0x00\n        /* \"@openzeppelin/contracts/utils/math/Math.sol\":7463:7464  8 */\n      0x08\n        /* \"@openzeppelin/contracts/utils/math/Math.sol\":7458:7459  x */\n      dup3\n        /* \"@openzeppelin/contracts/utils/math/Math.sol\":7458:7464  x >> 8 */\n      swap1\n      shr\n        /* \"@openzeppelin/contracts/utils/math/Math.sol\":7458:7468  x >> 8 > 0 */\n      gt\n        /* \"@openzeppelin/contracts/utils/math/Math.sol\":7454:7528  if (x >> 8 > 0) {... */\n      iszero\n      tag_110\n      jumpi\n        /* \"@openzeppelin/contracts/utils/math/Math.sol\":7490:7491  8 */\n      0x08\n        /* \"@openzeppelin/contracts/utils/math/Math.sol\":7484:7491  x >>= 8 */\n      dup2\n      swap1\n      shr\n      swap1\n      pop\n        /* \"@openzeppelin/contracts/utils/math/Math.sol\":7516:7517  4 */\n      0x04\n        /* \"@openzeppelin/contracts/utils/math/Math.sol\":7505:7517  result <<= 4 */\n      dup3\n      swap1\n      shl\n      swap2\n      pop\n        /* \"@openzeppelin/contracts/utils/math/Math.sol\":7454:7528  if (x >> 8 > 0) {... */\n    tag_110:\n        /* \"@openzeppelin/contracts/utils/math/Math.sol\":7550:7551  0 */\n      0x00\n        /* \"@openzeppelin/contracts/utils/math/Math.sol\":7546:7547  4 */\n      0x04\n        /* \"@openzeppelin/contracts/utils/math/Math.sol\":7541:7542  x */\n      dup3\n        /* \"@openzeppelin/contracts/utils/math/Math.sol\":7541:7547  x >> 4 */\n      swap1\n      shr\n        /* \"@openzeppelin/contracts/utils/math/Math.sol\":7541:7551  x >> 4 > 0 */\n      gt\n        /* \"@openzeppelin/contracts/utils/math/Math.sol\":7537:7611  if (x >> 4 > 0) {... */\n      iszero\n      tag_111\n      jumpi\n        /* \"@openzeppelin/contracts/utils/math/Math.sol\":7573:7574  4 */\n      0x04\n        /* \"@openzeppelin/contracts/utils/math/Math.sol\":7567:7574  x >>= 4 */\n      dup2\n      swap1\n      shr\n      swap1\n      pop\n        /* \"@openzeppelin/contracts/utils/math/Math.sol\":7599:7600  2 */\n      0x02\n        /* \"@openzeppelin/contracts/utils/math/Math.sol\":7588:7600  result <<= 2 */\n      dup3\n      swap1\n      shl\n      swap2\n      pop\n        /* \"@openzeppelin/contracts/utils/math/Math.sol\":7537:7611  if (x >> 4 > 0) {... */\n    tag_111:\n        /* \"@openzeppelin/contracts/utils/math/Math.sol\":7633:7634  0 */\n      0x00\n        /* \"@openzeppelin/contracts/utils/math/Math.sol\":7629:7630  2 */\n      0x02\n        /* \"@openzeppelin/contracts/utils/math/Math.sol\":7624:7625  x */\n      dup3\n        /* \"@openzeppelin/contracts/utils/math/Math.sol\":7624:7630  x >> 2 */\n      swap1\n      shr\n        /* \"@openzeppelin/contracts/utils/math/Math.sol\":7624:7634  x >> 2 > 0 */\n      gt\n        /* \"@openzeppelin/contracts/utils/math/Math.sol\":7620:7673  if (x >> 2 > 0) {... */\n      iszero\n      tag_112\n      jumpi\n        /* \"@openzeppelin/contracts/utils/math/Math.sol\":7661:7662  1 */\n      0x01\n        /* \"@openzeppelin/contracts/utils/math/Math.sol\":7650:7662  result <<= 1 */\n      dup3\n      swap1\n      shl\n      swap2\n      pop\n        /* \"@openzeppelin/contracts/utils/math/Math.sol\":7620:7673  if (x >> 2 > 0) {... */\n    tag_112:\n        /* \"@openzeppelin/contracts/utils/math/Math.sol\":8131:8132  1 */\n      0x01\n        /* \"@openzeppelin/contracts/utils/math/Math.sol\":8120:8126  result */\n      dup3\n        /* \"@openzeppelin/contracts/utils/math/Math.sol\":8116:8117  a */\n      dup6\n        /* \"@openzeppelin/contracts/utils/math/Math.sol\":8116:8126  a / result */\n      dup2\n      tag_113\n      jumpi\n      tag_114\n      tag_115\n      jump\t// in\n    tag_114:\n    tag_113:\n      div\n        /* \"@openzeppelin/contracts/utils/math/Math.sol\":8107:8113  result */\n      dup4\n        /* \"@openzeppelin/contracts/utils/math/Math.sol\":8107:8126  result + a / result */\n      add\n        /* \"@openzeppelin/contracts/utils/math/Math.sol\":8106:8132  (result + a / result) >> 1 */\n      swap1\n      shr\n        /* \"@openzeppelin/contracts/utils/math/Math.sol\":8097:8132  result = (result + a / result) >> 1 */\n      swap2\n      pop\n        /* \"@openzeppelin/contracts/utils/math/Math.sol\":8180:8181  1 */\n      0x01\n        /* \"@openzeppelin/contracts/utils/math/Math.sol\":8169:8175  result */\n      dup3\n        /* \"@openzeppelin/contracts/utils/math/Math.sol\":8165:8166  a */\n      dup6\n        /* \"@openzeppelin/contracts/utils/math/Math.sol\":8165:8175  a / result */\n      dup2\n      tag_116\n      jumpi\n      tag_117\n      tag_115\n      jump\t// in\n    tag_117:\n    tag_116:\n      div\n        /* \"@openzeppelin/contracts/utils/math/Math.sol\":8156:8162  result */\n      dup4\n        /* \"@openzeppelin/contracts/utils/math/Math.sol\":8156:8175  result + a / result */\n      add\n        /* \"@openzeppelin/contracts/utils/math/Math.sol\":8155:8181  (result + a / result) >> 1 */\n      swap1\n      shr\n        /* \"@openzeppelin/contracts/utils/math/Math.sol\":8146:8181  result = (result + a / result) >> 1 */\n      swap2\n      pop\n        /* \"@openzeppelin/contracts/utils/math/Math.sol\":8229:8230  1 */\n      0x01\n        /* \"@openzeppelin/contracts/utils/math/Math.sol\":8218:8224  result */\n      dup3\n        /* \"@openzeppelin/contracts/utils/math/Math.sol\":8214:8215  a */\n      dup6\n        /* \"@openzeppelin/contracts/utils/math/Math.sol\":8214:8224  a / result */\n      dup2\n      tag_118\n      jumpi\n      tag_119\n      tag_115\n      jump\t// in\n    tag_119:\n    tag_118:\n      div\n        /* \"@openzeppelin/contracts/utils/math/Math.sol\":8205:8211  result */\n      dup4\n        /* \"@openzeppelin/contracts/utils/math/Math.sol\":8205:8224  result + a / result */\n      add\n        /* \"@openzeppelin/contracts/utils/math/Math.sol\":8204:8230  (result + a / result) >> 1 */\n      swap1\n      shr\n        /* \"@openzeppelin/contracts/utils/math/Math.sol\":8195:8230  result = (result + a / result) >> 1 */\n      swap2\n      pop\n        /* \"@openzeppelin/contracts/utils/math/Math.sol\":8278:8279  1 */\n      0x01\n        /* \"@openzeppelin/contracts/utils/math/Math.sol\":8267:8273  result */\n      dup3\n        /* \"@openzeppelin/contracts/utils/math/Math.sol\":8263:8264  a */\n      dup6\n        /* \"@openzeppelin/contracts/utils/math/Math.sol\":8263:8273  a / result */\n      dup2\n      tag_120\n      jumpi\n      tag_121\n      tag_115\n      jump\t// in\n    tag_121:\n    tag_120:\n      div\n        /* \"@openzeppelin/contracts/utils/math/Math.sol\":8254:8260  result */\n      dup4\n        /* \"@openzeppelin/contracts/utils/math/Math.sol\":8254:8273  result + a / result */\n      add\n        /* \"@openzeppelin/contracts/utils/math/Math.sol\":8253:8279  (result + a / result) >> 1 */\n      swap1\n      shr\n        /* \"@openzeppelin/contracts/utils/math/Math.sol\":8244:8279  result = (result + a / result) >> 1 */\n      swap2\n      pop\n        /* \"@openzeppelin/contracts/utils/math/Math.sol\":8327:8328  1 */\n      0x01\n        /* \"@openzeppelin/contracts/utils/math/Math.sol\":8316:8322  result */\n      dup3\n        /* \"@openzeppelin/contracts/utils/math/Math.sol\":8312:8313  a */\n      dup6\n        /* \"@openzeppelin/contracts/utils/math/Math.sol\":8312:8322  a / result */\n      dup2\n      tag_122\n      jumpi\n      tag_123\n      tag_115\n      jump\t// in\n    tag_123:\n    tag_122:\n      div\n        /* \"@openzeppelin/contracts/utils/math/Math.sol\":8303:8309  result */\n      dup4\n        /* \"@openzeppelin/contracts/utils/math/Math.sol\":8303:8322  result + a / result */\n      add\n        /* \"@openzeppelin/contracts/utils/math/Math.sol\":8302:8328  (result + a / result) >> 1 */\n      swap1\n      shr\n        /* \"@openzeppelin/contracts/utils/math/Math.sol\":8293:8328  result = (result + a / result) >> 1 */\n      swap2\n      pop\n        /* \"@openzeppelin/contracts/utils/math/Math.sol\":8376:8377  1 */\n      0x01\n        /* \"@openzeppelin/contracts/utils/math/Math.sol\":8365:8371  result */\n      dup3\n        /* \"@openzeppelin/contracts/utils/math/Math.sol\":8361:8362  a */\n      dup6\n        /* \"@openzeppelin/contracts/utils/math/Math.sol\":8361:8371  a / result */\n      dup2\n      tag_124\n      jumpi\n      tag_125\n      tag_115\n      jump\t// in\n    tag_125:\n    tag_124:\n      div\n        /* \"@openzeppelin/contracts/utils/math/Math.sol\":8352:8358  result */\n      dup4\n        /* \"@openzeppelin/contracts/utils/math/Math.sol\":8352:8371  result + a / result */\n      add\n        /* \"@openzeppelin/contracts/utils/math/Math.sol\":8351:8377  (result + a / result) >> 1 */\n      swap1\n      shr\n        /* \"@openzeppelin/contracts/utils/math/Math.sol\":8342:8377  result = (result + a / result) >> 1 */\n      swap2\n      pop\n        /* \"@openzeppelin/contracts/utils/math/Math.sol\":8425:8426  1 */\n      0x01\n        /* \"@openzeppelin/contracts/utils/math/Math.sol\":8414:8420  result */\n      dup3\n        /* \"@openzeppelin/contracts/utils/math/Math.sol\":8410:8411  a */\n      dup6\n        /* \"@openzeppelin/contracts/utils/math/Math.sol\":8410:8420  a / result */\n      dup2\n      tag_126\n      jumpi\n      tag_127\n      tag_115\n      jump\t// in\n    tag_127:\n    tag_126:\n      div\n        /* \"@openzeppelin/contracts/utils/math/Math.sol\":8401:8407  result */\n      dup4\n        /* \"@openzeppelin/contracts/utils/math/Math.sol\":8401:8420  result + a / result */\n      add\n        /* \"@openzeppelin/contracts/utils/math/Math.sol\":8400:8426  (result + a / result) >> 1 */\n      swap1\n      shr\n        /* \"@openzeppelin/contracts/utils/math/Math.sol\":8391:8426  result = (result + a / result) >> 1 */\n      swap2\n      pop\n        /* \"@openzeppelin/contracts/utils/math/Math.sol\":8447:8470  min(result, a / result) */\n      tag_128\n        /* \"@openzeppelin/contracts/utils/math/Math.sol\":8451:8457  result */\n      dup3\n        /* \"@openzeppelin/contracts/utils/math/Math.sol\":8463:8469  result */\n      dup4\n        /* \"@openzeppelin/contracts/utils/math/Math.sol\":8459:8460  a */\n      dup7\n        /* \"@openzeppelin/contracts/utils/math/Math.sol\":8459:8469  a / result */\n      dup2\n      tag_129\n      jumpi\n      tag_130\n      tag_115\n      jump\t// in\n    tag_130:\n    tag_129:\n      div\n        /* \"@openzeppelin/contracts/utils/math/Math.sol\":8447:8450  min */\n      tag_131\n        /* \"@openzeppelin/contracts/utils/math/Math.sol\":8447:8470  min(result, a / result) */\n      jump\t// in\n    tag_128:\n        /* \"@openzeppelin/contracts/utils/math/Math.sol\":8440:8470  return min(result, a / result) */\n      swap3\n      pop\n      pop\n      pop\n        /* \"@openzeppelin/contracts/utils/math/Math.sol\":6281:8487  function sqrt(uint256 a) internal pure returns (uint256) {... */\n    tag_104:\n      swap2\n      swap1\n      pop\n      jump\t// out\n        /* \"contracts/Pool.sol\":651:880  function update() private {... */\n    tag_91:\n        /* \"contracts/Pool.sol\":705:711  token0 */\n      immutable(\"0x7c4b9619c581b88a141b2eb4807c7231fe75a5bedaa863d4150e3dabc19d88ab\")\n        /* \"contracts/Pool.sol\":698:722  IERC20(token0).balanceOf */\n      0xffffffffffffffffffffffffffffffffffffffff\n      and\n      0x70a08231\n        /* \"contracts/Pool.sol\":731:735  this */\n      address\n        /* \"contracts/Pool.sol\":698:737  IERC20(token0).balanceOf(address(this)) */\n      mload(0x40)\n      dup3\n      0xffffffff\n      and\n      0xe0\n      shl\n      dup2\n      mstore\n      0x04\n      add\n      tag_133\n      swap2\n      swap1\n      tag_17\n      jump\t// in\n    tag_133:\n      0x20\n      mload(0x40)\n      dup1\n      dup4\n      sub\n      dup2\n      dup7\n      gas\n      staticcall\n      iszero\n      dup1\n      iszero\n      tag_135\n      jumpi\n      returndatasize\n      0x00\n      dup1\n      returndatacopy\n      revert(0x00, returndatasize)\n    tag_135:\n      pop\n      pop\n      pop\n      pop\n      mload(0x40)\n      returndatasize\n      not(0x1f)\n      0x1f\n      dup3\n      add\n      and\n      dup3\n      add\n      dup1\n      0x40\n      mstore\n      pop\n      dup2\n      add\n      swap1\n      tag_136\n      swap2\n      swap1\n      tag_53\n      jump\t// in\n    tag_136:\n        /* \"contracts/Pool.sol\":687:695  reserve0 */\n      0x01\n        /* \"contracts/Pool.sol\":687:737  reserve0 = IERC20(token0).balanceOf(address(this)) */\n      dup2\n      swap1\n      sstore\n      pop\n        /* \"contracts/Pool.sol\":765:771  token1 */\n      immutable(\"0x8568f76a03b01e78020c34eaf7d99444bdfcfc02740b9216953e88c42652898d\")\n        /* \"contracts/Pool.sol\":758:782  IERC20(token1).balanceOf */\n      0xffffffffffffffffffffffffffffffffffffffff\n      and\n      0x70a08231\n        /* \"contracts/Pool.sol\":791:795  this */\n      address\n        /* \"contracts/Pool.sol\":758:797  IERC20(token1).balanceOf(address(this)) */\n      mload(0x40)\n      dup3\n      0xffffffff\n      and\n      0xe0\n      shl\n      dup2\n      mstore\n      0x04\n      add\n      tag_137\n      swap2\n      swap1\n      tag_17\n      jump\t// in\n    tag_137:\n      0x20\n      mload(0x40)\n      dup1\n      dup4\n      sub\n      dup2\n      dup7\n      gas\n      staticcall\n      iszero\n      dup1\n      iszero\n      tag_139\n      jumpi\n      returndatasize\n      0x00\n      dup1\n      returndatacopy\n      revert(0x00, returndatasize)\n    tag_139:\n      pop\n      pop\n      pop\n      pop\n      mload(0x40)\n      returndatasize\n      not(0x1f)\n      0x1f\n      dup3\n      add\n      and\n      dup3\n      add\n      dup1\n      0x40\n      mstore\n      pop\n      dup2\n      add\n      swap1\n      tag_140\n      swap2\n      swap1\n      tag_53\n      jump\t// in\n    tag_140:\n        /* \"contracts/Pool.sol\":747:755  reserve1 */\n      0x02\n        /* \"contracts/Pool.sol\":747:797  reserve1 = IERC20(token1).balanceOf(address(this)) */\n      dup2\n      swap1\n      sstore\n      pop\n        /* \"contracts/Pool.sol\":827:835  reserve0 */\n      sload(0x01)\n        /* \"contracts/Pool.sol\":816:824  reserve1 */\n      sload(0x02)\n        /* \"contracts/Pool.sol\":816:835  reserve1 / reserve0 */\n      tag_141\n      swap2\n      swap1\n      tag_142\n      jump\t// in\n    tag_141:\n        /* \"contracts/Pool.sol\":807:813  price0 */\n      0x03\n        /* \"contracts/Pool.sol\":807:835  price0 = reserve1 / reserve0 */\n      dup2\n      swap1\n      sstore\n      pop\n        /* \"contracts/Pool.sol\":865:873  reserve1 */\n      sload(0x02)\n        /* \"contracts/Pool.sol\":854:862  reserve0 */\n      sload(0x01)\n        /* \"contracts/Pool.sol\":854:873  reserve0 / reserve1 */\n      tag_143\n      swap2\n      swap1\n      tag_142\n      jump\t// in\n    tag_143:\n        /* \"contracts/Pool.sol\":845:851  price1 */\n      0x04\n        /* \"contracts/Pool.sol\":845:873  price1 = reserve0 / reserve1 */\n      dup2\n      swap1\n      sstore\n      pop\n        /* \"contracts/Pool.sol\":651:880  function update() private {... */\n      jump\t// out\n        /* \"contracts/Pool.sol\":2073:2537  function get1(uint256 _amount0) private {... */\n    tag_97:\n        /* \"contracts/Pool.sol\":2186:2194  _amount0 */\n      dup1\n        /* \"contracts/Pool.sol\":2138:2144  token0 */\n      immutable(\"0x7c4b9619c581b88a141b2eb4807c7231fe75a5bedaa863d4150e3dabc19d88ab\")\n        /* \"contracts/Pool.sol\":2131:2155  IERC20(token0).allowance */\n      0xffffffffffffffffffffffffffffffffffffffff\n      and\n      0xdd62ed3e\n        /* \"contracts/Pool.sol\":2156:2166  msg.sender */\n      caller\n        /* \"contracts/Pool.sol\":2176:2180  this */\n      address\n        /* \"contracts/Pool.sol\":2131:2182  IERC20(token0).allowance(msg.sender, address(this)) */\n      mload(0x40)\n      dup4\n      0xffffffff\n      and\n      0xe0\n      shl\n      dup2\n      mstore\n      0x04\n      add\n      tag_145\n      swap3\n      swap2\n      swap1\n      tag_49\n      jump\t// in\n    tag_145:\n      0x20\n      mload(0x40)\n      dup1\n      dup4\n      sub\n      dup2\n      dup7\n      gas\n      staticcall\n      iszero\n      dup1\n      iszero\n      tag_147\n      jumpi\n      returndatasize\n      0x00\n      dup1\n      returndatacopy\n      revert(0x00, returndatasize)\n    tag_147:\n      pop\n      pop\n      pop\n      pop\n      mload(0x40)\n      returndatasize\n      not(0x1f)\n      0x1f\n      dup3\n      add\n      and\n      dup3\n      add\n      dup1\n      0x40\n      mstore\n      pop\n      dup2\n      add\n      swap1\n      tag_148\n      swap2\n      swap1\n      tag_53\n      jump\t// in\n    tag_148:\n        /* \"contracts/Pool.sol\":2131:2194  IERC20(token0).allowance(msg.sender, address(this)) >= _amount0 */\n      lt\n      iszero\n        /* \"contracts/Pool.sol\":2123:2220  require(IERC20(token0).allowance(msg.sender, address(this)) >= _amount0, \"Contract not approved\") */\n      tag_149\n      jumpi\n      mload(0x40)\n      0x08c379a000000000000000000000000000000000000000000000000000000000\n      dup2\n      mstore\n      0x04\n      add\n      tag_150\n      swap1\n      tag_56\n      jump\t// in\n    tag_150:\n      mload(0x40)\n      dup1\n      swap2\n      sub\n      swap1\n      revert\n    tag_149:\n        /* \"contracts/Pool.sol\":2237:2243  token0 */\n      immutable(\"0x7c4b9619c581b88a141b2eb4807c7231fe75a5bedaa863d4150e3dabc19d88ab\")\n        /* \"contracts/Pool.sol\":2230:2257  IERC20(token0).transferFrom */\n      0xffffffffffffffffffffffffffffffffffffffff\n      and\n      0x23b872dd\n        /* \"contracts/Pool.sol\":2258:2268  msg.sender */\n      caller\n        /* \"contracts/Pool.sol\":2278:2282  this */\n      address\n        /* \"contracts/Pool.sol\":2285:2293  _amount0 */\n      dup5\n        /* \"contracts/Pool.sol\":2230:2294  IERC20(token0).transferFrom(msg.sender, address(this), _amount0) */\n      mload(0x40)\n      dup5\n      0xffffffff\n      and\n      0xe0\n      shl\n      dup2\n      mstore\n      0x04\n      add\n      tag_151\n      swap4\n      swap3\n      swap2\n      swap1\n      tag_64\n      jump\t// in\n    tag_151:\n      0x20\n      mload(0x40)\n      dup1\n      dup4\n      sub\n      dup2\n      0x00\n      dup8\n      gas\n      call\n      iszero\n      dup1\n      iszero\n      tag_153\n      jumpi\n      returndatasize\n      0x00\n      dup1\n      returndatacopy\n      revert(0x00, returndatasize)\n    tag_153:\n      pop\n      pop\n      pop\n      pop\n      mload(0x40)\n      returndatasize\n      not(0x1f)\n      0x1f\n      dup3\n      add\n      and\n      dup3\n      add\n      dup1\n      0x40\n      mstore\n      pop\n      dup2\n      add\n      swap1\n      tag_154\n      swap2\n      swap1\n      tag_68\n      jump\t// in\n    tag_154:\n      pop\n        /* \"contracts/Pool.sol\":2304:2321  uint256 amountOut */\n      0x00\n        /* \"contracts/Pool.sol\":2356:2364  _amount0 */\n      dup2\n        /* \"contracts/Pool.sol\":2345:2353  reserve0 */\n      sload(0x01)\n        /* \"contracts/Pool.sol\":2345:2364  reserve0 + _amount0 */\n      tag_155\n      swap2\n      swap1\n      tag_156\n      jump\t// in\n    tag_155:\n        /* \"contracts/Pool.sol\":2336:2341  kLast */\n      sload(0x00)\n        /* \"contracts/Pool.sol\":2336:2365  kLast / (reserve0 + _amount0) */\n      tag_157\n      swap2\n      swap1\n      tag_142\n      jump\t// in\n    tag_157:\n        /* \"contracts/Pool.sol\":2324:2332  reserve1 */\n      sload(0x02)\n        /* \"contracts/Pool.sol\":2324:2366  reserve1 - (kLast / (reserve0 + _amount0)) */\n      tag_158\n      swap2\n      swap1\n      tag_159\n      jump\t// in\n    tag_158:\n        /* \"contracts/Pool.sol\":2304:2366  uint256 amountOut = reserve1 - (kLast / (reserve0 + _amount0)) */\n      swap1\n      pop\n        /* \"contracts/Pool.sol\":2393:2402  amountOut */\n      dup1\n        /* \"contracts/Pool.sol\":2381:2389  reserve1 */\n      sload(0x02)\n        /* \"contracts/Pool.sol\":2381:2402  reserve1 <= amountOut */\n      gt\n        /* \"contracts/Pool.sol\":2377:2513  if (reserve1 <= amountOut) {... */\n      tag_160\n      jumpi\n        /* \"contracts/Pool.sol\":2418:2426  revert() */\n      0x00\n      dup1\n      revert\n        /* \"contracts/Pool.sol\":2377:2513  if (reserve1 <= amountOut) {... */\n    tag_160:\n        /* \"contracts/Pool.sol\":2463:2469  token1 */\n      immutable(\"0x8568f76a03b01e78020c34eaf7d99444bdfcfc02740b9216953e88c42652898d\")\n        /* \"contracts/Pool.sol\":2456:2479  IERC20(token1).transfer */\n      0xffffffffffffffffffffffffffffffffffffffff\n      and\n      0xa9059cbb\n        /* \"contracts/Pool.sol\":2480:2490  msg.sender */\n      caller\n        /* \"contracts/Pool.sol\":2492:2501  amountOut */\n      dup4\n        /* \"contracts/Pool.sol\":2456:2502  IERC20(token1).transfer(msg.sender, amountOut) */\n      mload(0x40)\n      dup4\n      0xffffffff\n      and\n      0xe0\n      shl\n      dup2\n      mstore\n      0x04\n      add\n      tag_162\n      swap3\n      swap2\n      swap1\n      tag_86\n      jump\t// in\n    tag_162:\n      0x20\n      mload(0x40)\n      dup1\n      dup4\n      sub\n      dup2\n      0x00\n      dup8\n      gas\n      call\n      iszero\n      dup1\n      iszero\n      tag_164\n      jumpi\n      returndatasize\n      0x00\n      dup1\n      returndatacopy\n      revert(0x00, returndatasize)\n    tag_164:\n      pop\n      pop\n      pop\n      pop\n      mload(0x40)\n      returndatasize\n      not(0x1f)\n      0x1f\n      dup3\n      add\n      and\n      dup3\n      add\n      dup1\n      0x40\n      mstore\n      pop\n      dup2\n      add\n      swap1\n      tag_165\n      swap2\n      swap1\n      tag_68\n      jump\t// in\n    tag_165:\n      pop\n        /* \"contracts/Pool.sol\":2522:2530  update() */\n      tag_166\n        /* \"contracts/Pool.sol\":2522:2528  update */\n      tag_91\n        /* \"contracts/Pool.sol\":2522:2530  update() */\n      jump\t// in\n    tag_166:\n        /* \"contracts/Pool.sol\":2113:2537  {... */\n      pop\n        /* \"contracts/Pool.sol\":2073:2537  function get1(uint256 _amount0) private {... */\n      pop\n      jump\t// out\n        /* \"contracts/Pool.sol\":1603:2067  function get0(uint256 _amount1) private {... */\n    tag_102:\n        /* \"contracts/Pool.sol\":1716:1724  _amount1 */\n      dup1\n        /* \"contracts/Pool.sol\":1668:1674  token1 */\n      immutable(\"0x8568f76a03b01e78020c34eaf7d99444bdfcfc02740b9216953e88c42652898d\")\n        /* \"contracts/Pool.sol\":1661:1685  IERC20(token1).allowance */\n      0xffffffffffffffffffffffffffffffffffffffff\n      and\n      0xdd62ed3e\n        /* \"contracts/Pool.sol\":1686:1696  msg.sender */\n      caller\n        /* \"contracts/Pool.sol\":1706:1710  this */\n      address\n        /* \"contracts/Pool.sol\":1661:1712  IERC20(token1).allowance(msg.sender, address(this)) */\n      mload(0x40)\n      dup4\n      0xffffffff\n      and\n      0xe0\n      shl\n      dup2\n      mstore\n      0x04\n      add\n      tag_168\n      swap3\n      swap2\n      swap1\n      tag_49\n      jump\t// in\n    tag_168:\n      0x20\n      mload(0x40)\n      dup1\n      dup4\n      sub\n      dup2\n      dup7\n      gas\n      staticcall\n      iszero\n      dup1\n      iszero\n      tag_170\n      jumpi\n      returndatasize\n      0x00\n      dup1\n      returndatacopy\n      revert(0x00, returndatasize)\n    tag_170:\n      pop\n      pop\n      pop\n      pop\n      mload(0x40)\n      returndatasize\n      not(0x1f)\n      0x1f\n      dup3\n      add\n      and\n      dup3\n      add\n      dup1\n      0x40\n      mstore\n      pop\n      dup2\n      add\n      swap1\n      tag_171\n      swap2\n      swap1\n      tag_53\n      jump\t// in\n    tag_171:\n        /* \"contracts/Pool.sol\":1661:1724  IERC20(token1).allowance(msg.sender, address(this)) >= _amount1 */\n      lt\n      iszero\n        /* \"contracts/Pool.sol\":1653:1750  require(IERC20(token1).allowance(msg.sender, address(this)) >= _amount1, \"Contract not approved\") */\n      tag_172\n      jumpi\n      mload(0x40)\n      0x08c379a000000000000000000000000000000000000000000000000000000000\n      dup2\n      mstore\n      0x04\n      add\n      tag_173\n      swap1\n      tag_56\n      jump\t// in\n    tag_173:\n      mload(0x40)\n      dup1\n      swap2\n      sub\n      swap1\n      revert\n    tag_172:\n        /* \"contracts/Pool.sol\":1767:1773  token1 */\n      immutable(\"0x8568f76a03b01e78020c34eaf7d99444bdfcfc02740b9216953e88c42652898d\")\n        /* \"contracts/Pool.sol\":1760:1787  IERC20(token1).transferFrom */\n      0xffffffffffffffffffffffffffffffffffffffff\n      and\n      0x23b872dd\n        /* \"contracts/Pool.sol\":1788:1798  msg.sender */\n      caller\n        /* \"contracts/Pool.sol\":1808:1812  this */\n      address\n        /* \"contracts/Pool.sol\":1815:1823  _amount1 */\n      dup5\n        /* \"contracts/Pool.sol\":1760:1824  IERC20(token1).transferFrom(msg.sender, address(this), _amount1) */\n      mload(0x40)\n      dup5\n      0xffffffff\n      and\n      0xe0\n      shl\n      dup2\n      mstore\n      0x04\n      add\n      tag_174\n      swap4\n      swap3\n      swap2\n      swap1\n      tag_64\n      jump\t// in\n    tag_174:\n      0x20\n      mload(0x40)\n      dup1\n      dup4\n      sub\n      dup2\n      0x00\n      dup8\n      gas\n      call\n      iszero\n      dup1\n      iszero\n      tag_176\n      jumpi\n      returndatasize\n      0x00\n      dup1\n      returndatacopy\n      revert(0x00, returndatasize)\n    tag_176:\n      pop\n      pop\n      pop\n      pop\n      mload(0x40)\n      returndatasize\n      not(0x1f)\n      0x1f\n      dup3\n      add\n      and\n      dup3\n      add\n      dup1\n      0x40\n      mstore\n      pop\n      dup2\n      add\n      swap1\n      tag_177\n      swap2\n      swap1\n      tag_68\n      jump\t// in\n    tag_177:\n      pop\n        /* \"contracts/Pool.sol\":1834:1851  uint256 amountOut */\n      0x00\n        /* \"contracts/Pool.sol\":1886:1894  _amount1 */\n      dup2\n        /* \"contracts/Pool.sol\":1875:1883  reserve1 */\n      sload(0x02)\n        /* \"contracts/Pool.sol\":1875:1894  reserve1 + _amount1 */\n      tag_178\n      swap2\n      swap1\n      tag_156\n      jump\t// in\n    tag_178:\n        /* \"contracts/Pool.sol\":1866:1871  kLast */\n      sload(0x00)\n        /* \"contracts/Pool.sol\":1866:1895  kLast / (reserve1 + _amount1) */\n      tag_179\n      swap2\n      swap1\n      tag_142\n      jump\t// in\n    tag_179:\n        /* \"contracts/Pool.sol\":1854:1862  reserve0 */\n      sload(0x01)\n        /* \"contracts/Pool.sol\":1854:1896  reserve0 - (kLast / (reserve1 + _amount1)) */\n      tag_180\n      swap2\n      swap1\n      tag_159\n      jump\t// in\n    tag_180:\n        /* \"contracts/Pool.sol\":1834:1896  uint256 amountOut = reserve0 - (kLast / (reserve1 + _amount1)) */\n      swap1\n      pop\n        /* \"contracts/Pool.sol\":1922:1931  amountOut */\n      dup1\n        /* \"contracts/Pool.sol\":1910:1918  reserve0 */\n      sload(0x01)\n        /* \"contracts/Pool.sol\":1910:1931  reserve0 <= amountOut */\n      gt\n        /* \"contracts/Pool.sol\":1906:2042  if (reserve0 <= amountOut) {... */\n      tag_181\n      jumpi\n        /* \"contracts/Pool.sol\":1947:1955  revert() */\n      0x00\n      dup1\n      revert\n        /* \"contracts/Pool.sol\":1906:2042  if (reserve0 <= amountOut) {... */\n    tag_181:\n        /* \"contracts/Pool.sol\":1992:1998  token0 */\n      immutable(\"0x7c4b9619c581b88a141b2eb4807c7231fe75a5bedaa863d4150e3dabc19d88ab\")\n        /* \"contracts/Pool.sol\":1985:2008  IERC20(token0).transfer */\n      0xffffffffffffffffffffffffffffffffffffffff\n      and\n      0xa9059cbb\n        /* \"contracts/Pool.sol\":2009:2019  msg.sender */\n      caller\n        /* \"contracts/Pool.sol\":2021:2030  amountOut */\n      dup4\n        /* \"contracts/Pool.sol\":1985:2031  IERC20(token0).transfer(msg.sender, amountOut) */\n      mload(0x40)\n      dup4\n      0xffffffff\n      and\n      0xe0\n      shl\n      dup2\n      mstore\n      0x04\n      add\n      tag_183\n      swap3\n      swap2\n      swap1\n      tag_86\n      jump\t// in\n    tag_183:\n      0x20\n      mload(0x40)\n      dup1\n      dup4\n      sub\n      dup2\n      0x00\n      dup8\n      gas\n      call\n      iszero\n      dup1\n      iszero\n      tag_185\n      jumpi\n      returndatasize\n      0x00\n      dup1\n      returndatacopy\n      revert(0x00, returndatasize)\n    tag_185:\n      pop\n      pop\n      pop\n      pop\n      mload(0x40)\n      returndatasize\n      not(0x1f)\n      0x1f\n      dup3\n      add\n      and\n      dup3\n      add\n      dup1\n      0x40\n      mstore\n      pop\n      dup2\n      add\n      swap1\n      tag_186\n      swap2\n      swap1\n      tag_68\n      jump\t// in\n    tag_186:\n      pop\n        /* \"contracts/Pool.sol\":2052:2060  update() */\n      tag_187\n        /* \"contracts/Pool.sol\":2052:2058  update */\n      tag_91\n        /* \"contracts/Pool.sol\":2052:2060  update() */\n      jump\t// in\n    tag_187:\n        /* \"contracts/Pool.sol\":1643:2067  {... */\n      pop\n        /* \"contracts/Pool.sol\":1603:2067  function get0(uint256 _amount1) private {... */\n      pop\n      jump\t// out\n        /* \"@openzeppelin/contracts/utils/math/Math.sol\":589:693  function min(uint256 a, uint256 b) internal pure returns (uint256) {... */\n    tag_131:\n        /* \"@openzeppelin/contracts/utils/math/Math.sol\":647:654  uint256 */\n      0x00\n        /* \"@openzeppelin/contracts/utils/math/Math.sol\":677:678  b */\n      dup2\n        /* \"@openzeppelin/contracts/utils/math/Math.sol\":673:674  a */\n      dup4\n        /* \"@openzeppelin/contracts/utils/math/Math.sol\":673:678  a < b */\n      lt\n        /* \"@openzeppelin/contracts/utils/math/Math.sol\":673:686  a < b ? a : b */\n      tag_189\n      jumpi\n        /* \"@openzeppelin/contracts/utils/math/Math.sol\":685:686  b */\n      dup2\n        /* \"@openzeppelin/contracts/utils/math/Math.sol\":673:686  a < b ? a : b */\n      jump(tag_190)\n    tag_189:\n        /* \"@openzeppelin/contracts/utils/math/Math.sol\":681:682  a */\n      dup3\n        /* \"@openzeppelin/contracts/utils/math/Math.sol\":673:686  a < b ? a : b */\n    tag_190:\n        /* \"@openzeppelin/contracts/utils/math/Math.sol\":666:686  return a < b ? a : b */\n      swap1\n      pop\n        /* \"@openzeppelin/contracts/utils/math/Math.sol\":589:693  function min(uint256 a, uint256 b) internal pure returns (uint256) {... */\n      swap3\n      swap2\n      pop\n      pop\n      jump\t// out\n        /* \"#utility.yul\":7:133   */\n    tag_191:\n        /* \"#utility.yul\":44:51   */\n      0x00\n        /* \"#utility.yul\":84:126   */\n      0xffffffffffffffffffffffffffffffffffffffff\n        /* \"#utility.yul\":77:82   */\n      dup3\n        /* \"#utility.yul\":73:127   */\n      and\n        /* \"#utility.yul\":62:127   */\n      swap1\n      pop\n        /* \"#utility.yul\":7:133   */\n      swap2\n      swap1\n      pop\n      jump\t// out\n        /* \"#utility.yul\":139:235   */\n    tag_192:\n        /* \"#utility.yul\":176:183   */\n      0x00\n        /* \"#utility.yul\":205:229   */\n      tag_212\n        /* \"#utility.yul\":223:228   */\n      dup3\n        /* \"#utility.yul\":205:229   */\n      tag_191\n      jump\t// in\n    tag_212:\n        /* \"#utility.yul\":194:229   */\n      swap1\n      pop\n        /* \"#utility.yul\":139:235   */\n      swap2\n      swap1\n      pop\n      jump\t// out\n        /* \"#utility.yul\":241:359   */\n    tag_193:\n        /* \"#utility.yul\":328:352   */\n      tag_214\n        /* \"#utility.yul\":346:351   */\n      dup2\n        /* \"#utility.yul\":328:352   */\n      tag_192\n      jump\t// in\n    tag_214:\n        /* \"#utility.yul\":323:326   */\n      dup3\n        /* \"#utility.yul\":316:353   */\n      mstore\n        /* \"#utility.yul\":241:359   */\n      pop\n      pop\n      jump\t// out\n        /* \"#utility.yul\":365:587   */\n    tag_17:\n        /* \"#utility.yul\":458:462   */\n      0x00\n        /* \"#utility.yul\":496:498   */\n      0x20\n        /* \"#utility.yul\":485:494   */\n      dup3\n        /* \"#utility.yul\":481:499   */\n      add\n        /* \"#utility.yul\":473:499   */\n      swap1\n      pop\n        /* \"#utility.yul\":509:580   */\n      tag_216\n        /* \"#utility.yul\":577:578   */\n      0x00\n        /* \"#utility.yul\":566:575   */\n      dup4\n        /* \"#utility.yul\":562:579   */\n      add\n        /* \"#utility.yul\":553:559   */\n      dup5\n        /* \"#utility.yul\":509:580   */\n      tag_193\n      jump\t// in\n    tag_216:\n        /* \"#utility.yul\":365:587   */\n      swap3\n      swap2\n      pop\n      pop\n      jump\t// out\n        /* \"#utility.yul\":593:670   */\n    tag_194:\n        /* \"#utility.yul\":630:637   */\n      0x00\n        /* \"#utility.yul\":659:664   */\n      dup2\n        /* \"#utility.yul\":648:664   */\n      swap1\n      pop\n        /* \"#utility.yul\":593:670   */\n      swap2\n      swap1\n      pop\n      jump\t// out\n        /* \"#utility.yul\":676:794   */\n    tag_195:\n        /* \"#utility.yul\":763:787   */\n      tag_219\n        /* \"#utility.yul\":781:786   */\n      dup2\n        /* \"#utility.yul\":763:787   */\n      tag_194\n      jump\t// in\n    tag_219:\n        /* \"#utility.yul\":758:761   */\n      dup3\n        /* \"#utility.yul\":751:788   */\n      mstore\n        /* \"#utility.yul\":676:794   */\n      pop\n      pop\n      jump\t// out\n        /* \"#utility.yul\":800:1022   */\n    tag_21:\n        /* \"#utility.yul\":893:897   */\n      0x00\n        /* \"#utility.yul\":931:933   */\n      0x20\n        /* \"#utility.yul\":920:929   */\n      dup3\n        /* \"#utility.yul\":916:934   */\n      add\n        /* \"#utility.yul\":908:934   */\n      swap1\n      pop\n        /* \"#utility.yul\":944:1015   */\n      tag_221\n        /* \"#utility.yul\":1012:1013   */\n      0x00\n        /* \"#utility.yul\":1001:1010   */\n      dup4\n        /* \"#utility.yul\":997:1014   */\n      add\n        /* \"#utility.yul\":988:994   */\n      dup5\n        /* \"#utility.yul\":944:1015   */\n      tag_195\n      jump\t// in\n    tag_221:\n        /* \"#utility.yul\":800:1022   */\n      swap3\n      swap2\n      pop\n      pop\n      jump\t// out\n        /* \"#utility.yul\":1109:1226   */\n    tag_197:\n        /* \"#utility.yul\":1218:1219   */\n      0x00\n        /* \"#utility.yul\":1215:1216   */\n      dup1\n        /* \"#utility.yul\":1208:1220   */\n      revert\n        /* \"#utility.yul\":1355:1477   */\n    tag_199:\n        /* \"#utility.yul\":1428:1452   */\n      tag_226\n        /* \"#utility.yul\":1446:1451   */\n      dup2\n        /* \"#utility.yul\":1428:1452   */\n      tag_194\n      jump\t// in\n    tag_226:\n        /* \"#utility.yul\":1421:1426   */\n      dup2\n        /* \"#utility.yul\":1418:1453   */\n      eq\n        /* \"#utility.yul\":1408:1471   */\n      tag_227\n      jumpi\n        /* \"#utility.yul\":1467:1468   */\n      0x00\n        /* \"#utility.yul\":1464:1465   */\n      dup1\n        /* \"#utility.yul\":1457:1469   */\n      revert\n        /* \"#utility.yul\":1408:1471   */\n    tag_227:\n        /* \"#utility.yul\":1355:1477   */\n      pop\n      jump\t// out\n        /* \"#utility.yul\":1483:1622   */\n    tag_200:\n        /* \"#utility.yul\":1529:1534   */\n      0x00\n        /* \"#utility.yul\":1567:1573   */\n      dup2\n        /* \"#utility.yul\":1554:1574   */\n      calldataload\n        /* \"#utility.yul\":1545:1574   */\n      swap1\n      pop\n        /* \"#utility.yul\":1583:1616   */\n      tag_229\n        /* \"#utility.yul\":1610:1615   */\n      dup2\n        /* \"#utility.yul\":1583:1616   */\n      tag_199\n      jump\t// in\n    tag_229:\n        /* \"#utility.yul\":1483:1622   */\n      swap3\n      swap2\n      pop\n      pop\n      jump\t// out\n        /* \"#utility.yul\":1628:2102   */\n    tag_33:\n        /* \"#utility.yul\":1696:1702   */\n      0x00\n        /* \"#utility.yul\":1704:1710   */\n      dup1\n        /* \"#utility.yul\":1753:1755   */\n      0x40\n        /* \"#utility.yul\":1741:1750   */\n      dup4\n        /* \"#utility.yul\":1732:1739   */\n      dup6\n        /* \"#utility.yul\":1728:1751   */\n      sub\n        /* \"#utility.yul\":1724:1756   */\n      slt\n        /* \"#utility.yul\":1721:1840   */\n      iszero\n      tag_231\n      jumpi\n        /* \"#utility.yul\":1759:1838   */\n      tag_232\n      tag_197\n      jump\t// in\n    tag_232:\n        /* \"#utility.yul\":1721:1840   */\n    tag_231:\n        /* \"#utility.yul\":1879:1880   */\n      0x00\n        /* \"#utility.yul\":1904:1957   */\n      tag_233\n        /* \"#utility.yul\":1949:1956   */\n      dup6\n        /* \"#utility.yul\":1940:1946   */\n      dup3\n        /* \"#utility.yul\":1929:1938   */\n      dup7\n        /* \"#utility.yul\":1925:1947   */\n      add\n        /* \"#utility.yul\":1904:1957   */\n      tag_200\n      jump\t// in\n    tag_233:\n        /* \"#utility.yul\":1894:1957   */\n      swap3\n      pop\n        /* \"#utility.yul\":1850:1967   */\n      pop\n        /* \"#utility.yul\":2006:2008   */\n      0x20\n        /* \"#utility.yul\":2032:2085   */\n      tag_234\n        /* \"#utility.yul\":2077:2084   */\n      dup6\n        /* \"#utility.yul\":2068:2074   */\n      dup3\n        /* \"#utility.yul\":2057:2066   */\n      dup7\n        /* \"#utility.yul\":2053:2075   */\n      add\n        /* \"#utility.yul\":2032:2085   */\n      tag_200\n      jump\t// in\n    tag_234:\n        /* \"#utility.yul\":2022:2085   */\n      swap2\n      pop\n        /* \"#utility.yul\":1977:2095   */\n      pop\n        /* \"#utility.yul\":1628:2102   */\n      swap3\n      pop\n      swap3\n      swap1\n      pop\n      jump\t// out\n        /* \"#utility.yul\":2108:2440   */\n    tag_49:\n        /* \"#utility.yul\":2229:2233   */\n      0x00\n        /* \"#utility.yul\":2267:2269   */\n      0x40\n        /* \"#utility.yul\":2256:2265   */\n      dup3\n        /* \"#utility.yul\":2252:2270   */\n      add\n        /* \"#utility.yul\":2244:2270   */\n      swap1\n      pop\n        /* \"#utility.yul\":2280:2351   */\n      tag_236\n        /* \"#utility.yul\":2348:2349   */\n      0x00\n        /* \"#utility.yul\":2337:2346   */\n      dup4\n        /* \"#utility.yul\":2333:2350   */\n      add\n        /* \"#utility.yul\":2324:2330   */\n      dup6\n        /* \"#utility.yul\":2280:2351   */\n      tag_193\n      jump\t// in\n    tag_236:\n        /* \"#utility.yul\":2361:2433   */\n      tag_237\n        /* \"#utility.yul\":2429:2431   */\n      0x20\n        /* \"#utility.yul\":2418:2427   */\n      dup4\n        /* \"#utility.yul\":2414:2432   */\n      add\n        /* \"#utility.yul\":2405:2411   */\n      dup5\n        /* \"#utility.yul\":2361:2433   */\n      tag_193\n      jump\t// in\n    tag_237:\n        /* \"#utility.yul\":2108:2440   */\n      swap4\n      swap3\n      pop\n      pop\n      pop\n      jump\t// out\n        /* \"#utility.yul\":2446:2589   */\n    tag_201:\n        /* \"#utility.yul\":2503:2508   */\n      0x00\n        /* \"#utility.yul\":2534:2540   */\n      dup2\n        /* \"#utility.yul\":2528:2541   */\n      mload\n        /* \"#utility.yul\":2519:2541   */\n      swap1\n      pop\n        /* \"#utility.yul\":2550:2583   */\n      tag_239\n        /* \"#utility.yul\":2577:2582   */\n      dup2\n        /* \"#utility.yul\":2550:2583   */\n      tag_199\n      jump\t// in\n    tag_239:\n        /* \"#utility.yul\":2446:2589   */\n      swap3\n      swap2\n      pop\n      pop\n      jump\t// out\n        /* \"#utility.yul\":2595:2946   */\n    tag_53:\n        /* \"#utility.yul\":2665:2671   */\n      0x00\n        /* \"#utility.yul\":2714:2716   */\n      0x20\n        /* \"#utility.yul\":2702:2711   */\n      dup3\n        /* \"#utility.yul\":2693:2700   */\n      dup5\n        /* \"#utility.yul\":2689:2712   */\n      sub\n        /* \"#utility.yul\":2685:2717   */\n      slt\n        /* \"#utility.yul\":2682:2801   */\n      iszero\n      tag_241\n      jumpi\n        /* \"#utility.yul\":2720:2799   */\n      tag_242\n      tag_197\n      jump\t// in\n    tag_242:\n        /* \"#utility.yul\":2682:2801   */\n    tag_241:\n        /* \"#utility.yul\":2840:2841   */\n      0x00\n        /* \"#utility.yul\":2865:2929   */\n      tag_243\n        /* \"#utility.yul\":2921:2928   */\n      dup5\n        /* \"#utility.yul\":2912:2918   */\n      dup3\n        /* \"#utility.yul\":2901:2910   */\n      dup6\n        /* \"#utility.yul\":2897:2919   */\n      add\n        /* \"#utility.yul\":2865:2929   */\n      tag_201\n      jump\t// in\n    tag_243:\n        /* \"#utility.yul\":2855:2929   */\n      swap2\n      pop\n        /* \"#utility.yul\":2811:2939   */\n      pop\n        /* \"#utility.yul\":2595:2946   */\n      swap3\n      swap2\n      pop\n      pop\n      jump\t// out\n        /* \"#utility.yul\":2952:3121   */\n    tag_202:\n        /* \"#utility.yul\":3036:3047   */\n      0x00\n        /* \"#utility.yul\":3070:3076   */\n      dup3\n        /* \"#utility.yul\":3065:3068   */\n      dup3\n        /* \"#utility.yul\":3058:3077   */\n      mstore\n        /* \"#utility.yul\":3110:3114   */\n      0x20\n        /* \"#utility.yul\":3105:3108   */\n      dup3\n        /* \"#utility.yul\":3101:3115   */\n      add\n        /* \"#utility.yul\":3086:3115   */\n      swap1\n      pop\n        /* \"#utility.yul\":2952:3121   */\n      swap3\n      swap2\n      pop\n      pop\n      jump\t// out\n        /* \"#utility.yul\":3127:3298   */\n    tag_203:\n        /* \"#utility.yul\":3267:3290   */\n      0x436f6e7472616374206e6f7420617070726f7665640000000000000000000000\n        /* \"#utility.yul\":3263:3264   */\n      0x00\n        /* \"#utility.yul\":3255:3261   */\n      dup3\n        /* \"#utility.yul\":3251:3265   */\n      add\n        /* \"#utility.yul\":3244:3291   */\n      mstore\n        /* \"#utility.yul\":3127:3298   */\n      pop\n      jump\t// out\n        /* \"#utility.yul\":3304:3670   */\n    tag_204:\n        /* \"#utility.yul\":3446:3449   */\n      0x00\n        /* \"#utility.yul\":3467:3534   */\n      tag_247\n        /* \"#utility.yul\":3531:3533   */\n      0x15\n        /* \"#utility.yul\":3526:3529   */\n      dup4\n        /* \"#utility.yul\":3467:3534   */\n      tag_202\n      jump\t// in\n    tag_247:\n        /* \"#utility.yul\":3460:3534   */\n      swap2\n      pop\n        /* \"#utility.yul\":3543:3636   */\n      tag_248\n        /* \"#utility.yul\":3632:3635   */\n      dup3\n        /* \"#utility.yul\":3543:3636   */\n      tag_203\n      jump\t// in\n    tag_248:\n        /* \"#utility.yul\":3661:3663   */\n      0x20\n        /* \"#utility.yul\":3656:3659   */\n      dup3\n        /* \"#utility.yul\":3652:3664   */\n      add\n        /* \"#utility.yul\":3645:3664   */\n      swap1\n      pop\n        /* \"#utility.yul\":3304:3670   */\n      swap2\n      swap1\n      pop\n      jump\t// out\n        /* \"#utility.yul\":3676:4095   */\n    tag_56:\n        /* \"#utility.yul\":3842:3846   */\n      0x00\n        /* \"#utility.yul\":3880:3882   */\n      0x20\n        /* \"#utility.yul\":3869:3878   */\n      dup3\n        /* \"#utility.yul\":3865:3883   */\n      add\n        /* \"#utility.yul\":3857:3883   */\n      swap1\n      pop\n        /* \"#utility.yul\":3929:3938   */\n      dup2\n        /* \"#utility.yul\":3923:3927   */\n      dup2\n        /* \"#utility.yul\":3919:3939   */\n      sub\n        /* \"#utility.yul\":3915:3916   */\n      0x00\n        /* \"#utility.yul\":3904:3913   */\n      dup4\n        /* \"#utility.yul\":3900:3917   */\n      add\n        /* \"#utility.yul\":3893:3940   */\n      mstore\n        /* \"#utility.yul\":3957:4088   */\n      tag_250\n        /* \"#utility.yul\":4083:4087   */\n      dup2\n        /* \"#utility.yul\":3957:4088   */\n      tag_204\n      jump\t// in\n    tag_250:\n        /* \"#utility.yul\":3949:4088   */\n      swap1\n      pop\n        /* \"#utility.yul\":3676:4095   */\n      swap2\n      swap1\n      pop\n      jump\t// out\n        /* \"#utility.yul\":4101:4543   */\n    tag_64:\n        /* \"#utility.yul\":4250:4254   */\n      0x00\n        /* \"#utility.yul\":4288:4290   */\n      0x60\n        /* \"#utility.yul\":4277:4286   */\n      dup3\n        /* \"#utility.yul\":4273:4291   */\n      add\n        /* \"#utility.yul\":4265:4291   */\n      swap1\n      pop\n        /* \"#utility.yul\":4301:4372   */\n      tag_252\n        /* \"#utility.yul\":4369:4370   */\n      0x00\n        /* \"#utility.yul\":4358:4367   */\n      dup4\n        /* \"#utility.yul\":4354:4371   */\n      add\n        /* \"#utility.yul\":4345:4351   */\n      dup7\n        /* \"#utility.yul\":4301:4372   */\n      tag_193\n      jump\t// in\n    tag_252:\n        /* \"#utility.yul\":4382:4454   */\n      tag_253\n        /* \"#utility.yul\":4450:4452   */\n      0x20\n        /* \"#utility.yul\":4439:4448   */\n      dup4\n        /* \"#utility.yul\":4435:4453   */\n      add\n        /* \"#utility.yul\":4426:4432   */\n      dup6\n        /* \"#utility.yul\":4382:4454   */\n      tag_193\n      jump\t// in\n    tag_253:\n        /* \"#utility.yul\":4464:4536   */\n      tag_254\n        /* \"#utility.yul\":4532:4534   */\n      0x40\n        /* \"#utility.yul\":4521:4530   */\n      dup4\n        /* \"#utility.yul\":4517:4535   */\n      add\n        /* \"#utility.yul\":4508:4514   */\n      dup5\n        /* \"#utility.yul\":4464:4536   */\n      tag_195\n      jump\t// in\n    tag_254:\n        /* \"#utility.yul\":4101:4543   */\n      swap5\n      swap4\n      pop\n      pop\n      pop\n      pop\n      jump\t// out\n        /* \"#utility.yul\":4549:4639   */\n    tag_205:\n        /* \"#utility.yul\":4583:4590   */\n      0x00\n        /* \"#utility.yul\":4626:4631   */\n      dup2\n        /* \"#utility.yul\":4619:4632   */\n      iszero\n        /* \"#utility.yul\":4612:4633   */\n      iszero\n        /* \"#utility.yul\":4601:4633   */\n      swap1\n      pop\n        /* \"#utility.yul\":4549:4639   */\n      swap2\n      swap1\n      pop\n      jump\t// out\n        /* \"#utility.yul\":4645:4761   */\n    tag_206:\n        /* \"#utility.yul\":4715:4736   */\n      tag_257\n        /* \"#utility.yul\":4730:4735   */\n      dup2\n        /* \"#utility.yul\":4715:4736   */\n      tag_205\n      jump\t// in\n    tag_257:\n        /* \"#utility.yul\":4708:4713   */\n      dup2\n        /* \"#utility.yul\":4705:4737   */\n      eq\n        /* \"#utility.yul\":4695:4755   */\n      tag_258\n      jumpi\n        /* \"#utility.yul\":4751:4752   */\n      0x00\n        /* \"#utility.yul\":4748:4749   */\n      dup1\n        /* \"#utility.yul\":4741:4753   */\n      revert\n        /* \"#utility.yul\":4695:4755   */\n    tag_258:\n        /* \"#utility.yul\":4645:4761   */\n      pop\n      jump\t// out\n        /* \"#utility.yul\":4767:4904   */\n    tag_207:\n        /* \"#utility.yul\":4821:4826   */\n      0x00\n        /* \"#utility.yul\":4852:4858   */\n      dup2\n        /* \"#utility.yul\":4846:4859   */\n      mload\n        /* \"#utility.yul\":4837:4859   */\n      swap1\n      pop\n        /* \"#utility.yul\":4868:4898   */\n      tag_260\n        /* \"#utility.yul\":4892:4897   */\n      dup2\n        /* \"#utility.yul\":4868:4898   */\n      tag_206\n      jump\t// in\n    tag_260:\n        /* \"#utility.yul\":4767:4904   */\n      swap3\n      swap2\n      pop\n      pop\n      jump\t// out\n        /* \"#utility.yul\":4910:5255   */\n    tag_68:\n        /* \"#utility.yul\":4977:4983   */\n      0x00\n        /* \"#utility.yul\":5026:5028   */\n      0x20\n        /* \"#utility.yul\":5014:5023   */\n      dup3\n        /* \"#utility.yul\":5005:5012   */\n      dup5\n        /* \"#utility.yul\":5001:5024   */\n      sub\n        /* \"#utility.yul\":4997:5029   */\n      slt\n        /* \"#utility.yul\":4994:5113   */\n      iszero\n      tag_262\n      jumpi\n        /* \"#utility.yul\":5032:5111   */\n      tag_263\n      tag_197\n      jump\t// in\n    tag_263:\n        /* \"#utility.yul\":4994:5113   */\n    tag_262:\n        /* \"#utility.yul\":5152:5153   */\n      0x00\n        /* \"#utility.yul\":5177:5238   */\n      tag_264\n        /* \"#utility.yul\":5230:5237   */\n      dup5\n        /* \"#utility.yul\":5221:5227   */\n      dup3\n        /* \"#utility.yul\":5210:5219   */\n      dup6\n        /* \"#utility.yul\":5206:5228   */\n      add\n        /* \"#utility.yul\":5177:5238   */\n      tag_207\n      jump\t// in\n    tag_264:\n        /* \"#utility.yul\":5167:5238   */\n      swap2\n      pop\n        /* \"#utility.yul\":5123:5248   */\n      pop\n        /* \"#utility.yul\":4910:5255   */\n      swap3\n      swap2\n      pop\n      pop\n      jump\t// out\n        /* \"#utility.yul\":5261:5441   */\n    tag_208:\n        /* \"#utility.yul\":5309:5386   */\n      0x4e487b7100000000000000000000000000000000000000000000000000000000\n        /* \"#utility.yul\":5306:5307   */\n      0x00\n        /* \"#utility.yul\":5299:5387   */\n      mstore\n        /* \"#utility.yul\":5406:5410   */\n      0x11\n        /* \"#utility.yul\":5403:5404   */\n      0x04\n        /* \"#utility.yul\":5396:5411   */\n      mstore\n        /* \"#utility.yul\":5430:5434   */\n      0x24\n        /* \"#utility.yul\":5427:5428   */\n      0x00\n        /* \"#utility.yul\":5420:5435   */\n      revert\n        /* \"#utility.yul\":5447:5857   */\n    tag_82:\n        /* \"#utility.yul\":5487:5494   */\n      0x00\n        /* \"#utility.yul\":5510:5530   */\n      tag_267\n        /* \"#utility.yul\":5528:5529   */\n      dup3\n        /* \"#utility.yul\":5510:5530   */\n      tag_194\n      jump\t// in\n    tag_267:\n        /* \"#utility.yul\":5505:5530   */\n      swap2\n      pop\n        /* \"#utility.yul\":5544:5564   */\n      tag_268\n        /* \"#utility.yul\":5562:5563   */\n      dup4\n        /* \"#utility.yul\":5544:5564   */\n      tag_194\n      jump\t// in\n    tag_268:\n        /* \"#utility.yul\":5539:5564   */\n      swap3\n      pop\n        /* \"#utility.yul\":5599:5600   */\n      dup3\n        /* \"#utility.yul\":5596:5597   */\n      dup3\n        /* \"#utility.yul\":5592:5601   */\n      mul\n        /* \"#utility.yul\":5621:5651   */\n      tag_269\n        /* \"#utility.yul\":5639:5650   */\n      dup2\n        /* \"#utility.yul\":5621:5651   */\n      tag_194\n      jump\t// in\n    tag_269:\n        /* \"#utility.yul\":5610:5651   */\n      swap2\n      pop\n        /* \"#utility.yul\":5800:5801   */\n      dup3\n        /* \"#utility.yul\":5791:5798   */\n      dup3\n        /* \"#utility.yul\":5787:5802   */\n      div\n        /* \"#utility.yul\":5784:5785   */\n      dup5\n        /* \"#utility.yul\":5781:5803   */\n      eq\n        /* \"#utility.yul\":5761:5762   */\n      dup4\n        /* \"#utility.yul\":5754:5763   */\n      iszero\n        /* \"#utility.yul\":5734:5817   */\n      or\n        /* \"#utility.yul\":5711:5850   */\n      tag_270\n      jumpi\n        /* \"#utility.yul\":5830:5848   */\n      tag_271\n      tag_208\n      jump\t// in\n    tag_271:\n        /* \"#utility.yul\":5711:5850   */\n    tag_270:\n        /* \"#utility.yul\":5495:5857   */\n      pop\n        /* \"#utility.yul\":5447:5857   */\n      swap3\n      swap2\n      pop\n      pop\n      jump\t// out\n        /* \"#utility.yul\":5863:6195   */\n    tag_86:\n        /* \"#utility.yul\":5984:5988   */\n      0x00\n        /* \"#utility.yul\":6022:6024   */\n      0x40\n        /* \"#utility.yul\":6011:6020   */\n      dup3\n        /* \"#utility.yul\":6007:6025   */\n      add\n        /* \"#utility.yul\":5999:6025   */\n      swap1\n      pop\n        /* \"#utility.yul\":6035:6106   */\n      tag_273\n        /* \"#utility.yul\":6103:6104   */\n      0x00\n        /* \"#utility.yul\":6092:6101   */\n      dup4\n        /* \"#utility.yul\":6088:6105   */\n      add\n        /* \"#utility.yul\":6079:6085   */\n      dup6\n        /* \"#utility.yul\":6035:6106   */\n      tag_193\n      jump\t// in\n    tag_273:\n        /* \"#utility.yul\":6116:6188   */\n      tag_274\n        /* \"#utility.yul\":6184:6186   */\n      0x20\n        /* \"#utility.yul\":6173:6182   */\n      dup4\n        /* \"#utility.yul\":6169:6187   */\n      add\n        /* \"#utility.yul\":6160:6166   */\n      dup5\n        /* \"#utility.yul\":6116:6188   */\n      tag_195\n      jump\t// in\n    tag_274:\n        /* \"#utility.yul\":5863:6195   */\n      swap4\n      swap3\n      pop\n      pop\n      pop\n      jump\t// out\n        /* \"#utility.yul\":6201:6381   */\n    tag_115:\n        /* \"#utility.yul\":6249:6326   */\n      0x4e487b7100000000000000000000000000000000000000000000000000000000\n        /* \"#utility.yul\":6246:6247   */\n      0x00\n        /* \"#utility.yul\":6239:6327   */\n      mstore\n        /* \"#utility.yul\":6346:6350   */\n      0x12\n        /* \"#utility.yul\":6343:6344   */\n      0x04\n        /* \"#utility.yul\":6336:6351   */\n      mstore\n        /* \"#utility.yul\":6370:6374   */\n      0x24\n        /* \"#utility.yul\":6367:6368   */\n      0x00\n        /* \"#utility.yul\":6360:6375   */\n      revert\n        /* \"#utility.yul\":6387:6572   */\n    tag_142:\n        /* \"#utility.yul\":6427:6428   */\n      0x00\n        /* \"#utility.yul\":6444:6464   */\n      tag_277\n        /* \"#utility.yul\":6462:6463   */\n      dup3\n        /* \"#utility.yul\":6444:6464   */\n      tag_194\n      jump\t// in\n    tag_277:\n        /* \"#utility.yul\":6439:6464   */\n      swap2\n      pop\n        /* \"#utility.yul\":6478:6498   */\n      tag_278\n        /* \"#utility.yul\":6496:6497   */\n      dup4\n        /* \"#utility.yul\":6478:6498   */\n      tag_194\n      jump\t// in\n    tag_278:\n        /* \"#utility.yul\":6473:6498   */\n      swap3\n      pop\n        /* \"#utility.yul\":6517:6518   */\n      dup3\n        /* \"#utility.yul\":6507:6542   */\n      tag_279\n      jumpi\n        /* \"#utility.yul\":6522:6540   */\n      tag_280\n      tag_115\n      jump\t// in\n    tag_280:\n        /* \"#utility.yul\":6507:6542   */\n    tag_279:\n        /* \"#utility.yul\":6564:6565   */\n      dup3\n        /* \"#utility.yul\":6561:6562   */\n      dup3\n        /* \"#utility.yul\":6557:6566   */\n      div\n        /* \"#utility.yul\":6552:6566   */\n      swap1\n      pop\n        /* \"#utility.yul\":6387:6572   */\n      swap3\n      swap2\n      pop\n      pop\n      jump\t// out\n        /* \"#utility.yul\":6578:6769   */\n    tag_156:\n        /* \"#utility.yul\":6618:6621   */\n      0x00\n        /* \"#utility.yul\":6637:6657   */\n      tag_282\n        /* \"#utility.yul\":6655:6656   */\n      dup3\n        /* \"#utility.yul\":6637:6657   */\n      tag_194\n      jump\t// in\n    tag_282:\n        /* \"#utility.yul\":6632:6657   */\n      swap2\n      pop\n        /* \"#utility.yul\":6671:6691   */\n      tag_283\n        /* \"#utility.yul\":6689:6690   */\n      dup4\n        /* \"#utility.yul\":6671:6691   */\n      tag_194\n      jump\t// in\n    tag_283:\n        /* \"#utility.yul\":6666:6691   */\n      swap3\n      pop\n        /* \"#utility.yul\":6714:6715   */\n      dup3\n        /* \"#utility.yul\":6711:6712   */\n      dup3\n        /* \"#utility.yul\":6707:6716   */\n      add\n        /* \"#utility.yul\":6700:6716   */\n      swap1\n      pop\n        /* \"#utility.yul\":6735:6738   */\n      dup1\n        /* \"#utility.yul\":6732:6733   */\n      dup3\n        /* \"#utility.yul\":6729:6739   */\n      gt\n        /* \"#utility.yul\":6726:6762   */\n      iszero\n      tag_284\n      jumpi\n        /* \"#utility.yul\":6742:6760   */\n      tag_285\n      tag_208\n      jump\t// in\n    tag_285:\n        /* \"#utility.yul\":6726:6762   */\n    tag_284:\n        /* \"#utility.yul\":6578:6769   */\n      swap3\n      swap2\n      pop\n      pop\n      jump\t// out\n        /* \"#utility.yul\":6775:6969   */\n    tag_159:\n        /* \"#utility.yul\":6815:6819   */\n      0x00\n        /* \"#utility.yul\":6835:6855   */\n      tag_287\n        /* \"#utility.yul\":6853:6854   */\n      dup3\n        /* \"#utility.yul\":6835:6855   */\n      tag_194\n      jump\t// in\n    tag_287:\n        /* \"#utility.yul\":6830:6855   */\n      swap2\n      pop\n        /* \"#utility.yul\":6869:6889   */\n      tag_288\n        /* \"#utility.yul\":6887:6888   */\n      dup4\n        /* \"#utility.yul\":6869:6889   */\n      tag_194\n      jump\t// in\n    tag_288:\n        /* \"#utility.yul\":6864:6889   */\n      swap3\n      pop\n        /* \"#utility.yul\":6913:6914   */\n      dup3\n        /* \"#utility.yul\":6910:6911   */\n      dup3\n        /* \"#utility.yul\":6906:6915   */\n      sub\n        /* \"#utility.yul\":6898:6915   */\n      swap1\n      pop\n        /* \"#utility.yul\":6937:6938   */\n      dup2\n        /* \"#utility.yul\":6931:6935   */\n      dup2\n        /* \"#utility.yul\":6928:6939   */\n      gt\n        /* \"#utility.yul\":6925:6962   */\n      iszero\n      tag_289\n      jumpi\n        /* \"#utility.yul\":6942:6960   */\n      tag_290\n      tag_208\n      jump\t// in\n    tag_290:\n        /* \"#utility.yul\":6925:6962   */\n    tag_289:\n        /* \"#utility.yul\":6775:6969   */\n      swap3\n      swap2\n      pop\n      pop\n      jump\t// out\n\n    auxdata: 0xa2646970667358221220d6ee31a03c86deb0bc37c4d82b8a37626f5548a524bd02cdb1019a88e76776bb64736f6c63430008110033\n}\n",
				"bytecode": {
					"linkReferences": {},
					"object": "60e06040523480156200001157600080fd5b506040516200162f3803806200162f833981810160405281019062000037919062000146565b8273ffffffffffffffffffffffffffffffffffffffff1660808173ffffffffffffffffffffffffffffffffffffffff16815250508173ffffffffffffffffffffffffffffffffffffffff1660a08173ffffffffffffffffffffffffffffffffffffffff16815250508073ffffffffffffffffffffffffffffffffffffffff1660c08173ffffffffffffffffffffffffffffffffffffffff1681525050505050620001a2565b600080fd5b600073ffffffffffffffffffffffffffffffffffffffff82169050919050565b60006200010e82620000e1565b9050919050565b620001208162000101565b81146200012c57600080fd5b50565b600081519050620001408162000115565b92915050565b600080600060608486031215620001625762000161620000dc565b5b600062000172868287016200012f565b935050602062000185868287016200012f565b925050604062000198868287016200012f565b9150509250925092565b60805160a05160c0516113f46200023b6000396000818161065a01526107450152600081816102e801528181610466015281816105070152818161076901528181610a2a01528181610cb101528181610d5d0152610e3a0152600081816101cd0152818161020a015281816103c5015281816105a10152818161098a01528181610af901528181610bd60152610f1501526113f46000f3fe608060405234801561001057600080fd5b506004361061009e5760003560e01c80637a16af7f116100665780637a16af7f14610139578063a0a986f114610155578063ba9c684514610173578063d21220a714610191578063d96073cf146101af5761009e565b80630dfe1681146100a3578063443cb4bc146100c15780635a76f25e146100df5780636caf25ce146100fd5780637464fc3d1461011b575b600080fd5b6100ab6101cb565b6040516100b89190611018565b60405180910390f35b6100c96101ef565b6040516100d6919061104c565b60405180910390f35b6100e76101f5565b6040516100f4919061104c565b60405180910390f35b6101056101fb565b604051610112919061104c565b60405180910390f35b610123610201565b604051610130919061104c565b60405180910390f35b610153600480360381019061014e9190611098565b610207565b005b61015d61073d565b60405161016a919061104c565b60405180910390f35b61017b610743565b6040516101889190611018565b60405180910390f35b610199610767565b6040516101a69190611018565b60405180910390f35b6101c960048036038101906101c49190611098565b61078b565b005b7f000000000000000000000000000000000000000000000000000000000000000081565b60015481565b60025481565b60045481565b60005481565b817f000000000000000000000000000000000000000000000000000000000000000073ffffffffffffffffffffffffffffffffffffffff1663dd62ed3e33306040518363ffffffff1660e01b81526004016102639291906110d8565b602060405180830381865afa158015610280573d6000803e3d6000fd5b505050506040513d601f19601f820116820180604052508101906102a49190611116565b10156102e5576040517f08c379a00000000000000000000000000000000000000000000000000000000081526004016102dc906111a0565b60405180910390fd5b807f000000000000000000000000000000000000000000000000000000000000000073ffffffffffffffffffffffffffffffffffffffff1663dd62ed3e33306040518363ffffffff1660e01b81526004016103419291906110d8565b602060405180830381865afa15801561035e573d6000803e3d6000fd5b505050506040513d601f19601f820116820180604052508101906103829190611116565b10156103c3576040517f08c379a00000000000000000000000000000000000000000000000000000000081526004016103ba906111a0565b60405180910390fd5b7f000000000000000000000000000000000000000000000000000000000000000073ffffffffffffffffffffffffffffffffffffffff166323b872dd3330856040518463ffffffff1660e01b8152600401610420939291906111c0565b6020604051808303816000875af115801561043f573d6000803e3d6000fd5b505050506040513d601f19601f82011682018060405250810190610463919061122f565b507f000000000000000000000000000000000000000000000000000000000000000073ffffffffffffffffffffffffffffffffffffffff166323b872dd3330846040518463ffffffff1660e01b81526004016104c1939291906111c0565b6020604051808303816000875af11580156104e0573d6000803e3d6000fd5b505050506040513d601f19601f82011682018060405250810190610504919061122f565b507f000000000000000000000000000000000000000000000000000000000000000073ffffffffffffffffffffffffffffffffffffffff166370a08231306040518263ffffffff1660e01b815260040161055e9190611018565b602060405180830381865afa15801561057b573d6000803e3d6000fd5b505050506040513d601f19601f8201168201806040525081019061059f9190611116565b7f000000000000000000000000000000000000000000000000000000000000000073ffffffffffffffffffffffffffffffffffffffff166370a08231306040518263ffffffff1660e01b81526004016105f89190611018565b602060405180830381865afa158015610615573d6000803e3d6000fd5b505050506040513d601f19601f820116820180604052508101906106399190611116565b610643919061128b565b60008190555060006106566000546107db565b90507f000000000000000000000000000000000000000000000000000000000000000073ffffffffffffffffffffffffffffffffffffffff1663a9059cbb33836040518363ffffffff1660e01b81526004016106b39291906112cd565b6020604051808303816000875af11580156106d2573d6000803e3d6000fd5b505050506040513d601f19601f820116820180604052508101906106f6919061122f565b506106ff610988565b7fb62268a18d99fe191ac8e62f823ab1eec698609a81b2c8de3dac902896b09da633826040516107309291906112cd565b60405180910390a1505050565b60035481565b7f000000000000000000000000000000000000000000000000000000000000000081565b7f000000000000000000000000000000000000000000000000000000000000000081565b60008211801561079b5750600081145b156107ae576107a982610af6565b6107d7565b6000811180156107be5750600082145b156107d1576107cc81610d5a565b6107d6565b600080fd5b5b5050565b60008082036107ed5760009050610983565b60006001905060008390506000608082901c111561081457608081901c9050604082901b91505b6000604082901c111561083057604081901c9050602082901b91505b6000602082901c111561084c57602081901c9050601082901b91505b6000601082901c111561086857601081901c9050600882901b91505b6000600882901c111561088457600881901c9050600482901b91505b6000600482901c11156108a057600481901c9050600282901b91505b6000600282901c11156108b557600182901b91505b60018285816108c7576108c66112f6565b5b048301901c915060018285816108e0576108df6112f6565b5b048301901c915060018285816108f9576108f86112f6565b5b048301901c91506001828581610912576109116112f6565b5b048301901c9150600182858161092b5761092a6112f6565b5b048301901c91506001828581610944576109436112f6565b5b048301901c9150600182858161095d5761095c6112f6565b5b048301901c915061097e82838681610978576109776112f6565b5b04610fbe565b925050505b919050565b7f000000000000000000000000000000000000000000000000000000000000000073ffffffffffffffffffffffffffffffffffffffff166370a08231306040518263ffffffff1660e01b81526004016109e19190611018565b602060405180830381865afa1580156109fe573d6000803e3d6000fd5b505050506040513d601f19601f82011682018060405250810190610a229190611116565b6001819055507f000000000000000000000000000000000000000000000000000000000000000073ffffffffffffffffffffffffffffffffffffffff166370a08231306040518263ffffffff1660e01b8152600401610a819190611018565b602060405180830381865afa158015610a9e573d6000803e3d6000fd5b505050506040513d601f19601f82011682018060405250810190610ac29190611116565b600281905550600154600254610ad89190611325565b600381905550600254600154610aee9190611325565b600481905550565b807f000000000000000000000000000000000000000000000000000000000000000073ffffffffffffffffffffffffffffffffffffffff1663dd62ed3e33306040518363ffffffff1660e01b8152600401610b529291906110d8565b602060405180830381865afa158015610b6f573d6000803e3d6000fd5b505050506040513d601f19601f82011682018060405250810190610b939190611116565b1015610bd4576040517f08c379a0000000000000000000000000000000000000000000000000000000008152600401610bcb906111a0565b60405180910390fd5b7f000000000000000000000000000000000000000000000000000000000000000073ffffffffffffffffffffffffffffffffffffffff166323b872dd3330846040518463ffffffff1660e01b8152600401610c31939291906111c0565b6020604051808303816000875af1158015610c50573d6000803e3d6000fd5b505050506040513d601f19601f82011682018060405250810190610c74919061122f565b50600081600154610c859190611356565b600054610c929190611325565b600254610c9f919061138a565b90508060025411610caf57600080fd5b7f000000000000000000000000000000000000000000000000000000000000000073ffffffffffffffffffffffffffffffffffffffff1663a9059cbb33836040518363ffffffff1660e01b8152600401610d0a9291906112cd565b6020604051808303816000875af1158015610d29573d6000803e3d6000fd5b505050506040513d601f19601f82011682018060405250810190610d4d919061122f565b50610d56610988565b5050565b807f000000000000000000000000000000000000000000000000000000000000000073ffffffffffffffffffffffffffffffffffffffff1663dd62ed3e33306040518363ffffffff1660e01b8152600401610db69291906110d8565b602060405180830381865afa158015610dd3573d6000803e3d6000fd5b505050506040513d601f19601f82011682018060405250810190610df79190611116565b1015610e38576040517f08c379a0000000000000000000000000000000000000000000000000000000008152600401610e2f906111a0565b60405180910390fd5b7f000000000000000000000000000000000000000000000000000000000000000073ffffffffffffffffffffffffffffffffffffffff166323b872dd3330846040518463ffffffff1660e01b8152600401610e95939291906111c0565b6020604051808303816000875af1158015610eb4573d6000803e3d6000fd5b505050506040513d601f19601f82011682018060405250810190610ed8919061122f565b50600081600254610ee99190611356565b600054610ef69190611325565b600154610f03919061138a565b90508060015411610f1357600080fd5b7f000000000000000000000000000000000000000000000000000000000000000073ffffffffffffffffffffffffffffffffffffffff1663a9059cbb33836040518363ffffffff1660e01b8152600401610f6e9291906112cd565b6020604051808303816000875af1158015610f8d573d6000803e3d6000fd5b505050506040513d601f19601f82011682018060405250810190610fb1919061122f565b50610fba610988565b5050565b6000818310610fcd5781610fcf565b825b905092915050565b600073ffffffffffffffffffffffffffffffffffffffff82169050919050565b600061100282610fd7565b9050919050565b61101281610ff7565b82525050565b600060208201905061102d6000830184611009565b92915050565b6000819050919050565b61104681611033565b82525050565b6000602082019050611061600083018461103d565b92915050565b600080fd5b61107581611033565b811461108057600080fd5b50565b6000813590506110928161106c565b92915050565b600080604083850312156110af576110ae611067565b5b60006110bd85828601611083565b92505060206110ce85828601611083565b9150509250929050565b60006040820190506110ed6000830185611009565b6110fa6020830184611009565b9392505050565b6000815190506111108161106c565b92915050565b60006020828403121561112c5761112b611067565b5b600061113a84828501611101565b91505092915050565b600082825260208201905092915050565b7f436f6e7472616374206e6f7420617070726f7665640000000000000000000000600082015250565b600061118a601583611143565b915061119582611154565b602082019050919050565b600060208201905081810360008301526111b98161117d565b9050919050565b60006060820190506111d56000830186611009565b6111e26020830185611009565b6111ef604083018461103d565b949350505050565b60008115159050919050565b61120c816111f7565b811461121757600080fd5b50565b60008151905061122981611203565b92915050565b60006020828403121561124557611244611067565b5b60006112538482850161121a565b91505092915050565b7f4e487b7100000000000000000000000000000000000000000000000000000000600052601160045260246000fd5b600061129682611033565b91506112a183611033565b92508282026112af81611033565b915082820484148315176112c6576112c561125c565b5b5092915050565b60006040820190506112e26000830185611009565b6112ef602083018461103d565b9392505050565b7f4e487b7100000000000000000000000000000000000000000000000000000000600052601260045260246000fd5b600061133082611033565b915061133b83611033565b92508261134b5761134a6112f6565b5b828204905092915050565b600061136182611033565b915061136c83611033565b92508282019050808211156113845761138361125c565b5b92915050565b600061139582611033565b91506113a083611033565b92508282039050818111156113b8576113b761125c565b5b9291505056fea2646970667358221220d6ee31a03c86deb0bc37c4d82b8a37626f5548a524bd02cdb1019a88e76776bb64736f6c63430008110033",
					"opcodes": "PUSH1 0xE0 PUSH1 0x40 MSTORE CALLVALUE DUP1 ISZERO PUSH3 0x11 JUMPI PUSH1 0x0 DUP1 REVERT JUMPDEST POP PUSH1 0x40 MLOAD PUSH3 0x162F CODESIZE SUB DUP1 PUSH3 0x162F DUP4 CODECOPY DUP2 DUP2 ADD PUSH1 0x40 MSTORE DUP2 ADD SWAP1 PUSH3 0x37 SWAP2 SWAP1 PUSH3 0x146 JUMP JUMPDEST DUP3 PUSH20 0xFFFFFFFFFFFFFFFFFFFFFFFFFFFFFFFFFFFFFFFF AND PUSH1 0x80 DUP2 PUSH20 0xFFFFFFFFFFFFFFFFFFFFFFFFFFFFFFFFFFFFFFFF AND DUP2 MSTORE POP POP DUP2 PUSH20 0xFFFFFFFFFFFFFFFFFFFFFFFFFFFFFFFFFFFFFFFF AND PUSH1 0xA0 DUP2 PUSH20 0xFFFFFFFFFFFFFFFFFFFFFFFFFFFFFFFFFFFFFFFF AND DUP2 MSTORE POP POP DUP1 PUSH20 0xFFFFFFFFFFFFFFFFFFFFFFFFFFFFFFFFFFFFFFFF AND PUSH1 0xC0 DUP2 PUSH20 0xFFFFFFFFFFFFFFFFFFFFFFFFFFFFFFFFFFFFFFFF AND DUP2 MSTORE POP POP POP POP POP PUSH3 0x1A2 JUMP JUMPDEST PUSH1 0x0 DUP1 REVERT JUMPDEST PUSH1 0x0 PUSH20 0xFFFFFFFFFFFFFFFFFFFFFFFFFFFFFFFFFFFFFFFF DUP3 AND SWAP1 POP SWAP2 SWAP1 POP JUMP JUMPDEST PUSH1 0x0 PUSH3 0x10E DUP3 PUSH3 0xE1 JUMP JUMPDEST SWAP1 POP SWAP2 SWAP1 POP JUMP JUMPDEST PUSH3 0x120 DUP2 PUSH3 0x101 JUMP JUMPDEST DUP2 EQ PUSH3 0x12C JUMPI PUSH1 0x0 DUP1 REVERT JUMPDEST POP JUMP JUMPDEST PUSH1 0x0 DUP2 MLOAD SWAP1 POP PUSH3 0x140 DUP2 PUSH3 0x115 JUMP JUMPDEST SWAP3 SWAP2 POP POP JUMP JUMPDEST PUSH1 0x0 DUP1 PUSH1 0x0 PUSH1 0x60 DUP5 DUP7 SUB SLT ISZERO PUSH3 0x162 JUMPI PUSH3 0x161 PUSH3 0xDC JUMP JUMPDEST JUMPDEST PUSH1 0x0 PUSH3 0x172 DUP7 DUP3 DUP8 ADD PUSH3 0x12F JUMP JUMPDEST SWAP4 POP POP PUSH1 0x20 PUSH3 0x185 DUP7 DUP3 DUP8 ADD PUSH3 0x12F JUMP JUMPDEST SWAP3 POP POP PUSH1 0x40 PUSH3 0x198 DUP7 DUP3 DUP8 ADD PUSH3 0x12F JUMP JUMPDEST SWAP2 POP POP SWAP3 POP SWAP3 POP SWAP3 JUMP JUMPDEST PUSH1 0x80 MLOAD PUSH1 0xA0 MLOAD PUSH1 0xC0 MLOAD PUSH2 0x13F4 PUSH3 0x23B PUSH1 0x0 CODECOPY PUSH1 0x0 DUP2 DUP2 PUSH2 0x65A ADD MSTORE PUSH2 0x745 ADD MSTORE PUSH1 0x0 DUP2 DUP2 PUSH2 0x2E8 ADD MSTORE DUP2 DUP2 PUSH2 0x466 ADD MSTORE DUP2 DUP2 PUSH2 0x507 ADD MSTORE DUP2 DUP2 PUSH2 0x769 ADD MSTORE DUP2 DUP2 PUSH2 0xA2A ADD MSTORE DUP2 DUP2 PUSH2 0xCB1 ADD MSTORE DUP2 DUP2 PUSH2 0xD5D ADD MSTORE PUSH2 0xE3A ADD MSTORE PUSH1 0x0 DUP2 DUP2 PUSH2 0x1CD ADD MSTORE DUP2 DUP2 PUSH2 0x20A ADD MSTORE DUP2 DUP2 PUSH2 0x3C5 ADD MSTORE DUP2 DUP2 PUSH2 0x5A1 ADD MSTORE DUP2 DUP2 PUSH2 0x98A ADD MSTORE DUP2 DUP2 PUSH2 0xAF9 ADD MSTORE DUP2 DUP2 PUSH2 0xBD6 ADD MSTORE PUSH2 0xF15 ADD MSTORE PUSH2 0x13F4 PUSH1 0x0 RETURN INVALID PUSH1 0x80 PUSH1 0x40 MSTORE CALLVALUE DUP1 ISZERO PUSH2 0x10 JUMPI PUSH1 0x0 DUP1 REVERT JUMPDEST POP PUSH1 0x4 CALLDATASIZE LT PUSH2 0x9E JUMPI PUSH1 0x0 CALLDATALOAD PUSH1 0xE0 SHR DUP1 PUSH4 0x7A16AF7F GT PUSH2 0x66 JUMPI DUP1 PUSH4 0x7A16AF7F EQ PUSH2 0x139 JUMPI DUP1 PUSH4 0xA0A986F1 EQ PUSH2 0x155 JUMPI DUP1 PUSH4 0xBA9C6845 EQ PUSH2 0x173 JUMPI DUP1 PUSH4 0xD21220A7 EQ PUSH2 0x191 JUMPI DUP1 PUSH4 0xD96073CF EQ PUSH2 0x1AF JUMPI PUSH2 0x9E JUMP JUMPDEST DUP1 PUSH4 0xDFE1681 EQ PUSH2 0xA3 JUMPI DUP1 PUSH4 0x443CB4BC EQ PUSH2 0xC1 JUMPI DUP1 PUSH4 0x5A76F25E EQ PUSH2 0xDF JUMPI DUP1 PUSH4 0x6CAF25CE EQ PUSH2 0xFD JUMPI DUP1 PUSH4 0x7464FC3D EQ PUSH2 0x11B JUMPI JUMPDEST PUSH1 0x0 DUP1 REVERT JUMPDEST PUSH2 0xAB PUSH2 0x1CB JUMP JUMPDEST PUSH1 0x40 MLOAD PUSH2 0xB8 SWAP2 SWAP1 PUSH2 0x1018 JUMP JUMPDEST PUSH1 0x40 MLOAD DUP1 SWAP2 SUB SWAP1 RETURN JUMPDEST PUSH2 0xC9 PUSH2 0x1EF JUMP JUMPDEST PUSH1 0x40 MLOAD PUSH2 0xD6 SWAP2 SWAP1 PUSH2 0x104C JUMP JUMPDEST PUSH1 0x40 MLOAD DUP1 SWAP2 SUB SWAP1 RETURN JUMPDEST PUSH2 0xE7 PUSH2 0x1F5 JUMP JUMPDEST PUSH1 0x40 MLOAD PUSH2 0xF4 SWAP2 SWAP1 PUSH2 0x104C JUMP JUMPDEST PUSH1 0x40 MLOAD DUP1 SWAP2 SUB SWAP1 RETURN JUMPDEST PUSH2 0x105 PUSH2 0x1FB JUMP JUMPDEST PUSH1 0x40 MLOAD PUSH2 0x112 SWAP2 SWAP1 PUSH2 0x104C JUMP JUMPDEST PUSH1 0x40 MLOAD DUP1 SWAP2 SUB SWAP1 RETURN JUMPDEST PUSH2 0x123 PUSH2 0x201 JUMP JUMPDEST PUSH1 0x40 MLOAD PUSH2 0x130 SWAP2 SWAP1 PUSH2 0x104C JUMP JUMPDEST PUSH1 0x40 MLOAD DUP1 SWAP2 SUB SWAP1 RETURN JUMPDEST PUSH2 0x153 PUSH1 0x4 DUP1 CALLDATASIZE SUB DUP2 ADD SWAP1 PUSH2 0x14E SWAP2 SWAP1 PUSH2 0x1098 JUMP JUMPDEST PUSH2 0x207 JUMP JUMPDEST STOP JUMPDEST PUSH2 0x15D PUSH2 0x73D JUMP JUMPDEST PUSH1 0x40 MLOAD PUSH2 0x16A SWAP2 SWAP1 PUSH2 0x104C JUMP JUMPDEST PUSH1 0x40 MLOAD DUP1 SWAP2 SUB SWAP1 RETURN JUMPDEST PUSH2 0x17B PUSH2 0x743 JUMP JUMPDEST PUSH1 0x40 MLOAD PUSH2 0x188 SWAP2 SWAP1 PUSH2 0x1018 JUMP JUMPDEST PUSH1 0x40 MLOAD DUP1 SWAP2 SUB SWAP1 RETURN JUMPDEST PUSH2 0x199 PUSH2 0x767 JUMP JUMPDEST PUSH1 0x40 MLOAD PUSH2 0x1A6 SWAP2 SWAP1 PUSH2 0x1018 JUMP JUMPDEST PUSH1 0x40 MLOAD DUP1 SWAP2 SUB SWAP1 RETURN JUMPDEST PUSH2 0x1C9 PUSH1 0x4 DUP1 CALLDATASIZE SUB DUP2 ADD SWAP1 PUSH2 0x1C4 SWAP2 SWAP1 PUSH2 0x1098 JUMP JUMPDEST PUSH2 0x78B JUMP JUMPDEST STOP JUMPDEST PUSH32 0x0 DUP2 JUMP JUMPDEST PUSH1 0x1 SLOAD DUP2 JUMP JUMPDEST PUSH1 0x2 SLOAD DUP2 JUMP JUMPDEST PUSH1 0x4 SLOAD DUP2 JUMP JUMPDEST PUSH1 0x0 SLOAD DUP2 JUMP JUMPDEST DUP2 PUSH32 0x0 PUSH20 0xFFFFFFFFFFFFFFFFFFFFFFFFFFFFFFFFFFFFFFFF AND PUSH4 0xDD62ED3E CALLER ADDRESS PUSH1 0x40 MLOAD DUP4 PUSH4 0xFFFFFFFF AND PUSH1 0xE0 SHL DUP2 MSTORE PUSH1 0x4 ADD PUSH2 0x263 SWAP3 SWAP2 SWAP1 PUSH2 0x10D8 JUMP JUMPDEST PUSH1 0x20 PUSH1 0x40 MLOAD DUP1 DUP4 SUB DUP2 DUP7 GAS STATICCALL ISZERO DUP1 ISZERO PUSH2 0x280 JUMPI RETURNDATASIZE PUSH1 0x0 DUP1 RETURNDATACOPY RETURNDATASIZE PUSH1 0x0 REVERT JUMPDEST POP POP POP POP PUSH1 0x40 MLOAD RETURNDATASIZE PUSH1 0x1F NOT PUSH1 0x1F DUP3 ADD AND DUP3 ADD DUP1 PUSH1 0x40 MSTORE POP DUP2 ADD SWAP1 PUSH2 0x2A4 SWAP2 SWAP1 PUSH2 0x1116 JUMP JUMPDEST LT ISZERO PUSH2 0x2E5 JUMPI PUSH1 0x40 MLOAD PUSH32 0x8C379A000000000000000000000000000000000000000000000000000000000 DUP2 MSTORE PUSH1 0x4 ADD PUSH2 0x2DC SWAP1 PUSH2 0x11A0 JUMP JUMPDEST PUSH1 0x40 MLOAD DUP1 SWAP2 SUB SWAP1 REVERT JUMPDEST DUP1 PUSH32 0x0 PUSH20 0xFFFFFFFFFFFFFFFFFFFFFFFFFFFFFFFFFFFFFFFF AND PUSH4 0xDD62ED3E CALLER ADDRESS PUSH1 0x40 MLOAD DUP4 PUSH4 0xFFFFFFFF AND PUSH1 0xE0 SHL DUP2 MSTORE PUSH1 0x4 ADD PUSH2 0x341 SWAP3 SWAP2 SWAP1 PUSH2 0x10D8 JUMP JUMPDEST PUSH1 0x20 PUSH1 0x40 MLOAD DUP1 DUP4 SUB DUP2 DUP7 GAS STATICCALL ISZERO DUP1 ISZERO PUSH2 0x35E JUMPI RETURNDATASIZE PUSH1 0x0 DUP1 RETURNDATACOPY RETURNDATASIZE PUSH1 0x0 REVERT JUMPDEST POP POP POP POP PUSH1 0x40 MLOAD RETURNDATASIZE PUSH1 0x1F NOT PUSH1 0x1F DUP3 ADD AND DUP3 ADD DUP1 PUSH1 0x40 MSTORE POP DUP2 ADD SWAP1 PUSH2 0x382 SWAP2 SWAP1 PUSH2 0x1116 JUMP JUMPDEST LT ISZERO PUSH2 0x3C3 JUMPI PUSH1 0x40 MLOAD PUSH32 0x8C379A000000000000000000000000000000000000000000000000000000000 DUP2 MSTORE PUSH1 0x4 ADD PUSH2 0x3BA SWAP1 PUSH2 0x11A0 JUMP JUMPDEST PUSH1 0x40 MLOAD DUP1 SWAP2 SUB SWAP1 REVERT JUMPDEST PUSH32 0x0 PUSH20 0xFFFFFFFFFFFFFFFFFFFFFFFFFFFFFFFFFFFFFFFF AND PUSH4 0x23B872DD CALLER ADDRESS DUP6 PUSH1 0x40 MLOAD DUP5 PUSH4 0xFFFFFFFF AND PUSH1 0xE0 SHL DUP2 MSTORE PUSH1 0x4 ADD PUSH2 0x420 SWAP4 SWAP3 SWAP2 SWAP1 PUSH2 0x11C0 JUMP JUMPDEST PUSH1 0x20 PUSH1 0x40 MLOAD DUP1 DUP4 SUB DUP2 PUSH1 0x0 DUP8 GAS CALL ISZERO DUP1 ISZERO PUSH2 0x43F JUMPI RETURNDATASIZE PUSH1 0x0 DUP1 RETURNDATACOPY RETURNDATASIZE PUSH1 0x0 REVERT JUMPDEST POP POP POP POP PUSH1 0x40 MLOAD RETURNDATASIZE PUSH1 0x1F NOT PUSH1 0x1F DUP3 ADD AND DUP3 ADD DUP1 PUSH1 0x40 MSTORE POP DUP2 ADD SWAP1 PUSH2 0x463 SWAP2 SWAP1 PUSH2 0x122F JUMP JUMPDEST POP PUSH32 0x0 PUSH20 0xFFFFFFFFFFFFFFFFFFFFFFFFFFFFFFFFFFFFFFFF AND PUSH4 0x23B872DD CALLER ADDRESS DUP5 PUSH1 0x40 MLOAD DUP5 PUSH4 0xFFFFFFFF AND PUSH1 0xE0 SHL DUP2 MSTORE PUSH1 0x4 ADD PUSH2 0x4C1 SWAP4 SWAP3 SWAP2 SWAP1 PUSH2 0x11C0 JUMP JUMPDEST PUSH1 0x20 PUSH1 0x40 MLOAD DUP1 DUP4 SUB DUP2 PUSH1 0x0 DUP8 GAS CALL ISZERO DUP1 ISZERO PUSH2 0x4E0 JUMPI RETURNDATASIZE PUSH1 0x0 DUP1 RETURNDATACOPY RETURNDATASIZE PUSH1 0x0 REVERT JUMPDEST POP POP POP POP PUSH1 0x40 MLOAD RETURNDATASIZE PUSH1 0x1F NOT PUSH1 0x1F DUP3 ADD AND DUP3 ADD DUP1 PUSH1 0x40 MSTORE POP DUP2 ADD SWAP1 PUSH2 0x504 SWAP2 SWAP1 PUSH2 0x122F JUMP JUMPDEST POP PUSH32 0x0 PUSH20 0xFFFFFFFFFFFFFFFFFFFFFFFFFFFFFFFFFFFFFFFF AND PUSH4 0x70A08231 ADDRESS PUSH1 0x40 MLOAD DUP3 PUSH4 0xFFFFFFFF AND PUSH1 0xE0 SHL DUP2 MSTORE PUSH1 0x4 ADD PUSH2 0x55E SWAP2 SWAP1 PUSH2 0x1018 JUMP JUMPDEST PUSH1 0x20 PUSH1 0x40 MLOAD DUP1 DUP4 SUB DUP2 DUP7 GAS STATICCALL ISZERO DUP1 ISZERO PUSH2 0x57B JUMPI RETURNDATASIZE PUSH1 0x0 DUP1 RETURNDATACOPY RETURNDATASIZE PUSH1 0x0 REVERT JUMPDEST POP POP POP POP PUSH1 0x40 MLOAD RETURNDATASIZE PUSH1 0x1F NOT PUSH1 0x1F DUP3 ADD AND DUP3 ADD DUP1 PUSH1 0x40 MSTORE POP DUP2 ADD SWAP1 PUSH2 0x59F SWAP2 SWAP1 PUSH2 0x1116 JUMP JUMPDEST PUSH32 0x0 PUSH20 0xFFFFFFFFFFFFFFFFFFFFFFFFFFFFFFFFFFFFFFFF AND PUSH4 0x70A08231 ADDRESS PUSH1 0x40 MLOAD DUP3 PUSH4 0xFFFFFFFF AND PUSH1 0xE0 SHL DUP2 MSTORE PUSH1 0x4 ADD PUSH2 0x5F8 SWAP2 SWAP1 PUSH2 0x1018 JUMP JUMPDEST PUSH1 0x20 PUSH1 0x40 MLOAD DUP1 DUP4 SUB DUP2 DUP7 GAS STATICCALL ISZERO DUP1 ISZERO PUSH2 0x615 JUMPI RETURNDATASIZE PUSH1 0x0 DUP1 RETURNDATACOPY RETURNDATASIZE PUSH1 0x0 REVERT JUMPDEST POP POP POP POP PUSH1 0x40 MLOAD RETURNDATASIZE PUSH1 0x1F NOT PUSH1 0x1F DUP3 ADD AND DUP3 ADD DUP1 PUSH1 0x40 MSTORE POP DUP2 ADD SWAP1 PUSH2 0x639 SWAP2 SWAP1 PUSH2 0x1116 JUMP JUMPDEST PUSH2 0x643 SWAP2 SWAP1 PUSH2 0x128B JUMP JUMPDEST PUSH1 0x0 DUP2 SWAP1 SSTORE POP PUSH1 0x0 PUSH2 0x656 PUSH1 0x0 SLOAD PUSH2 0x7DB JUMP JUMPDEST SWAP1 POP PUSH32 0x0 PUSH20 0xFFFFFFFFFFFFFFFFFFFFFFFFFFFFFFFFFFFFFFFF AND PUSH4 0xA9059CBB CALLER DUP4 PUSH1 0x40 MLOAD DUP4 PUSH4 0xFFFFFFFF AND PUSH1 0xE0 SHL DUP2 MSTORE PUSH1 0x4 ADD PUSH2 0x6B3 SWAP3 SWAP2 SWAP1 PUSH2 0x12CD JUMP JUMPDEST PUSH1 0x20 PUSH1 0x40 MLOAD DUP1 DUP4 SUB DUP2 PUSH1 0x0 DUP8 GAS CALL ISZERO DUP1 ISZERO PUSH2 0x6D2 JUMPI RETURNDATASIZE PUSH1 0x0 DUP1 RETURNDATACOPY RETURNDATASIZE PUSH1 0x0 REVERT JUMPDEST POP POP POP POP PUSH1 0x40 MLOAD RETURNDATASIZE PUSH1 0x1F NOT PUSH1 0x1F DUP3 ADD AND DUP3 ADD DUP1 PUSH1 0x40 MSTORE POP DUP2 ADD SWAP1 PUSH2 0x6F6 SWAP2 SWAP1 PUSH2 0x122F JUMP JUMPDEST POP PUSH2 0x6FF PUSH2 0x988 JUMP JUMPDEST PUSH32 0xB62268A18D99FE191AC8E62F823AB1EEC698609A81B2C8DE3DAC902896B09DA6 CALLER DUP3 PUSH1 0x40 MLOAD PUSH2 0x730 SWAP3 SWAP2 SWAP1 PUSH2 0x12CD JUMP JUMPDEST PUSH1 0x40 MLOAD DUP1 SWAP2 SUB SWAP1 LOG1 POP POP POP JUMP JUMPDEST PUSH1 0x3 SLOAD DUP2 JUMP JUMPDEST PUSH32 0x0 DUP2 JUMP JUMPDEST PUSH32 0x0 DUP2 JUMP JUMPDEST PUSH1 0x0 DUP3 GT DUP1 ISZERO PUSH2 0x79B JUMPI POP PUSH1 0x0 DUP2 EQ JUMPDEST ISZERO PUSH2 0x7AE JUMPI PUSH2 0x7A9 DUP3 PUSH2 0xAF6 JUMP JUMPDEST PUSH2 0x7D7 JUMP JUMPDEST PUSH1 0x0 DUP2 GT DUP1 ISZERO PUSH2 0x7BE JUMPI POP PUSH1 0x0 DUP3 EQ JUMPDEST ISZERO PUSH2 0x7D1 JUMPI PUSH2 0x7CC DUP2 PUSH2 0xD5A JUMP JUMPDEST PUSH2 0x7D6 JUMP JUMPDEST PUSH1 0x0 DUP1 REVERT JUMPDEST JUMPDEST POP POP JUMP JUMPDEST PUSH1 0x0 DUP1 DUP3 SUB PUSH2 0x7ED JUMPI PUSH1 0x0 SWAP1 POP PUSH2 0x983 JUMP JUMPDEST PUSH1 0x0 PUSH1 0x1 SWAP1 POP PUSH1 0x0 DUP4 SWAP1 POP PUSH1 0x0 PUSH1 0x80 DUP3 SWAP1 SHR GT ISZERO PUSH2 0x814 JUMPI PUSH1 0x80 DUP2 SWAP1 SHR SWAP1 POP PUSH1 0x40 DUP3 SWAP1 SHL SWAP2 POP JUMPDEST PUSH1 0x0 PUSH1 0x40 DUP3 SWAP1 SHR GT ISZERO PUSH2 0x830 JUMPI PUSH1 0x40 DUP2 SWAP1 SHR SWAP1 POP PUSH1 0x20 DUP3 SWAP1 SHL SWAP2 POP JUMPDEST PUSH1 0x0 PUSH1 0x20 DUP3 SWAP1 SHR GT ISZERO PUSH2 0x84C JUMPI PUSH1 0x20 DUP2 SWAP1 SHR SWAP1 POP PUSH1 0x10 DUP3 SWAP1 SHL SWAP2 POP JUMPDEST PUSH1 0x0 PUSH1 0x10 DUP3 SWAP1 SHR GT ISZERO PUSH2 0x868 JUMPI PUSH1 0x10 DUP2 SWAP1 SHR SWAP1 POP PUSH1 0x8 DUP3 SWAP1 SHL SWAP2 POP JUMPDEST PUSH1 0x0 PUSH1 0x8 DUP3 SWAP1 SHR GT ISZERO PUSH2 0x884 JUMPI PUSH1 0x8 DUP2 SWAP1 SHR SWAP1 POP PUSH1 0x4 DUP3 SWAP1 SHL SWAP2 POP JUMPDEST PUSH1 0x0 PUSH1 0x4 DUP3 SWAP1 SHR GT ISZERO PUSH2 0x8A0 JUMPI PUSH1 0x4 DUP2 SWAP1 SHR SWAP1 POP PUSH1 0x2 DUP3 SWAP1 SHL SWAP2 POP JUMPDEST PUSH1 0x0 PUSH1 0x2 DUP3 SWAP1 SHR GT ISZERO PUSH2 0x8B5 JUMPI PUSH1 0x1 DUP3 SWAP1 SHL SWAP2 POP JUMPDEST PUSH1 0x1 DUP3 DUP6 DUP2 PUSH2 0x8C7 JUMPI PUSH2 0x8C6 PUSH2 0x12F6 JUMP JUMPDEST JUMPDEST DIV DUP4 ADD SWAP1 SHR SWAP2 POP PUSH1 0x1 DUP3 DUP6 DUP2 PUSH2 0x8E0 JUMPI PUSH2 0x8DF PUSH2 0x12F6 JUMP JUMPDEST JUMPDEST DIV DUP4 ADD SWAP1 SHR SWAP2 POP PUSH1 0x1 DUP3 DUP6 DUP2 PUSH2 0x8F9 JUMPI PUSH2 0x8F8 PUSH2 0x12F6 JUMP JUMPDEST JUMPDEST DIV DUP4 ADD SWAP1 SHR SWAP2 POP PUSH1 0x1 DUP3 DUP6 DUP2 PUSH2 0x912 JUMPI PUSH2 0x911 PUSH2 0x12F6 JUMP JUMPDEST JUMPDEST DIV DUP4 ADD SWAP1 SHR SWAP2 POP PUSH1 0x1 DUP3 DUP6 DUP2 PUSH2 0x92B JUMPI PUSH2 0x92A PUSH2 0x12F6 JUMP JUMPDEST JUMPDEST DIV DUP4 ADD SWAP1 SHR SWAP2 POP PUSH1 0x1 DUP3 DUP6 DUP2 PUSH2 0x944 JUMPI PUSH2 0x943 PUSH2 0x12F6 JUMP JUMPDEST JUMPDEST DIV DUP4 ADD SWAP1 SHR SWAP2 POP PUSH1 0x1 DUP3 DUP6 DUP2 PUSH2 0x95D JUMPI PUSH2 0x95C PUSH2 0x12F6 JUMP JUMPDEST JUMPDEST DIV DUP4 ADD SWAP1 SHR SWAP2 POP PUSH2 0x97E DUP3 DUP4 DUP7 DUP2 PUSH2 0x978 JUMPI PUSH2 0x977 PUSH2 0x12F6 JUMP JUMPDEST JUMPDEST DIV PUSH2 0xFBE JUMP JUMPDEST SWAP3 POP POP POP JUMPDEST SWAP2 SWAP1 POP JUMP JUMPDEST PUSH32 0x0 PUSH20 0xFFFFFFFFFFFFFFFFFFFFFFFFFFFFFFFFFFFFFFFF AND PUSH4 0x70A08231 ADDRESS PUSH1 0x40 MLOAD DUP3 PUSH4 0xFFFFFFFF AND PUSH1 0xE0 SHL DUP2 MSTORE PUSH1 0x4 ADD PUSH2 0x9E1 SWAP2 SWAP1 PUSH2 0x1018 JUMP JUMPDEST PUSH1 0x20 PUSH1 0x40 MLOAD DUP1 DUP4 SUB DUP2 DUP7 GAS STATICCALL ISZERO DUP1 ISZERO PUSH2 0x9FE JUMPI RETURNDATASIZE PUSH1 0x0 DUP1 RETURNDATACOPY RETURNDATASIZE PUSH1 0x0 REVERT JUMPDEST POP POP POP POP PUSH1 0x40 MLOAD RETURNDATASIZE PUSH1 0x1F NOT PUSH1 0x1F DUP3 ADD AND DUP3 ADD DUP1 PUSH1 0x40 MSTORE POP DUP2 ADD SWAP1 PUSH2 0xA22 SWAP2 SWAP1 PUSH2 0x1116 JUMP JUMPDEST PUSH1 0x1 DUP2 SWAP1 SSTORE POP PUSH32 0x0 PUSH20 0xFFFFFFFFFFFFFFFFFFFFFFFFFFFFFFFFFFFFFFFF AND PUSH4 0x70A08231 ADDRESS PUSH1 0x40 MLOAD DUP3 PUSH4 0xFFFFFFFF AND PUSH1 0xE0 SHL DUP2 MSTORE PUSH1 0x4 ADD PUSH2 0xA81 SWAP2 SWAP1 PUSH2 0x1018 JUMP JUMPDEST PUSH1 0x20 PUSH1 0x40 MLOAD DUP1 DUP4 SUB DUP2 DUP7 GAS STATICCALL ISZERO DUP1 ISZERO PUSH2 0xA9E JUMPI RETURNDATASIZE PUSH1 0x0 DUP1 RETURNDATACOPY RETURNDATASIZE PUSH1 0x0 REVERT JUMPDEST POP POP POP POP PUSH1 0x40 MLOAD RETURNDATASIZE PUSH1 0x1F NOT PUSH1 0x1F DUP3 ADD AND DUP3 ADD DUP1 PUSH1 0x40 MSTORE POP DUP2 ADD SWAP1 PUSH2 0xAC2 SWAP2 SWAP1 PUSH2 0x1116 JUMP JUMPDEST PUSH1 0x2 DUP2 SWAP1 SSTORE POP PUSH1 0x1 SLOAD PUSH1 0x2 SLOAD PUSH2 0xAD8 SWAP2 SWAP1 PUSH2 0x1325 JUMP JUMPDEST PUSH1 0x3 DUP2 SWAP1 SSTORE POP PUSH1 0x2 SLOAD PUSH1 0x1 SLOAD PUSH2 0xAEE SWAP2 SWAP1 PUSH2 0x1325 JUMP JUMPDEST PUSH1 0x4 DUP2 SWAP1 SSTORE POP JUMP JUMPDEST DUP1 PUSH32 0x0 PUSH20 0xFFFFFFFFFFFFFFFFFFFFFFFFFFFFFFFFFFFFFFFF AND PUSH4 0xDD62ED3E CALLER ADDRESS PUSH1 0x40 MLOAD DUP4 PUSH4 0xFFFFFFFF AND PUSH1 0xE0 SHL DUP2 MSTORE PUSH1 0x4 ADD PUSH2 0xB52 SWAP3 SWAP2 SWAP1 PUSH2 0x10D8 JUMP JUMPDEST PUSH1 0x20 PUSH1 0x40 MLOAD DUP1 DUP4 SUB DUP2 DUP7 GAS STATICCALL ISZERO DUP1 ISZERO PUSH2 0xB6F JUMPI RETURNDATASIZE PUSH1 0x0 DUP1 RETURNDATACOPY RETURNDATASIZE PUSH1 0x0 REVERT JUMPDEST POP POP POP POP PUSH1 0x40 MLOAD RETURNDATASIZE PUSH1 0x1F NOT PUSH1 0x1F DUP3 ADD AND DUP3 ADD DUP1 PUSH1 0x40 MSTORE POP DUP2 ADD SWAP1 PUSH2 0xB93 SWAP2 SWAP1 PUSH2 0x1116 JUMP JUMPDEST LT ISZERO PUSH2 0xBD4 JUMPI PUSH1 0x40 MLOAD PUSH32 0x8C379A000000000000000000000000000000000000000000000000000000000 DUP2 MSTORE PUSH1 0x4 ADD PUSH2 0xBCB SWAP1 PUSH2 0x11A0 JUMP JUMPDEST PUSH1 0x40 MLOAD DUP1 SWAP2 SUB SWAP1 REVERT JUMPDEST PUSH32 0x0 PUSH20 0xFFFFFFFFFFFFFFFFFFFFFFFFFFFFFFFFFFFFFFFF AND PUSH4 0x23B872DD CALLER ADDRESS DUP5 PUSH1 0x40 MLOAD DUP5 PUSH4 0xFFFFFFFF AND PUSH1 0xE0 SHL DUP2 MSTORE PUSH1 0x4 ADD PUSH2 0xC31 SWAP4 SWAP3 SWAP2 SWAP1 PUSH2 0x11C0 JUMP JUMPDEST PUSH1 0x20 PUSH1 0x40 MLOAD DUP1 DUP4 SUB DUP2 PUSH1 0x0 DUP8 GAS CALL ISZERO DUP1 ISZERO PUSH2 0xC50 JUMPI RETURNDATASIZE PUSH1 0x0 DUP1 RETURNDATACOPY RETURNDATASIZE PUSH1 0x0 REVERT JUMPDEST POP POP POP POP PUSH1 0x40 MLOAD RETURNDATASIZE PUSH1 0x1F NOT PUSH1 0x1F DUP3 ADD AND DUP3 ADD DUP1 PUSH1 0x40 MSTORE POP DUP2 ADD SWAP1 PUSH2 0xC74 SWAP2 SWAP1 PUSH2 0x122F JUMP JUMPDEST POP PUSH1 0x0 DUP2 PUSH1 0x1 SLOAD PUSH2 0xC85 SWAP2 SWAP1 PUSH2 0x1356 JUMP JUMPDEST PUSH1 0x0 SLOAD PUSH2 0xC92 SWAP2 SWAP1 PUSH2 0x1325 JUMP JUMPDEST PUSH1 0x2 SLOAD PUSH2 0xC9F SWAP2 SWAP1 PUSH2 0x138A JUMP JUMPDEST SWAP1 POP DUP1 PUSH1 0x2 SLOAD GT PUSH2 0xCAF JUMPI PUSH1 0x0 DUP1 REVERT JUMPDEST PUSH32 0x0 PUSH20 0xFFFFFFFFFFFFFFFFFFFFFFFFFFFFFFFFFFFFFFFF AND PUSH4 0xA9059CBB CALLER DUP4 PUSH1 0x40 MLOAD DUP4 PUSH4 0xFFFFFFFF AND PUSH1 0xE0 SHL DUP2 MSTORE PUSH1 0x4 ADD PUSH2 0xD0A SWAP3 SWAP2 SWAP1 PUSH2 0x12CD JUMP JUMPDEST PUSH1 0x20 PUSH1 0x40 MLOAD DUP1 DUP4 SUB DUP2 PUSH1 0x0 DUP8 GAS CALL ISZERO DUP1 ISZERO PUSH2 0xD29 JUMPI RETURNDATASIZE PUSH1 0x0 DUP1 RETURNDATACOPY RETURNDATASIZE PUSH1 0x0 REVERT JUMPDEST POP POP POP POP PUSH1 0x40 MLOAD RETURNDATASIZE PUSH1 0x1F NOT PUSH1 0x1F DUP3 ADD AND DUP3 ADD DUP1 PUSH1 0x40 MSTORE POP DUP2 ADD SWAP1 PUSH2 0xD4D SWAP2 SWAP1 PUSH2 0x122F JUMP JUMPDEST POP PUSH2 0xD56 PUSH2 0x988 JUMP JUMPDEST POP POP JUMP JUMPDEST DUP1 PUSH32 0x0 PUSH20 0xFFFFFFFFFFFFFFFFFFFFFFFFFFFFFFFFFFFFFFFF AND PUSH4 0xDD62ED3E CALLER ADDRESS PUSH1 0x40 MLOAD DUP4 PUSH4 0xFFFFFFFF AND PUSH1 0xE0 SHL DUP2 MSTORE PUSH1 0x4 ADD PUSH2 0xDB6 SWAP3 SWAP2 SWAP1 PUSH2 0x10D8 JUMP JUMPDEST PUSH1 0x20 PUSH1 0x40 MLOAD DUP1 DUP4 SUB DUP2 DUP7 GAS STATICCALL ISZERO DUP1 ISZERO PUSH2 0xDD3 JUMPI RETURNDATASIZE PUSH1 0x0 DUP1 RETURNDATACOPY RETURNDATASIZE PUSH1 0x0 REVERT JUMPDEST POP POP POP POP PUSH1 0x40 MLOAD RETURNDATASIZE PUSH1 0x1F NOT PUSH1 0x1F DUP3 ADD AND DUP3 ADD DUP1 PUSH1 0x40 MSTORE POP DUP2 ADD SWAP1 PUSH2 0xDF7 SWAP2 SWAP1 PUSH2 0x1116 JUMP JUMPDEST LT ISZERO PUSH2 0xE38 JUMPI PUSH1 0x40 MLOAD PUSH32 0x8C379A000000000000000000000000000000000000000000000000000000000 DUP2 MSTORE PUSH1 0x4 ADD PUSH2 0xE2F SWAP1 PUSH2 0x11A0 JUMP JUMPDEST PUSH1 0x40 MLOAD DUP1 SWAP2 SUB SWAP1 REVERT JUMPDEST PUSH32 0x0 PUSH20 0xFFFFFFFFFFFFFFFFFFFFFFFFFFFFFFFFFFFFFFFF AND PUSH4 0x23B872DD CALLER ADDRESS DUP5 PUSH1 0x40 MLOAD DUP5 PUSH4 0xFFFFFFFF AND PUSH1 0xE0 SHL DUP2 MSTORE PUSH1 0x4 ADD PUSH2 0xE95 SWAP4 SWAP3 SWAP2 SWAP1 PUSH2 0x11C0 JUMP JUMPDEST PUSH1 0x20 PUSH1 0x40 MLOAD DUP1 DUP4 SUB DUP2 PUSH1 0x0 DUP8 GAS CALL ISZERO DUP1 ISZERO PUSH2 0xEB4 JUMPI RETURNDATASIZE PUSH1 0x0 DUP1 RETURNDATACOPY RETURNDATASIZE PUSH1 0x0 REVERT JUMPDEST POP POP POP POP PUSH1 0x40 MLOAD RETURNDATASIZE PUSH1 0x1F NOT PUSH1 0x1F DUP3 ADD AND DUP3 ADD DUP1 PUSH1 0x40 MSTORE POP DUP2 ADD SWAP1 PUSH2 0xED8 SWAP2 SWAP1 PUSH2 0x122F JUMP JUMPDEST POP PUSH1 0x0 DUP2 PUSH1 0x2 SLOAD PUSH2 0xEE9 SWAP2 SWAP1 PUSH2 0x1356 JUMP JUMPDEST PUSH1 0x0 SLOAD PUSH2 0xEF6 SWAP2 SWAP1 PUSH2 0x1325 JUMP JUMPDEST PUSH1 0x1 SLOAD PUSH2 0xF03 SWAP2 SWAP1 PUSH2 0x138A JUMP JUMPDEST SWAP1 POP DUP1 PUSH1 0x1 SLOAD GT PUSH2 0xF13 JUMPI PUSH1 0x0 DUP1 REVERT JUMPDEST PUSH32 0x0 PUSH20 0xFFFFFFFFFFFFFFFFFFFFFFFFFFFFFFFFFFFFFFFF AND PUSH4 0xA9059CBB CALLER DUP4 PUSH1 0x40 MLOAD DUP4 PUSH4 0xFFFFFFFF AND PUSH1 0xE0 SHL DUP2 MSTORE PUSH1 0x4 ADD PUSH2 0xF6E SWAP3 SWAP2 SWAP1 PUSH2 0x12CD JUMP JUMPDEST PUSH1 0x20 PUSH1 0x40 MLOAD DUP1 DUP4 SUB DUP2 PUSH1 0x0 DUP8 GAS CALL ISZERO DUP1 ISZERO PUSH2 0xF8D JUMPI RETURNDATASIZE PUSH1 0x0 DUP1 RETURNDATACOPY RETURNDATASIZE PUSH1 0x0 REVERT JUMPDEST POP POP POP POP PUSH1 0x40 MLOAD RETURNDATASIZE PUSH1 0x1F NOT PUSH1 0x1F DUP3 ADD AND DUP3 ADD DUP1 PUSH1 0x40 MSTORE POP DUP2 ADD SWAP1 PUSH2 0xFB1 SWAP2 SWAP1 PUSH2 0x122F JUMP JUMPDEST POP PUSH2 0xFBA PUSH2 0x988 JUMP JUMPDEST POP POP JUMP JUMPDEST PUSH1 0x0 DUP2 DUP4 LT PUSH2 0xFCD JUMPI DUP2 PUSH2 0xFCF JUMP JUMPDEST DUP3 JUMPDEST SWAP1 POP SWAP3 SWAP2 POP POP JUMP JUMPDEST PUSH1 0x0 PUSH20 0xFFFFFFFFFFFFFFFFFFFFFFFFFFFFFFFFFFFFFFFF DUP3 AND SWAP1 POP SWAP2 SWAP1 POP JUMP JUMPDEST PUSH1 0x0 PUSH2 0x1002 DUP3 PUSH2 0xFD7 JUMP JUMPDEST SWAP1 POP SWAP2 SWAP1 POP JUMP JUMPDEST PUSH2 0x1012 DUP2 PUSH2 0xFF7 JUMP JUMPDEST DUP3 MSTORE POP POP JUMP JUMPDEST PUSH1 0x0 PUSH1 0x20 DUP3 ADD SWAP1 POP PUSH2 0x102D PUSH1 0x0 DUP4 ADD DUP5 PUSH2 0x1009 JUMP JUMPDEST SWAP3 SWAP2 POP POP JUMP JUMPDEST PUSH1 0x0 DUP2 SWAP1 POP SWAP2 SWAP1 POP JUMP JUMPDEST PUSH2 0x1046 DUP2 PUSH2 0x1033 JUMP JUMPDEST DUP3 MSTORE POP POP JUMP JUMPDEST PUSH1 0x0 PUSH1 0x20 DUP3 ADD SWAP1 POP PUSH2 0x1061 PUSH1 0x0 DUP4 ADD DUP5 PUSH2 0x103D JUMP JUMPDEST SWAP3 SWAP2 POP POP JUMP JUMPDEST PUSH1 0x0 DUP1 REVERT JUMPDEST PUSH2 0x1075 DUP2 PUSH2 0x1033 JUMP JUMPDEST DUP2 EQ PUSH2 0x1080 JUMPI PUSH1 0x0 DUP1 REVERT JUMPDEST POP JUMP JUMPDEST PUSH1 0x0 DUP2 CALLDATALOAD SWAP1 POP PUSH2 0x1092 DUP2 PUSH2 0x106C JUMP JUMPDEST SWAP3 SWAP2 POP POP JUMP JUMPDEST PUSH1 0x0 DUP1 PUSH1 0x40 DUP4 DUP6 SUB SLT ISZERO PUSH2 0x10AF JUMPI PUSH2 0x10AE PUSH2 0x1067 JUMP JUMPDEST JUMPDEST PUSH1 0x0 PUSH2 0x10BD DUP6 DUP3 DUP7 ADD PUSH2 0x1083 JUMP JUMPDEST SWAP3 POP POP PUSH1 0x20 PUSH2 0x10CE DUP6 DUP3 DUP7 ADD PUSH2 0x1083 JUMP JUMPDEST SWAP2 POP POP SWAP3 POP SWAP3 SWAP1 POP JUMP JUMPDEST PUSH1 0x0 PUSH1 0x40 DUP3 ADD SWAP1 POP PUSH2 0x10ED PUSH1 0x0 DUP4 ADD DUP6 PUSH2 0x1009 JUMP JUMPDEST PUSH2 0x10FA PUSH1 0x20 DUP4 ADD DUP5 PUSH2 0x1009 JUMP JUMPDEST SWAP4 SWAP3 POP POP POP JUMP JUMPDEST PUSH1 0x0 DUP2 MLOAD SWAP1 POP PUSH2 0x1110 DUP2 PUSH2 0x106C JUMP JUMPDEST SWAP3 SWAP2 POP POP JUMP JUMPDEST PUSH1 0x0 PUSH1 0x20 DUP3 DUP5 SUB SLT ISZERO PUSH2 0x112C JUMPI PUSH2 0x112B PUSH2 0x1067 JUMP JUMPDEST JUMPDEST PUSH1 0x0 PUSH2 0x113A DUP5 DUP3 DUP6 ADD PUSH2 0x1101 JUMP JUMPDEST SWAP2 POP POP SWAP3 SWAP2 POP POP JUMP JUMPDEST PUSH1 0x0 DUP3 DUP3 MSTORE PUSH1 0x20 DUP3 ADD SWAP1 POP SWAP3 SWAP2 POP POP JUMP JUMPDEST PUSH32 0x436F6E7472616374206E6F7420617070726F7665640000000000000000000000 PUSH1 0x0 DUP3 ADD MSTORE POP JUMP JUMPDEST PUSH1 0x0 PUSH2 0x118A PUSH1 0x15 DUP4 PUSH2 0x1143 JUMP JUMPDEST SWAP2 POP PUSH2 0x1195 DUP3 PUSH2 0x1154 JUMP JUMPDEST PUSH1 0x20 DUP3 ADD SWAP1 POP SWAP2 SWAP1 POP JUMP JUMPDEST PUSH1 0x0 PUSH1 0x20 DUP3 ADD SWAP1 POP DUP2 DUP2 SUB PUSH1 0x0 DUP4 ADD MSTORE PUSH2 0x11B9 DUP2 PUSH2 0x117D JUMP JUMPDEST SWAP1 POP SWAP2 SWAP1 POP JUMP JUMPDEST PUSH1 0x0 PUSH1 0x60 DUP3 ADD SWAP1 POP PUSH2 0x11D5 PUSH1 0x0 DUP4 ADD DUP7 PUSH2 0x1009 JUMP JUMPDEST PUSH2 0x11E2 PUSH1 0x20 DUP4 ADD DUP6 PUSH2 0x1009 JUMP JUMPDEST PUSH2 0x11EF PUSH1 0x40 DUP4 ADD DUP5 PUSH2 0x103D JUMP JUMPDEST SWAP5 SWAP4 POP POP POP POP JUMP JUMPDEST PUSH1 0x0 DUP2 ISZERO ISZERO SWAP1 POP SWAP2 SWAP1 POP JUMP JUMPDEST PUSH2 0x120C DUP2 PUSH2 0x11F7 JUMP JUMPDEST DUP2 EQ PUSH2 0x1217 JUMPI PUSH1 0x0 DUP1 REVERT JUMPDEST POP JUMP JUMPDEST PUSH1 0x0 DUP2 MLOAD SWAP1 POP PUSH2 0x1229 DUP2 PUSH2 0x1203 JUMP JUMPDEST SWAP3 SWAP2 POP POP JUMP JUMPDEST PUSH1 0x0 PUSH1 0x20 DUP3 DUP5 SUB SLT ISZERO PUSH2 0x1245 JUMPI PUSH2 0x1244 PUSH2 0x1067 JUMP JUMPDEST JUMPDEST PUSH1 0x0 PUSH2 0x1253 DUP5 DUP3 DUP6 ADD PUSH2 0x121A JUMP JUMPDEST SWAP2 POP POP SWAP3 SWAP2 POP POP JUMP JUMPDEST PUSH32 0x4E487B7100000000000000000000000000000000000000000000000000000000 PUSH1 0x0 MSTORE PUSH1 0x11 PUSH1 0x4 MSTORE PUSH1 0x24 PUSH1 0x0 REVERT JUMPDEST PUSH1 0x0 PUSH2 0x1296 DUP3 PUSH2 0x1033 JUMP JUMPDEST SWAP2 POP PUSH2 0x12A1 DUP4 PUSH2 0x1033 JUMP JUMPDEST SWAP3 POP DUP3 DUP3 MUL PUSH2 0x12AF DUP2 PUSH2 0x1033 JUMP JUMPDEST SWAP2 POP DUP3 DUP3 DIV DUP5 EQ DUP4 ISZERO OR PUSH2 0x12C6 JUMPI PUSH2 0x12C5 PUSH2 0x125C JUMP JUMPDEST JUMPDEST POP SWAP3 SWAP2 POP POP JUMP JUMPDEST PUSH1 0x0 PUSH1 0x40 DUP3 ADD SWAP1 POP PUSH2 0x12E2 PUSH1 0x0 DUP4 ADD DUP6 PUSH2 0x1009 JUMP JUMPDEST PUSH2 0x12EF PUSH1 0x20 DUP4 ADD DUP5 PUSH2 0x103D JUMP JUMPDEST SWAP4 SWAP3 POP POP POP JUMP JUMPDEST PUSH32 0x4E487B7100000000000000000000000000000000000000000000000000000000 PUSH1 0x0 MSTORE PUSH1 0x12 PUSH1 0x4 MSTORE PUSH1 0x24 PUSH1 0x0 REVERT JUMPDEST PUSH1 0x0 PUSH2 0x1330 DUP3 PUSH2 0x1033 JUMP JUMPDEST SWAP2 POP PUSH2 0x133B DUP4 PUSH2 0x1033 JUMP JUMPDEST SWAP3 POP DUP3 PUSH2 0x134B JUMPI PUSH2 0x134A PUSH2 0x12F6 JUMP JUMPDEST JUMPDEST DUP3 DUP3 DIV SWAP1 POP SWAP3 SWAP2 POP POP JUMP JUMPDEST PUSH1 0x0 PUSH2 0x1361 DUP3 PUSH2 0x1033 JUMP JUMPDEST SWAP2 POP PUSH2 0x136C DUP4 PUSH2 0x1033 JUMP JUMPDEST SWAP3 POP DUP3 DUP3 ADD SWAP1 POP DUP1 DUP3 GT ISZERO PUSH2 0x1384 JUMPI PUSH2 0x1383 PUSH2 0x125C JUMP JUMPDEST JUMPDEST SWAP3 SWAP2 POP POP JUMP JUMPDEST PUSH1 0x0 PUSH2 0x1395 DUP3 PUSH2 0x1033 JUMP JUMPDEST SWAP2 POP PUSH2 0x13A0 DUP4 PUSH2 0x1033 JUMP JUMPDEST SWAP3 POP DUP3 DUP3 SUB SWAP1 POP DUP2 DUP2 GT ISZERO PUSH2 0x13B8 JUMPI PUSH2 0x13B7 PUSH2 0x125C JUMP JUMPDEST JUMPDEST SWAP3 SWAP2 POP POP JUMP INVALID LOG2 PUSH5 0x6970667358 0x22 SLT KECCAK256 0xD6 0xEE BALANCE LOG0 EXTCODECOPY DUP7 0xDE 0xB0 0xBC CALLDATACOPY 0xC4 0xD8 0x2B DUP11 CALLDATACOPY PUSH3 0x6F5548 0xA5 0x24 0xBD MUL 0xCD 0xB1 ADD SWAP11 DUP9 0xE7 PUSH8 0x76BB64736F6C6343 STOP ADDMOD GT STOP CALLER "
				},
				"gasEstimates": {
					"creation": {
						"codeDepositCost": "1021600",
						"executionCost": "infinite",
						"totalCost": "infinite"
					},
					"external": {
						"kLast()": "2518",
						"ltrAddress()": "infinite",
						"price0()": "2451",
						"price1()": "2496",
						"provideLiquidity(uint256,uint256)": "infinite",
						"reserve0()": "2452",
						"reserve1()": "2474",
						"swap(uint256,uint256)": "infinite",
						"token0()": "infinite",
						"token1()": "infinite"
					},
					"internal": {
						"get0(uint256)": "infinite",
						"get1(uint256)": "infinite",
						"update()": "infinite"
					}
				},
				"methodIdentifiers": {
					"kLast()": "7464fc3d",
					"ltrAddress()": "ba9c6845",
					"price0()": "a0a986f1",
					"price1()": "6caf25ce",
					"provideLiquidity(uint256,uint256)": "7a16af7f",
					"reserve0()": "443cb4bc",
					"reserve1()": "5a76f25e",
					"swap(uint256,uint256)": "d96073cf",
					"token0()": "0dfe1681",
					"token1()": "d21220a7"
				}
			},
			"storageLayout": {
				"storage": [
					{
						"astId": 593,
						"contract": "contracts/Pool.sol:Pool",
						"label": "kLast",
						"offset": 0,
						"slot": "0",
						"type": "t_uint256"
					},
					{
						"astId": 595,
						"contract": "contracts/Pool.sol:Pool",
						"label": "reserve0",
						"offset": 0,
						"slot": "1",
						"type": "t_uint256"
					},
					{
						"astId": 597,
						"contract": "contracts/Pool.sol:Pool",
						"label": "reserve1",
						"offset": 0,
						"slot": "2",
						"type": "t_uint256"
					},
					{
						"astId": 599,
						"contract": "contracts/Pool.sol:Pool",
						"label": "price0",
						"offset": 0,
						"slot": "3",
						"type": "t_uint256"
					},
					{
						"astId": 601,
						"contract": "contracts/Pool.sol:Pool",
						"label": "price1",
						"offset": 0,
						"slot": "4",
						"type": "t_uint256"
					}
				],
				"types": {
					"t_uint256": {
						"encoding": "inplace",
						"label": "uint256",
						"numberOfBytes": "32"
					}
				}
			},
			"userdoc": {
				"kind": "user",
				"methods": {},
				"version": 1
			}
		}
	}
}