{
	"contracts/factory.sol": {
		"Bot": {
			"abi": [
				{
					"inputs": [
						{
							"internalType": "contract Storage",
							"name": "addr",
							"type": "address"
						}
					],
					"stateMutability": "nonpayable",
					"type": "constructor"
				},
				{
					"anonymous": false,
					"inputs": [
						{
							"indexed": false,
							"internalType": "address",
							"name": "_from",
							"type": "address"
						}
					],
					"name": "Caller",
					"type": "event"
				},
				{
					"inputs": [],
					"name": "getVal",
					"outputs": [
						{
							"internalType": "uint256",
							"name": "",
							"type": "uint256"
						}
					],
					"stateMutability": "view",
					"type": "function"
				},
				{
					"inputs": [],
					"name": "s",
					"outputs": [
						{
							"internalType": "contract Storage",
							"name": "",
							"type": "address"
						}
					],
					"stateMutability": "view",
					"type": "function"
				},
				{
					"inputs": [
						{
							"internalType": "uint256",
							"name": "x",
							"type": "uint256"
						}
					],
					"name": "storeVal",
					"outputs": [],
					"stateMutability": "nonpayable",
					"type": "function"
				}
			],
			"devdoc": {
				"kind": "dev",
				"methods": {},
				"version": 1
			},
			"evm": {
				"assembly": "    /* \"contracts/factory.sol\":89:459  contract Bot {... */\n  mstore(0x40, 0x80)\n    /* \"contracts/factory.sol\":134:186  constructor(Storage addr){... */\n  callvalue\n  dup1\n  iszero\n  tag_1\n  jumpi\n  0x00\n  dup1\n  revert\ntag_1:\n  pop\n  mload(0x40)\n  sub(codesize, bytecodeSize)\n  dup1\n  bytecodeSize\n  dup4\n  codecopy\n  dup2\n  dup2\n  add\n  0x40\n  mstore\n  dup2\n  add\n  swap1\n  tag_2\n  swap2\n  swap1\n  tag_3\n  jump\t// in\ntag_2:\n    /* \"contracts/factory.sol\":174:178  addr */\n  dup1\n    /* \"contracts/factory.sol\":170:171  s */\n  0x00\n  dup1\n    /* \"contracts/factory.sol\":170:178  s = addr */\n  0x0100\n  exp\n  dup2\n  sload\n  dup2\n  0xffffffffffffffffffffffffffffffffffffffff\n  mul\n  not\n  and\n  swap1\n  dup4\n  0xffffffffffffffffffffffffffffffffffffffff\n  and\n  mul\n  or\n  swap1\n  sstore\n  pop\n    /* \"contracts/factory.sol\":134:186  constructor(Storage addr){... */\n  pop\n    /* \"contracts/factory.sol\":89:459  contract Bot {... */\n  jump(tag_6)\n    /* \"#utility.yul\":88:205   */\ntag_8:\n    /* \"#utility.yul\":197:198   */\n  0x00\n    /* \"#utility.yul\":194:195   */\n  dup1\n    /* \"#utility.yul\":187:199   */\n  revert\n    /* \"#utility.yul\":334:460   */\ntag_10:\n    /* \"#utility.yul\":371:378   */\n  0x00\n    /* \"#utility.yul\":411:453   */\n  0xffffffffffffffffffffffffffffffffffffffff\n    /* \"#utility.yul\":404:409   */\n  dup3\n    /* \"#utility.yul\":400:454   */\n  and\n    /* \"#utility.yul\":389:454   */\n  swap1\n  pop\n    /* \"#utility.yul\":334:460   */\n  swap2\n  swap1\n  pop\n  jump\t// out\n    /* \"#utility.yul\":466:562   */\ntag_11:\n    /* \"#utility.yul\":503:510   */\n  0x00\n    /* \"#utility.yul\":532:556   */\n  tag_21\n    /* \"#utility.yul\":550:555   */\n  dup3\n    /* \"#utility.yul\":532:556   */\n  tag_10\n  jump\t// in\ntag_21:\n    /* \"#utility.yul\":521:556   */\n  swap1\n  pop\n    /* \"#utility.yul\":466:562   */\n  swap2\n  swap1\n  pop\n  jump\t// out\n    /* \"#utility.yul\":568:678   */\ntag_12:\n    /* \"#utility.yul\":619:626   */\n  0x00\n    /* \"#utility.yul\":648:672   */\n  tag_23\n    /* \"#utility.yul\":666:671   */\n  dup3\n    /* \"#utility.yul\":648:672   */\n  tag_11\n  jump\t// in\ntag_23:\n    /* \"#utility.yul\":637:672   */\n  swap1\n  pop\n    /* \"#utility.yul\":568:678   */\n  swap2\n  swap1\n  pop\n  jump\t// out\n    /* \"#utility.yul\":684:834   */\ntag_13:\n    /* \"#utility.yul\":771:809   */\n  tag_25\n    /* \"#utility.yul\":803:808   */\n  dup2\n    /* \"#utility.yul\":771:809   */\n  tag_12\n  jump\t// in\ntag_25:\n    /* \"#utility.yul\":764:769   */\n  dup2\n    /* \"#utility.yul\":761:810   */\n  eq\n    /* \"#utility.yul\":751:828   */\n  tag_26\n  jumpi\n    /* \"#utility.yul\":824:825   */\n  0x00\n    /* \"#utility.yul\":821:822   */\n  dup1\n    /* \"#utility.yul\":814:826   */\n  revert\n    /* \"#utility.yul\":751:828   */\ntag_26:\n    /* \"#utility.yul\":684:834   */\n  pop\n  jump\t// out\n    /* \"#utility.yul\":840:1011   */\ntag_14:\n    /* \"#utility.yul\":911:916   */\n  0x00\n    /* \"#utility.yul\":942:948   */\n  dup2\n    /* \"#utility.yul\":936:949   */\n  mload\n    /* \"#utility.yul\":927:949   */\n  swap1\n  pop\n    /* \"#utility.yul\":958:1005   */\n  tag_28\n    /* \"#utility.yul\":999:1004   */\n  dup2\n    /* \"#utility.yul\":958:1005   */\n  tag_13\n  jump\t// in\ntag_28:\n    /* \"#utility.yul\":840:1011   */\n  swap3\n  swap2\n  pop\n  pop\n  jump\t// out\n    /* \"#utility.yul\":1017:1396   */\ntag_3:\n    /* \"#utility.yul\":1101:1107   */\n  0x00\n    /* \"#utility.yul\":1150:1152   */\n  0x20\n    /* \"#utility.yul\":1138:1147   */\n  dup3\n    /* \"#utility.yul\":1129:1136   */\n  dup5\n    /* \"#utility.yul\":1125:1148   */\n  sub\n    /* \"#utility.yul\":1121:1153   */\n  slt\n    /* \"#utility.yul\":1118:1237   */\n  iszero\n  tag_30\n  jumpi\n    /* \"#utility.yul\":1156:1235   */\n  tag_31\n  tag_8\n  jump\t// in\ntag_31:\n    /* \"#utility.yul\":1118:1237   */\ntag_30:\n    /* \"#utility.yul\":1276:1277   */\n  0x00\n    /* \"#utility.yul\":1301:1379   */\n  tag_32\n    /* \"#utility.yul\":1371:1378   */\n  dup5\n    /* \"#utility.yul\":1362:1368   */\n  dup3\n    /* \"#utility.yul\":1351:1360   */\n  dup6\n    /* \"#utility.yul\":1347:1369   */\n  add\n    /* \"#utility.yul\":1301:1379   */\n  tag_14\n  jump\t// in\ntag_32:\n    /* \"#utility.yul\":1291:1379   */\n  swap2\n  pop\n    /* \"#utility.yul\":1247:1389   */\n  pop\n    /* \"#utility.yul\":1017:1396   */\n  swap3\n  swap2\n  pop\n  pop\n  jump\t// out\n    /* \"contracts/factory.sol\":89:459  contract Bot {... */\ntag_6:\n  dataSize(sub_0)\n  dup1\n  dataOffset(sub_0)\n  0x00\n  codecopy\n  0x00\n  return\nstop\n\nsub_0: assembly {\n        /* \"contracts/factory.sol\":89:459  contract Bot {... */\n      mstore(0x40, 0x80)\n      callvalue\n      dup1\n      iszero\n      tag_1\n      jumpi\n      0x00\n      dup1\n      revert\n    tag_1:\n      pop\n      jumpi(tag_2, lt(calldatasize, 0x04))\n      shr(0xe0, calldataload(0x00))\n      dup1\n      0x86b714e2\n      eq\n      tag_3\n      jumpi\n      dup1\n      0xc6626615\n      eq\n      tag_4\n      jumpi\n      dup1\n      0xe1cb0e52\n      eq\n      tag_5\n      jumpi\n    tag_2:\n      0x00\n      dup1\n      revert\n        /* \"contracts/factory.sol\":109:125  Storage public s */\n    tag_3:\n      tag_6\n      tag_7\n      jump\t// in\n    tag_6:\n      mload(0x40)\n      tag_8\n      swap2\n      swap1\n      tag_9\n      jump\t// in\n    tag_8:\n      mload(0x40)\n      dup1\n      swap2\n      sub\n      swap1\n      return\n        /* \"contracts/factory.sol\":230:329  function storeVal(uint256 x) public {... */\n    tag_4:\n      tag_10\n      0x04\n      dup1\n      calldatasize\n      sub\n      dup2\n      add\n      swap1\n      tag_11\n      swap2\n      swap1\n      tag_12\n      jump\t// in\n    tag_11:\n      tag_13\n      jump\t// in\n    tag_10:\n      stop\n        /* \"contracts/factory.sol\":337:456  function getVal() public view returns(uint256) {... */\n    tag_5:\n      tag_14\n      tag_15\n      jump\t// in\n    tag_14:\n      mload(0x40)\n      tag_16\n      swap2\n      swap1\n      tag_17\n      jump\t// in\n    tag_16:\n      mload(0x40)\n      dup1\n      swap2\n      sub\n      swap1\n      return\n        /* \"contracts/factory.sol\":109:125  Storage public s */\n    tag_7:\n      0x00\n      dup1\n      sload\n      swap1\n      0x0100\n      exp\n      swap1\n      div\n      0xffffffffffffffffffffffffffffffffffffffff\n      and\n      dup2\n      jump\t// out\n        /* \"contracts/factory.sol\":230:329  function storeVal(uint256 x) public {... */\n    tag_13:\n        /* \"contracts/factory.sol\":277:278  s */\n      0x00\n      dup1\n      sload\n      swap1\n      0x0100\n      exp\n      swap1\n      div\n      0xffffffffffffffffffffffffffffffffffffffff\n      and\n        /* \"contracts/factory.sol\":277:284  s.store */\n      0xffffffffffffffffffffffffffffffffffffffff\n      and\n      0x6057361d\n        /* \"contracts/factory.sol\":285:286  x */\n      dup3\n        /* \"contracts/factory.sol\":277:287  s.store(x) */\n      mload(0x40)\n      dup3\n      0xffffffff\n      and\n      0xe0\n      shl\n      dup2\n      mstore\n      0x04\n      add\n      tag_19\n      swap2\n      swap1\n      tag_17\n      jump\t// in\n    tag_19:\n      0x00\n      mload(0x40)\n      dup1\n      dup4\n      sub\n      dup2\n      0x00\n      dup8\n      dup1\n      extcodesize\n      iszero\n      dup1\n      iszero\n      tag_20\n      jumpi\n      0x00\n      dup1\n      revert\n    tag_20:\n      pop\n      gas\n      call\n      iszero\n      dup1\n      iszero\n      tag_22\n      jumpi\n      returndatasize\n      0x00\n      dup1\n      returndatacopy\n      revert(0x00, returndatasize)\n    tag_22:\n      pop\n      pop\n      pop\n      pop\n        /* \"contracts/factory.sol\":303:321  Caller(msg.sender) */\n      0x20f727e2e534ee85bce2bd7f2517088456c3f2040194b18a6c3da3fee1a02adf\n        /* \"contracts/factory.sol\":310:320  msg.sender */\n      caller\n        /* \"contracts/factory.sol\":303:321  Caller(msg.sender) */\n      mload(0x40)\n      tag_23\n      swap2\n      swap1\n      tag_24\n      jump\t// in\n    tag_23:\n      mload(0x40)\n      dup1\n      swap2\n      sub\n      swap1\n      log1\n        /* \"contracts/factory.sol\":230:329  function storeVal(uint256 x) public {... */\n      pop\n      jump\t// out\n        /* \"contracts/factory.sol\":337:456  function getVal() public view returns(uint256) {... */\n    tag_15:\n        /* \"contracts/factory.sol\":375:382  uint256 */\n      0x00\n        /* \"contracts/factory.sol\":395:409  uint256 stored */\n      dup1\n        /* \"contracts/factory.sol\":412:413  s */\n      0x00\n      dup1\n      sload\n      swap1\n      0x0100\n      exp\n      swap1\n      div\n      0xffffffffffffffffffffffffffffffffffffffff\n      and\n        /* \"contracts/factory.sol\":412:422  s.retrieve */\n      0xffffffffffffffffffffffffffffffffffffffff\n      and\n      0x2e64cec1\n        /* \"contracts/factory.sol\":412:424  s.retrieve() */\n      mload(0x40)\n      dup2\n      0xffffffff\n      and\n      0xe0\n      shl\n      dup2\n      mstore\n      0x04\n      add\n      0x20\n      mload(0x40)\n      dup1\n      dup4\n      sub\n      dup2\n      dup7\n      gas\n      staticcall\n      iszero\n      dup1\n      iszero\n      tag_27\n      jumpi\n      returndatasize\n      0x00\n      dup1\n      returndatacopy\n      revert(0x00, returndatasize)\n    tag_27:\n      pop\n      pop\n      pop\n      pop\n      mload(0x40)\n      returndatasize\n      not(0x1f)\n      0x1f\n      dup3\n      add\n      and\n      dup3\n      add\n      dup1\n      0x40\n      mstore\n      pop\n      dup2\n      add\n      swap1\n      tag_28\n      swap2\n      swap1\n      tag_29\n      jump\t// in\n    tag_28:\n        /* \"contracts/factory.sol\":395:424  uint256 stored = s.retrieve() */\n      swap1\n      pop\n        /* \"contracts/factory.sol\":442:448  stored */\n      dup1\n        /* \"contracts/factory.sol\":435:448  return stored */\n      swap2\n      pop\n      pop\n        /* \"contracts/factory.sol\":337:456  function getVal() public view returns(uint256) {... */\n      swap1\n      jump\t// out\n        /* \"#utility.yul\":7:133   */\n    tag_30:\n        /* \"#utility.yul\":44:51   */\n      0x00\n        /* \"#utility.yul\":84:126   */\n      0xffffffffffffffffffffffffffffffffffffffff\n        /* \"#utility.yul\":77:82   */\n      dup3\n        /* \"#utility.yul\":73:127   */\n      and\n        /* \"#utility.yul\":62:127   */\n      swap1\n      pop\n        /* \"#utility.yul\":7:133   */\n      swap2\n      swap1\n      pop\n      jump\t// out\n        /* \"#utility.yul\":139:199   */\n    tag_31:\n        /* \"#utility.yul\":167:170   */\n      0x00\n        /* \"#utility.yul\":188:193   */\n      dup2\n        /* \"#utility.yul\":181:193   */\n      swap1\n      pop\n        /* \"#utility.yul\":139:199   */\n      swap2\n      swap1\n      pop\n      jump\t// out\n        /* \"#utility.yul\":205:347   */\n    tag_32:\n        /* \"#utility.yul\":255:264   */\n      0x00\n        /* \"#utility.yul\":288:341   */\n      tag_50\n        /* \"#utility.yul\":306:340   */\n      tag_51\n        /* \"#utility.yul\":315:339   */\n      tag_52\n        /* \"#utility.yul\":333:338   */\n      dup5\n        /* \"#utility.yul\":315:339   */\n      tag_30\n      jump\t// in\n    tag_52:\n        /* \"#utility.yul\":306:340   */\n      tag_31\n      jump\t// in\n    tag_51:\n        /* \"#utility.yul\":288:341   */\n      tag_30\n      jump\t// in\n    tag_50:\n        /* \"#utility.yul\":275:341   */\n      swap1\n      pop\n        /* \"#utility.yul\":205:347   */\n      swap2\n      swap1\n      pop\n      jump\t// out\n        /* \"#utility.yul\":353:479   */\n    tag_33:\n        /* \"#utility.yul\":403:412   */\n      0x00\n        /* \"#utility.yul\":436:473   */\n      tag_54\n        /* \"#utility.yul\":467:472   */\n      dup3\n        /* \"#utility.yul\":436:473   */\n      tag_32\n      jump\t// in\n    tag_54:\n        /* \"#utility.yul\":423:473   */\n      swap1\n      pop\n        /* \"#utility.yul\":353:479   */\n      swap2\n      swap1\n      pop\n      jump\t// out\n        /* \"#utility.yul\":485:625   */\n    tag_34:\n        /* \"#utility.yul\":549:558   */\n      0x00\n        /* \"#utility.yul\":582:619   */\n      tag_56\n        /* \"#utility.yul\":613:618   */\n      dup3\n        /* \"#utility.yul\":582:619   */\n      tag_33\n      jump\t// in\n    tag_56:\n        /* \"#utility.yul\":569:619   */\n      swap1\n      pop\n        /* \"#utility.yul\":485:625   */\n      swap2\n      swap1\n      pop\n      jump\t// out\n        /* \"#utility.yul\":631:790   */\n    tag_35:\n        /* \"#utility.yul\":732:783   */\n      tag_58\n        /* \"#utility.yul\":777:782   */\n      dup2\n        /* \"#utility.yul\":732:783   */\n      tag_34\n      jump\t// in\n    tag_58:\n        /* \"#utility.yul\":727:730   */\n      dup3\n        /* \"#utility.yul\":720:784   */\n      mstore\n        /* \"#utility.yul\":631:790   */\n      pop\n      pop\n      jump\t// out\n        /* \"#utility.yul\":796:1046   */\n    tag_9:\n        /* \"#utility.yul\":903:907   */\n      0x00\n        /* \"#utility.yul\":941:943   */\n      0x20\n        /* \"#utility.yul\":930:939   */\n      dup3\n        /* \"#utility.yul\":926:944   */\n      add\n        /* \"#utility.yul\":918:944   */\n      swap1\n      pop\n        /* \"#utility.yul\":954:1039   */\n      tag_60\n        /* \"#utility.yul\":1036:1037   */\n      0x00\n        /* \"#utility.yul\":1025:1034   */\n      dup4\n        /* \"#utility.yul\":1021:1038   */\n      add\n        /* \"#utility.yul\":1012:1018   */\n      dup5\n        /* \"#utility.yul\":954:1039   */\n      tag_35\n      jump\t// in\n    tag_60:\n        /* \"#utility.yul\":796:1046   */\n      swap3\n      swap2\n      pop\n      pop\n      jump\t// out\n        /* \"#utility.yul\":1133:1250   */\n    tag_37:\n        /* \"#utility.yul\":1242:1243   */\n      0x00\n        /* \"#utility.yul\":1239:1240   */\n      dup1\n        /* \"#utility.yul\":1232:1244   */\n      revert\n        /* \"#utility.yul\":1379:1456   */\n    tag_39:\n        /* \"#utility.yul\":1416:1423   */\n      0x00\n        /* \"#utility.yul\":1445:1450   */\n      dup2\n        /* \"#utility.yul\":1434:1450   */\n      swap1\n      pop\n        /* \"#utility.yul\":1379:1456   */\n      swap2\n      swap1\n      pop\n      jump\t// out\n        /* \"#utility.yul\":1462:1584   */\n    tag_40:\n        /* \"#utility.yul\":1535:1559   */\n      tag_66\n        /* \"#utility.yul\":1553:1558   */\n      dup2\n        /* \"#utility.yul\":1535:1559   */\n      tag_39\n      jump\t// in\n    tag_66:\n        /* \"#utility.yul\":1528:1533   */\n      dup2\n        /* \"#utility.yul\":1525:1560   */\n      eq\n        /* \"#utility.yul\":1515:1578   */\n      tag_67\n      jumpi\n        /* \"#utility.yul\":1574:1575   */\n      0x00\n        /* \"#utility.yul\":1571:1572   */\n      dup1\n        /* \"#utility.yul\":1564:1576   */\n      revert\n        /* \"#utility.yul\":1515:1578   */\n    tag_67:\n        /* \"#utility.yul\":1462:1584   */\n      pop\n      jump\t// out\n        /* \"#utility.yul\":1590:1729   */\n    tag_41:\n        /* \"#utility.yul\":1636:1641   */\n      0x00\n        /* \"#utility.yul\":1674:1680   */\n      dup2\n        /* \"#utility.yul\":1661:1681   */\n      calldataload\n        /* \"#utility.yul\":1652:1681   */\n      swap1\n      pop\n        /* \"#utility.yul\":1690:1723   */\n      tag_69\n        /* \"#utility.yul\":1717:1722   */\n      dup2\n        /* \"#utility.yul\":1690:1723   */\n      tag_40\n      jump\t// in\n    tag_69:\n        /* \"#utility.yul\":1590:1729   */\n      swap3\n      swap2\n      pop\n      pop\n      jump\t// out\n        /* \"#utility.yul\":1735:2064   */\n    tag_12:\n        /* \"#utility.yul\":1794:1800   */\n      0x00\n        /* \"#utility.yul\":1843:1845   */\n      0x20\n        /* \"#utility.yul\":1831:1840   */\n      dup3\n        /* \"#utility.yul\":1822:1829   */\n      dup5\n        /* \"#utility.yul\":1818:1841   */\n      sub\n        /* \"#utility.yul\":1814:1846   */\n      slt\n        /* \"#utility.yul\":1811:1930   */\n      iszero\n      tag_71\n      jumpi\n        /* \"#utility.yul\":1849:1928   */\n      tag_72\n      tag_37\n      jump\t// in\n    tag_72:\n        /* \"#utility.yul\":1811:1930   */\n    tag_71:\n        /* \"#utility.yul\":1969:1970   */\n      0x00\n        /* \"#utility.yul\":1994:2047   */\n      tag_73\n        /* \"#utility.yul\":2039:2046   */\n      dup5\n        /* \"#utility.yul\":2030:2036   */\n      dup3\n        /* \"#utility.yul\":2019:2028   */\n      dup6\n        /* \"#utility.yul\":2015:2037   */\n      add\n        /* \"#utility.yul\":1994:2047   */\n      tag_41\n      jump\t// in\n    tag_73:\n        /* \"#utility.yul\":1984:2047   */\n      swap2\n      pop\n        /* \"#utility.yul\":1940:2057   */\n      pop\n        /* \"#utility.yul\":1735:2064   */\n      swap3\n      swap2\n      pop\n      pop\n      jump\t// out\n        /* \"#utility.yul\":2070:2188   */\n    tag_42:\n        /* \"#utility.yul\":2157:2181   */\n      tag_75\n        /* \"#utility.yul\":2175:2180   */\n      dup2\n        /* \"#utility.yul\":2157:2181   */\n      tag_39\n      jump\t// in\n    tag_75:\n        /* \"#utility.yul\":2152:2155   */\n      dup3\n        /* \"#utility.yul\":2145:2182   */\n      mstore\n        /* \"#utility.yul\":2070:2188   */\n      pop\n      pop\n      jump\t// out\n        /* \"#utility.yul\":2194:2416   */\n    tag_17:\n        /* \"#utility.yul\":2287:2291   */\n      0x00\n        /* \"#utility.yul\":2325:2327   */\n      0x20\n        /* \"#utility.yul\":2314:2323   */\n      dup3\n        /* \"#utility.yul\":2310:2328   */\n      add\n        /* \"#utility.yul\":2302:2328   */\n      swap1\n      pop\n        /* \"#utility.yul\":2338:2409   */\n      tag_77\n        /* \"#utility.yul\":2406:2407   */\n      0x00\n        /* \"#utility.yul\":2395:2404   */\n      dup4\n        /* \"#utility.yul\":2391:2408   */\n      add\n        /* \"#utility.yul\":2382:2388   */\n      dup5\n        /* \"#utility.yul\":2338:2409   */\n      tag_42\n      jump\t// in\n    tag_77:\n        /* \"#utility.yul\":2194:2416   */\n      swap3\n      swap2\n      pop\n      pop\n      jump\t// out\n        /* \"#utility.yul\":2422:2518   */\n    tag_43:\n        /* \"#utility.yul\":2459:2466   */\n      0x00\n        /* \"#utility.yul\":2488:2512   */\n      tag_79\n        /* \"#utility.yul\":2506:2511   */\n      dup3\n        /* \"#utility.yul\":2488:2512   */\n      tag_30\n      jump\t// in\n    tag_79:\n        /* \"#utility.yul\":2477:2512   */\n      swap1\n      pop\n        /* \"#utility.yul\":2422:2518   */\n      swap2\n      swap1\n      pop\n      jump\t// out\n        /* \"#utility.yul\":2524:2642   */\n    tag_44:\n        /* \"#utility.yul\":2611:2635   */\n      tag_81\n        /* \"#utility.yul\":2629:2634   */\n      dup2\n        /* \"#utility.yul\":2611:2635   */\n      tag_43\n      jump\t// in\n    tag_81:\n        /* \"#utility.yul\":2606:2609   */\n      dup3\n        /* \"#utility.yul\":2599:2636   */\n      mstore\n        /* \"#utility.yul\":2524:2642   */\n      pop\n      pop\n      jump\t// out\n        /* \"#utility.yul\":2648:2870   */\n    tag_24:\n        /* \"#utility.yul\":2741:2745   */\n      0x00\n        /* \"#utility.yul\":2779:2781   */\n      0x20\n        /* \"#utility.yul\":2768:2777   */\n      dup3\n        /* \"#utility.yul\":2764:2782   */\n      add\n        /* \"#utility.yul\":2756:2782   */\n      swap1\n      pop\n        /* \"#utility.yul\":2792:2863   */\n      tag_83\n        /* \"#utility.yul\":2860:2861   */\n      0x00\n        /* \"#utility.yul\":2849:2858   */\n      dup4\n        /* \"#utility.yul\":2845:2862   */\n      add\n        /* \"#utility.yul\":2836:2842   */\n      dup5\n        /* \"#utility.yul\":2792:2863   */\n      tag_44\n      jump\t// in\n    tag_83:\n        /* \"#utility.yul\":2648:2870   */\n      swap3\n      swap2\n      pop\n      pop\n      jump\t// out\n        /* \"#utility.yul\":2876:3019   */\n    tag_45:\n        /* \"#utility.yul\":2933:2938   */\n      0x00\n        /* \"#utility.yul\":2964:2970   */\n      dup2\n        /* \"#utility.yul\":2958:2971   */\n      mload\n        /* \"#utility.yul\":2949:2971   */\n      swap1\n      pop\n        /* \"#utility.yul\":2980:3013   */\n      tag_85\n        /* \"#utility.yul\":3007:3012   */\n      dup2\n        /* \"#utility.yul\":2980:3013   */\n      tag_40\n      jump\t// in\n    tag_85:\n        /* \"#utility.yul\":2876:3019   */\n      swap3\n      swap2\n      pop\n      pop\n      jump\t// out\n        /* \"#utility.yul\":3025:3376   */\n    tag_29:\n        /* \"#utility.yul\":3095:3101   */\n      0x00\n        /* \"#utility.yul\":3144:3146   */\n      0x20\n        /* \"#utility.yul\":3132:3141   */\n      dup3\n        /* \"#utility.yul\":3123:3130   */\n      dup5\n        /* \"#utility.yul\":3119:3142   */\n      sub\n        /* \"#utility.yul\":3115:3147   */\n      slt\n        /* \"#utility.yul\":3112:3231   */\n      iszero\n      tag_87\n      jumpi\n        /* \"#utility.yul\":3150:3229   */\n      tag_88\n      tag_37\n      jump\t// in\n    tag_88:\n        /* \"#utility.yul\":3112:3231   */\n    tag_87:\n        /* \"#utility.yul\":3270:3271   */\n      0x00\n        /* \"#utility.yul\":3295:3359   */\n      tag_89\n        /* \"#utility.yul\":3351:3358   */\n      dup5\n        /* \"#utility.yul\":3342:3348   */\n      dup3\n        /* \"#utility.yul\":3331:3340   */\n      dup6\n        /* \"#utility.yul\":3327:3349   */\n      add\n        /* \"#utility.yul\":3295:3359   */\n      tag_45\n      jump\t// in\n    tag_89:\n        /* \"#utility.yul\":3285:3359   */\n      swap2\n      pop\n        /* \"#utility.yul\":3241:3369   */\n      pop\n        /* \"#utility.yul\":3025:3376   */\n      swap3\n      swap2\n      pop\n      pop\n      jump\t// out\n\n    auxdata: 0xa26469706673582212202405c6af2554ddef4663cff14c6555a3f183e26bcee5c02995847ba525b7450164736f6c634300080b0033\n}\n",
				"bytecode": {
					"linkReferences": {},
					"object": "608060405234801561001057600080fd5b5060405161052b38038061052b833981810160405281019061003291906100ed565b806000806101000a81548173ffffffffffffffffffffffffffffffffffffffff021916908373ffffffffffffffffffffffffffffffffffffffff1602179055505061011a565b600080fd5b600073ffffffffffffffffffffffffffffffffffffffff82169050919050565b60006100a88261007d565b9050919050565b60006100ba8261009d565b9050919050565b6100ca816100af565b81146100d557600080fd5b50565b6000815190506100e7816100c1565b92915050565b60006020828403121561010357610102610078565b5b6000610111848285016100d8565b91505092915050565b610402806101296000396000f3fe608060405234801561001057600080fd5b50600436106100415760003560e01c806386b714e214610046578063c662661514610064578063e1cb0e5214610080575b600080fd5b61004e61009e565b60405161005b91906102a1565b60405180910390f35b61007e600480360381019061007991906102f7565b6100c2565b005b610088610187565b6040516100959190610333565b60405180910390f35b60008054906101000a900473ffffffffffffffffffffffffffffffffffffffff1681565b60008054906101000a900473ffffffffffffffffffffffffffffffffffffffff1673ffffffffffffffffffffffffffffffffffffffff16636057361d826040518263ffffffff1660e01b815260040161011b9190610333565b600060405180830381600087803b15801561013557600080fd5b505af1158015610149573d6000803e3d6000fd5b505050507f20f727e2e534ee85bce2bd7f2517088456c3f2040194b18a6c3da3fee1a02adf3360405161017c919061036f565b60405180910390a150565b60008060008054906101000a900473ffffffffffffffffffffffffffffffffffffffff1673ffffffffffffffffffffffffffffffffffffffff16632e64cec16040518163ffffffff1660e01b8152600401602060405180830381865afa1580156101f5573d6000803e3d6000fd5b505050506040513d601f19601f82011682018060405250810190610219919061039f565b90508091505090565b600073ffffffffffffffffffffffffffffffffffffffff82169050919050565b6000819050919050565b600061026761026261025d84610222565b610242565b610222565b9050919050565b60006102798261024c565b9050919050565b600061028b8261026e565b9050919050565b61029b81610280565b82525050565b60006020820190506102b66000830184610292565b92915050565b600080fd5b6000819050919050565b6102d4816102c1565b81146102df57600080fd5b50565b6000813590506102f1816102cb565b92915050565b60006020828403121561030d5761030c6102bc565b5b600061031b848285016102e2565b91505092915050565b61032d816102c1565b82525050565b60006020820190506103486000830184610324565b92915050565b600061035982610222565b9050919050565b6103698161034e565b82525050565b60006020820190506103846000830184610360565b92915050565b600081519050610399816102cb565b92915050565b6000602082840312156103b5576103b46102bc565b5b60006103c38482850161038a565b9150509291505056fea26469706673582212202405c6af2554ddef4663cff14c6555a3f183e26bcee5c02995847ba525b7450164736f6c634300080b0033",
					"opcodes": "PUSH1 0x80 PUSH1 0x40 MSTORE CALLVALUE DUP1 ISZERO PUSH2 0x10 JUMPI PUSH1 0x0 DUP1 REVERT JUMPDEST POP PUSH1 0x40 MLOAD PUSH2 0x52B CODESIZE SUB DUP1 PUSH2 0x52B DUP4 CODECOPY DUP2 DUP2 ADD PUSH1 0x40 MSTORE DUP2 ADD SWAP1 PUSH2 0x32 SWAP2 SWAP1 PUSH2 0xED JUMP JUMPDEST DUP1 PUSH1 0x0 DUP1 PUSH2 0x100 EXP DUP2 SLOAD DUP2 PUSH20 0xFFFFFFFFFFFFFFFFFFFFFFFFFFFFFFFFFFFFFFFF MUL NOT AND SWAP1 DUP4 PUSH20 0xFFFFFFFFFFFFFFFFFFFFFFFFFFFFFFFFFFFFFFFF AND MUL OR SWAP1 SSTORE POP POP PUSH2 0x11A JUMP JUMPDEST PUSH1 0x0 DUP1 REVERT JUMPDEST PUSH1 0x0 PUSH20 0xFFFFFFFFFFFFFFFFFFFFFFFFFFFFFFFFFFFFFFFF DUP3 AND SWAP1 POP SWAP2 SWAP1 POP JUMP JUMPDEST PUSH1 0x0 PUSH2 0xA8 DUP3 PUSH2 0x7D JUMP JUMPDEST SWAP1 POP SWAP2 SWAP1 POP JUMP JUMPDEST PUSH1 0x0 PUSH2 0xBA DUP3 PUSH2 0x9D JUMP JUMPDEST SWAP1 POP SWAP2 SWAP1 POP JUMP JUMPDEST PUSH2 0xCA DUP2 PUSH2 0xAF JUMP JUMPDEST DUP2 EQ PUSH2 0xD5 JUMPI PUSH1 0x0 DUP1 REVERT JUMPDEST POP JUMP JUMPDEST PUSH1 0x0 DUP2 MLOAD SWAP1 POP PUSH2 0xE7 DUP2 PUSH2 0xC1 JUMP JUMPDEST SWAP3 SWAP2 POP POP JUMP JUMPDEST PUSH1 0x0 PUSH1 0x20 DUP3 DUP5 SUB SLT ISZERO PUSH2 0x103 JUMPI PUSH2 0x102 PUSH2 0x78 JUMP JUMPDEST JUMPDEST PUSH1 0x0 PUSH2 0x111 DUP5 DUP3 DUP6 ADD PUSH2 0xD8 JUMP JUMPDEST SWAP2 POP POP SWAP3 SWAP2 POP POP JUMP JUMPDEST PUSH2 0x402 DUP1 PUSH2 0x129 PUSH1 0x0 CODECOPY PUSH1 0x0 RETURN INVALID PUSH1 0x80 PUSH1 0x40 MSTORE CALLVALUE DUP1 ISZERO PUSH2 0x10 JUMPI PUSH1 0x0 DUP1 REVERT JUMPDEST POP PUSH1 0x4 CALLDATASIZE LT PUSH2 0x41 JUMPI PUSH1 0x0 CALLDATALOAD PUSH1 0xE0 SHR DUP1 PUSH4 0x86B714E2 EQ PUSH2 0x46 JUMPI DUP1 PUSH4 0xC6626615 EQ PUSH2 0x64 JUMPI DUP1 PUSH4 0xE1CB0E52 EQ PUSH2 0x80 JUMPI JUMPDEST PUSH1 0x0 DUP1 REVERT JUMPDEST PUSH2 0x4E PUSH2 0x9E JUMP JUMPDEST PUSH1 0x40 MLOAD PUSH2 0x5B SWAP2 SWAP1 PUSH2 0x2A1 JUMP JUMPDEST PUSH1 0x40 MLOAD DUP1 SWAP2 SUB SWAP1 RETURN JUMPDEST PUSH2 0x7E PUSH1 0x4 DUP1 CALLDATASIZE SUB DUP2 ADD SWAP1 PUSH2 0x79 SWAP2 SWAP1 PUSH2 0x2F7 JUMP JUMPDEST PUSH2 0xC2 JUMP JUMPDEST STOP JUMPDEST PUSH2 0x88 PUSH2 0x187 JUMP JUMPDEST PUSH1 0x40 MLOAD PUSH2 0x95 SWAP2 SWAP1 PUSH2 0x333 JUMP JUMPDEST PUSH1 0x40 MLOAD DUP1 SWAP2 SUB SWAP1 RETURN JUMPDEST PUSH1 0x0 DUP1 SLOAD SWAP1 PUSH2 0x100 EXP SWAP1 DIV PUSH20 0xFFFFFFFFFFFFFFFFFFFFFFFFFFFFFFFFFFFFFFFF AND DUP2 JUMP JUMPDEST PUSH1 0x0 DUP1 SLOAD SWAP1 PUSH2 0x100 EXP SWAP1 DIV PUSH20 0xFFFFFFFFFFFFFFFFFFFFFFFFFFFFFFFFFFFFFFFF AND PUSH20 0xFFFFFFFFFFFFFFFFFFFFFFFFFFFFFFFFFFFFFFFF AND PUSH4 0x6057361D DUP3 PUSH1 0x40 MLOAD DUP3 PUSH4 0xFFFFFFFF AND PUSH1 0xE0 SHL DUP2 MSTORE PUSH1 0x4 ADD PUSH2 0x11B SWAP2 SWAP1 PUSH2 0x333 JUMP JUMPDEST PUSH1 0x0 PUSH1 0x40 MLOAD DUP1 DUP4 SUB DUP2 PUSH1 0x0 DUP8 DUP1 EXTCODESIZE ISZERO DUP1 ISZERO PUSH2 0x135 JUMPI PUSH1 0x0 DUP1 REVERT JUMPDEST POP GAS CALL ISZERO DUP1 ISZERO PUSH2 0x149 JUMPI RETURNDATASIZE PUSH1 0x0 DUP1 RETURNDATACOPY RETURNDATASIZE PUSH1 0x0 REVERT JUMPDEST POP POP POP POP PUSH32 0x20F727E2E534EE85BCE2BD7F2517088456C3F2040194B18A6C3DA3FEE1A02ADF CALLER PUSH1 0x40 MLOAD PUSH2 0x17C SWAP2 SWAP1 PUSH2 0x36F JUMP JUMPDEST PUSH1 0x40 MLOAD DUP1 SWAP2 SUB SWAP1 LOG1 POP JUMP JUMPDEST PUSH1 0x0 DUP1 PUSH1 0x0 DUP1 SLOAD SWAP1 PUSH2 0x100 EXP SWAP1 DIV PUSH20 0xFFFFFFFFFFFFFFFFFFFFFFFFFFFFFFFFFFFFFFFF AND PUSH20 0xFFFFFFFFFFFFFFFFFFFFFFFFFFFFFFFFFFFFFFFF AND PUSH4 0x2E64CEC1 PUSH1 0x40 MLOAD DUP2 PUSH4 0xFFFFFFFF AND PUSH1 0xE0 SHL DUP2 MSTORE PUSH1 0x4 ADD PUSH1 0x20 PUSH1 0x40 MLOAD DUP1 DUP4 SUB DUP2 DUP7 GAS STATICCALL ISZERO DUP1 ISZERO PUSH2 0x1F5 JUMPI RETURNDATASIZE PUSH1 0x0 DUP1 RETURNDATACOPY RETURNDATASIZE PUSH1 0x0 REVERT JUMPDEST POP POP POP POP PUSH1 0x40 MLOAD RETURNDATASIZE PUSH1 0x1F NOT PUSH1 0x1F DUP3 ADD AND DUP3 ADD DUP1 PUSH1 0x40 MSTORE POP DUP2 ADD SWAP1 PUSH2 0x219 SWAP2 SWAP1 PUSH2 0x39F JUMP JUMPDEST SWAP1 POP DUP1 SWAP2 POP POP SWAP1 JUMP JUMPDEST PUSH1 0x0 PUSH20 0xFFFFFFFFFFFFFFFFFFFFFFFFFFFFFFFFFFFFFFFF DUP3 AND SWAP1 POP SWAP2 SWAP1 POP JUMP JUMPDEST PUSH1 0x0 DUP2 SWAP1 POP SWAP2 SWAP1 POP JUMP JUMPDEST PUSH1 0x0 PUSH2 0x267 PUSH2 0x262 PUSH2 0x25D DUP5 PUSH2 0x222 JUMP JUMPDEST PUSH2 0x242 JUMP JUMPDEST PUSH2 0x222 JUMP JUMPDEST SWAP1 POP SWAP2 SWAP1 POP JUMP JUMPDEST PUSH1 0x0 PUSH2 0x279 DUP3 PUSH2 0x24C JUMP JUMPDEST SWAP1 POP SWAP2 SWAP1 POP JUMP JUMPDEST PUSH1 0x0 PUSH2 0x28B DUP3 PUSH2 0x26E JUMP JUMPDEST SWAP1 POP SWAP2 SWAP1 POP JUMP JUMPDEST PUSH2 0x29B DUP2 PUSH2 0x280 JUMP JUMPDEST DUP3 MSTORE POP POP JUMP JUMPDEST PUSH1 0x0 PUSH1 0x20 DUP3 ADD SWAP1 POP PUSH2 0x2B6 PUSH1 0x0 DUP4 ADD DUP5 PUSH2 0x292 JUMP JUMPDEST SWAP3 SWAP2 POP POP JUMP JUMPDEST PUSH1 0x0 DUP1 REVERT JUMPDEST PUSH1 0x0 DUP2 SWAP1 POP SWAP2 SWAP1 POP JUMP JUMPDEST PUSH2 0x2D4 DUP2 PUSH2 0x2C1 JUMP JUMPDEST DUP2 EQ PUSH2 0x2DF JUMPI PUSH1 0x0 DUP1 REVERT JUMPDEST POP JUMP JUMPDEST PUSH1 0x0 DUP2 CALLDATALOAD SWAP1 POP PUSH2 0x2F1 DUP2 PUSH2 0x2CB JUMP JUMPDEST SWAP3 SWAP2 POP POP JUMP JUMPDEST PUSH1 0x0 PUSH1 0x20 DUP3 DUP5 SUB SLT ISZERO PUSH2 0x30D JUMPI PUSH2 0x30C PUSH2 0x2BC JUMP JUMPDEST JUMPDEST PUSH1 0x0 PUSH2 0x31B DUP5 DUP3 DUP6 ADD PUSH2 0x2E2 JUMP JUMPDEST SWAP2 POP POP SWAP3 SWAP2 POP POP JUMP JUMPDEST PUSH2 0x32D DUP2 PUSH2 0x2C1 JUMP JUMPDEST DUP3 MSTORE POP POP JUMP JUMPDEST PUSH1 0x0 PUSH1 0x20 DUP3 ADD SWAP1 POP PUSH2 0x348 PUSH1 0x0 DUP4 ADD DUP5 PUSH2 0x324 JUMP JUMPDEST SWAP3 SWAP2 POP POP JUMP JUMPDEST PUSH1 0x0 PUSH2 0x359 DUP3 PUSH2 0x222 JUMP JUMPDEST SWAP1 POP SWAP2 SWAP1 POP JUMP JUMPDEST PUSH2 0x369 DUP2 PUSH2 0x34E JUMP JUMPDEST DUP3 MSTORE POP POP JUMP JUMPDEST PUSH1 0x0 PUSH1 0x20 DUP3 ADD SWAP1 POP PUSH2 0x384 PUSH1 0x0 DUP4 ADD DUP5 PUSH2 0x360 JUMP JUMPDEST SWAP3 SWAP2 POP POP JUMP JUMPDEST PUSH1 0x0 DUP2 MLOAD SWAP1 POP PUSH2 0x399 DUP2 PUSH2 0x2CB JUMP JUMPDEST SWAP3 SWAP2 POP POP JUMP JUMPDEST PUSH1 0x0 PUSH1 0x20 DUP3 DUP5 SUB SLT ISZERO PUSH2 0x3B5 JUMPI PUSH2 0x3B4 PUSH2 0x2BC JUMP JUMPDEST JUMPDEST PUSH1 0x0 PUSH2 0x3C3 DUP5 DUP3 DUP6 ADD PUSH2 0x38A JUMP JUMPDEST SWAP2 POP POP SWAP3 SWAP2 POP POP JUMP INVALID LOG2 PUSH5 0x6970667358 0x22 SLT KECCAK256 0x24 SDIV 0xC6 0xAF 0x25 SLOAD 0xDD 0xEF CHAINID PUSH4 0xCFF14C65 SSTORE LOG3 CALL DUP4 0xE2 PUSH12 0xCEE5C02995847BA525B74501 PUSH5 0x736F6C6343 STOP ADDMOD SIGNEXTEND STOP CALLER "
				},
				"gasEstimates": {
					"creation": {
						"codeDepositCost": "205200",
						"executionCost": "infinite",
						"totalCost": "infinite"
					},
					"external": {
						"getVal()": "infinite",
						"s()": "infinite",
						"storeVal(uint256)": "infinite"
					}
				},
				"methodIdentifiers": {
					"getVal()": "e1cb0e52",
					"s()": "86b714e2",
					"storeVal(uint256)": "c6626615"
				}
			},
			"storageLayout": {
				"storage": [
					{
						"astId": 31,
						"contract": "contracts/factory.sol:Bot",
						"label": "s",
						"offset": 0,
						"slot": "0",
						"type": "t_contract(Storage)25"
					}
				],
				"types": {
					"t_contract(Storage)25": {
						"encoding": "inplace",
						"label": "contract Storage",
						"numberOfBytes": "20"
					}
				}
			},
			"userdoc": {
				"kind": "user",
				"methods": {},
				"version": 1
			}
		}
	}
}