{
	"contracts/Auction_1.sol": {
		"NFTAuction": {
			"abi": [
				{
					"inputs": [
						{
							"internalType": "address",
							"name": "_auctioneer",
							"type": "address"
						},
						{
							"internalType": "uint256",
							"name": "_startPrice",
							"type": "uint256"
						},
						{
							"internalType": "uint256",
							"name": "_tokenId",
							"type": "uint256"
						},
						{
							"internalType": "address",
							"name": "_tokenContract",
							"type": "address"
						}
					],
					"stateMutability": "nonpayable",
					"type": "constructor"
				},
				{
					"anonymous": false,
					"inputs": [
						{
							"indexed": false,
							"internalType": "enum NFTAuction.AuctionStatus",
							"name": "_status",
							"type": "uint8"
						}
					],
					"name": "AuctionState",
					"type": "event"
				},
				{
					"inputs": [],
					"name": "closeAuction",
					"outputs": [],
					"stateMutability": "nonpayable",
					"type": "function"
				},
				{
					"inputs": [],
					"name": "highestBid",
					"outputs": [
						{
							"internalType": "uint256",
							"name": "",
							"type": "uint256"
						}
					],
					"stateMutability": "view",
					"type": "function"
				},
				{
					"inputs": [],
					"name": "initialPrice",
					"outputs": [
						{
							"internalType": "uint256",
							"name": "",
							"type": "uint256"
						}
					],
					"stateMutability": "view",
					"type": "function"
				},
				{
					"inputs": [],
					"name": "startAuction",
					"outputs": [],
					"stateMutability": "nonpayable",
					"type": "function"
				},
				{
					"inputs": [],
					"name": "tokenContract",
					"outputs": [
						{
							"internalType": "address",
							"name": "",
							"type": "address"
						}
					],
					"stateMutability": "view",
					"type": "function"
				},
				{
					"inputs": [],
					"name": "tokenId",
					"outputs": [
						{
							"internalType": "uint256",
							"name": "",
							"type": "uint256"
						}
					],
					"stateMutability": "view",
					"type": "function"
				}
			],
			"devdoc": {
				"kind": "dev",
				"methods": {},
				"version": 1
			},
			"evm": {
				"assembly": "    /* \"contracts/Auction_1.sol\":62:1320  contract NFTAuction {... */\n  mstore(0x40, 0xc0)\n    /* \"contracts/Auction_1.sol\":350:645  constructor(address _auctioneer, uint256 _startPrice, uint256 _tokenId, address _tokenContract) {... */\n  callvalue\n  dup1\n  iszero\n  tag_1\n  jumpi\n  0x00\n  dup1\n  revert\ntag_1:\n  pop\n  mload(0x40)\n  sub(codesize, bytecodeSize)\n  dup1\n  bytecodeSize\n  dup4\n  codecopy\n  dup2\n  dup2\n  add\n  0x40\n  mstore\n  dup2\n  add\n  swap1\n  tag_2\n  swap2\n  swap1\n  tag_3\n  jump\t// in\ntag_2:\n    /* \"contracts/Auction_1.sol\":478:489  _auctioneer */\n  dup4\n    /* \"contracts/Auction_1.sol\":457:467  auctioneer */\n  0x00\n  dup1\n    /* \"contracts/Auction_1.sol\":457:490  auctioneer = payable(_auctioneer) */\n  0x0100\n  exp\n  dup2\n  sload\n  dup2\n  0xffffffffffffffffffffffffffffffffffffffff\n  mul\n  not\n  and\n  swap1\n  dup4\n  0xffffffffffffffffffffffffffffffffffffffff\n  and\n  mul\n  or\n  swap1\n  sstore\n  pop\n    /* \"contracts/Auction_1.sol\":516:527  _startPrice */\n  dup3\n    /* \"contracts/Auction_1.sol\":501:513  initialPrice */\n  0x01\n    /* \"contracts/Auction_1.sol\":501:527  initialPrice = _startPrice */\n  dup2\n  swap1\n  sstore\n  pop\n    /* \"contracts/Auction_1.sol\":548:556  _tokenId */\n  dup2\n    /* \"contracts/Auction_1.sol\":538:556  tokenId = _tokenId */\n  0x80\n  dup2\n  dup2\n  mstore\n  pop\n  pop\n    /* \"contracts/Auction_1.sol\":583:597  _tokenContract */\n  dup1\n    /* \"contracts/Auction_1.sol\":567:597  tokenContract = _tokenContract */\n  0xffffffffffffffffffffffffffffffffffffffff\n  and\n  0xa0\n  dup2\n  0xffffffffffffffffffffffffffffffffffffffff\n  and\n  dup2\n  mstore\n  pop\n  pop\n    /* \"contracts/Auction_1.sol\":617:637  AuctionStatus.CLOSED */\n  0x01\n    /* \"contracts/Auction_1.sol\":608:614  status */\n  0x03\n  0x00\n    /* \"contracts/Auction_1.sol\":608:637  status = AuctionStatus.CLOSED */\n  0x0100\n  exp\n  dup2\n  sload\n  dup2\n  0xff\n  mul\n  not\n  and\n  swap1\n  dup4\n  0x01\n  dup2\n  gt\n  iszero\n  tag_6\n  jumpi\n  tag_7\n  tag_8\n  jump\t// in\ntag_7:\ntag_6:\n  mul\n  or\n  swap1\n  sstore\n  pop\n    /* \"contracts/Auction_1.sol\":350:645  constructor(address _auctioneer, uint256 _startPrice, uint256 _tokenId, address _tokenContract) {... */\n  pop\n  pop\n  pop\n  pop\n    /* \"contracts/Auction_1.sol\":62:1320  contract NFTAuction {... */\n  jump(tag_9)\n    /* \"#utility.yul\":88:205   */\ntag_11:\n    /* \"#utility.yul\":197:198   */\n  0x00\n    /* \"#utility.yul\":194:195   */\n  dup1\n    /* \"#utility.yul\":187:199   */\n  revert\n    /* \"#utility.yul\":334:460   */\ntag_13:\n    /* \"#utility.yul\":371:378   */\n  0x00\n    /* \"#utility.yul\":411:453   */\n  0xffffffffffffffffffffffffffffffffffffffff\n    /* \"#utility.yul\":404:409   */\n  dup3\n    /* \"#utility.yul\":400:454   */\n  and\n    /* \"#utility.yul\":389:454   */\n  swap1\n  pop\n    /* \"#utility.yul\":334:460   */\n  swap2\n  swap1\n  pop\n  jump\t// out\n    /* \"#utility.yul\":466:562   */\ntag_14:\n    /* \"#utility.yul\":503:510   */\n  0x00\n    /* \"#utility.yul\":532:556   */\n  tag_26\n    /* \"#utility.yul\":550:555   */\n  dup3\n    /* \"#utility.yul\":532:556   */\n  tag_13\n  jump\t// in\ntag_26:\n    /* \"#utility.yul\":521:556   */\n  swap1\n  pop\n    /* \"#utility.yul\":466:562   */\n  swap2\n  swap1\n  pop\n  jump\t// out\n    /* \"#utility.yul\":568:690   */\ntag_15:\n    /* \"#utility.yul\":641:665   */\n  tag_28\n    /* \"#utility.yul\":659:664   */\n  dup2\n    /* \"#utility.yul\":641:665   */\n  tag_14\n  jump\t// in\ntag_28:\n    /* \"#utility.yul\":634:639   */\n  dup2\n    /* \"#utility.yul\":631:666   */\n  eq\n    /* \"#utility.yul\":621:684   */\n  tag_29\n  jumpi\n    /* \"#utility.yul\":680:681   */\n  0x00\n    /* \"#utility.yul\":677:678   */\n  dup1\n    /* \"#utility.yul\":670:682   */\n  revert\n    /* \"#utility.yul\":621:684   */\ntag_29:\n    /* \"#utility.yul\":568:690   */\n  pop\n  jump\t// out\n    /* \"#utility.yul\":696:839   */\ntag_16:\n    /* \"#utility.yul\":753:758   */\n  0x00\n    /* \"#utility.yul\":784:790   */\n  dup2\n    /* \"#utility.yul\":778:791   */\n  mload\n    /* \"#utility.yul\":769:791   */\n  swap1\n  pop\n    /* \"#utility.yul\":800:833   */\n  tag_31\n    /* \"#utility.yul\":827:832   */\n  dup2\n    /* \"#utility.yul\":800:833   */\n  tag_15\n  jump\t// in\ntag_31:\n    /* \"#utility.yul\":696:839   */\n  swap3\n  swap2\n  pop\n  pop\n  jump\t// out\n    /* \"#utility.yul\":845:922   */\ntag_17:\n    /* \"#utility.yul\":882:889   */\n  0x00\n    /* \"#utility.yul\":911:916   */\n  dup2\n    /* \"#utility.yul\":900:916   */\n  swap1\n  pop\n    /* \"#utility.yul\":845:922   */\n  swap2\n  swap1\n  pop\n  jump\t// out\n    /* \"#utility.yul\":928:1050   */\ntag_18:\n    /* \"#utility.yul\":1001:1025   */\n  tag_34\n    /* \"#utility.yul\":1019:1024   */\n  dup2\n    /* \"#utility.yul\":1001:1025   */\n  tag_17\n  jump\t// in\ntag_34:\n    /* \"#utility.yul\":994:999   */\n  dup2\n    /* \"#utility.yul\":991:1026   */\n  eq\n    /* \"#utility.yul\":981:1044   */\n  tag_35\n  jumpi\n    /* \"#utility.yul\":1040:1041   */\n  0x00\n    /* \"#utility.yul\":1037:1038   */\n  dup1\n    /* \"#utility.yul\":1030:1042   */\n  revert\n    /* \"#utility.yul\":981:1044   */\ntag_35:\n    /* \"#utility.yul\":928:1050   */\n  pop\n  jump\t// out\n    /* \"#utility.yul\":1056:1199   */\ntag_19:\n    /* \"#utility.yul\":1113:1118   */\n  0x00\n    /* \"#utility.yul\":1144:1150   */\n  dup2\n    /* \"#utility.yul\":1138:1151   */\n  mload\n    /* \"#utility.yul\":1129:1151   */\n  swap1\n  pop\n    /* \"#utility.yul\":1160:1193   */\n  tag_37\n    /* \"#utility.yul\":1187:1192   */\n  dup2\n    /* \"#utility.yul\":1160:1193   */\n  tag_18\n  jump\t// in\ntag_37:\n    /* \"#utility.yul\":1056:1199   */\n  swap3\n  swap2\n  pop\n  pop\n  jump\t// out\n    /* \"#utility.yul\":1205:2025   */\ntag_3:\n    /* \"#utility.yul\":1302:1308   */\n  0x00\n    /* \"#utility.yul\":1310:1316   */\n  dup1\n    /* \"#utility.yul\":1318:1324   */\n  0x00\n    /* \"#utility.yul\":1326:1332   */\n  dup1\n    /* \"#utility.yul\":1375:1378   */\n  0x80\n    /* \"#utility.yul\":1363:1372   */\n  dup6\n    /* \"#utility.yul\":1354:1361   */\n  dup8\n    /* \"#utility.yul\":1350:1373   */\n  sub\n    /* \"#utility.yul\":1346:1379   */\n  slt\n    /* \"#utility.yul\":1343:1463   */\n  iszero\n  tag_39\n  jumpi\n    /* \"#utility.yul\":1382:1461   */\n  tag_40\n  tag_11\n  jump\t// in\ntag_40:\n    /* \"#utility.yul\":1343:1463   */\ntag_39:\n    /* \"#utility.yul\":1502:1503   */\n  0x00\n    /* \"#utility.yul\":1527:1591   */\n  tag_41\n    /* \"#utility.yul\":1583:1590   */\n  dup8\n    /* \"#utility.yul\":1574:1580   */\n  dup3\n    /* \"#utility.yul\":1563:1572   */\n  dup9\n    /* \"#utility.yul\":1559:1581   */\n  add\n    /* \"#utility.yul\":1527:1591   */\n  tag_16\n  jump\t// in\ntag_41:\n    /* \"#utility.yul\":1517:1591   */\n  swap5\n  pop\n    /* \"#utility.yul\":1473:1601   */\n  pop\n    /* \"#utility.yul\":1640:1642   */\n  0x20\n    /* \"#utility.yul\":1666:1730   */\n  tag_42\n    /* \"#utility.yul\":1722:1729   */\n  dup8\n    /* \"#utility.yul\":1713:1719   */\n  dup3\n    /* \"#utility.yul\":1702:1711   */\n  dup9\n    /* \"#utility.yul\":1698:1720   */\n  add\n    /* \"#utility.yul\":1666:1730   */\n  tag_19\n  jump\t// in\ntag_42:\n    /* \"#utility.yul\":1656:1730   */\n  swap4\n  pop\n    /* \"#utility.yul\":1611:1740   */\n  pop\n    /* \"#utility.yul\":1779:1781   */\n  0x40\n    /* \"#utility.yul\":1805:1869   */\n  tag_43\n    /* \"#utility.yul\":1861:1868   */\n  dup8\n    /* \"#utility.yul\":1852:1858   */\n  dup3\n    /* \"#utility.yul\":1841:1850   */\n  dup9\n    /* \"#utility.yul\":1837:1859   */\n  add\n    /* \"#utility.yul\":1805:1869   */\n  tag_19\n  jump\t// in\ntag_43:\n    /* \"#utility.yul\":1795:1869   */\n  swap3\n  pop\n    /* \"#utility.yul\":1750:1879   */\n  pop\n    /* \"#utility.yul\":1918:1920   */\n  0x60\n    /* \"#utility.yul\":1944:2008   */\n  tag_44\n    /* \"#utility.yul\":2000:2007   */\n  dup8\n    /* \"#utility.yul\":1991:1997   */\n  dup3\n    /* \"#utility.yul\":1980:1989   */\n  dup9\n    /* \"#utility.yul\":1976:1998   */\n  add\n    /* \"#utility.yul\":1944:2008   */\n  tag_16\n  jump\t// in\ntag_44:\n    /* \"#utility.yul\":1934:2008   */\n  swap2\n  pop\n    /* \"#utility.yul\":1889:2018   */\n  pop\n    /* \"#utility.yul\":1205:2025   */\n  swap3\n  swap6\n  swap2\n  swap5\n  pop\n  swap3\n  pop\n  jump\t// out\n    /* \"#utility.yul\":2031:2211   */\ntag_8:\n    /* \"#utility.yul\":2079:2156   */\n  0x4e487b7100000000000000000000000000000000000000000000000000000000\n    /* \"#utility.yul\":2076:2077   */\n  0x00\n    /* \"#utility.yul\":2069:2157   */\n  mstore\n    /* \"#utility.yul\":2176:2180   */\n  0x21\n    /* \"#utility.yul\":2173:2174   */\n  0x04\n    /* \"#utility.yul\":2166:2181   */\n  mstore\n    /* \"#utility.yul\":2200:2204   */\n  0x24\n    /* \"#utility.yul\":2197:2198   */\n  0x00\n    /* \"#utility.yul\":2190:2205   */\n  revert\n    /* \"contracts/Auction_1.sol\":62:1320  contract NFTAuction {... */\ntag_9:\n  mload(0x80)\n  mload(0xa0)\n  codecopy(0x00, dataOffset(sub_0), dataSize(sub_0))\n  0x00\n  assignImmutable(\"0x7880aec93413f117ef14bd4e6d130875ab2c7d7d55a064fac3c2f7bd51516380\")\n  0x00\n  assignImmutable(\"0xd2f8f61201b2b11a78d6e866abc9c3db2ae8631fa656bfe5cb53668255367afb\")\n  return(0x00, dataSize(sub_0))\nstop\n\nsub_0: assembly {\n        /* \"contracts/Auction_1.sol\":62:1320  contract NFTAuction {... */\n      mstore(0x40, 0x80)\n      callvalue\n      dup1\n      iszero\n      tag_1\n      jumpi\n      0x00\n      dup1\n      revert\n    tag_1:\n      pop\n      jumpi(tag_2, lt(calldatasize, 0x04))\n      shr(0xe0, calldataload(0x00))\n      dup1\n      0x17d70f7c\n      eq\n      tag_3\n      jumpi\n      dup1\n      0x1d0806ae\n      eq\n      tag_4\n      jumpi\n      dup1\n      0x378252f2\n      eq\n      tag_5\n      jumpi\n      dup1\n      0x55a373d6\n      eq\n      tag_6\n      jumpi\n      dup1\n      0x6b64c769\n      eq\n      tag_7\n      jumpi\n      dup1\n      0xd57bde79\n      eq\n      tag_8\n      jumpi\n    tag_2:\n      0x00\n      dup1\n      revert\n        /* \"contracts/Auction_1.sol\":196:228  uint256 public immutable tokenId */\n    tag_3:\n      tag_9\n      tag_10\n      jump\t// in\n    tag_9:\n      mload(0x40)\n      tag_11\n      swap2\n      swap1\n      tag_12\n      jump\t// in\n    tag_11:\n      mload(0x40)\n      dup1\n      swap2\n      sub\n      swap1\n      return\n        /* \"contracts/Auction_1.sol\":130:157  uint256 public initialPrice */\n    tag_4:\n      tag_13\n      tag_14\n      jump\t// in\n    tag_13:\n      mload(0x40)\n      tag_15\n      swap2\n      swap1\n      tag_12\n      jump\t// in\n    tag_15:\n      mload(0x40)\n      dup1\n      swap2\n      sub\n      swap1\n      return\n        /* \"contracts/Auction_1.sol\":1104:1317  function closeAuction() external onlyAuctioneer {... */\n    tag_5:\n      tag_16\n      tag_17\n      jump\t// in\n    tag_16:\n      stop\n        /* \"contracts/Auction_1.sol\":235:273  address public immutable tokenContract */\n    tag_6:\n      tag_18\n      tag_19\n      jump\t// in\n    tag_18:\n      mload(0x40)\n      tag_20\n      swap2\n      swap1\n      tag_21\n      jump\t// in\n    tag_20:\n      mload(0x40)\n      dup1\n      swap2\n      sub\n      swap1\n      return\n        /* \"contracts/Auction_1.sol\":849:1096  function startAuction() external onlyAuctioneer {... */\n    tag_7:\n      tag_22\n      tag_23\n      jump\t// in\n    tag_22:\n      stop\n        /* \"contracts/Auction_1.sol\":164:189  uint256 public highestBid */\n    tag_8:\n      tag_24\n      tag_25\n      jump\t// in\n    tag_24:\n      mload(0x40)\n      tag_26\n      swap2\n      swap1\n      tag_12\n      jump\t// in\n    tag_26:\n      mload(0x40)\n      dup1\n      swap2\n      sub\n      swap1\n      return\n        /* \"contracts/Auction_1.sol\":196:228  uint256 public immutable tokenId */\n    tag_10:\n      immutable(\"0xd2f8f61201b2b11a78d6e866abc9c3db2ae8631fa656bfe5cb53668255367afb\")\n      dup2\n      jump\t// out\n        /* \"contracts/Auction_1.sol\":130:157  uint256 public initialPrice */\n    tag_14:\n      sload(0x01)\n      dup2\n      jump\t// out\n        /* \"contracts/Auction_1.sol\":1104:1317  function closeAuction() external onlyAuctioneer {... */\n    tag_17:\n        /* \"contracts/Auction_1.sol\":760:770  auctioneer */\n      0x00\n      dup1\n      sload\n      swap1\n      0x0100\n      exp\n      swap1\n      div\n      0xffffffffffffffffffffffffffffffffffffffff\n      and\n        /* \"contracts/Auction_1.sol\":746:770  msg.sender == auctioneer */\n      0xffffffffffffffffffffffffffffffffffffffff\n      and\n        /* \"contracts/Auction_1.sol\":746:756  msg.sender */\n      caller\n        /* \"contracts/Auction_1.sol\":746:770  msg.sender == auctioneer */\n      0xffffffffffffffffffffffffffffffffffffffff\n      and\n      eq\n        /* \"contracts/Auction_1.sol\":738:821  require(msg.sender == auctioneer, \"Only the contract owner can call this function\") */\n      tag_28\n      jumpi\n      mload(0x40)\n      0x08c379a000000000000000000000000000000000000000000000000000000000\n      dup2\n      mstore\n      0x04\n      add\n      tag_29\n      swap1\n      tag_30\n      jump\t// in\n    tag_29:\n      mload(0x40)\n      dup1\n      swap2\n      sub\n      swap1\n      revert\n    tag_28:\n        /* \"contracts/Auction_1.sol\":1181:1199  AuctionStatus.OPEN */\n      0x00\n        /* \"contracts/Auction_1.sol\":1171:1199  status == AuctionStatus.OPEN */\n      0x01\n      dup2\n      gt\n      iszero\n      tag_32\n      jumpi\n      tag_33\n      tag_34\n      jump\t// in\n    tag_33:\n    tag_32:\n        /* \"contracts/Auction_1.sol\":1171:1177  status */\n      0x03\n      0x00\n      swap1\n      sload\n      swap1\n      0x0100\n      exp\n      swap1\n      div\n      0xff\n      and\n        /* \"contracts/Auction_1.sol\":1171:1199  status == AuctionStatus.OPEN */\n      0x01\n      dup2\n      gt\n      iszero\n      tag_35\n      jumpi\n      tag_36\n      tag_34\n      jump\t// in\n    tag_36:\n    tag_35:\n      eq\n        /* \"contracts/Auction_1.sol\":1163:1233  require(status == AuctionStatus.OPEN, \"The Auction is already closed\") */\n      tag_37\n      jumpi\n      mload(0x40)\n      0x08c379a000000000000000000000000000000000000000000000000000000000\n      dup2\n      mstore\n      0x04\n      add\n      tag_38\n      swap1\n      tag_39\n      jump\t// in\n    tag_38:\n      mload(0x40)\n      dup1\n      swap2\n      sub\n      swap1\n      revert\n    tag_37:\n        /* \"contracts/Auction_1.sol\":1253:1273  AuctionStatus.CLOSED */\n      0x01\n        /* \"contracts/Auction_1.sol\":1244:1250  status */\n      0x03\n      0x00\n        /* \"contracts/Auction_1.sol\":1244:1273  status = AuctionStatus.CLOSED */\n      0x0100\n      exp\n      dup2\n      sload\n      dup2\n      0xff\n      mul\n      not\n      and\n      swap1\n      dup4\n      0x01\n      dup2\n      gt\n      iszero\n      tag_40\n      jumpi\n      tag_41\n      tag_34\n      jump\t// in\n    tag_41:\n    tag_40:\n      mul\n      or\n      swap1\n      sstore\n      pop\n        /* \"contracts/Auction_1.sol\":1289:1309  AuctionState(status) */\n      0x8caed3b4bf01375b22dc7f84afe719ce12ab14864751a7d5e4142fe4e4a50a51\n        /* \"contracts/Auction_1.sol\":1302:1308  status */\n      0x03\n      0x00\n      swap1\n      sload\n      swap1\n      0x0100\n      exp\n      swap1\n      div\n      0xff\n      and\n        /* \"contracts/Auction_1.sol\":1289:1309  AuctionState(status) */\n      mload(0x40)\n      tag_42\n      swap2\n      swap1\n      tag_43\n      jump\t// in\n    tag_42:\n      mload(0x40)\n      dup1\n      swap2\n      sub\n      swap1\n      log1\n        /* \"contracts/Auction_1.sol\":1104:1317  function closeAuction() external onlyAuctioneer {... */\n      jump\t// out\n        /* \"contracts/Auction_1.sol\":235:273  address public immutable tokenContract */\n    tag_19:\n      immutable(\"0x7880aec93413f117ef14bd4e6d130875ab2c7d7d55a064fac3c2f7bd51516380\")\n      dup2\n      jump\t// out\n        /* \"contracts/Auction_1.sol\":849:1096  function startAuction() external onlyAuctioneer {... */\n    tag_23:\n        /* \"contracts/Auction_1.sol\":760:770  auctioneer */\n      0x00\n      dup1\n      sload\n      swap1\n      0x0100\n      exp\n      swap1\n      div\n      0xffffffffffffffffffffffffffffffffffffffff\n      and\n        /* \"contracts/Auction_1.sol\":746:770  msg.sender == auctioneer */\n      0xffffffffffffffffffffffffffffffffffffffff\n      and\n        /* \"contracts/Auction_1.sol\":746:756  msg.sender */\n      caller\n        /* \"contracts/Auction_1.sol\":746:770  msg.sender == auctioneer */\n      0xffffffffffffffffffffffffffffffffffffffff\n      and\n      eq\n        /* \"contracts/Auction_1.sol\":738:821  require(msg.sender == auctioneer, \"Only the contract owner can call this function\") */\n      tag_45\n      jumpi\n      mload(0x40)\n      0x08c379a000000000000000000000000000000000000000000000000000000000\n      dup2\n      mstore\n      0x04\n      add\n      tag_46\n      swap1\n      tag_30\n      jump\t// in\n    tag_46:\n      mload(0x40)\n      dup1\n      swap2\n      sub\n      swap1\n      revert\n    tag_45:\n        /* \"contracts/Auction_1.sol\":926:946  AuctionStatus.CLOSED */\n      0x01\n        /* \"contracts/Auction_1.sol\":916:946  status == AuctionStatus.CLOSED */\n      dup1\n      dup2\n      gt\n      iszero\n      tag_48\n      jumpi\n      tag_49\n      tag_34\n      jump\t// in\n    tag_49:\n    tag_48:\n        /* \"contracts/Auction_1.sol\":916:922  status */\n      0x03\n      0x00\n      swap1\n      sload\n      swap1\n      0x0100\n      exp\n      swap1\n      div\n      0xff\n      and\n        /* \"contracts/Auction_1.sol\":916:946  status == AuctionStatus.CLOSED */\n      0x01\n      dup2\n      gt\n      iszero\n      tag_50\n      jumpi\n      tag_51\n      tag_34\n      jump\t// in\n    tag_51:\n    tag_50:\n      eq\n        /* \"contracts/Auction_1.sol\":908:978  require(status == AuctionStatus.CLOSED, \"The Auction is already open\") */\n      tag_52\n      jumpi\n      mload(0x40)\n      0x08c379a000000000000000000000000000000000000000000000000000000000\n      dup2\n      mstore\n      0x04\n      add\n      tag_53\n      swap1\n      tag_54\n      jump\t// in\n    tag_53:\n      mload(0x40)\n      dup1\n      swap2\n      sub\n      swap1\n      revert\n    tag_52:\n        /* \"contracts/Auction_1.sol\":998:1016  AuctionStatus.OPEN */\n      0x00\n        /* \"contracts/Auction_1.sol\":989:995  status */\n      0x03\n      0x00\n        /* \"contracts/Auction_1.sol\":989:1016  status = AuctionStatus.OPEN */\n      0x0100\n      exp\n      dup2\n      sload\n      dup2\n      0xff\n      mul\n      not\n      and\n      swap1\n      dup4\n      0x01\n      dup2\n      gt\n      iszero\n      tag_55\n      jumpi\n      tag_56\n      tag_34\n      jump\t// in\n    tag_56:\n    tag_55:\n      mul\n      or\n      swap1\n      sstore\n      pop\n        /* \"contracts/Auction_1.sol\":1040:1052  initialPrice */\n      sload(0x01)\n        /* \"contracts/Auction_1.sol\":1027:1037  highestBid */\n      0x02\n        /* \"contracts/Auction_1.sol\":1027:1052  highestBid = initialPrice */\n      dup2\n      swap1\n      sstore\n      pop\n        /* \"contracts/Auction_1.sol\":1068:1088  AuctionState(status) */\n      0x8caed3b4bf01375b22dc7f84afe719ce12ab14864751a7d5e4142fe4e4a50a51\n        /* \"contracts/Auction_1.sol\":1081:1087  status */\n      0x03\n      0x00\n      swap1\n      sload\n      swap1\n      0x0100\n      exp\n      swap1\n      div\n      0xff\n      and\n        /* \"contracts/Auction_1.sol\":1068:1088  AuctionState(status) */\n      mload(0x40)\n      tag_57\n      swap2\n      swap1\n      tag_43\n      jump\t// in\n    tag_57:\n      mload(0x40)\n      dup1\n      swap2\n      sub\n      swap1\n      log1\n        /* \"contracts/Auction_1.sol\":849:1096  function startAuction() external onlyAuctioneer {... */\n      jump\t// out\n        /* \"contracts/Auction_1.sol\":164:189  uint256 public highestBid */\n    tag_25:\n      sload(0x02)\n      dup2\n      jump\t// out\n        /* \"#utility.yul\":7:84   */\n    tag_58:\n        /* \"#utility.yul\":44:51   */\n      0x00\n        /* \"#utility.yul\":73:78   */\n      dup2\n        /* \"#utility.yul\":62:78   */\n      swap1\n      pop\n        /* \"#utility.yul\":7:84   */\n      swap2\n      swap1\n      pop\n      jump\t// out\n        /* \"#utility.yul\":90:208   */\n    tag_59:\n        /* \"#utility.yul\":177:201   */\n      tag_77\n        /* \"#utility.yul\":195:200   */\n      dup2\n        /* \"#utility.yul\":177:201   */\n      tag_58\n      jump\t// in\n    tag_77:\n        /* \"#utility.yul\":172:175   */\n      dup3\n        /* \"#utility.yul\":165:202   */\n      mstore\n        /* \"#utility.yul\":90:208   */\n      pop\n      pop\n      jump\t// out\n        /* \"#utility.yul\":214:436   */\n    tag_12:\n        /* \"#utility.yul\":307:311   */\n      0x00\n        /* \"#utility.yul\":345:347   */\n      0x20\n        /* \"#utility.yul\":334:343   */\n      dup3\n        /* \"#utility.yul\":330:348   */\n      add\n        /* \"#utility.yul\":322:348   */\n      swap1\n      pop\n        /* \"#utility.yul\":358:429   */\n      tag_79\n        /* \"#utility.yul\":426:427   */\n      0x00\n        /* \"#utility.yul\":415:424   */\n      dup4\n        /* \"#utility.yul\":411:428   */\n      add\n        /* \"#utility.yul\":402:408   */\n      dup5\n        /* \"#utility.yul\":358:429   */\n      tag_59\n      jump\t// in\n    tag_79:\n        /* \"#utility.yul\":214:436   */\n      swap3\n      swap2\n      pop\n      pop\n      jump\t// out\n        /* \"#utility.yul\":442:568   */\n    tag_60:\n        /* \"#utility.yul\":479:486   */\n      0x00\n        /* \"#utility.yul\":519:561   */\n      0xffffffffffffffffffffffffffffffffffffffff\n        /* \"#utility.yul\":512:517   */\n      dup3\n        /* \"#utility.yul\":508:562   */\n      and\n        /* \"#utility.yul\":497:562   */\n      swap1\n      pop\n        /* \"#utility.yul\":442:568   */\n      swap2\n      swap1\n      pop\n      jump\t// out\n        /* \"#utility.yul\":574:670   */\n    tag_61:\n        /* \"#utility.yul\":611:618   */\n      0x00\n        /* \"#utility.yul\":640:664   */\n      tag_82\n        /* \"#utility.yul\":658:663   */\n      dup3\n        /* \"#utility.yul\":640:664   */\n      tag_60\n      jump\t// in\n    tag_82:\n        /* \"#utility.yul\":629:664   */\n      swap1\n      pop\n        /* \"#utility.yul\":574:670   */\n      swap2\n      swap1\n      pop\n      jump\t// out\n        /* \"#utility.yul\":676:794   */\n    tag_62:\n        /* \"#utility.yul\":763:787   */\n      tag_84\n        /* \"#utility.yul\":781:786   */\n      dup2\n        /* \"#utility.yul\":763:787   */\n      tag_61\n      jump\t// in\n    tag_84:\n        /* \"#utility.yul\":758:761   */\n      dup3\n        /* \"#utility.yul\":751:788   */\n      mstore\n        /* \"#utility.yul\":676:794   */\n      pop\n      pop\n      jump\t// out\n        /* \"#utility.yul\":800:1022   */\n    tag_21:\n        /* \"#utility.yul\":893:897   */\n      0x00\n        /* \"#utility.yul\":931:933   */\n      0x20\n        /* \"#utility.yul\":920:929   */\n      dup3\n        /* \"#utility.yul\":916:934   */\n      add\n        /* \"#utility.yul\":908:934   */\n      swap1\n      pop\n        /* \"#utility.yul\":944:1015   */\n      tag_86\n        /* \"#utility.yul\":1012:1013   */\n      0x00\n        /* \"#utility.yul\":1001:1010   */\n      dup4\n        /* \"#utility.yul\":997:1014   */\n      add\n        /* \"#utility.yul\":988:994   */\n      dup5\n        /* \"#utility.yul\":944:1015   */\n      tag_62\n      jump\t// in\n    tag_86:\n        /* \"#utility.yul\":800:1022   */\n      swap3\n      swap2\n      pop\n      pop\n      jump\t// out\n        /* \"#utility.yul\":1028:1197   */\n    tag_63:\n        /* \"#utility.yul\":1112:1123   */\n      0x00\n        /* \"#utility.yul\":1146:1152   */\n      dup3\n        /* \"#utility.yul\":1141:1144   */\n      dup3\n        /* \"#utility.yul\":1134:1153   */\n      mstore\n        /* \"#utility.yul\":1186:1190   */\n      0x20\n        /* \"#utility.yul\":1181:1184   */\n      dup3\n        /* \"#utility.yul\":1177:1191   */\n      add\n        /* \"#utility.yul\":1162:1191   */\n      swap1\n      pop\n        /* \"#utility.yul\":1028:1197   */\n      swap3\n      swap2\n      pop\n      pop\n      jump\t// out\n        /* \"#utility.yul\":1203:1436   */\n    tag_64:\n        /* \"#utility.yul\":1343:1377   */\n      0x4f6e6c792074686520636f6e7472616374206f776e65722063616e2063616c6c\n        /* \"#utility.yul\":1339:1340   */\n      0x00\n        /* \"#utility.yul\":1331:1337   */\n      dup3\n        /* \"#utility.yul\":1327:1341   */\n      add\n        /* \"#utility.yul\":1320:1378   */\n      mstore\n        /* \"#utility.yul\":1412:1428   */\n      0x20746869732066756e6374696f6e000000000000000000000000000000000000\n        /* \"#utility.yul\":1407:1409   */\n      0x20\n        /* \"#utility.yul\":1399:1405   */\n      dup3\n        /* \"#utility.yul\":1395:1410   */\n      add\n        /* \"#utility.yul\":1388:1429   */\n      mstore\n        /* \"#utility.yul\":1203:1436   */\n      pop\n      jump\t// out\n        /* \"#utility.yul\":1442:1808   */\n    tag_65:\n        /* \"#utility.yul\":1584:1587   */\n      0x00\n        /* \"#utility.yul\":1605:1672   */\n      tag_90\n        /* \"#utility.yul\":1669:1671   */\n      0x2e\n        /* \"#utility.yul\":1664:1667   */\n      dup4\n        /* \"#utility.yul\":1605:1672   */\n      tag_63\n      jump\t// in\n    tag_90:\n        /* \"#utility.yul\":1598:1672   */\n      swap2\n      pop\n        /* \"#utility.yul\":1681:1774   */\n      tag_91\n        /* \"#utility.yul\":1770:1773   */\n      dup3\n        /* \"#utility.yul\":1681:1774   */\n      tag_64\n      jump\t// in\n    tag_91:\n        /* \"#utility.yul\":1799:1801   */\n      0x40\n        /* \"#utility.yul\":1794:1797   */\n      dup3\n        /* \"#utility.yul\":1790:1802   */\n      add\n        /* \"#utility.yul\":1783:1802   */\n      swap1\n      pop\n        /* \"#utility.yul\":1442:1808   */\n      swap2\n      swap1\n      pop\n      jump\t// out\n        /* \"#utility.yul\":1814:2233   */\n    tag_30:\n        /* \"#utility.yul\":1980:1984   */\n      0x00\n        /* \"#utility.yul\":2018:2020   */\n      0x20\n        /* \"#utility.yul\":2007:2016   */\n      dup3\n        /* \"#utility.yul\":2003:2021   */\n      add\n        /* \"#utility.yul\":1995:2021   */\n      swap1\n      pop\n        /* \"#utility.yul\":2067:2076   */\n      dup2\n        /* \"#utility.yul\":2061:2065   */\n      dup2\n        /* \"#utility.yul\":2057:2077   */\n      sub\n        /* \"#utility.yul\":2053:2054   */\n      0x00\n        /* \"#utility.yul\":2042:2051   */\n      dup4\n        /* \"#utility.yul\":2038:2055   */\n      add\n        /* \"#utility.yul\":2031:2078   */\n      mstore\n        /* \"#utility.yul\":2095:2226   */\n      tag_93\n        /* \"#utility.yul\":2221:2225   */\n      dup2\n        /* \"#utility.yul\":2095:2226   */\n      tag_65\n      jump\t// in\n    tag_93:\n        /* \"#utility.yul\":2087:2226   */\n      swap1\n      pop\n        /* \"#utility.yul\":1814:2233   */\n      swap2\n      swap1\n      pop\n      jump\t// out\n        /* \"#utility.yul\":2239:2419   */\n    tag_34:\n        /* \"#utility.yul\":2287:2364   */\n      0x4e487b7100000000000000000000000000000000000000000000000000000000\n        /* \"#utility.yul\":2284:2285   */\n      0x00\n        /* \"#utility.yul\":2277:2365   */\n      mstore\n        /* \"#utility.yul\":2384:2388   */\n      0x21\n        /* \"#utility.yul\":2381:2382   */\n      0x04\n        /* \"#utility.yul\":2374:2389   */\n      mstore\n        /* \"#utility.yul\":2408:2412   */\n      0x24\n        /* \"#utility.yul\":2405:2406   */\n      0x00\n        /* \"#utility.yul\":2398:2413   */\n      revert\n        /* \"#utility.yul\":2425:2604   */\n    tag_66:\n        /* \"#utility.yul\":2565:2596   */\n      0x5468652041756374696f6e20697320616c726561647920636c6f736564000000\n        /* \"#utility.yul\":2561:2562   */\n      0x00\n        /* \"#utility.yul\":2553:2559   */\n      dup3\n        /* \"#utility.yul\":2549:2563   */\n      add\n        /* \"#utility.yul\":2542:2597   */\n      mstore\n        /* \"#utility.yul\":2425:2604   */\n      pop\n      jump\t// out\n        /* \"#utility.yul\":2610:2976   */\n    tag_67:\n        /* \"#utility.yul\":2752:2755   */\n      0x00\n        /* \"#utility.yul\":2773:2840   */\n      tag_97\n        /* \"#utility.yul\":2837:2839   */\n      0x1d\n        /* \"#utility.yul\":2832:2835   */\n      dup4\n        /* \"#utility.yul\":2773:2840   */\n      tag_63\n      jump\t// in\n    tag_97:\n        /* \"#utility.yul\":2766:2840   */\n      swap2\n      pop\n        /* \"#utility.yul\":2849:2942   */\n      tag_98\n        /* \"#utility.yul\":2938:2941   */\n      dup3\n        /* \"#utility.yul\":2849:2942   */\n      tag_66\n      jump\t// in\n    tag_98:\n        /* \"#utility.yul\":2967:2969   */\n      0x20\n        /* \"#utility.yul\":2962:2965   */\n      dup3\n        /* \"#utility.yul\":2958:2970   */\n      add\n        /* \"#utility.yul\":2951:2970   */\n      swap1\n      pop\n        /* \"#utility.yul\":2610:2976   */\n      swap2\n      swap1\n      pop\n      jump\t// out\n        /* \"#utility.yul\":2982:3401   */\n    tag_39:\n        /* \"#utility.yul\":3148:3152   */\n      0x00\n        /* \"#utility.yul\":3186:3188   */\n      0x20\n        /* \"#utility.yul\":3175:3184   */\n      dup3\n        /* \"#utility.yul\":3171:3189   */\n      add\n        /* \"#utility.yul\":3163:3189   */\n      swap1\n      pop\n        /* \"#utility.yul\":3235:3244   */\n      dup2\n        /* \"#utility.yul\":3229:3233   */\n      dup2\n        /* \"#utility.yul\":3225:3245   */\n      sub\n        /* \"#utility.yul\":3221:3222   */\n      0x00\n        /* \"#utility.yul\":3210:3219   */\n      dup4\n        /* \"#utility.yul\":3206:3223   */\n      add\n        /* \"#utility.yul\":3199:3246   */\n      mstore\n        /* \"#utility.yul\":3263:3394   */\n      tag_100\n        /* \"#utility.yul\":3389:3393   */\n      dup2\n        /* \"#utility.yul\":3263:3394   */\n      tag_67\n      jump\t// in\n    tag_100:\n        /* \"#utility.yul\":3255:3394   */\n      swap1\n      pop\n        /* \"#utility.yul\":2982:3401   */\n      swap2\n      swap1\n      pop\n      jump\t// out\n        /* \"#utility.yul\":3407:3528   */\n    tag_68:\n        /* \"#utility.yul\":3496:3497   */\n      0x02\n        /* \"#utility.yul\":3489:3494   */\n      dup2\n        /* \"#utility.yul\":3486:3498   */\n      lt\n        /* \"#utility.yul\":3476:3522   */\n      tag_102\n      jumpi\n        /* \"#utility.yul\":3502:3520   */\n      tag_103\n      tag_34\n      jump\t// in\n    tag_103:\n        /* \"#utility.yul\":3476:3522   */\n    tag_102:\n        /* \"#utility.yul\":3407:3528   */\n      pop\n      jump\t// out\n        /* \"#utility.yul\":3534:3677   */\n    tag_69:\n        /* \"#utility.yul\":3587:3594   */\n      0x00\n        /* \"#utility.yul\":3616:3621   */\n      dup2\n        /* \"#utility.yul\":3605:3621   */\n      swap1\n      pop\n        /* \"#utility.yul\":3622:3671   */\n      tag_105\n        /* \"#utility.yul\":3665:3670   */\n      dup3\n        /* \"#utility.yul\":3622:3671   */\n      tag_68\n      jump\t// in\n    tag_105:\n        /* \"#utility.yul\":3534:3677   */\n      swap2\n      swap1\n      pop\n      jump\t// out\n        /* \"#utility.yul\":3683:3826   */\n    tag_70:\n        /* \"#utility.yul\":3747:3756   */\n      0x00\n        /* \"#utility.yul\":3780:3820   */\n      tag_107\n        /* \"#utility.yul\":3814:3819   */\n      dup3\n        /* \"#utility.yul\":3780:3820   */\n      tag_69\n      jump\t// in\n    tag_107:\n        /* \"#utility.yul\":3767:3820   */\n      swap1\n      pop\n        /* \"#utility.yul\":3683:3826   */\n      swap2\n      swap1\n      pop\n      jump\t// out\n        /* \"#utility.yul\":3832:3991   */\n    tag_71:\n        /* \"#utility.yul\":3933:3984   */\n      tag_109\n        /* \"#utility.yul\":3978:3983   */\n      dup2\n        /* \"#utility.yul\":3933:3984   */\n      tag_70\n      jump\t// in\n    tag_109:\n        /* \"#utility.yul\":3928:3931   */\n      dup3\n        /* \"#utility.yul\":3921:3985   */\n      mstore\n        /* \"#utility.yul\":3832:3991   */\n      pop\n      pop\n      jump\t// out\n        /* \"#utility.yul\":3997:4247   */\n    tag_43:\n        /* \"#utility.yul\":4104:4108   */\n      0x00\n        /* \"#utility.yul\":4142:4144   */\n      0x20\n        /* \"#utility.yul\":4131:4140   */\n      dup3\n        /* \"#utility.yul\":4127:4145   */\n      add\n        /* \"#utility.yul\":4119:4145   */\n      swap1\n      pop\n        /* \"#utility.yul\":4155:4240   */\n      tag_111\n        /* \"#utility.yul\":4237:4238   */\n      0x00\n        /* \"#utility.yul\":4226:4235   */\n      dup4\n        /* \"#utility.yul\":4222:4239   */\n      add\n        /* \"#utility.yul\":4213:4219   */\n      dup5\n        /* \"#utility.yul\":4155:4240   */\n      tag_71\n      jump\t// in\n    tag_111:\n        /* \"#utility.yul\":3997:4247   */\n      swap3\n      swap2\n      pop\n      pop\n      jump\t// out\n        /* \"#utility.yul\":4253:4430   */\n    tag_72:\n        /* \"#utility.yul\":4393:4422   */\n      0x5468652041756374696f6e20697320616c7265616479206f70656e0000000000\n        /* \"#utility.yul\":4389:4390   */\n      0x00\n        /* \"#utility.yul\":4381:4387   */\n      dup3\n        /* \"#utility.yul\":4377:4391   */\n      add\n        /* \"#utility.yul\":4370:4423   */\n      mstore\n        /* \"#utility.yul\":4253:4430   */\n      pop\n      jump\t// out\n        /* \"#utility.yul\":4436:4802   */\n    tag_73:\n        /* \"#utility.yul\":4578:4581   */\n      0x00\n        /* \"#utility.yul\":4599:4666   */\n      tag_114\n        /* \"#utility.yul\":4663:4665   */\n      0x1b\n        /* \"#utility.yul\":4658:4661   */\n      dup4\n        /* \"#utility.yul\":4599:4666   */\n      tag_63\n      jump\t// in\n    tag_114:\n        /* \"#utility.yul\":4592:4666   */\n      swap2\n      pop\n        /* \"#utility.yul\":4675:4768   */\n      tag_115\n        /* \"#utility.yul\":4764:4767   */\n      dup3\n        /* \"#utility.yul\":4675:4768   */\n      tag_72\n      jump\t// in\n    tag_115:\n        /* \"#utility.yul\":4793:4795   */\n      0x20\n        /* \"#utility.yul\":4788:4791   */\n      dup3\n        /* \"#utility.yul\":4784:4796   */\n      add\n        /* \"#utility.yul\":4777:4796   */\n      swap1\n      pop\n        /* \"#utility.yul\":4436:4802   */\n      swap2\n      swap1\n      pop\n      jump\t// out\n        /* \"#utility.yul\":4808:5227   */\n    tag_54:\n        /* \"#utility.yul\":4974:4978   */\n      0x00\n        /* \"#utility.yul\":5012:5014   */\n      0x20\n        /* \"#utility.yul\":5001:5010   */\n      dup3\n        /* \"#utility.yul\":4997:5015   */\n      add\n        /* \"#utility.yul\":4989:5015   */\n      swap1\n      pop\n        /* \"#utility.yul\":5061:5070   */\n      dup2\n        /* \"#utility.yul\":5055:5059   */\n      dup2\n        /* \"#utility.yul\":5051:5071   */\n      sub\n        /* \"#utility.yul\":5047:5048   */\n      0x00\n        /* \"#utility.yul\":5036:5045   */\n      dup4\n        /* \"#utility.yul\":5032:5049   */\n      add\n        /* \"#utility.yul\":5025:5072   */\n      mstore\n        /* \"#utility.yul\":5089:5220   */\n      tag_117\n        /* \"#utility.yul\":5215:5219   */\n      dup2\n        /* \"#utility.yul\":5089:5220   */\n      tag_73\n      jump\t// in\n    tag_117:\n        /* \"#utility.yul\":5081:5220   */\n      swap1\n      pop\n        /* \"#utility.yul\":4808:5227   */\n      swap2\n      swap1\n      pop\n      jump\t// out\n\n    auxdata: 0xa2646970667358221220cc1af2a50d52984c0d3817fbc80eef89108535e34c108f792d4e5423800012a164736f6c63430008110033\n}\n",
				"bytecode": {
					"linkReferences": {},
					"object": "60c060405234801561001057600080fd5b5060405161094c38038061094c83398181016040528101906100329190610182565b836000806101000a81548173ffffffffffffffffffffffffffffffffffffffff021916908373ffffffffffffffffffffffffffffffffffffffff1602179055508260018190555081608081815250508073ffffffffffffffffffffffffffffffffffffffff1660a08173ffffffffffffffffffffffffffffffffffffffff16815250506001600360006101000a81548160ff021916908360018111156100db576100da6101e9565b5b021790555050505050610218565b600080fd5b600073ffffffffffffffffffffffffffffffffffffffff82169050919050565b6000610119826100ee565b9050919050565b6101298161010e565b811461013457600080fd5b50565b60008151905061014681610120565b92915050565b6000819050919050565b61015f8161014c565b811461016a57600080fd5b50565b60008151905061017c81610156565b92915050565b6000806000806080858703121561019c5761019b6100e9565b5b60006101aa87828801610137565b94505060206101bb8782880161016d565b93505060406101cc8782880161016d565b92505060606101dd87828801610137565b91505092959194509250565b7f4e487b7100000000000000000000000000000000000000000000000000000000600052602160045260246000fd5b60805160a05161071061023c60003960006102960152600060f501526107106000f3fe608060405234801561001057600080fd5b50600436106100625760003560e01c806317d70f7c146100675780631d0806ae14610085578063378252f2146100a357806355a373d6146100ad5780636b64c769146100cb578063d57bde79146100d5575b600080fd5b61006f6100f3565b60405161007c9190610456565b60405180910390f35b61008d610117565b60405161009a9190610456565b60405180910390f35b6100ab61011d565b005b6100b5610294565b6040516100c291906104b2565b60405180910390f35b6100d36102b8565b005b6100dd610437565b6040516100ea9190610456565b60405180910390f35b7f000000000000000000000000000000000000000000000000000000000000000081565b60015481565b60008054906101000a900473ffffffffffffffffffffffffffffffffffffffff1673ffffffffffffffffffffffffffffffffffffffff163373ffffffffffffffffffffffffffffffffffffffff16146101ab576040517f08c379a00000000000000000000000000000000000000000000000000000000081526004016101a290610550565b60405180910390fd5b600060018111156101bf576101be610570565b5b600360009054906101000a900460ff1660018111156101e1576101e0610570565b5b14610221576040517f08c379a0000000000000000000000000000000000000000000000000000000008152600401610218906105eb565b60405180910390fd5b6001600360006101000a81548160ff0219169083600181111561024757610246610570565b5b02179055507f8caed3b4bf01375b22dc7f84afe719ce12ab14864751a7d5e4142fe4e4a50a51600360009054906101000a900460ff1660405161028a9190610653565b60405180910390a1565b7f000000000000000000000000000000000000000000000000000000000000000081565b60008054906101000a900473ffffffffffffffffffffffffffffffffffffffff1673ffffffffffffffffffffffffffffffffffffffff163373ffffffffffffffffffffffffffffffffffffffff1614610346576040517f08c379a000000000000000000000000000000000000000000000000000000000815260040161033d90610550565b60405180910390fd5b60018081111561035957610358610570565b5b600360009054906101000a900460ff16600181111561037b5761037a610570565b5b146103bb576040517f08c379a00000000000000000000000000000000000000000000000000000000081526004016103b2906106ba565b60405180910390fd5b6000600360006101000a81548160ff021916908360018111156103e1576103e0610570565b5b02179055506001546002819055507f8caed3b4bf01375b22dc7f84afe719ce12ab14864751a7d5e4142fe4e4a50a51600360009054906101000a900460ff1660405161042d9190610653565b60405180910390a1565b60025481565b6000819050919050565b6104508161043d565b82525050565b600060208201905061046b6000830184610447565b92915050565b600073ffffffffffffffffffffffffffffffffffffffff82169050919050565b600061049c82610471565b9050919050565b6104ac81610491565b82525050565b60006020820190506104c760008301846104a3565b92915050565b600082825260208201905092915050565b7f4f6e6c792074686520636f6e7472616374206f776e65722063616e2063616c6c60008201527f20746869732066756e6374696f6e000000000000000000000000000000000000602082015250565b600061053a602e836104cd565b9150610545826104de565b604082019050919050565b600060208201905081810360008301526105698161052d565b9050919050565b7f4e487b7100000000000000000000000000000000000000000000000000000000600052602160045260246000fd5b7f5468652041756374696f6e20697320616c726561647920636c6f736564000000600082015250565b60006105d5601d836104cd565b91506105e08261059f565b602082019050919050565b60006020820190508181036000830152610604816105c8565b9050919050565b6002811061061c5761061b610570565b5b50565b600081905061062d8261060b565b919050565b600061063d8261061f565b9050919050565b61064d81610632565b82525050565b60006020820190506106686000830184610644565b92915050565b7f5468652041756374696f6e20697320616c7265616479206f70656e0000000000600082015250565b60006106a4601b836104cd565b91506106af8261066e565b602082019050919050565b600060208201905081810360008301526106d381610697565b905091905056fea2646970667358221220cc1af2a50d52984c0d3817fbc80eef89108535e34c108f792d4e5423800012a164736f6c63430008110033",
					"opcodes": "PUSH1 0xC0 PUSH1 0x40 MSTORE CALLVALUE DUP1 ISZERO PUSH2 0x10 JUMPI PUSH1 0x0 DUP1 REVERT JUMPDEST POP PUSH1 0x40 MLOAD PUSH2 0x94C CODESIZE SUB DUP1 PUSH2 0x94C DUP4 CODECOPY DUP2 DUP2 ADD PUSH1 0x40 MSTORE DUP2 ADD SWAP1 PUSH2 0x32 SWAP2 SWAP1 PUSH2 0x182 JUMP JUMPDEST DUP4 PUSH1 0x0 DUP1 PUSH2 0x100 EXP DUP2 SLOAD DUP2 PUSH20 0xFFFFFFFFFFFFFFFFFFFFFFFFFFFFFFFFFFFFFFFF MUL NOT AND SWAP1 DUP4 PUSH20 0xFFFFFFFFFFFFFFFFFFFFFFFFFFFFFFFFFFFFFFFF AND MUL OR SWAP1 SSTORE POP DUP3 PUSH1 0x1 DUP2 SWAP1 SSTORE POP DUP2 PUSH1 0x80 DUP2 DUP2 MSTORE POP POP DUP1 PUSH20 0xFFFFFFFFFFFFFFFFFFFFFFFFFFFFFFFFFFFFFFFF AND PUSH1 0xA0 DUP2 PUSH20 0xFFFFFFFFFFFFFFFFFFFFFFFFFFFFFFFFFFFFFFFF AND DUP2 MSTORE POP POP PUSH1 0x1 PUSH1 0x3 PUSH1 0x0 PUSH2 0x100 EXP DUP2 SLOAD DUP2 PUSH1 0xFF MUL NOT AND SWAP1 DUP4 PUSH1 0x1 DUP2 GT ISZERO PUSH2 0xDB JUMPI PUSH2 0xDA PUSH2 0x1E9 JUMP JUMPDEST JUMPDEST MUL OR SWAP1 SSTORE POP POP POP POP POP PUSH2 0x218 JUMP JUMPDEST PUSH1 0x0 DUP1 REVERT JUMPDEST PUSH1 0x0 PUSH20 0xFFFFFFFFFFFFFFFFFFFFFFFFFFFFFFFFFFFFFFFF DUP3 AND SWAP1 POP SWAP2 SWAP1 POP JUMP JUMPDEST PUSH1 0x0 PUSH2 0x119 DUP3 PUSH2 0xEE JUMP JUMPDEST SWAP1 POP SWAP2 SWAP1 POP JUMP JUMPDEST PUSH2 0x129 DUP2 PUSH2 0x10E JUMP JUMPDEST DUP2 EQ PUSH2 0x134 JUMPI PUSH1 0x0 DUP1 REVERT JUMPDEST POP JUMP JUMPDEST PUSH1 0x0 DUP2 MLOAD SWAP1 POP PUSH2 0x146 DUP2 PUSH2 0x120 JUMP JUMPDEST SWAP3 SWAP2 POP POP JUMP JUMPDEST PUSH1 0x0 DUP2 SWAP1 POP SWAP2 SWAP1 POP JUMP JUMPDEST PUSH2 0x15F DUP2 PUSH2 0x14C JUMP JUMPDEST DUP2 EQ PUSH2 0x16A JUMPI PUSH1 0x0 DUP1 REVERT JUMPDEST POP JUMP JUMPDEST PUSH1 0x0 DUP2 MLOAD SWAP1 POP PUSH2 0x17C DUP2 PUSH2 0x156 JUMP JUMPDEST SWAP3 SWAP2 POP POP JUMP JUMPDEST PUSH1 0x0 DUP1 PUSH1 0x0 DUP1 PUSH1 0x80 DUP6 DUP8 SUB SLT ISZERO PUSH2 0x19C JUMPI PUSH2 0x19B PUSH2 0xE9 JUMP JUMPDEST JUMPDEST PUSH1 0x0 PUSH2 0x1AA DUP8 DUP3 DUP9 ADD PUSH2 0x137 JUMP JUMPDEST SWAP5 POP POP PUSH1 0x20 PUSH2 0x1BB DUP8 DUP3 DUP9 ADD PUSH2 0x16D JUMP JUMPDEST SWAP4 POP POP PUSH1 0x40 PUSH2 0x1CC DUP8 DUP3 DUP9 ADD PUSH2 0x16D JUMP JUMPDEST SWAP3 POP POP PUSH1 0x60 PUSH2 0x1DD DUP8 DUP3 DUP9 ADD PUSH2 0x137 JUMP JUMPDEST SWAP2 POP POP SWAP3 SWAP6 SWAP2 SWAP5 POP SWAP3 POP JUMP JUMPDEST PUSH32 0x4E487B7100000000000000000000000000000000000000000000000000000000 PUSH1 0x0 MSTORE PUSH1 0x21 PUSH1 0x4 MSTORE PUSH1 0x24 PUSH1 0x0 REVERT JUMPDEST PUSH1 0x80 MLOAD PUSH1 0xA0 MLOAD PUSH2 0x710 PUSH2 0x23C PUSH1 0x0 CODECOPY PUSH1 0x0 PUSH2 0x296 ADD MSTORE PUSH1 0x0 PUSH1 0xF5 ADD MSTORE PUSH2 0x710 PUSH1 0x0 RETURN INVALID PUSH1 0x80 PUSH1 0x40 MSTORE CALLVALUE DUP1 ISZERO PUSH2 0x10 JUMPI PUSH1 0x0 DUP1 REVERT JUMPDEST POP PUSH1 0x4 CALLDATASIZE LT PUSH2 0x62 JUMPI PUSH1 0x0 CALLDATALOAD PUSH1 0xE0 SHR DUP1 PUSH4 0x17D70F7C EQ PUSH2 0x67 JUMPI DUP1 PUSH4 0x1D0806AE EQ PUSH2 0x85 JUMPI DUP1 PUSH4 0x378252F2 EQ PUSH2 0xA3 JUMPI DUP1 PUSH4 0x55A373D6 EQ PUSH2 0xAD JUMPI DUP1 PUSH4 0x6B64C769 EQ PUSH2 0xCB JUMPI DUP1 PUSH4 0xD57BDE79 EQ PUSH2 0xD5 JUMPI JUMPDEST PUSH1 0x0 DUP1 REVERT JUMPDEST PUSH2 0x6F PUSH2 0xF3 JUMP JUMPDEST PUSH1 0x40 MLOAD PUSH2 0x7C SWAP2 SWAP1 PUSH2 0x456 JUMP JUMPDEST PUSH1 0x40 MLOAD DUP1 SWAP2 SUB SWAP1 RETURN JUMPDEST PUSH2 0x8D PUSH2 0x117 JUMP JUMPDEST PUSH1 0x40 MLOAD PUSH2 0x9A SWAP2 SWAP1 PUSH2 0x456 JUMP JUMPDEST PUSH1 0x40 MLOAD DUP1 SWAP2 SUB SWAP1 RETURN JUMPDEST PUSH2 0xAB PUSH2 0x11D JUMP JUMPDEST STOP JUMPDEST PUSH2 0xB5 PUSH2 0x294 JUMP JUMPDEST PUSH1 0x40 MLOAD PUSH2 0xC2 SWAP2 SWAP1 PUSH2 0x4B2 JUMP JUMPDEST PUSH1 0x40 MLOAD DUP1 SWAP2 SUB SWAP1 RETURN JUMPDEST PUSH2 0xD3 PUSH2 0x2B8 JUMP JUMPDEST STOP JUMPDEST PUSH2 0xDD PUSH2 0x437 JUMP JUMPDEST PUSH1 0x40 MLOAD PUSH2 0xEA SWAP2 SWAP1 PUSH2 0x456 JUMP JUMPDEST PUSH1 0x40 MLOAD DUP1 SWAP2 SUB SWAP1 RETURN JUMPDEST PUSH32 0x0 DUP2 JUMP JUMPDEST PUSH1 0x1 SLOAD DUP2 JUMP JUMPDEST PUSH1 0x0 DUP1 SLOAD SWAP1 PUSH2 0x100 EXP SWAP1 DIV PUSH20 0xFFFFFFFFFFFFFFFFFFFFFFFFFFFFFFFFFFFFFFFF AND PUSH20 0xFFFFFFFFFFFFFFFFFFFFFFFFFFFFFFFFFFFFFFFF AND CALLER PUSH20 0xFFFFFFFFFFFFFFFFFFFFFFFFFFFFFFFFFFFFFFFF AND EQ PUSH2 0x1AB JUMPI PUSH1 0x40 MLOAD PUSH32 0x8C379A000000000000000000000000000000000000000000000000000000000 DUP2 MSTORE PUSH1 0x4 ADD PUSH2 0x1A2 SWAP1 PUSH2 0x550 JUMP JUMPDEST PUSH1 0x40 MLOAD DUP1 SWAP2 SUB SWAP1 REVERT JUMPDEST PUSH1 0x0 PUSH1 0x1 DUP2 GT ISZERO PUSH2 0x1BF JUMPI PUSH2 0x1BE PUSH2 0x570 JUMP JUMPDEST JUMPDEST PUSH1 0x3 PUSH1 0x0 SWAP1 SLOAD SWAP1 PUSH2 0x100 EXP SWAP1 DIV PUSH1 0xFF AND PUSH1 0x1 DUP2 GT ISZERO PUSH2 0x1E1 JUMPI PUSH2 0x1E0 PUSH2 0x570 JUMP JUMPDEST JUMPDEST EQ PUSH2 0x221 JUMPI PUSH1 0x40 MLOAD PUSH32 0x8C379A000000000000000000000000000000000000000000000000000000000 DUP2 MSTORE PUSH1 0x4 ADD PUSH2 0x218 SWAP1 PUSH2 0x5EB JUMP JUMPDEST PUSH1 0x40 MLOAD DUP1 SWAP2 SUB SWAP1 REVERT JUMPDEST PUSH1 0x1 PUSH1 0x3 PUSH1 0x0 PUSH2 0x100 EXP DUP2 SLOAD DUP2 PUSH1 0xFF MUL NOT AND SWAP1 DUP4 PUSH1 0x1 DUP2 GT ISZERO PUSH2 0x247 JUMPI PUSH2 0x246 PUSH2 0x570 JUMP JUMPDEST JUMPDEST MUL OR SWAP1 SSTORE POP PUSH32 0x8CAED3B4BF01375B22DC7F84AFE719CE12AB14864751A7D5E4142FE4E4A50A51 PUSH1 0x3 PUSH1 0x0 SWAP1 SLOAD SWAP1 PUSH2 0x100 EXP SWAP1 DIV PUSH1 0xFF AND PUSH1 0x40 MLOAD PUSH2 0x28A SWAP2 SWAP1 PUSH2 0x653 JUMP JUMPDEST PUSH1 0x40 MLOAD DUP1 SWAP2 SUB SWAP1 LOG1 JUMP JUMPDEST PUSH32 0x0 DUP2 JUMP JUMPDEST PUSH1 0x0 DUP1 SLOAD SWAP1 PUSH2 0x100 EXP SWAP1 DIV PUSH20 0xFFFFFFFFFFFFFFFFFFFFFFFFFFFFFFFFFFFFFFFF AND PUSH20 0xFFFFFFFFFFFFFFFFFFFFFFFFFFFFFFFFFFFFFFFF AND CALLER PUSH20 0xFFFFFFFFFFFFFFFFFFFFFFFFFFFFFFFFFFFFFFFF AND EQ PUSH2 0x346 JUMPI PUSH1 0x40 MLOAD PUSH32 0x8C379A000000000000000000000000000000000000000000000000000000000 DUP2 MSTORE PUSH1 0x4 ADD PUSH2 0x33D SWAP1 PUSH2 0x550 JUMP JUMPDEST PUSH1 0x40 MLOAD DUP1 SWAP2 SUB SWAP1 REVERT JUMPDEST PUSH1 0x1 DUP1 DUP2 GT ISZERO PUSH2 0x359 JUMPI PUSH2 0x358 PUSH2 0x570 JUMP JUMPDEST JUMPDEST PUSH1 0x3 PUSH1 0x0 SWAP1 SLOAD SWAP1 PUSH2 0x100 EXP SWAP1 DIV PUSH1 0xFF AND PUSH1 0x1 DUP2 GT ISZERO PUSH2 0x37B JUMPI PUSH2 0x37A PUSH2 0x570 JUMP JUMPDEST JUMPDEST EQ PUSH2 0x3BB JUMPI PUSH1 0x40 MLOAD PUSH32 0x8C379A000000000000000000000000000000000000000000000000000000000 DUP2 MSTORE PUSH1 0x4 ADD PUSH2 0x3B2 SWAP1 PUSH2 0x6BA JUMP JUMPDEST PUSH1 0x40 MLOAD DUP1 SWAP2 SUB SWAP1 REVERT JUMPDEST PUSH1 0x0 PUSH1 0x3 PUSH1 0x0 PUSH2 0x100 EXP DUP2 SLOAD DUP2 PUSH1 0xFF MUL NOT AND SWAP1 DUP4 PUSH1 0x1 DUP2 GT ISZERO PUSH2 0x3E1 JUMPI PUSH2 0x3E0 PUSH2 0x570 JUMP JUMPDEST JUMPDEST MUL OR SWAP1 SSTORE POP PUSH1 0x1 SLOAD PUSH1 0x2 DUP2 SWAP1 SSTORE POP PUSH32 0x8CAED3B4BF01375B22DC7F84AFE719CE12AB14864751A7D5E4142FE4E4A50A51 PUSH1 0x3 PUSH1 0x0 SWAP1 SLOAD SWAP1 PUSH2 0x100 EXP SWAP1 DIV PUSH1 0xFF AND PUSH1 0x40 MLOAD PUSH2 0x42D SWAP2 SWAP1 PUSH2 0x653 JUMP JUMPDEST PUSH1 0x40 MLOAD DUP1 SWAP2 SUB SWAP1 LOG1 JUMP JUMPDEST PUSH1 0x2 SLOAD DUP2 JUMP JUMPDEST PUSH1 0x0 DUP2 SWAP1 POP SWAP2 SWAP1 POP JUMP JUMPDEST PUSH2 0x450 DUP2 PUSH2 0x43D JUMP JUMPDEST DUP3 MSTORE POP POP JUMP JUMPDEST PUSH1 0x0 PUSH1 0x20 DUP3 ADD SWAP1 POP PUSH2 0x46B PUSH1 0x0 DUP4 ADD DUP5 PUSH2 0x447 JUMP JUMPDEST SWAP3 SWAP2 POP POP JUMP JUMPDEST PUSH1 0x0 PUSH20 0xFFFFFFFFFFFFFFFFFFFFFFFFFFFFFFFFFFFFFFFF DUP3 AND SWAP1 POP SWAP2 SWAP1 POP JUMP JUMPDEST PUSH1 0x0 PUSH2 0x49C DUP3 PUSH2 0x471 JUMP JUMPDEST SWAP1 POP SWAP2 SWAP1 POP JUMP JUMPDEST PUSH2 0x4AC DUP2 PUSH2 0x491 JUMP JUMPDEST DUP3 MSTORE POP POP JUMP JUMPDEST PUSH1 0x0 PUSH1 0x20 DUP3 ADD SWAP1 POP PUSH2 0x4C7 PUSH1 0x0 DUP4 ADD DUP5 PUSH2 0x4A3 JUMP JUMPDEST SWAP3 SWAP2 POP POP JUMP JUMPDEST PUSH1 0x0 DUP3 DUP3 MSTORE PUSH1 0x20 DUP3 ADD SWAP1 POP SWAP3 SWAP2 POP POP JUMP JUMPDEST PUSH32 0x4F6E6C792074686520636F6E7472616374206F776E65722063616E2063616C6C PUSH1 0x0 DUP3 ADD MSTORE PUSH32 0x20746869732066756E6374696F6E000000000000000000000000000000000000 PUSH1 0x20 DUP3 ADD MSTORE POP JUMP JUMPDEST PUSH1 0x0 PUSH2 0x53A PUSH1 0x2E DUP4 PUSH2 0x4CD JUMP JUMPDEST SWAP2 POP PUSH2 0x545 DUP3 PUSH2 0x4DE JUMP JUMPDEST PUSH1 0x40 DUP3 ADD SWAP1 POP SWAP2 SWAP1 POP JUMP JUMPDEST PUSH1 0x0 PUSH1 0x20 DUP3 ADD SWAP1 POP DUP2 DUP2 SUB PUSH1 0x0 DUP4 ADD MSTORE PUSH2 0x569 DUP2 PUSH2 0x52D JUMP JUMPDEST SWAP1 POP SWAP2 SWAP1 POP JUMP JUMPDEST PUSH32 0x4E487B7100000000000000000000000000000000000000000000000000000000 PUSH1 0x0 MSTORE PUSH1 0x21 PUSH1 0x4 MSTORE PUSH1 0x24 PUSH1 0x0 REVERT JUMPDEST PUSH32 0x5468652041756374696F6E20697320616C726561647920636C6F736564000000 PUSH1 0x0 DUP3 ADD MSTORE POP JUMP JUMPDEST PUSH1 0x0 PUSH2 0x5D5 PUSH1 0x1D DUP4 PUSH2 0x4CD JUMP JUMPDEST SWAP2 POP PUSH2 0x5E0 DUP3 PUSH2 0x59F JUMP JUMPDEST PUSH1 0x20 DUP3 ADD SWAP1 POP SWAP2 SWAP1 POP JUMP JUMPDEST PUSH1 0x0 PUSH1 0x20 DUP3 ADD SWAP1 POP DUP2 DUP2 SUB PUSH1 0x0 DUP4 ADD MSTORE PUSH2 0x604 DUP2 PUSH2 0x5C8 JUMP JUMPDEST SWAP1 POP SWAP2 SWAP1 POP JUMP JUMPDEST PUSH1 0x2 DUP2 LT PUSH2 0x61C JUMPI PUSH2 0x61B PUSH2 0x570 JUMP JUMPDEST JUMPDEST POP JUMP JUMPDEST PUSH1 0x0 DUP2 SWAP1 POP PUSH2 0x62D DUP3 PUSH2 0x60B JUMP JUMPDEST SWAP2 SWAP1 POP JUMP JUMPDEST PUSH1 0x0 PUSH2 0x63D DUP3 PUSH2 0x61F JUMP JUMPDEST SWAP1 POP SWAP2 SWAP1 POP JUMP JUMPDEST PUSH2 0x64D DUP2 PUSH2 0x632 JUMP JUMPDEST DUP3 MSTORE POP POP JUMP JUMPDEST PUSH1 0x0 PUSH1 0x20 DUP3 ADD SWAP1 POP PUSH2 0x668 PUSH1 0x0 DUP4 ADD DUP5 PUSH2 0x644 JUMP JUMPDEST SWAP3 SWAP2 POP POP JUMP JUMPDEST PUSH32 0x5468652041756374696F6E20697320616C7265616479206F70656E0000000000 PUSH1 0x0 DUP3 ADD MSTORE POP JUMP JUMPDEST PUSH1 0x0 PUSH2 0x6A4 PUSH1 0x1B DUP4 PUSH2 0x4CD JUMP JUMPDEST SWAP2 POP PUSH2 0x6AF DUP3 PUSH2 0x66E JUMP JUMPDEST PUSH1 0x20 DUP3 ADD SWAP1 POP SWAP2 SWAP1 POP JUMP JUMPDEST PUSH1 0x0 PUSH1 0x20 DUP3 ADD SWAP1 POP DUP2 DUP2 SUB PUSH1 0x0 DUP4 ADD MSTORE PUSH2 0x6D3 DUP2 PUSH2 0x697 JUMP JUMPDEST SWAP1 POP SWAP2 SWAP1 POP JUMP INVALID LOG2 PUSH5 0x6970667358 0x22 SLT KECCAK256 0xCC BYTE CALLCODE 0xA5 0xD MSTORE SWAP9 0x4C 0xD CODESIZE OR 0xFB 0xC8 0xE 0xEF DUP10 LT DUP6 CALLDATALOAD 0xE3 0x4C LT DUP16 PUSH26 0x2D4E5423800012A164736F6C6343000811003300000000000000 "
				},
				"gasEstimates": {
					"creation": {
						"codeDepositCost": "361600",
						"executionCost": "infinite",
						"totalCost": "infinite"
					},
					"external": {
						"closeAuction()": "32253",
						"highestBid()": "2517",
						"initialPrice()": "2429",
						"startAuction()": "56511",
						"tokenContract()": "infinite",
						"tokenId()": "infinite"
					}
				},
				"methodIdentifiers": {
					"closeAuction()": "378252f2",
					"highestBid()": "d57bde79",
					"initialPrice()": "1d0806ae",
					"startAuction()": "6b64c769",
					"tokenContract()": "55a373d6",
					"tokenId()": "17d70f7c"
				}
			},
			"storageLayout": {
				"storage": [
					{
						"astId": 3,
						"contract": "contracts/Auction_1.sol:NFTAuction",
						"label": "auctioneer",
						"offset": 0,
						"slot": "0",
						"type": "t_address_payable"
					},
					{
						"astId": 5,
						"contract": "contracts/Auction_1.sol:NFTAuction",
						"label": "initialPrice",
						"offset": 0,
						"slot": "1",
						"type": "t_uint256"
					},
					{
						"astId": 7,
						"contract": "contracts/Auction_1.sol:NFTAuction",
						"label": "highestBid",
						"offset": 0,
						"slot": "2",
						"type": "t_uint256"
					},
					{
						"astId": 17,
						"contract": "contracts/Auction_1.sol:NFTAuction",
						"label": "status",
						"offset": 0,
						"slot": "3",
						"type": "t_enum(AuctionStatus)14"
					}
				],
				"types": {
					"t_address_payable": {
						"encoding": "inplace",
						"label": "address payable",
						"numberOfBytes": "20"
					},
					"t_enum(AuctionStatus)14": {
						"encoding": "inplace",
						"label": "enum NFTAuction.AuctionStatus",
						"numberOfBytes": "1"
					},
					"t_uint256": {
						"encoding": "inplace",
						"label": "uint256",
						"numberOfBytes": "32"
					}
				}
			},
			"userdoc": {
				"kind": "user",
				"methods": {},
				"version": 1
			}
		}
	}
}