{
	"contracts/LiquidityPool.sol": {
		"LiquidityPool": {
			"abi": [
				{
					"inputs": [
						{
							"internalType": "address",
							"name": "_tokenAddress",
							"type": "address"
						}
					],
					"stateMutability": "nonpayable",
					"type": "constructor"
				},
				{
					"inputs": [
						{
							"internalType": "uint256",
							"name": "_amount",
							"type": "uint256"
						}
					],
					"name": "provideLiquidity",
					"outputs": [],
					"stateMutability": "payable",
					"type": "function"
				},
				{
					"inputs": [],
					"name": "token",
					"outputs": [
						{
							"internalType": "contract IERC20",
							"name": "",
							"type": "address"
						}
					],
					"stateMutability": "view",
					"type": "function"
				},
				{
					"inputs": [],
					"name": "tokenAddress",
					"outputs": [
						{
							"internalType": "address",
							"name": "",
							"type": "address"
						}
					],
					"stateMutability": "view",
					"type": "function"
				}
			],
			"devdoc": {
				"kind": "dev",
				"methods": {},
				"version": 1
			},
			"evm": {
				"assembly": "    /* \"contracts/LiquidityPool.sol\":241:581  contract LiquidityPool {... */\n  mstore(0x40, 0x80)\n    /* \"contracts/LiquidityPool.sol\":417:496  constructor(address _tokenAddress){... */\n  callvalue\n  dup1\n  iszero\n  tag_1\n  jumpi\n  0x00\n  dup1\n  revert\ntag_1:\n  pop\n  mload(0x40)\n  sub(codesize, bytecodeSize)\n  dup1\n  bytecodeSize\n  dup4\n  codecopy\n  dup2\n  dup2\n  add\n  0x40\n  mstore\n  dup2\n  add\n  swap1\n  tag_2\n  swap2\n  swap1\n  tag_3\n  jump\t// in\ntag_2:\n    /* \"contracts/LiquidityPool.sol\":477:489  tokenAddress */\n  0x01\n  0x00\n  swap1\n  sload\n  swap1\n  0x0100\n  exp\n  swap1\n  div\n  0xffffffffffffffffffffffffffffffffffffffff\n  and\n    /* \"contracts/LiquidityPool.sol\":461:489  _tokenAddress = tokenAddress */\n  swap1\n  pop\n    /* \"contracts/LiquidityPool.sol\":417:496  constructor(address _tokenAddress){... */\n  pop\n    /* \"contracts/LiquidityPool.sol\":241:581  contract LiquidityPool {... */\n  jump(tag_6)\n    /* \"#utility.yul\":7:150   */\ntag_8:\n    /* \"#utility.yul\":64:69   */\n  0x00\n    /* \"#utility.yul\":95:101   */\n  dup2\n    /* \"#utility.yul\":89:102   */\n  mload\n    /* \"#utility.yul\":80:102   */\n  swap1\n  pop\n    /* \"#utility.yul\":111:144   */\n  tag_10\n    /* \"#utility.yul\":138:143   */\n  dup2\n    /* \"#utility.yul\":111:144   */\n  tag_11\n  jump\t// in\ntag_10:\n    /* \"#utility.yul\":7:150   */\n  swap3\n  swap2\n  pop\n  pop\n  jump\t// out\n    /* \"#utility.yul\":156:507   */\ntag_3:\n    /* \"#utility.yul\":226:232   */\n  0x00\n    /* \"#utility.yul\":275:277   */\n  0x20\n    /* \"#utility.yul\":263:272   */\n  dup3\n    /* \"#utility.yul\":254:261   */\n  dup5\n    /* \"#utility.yul\":250:273   */\n  sub\n    /* \"#utility.yul\":246:278   */\n  slt\n    /* \"#utility.yul\":243:362   */\n  iszero\n  tag_13\n  jumpi\n    /* \"#utility.yul\":281:360   */\n  tag_14\n  tag_15\n  jump\t// in\ntag_14:\n    /* \"#utility.yul\":243:362   */\ntag_13:\n    /* \"#utility.yul\":401:402   */\n  0x00\n    /* \"#utility.yul\":426:490   */\n  tag_16\n    /* \"#utility.yul\":482:489   */\n  dup5\n    /* \"#utility.yul\":473:479   */\n  dup3\n    /* \"#utility.yul\":462:471   */\n  dup6\n    /* \"#utility.yul\":458:480   */\n  add\n    /* \"#utility.yul\":426:490   */\n  tag_8\n  jump\t// in\ntag_16:\n    /* \"#utility.yul\":416:490   */\n  swap2\n  pop\n    /* \"#utility.yul\":372:500   */\n  pop\n    /* \"#utility.yul\":156:507   */\n  swap3\n  swap2\n  pop\n  pop\n  jump\t// out\n    /* \"#utility.yul\":594:690   */\ntag_19:\n    /* \"#utility.yul\":631:638   */\n  0x00\n    /* \"#utility.yul\":660:684   */\n  tag_21\n    /* \"#utility.yul\":678:683   */\n  dup3\n    /* \"#utility.yul\":660:684   */\n  tag_22\n  jump\t// in\ntag_21:\n    /* \"#utility.yul\":649:684   */\n  swap1\n  pop\n    /* \"#utility.yul\":594:690   */\n  swap2\n  swap1\n  pop\n  jump\t// out\n    /* \"#utility.yul\":696:822   */\ntag_22:\n    /* \"#utility.yul\":733:740   */\n  0x00\n    /* \"#utility.yul\":773:815   */\n  0xffffffffffffffffffffffffffffffffffffffff\n    /* \"#utility.yul\":766:771   */\n  dup3\n    /* \"#utility.yul\":762:816   */\n  and\n    /* \"#utility.yul\":751:816   */\n  swap1\n  pop\n    /* \"#utility.yul\":696:822   */\n  swap2\n  swap1\n  pop\n  jump\t// out\n    /* \"#utility.yul\":951:1068   */\ntag_15:\n    /* \"#utility.yul\":1060:1061   */\n  0x00\n    /* \"#utility.yul\":1057:1058   */\n  dup1\n    /* \"#utility.yul\":1050:1062   */\n  revert\n    /* \"#utility.yul\":1074:1196   */\ntag_11:\n    /* \"#utility.yul\":1147:1171   */\n  tag_28\n    /* \"#utility.yul\":1165:1170   */\n  dup2\n    /* \"#utility.yul\":1147:1171   */\n  tag_19\n  jump\t// in\ntag_28:\n    /* \"#utility.yul\":1140:1145   */\n  dup2\n    /* \"#utility.yul\":1137:1172   */\n  eq\n    /* \"#utility.yul\":1127:1190   */\n  tag_29\n  jumpi\n    /* \"#utility.yul\":1186:1187   */\n  0x00\n    /* \"#utility.yul\":1183:1184   */\n  dup1\n    /* \"#utility.yul\":1176:1188   */\n  revert\n    /* \"#utility.yul\":1127:1190   */\ntag_29:\n    /* \"#utility.yul\":1074:1196   */\n  pop\n  jump\t// out\n    /* \"contracts/LiquidityPool.sol\":241:581  contract LiquidityPool {... */\ntag_6:\n  dataSize(sub_0)\n  dup1\n  dataOffset(sub_0)\n  0x00\n  codecopy\n  0x00\n  return\nstop\n\nsub_0: assembly {\n        /* \"contracts/LiquidityPool.sol\":241:581  contract LiquidityPool {... */\n      mstore(0x40, 0x80)\n      jumpi(tag_1, lt(calldatasize, 0x04))\n      shr(0xe0, calldataload(0x00))\n      dup1\n      0x9d76ea58\n      eq\n      tag_2\n      jumpi\n      dup1\n      0xeb521a4c\n      eq\n      tag_3\n      jumpi\n      dup1\n      0xfc0c546a\n      eq\n      tag_4\n      jumpi\n    tag_1:\n      0x00\n      dup1\n      revert\n        /* \"contracts/LiquidityPool.sol\":383:410  address public tokenAddress */\n    tag_2:\n      callvalue\n      dup1\n      iszero\n      tag_5\n      jumpi\n      0x00\n      dup1\n      revert\n    tag_5:\n      pop\n      tag_6\n      tag_7\n      jump\t// in\n    tag_6:\n      mload(0x40)\n      tag_8\n      swap2\n      swap1\n      tag_9\n      jump\t// in\n    tag_8:\n      mload(0x40)\n      dup1\n      swap2\n      sub\n      swap1\n      return\n        /* \"contracts/LiquidityPool.sol\":503:579  function provideLiquidity(uint256 _amount) external payable {... */\n    tag_3:\n      tag_10\n      0x04\n      dup1\n      calldatasize\n      sub\n      dup2\n      add\n      swap1\n      tag_11\n      swap2\n      swap1\n      tag_12\n      jump\t// in\n    tag_11:\n      tag_13\n      jump\t// in\n    tag_10:\n      stop\n        /* \"contracts/LiquidityPool.sol\":358:377  IERC20 public token */\n    tag_4:\n      callvalue\n      dup1\n      iszero\n      tag_14\n      jumpi\n      0x00\n      dup1\n      revert\n    tag_14:\n      pop\n      tag_15\n      tag_16\n      jump\t// in\n    tag_15:\n      mload(0x40)\n      tag_17\n      swap2\n      swap1\n      tag_18\n      jump\t// in\n    tag_17:\n      mload(0x40)\n      dup1\n      swap2\n      sub\n      swap1\n      return\n        /* \"contracts/LiquidityPool.sol\":383:410  address public tokenAddress */\n    tag_7:\n      0x01\n      0x00\n      swap1\n      sload\n      swap1\n      0x0100\n      exp\n      swap1\n      div\n      0xffffffffffffffffffffffffffffffffffffffff\n      and\n      dup2\n      jump\t// out\n        /* \"contracts/LiquidityPool.sol\":503:579  function provideLiquidity(uint256 _amount) external payable {... */\n    tag_13:\n      pop\n      jump\t// out\n        /* \"contracts/LiquidityPool.sol\":358:377  IERC20 public token */\n    tag_16:\n      0x00\n      dup1\n      sload\n      swap1\n      0x0100\n      exp\n      swap1\n      div\n      0xffffffffffffffffffffffffffffffffffffffff\n      and\n      dup2\n      jump\t// out\n        /* \"#utility.yul\":7:146   */\n    tag_21:\n        /* \"#utility.yul\":53:58   */\n      0x00\n        /* \"#utility.yul\":91:97   */\n      dup2\n        /* \"#utility.yul\":78:98   */\n      calldataload\n        /* \"#utility.yul\":69:98   */\n      swap1\n      pop\n        /* \"#utility.yul\":107:140   */\n      tag_23\n        /* \"#utility.yul\":134:139   */\n      dup2\n        /* \"#utility.yul\":107:140   */\n      tag_24\n      jump\t// in\n    tag_23:\n        /* \"#utility.yul\":7:146   */\n      swap3\n      swap2\n      pop\n      pop\n      jump\t// out\n        /* \"#utility.yul\":152:481   */\n    tag_12:\n        /* \"#utility.yul\":211:217   */\n      0x00\n        /* \"#utility.yul\":260:262   */\n      0x20\n        /* \"#utility.yul\":248:257   */\n      dup3\n        /* \"#utility.yul\":239:246   */\n      dup5\n        /* \"#utility.yul\":235:258   */\n      sub\n        /* \"#utility.yul\":231:263   */\n      slt\n        /* \"#utility.yul\":228:347   */\n      iszero\n      tag_26\n      jumpi\n        /* \"#utility.yul\":266:345   */\n      tag_27\n      tag_28\n      jump\t// in\n    tag_27:\n        /* \"#utility.yul\":228:347   */\n    tag_26:\n        /* \"#utility.yul\":386:387   */\n      0x00\n        /* \"#utility.yul\":411:464   */\n      tag_29\n        /* \"#utility.yul\":456:463   */\n      dup5\n        /* \"#utility.yul\":447:453   */\n      dup3\n        /* \"#utility.yul\":436:445   */\n      dup6\n        /* \"#utility.yul\":432:454   */\n      add\n        /* \"#utility.yul\":411:464   */\n      tag_21\n      jump\t// in\n    tag_29:\n        /* \"#utility.yul\":401:464   */\n      swap2\n      pop\n        /* \"#utility.yul\":357:474   */\n      pop\n        /* \"#utility.yul\":152:481   */\n      swap3\n      swap2\n      pop\n      pop\n      jump\t// out\n        /* \"#utility.yul\":487:605   */\n    tag_30:\n        /* \"#utility.yul\":574:598   */\n      tag_32\n        /* \"#utility.yul\":592:597   */\n      dup2\n        /* \"#utility.yul\":574:598   */\n      tag_33\n      jump\t// in\n    tag_32:\n        /* \"#utility.yul\":569:572   */\n      dup3\n        /* \"#utility.yul\":562:599   */\n      mstore\n        /* \"#utility.yul\":487:605   */\n      pop\n      pop\n      jump\t// out\n        /* \"#utility.yul\":611:768   */\n    tag_34:\n        /* \"#utility.yul\":711:761   */\n      tag_36\n        /* \"#utility.yul\":755:760   */\n      dup2\n        /* \"#utility.yul\":711:761   */\n      tag_37\n      jump\t// in\n    tag_36:\n        /* \"#utility.yul\":706:709   */\n      dup3\n        /* \"#utility.yul\":699:762   */\n      mstore\n        /* \"#utility.yul\":611:768   */\n      pop\n      pop\n      jump\t// out\n        /* \"#utility.yul\":774:996   */\n    tag_9:\n        /* \"#utility.yul\":867:871   */\n      0x00\n        /* \"#utility.yul\":905:907   */\n      0x20\n        /* \"#utility.yul\":894:903   */\n      dup3\n        /* \"#utility.yul\":890:908   */\n      add\n        /* \"#utility.yul\":882:908   */\n      swap1\n      pop\n        /* \"#utility.yul\":918:989   */\n      tag_39\n        /* \"#utility.yul\":986:987   */\n      0x00\n        /* \"#utility.yul\":975:984   */\n      dup4\n        /* \"#utility.yul\":971:988   */\n      add\n        /* \"#utility.yul\":962:968   */\n      dup5\n        /* \"#utility.yul\":918:989   */\n      tag_30\n      jump\t// in\n    tag_39:\n        /* \"#utility.yul\":774:996   */\n      swap3\n      swap2\n      pop\n      pop\n      jump\t// out\n        /* \"#utility.yul\":1002:1250   */\n    tag_18:\n        /* \"#utility.yul\":1108:1112   */\n      0x00\n        /* \"#utility.yul\":1146:1148   */\n      0x20\n        /* \"#utility.yul\":1135:1144   */\n      dup3\n        /* \"#utility.yul\":1131:1149   */\n      add\n        /* \"#utility.yul\":1123:1149   */\n      swap1\n      pop\n        /* \"#utility.yul\":1159:1243   */\n      tag_41\n        /* \"#utility.yul\":1240:1241   */\n      0x00\n        /* \"#utility.yul\":1229:1238   */\n      dup4\n        /* \"#utility.yul\":1225:1242   */\n      add\n        /* \"#utility.yul\":1216:1222   */\n      dup5\n        /* \"#utility.yul\":1159:1243   */\n      tag_34\n      jump\t// in\n    tag_41:\n        /* \"#utility.yul\":1002:1250   */\n      swap3\n      swap2\n      pop\n      pop\n      jump\t// out\n        /* \"#utility.yul\":1337:1433   */\n    tag_33:\n        /* \"#utility.yul\":1374:1381   */\n      0x00\n        /* \"#utility.yul\":1403:1427   */\n      tag_45\n        /* \"#utility.yul\":1421:1426   */\n      dup3\n        /* \"#utility.yul\":1403:1427   */\n      tag_46\n      jump\t// in\n    tag_45:\n        /* \"#utility.yul\":1392:1427   */\n      swap1\n      pop\n        /* \"#utility.yul\":1337:1433   */\n      swap2\n      swap1\n      pop\n      jump\t// out\n        /* \"#utility.yul\":1439:1565   */\n    tag_46:\n        /* \"#utility.yul\":1476:1483   */\n      0x00\n        /* \"#utility.yul\":1516:1558   */\n      0xffffffffffffffffffffffffffffffffffffffff\n        /* \"#utility.yul\":1509:1514   */\n      dup3\n        /* \"#utility.yul\":1505:1559   */\n      and\n        /* \"#utility.yul\":1494:1559   */\n      swap1\n      pop\n        /* \"#utility.yul\":1439:1565   */\n      swap2\n      swap1\n      pop\n      jump\t// out\n        /* \"#utility.yul\":1571:1648   */\n    tag_48:\n        /* \"#utility.yul\":1608:1615   */\n      0x00\n        /* \"#utility.yul\":1637:1642   */\n      dup2\n        /* \"#utility.yul\":1626:1642   */\n      swap1\n      pop\n        /* \"#utility.yul\":1571:1648   */\n      swap2\n      swap1\n      pop\n      jump\t// out\n        /* \"#utility.yul\":1654:1793   */\n    tag_37:\n        /* \"#utility.yul\":1717:1726   */\n      0x00\n        /* \"#utility.yul\":1750:1787   */\n      tag_51\n        /* \"#utility.yul\":1781:1786   */\n      dup3\n        /* \"#utility.yul\":1750:1787   */\n      tag_52\n      jump\t// in\n    tag_51:\n        /* \"#utility.yul\":1737:1787   */\n      swap1\n      pop\n        /* \"#utility.yul\":1654:1793   */\n      swap2\n      swap1\n      pop\n      jump\t// out\n        /* \"#utility.yul\":1799:1925   */\n    tag_52:\n        /* \"#utility.yul\":1849:1858   */\n      0x00\n        /* \"#utility.yul\":1882:1919   */\n      tag_54\n        /* \"#utility.yul\":1913:1918   */\n      dup3\n        /* \"#utility.yul\":1882:1919   */\n      tag_55\n      jump\t// in\n    tag_54:\n        /* \"#utility.yul\":1869:1919   */\n      swap1\n      pop\n        /* \"#utility.yul\":1799:1925   */\n      swap2\n      swap1\n      pop\n      jump\t// out\n        /* \"#utility.yul\":1931:2044   */\n    tag_55:\n        /* \"#utility.yul\":1981:1990   */\n      0x00\n        /* \"#utility.yul\":2014:2038   */\n      tag_57\n        /* \"#utility.yul\":2032:2037   */\n      dup3\n        /* \"#utility.yul\":2014:2038   */\n      tag_46\n      jump\t// in\n    tag_57:\n        /* \"#utility.yul\":2001:2038   */\n      swap1\n      pop\n        /* \"#utility.yul\":1931:2044   */\n      swap2\n      swap1\n      pop\n      jump\t// out\n        /* \"#utility.yul\":2173:2290   */\n    tag_28:\n        /* \"#utility.yul\":2282:2283   */\n      0x00\n        /* \"#utility.yul\":2279:2280   */\n      dup1\n        /* \"#utility.yul\":2272:2284   */\n      revert\n        /* \"#utility.yul\":2296:2418   */\n    tag_24:\n        /* \"#utility.yul\":2369:2393   */\n      tag_62\n        /* \"#utility.yul\":2387:2392   */\n      dup2\n        /* \"#utility.yul\":2369:2393   */\n      tag_48\n      jump\t// in\n    tag_62:\n        /* \"#utility.yul\":2362:2367   */\n      dup2\n        /* \"#utility.yul\":2359:2394   */\n      eq\n        /* \"#utility.yul\":2349:2412   */\n      tag_63\n      jumpi\n        /* \"#utility.yul\":2408:2409   */\n      0x00\n        /* \"#utility.yul\":2405:2406   */\n      dup1\n        /* \"#utility.yul\":2398:2410   */\n      revert\n        /* \"#utility.yul\":2349:2412   */\n    tag_63:\n        /* \"#utility.yul\":2296:2418   */\n      pop\n      jump\t// out\n\n    auxdata: 0xa2646970667358221220cfbf097a8ce390d4b3632b8268b47b19a6e72a1cf325a9d05cd99859b487371164736f6c63430008070033\n}\n",
				"bytecode": {
					"linkReferences": {},
					"object": "608060405234801561001057600080fd5b5060405161034e38038061034e83398181016040528101906100329190610072565b600160009054906101000a900473ffffffffffffffffffffffffffffffffffffffff169050506100ed565b60008151905061006c816100d6565b92915050565b600060208284031215610088576100876100d1565b5b60006100968482850161005d565b91505092915050565b60006100aa826100b1565b9050919050565b600073ffffffffffffffffffffffffffffffffffffffff82169050919050565b600080fd5b6100df8161009f565b81146100ea57600080fd5b50565b610252806100fc6000396000f3fe6080604052600436106100345760003560e01c80639d76ea5814610039578063eb521a4c14610064578063fc0c546a14610080575b600080fd5b34801561004557600080fd5b5061004e6100ab565b60405161005b9190610158565b60405180910390f35b61007e6004803603810190610079919061010d565b6100d1565b005b34801561008c57600080fd5b506100956100d4565b6040516100a29190610173565b60405180910390f35b600160009054906101000a900473ffffffffffffffffffffffffffffffffffffffff1681565b50565b60008054906101000a900473ffffffffffffffffffffffffffffffffffffffff1681565b60008135905061010781610205565b92915050565b60006020828403121561012357610122610200565b5b6000610131848285016100f8565b91505092915050565b6101438161018e565b82525050565b610152816101ca565b82525050565b600060208201905061016d600083018461013a565b92915050565b60006020820190506101886000830184610149565b92915050565b6000610199826101a0565b9050919050565b600073ffffffffffffffffffffffffffffffffffffffff82169050919050565b6000819050919050565b60006101d5826101dc565b9050919050565b60006101e7826101ee565b9050919050565b60006101f9826101a0565b9050919050565b600080fd5b61020e816101c0565b811461021957600080fd5b5056fea2646970667358221220cfbf097a8ce390d4b3632b8268b47b19a6e72a1cf325a9d05cd99859b487371164736f6c63430008070033",
					"opcodes": "PUSH1 0x80 PUSH1 0x40 MSTORE CALLVALUE DUP1 ISZERO PUSH2 0x10 JUMPI PUSH1 0x0 DUP1 REVERT JUMPDEST POP PUSH1 0x40 MLOAD PUSH2 0x34E CODESIZE SUB DUP1 PUSH2 0x34E DUP4 CODECOPY DUP2 DUP2 ADD PUSH1 0x40 MSTORE DUP2 ADD SWAP1 PUSH2 0x32 SWAP2 SWAP1 PUSH2 0x72 JUMP JUMPDEST PUSH1 0x1 PUSH1 0x0 SWAP1 SLOAD SWAP1 PUSH2 0x100 EXP SWAP1 DIV PUSH20 0xFFFFFFFFFFFFFFFFFFFFFFFFFFFFFFFFFFFFFFFF AND SWAP1 POP POP PUSH2 0xED JUMP JUMPDEST PUSH1 0x0 DUP2 MLOAD SWAP1 POP PUSH2 0x6C DUP2 PUSH2 0xD6 JUMP JUMPDEST SWAP3 SWAP2 POP POP JUMP JUMPDEST PUSH1 0x0 PUSH1 0x20 DUP3 DUP5 SUB SLT ISZERO PUSH2 0x88 JUMPI PUSH2 0x87 PUSH2 0xD1 JUMP JUMPDEST JUMPDEST PUSH1 0x0 PUSH2 0x96 DUP5 DUP3 DUP6 ADD PUSH2 0x5D JUMP JUMPDEST SWAP2 POP POP SWAP3 SWAP2 POP POP JUMP JUMPDEST PUSH1 0x0 PUSH2 0xAA DUP3 PUSH2 0xB1 JUMP JUMPDEST SWAP1 POP SWAP2 SWAP1 POP JUMP JUMPDEST PUSH1 0x0 PUSH20 0xFFFFFFFFFFFFFFFFFFFFFFFFFFFFFFFFFFFFFFFF DUP3 AND SWAP1 POP SWAP2 SWAP1 POP JUMP JUMPDEST PUSH1 0x0 DUP1 REVERT JUMPDEST PUSH2 0xDF DUP2 PUSH2 0x9F JUMP JUMPDEST DUP2 EQ PUSH2 0xEA JUMPI PUSH1 0x0 DUP1 REVERT JUMPDEST POP JUMP JUMPDEST PUSH2 0x252 DUP1 PUSH2 0xFC PUSH1 0x0 CODECOPY PUSH1 0x0 RETURN INVALID PUSH1 0x80 PUSH1 0x40 MSTORE PUSH1 0x4 CALLDATASIZE LT PUSH2 0x34 JUMPI PUSH1 0x0 CALLDATALOAD PUSH1 0xE0 SHR DUP1 PUSH4 0x9D76EA58 EQ PUSH2 0x39 JUMPI DUP1 PUSH4 0xEB521A4C EQ PUSH2 0x64 JUMPI DUP1 PUSH4 0xFC0C546A EQ PUSH2 0x80 JUMPI JUMPDEST PUSH1 0x0 DUP1 REVERT JUMPDEST CALLVALUE DUP1 ISZERO PUSH2 0x45 JUMPI PUSH1 0x0 DUP1 REVERT JUMPDEST POP PUSH2 0x4E PUSH2 0xAB JUMP JUMPDEST PUSH1 0x40 MLOAD PUSH2 0x5B SWAP2 SWAP1 PUSH2 0x158 JUMP JUMPDEST PUSH1 0x40 MLOAD DUP1 SWAP2 SUB SWAP1 RETURN JUMPDEST PUSH2 0x7E PUSH1 0x4 DUP1 CALLDATASIZE SUB DUP2 ADD SWAP1 PUSH2 0x79 SWAP2 SWAP1 PUSH2 0x10D JUMP JUMPDEST PUSH2 0xD1 JUMP JUMPDEST STOP JUMPDEST CALLVALUE DUP1 ISZERO PUSH2 0x8C JUMPI PUSH1 0x0 DUP1 REVERT JUMPDEST POP PUSH2 0x95 PUSH2 0xD4 JUMP JUMPDEST PUSH1 0x40 MLOAD PUSH2 0xA2 SWAP2 SWAP1 PUSH2 0x173 JUMP JUMPDEST PUSH1 0x40 MLOAD DUP1 SWAP2 SUB SWAP1 RETURN JUMPDEST PUSH1 0x1 PUSH1 0x0 SWAP1 SLOAD SWAP1 PUSH2 0x100 EXP SWAP1 DIV PUSH20 0xFFFFFFFFFFFFFFFFFFFFFFFFFFFFFFFFFFFFFFFF AND DUP2 JUMP JUMPDEST POP JUMP JUMPDEST PUSH1 0x0 DUP1 SLOAD SWAP1 PUSH2 0x100 EXP SWAP1 DIV PUSH20 0xFFFFFFFFFFFFFFFFFFFFFFFFFFFFFFFFFFFFFFFF AND DUP2 JUMP JUMPDEST PUSH1 0x0 DUP2 CALLDATALOAD SWAP1 POP PUSH2 0x107 DUP2 PUSH2 0x205 JUMP JUMPDEST SWAP3 SWAP2 POP POP JUMP JUMPDEST PUSH1 0x0 PUSH1 0x20 DUP3 DUP5 SUB SLT ISZERO PUSH2 0x123 JUMPI PUSH2 0x122 PUSH2 0x200 JUMP JUMPDEST JUMPDEST PUSH1 0x0 PUSH2 0x131 DUP5 DUP3 DUP6 ADD PUSH2 0xF8 JUMP JUMPDEST SWAP2 POP POP SWAP3 SWAP2 POP POP JUMP JUMPDEST PUSH2 0x143 DUP2 PUSH2 0x18E JUMP JUMPDEST DUP3 MSTORE POP POP JUMP JUMPDEST PUSH2 0x152 DUP2 PUSH2 0x1CA JUMP JUMPDEST DUP3 MSTORE POP POP JUMP JUMPDEST PUSH1 0x0 PUSH1 0x20 DUP3 ADD SWAP1 POP PUSH2 0x16D PUSH1 0x0 DUP4 ADD DUP5 PUSH2 0x13A JUMP JUMPDEST SWAP3 SWAP2 POP POP JUMP JUMPDEST PUSH1 0x0 PUSH1 0x20 DUP3 ADD SWAP1 POP PUSH2 0x188 PUSH1 0x0 DUP4 ADD DUP5 PUSH2 0x149 JUMP JUMPDEST SWAP3 SWAP2 POP POP JUMP JUMPDEST PUSH1 0x0 PUSH2 0x199 DUP3 PUSH2 0x1A0 JUMP JUMPDEST SWAP1 POP SWAP2 SWAP1 POP JUMP JUMPDEST PUSH1 0x0 PUSH20 0xFFFFFFFFFFFFFFFFFFFFFFFFFFFFFFFFFFFFFFFF DUP3 AND SWAP1 POP SWAP2 SWAP1 POP JUMP JUMPDEST PUSH1 0x0 DUP2 SWAP1 POP SWAP2 SWAP1 POP JUMP JUMPDEST PUSH1 0x0 PUSH2 0x1D5 DUP3 PUSH2 0x1DC JUMP JUMPDEST SWAP1 POP SWAP2 SWAP1 POP JUMP JUMPDEST PUSH1 0x0 PUSH2 0x1E7 DUP3 PUSH2 0x1EE JUMP JUMPDEST SWAP1 POP SWAP2 SWAP1 POP JUMP JUMPDEST PUSH1 0x0 PUSH2 0x1F9 DUP3 PUSH2 0x1A0 JUMP JUMPDEST SWAP1 POP SWAP2 SWAP1 POP JUMP JUMPDEST PUSH1 0x0 DUP1 REVERT JUMPDEST PUSH2 0x20E DUP2 PUSH2 0x1C0 JUMP JUMPDEST DUP2 EQ PUSH2 0x219 JUMPI PUSH1 0x0 DUP1 REVERT JUMPDEST POP JUMP INVALID LOG2 PUSH5 0x6970667358 0x22 SLT KECCAK256 0xCF 0xBF MULMOD PUSH27 0x8CE390D4B3632B8268B47B19A6E72A1CF325A9D05CD99859B48737 GT PUSH5 0x736F6C6343 STOP ADDMOD SMOD STOP CALLER "
				},
				"gasEstimates": {
					"creation": {
						"codeDepositCost": "118800",
						"executionCost": "infinite",
						"totalCost": "infinite"
					},
					"external": {
						"provideLiquidity(uint256)": "382",
						"token()": "2619",
						"tokenAddress()": "2492"
					}
				},
				"methodIdentifiers": {
					"provideLiquidity(uint256)": "eb521a4c",
					"token()": "fc0c546a",
					"tokenAddress()": "9d76ea58"
				}
			},
			"storageLayout": {
				"storage": [
					{
						"astId": 83,
						"contract": "contracts/LiquidityPool.sol:LiquidityPool",
						"label": "token",
						"offset": 0,
						"slot": "0",
						"type": "t_contract(IERC20)77"
					},
					{
						"astId": 85,
						"contract": "contracts/LiquidityPool.sol:LiquidityPool",
						"label": "tokenAddress",
						"offset": 0,
						"slot": "1",
						"type": "t_address"
					}
				],
				"types": {
					"t_address": {
						"encoding": "inplace",
						"label": "address",
						"numberOfBytes": "20"
					},
					"t_contract(IERC20)77": {
						"encoding": "inplace",
						"label": "contract IERC20",
						"numberOfBytes": "20"
					}
				}
			},
			"userdoc": {
				"kind": "user",
				"methods": {},
				"version": 1
			}
		}
	}
}