{
	"contracts/Exchange.sol": {
		"LiquidityPool": {
			"abi": [
				{
					"inputs": [
						{
							"internalType": "address",
							"name": "_tokenAddress",
							"type": "address"
						}
					],
					"stateMutability": "nonpayable",
					"type": "constructor"
				},
				{
					"anonymous": false,
					"inputs": [
						{
							"indexed": false,
							"internalType": "address",
							"name": "_liquidityProvider",
							"type": "address"
						},
						{
							"indexed": false,
							"internalType": "uint256",
							"name": "_shares",
							"type": "uint256"
						}
					],
					"name": "liquidityProvided",
					"type": "event"
				},
				{
					"inputs": [
						{
							"internalType": "uint256",
							"name": "_ethAmount",
							"type": "uint256"
						}
					],
					"name": "getDAI",
					"outputs": [],
					"stateMutability": "payable",
					"type": "function"
				},
				{
					"inputs": [
						{
							"internalType": "uint256",
							"name": "_DAIAmount",
							"type": "uint256"
						}
					],
					"name": "getEth",
					"outputs": [],
					"stateMutability": "nonpayable",
					"type": "function"
				},
				{
					"inputs": [],
					"name": "kLast",
					"outputs": [
						{
							"internalType": "uint256",
							"name": "",
							"type": "uint256"
						}
					],
					"stateMutability": "view",
					"type": "function"
				},
				{
					"inputs": [
						{
							"internalType": "uint256",
							"name": "_amount",
							"type": "uint256"
						}
					],
					"name": "provideLiquidity",
					"outputs": [],
					"stateMutability": "payable",
					"type": "function"
				},
				{
					"inputs": [
						{
							"internalType": "uint256",
							"name": "_sharesAmount",
							"type": "uint256"
						}
					],
					"name": "reedemShares",
					"outputs": [],
					"stateMutability": "nonpayable",
					"type": "function"
				},
				{
					"inputs": [],
					"name": "reserveToken",
					"outputs": [
						{
							"internalType": "address",
							"name": "",
							"type": "address"
						}
					],
					"stateMutability": "view",
					"type": "function"
				},
				{
					"inputs": [
						{
							"internalType": "uint256",
							"name": "daiAmount",
							"type": "uint256"
						}
					],
					"name": "swap",
					"outputs": [],
					"stateMutability": "payable",
					"type": "function"
				},
				{
					"inputs": [
						{
							"internalType": "address",
							"name": "to",
							"type": "address"
						},
						{
							"internalType": "uint256",
							"name": "_amount",
							"type": "uint256"
						}
					],
					"name": "transferTokens",
					"outputs": [],
					"stateMutability": "nonpayable",
					"type": "function"
				}
			],
			"devdoc": {
				"kind": "dev",
				"methods": {},
				"version": 1
			},
			"evm": {
				"assembly": "    /* \"contracts/Exchange.sol\":611:3839  contract LiquidityPool {... */\n  mstore(0x40, 0x80)\n    /* \"contracts/Exchange.sol\":926:1007  constructor(address _tokenAddress){... */\n  callvalue\n  dup1\n  iszero\n  tag_1\n  jumpi\n  0x00\n  dup1\n  revert\ntag_1:\n  pop\n  mload(0x40)\n  sub(codesize, bytecodeSize)\n  dup1\n  bytecodeSize\n  dup4\n  codecopy\n  dup2\n  dup2\n  add\n  0x40\n  mstore\n  dup2\n  add\n  swap1\n  tag_2\n  swap2\n  swap1\n  tag_3\n  jump\t// in\ntag_2:\n    /* \"contracts/Exchange.sol\":986:999  _tokenAddress */\n  dup1\n    /* \"contracts/Exchange.sol\":971:983  reserveToken */\n  0x00\n  dup1\n    /* \"contracts/Exchange.sol\":971:999  reserveToken = _tokenAddress */\n  0x0100\n  exp\n  dup2\n  sload\n  dup2\n  0xffffffffffffffffffffffffffffffffffffffff\n  mul\n  not\n  and\n  swap1\n  dup4\n  0xffffffffffffffffffffffffffffffffffffffff\n  and\n  mul\n  or\n  swap1\n  sstore\n  pop\n    /* \"contracts/Exchange.sol\":926:1007  constructor(address _tokenAddress){... */\n  pop\n    /* \"contracts/Exchange.sol\":611:3839  contract LiquidityPool {... */\n  jump(tag_6)\n    /* \"#utility.yul\":88:205   */\ntag_8:\n    /* \"#utility.yul\":197:198   */\n  0x00\n    /* \"#utility.yul\":194:195   */\n  dup1\n    /* \"#utility.yul\":187:199   */\n  revert\n    /* \"#utility.yul\":334:460   */\ntag_10:\n    /* \"#utility.yul\":371:378   */\n  0x00\n    /* \"#utility.yul\":411:453   */\n  0xffffffffffffffffffffffffffffffffffffffff\n    /* \"#utility.yul\":404:409   */\n  dup3\n    /* \"#utility.yul\":400:454   */\n  and\n    /* \"#utility.yul\":389:454   */\n  swap1\n  pop\n    /* \"#utility.yul\":334:460   */\n  swap2\n  swap1\n  pop\n  jump\t// out\n    /* \"#utility.yul\":466:562   */\ntag_11:\n    /* \"#utility.yul\":503:510   */\n  0x00\n    /* \"#utility.yul\":532:556   */\n  tag_20\n    /* \"#utility.yul\":550:555   */\n  dup3\n    /* \"#utility.yul\":532:556   */\n  tag_10\n  jump\t// in\ntag_20:\n    /* \"#utility.yul\":521:556   */\n  swap1\n  pop\n    /* \"#utility.yul\":466:562   */\n  swap2\n  swap1\n  pop\n  jump\t// out\n    /* \"#utility.yul\":568:690   */\ntag_12:\n    /* \"#utility.yul\":641:665   */\n  tag_22\n    /* \"#utility.yul\":659:664   */\n  dup2\n    /* \"#utility.yul\":641:665   */\n  tag_11\n  jump\t// in\ntag_22:\n    /* \"#utility.yul\":634:639   */\n  dup2\n    /* \"#utility.yul\":631:666   */\n  eq\n    /* \"#utility.yul\":621:684   */\n  tag_23\n  jumpi\n    /* \"#utility.yul\":680:681   */\n  0x00\n    /* \"#utility.yul\":677:678   */\n  dup1\n    /* \"#utility.yul\":670:682   */\n  revert\n    /* \"#utility.yul\":621:684   */\ntag_23:\n    /* \"#utility.yul\":568:690   */\n  pop\n  jump\t// out\n    /* \"#utility.yul\":696:839   */\ntag_13:\n    /* \"#utility.yul\":753:758   */\n  0x00\n    /* \"#utility.yul\":784:790   */\n  dup2\n    /* \"#utility.yul\":778:791   */\n  mload\n    /* \"#utility.yul\":769:791   */\n  swap1\n  pop\n    /* \"#utility.yul\":800:833   */\n  tag_25\n    /* \"#utility.yul\":827:832   */\n  dup2\n    /* \"#utility.yul\":800:833   */\n  tag_12\n  jump\t// in\ntag_25:\n    /* \"#utility.yul\":696:839   */\n  swap3\n  swap2\n  pop\n  pop\n  jump\t// out\n    /* \"#utility.yul\":845:1196   */\ntag_3:\n    /* \"#utility.yul\":915:921   */\n  0x00\n    /* \"#utility.yul\":964:966   */\n  0x20\n    /* \"#utility.yul\":952:961   */\n  dup3\n    /* \"#utility.yul\":943:950   */\n  dup5\n    /* \"#utility.yul\":939:962   */\n  sub\n    /* \"#utility.yul\":935:967   */\n  slt\n    /* \"#utility.yul\":932:1051   */\n  iszero\n  tag_27\n  jumpi\n    /* \"#utility.yul\":970:1049   */\n  tag_28\n  tag_8\n  jump\t// in\ntag_28:\n    /* \"#utility.yul\":932:1051   */\ntag_27:\n    /* \"#utility.yul\":1090:1091   */\n  0x00\n    /* \"#utility.yul\":1115:1179   */\n  tag_29\n    /* \"#utility.yul\":1171:1178   */\n  dup5\n    /* \"#utility.yul\":1162:1168   */\n  dup3\n    /* \"#utility.yul\":1151:1160   */\n  dup6\n    /* \"#utility.yul\":1147:1169   */\n  add\n    /* \"#utility.yul\":1115:1179   */\n  tag_13\n  jump\t// in\ntag_29:\n    /* \"#utility.yul\":1105:1179   */\n  swap2\n  pop\n    /* \"#utility.yul\":1061:1189   */\n  pop\n    /* \"#utility.yul\":845:1196   */\n  swap3\n  swap2\n  pop\n  pop\n  jump\t// out\n    /* \"contracts/Exchange.sol\":611:3839  contract LiquidityPool {... */\ntag_6:\n  dataSize(sub_0)\n  dup1\n  dataOffset(sub_0)\n  0x00\n  codecopy\n  0x00\n  return\nstop\n\nsub_0: assembly {\n        /* \"contracts/Exchange.sol\":611:3839  contract LiquidityPool {... */\n      mstore(0x40, 0x80)\n      jumpi(tag_1, lt(calldatasize, 0x04))\n      shr(0xe0, calldataload(0x00))\n      dup1\n      0xbec3fa17\n      gt\n      tag_10\n      jumpi\n      dup1\n      0xbec3fa17\n      eq\n      tag_6\n      jumpi\n      dup1\n      0xeb521a4c\n      eq\n      tag_7\n      jumpi\n      dup1\n      0xf4325d67\n      eq\n      tag_8\n      jumpi\n      dup1\n      0xff9b3758\n      eq\n      tag_9\n      jumpi\n      jump(tag_1)\n    tag_10:\n      dup1\n      0x1aa5c70e\n      eq\n      tag_2\n      jumpi\n      dup1\n      0x7464fc3d\n      eq\n      tag_3\n      jumpi\n      dup1\n      0x8e3073a6\n      eq\n      tag_4\n      jumpi\n      dup1\n      0x94b918de\n      eq\n      tag_5\n      jumpi\n    tag_1:\n      0x00\n      dup1\n      revert\n        /* \"contracts/Exchange.sol\":2812:2996  function getDAI(uint256 _ethAmount) public payable {... */\n    tag_2:\n      tag_11\n      0x04\n      dup1\n      calldatasize\n      sub\n      dup2\n      add\n      swap1\n      tag_12\n      swap2\n      swap1\n      tag_13\n      jump\t// in\n    tag_12:\n      tag_14\n      jump\t// in\n    tag_11:\n      stop\n        /* \"contracts/Exchange.sol\":897:917  uint256 public kLast */\n    tag_3:\n      callvalue\n      dup1\n      iszero\n      tag_15\n      jumpi\n      0x00\n      dup1\n      revert\n    tag_15:\n      pop\n      tag_16\n      tag_17\n      jump\t// in\n    tag_16:\n      mload(0x40)\n      tag_18\n      swap2\n      swap1\n      tag_19\n      jump\t// in\n    tag_18:\n      mload(0x40)\n      dup1\n      swap2\n      sub\n      swap1\n      return\n        /* \"contracts/Exchange.sol\":2286:2804  function getEth(uint256 _DAIAmount) public {... */\n    tag_4:\n      callvalue\n      dup1\n      iszero\n      tag_20\n      jumpi\n      0x00\n      dup1\n      revert\n    tag_20:\n      pop\n      tag_21\n      0x04\n      dup1\n      calldatasize\n      sub\n      dup2\n      add\n      swap1\n      tag_22\n      swap2\n      swap1\n      tag_13\n      jump\t// in\n    tag_22:\n      tag_23\n      jump\t// in\n    tag_21:\n      stop\n        /* \"contracts/Exchange.sol\":3133:3836  function swap(uint256 daiAmount) public payable{... */\n    tag_5:\n      tag_24\n      0x04\n      dup1\n      calldatasize\n      sub\n      dup2\n      add\n      swap1\n      tag_25\n      swap2\n      swap1\n      tag_13\n      jump\t// in\n    tag_25:\n      tag_26\n      jump\t// in\n    tag_24:\n      stop\n        /* \"contracts/Exchange.sol\":3004:3125  function transferTokens(address to, uint256 _amount) external {... */\n    tag_6:\n      callvalue\n      dup1\n      iszero\n      tag_27\n      jumpi\n      0x00\n      dup1\n      revert\n    tag_27:\n      pop\n      tag_28\n      0x04\n      dup1\n      calldatasize\n      sub\n      dup2\n      add\n      swap1\n      tag_29\n      swap2\n      swap1\n      tag_30\n      jump\t// in\n    tag_29:\n      tag_31\n      jump\t// in\n    tag_28:\n      stop\n        /* \"contracts/Exchange.sol\":1092:1705  function provideLiquidity(uint256 _amount) external payable {... */\n    tag_7:\n      tag_32\n      0x04\n      dup1\n      calldatasize\n      sub\n      dup2\n      add\n      swap1\n      tag_33\n      swap2\n      swap1\n      tag_13\n      jump\t// in\n    tag_33:\n      tag_34\n      jump\t// in\n    tag_32:\n      stop\n        /* \"contracts/Exchange.sol\":730:757  address public reserveToken */\n    tag_8:\n      callvalue\n      dup1\n      iszero\n      tag_35\n      jumpi\n      0x00\n      dup1\n      revert\n    tag_35:\n      pop\n      tag_36\n      tag_37\n      jump\t// in\n    tag_36:\n      mload(0x40)\n      tag_38\n      swap2\n      swap1\n      tag_39\n      jump\t// in\n    tag_38:\n      mload(0x40)\n      dup1\n      swap2\n      sub\n      swap1\n      return\n        /* \"contracts/Exchange.sol\":1713:2278  function reedemShares(uint256 _sharesAmount) public {... */\n    tag_9:\n      callvalue\n      dup1\n      iszero\n      tag_40\n      jumpi\n      0x00\n      dup1\n      revert\n    tag_40:\n      pop\n      tag_41\n      0x04\n      dup1\n      calldatasize\n      sub\n      dup2\n      add\n      swap1\n      tag_42\n      swap2\n      swap1\n      tag_13\n      jump\t// in\n    tag_42:\n      tag_43\n      jump\t// in\n    tag_41:\n      stop\n        /* \"contracts/Exchange.sol\":2812:2996  function getDAI(uint256 _ethAmount) public payable {... */\n    tag_14:\n        /* \"contracts/Exchange.sol\":2895:2905  _ethAmount */\n      dup1\n        /* \"contracts/Exchange.sol\":2882:2891  msg.value */\n      callvalue\n        /* \"contracts/Exchange.sol\":2882:2905  msg.value == _ethAmount */\n      eq\n        /* \"contracts/Exchange.sol\":2874:2924  require(msg.value == _ethAmount, \"Invalid amount\") */\n      tag_45\n      jumpi\n      mload(0x40)\n      0x08c379a000000000000000000000000000000000000000000000000000000000\n      dup2\n      mstore\n      0x04\n      add\n      tag_46\n      swap1\n      tag_47\n      jump\t// in\n    tag_46:\n      mload(0x40)\n      dup1\n      swap2\n      sub\n      swap1\n      revert\n    tag_45:\n        /* \"contracts/Exchange.sol\":2942:2954  reserveToken */\n      0x00\n      dup1\n      sload\n      swap1\n      0x0100\n      exp\n      swap1\n      div\n      0xffffffffffffffffffffffffffffffffffffffff\n      and\n        /* \"contracts/Exchange.sol\":2935:2964  IERC20(reserveToken).transfer */\n      0xffffffffffffffffffffffffffffffffffffffff\n      and\n      0xa9059cbb\n        /* \"contracts/Exchange.sol\":2965:2975  msg.sender */\n      caller\n        /* \"contracts/Exchange.sol\":2977:2987  _ethAmount */\n      dup4\n        /* \"contracts/Exchange.sol\":2935:2988  IERC20(reserveToken).transfer(msg.sender, _ethAmount) */\n      mload(0x40)\n      dup4\n      0xffffffff\n      and\n      0xe0\n      shl\n      dup2\n      mstore\n      0x04\n      add\n      tag_48\n      swap3\n      swap2\n      swap1\n      tag_49\n      jump\t// in\n    tag_48:\n      0x20\n      mload(0x40)\n      dup1\n      dup4\n      sub\n      dup2\n      0x00\n      dup8\n      gas\n      call\n      iszero\n      dup1\n      iszero\n      tag_51\n      jumpi\n      returndatasize\n      0x00\n      dup1\n      returndatacopy\n      revert(0x00, returndatasize)\n    tag_51:\n      pop\n      pop\n      pop\n      pop\n      mload(0x40)\n      returndatasize\n      not(0x1f)\n      0x1f\n      dup3\n      add\n      and\n      dup3\n      add\n      dup1\n      0x40\n      mstore\n      pop\n      dup2\n      add\n      swap1\n      tag_52\n      swap2\n      swap1\n      tag_53\n      jump\t// in\n    tag_52:\n      pop\n        /* \"contracts/Exchange.sol\":2812:2996  function getDAI(uint256 _ethAmount) public payable {... */\n      pop\n      jump\t// out\n        /* \"contracts/Exchange.sol\":897:917  uint256 public kLast */\n    tag_17:\n      sload(0x01)\n      dup2\n      jump\t// out\n        /* \"contracts/Exchange.sol\":2286:2804  function getEth(uint256 _DAIAmount) public {... */\n    tag_23:\n        /* \"contracts/Exchange.sol\":2409:2419  _DAIAmount */\n      dup1\n        /* \"contracts/Exchange.sol\":2355:2367  reserveToken */\n      0x00\n      dup1\n      sload\n      swap1\n      0x0100\n      exp\n      swap1\n      div\n      0xffffffffffffffffffffffffffffffffffffffff\n      and\n        /* \"contracts/Exchange.sol\":2348:2378  IERC20(reserveToken).allowance */\n      0xffffffffffffffffffffffffffffffffffffffff\n      and\n      0xdd62ed3e\n        /* \"contracts/Exchange.sol\":2379:2389  msg.sender */\n      caller\n        /* \"contracts/Exchange.sol\":2399:2403  this */\n      address\n        /* \"contracts/Exchange.sol\":2348:2405  IERC20(reserveToken).allowance(msg.sender, address(this)) */\n      mload(0x40)\n      dup4\n      0xffffffff\n      and\n      0xe0\n      shl\n      dup2\n      mstore\n      0x04\n      add\n      tag_55\n      swap3\n      swap2\n      swap1\n      tag_56\n      jump\t// in\n    tag_55:\n      0x20\n      mload(0x40)\n      dup1\n      dup4\n      sub\n      dup2\n      dup7\n      gas\n      staticcall\n      iszero\n      dup1\n      iszero\n      tag_58\n      jumpi\n      returndatasize\n      0x00\n      dup1\n      returndatacopy\n      revert(0x00, returndatasize)\n    tag_58:\n      pop\n      pop\n      pop\n      pop\n      mload(0x40)\n      returndatasize\n      not(0x1f)\n      0x1f\n      dup3\n      add\n      and\n      dup3\n      add\n      dup1\n      0x40\n      mstore\n      pop\n      dup2\n      add\n      swap1\n      tag_59\n      swap2\n      swap1\n      tag_60\n      jump\t// in\n    tag_59:\n        /* \"contracts/Exchange.sol\":2348:2419  IERC20(reserveToken).allowance(msg.sender, address(this)) >= _DAIAmount */\n      lt\n      iszero\n        /* \"contracts/Exchange.sol\":2340:2445  require(IERC20(reserveToken).allowance(msg.sender, address(this)) >= _DAIAmount, \"Contract not approved\") */\n      tag_61\n      jumpi\n      mload(0x40)\n      0x08c379a000000000000000000000000000000000000000000000000000000000\n      dup2\n      mstore\n      0x04\n      add\n      tag_62\n      swap1\n      tag_63\n      jump\t// in\n    tag_62:\n      mload(0x40)\n      dup1\n      swap2\n      sub\n      swap1\n      revert\n    tag_61:\n        /* \"contracts/Exchange.sol\":2463:2475  reserveToken */\n      0x00\n      dup1\n      sload\n      swap1\n      0x0100\n      exp\n      swap1\n      div\n      0xffffffffffffffffffffffffffffffffffffffff\n      and\n        /* \"contracts/Exchange.sol\":2456:2489  IERC20(reserveToken).transferFrom */\n      0xffffffffffffffffffffffffffffffffffffffff\n      and\n      0x23b872dd\n        /* \"contracts/Exchange.sol\":2490:2500  msg.sender */\n      caller\n        /* \"contracts/Exchange.sol\":2510:2514  this */\n      address\n        /* \"contracts/Exchange.sol\":2517:2527  _DAIAmount */\n      dup5\n        /* \"contracts/Exchange.sol\":2456:2528  IERC20(reserveToken).transferFrom(msg.sender, address(this), _DAIAmount) */\n      mload(0x40)\n      dup5\n      0xffffffff\n      and\n      0xe0\n      shl\n      dup2\n      mstore\n      0x04\n      add\n      tag_64\n      swap4\n      swap3\n      swap2\n      swap1\n      tag_65\n      jump\t// in\n    tag_64:\n      0x20\n      mload(0x40)\n      dup1\n      dup4\n      sub\n      dup2\n      0x00\n      dup8\n      gas\n      call\n      iszero\n      dup1\n      iszero\n      tag_67\n      jumpi\n      returndatasize\n      0x00\n      dup1\n      returndatacopy\n      revert(0x00, returndatasize)\n    tag_67:\n      pop\n      pop\n      pop\n      pop\n      mload(0x40)\n      returndatasize\n      not(0x1f)\n      0x1f\n      dup3\n      add\n      and\n      dup3\n      add\n      dup1\n      0x40\n      mstore\n      pop\n      dup2\n      add\n      swap1\n      tag_68\n      swap2\n      swap1\n      tag_53\n      jump\t// in\n    tag_68:\n      pop\n        /* \"contracts/Exchange.sol\":2539:2558  uint256 totalTokens */\n      0x00\n        /* \"contracts/Exchange.sol\":2568:2580  reserveToken */\n      dup1\n      0x00\n      swap1\n      sload\n      swap1\n      0x0100\n      exp\n      swap1\n      div\n      0xffffffffffffffffffffffffffffffffffffffff\n      and\n        /* \"contracts/Exchange.sol\":2561:2591  IERC20(reserveToken).balanceOf */\n      0xffffffffffffffffffffffffffffffffffffffff\n      and\n      0x70a08231\n        /* \"contracts/Exchange.sol\":2600:2604  this */\n      address\n        /* \"contracts/Exchange.sol\":2561:2606  IERC20(reserveToken).balanceOf(address(this)) */\n      mload(0x40)\n      dup3\n      0xffffffff\n      and\n      0xe0\n      shl\n      dup2\n      mstore\n      0x04\n      add\n      tag_69\n      swap2\n      swap1\n      tag_39\n      jump\t// in\n    tag_69:\n      0x20\n      mload(0x40)\n      dup1\n      dup4\n      sub\n      dup2\n      dup7\n      gas\n      staticcall\n      iszero\n      dup1\n      iszero\n      tag_71\n      jumpi\n      returndatasize\n      0x00\n      dup1\n      returndatacopy\n      revert(0x00, returndatasize)\n    tag_71:\n      pop\n      pop\n      pop\n      pop\n      mload(0x40)\n      returndatasize\n      not(0x1f)\n      0x1f\n      dup3\n      add\n      and\n      dup3\n      add\n      dup1\n      0x40\n      mstore\n      pop\n      dup2\n      add\n      swap1\n      tag_72\n      swap2\n      swap1\n      tag_60\n      jump\t// in\n    tag_72:\n        /* \"contracts/Exchange.sol\":2539:2606  uint256 totalTokens = IERC20(reserveToken).balanceOf(address(this)) */\n      swap1\n      pop\n        /* \"contracts/Exchange.sol\":2617:2631  uint256 ethOut */\n      0x00\n        /* \"contracts/Exchange.sol\":2656:2677  address(this).balance */\n      selfbalance\n        /* \"contracts/Exchange.sol\":2641:2652  totalTokens */\n      dup3\n        /* \"contracts/Exchange.sol\":2635:2640  kLast */\n      sload(0x01)\n        /* \"contracts/Exchange.sol\":2635:2652  kLast/totalTokens */\n      tag_73\n      swap2\n      swap1\n      tag_74\n      jump\t// in\n    tag_73:\n        /* \"contracts/Exchange.sol\":2634:2677  (kLast/totalTokens) - address(this).balance */\n      tag_75\n      swap2\n      swap1\n      tag_76\n      jump\t// in\n    tag_75:\n        /* \"contracts/Exchange.sol\":2617:2677  uint256 ethOut = (kLast/totalTokens) - address(this).balance */\n      swap1\n      pop\n        /* \"contracts/Exchange.sol\":2689:2701  bool success */\n      0x00\n        /* \"contracts/Exchange.sol\":2715:2725  msg.sender */\n      caller\n        /* \"contracts/Exchange.sol\":2707:2731  payable(msg.sender).call */\n      0xffffffffffffffffffffffffffffffffffffffff\n      and\n        /* \"contracts/Exchange.sol\":2739:2745  ethOut */\n      dup3\n        /* \"contracts/Exchange.sol\":2707:2750  payable(msg.sender).call{value: ethOut}(\"\") */\n      mload(0x40)\n      tag_77\n      swap1\n      tag_78\n      jump\t// in\n    tag_77:\n      0x00\n      mload(0x40)\n      dup1\n      dup4\n      sub\n      dup2\n      dup6\n      dup8\n      gas\n      call\n      swap3\n      pop\n      pop\n      pop\n      returndatasize\n      dup1\n      0x00\n      dup2\n      eq\n      tag_81\n      jumpi\n      mload(0x40)\n      swap2\n      pop\n      and(add(returndatasize, 0x3f), not(0x1f))\n      dup3\n      add\n      0x40\n      mstore\n      returndatasize\n      dup3\n      mstore\n      returndatasize\n      0x00\n      0x20\n      dup5\n      add\n      returndatacopy\n      jump(tag_80)\n    tag_81:\n      0x60\n      swap2\n      pop\n    tag_80:\n      pop\n        /* \"contracts/Exchange.sol\":2688:2750  (bool success, ) = payable(msg.sender).call{value: ethOut}(\"\") */\n      pop\n      swap1\n      pop\n        /* \"contracts/Exchange.sol\":2769:2776  success */\n      dup1\n        /* \"contracts/Exchange.sol\":2761:2796  require(success, \"Transfer Failed\") */\n      tag_82\n      jumpi\n      mload(0x40)\n      0x08c379a000000000000000000000000000000000000000000000000000000000\n      dup2\n      mstore\n      0x04\n      add\n      tag_83\n      swap1\n      tag_84\n      jump\t// in\n    tag_83:\n      mload(0x40)\n      dup1\n      swap2\n      sub\n      swap1\n      revert\n    tag_82:\n        /* \"contracts/Exchange.sol\":2329:2804  {... */\n      pop\n      pop\n      pop\n        /* \"contracts/Exchange.sol\":2286:2804  function getEth(uint256 _DAIAmount) public {... */\n      pop\n      jump\t// out\n        /* \"contracts/Exchange.sol\":3133:3836  function swap(uint256 daiAmount) public payable{... */\n    tag_26:\n        /* \"contracts/Exchange.sol\":3493:3494  0 */\n      0x00\n        /* \"contracts/Exchange.sol\":3481:3490  msg.value */\n      callvalue\n        /* \"contracts/Exchange.sol\":3481:3494  msg.value > 0 */\n      gt\n        /* \"contracts/Exchange.sol\":3477:3829  if (msg.value > 0) {... */\n      iszero\n      tag_86\n      jumpi\n        /* \"contracts/Exchange.sol\":3507:3525  uint256 tokenValue */\n      0x00\n        /* \"contracts/Exchange.sol\":3536:3545  msg.value */\n      callvalue\n        /* \"contracts/Exchange.sol\":3528:3533  kLast */\n      sload(0x01)\n        /* \"contracts/Exchange.sol\":3528:3545  kLast / msg.value */\n      tag_87\n      swap2\n      swap1\n      tag_74\n      jump\t// in\n    tag_87:\n        /* \"contracts/Exchange.sol\":3507:3545  uint256 tokenValue = kLast / msg.value */\n      swap1\n      pop\n        /* \"contracts/Exchange.sol\":3563:3575  reserveToken */\n      0x00\n      dup1\n      sload\n      swap1\n      0x0100\n      exp\n      swap1\n      div\n      0xffffffffffffffffffffffffffffffffffffffff\n      and\n        /* \"contracts/Exchange.sol\":3556:3585  IERC20(reserveToken).transfer */\n      0xffffffffffffffffffffffffffffffffffffffff\n      and\n      0xa9059cbb\n        /* \"contracts/Exchange.sol\":3586:3596  msg.sender */\n      caller\n        /* \"contracts/Exchange.sol\":3598:3608  tokenValue */\n      dup4\n        /* \"contracts/Exchange.sol\":3556:3609  IERC20(reserveToken).transfer(msg.sender, tokenValue) */\n      mload(0x40)\n      dup4\n      0xffffffff\n      and\n      0xe0\n      shl\n      dup2\n      mstore\n      0x04\n      add\n      tag_88\n      swap3\n      swap2\n      swap1\n      tag_49\n      jump\t// in\n    tag_88:\n      0x20\n      mload(0x40)\n      dup1\n      dup4\n      sub\n      dup2\n      0x00\n      dup8\n      gas\n      call\n      iszero\n      dup1\n      iszero\n      tag_90\n      jumpi\n      returndatasize\n      0x00\n      dup1\n      returndatacopy\n      revert(0x00, returndatasize)\n    tag_90:\n      pop\n      pop\n      pop\n      pop\n      mload(0x40)\n      returndatasize\n      not(0x1f)\n      0x1f\n      dup3\n      add\n      and\n      dup3\n      add\n      dup1\n      0x40\n      mstore\n      pop\n      dup2\n      add\n      swap1\n      tag_91\n      swap2\n      swap1\n      tag_53\n      jump\t// in\n    tag_91:\n      pop\n        /* \"contracts/Exchange.sol\":3496:3621  {... */\n      pop\n        /* \"contracts/Exchange.sol\":3477:3829  if (msg.value > 0) {... */\n      jump(tag_92)\n    tag_86:\n        /* \"contracts/Exchange.sol\":3652:3668  uint256 ethValue */\n      0x00\n        /* \"contracts/Exchange.sol\":3679:3688  daiAmount */\n      dup2\n        /* \"contracts/Exchange.sol\":3671:3676  kLast */\n      sload(0x01)\n        /* \"contracts/Exchange.sol\":3671:3688  kLast / daiAmount */\n      tag_93\n      swap2\n      swap1\n      tag_74\n      jump\t// in\n    tag_93:\n        /* \"contracts/Exchange.sol\":3652:3688  uint256 ethValue = kLast / daiAmount */\n      swap1\n      pop\n        /* \"contracts/Exchange.sol\":3704:3716  bool success */\n      0x00\n        /* \"contracts/Exchange.sol\":3730:3740  msg.sender */\n      caller\n        /* \"contracts/Exchange.sol\":3722:3746  payable(msg.sender).call */\n      0xffffffffffffffffffffffffffffffffffffffff\n      and\n        /* \"contracts/Exchange.sol\":3754:3762  ethValue */\n      dup3\n        /* \"contracts/Exchange.sol\":3722:3767  payable(msg.sender).call{value: ethValue}(\"\") */\n      mload(0x40)\n      tag_94\n      swap1\n      tag_78\n      jump\t// in\n    tag_94:\n      0x00\n      mload(0x40)\n      dup1\n      dup4\n      sub\n      dup2\n      dup6\n      dup8\n      gas\n      call\n      swap3\n      pop\n      pop\n      pop\n      returndatasize\n      dup1\n      0x00\n      dup2\n      eq\n      tag_97\n      jumpi\n      mload(0x40)\n      swap2\n      pop\n      and(add(returndatasize, 0x3f), not(0x1f))\n      dup3\n      add\n      0x40\n      mstore\n      returndatasize\n      dup3\n      mstore\n      returndatasize\n      0x00\n      0x20\n      dup5\n      add\n      returndatacopy\n      jump(tag_96)\n    tag_97:\n      0x60\n      swap2\n      pop\n    tag_96:\n      pop\n        /* \"contracts/Exchange.sol\":3703:3767  (bool success, ) = payable(msg.sender).call{value: ethValue}(\"\") */\n      pop\n      swap1\n      pop\n        /* \"contracts/Exchange.sol\":3790:3797  success */\n      dup1\n        /* \"contracts/Exchange.sol\":3782:3817  require(success, \"Transfer failed\") */\n      tag_98\n      jumpi\n      mload(0x40)\n      0x08c379a000000000000000000000000000000000000000000000000000000000\n      dup2\n      mstore\n      0x04\n      add\n      tag_99\n      swap1\n      tag_100\n      jump\t// in\n    tag_99:\n      mload(0x40)\n      dup1\n      swap2\n      sub\n      swap1\n      revert\n    tag_98:\n        /* \"contracts/Exchange.sol\":3637:3829  {... */\n      pop\n      pop\n        /* \"contracts/Exchange.sol\":3477:3829  if (msg.value > 0) {... */\n    tag_92:\n        /* \"contracts/Exchange.sol\":3133:3836  function swap(uint256 daiAmount) public payable{... */\n      pop\n      jump\t// out\n        /* \"contracts/Exchange.sol\":3004:3125  function transferTokens(address to, uint256 _amount) external {... */\n    tag_31:\n        /* \"contracts/Exchange.sol\":794:836  0x39DB207Dff3411F4fab0483D419306873Cbc13d9 */\n      0x39db207dff3411f4fab0483d419306873cbc13d9\n        /* \"contracts/Exchange.sol\":3077:3104  IERC20(ltrAddress).transfer */\n      0xffffffffffffffffffffffffffffffffffffffff\n      and\n      0xa9059cbb\n        /* \"contracts/Exchange.sol\":3105:3107  to */\n      dup4\n        /* \"contracts/Exchange.sol\":3109:3116  _amount */\n      dup4\n        /* \"contracts/Exchange.sol\":3077:3117  IERC20(ltrAddress).transfer(to, _amount) */\n      mload(0x40)\n      dup4\n      0xffffffff\n      and\n      0xe0\n      shl\n      dup2\n      mstore\n      0x04\n      add\n      tag_102\n      swap3\n      swap2\n      swap1\n      tag_49\n      jump\t// in\n    tag_102:\n      0x20\n      mload(0x40)\n      dup1\n      dup4\n      sub\n      dup2\n      0x00\n      dup8\n      gas\n      call\n      iszero\n      dup1\n      iszero\n      tag_104\n      jumpi\n      returndatasize\n      0x00\n      dup1\n      returndatacopy\n      revert(0x00, returndatasize)\n    tag_104:\n      pop\n      pop\n      pop\n      pop\n      mload(0x40)\n      returndatasize\n      not(0x1f)\n      0x1f\n      dup3\n      add\n      and\n      dup3\n      add\n      dup1\n      0x40\n      mstore\n      pop\n      dup2\n      add\n      swap1\n      tag_105\n      swap2\n      swap1\n      tag_53\n      jump\t// in\n    tag_105:\n      pop\n        /* \"contracts/Exchange.sol\":3004:3125  function transferTokens(address to, uint256 _amount) external {... */\n      pop\n      pop\n      jump\t// out\n        /* \"contracts/Exchange.sol\":1092:1705  function provideLiquidity(uint256 _amount) external payable {... */\n    tag_34:\n        /* \"contracts/Exchange.sol\":873:890  10000000000000000 */\n      0x2386f26fc10000\n        /* \"contracts/Exchange.sol\":1171:1178  _amount */\n      dup2\n        /* \"contracts/Exchange.sol\":1171:1192  _amount >= MINIMUMETH */\n      lt\n      iszero\n        /* \"contracts/Exchange.sol\":1163:1244  require(_amount >= MINIMUMETH, \"Liquidity provided should be greater than 1 ETH\") */\n      tag_107\n      jumpi\n      mload(0x40)\n      0x08c379a000000000000000000000000000000000000000000000000000000000\n      dup2\n      mstore\n      0x04\n      add\n      tag_108\n      swap1\n      tag_109\n      jump\t// in\n    tag_108:\n      mload(0x40)\n      dup1\n      swap2\n      sub\n      swap1\n      revert\n    tag_107:\n        /* \"contracts/Exchange.sol\":1341:1353  reserveToken */\n      0x00\n      dup1\n      sload\n      swap1\n      0x0100\n      exp\n      swap1\n      div\n      0xffffffffffffffffffffffffffffffffffffffff\n      and\n        /* \"contracts/Exchange.sol\":1334:1367  IERC20(reserveToken).transferFrom */\n      0xffffffffffffffffffffffffffffffffffffffff\n      and\n      0x23b872dd\n        /* \"contracts/Exchange.sol\":1368:1378  msg.sender */\n      caller\n        /* \"contracts/Exchange.sol\":1388:1392  this */\n      address\n        /* \"contracts/Exchange.sol\":1395:1402  _amount */\n      dup5\n        /* \"contracts/Exchange.sol\":1334:1403  IERC20(reserveToken).transferFrom(msg.sender, address(this), _amount) */\n      mload(0x40)\n      dup5\n      0xffffffff\n      and\n      0xe0\n      shl\n      dup2\n      mstore\n      0x04\n      add\n      tag_110\n      swap4\n      swap3\n      swap2\n      swap1\n      tag_65\n      jump\t// in\n    tag_110:\n      0x20\n      mload(0x40)\n      dup1\n      dup4\n      sub\n      dup2\n      0x00\n      dup8\n      gas\n      call\n      iszero\n      dup1\n      iszero\n      tag_112\n      jumpi\n      returndatasize\n      0x00\n      dup1\n      returndatacopy\n      revert(0x00, returndatasize)\n    tag_112:\n      pop\n      pop\n      pop\n      pop\n      mload(0x40)\n      returndatasize\n      not(0x1f)\n      0x1f\n      dup3\n      add\n      and\n      dup3\n      add\n      dup1\n      0x40\n      mstore\n      pop\n      dup2\n      add\n      swap1\n      tag_113\n      swap2\n      swap1\n      tag_53\n      jump\t// in\n    tag_113:\n      pop\n        /* \"contracts/Exchange.sol\":794:836  0x39DB207Dff3411F4fab0483D419306873Cbc13d9 */\n      0x39db207dff3411f4fab0483d419306873cbc13d9\n        /* \"contracts/Exchange.sol\":1414:1441  IERC20(ltrAddress).transfer */\n      0xffffffffffffffffffffffffffffffffffffffff\n      and\n      0xa9059cbb\n        /* \"contracts/Exchange.sol\":1442:1452  msg.sender */\n      caller\n        /* \"contracts/Exchange.sol\":1454:1470  Math.sqrt(kLast) */\n      tag_114\n        /* \"contracts/Exchange.sol\":1464:1469  kLast */\n      sload(0x01)\n        /* \"contracts/Exchange.sol\":1454:1463  Math.sqrt */\n      tag_115\n        /* \"contracts/Exchange.sol\":1454:1470  Math.sqrt(kLast) */\n      jump\t// in\n    tag_114:\n        /* \"contracts/Exchange.sol\":1414:1471  IERC20(ltrAddress).transfer(msg.sender, Math.sqrt(kLast)) */\n      mload(0x40)\n      dup4\n      0xffffffff\n      and\n      0xe0\n      shl\n      dup2\n      mstore\n      0x04\n      add\n      tag_116\n      swap3\n      swap2\n      swap1\n      tag_49\n      jump\t// in\n    tag_116:\n      0x20\n      mload(0x40)\n      dup1\n      dup4\n      sub\n      dup2\n      0x00\n      dup8\n      gas\n      call\n      iszero\n      dup1\n      iszero\n      tag_118\n      jumpi\n      returndatasize\n      0x00\n      dup1\n      returndatacopy\n      revert(0x00, returndatasize)\n    tag_118:\n      pop\n      pop\n      pop\n      pop\n      mload(0x40)\n      returndatasize\n      not(0x1f)\n      0x1f\n      dup3\n      add\n      and\n      dup3\n      add\n      dup1\n      0x40\n      mstore\n      pop\n      dup2\n      add\n      swap1\n      tag_119\n      swap2\n      swap1\n      tag_53\n      jump\t// in\n    tag_119:\n      pop\n        /* \"contracts/Exchange.sol\":1482:1501  uint256 newTokenBal */\n      0x00\n        /* \"contracts/Exchange.sol\":1511:1523  reserveToken */\n      dup1\n      0x00\n      swap1\n      sload\n      swap1\n      0x0100\n      exp\n      swap1\n      div\n      0xffffffffffffffffffffffffffffffffffffffff\n      and\n        /* \"contracts/Exchange.sol\":1504:1534  IERC20(reserveToken).balanceOf */\n      0xffffffffffffffffffffffffffffffffffffffff\n      and\n      0x70a08231\n        /* \"contracts/Exchange.sol\":1543:1547  this */\n      address\n        /* \"contracts/Exchange.sol\":1504:1549  IERC20(reserveToken).balanceOf(address(this)) */\n      mload(0x40)\n      dup3\n      0xffffffff\n      and\n      0xe0\n      shl\n      dup2\n      mstore\n      0x04\n      add\n      tag_120\n      swap2\n      swap1\n      tag_39\n      jump\t// in\n    tag_120:\n      0x20\n      mload(0x40)\n      dup1\n      dup4\n      sub\n      dup2\n      dup7\n      gas\n      staticcall\n      iszero\n      dup1\n      iszero\n      tag_122\n      jumpi\n      returndatasize\n      0x00\n      dup1\n      returndatacopy\n      revert(0x00, returndatasize)\n    tag_122:\n      pop\n      pop\n      pop\n      pop\n      mload(0x40)\n      returndatasize\n      not(0x1f)\n      0x1f\n      dup3\n      add\n      and\n      dup3\n      add\n      dup1\n      0x40\n      mstore\n      pop\n      dup2\n      add\n      swap1\n      tag_123\n      swap2\n      swap1\n      tag_60\n      jump\t// in\n    tag_123:\n        /* \"contracts/Exchange.sol\":1482:1549  uint256 newTokenBal = IERC20(reserveToken).balanceOf(address(this)) */\n      swap1\n      pop\n        /* \"contracts/Exchange.sol\":1560:1577  uint256 newEthBal */\n      0x00\n        /* \"contracts/Exchange.sol\":1580:1601  address(this).balance */\n      selfbalance\n        /* \"contracts/Exchange.sol\":1560:1601  uint256 newEthBal = address(this).balance */\n      swap1\n      pop\n        /* \"contracts/Exchange.sol\":1634:1643  newEthBal */\n      dup1\n        /* \"contracts/Exchange.sol\":1620:1631  newTokenBal */\n      dup3\n        /* \"contracts/Exchange.sol\":1620:1643  newTokenBal * newEthBal */\n      tag_124\n      swap2\n      swap1\n      tag_125\n      jump\t// in\n    tag_124:\n        /* \"contracts/Exchange.sol\":1612:1617  kLast */\n      0x01\n        /* \"contracts/Exchange.sol\":1612:1643  kLast = newTokenBal * newEthBal */\n      dup2\n      swap1\n      sstore\n      pop\n        /* \"contracts/Exchange.sol\":1659:1697  liquidityProvided(msg.sender, _amount) */\n      0xb62268a18d99fe191ac8e62f823ab1eec698609a81b2c8de3dac902896b09da6\n        /* \"contracts/Exchange.sol\":1677:1687  msg.sender */\n      caller\n        /* \"contracts/Exchange.sol\":1689:1696  _amount */\n      dup5\n        /* \"contracts/Exchange.sol\":1659:1697  liquidityProvided(msg.sender, _amount) */\n      mload(0x40)\n      tag_126\n      swap3\n      swap2\n      swap1\n      tag_49\n      jump\t// in\n    tag_126:\n      mload(0x40)\n      dup1\n      swap2\n      sub\n      swap1\n      log1\n        /* \"contracts/Exchange.sol\":1152:1705  {... */\n      pop\n      pop\n        /* \"contracts/Exchange.sol\":1092:1705  function provideLiquidity(uint256 _amount) external payable {... */\n      pop\n      jump\t// out\n        /* \"contracts/Exchange.sol\":730:757  address public reserveToken */\n    tag_37:\n      0x00\n      dup1\n      sload\n      swap1\n      0x0100\n      exp\n      swap1\n      div\n      0xffffffffffffffffffffffffffffffffffffffff\n      and\n      dup2\n      jump\t// out\n        /* \"contracts/Exchange.sol\":1713:2278  function reedemShares(uint256 _sharesAmount) public {... */\n    tag_43:\n        /* \"contracts/Exchange.sol\":1800:1801  0 */\n      0x00\n        /* \"contracts/Exchange.sol\":1784:1797  _sharesAmount */\n      dup2\n        /* \"contracts/Exchange.sol\":1784:1801  _sharesAmount > 0 */\n      gt\n        /* \"contracts/Exchange.sol\":1776:1830  require(_sharesAmount > 0, \"Invalid amount of shares\") */\n      tag_128\n      jumpi\n      mload(0x40)\n      0x08c379a000000000000000000000000000000000000000000000000000000000\n      dup2\n      mstore\n      0x04\n      add\n      tag_129\n      swap1\n      tag_130\n      jump\t// in\n    tag_129:\n      mload(0x40)\n      dup1\n      swap2\n      sub\n      swap1\n      revert\n    tag_128:\n        /* \"contracts/Exchange.sol\":1908:1921  _sharesAmount */\n      dup1\n        /* \"contracts/Exchange.sol\":794:836  0x39DB207Dff3411F4fab0483D419306873Cbc13d9 */\n      0x39db207dff3411f4fab0483d419306873cbc13d9\n        /* \"contracts/Exchange.sol\":1849:1877  IERC20(ltrAddress).allowance */\n      0xffffffffffffffffffffffffffffffffffffffff\n      and\n      0xdd62ed3e\n        /* \"contracts/Exchange.sol\":1878:1888  msg.sender */\n      caller\n        /* \"contracts/Exchange.sol\":1898:1902  this */\n      address\n        /* \"contracts/Exchange.sol\":1849:1904  IERC20(ltrAddress).allowance(msg.sender, address(this)) */\n      mload(0x40)\n      dup4\n      0xffffffff\n      and\n      0xe0\n      shl\n      dup2\n      mstore\n      0x04\n      add\n      tag_131\n      swap3\n      swap2\n      swap1\n      tag_56\n      jump\t// in\n    tag_131:\n      0x20\n      mload(0x40)\n      dup1\n      dup4\n      sub\n      dup2\n      dup7\n      gas\n      staticcall\n      iszero\n      dup1\n      iszero\n      tag_133\n      jumpi\n      returndatasize\n      0x00\n      dup1\n      returndatacopy\n      revert(0x00, returndatasize)\n    tag_133:\n      pop\n      pop\n      pop\n      pop\n      mload(0x40)\n      returndatasize\n      not(0x1f)\n      0x1f\n      dup3\n      add\n      and\n      dup3\n      add\n      dup1\n      0x40\n      mstore\n      pop\n      dup2\n      add\n      swap1\n      tag_134\n      swap2\n      swap1\n      tag_60\n      jump\t// in\n    tag_134:\n        /* \"contracts/Exchange.sol\":1849:1921  IERC20(ltrAddress).allowance(msg.sender, address(this)) >= _sharesAmount */\n      lt\n      iszero\n        /* \"contracts/Exchange.sol\":1841:1991  require(IERC20(ltrAddress).allowance(msg.sender, address(this)) >= _sharesAmount, \"Please approve the contract to deduct ltr tokens from your wallet\") */\n      tag_135\n      jumpi\n      mload(0x40)\n      0x08c379a000000000000000000000000000000000000000000000000000000000\n      dup2\n      mstore\n      0x04\n      add\n      tag_136\n      swap1\n      tag_137\n      jump\t// in\n    tag_136:\n      mload(0x40)\n      dup1\n      swap2\n      sub\n      swap1\n      revert\n    tag_135:\n        /* \"contracts/Exchange.sol\":794:836  0x39DB207Dff3411F4fab0483D419306873Cbc13d9 */\n      0x39db207dff3411f4fab0483d419306873cbc13d9\n        /* \"contracts/Exchange.sol\":2004:2035  IERC20(ltrAddress).transferFrom */\n      0xffffffffffffffffffffffffffffffffffffffff\n      and\n      0x23b872dd\n        /* \"contracts/Exchange.sol\":2036:2046  msg.sender */\n      caller\n        /* \"contracts/Exchange.sol\":2056:2060  this */\n      address\n        /* \"contracts/Exchange.sol\":2063:2076  _sharesAmount */\n      dup5\n        /* \"contracts/Exchange.sol\":2004:2077  IERC20(ltrAddress).transferFrom(msg.sender, address(this), _sharesAmount) */\n      mload(0x40)\n      dup5\n      0xffffffff\n      and\n      0xe0\n      shl\n      dup2\n      mstore\n      0x04\n      add\n      tag_138\n      swap4\n      swap3\n      swap2\n      swap1\n      tag_65\n      jump\t// in\n    tag_138:\n      0x20\n      mload(0x40)\n      dup1\n      dup4\n      sub\n      dup2\n      0x00\n      dup8\n      gas\n      call\n      iszero\n      dup1\n      iszero\n      tag_140\n      jumpi\n      returndatasize\n      0x00\n      dup1\n      returndatacopy\n      revert(0x00, returndatasize)\n    tag_140:\n      pop\n      pop\n      pop\n      pop\n      mload(0x40)\n      returndatasize\n      not(0x1f)\n      0x1f\n      dup3\n      add\n      and\n      dup3\n      add\n      dup1\n      0x40\n      mstore\n      pop\n      dup2\n      add\n      swap1\n      tag_141\n      swap2\n      swap1\n      tag_53\n      jump\t// in\n    tag_141:\n      pop\n        /* \"contracts/Exchange.sol\":2095:2107  reserveToken */\n      0x00\n      dup1\n      sload\n      swap1\n      0x0100\n      exp\n      swap1\n      div\n      0xffffffffffffffffffffffffffffffffffffffff\n      and\n        /* \"contracts/Exchange.sol\":2088:2117  IERC20(reserveToken).transfer */\n      0xffffffffffffffffffffffffffffffffffffffff\n      and\n      0xa9059cbb\n        /* \"contracts/Exchange.sol\":2118:2128  msg.sender */\n      caller\n        /* \"contracts/Exchange.sol\":2130:2143  _sharesAmount */\n      dup4\n        /* \"contracts/Exchange.sol\":2088:2144  IERC20(reserveToken).transfer(msg.sender, _sharesAmount) */\n      mload(0x40)\n      dup4\n      0xffffffff\n      and\n      0xe0\n      shl\n      dup2\n      mstore\n      0x04\n      add\n      tag_142\n      swap3\n      swap2\n      swap1\n      tag_49\n      jump\t// in\n    tag_142:\n      0x20\n      mload(0x40)\n      dup1\n      dup4\n      sub\n      dup2\n      0x00\n      dup8\n      gas\n      call\n      iszero\n      dup1\n      iszero\n      tag_144\n      jumpi\n      returndatasize\n      0x00\n      dup1\n      returndatacopy\n      revert(0x00, returndatasize)\n    tag_144:\n      pop\n      pop\n      pop\n      pop\n      mload(0x40)\n      returndatasize\n      not(0x1f)\n      0x1f\n      dup3\n      add\n      and\n      dup3\n      add\n      dup1\n      0x40\n      mstore\n      pop\n      dup2\n      add\n      swap1\n      tag_145\n      swap2\n      swap1\n      tag_53\n      jump\t// in\n    tag_145:\n      pop\n        /* \"contracts/Exchange.sol\":2156:2168  bool success */\n      0x00\n        /* \"contracts/Exchange.sol\":2182:2192  msg.sender */\n      caller\n        /* \"contracts/Exchange.sol\":2174:2198  payable(msg.sender).call */\n      0xffffffffffffffffffffffffffffffffffffffff\n      and\n        /* \"contracts/Exchange.sol\":2206:2219  _sharesAmount */\n      dup3\n        /* \"contracts/Exchange.sol\":2174:2224  payable(msg.sender).call{value: _sharesAmount}(\"\") */\n      mload(0x40)\n      tag_146\n      swap1\n      tag_78\n      jump\t// in\n    tag_146:\n      0x00\n      mload(0x40)\n      dup1\n      dup4\n      sub\n      dup2\n      dup6\n      dup8\n      gas\n      call\n      swap3\n      pop\n      pop\n      pop\n      returndatasize\n      dup1\n      0x00\n      dup2\n      eq\n      tag_149\n      jumpi\n      mload(0x40)\n      swap2\n      pop\n      and(add(returndatasize, 0x3f), not(0x1f))\n      dup3\n      add\n      0x40\n      mstore\n      returndatasize\n      dup3\n      mstore\n      returndatasize\n      0x00\n      0x20\n      dup5\n      add\n      returndatacopy\n      jump(tag_148)\n    tag_149:\n      0x60\n      swap2\n      pop\n    tag_148:\n      pop\n        /* \"contracts/Exchange.sol\":2155:2224  (bool success, ) = payable(msg.sender).call{value: _sharesAmount}(\"\") */\n      pop\n      swap1\n      pop\n        /* \"contracts/Exchange.sol\":2243:2250  success */\n      dup1\n        /* \"contracts/Exchange.sol\":2235:2270  require(success, \"Transfer failed\") */\n      tag_150\n      jumpi\n      mload(0x40)\n      0x08c379a000000000000000000000000000000000000000000000000000000000\n      dup2\n      mstore\n      0x04\n      add\n      tag_151\n      swap1\n      tag_100\n      jump\t// in\n    tag_151:\n      mload(0x40)\n      dup1\n      swap2\n      sub\n      swap1\n      revert\n    tag_150:\n        /* \"contracts/Exchange.sol\":1765:2278  {... */\n      pop\n        /* \"contracts/Exchange.sol\":1713:2278  function reedemShares(uint256 _sharesAmount) public {... */\n      pop\n      jump\t// out\n        /* \"@openzeppelin/contracts/utils/math/Math.sol\":6281:8487  function sqrt(uint256 a) internal pure returns (uint256) {... */\n    tag_115:\n        /* \"@openzeppelin/contracts/utils/math/Math.sol\":6329:6336  uint256 */\n      0x00\n        /* \"@openzeppelin/contracts/utils/math/Math.sol\":6357:6358  0 */\n      dup1\n        /* \"@openzeppelin/contracts/utils/math/Math.sol\":6352:6353  a */\n      dup3\n        /* \"@openzeppelin/contracts/utils/math/Math.sol\":6352:6358  a == 0 */\n      sub\n        /* \"@openzeppelin/contracts/utils/math/Math.sol\":6348:6393  if (a == 0) {... */\n      tag_153\n      jumpi\n        /* \"@openzeppelin/contracts/utils/math/Math.sol\":6381:6382  0 */\n      0x00\n        /* \"@openzeppelin/contracts/utils/math/Math.sol\":6374:6382  return 0 */\n      swap1\n      pop\n      jump(tag_152)\n        /* \"@openzeppelin/contracts/utils/math/Math.sol\":6348:6393  if (a == 0) {... */\n    tag_153:\n        /* \"@openzeppelin/contracts/utils/math/Math.sol\":7058:7072  uint256 result */\n      0x00\n        /* \"@openzeppelin/contracts/utils/math/Math.sol\":7075:7076  1 */\n      0x01\n        /* \"@openzeppelin/contracts/utils/math/Math.sol\":7058:7076  uint256 result = 1 */\n      swap1\n      pop\n        /* \"@openzeppelin/contracts/utils/math/Math.sol\":7086:7095  uint256 x */\n      0x00\n        /* \"@openzeppelin/contracts/utils/math/Math.sol\":7098:7099  a */\n      dup4\n        /* \"@openzeppelin/contracts/utils/math/Math.sol\":7086:7099  uint256 x = a */\n      swap1\n      pop\n        /* \"@openzeppelin/contracts/utils/math/Math.sol\":7124:7125  0 */\n      0x00\n        /* \"@openzeppelin/contracts/utils/math/Math.sol\":7118:7121  128 */\n      0x80\n        /* \"@openzeppelin/contracts/utils/math/Math.sol\":7113:7114  x */\n      dup3\n        /* \"@openzeppelin/contracts/utils/math/Math.sol\":7113:7121  x >> 128 */\n      swap1\n      shr\n        /* \"@openzeppelin/contracts/utils/math/Math.sol\":7113:7125  x >> 128 > 0 */\n      gt\n        /* \"@openzeppelin/contracts/utils/math/Math.sol\":7109:7188  if (x >> 128 > 0) {... */\n      iszero\n      tag_154\n      jumpi\n        /* \"@openzeppelin/contracts/utils/math/Math.sol\":7147:7150  128 */\n      0x80\n        /* \"@openzeppelin/contracts/utils/math/Math.sol\":7141:7150  x >>= 128 */\n      dup2\n      swap1\n      shr\n      swap1\n      pop\n        /* \"@openzeppelin/contracts/utils/math/Math.sol\":7175:7177  64 */\n      0x40\n        /* \"@openzeppelin/contracts/utils/math/Math.sol\":7164:7177  result <<= 64 */\n      dup3\n      swap1\n      shl\n      swap2\n      pop\n        /* \"@openzeppelin/contracts/utils/math/Math.sol\":7109:7188  if (x >> 128 > 0) {... */\n    tag_154:\n        /* \"@openzeppelin/contracts/utils/math/Math.sol\":7211:7212  0 */\n      0x00\n        /* \"@openzeppelin/contracts/utils/math/Math.sol\":7206:7208  64 */\n      0x40\n        /* \"@openzeppelin/contracts/utils/math/Math.sol\":7201:7202  x */\n      dup3\n        /* \"@openzeppelin/contracts/utils/math/Math.sol\":7201:7208  x >> 64 */\n      swap1\n      shr\n        /* \"@openzeppelin/contracts/utils/math/Math.sol\":7201:7212  x >> 64 > 0 */\n      gt\n        /* \"@openzeppelin/contracts/utils/math/Math.sol\":7197:7274  if (x >> 64 > 0) {... */\n      iszero\n      tag_155\n      jumpi\n        /* \"@openzeppelin/contracts/utils/math/Math.sol\":7234:7236  64 */\n      0x40\n        /* \"@openzeppelin/contracts/utils/math/Math.sol\":7228:7236  x >>= 64 */\n      dup2\n      swap1\n      shr\n      swap1\n      pop\n        /* \"@openzeppelin/contracts/utils/math/Math.sol\":7261:7263  32 */\n      0x20\n        /* \"@openzeppelin/contracts/utils/math/Math.sol\":7250:7263  result <<= 32 */\n      dup3\n      swap1\n      shl\n      swap2\n      pop\n        /* \"@openzeppelin/contracts/utils/math/Math.sol\":7197:7274  if (x >> 64 > 0) {... */\n    tag_155:\n        /* \"@openzeppelin/contracts/utils/math/Math.sol\":7297:7298  0 */\n      0x00\n        /* \"@openzeppelin/contracts/utils/math/Math.sol\":7292:7294  32 */\n      0x20\n        /* \"@openzeppelin/contracts/utils/math/Math.sol\":7287:7288  x */\n      dup3\n        /* \"@openzeppelin/contracts/utils/math/Math.sol\":7287:7294  x >> 32 */\n      swap1\n      shr\n        /* \"@openzeppelin/contracts/utils/math/Math.sol\":7287:7298  x >> 32 > 0 */\n      gt\n        /* \"@openzeppelin/contracts/utils/math/Math.sol\":7283:7360  if (x >> 32 > 0) {... */\n      iszero\n      tag_156\n      jumpi\n        /* \"@openzeppelin/contracts/utils/math/Math.sol\":7320:7322  32 */\n      0x20\n        /* \"@openzeppelin/contracts/utils/math/Math.sol\":7314:7322  x >>= 32 */\n      dup2\n      swap1\n      shr\n      swap1\n      pop\n        /* \"@openzeppelin/contracts/utils/math/Math.sol\":7347:7349  16 */\n      0x10\n        /* \"@openzeppelin/contracts/utils/math/Math.sol\":7336:7349  result <<= 16 */\n      dup3\n      swap1\n      shl\n      swap2\n      pop\n        /* \"@openzeppelin/contracts/utils/math/Math.sol\":7283:7360  if (x >> 32 > 0) {... */\n    tag_156:\n        /* \"@openzeppelin/contracts/utils/math/Math.sol\":7383:7384  0 */\n      0x00\n        /* \"@openzeppelin/contracts/utils/math/Math.sol\":7378:7380  16 */\n      0x10\n        /* \"@openzeppelin/contracts/utils/math/Math.sol\":7373:7374  x */\n      dup3\n        /* \"@openzeppelin/contracts/utils/math/Math.sol\":7373:7380  x >> 16 */\n      swap1\n      shr\n        /* \"@openzeppelin/contracts/utils/math/Math.sol\":7373:7384  x >> 16 > 0 */\n      gt\n        /* \"@openzeppelin/contracts/utils/math/Math.sol\":7369:7445  if (x >> 16 > 0) {... */\n      iszero\n      tag_157\n      jumpi\n        /* \"@openzeppelin/contracts/utils/math/Math.sol\":7406:7408  16 */\n      0x10\n        /* \"@openzeppelin/contracts/utils/math/Math.sol\":7400:7408  x >>= 16 */\n      dup2\n      swap1\n      shr\n      swap1\n      pop\n        /* \"@openzeppelin/contracts/utils/math/Math.sol\":7433:7434  8 */\n      0x08\n        /* \"@openzeppelin/contracts/utils/math/Math.sol\":7422:7434  result <<= 8 */\n      dup3\n      swap1\n      shl\n      swap2\n      pop\n        /* \"@openzeppelin/contracts/utils/math/Math.sol\":7369:7445  if (x >> 16 > 0) {... */\n    tag_157:\n        /* \"@openzeppelin/contracts/utils/math/Math.sol\":7467:7468  0 */\n      0x00\n        /* \"@openzeppelin/contracts/utils/math/Math.sol\":7463:7464  8 */\n      0x08\n        /* \"@openzeppelin/contracts/utils/math/Math.sol\":7458:7459  x */\n      dup3\n        /* \"@openzeppelin/contracts/utils/math/Math.sol\":7458:7464  x >> 8 */\n      swap1\n      shr\n        /* \"@openzeppelin/contracts/utils/math/Math.sol\":7458:7468  x >> 8 > 0 */\n      gt\n        /* \"@openzeppelin/contracts/utils/math/Math.sol\":7454:7528  if (x >> 8 > 0) {... */\n      iszero\n      tag_158\n      jumpi\n        /* \"@openzeppelin/contracts/utils/math/Math.sol\":7490:7491  8 */\n      0x08\n        /* \"@openzeppelin/contracts/utils/math/Math.sol\":7484:7491  x >>= 8 */\n      dup2\n      swap1\n      shr\n      swap1\n      pop\n        /* \"@openzeppelin/contracts/utils/math/Math.sol\":7516:7517  4 */\n      0x04\n        /* \"@openzeppelin/contracts/utils/math/Math.sol\":7505:7517  result <<= 4 */\n      dup3\n      swap1\n      shl\n      swap2\n      pop\n        /* \"@openzeppelin/contracts/utils/math/Math.sol\":7454:7528  if (x >> 8 > 0) {... */\n    tag_158:\n        /* \"@openzeppelin/contracts/utils/math/Math.sol\":7550:7551  0 */\n      0x00\n        /* \"@openzeppelin/contracts/utils/math/Math.sol\":7546:7547  4 */\n      0x04\n        /* \"@openzeppelin/contracts/utils/math/Math.sol\":7541:7542  x */\n      dup3\n        /* \"@openzeppelin/contracts/utils/math/Math.sol\":7541:7547  x >> 4 */\n      swap1\n      shr\n        /* \"@openzeppelin/contracts/utils/math/Math.sol\":7541:7551  x >> 4 > 0 */\n      gt\n        /* \"@openzeppelin/contracts/utils/math/Math.sol\":7537:7611  if (x >> 4 > 0) {... */\n      iszero\n      tag_159\n      jumpi\n        /* \"@openzeppelin/contracts/utils/math/Math.sol\":7573:7574  4 */\n      0x04\n        /* \"@openzeppelin/contracts/utils/math/Math.sol\":7567:7574  x >>= 4 */\n      dup2\n      swap1\n      shr\n      swap1\n      pop\n        /* \"@openzeppelin/contracts/utils/math/Math.sol\":7599:7600  2 */\n      0x02\n        /* \"@openzeppelin/contracts/utils/math/Math.sol\":7588:7600  result <<= 2 */\n      dup3\n      swap1\n      shl\n      swap2\n      pop\n        /* \"@openzeppelin/contracts/utils/math/Math.sol\":7537:7611  if (x >> 4 > 0) {... */\n    tag_159:\n        /* \"@openzeppelin/contracts/utils/math/Math.sol\":7633:7634  0 */\n      0x00\n        /* \"@openzeppelin/contracts/utils/math/Math.sol\":7629:7630  2 */\n      0x02\n        /* \"@openzeppelin/contracts/utils/math/Math.sol\":7624:7625  x */\n      dup3\n        /* \"@openzeppelin/contracts/utils/math/Math.sol\":7624:7630  x >> 2 */\n      swap1\n      shr\n        /* \"@openzeppelin/contracts/utils/math/Math.sol\":7624:7634  x >> 2 > 0 */\n      gt\n        /* \"@openzeppelin/contracts/utils/math/Math.sol\":7620:7673  if (x >> 2 > 0) {... */\n      iszero\n      tag_160\n      jumpi\n        /* \"@openzeppelin/contracts/utils/math/Math.sol\":7661:7662  1 */\n      0x01\n        /* \"@openzeppelin/contracts/utils/math/Math.sol\":7650:7662  result <<= 1 */\n      dup3\n      swap1\n      shl\n      swap2\n      pop\n        /* \"@openzeppelin/contracts/utils/math/Math.sol\":7620:7673  if (x >> 2 > 0) {... */\n    tag_160:\n        /* \"@openzeppelin/contracts/utils/math/Math.sol\":8131:8132  1 */\n      0x01\n        /* \"@openzeppelin/contracts/utils/math/Math.sol\":8120:8126  result */\n      dup3\n        /* \"@openzeppelin/contracts/utils/math/Math.sol\":8116:8117  a */\n      dup6\n        /* \"@openzeppelin/contracts/utils/math/Math.sol\":8116:8126  a / result */\n      dup2\n      tag_161\n      jumpi\n      tag_162\n      tag_163\n      jump\t// in\n    tag_162:\n    tag_161:\n      div\n        /* \"@openzeppelin/contracts/utils/math/Math.sol\":8107:8113  result */\n      dup4\n        /* \"@openzeppelin/contracts/utils/math/Math.sol\":8107:8126  result + a / result */\n      add\n        /* \"@openzeppelin/contracts/utils/math/Math.sol\":8106:8132  (result + a / result) >> 1 */\n      swap1\n      shr\n        /* \"@openzeppelin/contracts/utils/math/Math.sol\":8097:8132  result = (result + a / result) >> 1 */\n      swap2\n      pop\n        /* \"@openzeppelin/contracts/utils/math/Math.sol\":8180:8181  1 */\n      0x01\n        /* \"@openzeppelin/contracts/utils/math/Math.sol\":8169:8175  result */\n      dup3\n        /* \"@openzeppelin/contracts/utils/math/Math.sol\":8165:8166  a */\n      dup6\n        /* \"@openzeppelin/contracts/utils/math/Math.sol\":8165:8175  a / result */\n      dup2\n      tag_164\n      jumpi\n      tag_165\n      tag_163\n      jump\t// in\n    tag_165:\n    tag_164:\n      div\n        /* \"@openzeppelin/contracts/utils/math/Math.sol\":8156:8162  result */\n      dup4\n        /* \"@openzeppelin/contracts/utils/math/Math.sol\":8156:8175  result + a / result */\n      add\n        /* \"@openzeppelin/contracts/utils/math/Math.sol\":8155:8181  (result + a / result) >> 1 */\n      swap1\n      shr\n        /* \"@openzeppelin/contracts/utils/math/Math.sol\":8146:8181  result = (result + a / result) >> 1 */\n      swap2\n      pop\n        /* \"@openzeppelin/contracts/utils/math/Math.sol\":8229:8230  1 */\n      0x01\n        /* \"@openzeppelin/contracts/utils/math/Math.sol\":8218:8224  result */\n      dup3\n        /* \"@openzeppelin/contracts/utils/math/Math.sol\":8214:8215  a */\n      dup6\n        /* \"@openzeppelin/contracts/utils/math/Math.sol\":8214:8224  a / result */\n      dup2\n      tag_166\n      jumpi\n      tag_167\n      tag_163\n      jump\t// in\n    tag_167:\n    tag_166:\n      div\n        /* \"@openzeppelin/contracts/utils/math/Math.sol\":8205:8211  result */\n      dup4\n        /* \"@openzeppelin/contracts/utils/math/Math.sol\":8205:8224  result + a / result */\n      add\n        /* \"@openzeppelin/contracts/utils/math/Math.sol\":8204:8230  (result + a / result) >> 1 */\n      swap1\n      shr\n        /* \"@openzeppelin/contracts/utils/math/Math.sol\":8195:8230  result = (result + a / result) >> 1 */\n      swap2\n      pop\n        /* \"@openzeppelin/contracts/utils/math/Math.sol\":8278:8279  1 */\n      0x01\n        /* \"@openzeppelin/contracts/utils/math/Math.sol\":8267:8273  result */\n      dup3\n        /* \"@openzeppelin/contracts/utils/math/Math.sol\":8263:8264  a */\n      dup6\n        /* \"@openzeppelin/contracts/utils/math/Math.sol\":8263:8273  a / result */\n      dup2\n      tag_168\n      jumpi\n      tag_169\n      tag_163\n      jump\t// in\n    tag_169:\n    tag_168:\n      div\n        /* \"@openzeppelin/contracts/utils/math/Math.sol\":8254:8260  result */\n      dup4\n        /* \"@openzeppelin/contracts/utils/math/Math.sol\":8254:8273  result + a / result */\n      add\n        /* \"@openzeppelin/contracts/utils/math/Math.sol\":8253:8279  (result + a / result) >> 1 */\n      swap1\n      shr\n        /* \"@openzeppelin/contracts/utils/math/Math.sol\":8244:8279  result = (result + a / result) >> 1 */\n      swap2\n      pop\n        /* \"@openzeppelin/contracts/utils/math/Math.sol\":8327:8328  1 */\n      0x01\n        /* \"@openzeppelin/contracts/utils/math/Math.sol\":8316:8322  result */\n      dup3\n        /* \"@openzeppelin/contracts/utils/math/Math.sol\":8312:8313  a */\n      dup6\n        /* \"@openzeppelin/contracts/utils/math/Math.sol\":8312:8322  a / result */\n      dup2\n      tag_170\n      jumpi\n      tag_171\n      tag_163\n      jump\t// in\n    tag_171:\n    tag_170:\n      div\n        /* \"@openzeppelin/contracts/utils/math/Math.sol\":8303:8309  result */\n      dup4\n        /* \"@openzeppelin/contracts/utils/math/Math.sol\":8303:8322  result + a / result */\n      add\n        /* \"@openzeppelin/contracts/utils/math/Math.sol\":8302:8328  (result + a / result) >> 1 */\n      swap1\n      shr\n        /* \"@openzeppelin/contracts/utils/math/Math.sol\":8293:8328  result = (result + a / result) >> 1 */\n      swap2\n      pop\n        /* \"@openzeppelin/contracts/utils/math/Math.sol\":8376:8377  1 */\n      0x01\n        /* \"@openzeppelin/contracts/utils/math/Math.sol\":8365:8371  result */\n      dup3\n        /* \"@openzeppelin/contracts/utils/math/Math.sol\":8361:8362  a */\n      dup6\n        /* \"@openzeppelin/contracts/utils/math/Math.sol\":8361:8371  a / result */\n      dup2\n      tag_172\n      jumpi\n      tag_173\n      tag_163\n      jump\t// in\n    tag_173:\n    tag_172:\n      div\n        /* \"@openzeppelin/contracts/utils/math/Math.sol\":8352:8358  result */\n      dup4\n        /* \"@openzeppelin/contracts/utils/math/Math.sol\":8352:8371  result + a / result */\n      add\n        /* \"@openzeppelin/contracts/utils/math/Math.sol\":8351:8377  (result + a / result) >> 1 */\n      swap1\n      shr\n        /* \"@openzeppelin/contracts/utils/math/Math.sol\":8342:8377  result = (result + a / result) >> 1 */\n      swap2\n      pop\n        /* \"@openzeppelin/contracts/utils/math/Math.sol\":8425:8426  1 */\n      0x01\n        /* \"@openzeppelin/contracts/utils/math/Math.sol\":8414:8420  result */\n      dup3\n        /* \"@openzeppelin/contracts/utils/math/Math.sol\":8410:8411  a */\n      dup6\n        /* \"@openzeppelin/contracts/utils/math/Math.sol\":8410:8420  a / result */\n      dup2\n      tag_174\n      jumpi\n      tag_175\n      tag_163\n      jump\t// in\n    tag_175:\n    tag_174:\n      div\n        /* \"@openzeppelin/contracts/utils/math/Math.sol\":8401:8407  result */\n      dup4\n        /* \"@openzeppelin/contracts/utils/math/Math.sol\":8401:8420  result + a / result */\n      add\n        /* \"@openzeppelin/contracts/utils/math/Math.sol\":8400:8426  (result + a / result) >> 1 */\n      swap1\n      shr\n        /* \"@openzeppelin/contracts/utils/math/Math.sol\":8391:8426  result = (result + a / result) >> 1 */\n      swap2\n      pop\n        /* \"@openzeppelin/contracts/utils/math/Math.sol\":8447:8470  min(result, a / result) */\n      tag_176\n        /* \"@openzeppelin/contracts/utils/math/Math.sol\":8451:8457  result */\n      dup3\n        /* \"@openzeppelin/contracts/utils/math/Math.sol\":8463:8469  result */\n      dup4\n        /* \"@openzeppelin/contracts/utils/math/Math.sol\":8459:8460  a */\n      dup7\n        /* \"@openzeppelin/contracts/utils/math/Math.sol\":8459:8469  a / result */\n      dup2\n      tag_177\n      jumpi\n      tag_178\n      tag_163\n      jump\t// in\n    tag_178:\n    tag_177:\n      div\n        /* \"@openzeppelin/contracts/utils/math/Math.sol\":8447:8450  min */\n      tag_179\n        /* \"@openzeppelin/contracts/utils/math/Math.sol\":8447:8470  min(result, a / result) */\n      jump\t// in\n    tag_176:\n        /* \"@openzeppelin/contracts/utils/math/Math.sol\":8440:8470  return min(result, a / result) */\n      swap3\n      pop\n      pop\n      pop\n        /* \"@openzeppelin/contracts/utils/math/Math.sol\":6281:8487  function sqrt(uint256 a) internal pure returns (uint256) {... */\n    tag_152:\n      swap2\n      swap1\n      pop\n      jump\t// out\n        /* \"@openzeppelin/contracts/utils/math/Math.sol\":589:693  function min(uint256 a, uint256 b) internal pure returns (uint256) {... */\n    tag_179:\n        /* \"@openzeppelin/contracts/utils/math/Math.sol\":647:654  uint256 */\n      0x00\n        /* \"@openzeppelin/contracts/utils/math/Math.sol\":677:678  b */\n      dup2\n        /* \"@openzeppelin/contracts/utils/math/Math.sol\":673:674  a */\n      dup4\n        /* \"@openzeppelin/contracts/utils/math/Math.sol\":673:678  a < b */\n      lt\n        /* \"@openzeppelin/contracts/utils/math/Math.sol\":673:686  a < b ? a : b */\n      tag_181\n      jumpi\n        /* \"@openzeppelin/contracts/utils/math/Math.sol\":685:686  b */\n      dup2\n        /* \"@openzeppelin/contracts/utils/math/Math.sol\":673:686  a < b ? a : b */\n      jump(tag_182)\n    tag_181:\n        /* \"@openzeppelin/contracts/utils/math/Math.sol\":681:682  a */\n      dup3\n        /* \"@openzeppelin/contracts/utils/math/Math.sol\":673:686  a < b ? a : b */\n    tag_182:\n        /* \"@openzeppelin/contracts/utils/math/Math.sol\":666:686  return a < b ? a : b */\n      swap1\n      pop\n        /* \"@openzeppelin/contracts/utils/math/Math.sol\":589:693  function min(uint256 a, uint256 b) internal pure returns (uint256) {... */\n      swap3\n      swap2\n      pop\n      pop\n      jump\t// out\n        /* \"#utility.yul\":88:205   */\n    tag_184:\n        /* \"#utility.yul\":197:198   */\n      0x00\n        /* \"#utility.yul\":194:195   */\n      dup1\n        /* \"#utility.yul\":187:199   */\n      revert\n        /* \"#utility.yul\":334:411   */\n    tag_186:\n        /* \"#utility.yul\":371:378   */\n      0x00\n        /* \"#utility.yul\":400:405   */\n      dup2\n        /* \"#utility.yul\":389:405   */\n      swap1\n      pop\n        /* \"#utility.yul\":334:411   */\n      swap2\n      swap1\n      pop\n      jump\t// out\n        /* \"#utility.yul\":417:539   */\n    tag_187:\n        /* \"#utility.yul\":490:514   */\n      tag_224\n        /* \"#utility.yul\":508:513   */\n      dup2\n        /* \"#utility.yul\":490:514   */\n      tag_186\n      jump\t// in\n    tag_224:\n        /* \"#utility.yul\":483:488   */\n      dup2\n        /* \"#utility.yul\":480:515   */\n      eq\n        /* \"#utility.yul\":470:533   */\n      tag_225\n      jumpi\n        /* \"#utility.yul\":529:530   */\n      0x00\n        /* \"#utility.yul\":526:527   */\n      dup1\n        /* \"#utility.yul\":519:531   */\n      revert\n        /* \"#utility.yul\":470:533   */\n    tag_225:\n        /* \"#utility.yul\":417:539   */\n      pop\n      jump\t// out\n        /* \"#utility.yul\":545:684   */\n    tag_188:\n        /* \"#utility.yul\":591:596   */\n      0x00\n        /* \"#utility.yul\":629:635   */\n      dup2\n        /* \"#utility.yul\":616:636   */\n      calldataload\n        /* \"#utility.yul\":607:636   */\n      swap1\n      pop\n        /* \"#utility.yul\":645:678   */\n      tag_227\n        /* \"#utility.yul\":672:677   */\n      dup2\n        /* \"#utility.yul\":645:678   */\n      tag_187\n      jump\t// in\n    tag_227:\n        /* \"#utility.yul\":545:684   */\n      swap3\n      swap2\n      pop\n      pop\n      jump\t// out\n        /* \"#utility.yul\":690:1019   */\n    tag_13:\n        /* \"#utility.yul\":749:755   */\n      0x00\n        /* \"#utility.yul\":798:800   */\n      0x20\n        /* \"#utility.yul\":786:795   */\n      dup3\n        /* \"#utility.yul\":777:784   */\n      dup5\n        /* \"#utility.yul\":773:796   */\n      sub\n        /* \"#utility.yul\":769:801   */\n      slt\n        /* \"#utility.yul\":766:885   */\n      iszero\n      tag_229\n      jumpi\n        /* \"#utility.yul\":804:883   */\n      tag_230\n      tag_184\n      jump\t// in\n    tag_230:\n        /* \"#utility.yul\":766:885   */\n    tag_229:\n        /* \"#utility.yul\":924:925   */\n      0x00\n        /* \"#utility.yul\":949:1002   */\n      tag_231\n        /* \"#utility.yul\":994:1001   */\n      dup5\n        /* \"#utility.yul\":985:991   */\n      dup3\n        /* \"#utility.yul\":974:983   */\n      dup6\n        /* \"#utility.yul\":970:992   */\n      add\n        /* \"#utility.yul\":949:1002   */\n      tag_188\n      jump\t// in\n    tag_231:\n        /* \"#utility.yul\":939:1002   */\n      swap2\n      pop\n        /* \"#utility.yul\":895:1012   */\n      pop\n        /* \"#utility.yul\":690:1019   */\n      swap3\n      swap2\n      pop\n      pop\n      jump\t// out\n        /* \"#utility.yul\":1025:1143   */\n    tag_189:\n        /* \"#utility.yul\":1112:1136   */\n      tag_233\n        /* \"#utility.yul\":1130:1135   */\n      dup2\n        /* \"#utility.yul\":1112:1136   */\n      tag_186\n      jump\t// in\n    tag_233:\n        /* \"#utility.yul\":1107:1110   */\n      dup3\n        /* \"#utility.yul\":1100:1137   */\n      mstore\n        /* \"#utility.yul\":1025:1143   */\n      pop\n      pop\n      jump\t// out\n        /* \"#utility.yul\":1149:1371   */\n    tag_19:\n        /* \"#utility.yul\":1242:1246   */\n      0x00\n        /* \"#utility.yul\":1280:1282   */\n      0x20\n        /* \"#utility.yul\":1269:1278   */\n      dup3\n        /* \"#utility.yul\":1265:1283   */\n      add\n        /* \"#utility.yul\":1257:1283   */\n      swap1\n      pop\n        /* \"#utility.yul\":1293:1364   */\n      tag_235\n        /* \"#utility.yul\":1361:1362   */\n      0x00\n        /* \"#utility.yul\":1350:1359   */\n      dup4\n        /* \"#utility.yul\":1346:1363   */\n      add\n        /* \"#utility.yul\":1337:1343   */\n      dup5\n        /* \"#utility.yul\":1293:1364   */\n      tag_189\n      jump\t// in\n    tag_235:\n        /* \"#utility.yul\":1149:1371   */\n      swap3\n      swap2\n      pop\n      pop\n      jump\t// out\n        /* \"#utility.yul\":1377:1503   */\n    tag_190:\n        /* \"#utility.yul\":1414:1421   */\n      0x00\n        /* \"#utility.yul\":1454:1496   */\n      0xffffffffffffffffffffffffffffffffffffffff\n        /* \"#utility.yul\":1447:1452   */\n      dup3\n        /* \"#utility.yul\":1443:1497   */\n      and\n        /* \"#utility.yul\":1432:1497   */\n      swap1\n      pop\n        /* \"#utility.yul\":1377:1503   */\n      swap2\n      swap1\n      pop\n      jump\t// out\n        /* \"#utility.yul\":1509:1605   */\n    tag_191:\n        /* \"#utility.yul\":1546:1553   */\n      0x00\n        /* \"#utility.yul\":1575:1599   */\n      tag_238\n        /* \"#utility.yul\":1593:1598   */\n      dup3\n        /* \"#utility.yul\":1575:1599   */\n      tag_190\n      jump\t// in\n    tag_238:\n        /* \"#utility.yul\":1564:1599   */\n      swap1\n      pop\n        /* \"#utility.yul\":1509:1605   */\n      swap2\n      swap1\n      pop\n      jump\t// out\n        /* \"#utility.yul\":1611:1733   */\n    tag_192:\n        /* \"#utility.yul\":1684:1708   */\n      tag_240\n        /* \"#utility.yul\":1702:1707   */\n      dup2\n        /* \"#utility.yul\":1684:1708   */\n      tag_191\n      jump\t// in\n    tag_240:\n        /* \"#utility.yul\":1677:1682   */\n      dup2\n        /* \"#utility.yul\":1674:1709   */\n      eq\n        /* \"#utility.yul\":1664:1727   */\n      tag_241\n      jumpi\n        /* \"#utility.yul\":1723:1724   */\n      0x00\n        /* \"#utility.yul\":1720:1721   */\n      dup1\n        /* \"#utility.yul\":1713:1725   */\n      revert\n        /* \"#utility.yul\":1664:1727   */\n    tag_241:\n        /* \"#utility.yul\":1611:1733   */\n      pop\n      jump\t// out\n        /* \"#utility.yul\":1739:1878   */\n    tag_193:\n        /* \"#utility.yul\":1785:1790   */\n      0x00\n        /* \"#utility.yul\":1823:1829   */\n      dup2\n        /* \"#utility.yul\":1810:1830   */\n      calldataload\n        /* \"#utility.yul\":1801:1830   */\n      swap1\n      pop\n        /* \"#utility.yul\":1839:1872   */\n      tag_243\n        /* \"#utility.yul\":1866:1871   */\n      dup2\n        /* \"#utility.yul\":1839:1872   */\n      tag_192\n      jump\t// in\n    tag_243:\n        /* \"#utility.yul\":1739:1878   */\n      swap3\n      swap2\n      pop\n      pop\n      jump\t// out\n        /* \"#utility.yul\":1884:2358   */\n    tag_30:\n        /* \"#utility.yul\":1952:1958   */\n      0x00\n        /* \"#utility.yul\":1960:1966   */\n      dup1\n        /* \"#utility.yul\":2009:2011   */\n      0x40\n        /* \"#utility.yul\":1997:2006   */\n      dup4\n        /* \"#utility.yul\":1988:1995   */\n      dup6\n        /* \"#utility.yul\":1984:2007   */\n      sub\n        /* \"#utility.yul\":1980:2012   */\n      slt\n        /* \"#utility.yul\":1977:2096   */\n      iszero\n      tag_245\n      jumpi\n        /* \"#utility.yul\":2015:2094   */\n      tag_246\n      tag_184\n      jump\t// in\n    tag_246:\n        /* \"#utility.yul\":1977:2096   */\n    tag_245:\n        /* \"#utility.yul\":2135:2136   */\n      0x00\n        /* \"#utility.yul\":2160:2213   */\n      tag_247\n        /* \"#utility.yul\":2205:2212   */\n      dup6\n        /* \"#utility.yul\":2196:2202   */\n      dup3\n        /* \"#utility.yul\":2185:2194   */\n      dup7\n        /* \"#utility.yul\":2181:2203   */\n      add\n        /* \"#utility.yul\":2160:2213   */\n      tag_193\n      jump\t// in\n    tag_247:\n        /* \"#utility.yul\":2150:2213   */\n      swap3\n      pop\n        /* \"#utility.yul\":2106:2223   */\n      pop\n        /* \"#utility.yul\":2262:2264   */\n      0x20\n        /* \"#utility.yul\":2288:2341   */\n      tag_248\n        /* \"#utility.yul\":2333:2340   */\n      dup6\n        /* \"#utility.yul\":2324:2330   */\n      dup3\n        /* \"#utility.yul\":2313:2322   */\n      dup7\n        /* \"#utility.yul\":2309:2331   */\n      add\n        /* \"#utility.yul\":2288:2341   */\n      tag_188\n      jump\t// in\n    tag_248:\n        /* \"#utility.yul\":2278:2341   */\n      swap2\n      pop\n        /* \"#utility.yul\":2233:2351   */\n      pop\n        /* \"#utility.yul\":1884:2358   */\n      swap3\n      pop\n      swap3\n      swap1\n      pop\n      jump\t// out\n        /* \"#utility.yul\":2364:2482   */\n    tag_194:\n        /* \"#utility.yul\":2451:2475   */\n      tag_250\n        /* \"#utility.yul\":2469:2474   */\n      dup2\n        /* \"#utility.yul\":2451:2475   */\n      tag_191\n      jump\t// in\n    tag_250:\n        /* \"#utility.yul\":2446:2449   */\n      dup3\n        /* \"#utility.yul\":2439:2476   */\n      mstore\n        /* \"#utility.yul\":2364:2482   */\n      pop\n      pop\n      jump\t// out\n        /* \"#utility.yul\":2488:2710   */\n    tag_39:\n        /* \"#utility.yul\":2581:2585   */\n      0x00\n        /* \"#utility.yul\":2619:2621   */\n      0x20\n        /* \"#utility.yul\":2608:2617   */\n      dup3\n        /* \"#utility.yul\":2604:2622   */\n      add\n        /* \"#utility.yul\":2596:2622   */\n      swap1\n      pop\n        /* \"#utility.yul\":2632:2703   */\n      tag_252\n        /* \"#utility.yul\":2700:2701   */\n      0x00\n        /* \"#utility.yul\":2689:2698   */\n      dup4\n        /* \"#utility.yul\":2685:2702   */\n      add\n        /* \"#utility.yul\":2676:2682   */\n      dup5\n        /* \"#utility.yul\":2632:2703   */\n      tag_194\n      jump\t// in\n    tag_252:\n        /* \"#utility.yul\":2488:2710   */\n      swap3\n      swap2\n      pop\n      pop\n      jump\t// out\n        /* \"#utility.yul\":2716:2885   */\n    tag_195:\n        /* \"#utility.yul\":2800:2811   */\n      0x00\n        /* \"#utility.yul\":2834:2840   */\n      dup3\n        /* \"#utility.yul\":2829:2832   */\n      dup3\n        /* \"#utility.yul\":2822:2841   */\n      mstore\n        /* \"#utility.yul\":2874:2878   */\n      0x20\n        /* \"#utility.yul\":2869:2872   */\n      dup3\n        /* \"#utility.yul\":2865:2879   */\n      add\n        /* \"#utility.yul\":2850:2879   */\n      swap1\n      pop\n        /* \"#utility.yul\":2716:2885   */\n      swap3\n      swap2\n      pop\n      pop\n      jump\t// out\n        /* \"#utility.yul\":2891:3055   */\n    tag_196:\n        /* \"#utility.yul\":3031:3047   */\n      0x496e76616c696420616d6f756e74000000000000000000000000000000000000\n        /* \"#utility.yul\":3027:3028   */\n      0x00\n        /* \"#utility.yul\":3019:3025   */\n      dup3\n        /* \"#utility.yul\":3015:3029   */\n      add\n        /* \"#utility.yul\":3008:3048   */\n      mstore\n        /* \"#utility.yul\":2891:3055   */\n      pop\n      jump\t// out\n        /* \"#utility.yul\":3061:3427   */\n    tag_197:\n        /* \"#utility.yul\":3203:3206   */\n      0x00\n        /* \"#utility.yul\":3224:3291   */\n      tag_256\n        /* \"#utility.yul\":3288:3290   */\n      0x0e\n        /* \"#utility.yul\":3283:3286   */\n      dup4\n        /* \"#utility.yul\":3224:3291   */\n      tag_195\n      jump\t// in\n    tag_256:\n        /* \"#utility.yul\":3217:3291   */\n      swap2\n      pop\n        /* \"#utility.yul\":3300:3393   */\n      tag_257\n        /* \"#utility.yul\":3389:3392   */\n      dup3\n        /* \"#utility.yul\":3300:3393   */\n      tag_196\n      jump\t// in\n    tag_257:\n        /* \"#utility.yul\":3418:3420   */\n      0x20\n        /* \"#utility.yul\":3413:3416   */\n      dup3\n        /* \"#utility.yul\":3409:3421   */\n      add\n        /* \"#utility.yul\":3402:3421   */\n      swap1\n      pop\n        /* \"#utility.yul\":3061:3427   */\n      swap2\n      swap1\n      pop\n      jump\t// out\n        /* \"#utility.yul\":3433:3852   */\n    tag_47:\n        /* \"#utility.yul\":3599:3603   */\n      0x00\n        /* \"#utility.yul\":3637:3639   */\n      0x20\n        /* \"#utility.yul\":3626:3635   */\n      dup3\n        /* \"#utility.yul\":3622:3640   */\n      add\n        /* \"#utility.yul\":3614:3640   */\n      swap1\n      pop\n        /* \"#utility.yul\":3686:3695   */\n      dup2\n        /* \"#utility.yul\":3680:3684   */\n      dup2\n        /* \"#utility.yul\":3676:3696   */\n      sub\n        /* \"#utility.yul\":3672:3673   */\n      0x00\n        /* \"#utility.yul\":3661:3670   */\n      dup4\n        /* \"#utility.yul\":3657:3674   */\n      add\n        /* \"#utility.yul\":3650:3697   */\n      mstore\n        /* \"#utility.yul\":3714:3845   */\n      tag_259\n        /* \"#utility.yul\":3840:3844   */\n      dup2\n        /* \"#utility.yul\":3714:3845   */\n      tag_197\n      jump\t// in\n    tag_259:\n        /* \"#utility.yul\":3706:3845   */\n      swap1\n      pop\n        /* \"#utility.yul\":3433:3852   */\n      swap2\n      swap1\n      pop\n      jump\t// out\n        /* \"#utility.yul\":3858:4190   */\n    tag_49:\n        /* \"#utility.yul\":3979:3983   */\n      0x00\n        /* \"#utility.yul\":4017:4019   */\n      0x40\n        /* \"#utility.yul\":4006:4015   */\n      dup3\n        /* \"#utility.yul\":4002:4020   */\n      add\n        /* \"#utility.yul\":3994:4020   */\n      swap1\n      pop\n        /* \"#utility.yul\":4030:4101   */\n      tag_261\n        /* \"#utility.yul\":4098:4099   */\n      0x00\n        /* \"#utility.yul\":4087:4096   */\n      dup4\n        /* \"#utility.yul\":4083:4100   */\n      add\n        /* \"#utility.yul\":4074:4080   */\n      dup6\n        /* \"#utility.yul\":4030:4101   */\n      tag_194\n      jump\t// in\n    tag_261:\n        /* \"#utility.yul\":4111:4183   */\n      tag_262\n        /* \"#utility.yul\":4179:4181   */\n      0x20\n        /* \"#utility.yul\":4168:4177   */\n      dup4\n        /* \"#utility.yul\":4164:4182   */\n      add\n        /* \"#utility.yul\":4155:4161   */\n      dup5\n        /* \"#utility.yul\":4111:4183   */\n      tag_189\n      jump\t// in\n    tag_262:\n        /* \"#utility.yul\":3858:4190   */\n      swap4\n      swap3\n      pop\n      pop\n      pop\n      jump\t// out\n        /* \"#utility.yul\":4196:4286   */\n    tag_198:\n        /* \"#utility.yul\":4230:4237   */\n      0x00\n        /* \"#utility.yul\":4273:4278   */\n      dup2\n        /* \"#utility.yul\":4266:4279   */\n      iszero\n        /* \"#utility.yul\":4259:4280   */\n      iszero\n        /* \"#utility.yul\":4248:4280   */\n      swap1\n      pop\n        /* \"#utility.yul\":4196:4286   */\n      swap2\n      swap1\n      pop\n      jump\t// out\n        /* \"#utility.yul\":4292:4408   */\n    tag_199:\n        /* \"#utility.yul\":4362:4383   */\n      tag_265\n        /* \"#utility.yul\":4377:4382   */\n      dup2\n        /* \"#utility.yul\":4362:4383   */\n      tag_198\n      jump\t// in\n    tag_265:\n        /* \"#utility.yul\":4355:4360   */\n      dup2\n        /* \"#utility.yul\":4352:4384   */\n      eq\n        /* \"#utility.yul\":4342:4402   */\n      tag_266\n      jumpi\n        /* \"#utility.yul\":4398:4399   */\n      0x00\n        /* \"#utility.yul\":4395:4396   */\n      dup1\n        /* \"#utility.yul\":4388:4400   */\n      revert\n        /* \"#utility.yul\":4342:4402   */\n    tag_266:\n        /* \"#utility.yul\":4292:4408   */\n      pop\n      jump\t// out\n        /* \"#utility.yul\":4414:4551   */\n    tag_200:\n        /* \"#utility.yul\":4468:4473   */\n      0x00\n        /* \"#utility.yul\":4499:4505   */\n      dup2\n        /* \"#utility.yul\":4493:4506   */\n      mload\n        /* \"#utility.yul\":4484:4506   */\n      swap1\n      pop\n        /* \"#utility.yul\":4515:4545   */\n      tag_268\n        /* \"#utility.yul\":4539:4544   */\n      dup2\n        /* \"#utility.yul\":4515:4545   */\n      tag_199\n      jump\t// in\n    tag_268:\n        /* \"#utility.yul\":4414:4551   */\n      swap3\n      swap2\n      pop\n      pop\n      jump\t// out\n        /* \"#utility.yul\":4557:4902   */\n    tag_53:\n        /* \"#utility.yul\":4624:4630   */\n      0x00\n        /* \"#utility.yul\":4673:4675   */\n      0x20\n        /* \"#utility.yul\":4661:4670   */\n      dup3\n        /* \"#utility.yul\":4652:4659   */\n      dup5\n        /* \"#utility.yul\":4648:4671   */\n      sub\n        /* \"#utility.yul\":4644:4676   */\n      slt\n        /* \"#utility.yul\":4641:4760   */\n      iszero\n      tag_270\n      jumpi\n        /* \"#utility.yul\":4679:4758   */\n      tag_271\n      tag_184\n      jump\t// in\n    tag_271:\n        /* \"#utility.yul\":4641:4760   */\n    tag_270:\n        /* \"#utility.yul\":4799:4800   */\n      0x00\n        /* \"#utility.yul\":4824:4885   */\n      tag_272\n        /* \"#utility.yul\":4877:4884   */\n      dup5\n        /* \"#utility.yul\":4868:4874   */\n      dup3\n        /* \"#utility.yul\":4857:4866   */\n      dup6\n        /* \"#utility.yul\":4853:4875   */\n      add\n        /* \"#utility.yul\":4824:4885   */\n      tag_200\n      jump\t// in\n    tag_272:\n        /* \"#utility.yul\":4814:4885   */\n      swap2\n      pop\n        /* \"#utility.yul\":4770:4895   */\n      pop\n        /* \"#utility.yul\":4557:4902   */\n      swap3\n      swap2\n      pop\n      pop\n      jump\t// out\n        /* \"#utility.yul\":4908:5240   */\n    tag_56:\n        /* \"#utility.yul\":5029:5033   */\n      0x00\n        /* \"#utility.yul\":5067:5069   */\n      0x40\n        /* \"#utility.yul\":5056:5065   */\n      dup3\n        /* \"#utility.yul\":5052:5070   */\n      add\n        /* \"#utility.yul\":5044:5070   */\n      swap1\n      pop\n        /* \"#utility.yul\":5080:5151   */\n      tag_274\n        /* \"#utility.yul\":5148:5149   */\n      0x00\n        /* \"#utility.yul\":5137:5146   */\n      dup4\n        /* \"#utility.yul\":5133:5150   */\n      add\n        /* \"#utility.yul\":5124:5130   */\n      dup6\n        /* \"#utility.yul\":5080:5151   */\n      tag_194\n      jump\t// in\n    tag_274:\n        /* \"#utility.yul\":5161:5233   */\n      tag_275\n        /* \"#utility.yul\":5229:5231   */\n      0x20\n        /* \"#utility.yul\":5218:5227   */\n      dup4\n        /* \"#utility.yul\":5214:5232   */\n      add\n        /* \"#utility.yul\":5205:5211   */\n      dup5\n        /* \"#utility.yul\":5161:5233   */\n      tag_194\n      jump\t// in\n    tag_275:\n        /* \"#utility.yul\":4908:5240   */\n      swap4\n      swap3\n      pop\n      pop\n      pop\n      jump\t// out\n        /* \"#utility.yul\":5246:5389   */\n    tag_201:\n        /* \"#utility.yul\":5303:5308   */\n      0x00\n        /* \"#utility.yul\":5334:5340   */\n      dup2\n        /* \"#utility.yul\":5328:5341   */\n      mload\n        /* \"#utility.yul\":5319:5341   */\n      swap1\n      pop\n        /* \"#utility.yul\":5350:5383   */\n      tag_277\n        /* \"#utility.yul\":5377:5382   */\n      dup2\n        /* \"#utility.yul\":5350:5383   */\n      tag_187\n      jump\t// in\n    tag_277:\n        /* \"#utility.yul\":5246:5389   */\n      swap3\n      swap2\n      pop\n      pop\n      jump\t// out\n        /* \"#utility.yul\":5395:5746   */\n    tag_60:\n        /* \"#utility.yul\":5465:5471   */\n      0x00\n        /* \"#utility.yul\":5514:5516   */\n      0x20\n        /* \"#utility.yul\":5502:5511   */\n      dup3\n        /* \"#utility.yul\":5493:5500   */\n      dup5\n        /* \"#utility.yul\":5489:5512   */\n      sub\n        /* \"#utility.yul\":5485:5517   */\n      slt\n        /* \"#utility.yul\":5482:5601   */\n      iszero\n      tag_279\n      jumpi\n        /* \"#utility.yul\":5520:5599   */\n      tag_280\n      tag_184\n      jump\t// in\n    tag_280:\n        /* \"#utility.yul\":5482:5601   */\n    tag_279:\n        /* \"#utility.yul\":5640:5641   */\n      0x00\n        /* \"#utility.yul\":5665:5729   */\n      tag_281\n        /* \"#utility.yul\":5721:5728   */\n      dup5\n        /* \"#utility.yul\":5712:5718   */\n      dup3\n        /* \"#utility.yul\":5701:5710   */\n      dup6\n        /* \"#utility.yul\":5697:5719   */\n      add\n        /* \"#utility.yul\":5665:5729   */\n      tag_201\n      jump\t// in\n    tag_281:\n        /* \"#utility.yul\":5655:5729   */\n      swap2\n      pop\n        /* \"#utility.yul\":5611:5739   */\n      pop\n        /* \"#utility.yul\":5395:5746   */\n      swap3\n      swap2\n      pop\n      pop\n      jump\t// out\n        /* \"#utility.yul\":5752:5923   */\n    tag_202:\n        /* \"#utility.yul\":5892:5915   */\n      0x436f6e7472616374206e6f7420617070726f7665640000000000000000000000\n        /* \"#utility.yul\":5888:5889   */\n      0x00\n        /* \"#utility.yul\":5880:5886   */\n      dup3\n        /* \"#utility.yul\":5876:5890   */\n      add\n        /* \"#utility.yul\":5869:5916   */\n      mstore\n        /* \"#utility.yul\":5752:5923   */\n      pop\n      jump\t// out\n        /* \"#utility.yul\":5929:6295   */\n    tag_203:\n        /* \"#utility.yul\":6071:6074   */\n      0x00\n        /* \"#utility.yul\":6092:6159   */\n      tag_284\n        /* \"#utility.yul\":6156:6158   */\n      0x15\n        /* \"#utility.yul\":6151:6154   */\n      dup4\n        /* \"#utility.yul\":6092:6159   */\n      tag_195\n      jump\t// in\n    tag_284:\n        /* \"#utility.yul\":6085:6159   */\n      swap2\n      pop\n        /* \"#utility.yul\":6168:6261   */\n      tag_285\n        /* \"#utility.yul\":6257:6260   */\n      dup3\n        /* \"#utility.yul\":6168:6261   */\n      tag_202\n      jump\t// in\n    tag_285:\n        /* \"#utility.yul\":6286:6288   */\n      0x20\n        /* \"#utility.yul\":6281:6284   */\n      dup3\n        /* \"#utility.yul\":6277:6289   */\n      add\n        /* \"#utility.yul\":6270:6289   */\n      swap1\n      pop\n        /* \"#utility.yul\":5929:6295   */\n      swap2\n      swap1\n      pop\n      jump\t// out\n        /* \"#utility.yul\":6301:6720   */\n    tag_63:\n        /* \"#utility.yul\":6467:6471   */\n      0x00\n        /* \"#utility.yul\":6505:6507   */\n      0x20\n        /* \"#utility.yul\":6494:6503   */\n      dup3\n        /* \"#utility.yul\":6490:6508   */\n      add\n        /* \"#utility.yul\":6482:6508   */\n      swap1\n      pop\n        /* \"#utility.yul\":6554:6563   */\n      dup2\n        /* \"#utility.yul\":6548:6552   */\n      dup2\n        /* \"#utility.yul\":6544:6564   */\n      sub\n        /* \"#utility.yul\":6540:6541   */\n      0x00\n        /* \"#utility.yul\":6529:6538   */\n      dup4\n        /* \"#utility.yul\":6525:6542   */\n      add\n        /* \"#utility.yul\":6518:6565   */\n      mstore\n        /* \"#utility.yul\":6582:6713   */\n      tag_287\n        /* \"#utility.yul\":6708:6712   */\n      dup2\n        /* \"#utility.yul\":6582:6713   */\n      tag_203\n      jump\t// in\n    tag_287:\n        /* \"#utility.yul\":6574:6713   */\n      swap1\n      pop\n        /* \"#utility.yul\":6301:6720   */\n      swap2\n      swap1\n      pop\n      jump\t// out\n        /* \"#utility.yul\":6726:7168   */\n    tag_65:\n        /* \"#utility.yul\":6875:6879   */\n      0x00\n        /* \"#utility.yul\":6913:6915   */\n      0x60\n        /* \"#utility.yul\":6902:6911   */\n      dup3\n        /* \"#utility.yul\":6898:6916   */\n      add\n        /* \"#utility.yul\":6890:6916   */\n      swap1\n      pop\n        /* \"#utility.yul\":6926:6997   */\n      tag_289\n        /* \"#utility.yul\":6994:6995   */\n      0x00\n        /* \"#utility.yul\":6983:6992   */\n      dup4\n        /* \"#utility.yul\":6979:6996   */\n      add\n        /* \"#utility.yul\":6970:6976   */\n      dup7\n        /* \"#utility.yul\":6926:6997   */\n      tag_194\n      jump\t// in\n    tag_289:\n        /* \"#utility.yul\":7007:7079   */\n      tag_290\n        /* \"#utility.yul\":7075:7077   */\n      0x20\n        /* \"#utility.yul\":7064:7073   */\n      dup4\n        /* \"#utility.yul\":7060:7078   */\n      add\n        /* \"#utility.yul\":7051:7057   */\n      dup6\n        /* \"#utility.yul\":7007:7079   */\n      tag_194\n      jump\t// in\n    tag_290:\n        /* \"#utility.yul\":7089:7161   */\n      tag_291\n        /* \"#utility.yul\":7157:7159   */\n      0x40\n        /* \"#utility.yul\":7146:7155   */\n      dup4\n        /* \"#utility.yul\":7142:7160   */\n      add\n        /* \"#utility.yul\":7133:7139   */\n      dup5\n        /* \"#utility.yul\":7089:7161   */\n      tag_189\n      jump\t// in\n    tag_291:\n        /* \"#utility.yul\":6726:7168   */\n      swap5\n      swap4\n      pop\n      pop\n      pop\n      pop\n      jump\t// out\n        /* \"#utility.yul\":7174:7354   */\n    tag_163:\n        /* \"#utility.yul\":7222:7299   */\n      0x4e487b7100000000000000000000000000000000000000000000000000000000\n        /* \"#utility.yul\":7219:7220   */\n      0x00\n        /* \"#utility.yul\":7212:7300   */\n      mstore\n        /* \"#utility.yul\":7319:7323   */\n      0x12\n        /* \"#utility.yul\":7316:7317   */\n      0x04\n        /* \"#utility.yul\":7309:7324   */\n      mstore\n        /* \"#utility.yul\":7343:7347   */\n      0x24\n        /* \"#utility.yul\":7340:7341   */\n      0x00\n        /* \"#utility.yul\":7333:7348   */\n      revert\n        /* \"#utility.yul\":7360:7540   */\n    tag_204:\n        /* \"#utility.yul\":7408:7485   */\n      0x4e487b7100000000000000000000000000000000000000000000000000000000\n        /* \"#utility.yul\":7405:7406   */\n      0x00\n        /* \"#utility.yul\":7398:7486   */\n      mstore\n        /* \"#utility.yul\":7505:7509   */\n      0x11\n        /* \"#utility.yul\":7502:7503   */\n      0x04\n        /* \"#utility.yul\":7495:7510   */\n      mstore\n        /* \"#utility.yul\":7529:7533   */\n      0x24\n        /* \"#utility.yul\":7526:7527   */\n      0x00\n        /* \"#utility.yul\":7519:7534   */\n      revert\n        /* \"#utility.yul\":7546:7731   */\n    tag_74:\n        /* \"#utility.yul\":7586:7587   */\n      0x00\n        /* \"#utility.yul\":7603:7623   */\n      tag_295\n        /* \"#utility.yul\":7621:7622   */\n      dup3\n        /* \"#utility.yul\":7603:7623   */\n      tag_186\n      jump\t// in\n    tag_295:\n        /* \"#utility.yul\":7598:7623   */\n      swap2\n      pop\n        /* \"#utility.yul\":7637:7657   */\n      tag_296\n        /* \"#utility.yul\":7655:7656   */\n      dup4\n        /* \"#utility.yul\":7637:7657   */\n      tag_186\n      jump\t// in\n    tag_296:\n        /* \"#utility.yul\":7632:7657   */\n      swap3\n      pop\n        /* \"#utility.yul\":7676:7677   */\n      dup3\n        /* \"#utility.yul\":7666:7701   */\n      tag_297\n      jumpi\n        /* \"#utility.yul\":7681:7699   */\n      tag_298\n      tag_163\n      jump\t// in\n    tag_298:\n        /* \"#utility.yul\":7666:7701   */\n    tag_297:\n        /* \"#utility.yul\":7723:7724   */\n      dup3\n        /* \"#utility.yul\":7720:7721   */\n      dup3\n        /* \"#utility.yul\":7716:7725   */\n      div\n        /* \"#utility.yul\":7711:7725   */\n      swap1\n      pop\n        /* \"#utility.yul\":7546:7731   */\n      swap3\n      swap2\n      pop\n      pop\n      jump\t// out\n        /* \"#utility.yul\":7737:7931   */\n    tag_76:\n        /* \"#utility.yul\":7777:7781   */\n      0x00\n        /* \"#utility.yul\":7797:7817   */\n      tag_300\n        /* \"#utility.yul\":7815:7816   */\n      dup3\n        /* \"#utility.yul\":7797:7817   */\n      tag_186\n      jump\t// in\n    tag_300:\n        /* \"#utility.yul\":7792:7817   */\n      swap2\n      pop\n        /* \"#utility.yul\":7831:7851   */\n      tag_301\n        /* \"#utility.yul\":7849:7850   */\n      dup4\n        /* \"#utility.yul\":7831:7851   */\n      tag_186\n      jump\t// in\n    tag_301:\n        /* \"#utility.yul\":7826:7851   */\n      swap3\n      pop\n        /* \"#utility.yul\":7875:7876   */\n      dup3\n        /* \"#utility.yul\":7872:7873   */\n      dup3\n        /* \"#utility.yul\":7868:7877   */\n      sub\n        /* \"#utility.yul\":7860:7877   */\n      swap1\n      pop\n        /* \"#utility.yul\":7899:7900   */\n      dup2\n        /* \"#utility.yul\":7893:7897   */\n      dup2\n        /* \"#utility.yul\":7890:7901   */\n      gt\n        /* \"#utility.yul\":7887:7924   */\n      iszero\n      tag_302\n      jumpi\n        /* \"#utility.yul\":7904:7922   */\n      tag_303\n      tag_204\n      jump\t// in\n    tag_303:\n        /* \"#utility.yul\":7887:7924   */\n    tag_302:\n        /* \"#utility.yul\":7737:7931   */\n      swap3\n      swap2\n      pop\n      pop\n      jump\t// out\n        /* \"#utility.yul\":7937:8084   */\n    tag_205:\n        /* \"#utility.yul\":8038:8049   */\n      0x00\n        /* \"#utility.yul\":8075:8078   */\n      dup2\n        /* \"#utility.yul\":8060:8078   */\n      swap1\n      pop\n        /* \"#utility.yul\":7937:8084   */\n      swap3\n      swap2\n      pop\n      pop\n      jump\t// out\n        /* \"#utility.yul\":8090:8204   */\n    tag_206:\n      pop\n      jump\t// out\n        /* \"#utility.yul\":8210:8608   */\n    tag_207:\n        /* \"#utility.yul\":8369:8372   */\n      0x00\n        /* \"#utility.yul\":8390:8473   */\n      tag_307\n        /* \"#utility.yul\":8471:8472   */\n      0x00\n        /* \"#utility.yul\":8466:8469   */\n      dup4\n        /* \"#utility.yul\":8390:8473   */\n      tag_205\n      jump\t// in\n    tag_307:\n        /* \"#utility.yul\":8383:8473   */\n      swap2\n      pop\n        /* \"#utility.yul\":8482:8575   */\n      tag_308\n        /* \"#utility.yul\":8571:8574   */\n      dup3\n        /* \"#utility.yul\":8482:8575   */\n      tag_206\n      jump\t// in\n    tag_308:\n        /* \"#utility.yul\":8600:8601   */\n      0x00\n        /* \"#utility.yul\":8595:8598   */\n      dup3\n        /* \"#utility.yul\":8591:8602   */\n      add\n        /* \"#utility.yul\":8584:8602   */\n      swap1\n      pop\n        /* \"#utility.yul\":8210:8608   */\n      swap2\n      swap1\n      pop\n      jump\t// out\n        /* \"#utility.yul\":8614:8993   */\n    tag_78:\n        /* \"#utility.yul\":8798:8801   */\n      0x00\n        /* \"#utility.yul\":8820:8967   */\n      tag_310\n        /* \"#utility.yul\":8963:8966   */\n      dup3\n        /* \"#utility.yul\":8820:8967   */\n      tag_207\n      jump\t// in\n    tag_310:\n        /* \"#utility.yul\":8813:8967   */\n      swap2\n      pop\n        /* \"#utility.yul\":8984:8987   */\n      dup2\n        /* \"#utility.yul\":8977:8987   */\n      swap1\n      pop\n        /* \"#utility.yul\":8614:8993   */\n      swap2\n      swap1\n      pop\n      jump\t// out\n        /* \"#utility.yul\":8999:9164   */\n    tag_208:\n        /* \"#utility.yul\":9139:9156   */\n      0x5472616e73666572204661696c65640000000000000000000000000000000000\n        /* \"#utility.yul\":9135:9136   */\n      0x00\n        /* \"#utility.yul\":9127:9133   */\n      dup3\n        /* \"#utility.yul\":9123:9137   */\n      add\n        /* \"#utility.yul\":9116:9157   */\n      mstore\n        /* \"#utility.yul\":8999:9164   */\n      pop\n      jump\t// out\n        /* \"#utility.yul\":9170:9536   */\n    tag_209:\n        /* \"#utility.yul\":9312:9315   */\n      0x00\n        /* \"#utility.yul\":9333:9400   */\n      tag_313\n        /* \"#utility.yul\":9397:9399   */\n      0x0f\n        /* \"#utility.yul\":9392:9395   */\n      dup4\n        /* \"#utility.yul\":9333:9400   */\n      tag_195\n      jump\t// in\n    tag_313:\n        /* \"#utility.yul\":9326:9400   */\n      swap2\n      pop\n        /* \"#utility.yul\":9409:9502   */\n      tag_314\n        /* \"#utility.yul\":9498:9501   */\n      dup3\n        /* \"#utility.yul\":9409:9502   */\n      tag_208\n      jump\t// in\n    tag_314:\n        /* \"#utility.yul\":9527:9529   */\n      0x20\n        /* \"#utility.yul\":9522:9525   */\n      dup3\n        /* \"#utility.yul\":9518:9530   */\n      add\n        /* \"#utility.yul\":9511:9530   */\n      swap1\n      pop\n        /* \"#utility.yul\":9170:9536   */\n      swap2\n      swap1\n      pop\n      jump\t// out\n        /* \"#utility.yul\":9542:9961   */\n    tag_84:\n        /* \"#utility.yul\":9708:9712   */\n      0x00\n        /* \"#utility.yul\":9746:9748   */\n      0x20\n        /* \"#utility.yul\":9735:9744   */\n      dup3\n        /* \"#utility.yul\":9731:9749   */\n      add\n        /* \"#utility.yul\":9723:9749   */\n      swap1\n      pop\n        /* \"#utility.yul\":9795:9804   */\n      dup2\n        /* \"#utility.yul\":9789:9793   */\n      dup2\n        /* \"#utility.yul\":9785:9805   */\n      sub\n        /* \"#utility.yul\":9781:9782   */\n      0x00\n        /* \"#utility.yul\":9770:9779   */\n      dup4\n        /* \"#utility.yul\":9766:9783   */\n      add\n        /* \"#utility.yul\":9759:9806   */\n      mstore\n        /* \"#utility.yul\":9823:9954   */\n      tag_316\n        /* \"#utility.yul\":9949:9953   */\n      dup2\n        /* \"#utility.yul\":9823:9954   */\n      tag_209\n      jump\t// in\n    tag_316:\n        /* \"#utility.yul\":9815:9954   */\n      swap1\n      pop\n        /* \"#utility.yul\":9542:9961   */\n      swap2\n      swap1\n      pop\n      jump\t// out\n        /* \"#utility.yul\":9967:10132   */\n    tag_210:\n        /* \"#utility.yul\":10107:10124   */\n      0x5472616e73666572206661696c65640000000000000000000000000000000000\n        /* \"#utility.yul\":10103:10104   */\n      0x00\n        /* \"#utility.yul\":10095:10101   */\n      dup3\n        /* \"#utility.yul\":10091:10105   */\n      add\n        /* \"#utility.yul\":10084:10125   */\n      mstore\n        /* \"#utility.yul\":9967:10132   */\n      pop\n      jump\t// out\n        /* \"#utility.yul\":10138:10504   */\n    tag_211:\n        /* \"#utility.yul\":10280:10283   */\n      0x00\n        /* \"#utility.yul\":10301:10368   */\n      tag_319\n        /* \"#utility.yul\":10365:10367   */\n      0x0f\n        /* \"#utility.yul\":10360:10363   */\n      dup4\n        /* \"#utility.yul\":10301:10368   */\n      tag_195\n      jump\t// in\n    tag_319:\n        /* \"#utility.yul\":10294:10368   */\n      swap2\n      pop\n        /* \"#utility.yul\":10377:10470   */\n      tag_320\n        /* \"#utility.yul\":10466:10469   */\n      dup3\n        /* \"#utility.yul\":10377:10470   */\n      tag_210\n      jump\t// in\n    tag_320:\n        /* \"#utility.yul\":10495:10497   */\n      0x20\n        /* \"#utility.yul\":10490:10493   */\n      dup3\n        /* \"#utility.yul\":10486:10498   */\n      add\n        /* \"#utility.yul\":10479:10498   */\n      swap1\n      pop\n        /* \"#utility.yul\":10138:10504   */\n      swap2\n      swap1\n      pop\n      jump\t// out\n        /* \"#utility.yul\":10510:10929   */\n    tag_100:\n        /* \"#utility.yul\":10676:10680   */\n      0x00\n        /* \"#utility.yul\":10714:10716   */\n      0x20\n        /* \"#utility.yul\":10703:10712   */\n      dup3\n        /* \"#utility.yul\":10699:10717   */\n      add\n        /* \"#utility.yul\":10691:10717   */\n      swap1\n      pop\n        /* \"#utility.yul\":10763:10772   */\n      dup2\n        /* \"#utility.yul\":10757:10761   */\n      dup2\n        /* \"#utility.yul\":10753:10773   */\n      sub\n        /* \"#utility.yul\":10749:10750   */\n      0x00\n        /* \"#utility.yul\":10738:10747   */\n      dup4\n        /* \"#utility.yul\":10734:10751   */\n      add\n        /* \"#utility.yul\":10727:10774   */\n      mstore\n        /* \"#utility.yul\":10791:10922   */\n      tag_322\n        /* \"#utility.yul\":10917:10921   */\n      dup2\n        /* \"#utility.yul\":10791:10922   */\n      tag_211\n      jump\t// in\n    tag_322:\n        /* \"#utility.yul\":10783:10922   */\n      swap1\n      pop\n        /* \"#utility.yul\":10510:10929   */\n      swap2\n      swap1\n      pop\n      jump\t// out\n        /* \"#utility.yul\":10935:11169   */\n    tag_212:\n        /* \"#utility.yul\":11075:11109   */\n      0x4c69717569646974792070726f76696465642073686f756c6420626520677265\n        /* \"#utility.yul\":11071:11072   */\n      0x00\n        /* \"#utility.yul\":11063:11069   */\n      dup3\n        /* \"#utility.yul\":11059:11073   */\n      add\n        /* \"#utility.yul\":11052:11110   */\n      mstore\n        /* \"#utility.yul\":11144:11161   */\n      0x61746572207468616e2031204554480000000000000000000000000000000000\n        /* \"#utility.yul\":11139:11141   */\n      0x20\n        /* \"#utility.yul\":11131:11137   */\n      dup3\n        /* \"#utility.yul\":11127:11142   */\n      add\n        /* \"#utility.yul\":11120:11162   */\n      mstore\n        /* \"#utility.yul\":10935:11169   */\n      pop\n      jump\t// out\n        /* \"#utility.yul\":11175:11541   */\n    tag_213:\n        /* \"#utility.yul\":11317:11320   */\n      0x00\n        /* \"#utility.yul\":11338:11405   */\n      tag_325\n        /* \"#utility.yul\":11402:11404   */\n      0x2f\n        /* \"#utility.yul\":11397:11400   */\n      dup4\n        /* \"#utility.yul\":11338:11405   */\n      tag_195\n      jump\t// in\n    tag_325:\n        /* \"#utility.yul\":11331:11405   */\n      swap2\n      pop\n        /* \"#utility.yul\":11414:11507   */\n      tag_326\n        /* \"#utility.yul\":11503:11506   */\n      dup3\n        /* \"#utility.yul\":11414:11507   */\n      tag_212\n      jump\t// in\n    tag_326:\n        /* \"#utility.yul\":11532:11534   */\n      0x40\n        /* \"#utility.yul\":11527:11530   */\n      dup3\n        /* \"#utility.yul\":11523:11535   */\n      add\n        /* \"#utility.yul\":11516:11535   */\n      swap1\n      pop\n        /* \"#utility.yul\":11175:11541   */\n      swap2\n      swap1\n      pop\n      jump\t// out\n        /* \"#utility.yul\":11547:11966   */\n    tag_109:\n        /* \"#utility.yul\":11713:11717   */\n      0x00\n        /* \"#utility.yul\":11751:11753   */\n      0x20\n        /* \"#utility.yul\":11740:11749   */\n      dup3\n        /* \"#utility.yul\":11736:11754   */\n      add\n        /* \"#utility.yul\":11728:11754   */\n      swap1\n      pop\n        /* \"#utility.yul\":11800:11809   */\n      dup2\n        /* \"#utility.yul\":11794:11798   */\n      dup2\n        /* \"#utility.yul\":11790:11810   */\n      sub\n        /* \"#utility.yul\":11786:11787   */\n      0x00\n        /* \"#utility.yul\":11775:11784   */\n      dup4\n        /* \"#utility.yul\":11771:11788   */\n      add\n        /* \"#utility.yul\":11764:11811   */\n      mstore\n        /* \"#utility.yul\":11828:11959   */\n      tag_328\n        /* \"#utility.yul\":11954:11958   */\n      dup2\n        /* \"#utility.yul\":11828:11959   */\n      tag_213\n      jump\t// in\n    tag_328:\n        /* \"#utility.yul\":11820:11959   */\n      swap1\n      pop\n        /* \"#utility.yul\":11547:11966   */\n      swap2\n      swap1\n      pop\n      jump\t// out\n        /* \"#utility.yul\":11972:12382   */\n    tag_125:\n        /* \"#utility.yul\":12012:12019   */\n      0x00\n        /* \"#utility.yul\":12035:12055   */\n      tag_330\n        /* \"#utility.yul\":12053:12054   */\n      dup3\n        /* \"#utility.yul\":12035:12055   */\n      tag_186\n      jump\t// in\n    tag_330:\n        /* \"#utility.yul\":12030:12055   */\n      swap2\n      pop\n        /* \"#utility.yul\":12069:12089   */\n      tag_331\n        /* \"#utility.yul\":12087:12088   */\n      dup4\n        /* \"#utility.yul\":12069:12089   */\n      tag_186\n      jump\t// in\n    tag_331:\n        /* \"#utility.yul\":12064:12089   */\n      swap3\n      pop\n        /* \"#utility.yul\":12124:12125   */\n      dup3\n        /* \"#utility.yul\":12121:12122   */\n      dup3\n        /* \"#utility.yul\":12117:12126   */\n      mul\n        /* \"#utility.yul\":12146:12176   */\n      tag_332\n        /* \"#utility.yul\":12164:12175   */\n      dup2\n        /* \"#utility.yul\":12146:12176   */\n      tag_186\n      jump\t// in\n    tag_332:\n        /* \"#utility.yul\":12135:12176   */\n      swap2\n      pop\n        /* \"#utility.yul\":12325:12326   */\n      dup3\n        /* \"#utility.yul\":12316:12323   */\n      dup3\n        /* \"#utility.yul\":12312:12327   */\n      div\n        /* \"#utility.yul\":12309:12310   */\n      dup5\n        /* \"#utility.yul\":12306:12328   */\n      eq\n        /* \"#utility.yul\":12286:12287   */\n      dup4\n        /* \"#utility.yul\":12279:12288   */\n      iszero\n        /* \"#utility.yul\":12259:12342   */\n      or\n        /* \"#utility.yul\":12236:12375   */\n      tag_333\n      jumpi\n        /* \"#utility.yul\":12355:12373   */\n      tag_334\n      tag_204\n      jump\t// in\n    tag_334:\n        /* \"#utility.yul\":12236:12375   */\n    tag_333:\n        /* \"#utility.yul\":12020:12382   */\n      pop\n        /* \"#utility.yul\":11972:12382   */\n      swap3\n      swap2\n      pop\n      pop\n      jump\t// out\n        /* \"#utility.yul\":12388:12562   */\n    tag_214:\n        /* \"#utility.yul\":12528:12554   */\n      0x496e76616c696420616d6f756e74206f66207368617265730000000000000000\n        /* \"#utility.yul\":12524:12525   */\n      0x00\n        /* \"#utility.yul\":12516:12522   */\n      dup3\n        /* \"#utility.yul\":12512:12526   */\n      add\n        /* \"#utility.yul\":12505:12555   */\n      mstore\n        /* \"#utility.yul\":12388:12562   */\n      pop\n      jump\t// out\n        /* \"#utility.yul\":12568:12934   */\n    tag_215:\n        /* \"#utility.yul\":12710:12713   */\n      0x00\n        /* \"#utility.yul\":12731:12798   */\n      tag_337\n        /* \"#utility.yul\":12795:12797   */\n      0x18\n        /* \"#utility.yul\":12790:12793   */\n      dup4\n        /* \"#utility.yul\":12731:12798   */\n      tag_195\n      jump\t// in\n    tag_337:\n        /* \"#utility.yul\":12724:12798   */\n      swap2\n      pop\n        /* \"#utility.yul\":12807:12900   */\n      tag_338\n        /* \"#utility.yul\":12896:12899   */\n      dup3\n        /* \"#utility.yul\":12807:12900   */\n      tag_214\n      jump\t// in\n    tag_338:\n        /* \"#utility.yul\":12925:12927   */\n      0x20\n        /* \"#utility.yul\":12920:12923   */\n      dup3\n        /* \"#utility.yul\":12916:12928   */\n      add\n        /* \"#utility.yul\":12909:12928   */\n      swap1\n      pop\n        /* \"#utility.yul\":12568:12934   */\n      swap2\n      swap1\n      pop\n      jump\t// out\n        /* \"#utility.yul\":12940:13359   */\n    tag_130:\n        /* \"#utility.yul\":13106:13110   */\n      0x00\n        /* \"#utility.yul\":13144:13146   */\n      0x20\n        /* \"#utility.yul\":13133:13142   */\n      dup3\n        /* \"#utility.yul\":13129:13147   */\n      add\n        /* \"#utility.yul\":13121:13147   */\n      swap1\n      pop\n        /* \"#utility.yul\":13193:13202   */\n      dup2\n        /* \"#utility.yul\":13187:13191   */\n      dup2\n        /* \"#utility.yul\":13183:13203   */\n      sub\n        /* \"#utility.yul\":13179:13180   */\n      0x00\n        /* \"#utility.yul\":13168:13177   */\n      dup4\n        /* \"#utility.yul\":13164:13181   */\n      add\n        /* \"#utility.yul\":13157:13204   */\n      mstore\n        /* \"#utility.yul\":13221:13352   */\n      tag_340\n        /* \"#utility.yul\":13347:13351   */\n      dup2\n        /* \"#utility.yul\":13221:13352   */\n      tag_215\n      jump\t// in\n    tag_340:\n        /* \"#utility.yul\":13213:13352   */\n      swap1\n      pop\n        /* \"#utility.yul\":12940:13359   */\n      swap2\n      swap1\n      pop\n      jump\t// out\n        /* \"#utility.yul\":13365:13654   */\n    tag_216:\n        /* \"#utility.yul\":13505:13539   */\n      0x506c6561736520617070726f76652074686520636f6e747261637420746f2064\n        /* \"#utility.yul\":13501:13502   */\n      0x00\n        /* \"#utility.yul\":13493:13499   */\n      dup3\n        /* \"#utility.yul\":13489:13503   */\n      add\n        /* \"#utility.yul\":13482:13540   */\n      mstore\n        /* \"#utility.yul\":13574:13608   */\n      0x6564756374206c747220746f6b656e732066726f6d20796f75722077616c6c65\n        /* \"#utility.yul\":13569:13571   */\n      0x20\n        /* \"#utility.yul\":13561:13567   */\n      dup3\n        /* \"#utility.yul\":13557:13572   */\n      add\n        /* \"#utility.yul\":13550:13609   */\n      mstore\n        /* \"#utility.yul\":13643:13646   */\n      0x7400000000000000000000000000000000000000000000000000000000000000\n        /* \"#utility.yul\":13638:13640   */\n      0x40\n        /* \"#utility.yul\":13630:13636   */\n      dup3\n        /* \"#utility.yul\":13626:13641   */\n      add\n        /* \"#utility.yul\":13619:13647   */\n      mstore\n        /* \"#utility.yul\":13365:13654   */\n      pop\n      jump\t// out\n        /* \"#utility.yul\":13660:14026   */\n    tag_217:\n        /* \"#utility.yul\":13802:13805   */\n      0x00\n        /* \"#utility.yul\":13823:13890   */\n      tag_343\n        /* \"#utility.yul\":13887:13889   */\n      0x41\n        /* \"#utility.yul\":13882:13885   */\n      dup4\n        /* \"#utility.yul\":13823:13890   */\n      tag_195\n      jump\t// in\n    tag_343:\n        /* \"#utility.yul\":13816:13890   */\n      swap2\n      pop\n        /* \"#utility.yul\":13899:13992   */\n      tag_344\n        /* \"#utility.yul\":13988:13991   */\n      dup3\n        /* \"#utility.yul\":13899:13992   */\n      tag_216\n      jump\t// in\n    tag_344:\n        /* \"#utility.yul\":14017:14019   */\n      0x60\n        /* \"#utility.yul\":14012:14015   */\n      dup3\n        /* \"#utility.yul\":14008:14020   */\n      add\n        /* \"#utility.yul\":14001:14020   */\n      swap1\n      pop\n        /* \"#utility.yul\":13660:14026   */\n      swap2\n      swap1\n      pop\n      jump\t// out\n        /* \"#utility.yul\":14032:14451   */\n    tag_137:\n        /* \"#utility.yul\":14198:14202   */\n      0x00\n        /* \"#utility.yul\":14236:14238   */\n      0x20\n        /* \"#utility.yul\":14225:14234   */\n      dup3\n        /* \"#utility.yul\":14221:14239   */\n      add\n        /* \"#utility.yul\":14213:14239   */\n      swap1\n      pop\n        /* \"#utility.yul\":14285:14294   */\n      dup2\n        /* \"#utility.yul\":14279:14283   */\n      dup2\n        /* \"#utility.yul\":14275:14295   */\n      sub\n        /* \"#utility.yul\":14271:14272   */\n      0x00\n        /* \"#utility.yul\":14260:14269   */\n      dup4\n        /* \"#utility.yul\":14256:14273   */\n      add\n        /* \"#utility.yul\":14249:14296   */\n      mstore\n        /* \"#utility.yul\":14313:14444   */\n      tag_346\n        /* \"#utility.yul\":14439:14443   */\n      dup2\n        /* \"#utility.yul\":14313:14444   */\n      tag_217\n      jump\t// in\n    tag_346:\n        /* \"#utility.yul\":14305:14444   */\n      swap1\n      pop\n        /* \"#utility.yul\":14032:14451   */\n      swap2\n      swap1\n      pop\n      jump\t// out\n\n    auxdata: 0xa2646970667358221220955ad04294470473c4d4cbffe44dd9af59c577f81484f971bc4c28f710c471d464736f6c63430008110033\n}\n",
				"bytecode": {
					"linkReferences": {},
					"object": "60806040523480156200001157600080fd5b50604051620017a2380380620017a28339818101604052810190620000379190620000e8565b806000806101000a81548173ffffffffffffffffffffffffffffffffffffffff021916908373ffffffffffffffffffffffffffffffffffffffff160217905550506200011a565b600080fd5b600073ffffffffffffffffffffffffffffffffffffffff82169050919050565b6000620000b08262000083565b9050919050565b620000c281620000a3565b8114620000ce57600080fd5b50565b600081519050620000e281620000b7565b92915050565b6000602082840312156200010157620001006200007e565b5b60006200011184828501620000d1565b91505092915050565b611678806200012a6000396000f3fe60806040526004361061007b5760003560e01c8063bec3fa171161004e578063bec3fa171461010c578063eb521a4c14610135578063f4325d6714610151578063ff9b37581461017c5761007b565b80631aa5c70e146100805780637464fc3d1461009c5780638e3073a6146100c757806394b918de146100f0575b600080fd5b61009a60048036038101906100959190610f31565b6101a5565b005b3480156100a857600080fd5b506100b1610289565b6040516100be9190610f6d565b60405180910390f35b3480156100d357600080fd5b506100ee60048036038101906100e99190610f31565b61028f565b005b61010a60048036038101906101059190610f31565b61057c565b005b34801561011857600080fd5b50610133600480360381019061012e9190610fe6565b610700565b005b61014f600480360381019061014a9190610f31565b610797565b005b34801561015d57600080fd5b50610166610a13565b6040516101739190611035565b60405180910390f35b34801561018857600080fd5b506101a3600480360381019061019e9190610f31565b610a37565b005b8034146101e7576040517f08c379a00000000000000000000000000000000000000000000000000000000081526004016101de906110ad565b60405180910390fd5b60008054906101000a900473ffffffffffffffffffffffffffffffffffffffff1673ffffffffffffffffffffffffffffffffffffffff1663a9059cbb33836040518363ffffffff1660e01b81526004016102429291906110cd565b6020604051808303816000875af1158015610261573d6000803e3d6000fd5b505050506040513d601f19601f82011682018060405250810190610285919061112e565b5050565b60015481565b8060008054906101000a900473ffffffffffffffffffffffffffffffffffffffff1673ffffffffffffffffffffffffffffffffffffffff1663dd62ed3e33306040518363ffffffff1660e01b81526004016102eb92919061115b565b602060405180830381865afa158015610308573d6000803e3d6000fd5b505050506040513d601f19601f8201168201806040525081019061032c9190611199565b101561036d576040517f08c379a000000000000000000000000000000000000000000000000000000000815260040161036490611212565b60405180910390fd5b60008054906101000a900473ffffffffffffffffffffffffffffffffffffffff1673ffffffffffffffffffffffffffffffffffffffff166323b872dd3330846040518463ffffffff1660e01b81526004016103ca93929190611232565b6020604051808303816000875af11580156103e9573d6000803e3d6000fd5b505050506040513d601f19601f8201168201806040525081019061040d919061112e565b5060008060009054906101000a900473ffffffffffffffffffffffffffffffffffffffff1673ffffffffffffffffffffffffffffffffffffffff166370a08231306040518263ffffffff1660e01b815260040161046a9190611035565b602060405180830381865afa158015610487573d6000803e3d6000fd5b505050506040513d601f19601f820116820180604052508101906104ab9190611199565b9050600047826001546104be91906112c7565b6104c891906112f8565b905060003373ffffffffffffffffffffffffffffffffffffffff16826040516104f09061135d565b60006040518083038185875af1925050503d806000811461052d576040519150601f19603f3d011682016040523d82523d6000602084013e610532565b606091505b5050905080610576576040517f08c379a000000000000000000000000000000000000000000000000000000000815260040161056d906113be565b60405180910390fd5b50505050565b600034111561063c5760003460015461059591906112c7565b905060008054906101000a900473ffffffffffffffffffffffffffffffffffffffff1673ffffffffffffffffffffffffffffffffffffffff1663a9059cbb33836040518363ffffffff1660e01b81526004016105f29291906110cd565b6020604051808303816000875af1158015610611573d6000803e3d6000fd5b505050506040513d601f19601f82011682018060405250810190610635919061112e565b50506106fd565b60008160015461064c91906112c7565b905060003373ffffffffffffffffffffffffffffffffffffffff16826040516106749061135d565b60006040518083038185875af1925050503d80600081146106b1576040519150601f19603f3d011682016040523d82523d6000602084013e6106b6565b606091505b50509050806106fa576040517f08c379a00000000000000000000000000000000000000000000000000000000081526004016106f19061142a565b60405180910390fd5b50505b50565b7339db207dff3411f4fab0483d419306873cbc13d973ffffffffffffffffffffffffffffffffffffffff1663a9059cbb83836040518363ffffffff1660e01b815260040161074f9291906110cd565b6020604051808303816000875af115801561076e573d6000803e3d6000fd5b505050506040513d601f19601f82011682018060405250810190610792919061112e565b505050565b662386f26fc100008110156107e1576040517f08c379a00000000000000000000000000000000000000000000000000000000081526004016107d8906114bc565b60405180910390fd5b60008054906101000a900473ffffffffffffffffffffffffffffffffffffffff1673ffffffffffffffffffffffffffffffffffffffff166323b872dd3330846040518463ffffffff1660e01b815260040161083e93929190611232565b6020604051808303816000875af115801561085d573d6000803e3d6000fd5b505050506040513d601f19601f82011682018060405250810190610881919061112e565b507339db207dff3411f4fab0483d419306873cbc13d973ffffffffffffffffffffffffffffffffffffffff1663a9059cbb336108be600154610d30565b6040518363ffffffff1660e01b81526004016108db9291906110cd565b6020604051808303816000875af11580156108fa573d6000803e3d6000fd5b505050506040513d601f19601f8201168201806040525081019061091e919061112e565b5060008060009054906101000a900473ffffffffffffffffffffffffffffffffffffffff1673ffffffffffffffffffffffffffffffffffffffff166370a08231306040518263ffffffff1660e01b815260040161097b9190611035565b602060405180830381865afa158015610998573d6000803e3d6000fd5b505050506040513d601f19601f820116820180604052508101906109bc9190611199565b9050600047905080826109cf91906114dc565b6001819055507fb62268a18d99fe191ac8e62f823ab1eec698609a81b2c8de3dac902896b09da63384604051610a069291906110cd565b60405180910390a1505050565b60008054906101000a900473ffffffffffffffffffffffffffffffffffffffff1681565b60008111610a7a576040517f08c379a0000000000000000000000000000000000000000000000000000000008152600401610a719061156a565b60405180910390fd5b807339db207dff3411f4fab0483d419306873cbc13d973ffffffffffffffffffffffffffffffffffffffff1663dd62ed3e33306040518363ffffffff1660e01b8152600401610aca92919061115b565b602060405180830381865afa158015610ae7573d6000803e3d6000fd5b505050506040513d601f19601f82011682018060405250810190610b0b9190611199565b1015610b4c576040517f08c379a0000000000000000000000000000000000000000000000000000000008152600401610b4390611622565b60405180910390fd5b7339db207dff3411f4fab0483d419306873cbc13d973ffffffffffffffffffffffffffffffffffffffff166323b872dd3330846040518463ffffffff1660e01b8152600401610b9d93929190611232565b6020604051808303816000875af1158015610bbc573d6000803e3d6000fd5b505050506040513d601f19601f82011682018060405250810190610be0919061112e565b5060008054906101000a900473ffffffffffffffffffffffffffffffffffffffff1673ffffffffffffffffffffffffffffffffffffffff1663a9059cbb33836040518363ffffffff1660e01b8152600401610c3c9291906110cd565b6020604051808303816000875af1158015610c5b573d6000803e3d6000fd5b505050506040513d601f19601f82011682018060405250810190610c7f919061112e565b5060003373ffffffffffffffffffffffffffffffffffffffff1682604051610ca69061135d565b60006040518083038185875af1925050503d8060008114610ce3576040519150601f19603f3d011682016040523d82523d6000602084013e610ce8565b606091505b5050905080610d2c576040517f08c379a0000000000000000000000000000000000000000000000000000000008152600401610d239061142a565b60405180910390fd5b5050565b6000808203610d425760009050610ed8565b60006001905060008390506000608082901c1115610d6957608081901c9050604082901b91505b6000604082901c1115610d8557604081901c9050602082901b91505b6000602082901c1115610da157602081901c9050601082901b91505b6000601082901c1115610dbd57601081901c9050600882901b91505b6000600882901c1115610dd957600881901c9050600482901b91505b6000600482901c1115610df557600481901c9050600282901b91505b6000600282901c1115610e0a57600182901b91505b6001828581610e1c57610e1b611269565b5b048301901c91506001828581610e3557610e34611269565b5b048301901c91506001828581610e4e57610e4d611269565b5b048301901c91506001828581610e6757610e66611269565b5b048301901c91506001828581610e8057610e7f611269565b5b048301901c91506001828581610e9957610e98611269565b5b048301901c91506001828581610eb257610eb1611269565b5b048301901c9150610ed382838681610ecd57610ecc611269565b5b04610edd565b925050505b919050565b6000818310610eec5781610eee565b825b905092915050565b600080fd5b6000819050919050565b610f0e81610efb565b8114610f1957600080fd5b50565b600081359050610f2b81610f05565b92915050565b600060208284031215610f4757610f46610ef6565b5b6000610f5584828501610f1c565b91505092915050565b610f6781610efb565b82525050565b6000602082019050610f826000830184610f5e565b92915050565b600073ffffffffffffffffffffffffffffffffffffffff82169050919050565b6000610fb382610f88565b9050919050565b610fc381610fa8565b8114610fce57600080fd5b50565b600081359050610fe081610fba565b92915050565b60008060408385031215610ffd57610ffc610ef6565b5b600061100b85828601610fd1565b925050602061101c85828601610f1c565b9150509250929050565b61102f81610fa8565b82525050565b600060208201905061104a6000830184611026565b92915050565b600082825260208201905092915050565b7f496e76616c696420616d6f756e74000000000000000000000000000000000000600082015250565b6000611097600e83611050565b91506110a282611061565b602082019050919050565b600060208201905081810360008301526110c68161108a565b9050919050565b60006040820190506110e26000830185611026565b6110ef6020830184610f5e565b9392505050565b60008115159050919050565b61110b816110f6565b811461111657600080fd5b50565b60008151905061112881611102565b92915050565b60006020828403121561114457611143610ef6565b5b600061115284828501611119565b91505092915050565b60006040820190506111706000830185611026565b61117d6020830184611026565b9392505050565b60008151905061119381610f05565b92915050565b6000602082840312156111af576111ae610ef6565b5b60006111bd84828501611184565b91505092915050565b7f436f6e7472616374206e6f7420617070726f7665640000000000000000000000600082015250565b60006111fc601583611050565b9150611207826111c6565b602082019050919050565b6000602082019050818103600083015261122b816111ef565b9050919050565b60006060820190506112476000830186611026565b6112546020830185611026565b6112616040830184610f5e565b949350505050565b7f4e487b7100000000000000000000000000000000000000000000000000000000600052601260045260246000fd5b7f4e487b7100000000000000000000000000000000000000000000000000000000600052601160045260246000fd5b60006112d282610efb565b91506112dd83610efb565b9250826112ed576112ec611269565b5b828204905092915050565b600061130382610efb565b915061130e83610efb565b925082820390508181111561132657611325611298565b5b92915050565b600081905092915050565b50565b600061134760008361132c565b915061135282611337565b600082019050919050565b60006113688261133a565b9150819050919050565b7f5472616e73666572204661696c65640000000000000000000000000000000000600082015250565b60006113a8600f83611050565b91506113b382611372565b602082019050919050565b600060208201905081810360008301526113d78161139b565b9050919050565b7f5472616e73666572206661696c65640000000000000000000000000000000000600082015250565b6000611414600f83611050565b915061141f826113de565b602082019050919050565b6000602082019050818103600083015261144381611407565b9050919050565b7f4c69717569646974792070726f76696465642073686f756c642062652067726560008201527f61746572207468616e2031204554480000000000000000000000000000000000602082015250565b60006114a6602f83611050565b91506114b18261144a565b604082019050919050565b600060208201905081810360008301526114d581611499565b9050919050565b60006114e782610efb565b91506114f283610efb565b925082820261150081610efb565b9150828204841483151761151757611516611298565b5b5092915050565b7f496e76616c696420616d6f756e74206f66207368617265730000000000000000600082015250565b6000611554601883611050565b915061155f8261151e565b602082019050919050565b6000602082019050818103600083015261158381611547565b9050919050565b7f506c6561736520617070726f76652074686520636f6e747261637420746f206460008201527f6564756374206c747220746f6b656e732066726f6d20796f75722077616c6c6560208201527f7400000000000000000000000000000000000000000000000000000000000000604082015250565b600061160c604183611050565b91506116178261158a565b606082019050919050565b6000602082019050818103600083015261163b816115ff565b905091905056fea2646970667358221220955ad04294470473c4d4cbffe44dd9af59c577f81484f971bc4c28f710c471d464736f6c63430008110033",
					"opcodes": "PUSH1 0x80 PUSH1 0x40 MSTORE CALLVALUE DUP1 ISZERO PUSH3 0x11 JUMPI PUSH1 0x0 DUP1 REVERT JUMPDEST POP PUSH1 0x40 MLOAD PUSH3 0x17A2 CODESIZE SUB DUP1 PUSH3 0x17A2 DUP4 CODECOPY DUP2 DUP2 ADD PUSH1 0x40 MSTORE DUP2 ADD SWAP1 PUSH3 0x37 SWAP2 SWAP1 PUSH3 0xE8 JUMP JUMPDEST DUP1 PUSH1 0x0 DUP1 PUSH2 0x100 EXP DUP2 SLOAD DUP2 PUSH20 0xFFFFFFFFFFFFFFFFFFFFFFFFFFFFFFFFFFFFFFFF MUL NOT AND SWAP1 DUP4 PUSH20 0xFFFFFFFFFFFFFFFFFFFFFFFFFFFFFFFFFFFFFFFF AND MUL OR SWAP1 SSTORE POP POP PUSH3 0x11A JUMP JUMPDEST PUSH1 0x0 DUP1 REVERT JUMPDEST PUSH1 0x0 PUSH20 0xFFFFFFFFFFFFFFFFFFFFFFFFFFFFFFFFFFFFFFFF DUP3 AND SWAP1 POP SWAP2 SWAP1 POP JUMP JUMPDEST PUSH1 0x0 PUSH3 0xB0 DUP3 PUSH3 0x83 JUMP JUMPDEST SWAP1 POP SWAP2 SWAP1 POP JUMP JUMPDEST PUSH3 0xC2 DUP2 PUSH3 0xA3 JUMP JUMPDEST DUP2 EQ PUSH3 0xCE JUMPI PUSH1 0x0 DUP1 REVERT JUMPDEST POP JUMP JUMPDEST PUSH1 0x0 DUP2 MLOAD SWAP1 POP PUSH3 0xE2 DUP2 PUSH3 0xB7 JUMP JUMPDEST SWAP3 SWAP2 POP POP JUMP JUMPDEST PUSH1 0x0 PUSH1 0x20 DUP3 DUP5 SUB SLT ISZERO PUSH3 0x101 JUMPI PUSH3 0x100 PUSH3 0x7E JUMP JUMPDEST JUMPDEST PUSH1 0x0 PUSH3 0x111 DUP5 DUP3 DUP6 ADD PUSH3 0xD1 JUMP JUMPDEST SWAP2 POP POP SWAP3 SWAP2 POP POP JUMP JUMPDEST PUSH2 0x1678 DUP1 PUSH3 0x12A PUSH1 0x0 CODECOPY PUSH1 0x0 RETURN INVALID PUSH1 0x80 PUSH1 0x40 MSTORE PUSH1 0x4 CALLDATASIZE LT PUSH2 0x7B JUMPI PUSH1 0x0 CALLDATALOAD PUSH1 0xE0 SHR DUP1 PUSH4 0xBEC3FA17 GT PUSH2 0x4E JUMPI DUP1 PUSH4 0xBEC3FA17 EQ PUSH2 0x10C JUMPI DUP1 PUSH4 0xEB521A4C EQ PUSH2 0x135 JUMPI DUP1 PUSH4 0xF4325D67 EQ PUSH2 0x151 JUMPI DUP1 PUSH4 0xFF9B3758 EQ PUSH2 0x17C JUMPI PUSH2 0x7B JUMP JUMPDEST DUP1 PUSH4 0x1AA5C70E EQ PUSH2 0x80 JUMPI DUP1 PUSH4 0x7464FC3D EQ PUSH2 0x9C JUMPI DUP1 PUSH4 0x8E3073A6 EQ PUSH2 0xC7 JUMPI DUP1 PUSH4 0x94B918DE EQ PUSH2 0xF0 JUMPI JUMPDEST PUSH1 0x0 DUP1 REVERT JUMPDEST PUSH2 0x9A PUSH1 0x4 DUP1 CALLDATASIZE SUB DUP2 ADD SWAP1 PUSH2 0x95 SWAP2 SWAP1 PUSH2 0xF31 JUMP JUMPDEST PUSH2 0x1A5 JUMP JUMPDEST STOP JUMPDEST CALLVALUE DUP1 ISZERO PUSH2 0xA8 JUMPI PUSH1 0x0 DUP1 REVERT JUMPDEST POP PUSH2 0xB1 PUSH2 0x289 JUMP JUMPDEST PUSH1 0x40 MLOAD PUSH2 0xBE SWAP2 SWAP1 PUSH2 0xF6D JUMP JUMPDEST PUSH1 0x40 MLOAD DUP1 SWAP2 SUB SWAP1 RETURN JUMPDEST CALLVALUE DUP1 ISZERO PUSH2 0xD3 JUMPI PUSH1 0x0 DUP1 REVERT JUMPDEST POP PUSH2 0xEE PUSH1 0x4 DUP1 CALLDATASIZE SUB DUP2 ADD SWAP1 PUSH2 0xE9 SWAP2 SWAP1 PUSH2 0xF31 JUMP JUMPDEST PUSH2 0x28F JUMP JUMPDEST STOP JUMPDEST PUSH2 0x10A PUSH1 0x4 DUP1 CALLDATASIZE SUB DUP2 ADD SWAP1 PUSH2 0x105 SWAP2 SWAP1 PUSH2 0xF31 JUMP JUMPDEST PUSH2 0x57C JUMP JUMPDEST STOP JUMPDEST CALLVALUE DUP1 ISZERO PUSH2 0x118 JUMPI PUSH1 0x0 DUP1 REVERT JUMPDEST POP PUSH2 0x133 PUSH1 0x4 DUP1 CALLDATASIZE SUB DUP2 ADD SWAP1 PUSH2 0x12E SWAP2 SWAP1 PUSH2 0xFE6 JUMP JUMPDEST PUSH2 0x700 JUMP JUMPDEST STOP JUMPDEST PUSH2 0x14F PUSH1 0x4 DUP1 CALLDATASIZE SUB DUP2 ADD SWAP1 PUSH2 0x14A SWAP2 SWAP1 PUSH2 0xF31 JUMP JUMPDEST PUSH2 0x797 JUMP JUMPDEST STOP JUMPDEST CALLVALUE DUP1 ISZERO PUSH2 0x15D JUMPI PUSH1 0x0 DUP1 REVERT JUMPDEST POP PUSH2 0x166 PUSH2 0xA13 JUMP JUMPDEST PUSH1 0x40 MLOAD PUSH2 0x173 SWAP2 SWAP1 PUSH2 0x1035 JUMP JUMPDEST PUSH1 0x40 MLOAD DUP1 SWAP2 SUB SWAP1 RETURN JUMPDEST CALLVALUE DUP1 ISZERO PUSH2 0x188 JUMPI PUSH1 0x0 DUP1 REVERT JUMPDEST POP PUSH2 0x1A3 PUSH1 0x4 DUP1 CALLDATASIZE SUB DUP2 ADD SWAP1 PUSH2 0x19E SWAP2 SWAP1 PUSH2 0xF31 JUMP JUMPDEST PUSH2 0xA37 JUMP JUMPDEST STOP JUMPDEST DUP1 CALLVALUE EQ PUSH2 0x1E7 JUMPI PUSH1 0x40 MLOAD PUSH32 0x8C379A000000000000000000000000000000000000000000000000000000000 DUP2 MSTORE PUSH1 0x4 ADD PUSH2 0x1DE SWAP1 PUSH2 0x10AD JUMP JUMPDEST PUSH1 0x40 MLOAD DUP1 SWAP2 SUB SWAP1 REVERT JUMPDEST PUSH1 0x0 DUP1 SLOAD SWAP1 PUSH2 0x100 EXP SWAP1 DIV PUSH20 0xFFFFFFFFFFFFFFFFFFFFFFFFFFFFFFFFFFFFFFFF AND PUSH20 0xFFFFFFFFFFFFFFFFFFFFFFFFFFFFFFFFFFFFFFFF AND PUSH4 0xA9059CBB CALLER DUP4 PUSH1 0x40 MLOAD DUP4 PUSH4 0xFFFFFFFF AND PUSH1 0xE0 SHL DUP2 MSTORE PUSH1 0x4 ADD PUSH2 0x242 SWAP3 SWAP2 SWAP1 PUSH2 0x10CD JUMP JUMPDEST PUSH1 0x20 PUSH1 0x40 MLOAD DUP1 DUP4 SUB DUP2 PUSH1 0x0 DUP8 GAS CALL ISZERO DUP1 ISZERO PUSH2 0x261 JUMPI RETURNDATASIZE PUSH1 0x0 DUP1 RETURNDATACOPY RETURNDATASIZE PUSH1 0x0 REVERT JUMPDEST POP POP POP POP PUSH1 0x40 MLOAD RETURNDATASIZE PUSH1 0x1F NOT PUSH1 0x1F DUP3 ADD AND DUP3 ADD DUP1 PUSH1 0x40 MSTORE POP DUP2 ADD SWAP1 PUSH2 0x285 SWAP2 SWAP1 PUSH2 0x112E JUMP JUMPDEST POP POP JUMP JUMPDEST PUSH1 0x1 SLOAD DUP2 JUMP JUMPDEST DUP1 PUSH1 0x0 DUP1 SLOAD SWAP1 PUSH2 0x100 EXP SWAP1 DIV PUSH20 0xFFFFFFFFFFFFFFFFFFFFFFFFFFFFFFFFFFFFFFFF AND PUSH20 0xFFFFFFFFFFFFFFFFFFFFFFFFFFFFFFFFFFFFFFFF AND PUSH4 0xDD62ED3E CALLER ADDRESS PUSH1 0x40 MLOAD DUP4 PUSH4 0xFFFFFFFF AND PUSH1 0xE0 SHL DUP2 MSTORE PUSH1 0x4 ADD PUSH2 0x2EB SWAP3 SWAP2 SWAP1 PUSH2 0x115B JUMP JUMPDEST PUSH1 0x20 PUSH1 0x40 MLOAD DUP1 DUP4 SUB DUP2 DUP7 GAS STATICCALL ISZERO DUP1 ISZERO PUSH2 0x308 JUMPI RETURNDATASIZE PUSH1 0x0 DUP1 RETURNDATACOPY RETURNDATASIZE PUSH1 0x0 REVERT JUMPDEST POP POP POP POP PUSH1 0x40 MLOAD RETURNDATASIZE PUSH1 0x1F NOT PUSH1 0x1F DUP3 ADD AND DUP3 ADD DUP1 PUSH1 0x40 MSTORE POP DUP2 ADD SWAP1 PUSH2 0x32C SWAP2 SWAP1 PUSH2 0x1199 JUMP JUMPDEST LT ISZERO PUSH2 0x36D JUMPI PUSH1 0x40 MLOAD PUSH32 0x8C379A000000000000000000000000000000000000000000000000000000000 DUP2 MSTORE PUSH1 0x4 ADD PUSH2 0x364 SWAP1 PUSH2 0x1212 JUMP JUMPDEST PUSH1 0x40 MLOAD DUP1 SWAP2 SUB SWAP1 REVERT JUMPDEST PUSH1 0x0 DUP1 SLOAD SWAP1 PUSH2 0x100 EXP SWAP1 DIV PUSH20 0xFFFFFFFFFFFFFFFFFFFFFFFFFFFFFFFFFFFFFFFF AND PUSH20 0xFFFFFFFFFFFFFFFFFFFFFFFFFFFFFFFFFFFFFFFF AND PUSH4 0x23B872DD CALLER ADDRESS DUP5 PUSH1 0x40 MLOAD DUP5 PUSH4 0xFFFFFFFF AND PUSH1 0xE0 SHL DUP2 MSTORE PUSH1 0x4 ADD PUSH2 0x3CA SWAP4 SWAP3 SWAP2 SWAP1 PUSH2 0x1232 JUMP JUMPDEST PUSH1 0x20 PUSH1 0x40 MLOAD DUP1 DUP4 SUB DUP2 PUSH1 0x0 DUP8 GAS CALL ISZERO DUP1 ISZERO PUSH2 0x3E9 JUMPI RETURNDATASIZE PUSH1 0x0 DUP1 RETURNDATACOPY RETURNDATASIZE PUSH1 0x0 REVERT JUMPDEST POP POP POP POP PUSH1 0x40 MLOAD RETURNDATASIZE PUSH1 0x1F NOT PUSH1 0x1F DUP3 ADD AND DUP3 ADD DUP1 PUSH1 0x40 MSTORE POP DUP2 ADD SWAP1 PUSH2 0x40D SWAP2 SWAP1 PUSH2 0x112E JUMP JUMPDEST POP PUSH1 0x0 DUP1 PUSH1 0x0 SWAP1 SLOAD SWAP1 PUSH2 0x100 EXP SWAP1 DIV PUSH20 0xFFFFFFFFFFFFFFFFFFFFFFFFFFFFFFFFFFFFFFFF AND PUSH20 0xFFFFFFFFFFFFFFFFFFFFFFFFFFFFFFFFFFFFFFFF AND PUSH4 0x70A08231 ADDRESS PUSH1 0x40 MLOAD DUP3 PUSH4 0xFFFFFFFF AND PUSH1 0xE0 SHL DUP2 MSTORE PUSH1 0x4 ADD PUSH2 0x46A SWAP2 SWAP1 PUSH2 0x1035 JUMP JUMPDEST PUSH1 0x20 PUSH1 0x40 MLOAD DUP1 DUP4 SUB DUP2 DUP7 GAS STATICCALL ISZERO DUP1 ISZERO PUSH2 0x487 JUMPI RETURNDATASIZE PUSH1 0x0 DUP1 RETURNDATACOPY RETURNDATASIZE PUSH1 0x0 REVERT JUMPDEST POP POP POP POP PUSH1 0x40 MLOAD RETURNDATASIZE PUSH1 0x1F NOT PUSH1 0x1F DUP3 ADD AND DUP3 ADD DUP1 PUSH1 0x40 MSTORE POP DUP2 ADD SWAP1 PUSH2 0x4AB SWAP2 SWAP1 PUSH2 0x1199 JUMP JUMPDEST SWAP1 POP PUSH1 0x0 SELFBALANCE DUP3 PUSH1 0x1 SLOAD PUSH2 0x4BE SWAP2 SWAP1 PUSH2 0x12C7 JUMP JUMPDEST PUSH2 0x4C8 SWAP2 SWAP1 PUSH2 0x12F8 JUMP JUMPDEST SWAP1 POP PUSH1 0x0 CALLER PUSH20 0xFFFFFFFFFFFFFFFFFFFFFFFFFFFFFFFFFFFFFFFF AND DUP3 PUSH1 0x40 MLOAD PUSH2 0x4F0 SWAP1 PUSH2 0x135D JUMP JUMPDEST PUSH1 0x0 PUSH1 0x40 MLOAD DUP1 DUP4 SUB DUP2 DUP6 DUP8 GAS CALL SWAP3 POP POP POP RETURNDATASIZE DUP1 PUSH1 0x0 DUP2 EQ PUSH2 0x52D JUMPI PUSH1 0x40 MLOAD SWAP2 POP PUSH1 0x1F NOT PUSH1 0x3F RETURNDATASIZE ADD AND DUP3 ADD PUSH1 0x40 MSTORE RETURNDATASIZE DUP3 MSTORE RETURNDATASIZE PUSH1 0x0 PUSH1 0x20 DUP5 ADD RETURNDATACOPY PUSH2 0x532 JUMP JUMPDEST PUSH1 0x60 SWAP2 POP JUMPDEST POP POP SWAP1 POP DUP1 PUSH2 0x576 JUMPI PUSH1 0x40 MLOAD PUSH32 0x8C379A000000000000000000000000000000000000000000000000000000000 DUP2 MSTORE PUSH1 0x4 ADD PUSH2 0x56D SWAP1 PUSH2 0x13BE JUMP JUMPDEST PUSH1 0x40 MLOAD DUP1 SWAP2 SUB SWAP1 REVERT JUMPDEST POP POP POP POP JUMP JUMPDEST PUSH1 0x0 CALLVALUE GT ISZERO PUSH2 0x63C JUMPI PUSH1 0x0 CALLVALUE PUSH1 0x1 SLOAD PUSH2 0x595 SWAP2 SWAP1 PUSH2 0x12C7 JUMP JUMPDEST SWAP1 POP PUSH1 0x0 DUP1 SLOAD SWAP1 PUSH2 0x100 EXP SWAP1 DIV PUSH20 0xFFFFFFFFFFFFFFFFFFFFFFFFFFFFFFFFFFFFFFFF AND PUSH20 0xFFFFFFFFFFFFFFFFFFFFFFFFFFFFFFFFFFFFFFFF AND PUSH4 0xA9059CBB CALLER DUP4 PUSH1 0x40 MLOAD DUP4 PUSH4 0xFFFFFFFF AND PUSH1 0xE0 SHL DUP2 MSTORE PUSH1 0x4 ADD PUSH2 0x5F2 SWAP3 SWAP2 SWAP1 PUSH2 0x10CD JUMP JUMPDEST PUSH1 0x20 PUSH1 0x40 MLOAD DUP1 DUP4 SUB DUP2 PUSH1 0x0 DUP8 GAS CALL ISZERO DUP1 ISZERO PUSH2 0x611 JUMPI RETURNDATASIZE PUSH1 0x0 DUP1 RETURNDATACOPY RETURNDATASIZE PUSH1 0x0 REVERT JUMPDEST POP POP POP POP PUSH1 0x40 MLOAD RETURNDATASIZE PUSH1 0x1F NOT PUSH1 0x1F DUP3 ADD AND DUP3 ADD DUP1 PUSH1 0x40 MSTORE POP DUP2 ADD SWAP1 PUSH2 0x635 SWAP2 SWAP1 PUSH2 0x112E JUMP JUMPDEST POP POP PUSH2 0x6FD JUMP JUMPDEST PUSH1 0x0 DUP2 PUSH1 0x1 SLOAD PUSH2 0x64C SWAP2 SWAP1 PUSH2 0x12C7 JUMP JUMPDEST SWAP1 POP PUSH1 0x0 CALLER PUSH20 0xFFFFFFFFFFFFFFFFFFFFFFFFFFFFFFFFFFFFFFFF AND DUP3 PUSH1 0x40 MLOAD PUSH2 0x674 SWAP1 PUSH2 0x135D JUMP JUMPDEST PUSH1 0x0 PUSH1 0x40 MLOAD DUP1 DUP4 SUB DUP2 DUP6 DUP8 GAS CALL SWAP3 POP POP POP RETURNDATASIZE DUP1 PUSH1 0x0 DUP2 EQ PUSH2 0x6B1 JUMPI PUSH1 0x40 MLOAD SWAP2 POP PUSH1 0x1F NOT PUSH1 0x3F RETURNDATASIZE ADD AND DUP3 ADD PUSH1 0x40 MSTORE RETURNDATASIZE DUP3 MSTORE RETURNDATASIZE PUSH1 0x0 PUSH1 0x20 DUP5 ADD RETURNDATACOPY PUSH2 0x6B6 JUMP JUMPDEST PUSH1 0x60 SWAP2 POP JUMPDEST POP POP SWAP1 POP DUP1 PUSH2 0x6FA JUMPI PUSH1 0x40 MLOAD PUSH32 0x8C379A000000000000000000000000000000000000000000000000000000000 DUP2 MSTORE PUSH1 0x4 ADD PUSH2 0x6F1 SWAP1 PUSH2 0x142A JUMP JUMPDEST PUSH1 0x40 MLOAD DUP1 SWAP2 SUB SWAP1 REVERT JUMPDEST POP POP JUMPDEST POP JUMP JUMPDEST PUSH20 0x39DB207DFF3411F4FAB0483D419306873CBC13D9 PUSH20 0xFFFFFFFFFFFFFFFFFFFFFFFFFFFFFFFFFFFFFFFF AND PUSH4 0xA9059CBB DUP4 DUP4 PUSH1 0x40 MLOAD DUP4 PUSH4 0xFFFFFFFF AND PUSH1 0xE0 SHL DUP2 MSTORE PUSH1 0x4 ADD PUSH2 0x74F SWAP3 SWAP2 SWAP1 PUSH2 0x10CD JUMP JUMPDEST PUSH1 0x20 PUSH1 0x40 MLOAD DUP1 DUP4 SUB DUP2 PUSH1 0x0 DUP8 GAS CALL ISZERO DUP1 ISZERO PUSH2 0x76E JUMPI RETURNDATASIZE PUSH1 0x0 DUP1 RETURNDATACOPY RETURNDATASIZE PUSH1 0x0 REVERT JUMPDEST POP POP POP POP PUSH1 0x40 MLOAD RETURNDATASIZE PUSH1 0x1F NOT PUSH1 0x1F DUP3 ADD AND DUP3 ADD DUP1 PUSH1 0x40 MSTORE POP DUP2 ADD SWAP1 PUSH2 0x792 SWAP2 SWAP1 PUSH2 0x112E JUMP JUMPDEST POP POP POP JUMP JUMPDEST PUSH7 0x2386F26FC10000 DUP2 LT ISZERO PUSH2 0x7E1 JUMPI PUSH1 0x40 MLOAD PUSH32 0x8C379A000000000000000000000000000000000000000000000000000000000 DUP2 MSTORE PUSH1 0x4 ADD PUSH2 0x7D8 SWAP1 PUSH2 0x14BC JUMP JUMPDEST PUSH1 0x40 MLOAD DUP1 SWAP2 SUB SWAP1 REVERT JUMPDEST PUSH1 0x0 DUP1 SLOAD SWAP1 PUSH2 0x100 EXP SWAP1 DIV PUSH20 0xFFFFFFFFFFFFFFFFFFFFFFFFFFFFFFFFFFFFFFFF AND PUSH20 0xFFFFFFFFFFFFFFFFFFFFFFFFFFFFFFFFFFFFFFFF AND PUSH4 0x23B872DD CALLER ADDRESS DUP5 PUSH1 0x40 MLOAD DUP5 PUSH4 0xFFFFFFFF AND PUSH1 0xE0 SHL DUP2 MSTORE PUSH1 0x4 ADD PUSH2 0x83E SWAP4 SWAP3 SWAP2 SWAP1 PUSH2 0x1232 JUMP JUMPDEST PUSH1 0x20 PUSH1 0x40 MLOAD DUP1 DUP4 SUB DUP2 PUSH1 0x0 DUP8 GAS CALL ISZERO DUP1 ISZERO PUSH2 0x85D JUMPI RETURNDATASIZE PUSH1 0x0 DUP1 RETURNDATACOPY RETURNDATASIZE PUSH1 0x0 REVERT JUMPDEST POP POP POP POP PUSH1 0x40 MLOAD RETURNDATASIZE PUSH1 0x1F NOT PUSH1 0x1F DUP3 ADD AND DUP3 ADD DUP1 PUSH1 0x40 MSTORE POP DUP2 ADD SWAP1 PUSH2 0x881 SWAP2 SWAP1 PUSH2 0x112E JUMP JUMPDEST POP PUSH20 0x39DB207DFF3411F4FAB0483D419306873CBC13D9 PUSH20 0xFFFFFFFFFFFFFFFFFFFFFFFFFFFFFFFFFFFFFFFF AND PUSH4 0xA9059CBB CALLER PUSH2 0x8BE PUSH1 0x1 SLOAD PUSH2 0xD30 JUMP JUMPDEST PUSH1 0x40 MLOAD DUP4 PUSH4 0xFFFFFFFF AND PUSH1 0xE0 SHL DUP2 MSTORE PUSH1 0x4 ADD PUSH2 0x8DB SWAP3 SWAP2 SWAP1 PUSH2 0x10CD JUMP JUMPDEST PUSH1 0x20 PUSH1 0x40 MLOAD DUP1 DUP4 SUB DUP2 PUSH1 0x0 DUP8 GAS CALL ISZERO DUP1 ISZERO PUSH2 0x8FA JUMPI RETURNDATASIZE PUSH1 0x0 DUP1 RETURNDATACOPY RETURNDATASIZE PUSH1 0x0 REVERT JUMPDEST POP POP POP POP PUSH1 0x40 MLOAD RETURNDATASIZE PUSH1 0x1F NOT PUSH1 0x1F DUP3 ADD AND DUP3 ADD DUP1 PUSH1 0x40 MSTORE POP DUP2 ADD SWAP1 PUSH2 0x91E SWAP2 SWAP1 PUSH2 0x112E JUMP JUMPDEST POP PUSH1 0x0 DUP1 PUSH1 0x0 SWAP1 SLOAD SWAP1 PUSH2 0x100 EXP SWAP1 DIV PUSH20 0xFFFFFFFFFFFFFFFFFFFFFFFFFFFFFFFFFFFFFFFF AND PUSH20 0xFFFFFFFFFFFFFFFFFFFFFFFFFFFFFFFFFFFFFFFF AND PUSH4 0x70A08231 ADDRESS PUSH1 0x40 MLOAD DUP3 PUSH4 0xFFFFFFFF AND PUSH1 0xE0 SHL DUP2 MSTORE PUSH1 0x4 ADD PUSH2 0x97B SWAP2 SWAP1 PUSH2 0x1035 JUMP JUMPDEST PUSH1 0x20 PUSH1 0x40 MLOAD DUP1 DUP4 SUB DUP2 DUP7 GAS STATICCALL ISZERO DUP1 ISZERO PUSH2 0x998 JUMPI RETURNDATASIZE PUSH1 0x0 DUP1 RETURNDATACOPY RETURNDATASIZE PUSH1 0x0 REVERT JUMPDEST POP POP POP POP PUSH1 0x40 MLOAD RETURNDATASIZE PUSH1 0x1F NOT PUSH1 0x1F DUP3 ADD AND DUP3 ADD DUP1 PUSH1 0x40 MSTORE POP DUP2 ADD SWAP1 PUSH2 0x9BC SWAP2 SWAP1 PUSH2 0x1199 JUMP JUMPDEST SWAP1 POP PUSH1 0x0 SELFBALANCE SWAP1 POP DUP1 DUP3 PUSH2 0x9CF SWAP2 SWAP1 PUSH2 0x14DC JUMP JUMPDEST PUSH1 0x1 DUP2 SWAP1 SSTORE POP PUSH32 0xB62268A18D99FE191AC8E62F823AB1EEC698609A81B2C8DE3DAC902896B09DA6 CALLER DUP5 PUSH1 0x40 MLOAD PUSH2 0xA06 SWAP3 SWAP2 SWAP1 PUSH2 0x10CD JUMP JUMPDEST PUSH1 0x40 MLOAD DUP1 SWAP2 SUB SWAP1 LOG1 POP POP POP JUMP JUMPDEST PUSH1 0x0 DUP1 SLOAD SWAP1 PUSH2 0x100 EXP SWAP1 DIV PUSH20 0xFFFFFFFFFFFFFFFFFFFFFFFFFFFFFFFFFFFFFFFF AND DUP2 JUMP JUMPDEST PUSH1 0x0 DUP2 GT PUSH2 0xA7A JUMPI PUSH1 0x40 MLOAD PUSH32 0x8C379A000000000000000000000000000000000000000000000000000000000 DUP2 MSTORE PUSH1 0x4 ADD PUSH2 0xA71 SWAP1 PUSH2 0x156A JUMP JUMPDEST PUSH1 0x40 MLOAD DUP1 SWAP2 SUB SWAP1 REVERT JUMPDEST DUP1 PUSH20 0x39DB207DFF3411F4FAB0483D419306873CBC13D9 PUSH20 0xFFFFFFFFFFFFFFFFFFFFFFFFFFFFFFFFFFFFFFFF AND PUSH4 0xDD62ED3E CALLER ADDRESS PUSH1 0x40 MLOAD DUP4 PUSH4 0xFFFFFFFF AND PUSH1 0xE0 SHL DUP2 MSTORE PUSH1 0x4 ADD PUSH2 0xACA SWAP3 SWAP2 SWAP1 PUSH2 0x115B JUMP JUMPDEST PUSH1 0x20 PUSH1 0x40 MLOAD DUP1 DUP4 SUB DUP2 DUP7 GAS STATICCALL ISZERO DUP1 ISZERO PUSH2 0xAE7 JUMPI RETURNDATASIZE PUSH1 0x0 DUP1 RETURNDATACOPY RETURNDATASIZE PUSH1 0x0 REVERT JUMPDEST POP POP POP POP PUSH1 0x40 MLOAD RETURNDATASIZE PUSH1 0x1F NOT PUSH1 0x1F DUP3 ADD AND DUP3 ADD DUP1 PUSH1 0x40 MSTORE POP DUP2 ADD SWAP1 PUSH2 0xB0B SWAP2 SWAP1 PUSH2 0x1199 JUMP JUMPDEST LT ISZERO PUSH2 0xB4C JUMPI PUSH1 0x40 MLOAD PUSH32 0x8C379A000000000000000000000000000000000000000000000000000000000 DUP2 MSTORE PUSH1 0x4 ADD PUSH2 0xB43 SWAP1 PUSH2 0x1622 JUMP JUMPDEST PUSH1 0x40 MLOAD DUP1 SWAP2 SUB SWAP1 REVERT JUMPDEST PUSH20 0x39DB207DFF3411F4FAB0483D419306873CBC13D9 PUSH20 0xFFFFFFFFFFFFFFFFFFFFFFFFFFFFFFFFFFFFFFFF AND PUSH4 0x23B872DD CALLER ADDRESS DUP5 PUSH1 0x40 MLOAD DUP5 PUSH4 0xFFFFFFFF AND PUSH1 0xE0 SHL DUP2 MSTORE PUSH1 0x4 ADD PUSH2 0xB9D SWAP4 SWAP3 SWAP2 SWAP1 PUSH2 0x1232 JUMP JUMPDEST PUSH1 0x20 PUSH1 0x40 MLOAD DUP1 DUP4 SUB DUP2 PUSH1 0x0 DUP8 GAS CALL ISZERO DUP1 ISZERO PUSH2 0xBBC JUMPI RETURNDATASIZE PUSH1 0x0 DUP1 RETURNDATACOPY RETURNDATASIZE PUSH1 0x0 REVERT JUMPDEST POP POP POP POP PUSH1 0x40 MLOAD RETURNDATASIZE PUSH1 0x1F NOT PUSH1 0x1F DUP3 ADD AND DUP3 ADD DUP1 PUSH1 0x40 MSTORE POP DUP2 ADD SWAP1 PUSH2 0xBE0 SWAP2 SWAP1 PUSH2 0x112E JUMP JUMPDEST POP PUSH1 0x0 DUP1 SLOAD SWAP1 PUSH2 0x100 EXP SWAP1 DIV PUSH20 0xFFFFFFFFFFFFFFFFFFFFFFFFFFFFFFFFFFFFFFFF AND PUSH20 0xFFFFFFFFFFFFFFFFFFFFFFFFFFFFFFFFFFFFFFFF AND PUSH4 0xA9059CBB CALLER DUP4 PUSH1 0x40 MLOAD DUP4 PUSH4 0xFFFFFFFF AND PUSH1 0xE0 SHL DUP2 MSTORE PUSH1 0x4 ADD PUSH2 0xC3C SWAP3 SWAP2 SWAP1 PUSH2 0x10CD JUMP JUMPDEST PUSH1 0x20 PUSH1 0x40 MLOAD DUP1 DUP4 SUB DUP2 PUSH1 0x0 DUP8 GAS CALL ISZERO DUP1 ISZERO PUSH2 0xC5B JUMPI RETURNDATASIZE PUSH1 0x0 DUP1 RETURNDATACOPY RETURNDATASIZE PUSH1 0x0 REVERT JUMPDEST POP POP POP POP PUSH1 0x40 MLOAD RETURNDATASIZE PUSH1 0x1F NOT PUSH1 0x1F DUP3 ADD AND DUP3 ADD DUP1 PUSH1 0x40 MSTORE POP DUP2 ADD SWAP1 PUSH2 0xC7F SWAP2 SWAP1 PUSH2 0x112E JUMP JUMPDEST POP PUSH1 0x0 CALLER PUSH20 0xFFFFFFFFFFFFFFFFFFFFFFFFFFFFFFFFFFFFFFFF AND DUP3 PUSH1 0x40 MLOAD PUSH2 0xCA6 SWAP1 PUSH2 0x135D JUMP JUMPDEST PUSH1 0x0 PUSH1 0x40 MLOAD DUP1 DUP4 SUB DUP2 DUP6 DUP8 GAS CALL SWAP3 POP POP POP RETURNDATASIZE DUP1 PUSH1 0x0 DUP2 EQ PUSH2 0xCE3 JUMPI PUSH1 0x40 MLOAD SWAP2 POP PUSH1 0x1F NOT PUSH1 0x3F RETURNDATASIZE ADD AND DUP3 ADD PUSH1 0x40 MSTORE RETURNDATASIZE DUP3 MSTORE RETURNDATASIZE PUSH1 0x0 PUSH1 0x20 DUP5 ADD RETURNDATACOPY PUSH2 0xCE8 JUMP JUMPDEST PUSH1 0x60 SWAP2 POP JUMPDEST POP POP SWAP1 POP DUP1 PUSH2 0xD2C JUMPI PUSH1 0x40 MLOAD PUSH32 0x8C379A000000000000000000000000000000000000000000000000000000000 DUP2 MSTORE PUSH1 0x4 ADD PUSH2 0xD23 SWAP1 PUSH2 0x142A JUMP JUMPDEST PUSH1 0x40 MLOAD DUP1 SWAP2 SUB SWAP1 REVERT JUMPDEST POP POP JUMP JUMPDEST PUSH1 0x0 DUP1 DUP3 SUB PUSH2 0xD42 JUMPI PUSH1 0x0 SWAP1 POP PUSH2 0xED8 JUMP JUMPDEST PUSH1 0x0 PUSH1 0x1 SWAP1 POP PUSH1 0x0 DUP4 SWAP1 POP PUSH1 0x0 PUSH1 0x80 DUP3 SWAP1 SHR GT ISZERO PUSH2 0xD69 JUMPI PUSH1 0x80 DUP2 SWAP1 SHR SWAP1 POP PUSH1 0x40 DUP3 SWAP1 SHL SWAP2 POP JUMPDEST PUSH1 0x0 PUSH1 0x40 DUP3 SWAP1 SHR GT ISZERO PUSH2 0xD85 JUMPI PUSH1 0x40 DUP2 SWAP1 SHR SWAP1 POP PUSH1 0x20 DUP3 SWAP1 SHL SWAP2 POP JUMPDEST PUSH1 0x0 PUSH1 0x20 DUP3 SWAP1 SHR GT ISZERO PUSH2 0xDA1 JUMPI PUSH1 0x20 DUP2 SWAP1 SHR SWAP1 POP PUSH1 0x10 DUP3 SWAP1 SHL SWAP2 POP JUMPDEST PUSH1 0x0 PUSH1 0x10 DUP3 SWAP1 SHR GT ISZERO PUSH2 0xDBD JUMPI PUSH1 0x10 DUP2 SWAP1 SHR SWAP1 POP PUSH1 0x8 DUP3 SWAP1 SHL SWAP2 POP JUMPDEST PUSH1 0x0 PUSH1 0x8 DUP3 SWAP1 SHR GT ISZERO PUSH2 0xDD9 JUMPI PUSH1 0x8 DUP2 SWAP1 SHR SWAP1 POP PUSH1 0x4 DUP3 SWAP1 SHL SWAP2 POP JUMPDEST PUSH1 0x0 PUSH1 0x4 DUP3 SWAP1 SHR GT ISZERO PUSH2 0xDF5 JUMPI PUSH1 0x4 DUP2 SWAP1 SHR SWAP1 POP PUSH1 0x2 DUP3 SWAP1 SHL SWAP2 POP JUMPDEST PUSH1 0x0 PUSH1 0x2 DUP3 SWAP1 SHR GT ISZERO PUSH2 0xE0A JUMPI PUSH1 0x1 DUP3 SWAP1 SHL SWAP2 POP JUMPDEST PUSH1 0x1 DUP3 DUP6 DUP2 PUSH2 0xE1C JUMPI PUSH2 0xE1B PUSH2 0x1269 JUMP JUMPDEST JUMPDEST DIV DUP4 ADD SWAP1 SHR SWAP2 POP PUSH1 0x1 DUP3 DUP6 DUP2 PUSH2 0xE35 JUMPI PUSH2 0xE34 PUSH2 0x1269 JUMP JUMPDEST JUMPDEST DIV DUP4 ADD SWAP1 SHR SWAP2 POP PUSH1 0x1 DUP3 DUP6 DUP2 PUSH2 0xE4E JUMPI PUSH2 0xE4D PUSH2 0x1269 JUMP JUMPDEST JUMPDEST DIV DUP4 ADD SWAP1 SHR SWAP2 POP PUSH1 0x1 DUP3 DUP6 DUP2 PUSH2 0xE67 JUMPI PUSH2 0xE66 PUSH2 0x1269 JUMP JUMPDEST JUMPDEST DIV DUP4 ADD SWAP1 SHR SWAP2 POP PUSH1 0x1 DUP3 DUP6 DUP2 PUSH2 0xE80 JUMPI PUSH2 0xE7F PUSH2 0x1269 JUMP JUMPDEST JUMPDEST DIV DUP4 ADD SWAP1 SHR SWAP2 POP PUSH1 0x1 DUP3 DUP6 DUP2 PUSH2 0xE99 JUMPI PUSH2 0xE98 PUSH2 0x1269 JUMP JUMPDEST JUMPDEST DIV DUP4 ADD SWAP1 SHR SWAP2 POP PUSH1 0x1 DUP3 DUP6 DUP2 PUSH2 0xEB2 JUMPI PUSH2 0xEB1 PUSH2 0x1269 JUMP JUMPDEST JUMPDEST DIV DUP4 ADD SWAP1 SHR SWAP2 POP PUSH2 0xED3 DUP3 DUP4 DUP7 DUP2 PUSH2 0xECD JUMPI PUSH2 0xECC PUSH2 0x1269 JUMP JUMPDEST JUMPDEST DIV PUSH2 0xEDD JUMP JUMPDEST SWAP3 POP POP POP JUMPDEST SWAP2 SWAP1 POP JUMP JUMPDEST PUSH1 0x0 DUP2 DUP4 LT PUSH2 0xEEC JUMPI DUP2 PUSH2 0xEEE JUMP JUMPDEST DUP3 JUMPDEST SWAP1 POP SWAP3 SWAP2 POP POP JUMP JUMPDEST PUSH1 0x0 DUP1 REVERT JUMPDEST PUSH1 0x0 DUP2 SWAP1 POP SWAP2 SWAP1 POP JUMP JUMPDEST PUSH2 0xF0E DUP2 PUSH2 0xEFB JUMP JUMPDEST DUP2 EQ PUSH2 0xF19 JUMPI PUSH1 0x0 DUP1 REVERT JUMPDEST POP JUMP JUMPDEST PUSH1 0x0 DUP2 CALLDATALOAD SWAP1 POP PUSH2 0xF2B DUP2 PUSH2 0xF05 JUMP JUMPDEST SWAP3 SWAP2 POP POP JUMP JUMPDEST PUSH1 0x0 PUSH1 0x20 DUP3 DUP5 SUB SLT ISZERO PUSH2 0xF47 JUMPI PUSH2 0xF46 PUSH2 0xEF6 JUMP JUMPDEST JUMPDEST PUSH1 0x0 PUSH2 0xF55 DUP5 DUP3 DUP6 ADD PUSH2 0xF1C JUMP JUMPDEST SWAP2 POP POP SWAP3 SWAP2 POP POP JUMP JUMPDEST PUSH2 0xF67 DUP2 PUSH2 0xEFB JUMP JUMPDEST DUP3 MSTORE POP POP JUMP JUMPDEST PUSH1 0x0 PUSH1 0x20 DUP3 ADD SWAP1 POP PUSH2 0xF82 PUSH1 0x0 DUP4 ADD DUP5 PUSH2 0xF5E JUMP JUMPDEST SWAP3 SWAP2 POP POP JUMP JUMPDEST PUSH1 0x0 PUSH20 0xFFFFFFFFFFFFFFFFFFFFFFFFFFFFFFFFFFFFFFFF DUP3 AND SWAP1 POP SWAP2 SWAP1 POP JUMP JUMPDEST PUSH1 0x0 PUSH2 0xFB3 DUP3 PUSH2 0xF88 JUMP JUMPDEST SWAP1 POP SWAP2 SWAP1 POP JUMP JUMPDEST PUSH2 0xFC3 DUP2 PUSH2 0xFA8 JUMP JUMPDEST DUP2 EQ PUSH2 0xFCE JUMPI PUSH1 0x0 DUP1 REVERT JUMPDEST POP JUMP JUMPDEST PUSH1 0x0 DUP2 CALLDATALOAD SWAP1 POP PUSH2 0xFE0 DUP2 PUSH2 0xFBA JUMP JUMPDEST SWAP3 SWAP2 POP POP JUMP JUMPDEST PUSH1 0x0 DUP1 PUSH1 0x40 DUP4 DUP6 SUB SLT ISZERO PUSH2 0xFFD JUMPI PUSH2 0xFFC PUSH2 0xEF6 JUMP JUMPDEST JUMPDEST PUSH1 0x0 PUSH2 0x100B DUP6 DUP3 DUP7 ADD PUSH2 0xFD1 JUMP JUMPDEST SWAP3 POP POP PUSH1 0x20 PUSH2 0x101C DUP6 DUP3 DUP7 ADD PUSH2 0xF1C JUMP JUMPDEST SWAP2 POP POP SWAP3 POP SWAP3 SWAP1 POP JUMP JUMPDEST PUSH2 0x102F DUP2 PUSH2 0xFA8 JUMP JUMPDEST DUP3 MSTORE POP POP JUMP JUMPDEST PUSH1 0x0 PUSH1 0x20 DUP3 ADD SWAP1 POP PUSH2 0x104A PUSH1 0x0 DUP4 ADD DUP5 PUSH2 0x1026 JUMP JUMPDEST SWAP3 SWAP2 POP POP JUMP JUMPDEST PUSH1 0x0 DUP3 DUP3 MSTORE PUSH1 0x20 DUP3 ADD SWAP1 POP SWAP3 SWAP2 POP POP JUMP JUMPDEST PUSH32 0x496E76616C696420616D6F756E74000000000000000000000000000000000000 PUSH1 0x0 DUP3 ADD MSTORE POP JUMP JUMPDEST PUSH1 0x0 PUSH2 0x1097 PUSH1 0xE DUP4 PUSH2 0x1050 JUMP JUMPDEST SWAP2 POP PUSH2 0x10A2 DUP3 PUSH2 0x1061 JUMP JUMPDEST PUSH1 0x20 DUP3 ADD SWAP1 POP SWAP2 SWAP1 POP JUMP JUMPDEST PUSH1 0x0 PUSH1 0x20 DUP3 ADD SWAP1 POP DUP2 DUP2 SUB PUSH1 0x0 DUP4 ADD MSTORE PUSH2 0x10C6 DUP2 PUSH2 0x108A JUMP JUMPDEST SWAP1 POP SWAP2 SWAP1 POP JUMP JUMPDEST PUSH1 0x0 PUSH1 0x40 DUP3 ADD SWAP1 POP PUSH2 0x10E2 PUSH1 0x0 DUP4 ADD DUP6 PUSH2 0x1026 JUMP JUMPDEST PUSH2 0x10EF PUSH1 0x20 DUP4 ADD DUP5 PUSH2 0xF5E JUMP JUMPDEST SWAP4 SWAP3 POP POP POP JUMP JUMPDEST PUSH1 0x0 DUP2 ISZERO ISZERO SWAP1 POP SWAP2 SWAP1 POP JUMP JUMPDEST PUSH2 0x110B DUP2 PUSH2 0x10F6 JUMP JUMPDEST DUP2 EQ PUSH2 0x1116 JUMPI PUSH1 0x0 DUP1 REVERT JUMPDEST POP JUMP JUMPDEST PUSH1 0x0 DUP2 MLOAD SWAP1 POP PUSH2 0x1128 DUP2 PUSH2 0x1102 JUMP JUMPDEST SWAP3 SWAP2 POP POP JUMP JUMPDEST PUSH1 0x0 PUSH1 0x20 DUP3 DUP5 SUB SLT ISZERO PUSH2 0x1144 JUMPI PUSH2 0x1143 PUSH2 0xEF6 JUMP JUMPDEST JUMPDEST PUSH1 0x0 PUSH2 0x1152 DUP5 DUP3 DUP6 ADD PUSH2 0x1119 JUMP JUMPDEST SWAP2 POP POP SWAP3 SWAP2 POP POP JUMP JUMPDEST PUSH1 0x0 PUSH1 0x40 DUP3 ADD SWAP1 POP PUSH2 0x1170 PUSH1 0x0 DUP4 ADD DUP6 PUSH2 0x1026 JUMP JUMPDEST PUSH2 0x117D PUSH1 0x20 DUP4 ADD DUP5 PUSH2 0x1026 JUMP JUMPDEST SWAP4 SWAP3 POP POP POP JUMP JUMPDEST PUSH1 0x0 DUP2 MLOAD SWAP1 POP PUSH2 0x1193 DUP2 PUSH2 0xF05 JUMP JUMPDEST SWAP3 SWAP2 POP POP JUMP JUMPDEST PUSH1 0x0 PUSH1 0x20 DUP3 DUP5 SUB SLT ISZERO PUSH2 0x11AF JUMPI PUSH2 0x11AE PUSH2 0xEF6 JUMP JUMPDEST JUMPDEST PUSH1 0x0 PUSH2 0x11BD DUP5 DUP3 DUP6 ADD PUSH2 0x1184 JUMP JUMPDEST SWAP2 POP POP SWAP3 SWAP2 POP POP JUMP JUMPDEST PUSH32 0x436F6E7472616374206E6F7420617070726F7665640000000000000000000000 PUSH1 0x0 DUP3 ADD MSTORE POP JUMP JUMPDEST PUSH1 0x0 PUSH2 0x11FC PUSH1 0x15 DUP4 PUSH2 0x1050 JUMP JUMPDEST SWAP2 POP PUSH2 0x1207 DUP3 PUSH2 0x11C6 JUMP JUMPDEST PUSH1 0x20 DUP3 ADD SWAP1 POP SWAP2 SWAP1 POP JUMP JUMPDEST PUSH1 0x0 PUSH1 0x20 DUP3 ADD SWAP1 POP DUP2 DUP2 SUB PUSH1 0x0 DUP4 ADD MSTORE PUSH2 0x122B DUP2 PUSH2 0x11EF JUMP JUMPDEST SWAP1 POP SWAP2 SWAP1 POP JUMP JUMPDEST PUSH1 0x0 PUSH1 0x60 DUP3 ADD SWAP1 POP PUSH2 0x1247 PUSH1 0x0 DUP4 ADD DUP7 PUSH2 0x1026 JUMP JUMPDEST PUSH2 0x1254 PUSH1 0x20 DUP4 ADD DUP6 PUSH2 0x1026 JUMP JUMPDEST PUSH2 0x1261 PUSH1 0x40 DUP4 ADD DUP5 PUSH2 0xF5E JUMP JUMPDEST SWAP5 SWAP4 POP POP POP POP JUMP JUMPDEST PUSH32 0x4E487B7100000000000000000000000000000000000000000000000000000000 PUSH1 0x0 MSTORE PUSH1 0x12 PUSH1 0x4 MSTORE PUSH1 0x24 PUSH1 0x0 REVERT JUMPDEST PUSH32 0x4E487B7100000000000000000000000000000000000000000000000000000000 PUSH1 0x0 MSTORE PUSH1 0x11 PUSH1 0x4 MSTORE PUSH1 0x24 PUSH1 0x0 REVERT JUMPDEST PUSH1 0x0 PUSH2 0x12D2 DUP3 PUSH2 0xEFB JUMP JUMPDEST SWAP2 POP PUSH2 0x12DD DUP4 PUSH2 0xEFB JUMP JUMPDEST SWAP3 POP DUP3 PUSH2 0x12ED JUMPI PUSH2 0x12EC PUSH2 0x1269 JUMP JUMPDEST JUMPDEST DUP3 DUP3 DIV SWAP1 POP SWAP3 SWAP2 POP POP JUMP JUMPDEST PUSH1 0x0 PUSH2 0x1303 DUP3 PUSH2 0xEFB JUMP JUMPDEST SWAP2 POP PUSH2 0x130E DUP4 PUSH2 0xEFB JUMP JUMPDEST SWAP3 POP DUP3 DUP3 SUB SWAP1 POP DUP2 DUP2 GT ISZERO PUSH2 0x1326 JUMPI PUSH2 0x1325 PUSH2 0x1298 JUMP JUMPDEST JUMPDEST SWAP3 SWAP2 POP POP JUMP JUMPDEST PUSH1 0x0 DUP2 SWAP1 POP SWAP3 SWAP2 POP POP JUMP JUMPDEST POP JUMP JUMPDEST PUSH1 0x0 PUSH2 0x1347 PUSH1 0x0 DUP4 PUSH2 0x132C JUMP JUMPDEST SWAP2 POP PUSH2 0x1352 DUP3 PUSH2 0x1337 JUMP JUMPDEST PUSH1 0x0 DUP3 ADD SWAP1 POP SWAP2 SWAP1 POP JUMP JUMPDEST PUSH1 0x0 PUSH2 0x1368 DUP3 PUSH2 0x133A JUMP JUMPDEST SWAP2 POP DUP2 SWAP1 POP SWAP2 SWAP1 POP JUMP JUMPDEST PUSH32 0x5472616E73666572204661696C65640000000000000000000000000000000000 PUSH1 0x0 DUP3 ADD MSTORE POP JUMP JUMPDEST PUSH1 0x0 PUSH2 0x13A8 PUSH1 0xF DUP4 PUSH2 0x1050 JUMP JUMPDEST SWAP2 POP PUSH2 0x13B3 DUP3 PUSH2 0x1372 JUMP JUMPDEST PUSH1 0x20 DUP3 ADD SWAP1 POP SWAP2 SWAP1 POP JUMP JUMPDEST PUSH1 0x0 PUSH1 0x20 DUP3 ADD SWAP1 POP DUP2 DUP2 SUB PUSH1 0x0 DUP4 ADD MSTORE PUSH2 0x13D7 DUP2 PUSH2 0x139B JUMP JUMPDEST SWAP1 POP SWAP2 SWAP1 POP JUMP JUMPDEST PUSH32 0x5472616E73666572206661696C65640000000000000000000000000000000000 PUSH1 0x0 DUP3 ADD MSTORE POP JUMP JUMPDEST PUSH1 0x0 PUSH2 0x1414 PUSH1 0xF DUP4 PUSH2 0x1050 JUMP JUMPDEST SWAP2 POP PUSH2 0x141F DUP3 PUSH2 0x13DE JUMP JUMPDEST PUSH1 0x20 DUP3 ADD SWAP1 POP SWAP2 SWAP1 POP JUMP JUMPDEST PUSH1 0x0 PUSH1 0x20 DUP3 ADD SWAP1 POP DUP2 DUP2 SUB PUSH1 0x0 DUP4 ADD MSTORE PUSH2 0x1443 DUP2 PUSH2 0x1407 JUMP JUMPDEST SWAP1 POP SWAP2 SWAP1 POP JUMP JUMPDEST PUSH32 0x4C69717569646974792070726F76696465642073686F756C6420626520677265 PUSH1 0x0 DUP3 ADD MSTORE PUSH32 0x61746572207468616E2031204554480000000000000000000000000000000000 PUSH1 0x20 DUP3 ADD MSTORE POP JUMP JUMPDEST PUSH1 0x0 PUSH2 0x14A6 PUSH1 0x2F DUP4 PUSH2 0x1050 JUMP JUMPDEST SWAP2 POP PUSH2 0x14B1 DUP3 PUSH2 0x144A JUMP JUMPDEST PUSH1 0x40 DUP3 ADD SWAP1 POP SWAP2 SWAP1 POP JUMP JUMPDEST PUSH1 0x0 PUSH1 0x20 DUP3 ADD SWAP1 POP DUP2 DUP2 SUB PUSH1 0x0 DUP4 ADD MSTORE PUSH2 0x14D5 DUP2 PUSH2 0x1499 JUMP JUMPDEST SWAP1 POP SWAP2 SWAP1 POP JUMP JUMPDEST PUSH1 0x0 PUSH2 0x14E7 DUP3 PUSH2 0xEFB JUMP JUMPDEST SWAP2 POP PUSH2 0x14F2 DUP4 PUSH2 0xEFB JUMP JUMPDEST SWAP3 POP DUP3 DUP3 MUL PUSH2 0x1500 DUP2 PUSH2 0xEFB JUMP JUMPDEST SWAP2 POP DUP3 DUP3 DIV DUP5 EQ DUP4 ISZERO OR PUSH2 0x1517 JUMPI PUSH2 0x1516 PUSH2 0x1298 JUMP JUMPDEST JUMPDEST POP SWAP3 SWAP2 POP POP JUMP JUMPDEST PUSH32 0x496E76616C696420616D6F756E74206F66207368617265730000000000000000 PUSH1 0x0 DUP3 ADD MSTORE POP JUMP JUMPDEST PUSH1 0x0 PUSH2 0x1554 PUSH1 0x18 DUP4 PUSH2 0x1050 JUMP JUMPDEST SWAP2 POP PUSH2 0x155F DUP3 PUSH2 0x151E JUMP JUMPDEST PUSH1 0x20 DUP3 ADD SWAP1 POP SWAP2 SWAP1 POP JUMP JUMPDEST PUSH1 0x0 PUSH1 0x20 DUP3 ADD SWAP1 POP DUP2 DUP2 SUB PUSH1 0x0 DUP4 ADD MSTORE PUSH2 0x1583 DUP2 PUSH2 0x1547 JUMP JUMPDEST SWAP1 POP SWAP2 SWAP1 POP JUMP JUMPDEST PUSH32 0x506C6561736520617070726F76652074686520636F6E747261637420746F2064 PUSH1 0x0 DUP3 ADD MSTORE PUSH32 0x6564756374206C747220746F6B656E732066726F6D20796F75722077616C6C65 PUSH1 0x20 DUP3 ADD MSTORE PUSH32 0x7400000000000000000000000000000000000000000000000000000000000000 PUSH1 0x40 DUP3 ADD MSTORE POP JUMP JUMPDEST PUSH1 0x0 PUSH2 0x160C PUSH1 0x41 DUP4 PUSH2 0x1050 JUMP JUMPDEST SWAP2 POP PUSH2 0x1617 DUP3 PUSH2 0x158A JUMP JUMPDEST PUSH1 0x60 DUP3 ADD SWAP1 POP SWAP2 SWAP1 POP JUMP JUMPDEST PUSH1 0x0 PUSH1 0x20 DUP3 ADD SWAP1 POP DUP2 DUP2 SUB PUSH1 0x0 DUP4 ADD MSTORE PUSH2 0x163B DUP2 PUSH2 0x15FF JUMP JUMPDEST SWAP1 POP SWAP2 SWAP1 POP JUMP INVALID LOG2 PUSH5 0x6970667358 0x22 SLT KECCAK256 SWAP6 GAS 0xD0 TIMESTAMP SWAP5 SELFBALANCE DIV PUSH20 0xC4D4CBFFE44DD9AF59C577F81484F971BC4C28F7 LT 0xC4 PUSH18 0xD464736F6C63430008110033000000000000 "
				},
				"gasEstimates": {
					"creation": {
						"codeDepositCost": "1150400",
						"executionCost": "infinite",
						"totalCost": "infinite"
					},
					"external": {
						"getDAI(uint256)": "infinite",
						"getEth(uint256)": "infinite",
						"kLast()": "2452",
						"provideLiquidity(uint256)": "infinite",
						"reedemShares(uint256)": "infinite",
						"reserveToken()": "2555",
						"swap(uint256)": "infinite",
						"transferTokens(address,uint256)": "infinite"
					}
				},
				"methodIdentifiers": {
					"getDAI(uint256)": "1aa5c70e",
					"getEth(uint256)": "8e3073a6",
					"kLast()": "7464fc3d",
					"provideLiquidity(uint256)": "eb521a4c",
					"reedemShares(uint256)": "ff9b3758",
					"reserveToken()": "f4325d67",
					"swap(uint256)": "94b918de",
					"transferTokens(address,uint256)": "bec3fa17"
				}
			},
			"storageLayout": {
				"storage": [
					{
						"astId": 509,
						"contract": "contracts/Exchange.sol:LiquidityPool",
						"label": "reserveToken",
						"offset": 0,
						"slot": "0",
						"type": "t_address"
					},
					{
						"astId": 517,
						"contract": "contracts/Exchange.sol:LiquidityPool",
						"label": "kLast",
						"offset": 0,
						"slot": "1",
						"type": "t_uint256"
					}
				],
				"types": {
					"t_address": {
						"encoding": "inplace",
						"label": "address",
						"numberOfBytes": "20"
					},
					"t_uint256": {
						"encoding": "inplace",
						"label": "uint256",
						"numberOfBytes": "32"
					}
				}
			},
			"userdoc": {
				"kind": "user",
				"methods": {},
				"version": 1
			}
		}
	}
}