{
	"contracts/LiquidityPool.sol": {
		"LiquidityPool": {
			"abi": [
				{
					"inputs": [
						{
							"internalType": "address",
							"name": "_tokenAddress",
							"type": "address"
						}
					],
					"stateMutability": "nonpayable",
					"type": "constructor"
				},
				{
					"anonymous": false,
					"inputs": [
						{
							"indexed": false,
							"internalType": "address",
							"name": "_liquidityProvider",
							"type": "address"
						},
						{
							"indexed": false,
							"internalType": "uint256",
							"name": "_shares",
							"type": "uint256"
						}
					],
					"name": "liquidityProvided",
					"type": "event"
				},
				{
					"inputs": [
						{
							"internalType": "uint256",
							"name": "_ethAmount",
							"type": "uint256"
						}
					],
					"name": "getDAI",
					"outputs": [],
					"stateMutability": "payable",
					"type": "function"
				},
				{
					"inputs": [
						{
							"internalType": "uint256",
							"name": "_DAIAmount",
							"type": "uint256"
						}
					],
					"name": "getEth",
					"outputs": [],
					"stateMutability": "nonpayable",
					"type": "function"
				},
				{
					"inputs": [],
					"name": "kLast",
					"outputs": [
						{
							"internalType": "uint256",
							"name": "",
							"type": "uint256"
						}
					],
					"stateMutability": "view",
					"type": "function"
				},
				{
					"inputs": [
						{
							"internalType": "uint256",
							"name": "_amount",
							"type": "uint256"
						}
					],
					"name": "provideLiquidity",
					"outputs": [],
					"stateMutability": "payable",
					"type": "function"
				},
				{
					"inputs": [
						{
							"internalType": "uint256",
							"name": "_sharesAmount",
							"type": "uint256"
						}
					],
					"name": "reedemShares",
					"outputs": [],
					"stateMutability": "nonpayable",
					"type": "function"
				},
				{
					"inputs": [],
					"name": "reserveToken",
					"outputs": [
						{
							"internalType": "address",
							"name": "",
							"type": "address"
						}
					],
					"stateMutability": "view",
					"type": "function"
				},
				{
					"inputs": [
						{
							"internalType": "uint256",
							"name": "daiAmount",
							"type": "uint256"
						}
					],
					"name": "swap",
					"outputs": [],
					"stateMutability": "payable",
					"type": "function"
				},
				{
					"inputs": [
						{
							"internalType": "address",
							"name": "to",
							"type": "address"
						},
						{
							"internalType": "uint256",
							"name": "_amount",
							"type": "uint256"
						}
					],
					"name": "transferTokens",
					"outputs": [],
					"stateMutability": "nonpayable",
					"type": "function"
				}
			],
			"devdoc": {
				"kind": "dev",
				"methods": {},
				"version": 1
			},
			"evm": {
				"assembly": "    /* \"contracts/LiquidityPool.sol\":581:3431  contract LiquidityPool {... */\n  mstore(0x40, 0x80)\n    /* \"contracts/LiquidityPool.sol\":889:968  constructor(address _tokenAddress){... */\n  callvalue\n  dup1\n  iszero\n  tag_1\n  jumpi\n  0x00\n  dup1\n  revert\ntag_1:\n  pop\n  mload(0x40)\n  sub(codesize, bytecodeSize)\n  dup1\n  bytecodeSize\n  dup4\n  codecopy\n  dup2\n  dup2\n  add\n  0x40\n  mstore\n  dup2\n  add\n  swap1\n  tag_2\n  swap2\n  swap1\n  tag_3\n  jump\t// in\ntag_2:\n    /* \"contracts/LiquidityPool.sol\":948:961  _tokenAddress */\n  dup1\n    /* \"contracts/LiquidityPool.sol\":933:945  reserveToken */\n  0x00\n  dup1\n    /* \"contracts/LiquidityPool.sol\":933:961  reserveToken = _tokenAddress */\n  0x0100\n  exp\n  dup2\n  sload\n  dup2\n  0xffffffffffffffffffffffffffffffffffffffff\n  mul\n  not\n  and\n  swap1\n  dup4\n  0xffffffffffffffffffffffffffffffffffffffff\n  and\n  mul\n  or\n  swap1\n  sstore\n  pop\n    /* \"contracts/LiquidityPool.sol\":889:968  constructor(address _tokenAddress){... */\n  pop\n    /* \"contracts/LiquidityPool.sol\":581:3431  contract LiquidityPool {... */\n  jump(tag_6)\n    /* \"#utility.yul\":88:205   */\ntag_8:\n    /* \"#utility.yul\":197:198   */\n  0x00\n    /* \"#utility.yul\":194:195   */\n  dup1\n    /* \"#utility.yul\":187:199   */\n  revert\n    /* \"#utility.yul\":334:460   */\ntag_10:\n    /* \"#utility.yul\":371:378   */\n  0x00\n    /* \"#utility.yul\":411:453   */\n  0xffffffffffffffffffffffffffffffffffffffff\n    /* \"#utility.yul\":404:409   */\n  dup3\n    /* \"#utility.yul\":400:454   */\n  and\n    /* \"#utility.yul\":389:454   */\n  swap1\n  pop\n    /* \"#utility.yul\":334:460   */\n  swap2\n  swap1\n  pop\n  jump\t// out\n    /* \"#utility.yul\":466:562   */\ntag_11:\n    /* \"#utility.yul\":503:510   */\n  0x00\n    /* \"#utility.yul\":532:556   */\n  tag_20\n    /* \"#utility.yul\":550:555   */\n  dup3\n    /* \"#utility.yul\":532:556   */\n  tag_10\n  jump\t// in\ntag_20:\n    /* \"#utility.yul\":521:556   */\n  swap1\n  pop\n    /* \"#utility.yul\":466:562   */\n  swap2\n  swap1\n  pop\n  jump\t// out\n    /* \"#utility.yul\":568:690   */\ntag_12:\n    /* \"#utility.yul\":641:665   */\n  tag_22\n    /* \"#utility.yul\":659:664   */\n  dup2\n    /* \"#utility.yul\":641:665   */\n  tag_11\n  jump\t// in\ntag_22:\n    /* \"#utility.yul\":634:639   */\n  dup2\n    /* \"#utility.yul\":631:666   */\n  eq\n    /* \"#utility.yul\":621:684   */\n  tag_23\n  jumpi\n    /* \"#utility.yul\":680:681   */\n  0x00\n    /* \"#utility.yul\":677:678   */\n  dup1\n    /* \"#utility.yul\":670:682   */\n  revert\n    /* \"#utility.yul\":621:684   */\ntag_23:\n    /* \"#utility.yul\":568:690   */\n  pop\n  jump\t// out\n    /* \"#utility.yul\":696:839   */\ntag_13:\n    /* \"#utility.yul\":753:758   */\n  0x00\n    /* \"#utility.yul\":784:790   */\n  dup2\n    /* \"#utility.yul\":778:791   */\n  mload\n    /* \"#utility.yul\":769:791   */\n  swap1\n  pop\n    /* \"#utility.yul\":800:833   */\n  tag_25\n    /* \"#utility.yul\":827:832   */\n  dup2\n    /* \"#utility.yul\":800:833   */\n  tag_12\n  jump\t// in\ntag_25:\n    /* \"#utility.yul\":696:839   */\n  swap3\n  swap2\n  pop\n  pop\n  jump\t// out\n    /* \"#utility.yul\":845:1196   */\ntag_3:\n    /* \"#utility.yul\":915:921   */\n  0x00\n    /* \"#utility.yul\":964:966   */\n  0x20\n    /* \"#utility.yul\":952:961   */\n  dup3\n    /* \"#utility.yul\":943:950   */\n  dup5\n    /* \"#utility.yul\":939:962   */\n  sub\n    /* \"#utility.yul\":935:967   */\n  slt\n    /* \"#utility.yul\":932:1051   */\n  iszero\n  tag_27\n  jumpi\n    /* \"#utility.yul\":970:1049   */\n  tag_28\n  tag_8\n  jump\t// in\ntag_28:\n    /* \"#utility.yul\":932:1051   */\ntag_27:\n    /* \"#utility.yul\":1090:1091   */\n  0x00\n    /* \"#utility.yul\":1115:1179   */\n  tag_29\n    /* \"#utility.yul\":1171:1178   */\n  dup5\n    /* \"#utility.yul\":1162:1168   */\n  dup3\n    /* \"#utility.yul\":1151:1160   */\n  dup6\n    /* \"#utility.yul\":1147:1169   */\n  add\n    /* \"#utility.yul\":1115:1179   */\n  tag_13\n  jump\t// in\ntag_29:\n    /* \"#utility.yul\":1105:1179   */\n  swap2\n  pop\n    /* \"#utility.yul\":1061:1189   */\n  pop\n    /* \"#utility.yul\":845:1196   */\n  swap3\n  swap2\n  pop\n  pop\n  jump\t// out\n    /* \"contracts/LiquidityPool.sol\":581:3431  contract LiquidityPool {... */\ntag_6:\n  dataSize(sub_0)\n  dup1\n  dataOffset(sub_0)\n  0x00\n  codecopy\n  0x00\n  return\nstop\n\nsub_0: assembly {\n        /* \"contracts/LiquidityPool.sol\":581:3431  contract LiquidityPool {... */\n      mstore(0x40, 0x80)\n      jumpi(tag_1, lt(calldatasize, 0x04))\n      shr(0xe0, calldataload(0x00))\n      dup1\n      0xbec3fa17\n      gt\n      tag_10\n      jumpi\n      dup1\n      0xbec3fa17\n      eq\n      tag_6\n      jumpi\n      dup1\n      0xeb521a4c\n      eq\n      tag_7\n      jumpi\n      dup1\n      0xf4325d67\n      eq\n      tag_8\n      jumpi\n      dup1\n      0xff9b3758\n      eq\n      tag_9\n      jumpi\n      jump(tag_1)\n    tag_10:\n      dup1\n      0x1aa5c70e\n      eq\n      tag_2\n      jumpi\n      dup1\n      0x7464fc3d\n      eq\n      tag_3\n      jumpi\n      dup1\n      0x8e3073a6\n      eq\n      tag_4\n      jumpi\n      dup1\n      0x94b918de\n      eq\n      tag_5\n      jumpi\n    tag_1:\n      0x00\n      dup1\n      revert\n        /* \"contracts/LiquidityPool.sol\":2476:2657  function getDAI(uint256 _ethAmount) public payable {... */\n    tag_2:\n      tag_11\n      0x04\n      dup1\n      calldatasize\n      sub\n      dup2\n      add\n      swap1\n      tag_12\n      swap2\n      swap1\n      tag_13\n      jump\t// in\n    tag_12:\n      tag_14\n      jump\t// in\n    tag_11:\n      stop\n        /* \"contracts/LiquidityPool.sol\":862:882  uint256 public kLast */\n    tag_3:\n      callvalue\n      dup1\n      iszero\n      tag_15\n      jumpi\n      0x00\n      dup1\n      revert\n    tag_15:\n      pop\n      tag_16\n      tag_17\n      jump\t// in\n    tag_16:\n      mload(0x40)\n      tag_18\n      swap2\n      swap1\n      tag_19\n      jump\t// in\n    tag_18:\n      mload(0x40)\n      dup1\n      swap2\n      sub\n      swap1\n      return\n        /* \"contracts/LiquidityPool.sol\":2102:2470  function getEth(uint256 _DAIAmount) public {... */\n    tag_4:\n      callvalue\n      dup1\n      iszero\n      tag_20\n      jumpi\n      0x00\n      dup1\n      revert\n    tag_20:\n      pop\n      tag_21\n      0x04\n      dup1\n      calldatasize\n      sub\n      dup2\n      add\n      swap1\n      tag_22\n      swap2\n      swap1\n      tag_13\n      jump\t// in\n    tag_22:\n      tag_23\n      jump\t// in\n    tag_21:\n      stop\n        /* \"contracts/LiquidityPool.sol\":2788:3429  function swap(uint256 daiAmount) public payable{... */\n    tag_5:\n      tag_24\n      0x04\n      dup1\n      calldatasize\n      sub\n      dup2\n      add\n      swap1\n      tag_25\n      swap2\n      swap1\n      tag_13\n      jump\t// in\n    tag_25:\n      tag_26\n      jump\t// in\n    tag_24:\n      stop\n        /* \"contracts/LiquidityPool.sol\":2663:2782  function transferTokens(address to, uint256 _amount) external {... */\n    tag_6:\n      callvalue\n      dup1\n      iszero\n      tag_27\n      jumpi\n      0x00\n      dup1\n      revert\n    tag_27:\n      pop\n      tag_28\n      0x04\n      dup1\n      calldatasize\n      sub\n      dup2\n      add\n      swap1\n      tag_29\n      swap2\n      swap1\n      tag_30\n      jump\t// in\n    tag_29:\n      tag_31\n      jump\t// in\n    tag_28:\n      stop\n        /* \"contracts/LiquidityPool.sol\":1049:1533  function provideLiquidity(uint256 _amount) external payable {... */\n    tag_7:\n      tag_32\n      0x04\n      dup1\n      calldatasize\n      sub\n      dup2\n      add\n      swap1\n      tag_33\n      swap2\n      swap1\n      tag_13\n      jump\t// in\n    tag_33:\n      tag_34\n      jump\t// in\n    tag_32:\n      stop\n        /* \"contracts/LiquidityPool.sol\":698:725  address public reserveToken */\n    tag_8:\n      callvalue\n      dup1\n      iszero\n      tag_35\n      jumpi\n      0x00\n      dup1\n      revert\n    tag_35:\n      pop\n      tag_36\n      tag_37\n      jump\t// in\n    tag_36:\n      mload(0x40)\n      tag_38\n      swap2\n      swap1\n      tag_39\n      jump\t// in\n    tag_38:\n      mload(0x40)\n      dup1\n      swap2\n      sub\n      swap1\n      return\n        /* \"contracts/LiquidityPool.sol\":1539:2096  function reedemShares(uint256 _sharesAmount) public {... */\n    tag_9:\n      callvalue\n      dup1\n      iszero\n      tag_40\n      jumpi\n      0x00\n      dup1\n      revert\n    tag_40:\n      pop\n      tag_41\n      0x04\n      dup1\n      calldatasize\n      sub\n      dup2\n      add\n      swap1\n      tag_42\n      swap2\n      swap1\n      tag_13\n      jump\t// in\n    tag_42:\n      tag_43\n      jump\t// in\n    tag_41:\n      stop\n        /* \"contracts/LiquidityPool.sol\":2476:2657  function getDAI(uint256 _ethAmount) public payable {... */\n    tag_14:\n        /* \"contracts/LiquidityPool.sol\":2558:2568  _ethAmount */\n      dup1\n        /* \"contracts/LiquidityPool.sol\":2545:2554  msg.value */\n      callvalue\n        /* \"contracts/LiquidityPool.sol\":2545:2568  msg.value == _ethAmount */\n      eq\n        /* \"contracts/LiquidityPool.sol\":2537:2587  require(msg.value == _ethAmount, \"Invalid amount\") */\n      tag_45\n      jumpi\n      mload(0x40)\n      0x08c379a000000000000000000000000000000000000000000000000000000000\n      dup2\n      mstore\n      0x04\n      add\n      tag_46\n      swap1\n      tag_47\n      jump\t// in\n    tag_46:\n      mload(0x40)\n      dup1\n      swap2\n      sub\n      swap1\n      revert\n    tag_45:\n        /* \"contracts/LiquidityPool.sol\":2604:2616  reserveToken */\n      0x00\n      dup1\n      sload\n      swap1\n      0x0100\n      exp\n      swap1\n      div\n      0xffffffffffffffffffffffffffffffffffffffff\n      and\n        /* \"contracts/LiquidityPool.sol\":2597:2626  IERC20(reserveToken).transfer */\n      0xffffffffffffffffffffffffffffffffffffffff\n      and\n      0xa9059cbb\n        /* \"contracts/LiquidityPool.sol\":2627:2637  msg.sender */\n      caller\n        /* \"contracts/LiquidityPool.sol\":2639:2649  _ethAmount */\n      dup4\n        /* \"contracts/LiquidityPool.sol\":2597:2650  IERC20(reserveToken).transfer(msg.sender, _ethAmount) */\n      mload(0x40)\n      dup4\n      0xffffffff\n      and\n      0xe0\n      shl\n      dup2\n      mstore\n      0x04\n      add\n      tag_48\n      swap3\n      swap2\n      swap1\n      tag_49\n      jump\t// in\n    tag_48:\n      0x20\n      mload(0x40)\n      dup1\n      dup4\n      sub\n      dup2\n      0x00\n      dup8\n      gas\n      call\n      iszero\n      dup1\n      iszero\n      tag_51\n      jumpi\n      returndatasize\n      0x00\n      dup1\n      returndatacopy\n      revert(0x00, returndatasize)\n    tag_51:\n      pop\n      pop\n      pop\n      pop\n      mload(0x40)\n      returndatasize\n      not(0x1f)\n      0x1f\n      dup3\n      add\n      and\n      dup3\n      add\n      dup1\n      0x40\n      mstore\n      pop\n      dup2\n      add\n      swap1\n      tag_52\n      swap2\n      swap1\n      tag_53\n      jump\t// in\n    tag_52:\n      pop\n        /* \"contracts/LiquidityPool.sol\":2476:2657  function getDAI(uint256 _ethAmount) public payable {... */\n      pop\n      jump\t// out\n        /* \"contracts/LiquidityPool.sol\":862:882  uint256 public kLast */\n    tag_17:\n      sload(0x01)\n      dup2\n      jump\t// out\n        /* \"contracts/LiquidityPool.sol\":2102:2470  function getEth(uint256 _DAIAmount) public {... */\n    tag_23:\n        /* \"contracts/LiquidityPool.sol\":2224:2234  _DAIAmount */\n      dup1\n        /* \"contracts/LiquidityPool.sol\":2170:2182  reserveToken */\n      0x00\n      dup1\n      sload\n      swap1\n      0x0100\n      exp\n      swap1\n      div\n      0xffffffffffffffffffffffffffffffffffffffff\n      and\n        /* \"contracts/LiquidityPool.sol\":2163:2193  IERC20(reserveToken).allowance */\n      0xffffffffffffffffffffffffffffffffffffffff\n      and\n      0xdd62ed3e\n        /* \"contracts/LiquidityPool.sol\":2194:2204  msg.sender */\n      caller\n        /* \"contracts/LiquidityPool.sol\":2214:2218  this */\n      address\n        /* \"contracts/LiquidityPool.sol\":2163:2220  IERC20(reserveToken).allowance(msg.sender, address(this)) */\n      mload(0x40)\n      dup4\n      0xffffffff\n      and\n      0xe0\n      shl\n      dup2\n      mstore\n      0x04\n      add\n      tag_55\n      swap3\n      swap2\n      swap1\n      tag_56\n      jump\t// in\n    tag_55:\n      0x20\n      mload(0x40)\n      dup1\n      dup4\n      sub\n      dup2\n      dup7\n      gas\n      staticcall\n      iszero\n      dup1\n      iszero\n      tag_58\n      jumpi\n      returndatasize\n      0x00\n      dup1\n      returndatacopy\n      revert(0x00, returndatasize)\n    tag_58:\n      pop\n      pop\n      pop\n      pop\n      mload(0x40)\n      returndatasize\n      not(0x1f)\n      0x1f\n      dup3\n      add\n      and\n      dup3\n      add\n      dup1\n      0x40\n      mstore\n      pop\n      dup2\n      add\n      swap1\n      tag_59\n      swap2\n      swap1\n      tag_60\n      jump\t// in\n    tag_59:\n        /* \"contracts/LiquidityPool.sol\":2163:2234  IERC20(reserveToken).allowance(msg.sender, address(this)) >= _DAIAmount */\n      lt\n      iszero\n        /* \"contracts/LiquidityPool.sol\":2155:2260  require(IERC20(reserveToken).allowance(msg.sender, address(this)) >= _DAIAmount, \"Contract not approved\") */\n      tag_61\n      jumpi\n      mload(0x40)\n      0x08c379a000000000000000000000000000000000000000000000000000000000\n      dup2\n      mstore\n      0x04\n      add\n      tag_62\n      swap1\n      tag_63\n      jump\t// in\n    tag_62:\n      mload(0x40)\n      dup1\n      swap2\n      sub\n      swap1\n      revert\n    tag_61:\n        /* \"contracts/LiquidityPool.sol\":2277:2289  reserveToken */\n      0x00\n      dup1\n      sload\n      swap1\n      0x0100\n      exp\n      swap1\n      div\n      0xffffffffffffffffffffffffffffffffffffffff\n      and\n        /* \"contracts/LiquidityPool.sol\":2270:2303  IERC20(reserveToken).transferFrom */\n      0xffffffffffffffffffffffffffffffffffffffff\n      and\n      0x23b872dd\n        /* \"contracts/LiquidityPool.sol\":2304:2314  msg.sender */\n      caller\n        /* \"contracts/LiquidityPool.sol\":2324:2328  this */\n      address\n        /* \"contracts/LiquidityPool.sol\":2331:2341  _DAIAmount */\n      dup5\n        /* \"contracts/LiquidityPool.sol\":2270:2342  IERC20(reserveToken).transferFrom(msg.sender, address(this), _DAIAmount) */\n      mload(0x40)\n      dup5\n      0xffffffff\n      and\n      0xe0\n      shl\n      dup2\n      mstore\n      0x04\n      add\n      tag_64\n      swap4\n      swap3\n      swap2\n      swap1\n      tag_65\n      jump\t// in\n    tag_64:\n      0x20\n      mload(0x40)\n      dup1\n      dup4\n      sub\n      dup2\n      0x00\n      dup8\n      gas\n      call\n      iszero\n      dup1\n      iszero\n      tag_67\n      jumpi\n      returndatasize\n      0x00\n      dup1\n      returndatacopy\n      revert(0x00, returndatasize)\n    tag_67:\n      pop\n      pop\n      pop\n      pop\n      mload(0x40)\n      returndatasize\n      not(0x1f)\n      0x1f\n      dup3\n      add\n      and\n      dup3\n      add\n      dup1\n      0x40\n      mstore\n      pop\n      dup2\n      add\n      swap1\n      tag_68\n      swap2\n      swap1\n      tag_53\n      jump\t// in\n    tag_68:\n      pop\n        /* \"contracts/LiquidityPool.sol\":2353:2365  bool success */\n      0x00\n        /* \"contracts/LiquidityPool.sol\":2379:2389  msg.sender */\n      caller\n        /* \"contracts/LiquidityPool.sol\":2371:2395  payable(msg.sender).call */\n      0xffffffffffffffffffffffffffffffffffffffff\n      and\n        /* \"contracts/LiquidityPool.sol\":2403:2413  _DAIAmount */\n      dup3\n        /* \"contracts/LiquidityPool.sol\":2371:2418  payable(msg.sender).call{value: _DAIAmount}(\"\") */\n      mload(0x40)\n      tag_69\n      swap1\n      tag_70\n      jump\t// in\n    tag_69:\n      0x00\n      mload(0x40)\n      dup1\n      dup4\n      sub\n      dup2\n      dup6\n      dup8\n      gas\n      call\n      swap3\n      pop\n      pop\n      pop\n      returndatasize\n      dup1\n      0x00\n      dup2\n      eq\n      tag_73\n      jumpi\n      mload(0x40)\n      swap2\n      pop\n      and(add(returndatasize, 0x3f), not(0x1f))\n      dup3\n      add\n      0x40\n      mstore\n      returndatasize\n      dup3\n      mstore\n      returndatasize\n      0x00\n      0x20\n      dup5\n      add\n      returndatacopy\n      jump(tag_72)\n    tag_73:\n      0x60\n      swap2\n      pop\n    tag_72:\n      pop\n        /* \"contracts/LiquidityPool.sol\":2352:2418  (bool success, ) = payable(msg.sender).call{value: _DAIAmount}(\"\") */\n      pop\n      swap1\n      pop\n        /* \"contracts/LiquidityPool.sol\":2436:2443  success */\n      dup1\n        /* \"contracts/LiquidityPool.sol\":2428:2463  require(success, \"Transfer Failed\") */\n      tag_74\n      jumpi\n      mload(0x40)\n      0x08c379a000000000000000000000000000000000000000000000000000000000\n      dup2\n      mstore\n      0x04\n      add\n      tag_75\n      swap1\n      tag_76\n      jump\t// in\n    tag_75:\n      mload(0x40)\n      dup1\n      swap2\n      sub\n      swap1\n      revert\n    tag_74:\n        /* \"contracts/LiquidityPool.sol\":2145:2470  {... */\n      pop\n        /* \"contracts/LiquidityPool.sol\":2102:2470  function getEth(uint256 _DAIAmount) public {... */\n      pop\n      jump\t// out\n        /* \"contracts/LiquidityPool.sol\":2788:3429  function swap(uint256 daiAmount) public payable{... */\n    tag_26:\n        /* \"contracts/LiquidityPool.sol\":3144:3145  0 */\n      0x00\n        /* \"contracts/LiquidityPool.sol\":3132:3141  msg.value */\n      callvalue\n        /* \"contracts/LiquidityPool.sol\":3132:3145  msg.value > 0 */\n      gt\n        /* \"contracts/LiquidityPool.sol\":3128:3423  if (msg.value > 0) {... */\n      iszero\n      tag_78\n      jumpi\n        /* \"contracts/LiquidityPool.sol\":3157:3175  uint256 tokenValue */\n      0x00\n        /* \"contracts/LiquidityPool.sol\":3186:3195  msg.value */\n      callvalue\n        /* \"contracts/LiquidityPool.sol\":3178:3183  kLast */\n      sload(0x01)\n        /* \"contracts/LiquidityPool.sol\":3178:3195  kLast / msg.value */\n      tag_79\n      swap2\n      swap1\n      tag_80\n      jump\t// in\n    tag_79:\n        /* \"contracts/LiquidityPool.sol\":3157:3195  uint256 tokenValue = kLast / msg.value */\n      swap1\n      pop\n        /* \"contracts/LiquidityPool.sol\":3212:3224  reserveToken */\n      0x00\n      dup1\n      sload\n      swap1\n      0x0100\n      exp\n      swap1\n      div\n      0xffffffffffffffffffffffffffffffffffffffff\n      and\n        /* \"contracts/LiquidityPool.sol\":3205:3234  IERC20(reserveToken).transfer */\n      0xffffffffffffffffffffffffffffffffffffffff\n      and\n      0xa9059cbb\n        /* \"contracts/LiquidityPool.sol\":3235:3245  msg.sender */\n      caller\n        /* \"contracts/LiquidityPool.sol\":3247:3257  tokenValue */\n      dup4\n        /* \"contracts/LiquidityPool.sol\":3205:3258  IERC20(reserveToken).transfer(msg.sender, tokenValue) */\n      mload(0x40)\n      dup4\n      0xffffffff\n      and\n      0xe0\n      shl\n      dup2\n      mstore\n      0x04\n      add\n      tag_81\n      swap3\n      swap2\n      swap1\n      tag_49\n      jump\t// in\n    tag_81:\n      0x20\n      mload(0x40)\n      dup1\n      dup4\n      sub\n      dup2\n      0x00\n      dup8\n      gas\n      call\n      iszero\n      dup1\n      iszero\n      tag_83\n      jumpi\n      returndatasize\n      0x00\n      dup1\n      returndatacopy\n      revert(0x00, returndatasize)\n    tag_83:\n      pop\n      pop\n      pop\n      pop\n      mload(0x40)\n      returndatasize\n      not(0x1f)\n      0x1f\n      dup3\n      add\n      and\n      dup3\n      add\n      dup1\n      0x40\n      mstore\n      pop\n      dup2\n      add\n      swap1\n      tag_84\n      swap2\n      swap1\n      tag_53\n      jump\t// in\n    tag_84:\n      pop\n        /* \"contracts/LiquidityPool.sol\":3147:3269  {... */\n      pop\n        /* \"contracts/LiquidityPool.sol\":3128:3423  if (msg.value > 0) {... */\n      jump(tag_85)\n    tag_78:\n        /* \"contracts/LiquidityPool.sol\":3298:3314  uint256 ethValue */\n      0x00\n        /* \"contracts/LiquidityPool.sol\":3325:3334  daiAmount */\n      dup2\n        /* \"contracts/LiquidityPool.sol\":3317:3322  kLast */\n      sload(0x01)\n        /* \"contracts/LiquidityPool.sol\":3317:3334  kLast / daiAmount */\n      tag_86\n      swap2\n      swap1\n      tag_80\n      jump\t// in\n    tag_86:\n        /* \"contracts/LiquidityPool.sol\":3298:3334  uint256 ethValue = kLast / daiAmount */\n      swap1\n      pop\n        /* \"contracts/LiquidityPool.sol\":3349:3361  bool success */\n      0x00\n        /* \"contracts/LiquidityPool.sol\":3375:3385  msg.sender */\n      caller\n        /* \"contracts/LiquidityPool.sol\":3367:3391  payable(msg.sender).call */\n      0xffffffffffffffffffffffffffffffffffffffff\n      and\n        /* \"contracts/LiquidityPool.sol\":3399:3407  ethValue */\n      dup3\n        /* \"contracts/LiquidityPool.sol\":3367:3412  payable(msg.sender).call{value: ethValue}(\"\") */\n      mload(0x40)\n      tag_87\n      swap1\n      tag_70\n      jump\t// in\n    tag_87:\n      0x00\n      mload(0x40)\n      dup1\n      dup4\n      sub\n      dup2\n      dup6\n      dup8\n      gas\n      call\n      swap3\n      pop\n      pop\n      pop\n      returndatasize\n      dup1\n      0x00\n      dup2\n      eq\n      tag_90\n      jumpi\n      mload(0x40)\n      swap2\n      pop\n      and(add(returndatasize, 0x3f), not(0x1f))\n      dup3\n      add\n      0x40\n      mstore\n      returndatasize\n      dup3\n      mstore\n      returndatasize\n      0x00\n      0x20\n      dup5\n      add\n      returndatacopy\n      jump(tag_89)\n    tag_90:\n      0x60\n      swap2\n      pop\n    tag_89:\n      pop\n        /* \"contracts/LiquidityPool.sol\":3348:3412  (bool success, ) = payable(msg.sender).call{value: ethValue}(\"\") */\n      pop\n      swap1\n      pop\n        /* \"contracts/LiquidityPool.sol\":3284:3423  {... */\n      pop\n      pop\n        /* \"contracts/LiquidityPool.sol\":3128:3423  if (msg.value > 0) {... */\n    tag_85:\n        /* \"contracts/LiquidityPool.sol\":2788:3429  function swap(uint256 daiAmount) public payable{... */\n      pop\n      jump\t// out\n        /* \"contracts/LiquidityPool.sol\":2663:2782  function transferTokens(address to, uint256 _amount) external {... */\n    tag_31:\n        /* \"contracts/LiquidityPool.sol\":761:803  0x39DB207Dff3411F4fab0483D419306873Cbc13d9 */\n      0x39db207dff3411f4fab0483d419306873cbc13d9\n        /* \"contracts/LiquidityPool.sol\":2735:2762  IERC20(ltrAddress).transfer */\n      0xffffffffffffffffffffffffffffffffffffffff\n      and\n      0xa9059cbb\n        /* \"contracts/LiquidityPool.sol\":2763:2765  to */\n      dup4\n        /* \"contracts/LiquidityPool.sol\":2767:2774  _amount */\n      dup4\n        /* \"contracts/LiquidityPool.sol\":2735:2775  IERC20(ltrAddress).transfer(to, _amount) */\n      mload(0x40)\n      dup4\n      0xffffffff\n      and\n      0xe0\n      shl\n      dup2\n      mstore\n      0x04\n      add\n      tag_92\n      swap3\n      swap2\n      swap1\n      tag_49\n      jump\t// in\n    tag_92:\n      0x20\n      mload(0x40)\n      dup1\n      dup4\n      sub\n      dup2\n      0x00\n      dup8\n      gas\n      call\n      iszero\n      dup1\n      iszero\n      tag_94\n      jumpi\n      returndatasize\n      0x00\n      dup1\n      returndatacopy\n      revert(0x00, returndatasize)\n    tag_94:\n      pop\n      pop\n      pop\n      pop\n      mload(0x40)\n      returndatasize\n      not(0x1f)\n      0x1f\n      dup3\n      add\n      and\n      dup3\n      add\n      dup1\n      0x40\n      mstore\n      pop\n      dup2\n      add\n      swap1\n      tag_95\n      swap2\n      swap1\n      tag_53\n      jump\t// in\n    tag_95:\n      pop\n        /* \"contracts/LiquidityPool.sol\":2663:2782  function transferTokens(address to, uint256 _amount) external {... */\n      pop\n      pop\n      jump\t// out\n        /* \"contracts/LiquidityPool.sol\":1049:1533  function provideLiquidity(uint256 _amount) external payable {... */\n    tag_34:\n        /* \"contracts/LiquidityPool.sol\":839:856  10000000000000000 */\n      0x2386f26fc10000\n        /* \"contracts/LiquidityPool.sol\":1127:1134  _amount */\n      dup2\n        /* \"contracts/LiquidityPool.sol\":1127:1148  _amount >= MINIMUMETH */\n      lt\n      iszero\n        /* \"contracts/LiquidityPool.sol\":1119:1200  require(_amount >= MINIMUMETH, \"Liquidity provided should be greater than 1 ETH\") */\n      tag_97\n      jumpi\n      mload(0x40)\n      0x08c379a000000000000000000000000000000000000000000000000000000000\n      dup2\n      mstore\n      0x04\n      add\n      tag_98\n      swap1\n      tag_99\n      jump\t// in\n    tag_98:\n      mload(0x40)\n      dup1\n      swap2\n      sub\n      swap1\n      revert\n    tag_97:\n        /* \"contracts/LiquidityPool.sol\":1295:1307  reserveToken */\n      0x00\n      dup1\n      sload\n      swap1\n      0x0100\n      exp\n      swap1\n      div\n      0xffffffffffffffffffffffffffffffffffffffff\n      and\n        /* \"contracts/LiquidityPool.sol\":1288:1321  IERC20(reserveToken).transferFrom */\n      0xffffffffffffffffffffffffffffffffffffffff\n      and\n      0x23b872dd\n        /* \"contracts/LiquidityPool.sol\":1322:1332  msg.sender */\n      caller\n        /* \"contracts/LiquidityPool.sol\":1342:1346  this */\n      address\n        /* \"contracts/LiquidityPool.sol\":1349:1356  _amount */\n      dup5\n        /* \"contracts/LiquidityPool.sol\":1288:1357  IERC20(reserveToken).transferFrom(msg.sender, address(this), _amount) */\n      mload(0x40)\n      dup5\n      0xffffffff\n      and\n      0xe0\n      shl\n      dup2\n      mstore\n      0x04\n      add\n      tag_100\n      swap4\n      swap3\n      swap2\n      swap1\n      tag_65\n      jump\t// in\n    tag_100:\n      0x20\n      mload(0x40)\n      dup1\n      dup4\n      sub\n      dup2\n      0x00\n      dup8\n      gas\n      call\n      iszero\n      dup1\n      iszero\n      tag_102\n      jumpi\n      returndatasize\n      0x00\n      dup1\n      returndatacopy\n      revert(0x00, returndatasize)\n    tag_102:\n      pop\n      pop\n      pop\n      pop\n      mload(0x40)\n      returndatasize\n      not(0x1f)\n      0x1f\n      dup3\n      add\n      and\n      dup3\n      add\n      dup1\n      0x40\n      mstore\n      pop\n      dup2\n      add\n      swap1\n      tag_103\n      swap2\n      swap1\n      tag_53\n      jump\t// in\n    tag_103:\n      pop\n        /* \"contracts/LiquidityPool.sol\":1385:1406  address(this).balance */\n      selfbalance\n        /* \"contracts/LiquidityPool.sol\":1375:1382  _amount */\n      dup2\n        /* \"contracts/LiquidityPool.sol\":1375:1406  _amount * address(this).balance */\n      tag_104\n      swap2\n      swap1\n      tag_105\n      jump\t// in\n    tag_104:\n        /* \"contracts/LiquidityPool.sol\":1367:1372  kLast */\n      0x01\n        /* \"contracts/LiquidityPool.sol\":1367:1406  kLast = _amount * address(this).balance */\n      dup2\n      swap1\n      sstore\n      pop\n        /* \"contracts/LiquidityPool.sol\":761:803  0x39DB207Dff3411F4fab0483D419306873Cbc13d9 */\n      0x39db207dff3411f4fab0483d419306873cbc13d9\n        /* \"contracts/LiquidityPool.sol\":1416:1443  IERC20(ltrAddress).transfer */\n      0xffffffffffffffffffffffffffffffffffffffff\n      and\n      0xa9059cbb\n        /* \"contracts/LiquidityPool.sol\":1444:1454  msg.sender */\n      caller\n        /* \"contracts/LiquidityPool.sol\":1456:1472  Math.sqrt(kLast) */\n      tag_106\n        /* \"contracts/LiquidityPool.sol\":1466:1471  kLast */\n      sload(0x01)\n        /* \"contracts/LiquidityPool.sol\":1456:1465  Math.sqrt */\n      tag_107\n        /* \"contracts/LiquidityPool.sol\":1456:1472  Math.sqrt(kLast) */\n      jump\t// in\n    tag_106:\n        /* \"contracts/LiquidityPool.sol\":1416:1473  IERC20(ltrAddress).transfer(msg.sender, Math.sqrt(kLast)) */\n      mload(0x40)\n      dup4\n      0xffffffff\n      and\n      0xe0\n      shl\n      dup2\n      mstore\n      0x04\n      add\n      tag_108\n      swap3\n      swap2\n      swap1\n      tag_49\n      jump\t// in\n    tag_108:\n      0x20\n      mload(0x40)\n      dup1\n      dup4\n      sub\n      dup2\n      0x00\n      dup8\n      gas\n      call\n      iszero\n      dup1\n      iszero\n      tag_110\n      jumpi\n      returndatasize\n      0x00\n      dup1\n      returndatacopy\n      revert(0x00, returndatasize)\n    tag_110:\n      pop\n      pop\n      pop\n      pop\n      mload(0x40)\n      returndatasize\n      not(0x1f)\n      0x1f\n      dup3\n      add\n      and\n      dup3\n      add\n      dup1\n      0x40\n      mstore\n      pop\n      dup2\n      add\n      swap1\n      tag_111\n      swap2\n      swap1\n      tag_53\n      jump\t// in\n    tag_111:\n      pop\n        /* \"contracts/LiquidityPool.sol\":1488:1526  liquidityProvided(msg.sender, _amount) */\n      0xb62268a18d99fe191ac8e62f823ab1eec698609a81b2c8de3dac902896b09da6\n        /* \"contracts/LiquidityPool.sol\":1506:1516  msg.sender */\n      caller\n        /* \"contracts/LiquidityPool.sol\":1518:1525  _amount */\n      dup3\n        /* \"contracts/LiquidityPool.sol\":1488:1526  liquidityProvided(msg.sender, _amount) */\n      mload(0x40)\n      tag_112\n      swap3\n      swap2\n      swap1\n      tag_49\n      jump\t// in\n    tag_112:\n      mload(0x40)\n      dup1\n      swap2\n      sub\n      swap1\n      log1\n        /* \"contracts/LiquidityPool.sol\":1049:1533  function provideLiquidity(uint256 _amount) external payable {... */\n      pop\n      jump\t// out\n        /* \"contracts/LiquidityPool.sol\":698:725  address public reserveToken */\n    tag_37:\n      0x00\n      dup1\n      sload\n      swap1\n      0x0100\n      exp\n      swap1\n      div\n      0xffffffffffffffffffffffffffffffffffffffff\n      and\n      dup2\n      jump\t// out\n        /* \"contracts/LiquidityPool.sol\":1539:2096  function reedemShares(uint256 _sharesAmount) public {... */\n    tag_43:\n        /* \"contracts/LiquidityPool.sol\":1625:1626  0 */\n      0x00\n        /* \"contracts/LiquidityPool.sol\":1609:1622  _sharesAmount */\n      dup2\n        /* \"contracts/LiquidityPool.sol\":1609:1626  _sharesAmount > 0 */\n      gt\n        /* \"contracts/LiquidityPool.sol\":1601:1655  require(_sharesAmount > 0, \"Invalid amount of shares\") */\n      tag_114\n      jumpi\n      mload(0x40)\n      0x08c379a000000000000000000000000000000000000000000000000000000000\n      dup2\n      mstore\n      0x04\n      add\n      tag_115\n      swap1\n      tag_116\n      jump\t// in\n    tag_115:\n      mload(0x40)\n      dup1\n      swap2\n      sub\n      swap1\n      revert\n    tag_114:\n        /* \"contracts/LiquidityPool.sol\":1732:1745  _sharesAmount */\n      dup1\n        /* \"contracts/LiquidityPool.sol\":761:803  0x39DB207Dff3411F4fab0483D419306873Cbc13d9 */\n      0x39db207dff3411f4fab0483d419306873cbc13d9\n        /* \"contracts/LiquidityPool.sol\":1673:1701  IERC20(ltrAddress).allowance */\n      0xffffffffffffffffffffffffffffffffffffffff\n      and\n      0xdd62ed3e\n        /* \"contracts/LiquidityPool.sol\":1702:1712  msg.sender */\n      caller\n        /* \"contracts/LiquidityPool.sol\":1722:1726  this */\n      address\n        /* \"contracts/LiquidityPool.sol\":1673:1728  IERC20(ltrAddress).allowance(msg.sender, address(this)) */\n      mload(0x40)\n      dup4\n      0xffffffff\n      and\n      0xe0\n      shl\n      dup2\n      mstore\n      0x04\n      add\n      tag_117\n      swap3\n      swap2\n      swap1\n      tag_56\n      jump\t// in\n    tag_117:\n      0x20\n      mload(0x40)\n      dup1\n      dup4\n      sub\n      dup2\n      dup7\n      gas\n      staticcall\n      iszero\n      dup1\n      iszero\n      tag_119\n      jumpi\n      returndatasize\n      0x00\n      dup1\n      returndatacopy\n      revert(0x00, returndatasize)\n    tag_119:\n      pop\n      pop\n      pop\n      pop\n      mload(0x40)\n      returndatasize\n      not(0x1f)\n      0x1f\n      dup3\n      add\n      and\n      dup3\n      add\n      dup1\n      0x40\n      mstore\n      pop\n      dup2\n      add\n      swap1\n      tag_120\n      swap2\n      swap1\n      tag_60\n      jump\t// in\n    tag_120:\n        /* \"contracts/LiquidityPool.sol\":1673:1745  IERC20(ltrAddress).allowance(msg.sender, address(this)) >= _sharesAmount */\n      lt\n      iszero\n        /* \"contracts/LiquidityPool.sol\":1665:1815  require(IERC20(ltrAddress).allowance(msg.sender, address(this)) >= _sharesAmount, \"Please approve the contract to deduct ltr tokens from your wallet\") */\n      tag_121\n      jumpi\n      mload(0x40)\n      0x08c379a000000000000000000000000000000000000000000000000000000000\n      dup2\n      mstore\n      0x04\n      add\n      tag_122\n      swap1\n      tag_123\n      jump\t// in\n    tag_122:\n      mload(0x40)\n      dup1\n      swap2\n      sub\n      swap1\n      revert\n    tag_121:\n        /* \"contracts/LiquidityPool.sol\":761:803  0x39DB207Dff3411F4fab0483D419306873Cbc13d9 */\n      0x39db207dff3411f4fab0483d419306873cbc13d9\n        /* \"contracts/LiquidityPool.sol\":1826:1857  IERC20(ltrAddress).transferFrom */\n      0xffffffffffffffffffffffffffffffffffffffff\n      and\n      0x23b872dd\n        /* \"contracts/LiquidityPool.sol\":1858:1868  msg.sender */\n      caller\n        /* \"contracts/LiquidityPool.sol\":1878:1882  this */\n      address\n        /* \"contracts/LiquidityPool.sol\":1885:1898  _sharesAmount */\n      dup5\n        /* \"contracts/LiquidityPool.sol\":1826:1899  IERC20(ltrAddress).transferFrom(msg.sender, address(this), _sharesAmount) */\n      mload(0x40)\n      dup5\n      0xffffffff\n      and\n      0xe0\n      shl\n      dup2\n      mstore\n      0x04\n      add\n      tag_124\n      swap4\n      swap3\n      swap2\n      swap1\n      tag_65\n      jump\t// in\n    tag_124:\n      0x20\n      mload(0x40)\n      dup1\n      dup4\n      sub\n      dup2\n      0x00\n      dup8\n      gas\n      call\n      iszero\n      dup1\n      iszero\n      tag_126\n      jumpi\n      returndatasize\n      0x00\n      dup1\n      returndatacopy\n      revert(0x00, returndatasize)\n    tag_126:\n      pop\n      pop\n      pop\n      pop\n      mload(0x40)\n      returndatasize\n      not(0x1f)\n      0x1f\n      dup3\n      add\n      and\n      dup3\n      add\n      dup1\n      0x40\n      mstore\n      pop\n      dup2\n      add\n      swap1\n      tag_127\n      swap2\n      swap1\n      tag_53\n      jump\t// in\n    tag_127:\n      pop\n        /* \"contracts/LiquidityPool.sol\":1916:1928  reserveToken */\n      0x00\n      dup1\n      sload\n      swap1\n      0x0100\n      exp\n      swap1\n      div\n      0xffffffffffffffffffffffffffffffffffffffff\n      and\n        /* \"contracts/LiquidityPool.sol\":1909:1938  IERC20(reserveToken).transfer */\n      0xffffffffffffffffffffffffffffffffffffffff\n      and\n      0xa9059cbb\n        /* \"contracts/LiquidityPool.sol\":1939:1949  msg.sender */\n      caller\n        /* \"contracts/LiquidityPool.sol\":1951:1964  _sharesAmount */\n      dup4\n        /* \"contracts/LiquidityPool.sol\":1909:1965  IERC20(reserveToken).transfer(msg.sender, _sharesAmount) */\n      mload(0x40)\n      dup4\n      0xffffffff\n      and\n      0xe0\n      shl\n      dup2\n      mstore\n      0x04\n      add\n      tag_128\n      swap3\n      swap2\n      swap1\n      tag_49\n      jump\t// in\n    tag_128:\n      0x20\n      mload(0x40)\n      dup1\n      dup4\n      sub\n      dup2\n      0x00\n      dup8\n      gas\n      call\n      iszero\n      dup1\n      iszero\n      tag_130\n      jumpi\n      returndatasize\n      0x00\n      dup1\n      returndatacopy\n      revert(0x00, returndatasize)\n    tag_130:\n      pop\n      pop\n      pop\n      pop\n      mload(0x40)\n      returndatasize\n      not(0x1f)\n      0x1f\n      dup3\n      add\n      and\n      dup3\n      add\n      dup1\n      0x40\n      mstore\n      pop\n      dup2\n      add\n      swap1\n      tag_131\n      swap2\n      swap1\n      tag_53\n      jump\t// in\n    tag_131:\n      pop\n        /* \"contracts/LiquidityPool.sol\":1976:1988  bool success */\n      0x00\n        /* \"contracts/LiquidityPool.sol\":2002:2012  msg.sender */\n      caller\n        /* \"contracts/LiquidityPool.sol\":1994:2018  payable(msg.sender).call */\n      0xffffffffffffffffffffffffffffffffffffffff\n      and\n        /* \"contracts/LiquidityPool.sol\":2026:2039  _sharesAmount */\n      dup3\n        /* \"contracts/LiquidityPool.sol\":1994:2044  payable(msg.sender).call{value: _sharesAmount}(\"\") */\n      mload(0x40)\n      tag_132\n      swap1\n      tag_70\n      jump\t// in\n    tag_132:\n      0x00\n      mload(0x40)\n      dup1\n      dup4\n      sub\n      dup2\n      dup6\n      dup8\n      gas\n      call\n      swap3\n      pop\n      pop\n      pop\n      returndatasize\n      dup1\n      0x00\n      dup2\n      eq\n      tag_135\n      jumpi\n      mload(0x40)\n      swap2\n      pop\n      and(add(returndatasize, 0x3f), not(0x1f))\n      dup3\n      add\n      0x40\n      mstore\n      returndatasize\n      dup3\n      mstore\n      returndatasize\n      0x00\n      0x20\n      dup5\n      add\n      returndatacopy\n      jump(tag_134)\n    tag_135:\n      0x60\n      swap2\n      pop\n    tag_134:\n      pop\n        /* \"contracts/LiquidityPool.sol\":1975:2044  (bool success, ) = payable(msg.sender).call{value: _sharesAmount}(\"\") */\n      pop\n      swap1\n      pop\n        /* \"contracts/LiquidityPool.sol\":2062:2069  success */\n      dup1\n        /* \"contracts/LiquidityPool.sol\":2054:2089  require(success, \"Transfer failed\") */\n      tag_136\n      jumpi\n      mload(0x40)\n      0x08c379a000000000000000000000000000000000000000000000000000000000\n      dup2\n      mstore\n      0x04\n      add\n      tag_137\n      swap1\n      tag_138\n      jump\t// in\n    tag_137:\n      mload(0x40)\n      dup1\n      swap2\n      sub\n      swap1\n      revert\n    tag_136:\n        /* \"contracts/LiquidityPool.sol\":1591:2096  {... */\n      pop\n        /* \"contracts/LiquidityPool.sol\":1539:2096  function reedemShares(uint256 _sharesAmount) public {... */\n      pop\n      jump\t// out\n        /* \"@openzeppelin/contracts/utils/math/Math.sol\":6281:8487  function sqrt(uint256 a) internal pure returns (uint256) {... */\n    tag_107:\n        /* \"@openzeppelin/contracts/utils/math/Math.sol\":6329:6336  uint256 */\n      0x00\n        /* \"@openzeppelin/contracts/utils/math/Math.sol\":6357:6358  0 */\n      dup1\n        /* \"@openzeppelin/contracts/utils/math/Math.sol\":6352:6353  a */\n      dup3\n        /* \"@openzeppelin/contracts/utils/math/Math.sol\":6352:6358  a == 0 */\n      sub\n        /* \"@openzeppelin/contracts/utils/math/Math.sol\":6348:6393  if (a == 0) {... */\n      tag_140\n      jumpi\n        /* \"@openzeppelin/contracts/utils/math/Math.sol\":6381:6382  0 */\n      0x00\n        /* \"@openzeppelin/contracts/utils/math/Math.sol\":6374:6382  return 0 */\n      swap1\n      pop\n      jump(tag_139)\n        /* \"@openzeppelin/contracts/utils/math/Math.sol\":6348:6393  if (a == 0) {... */\n    tag_140:\n        /* \"@openzeppelin/contracts/utils/math/Math.sol\":7058:7072  uint256 result */\n      0x00\n        /* \"@openzeppelin/contracts/utils/math/Math.sol\":7075:7076  1 */\n      0x01\n        /* \"@openzeppelin/contracts/utils/math/Math.sol\":7058:7076  uint256 result = 1 */\n      swap1\n      pop\n        /* \"@openzeppelin/contracts/utils/math/Math.sol\":7086:7095  uint256 x */\n      0x00\n        /* \"@openzeppelin/contracts/utils/math/Math.sol\":7098:7099  a */\n      dup4\n        /* \"@openzeppelin/contracts/utils/math/Math.sol\":7086:7099  uint256 x = a */\n      swap1\n      pop\n        /* \"@openzeppelin/contracts/utils/math/Math.sol\":7124:7125  0 */\n      0x00\n        /* \"@openzeppelin/contracts/utils/math/Math.sol\":7118:7121  128 */\n      0x80\n        /* \"@openzeppelin/contracts/utils/math/Math.sol\":7113:7114  x */\n      dup3\n        /* \"@openzeppelin/contracts/utils/math/Math.sol\":7113:7121  x >> 128 */\n      swap1\n      shr\n        /* \"@openzeppelin/contracts/utils/math/Math.sol\":7113:7125  x >> 128 > 0 */\n      gt\n        /* \"@openzeppelin/contracts/utils/math/Math.sol\":7109:7188  if (x >> 128 > 0) {... */\n      iszero\n      tag_141\n      jumpi\n        /* \"@openzeppelin/contracts/utils/math/Math.sol\":7147:7150  128 */\n      0x80\n        /* \"@openzeppelin/contracts/utils/math/Math.sol\":7141:7150  x >>= 128 */\n      dup2\n      swap1\n      shr\n      swap1\n      pop\n        /* \"@openzeppelin/contracts/utils/math/Math.sol\":7175:7177  64 */\n      0x40\n        /* \"@openzeppelin/contracts/utils/math/Math.sol\":7164:7177  result <<= 64 */\n      dup3\n      swap1\n      shl\n      swap2\n      pop\n        /* \"@openzeppelin/contracts/utils/math/Math.sol\":7109:7188  if (x >> 128 > 0) {... */\n    tag_141:\n        /* \"@openzeppelin/contracts/utils/math/Math.sol\":7211:7212  0 */\n      0x00\n        /* \"@openzeppelin/contracts/utils/math/Math.sol\":7206:7208  64 */\n      0x40\n        /* \"@openzeppelin/contracts/utils/math/Math.sol\":7201:7202  x */\n      dup3\n        /* \"@openzeppelin/contracts/utils/math/Math.sol\":7201:7208  x >> 64 */\n      swap1\n      shr\n        /* \"@openzeppelin/contracts/utils/math/Math.sol\":7201:7212  x >> 64 > 0 */\n      gt\n        /* \"@openzeppelin/contracts/utils/math/Math.sol\":7197:7274  if (x >> 64 > 0) {... */\n      iszero\n      tag_142\n      jumpi\n        /* \"@openzeppelin/contracts/utils/math/Math.sol\":7234:7236  64 */\n      0x40\n        /* \"@openzeppelin/contracts/utils/math/Math.sol\":7228:7236  x >>= 64 */\n      dup2\n      swap1\n      shr\n      swap1\n      pop\n        /* \"@openzeppelin/contracts/utils/math/Math.sol\":7261:7263  32 */\n      0x20\n        /* \"@openzeppelin/contracts/utils/math/Math.sol\":7250:7263  result <<= 32 */\n      dup3\n      swap1\n      shl\n      swap2\n      pop\n        /* \"@openzeppelin/contracts/utils/math/Math.sol\":7197:7274  if (x >> 64 > 0) {... */\n    tag_142:\n        /* \"@openzeppelin/contracts/utils/math/Math.sol\":7297:7298  0 */\n      0x00\n        /* \"@openzeppelin/contracts/utils/math/Math.sol\":7292:7294  32 */\n      0x20\n        /* \"@openzeppelin/contracts/utils/math/Math.sol\":7287:7288  x */\n      dup3\n        /* \"@openzeppelin/contracts/utils/math/Math.sol\":7287:7294  x >> 32 */\n      swap1\n      shr\n        /* \"@openzeppelin/contracts/utils/math/Math.sol\":7287:7298  x >> 32 > 0 */\n      gt\n        /* \"@openzeppelin/contracts/utils/math/Math.sol\":7283:7360  if (x >> 32 > 0) {... */\n      iszero\n      tag_143\n      jumpi\n        /* \"@openzeppelin/contracts/utils/math/Math.sol\":7320:7322  32 */\n      0x20\n        /* \"@openzeppelin/contracts/utils/math/Math.sol\":7314:7322  x >>= 32 */\n      dup2\n      swap1\n      shr\n      swap1\n      pop\n        /* \"@openzeppelin/contracts/utils/math/Math.sol\":7347:7349  16 */\n      0x10\n        /* \"@openzeppelin/contracts/utils/math/Math.sol\":7336:7349  result <<= 16 */\n      dup3\n      swap1\n      shl\n      swap2\n      pop\n        /* \"@openzeppelin/contracts/utils/math/Math.sol\":7283:7360  if (x >> 32 > 0) {... */\n    tag_143:\n        /* \"@openzeppelin/contracts/utils/math/Math.sol\":7383:7384  0 */\n      0x00\n        /* \"@openzeppelin/contracts/utils/math/Math.sol\":7378:7380  16 */\n      0x10\n        /* \"@openzeppelin/contracts/utils/math/Math.sol\":7373:7374  x */\n      dup3\n        /* \"@openzeppelin/contracts/utils/math/Math.sol\":7373:7380  x >> 16 */\n      swap1\n      shr\n        /* \"@openzeppelin/contracts/utils/math/Math.sol\":7373:7384  x >> 16 > 0 */\n      gt\n        /* \"@openzeppelin/contracts/utils/math/Math.sol\":7369:7445  if (x >> 16 > 0) {... */\n      iszero\n      tag_144\n      jumpi\n        /* \"@openzeppelin/contracts/utils/math/Math.sol\":7406:7408  16 */\n      0x10\n        /* \"@openzeppelin/contracts/utils/math/Math.sol\":7400:7408  x >>= 16 */\n      dup2\n      swap1\n      shr\n      swap1\n      pop\n        /* \"@openzeppelin/contracts/utils/math/Math.sol\":7433:7434  8 */\n      0x08\n        /* \"@openzeppelin/contracts/utils/math/Math.sol\":7422:7434  result <<= 8 */\n      dup3\n      swap1\n      shl\n      swap2\n      pop\n        /* \"@openzeppelin/contracts/utils/math/Math.sol\":7369:7445  if (x >> 16 > 0) {... */\n    tag_144:\n        /* \"@openzeppelin/contracts/utils/math/Math.sol\":7467:7468  0 */\n      0x00\n        /* \"@openzeppelin/contracts/utils/math/Math.sol\":7463:7464  8 */\n      0x08\n        /* \"@openzeppelin/contracts/utils/math/Math.sol\":7458:7459  x */\n      dup3\n        /* \"@openzeppelin/contracts/utils/math/Math.sol\":7458:7464  x >> 8 */\n      swap1\n      shr\n        /* \"@openzeppelin/contracts/utils/math/Math.sol\":7458:7468  x >> 8 > 0 */\n      gt\n        /* \"@openzeppelin/contracts/utils/math/Math.sol\":7454:7528  if (x >> 8 > 0) {... */\n      iszero\n      tag_145\n      jumpi\n        /* \"@openzeppelin/contracts/utils/math/Math.sol\":7490:7491  8 */\n      0x08\n        /* \"@openzeppelin/contracts/utils/math/Math.sol\":7484:7491  x >>= 8 */\n      dup2\n      swap1\n      shr\n      swap1\n      pop\n        /* \"@openzeppelin/contracts/utils/math/Math.sol\":7516:7517  4 */\n      0x04\n        /* \"@openzeppelin/contracts/utils/math/Math.sol\":7505:7517  result <<= 4 */\n      dup3\n      swap1\n      shl\n      swap2\n      pop\n        /* \"@openzeppelin/contracts/utils/math/Math.sol\":7454:7528  if (x >> 8 > 0) {... */\n    tag_145:\n        /* \"@openzeppelin/contracts/utils/math/Math.sol\":7550:7551  0 */\n      0x00\n        /* \"@openzeppelin/contracts/utils/math/Math.sol\":7546:7547  4 */\n      0x04\n        /* \"@openzeppelin/contracts/utils/math/Math.sol\":7541:7542  x */\n      dup3\n        /* \"@openzeppelin/contracts/utils/math/Math.sol\":7541:7547  x >> 4 */\n      swap1\n      shr\n        /* \"@openzeppelin/contracts/utils/math/Math.sol\":7541:7551  x >> 4 > 0 */\n      gt\n        /* \"@openzeppelin/contracts/utils/math/Math.sol\":7537:7611  if (x >> 4 > 0) {... */\n      iszero\n      tag_146\n      jumpi\n        /* \"@openzeppelin/contracts/utils/math/Math.sol\":7573:7574  4 */\n      0x04\n        /* \"@openzeppelin/contracts/utils/math/Math.sol\":7567:7574  x >>= 4 */\n      dup2\n      swap1\n      shr\n      swap1\n      pop\n        /* \"@openzeppelin/contracts/utils/math/Math.sol\":7599:7600  2 */\n      0x02\n        /* \"@openzeppelin/contracts/utils/math/Math.sol\":7588:7600  result <<= 2 */\n      dup3\n      swap1\n      shl\n      swap2\n      pop\n        /* \"@openzeppelin/contracts/utils/math/Math.sol\":7537:7611  if (x >> 4 > 0) {... */\n    tag_146:\n        /* \"@openzeppelin/contracts/utils/math/Math.sol\":7633:7634  0 */\n      0x00\n        /* \"@openzeppelin/contracts/utils/math/Math.sol\":7629:7630  2 */\n      0x02\n        /* \"@openzeppelin/contracts/utils/math/Math.sol\":7624:7625  x */\n      dup3\n        /* \"@openzeppelin/contracts/utils/math/Math.sol\":7624:7630  x >> 2 */\n      swap1\n      shr\n        /* \"@openzeppelin/contracts/utils/math/Math.sol\":7624:7634  x >> 2 > 0 */\n      gt\n        /* \"@openzeppelin/contracts/utils/math/Math.sol\":7620:7673  if (x >> 2 > 0) {... */\n      iszero\n      tag_147\n      jumpi\n        /* \"@openzeppelin/contracts/utils/math/Math.sol\":7661:7662  1 */\n      0x01\n        /* \"@openzeppelin/contracts/utils/math/Math.sol\":7650:7662  result <<= 1 */\n      dup3\n      swap1\n      shl\n      swap2\n      pop\n        /* \"@openzeppelin/contracts/utils/math/Math.sol\":7620:7673  if (x >> 2 > 0) {... */\n    tag_147:\n        /* \"@openzeppelin/contracts/utils/math/Math.sol\":8131:8132  1 */\n      0x01\n        /* \"@openzeppelin/contracts/utils/math/Math.sol\":8120:8126  result */\n      dup3\n        /* \"@openzeppelin/contracts/utils/math/Math.sol\":8116:8117  a */\n      dup6\n        /* \"@openzeppelin/contracts/utils/math/Math.sol\":8116:8126  a / result */\n      dup2\n      tag_148\n      jumpi\n      tag_149\n      tag_150\n      jump\t// in\n    tag_149:\n    tag_148:\n      div\n        /* \"@openzeppelin/contracts/utils/math/Math.sol\":8107:8113  result */\n      dup4\n        /* \"@openzeppelin/contracts/utils/math/Math.sol\":8107:8126  result + a / result */\n      add\n        /* \"@openzeppelin/contracts/utils/math/Math.sol\":8106:8132  (result + a / result) >> 1 */\n      swap1\n      shr\n        /* \"@openzeppelin/contracts/utils/math/Math.sol\":8097:8132  result = (result + a / result) >> 1 */\n      swap2\n      pop\n        /* \"@openzeppelin/contracts/utils/math/Math.sol\":8180:8181  1 */\n      0x01\n        /* \"@openzeppelin/contracts/utils/math/Math.sol\":8169:8175  result */\n      dup3\n        /* \"@openzeppelin/contracts/utils/math/Math.sol\":8165:8166  a */\n      dup6\n        /* \"@openzeppelin/contracts/utils/math/Math.sol\":8165:8175  a / result */\n      dup2\n      tag_151\n      jumpi\n      tag_152\n      tag_150\n      jump\t// in\n    tag_152:\n    tag_151:\n      div\n        /* \"@openzeppelin/contracts/utils/math/Math.sol\":8156:8162  result */\n      dup4\n        /* \"@openzeppelin/contracts/utils/math/Math.sol\":8156:8175  result + a / result */\n      add\n        /* \"@openzeppelin/contracts/utils/math/Math.sol\":8155:8181  (result + a / result) >> 1 */\n      swap1\n      shr\n        /* \"@openzeppelin/contracts/utils/math/Math.sol\":8146:8181  result = (result + a / result) >> 1 */\n      swap2\n      pop\n        /* \"@openzeppelin/contracts/utils/math/Math.sol\":8229:8230  1 */\n      0x01\n        /* \"@openzeppelin/contracts/utils/math/Math.sol\":8218:8224  result */\n      dup3\n        /* \"@openzeppelin/contracts/utils/math/Math.sol\":8214:8215  a */\n      dup6\n        /* \"@openzeppelin/contracts/utils/math/Math.sol\":8214:8224  a / result */\n      dup2\n      tag_153\n      jumpi\n      tag_154\n      tag_150\n      jump\t// in\n    tag_154:\n    tag_153:\n      div\n        /* \"@openzeppelin/contracts/utils/math/Math.sol\":8205:8211  result */\n      dup4\n        /* \"@openzeppelin/contracts/utils/math/Math.sol\":8205:8224  result + a / result */\n      add\n        /* \"@openzeppelin/contracts/utils/math/Math.sol\":8204:8230  (result + a / result) >> 1 */\n      swap1\n      shr\n        /* \"@openzeppelin/contracts/utils/math/Math.sol\":8195:8230  result = (result + a / result) >> 1 */\n      swap2\n      pop\n        /* \"@openzeppelin/contracts/utils/math/Math.sol\":8278:8279  1 */\n      0x01\n        /* \"@openzeppelin/contracts/utils/math/Math.sol\":8267:8273  result */\n      dup3\n        /* \"@openzeppelin/contracts/utils/math/Math.sol\":8263:8264  a */\n      dup6\n        /* \"@openzeppelin/contracts/utils/math/Math.sol\":8263:8273  a / result */\n      dup2\n      tag_155\n      jumpi\n      tag_156\n      tag_150\n      jump\t// in\n    tag_156:\n    tag_155:\n      div\n        /* \"@openzeppelin/contracts/utils/math/Math.sol\":8254:8260  result */\n      dup4\n        /* \"@openzeppelin/contracts/utils/math/Math.sol\":8254:8273  result + a / result */\n      add\n        /* \"@openzeppelin/contracts/utils/math/Math.sol\":8253:8279  (result + a / result) >> 1 */\n      swap1\n      shr\n        /* \"@openzeppelin/contracts/utils/math/Math.sol\":8244:8279  result = (result + a / result) >> 1 */\n      swap2\n      pop\n        /* \"@openzeppelin/contracts/utils/math/Math.sol\":8327:8328  1 */\n      0x01\n        /* \"@openzeppelin/contracts/utils/math/Math.sol\":8316:8322  result */\n      dup3\n        /* \"@openzeppelin/contracts/utils/math/Math.sol\":8312:8313  a */\n      dup6\n        /* \"@openzeppelin/contracts/utils/math/Math.sol\":8312:8322  a / result */\n      dup2\n      tag_157\n      jumpi\n      tag_158\n      tag_150\n      jump\t// in\n    tag_158:\n    tag_157:\n      div\n        /* \"@openzeppelin/contracts/utils/math/Math.sol\":8303:8309  result */\n      dup4\n        /* \"@openzeppelin/contracts/utils/math/Math.sol\":8303:8322  result + a / result */\n      add\n        /* \"@openzeppelin/contracts/utils/math/Math.sol\":8302:8328  (result + a / result) >> 1 */\n      swap1\n      shr\n        /* \"@openzeppelin/contracts/utils/math/Math.sol\":8293:8328  result = (result + a / result) >> 1 */\n      swap2\n      pop\n        /* \"@openzeppelin/contracts/utils/math/Math.sol\":8376:8377  1 */\n      0x01\n        /* \"@openzeppelin/contracts/utils/math/Math.sol\":8365:8371  result */\n      dup3\n        /* \"@openzeppelin/contracts/utils/math/Math.sol\":8361:8362  a */\n      dup6\n        /* \"@openzeppelin/contracts/utils/math/Math.sol\":8361:8371  a / result */\n      dup2\n      tag_159\n      jumpi\n      tag_160\n      tag_150\n      jump\t// in\n    tag_160:\n    tag_159:\n      div\n        /* \"@openzeppelin/contracts/utils/math/Math.sol\":8352:8358  result */\n      dup4\n        /* \"@openzeppelin/contracts/utils/math/Math.sol\":8352:8371  result + a / result */\n      add\n        /* \"@openzeppelin/contracts/utils/math/Math.sol\":8351:8377  (result + a / result) >> 1 */\n      swap1\n      shr\n        /* \"@openzeppelin/contracts/utils/math/Math.sol\":8342:8377  result = (result + a / result) >> 1 */\n      swap2\n      pop\n        /* \"@openzeppelin/contracts/utils/math/Math.sol\":8425:8426  1 */\n      0x01\n        /* \"@openzeppelin/contracts/utils/math/Math.sol\":8414:8420  result */\n      dup3\n        /* \"@openzeppelin/contracts/utils/math/Math.sol\":8410:8411  a */\n      dup6\n        /* \"@openzeppelin/contracts/utils/math/Math.sol\":8410:8420  a / result */\n      dup2\n      tag_161\n      jumpi\n      tag_162\n      tag_150\n      jump\t// in\n    tag_162:\n    tag_161:\n      div\n        /* \"@openzeppelin/contracts/utils/math/Math.sol\":8401:8407  result */\n      dup4\n        /* \"@openzeppelin/contracts/utils/math/Math.sol\":8401:8420  result + a / result */\n      add\n        /* \"@openzeppelin/contracts/utils/math/Math.sol\":8400:8426  (result + a / result) >> 1 */\n      swap1\n      shr\n        /* \"@openzeppelin/contracts/utils/math/Math.sol\":8391:8426  result = (result + a / result) >> 1 */\n      swap2\n      pop\n        /* \"@openzeppelin/contracts/utils/math/Math.sol\":8447:8470  min(result, a / result) */\n      tag_163\n        /* \"@openzeppelin/contracts/utils/math/Math.sol\":8451:8457  result */\n      dup3\n        /* \"@openzeppelin/contracts/utils/math/Math.sol\":8463:8469  result */\n      dup4\n        /* \"@openzeppelin/contracts/utils/math/Math.sol\":8459:8460  a */\n      dup7\n        /* \"@openzeppelin/contracts/utils/math/Math.sol\":8459:8469  a / result */\n      dup2\n      tag_164\n      jumpi\n      tag_165\n      tag_150\n      jump\t// in\n    tag_165:\n    tag_164:\n      div\n        /* \"@openzeppelin/contracts/utils/math/Math.sol\":8447:8450  min */\n      tag_166\n        /* \"@openzeppelin/contracts/utils/math/Math.sol\":8447:8470  min(result, a / result) */\n      jump\t// in\n    tag_163:\n        /* \"@openzeppelin/contracts/utils/math/Math.sol\":8440:8470  return min(result, a / result) */\n      swap3\n      pop\n      pop\n      pop\n        /* \"@openzeppelin/contracts/utils/math/Math.sol\":6281:8487  function sqrt(uint256 a) internal pure returns (uint256) {... */\n    tag_139:\n      swap2\n      swap1\n      pop\n      jump\t// out\n        /* \"@openzeppelin/contracts/utils/math/Math.sol\":589:693  function min(uint256 a, uint256 b) internal pure returns (uint256) {... */\n    tag_166:\n        /* \"@openzeppelin/contracts/utils/math/Math.sol\":647:654  uint256 */\n      0x00\n        /* \"@openzeppelin/contracts/utils/math/Math.sol\":677:678  b */\n      dup2\n        /* \"@openzeppelin/contracts/utils/math/Math.sol\":673:674  a */\n      dup4\n        /* \"@openzeppelin/contracts/utils/math/Math.sol\":673:678  a < b */\n      lt\n        /* \"@openzeppelin/contracts/utils/math/Math.sol\":673:686  a < b ? a : b */\n      tag_168\n      jumpi\n        /* \"@openzeppelin/contracts/utils/math/Math.sol\":685:686  b */\n      dup2\n        /* \"@openzeppelin/contracts/utils/math/Math.sol\":673:686  a < b ? a : b */\n      jump(tag_169)\n    tag_168:\n        /* \"@openzeppelin/contracts/utils/math/Math.sol\":681:682  a */\n      dup3\n        /* \"@openzeppelin/contracts/utils/math/Math.sol\":673:686  a < b ? a : b */\n    tag_169:\n        /* \"@openzeppelin/contracts/utils/math/Math.sol\":666:686  return a < b ? a : b */\n      swap1\n      pop\n        /* \"@openzeppelin/contracts/utils/math/Math.sol\":589:693  function min(uint256 a, uint256 b) internal pure returns (uint256) {... */\n      swap3\n      swap2\n      pop\n      pop\n      jump\t// out\n        /* \"#utility.yul\":88:205   */\n    tag_171:\n        /* \"#utility.yul\":197:198   */\n      0x00\n        /* \"#utility.yul\":194:195   */\n      dup1\n        /* \"#utility.yul\":187:199   */\n      revert\n        /* \"#utility.yul\":334:411   */\n    tag_173:\n        /* \"#utility.yul\":371:378   */\n      0x00\n        /* \"#utility.yul\":400:405   */\n      dup2\n        /* \"#utility.yul\":389:405   */\n      swap1\n      pop\n        /* \"#utility.yul\":334:411   */\n      swap2\n      swap1\n      pop\n      jump\t// out\n        /* \"#utility.yul\":417:539   */\n    tag_174:\n        /* \"#utility.yul\":490:514   */\n      tag_211\n        /* \"#utility.yul\":508:513   */\n      dup2\n        /* \"#utility.yul\":490:514   */\n      tag_173\n      jump\t// in\n    tag_211:\n        /* \"#utility.yul\":483:488   */\n      dup2\n        /* \"#utility.yul\":480:515   */\n      eq\n        /* \"#utility.yul\":470:533   */\n      tag_212\n      jumpi\n        /* \"#utility.yul\":529:530   */\n      0x00\n        /* \"#utility.yul\":526:527   */\n      dup1\n        /* \"#utility.yul\":519:531   */\n      revert\n        /* \"#utility.yul\":470:533   */\n    tag_212:\n        /* \"#utility.yul\":417:539   */\n      pop\n      jump\t// out\n        /* \"#utility.yul\":545:684   */\n    tag_175:\n        /* \"#utility.yul\":591:596   */\n      0x00\n        /* \"#utility.yul\":629:635   */\n      dup2\n        /* \"#utility.yul\":616:636   */\n      calldataload\n        /* \"#utility.yul\":607:636   */\n      swap1\n      pop\n        /* \"#utility.yul\":645:678   */\n      tag_214\n        /* \"#utility.yul\":672:677   */\n      dup2\n        /* \"#utility.yul\":645:678   */\n      tag_174\n      jump\t// in\n    tag_214:\n        /* \"#utility.yul\":545:684   */\n      swap3\n      swap2\n      pop\n      pop\n      jump\t// out\n        /* \"#utility.yul\":690:1019   */\n    tag_13:\n        /* \"#utility.yul\":749:755   */\n      0x00\n        /* \"#utility.yul\":798:800   */\n      0x20\n        /* \"#utility.yul\":786:795   */\n      dup3\n        /* \"#utility.yul\":777:784   */\n      dup5\n        /* \"#utility.yul\":773:796   */\n      sub\n        /* \"#utility.yul\":769:801   */\n      slt\n        /* \"#utility.yul\":766:885   */\n      iszero\n      tag_216\n      jumpi\n        /* \"#utility.yul\":804:883   */\n      tag_217\n      tag_171\n      jump\t// in\n    tag_217:\n        /* \"#utility.yul\":766:885   */\n    tag_216:\n        /* \"#utility.yul\":924:925   */\n      0x00\n        /* \"#utility.yul\":949:1002   */\n      tag_218\n        /* \"#utility.yul\":994:1001   */\n      dup5\n        /* \"#utility.yul\":985:991   */\n      dup3\n        /* \"#utility.yul\":974:983   */\n      dup6\n        /* \"#utility.yul\":970:992   */\n      add\n        /* \"#utility.yul\":949:1002   */\n      tag_175\n      jump\t// in\n    tag_218:\n        /* \"#utility.yul\":939:1002   */\n      swap2\n      pop\n        /* \"#utility.yul\":895:1012   */\n      pop\n        /* \"#utility.yul\":690:1019   */\n      swap3\n      swap2\n      pop\n      pop\n      jump\t// out\n        /* \"#utility.yul\":1025:1143   */\n    tag_176:\n        /* \"#utility.yul\":1112:1136   */\n      tag_220\n        /* \"#utility.yul\":1130:1135   */\n      dup2\n        /* \"#utility.yul\":1112:1136   */\n      tag_173\n      jump\t// in\n    tag_220:\n        /* \"#utility.yul\":1107:1110   */\n      dup3\n        /* \"#utility.yul\":1100:1137   */\n      mstore\n        /* \"#utility.yul\":1025:1143   */\n      pop\n      pop\n      jump\t// out\n        /* \"#utility.yul\":1149:1371   */\n    tag_19:\n        /* \"#utility.yul\":1242:1246   */\n      0x00\n        /* \"#utility.yul\":1280:1282   */\n      0x20\n        /* \"#utility.yul\":1269:1278   */\n      dup3\n        /* \"#utility.yul\":1265:1283   */\n      add\n        /* \"#utility.yul\":1257:1283   */\n      swap1\n      pop\n        /* \"#utility.yul\":1293:1364   */\n      tag_222\n        /* \"#utility.yul\":1361:1362   */\n      0x00\n        /* \"#utility.yul\":1350:1359   */\n      dup4\n        /* \"#utility.yul\":1346:1363   */\n      add\n        /* \"#utility.yul\":1337:1343   */\n      dup5\n        /* \"#utility.yul\":1293:1364   */\n      tag_176\n      jump\t// in\n    tag_222:\n        /* \"#utility.yul\":1149:1371   */\n      swap3\n      swap2\n      pop\n      pop\n      jump\t// out\n        /* \"#utility.yul\":1377:1503   */\n    tag_177:\n        /* \"#utility.yul\":1414:1421   */\n      0x00\n        /* \"#utility.yul\":1454:1496   */\n      0xffffffffffffffffffffffffffffffffffffffff\n        /* \"#utility.yul\":1447:1452   */\n      dup3\n        /* \"#utility.yul\":1443:1497   */\n      and\n        /* \"#utility.yul\":1432:1497   */\n      swap1\n      pop\n        /* \"#utility.yul\":1377:1503   */\n      swap2\n      swap1\n      pop\n      jump\t// out\n        /* \"#utility.yul\":1509:1605   */\n    tag_178:\n        /* \"#utility.yul\":1546:1553   */\n      0x00\n        /* \"#utility.yul\":1575:1599   */\n      tag_225\n        /* \"#utility.yul\":1593:1598   */\n      dup3\n        /* \"#utility.yul\":1575:1599   */\n      tag_177\n      jump\t// in\n    tag_225:\n        /* \"#utility.yul\":1564:1599   */\n      swap1\n      pop\n        /* \"#utility.yul\":1509:1605   */\n      swap2\n      swap1\n      pop\n      jump\t// out\n        /* \"#utility.yul\":1611:1733   */\n    tag_179:\n        /* \"#utility.yul\":1684:1708   */\n      tag_227\n        /* \"#utility.yul\":1702:1707   */\n      dup2\n        /* \"#utility.yul\":1684:1708   */\n      tag_178\n      jump\t// in\n    tag_227:\n        /* \"#utility.yul\":1677:1682   */\n      dup2\n        /* \"#utility.yul\":1674:1709   */\n      eq\n        /* \"#utility.yul\":1664:1727   */\n      tag_228\n      jumpi\n        /* \"#utility.yul\":1723:1724   */\n      0x00\n        /* \"#utility.yul\":1720:1721   */\n      dup1\n        /* \"#utility.yul\":1713:1725   */\n      revert\n        /* \"#utility.yul\":1664:1727   */\n    tag_228:\n        /* \"#utility.yul\":1611:1733   */\n      pop\n      jump\t// out\n        /* \"#utility.yul\":1739:1878   */\n    tag_180:\n        /* \"#utility.yul\":1785:1790   */\n      0x00\n        /* \"#utility.yul\":1823:1829   */\n      dup2\n        /* \"#utility.yul\":1810:1830   */\n      calldataload\n        /* \"#utility.yul\":1801:1830   */\n      swap1\n      pop\n        /* \"#utility.yul\":1839:1872   */\n      tag_230\n        /* \"#utility.yul\":1866:1871   */\n      dup2\n        /* \"#utility.yul\":1839:1872   */\n      tag_179\n      jump\t// in\n    tag_230:\n        /* \"#utility.yul\":1739:1878   */\n      swap3\n      swap2\n      pop\n      pop\n      jump\t// out\n        /* \"#utility.yul\":1884:2358   */\n    tag_30:\n        /* \"#utility.yul\":1952:1958   */\n      0x00\n        /* \"#utility.yul\":1960:1966   */\n      dup1\n        /* \"#utility.yul\":2009:2011   */\n      0x40\n        /* \"#utility.yul\":1997:2006   */\n      dup4\n        /* \"#utility.yul\":1988:1995   */\n      dup6\n        /* \"#utility.yul\":1984:2007   */\n      sub\n        /* \"#utility.yul\":1980:2012   */\n      slt\n        /* \"#utility.yul\":1977:2096   */\n      iszero\n      tag_232\n      jumpi\n        /* \"#utility.yul\":2015:2094   */\n      tag_233\n      tag_171\n      jump\t// in\n    tag_233:\n        /* \"#utility.yul\":1977:2096   */\n    tag_232:\n        /* \"#utility.yul\":2135:2136   */\n      0x00\n        /* \"#utility.yul\":2160:2213   */\n      tag_234\n        /* \"#utility.yul\":2205:2212   */\n      dup6\n        /* \"#utility.yul\":2196:2202   */\n      dup3\n        /* \"#utility.yul\":2185:2194   */\n      dup7\n        /* \"#utility.yul\":2181:2203   */\n      add\n        /* \"#utility.yul\":2160:2213   */\n      tag_180\n      jump\t// in\n    tag_234:\n        /* \"#utility.yul\":2150:2213   */\n      swap3\n      pop\n        /* \"#utility.yul\":2106:2223   */\n      pop\n        /* \"#utility.yul\":2262:2264   */\n      0x20\n        /* \"#utility.yul\":2288:2341   */\n      tag_235\n        /* \"#utility.yul\":2333:2340   */\n      dup6\n        /* \"#utility.yul\":2324:2330   */\n      dup3\n        /* \"#utility.yul\":2313:2322   */\n      dup7\n        /* \"#utility.yul\":2309:2331   */\n      add\n        /* \"#utility.yul\":2288:2341   */\n      tag_175\n      jump\t// in\n    tag_235:\n        /* \"#utility.yul\":2278:2341   */\n      swap2\n      pop\n        /* \"#utility.yul\":2233:2351   */\n      pop\n        /* \"#utility.yul\":1884:2358   */\n      swap3\n      pop\n      swap3\n      swap1\n      pop\n      jump\t// out\n        /* \"#utility.yul\":2364:2482   */\n    tag_181:\n        /* \"#utility.yul\":2451:2475   */\n      tag_237\n        /* \"#utility.yul\":2469:2474   */\n      dup2\n        /* \"#utility.yul\":2451:2475   */\n      tag_178\n      jump\t// in\n    tag_237:\n        /* \"#utility.yul\":2446:2449   */\n      dup3\n        /* \"#utility.yul\":2439:2476   */\n      mstore\n        /* \"#utility.yul\":2364:2482   */\n      pop\n      pop\n      jump\t// out\n        /* \"#utility.yul\":2488:2710   */\n    tag_39:\n        /* \"#utility.yul\":2581:2585   */\n      0x00\n        /* \"#utility.yul\":2619:2621   */\n      0x20\n        /* \"#utility.yul\":2608:2617   */\n      dup3\n        /* \"#utility.yul\":2604:2622   */\n      add\n        /* \"#utility.yul\":2596:2622   */\n      swap1\n      pop\n        /* \"#utility.yul\":2632:2703   */\n      tag_239\n        /* \"#utility.yul\":2700:2701   */\n      0x00\n        /* \"#utility.yul\":2689:2698   */\n      dup4\n        /* \"#utility.yul\":2685:2702   */\n      add\n        /* \"#utility.yul\":2676:2682   */\n      dup5\n        /* \"#utility.yul\":2632:2703   */\n      tag_181\n      jump\t// in\n    tag_239:\n        /* \"#utility.yul\":2488:2710   */\n      swap3\n      swap2\n      pop\n      pop\n      jump\t// out\n        /* \"#utility.yul\":2716:2885   */\n    tag_182:\n        /* \"#utility.yul\":2800:2811   */\n      0x00\n        /* \"#utility.yul\":2834:2840   */\n      dup3\n        /* \"#utility.yul\":2829:2832   */\n      dup3\n        /* \"#utility.yul\":2822:2841   */\n      mstore\n        /* \"#utility.yul\":2874:2878   */\n      0x20\n        /* \"#utility.yul\":2869:2872   */\n      dup3\n        /* \"#utility.yul\":2865:2879   */\n      add\n        /* \"#utility.yul\":2850:2879   */\n      swap1\n      pop\n        /* \"#utility.yul\":2716:2885   */\n      swap3\n      swap2\n      pop\n      pop\n      jump\t// out\n        /* \"#utility.yul\":2891:3055   */\n    tag_183:\n        /* \"#utility.yul\":3031:3047   */\n      0x496e76616c696420616d6f756e74000000000000000000000000000000000000\n        /* \"#utility.yul\":3027:3028   */\n      0x00\n        /* \"#utility.yul\":3019:3025   */\n      dup3\n        /* \"#utility.yul\":3015:3029   */\n      add\n        /* \"#utility.yul\":3008:3048   */\n      mstore\n        /* \"#utility.yul\":2891:3055   */\n      pop\n      jump\t// out\n        /* \"#utility.yul\":3061:3427   */\n    tag_184:\n        /* \"#utility.yul\":3203:3206   */\n      0x00\n        /* \"#utility.yul\":3224:3291   */\n      tag_243\n        /* \"#utility.yul\":3288:3290   */\n      0x0e\n        /* \"#utility.yul\":3283:3286   */\n      dup4\n        /* \"#utility.yul\":3224:3291   */\n      tag_182\n      jump\t// in\n    tag_243:\n        /* \"#utility.yul\":3217:3291   */\n      swap2\n      pop\n        /* \"#utility.yul\":3300:3393   */\n      tag_244\n        /* \"#utility.yul\":3389:3392   */\n      dup3\n        /* \"#utility.yul\":3300:3393   */\n      tag_183\n      jump\t// in\n    tag_244:\n        /* \"#utility.yul\":3418:3420   */\n      0x20\n        /* \"#utility.yul\":3413:3416   */\n      dup3\n        /* \"#utility.yul\":3409:3421   */\n      add\n        /* \"#utility.yul\":3402:3421   */\n      swap1\n      pop\n        /* \"#utility.yul\":3061:3427   */\n      swap2\n      swap1\n      pop\n      jump\t// out\n        /* \"#utility.yul\":3433:3852   */\n    tag_47:\n        /* \"#utility.yul\":3599:3603   */\n      0x00\n        /* \"#utility.yul\":3637:3639   */\n      0x20\n        /* \"#utility.yul\":3626:3635   */\n      dup3\n        /* \"#utility.yul\":3622:3640   */\n      add\n        /* \"#utility.yul\":3614:3640   */\n      swap1\n      pop\n        /* \"#utility.yul\":3686:3695   */\n      dup2\n        /* \"#utility.yul\":3680:3684   */\n      dup2\n        /* \"#utility.yul\":3676:3696   */\n      sub\n        /* \"#utility.yul\":3672:3673   */\n      0x00\n        /* \"#utility.yul\":3661:3670   */\n      dup4\n        /* \"#utility.yul\":3657:3674   */\n      add\n        /* \"#utility.yul\":3650:3697   */\n      mstore\n        /* \"#utility.yul\":3714:3845   */\n      tag_246\n        /* \"#utility.yul\":3840:3844   */\n      dup2\n        /* \"#utility.yul\":3714:3845   */\n      tag_184\n      jump\t// in\n    tag_246:\n        /* \"#utility.yul\":3706:3845   */\n      swap1\n      pop\n        /* \"#utility.yul\":3433:3852   */\n      swap2\n      swap1\n      pop\n      jump\t// out\n        /* \"#utility.yul\":3858:4190   */\n    tag_49:\n        /* \"#utility.yul\":3979:3983   */\n      0x00\n        /* \"#utility.yul\":4017:4019   */\n      0x40\n        /* \"#utility.yul\":4006:4015   */\n      dup3\n        /* \"#utility.yul\":4002:4020   */\n      add\n        /* \"#utility.yul\":3994:4020   */\n      swap1\n      pop\n        /* \"#utility.yul\":4030:4101   */\n      tag_248\n        /* \"#utility.yul\":4098:4099   */\n      0x00\n        /* \"#utility.yul\":4087:4096   */\n      dup4\n        /* \"#utility.yul\":4083:4100   */\n      add\n        /* \"#utility.yul\":4074:4080   */\n      dup6\n        /* \"#utility.yul\":4030:4101   */\n      tag_181\n      jump\t// in\n    tag_248:\n        /* \"#utility.yul\":4111:4183   */\n      tag_249\n        /* \"#utility.yul\":4179:4181   */\n      0x20\n        /* \"#utility.yul\":4168:4177   */\n      dup4\n        /* \"#utility.yul\":4164:4182   */\n      add\n        /* \"#utility.yul\":4155:4161   */\n      dup5\n        /* \"#utility.yul\":4111:4183   */\n      tag_176\n      jump\t// in\n    tag_249:\n        /* \"#utility.yul\":3858:4190   */\n      swap4\n      swap3\n      pop\n      pop\n      pop\n      jump\t// out\n        /* \"#utility.yul\":4196:4286   */\n    tag_185:\n        /* \"#utility.yul\":4230:4237   */\n      0x00\n        /* \"#utility.yul\":4273:4278   */\n      dup2\n        /* \"#utility.yul\":4266:4279   */\n      iszero\n        /* \"#utility.yul\":4259:4280   */\n      iszero\n        /* \"#utility.yul\":4248:4280   */\n      swap1\n      pop\n        /* \"#utility.yul\":4196:4286   */\n      swap2\n      swap1\n      pop\n      jump\t// out\n        /* \"#utility.yul\":4292:4408   */\n    tag_186:\n        /* \"#utility.yul\":4362:4383   */\n      tag_252\n        /* \"#utility.yul\":4377:4382   */\n      dup2\n        /* \"#utility.yul\":4362:4383   */\n      tag_185\n      jump\t// in\n    tag_252:\n        /* \"#utility.yul\":4355:4360   */\n      dup2\n        /* \"#utility.yul\":4352:4384   */\n      eq\n        /* \"#utility.yul\":4342:4402   */\n      tag_253\n      jumpi\n        /* \"#utility.yul\":4398:4399   */\n      0x00\n        /* \"#utility.yul\":4395:4396   */\n      dup1\n        /* \"#utility.yul\":4388:4400   */\n      revert\n        /* \"#utility.yul\":4342:4402   */\n    tag_253:\n        /* \"#utility.yul\":4292:4408   */\n      pop\n      jump\t// out\n        /* \"#utility.yul\":4414:4551   */\n    tag_187:\n        /* \"#utility.yul\":4468:4473   */\n      0x00\n        /* \"#utility.yul\":4499:4505   */\n      dup2\n        /* \"#utility.yul\":4493:4506   */\n      mload\n        /* \"#utility.yul\":4484:4506   */\n      swap1\n      pop\n        /* \"#utility.yul\":4515:4545   */\n      tag_255\n        /* \"#utility.yul\":4539:4544   */\n      dup2\n        /* \"#utility.yul\":4515:4545   */\n      tag_186\n      jump\t// in\n    tag_255:\n        /* \"#utility.yul\":4414:4551   */\n      swap3\n      swap2\n      pop\n      pop\n      jump\t// out\n        /* \"#utility.yul\":4557:4902   */\n    tag_53:\n        /* \"#utility.yul\":4624:4630   */\n      0x00\n        /* \"#utility.yul\":4673:4675   */\n      0x20\n        /* \"#utility.yul\":4661:4670   */\n      dup3\n        /* \"#utility.yul\":4652:4659   */\n      dup5\n        /* \"#utility.yul\":4648:4671   */\n      sub\n        /* \"#utility.yul\":4644:4676   */\n      slt\n        /* \"#utility.yul\":4641:4760   */\n      iszero\n      tag_257\n      jumpi\n        /* \"#utility.yul\":4679:4758   */\n      tag_258\n      tag_171\n      jump\t// in\n    tag_258:\n        /* \"#utility.yul\":4641:4760   */\n    tag_257:\n        /* \"#utility.yul\":4799:4800   */\n      0x00\n        /* \"#utility.yul\":4824:4885   */\n      tag_259\n        /* \"#utility.yul\":4877:4884   */\n      dup5\n        /* \"#utility.yul\":4868:4874   */\n      dup3\n        /* \"#utility.yul\":4857:4866   */\n      dup6\n        /* \"#utility.yul\":4853:4875   */\n      add\n        /* \"#utility.yul\":4824:4885   */\n      tag_187\n      jump\t// in\n    tag_259:\n        /* \"#utility.yul\":4814:4885   */\n      swap2\n      pop\n        /* \"#utility.yul\":4770:4895   */\n      pop\n        /* \"#utility.yul\":4557:4902   */\n      swap3\n      swap2\n      pop\n      pop\n      jump\t// out\n        /* \"#utility.yul\":4908:5240   */\n    tag_56:\n        /* \"#utility.yul\":5029:5033   */\n      0x00\n        /* \"#utility.yul\":5067:5069   */\n      0x40\n        /* \"#utility.yul\":5056:5065   */\n      dup3\n        /* \"#utility.yul\":5052:5070   */\n      add\n        /* \"#utility.yul\":5044:5070   */\n      swap1\n      pop\n        /* \"#utility.yul\":5080:5151   */\n      tag_261\n        /* \"#utility.yul\":5148:5149   */\n      0x00\n        /* \"#utility.yul\":5137:5146   */\n      dup4\n        /* \"#utility.yul\":5133:5150   */\n      add\n        /* \"#utility.yul\":5124:5130   */\n      dup6\n        /* \"#utility.yul\":5080:5151   */\n      tag_181\n      jump\t// in\n    tag_261:\n        /* \"#utility.yul\":5161:5233   */\n      tag_262\n        /* \"#utility.yul\":5229:5231   */\n      0x20\n        /* \"#utility.yul\":5218:5227   */\n      dup4\n        /* \"#utility.yul\":5214:5232   */\n      add\n        /* \"#utility.yul\":5205:5211   */\n      dup5\n        /* \"#utility.yul\":5161:5233   */\n      tag_181\n      jump\t// in\n    tag_262:\n        /* \"#utility.yul\":4908:5240   */\n      swap4\n      swap3\n      pop\n      pop\n      pop\n      jump\t// out\n        /* \"#utility.yul\":5246:5389   */\n    tag_188:\n        /* \"#utility.yul\":5303:5308   */\n      0x00\n        /* \"#utility.yul\":5334:5340   */\n      dup2\n        /* \"#utility.yul\":5328:5341   */\n      mload\n        /* \"#utility.yul\":5319:5341   */\n      swap1\n      pop\n        /* \"#utility.yul\":5350:5383   */\n      tag_264\n        /* \"#utility.yul\":5377:5382   */\n      dup2\n        /* \"#utility.yul\":5350:5383   */\n      tag_174\n      jump\t// in\n    tag_264:\n        /* \"#utility.yul\":5246:5389   */\n      swap3\n      swap2\n      pop\n      pop\n      jump\t// out\n        /* \"#utility.yul\":5395:5746   */\n    tag_60:\n        /* \"#utility.yul\":5465:5471   */\n      0x00\n        /* \"#utility.yul\":5514:5516   */\n      0x20\n        /* \"#utility.yul\":5502:5511   */\n      dup3\n        /* \"#utility.yul\":5493:5500   */\n      dup5\n        /* \"#utility.yul\":5489:5512   */\n      sub\n        /* \"#utility.yul\":5485:5517   */\n      slt\n        /* \"#utility.yul\":5482:5601   */\n      iszero\n      tag_266\n      jumpi\n        /* \"#utility.yul\":5520:5599   */\n      tag_267\n      tag_171\n      jump\t// in\n    tag_267:\n        /* \"#utility.yul\":5482:5601   */\n    tag_266:\n        /* \"#utility.yul\":5640:5641   */\n      0x00\n        /* \"#utility.yul\":5665:5729   */\n      tag_268\n        /* \"#utility.yul\":5721:5728   */\n      dup5\n        /* \"#utility.yul\":5712:5718   */\n      dup3\n        /* \"#utility.yul\":5701:5710   */\n      dup6\n        /* \"#utility.yul\":5697:5719   */\n      add\n        /* \"#utility.yul\":5665:5729   */\n      tag_188\n      jump\t// in\n    tag_268:\n        /* \"#utility.yul\":5655:5729   */\n      swap2\n      pop\n        /* \"#utility.yul\":5611:5739   */\n      pop\n        /* \"#utility.yul\":5395:5746   */\n      swap3\n      swap2\n      pop\n      pop\n      jump\t// out\n        /* \"#utility.yul\":5752:5923   */\n    tag_189:\n        /* \"#utility.yul\":5892:5915   */\n      0x436f6e7472616374206e6f7420617070726f7665640000000000000000000000\n        /* \"#utility.yul\":5888:5889   */\n      0x00\n        /* \"#utility.yul\":5880:5886   */\n      dup3\n        /* \"#utility.yul\":5876:5890   */\n      add\n        /* \"#utility.yul\":5869:5916   */\n      mstore\n        /* \"#utility.yul\":5752:5923   */\n      pop\n      jump\t// out\n        /* \"#utility.yul\":5929:6295   */\n    tag_190:\n        /* \"#utility.yul\":6071:6074   */\n      0x00\n        /* \"#utility.yul\":6092:6159   */\n      tag_271\n        /* \"#utility.yul\":6156:6158   */\n      0x15\n        /* \"#utility.yul\":6151:6154   */\n      dup4\n        /* \"#utility.yul\":6092:6159   */\n      tag_182\n      jump\t// in\n    tag_271:\n        /* \"#utility.yul\":6085:6159   */\n      swap2\n      pop\n        /* \"#utility.yul\":6168:6261   */\n      tag_272\n        /* \"#utility.yul\":6257:6260   */\n      dup3\n        /* \"#utility.yul\":6168:6261   */\n      tag_189\n      jump\t// in\n    tag_272:\n        /* \"#utility.yul\":6286:6288   */\n      0x20\n        /* \"#utility.yul\":6281:6284   */\n      dup3\n        /* \"#utility.yul\":6277:6289   */\n      add\n        /* \"#utility.yul\":6270:6289   */\n      swap1\n      pop\n        /* \"#utility.yul\":5929:6295   */\n      swap2\n      swap1\n      pop\n      jump\t// out\n        /* \"#utility.yul\":6301:6720   */\n    tag_63:\n        /* \"#utility.yul\":6467:6471   */\n      0x00\n        /* \"#utility.yul\":6505:6507   */\n      0x20\n        /* \"#utility.yul\":6494:6503   */\n      dup3\n        /* \"#utility.yul\":6490:6508   */\n      add\n        /* \"#utility.yul\":6482:6508   */\n      swap1\n      pop\n        /* \"#utility.yul\":6554:6563   */\n      dup2\n        /* \"#utility.yul\":6548:6552   */\n      dup2\n        /* \"#utility.yul\":6544:6564   */\n      sub\n        /* \"#utility.yul\":6540:6541   */\n      0x00\n        /* \"#utility.yul\":6529:6538   */\n      dup4\n        /* \"#utility.yul\":6525:6542   */\n      add\n        /* \"#utility.yul\":6518:6565   */\n      mstore\n        /* \"#utility.yul\":6582:6713   */\n      tag_274\n        /* \"#utility.yul\":6708:6712   */\n      dup2\n        /* \"#utility.yul\":6582:6713   */\n      tag_190\n      jump\t// in\n    tag_274:\n        /* \"#utility.yul\":6574:6713   */\n      swap1\n      pop\n        /* \"#utility.yul\":6301:6720   */\n      swap2\n      swap1\n      pop\n      jump\t// out\n        /* \"#utility.yul\":6726:7168   */\n    tag_65:\n        /* \"#utility.yul\":6875:6879   */\n      0x00\n        /* \"#utility.yul\":6913:6915   */\n      0x60\n        /* \"#utility.yul\":6902:6911   */\n      dup3\n        /* \"#utility.yul\":6898:6916   */\n      add\n        /* \"#utility.yul\":6890:6916   */\n      swap1\n      pop\n        /* \"#utility.yul\":6926:6997   */\n      tag_276\n        /* \"#utility.yul\":6994:6995   */\n      0x00\n        /* \"#utility.yul\":6983:6992   */\n      dup4\n        /* \"#utility.yul\":6979:6996   */\n      add\n        /* \"#utility.yul\":6970:6976   */\n      dup7\n        /* \"#utility.yul\":6926:6997   */\n      tag_181\n      jump\t// in\n    tag_276:\n        /* \"#utility.yul\":7007:7079   */\n      tag_277\n        /* \"#utility.yul\":7075:7077   */\n      0x20\n        /* \"#utility.yul\":7064:7073   */\n      dup4\n        /* \"#utility.yul\":7060:7078   */\n      add\n        /* \"#utility.yul\":7051:7057   */\n      dup6\n        /* \"#utility.yul\":7007:7079   */\n      tag_181\n      jump\t// in\n    tag_277:\n        /* \"#utility.yul\":7089:7161   */\n      tag_278\n        /* \"#utility.yul\":7157:7159   */\n      0x40\n        /* \"#utility.yul\":7146:7155   */\n      dup4\n        /* \"#utility.yul\":7142:7160   */\n      add\n        /* \"#utility.yul\":7133:7139   */\n      dup5\n        /* \"#utility.yul\":7089:7161   */\n      tag_176\n      jump\t// in\n    tag_278:\n        /* \"#utility.yul\":6726:7168   */\n      swap5\n      swap4\n      pop\n      pop\n      pop\n      pop\n      jump\t// out\n        /* \"#utility.yul\":7174:7321   */\n    tag_191:\n        /* \"#utility.yul\":7275:7286   */\n      0x00\n        /* \"#utility.yul\":7312:7315   */\n      dup2\n        /* \"#utility.yul\":7297:7315   */\n      swap1\n      pop\n        /* \"#utility.yul\":7174:7321   */\n      swap3\n      swap2\n      pop\n      pop\n      jump\t// out\n        /* \"#utility.yul\":7327:7441   */\n    tag_192:\n      pop\n      jump\t// out\n        /* \"#utility.yul\":7447:7845   */\n    tag_193:\n        /* \"#utility.yul\":7606:7609   */\n      0x00\n        /* \"#utility.yul\":7627:7710   */\n      tag_282\n        /* \"#utility.yul\":7708:7709   */\n      0x00\n        /* \"#utility.yul\":7703:7706   */\n      dup4\n        /* \"#utility.yul\":7627:7710   */\n      tag_191\n      jump\t// in\n    tag_282:\n        /* \"#utility.yul\":7620:7710   */\n      swap2\n      pop\n        /* \"#utility.yul\":7719:7812   */\n      tag_283\n        /* \"#utility.yul\":7808:7811   */\n      dup3\n        /* \"#utility.yul\":7719:7812   */\n      tag_192\n      jump\t// in\n    tag_283:\n        /* \"#utility.yul\":7837:7838   */\n      0x00\n        /* \"#utility.yul\":7832:7835   */\n      dup3\n        /* \"#utility.yul\":7828:7839   */\n      add\n        /* \"#utility.yul\":7821:7839   */\n      swap1\n      pop\n        /* \"#utility.yul\":7447:7845   */\n      swap2\n      swap1\n      pop\n      jump\t// out\n        /* \"#utility.yul\":7851:8230   */\n    tag_70:\n        /* \"#utility.yul\":8035:8038   */\n      0x00\n        /* \"#utility.yul\":8057:8204   */\n      tag_285\n        /* \"#utility.yul\":8200:8203   */\n      dup3\n        /* \"#utility.yul\":8057:8204   */\n      tag_193\n      jump\t// in\n    tag_285:\n        /* \"#utility.yul\":8050:8204   */\n      swap2\n      pop\n        /* \"#utility.yul\":8221:8224   */\n      dup2\n        /* \"#utility.yul\":8214:8224   */\n      swap1\n      pop\n        /* \"#utility.yul\":7851:8230   */\n      swap2\n      swap1\n      pop\n      jump\t// out\n        /* \"#utility.yul\":8236:8401   */\n    tag_194:\n        /* \"#utility.yul\":8376:8393   */\n      0x5472616e73666572204661696c65640000000000000000000000000000000000\n        /* \"#utility.yul\":8372:8373   */\n      0x00\n        /* \"#utility.yul\":8364:8370   */\n      dup3\n        /* \"#utility.yul\":8360:8374   */\n      add\n        /* \"#utility.yul\":8353:8394   */\n      mstore\n        /* \"#utility.yul\":8236:8401   */\n      pop\n      jump\t// out\n        /* \"#utility.yul\":8407:8773   */\n    tag_195:\n        /* \"#utility.yul\":8549:8552   */\n      0x00\n        /* \"#utility.yul\":8570:8637   */\n      tag_288\n        /* \"#utility.yul\":8634:8636   */\n      0x0f\n        /* \"#utility.yul\":8629:8632   */\n      dup4\n        /* \"#utility.yul\":8570:8637   */\n      tag_182\n      jump\t// in\n    tag_288:\n        /* \"#utility.yul\":8563:8637   */\n      swap2\n      pop\n        /* \"#utility.yul\":8646:8739   */\n      tag_289\n        /* \"#utility.yul\":8735:8738   */\n      dup3\n        /* \"#utility.yul\":8646:8739   */\n      tag_194\n      jump\t// in\n    tag_289:\n        /* \"#utility.yul\":8764:8766   */\n      0x20\n        /* \"#utility.yul\":8759:8762   */\n      dup3\n        /* \"#utility.yul\":8755:8767   */\n      add\n        /* \"#utility.yul\":8748:8767   */\n      swap1\n      pop\n        /* \"#utility.yul\":8407:8773   */\n      swap2\n      swap1\n      pop\n      jump\t// out\n        /* \"#utility.yul\":8779:9198   */\n    tag_76:\n        /* \"#utility.yul\":8945:8949   */\n      0x00\n        /* \"#utility.yul\":8983:8985   */\n      0x20\n        /* \"#utility.yul\":8972:8981   */\n      dup3\n        /* \"#utility.yul\":8968:8986   */\n      add\n        /* \"#utility.yul\":8960:8986   */\n      swap1\n      pop\n        /* \"#utility.yul\":9032:9041   */\n      dup2\n        /* \"#utility.yul\":9026:9030   */\n      dup2\n        /* \"#utility.yul\":9022:9042   */\n      sub\n        /* \"#utility.yul\":9018:9019   */\n      0x00\n        /* \"#utility.yul\":9007:9016   */\n      dup4\n        /* \"#utility.yul\":9003:9020   */\n      add\n        /* \"#utility.yul\":8996:9043   */\n      mstore\n        /* \"#utility.yul\":9060:9191   */\n      tag_291\n        /* \"#utility.yul\":9186:9190   */\n      dup2\n        /* \"#utility.yul\":9060:9191   */\n      tag_195\n      jump\t// in\n    tag_291:\n        /* \"#utility.yul\":9052:9191   */\n      swap1\n      pop\n        /* \"#utility.yul\":8779:9198   */\n      swap2\n      swap1\n      pop\n      jump\t// out\n        /* \"#utility.yul\":9204:9384   */\n    tag_150:\n        /* \"#utility.yul\":9252:9329   */\n      0x4e487b7100000000000000000000000000000000000000000000000000000000\n        /* \"#utility.yul\":9249:9250   */\n      0x00\n        /* \"#utility.yul\":9242:9330   */\n      mstore\n        /* \"#utility.yul\":9349:9353   */\n      0x12\n        /* \"#utility.yul\":9346:9347   */\n      0x04\n        /* \"#utility.yul\":9339:9354   */\n      mstore\n        /* \"#utility.yul\":9373:9377   */\n      0x24\n        /* \"#utility.yul\":9370:9371   */\n      0x00\n        /* \"#utility.yul\":9363:9378   */\n      revert\n        /* \"#utility.yul\":9390:9570   */\n    tag_196:\n        /* \"#utility.yul\":9438:9515   */\n      0x4e487b7100000000000000000000000000000000000000000000000000000000\n        /* \"#utility.yul\":9435:9436   */\n      0x00\n        /* \"#utility.yul\":9428:9516   */\n      mstore\n        /* \"#utility.yul\":9535:9539   */\n      0x11\n        /* \"#utility.yul\":9532:9533   */\n      0x04\n        /* \"#utility.yul\":9525:9540   */\n      mstore\n        /* \"#utility.yul\":9559:9563   */\n      0x24\n        /* \"#utility.yul\":9556:9557   */\n      0x00\n        /* \"#utility.yul\":9549:9564   */\n      revert\n        /* \"#utility.yul\":9576:9761   */\n    tag_80:\n        /* \"#utility.yul\":9616:9617   */\n      0x00\n        /* \"#utility.yul\":9633:9653   */\n      tag_295\n        /* \"#utility.yul\":9651:9652   */\n      dup3\n        /* \"#utility.yul\":9633:9653   */\n      tag_173\n      jump\t// in\n    tag_295:\n        /* \"#utility.yul\":9628:9653   */\n      swap2\n      pop\n        /* \"#utility.yul\":9667:9687   */\n      tag_296\n        /* \"#utility.yul\":9685:9686   */\n      dup4\n        /* \"#utility.yul\":9667:9687   */\n      tag_173\n      jump\t// in\n    tag_296:\n        /* \"#utility.yul\":9662:9687   */\n      swap3\n      pop\n        /* \"#utility.yul\":9706:9707   */\n      dup3\n        /* \"#utility.yul\":9696:9731   */\n      tag_297\n      jumpi\n        /* \"#utility.yul\":9711:9729   */\n      tag_298\n      tag_150\n      jump\t// in\n    tag_298:\n        /* \"#utility.yul\":9696:9731   */\n    tag_297:\n        /* \"#utility.yul\":9753:9754   */\n      dup3\n        /* \"#utility.yul\":9750:9751   */\n      dup3\n        /* \"#utility.yul\":9746:9755   */\n      div\n        /* \"#utility.yul\":9741:9755   */\n      swap1\n      pop\n        /* \"#utility.yul\":9576:9761   */\n      swap3\n      swap2\n      pop\n      pop\n      jump\t// out\n        /* \"#utility.yul\":9767:10001   */\n    tag_197:\n        /* \"#utility.yul\":9907:9941   */\n      0x4c69717569646974792070726f76696465642073686f756c6420626520677265\n        /* \"#utility.yul\":9903:9904   */\n      0x00\n        /* \"#utility.yul\":9895:9901   */\n      dup3\n        /* \"#utility.yul\":9891:9905   */\n      add\n        /* \"#utility.yul\":9884:9942   */\n      mstore\n        /* \"#utility.yul\":9976:9993   */\n      0x61746572207468616e2031204554480000000000000000000000000000000000\n        /* \"#utility.yul\":9971:9973   */\n      0x20\n        /* \"#utility.yul\":9963:9969   */\n      dup3\n        /* \"#utility.yul\":9959:9974   */\n      add\n        /* \"#utility.yul\":9952:9994   */\n      mstore\n        /* \"#utility.yul\":9767:10001   */\n      pop\n      jump\t// out\n        /* \"#utility.yul\":10007:10373   */\n    tag_198:\n        /* \"#utility.yul\":10149:10152   */\n      0x00\n        /* \"#utility.yul\":10170:10237   */\n      tag_301\n        /* \"#utility.yul\":10234:10236   */\n      0x2f\n        /* \"#utility.yul\":10229:10232   */\n      dup4\n        /* \"#utility.yul\":10170:10237   */\n      tag_182\n      jump\t// in\n    tag_301:\n        /* \"#utility.yul\":10163:10237   */\n      swap2\n      pop\n        /* \"#utility.yul\":10246:10339   */\n      tag_302\n        /* \"#utility.yul\":10335:10338   */\n      dup3\n        /* \"#utility.yul\":10246:10339   */\n      tag_197\n      jump\t// in\n    tag_302:\n        /* \"#utility.yul\":10364:10366   */\n      0x40\n        /* \"#utility.yul\":10359:10362   */\n      dup3\n        /* \"#utility.yul\":10355:10367   */\n      add\n        /* \"#utility.yul\":10348:10367   */\n      swap1\n      pop\n        /* \"#utility.yul\":10007:10373   */\n      swap2\n      swap1\n      pop\n      jump\t// out\n        /* \"#utility.yul\":10379:10798   */\n    tag_99:\n        /* \"#utility.yul\":10545:10549   */\n      0x00\n        /* \"#utility.yul\":10583:10585   */\n      0x20\n        /* \"#utility.yul\":10572:10581   */\n      dup3\n        /* \"#utility.yul\":10568:10586   */\n      add\n        /* \"#utility.yul\":10560:10586   */\n      swap1\n      pop\n        /* \"#utility.yul\":10632:10641   */\n      dup2\n        /* \"#utility.yul\":10626:10630   */\n      dup2\n        /* \"#utility.yul\":10622:10642   */\n      sub\n        /* \"#utility.yul\":10618:10619   */\n      0x00\n        /* \"#utility.yul\":10607:10616   */\n      dup4\n        /* \"#utility.yul\":10603:10620   */\n      add\n        /* \"#utility.yul\":10596:10643   */\n      mstore\n        /* \"#utility.yul\":10660:10791   */\n      tag_304\n        /* \"#utility.yul\":10786:10790   */\n      dup2\n        /* \"#utility.yul\":10660:10791   */\n      tag_198\n      jump\t// in\n    tag_304:\n        /* \"#utility.yul\":10652:10791   */\n      swap1\n      pop\n        /* \"#utility.yul\":10379:10798   */\n      swap2\n      swap1\n      pop\n      jump\t// out\n        /* \"#utility.yul\":10804:11214   */\n    tag_105:\n        /* \"#utility.yul\":10844:10851   */\n      0x00\n        /* \"#utility.yul\":10867:10887   */\n      tag_306\n        /* \"#utility.yul\":10885:10886   */\n      dup3\n        /* \"#utility.yul\":10867:10887   */\n      tag_173\n      jump\t// in\n    tag_306:\n        /* \"#utility.yul\":10862:10887   */\n      swap2\n      pop\n        /* \"#utility.yul\":10901:10921   */\n      tag_307\n        /* \"#utility.yul\":10919:10920   */\n      dup4\n        /* \"#utility.yul\":10901:10921   */\n      tag_173\n      jump\t// in\n    tag_307:\n        /* \"#utility.yul\":10896:10921   */\n      swap3\n      pop\n        /* \"#utility.yul\":10956:10957   */\n      dup3\n        /* \"#utility.yul\":10953:10954   */\n      dup3\n        /* \"#utility.yul\":10949:10958   */\n      mul\n        /* \"#utility.yul\":10978:11008   */\n      tag_308\n        /* \"#utility.yul\":10996:11007   */\n      dup2\n        /* \"#utility.yul\":10978:11008   */\n      tag_173\n      jump\t// in\n    tag_308:\n        /* \"#utility.yul\":10967:11008   */\n      swap2\n      pop\n        /* \"#utility.yul\":11157:11158   */\n      dup3\n        /* \"#utility.yul\":11148:11155   */\n      dup3\n        /* \"#utility.yul\":11144:11159   */\n      div\n        /* \"#utility.yul\":11141:11142   */\n      dup5\n        /* \"#utility.yul\":11138:11160   */\n      eq\n        /* \"#utility.yul\":11118:11119   */\n      dup4\n        /* \"#utility.yul\":11111:11120   */\n      iszero\n        /* \"#utility.yul\":11091:11174   */\n      or\n        /* \"#utility.yul\":11068:11207   */\n      tag_309\n      jumpi\n        /* \"#utility.yul\":11187:11205   */\n      tag_310\n      tag_196\n      jump\t// in\n    tag_310:\n        /* \"#utility.yul\":11068:11207   */\n    tag_309:\n        /* \"#utility.yul\":10852:11214   */\n      pop\n        /* \"#utility.yul\":10804:11214   */\n      swap3\n      swap2\n      pop\n      pop\n      jump\t// out\n        /* \"#utility.yul\":11220:11394   */\n    tag_199:\n        /* \"#utility.yul\":11360:11386   */\n      0x496e76616c696420616d6f756e74206f66207368617265730000000000000000\n        /* \"#utility.yul\":11356:11357   */\n      0x00\n        /* \"#utility.yul\":11348:11354   */\n      dup3\n        /* \"#utility.yul\":11344:11358   */\n      add\n        /* \"#utility.yul\":11337:11387   */\n      mstore\n        /* \"#utility.yul\":11220:11394   */\n      pop\n      jump\t// out\n        /* \"#utility.yul\":11400:11766   */\n    tag_200:\n        /* \"#utility.yul\":11542:11545   */\n      0x00\n        /* \"#utility.yul\":11563:11630   */\n      tag_313\n        /* \"#utility.yul\":11627:11629   */\n      0x18\n        /* \"#utility.yul\":11622:11625   */\n      dup4\n        /* \"#utility.yul\":11563:11630   */\n      tag_182\n      jump\t// in\n    tag_313:\n        /* \"#utility.yul\":11556:11630   */\n      swap2\n      pop\n        /* \"#utility.yul\":11639:11732   */\n      tag_314\n        /* \"#utility.yul\":11728:11731   */\n      dup3\n        /* \"#utility.yul\":11639:11732   */\n      tag_199\n      jump\t// in\n    tag_314:\n        /* \"#utility.yul\":11757:11759   */\n      0x20\n        /* \"#utility.yul\":11752:11755   */\n      dup3\n        /* \"#utility.yul\":11748:11760   */\n      add\n        /* \"#utility.yul\":11741:11760   */\n      swap1\n      pop\n        /* \"#utility.yul\":11400:11766   */\n      swap2\n      swap1\n      pop\n      jump\t// out\n        /* \"#utility.yul\":11772:12191   */\n    tag_116:\n        /* \"#utility.yul\":11938:11942   */\n      0x00\n        /* \"#utility.yul\":11976:11978   */\n      0x20\n        /* \"#utility.yul\":11965:11974   */\n      dup3\n        /* \"#utility.yul\":11961:11979   */\n      add\n        /* \"#utility.yul\":11953:11979   */\n      swap1\n      pop\n        /* \"#utility.yul\":12025:12034   */\n      dup2\n        /* \"#utility.yul\":12019:12023   */\n      dup2\n        /* \"#utility.yul\":12015:12035   */\n      sub\n        /* \"#utility.yul\":12011:12012   */\n      0x00\n        /* \"#utility.yul\":12000:12009   */\n      dup4\n        /* \"#utility.yul\":11996:12013   */\n      add\n        /* \"#utility.yul\":11989:12036   */\n      mstore\n        /* \"#utility.yul\":12053:12184   */\n      tag_316\n        /* \"#utility.yul\":12179:12183   */\n      dup2\n        /* \"#utility.yul\":12053:12184   */\n      tag_200\n      jump\t// in\n    tag_316:\n        /* \"#utility.yul\":12045:12184   */\n      swap1\n      pop\n        /* \"#utility.yul\":11772:12191   */\n      swap2\n      swap1\n      pop\n      jump\t// out\n        /* \"#utility.yul\":12197:12486   */\n    tag_201:\n        /* \"#utility.yul\":12337:12371   */\n      0x506c6561736520617070726f76652074686520636f6e747261637420746f2064\n        /* \"#utility.yul\":12333:12334   */\n      0x00\n        /* \"#utility.yul\":12325:12331   */\n      dup3\n        /* \"#utility.yul\":12321:12335   */\n      add\n        /* \"#utility.yul\":12314:12372   */\n      mstore\n        /* \"#utility.yul\":12406:12440   */\n      0x6564756374206c747220746f6b656e732066726f6d20796f75722077616c6c65\n        /* \"#utility.yul\":12401:12403   */\n      0x20\n        /* \"#utility.yul\":12393:12399   */\n      dup3\n        /* \"#utility.yul\":12389:12404   */\n      add\n        /* \"#utility.yul\":12382:12441   */\n      mstore\n        /* \"#utility.yul\":12475:12478   */\n      0x7400000000000000000000000000000000000000000000000000000000000000\n        /* \"#utility.yul\":12470:12472   */\n      0x40\n        /* \"#utility.yul\":12462:12468   */\n      dup3\n        /* \"#utility.yul\":12458:12473   */\n      add\n        /* \"#utility.yul\":12451:12479   */\n      mstore\n        /* \"#utility.yul\":12197:12486   */\n      pop\n      jump\t// out\n        /* \"#utility.yul\":12492:12858   */\n    tag_202:\n        /* \"#utility.yul\":12634:12637   */\n      0x00\n        /* \"#utility.yul\":12655:12722   */\n      tag_319\n        /* \"#utility.yul\":12719:12721   */\n      0x41\n        /* \"#utility.yul\":12714:12717   */\n      dup4\n        /* \"#utility.yul\":12655:12722   */\n      tag_182\n      jump\t// in\n    tag_319:\n        /* \"#utility.yul\":12648:12722   */\n      swap2\n      pop\n        /* \"#utility.yul\":12731:12824   */\n      tag_320\n        /* \"#utility.yul\":12820:12823   */\n      dup3\n        /* \"#utility.yul\":12731:12824   */\n      tag_201\n      jump\t// in\n    tag_320:\n        /* \"#utility.yul\":12849:12851   */\n      0x60\n        /* \"#utility.yul\":12844:12847   */\n      dup3\n        /* \"#utility.yul\":12840:12852   */\n      add\n        /* \"#utility.yul\":12833:12852   */\n      swap1\n      pop\n        /* \"#utility.yul\":12492:12858   */\n      swap2\n      swap1\n      pop\n      jump\t// out\n        /* \"#utility.yul\":12864:13283   */\n    tag_123:\n        /* \"#utility.yul\":13030:13034   */\n      0x00\n        /* \"#utility.yul\":13068:13070   */\n      0x20\n        /* \"#utility.yul\":13057:13066   */\n      dup3\n        /* \"#utility.yul\":13053:13071   */\n      add\n        /* \"#utility.yul\":13045:13071   */\n      swap1\n      pop\n        /* \"#utility.yul\":13117:13126   */\n      dup2\n        /* \"#utility.yul\":13111:13115   */\n      dup2\n        /* \"#utility.yul\":13107:13127   */\n      sub\n        /* \"#utility.yul\":13103:13104   */\n      0x00\n        /* \"#utility.yul\":13092:13101   */\n      dup4\n        /* \"#utility.yul\":13088:13105   */\n      add\n        /* \"#utility.yul\":13081:13128   */\n      mstore\n        /* \"#utility.yul\":13145:13276   */\n      tag_322\n        /* \"#utility.yul\":13271:13275   */\n      dup2\n        /* \"#utility.yul\":13145:13276   */\n      tag_202\n      jump\t// in\n    tag_322:\n        /* \"#utility.yul\":13137:13276   */\n      swap1\n      pop\n        /* \"#utility.yul\":12864:13283   */\n      swap2\n      swap1\n      pop\n      jump\t// out\n        /* \"#utility.yul\":13289:13454   */\n    tag_203:\n        /* \"#utility.yul\":13429:13446   */\n      0x5472616e73666572206661696c65640000000000000000000000000000000000\n        /* \"#utility.yul\":13425:13426   */\n      0x00\n        /* \"#utility.yul\":13417:13423   */\n      dup3\n        /* \"#utility.yul\":13413:13427   */\n      add\n        /* \"#utility.yul\":13406:13447   */\n      mstore\n        /* \"#utility.yul\":13289:13454   */\n      pop\n      jump\t// out\n        /* \"#utility.yul\":13460:13826   */\n    tag_204:\n        /* \"#utility.yul\":13602:13605   */\n      0x00\n        /* \"#utility.yul\":13623:13690   */\n      tag_325\n        /* \"#utility.yul\":13687:13689   */\n      0x0f\n        /* \"#utility.yul\":13682:13685   */\n      dup4\n        /* \"#utility.yul\":13623:13690   */\n      tag_182\n      jump\t// in\n    tag_325:\n        /* \"#utility.yul\":13616:13690   */\n      swap2\n      pop\n        /* \"#utility.yul\":13699:13792   */\n      tag_326\n        /* \"#utility.yul\":13788:13791   */\n      dup3\n        /* \"#utility.yul\":13699:13792   */\n      tag_203\n      jump\t// in\n    tag_326:\n        /* \"#utility.yul\":13817:13819   */\n      0x20\n        /* \"#utility.yul\":13812:13815   */\n      dup3\n        /* \"#utility.yul\":13808:13820   */\n      add\n        /* \"#utility.yul\":13801:13820   */\n      swap1\n      pop\n        /* \"#utility.yul\":13460:13826   */\n      swap2\n      swap1\n      pop\n      jump\t// out\n        /* \"#utility.yul\":13832:14251   */\n    tag_138:\n        /* \"#utility.yul\":13998:14002   */\n      0x00\n        /* \"#utility.yul\":14036:14038   */\n      0x20\n        /* \"#utility.yul\":14025:14034   */\n      dup3\n        /* \"#utility.yul\":14021:14039   */\n      add\n        /* \"#utility.yul\":14013:14039   */\n      swap1\n      pop\n        /* \"#utility.yul\":14085:14094   */\n      dup2\n        /* \"#utility.yul\":14079:14083   */\n      dup2\n        /* \"#utility.yul\":14075:14095   */\n      sub\n        /* \"#utility.yul\":14071:14072   */\n      0x00\n        /* \"#utility.yul\":14060:14069   */\n      dup4\n        /* \"#utility.yul\":14056:14073   */\n      add\n        /* \"#utility.yul\":14049:14096   */\n      mstore\n        /* \"#utility.yul\":14113:14244   */\n      tag_328\n        /* \"#utility.yul\":14239:14243   */\n      dup2\n        /* \"#utility.yul\":14113:14244   */\n      tag_204\n      jump\t// in\n    tag_328:\n        /* \"#utility.yul\":14105:14244   */\n      swap1\n      pop\n        /* \"#utility.yul\":13832:14251   */\n      swap2\n      swap1\n      pop\n      jump\t// out\n\n    auxdata: 0xa2646970667358221220de4bc4a887e344fd9a5ebaa3414010e47d4da0204f0d8d9a797a94f356c6399d64736f6c63430008110033\n}\n",
				"bytecode": {
					"linkReferences": {},
					"object": "60806040523480156200001157600080fd5b50604051620015ca380380620015ca8339818101604052810190620000379190620000e8565b806000806101000a81548173ffffffffffffffffffffffffffffffffffffffff021916908373ffffffffffffffffffffffffffffffffffffffff160217905550506200011a565b600080fd5b600073ffffffffffffffffffffffffffffffffffffffff82169050919050565b6000620000b08262000083565b9050919050565b620000c281620000a3565b8114620000ce57600080fd5b50565b600081519050620000e281620000b7565b92915050565b6000602082840312156200010157620001006200007e565b5b60006200011184828501620000d1565b91505092915050565b6114a0806200012a6000396000f3fe60806040526004361061007b5760003560e01c8063bec3fa171161004e578063bec3fa171461010c578063eb521a4c14610135578063f4325d6714610151578063ff9b37581461017c5761007b565b80631aa5c70e146100805780637464fc3d1461009c5780638e3073a6146100c757806394b918de146100f0575b600080fd5b61009a60048036038101906100959190610d8d565b6101a5565b005b3480156100a857600080fd5b506100b1610289565b6040516100be9190610dc9565b60405180910390f35b3480156100d357600080fd5b506100ee60048036038101906100e99190610d8d565b61028f565b005b61010a60048036038101906101059190610d8d565b6104be565b005b34801561011857600080fd5b50610133600480360381019061012e9190610e42565b610602565b005b61014f600480360381019061014a9190610d8d565b610699565b005b34801561015d57600080fd5b5061016661086f565b6040516101739190610e91565b60405180910390f35b34801561018857600080fd5b506101a3600480360381019061019e9190610d8d565b610893565b005b8034146101e7576040517f08c379a00000000000000000000000000000000000000000000000000000000081526004016101de90610f09565b60405180910390fd5b60008054906101000a900473ffffffffffffffffffffffffffffffffffffffff1673ffffffffffffffffffffffffffffffffffffffff1663a9059cbb33836040518363ffffffff1660e01b8152600401610242929190610f29565b6020604051808303816000875af1158015610261573d6000803e3d6000fd5b505050506040513d601f19601f820116820180604052508101906102859190610f8a565b5050565b60015481565b8060008054906101000a900473ffffffffffffffffffffffffffffffffffffffff1673ffffffffffffffffffffffffffffffffffffffff1663dd62ed3e33306040518363ffffffff1660e01b81526004016102eb929190610fb7565b602060405180830381865afa158015610308573d6000803e3d6000fd5b505050506040513d601f19601f8201168201806040525081019061032c9190610ff5565b101561036d576040517f08c379a00000000000000000000000000000000000000000000000000000000081526004016103649061106e565b60405180910390fd5b60008054906101000a900473ffffffffffffffffffffffffffffffffffffffff1673ffffffffffffffffffffffffffffffffffffffff166323b872dd3330846040518463ffffffff1660e01b81526004016103ca9392919061108e565b6020604051808303816000875af11580156103e9573d6000803e3d6000fd5b505050506040513d601f19601f8201168201806040525081019061040d9190610f8a565b5060003373ffffffffffffffffffffffffffffffffffffffff1682604051610434906110f6565b60006040518083038185875af1925050503d8060008114610471576040519150601f19603f3d011682016040523d82523d6000602084013e610476565b606091505b50509050806104ba576040517f08c379a00000000000000000000000000000000000000000000000000000000081526004016104b190611157565b60405180910390fd5b5050565b600034111561057e576000346001546104d791906111d5565b905060008054906101000a900473ffffffffffffffffffffffffffffffffffffffff1673ffffffffffffffffffffffffffffffffffffffff1663a9059cbb33836040518363ffffffff1660e01b8152600401610534929190610f29565b6020604051808303816000875af1158015610553573d6000803e3d6000fd5b505050506040513d601f19601f820116820180604052508101906105779190610f8a565b50506105ff565b60008160015461058e91906111d5565b905060003373ffffffffffffffffffffffffffffffffffffffff16826040516105b6906110f6565b60006040518083038185875af1925050503d80600081146105f3576040519150601f19603f3d011682016040523d82523d6000602084013e6105f8565b606091505b5050905050505b50565b7339db207dff3411f4fab0483d419306873cbc13d973ffffffffffffffffffffffffffffffffffffffff1663a9059cbb83836040518363ffffffff1660e01b8152600401610651929190610f29565b6020604051808303816000875af1158015610670573d6000803e3d6000fd5b505050506040513d601f19601f820116820180604052508101906106949190610f8a565b505050565b662386f26fc100008110156106e3576040517f08c379a00000000000000000000000000000000000000000000000000000000081526004016106da90611278565b60405180910390fd5b60008054906101000a900473ffffffffffffffffffffffffffffffffffffffff1673ffffffffffffffffffffffffffffffffffffffff166323b872dd3330846040518463ffffffff1660e01b81526004016107409392919061108e565b6020604051808303816000875af115801561075f573d6000803e3d6000fd5b505050506040513d601f19601f820116820180604052508101906107839190610f8a565b5047816107909190611298565b6001819055507339db207dff3411f4fab0483d419306873cbc13d973ffffffffffffffffffffffffffffffffffffffff1663a9059cbb336107d2600154610b8c565b6040518363ffffffff1660e01b81526004016107ef929190610f29565b6020604051808303816000875af115801561080e573d6000803e3d6000fd5b505050506040513d601f19601f820116820180604052508101906108329190610f8a565b507fb62268a18d99fe191ac8e62f823ab1eec698609a81b2c8de3dac902896b09da63382604051610864929190610f29565b60405180910390a150565b60008054906101000a900473ffffffffffffffffffffffffffffffffffffffff1681565b600081116108d6576040517f08c379a00000000000000000000000000000000000000000000000000000000081526004016108cd90611326565b60405180910390fd5b807339db207dff3411f4fab0483d419306873cbc13d973ffffffffffffffffffffffffffffffffffffffff1663dd62ed3e33306040518363ffffffff1660e01b8152600401610926929190610fb7565b602060405180830381865afa158015610943573d6000803e3d6000fd5b505050506040513d601f19601f820116820180604052508101906109679190610ff5565b10156109a8576040517f08c379a000000000000000000000000000000000000000000000000000000000815260040161099f906113de565b60405180910390fd5b7339db207dff3411f4fab0483d419306873cbc13d973ffffffffffffffffffffffffffffffffffffffff166323b872dd3330846040518463ffffffff1660e01b81526004016109f99392919061108e565b6020604051808303816000875af1158015610a18573d6000803e3d6000fd5b505050506040513d601f19601f82011682018060405250810190610a3c9190610f8a565b5060008054906101000a900473ffffffffffffffffffffffffffffffffffffffff1673ffffffffffffffffffffffffffffffffffffffff1663a9059cbb33836040518363ffffffff1660e01b8152600401610a98929190610f29565b6020604051808303816000875af1158015610ab7573d6000803e3d6000fd5b505050506040513d601f19601f82011682018060405250810190610adb9190610f8a565b5060003373ffffffffffffffffffffffffffffffffffffffff1682604051610b02906110f6565b60006040518083038185875af1925050503d8060008114610b3f576040519150601f19603f3d011682016040523d82523d6000602084013e610b44565b606091505b5050905080610b88576040517f08c379a0000000000000000000000000000000000000000000000000000000008152600401610b7f9061144a565b60405180910390fd5b5050565b6000808203610b9e5760009050610d34565b60006001905060008390506000608082901c1115610bc557608081901c9050604082901b91505b6000604082901c1115610be157604081901c9050602082901b91505b6000602082901c1115610bfd57602081901c9050601082901b91505b6000601082901c1115610c1957601081901c9050600882901b91505b6000600882901c1115610c3557600881901c9050600482901b91505b6000600482901c1115610c5157600481901c9050600282901b91505b6000600282901c1115610c6657600182901b91505b6001828581610c7857610c77611177565b5b048301901c91506001828581610c9157610c90611177565b5b048301901c91506001828581610caa57610ca9611177565b5b048301901c91506001828581610cc357610cc2611177565b5b048301901c91506001828581610cdc57610cdb611177565b5b048301901c91506001828581610cf557610cf4611177565b5b048301901c91506001828581610d0e57610d0d611177565b5b048301901c9150610d2f82838681610d2957610d28611177565b5b04610d39565b925050505b919050565b6000818310610d485781610d4a565b825b905092915050565b600080fd5b6000819050919050565b610d6a81610d57565b8114610d7557600080fd5b50565b600081359050610d8781610d61565b92915050565b600060208284031215610da357610da2610d52565b5b6000610db184828501610d78565b91505092915050565b610dc381610d57565b82525050565b6000602082019050610dde6000830184610dba565b92915050565b600073ffffffffffffffffffffffffffffffffffffffff82169050919050565b6000610e0f82610de4565b9050919050565b610e1f81610e04565b8114610e2a57600080fd5b50565b600081359050610e3c81610e16565b92915050565b60008060408385031215610e5957610e58610d52565b5b6000610e6785828601610e2d565b9250506020610e7885828601610d78565b9150509250929050565b610e8b81610e04565b82525050565b6000602082019050610ea66000830184610e82565b92915050565b600082825260208201905092915050565b7f496e76616c696420616d6f756e74000000000000000000000000000000000000600082015250565b6000610ef3600e83610eac565b9150610efe82610ebd565b602082019050919050565b60006020820190508181036000830152610f2281610ee6565b9050919050565b6000604082019050610f3e6000830185610e82565b610f4b6020830184610dba565b9392505050565b60008115159050919050565b610f6781610f52565b8114610f7257600080fd5b50565b600081519050610f8481610f5e565b92915050565b600060208284031215610fa057610f9f610d52565b5b6000610fae84828501610f75565b91505092915050565b6000604082019050610fcc6000830185610e82565b610fd96020830184610e82565b9392505050565b600081519050610fef81610d61565b92915050565b60006020828403121561100b5761100a610d52565b5b600061101984828501610fe0565b91505092915050565b7f436f6e7472616374206e6f7420617070726f7665640000000000000000000000600082015250565b6000611058601583610eac565b915061106382611022565b602082019050919050565b600060208201905081810360008301526110878161104b565b9050919050565b60006060820190506110a36000830186610e82565b6110b06020830185610e82565b6110bd6040830184610dba565b949350505050565b600081905092915050565b50565b60006110e06000836110c5565b91506110eb826110d0565b600082019050919050565b6000611101826110d3565b9150819050919050565b7f5472616e73666572204661696c65640000000000000000000000000000000000600082015250565b6000611141600f83610eac565b915061114c8261110b565b602082019050919050565b6000602082019050818103600083015261117081611134565b9050919050565b7f4e487b7100000000000000000000000000000000000000000000000000000000600052601260045260246000fd5b7f4e487b7100000000000000000000000000000000000000000000000000000000600052601160045260246000fd5b60006111e082610d57565b91506111eb83610d57565b9250826111fb576111fa611177565b5b828204905092915050565b7f4c69717569646974792070726f76696465642073686f756c642062652067726560008201527f61746572207468616e2031204554480000000000000000000000000000000000602082015250565b6000611262602f83610eac565b915061126d82611206565b604082019050919050565b6000602082019050818103600083015261129181611255565b9050919050565b60006112a382610d57565b91506112ae83610d57565b92508282026112bc81610d57565b915082820484148315176112d3576112d26111a6565b5b5092915050565b7f496e76616c696420616d6f756e74206f66207368617265730000000000000000600082015250565b6000611310601883610eac565b915061131b826112da565b602082019050919050565b6000602082019050818103600083015261133f81611303565b9050919050565b7f506c6561736520617070726f76652074686520636f6e747261637420746f206460008201527f6564756374206c747220746f6b656e732066726f6d20796f75722077616c6c6560208201527f7400000000000000000000000000000000000000000000000000000000000000604082015250565b60006113c8604183610eac565b91506113d382611346565b606082019050919050565b600060208201905081810360008301526113f7816113bb565b9050919050565b7f5472616e73666572206661696c65640000000000000000000000000000000000600082015250565b6000611434600f83610eac565b915061143f826113fe565b602082019050919050565b6000602082019050818103600083015261146381611427565b905091905056fea2646970667358221220de4bc4a887e344fd9a5ebaa3414010e47d4da0204f0d8d9a797a94f356c6399d64736f6c63430008110033",
					"opcodes": "PUSH1 0x80 PUSH1 0x40 MSTORE CALLVALUE DUP1 ISZERO PUSH3 0x11 JUMPI PUSH1 0x0 DUP1 REVERT JUMPDEST POP PUSH1 0x40 MLOAD PUSH3 0x15CA CODESIZE SUB DUP1 PUSH3 0x15CA DUP4 CODECOPY DUP2 DUP2 ADD PUSH1 0x40 MSTORE DUP2 ADD SWAP1 PUSH3 0x37 SWAP2 SWAP1 PUSH3 0xE8 JUMP JUMPDEST DUP1 PUSH1 0x0 DUP1 PUSH2 0x100 EXP DUP2 SLOAD DUP2 PUSH20 0xFFFFFFFFFFFFFFFFFFFFFFFFFFFFFFFFFFFFFFFF MUL NOT AND SWAP1 DUP4 PUSH20 0xFFFFFFFFFFFFFFFFFFFFFFFFFFFFFFFFFFFFFFFF AND MUL OR SWAP1 SSTORE POP POP PUSH3 0x11A JUMP JUMPDEST PUSH1 0x0 DUP1 REVERT JUMPDEST PUSH1 0x0 PUSH20 0xFFFFFFFFFFFFFFFFFFFFFFFFFFFFFFFFFFFFFFFF DUP3 AND SWAP1 POP SWAP2 SWAP1 POP JUMP JUMPDEST PUSH1 0x0 PUSH3 0xB0 DUP3 PUSH3 0x83 JUMP JUMPDEST SWAP1 POP SWAP2 SWAP1 POP JUMP JUMPDEST PUSH3 0xC2 DUP2 PUSH3 0xA3 JUMP JUMPDEST DUP2 EQ PUSH3 0xCE JUMPI PUSH1 0x0 DUP1 REVERT JUMPDEST POP JUMP JUMPDEST PUSH1 0x0 DUP2 MLOAD SWAP1 POP PUSH3 0xE2 DUP2 PUSH3 0xB7 JUMP JUMPDEST SWAP3 SWAP2 POP POP JUMP JUMPDEST PUSH1 0x0 PUSH1 0x20 DUP3 DUP5 SUB SLT ISZERO PUSH3 0x101 JUMPI PUSH3 0x100 PUSH3 0x7E JUMP JUMPDEST JUMPDEST PUSH1 0x0 PUSH3 0x111 DUP5 DUP3 DUP6 ADD PUSH3 0xD1 JUMP JUMPDEST SWAP2 POP POP SWAP3 SWAP2 POP POP JUMP JUMPDEST PUSH2 0x14A0 DUP1 PUSH3 0x12A PUSH1 0x0 CODECOPY PUSH1 0x0 RETURN INVALID PUSH1 0x80 PUSH1 0x40 MSTORE PUSH1 0x4 CALLDATASIZE LT PUSH2 0x7B JUMPI PUSH1 0x0 CALLDATALOAD PUSH1 0xE0 SHR DUP1 PUSH4 0xBEC3FA17 GT PUSH2 0x4E JUMPI DUP1 PUSH4 0xBEC3FA17 EQ PUSH2 0x10C JUMPI DUP1 PUSH4 0xEB521A4C EQ PUSH2 0x135 JUMPI DUP1 PUSH4 0xF4325D67 EQ PUSH2 0x151 JUMPI DUP1 PUSH4 0xFF9B3758 EQ PUSH2 0x17C JUMPI PUSH2 0x7B JUMP JUMPDEST DUP1 PUSH4 0x1AA5C70E EQ PUSH2 0x80 JUMPI DUP1 PUSH4 0x7464FC3D EQ PUSH2 0x9C JUMPI DUP1 PUSH4 0x8E3073A6 EQ PUSH2 0xC7 JUMPI DUP1 PUSH4 0x94B918DE EQ PUSH2 0xF0 JUMPI JUMPDEST PUSH1 0x0 DUP1 REVERT JUMPDEST PUSH2 0x9A PUSH1 0x4 DUP1 CALLDATASIZE SUB DUP2 ADD SWAP1 PUSH2 0x95 SWAP2 SWAP1 PUSH2 0xD8D JUMP JUMPDEST PUSH2 0x1A5 JUMP JUMPDEST STOP JUMPDEST CALLVALUE DUP1 ISZERO PUSH2 0xA8 JUMPI PUSH1 0x0 DUP1 REVERT JUMPDEST POP PUSH2 0xB1 PUSH2 0x289 JUMP JUMPDEST PUSH1 0x40 MLOAD PUSH2 0xBE SWAP2 SWAP1 PUSH2 0xDC9 JUMP JUMPDEST PUSH1 0x40 MLOAD DUP1 SWAP2 SUB SWAP1 RETURN JUMPDEST CALLVALUE DUP1 ISZERO PUSH2 0xD3 JUMPI PUSH1 0x0 DUP1 REVERT JUMPDEST POP PUSH2 0xEE PUSH1 0x4 DUP1 CALLDATASIZE SUB DUP2 ADD SWAP1 PUSH2 0xE9 SWAP2 SWAP1 PUSH2 0xD8D JUMP JUMPDEST PUSH2 0x28F JUMP JUMPDEST STOP JUMPDEST PUSH2 0x10A PUSH1 0x4 DUP1 CALLDATASIZE SUB DUP2 ADD SWAP1 PUSH2 0x105 SWAP2 SWAP1 PUSH2 0xD8D JUMP JUMPDEST PUSH2 0x4BE JUMP JUMPDEST STOP JUMPDEST CALLVALUE DUP1 ISZERO PUSH2 0x118 JUMPI PUSH1 0x0 DUP1 REVERT JUMPDEST POP PUSH2 0x133 PUSH1 0x4 DUP1 CALLDATASIZE SUB DUP2 ADD SWAP1 PUSH2 0x12E SWAP2 SWAP1 PUSH2 0xE42 JUMP JUMPDEST PUSH2 0x602 JUMP JUMPDEST STOP JUMPDEST PUSH2 0x14F PUSH1 0x4 DUP1 CALLDATASIZE SUB DUP2 ADD SWAP1 PUSH2 0x14A SWAP2 SWAP1 PUSH2 0xD8D JUMP JUMPDEST PUSH2 0x699 JUMP JUMPDEST STOP JUMPDEST CALLVALUE DUP1 ISZERO PUSH2 0x15D JUMPI PUSH1 0x0 DUP1 REVERT JUMPDEST POP PUSH2 0x166 PUSH2 0x86F JUMP JUMPDEST PUSH1 0x40 MLOAD PUSH2 0x173 SWAP2 SWAP1 PUSH2 0xE91 JUMP JUMPDEST PUSH1 0x40 MLOAD DUP1 SWAP2 SUB SWAP1 RETURN JUMPDEST CALLVALUE DUP1 ISZERO PUSH2 0x188 JUMPI PUSH1 0x0 DUP1 REVERT JUMPDEST POP PUSH2 0x1A3 PUSH1 0x4 DUP1 CALLDATASIZE SUB DUP2 ADD SWAP1 PUSH2 0x19E SWAP2 SWAP1 PUSH2 0xD8D JUMP JUMPDEST PUSH2 0x893 JUMP JUMPDEST STOP JUMPDEST DUP1 CALLVALUE EQ PUSH2 0x1E7 JUMPI PUSH1 0x40 MLOAD PUSH32 0x8C379A000000000000000000000000000000000000000000000000000000000 DUP2 MSTORE PUSH1 0x4 ADD PUSH2 0x1DE SWAP1 PUSH2 0xF09 JUMP JUMPDEST PUSH1 0x40 MLOAD DUP1 SWAP2 SUB SWAP1 REVERT JUMPDEST PUSH1 0x0 DUP1 SLOAD SWAP1 PUSH2 0x100 EXP SWAP1 DIV PUSH20 0xFFFFFFFFFFFFFFFFFFFFFFFFFFFFFFFFFFFFFFFF AND PUSH20 0xFFFFFFFFFFFFFFFFFFFFFFFFFFFFFFFFFFFFFFFF AND PUSH4 0xA9059CBB CALLER DUP4 PUSH1 0x40 MLOAD DUP4 PUSH4 0xFFFFFFFF AND PUSH1 0xE0 SHL DUP2 MSTORE PUSH1 0x4 ADD PUSH2 0x242 SWAP3 SWAP2 SWAP1 PUSH2 0xF29 JUMP JUMPDEST PUSH1 0x20 PUSH1 0x40 MLOAD DUP1 DUP4 SUB DUP2 PUSH1 0x0 DUP8 GAS CALL ISZERO DUP1 ISZERO PUSH2 0x261 JUMPI RETURNDATASIZE PUSH1 0x0 DUP1 RETURNDATACOPY RETURNDATASIZE PUSH1 0x0 REVERT JUMPDEST POP POP POP POP PUSH1 0x40 MLOAD RETURNDATASIZE PUSH1 0x1F NOT PUSH1 0x1F DUP3 ADD AND DUP3 ADD DUP1 PUSH1 0x40 MSTORE POP DUP2 ADD SWAP1 PUSH2 0x285 SWAP2 SWAP1 PUSH2 0xF8A JUMP JUMPDEST POP POP JUMP JUMPDEST PUSH1 0x1 SLOAD DUP2 JUMP JUMPDEST DUP1 PUSH1 0x0 DUP1 SLOAD SWAP1 PUSH2 0x100 EXP SWAP1 DIV PUSH20 0xFFFFFFFFFFFFFFFFFFFFFFFFFFFFFFFFFFFFFFFF AND PUSH20 0xFFFFFFFFFFFFFFFFFFFFFFFFFFFFFFFFFFFFFFFF AND PUSH4 0xDD62ED3E CALLER ADDRESS PUSH1 0x40 MLOAD DUP4 PUSH4 0xFFFFFFFF AND PUSH1 0xE0 SHL DUP2 MSTORE PUSH1 0x4 ADD PUSH2 0x2EB SWAP3 SWAP2 SWAP1 PUSH2 0xFB7 JUMP JUMPDEST PUSH1 0x20 PUSH1 0x40 MLOAD DUP1 DUP4 SUB DUP2 DUP7 GAS STATICCALL ISZERO DUP1 ISZERO PUSH2 0x308 JUMPI RETURNDATASIZE PUSH1 0x0 DUP1 RETURNDATACOPY RETURNDATASIZE PUSH1 0x0 REVERT JUMPDEST POP POP POP POP PUSH1 0x40 MLOAD RETURNDATASIZE PUSH1 0x1F NOT PUSH1 0x1F DUP3 ADD AND DUP3 ADD DUP1 PUSH1 0x40 MSTORE POP DUP2 ADD SWAP1 PUSH2 0x32C SWAP2 SWAP1 PUSH2 0xFF5 JUMP JUMPDEST LT ISZERO PUSH2 0x36D JUMPI PUSH1 0x40 MLOAD PUSH32 0x8C379A000000000000000000000000000000000000000000000000000000000 DUP2 MSTORE PUSH1 0x4 ADD PUSH2 0x364 SWAP1 PUSH2 0x106E JUMP JUMPDEST PUSH1 0x40 MLOAD DUP1 SWAP2 SUB SWAP1 REVERT JUMPDEST PUSH1 0x0 DUP1 SLOAD SWAP1 PUSH2 0x100 EXP SWAP1 DIV PUSH20 0xFFFFFFFFFFFFFFFFFFFFFFFFFFFFFFFFFFFFFFFF AND PUSH20 0xFFFFFFFFFFFFFFFFFFFFFFFFFFFFFFFFFFFFFFFF AND PUSH4 0x23B872DD CALLER ADDRESS DUP5 PUSH1 0x40 MLOAD DUP5 PUSH4 0xFFFFFFFF AND PUSH1 0xE0 SHL DUP2 MSTORE PUSH1 0x4 ADD PUSH2 0x3CA SWAP4 SWAP3 SWAP2 SWAP1 PUSH2 0x108E JUMP JUMPDEST PUSH1 0x20 PUSH1 0x40 MLOAD DUP1 DUP4 SUB DUP2 PUSH1 0x0 DUP8 GAS CALL ISZERO DUP1 ISZERO PUSH2 0x3E9 JUMPI RETURNDATASIZE PUSH1 0x0 DUP1 RETURNDATACOPY RETURNDATASIZE PUSH1 0x0 REVERT JUMPDEST POP POP POP POP PUSH1 0x40 MLOAD RETURNDATASIZE PUSH1 0x1F NOT PUSH1 0x1F DUP3 ADD AND DUP3 ADD DUP1 PUSH1 0x40 MSTORE POP DUP2 ADD SWAP1 PUSH2 0x40D SWAP2 SWAP1 PUSH2 0xF8A JUMP JUMPDEST POP PUSH1 0x0 CALLER PUSH20 0xFFFFFFFFFFFFFFFFFFFFFFFFFFFFFFFFFFFFFFFF AND DUP3 PUSH1 0x40 MLOAD PUSH2 0x434 SWAP1 PUSH2 0x10F6 JUMP JUMPDEST PUSH1 0x0 PUSH1 0x40 MLOAD DUP1 DUP4 SUB DUP2 DUP6 DUP8 GAS CALL SWAP3 POP POP POP RETURNDATASIZE DUP1 PUSH1 0x0 DUP2 EQ PUSH2 0x471 JUMPI PUSH1 0x40 MLOAD SWAP2 POP PUSH1 0x1F NOT PUSH1 0x3F RETURNDATASIZE ADD AND DUP3 ADD PUSH1 0x40 MSTORE RETURNDATASIZE DUP3 MSTORE RETURNDATASIZE PUSH1 0x0 PUSH1 0x20 DUP5 ADD RETURNDATACOPY PUSH2 0x476 JUMP JUMPDEST PUSH1 0x60 SWAP2 POP JUMPDEST POP POP SWAP1 POP DUP1 PUSH2 0x4BA JUMPI PUSH1 0x40 MLOAD PUSH32 0x8C379A000000000000000000000000000000000000000000000000000000000 DUP2 MSTORE PUSH1 0x4 ADD PUSH2 0x4B1 SWAP1 PUSH2 0x1157 JUMP JUMPDEST PUSH1 0x40 MLOAD DUP1 SWAP2 SUB SWAP1 REVERT JUMPDEST POP POP JUMP JUMPDEST PUSH1 0x0 CALLVALUE GT ISZERO PUSH2 0x57E JUMPI PUSH1 0x0 CALLVALUE PUSH1 0x1 SLOAD PUSH2 0x4D7 SWAP2 SWAP1 PUSH2 0x11D5 JUMP JUMPDEST SWAP1 POP PUSH1 0x0 DUP1 SLOAD SWAP1 PUSH2 0x100 EXP SWAP1 DIV PUSH20 0xFFFFFFFFFFFFFFFFFFFFFFFFFFFFFFFFFFFFFFFF AND PUSH20 0xFFFFFFFFFFFFFFFFFFFFFFFFFFFFFFFFFFFFFFFF AND PUSH4 0xA9059CBB CALLER DUP4 PUSH1 0x40 MLOAD DUP4 PUSH4 0xFFFFFFFF AND PUSH1 0xE0 SHL DUP2 MSTORE PUSH1 0x4 ADD PUSH2 0x534 SWAP3 SWAP2 SWAP1 PUSH2 0xF29 JUMP JUMPDEST PUSH1 0x20 PUSH1 0x40 MLOAD DUP1 DUP4 SUB DUP2 PUSH1 0x0 DUP8 GAS CALL ISZERO DUP1 ISZERO PUSH2 0x553 JUMPI RETURNDATASIZE PUSH1 0x0 DUP1 RETURNDATACOPY RETURNDATASIZE PUSH1 0x0 REVERT JUMPDEST POP POP POP POP PUSH1 0x40 MLOAD RETURNDATASIZE PUSH1 0x1F NOT PUSH1 0x1F DUP3 ADD AND DUP3 ADD DUP1 PUSH1 0x40 MSTORE POP DUP2 ADD SWAP1 PUSH2 0x577 SWAP2 SWAP1 PUSH2 0xF8A JUMP JUMPDEST POP POP PUSH2 0x5FF JUMP JUMPDEST PUSH1 0x0 DUP2 PUSH1 0x1 SLOAD PUSH2 0x58E SWAP2 SWAP1 PUSH2 0x11D5 JUMP JUMPDEST SWAP1 POP PUSH1 0x0 CALLER PUSH20 0xFFFFFFFFFFFFFFFFFFFFFFFFFFFFFFFFFFFFFFFF AND DUP3 PUSH1 0x40 MLOAD PUSH2 0x5B6 SWAP1 PUSH2 0x10F6 JUMP JUMPDEST PUSH1 0x0 PUSH1 0x40 MLOAD DUP1 DUP4 SUB DUP2 DUP6 DUP8 GAS CALL SWAP3 POP POP POP RETURNDATASIZE DUP1 PUSH1 0x0 DUP2 EQ PUSH2 0x5F3 JUMPI PUSH1 0x40 MLOAD SWAP2 POP PUSH1 0x1F NOT PUSH1 0x3F RETURNDATASIZE ADD AND DUP3 ADD PUSH1 0x40 MSTORE RETURNDATASIZE DUP3 MSTORE RETURNDATASIZE PUSH1 0x0 PUSH1 0x20 DUP5 ADD RETURNDATACOPY PUSH2 0x5F8 JUMP JUMPDEST PUSH1 0x60 SWAP2 POP JUMPDEST POP POP SWAP1 POP POP POP JUMPDEST POP JUMP JUMPDEST PUSH20 0x39DB207DFF3411F4FAB0483D419306873CBC13D9 PUSH20 0xFFFFFFFFFFFFFFFFFFFFFFFFFFFFFFFFFFFFFFFF AND PUSH4 0xA9059CBB DUP4 DUP4 PUSH1 0x40 MLOAD DUP4 PUSH4 0xFFFFFFFF AND PUSH1 0xE0 SHL DUP2 MSTORE PUSH1 0x4 ADD PUSH2 0x651 SWAP3 SWAP2 SWAP1 PUSH2 0xF29 JUMP JUMPDEST PUSH1 0x20 PUSH1 0x40 MLOAD DUP1 DUP4 SUB DUP2 PUSH1 0x0 DUP8 GAS CALL ISZERO DUP1 ISZERO PUSH2 0x670 JUMPI RETURNDATASIZE PUSH1 0x0 DUP1 RETURNDATACOPY RETURNDATASIZE PUSH1 0x0 REVERT JUMPDEST POP POP POP POP PUSH1 0x40 MLOAD RETURNDATASIZE PUSH1 0x1F NOT PUSH1 0x1F DUP3 ADD AND DUP3 ADD DUP1 PUSH1 0x40 MSTORE POP DUP2 ADD SWAP1 PUSH2 0x694 SWAP2 SWAP1 PUSH2 0xF8A JUMP JUMPDEST POP POP POP JUMP JUMPDEST PUSH7 0x2386F26FC10000 DUP2 LT ISZERO PUSH2 0x6E3 JUMPI PUSH1 0x40 MLOAD PUSH32 0x8C379A000000000000000000000000000000000000000000000000000000000 DUP2 MSTORE PUSH1 0x4 ADD PUSH2 0x6DA SWAP1 PUSH2 0x1278 JUMP JUMPDEST PUSH1 0x40 MLOAD DUP1 SWAP2 SUB SWAP1 REVERT JUMPDEST PUSH1 0x0 DUP1 SLOAD SWAP1 PUSH2 0x100 EXP SWAP1 DIV PUSH20 0xFFFFFFFFFFFFFFFFFFFFFFFFFFFFFFFFFFFFFFFF AND PUSH20 0xFFFFFFFFFFFFFFFFFFFFFFFFFFFFFFFFFFFFFFFF AND PUSH4 0x23B872DD CALLER ADDRESS DUP5 PUSH1 0x40 MLOAD DUP5 PUSH4 0xFFFFFFFF AND PUSH1 0xE0 SHL DUP2 MSTORE PUSH1 0x4 ADD PUSH2 0x740 SWAP4 SWAP3 SWAP2 SWAP1 PUSH2 0x108E JUMP JUMPDEST PUSH1 0x20 PUSH1 0x40 MLOAD DUP1 DUP4 SUB DUP2 PUSH1 0x0 DUP8 GAS CALL ISZERO DUP1 ISZERO PUSH2 0x75F JUMPI RETURNDATASIZE PUSH1 0x0 DUP1 RETURNDATACOPY RETURNDATASIZE PUSH1 0x0 REVERT JUMPDEST POP POP POP POP PUSH1 0x40 MLOAD RETURNDATASIZE PUSH1 0x1F NOT PUSH1 0x1F DUP3 ADD AND DUP3 ADD DUP1 PUSH1 0x40 MSTORE POP DUP2 ADD SWAP1 PUSH2 0x783 SWAP2 SWAP1 PUSH2 0xF8A JUMP JUMPDEST POP SELFBALANCE DUP2 PUSH2 0x790 SWAP2 SWAP1 PUSH2 0x1298 JUMP JUMPDEST PUSH1 0x1 DUP2 SWAP1 SSTORE POP PUSH20 0x39DB207DFF3411F4FAB0483D419306873CBC13D9 PUSH20 0xFFFFFFFFFFFFFFFFFFFFFFFFFFFFFFFFFFFFFFFF AND PUSH4 0xA9059CBB CALLER PUSH2 0x7D2 PUSH1 0x1 SLOAD PUSH2 0xB8C JUMP JUMPDEST PUSH1 0x40 MLOAD DUP4 PUSH4 0xFFFFFFFF AND PUSH1 0xE0 SHL DUP2 MSTORE PUSH1 0x4 ADD PUSH2 0x7EF SWAP3 SWAP2 SWAP1 PUSH2 0xF29 JUMP JUMPDEST PUSH1 0x20 PUSH1 0x40 MLOAD DUP1 DUP4 SUB DUP2 PUSH1 0x0 DUP8 GAS CALL ISZERO DUP1 ISZERO PUSH2 0x80E JUMPI RETURNDATASIZE PUSH1 0x0 DUP1 RETURNDATACOPY RETURNDATASIZE PUSH1 0x0 REVERT JUMPDEST POP POP POP POP PUSH1 0x40 MLOAD RETURNDATASIZE PUSH1 0x1F NOT PUSH1 0x1F DUP3 ADD AND DUP3 ADD DUP1 PUSH1 0x40 MSTORE POP DUP2 ADD SWAP1 PUSH2 0x832 SWAP2 SWAP1 PUSH2 0xF8A JUMP JUMPDEST POP PUSH32 0xB62268A18D99FE191AC8E62F823AB1EEC698609A81B2C8DE3DAC902896B09DA6 CALLER DUP3 PUSH1 0x40 MLOAD PUSH2 0x864 SWAP3 SWAP2 SWAP1 PUSH2 0xF29 JUMP JUMPDEST PUSH1 0x40 MLOAD DUP1 SWAP2 SUB SWAP1 LOG1 POP JUMP JUMPDEST PUSH1 0x0 DUP1 SLOAD SWAP1 PUSH2 0x100 EXP SWAP1 DIV PUSH20 0xFFFFFFFFFFFFFFFFFFFFFFFFFFFFFFFFFFFFFFFF AND DUP2 JUMP JUMPDEST PUSH1 0x0 DUP2 GT PUSH2 0x8D6 JUMPI PUSH1 0x40 MLOAD PUSH32 0x8C379A000000000000000000000000000000000000000000000000000000000 DUP2 MSTORE PUSH1 0x4 ADD PUSH2 0x8CD SWAP1 PUSH2 0x1326 JUMP JUMPDEST PUSH1 0x40 MLOAD DUP1 SWAP2 SUB SWAP1 REVERT JUMPDEST DUP1 PUSH20 0x39DB207DFF3411F4FAB0483D419306873CBC13D9 PUSH20 0xFFFFFFFFFFFFFFFFFFFFFFFFFFFFFFFFFFFFFFFF AND PUSH4 0xDD62ED3E CALLER ADDRESS PUSH1 0x40 MLOAD DUP4 PUSH4 0xFFFFFFFF AND PUSH1 0xE0 SHL DUP2 MSTORE PUSH1 0x4 ADD PUSH2 0x926 SWAP3 SWAP2 SWAP1 PUSH2 0xFB7 JUMP JUMPDEST PUSH1 0x20 PUSH1 0x40 MLOAD DUP1 DUP4 SUB DUP2 DUP7 GAS STATICCALL ISZERO DUP1 ISZERO PUSH2 0x943 JUMPI RETURNDATASIZE PUSH1 0x0 DUP1 RETURNDATACOPY RETURNDATASIZE PUSH1 0x0 REVERT JUMPDEST POP POP POP POP PUSH1 0x40 MLOAD RETURNDATASIZE PUSH1 0x1F NOT PUSH1 0x1F DUP3 ADD AND DUP3 ADD DUP1 PUSH1 0x40 MSTORE POP DUP2 ADD SWAP1 PUSH2 0x967 SWAP2 SWAP1 PUSH2 0xFF5 JUMP JUMPDEST LT ISZERO PUSH2 0x9A8 JUMPI PUSH1 0x40 MLOAD PUSH32 0x8C379A000000000000000000000000000000000000000000000000000000000 DUP2 MSTORE PUSH1 0x4 ADD PUSH2 0x99F SWAP1 PUSH2 0x13DE JUMP JUMPDEST PUSH1 0x40 MLOAD DUP1 SWAP2 SUB SWAP1 REVERT JUMPDEST PUSH20 0x39DB207DFF3411F4FAB0483D419306873CBC13D9 PUSH20 0xFFFFFFFFFFFFFFFFFFFFFFFFFFFFFFFFFFFFFFFF AND PUSH4 0x23B872DD CALLER ADDRESS DUP5 PUSH1 0x40 MLOAD DUP5 PUSH4 0xFFFFFFFF AND PUSH1 0xE0 SHL DUP2 MSTORE PUSH1 0x4 ADD PUSH2 0x9F9 SWAP4 SWAP3 SWAP2 SWAP1 PUSH2 0x108E JUMP JUMPDEST PUSH1 0x20 PUSH1 0x40 MLOAD DUP1 DUP4 SUB DUP2 PUSH1 0x0 DUP8 GAS CALL ISZERO DUP1 ISZERO PUSH2 0xA18 JUMPI RETURNDATASIZE PUSH1 0x0 DUP1 RETURNDATACOPY RETURNDATASIZE PUSH1 0x0 REVERT JUMPDEST POP POP POP POP PUSH1 0x40 MLOAD RETURNDATASIZE PUSH1 0x1F NOT PUSH1 0x1F DUP3 ADD AND DUP3 ADD DUP1 PUSH1 0x40 MSTORE POP DUP2 ADD SWAP1 PUSH2 0xA3C SWAP2 SWAP1 PUSH2 0xF8A JUMP JUMPDEST POP PUSH1 0x0 DUP1 SLOAD SWAP1 PUSH2 0x100 EXP SWAP1 DIV PUSH20 0xFFFFFFFFFFFFFFFFFFFFFFFFFFFFFFFFFFFFFFFF AND PUSH20 0xFFFFFFFFFFFFFFFFFFFFFFFFFFFFFFFFFFFFFFFF AND PUSH4 0xA9059CBB CALLER DUP4 PUSH1 0x40 MLOAD DUP4 PUSH4 0xFFFFFFFF AND PUSH1 0xE0 SHL DUP2 MSTORE PUSH1 0x4 ADD PUSH2 0xA98 SWAP3 SWAP2 SWAP1 PUSH2 0xF29 JUMP JUMPDEST PUSH1 0x20 PUSH1 0x40 MLOAD DUP1 DUP4 SUB DUP2 PUSH1 0x0 DUP8 GAS CALL ISZERO DUP1 ISZERO PUSH2 0xAB7 JUMPI RETURNDATASIZE PUSH1 0x0 DUP1 RETURNDATACOPY RETURNDATASIZE PUSH1 0x0 REVERT JUMPDEST POP POP POP POP PUSH1 0x40 MLOAD RETURNDATASIZE PUSH1 0x1F NOT PUSH1 0x1F DUP3 ADD AND DUP3 ADD DUP1 PUSH1 0x40 MSTORE POP DUP2 ADD SWAP1 PUSH2 0xADB SWAP2 SWAP1 PUSH2 0xF8A JUMP JUMPDEST POP PUSH1 0x0 CALLER PUSH20 0xFFFFFFFFFFFFFFFFFFFFFFFFFFFFFFFFFFFFFFFF AND DUP3 PUSH1 0x40 MLOAD PUSH2 0xB02 SWAP1 PUSH2 0x10F6 JUMP JUMPDEST PUSH1 0x0 PUSH1 0x40 MLOAD DUP1 DUP4 SUB DUP2 DUP6 DUP8 GAS CALL SWAP3 POP POP POP RETURNDATASIZE DUP1 PUSH1 0x0 DUP2 EQ PUSH2 0xB3F JUMPI PUSH1 0x40 MLOAD SWAP2 POP PUSH1 0x1F NOT PUSH1 0x3F RETURNDATASIZE ADD AND DUP3 ADD PUSH1 0x40 MSTORE RETURNDATASIZE DUP3 MSTORE RETURNDATASIZE PUSH1 0x0 PUSH1 0x20 DUP5 ADD RETURNDATACOPY PUSH2 0xB44 JUMP JUMPDEST PUSH1 0x60 SWAP2 POP JUMPDEST POP POP SWAP1 POP DUP1 PUSH2 0xB88 JUMPI PUSH1 0x40 MLOAD PUSH32 0x8C379A000000000000000000000000000000000000000000000000000000000 DUP2 MSTORE PUSH1 0x4 ADD PUSH2 0xB7F SWAP1 PUSH2 0x144A JUMP JUMPDEST PUSH1 0x40 MLOAD DUP1 SWAP2 SUB SWAP1 REVERT JUMPDEST POP POP JUMP JUMPDEST PUSH1 0x0 DUP1 DUP3 SUB PUSH2 0xB9E JUMPI PUSH1 0x0 SWAP1 POP PUSH2 0xD34 JUMP JUMPDEST PUSH1 0x0 PUSH1 0x1 SWAP1 POP PUSH1 0x0 DUP4 SWAP1 POP PUSH1 0x0 PUSH1 0x80 DUP3 SWAP1 SHR GT ISZERO PUSH2 0xBC5 JUMPI PUSH1 0x80 DUP2 SWAP1 SHR SWAP1 POP PUSH1 0x40 DUP3 SWAP1 SHL SWAP2 POP JUMPDEST PUSH1 0x0 PUSH1 0x40 DUP3 SWAP1 SHR GT ISZERO PUSH2 0xBE1 JUMPI PUSH1 0x40 DUP2 SWAP1 SHR SWAP1 POP PUSH1 0x20 DUP3 SWAP1 SHL SWAP2 POP JUMPDEST PUSH1 0x0 PUSH1 0x20 DUP3 SWAP1 SHR GT ISZERO PUSH2 0xBFD JUMPI PUSH1 0x20 DUP2 SWAP1 SHR SWAP1 POP PUSH1 0x10 DUP3 SWAP1 SHL SWAP2 POP JUMPDEST PUSH1 0x0 PUSH1 0x10 DUP3 SWAP1 SHR GT ISZERO PUSH2 0xC19 JUMPI PUSH1 0x10 DUP2 SWAP1 SHR SWAP1 POP PUSH1 0x8 DUP3 SWAP1 SHL SWAP2 POP JUMPDEST PUSH1 0x0 PUSH1 0x8 DUP3 SWAP1 SHR GT ISZERO PUSH2 0xC35 JUMPI PUSH1 0x8 DUP2 SWAP1 SHR SWAP1 POP PUSH1 0x4 DUP3 SWAP1 SHL SWAP2 POP JUMPDEST PUSH1 0x0 PUSH1 0x4 DUP3 SWAP1 SHR GT ISZERO PUSH2 0xC51 JUMPI PUSH1 0x4 DUP2 SWAP1 SHR SWAP1 POP PUSH1 0x2 DUP3 SWAP1 SHL SWAP2 POP JUMPDEST PUSH1 0x0 PUSH1 0x2 DUP3 SWAP1 SHR GT ISZERO PUSH2 0xC66 JUMPI PUSH1 0x1 DUP3 SWAP1 SHL SWAP2 POP JUMPDEST PUSH1 0x1 DUP3 DUP6 DUP2 PUSH2 0xC78 JUMPI PUSH2 0xC77 PUSH2 0x1177 JUMP JUMPDEST JUMPDEST DIV DUP4 ADD SWAP1 SHR SWAP2 POP PUSH1 0x1 DUP3 DUP6 DUP2 PUSH2 0xC91 JUMPI PUSH2 0xC90 PUSH2 0x1177 JUMP JUMPDEST JUMPDEST DIV DUP4 ADD SWAP1 SHR SWAP2 POP PUSH1 0x1 DUP3 DUP6 DUP2 PUSH2 0xCAA JUMPI PUSH2 0xCA9 PUSH2 0x1177 JUMP JUMPDEST JUMPDEST DIV DUP4 ADD SWAP1 SHR SWAP2 POP PUSH1 0x1 DUP3 DUP6 DUP2 PUSH2 0xCC3 JUMPI PUSH2 0xCC2 PUSH2 0x1177 JUMP JUMPDEST JUMPDEST DIV DUP4 ADD SWAP1 SHR SWAP2 POP PUSH1 0x1 DUP3 DUP6 DUP2 PUSH2 0xCDC JUMPI PUSH2 0xCDB PUSH2 0x1177 JUMP JUMPDEST JUMPDEST DIV DUP4 ADD SWAP1 SHR SWAP2 POP PUSH1 0x1 DUP3 DUP6 DUP2 PUSH2 0xCF5 JUMPI PUSH2 0xCF4 PUSH2 0x1177 JUMP JUMPDEST JUMPDEST DIV DUP4 ADD SWAP1 SHR SWAP2 POP PUSH1 0x1 DUP3 DUP6 DUP2 PUSH2 0xD0E JUMPI PUSH2 0xD0D PUSH2 0x1177 JUMP JUMPDEST JUMPDEST DIV DUP4 ADD SWAP1 SHR SWAP2 POP PUSH2 0xD2F DUP3 DUP4 DUP7 DUP2 PUSH2 0xD29 JUMPI PUSH2 0xD28 PUSH2 0x1177 JUMP JUMPDEST JUMPDEST DIV PUSH2 0xD39 JUMP JUMPDEST SWAP3 POP POP POP JUMPDEST SWAP2 SWAP1 POP JUMP JUMPDEST PUSH1 0x0 DUP2 DUP4 LT PUSH2 0xD48 JUMPI DUP2 PUSH2 0xD4A JUMP JUMPDEST DUP3 JUMPDEST SWAP1 POP SWAP3 SWAP2 POP POP JUMP JUMPDEST PUSH1 0x0 DUP1 REVERT JUMPDEST PUSH1 0x0 DUP2 SWAP1 POP SWAP2 SWAP1 POP JUMP JUMPDEST PUSH2 0xD6A DUP2 PUSH2 0xD57 JUMP JUMPDEST DUP2 EQ PUSH2 0xD75 JUMPI PUSH1 0x0 DUP1 REVERT JUMPDEST POP JUMP JUMPDEST PUSH1 0x0 DUP2 CALLDATALOAD SWAP1 POP PUSH2 0xD87 DUP2 PUSH2 0xD61 JUMP JUMPDEST SWAP3 SWAP2 POP POP JUMP JUMPDEST PUSH1 0x0 PUSH1 0x20 DUP3 DUP5 SUB SLT ISZERO PUSH2 0xDA3 JUMPI PUSH2 0xDA2 PUSH2 0xD52 JUMP JUMPDEST JUMPDEST PUSH1 0x0 PUSH2 0xDB1 DUP5 DUP3 DUP6 ADD PUSH2 0xD78 JUMP JUMPDEST SWAP2 POP POP SWAP3 SWAP2 POP POP JUMP JUMPDEST PUSH2 0xDC3 DUP2 PUSH2 0xD57 JUMP JUMPDEST DUP3 MSTORE POP POP JUMP JUMPDEST PUSH1 0x0 PUSH1 0x20 DUP3 ADD SWAP1 POP PUSH2 0xDDE PUSH1 0x0 DUP4 ADD DUP5 PUSH2 0xDBA JUMP JUMPDEST SWAP3 SWAP2 POP POP JUMP JUMPDEST PUSH1 0x0 PUSH20 0xFFFFFFFFFFFFFFFFFFFFFFFFFFFFFFFFFFFFFFFF DUP3 AND SWAP1 POP SWAP2 SWAP1 POP JUMP JUMPDEST PUSH1 0x0 PUSH2 0xE0F DUP3 PUSH2 0xDE4 JUMP JUMPDEST SWAP1 POP SWAP2 SWAP1 POP JUMP JUMPDEST PUSH2 0xE1F DUP2 PUSH2 0xE04 JUMP JUMPDEST DUP2 EQ PUSH2 0xE2A JUMPI PUSH1 0x0 DUP1 REVERT JUMPDEST POP JUMP JUMPDEST PUSH1 0x0 DUP2 CALLDATALOAD SWAP1 POP PUSH2 0xE3C DUP2 PUSH2 0xE16 JUMP JUMPDEST SWAP3 SWAP2 POP POP JUMP JUMPDEST PUSH1 0x0 DUP1 PUSH1 0x40 DUP4 DUP6 SUB SLT ISZERO PUSH2 0xE59 JUMPI PUSH2 0xE58 PUSH2 0xD52 JUMP JUMPDEST JUMPDEST PUSH1 0x0 PUSH2 0xE67 DUP6 DUP3 DUP7 ADD PUSH2 0xE2D JUMP JUMPDEST SWAP3 POP POP PUSH1 0x20 PUSH2 0xE78 DUP6 DUP3 DUP7 ADD PUSH2 0xD78 JUMP JUMPDEST SWAP2 POP POP SWAP3 POP SWAP3 SWAP1 POP JUMP JUMPDEST PUSH2 0xE8B DUP2 PUSH2 0xE04 JUMP JUMPDEST DUP3 MSTORE POP POP JUMP JUMPDEST PUSH1 0x0 PUSH1 0x20 DUP3 ADD SWAP1 POP PUSH2 0xEA6 PUSH1 0x0 DUP4 ADD DUP5 PUSH2 0xE82 JUMP JUMPDEST SWAP3 SWAP2 POP POP JUMP JUMPDEST PUSH1 0x0 DUP3 DUP3 MSTORE PUSH1 0x20 DUP3 ADD SWAP1 POP SWAP3 SWAP2 POP POP JUMP JUMPDEST PUSH32 0x496E76616C696420616D6F756E74000000000000000000000000000000000000 PUSH1 0x0 DUP3 ADD MSTORE POP JUMP JUMPDEST PUSH1 0x0 PUSH2 0xEF3 PUSH1 0xE DUP4 PUSH2 0xEAC JUMP JUMPDEST SWAP2 POP PUSH2 0xEFE DUP3 PUSH2 0xEBD JUMP JUMPDEST PUSH1 0x20 DUP3 ADD SWAP1 POP SWAP2 SWAP1 POP JUMP JUMPDEST PUSH1 0x0 PUSH1 0x20 DUP3 ADD SWAP1 POP DUP2 DUP2 SUB PUSH1 0x0 DUP4 ADD MSTORE PUSH2 0xF22 DUP2 PUSH2 0xEE6 JUMP JUMPDEST SWAP1 POP SWAP2 SWAP1 POP JUMP JUMPDEST PUSH1 0x0 PUSH1 0x40 DUP3 ADD SWAP1 POP PUSH2 0xF3E PUSH1 0x0 DUP4 ADD DUP6 PUSH2 0xE82 JUMP JUMPDEST PUSH2 0xF4B PUSH1 0x20 DUP4 ADD DUP5 PUSH2 0xDBA JUMP JUMPDEST SWAP4 SWAP3 POP POP POP JUMP JUMPDEST PUSH1 0x0 DUP2 ISZERO ISZERO SWAP1 POP SWAP2 SWAP1 POP JUMP JUMPDEST PUSH2 0xF67 DUP2 PUSH2 0xF52 JUMP JUMPDEST DUP2 EQ PUSH2 0xF72 JUMPI PUSH1 0x0 DUP1 REVERT JUMPDEST POP JUMP JUMPDEST PUSH1 0x0 DUP2 MLOAD SWAP1 POP PUSH2 0xF84 DUP2 PUSH2 0xF5E JUMP JUMPDEST SWAP3 SWAP2 POP POP JUMP JUMPDEST PUSH1 0x0 PUSH1 0x20 DUP3 DUP5 SUB SLT ISZERO PUSH2 0xFA0 JUMPI PUSH2 0xF9F PUSH2 0xD52 JUMP JUMPDEST JUMPDEST PUSH1 0x0 PUSH2 0xFAE DUP5 DUP3 DUP6 ADD PUSH2 0xF75 JUMP JUMPDEST SWAP2 POP POP SWAP3 SWAP2 POP POP JUMP JUMPDEST PUSH1 0x0 PUSH1 0x40 DUP3 ADD SWAP1 POP PUSH2 0xFCC PUSH1 0x0 DUP4 ADD DUP6 PUSH2 0xE82 JUMP JUMPDEST PUSH2 0xFD9 PUSH1 0x20 DUP4 ADD DUP5 PUSH2 0xE82 JUMP JUMPDEST SWAP4 SWAP3 POP POP POP JUMP JUMPDEST PUSH1 0x0 DUP2 MLOAD SWAP1 POP PUSH2 0xFEF DUP2 PUSH2 0xD61 JUMP JUMPDEST SWAP3 SWAP2 POP POP JUMP JUMPDEST PUSH1 0x0 PUSH1 0x20 DUP3 DUP5 SUB SLT ISZERO PUSH2 0x100B JUMPI PUSH2 0x100A PUSH2 0xD52 JUMP JUMPDEST JUMPDEST PUSH1 0x0 PUSH2 0x1019 DUP5 DUP3 DUP6 ADD PUSH2 0xFE0 JUMP JUMPDEST SWAP2 POP POP SWAP3 SWAP2 POP POP JUMP JUMPDEST PUSH32 0x436F6E7472616374206E6F7420617070726F7665640000000000000000000000 PUSH1 0x0 DUP3 ADD MSTORE POP JUMP JUMPDEST PUSH1 0x0 PUSH2 0x1058 PUSH1 0x15 DUP4 PUSH2 0xEAC JUMP JUMPDEST SWAP2 POP PUSH2 0x1063 DUP3 PUSH2 0x1022 JUMP JUMPDEST PUSH1 0x20 DUP3 ADD SWAP1 POP SWAP2 SWAP1 POP JUMP JUMPDEST PUSH1 0x0 PUSH1 0x20 DUP3 ADD SWAP1 POP DUP2 DUP2 SUB PUSH1 0x0 DUP4 ADD MSTORE PUSH2 0x1087 DUP2 PUSH2 0x104B JUMP JUMPDEST SWAP1 POP SWAP2 SWAP1 POP JUMP JUMPDEST PUSH1 0x0 PUSH1 0x60 DUP3 ADD SWAP1 POP PUSH2 0x10A3 PUSH1 0x0 DUP4 ADD DUP7 PUSH2 0xE82 JUMP JUMPDEST PUSH2 0x10B0 PUSH1 0x20 DUP4 ADD DUP6 PUSH2 0xE82 JUMP JUMPDEST PUSH2 0x10BD PUSH1 0x40 DUP4 ADD DUP5 PUSH2 0xDBA JUMP JUMPDEST SWAP5 SWAP4 POP POP POP POP JUMP JUMPDEST PUSH1 0x0 DUP2 SWAP1 POP SWAP3 SWAP2 POP POP JUMP JUMPDEST POP JUMP JUMPDEST PUSH1 0x0 PUSH2 0x10E0 PUSH1 0x0 DUP4 PUSH2 0x10C5 JUMP JUMPDEST SWAP2 POP PUSH2 0x10EB DUP3 PUSH2 0x10D0 JUMP JUMPDEST PUSH1 0x0 DUP3 ADD SWAP1 POP SWAP2 SWAP1 POP JUMP JUMPDEST PUSH1 0x0 PUSH2 0x1101 DUP3 PUSH2 0x10D3 JUMP JUMPDEST SWAP2 POP DUP2 SWAP1 POP SWAP2 SWAP1 POP JUMP JUMPDEST PUSH32 0x5472616E73666572204661696C65640000000000000000000000000000000000 PUSH1 0x0 DUP3 ADD MSTORE POP JUMP JUMPDEST PUSH1 0x0 PUSH2 0x1141 PUSH1 0xF DUP4 PUSH2 0xEAC JUMP JUMPDEST SWAP2 POP PUSH2 0x114C DUP3 PUSH2 0x110B JUMP JUMPDEST PUSH1 0x20 DUP3 ADD SWAP1 POP SWAP2 SWAP1 POP JUMP JUMPDEST PUSH1 0x0 PUSH1 0x20 DUP3 ADD SWAP1 POP DUP2 DUP2 SUB PUSH1 0x0 DUP4 ADD MSTORE PUSH2 0x1170 DUP2 PUSH2 0x1134 JUMP JUMPDEST SWAP1 POP SWAP2 SWAP1 POP JUMP JUMPDEST PUSH32 0x4E487B7100000000000000000000000000000000000000000000000000000000 PUSH1 0x0 MSTORE PUSH1 0x12 PUSH1 0x4 MSTORE PUSH1 0x24 PUSH1 0x0 REVERT JUMPDEST PUSH32 0x4E487B7100000000000000000000000000000000000000000000000000000000 PUSH1 0x0 MSTORE PUSH1 0x11 PUSH1 0x4 MSTORE PUSH1 0x24 PUSH1 0x0 REVERT JUMPDEST PUSH1 0x0 PUSH2 0x11E0 DUP3 PUSH2 0xD57 JUMP JUMPDEST SWAP2 POP PUSH2 0x11EB DUP4 PUSH2 0xD57 JUMP JUMPDEST SWAP3 POP DUP3 PUSH2 0x11FB JUMPI PUSH2 0x11FA PUSH2 0x1177 JUMP JUMPDEST JUMPDEST DUP3 DUP3 DIV SWAP1 POP SWAP3 SWAP2 POP POP JUMP JUMPDEST PUSH32 0x4C69717569646974792070726F76696465642073686F756C6420626520677265 PUSH1 0x0 DUP3 ADD MSTORE PUSH32 0x61746572207468616E2031204554480000000000000000000000000000000000 PUSH1 0x20 DUP3 ADD MSTORE POP JUMP JUMPDEST PUSH1 0x0 PUSH2 0x1262 PUSH1 0x2F DUP4 PUSH2 0xEAC JUMP JUMPDEST SWAP2 POP PUSH2 0x126D DUP3 PUSH2 0x1206 JUMP JUMPDEST PUSH1 0x40 DUP3 ADD SWAP1 POP SWAP2 SWAP1 POP JUMP JUMPDEST PUSH1 0x0 PUSH1 0x20 DUP3 ADD SWAP1 POP DUP2 DUP2 SUB PUSH1 0x0 DUP4 ADD MSTORE PUSH2 0x1291 DUP2 PUSH2 0x1255 JUMP JUMPDEST SWAP1 POP SWAP2 SWAP1 POP JUMP JUMPDEST PUSH1 0x0 PUSH2 0x12A3 DUP3 PUSH2 0xD57 JUMP JUMPDEST SWAP2 POP PUSH2 0x12AE DUP4 PUSH2 0xD57 JUMP JUMPDEST SWAP3 POP DUP3 DUP3 MUL PUSH2 0x12BC DUP2 PUSH2 0xD57 JUMP JUMPDEST SWAP2 POP DUP3 DUP3 DIV DUP5 EQ DUP4 ISZERO OR PUSH2 0x12D3 JUMPI PUSH2 0x12D2 PUSH2 0x11A6 JUMP JUMPDEST JUMPDEST POP SWAP3 SWAP2 POP POP JUMP JUMPDEST PUSH32 0x496E76616C696420616D6F756E74206F66207368617265730000000000000000 PUSH1 0x0 DUP3 ADD MSTORE POP JUMP JUMPDEST PUSH1 0x0 PUSH2 0x1310 PUSH1 0x18 DUP4 PUSH2 0xEAC JUMP JUMPDEST SWAP2 POP PUSH2 0x131B DUP3 PUSH2 0x12DA JUMP JUMPDEST PUSH1 0x20 DUP3 ADD SWAP1 POP SWAP2 SWAP1 POP JUMP JUMPDEST PUSH1 0x0 PUSH1 0x20 DUP3 ADD SWAP1 POP DUP2 DUP2 SUB PUSH1 0x0 DUP4 ADD MSTORE PUSH2 0x133F DUP2 PUSH2 0x1303 JUMP JUMPDEST SWAP1 POP SWAP2 SWAP1 POP JUMP JUMPDEST PUSH32 0x506C6561736520617070726F76652074686520636F6E747261637420746F2064 PUSH1 0x0 DUP3 ADD MSTORE PUSH32 0x6564756374206C747220746F6B656E732066726F6D20796F75722077616C6C65 PUSH1 0x20 DUP3 ADD MSTORE PUSH32 0x7400000000000000000000000000000000000000000000000000000000000000 PUSH1 0x40 DUP3 ADD MSTORE POP JUMP JUMPDEST PUSH1 0x0 PUSH2 0x13C8 PUSH1 0x41 DUP4 PUSH2 0xEAC JUMP JUMPDEST SWAP2 POP PUSH2 0x13D3 DUP3 PUSH2 0x1346 JUMP JUMPDEST PUSH1 0x60 DUP3 ADD SWAP1 POP SWAP2 SWAP1 POP JUMP JUMPDEST PUSH1 0x0 PUSH1 0x20 DUP3 ADD SWAP1 POP DUP2 DUP2 SUB PUSH1 0x0 DUP4 ADD MSTORE PUSH2 0x13F7 DUP2 PUSH2 0x13BB JUMP JUMPDEST SWAP1 POP SWAP2 SWAP1 POP JUMP JUMPDEST PUSH32 0x5472616E73666572206661696C65640000000000000000000000000000000000 PUSH1 0x0 DUP3 ADD MSTORE POP JUMP JUMPDEST PUSH1 0x0 PUSH2 0x1434 PUSH1 0xF DUP4 PUSH2 0xEAC JUMP JUMPDEST SWAP2 POP PUSH2 0x143F DUP3 PUSH2 0x13FE JUMP JUMPDEST PUSH1 0x20 DUP3 ADD SWAP1 POP SWAP2 SWAP1 POP JUMP JUMPDEST PUSH1 0x0 PUSH1 0x20 DUP3 ADD SWAP1 POP DUP2 DUP2 SUB PUSH1 0x0 DUP4 ADD MSTORE PUSH2 0x1463 DUP2 PUSH2 0x1427 JUMP JUMPDEST SWAP1 POP SWAP2 SWAP1 POP JUMP INVALID LOG2 PUSH5 0x6970667358 0x22 SLT KECCAK256 0xDE 0x4B 0xC4 0xA8 DUP8 0xE3 DIFFICULTY REVERT SWAP11 0x5E 0xBA LOG3 COINBASE BLOCKHASH LT 0xE4 PUSH30 0x4DA0204F0D8D9A797A94F356C6399D64736F6C6343000811003300000000 "
				},
				"gasEstimates": {
					"creation": {
						"codeDepositCost": "1056000",
						"executionCost": "infinite",
						"totalCost": "infinite"
					},
					"external": {
						"getDAI(uint256)": "infinite",
						"getEth(uint256)": "infinite",
						"kLast()": "2452",
						"provideLiquidity(uint256)": "infinite",
						"reedemShares(uint256)": "infinite",
						"reserveToken()": "2555",
						"swap(uint256)": "infinite",
						"transferTokens(address,uint256)": "infinite"
					}
				},
				"methodIdentifiers": {
					"getDAI(uint256)": "1aa5c70e",
					"getEth(uint256)": "8e3073a6",
					"kLast()": "7464fc3d",
					"provideLiquidity(uint256)": "eb521a4c",
					"reedemShares(uint256)": "ff9b3758",
					"reserveToken()": "f4325d67",
					"swap(uint256)": "94b918de",
					"transferTokens(address,uint256)": "bec3fa17"
				}
			},
			"storageLayout": {
				"storage": [
					{
						"astId": 587,
						"contract": "contracts/LiquidityPool.sol:LiquidityPool",
						"label": "reserveToken",
						"offset": 0,
						"slot": "0",
						"type": "t_address"
					},
					{
						"astId": 595,
						"contract": "contracts/LiquidityPool.sol:LiquidityPool",
						"label": "kLast",
						"offset": 0,
						"slot": "1",
						"type": "t_uint256"
					}
				],
				"types": {
					"t_address": {
						"encoding": "inplace",
						"label": "address",
						"numberOfBytes": "20"
					},
					"t_uint256": {
						"encoding": "inplace",
						"label": "uint256",
						"numberOfBytes": "32"
					}
				}
			},
			"userdoc": {
				"kind": "user",
				"methods": {},
				"version": 1
			}
		}
	}
}