{
	"contracts/LiquidityPool.sol": {
		"LiquidityPool": {
			"abi": [
				{
					"inputs": [
						{
							"internalType": "address",
							"name": "_tokenAddress",
							"type": "address"
						}
					],
					"stateMutability": "nonpayable",
					"type": "constructor"
				},
				{
					"anonymous": false,
					"inputs": [
						{
							"indexed": false,
							"internalType": "address",
							"name": "_liquidityProvider",
							"type": "address"
						},
						{
							"indexed": false,
							"internalType": "uint256",
							"name": "_shares",
							"type": "uint256"
						}
					],
					"name": "liquidityProvided",
					"type": "event"
				},
				{
					"inputs": [
						{
							"internalType": "uint256",
							"name": "_ethAmount",
							"type": "uint256"
						}
					],
					"name": "getDAI",
					"outputs": [],
					"stateMutability": "payable",
					"type": "function"
				},
				{
					"inputs": [
						{
							"internalType": "uint256",
							"name": "_DAIAmount",
							"type": "uint256"
						}
					],
					"name": "getEth",
					"outputs": [],
					"stateMutability": "nonpayable",
					"type": "function"
				},
				{
					"inputs": [
						{
							"internalType": "uint256",
							"name": "_amount",
							"type": "uint256"
						}
					],
					"name": "provideLiquidity",
					"outputs": [],
					"stateMutability": "payable",
					"type": "function"
				},
				{
					"inputs": [
						{
							"internalType": "uint256",
							"name": "_sharesAmount",
							"type": "uint256"
						}
					],
					"name": "reedemShares",
					"outputs": [],
					"stateMutability": "nonpayable",
					"type": "function"
				},
				{
					"inputs": [],
					"name": "reserveToken",
					"outputs": [
						{
							"internalType": "address",
							"name": "",
							"type": "address"
						}
					],
					"stateMutability": "view",
					"type": "function"
				}
			],
			"devdoc": {
				"kind": "dev",
				"methods": {},
				"version": 1
			},
			"evm": {
				"assembly": "    /* \"contracts/LiquidityPool.sol\":241:2178  contract LiquidityPool {... */\n  mstore(0x40, 0x80)\n    /* \"contracts/LiquidityPool.sol\":470:549  constructor(address _tokenAddress){... */\n  callvalue\n  dup1\n  iszero\n  tag_1\n  jumpi\n  0x00\n  dup1\n  revert\ntag_1:\n  pop\n  mload(0x40)\n  sub(codesize, bytecodeSize)\n  dup1\n  bytecodeSize\n  dup4\n  codecopy\n  dup2\n  dup2\n  add\n  0x40\n  mstore\n  dup2\n  add\n  swap1\n  tag_2\n  swap2\n  swap1\n  tag_3\n  jump\t// in\ntag_2:\n    /* \"contracts/LiquidityPool.sol\":529:542  _tokenAddress */\n  dup1\n    /* \"contracts/LiquidityPool.sol\":514:526  reserveToken */\n  0x00\n  dup1\n    /* \"contracts/LiquidityPool.sol\":514:542  reserveToken = _tokenAddress */\n  0x0100\n  exp\n  dup2\n  sload\n  dup2\n  0xffffffffffffffffffffffffffffffffffffffff\n  mul\n  not\n  and\n  swap1\n  dup4\n  0xffffffffffffffffffffffffffffffffffffffff\n  and\n  mul\n  or\n  swap1\n  sstore\n  pop\n    /* \"contracts/LiquidityPool.sol\":470:549  constructor(address _tokenAddress){... */\n  pop\n    /* \"contracts/LiquidityPool.sol\":241:2178  contract LiquidityPool {... */\n  jump(tag_6)\n    /* \"#utility.yul\":7:150   */\ntag_8:\n    /* \"#utility.yul\":64:69   */\n  0x00\n    /* \"#utility.yul\":95:101   */\n  dup2\n    /* \"#utility.yul\":89:102   */\n  mload\n    /* \"#utility.yul\":80:102   */\n  swap1\n  pop\n    /* \"#utility.yul\":111:144   */\n  tag_10\n    /* \"#utility.yul\":138:143   */\n  dup2\n    /* \"#utility.yul\":111:144   */\n  tag_11\n  jump\t// in\ntag_10:\n    /* \"#utility.yul\":7:150   */\n  swap3\n  swap2\n  pop\n  pop\n  jump\t// out\n    /* \"#utility.yul\":156:507   */\ntag_3:\n    /* \"#utility.yul\":226:232   */\n  0x00\n    /* \"#utility.yul\":275:277   */\n  0x20\n    /* \"#utility.yul\":263:272   */\n  dup3\n    /* \"#utility.yul\":254:261   */\n  dup5\n    /* \"#utility.yul\":250:273   */\n  sub\n    /* \"#utility.yul\":246:278   */\n  slt\n    /* \"#utility.yul\":243:362   */\n  iszero\n  tag_13\n  jumpi\n    /* \"#utility.yul\":281:360   */\n  tag_14\n  tag_15\n  jump\t// in\ntag_14:\n    /* \"#utility.yul\":243:362   */\ntag_13:\n    /* \"#utility.yul\":401:402   */\n  0x00\n    /* \"#utility.yul\":426:490   */\n  tag_16\n    /* \"#utility.yul\":482:489   */\n  dup5\n    /* \"#utility.yul\":473:479   */\n  dup3\n    /* \"#utility.yul\":462:471   */\n  dup6\n    /* \"#utility.yul\":458:480   */\n  add\n    /* \"#utility.yul\":426:490   */\n  tag_8\n  jump\t// in\ntag_16:\n    /* \"#utility.yul\":416:490   */\n  swap2\n  pop\n    /* \"#utility.yul\":372:500   */\n  pop\n    /* \"#utility.yul\":156:507   */\n  swap3\n  swap2\n  pop\n  pop\n  jump\t// out\n    /* \"#utility.yul\":594:690   */\ntag_19:\n    /* \"#utility.yul\":631:638   */\n  0x00\n    /* \"#utility.yul\":660:684   */\n  tag_21\n    /* \"#utility.yul\":678:683   */\n  dup3\n    /* \"#utility.yul\":660:684   */\n  tag_22\n  jump\t// in\ntag_21:\n    /* \"#utility.yul\":649:684   */\n  swap1\n  pop\n    /* \"#utility.yul\":594:690   */\n  swap2\n  swap1\n  pop\n  jump\t// out\n    /* \"#utility.yul\":696:822   */\ntag_22:\n    /* \"#utility.yul\":733:740   */\n  0x00\n    /* \"#utility.yul\":773:815   */\n  0xffffffffffffffffffffffffffffffffffffffff\n    /* \"#utility.yul\":766:771   */\n  dup3\n    /* \"#utility.yul\":762:816   */\n  and\n    /* \"#utility.yul\":751:816   */\n  swap1\n  pop\n    /* \"#utility.yul\":696:822   */\n  swap2\n  swap1\n  pop\n  jump\t// out\n    /* \"#utility.yul\":951:1068   */\ntag_15:\n    /* \"#utility.yul\":1060:1061   */\n  0x00\n    /* \"#utility.yul\":1057:1058   */\n  dup1\n    /* \"#utility.yul\":1050:1062   */\n  revert\n    /* \"#utility.yul\":1074:1196   */\ntag_11:\n    /* \"#utility.yul\":1147:1171   */\n  tag_28\n    /* \"#utility.yul\":1165:1170   */\n  dup2\n    /* \"#utility.yul\":1147:1171   */\n  tag_19\n  jump\t// in\ntag_28:\n    /* \"#utility.yul\":1140:1145   */\n  dup2\n    /* \"#utility.yul\":1137:1172   */\n  eq\n    /* \"#utility.yul\":1127:1190   */\n  tag_29\n  jumpi\n    /* \"#utility.yul\":1186:1187   */\n  0x00\n    /* \"#utility.yul\":1183:1184   */\n  dup1\n    /* \"#utility.yul\":1176:1188   */\n  revert\n    /* \"#utility.yul\":1127:1190   */\ntag_29:\n    /* \"#utility.yul\":1074:1196   */\n  pop\n  jump\t// out\n    /* \"contracts/LiquidityPool.sol\":241:2178  contract LiquidityPool {... */\ntag_6:\n  dataSize(sub_0)\n  dup1\n  dataOffset(sub_0)\n  0x00\n  codecopy\n  0x00\n  return\nstop\n\nsub_0: assembly {\n        /* \"contracts/LiquidityPool.sol\":241:2178  contract LiquidityPool {... */\n      mstore(0x40, 0x80)\n      jumpi(tag_1, lt(calldatasize, 0x04))\n      shr(0xe0, calldataload(0x00))\n      dup1\n      0x1aa5c70e\n      eq\n      tag_2\n      jumpi\n      dup1\n      0x8e3073a6\n      eq\n      tag_3\n      jumpi\n      dup1\n      0xeb521a4c\n      eq\n      tag_4\n      jumpi\n      dup1\n      0xf4325d67\n      eq\n      tag_5\n      jumpi\n      dup1\n      0xff9b3758\n      eq\n      tag_6\n      jumpi\n    tag_1:\n      0x00\n      dup1\n      revert\n        /* \"contracts/LiquidityPool.sol\":1995:2176  function getDAI(uint256 _ethAmount) public payable {... */\n    tag_2:\n      tag_7\n      0x04\n      dup1\n      calldatasize\n      sub\n      dup2\n      add\n      swap1\n      tag_8\n      swap2\n      swap1\n      tag_9\n      jump\t// in\n    tag_8:\n      tag_10\n      jump\t// in\n    tag_7:\n      stop\n        /* \"contracts/LiquidityPool.sol\":1621:1989  function getEth(uint256 _DAIAmount) public {... */\n    tag_3:\n      callvalue\n      dup1\n      iszero\n      tag_11\n      jumpi\n      0x00\n      dup1\n      revert\n    tag_11:\n      pop\n      tag_12\n      0x04\n      dup1\n      calldatasize\n      sub\n      dup2\n      add\n      swap1\n      tag_13\n      swap2\n      swap1\n      tag_9\n      jump\t// in\n    tag_13:\n      tag_14\n      jump\t// in\n    tag_12:\n      stop\n        /* \"contracts/LiquidityPool.sol\":630:1052  function provideLiquidity(uint256 _amount) external payable {... */\n    tag_4:\n      tag_15\n      0x04\n      dup1\n      calldatasize\n      sub\n      dup2\n      add\n      swap1\n      tag_16\n      swap2\n      swap1\n      tag_9\n      jump\t// in\n    tag_16:\n      tag_17\n      jump\t// in\n    tag_15:\n      stop\n        /* \"contracts/LiquidityPool.sol\":358:385  address public reserveToken */\n    tag_5:\n      callvalue\n      dup1\n      iszero\n      tag_18\n      jumpi\n      0x00\n      dup1\n      revert\n    tag_18:\n      pop\n      tag_19\n      tag_20\n      jump\t// in\n    tag_19:\n      mload(0x40)\n      tag_21\n      swap2\n      swap1\n      tag_22\n      jump\t// in\n    tag_21:\n      mload(0x40)\n      dup1\n      swap2\n      sub\n      swap1\n      return\n        /* \"contracts/LiquidityPool.sol\":1058:1615  function reedemShares(uint256 _sharesAmount) public {... */\n    tag_6:\n      callvalue\n      dup1\n      iszero\n      tag_23\n      jumpi\n      0x00\n      dup1\n      revert\n    tag_23:\n      pop\n      tag_24\n      0x04\n      dup1\n      calldatasize\n      sub\n      dup2\n      add\n      swap1\n      tag_25\n      swap2\n      swap1\n      tag_9\n      jump\t// in\n    tag_25:\n      tag_26\n      jump\t// in\n    tag_24:\n      stop\n        /* \"contracts/LiquidityPool.sol\":1995:2176  function getDAI(uint256 _ethAmount) public payable {... */\n    tag_10:\n        /* \"contracts/LiquidityPool.sol\":2077:2087  _ethAmount */\n      dup1\n        /* \"contracts/LiquidityPool.sol\":2064:2073  msg.value */\n      callvalue\n        /* \"contracts/LiquidityPool.sol\":2064:2087  msg.value == _ethAmount */\n      eq\n        /* \"contracts/LiquidityPool.sol\":2056:2106  require(msg.value == _ethAmount, \"Invalid amount\") */\n      tag_28\n      jumpi\n      mload(0x40)\n      0x08c379a000000000000000000000000000000000000000000000000000000000\n      dup2\n      mstore\n      0x04\n      add\n      tag_29\n      swap1\n      tag_30\n      jump\t// in\n    tag_29:\n      mload(0x40)\n      dup1\n      swap2\n      sub\n      swap1\n      revert\n    tag_28:\n        /* \"contracts/LiquidityPool.sol\":2123:2135  reserveToken */\n      0x00\n      dup1\n      sload\n      swap1\n      0x0100\n      exp\n      swap1\n      div\n      0xffffffffffffffffffffffffffffffffffffffff\n      and\n        /* \"contracts/LiquidityPool.sol\":2116:2145  IERC20(reserveToken).transfer */\n      0xffffffffffffffffffffffffffffffffffffffff\n      and\n      0xa9059cbb\n        /* \"contracts/LiquidityPool.sol\":2146:2156  msg.sender */\n      caller\n        /* \"contracts/LiquidityPool.sol\":2158:2168  _ethAmount */\n      dup4\n        /* \"contracts/LiquidityPool.sol\":2116:2169  IERC20(reserveToken).transfer(msg.sender, _ethAmount) */\n      mload(0x40)\n      dup4\n      0xffffffff\n      and\n      0xe0\n      shl\n      dup2\n      mstore\n      0x04\n      add\n      tag_31\n      swap3\n      swap2\n      swap1\n      tag_32\n      jump\t// in\n    tag_31:\n      0x20\n      mload(0x40)\n      dup1\n      dup4\n      sub\n      dup2\n      0x00\n      dup8\n      dup1\n      extcodesize\n      iszero\n      dup1\n      iszero\n      tag_33\n      jumpi\n      0x00\n      dup1\n      revert\n    tag_33:\n      pop\n      gas\n      call\n      iszero\n      dup1\n      iszero\n      tag_35\n      jumpi\n      returndatasize\n      0x00\n      dup1\n      returndatacopy\n      revert(0x00, returndatasize)\n    tag_35:\n      pop\n      pop\n      pop\n      pop\n      mload(0x40)\n      returndatasize\n      not(0x1f)\n      0x1f\n      dup3\n      add\n      and\n      dup3\n      add\n      dup1\n      0x40\n      mstore\n      pop\n      dup2\n      add\n      swap1\n      tag_36\n      swap2\n      swap1\n      tag_37\n      jump\t// in\n    tag_36:\n      pop\n        /* \"contracts/LiquidityPool.sol\":1995:2176  function getDAI(uint256 _ethAmount) public payable {... */\n      pop\n      jump\t// out\n        /* \"contracts/LiquidityPool.sol\":1621:1989  function getEth(uint256 _DAIAmount) public {... */\n    tag_14:\n        /* \"contracts/LiquidityPool.sol\":1743:1753  _DAIAmount */\n      dup1\n        /* \"contracts/LiquidityPool.sol\":1689:1701  reserveToken */\n      0x00\n      dup1\n      sload\n      swap1\n      0x0100\n      exp\n      swap1\n      div\n      0xffffffffffffffffffffffffffffffffffffffff\n      and\n        /* \"contracts/LiquidityPool.sol\":1682:1712  IERC20(reserveToken).allowance */\n      0xffffffffffffffffffffffffffffffffffffffff\n      and\n      0xdd62ed3e\n        /* \"contracts/LiquidityPool.sol\":1713:1723  msg.sender */\n      caller\n        /* \"contracts/LiquidityPool.sol\":1733:1737  this */\n      address\n        /* \"contracts/LiquidityPool.sol\":1682:1739  IERC20(reserveToken).allowance(msg.sender, address(this)) */\n      mload(0x40)\n      dup4\n      0xffffffff\n      and\n      0xe0\n      shl\n      dup2\n      mstore\n      0x04\n      add\n      tag_39\n      swap3\n      swap2\n      swap1\n      tag_40\n      jump\t// in\n    tag_39:\n      0x20\n      mload(0x40)\n      dup1\n      dup4\n      sub\n      dup2\n      dup7\n      dup1\n      extcodesize\n      iszero\n      dup1\n      iszero\n      tag_41\n      jumpi\n      0x00\n      dup1\n      revert\n    tag_41:\n      pop\n      gas\n      staticcall\n      iszero\n      dup1\n      iszero\n      tag_43\n      jumpi\n      returndatasize\n      0x00\n      dup1\n      returndatacopy\n      revert(0x00, returndatasize)\n    tag_43:\n      pop\n      pop\n      pop\n      pop\n      mload(0x40)\n      returndatasize\n      not(0x1f)\n      0x1f\n      dup3\n      add\n      and\n      dup3\n      add\n      dup1\n      0x40\n      mstore\n      pop\n      dup2\n      add\n      swap1\n      tag_44\n      swap2\n      swap1\n      tag_45\n      jump\t// in\n    tag_44:\n        /* \"contracts/LiquidityPool.sol\":1682:1753  IERC20(reserveToken).allowance(msg.sender, address(this)) >= _DAIAmount */\n      lt\n      iszero\n        /* \"contracts/LiquidityPool.sol\":1674:1779  require(IERC20(reserveToken).allowance(msg.sender, address(this)) >= _DAIAmount, \"Contract not approved\") */\n      tag_46\n      jumpi\n      mload(0x40)\n      0x08c379a000000000000000000000000000000000000000000000000000000000\n      dup2\n      mstore\n      0x04\n      add\n      tag_47\n      swap1\n      tag_48\n      jump\t// in\n    tag_47:\n      mload(0x40)\n      dup1\n      swap2\n      sub\n      swap1\n      revert\n    tag_46:\n        /* \"contracts/LiquidityPool.sol\":1796:1808  reserveToken */\n      0x00\n      dup1\n      sload\n      swap1\n      0x0100\n      exp\n      swap1\n      div\n      0xffffffffffffffffffffffffffffffffffffffff\n      and\n        /* \"contracts/LiquidityPool.sol\":1789:1822  IERC20(reserveToken).transferFrom */\n      0xffffffffffffffffffffffffffffffffffffffff\n      and\n      0x23b872dd\n        /* \"contracts/LiquidityPool.sol\":1823:1833  msg.sender */\n      caller\n        /* \"contracts/LiquidityPool.sol\":1843:1847  this */\n      address\n        /* \"contracts/LiquidityPool.sol\":1850:1860  _DAIAmount */\n      dup5\n        /* \"contracts/LiquidityPool.sol\":1789:1861  IERC20(reserveToken).transferFrom(msg.sender, address(this), _DAIAmount) */\n      mload(0x40)\n      dup5\n      0xffffffff\n      and\n      0xe0\n      shl\n      dup2\n      mstore\n      0x04\n      add\n      tag_49\n      swap4\n      swap3\n      swap2\n      swap1\n      tag_50\n      jump\t// in\n    tag_49:\n      0x20\n      mload(0x40)\n      dup1\n      dup4\n      sub\n      dup2\n      0x00\n      dup8\n      dup1\n      extcodesize\n      iszero\n      dup1\n      iszero\n      tag_51\n      jumpi\n      0x00\n      dup1\n      revert\n    tag_51:\n      pop\n      gas\n      call\n      iszero\n      dup1\n      iszero\n      tag_53\n      jumpi\n      returndatasize\n      0x00\n      dup1\n      returndatacopy\n      revert(0x00, returndatasize)\n    tag_53:\n      pop\n      pop\n      pop\n      pop\n      mload(0x40)\n      returndatasize\n      not(0x1f)\n      0x1f\n      dup3\n      add\n      and\n      dup3\n      add\n      dup1\n      0x40\n      mstore\n      pop\n      dup2\n      add\n      swap1\n      tag_54\n      swap2\n      swap1\n      tag_37\n      jump\t// in\n    tag_54:\n      pop\n        /* \"contracts/LiquidityPool.sol\":1872:1884  bool success */\n      0x00\n        /* \"contracts/LiquidityPool.sol\":1898:1908  msg.sender */\n      caller\n        /* \"contracts/LiquidityPool.sol\":1890:1914  payable(msg.sender).call */\n      0xffffffffffffffffffffffffffffffffffffffff\n      and\n        /* \"contracts/LiquidityPool.sol\":1922:1932  _DAIAmount */\n      dup3\n        /* \"contracts/LiquidityPool.sol\":1890:1937  payable(msg.sender).call{value: _DAIAmount}(\"\") */\n      mload(0x40)\n      tag_55\n      swap1\n      tag_56\n      jump\t// in\n    tag_55:\n      0x00\n      mload(0x40)\n      dup1\n      dup4\n      sub\n      dup2\n      dup6\n      dup8\n      gas\n      call\n      swap3\n      pop\n      pop\n      pop\n      returndatasize\n      dup1\n      0x00\n      dup2\n      eq\n      tag_59\n      jumpi\n      mload(0x40)\n      swap2\n      pop\n      and(add(returndatasize, 0x3f), not(0x1f))\n      dup3\n      add\n      0x40\n      mstore\n      returndatasize\n      dup3\n      mstore\n      returndatasize\n      0x00\n      0x20\n      dup5\n      add\n      returndatacopy\n      jump(tag_58)\n    tag_59:\n      0x60\n      swap2\n      pop\n    tag_58:\n      pop\n        /* \"contracts/LiquidityPool.sol\":1871:1937  (bool success, ) = payable(msg.sender).call{value: _DAIAmount}(\"\") */\n      pop\n      swap1\n      pop\n        /* \"contracts/LiquidityPool.sol\":1955:1962  success */\n      dup1\n        /* \"contracts/LiquidityPool.sol\":1947:1982  require(success, \"Transfer Failed\") */\n      tag_60\n      jumpi\n      mload(0x40)\n      0x08c379a000000000000000000000000000000000000000000000000000000000\n      dup2\n      mstore\n      0x04\n      add\n      tag_61\n      swap1\n      tag_62\n      jump\t// in\n    tag_61:\n      mload(0x40)\n      dup1\n      swap2\n      sub\n      swap1\n      revert\n    tag_60:\n        /* \"contracts/LiquidityPool.sol\":1664:1989  {... */\n      pop\n        /* \"contracts/LiquidityPool.sol\":1621:1989  function getEth(uint256 _DAIAmount) public {... */\n      pop\n      jump\t// out\n        /* \"contracts/LiquidityPool.sol\":630:1052  function provideLiquidity(uint256 _amount) external payable {... */\n    tag_17:\n        /* \"contracts/LiquidityPool.sol\":721:728  _amount */\n      dup1\n        /* \"contracts/LiquidityPool.sol\":708:717  msg.value */\n      callvalue\n        /* \"contracts/LiquidityPool.sol\":708:728  msg.value == _amount */\n      eq\n        /* \"contracts/LiquidityPool.sol\":700:777  require(msg.value == _amount, \"The amount of ETH and tokens should be equal\") */\n      tag_64\n      jumpi\n      mload(0x40)\n      0x08c379a000000000000000000000000000000000000000000000000000000000\n      dup2\n      mstore\n      0x04\n      add\n      tag_65\n      swap1\n      tag_66\n      jump\t// in\n    tag_65:\n      mload(0x40)\n      dup1\n      swap2\n      sub\n      swap1\n      revert\n    tag_64:\n        /* \"contracts/LiquidityPool.sol\":872:884  reserveToken */\n      0x00\n      dup1\n      sload\n      swap1\n      0x0100\n      exp\n      swap1\n      div\n      0xffffffffffffffffffffffffffffffffffffffff\n      and\n        /* \"contracts/LiquidityPool.sol\":865:898  IERC20(reserveToken).transferFrom */\n      0xffffffffffffffffffffffffffffffffffffffff\n      and\n      0x23b872dd\n        /* \"contracts/LiquidityPool.sol\":899:909  msg.sender */\n      caller\n        /* \"contracts/LiquidityPool.sol\":919:923  this */\n      address\n        /* \"contracts/LiquidityPool.sol\":926:933  _amount */\n      dup5\n        /* \"contracts/LiquidityPool.sol\":865:934  IERC20(reserveToken).transferFrom(msg.sender, address(this), _amount) */\n      mload(0x40)\n      dup5\n      0xffffffff\n      and\n      0xe0\n      shl\n      dup2\n      mstore\n      0x04\n      add\n      tag_67\n      swap4\n      swap3\n      swap2\n      swap1\n      tag_50\n      jump\t// in\n    tag_67:\n      0x20\n      mload(0x40)\n      dup1\n      dup4\n      sub\n      dup2\n      0x00\n      dup8\n      dup1\n      extcodesize\n      iszero\n      dup1\n      iszero\n      tag_68\n      jumpi\n      0x00\n      dup1\n      revert\n    tag_68:\n      pop\n      gas\n      call\n      iszero\n      dup1\n      iszero\n      tag_70\n      jumpi\n      returndatasize\n      0x00\n      dup1\n      returndatacopy\n      revert(0x00, returndatasize)\n    tag_70:\n      pop\n      pop\n      pop\n      pop\n      mload(0x40)\n      returndatasize\n      not(0x1f)\n      0x1f\n      dup3\n      add\n      and\n      dup3\n      add\n      dup1\n      0x40\n      mstore\n      pop\n      dup2\n      add\n      swap1\n      tag_71\n      swap2\n      swap1\n      tag_37\n      jump\t// in\n    tag_71:\n      pop\n        /* \"contracts/LiquidityPool.sol\":421:463  0xf5e642e29D6516B2301dFa2Db87A40B4204B8d6B */\n      0xf5e642e29d6516b2301dfa2db87a40b4204b8d6b\n        /* \"contracts/LiquidityPool.sol\":944:971  IERC20(ltrAddress).transfer */\n      0xffffffffffffffffffffffffffffffffffffffff\n      and\n      0xa9059cbb\n        /* \"contracts/LiquidityPool.sol\":972:982  msg.sender */\n      caller\n        /* \"contracts/LiquidityPool.sol\":984:991  _amount */\n      dup4\n        /* \"contracts/LiquidityPool.sol\":944:992  IERC20(ltrAddress).transfer(msg.sender, _amount) */\n      mload(0x40)\n      dup4\n      0xffffffff\n      and\n      0xe0\n      shl\n      dup2\n      mstore\n      0x04\n      add\n      tag_72\n      swap3\n      swap2\n      swap1\n      tag_32\n      jump\t// in\n    tag_72:\n      0x20\n      mload(0x40)\n      dup1\n      dup4\n      sub\n      dup2\n      0x00\n      dup8\n      dup1\n      extcodesize\n      iszero\n      dup1\n      iszero\n      tag_73\n      jumpi\n      0x00\n      dup1\n      revert\n    tag_73:\n      pop\n      gas\n      call\n      iszero\n      dup1\n      iszero\n      tag_75\n      jumpi\n      returndatasize\n      0x00\n      dup1\n      returndatacopy\n      revert(0x00, returndatasize)\n    tag_75:\n      pop\n      pop\n      pop\n      pop\n      mload(0x40)\n      returndatasize\n      not(0x1f)\n      0x1f\n      dup3\n      add\n      and\n      dup3\n      add\n      dup1\n      0x40\n      mstore\n      pop\n      dup2\n      add\n      swap1\n      tag_76\n      swap2\n      swap1\n      tag_37\n      jump\t// in\n    tag_76:\n      pop\n        /* \"contracts/LiquidityPool.sol\":1007:1045  liquidityProvided(msg.sender, _amount) */\n      0xb62268a18d99fe191ac8e62f823ab1eec698609a81b2c8de3dac902896b09da6\n        /* \"contracts/LiquidityPool.sol\":1025:1035  msg.sender */\n      caller\n        /* \"contracts/LiquidityPool.sol\":1037:1044  _amount */\n      dup3\n        /* \"contracts/LiquidityPool.sol\":1007:1045  liquidityProvided(msg.sender, _amount) */\n      mload(0x40)\n      tag_77\n      swap3\n      swap2\n      swap1\n      tag_32\n      jump\t// in\n    tag_77:\n      mload(0x40)\n      dup1\n      swap2\n      sub\n      swap1\n      log1\n        /* \"contracts/LiquidityPool.sol\":630:1052  function provideLiquidity(uint256 _amount) external payable {... */\n      pop\n      jump\t// out\n        /* \"contracts/LiquidityPool.sol\":358:385  address public reserveToken */\n    tag_20:\n      0x00\n      dup1\n      sload\n      swap1\n      0x0100\n      exp\n      swap1\n      div\n      0xffffffffffffffffffffffffffffffffffffffff\n      and\n      dup2\n      jump\t// out\n        /* \"contracts/LiquidityPool.sol\":1058:1615  function reedemShares(uint256 _sharesAmount) public {... */\n    tag_26:\n        /* \"contracts/LiquidityPool.sol\":1144:1145  0 */\n      0x00\n        /* \"contracts/LiquidityPool.sol\":1128:1141  _sharesAmount */\n      dup2\n        /* \"contracts/LiquidityPool.sol\":1128:1145  _sharesAmount > 0 */\n      gt\n        /* \"contracts/LiquidityPool.sol\":1120:1174  require(_sharesAmount > 0, \"Invalid amount of shares\") */\n      tag_79\n      jumpi\n      mload(0x40)\n      0x08c379a000000000000000000000000000000000000000000000000000000000\n      dup2\n      mstore\n      0x04\n      add\n      tag_80\n      swap1\n      tag_81\n      jump\t// in\n    tag_80:\n      mload(0x40)\n      dup1\n      swap2\n      sub\n      swap1\n      revert\n    tag_79:\n        /* \"contracts/LiquidityPool.sol\":1251:1264  _sharesAmount */\n      dup1\n        /* \"contracts/LiquidityPool.sol\":421:463  0xf5e642e29D6516B2301dFa2Db87A40B4204B8d6B */\n      0xf5e642e29d6516b2301dfa2db87a40b4204b8d6b\n        /* \"contracts/LiquidityPool.sol\":1192:1220  IERC20(ltrAddress).allowance */\n      0xffffffffffffffffffffffffffffffffffffffff\n      and\n      0xdd62ed3e\n        /* \"contracts/LiquidityPool.sol\":1221:1231  msg.sender */\n      caller\n        /* \"contracts/LiquidityPool.sol\":1241:1245  this */\n      address\n        /* \"contracts/LiquidityPool.sol\":1192:1247  IERC20(ltrAddress).allowance(msg.sender, address(this)) */\n      mload(0x40)\n      dup4\n      0xffffffff\n      and\n      0xe0\n      shl\n      dup2\n      mstore\n      0x04\n      add\n      tag_82\n      swap3\n      swap2\n      swap1\n      tag_40\n      jump\t// in\n    tag_82:\n      0x20\n      mload(0x40)\n      dup1\n      dup4\n      sub\n      dup2\n      dup7\n      dup1\n      extcodesize\n      iszero\n      dup1\n      iszero\n      tag_83\n      jumpi\n      0x00\n      dup1\n      revert\n    tag_83:\n      pop\n      gas\n      staticcall\n      iszero\n      dup1\n      iszero\n      tag_85\n      jumpi\n      returndatasize\n      0x00\n      dup1\n      returndatacopy\n      revert(0x00, returndatasize)\n    tag_85:\n      pop\n      pop\n      pop\n      pop\n      mload(0x40)\n      returndatasize\n      not(0x1f)\n      0x1f\n      dup3\n      add\n      and\n      dup3\n      add\n      dup1\n      0x40\n      mstore\n      pop\n      dup2\n      add\n      swap1\n      tag_86\n      swap2\n      swap1\n      tag_45\n      jump\t// in\n    tag_86:\n        /* \"contracts/LiquidityPool.sol\":1192:1264  IERC20(ltrAddress).allowance(msg.sender, address(this)) >= _sharesAmount */\n      lt\n      iszero\n        /* \"contracts/LiquidityPool.sol\":1184:1334  require(IERC20(ltrAddress).allowance(msg.sender, address(this)) >= _sharesAmount, \"Please approve the contract to deduct ltr tokens from your wallet\") */\n      tag_87\n      jumpi\n      mload(0x40)\n      0x08c379a000000000000000000000000000000000000000000000000000000000\n      dup2\n      mstore\n      0x04\n      add\n      tag_88\n      swap1\n      tag_89\n      jump\t// in\n    tag_88:\n      mload(0x40)\n      dup1\n      swap2\n      sub\n      swap1\n      revert\n    tag_87:\n        /* \"contracts/LiquidityPool.sol\":421:463  0xf5e642e29D6516B2301dFa2Db87A40B4204B8d6B */\n      0xf5e642e29d6516b2301dfa2db87a40b4204b8d6b\n        /* \"contracts/LiquidityPool.sol\":1345:1376  IERC20(ltrAddress).transferFrom */\n      0xffffffffffffffffffffffffffffffffffffffff\n      and\n      0x23b872dd\n        /* \"contracts/LiquidityPool.sol\":1377:1387  msg.sender */\n      caller\n        /* \"contracts/LiquidityPool.sol\":1397:1401  this */\n      address\n        /* \"contracts/LiquidityPool.sol\":1404:1417  _sharesAmount */\n      dup5\n        /* \"contracts/LiquidityPool.sol\":1345:1418  IERC20(ltrAddress).transferFrom(msg.sender, address(this), _sharesAmount) */\n      mload(0x40)\n      dup5\n      0xffffffff\n      and\n      0xe0\n      shl\n      dup2\n      mstore\n      0x04\n      add\n      tag_90\n      swap4\n      swap3\n      swap2\n      swap1\n      tag_50\n      jump\t// in\n    tag_90:\n      0x20\n      mload(0x40)\n      dup1\n      dup4\n      sub\n      dup2\n      0x00\n      dup8\n      dup1\n      extcodesize\n      iszero\n      dup1\n      iszero\n      tag_91\n      jumpi\n      0x00\n      dup1\n      revert\n    tag_91:\n      pop\n      gas\n      call\n      iszero\n      dup1\n      iszero\n      tag_93\n      jumpi\n      returndatasize\n      0x00\n      dup1\n      returndatacopy\n      revert(0x00, returndatasize)\n    tag_93:\n      pop\n      pop\n      pop\n      pop\n      mload(0x40)\n      returndatasize\n      not(0x1f)\n      0x1f\n      dup3\n      add\n      and\n      dup3\n      add\n      dup1\n      0x40\n      mstore\n      pop\n      dup2\n      add\n      swap1\n      tag_94\n      swap2\n      swap1\n      tag_37\n      jump\t// in\n    tag_94:\n      pop\n        /* \"contracts/LiquidityPool.sol\":1435:1447  reserveToken */\n      0x00\n      dup1\n      sload\n      swap1\n      0x0100\n      exp\n      swap1\n      div\n      0xffffffffffffffffffffffffffffffffffffffff\n      and\n        /* \"contracts/LiquidityPool.sol\":1428:1457  IERC20(reserveToken).transfer */\n      0xffffffffffffffffffffffffffffffffffffffff\n      and\n      0xa9059cbb\n        /* \"contracts/LiquidityPool.sol\":1458:1468  msg.sender */\n      caller\n        /* \"contracts/LiquidityPool.sol\":1470:1483  _sharesAmount */\n      dup4\n        /* \"contracts/LiquidityPool.sol\":1428:1484  IERC20(reserveToken).transfer(msg.sender, _sharesAmount) */\n      mload(0x40)\n      dup4\n      0xffffffff\n      and\n      0xe0\n      shl\n      dup2\n      mstore\n      0x04\n      add\n      tag_95\n      swap3\n      swap2\n      swap1\n      tag_32\n      jump\t// in\n    tag_95:\n      0x20\n      mload(0x40)\n      dup1\n      dup4\n      sub\n      dup2\n      0x00\n      dup8\n      dup1\n      extcodesize\n      iszero\n      dup1\n      iszero\n      tag_96\n      jumpi\n      0x00\n      dup1\n      revert\n    tag_96:\n      pop\n      gas\n      call\n      iszero\n      dup1\n      iszero\n      tag_98\n      jumpi\n      returndatasize\n      0x00\n      dup1\n      returndatacopy\n      revert(0x00, returndatasize)\n    tag_98:\n      pop\n      pop\n      pop\n      pop\n      mload(0x40)\n      returndatasize\n      not(0x1f)\n      0x1f\n      dup3\n      add\n      and\n      dup3\n      add\n      dup1\n      0x40\n      mstore\n      pop\n      dup2\n      add\n      swap1\n      tag_99\n      swap2\n      swap1\n      tag_37\n      jump\t// in\n    tag_99:\n      pop\n        /* \"contracts/LiquidityPool.sol\":1495:1507  bool success */\n      0x00\n        /* \"contracts/LiquidityPool.sol\":1521:1531  msg.sender */\n      caller\n        /* \"contracts/LiquidityPool.sol\":1513:1537  payable(msg.sender).call */\n      0xffffffffffffffffffffffffffffffffffffffff\n      and\n        /* \"contracts/LiquidityPool.sol\":1545:1558  _sharesAmount */\n      dup3\n        /* \"contracts/LiquidityPool.sol\":1513:1563  payable(msg.sender).call{value: _sharesAmount}(\"\") */\n      mload(0x40)\n      tag_100\n      swap1\n      tag_56\n      jump\t// in\n    tag_100:\n      0x00\n      mload(0x40)\n      dup1\n      dup4\n      sub\n      dup2\n      dup6\n      dup8\n      gas\n      call\n      swap3\n      pop\n      pop\n      pop\n      returndatasize\n      dup1\n      0x00\n      dup2\n      eq\n      tag_103\n      jumpi\n      mload(0x40)\n      swap2\n      pop\n      and(add(returndatasize, 0x3f), not(0x1f))\n      dup3\n      add\n      0x40\n      mstore\n      returndatasize\n      dup3\n      mstore\n      returndatasize\n      0x00\n      0x20\n      dup5\n      add\n      returndatacopy\n      jump(tag_102)\n    tag_103:\n      0x60\n      swap2\n      pop\n    tag_102:\n      pop\n        /* \"contracts/LiquidityPool.sol\":1494:1563  (bool success, ) = payable(msg.sender).call{value: _sharesAmount}(\"\") */\n      pop\n      swap1\n      pop\n        /* \"contracts/LiquidityPool.sol\":1581:1588  success */\n      dup1\n        /* \"contracts/LiquidityPool.sol\":1573:1608  require(success, \"Transfer failed\") */\n      tag_104\n      jumpi\n      mload(0x40)\n      0x08c379a000000000000000000000000000000000000000000000000000000000\n      dup2\n      mstore\n      0x04\n      add\n      tag_105\n      swap1\n      tag_106\n      jump\t// in\n    tag_105:\n      mload(0x40)\n      dup1\n      swap2\n      sub\n      swap1\n      revert\n    tag_104:\n        /* \"contracts/LiquidityPool.sol\":1110:1615  {... */\n      pop\n        /* \"contracts/LiquidityPool.sol\":1058:1615  function reedemShares(uint256 _sharesAmount) public {... */\n      pop\n      jump\t// out\n        /* \"#utility.yul\":7:144   */\n    tag_108:\n        /* \"#utility.yul\":61:66   */\n      0x00\n        /* \"#utility.yul\":92:98   */\n      dup2\n        /* \"#utility.yul\":86:99   */\n      mload\n        /* \"#utility.yul\":77:99   */\n      swap1\n      pop\n        /* \"#utility.yul\":108:138   */\n      tag_110\n        /* \"#utility.yul\":132:137   */\n      dup2\n        /* \"#utility.yul\":108:138   */\n      tag_111\n      jump\t// in\n    tag_110:\n        /* \"#utility.yul\":7:144   */\n      swap3\n      swap2\n      pop\n      pop\n      jump\t// out\n        /* \"#utility.yul\":150:289   */\n    tag_112:\n        /* \"#utility.yul\":196:201   */\n      0x00\n        /* \"#utility.yul\":234:240   */\n      dup2\n        /* \"#utility.yul\":221:241   */\n      calldataload\n        /* \"#utility.yul\":212:241   */\n      swap1\n      pop\n        /* \"#utility.yul\":250:283   */\n      tag_114\n        /* \"#utility.yul\":277:282   */\n      dup2\n        /* \"#utility.yul\":250:283   */\n      tag_115\n      jump\t// in\n    tag_114:\n        /* \"#utility.yul\":150:289   */\n      swap3\n      swap2\n      pop\n      pop\n      jump\t// out\n        /* \"#utility.yul\":295:438   */\n    tag_116:\n        /* \"#utility.yul\":352:357   */\n      0x00\n        /* \"#utility.yul\":383:389   */\n      dup2\n        /* \"#utility.yul\":377:390   */\n      mload\n        /* \"#utility.yul\":368:390   */\n      swap1\n      pop\n        /* \"#utility.yul\":399:432   */\n      tag_118\n        /* \"#utility.yul\":426:431   */\n      dup2\n        /* \"#utility.yul\":399:432   */\n      tag_115\n      jump\t// in\n    tag_118:\n        /* \"#utility.yul\":295:438   */\n      swap3\n      swap2\n      pop\n      pop\n      jump\t// out\n        /* \"#utility.yul\":444:789   */\n    tag_37:\n        /* \"#utility.yul\":511:517   */\n      0x00\n        /* \"#utility.yul\":560:562   */\n      0x20\n        /* \"#utility.yul\":548:557   */\n      dup3\n        /* \"#utility.yul\":539:546   */\n      dup5\n        /* \"#utility.yul\":535:558   */\n      sub\n        /* \"#utility.yul\":531:563   */\n      slt\n        /* \"#utility.yul\":528:647   */\n      iszero\n      tag_120\n      jumpi\n        /* \"#utility.yul\":566:645   */\n      tag_121\n      tag_122\n      jump\t// in\n    tag_121:\n        /* \"#utility.yul\":528:647   */\n    tag_120:\n        /* \"#utility.yul\":686:687   */\n      0x00\n        /* \"#utility.yul\":711:772   */\n      tag_123\n        /* \"#utility.yul\":764:771   */\n      dup5\n        /* \"#utility.yul\":755:761   */\n      dup3\n        /* \"#utility.yul\":744:753   */\n      dup6\n        /* \"#utility.yul\":740:762   */\n      add\n        /* \"#utility.yul\":711:772   */\n      tag_108\n      jump\t// in\n    tag_123:\n        /* \"#utility.yul\":701:772   */\n      swap2\n      pop\n        /* \"#utility.yul\":657:782   */\n      pop\n        /* \"#utility.yul\":444:789   */\n      swap3\n      swap2\n      pop\n      pop\n      jump\t// out\n        /* \"#utility.yul\":795:1124   */\n    tag_9:\n        /* \"#utility.yul\":854:860   */\n      0x00\n        /* \"#utility.yul\":903:905   */\n      0x20\n        /* \"#utility.yul\":891:900   */\n      dup3\n        /* \"#utility.yul\":882:889   */\n      dup5\n        /* \"#utility.yul\":878:901   */\n      sub\n        /* \"#utility.yul\":874:906   */\n      slt\n        /* \"#utility.yul\":871:990   */\n      iszero\n      tag_125\n      jumpi\n        /* \"#utility.yul\":909:988   */\n      tag_126\n      tag_122\n      jump\t// in\n    tag_126:\n        /* \"#utility.yul\":871:990   */\n    tag_125:\n        /* \"#utility.yul\":1029:1030   */\n      0x00\n        /* \"#utility.yul\":1054:1107   */\n      tag_127\n        /* \"#utility.yul\":1099:1106   */\n      dup5\n        /* \"#utility.yul\":1090:1096   */\n      dup3\n        /* \"#utility.yul\":1079:1088   */\n      dup6\n        /* \"#utility.yul\":1075:1097   */\n      add\n        /* \"#utility.yul\":1054:1107   */\n      tag_112\n      jump\t// in\n    tag_127:\n        /* \"#utility.yul\":1044:1107   */\n      swap2\n      pop\n        /* \"#utility.yul\":1000:1117   */\n      pop\n        /* \"#utility.yul\":795:1124   */\n      swap3\n      swap2\n      pop\n      pop\n      jump\t// out\n        /* \"#utility.yul\":1130:1481   */\n    tag_45:\n        /* \"#utility.yul\":1200:1206   */\n      0x00\n        /* \"#utility.yul\":1249:1251   */\n      0x20\n        /* \"#utility.yul\":1237:1246   */\n      dup3\n        /* \"#utility.yul\":1228:1235   */\n      dup5\n        /* \"#utility.yul\":1224:1247   */\n      sub\n        /* \"#utility.yul\":1220:1252   */\n      slt\n        /* \"#utility.yul\":1217:1336   */\n      iszero\n      tag_129\n      jumpi\n        /* \"#utility.yul\":1255:1334   */\n      tag_130\n      tag_122\n      jump\t// in\n    tag_130:\n        /* \"#utility.yul\":1217:1336   */\n    tag_129:\n        /* \"#utility.yul\":1375:1376   */\n      0x00\n        /* \"#utility.yul\":1400:1464   */\n      tag_131\n        /* \"#utility.yul\":1456:1463   */\n      dup5\n        /* \"#utility.yul\":1447:1453   */\n      dup3\n        /* \"#utility.yul\":1436:1445   */\n      dup6\n        /* \"#utility.yul\":1432:1454   */\n      add\n        /* \"#utility.yul\":1400:1464   */\n      tag_116\n      jump\t// in\n    tag_131:\n        /* \"#utility.yul\":1390:1464   */\n      swap2\n      pop\n        /* \"#utility.yul\":1346:1474   */\n      pop\n        /* \"#utility.yul\":1130:1481   */\n      swap3\n      swap2\n      pop\n      pop\n      jump\t// out\n        /* \"#utility.yul\":1487:1605   */\n    tag_132:\n        /* \"#utility.yul\":1574:1598   */\n      tag_134\n        /* \"#utility.yul\":1592:1597   */\n      dup2\n        /* \"#utility.yul\":1574:1598   */\n      tag_135\n      jump\t// in\n    tag_134:\n        /* \"#utility.yul\":1569:1572   */\n      dup3\n        /* \"#utility.yul\":1562:1599   */\n      mstore\n        /* \"#utility.yul\":1487:1605   */\n      pop\n      pop\n      jump\t// out\n        /* \"#utility.yul\":1611:1977   */\n    tag_136:\n        /* \"#utility.yul\":1753:1756   */\n      0x00\n        /* \"#utility.yul\":1774:1841   */\n      tag_138\n        /* \"#utility.yul\":1838:1840   */\n      0x18\n        /* \"#utility.yul\":1833:1836   */\n      dup4\n        /* \"#utility.yul\":1774:1841   */\n      tag_139\n      jump\t// in\n    tag_138:\n        /* \"#utility.yul\":1767:1841   */\n      swap2\n      pop\n        /* \"#utility.yul\":1850:1943   */\n      tag_140\n        /* \"#utility.yul\":1939:1942   */\n      dup3\n        /* \"#utility.yul\":1850:1943   */\n      tag_141\n      jump\t// in\n    tag_140:\n        /* \"#utility.yul\":1968:1970   */\n      0x20\n        /* \"#utility.yul\":1963:1966   */\n      dup3\n        /* \"#utility.yul\":1959:1971   */\n      add\n        /* \"#utility.yul\":1952:1971   */\n      swap1\n      pop\n        /* \"#utility.yul\":1611:1977   */\n      swap2\n      swap1\n      pop\n      jump\t// out\n        /* \"#utility.yul\":1983:2349   */\n    tag_142:\n        /* \"#utility.yul\":2125:2128   */\n      0x00\n        /* \"#utility.yul\":2146:2213   */\n      tag_144\n        /* \"#utility.yul\":2210:2212   */\n      0x0f\n        /* \"#utility.yul\":2205:2208   */\n      dup4\n        /* \"#utility.yul\":2146:2213   */\n      tag_139\n      jump\t// in\n    tag_144:\n        /* \"#utility.yul\":2139:2213   */\n      swap2\n      pop\n        /* \"#utility.yul\":2222:2315   */\n      tag_145\n        /* \"#utility.yul\":2311:2314   */\n      dup3\n        /* \"#utility.yul\":2222:2315   */\n      tag_146\n      jump\t// in\n    tag_145:\n        /* \"#utility.yul\":2340:2342   */\n      0x20\n        /* \"#utility.yul\":2335:2338   */\n      dup3\n        /* \"#utility.yul\":2331:2343   */\n      add\n        /* \"#utility.yul\":2324:2343   */\n      swap1\n      pop\n        /* \"#utility.yul\":1983:2349   */\n      swap2\n      swap1\n      pop\n      jump\t// out\n        /* \"#utility.yul\":2355:2721   */\n    tag_147:\n        /* \"#utility.yul\":2497:2500   */\n      0x00\n        /* \"#utility.yul\":2518:2585   */\n      tag_149\n        /* \"#utility.yul\":2582:2584   */\n      0x0e\n        /* \"#utility.yul\":2577:2580   */\n      dup4\n        /* \"#utility.yul\":2518:2585   */\n      tag_139\n      jump\t// in\n    tag_149:\n        /* \"#utility.yul\":2511:2585   */\n      swap2\n      pop\n        /* \"#utility.yul\":2594:2687   */\n      tag_150\n        /* \"#utility.yul\":2683:2686   */\n      dup3\n        /* \"#utility.yul\":2594:2687   */\n      tag_151\n      jump\t// in\n    tag_150:\n        /* \"#utility.yul\":2712:2714   */\n      0x20\n        /* \"#utility.yul\":2707:2710   */\n      dup3\n        /* \"#utility.yul\":2703:2715   */\n      add\n        /* \"#utility.yul\":2696:2715   */\n      swap1\n      pop\n        /* \"#utility.yul\":2355:2721   */\n      swap2\n      swap1\n      pop\n      jump\t// out\n        /* \"#utility.yul\":2727:3093   */\n    tag_152:\n        /* \"#utility.yul\":2869:2872   */\n      0x00\n        /* \"#utility.yul\":2890:2957   */\n      tag_154\n        /* \"#utility.yul\":2954:2956   */\n      0x15\n        /* \"#utility.yul\":2949:2952   */\n      dup4\n        /* \"#utility.yul\":2890:2957   */\n      tag_139\n      jump\t// in\n    tag_154:\n        /* \"#utility.yul\":2883:2957   */\n      swap2\n      pop\n        /* \"#utility.yul\":2966:3059   */\n      tag_155\n        /* \"#utility.yul\":3055:3058   */\n      dup3\n        /* \"#utility.yul\":2966:3059   */\n      tag_156\n      jump\t// in\n    tag_155:\n        /* \"#utility.yul\":3084:3086   */\n      0x20\n        /* \"#utility.yul\":3079:3082   */\n      dup3\n        /* \"#utility.yul\":3075:3087   */\n      add\n        /* \"#utility.yul\":3068:3087   */\n      swap1\n      pop\n        /* \"#utility.yul\":2727:3093   */\n      swap2\n      swap1\n      pop\n      jump\t// out\n        /* \"#utility.yul\":3099:3465   */\n    tag_157:\n        /* \"#utility.yul\":3241:3244   */\n      0x00\n        /* \"#utility.yul\":3262:3329   */\n      tag_159\n        /* \"#utility.yul\":3326:3328   */\n      0x0f\n        /* \"#utility.yul\":3321:3324   */\n      dup4\n        /* \"#utility.yul\":3262:3329   */\n      tag_139\n      jump\t// in\n    tag_159:\n        /* \"#utility.yul\":3255:3329   */\n      swap2\n      pop\n        /* \"#utility.yul\":3338:3431   */\n      tag_160\n        /* \"#utility.yul\":3427:3430   */\n      dup3\n        /* \"#utility.yul\":3338:3431   */\n      tag_161\n      jump\t// in\n    tag_160:\n        /* \"#utility.yul\":3456:3458   */\n      0x20\n        /* \"#utility.yul\":3451:3454   */\n      dup3\n        /* \"#utility.yul\":3447:3459   */\n      add\n        /* \"#utility.yul\":3440:3459   */\n      swap1\n      pop\n        /* \"#utility.yul\":3099:3465   */\n      swap2\n      swap1\n      pop\n      jump\t// out\n        /* \"#utility.yul\":3471:3837   */\n    tag_162:\n        /* \"#utility.yul\":3613:3616   */\n      0x00\n        /* \"#utility.yul\":3634:3701   */\n      tag_164\n        /* \"#utility.yul\":3698:3700   */\n      0x41\n        /* \"#utility.yul\":3693:3696   */\n      dup4\n        /* \"#utility.yul\":3634:3701   */\n      tag_139\n      jump\t// in\n    tag_164:\n        /* \"#utility.yul\":3627:3701   */\n      swap2\n      pop\n        /* \"#utility.yul\":3710:3803   */\n      tag_165\n        /* \"#utility.yul\":3799:3802   */\n      dup3\n        /* \"#utility.yul\":3710:3803   */\n      tag_166\n      jump\t// in\n    tag_165:\n        /* \"#utility.yul\":3828:3830   */\n      0x60\n        /* \"#utility.yul\":3823:3826   */\n      dup3\n        /* \"#utility.yul\":3819:3831   */\n      add\n        /* \"#utility.yul\":3812:3831   */\n      swap1\n      pop\n        /* \"#utility.yul\":3471:3837   */\n      swap2\n      swap1\n      pop\n      jump\t// out\n        /* \"#utility.yul\":3843:4241   */\n    tag_167:\n        /* \"#utility.yul\":4002:4005   */\n      0x00\n        /* \"#utility.yul\":4023:4106   */\n      tag_169\n        /* \"#utility.yul\":4104:4105   */\n      0x00\n        /* \"#utility.yul\":4099:4102   */\n      dup4\n        /* \"#utility.yul\":4023:4106   */\n      tag_170\n      jump\t// in\n    tag_169:\n        /* \"#utility.yul\":4016:4106   */\n      swap2\n      pop\n        /* \"#utility.yul\":4115:4208   */\n      tag_171\n        /* \"#utility.yul\":4204:4207   */\n      dup3\n        /* \"#utility.yul\":4115:4208   */\n      tag_172\n      jump\t// in\n    tag_171:\n        /* \"#utility.yul\":4233:4234   */\n      0x00\n        /* \"#utility.yul\":4228:4231   */\n      dup3\n        /* \"#utility.yul\":4224:4235   */\n      add\n        /* \"#utility.yul\":4217:4235   */\n      swap1\n      pop\n        /* \"#utility.yul\":3843:4241   */\n      swap2\n      swap1\n      pop\n      jump\t// out\n        /* \"#utility.yul\":4247:4613   */\n    tag_173:\n        /* \"#utility.yul\":4389:4392   */\n      0x00\n        /* \"#utility.yul\":4410:4477   */\n      tag_175\n        /* \"#utility.yul\":4474:4476   */\n      0x2c\n        /* \"#utility.yul\":4469:4472   */\n      dup4\n        /* \"#utility.yul\":4410:4477   */\n      tag_139\n      jump\t// in\n    tag_175:\n        /* \"#utility.yul\":4403:4477   */\n      swap2\n      pop\n        /* \"#utility.yul\":4486:4579   */\n      tag_176\n        /* \"#utility.yul\":4575:4578   */\n      dup3\n        /* \"#utility.yul\":4486:4579   */\n      tag_177\n      jump\t// in\n    tag_176:\n        /* \"#utility.yul\":4604:4606   */\n      0x40\n        /* \"#utility.yul\":4599:4602   */\n      dup3\n        /* \"#utility.yul\":4595:4607   */\n      add\n        /* \"#utility.yul\":4588:4607   */\n      swap1\n      pop\n        /* \"#utility.yul\":4247:4613   */\n      swap2\n      swap1\n      pop\n      jump\t// out\n        /* \"#utility.yul\":4619:4737   */\n    tag_178:\n        /* \"#utility.yul\":4706:4730   */\n      tag_180\n        /* \"#utility.yul\":4724:4729   */\n      dup2\n        /* \"#utility.yul\":4706:4730   */\n      tag_181\n      jump\t// in\n    tag_180:\n        /* \"#utility.yul\":4701:4704   */\n      dup3\n        /* \"#utility.yul\":4694:4731   */\n      mstore\n        /* \"#utility.yul\":4619:4737   */\n      pop\n      pop\n      jump\t// out\n        /* \"#utility.yul\":4743:5122   */\n    tag_56:\n        /* \"#utility.yul\":4927:4930   */\n      0x00\n        /* \"#utility.yul\":4949:5096   */\n      tag_183\n        /* \"#utility.yul\":5092:5095   */\n      dup3\n        /* \"#utility.yul\":4949:5096   */\n      tag_167\n      jump\t// in\n    tag_183:\n        /* \"#utility.yul\":4942:5096   */\n      swap2\n      pop\n        /* \"#utility.yul\":5113:5116   */\n      dup2\n        /* \"#utility.yul\":5106:5116   */\n      swap1\n      pop\n        /* \"#utility.yul\":4743:5122   */\n      swap2\n      swap1\n      pop\n      jump\t// out\n        /* \"#utility.yul\":5128:5350   */\n    tag_22:\n        /* \"#utility.yul\":5221:5225   */\n      0x00\n        /* \"#utility.yul\":5259:5261   */\n      0x20\n        /* \"#utility.yul\":5248:5257   */\n      dup3\n        /* \"#utility.yul\":5244:5262   */\n      add\n        /* \"#utility.yul\":5236:5262   */\n      swap1\n      pop\n        /* \"#utility.yul\":5272:5343   */\n      tag_185\n        /* \"#utility.yul\":5340:5341   */\n      0x00\n        /* \"#utility.yul\":5329:5338   */\n      dup4\n        /* \"#utility.yul\":5325:5342   */\n      add\n        /* \"#utility.yul\":5316:5322   */\n      dup5\n        /* \"#utility.yul\":5272:5343   */\n      tag_132\n      jump\t// in\n    tag_185:\n        /* \"#utility.yul\":5128:5350   */\n      swap3\n      swap2\n      pop\n      pop\n      jump\t// out\n        /* \"#utility.yul\":5356:5688   */\n    tag_40:\n        /* \"#utility.yul\":5477:5481   */\n      0x00\n        /* \"#utility.yul\":5515:5517   */\n      0x40\n        /* \"#utility.yul\":5504:5513   */\n      dup3\n        /* \"#utility.yul\":5500:5518   */\n      add\n        /* \"#utility.yul\":5492:5518   */\n      swap1\n      pop\n        /* \"#utility.yul\":5528:5599   */\n      tag_187\n        /* \"#utility.yul\":5596:5597   */\n      0x00\n        /* \"#utility.yul\":5585:5594   */\n      dup4\n        /* \"#utility.yul\":5581:5598   */\n      add\n        /* \"#utility.yul\":5572:5578   */\n      dup6\n        /* \"#utility.yul\":5528:5599   */\n      tag_132\n      jump\t// in\n    tag_187:\n        /* \"#utility.yul\":5609:5681   */\n      tag_188\n        /* \"#utility.yul\":5677:5679   */\n      0x20\n        /* \"#utility.yul\":5666:5675   */\n      dup4\n        /* \"#utility.yul\":5662:5680   */\n      add\n        /* \"#utility.yul\":5653:5659   */\n      dup5\n        /* \"#utility.yul\":5609:5681   */\n      tag_132\n      jump\t// in\n    tag_188:\n        /* \"#utility.yul\":5356:5688   */\n      swap4\n      swap3\n      pop\n      pop\n      pop\n      jump\t// out\n        /* \"#utility.yul\":5694:6136   */\n    tag_50:\n        /* \"#utility.yul\":5843:5847   */\n      0x00\n        /* \"#utility.yul\":5881:5883   */\n      0x60\n        /* \"#utility.yul\":5870:5879   */\n      dup3\n        /* \"#utility.yul\":5866:5884   */\n      add\n        /* \"#utility.yul\":5858:5884   */\n      swap1\n      pop\n        /* \"#utility.yul\":5894:5965   */\n      tag_190\n        /* \"#utility.yul\":5962:5963   */\n      0x00\n        /* \"#utility.yul\":5951:5960   */\n      dup4\n        /* \"#utility.yul\":5947:5964   */\n      add\n        /* \"#utility.yul\":5938:5944   */\n      dup7\n        /* \"#utility.yul\":5894:5965   */\n      tag_132\n      jump\t// in\n    tag_190:\n        /* \"#utility.yul\":5975:6047   */\n      tag_191\n        /* \"#utility.yul\":6043:6045   */\n      0x20\n        /* \"#utility.yul\":6032:6041   */\n      dup4\n        /* \"#utility.yul\":6028:6046   */\n      add\n        /* \"#utility.yul\":6019:6025   */\n      dup6\n        /* \"#utility.yul\":5975:6047   */\n      tag_132\n      jump\t// in\n    tag_191:\n        /* \"#utility.yul\":6057:6129   */\n      tag_192\n        /* \"#utility.yul\":6125:6127   */\n      0x40\n        /* \"#utility.yul\":6114:6123   */\n      dup4\n        /* \"#utility.yul\":6110:6128   */\n      add\n        /* \"#utility.yul\":6101:6107   */\n      dup5\n        /* \"#utility.yul\":6057:6129   */\n      tag_178\n      jump\t// in\n    tag_192:\n        /* \"#utility.yul\":5694:6136   */\n      swap5\n      swap4\n      pop\n      pop\n      pop\n      pop\n      jump\t// out\n        /* \"#utility.yul\":6142:6474   */\n    tag_32:\n        /* \"#utility.yul\":6263:6267   */\n      0x00\n        /* \"#utility.yul\":6301:6303   */\n      0x40\n        /* \"#utility.yul\":6290:6299   */\n      dup3\n        /* \"#utility.yul\":6286:6304   */\n      add\n        /* \"#utility.yul\":6278:6304   */\n      swap1\n      pop\n        /* \"#utility.yul\":6314:6385   */\n      tag_194\n        /* \"#utility.yul\":6382:6383   */\n      0x00\n        /* \"#utility.yul\":6371:6380   */\n      dup4\n        /* \"#utility.yul\":6367:6384   */\n      add\n        /* \"#utility.yul\":6358:6364   */\n      dup6\n        /* \"#utility.yul\":6314:6385   */\n      tag_132\n      jump\t// in\n    tag_194:\n        /* \"#utility.yul\":6395:6467   */\n      tag_195\n        /* \"#utility.yul\":6463:6465   */\n      0x20\n        /* \"#utility.yul\":6452:6461   */\n      dup4\n        /* \"#utility.yul\":6448:6466   */\n      add\n        /* \"#utility.yul\":6439:6445   */\n      dup5\n        /* \"#utility.yul\":6395:6467   */\n      tag_178\n      jump\t// in\n    tag_195:\n        /* \"#utility.yul\":6142:6474   */\n      swap4\n      swap3\n      pop\n      pop\n      pop\n      jump\t// out\n        /* \"#utility.yul\":6480:6899   */\n    tag_81:\n        /* \"#utility.yul\":6646:6650   */\n      0x00\n        /* \"#utility.yul\":6684:6686   */\n      0x20\n        /* \"#utility.yul\":6673:6682   */\n      dup3\n        /* \"#utility.yul\":6669:6687   */\n      add\n        /* \"#utility.yul\":6661:6687   */\n      swap1\n      pop\n        /* \"#utility.yul\":6733:6742   */\n      dup2\n        /* \"#utility.yul\":6727:6731   */\n      dup2\n        /* \"#utility.yul\":6723:6743   */\n      sub\n        /* \"#utility.yul\":6719:6720   */\n      0x00\n        /* \"#utility.yul\":6708:6717   */\n      dup4\n        /* \"#utility.yul\":6704:6721   */\n      add\n        /* \"#utility.yul\":6697:6744   */\n      mstore\n        /* \"#utility.yul\":6761:6892   */\n      tag_197\n        /* \"#utility.yul\":6887:6891   */\n      dup2\n        /* \"#utility.yul\":6761:6892   */\n      tag_136\n      jump\t// in\n    tag_197:\n        /* \"#utility.yul\":6753:6892   */\n      swap1\n      pop\n        /* \"#utility.yul\":6480:6899   */\n      swap2\n      swap1\n      pop\n      jump\t// out\n        /* \"#utility.yul\":6905:7324   */\n    tag_106:\n        /* \"#utility.yul\":7071:7075   */\n      0x00\n        /* \"#utility.yul\":7109:7111   */\n      0x20\n        /* \"#utility.yul\":7098:7107   */\n      dup3\n        /* \"#utility.yul\":7094:7112   */\n      add\n        /* \"#utility.yul\":7086:7112   */\n      swap1\n      pop\n        /* \"#utility.yul\":7158:7167   */\n      dup2\n        /* \"#utility.yul\":7152:7156   */\n      dup2\n        /* \"#utility.yul\":7148:7168   */\n      sub\n        /* \"#utility.yul\":7144:7145   */\n      0x00\n        /* \"#utility.yul\":7133:7142   */\n      dup4\n        /* \"#utility.yul\":7129:7146   */\n      add\n        /* \"#utility.yul\":7122:7169   */\n      mstore\n        /* \"#utility.yul\":7186:7317   */\n      tag_199\n        /* \"#utility.yul\":7312:7316   */\n      dup2\n        /* \"#utility.yul\":7186:7317   */\n      tag_142\n      jump\t// in\n    tag_199:\n        /* \"#utility.yul\":7178:7317   */\n      swap1\n      pop\n        /* \"#utility.yul\":6905:7324   */\n      swap2\n      swap1\n      pop\n      jump\t// out\n        /* \"#utility.yul\":7330:7749   */\n    tag_30:\n        /* \"#utility.yul\":7496:7500   */\n      0x00\n        /* \"#utility.yul\":7534:7536   */\n      0x20\n        /* \"#utility.yul\":7523:7532   */\n      dup3\n        /* \"#utility.yul\":7519:7537   */\n      add\n        /* \"#utility.yul\":7511:7537   */\n      swap1\n      pop\n        /* \"#utility.yul\":7583:7592   */\n      dup2\n        /* \"#utility.yul\":7577:7581   */\n      dup2\n        /* \"#utility.yul\":7573:7593   */\n      sub\n        /* \"#utility.yul\":7569:7570   */\n      0x00\n        /* \"#utility.yul\":7558:7567   */\n      dup4\n        /* \"#utility.yul\":7554:7571   */\n      add\n        /* \"#utility.yul\":7547:7594   */\n      mstore\n        /* \"#utility.yul\":7611:7742   */\n      tag_201\n        /* \"#utility.yul\":7737:7741   */\n      dup2\n        /* \"#utility.yul\":7611:7742   */\n      tag_147\n      jump\t// in\n    tag_201:\n        /* \"#utility.yul\":7603:7742   */\n      swap1\n      pop\n        /* \"#utility.yul\":7330:7749   */\n      swap2\n      swap1\n      pop\n      jump\t// out\n        /* \"#utility.yul\":7755:8174   */\n    tag_48:\n        /* \"#utility.yul\":7921:7925   */\n      0x00\n        /* \"#utility.yul\":7959:7961   */\n      0x20\n        /* \"#utility.yul\":7948:7957   */\n      dup3\n        /* \"#utility.yul\":7944:7962   */\n      add\n        /* \"#utility.yul\":7936:7962   */\n      swap1\n      pop\n        /* \"#utility.yul\":8008:8017   */\n      dup2\n        /* \"#utility.yul\":8002:8006   */\n      dup2\n        /* \"#utility.yul\":7998:8018   */\n      sub\n        /* \"#utility.yul\":7994:7995   */\n      0x00\n        /* \"#utility.yul\":7983:7992   */\n      dup4\n        /* \"#utility.yul\":7979:7996   */\n      add\n        /* \"#utility.yul\":7972:8019   */\n      mstore\n        /* \"#utility.yul\":8036:8167   */\n      tag_203\n        /* \"#utility.yul\":8162:8166   */\n      dup2\n        /* \"#utility.yul\":8036:8167   */\n      tag_152\n      jump\t// in\n    tag_203:\n        /* \"#utility.yul\":8028:8167   */\n      swap1\n      pop\n        /* \"#utility.yul\":7755:8174   */\n      swap2\n      swap1\n      pop\n      jump\t// out\n        /* \"#utility.yul\":8180:8599   */\n    tag_62:\n        /* \"#utility.yul\":8346:8350   */\n      0x00\n        /* \"#utility.yul\":8384:8386   */\n      0x20\n        /* \"#utility.yul\":8373:8382   */\n      dup3\n        /* \"#utility.yul\":8369:8387   */\n      add\n        /* \"#utility.yul\":8361:8387   */\n      swap1\n      pop\n        /* \"#utility.yul\":8433:8442   */\n      dup2\n        /* \"#utility.yul\":8427:8431   */\n      dup2\n        /* \"#utility.yul\":8423:8443   */\n      sub\n        /* \"#utility.yul\":8419:8420   */\n      0x00\n        /* \"#utility.yul\":8408:8417   */\n      dup4\n        /* \"#utility.yul\":8404:8421   */\n      add\n        /* \"#utility.yul\":8397:8444   */\n      mstore\n        /* \"#utility.yul\":8461:8592   */\n      tag_205\n        /* \"#utility.yul\":8587:8591   */\n      dup2\n        /* \"#utility.yul\":8461:8592   */\n      tag_157\n      jump\t// in\n    tag_205:\n        /* \"#utility.yul\":8453:8592   */\n      swap1\n      pop\n        /* \"#utility.yul\":8180:8599   */\n      swap2\n      swap1\n      pop\n      jump\t// out\n        /* \"#utility.yul\":8605:9024   */\n    tag_89:\n        /* \"#utility.yul\":8771:8775   */\n      0x00\n        /* \"#utility.yul\":8809:8811   */\n      0x20\n        /* \"#utility.yul\":8798:8807   */\n      dup3\n        /* \"#utility.yul\":8794:8812   */\n      add\n        /* \"#utility.yul\":8786:8812   */\n      swap1\n      pop\n        /* \"#utility.yul\":8858:8867   */\n      dup2\n        /* \"#utility.yul\":8852:8856   */\n      dup2\n        /* \"#utility.yul\":8848:8868   */\n      sub\n        /* \"#utility.yul\":8844:8845   */\n      0x00\n        /* \"#utility.yul\":8833:8842   */\n      dup4\n        /* \"#utility.yul\":8829:8846   */\n      add\n        /* \"#utility.yul\":8822:8869   */\n      mstore\n        /* \"#utility.yul\":8886:9017   */\n      tag_207\n        /* \"#utility.yul\":9012:9016   */\n      dup2\n        /* \"#utility.yul\":8886:9017   */\n      tag_162\n      jump\t// in\n    tag_207:\n        /* \"#utility.yul\":8878:9017   */\n      swap1\n      pop\n        /* \"#utility.yul\":8605:9024   */\n      swap2\n      swap1\n      pop\n      jump\t// out\n        /* \"#utility.yul\":9030:9449   */\n    tag_66:\n        /* \"#utility.yul\":9196:9200   */\n      0x00\n        /* \"#utility.yul\":9234:9236   */\n      0x20\n        /* \"#utility.yul\":9223:9232   */\n      dup3\n        /* \"#utility.yul\":9219:9237   */\n      add\n        /* \"#utility.yul\":9211:9237   */\n      swap1\n      pop\n        /* \"#utility.yul\":9283:9292   */\n      dup2\n        /* \"#utility.yul\":9277:9281   */\n      dup2\n        /* \"#utility.yul\":9273:9293   */\n      sub\n        /* \"#utility.yul\":9269:9270   */\n      0x00\n        /* \"#utility.yul\":9258:9267   */\n      dup4\n        /* \"#utility.yul\":9254:9271   */\n      add\n        /* \"#utility.yul\":9247:9294   */\n      mstore\n        /* \"#utility.yul\":9311:9442   */\n      tag_209\n        /* \"#utility.yul\":9437:9441   */\n      dup2\n        /* \"#utility.yul\":9311:9442   */\n      tag_173\n      jump\t// in\n    tag_209:\n        /* \"#utility.yul\":9303:9442   */\n      swap1\n      pop\n        /* \"#utility.yul\":9030:9449   */\n      swap2\n      swap1\n      pop\n      jump\t// out\n        /* \"#utility.yul\":9536:9683   */\n    tag_170:\n        /* \"#utility.yul\":9637:9648   */\n      0x00\n        /* \"#utility.yul\":9674:9677   */\n      dup2\n        /* \"#utility.yul\":9659:9677   */\n      swap1\n      pop\n        /* \"#utility.yul\":9536:9683   */\n      swap3\n      swap2\n      pop\n      pop\n      jump\t// out\n        /* \"#utility.yul\":9689:9858   */\n    tag_139:\n        /* \"#utility.yul\":9773:9784   */\n      0x00\n        /* \"#utility.yul\":9807:9813   */\n      dup3\n        /* \"#utility.yul\":9802:9805   */\n      dup3\n        /* \"#utility.yul\":9795:9814   */\n      mstore\n        /* \"#utility.yul\":9847:9851   */\n      0x20\n        /* \"#utility.yul\":9842:9845   */\n      dup3\n        /* \"#utility.yul\":9838:9852   */\n      add\n        /* \"#utility.yul\":9823:9852   */\n      swap1\n      pop\n        /* \"#utility.yul\":9689:9858   */\n      swap3\n      swap2\n      pop\n      pop\n      jump\t// out\n        /* \"#utility.yul\":9864:9960   */\n    tag_135:\n        /* \"#utility.yul\":9901:9908   */\n      0x00\n        /* \"#utility.yul\":9930:9954   */\n      tag_215\n        /* \"#utility.yul\":9948:9953   */\n      dup3\n        /* \"#utility.yul\":9930:9954   */\n      tag_216\n      jump\t// in\n    tag_215:\n        /* \"#utility.yul\":9919:9954   */\n      swap1\n      pop\n        /* \"#utility.yul\":9864:9960   */\n      swap2\n      swap1\n      pop\n      jump\t// out\n        /* \"#utility.yul\":9966:10056   */\n    tag_217:\n        /* \"#utility.yul\":10000:10007   */\n      0x00\n        /* \"#utility.yul\":10043:10048   */\n      dup2\n        /* \"#utility.yul\":10036:10049   */\n      iszero\n        /* \"#utility.yul\":10029:10050   */\n      iszero\n        /* \"#utility.yul\":10018:10050   */\n      swap1\n      pop\n        /* \"#utility.yul\":9966:10056   */\n      swap2\n      swap1\n      pop\n      jump\t// out\n        /* \"#utility.yul\":10062:10188   */\n    tag_216:\n        /* \"#utility.yul\":10099:10106   */\n      0x00\n        /* \"#utility.yul\":10139:10181   */\n      0xffffffffffffffffffffffffffffffffffffffff\n        /* \"#utility.yul\":10132:10137   */\n      dup3\n        /* \"#utility.yul\":10128:10182   */\n      and\n        /* \"#utility.yul\":10117:10182   */\n      swap1\n      pop\n        /* \"#utility.yul\":10062:10188   */\n      swap2\n      swap1\n      pop\n      jump\t// out\n        /* \"#utility.yul\":10194:10271   */\n    tag_181:\n        /* \"#utility.yul\":10231:10238   */\n      0x00\n        /* \"#utility.yul\":10260:10265   */\n      dup2\n        /* \"#utility.yul\":10249:10265   */\n      swap1\n      pop\n        /* \"#utility.yul\":10194:10271   */\n      swap2\n      swap1\n      pop\n      jump\t// out\n        /* \"#utility.yul\":10400:10517   */\n    tag_122:\n        /* \"#utility.yul\":10509:10510   */\n      0x00\n        /* \"#utility.yul\":10506:10507   */\n      dup1\n        /* \"#utility.yul\":10499:10511   */\n      revert\n        /* \"#utility.yul\":10523:10697   */\n    tag_141:\n        /* \"#utility.yul\":10663:10689   */\n      0x496e76616c696420616d6f756e74206f66207368617265730000000000000000\n        /* \"#utility.yul\":10659:10660   */\n      0x00\n        /* \"#utility.yul\":10651:10657   */\n      dup3\n        /* \"#utility.yul\":10647:10661   */\n      add\n        /* \"#utility.yul\":10640:10690   */\n      mstore\n        /* \"#utility.yul\":10523:10697   */\n      pop\n      jump\t// out\n        /* \"#utility.yul\":10703:10868   */\n    tag_146:\n        /* \"#utility.yul\":10843:10860   */\n      0x5472616e73666572206661696c65640000000000000000000000000000000000\n        /* \"#utility.yul\":10839:10840   */\n      0x00\n        /* \"#utility.yul\":10831:10837   */\n      dup3\n        /* \"#utility.yul\":10827:10841   */\n      add\n        /* \"#utility.yul\":10820:10861   */\n      mstore\n        /* \"#utility.yul\":10703:10868   */\n      pop\n      jump\t// out\n        /* \"#utility.yul\":10874:11038   */\n    tag_151:\n        /* \"#utility.yul\":11014:11030   */\n      0x496e76616c696420616d6f756e74000000000000000000000000000000000000\n        /* \"#utility.yul\":11010:11011   */\n      0x00\n        /* \"#utility.yul\":11002:11008   */\n      dup3\n        /* \"#utility.yul\":10998:11012   */\n      add\n        /* \"#utility.yul\":10991:11031   */\n      mstore\n        /* \"#utility.yul\":10874:11038   */\n      pop\n      jump\t// out\n        /* \"#utility.yul\":11044:11215   */\n    tag_156:\n        /* \"#utility.yul\":11184:11207   */\n      0x436f6e7472616374206e6f7420617070726f7665640000000000000000000000\n        /* \"#utility.yul\":11180:11181   */\n      0x00\n        /* \"#utility.yul\":11172:11178   */\n      dup3\n        /* \"#utility.yul\":11168:11182   */\n      add\n        /* \"#utility.yul\":11161:11208   */\n      mstore\n        /* \"#utility.yul\":11044:11215   */\n      pop\n      jump\t// out\n        /* \"#utility.yul\":11221:11386   */\n    tag_161:\n        /* \"#utility.yul\":11361:11378   */\n      0x5472616e73666572204661696c65640000000000000000000000000000000000\n        /* \"#utility.yul\":11357:11358   */\n      0x00\n        /* \"#utility.yul\":11349:11355   */\n      dup3\n        /* \"#utility.yul\":11345:11359   */\n      add\n        /* \"#utility.yul\":11338:11379   */\n      mstore\n        /* \"#utility.yul\":11221:11386   */\n      pop\n      jump\t// out\n        /* \"#utility.yul\":11392:11681   */\n    tag_166:\n        /* \"#utility.yul\":11532:11566   */\n      0x506c6561736520617070726f76652074686520636f6e747261637420746f2064\n        /* \"#utility.yul\":11528:11529   */\n      0x00\n        /* \"#utility.yul\":11520:11526   */\n      dup3\n        /* \"#utility.yul\":11516:11530   */\n      add\n        /* \"#utility.yul\":11509:11567   */\n      mstore\n        /* \"#utility.yul\":11601:11635   */\n      0x6564756374206c747220746f6b656e732066726f6d20796f75722077616c6c65\n        /* \"#utility.yul\":11596:11598   */\n      0x20\n        /* \"#utility.yul\":11588:11594   */\n      dup3\n        /* \"#utility.yul\":11584:11599   */\n      add\n        /* \"#utility.yul\":11577:11636   */\n      mstore\n        /* \"#utility.yul\":11670:11673   */\n      0x7400000000000000000000000000000000000000000000000000000000000000\n        /* \"#utility.yul\":11665:11667   */\n      0x40\n        /* \"#utility.yul\":11657:11663   */\n      dup3\n        /* \"#utility.yul\":11653:11668   */\n      add\n        /* \"#utility.yul\":11646:11674   */\n      mstore\n        /* \"#utility.yul\":11392:11681   */\n      pop\n      jump\t// out\n        /* \"#utility.yul\":11687:11801   */\n    tag_172:\n      pop\n      jump\t// out\n        /* \"#utility.yul\":11807:12038   */\n    tag_177:\n        /* \"#utility.yul\":11947:11981   */\n      0x54686520616d6f756e74206f662045544820616e6420746f6b656e732073686f\n        /* \"#utility.yul\":11943:11944   */\n      0x00\n        /* \"#utility.yul\":11935:11941   */\n      dup3\n        /* \"#utility.yul\":11931:11945   */\n      add\n        /* \"#utility.yul\":11924:11982   */\n      mstore\n        /* \"#utility.yul\":12016:12030   */\n      0x756c6420626520657175616c0000000000000000000000000000000000000000\n        /* \"#utility.yul\":12011:12013   */\n      0x20\n        /* \"#utility.yul\":12003:12009   */\n      dup3\n        /* \"#utility.yul\":11999:12014   */\n      add\n        /* \"#utility.yul\":11992:12031   */\n      mstore\n        /* \"#utility.yul\":11807:12038   */\n      pop\n      jump\t// out\n        /* \"#utility.yul\":12044:12160   */\n    tag_111:\n        /* \"#utility.yul\":12114:12135   */\n      tag_233\n        /* \"#utility.yul\":12129:12134   */\n      dup2\n        /* \"#utility.yul\":12114:12135   */\n      tag_217\n      jump\t// in\n    tag_233:\n        /* \"#utility.yul\":12107:12112   */\n      dup2\n        /* \"#utility.yul\":12104:12136   */\n      eq\n        /* \"#utility.yul\":12094:12154   */\n      tag_234\n      jumpi\n        /* \"#utility.yul\":12150:12151   */\n      0x00\n        /* \"#utility.yul\":12147:12148   */\n      dup1\n        /* \"#utility.yul\":12140:12152   */\n      revert\n        /* \"#utility.yul\":12094:12154   */\n    tag_234:\n        /* \"#utility.yul\":12044:12160   */\n      pop\n      jump\t// out\n        /* \"#utility.yul\":12166:12288   */\n    tag_115:\n        /* \"#utility.yul\":12239:12263   */\n      tag_236\n        /* \"#utility.yul\":12257:12262   */\n      dup2\n        /* \"#utility.yul\":12239:12263   */\n      tag_181\n      jump\t// in\n    tag_236:\n        /* \"#utility.yul\":12232:12237   */\n      dup2\n        /* \"#utility.yul\":12229:12264   */\n      eq\n        /* \"#utility.yul\":12219:12282   */\n      tag_237\n      jumpi\n        /* \"#utility.yul\":12278:12279   */\n      0x00\n        /* \"#utility.yul\":12275:12276   */\n      dup1\n        /* \"#utility.yul\":12268:12280   */\n      revert\n        /* \"#utility.yul\":12219:12282   */\n    tag_237:\n        /* \"#utility.yul\":12166:12288   */\n      pop\n      jump\t// out\n\n    auxdata: 0xa2646970667358221220c7e7f09b8a3b05a14e1ee5e73fd60ddfaec26402adbb603ee2eef68d43dd02bc64736f6c63430008070033\n}\n",
				"bytecode": {
					"linkReferences": {},
					"object": "60806040523480156200001157600080fd5b506040516200107e3803806200107e833981810160405281019062000037919062000095565b806000806101000a81548173ffffffffffffffffffffffffffffffffffffffff021916908373ffffffffffffffffffffffffffffffffffffffff160217905550506200011a565b6000815190506200008f8162000100565b92915050565b600060208284031215620000ae57620000ad620000fb565b5b6000620000be848285016200007e565b91505092915050565b6000620000d482620000db565b9050919050565b600073ffffffffffffffffffffffffffffffffffffffff82169050919050565b600080fd5b6200010b81620000c7565b81146200011757600080fd5b50565b610f54806200012a6000396000f3fe60806040526004361061004a5760003560e01c80631aa5c70e1461004f5780638e3073a61461006b578063eb521a4c14610094578063f4325d67146100b0578063ff9b3758146100db575b600080fd5b610069600480360381019061006491906109ca565b610104565b005b34801561007757600080fd5b50610092600480360381019061008d91906109ca565b6101f7565b005b6100ae60048036038101906100a991906109ca565b610444565b005b3480156100bc57600080fd5b506100c5610614565b6040516100d29190610b6f565b60405180910390f35b3480156100e757600080fd5b5061010260048036038101906100fd91906109ca565b610638565b005b803414610146576040517f08c379a000000000000000000000000000000000000000000000000000000000815260040161013d90610c53565b60405180910390fd5b60008054906101000a900473ffffffffffffffffffffffffffffffffffffffff1673ffffffffffffffffffffffffffffffffffffffff1663a9059cbb33836040518363ffffffff1660e01b81526004016101a1929190610bea565b602060405180830381600087803b1580156101bb57600080fd5b505af11580156101cf573d6000803e3d6000fd5b505050506040513d601f19601f820116820180604052508101906101f3919061099d565b5050565b8060008054906101000a900473ffffffffffffffffffffffffffffffffffffffff1673ffffffffffffffffffffffffffffffffffffffff1663dd62ed3e33306040518363ffffffff1660e01b8152600401610253929190610b8a565b60206040518083038186803b15801561026b57600080fd5b505afa15801561027f573d6000803e3d6000fd5b505050506040513d601f19601f820116820180604052508101906102a391906109f7565b10156102e4576040517f08c379a00000000000000000000000000000000000000000000000000000000081526004016102db90610c73565b60405180910390fd5b60008054906101000a900473ffffffffffffffffffffffffffffffffffffffff1673ffffffffffffffffffffffffffffffffffffffff166323b872dd3330846040518463ffffffff1660e01b815260040161034193929190610bb3565b602060405180830381600087803b15801561035b57600080fd5b505af115801561036f573d6000803e3d6000fd5b505050506040513d601f19601f82011682018060405250810190610393919061099d565b5060003373ffffffffffffffffffffffffffffffffffffffff16826040516103ba90610b5a565b60006040518083038185875af1925050503d80600081146103f7576040519150601f19603f3d011682016040523d82523d6000602084013e6103fc565b606091505b5050905080610440576040517f08c379a000000000000000000000000000000000000000000000000000000000815260040161043790610c93565b60405180910390fd5b5050565b803414610486576040517f08c379a000000000000000000000000000000000000000000000000000000000815260040161047d90610cd3565b60405180910390fd5b60008054906101000a900473ffffffffffffffffffffffffffffffffffffffff1673ffffffffffffffffffffffffffffffffffffffff166323b872dd3330846040518463ffffffff1660e01b81526004016104e393929190610bb3565b602060405180830381600087803b1580156104fd57600080fd5b505af1158015610511573d6000803e3d6000fd5b505050506040513d601f19601f82011682018060405250810190610535919061099d565b5073f5e642e29d6516b2301dfa2db87a40b4204b8d6b73ffffffffffffffffffffffffffffffffffffffff1663a9059cbb33836040518363ffffffff1660e01b8152600401610585929190610bea565b602060405180830381600087803b15801561059f57600080fd5b505af11580156105b3573d6000803e3d6000fd5b505050506040513d601f19601f820116820180604052508101906105d7919061099d565b507fb62268a18d99fe191ac8e62f823ab1eec698609a81b2c8de3dac902896b09da63382604051610609929190610bea565b60405180910390a150565b60008054906101000a900473ffffffffffffffffffffffffffffffffffffffff1681565b6000811161067b576040517f08c379a000000000000000000000000000000000000000000000000000000000815260040161067290610c13565b60405180910390fd5b8073f5e642e29d6516b2301dfa2db87a40b4204b8d6b73ffffffffffffffffffffffffffffffffffffffff1663dd62ed3e33306040518363ffffffff1660e01b81526004016106cb929190610b8a565b60206040518083038186803b1580156106e357600080fd5b505afa1580156106f7573d6000803e3d6000fd5b505050506040513d601f19601f8201168201806040525081019061071b91906109f7565b101561075c576040517f08c379a000000000000000000000000000000000000000000000000000000000815260040161075390610cb3565b60405180910390fd5b73f5e642e29d6516b2301dfa2db87a40b4204b8d6b73ffffffffffffffffffffffffffffffffffffffff166323b872dd3330846040518463ffffffff1660e01b81526004016107ad93929190610bb3565b602060405180830381600087803b1580156107c757600080fd5b505af11580156107db573d6000803e3d6000fd5b505050506040513d601f19601f820116820180604052508101906107ff919061099d565b5060008054906101000a900473ffffffffffffffffffffffffffffffffffffffff1673ffffffffffffffffffffffffffffffffffffffff1663a9059cbb33836040518363ffffffff1660e01b815260040161085b929190610bea565b602060405180830381600087803b15801561087557600080fd5b505af1158015610889573d6000803e3d6000fd5b505050506040513d601f19601f820116820180604052508101906108ad919061099d565b5060003373ffffffffffffffffffffffffffffffffffffffff16826040516108d490610b5a565b60006040518083038185875af1925050503d8060008114610911576040519150601f19603f3d011682016040523d82523d6000602084013e610916565b606091505b505090508061095a576040517f08c379a000000000000000000000000000000000000000000000000000000000815260040161095190610c33565b60405180910390fd5b5050565b60008151905061096d81610ef0565b92915050565b60008135905061098281610f07565b92915050565b60008151905061099781610f07565b92915050565b6000602082840312156109b3576109b2610d57565b5b60006109c18482850161095e565b91505092915050565b6000602082840312156109e0576109df610d57565b5b60006109ee84828501610973565b91505092915050565b600060208284031215610a0d57610a0c610d57565b5b6000610a1b84828501610988565b91505092915050565b610a2d81610d0f565b82525050565b6000610a40601883610cfe565b9150610a4b82610d5c565b602082019050919050565b6000610a63600f83610cfe565b9150610a6e82610d85565b602082019050919050565b6000610a86600e83610cfe565b9150610a9182610dae565b602082019050919050565b6000610aa9601583610cfe565b9150610ab482610dd7565b602082019050919050565b6000610acc600f83610cfe565b9150610ad782610e00565b602082019050919050565b6000610aef604183610cfe565b9150610afa82610e29565b606082019050919050565b6000610b12600083610cf3565b9150610b1d82610e9e565b600082019050919050565b6000610b35602c83610cfe565b9150610b4082610ea1565b604082019050919050565b610b5481610d4d565b82525050565b6000610b6582610b05565b9150819050919050565b6000602082019050610b846000830184610a24565b92915050565b6000604082019050610b9f6000830185610a24565b610bac6020830184610a24565b9392505050565b6000606082019050610bc86000830186610a24565b610bd56020830185610a24565b610be26040830184610b4b565b949350505050565b6000604082019050610bff6000830185610a24565b610c0c6020830184610b4b565b9392505050565b60006020820190508181036000830152610c2c81610a33565b9050919050565b60006020820190508181036000830152610c4c81610a56565b9050919050565b60006020820190508181036000830152610c6c81610a79565b9050919050565b60006020820190508181036000830152610c8c81610a9c565b9050919050565b60006020820190508181036000830152610cac81610abf565b9050919050565b60006020820190508181036000830152610ccc81610ae2565b9050919050565b60006020820190508181036000830152610cec81610b28565b9050919050565b600081905092915050565b600082825260208201905092915050565b6000610d1a82610d2d565b9050919050565b60008115159050919050565b600073ffffffffffffffffffffffffffffffffffffffff82169050919050565b6000819050919050565b600080fd5b7f496e76616c696420616d6f756e74206f66207368617265730000000000000000600082015250565b7f5472616e73666572206661696c65640000000000000000000000000000000000600082015250565b7f496e76616c696420616d6f756e74000000000000000000000000000000000000600082015250565b7f436f6e7472616374206e6f7420617070726f7665640000000000000000000000600082015250565b7f5472616e73666572204661696c65640000000000000000000000000000000000600082015250565b7f506c6561736520617070726f76652074686520636f6e747261637420746f206460008201527f6564756374206c747220746f6b656e732066726f6d20796f75722077616c6c6560208201527f7400000000000000000000000000000000000000000000000000000000000000604082015250565b50565b7f54686520616d6f756e74206f662045544820616e6420746f6b656e732073686f60008201527f756c6420626520657175616c0000000000000000000000000000000000000000602082015250565b610ef981610d21565b8114610f0457600080fd5b50565b610f1081610d4d565b8114610f1b57600080fd5b5056fea2646970667358221220c7e7f09b8a3b05a14e1ee5e73fd60ddfaec26402adbb603ee2eef68d43dd02bc64736f6c63430008070033",
					"opcodes": "PUSH1 0x80 PUSH1 0x40 MSTORE CALLVALUE DUP1 ISZERO PUSH3 0x11 JUMPI PUSH1 0x0 DUP1 REVERT JUMPDEST POP PUSH1 0x40 MLOAD PUSH3 0x107E CODESIZE SUB DUP1 PUSH3 0x107E DUP4 CODECOPY DUP2 DUP2 ADD PUSH1 0x40 MSTORE DUP2 ADD SWAP1 PUSH3 0x37 SWAP2 SWAP1 PUSH3 0x95 JUMP JUMPDEST DUP1 PUSH1 0x0 DUP1 PUSH2 0x100 EXP DUP2 SLOAD DUP2 PUSH20 0xFFFFFFFFFFFFFFFFFFFFFFFFFFFFFFFFFFFFFFFF MUL NOT AND SWAP1 DUP4 PUSH20 0xFFFFFFFFFFFFFFFFFFFFFFFFFFFFFFFFFFFFFFFF AND MUL OR SWAP1 SSTORE POP POP PUSH3 0x11A JUMP JUMPDEST PUSH1 0x0 DUP2 MLOAD SWAP1 POP PUSH3 0x8F DUP2 PUSH3 0x100 JUMP JUMPDEST SWAP3 SWAP2 POP POP JUMP JUMPDEST PUSH1 0x0 PUSH1 0x20 DUP3 DUP5 SUB SLT ISZERO PUSH3 0xAE JUMPI PUSH3 0xAD PUSH3 0xFB JUMP JUMPDEST JUMPDEST PUSH1 0x0 PUSH3 0xBE DUP5 DUP3 DUP6 ADD PUSH3 0x7E JUMP JUMPDEST SWAP2 POP POP SWAP3 SWAP2 POP POP JUMP JUMPDEST PUSH1 0x0 PUSH3 0xD4 DUP3 PUSH3 0xDB JUMP JUMPDEST SWAP1 POP SWAP2 SWAP1 POP JUMP JUMPDEST PUSH1 0x0 PUSH20 0xFFFFFFFFFFFFFFFFFFFFFFFFFFFFFFFFFFFFFFFF DUP3 AND SWAP1 POP SWAP2 SWAP1 POP JUMP JUMPDEST PUSH1 0x0 DUP1 REVERT JUMPDEST PUSH3 0x10B DUP2 PUSH3 0xC7 JUMP JUMPDEST DUP2 EQ PUSH3 0x117 JUMPI PUSH1 0x0 DUP1 REVERT JUMPDEST POP JUMP JUMPDEST PUSH2 0xF54 DUP1 PUSH3 0x12A PUSH1 0x0 CODECOPY PUSH1 0x0 RETURN INVALID PUSH1 0x80 PUSH1 0x40 MSTORE PUSH1 0x4 CALLDATASIZE LT PUSH2 0x4A JUMPI PUSH1 0x0 CALLDATALOAD PUSH1 0xE0 SHR DUP1 PUSH4 0x1AA5C70E EQ PUSH2 0x4F JUMPI DUP1 PUSH4 0x8E3073A6 EQ PUSH2 0x6B JUMPI DUP1 PUSH4 0xEB521A4C EQ PUSH2 0x94 JUMPI DUP1 PUSH4 0xF4325D67 EQ PUSH2 0xB0 JUMPI DUP1 PUSH4 0xFF9B3758 EQ PUSH2 0xDB JUMPI JUMPDEST PUSH1 0x0 DUP1 REVERT JUMPDEST PUSH2 0x69 PUSH1 0x4 DUP1 CALLDATASIZE SUB DUP2 ADD SWAP1 PUSH2 0x64 SWAP2 SWAP1 PUSH2 0x9CA JUMP JUMPDEST PUSH2 0x104 JUMP JUMPDEST STOP JUMPDEST CALLVALUE DUP1 ISZERO PUSH2 0x77 JUMPI PUSH1 0x0 DUP1 REVERT JUMPDEST POP PUSH2 0x92 PUSH1 0x4 DUP1 CALLDATASIZE SUB DUP2 ADD SWAP1 PUSH2 0x8D SWAP2 SWAP1 PUSH2 0x9CA JUMP JUMPDEST PUSH2 0x1F7 JUMP JUMPDEST STOP JUMPDEST PUSH2 0xAE PUSH1 0x4 DUP1 CALLDATASIZE SUB DUP2 ADD SWAP1 PUSH2 0xA9 SWAP2 SWAP1 PUSH2 0x9CA JUMP JUMPDEST PUSH2 0x444 JUMP JUMPDEST STOP JUMPDEST CALLVALUE DUP1 ISZERO PUSH2 0xBC JUMPI PUSH1 0x0 DUP1 REVERT JUMPDEST POP PUSH2 0xC5 PUSH2 0x614 JUMP JUMPDEST PUSH1 0x40 MLOAD PUSH2 0xD2 SWAP2 SWAP1 PUSH2 0xB6F JUMP JUMPDEST PUSH1 0x40 MLOAD DUP1 SWAP2 SUB SWAP1 RETURN JUMPDEST CALLVALUE DUP1 ISZERO PUSH2 0xE7 JUMPI PUSH1 0x0 DUP1 REVERT JUMPDEST POP PUSH2 0x102 PUSH1 0x4 DUP1 CALLDATASIZE SUB DUP2 ADD SWAP1 PUSH2 0xFD SWAP2 SWAP1 PUSH2 0x9CA JUMP JUMPDEST PUSH2 0x638 JUMP JUMPDEST STOP JUMPDEST DUP1 CALLVALUE EQ PUSH2 0x146 JUMPI PUSH1 0x40 MLOAD PUSH32 0x8C379A000000000000000000000000000000000000000000000000000000000 DUP2 MSTORE PUSH1 0x4 ADD PUSH2 0x13D SWAP1 PUSH2 0xC53 JUMP JUMPDEST PUSH1 0x40 MLOAD DUP1 SWAP2 SUB SWAP1 REVERT JUMPDEST PUSH1 0x0 DUP1 SLOAD SWAP1 PUSH2 0x100 EXP SWAP1 DIV PUSH20 0xFFFFFFFFFFFFFFFFFFFFFFFFFFFFFFFFFFFFFFFF AND PUSH20 0xFFFFFFFFFFFFFFFFFFFFFFFFFFFFFFFFFFFFFFFF AND PUSH4 0xA9059CBB CALLER DUP4 PUSH1 0x40 MLOAD DUP4 PUSH4 0xFFFFFFFF AND PUSH1 0xE0 SHL DUP2 MSTORE PUSH1 0x4 ADD PUSH2 0x1A1 SWAP3 SWAP2 SWAP1 PUSH2 0xBEA JUMP JUMPDEST PUSH1 0x20 PUSH1 0x40 MLOAD DUP1 DUP4 SUB DUP2 PUSH1 0x0 DUP8 DUP1 EXTCODESIZE ISZERO DUP1 ISZERO PUSH2 0x1BB JUMPI PUSH1 0x0 DUP1 REVERT JUMPDEST POP GAS CALL ISZERO DUP1 ISZERO PUSH2 0x1CF JUMPI RETURNDATASIZE PUSH1 0x0 DUP1 RETURNDATACOPY RETURNDATASIZE PUSH1 0x0 REVERT JUMPDEST POP POP POP POP PUSH1 0x40 MLOAD RETURNDATASIZE PUSH1 0x1F NOT PUSH1 0x1F DUP3 ADD AND DUP3 ADD DUP1 PUSH1 0x40 MSTORE POP DUP2 ADD SWAP1 PUSH2 0x1F3 SWAP2 SWAP1 PUSH2 0x99D JUMP JUMPDEST POP POP JUMP JUMPDEST DUP1 PUSH1 0x0 DUP1 SLOAD SWAP1 PUSH2 0x100 EXP SWAP1 DIV PUSH20 0xFFFFFFFFFFFFFFFFFFFFFFFFFFFFFFFFFFFFFFFF AND PUSH20 0xFFFFFFFFFFFFFFFFFFFFFFFFFFFFFFFFFFFFFFFF AND PUSH4 0xDD62ED3E CALLER ADDRESS PUSH1 0x40 MLOAD DUP4 PUSH4 0xFFFFFFFF AND PUSH1 0xE0 SHL DUP2 MSTORE PUSH1 0x4 ADD PUSH2 0x253 SWAP3 SWAP2 SWAP1 PUSH2 0xB8A JUMP JUMPDEST PUSH1 0x20 PUSH1 0x40 MLOAD DUP1 DUP4 SUB DUP2 DUP7 DUP1 EXTCODESIZE ISZERO DUP1 ISZERO PUSH2 0x26B JUMPI PUSH1 0x0 DUP1 REVERT JUMPDEST POP GAS STATICCALL ISZERO DUP1 ISZERO PUSH2 0x27F JUMPI RETURNDATASIZE PUSH1 0x0 DUP1 RETURNDATACOPY RETURNDATASIZE PUSH1 0x0 REVERT JUMPDEST POP POP POP POP PUSH1 0x40 MLOAD RETURNDATASIZE PUSH1 0x1F NOT PUSH1 0x1F DUP3 ADD AND DUP3 ADD DUP1 PUSH1 0x40 MSTORE POP DUP2 ADD SWAP1 PUSH2 0x2A3 SWAP2 SWAP1 PUSH2 0x9F7 JUMP JUMPDEST LT ISZERO PUSH2 0x2E4 JUMPI PUSH1 0x40 MLOAD PUSH32 0x8C379A000000000000000000000000000000000000000000000000000000000 DUP2 MSTORE PUSH1 0x4 ADD PUSH2 0x2DB SWAP1 PUSH2 0xC73 JUMP JUMPDEST PUSH1 0x40 MLOAD DUP1 SWAP2 SUB SWAP1 REVERT JUMPDEST PUSH1 0x0 DUP1 SLOAD SWAP1 PUSH2 0x100 EXP SWAP1 DIV PUSH20 0xFFFFFFFFFFFFFFFFFFFFFFFFFFFFFFFFFFFFFFFF AND PUSH20 0xFFFFFFFFFFFFFFFFFFFFFFFFFFFFFFFFFFFFFFFF AND PUSH4 0x23B872DD CALLER ADDRESS DUP5 PUSH1 0x40 MLOAD DUP5 PUSH4 0xFFFFFFFF AND PUSH1 0xE0 SHL DUP2 MSTORE PUSH1 0x4 ADD PUSH2 0x341 SWAP4 SWAP3 SWAP2 SWAP1 PUSH2 0xBB3 JUMP JUMPDEST PUSH1 0x20 PUSH1 0x40 MLOAD DUP1 DUP4 SUB DUP2 PUSH1 0x0 DUP8 DUP1 EXTCODESIZE ISZERO DUP1 ISZERO PUSH2 0x35B JUMPI PUSH1 0x0 DUP1 REVERT JUMPDEST POP GAS CALL ISZERO DUP1 ISZERO PUSH2 0x36F JUMPI RETURNDATASIZE PUSH1 0x0 DUP1 RETURNDATACOPY RETURNDATASIZE PUSH1 0x0 REVERT JUMPDEST POP POP POP POP PUSH1 0x40 MLOAD RETURNDATASIZE PUSH1 0x1F NOT PUSH1 0x1F DUP3 ADD AND DUP3 ADD DUP1 PUSH1 0x40 MSTORE POP DUP2 ADD SWAP1 PUSH2 0x393 SWAP2 SWAP1 PUSH2 0x99D JUMP JUMPDEST POP PUSH1 0x0 CALLER PUSH20 0xFFFFFFFFFFFFFFFFFFFFFFFFFFFFFFFFFFFFFFFF AND DUP3 PUSH1 0x40 MLOAD PUSH2 0x3BA SWAP1 PUSH2 0xB5A JUMP JUMPDEST PUSH1 0x0 PUSH1 0x40 MLOAD DUP1 DUP4 SUB DUP2 DUP6 DUP8 GAS CALL SWAP3 POP POP POP RETURNDATASIZE DUP1 PUSH1 0x0 DUP2 EQ PUSH2 0x3F7 JUMPI PUSH1 0x40 MLOAD SWAP2 POP PUSH1 0x1F NOT PUSH1 0x3F RETURNDATASIZE ADD AND DUP3 ADD PUSH1 0x40 MSTORE RETURNDATASIZE DUP3 MSTORE RETURNDATASIZE PUSH1 0x0 PUSH1 0x20 DUP5 ADD RETURNDATACOPY PUSH2 0x3FC JUMP JUMPDEST PUSH1 0x60 SWAP2 POP JUMPDEST POP POP SWAP1 POP DUP1 PUSH2 0x440 JUMPI PUSH1 0x40 MLOAD PUSH32 0x8C379A000000000000000000000000000000000000000000000000000000000 DUP2 MSTORE PUSH1 0x4 ADD PUSH2 0x437 SWAP1 PUSH2 0xC93 JUMP JUMPDEST PUSH1 0x40 MLOAD DUP1 SWAP2 SUB SWAP1 REVERT JUMPDEST POP POP JUMP JUMPDEST DUP1 CALLVALUE EQ PUSH2 0x486 JUMPI PUSH1 0x40 MLOAD PUSH32 0x8C379A000000000000000000000000000000000000000000000000000000000 DUP2 MSTORE PUSH1 0x4 ADD PUSH2 0x47D SWAP1 PUSH2 0xCD3 JUMP JUMPDEST PUSH1 0x40 MLOAD DUP1 SWAP2 SUB SWAP1 REVERT JUMPDEST PUSH1 0x0 DUP1 SLOAD SWAP1 PUSH2 0x100 EXP SWAP1 DIV PUSH20 0xFFFFFFFFFFFFFFFFFFFFFFFFFFFFFFFFFFFFFFFF AND PUSH20 0xFFFFFFFFFFFFFFFFFFFFFFFFFFFFFFFFFFFFFFFF AND PUSH4 0x23B872DD CALLER ADDRESS DUP5 PUSH1 0x40 MLOAD DUP5 PUSH4 0xFFFFFFFF AND PUSH1 0xE0 SHL DUP2 MSTORE PUSH1 0x4 ADD PUSH2 0x4E3 SWAP4 SWAP3 SWAP2 SWAP1 PUSH2 0xBB3 JUMP JUMPDEST PUSH1 0x20 PUSH1 0x40 MLOAD DUP1 DUP4 SUB DUP2 PUSH1 0x0 DUP8 DUP1 EXTCODESIZE ISZERO DUP1 ISZERO PUSH2 0x4FD JUMPI PUSH1 0x0 DUP1 REVERT JUMPDEST POP GAS CALL ISZERO DUP1 ISZERO PUSH2 0x511 JUMPI RETURNDATASIZE PUSH1 0x0 DUP1 RETURNDATACOPY RETURNDATASIZE PUSH1 0x0 REVERT JUMPDEST POP POP POP POP PUSH1 0x40 MLOAD RETURNDATASIZE PUSH1 0x1F NOT PUSH1 0x1F DUP3 ADD AND DUP3 ADD DUP1 PUSH1 0x40 MSTORE POP DUP2 ADD SWAP1 PUSH2 0x535 SWAP2 SWAP1 PUSH2 0x99D JUMP JUMPDEST POP PUSH20 0xF5E642E29D6516B2301DFA2DB87A40B4204B8D6B PUSH20 0xFFFFFFFFFFFFFFFFFFFFFFFFFFFFFFFFFFFFFFFF AND PUSH4 0xA9059CBB CALLER DUP4 PUSH1 0x40 MLOAD DUP4 PUSH4 0xFFFFFFFF AND PUSH1 0xE0 SHL DUP2 MSTORE PUSH1 0x4 ADD PUSH2 0x585 SWAP3 SWAP2 SWAP1 PUSH2 0xBEA JUMP JUMPDEST PUSH1 0x20 PUSH1 0x40 MLOAD DUP1 DUP4 SUB DUP2 PUSH1 0x0 DUP8 DUP1 EXTCODESIZE ISZERO DUP1 ISZERO PUSH2 0x59F JUMPI PUSH1 0x0 DUP1 REVERT JUMPDEST POP GAS CALL ISZERO DUP1 ISZERO PUSH2 0x5B3 JUMPI RETURNDATASIZE PUSH1 0x0 DUP1 RETURNDATACOPY RETURNDATASIZE PUSH1 0x0 REVERT JUMPDEST POP POP POP POP PUSH1 0x40 MLOAD RETURNDATASIZE PUSH1 0x1F NOT PUSH1 0x1F DUP3 ADD AND DUP3 ADD DUP1 PUSH1 0x40 MSTORE POP DUP2 ADD SWAP1 PUSH2 0x5D7 SWAP2 SWAP1 PUSH2 0x99D JUMP JUMPDEST POP PUSH32 0xB62268A18D99FE191AC8E62F823AB1EEC698609A81B2C8DE3DAC902896B09DA6 CALLER DUP3 PUSH1 0x40 MLOAD PUSH2 0x609 SWAP3 SWAP2 SWAP1 PUSH2 0xBEA JUMP JUMPDEST PUSH1 0x40 MLOAD DUP1 SWAP2 SUB SWAP1 LOG1 POP JUMP JUMPDEST PUSH1 0x0 DUP1 SLOAD SWAP1 PUSH2 0x100 EXP SWAP1 DIV PUSH20 0xFFFFFFFFFFFFFFFFFFFFFFFFFFFFFFFFFFFFFFFF AND DUP2 JUMP JUMPDEST PUSH1 0x0 DUP2 GT PUSH2 0x67B JUMPI PUSH1 0x40 MLOAD PUSH32 0x8C379A000000000000000000000000000000000000000000000000000000000 DUP2 MSTORE PUSH1 0x4 ADD PUSH2 0x672 SWAP1 PUSH2 0xC13 JUMP JUMPDEST PUSH1 0x40 MLOAD DUP1 SWAP2 SUB SWAP1 REVERT JUMPDEST DUP1 PUSH20 0xF5E642E29D6516B2301DFA2DB87A40B4204B8D6B PUSH20 0xFFFFFFFFFFFFFFFFFFFFFFFFFFFFFFFFFFFFFFFF AND PUSH4 0xDD62ED3E CALLER ADDRESS PUSH1 0x40 MLOAD DUP4 PUSH4 0xFFFFFFFF AND PUSH1 0xE0 SHL DUP2 MSTORE PUSH1 0x4 ADD PUSH2 0x6CB SWAP3 SWAP2 SWAP1 PUSH2 0xB8A JUMP JUMPDEST PUSH1 0x20 PUSH1 0x40 MLOAD DUP1 DUP4 SUB DUP2 DUP7 DUP1 EXTCODESIZE ISZERO DUP1 ISZERO PUSH2 0x6E3 JUMPI PUSH1 0x0 DUP1 REVERT JUMPDEST POP GAS STATICCALL ISZERO DUP1 ISZERO PUSH2 0x6F7 JUMPI RETURNDATASIZE PUSH1 0x0 DUP1 RETURNDATACOPY RETURNDATASIZE PUSH1 0x0 REVERT JUMPDEST POP POP POP POP PUSH1 0x40 MLOAD RETURNDATASIZE PUSH1 0x1F NOT PUSH1 0x1F DUP3 ADD AND DUP3 ADD DUP1 PUSH1 0x40 MSTORE POP DUP2 ADD SWAP1 PUSH2 0x71B SWAP2 SWAP1 PUSH2 0x9F7 JUMP JUMPDEST LT ISZERO PUSH2 0x75C JUMPI PUSH1 0x40 MLOAD PUSH32 0x8C379A000000000000000000000000000000000000000000000000000000000 DUP2 MSTORE PUSH1 0x4 ADD PUSH2 0x753 SWAP1 PUSH2 0xCB3 JUMP JUMPDEST PUSH1 0x40 MLOAD DUP1 SWAP2 SUB SWAP1 REVERT JUMPDEST PUSH20 0xF5E642E29D6516B2301DFA2DB87A40B4204B8D6B PUSH20 0xFFFFFFFFFFFFFFFFFFFFFFFFFFFFFFFFFFFFFFFF AND PUSH4 0x23B872DD CALLER ADDRESS DUP5 PUSH1 0x40 MLOAD DUP5 PUSH4 0xFFFFFFFF AND PUSH1 0xE0 SHL DUP2 MSTORE PUSH1 0x4 ADD PUSH2 0x7AD SWAP4 SWAP3 SWAP2 SWAP1 PUSH2 0xBB3 JUMP JUMPDEST PUSH1 0x20 PUSH1 0x40 MLOAD DUP1 DUP4 SUB DUP2 PUSH1 0x0 DUP8 DUP1 EXTCODESIZE ISZERO DUP1 ISZERO PUSH2 0x7C7 JUMPI PUSH1 0x0 DUP1 REVERT JUMPDEST POP GAS CALL ISZERO DUP1 ISZERO PUSH2 0x7DB JUMPI RETURNDATASIZE PUSH1 0x0 DUP1 RETURNDATACOPY RETURNDATASIZE PUSH1 0x0 REVERT JUMPDEST POP POP POP POP PUSH1 0x40 MLOAD RETURNDATASIZE PUSH1 0x1F NOT PUSH1 0x1F DUP3 ADD AND DUP3 ADD DUP1 PUSH1 0x40 MSTORE POP DUP2 ADD SWAP1 PUSH2 0x7FF SWAP2 SWAP1 PUSH2 0x99D JUMP JUMPDEST POP PUSH1 0x0 DUP1 SLOAD SWAP1 PUSH2 0x100 EXP SWAP1 DIV PUSH20 0xFFFFFFFFFFFFFFFFFFFFFFFFFFFFFFFFFFFFFFFF AND PUSH20 0xFFFFFFFFFFFFFFFFFFFFFFFFFFFFFFFFFFFFFFFF AND PUSH4 0xA9059CBB CALLER DUP4 PUSH1 0x40 MLOAD DUP4 PUSH4 0xFFFFFFFF AND PUSH1 0xE0 SHL DUP2 MSTORE PUSH1 0x4 ADD PUSH2 0x85B SWAP3 SWAP2 SWAP1 PUSH2 0xBEA JUMP JUMPDEST PUSH1 0x20 PUSH1 0x40 MLOAD DUP1 DUP4 SUB DUP2 PUSH1 0x0 DUP8 DUP1 EXTCODESIZE ISZERO DUP1 ISZERO PUSH2 0x875 JUMPI PUSH1 0x0 DUP1 REVERT JUMPDEST POP GAS CALL ISZERO DUP1 ISZERO PUSH2 0x889 JUMPI RETURNDATASIZE PUSH1 0x0 DUP1 RETURNDATACOPY RETURNDATASIZE PUSH1 0x0 REVERT JUMPDEST POP POP POP POP PUSH1 0x40 MLOAD RETURNDATASIZE PUSH1 0x1F NOT PUSH1 0x1F DUP3 ADD AND DUP3 ADD DUP1 PUSH1 0x40 MSTORE POP DUP2 ADD SWAP1 PUSH2 0x8AD SWAP2 SWAP1 PUSH2 0x99D JUMP JUMPDEST POP PUSH1 0x0 CALLER PUSH20 0xFFFFFFFFFFFFFFFFFFFFFFFFFFFFFFFFFFFFFFFF AND DUP3 PUSH1 0x40 MLOAD PUSH2 0x8D4 SWAP1 PUSH2 0xB5A JUMP JUMPDEST PUSH1 0x0 PUSH1 0x40 MLOAD DUP1 DUP4 SUB DUP2 DUP6 DUP8 GAS CALL SWAP3 POP POP POP RETURNDATASIZE DUP1 PUSH1 0x0 DUP2 EQ PUSH2 0x911 JUMPI PUSH1 0x40 MLOAD SWAP2 POP PUSH1 0x1F NOT PUSH1 0x3F RETURNDATASIZE ADD AND DUP3 ADD PUSH1 0x40 MSTORE RETURNDATASIZE DUP3 MSTORE RETURNDATASIZE PUSH1 0x0 PUSH1 0x20 DUP5 ADD RETURNDATACOPY PUSH2 0x916 JUMP JUMPDEST PUSH1 0x60 SWAP2 POP JUMPDEST POP POP SWAP1 POP DUP1 PUSH2 0x95A JUMPI PUSH1 0x40 MLOAD PUSH32 0x8C379A000000000000000000000000000000000000000000000000000000000 DUP2 MSTORE PUSH1 0x4 ADD PUSH2 0x951 SWAP1 PUSH2 0xC33 JUMP JUMPDEST PUSH1 0x40 MLOAD DUP1 SWAP2 SUB SWAP1 REVERT JUMPDEST POP POP JUMP JUMPDEST PUSH1 0x0 DUP2 MLOAD SWAP1 POP PUSH2 0x96D DUP2 PUSH2 0xEF0 JUMP JUMPDEST SWAP3 SWAP2 POP POP JUMP JUMPDEST PUSH1 0x0 DUP2 CALLDATALOAD SWAP1 POP PUSH2 0x982 DUP2 PUSH2 0xF07 JUMP JUMPDEST SWAP3 SWAP2 POP POP JUMP JUMPDEST PUSH1 0x0 DUP2 MLOAD SWAP1 POP PUSH2 0x997 DUP2 PUSH2 0xF07 JUMP JUMPDEST SWAP3 SWAP2 POP POP JUMP JUMPDEST PUSH1 0x0 PUSH1 0x20 DUP3 DUP5 SUB SLT ISZERO PUSH2 0x9B3 JUMPI PUSH2 0x9B2 PUSH2 0xD57 JUMP JUMPDEST JUMPDEST PUSH1 0x0 PUSH2 0x9C1 DUP5 DUP3 DUP6 ADD PUSH2 0x95E JUMP JUMPDEST SWAP2 POP POP SWAP3 SWAP2 POP POP JUMP JUMPDEST PUSH1 0x0 PUSH1 0x20 DUP3 DUP5 SUB SLT ISZERO PUSH2 0x9E0 JUMPI PUSH2 0x9DF PUSH2 0xD57 JUMP JUMPDEST JUMPDEST PUSH1 0x0 PUSH2 0x9EE DUP5 DUP3 DUP6 ADD PUSH2 0x973 JUMP JUMPDEST SWAP2 POP POP SWAP3 SWAP2 POP POP JUMP JUMPDEST PUSH1 0x0 PUSH1 0x20 DUP3 DUP5 SUB SLT ISZERO PUSH2 0xA0D JUMPI PUSH2 0xA0C PUSH2 0xD57 JUMP JUMPDEST JUMPDEST PUSH1 0x0 PUSH2 0xA1B DUP5 DUP3 DUP6 ADD PUSH2 0x988 JUMP JUMPDEST SWAP2 POP POP SWAP3 SWAP2 POP POP JUMP JUMPDEST PUSH2 0xA2D DUP2 PUSH2 0xD0F JUMP JUMPDEST DUP3 MSTORE POP POP JUMP JUMPDEST PUSH1 0x0 PUSH2 0xA40 PUSH1 0x18 DUP4 PUSH2 0xCFE JUMP JUMPDEST SWAP2 POP PUSH2 0xA4B DUP3 PUSH2 0xD5C JUMP JUMPDEST PUSH1 0x20 DUP3 ADD SWAP1 POP SWAP2 SWAP1 POP JUMP JUMPDEST PUSH1 0x0 PUSH2 0xA63 PUSH1 0xF DUP4 PUSH2 0xCFE JUMP JUMPDEST SWAP2 POP PUSH2 0xA6E DUP3 PUSH2 0xD85 JUMP JUMPDEST PUSH1 0x20 DUP3 ADD SWAP1 POP SWAP2 SWAP1 POP JUMP JUMPDEST PUSH1 0x0 PUSH2 0xA86 PUSH1 0xE DUP4 PUSH2 0xCFE JUMP JUMPDEST SWAP2 POP PUSH2 0xA91 DUP3 PUSH2 0xDAE JUMP JUMPDEST PUSH1 0x20 DUP3 ADD SWAP1 POP SWAP2 SWAP1 POP JUMP JUMPDEST PUSH1 0x0 PUSH2 0xAA9 PUSH1 0x15 DUP4 PUSH2 0xCFE JUMP JUMPDEST SWAP2 POP PUSH2 0xAB4 DUP3 PUSH2 0xDD7 JUMP JUMPDEST PUSH1 0x20 DUP3 ADD SWAP1 POP SWAP2 SWAP1 POP JUMP JUMPDEST PUSH1 0x0 PUSH2 0xACC PUSH1 0xF DUP4 PUSH2 0xCFE JUMP JUMPDEST SWAP2 POP PUSH2 0xAD7 DUP3 PUSH2 0xE00 JUMP JUMPDEST PUSH1 0x20 DUP3 ADD SWAP1 POP SWAP2 SWAP1 POP JUMP JUMPDEST PUSH1 0x0 PUSH2 0xAEF PUSH1 0x41 DUP4 PUSH2 0xCFE JUMP JUMPDEST SWAP2 POP PUSH2 0xAFA DUP3 PUSH2 0xE29 JUMP JUMPDEST PUSH1 0x60 DUP3 ADD SWAP1 POP SWAP2 SWAP1 POP JUMP JUMPDEST PUSH1 0x0 PUSH2 0xB12 PUSH1 0x0 DUP4 PUSH2 0xCF3 JUMP JUMPDEST SWAP2 POP PUSH2 0xB1D DUP3 PUSH2 0xE9E JUMP JUMPDEST PUSH1 0x0 DUP3 ADD SWAP1 POP SWAP2 SWAP1 POP JUMP JUMPDEST PUSH1 0x0 PUSH2 0xB35 PUSH1 0x2C DUP4 PUSH2 0xCFE JUMP JUMPDEST SWAP2 POP PUSH2 0xB40 DUP3 PUSH2 0xEA1 JUMP JUMPDEST PUSH1 0x40 DUP3 ADD SWAP1 POP SWAP2 SWAP1 POP JUMP JUMPDEST PUSH2 0xB54 DUP2 PUSH2 0xD4D JUMP JUMPDEST DUP3 MSTORE POP POP JUMP JUMPDEST PUSH1 0x0 PUSH2 0xB65 DUP3 PUSH2 0xB05 JUMP JUMPDEST SWAP2 POP DUP2 SWAP1 POP SWAP2 SWAP1 POP JUMP JUMPDEST PUSH1 0x0 PUSH1 0x20 DUP3 ADD SWAP1 POP PUSH2 0xB84 PUSH1 0x0 DUP4 ADD DUP5 PUSH2 0xA24 JUMP JUMPDEST SWAP3 SWAP2 POP POP JUMP JUMPDEST PUSH1 0x0 PUSH1 0x40 DUP3 ADD SWAP1 POP PUSH2 0xB9F PUSH1 0x0 DUP4 ADD DUP6 PUSH2 0xA24 JUMP JUMPDEST PUSH2 0xBAC PUSH1 0x20 DUP4 ADD DUP5 PUSH2 0xA24 JUMP JUMPDEST SWAP4 SWAP3 POP POP POP JUMP JUMPDEST PUSH1 0x0 PUSH1 0x60 DUP3 ADD SWAP1 POP PUSH2 0xBC8 PUSH1 0x0 DUP4 ADD DUP7 PUSH2 0xA24 JUMP JUMPDEST PUSH2 0xBD5 PUSH1 0x20 DUP4 ADD DUP6 PUSH2 0xA24 JUMP JUMPDEST PUSH2 0xBE2 PUSH1 0x40 DUP4 ADD DUP5 PUSH2 0xB4B JUMP JUMPDEST SWAP5 SWAP4 POP POP POP POP JUMP JUMPDEST PUSH1 0x0 PUSH1 0x40 DUP3 ADD SWAP1 POP PUSH2 0xBFF PUSH1 0x0 DUP4 ADD DUP6 PUSH2 0xA24 JUMP JUMPDEST PUSH2 0xC0C PUSH1 0x20 DUP4 ADD DUP5 PUSH2 0xB4B JUMP JUMPDEST SWAP4 SWAP3 POP POP POP JUMP JUMPDEST PUSH1 0x0 PUSH1 0x20 DUP3 ADD SWAP1 POP DUP2 DUP2 SUB PUSH1 0x0 DUP4 ADD MSTORE PUSH2 0xC2C DUP2 PUSH2 0xA33 JUMP JUMPDEST SWAP1 POP SWAP2 SWAP1 POP JUMP JUMPDEST PUSH1 0x0 PUSH1 0x20 DUP3 ADD SWAP1 POP DUP2 DUP2 SUB PUSH1 0x0 DUP4 ADD MSTORE PUSH2 0xC4C DUP2 PUSH2 0xA56 JUMP JUMPDEST SWAP1 POP SWAP2 SWAP1 POP JUMP JUMPDEST PUSH1 0x0 PUSH1 0x20 DUP3 ADD SWAP1 POP DUP2 DUP2 SUB PUSH1 0x0 DUP4 ADD MSTORE PUSH2 0xC6C DUP2 PUSH2 0xA79 JUMP JUMPDEST SWAP1 POP SWAP2 SWAP1 POP JUMP JUMPDEST PUSH1 0x0 PUSH1 0x20 DUP3 ADD SWAP1 POP DUP2 DUP2 SUB PUSH1 0x0 DUP4 ADD MSTORE PUSH2 0xC8C DUP2 PUSH2 0xA9C JUMP JUMPDEST SWAP1 POP SWAP2 SWAP1 POP JUMP JUMPDEST PUSH1 0x0 PUSH1 0x20 DUP3 ADD SWAP1 POP DUP2 DUP2 SUB PUSH1 0x0 DUP4 ADD MSTORE PUSH2 0xCAC DUP2 PUSH2 0xABF JUMP JUMPDEST SWAP1 POP SWAP2 SWAP1 POP JUMP JUMPDEST PUSH1 0x0 PUSH1 0x20 DUP3 ADD SWAP1 POP DUP2 DUP2 SUB PUSH1 0x0 DUP4 ADD MSTORE PUSH2 0xCCC DUP2 PUSH2 0xAE2 JUMP JUMPDEST SWAP1 POP SWAP2 SWAP1 POP JUMP JUMPDEST PUSH1 0x0 PUSH1 0x20 DUP3 ADD SWAP1 POP DUP2 DUP2 SUB PUSH1 0x0 DUP4 ADD MSTORE PUSH2 0xCEC DUP2 PUSH2 0xB28 JUMP JUMPDEST SWAP1 POP SWAP2 SWAP1 POP JUMP JUMPDEST PUSH1 0x0 DUP2 SWAP1 POP SWAP3 SWAP2 POP POP JUMP JUMPDEST PUSH1 0x0 DUP3 DUP3 MSTORE PUSH1 0x20 DUP3 ADD SWAP1 POP SWAP3 SWAP2 POP POP JUMP JUMPDEST PUSH1 0x0 PUSH2 0xD1A DUP3 PUSH2 0xD2D JUMP JUMPDEST SWAP1 POP SWAP2 SWAP1 POP JUMP JUMPDEST PUSH1 0x0 DUP2 ISZERO ISZERO SWAP1 POP SWAP2 SWAP1 POP JUMP JUMPDEST PUSH1 0x0 PUSH20 0xFFFFFFFFFFFFFFFFFFFFFFFFFFFFFFFFFFFFFFFF DUP3 AND SWAP1 POP SWAP2 SWAP1 POP JUMP JUMPDEST PUSH1 0x0 DUP2 SWAP1 POP SWAP2 SWAP1 POP JUMP JUMPDEST PUSH1 0x0 DUP1 REVERT JUMPDEST PUSH32 0x496E76616C696420616D6F756E74206F66207368617265730000000000000000 PUSH1 0x0 DUP3 ADD MSTORE POP JUMP JUMPDEST PUSH32 0x5472616E73666572206661696C65640000000000000000000000000000000000 PUSH1 0x0 DUP3 ADD MSTORE POP JUMP JUMPDEST PUSH32 0x496E76616C696420616D6F756E74000000000000000000000000000000000000 PUSH1 0x0 DUP3 ADD MSTORE POP JUMP JUMPDEST PUSH32 0x436F6E7472616374206E6F7420617070726F7665640000000000000000000000 PUSH1 0x0 DUP3 ADD MSTORE POP JUMP JUMPDEST PUSH32 0x5472616E73666572204661696C65640000000000000000000000000000000000 PUSH1 0x0 DUP3 ADD MSTORE POP JUMP JUMPDEST PUSH32 0x506C6561736520617070726F76652074686520636F6E747261637420746F2064 PUSH1 0x0 DUP3 ADD MSTORE PUSH32 0x6564756374206C747220746F6B656E732066726F6D20796F75722077616C6C65 PUSH1 0x20 DUP3 ADD MSTORE PUSH32 0x7400000000000000000000000000000000000000000000000000000000000000 PUSH1 0x40 DUP3 ADD MSTORE POP JUMP JUMPDEST POP JUMP JUMPDEST PUSH32 0x54686520616D6F756E74206F662045544820616E6420746F6B656E732073686F PUSH1 0x0 DUP3 ADD MSTORE PUSH32 0x756C6420626520657175616C0000000000000000000000000000000000000000 PUSH1 0x20 DUP3 ADD MSTORE POP JUMP JUMPDEST PUSH2 0xEF9 DUP2 PUSH2 0xD21 JUMP JUMPDEST DUP2 EQ PUSH2 0xF04 JUMPI PUSH1 0x0 DUP1 REVERT JUMPDEST POP JUMP JUMPDEST PUSH2 0xF10 DUP2 PUSH2 0xD4D JUMP JUMPDEST DUP2 EQ PUSH2 0xF1B JUMPI PUSH1 0x0 DUP1 REVERT JUMPDEST POP JUMP INVALID LOG2 PUSH5 0x6970667358 0x22 SLT KECCAK256 0xC7 0xE7 CREATE SWAP12 DUP11 EXTCODESIZE SDIV LOG1 0x4E 0x1E 0xE5 0xE7 EXTCODEHASH 0xD6 0xD 0xDF 0xAE 0xC2 PUSH5 0x2ADBB603E 0xE2 0xEE 0xF6 DUP14 NUMBER 0xDD MUL 0xBC PUSH5 0x736F6C6343 STOP ADDMOD SMOD STOP CALLER "
				},
				"gasEstimates": {
					"creation": {
						"codeDepositCost": "784800",
						"executionCost": "infinite",
						"totalCost": "infinite"
					},
					"external": {
						"getDAI(uint256)": "infinite",
						"getEth(uint256)": "infinite",
						"provideLiquidity(uint256)": "infinite",
						"reedemShares(uint256)": "infinite",
						"reserveToken()": "2555"
					}
				},
				"methodIdentifiers": {
					"getDAI(uint256)": "1aa5c70e",
					"getEth(uint256)": "8e3073a6",
					"provideLiquidity(uint256)": "eb521a4c",
					"reedemShares(uint256)": "ff9b3758",
					"reserveToken()": "f4325d67"
				}
			},
			"storageLayout": {
				"storage": [
					{
						"astId": 82,
						"contract": "contracts/LiquidityPool.sol:LiquidityPool",
						"label": "reserveToken",
						"offset": 0,
						"slot": "0",
						"type": "t_address"
					}
				],
				"types": {
					"t_address": {
						"encoding": "inplace",
						"label": "address",
						"numberOfBytes": "20"
					}
				}
			},
			"userdoc": {
				"kind": "user",
				"methods": {},
				"version": 1
			}
		}
	}
}