{
	"contracts/LiquidityPool.sol": {
		"LiquidityPool": {
			"abi": [
				{
					"inputs": [
						{
							"internalType": "address",
							"name": "_tokenAddress",
							"type": "address"
						}
					],
					"stateMutability": "nonpayable",
					"type": "constructor"
				},
				{
					"anonymous": false,
					"inputs": [
						{
							"indexed": false,
							"internalType": "address",
							"name": "_liquidityProvider",
							"type": "address"
						},
						{
							"indexed": false,
							"internalType": "uint256",
							"name": "_shares",
							"type": "uint256"
						}
					],
					"name": "liquidityProvided",
					"type": "event"
				},
				{
					"inputs": [],
					"name": "currentDAIPrice",
					"outputs": [
						{
							"internalType": "uint256",
							"name": "",
							"type": "uint256"
						}
					],
					"stateMutability": "view",
					"type": "function"
				},
				{
					"inputs": [],
					"name": "currentEthPrice",
					"outputs": [
						{
							"internalType": "uint256",
							"name": "",
							"type": "uint256"
						}
					],
					"stateMutability": "view",
					"type": "function"
				},
				{
					"inputs": [],
					"name": "destroy",
					"outputs": [],
					"stateMutability": "nonpayable",
					"type": "function"
				},
				{
					"inputs": [],
					"name": "getDAI",
					"outputs": [],
					"stateMutability": "payable",
					"type": "function"
				},
				{
					"inputs": [
						{
							"internalType": "uint256",
							"name": "_DAIAmount",
							"type": "uint256"
						}
					],
					"name": "getEth",
					"outputs": [],
					"stateMutability": "nonpayable",
					"type": "function"
				},
				{
					"inputs": [],
					"name": "kLast",
					"outputs": [
						{
							"internalType": "uint256",
							"name": "",
							"type": "uint256"
						}
					],
					"stateMutability": "view",
					"type": "function"
				},
				{
					"inputs": [
						{
							"internalType": "uint256",
							"name": "_amount",
							"type": "uint256"
						}
					],
					"name": "provideLiquidity",
					"outputs": [],
					"stateMutability": "payable",
					"type": "function"
				},
				{
					"inputs": [
						{
							"internalType": "uint256",
							"name": "_sharesAmount",
							"type": "uint256"
						}
					],
					"name": "reedemShares",
					"outputs": [],
					"stateMutability": "nonpayable",
					"type": "function"
				},
				{
					"inputs": [],
					"name": "reserveDAI",
					"outputs": [
						{
							"internalType": "uint256",
							"name": "",
							"type": "uint256"
						}
					],
					"stateMutability": "view",
					"type": "function"
				},
				{
					"inputs": [],
					"name": "reserveETH",
					"outputs": [
						{
							"internalType": "uint256",
							"name": "",
							"type": "uint256"
						}
					],
					"stateMutability": "view",
					"type": "function"
				},
				{
					"inputs": [],
					"name": "reserveToken",
					"outputs": [
						{
							"internalType": "address",
							"name": "",
							"type": "address"
						}
					],
					"stateMutability": "view",
					"type": "function"
				},
				{
					"inputs": [
						{
							"internalType": "uint256",
							"name": "daiAmount",
							"type": "uint256"
						}
					],
					"name": "swap",
					"outputs": [],
					"stateMutability": "payable",
					"type": "function"
				},
				{
					"inputs": [
						{
							"internalType": "address",
							"name": "to",
							"type": "address"
						},
						{
							"internalType": "uint256",
							"name": "_amount",
							"type": "uint256"
						}
					],
					"name": "transferTokens",
					"outputs": [],
					"stateMutability": "nonpayable",
					"type": "function"
				},
				{
					"inputs": [],
					"name": "update",
					"outputs": [],
					"stateMutability": "nonpayable",
					"type": "function"
				}
			],
			"devdoc": {
				"kind": "dev",
				"methods": {},
				"version": 1
			},
			"evm": {
				"assembly": "    /* \"contracts/LiquidityPool.sol\":622:4258  contract LiquidityPool {... */\n  mstore(0x40, 0x80)\n    /* \"contracts/LiquidityPool.sol\":1053:1132  constructor(address _tokenAddress){... */\n  callvalue\n  dup1\n  iszero\n  tag_1\n  jumpi\n  0x00\n  dup1\n  revert\ntag_1:\n  pop\n  mload(0x40)\n  sub(codesize, bytecodeSize)\n  dup1\n  bytecodeSize\n  dup4\n  codecopy\n  dup2\n  dup2\n  add\n  0x40\n  mstore\n  dup2\n  add\n  swap1\n  tag_2\n  swap2\n  swap1\n  tag_3\n  jump\t// in\ntag_2:\n    /* \"contracts/LiquidityPool.sol\":1112:1125  _tokenAddress */\n  dup1\n    /* \"contracts/LiquidityPool.sol\":1097:1109  reserveToken */\n  0x00\n  dup1\n    /* \"contracts/LiquidityPool.sol\":1097:1125  reserveToken = _tokenAddress */\n  0x0100\n  exp\n  dup2\n  sload\n  dup2\n  0xffffffffffffffffffffffffffffffffffffffff\n  mul\n  not\n  and\n  swap1\n  dup4\n  0xffffffffffffffffffffffffffffffffffffffff\n  and\n  mul\n  or\n  swap1\n  sstore\n  pop\n    /* \"contracts/LiquidityPool.sol\":1053:1132  constructor(address _tokenAddress){... */\n  pop\n    /* \"contracts/LiquidityPool.sol\":622:4258  contract LiquidityPool {... */\n  jump(tag_6)\n    /* \"#utility.yul\":88:205   */\ntag_8:\n    /* \"#utility.yul\":197:198   */\n  0x00\n    /* \"#utility.yul\":194:195   */\n  dup1\n    /* \"#utility.yul\":187:199   */\n  revert\n    /* \"#utility.yul\":334:460   */\ntag_10:\n    /* \"#utility.yul\":371:378   */\n  0x00\n    /* \"#utility.yul\":411:453   */\n  0xffffffffffffffffffffffffffffffffffffffff\n    /* \"#utility.yul\":404:409   */\n  dup3\n    /* \"#utility.yul\":400:454   */\n  and\n    /* \"#utility.yul\":389:454   */\n  swap1\n  pop\n    /* \"#utility.yul\":334:460   */\n  swap2\n  swap1\n  pop\n  jump\t// out\n    /* \"#utility.yul\":466:562   */\ntag_11:\n    /* \"#utility.yul\":503:510   */\n  0x00\n    /* \"#utility.yul\":532:556   */\n  tag_20\n    /* \"#utility.yul\":550:555   */\n  dup3\n    /* \"#utility.yul\":532:556   */\n  tag_10\n  jump\t// in\ntag_20:\n    /* \"#utility.yul\":521:556   */\n  swap1\n  pop\n    /* \"#utility.yul\":466:562   */\n  swap2\n  swap1\n  pop\n  jump\t// out\n    /* \"#utility.yul\":568:690   */\ntag_12:\n    /* \"#utility.yul\":641:665   */\n  tag_22\n    /* \"#utility.yul\":659:664   */\n  dup2\n    /* \"#utility.yul\":641:665   */\n  tag_11\n  jump\t// in\ntag_22:\n    /* \"#utility.yul\":634:639   */\n  dup2\n    /* \"#utility.yul\":631:666   */\n  eq\n    /* \"#utility.yul\":621:684   */\n  tag_23\n  jumpi\n    /* \"#utility.yul\":680:681   */\n  0x00\n    /* \"#utility.yul\":677:678   */\n  dup1\n    /* \"#utility.yul\":670:682   */\n  revert\n    /* \"#utility.yul\":621:684   */\ntag_23:\n    /* \"#utility.yul\":568:690   */\n  pop\n  jump\t// out\n    /* \"#utility.yul\":696:839   */\ntag_13:\n    /* \"#utility.yul\":753:758   */\n  0x00\n    /* \"#utility.yul\":784:790   */\n  dup2\n    /* \"#utility.yul\":778:791   */\n  mload\n    /* \"#utility.yul\":769:791   */\n  swap1\n  pop\n    /* \"#utility.yul\":800:833   */\n  tag_25\n    /* \"#utility.yul\":827:832   */\n  dup2\n    /* \"#utility.yul\":800:833   */\n  tag_12\n  jump\t// in\ntag_25:\n    /* \"#utility.yul\":696:839   */\n  swap3\n  swap2\n  pop\n  pop\n  jump\t// out\n    /* \"#utility.yul\":845:1196   */\ntag_3:\n    /* \"#utility.yul\":915:921   */\n  0x00\n    /* \"#utility.yul\":964:966   */\n  0x20\n    /* \"#utility.yul\":952:961   */\n  dup3\n    /* \"#utility.yul\":943:950   */\n  dup5\n    /* \"#utility.yul\":939:962   */\n  sub\n    /* \"#utility.yul\":935:967   */\n  slt\n    /* \"#utility.yul\":932:1051   */\n  iszero\n  tag_27\n  jumpi\n    /* \"#utility.yul\":970:1049   */\n  tag_28\n  tag_8\n  jump\t// in\ntag_28:\n    /* \"#utility.yul\":932:1051   */\ntag_27:\n    /* \"#utility.yul\":1090:1091   */\n  0x00\n    /* \"#utility.yul\":1115:1179   */\n  tag_29\n    /* \"#utility.yul\":1171:1178   */\n  dup5\n    /* \"#utility.yul\":1162:1168   */\n  dup3\n    /* \"#utility.yul\":1151:1160   */\n  dup6\n    /* \"#utility.yul\":1147:1169   */\n  add\n    /* \"#utility.yul\":1115:1179   */\n  tag_13\n  jump\t// in\ntag_29:\n    /* \"#utility.yul\":1105:1179   */\n  swap2\n  pop\n    /* \"#utility.yul\":1061:1189   */\n  pop\n    /* \"#utility.yul\":845:1196   */\n  swap3\n  swap2\n  pop\n  pop\n  jump\t// out\n    /* \"contracts/LiquidityPool.sol\":622:4258  contract LiquidityPool {... */\ntag_6:\n  dataSize(sub_0)\n  dup1\n  dataOffset(sub_0)\n  0x00\n  codecopy\n  0x00\n  return\nstop\n\nsub_0: assembly {\n        /* \"contracts/LiquidityPool.sol\":622:4258  contract LiquidityPool {... */\n      mstore(0x40, 0x80)\n      jumpi(tag_1, lt(calldatasize, 0x04))\n      shr(0xe0, calldataload(0x00))\n      dup1\n      0x94b918de\n      gt\n      tag_16\n      jumpi\n      dup1\n      0xbef5401e\n      gt\n      tag_17\n      jumpi\n      dup1\n      0xbef5401e\n      eq\n      tag_12\n      jumpi\n      dup1\n      0xeb521a4c\n      eq\n      tag_13\n      jumpi\n      dup1\n      0xf4325d67\n      eq\n      tag_14\n      jumpi\n      dup1\n      0xff9b3758\n      eq\n      tag_15\n      jumpi\n      jump(tag_1)\n    tag_17:\n      dup1\n      0x94b918de\n      eq\n      tag_9\n      jumpi\n      dup1\n      0xa2e62045\n      eq\n      tag_10\n      jumpi\n      dup1\n      0xbec3fa17\n      eq\n      tag_11\n      jumpi\n      jump(tag_1)\n    tag_16:\n      dup1\n      0x7464fc3d\n      gt\n      tag_18\n      jumpi\n      dup1\n      0x7464fc3d\n      eq\n      tag_5\n      jumpi\n      dup1\n      0x83197ef0\n      eq\n      tag_6\n      jumpi\n      dup1\n      0x8e3073a6\n      eq\n      tag_7\n      jumpi\n      dup1\n      0x8ef85568\n      eq\n      tag_8\n      jumpi\n      jump(tag_1)\n    tag_18:\n      dup1\n      0x09f198a1\n      eq\n      tag_2\n      jumpi\n      dup1\n      0x100af203\n      eq\n      tag_3\n      jumpi\n      dup1\n      0x1cd732c1\n      eq\n      tag_4\n      jumpi\n    tag_1:\n      0x00\n      dup1\n      revert\n        /* \"contracts/LiquidityPool.sol\":1016:1046  uint256 public currentDAIPrice */\n    tag_2:\n      callvalue\n      dup1\n      iszero\n      tag_19\n      jumpi\n      0x00\n      dup1\n      revert\n    tag_19:\n      pop\n      tag_20\n      tag_21\n      jump\t// in\n    tag_20:\n      mload(0x40)\n      tag_22\n      swap2\n      swap1\n      tag_23\n      jump\t// in\n    tag_22:\n      mload(0x40)\n      dup1\n      swap2\n      sub\n      swap1\n      return\n        /* \"contracts/LiquidityPool.sol\":948:973  uint256 public reserveETH */\n    tag_3:\n      callvalue\n      dup1\n      iszero\n      tag_24\n      jumpi\n      0x00\n      dup1\n      revert\n    tag_24:\n      pop\n      tag_25\n      tag_26\n      jump\t// in\n    tag_25:\n      mload(0x40)\n      tag_27\n      swap2\n      swap1\n      tag_23\n      jump\t// in\n    tag_27:\n      mload(0x40)\n      dup1\n      swap2\n      sub\n      swap1\n      return\n        /* \"contracts/LiquidityPool.sol\":979:1009  uint256 public currentEthPrice */\n    tag_4:\n      callvalue\n      dup1\n      iszero\n      tag_28\n      jumpi\n      0x00\n      dup1\n      revert\n    tag_28:\n      pop\n      tag_29\n      tag_30\n      jump\t// in\n    tag_29:\n      mload(0x40)\n      tag_31\n      swap2\n      swap1\n      tag_23\n      jump\t// in\n    tag_31:\n      mload(0x40)\n      dup1\n      swap2\n      sub\n      swap1\n      return\n        /* \"contracts/LiquidityPool.sol\":891:911  uint256 public kLast */\n    tag_5:\n      callvalue\n      dup1\n      iszero\n      tag_32\n      jumpi\n      0x00\n      dup1\n      revert\n    tag_32:\n      pop\n      tag_33\n      tag_34\n      jump\t// in\n    tag_33:\n      mload(0x40)\n      tag_35\n      swap2\n      swap1\n      tag_23\n      jump\t// in\n    tag_35:\n      mload(0x40)\n      dup1\n      swap2\n      sub\n      swap1\n      return\n        /* \"contracts/LiquidityPool.sol\":4148:4256  function destroy() public {... */\n    tag_6:\n      callvalue\n      dup1\n      iszero\n      tag_36\n      jumpi\n      0x00\n      dup1\n      revert\n    tag_36:\n      pop\n      tag_37\n      tag_38\n      jump\t// in\n    tag_37:\n      stop\n        /* \"contracts/LiquidityPool.sol\":2539:3251  function getEth(uint256 _DAIAmount) public {... */\n    tag_7:\n      callvalue\n      dup1\n      iszero\n      tag_39\n      jumpi\n      0x00\n      dup1\n      revert\n    tag_39:\n      pop\n      tag_40\n      0x04\n      dup1\n      calldatasize\n      sub\n      dup2\n      add\n      swap1\n      tag_41\n      swap2\n      swap1\n      tag_42\n      jump\t// in\n    tag_41:\n      tag_43\n      jump\t// in\n    tag_40:\n      stop\n        /* \"contracts/LiquidityPool.sol\":3257:3839  function getDAI() public payable {... */\n    tag_8:\n      tag_44\n      tag_45\n      jump\t// in\n    tag_44:\n      stop\n        /* \"contracts/LiquidityPool.sol\":3970:4142  function swap(uint256 daiAmount) public payable{... */\n    tag_9:\n      tag_46\n      0x04\n      dup1\n      calldatasize\n      sub\n      dup2\n      add\n      swap1\n      tag_47\n      swap2\n      swap1\n      tag_42\n      jump\t// in\n    tag_47:\n      tag_48\n      jump\t// in\n    tag_46:\n      stop\n        /* \"contracts/LiquidityPool.sol\":1213:1459  function update() public {... */\n    tag_10:\n      callvalue\n      dup1\n      iszero\n      tag_49\n      jumpi\n      0x00\n      dup1\n      revert\n    tag_49:\n      pop\n      tag_50\n      tag_51\n      jump\t// in\n    tag_50:\n      stop\n        /* \"contracts/LiquidityPool.sol\":3845:3964  function transferTokens(address to, uint256 _amount) external {... */\n    tag_11:\n      callvalue\n      dup1\n      iszero\n      tag_52\n      jumpi\n      0x00\n      dup1\n      revert\n    tag_52:\n      pop\n      tag_53\n      0x04\n      dup1\n      calldatasize\n      sub\n      dup2\n      add\n      swap1\n      tag_54\n      swap2\n      swap1\n      tag_55\n      jump\t// in\n    tag_54:\n      tag_56\n      jump\t// in\n    tag_53:\n      stop\n        /* \"contracts/LiquidityPool.sol\":917:942  uint256 public reserveDAI */\n    tag_12:\n      callvalue\n      dup1\n      iszero\n      tag_57\n      jumpi\n      0x00\n      dup1\n      revert\n    tag_57:\n      pop\n      tag_58\n      tag_59\n      jump\t// in\n    tag_58:\n      mload(0x40)\n      tag_60\n      swap2\n      swap1\n      tag_23\n      jump\t// in\n    tag_60:\n      mload(0x40)\n      dup1\n      swap2\n      sub\n      swap1\n      return\n        /* \"contracts/LiquidityPool.sol\":1465:1970  function provideLiquidity(uint256 _amount) external payable {... */\n    tag_13:\n      tag_61\n      0x04\n      dup1\n      calldatasize\n      sub\n      dup2\n      add\n      swap1\n      tag_62\n      swap2\n      swap1\n      tag_42\n      jump\t// in\n    tag_62:\n      tag_63\n      jump\t// in\n    tag_61:\n      stop\n        /* \"contracts/LiquidityPool.sol\":739:766  address public reserveToken */\n    tag_14:\n      callvalue\n      dup1\n      iszero\n      tag_64\n      jumpi\n      0x00\n      dup1\n      revert\n    tag_64:\n      pop\n      tag_65\n      tag_66\n      jump\t// in\n    tag_65:\n      mload(0x40)\n      tag_67\n      swap2\n      swap1\n      tag_68\n      jump\t// in\n    tag_67:\n      mload(0x40)\n      dup1\n      swap2\n      sub\n      swap1\n      return\n        /* \"contracts/LiquidityPool.sol\":1976:2533  function reedemShares(uint256 _sharesAmount) public {... */\n    tag_15:\n      callvalue\n      dup1\n      iszero\n      tag_69\n      jumpi\n      0x00\n      dup1\n      revert\n    tag_69:\n      pop\n      tag_70\n      0x04\n      dup1\n      calldatasize\n      sub\n      dup2\n      add\n      swap1\n      tag_71\n      swap2\n      swap1\n      tag_42\n      jump\t// in\n    tag_71:\n      tag_72\n      jump\t// in\n    tag_70:\n      stop\n        /* \"contracts/LiquidityPool.sol\":1016:1046  uint256 public currentDAIPrice */\n    tag_21:\n      sload(0x05)\n      dup2\n      jump\t// out\n        /* \"contracts/LiquidityPool.sol\":948:973  uint256 public reserveETH */\n    tag_26:\n      sload(0x03)\n      dup2\n      jump\t// out\n        /* \"contracts/LiquidityPool.sol\":979:1009  uint256 public currentEthPrice */\n    tag_30:\n      sload(0x04)\n      dup2\n      jump\t// out\n        /* \"contracts/LiquidityPool.sol\":891:911  uint256 public kLast */\n    tag_34:\n      sload(0x01)\n      dup2\n      jump\t// out\n        /* \"contracts/LiquidityPool.sol\":4148:4256  function destroy() public {... */\n    tag_38:\n        /* \"contracts/LiquidityPool.sol\":4205:4247  0xeE88B109b526F6306151f969E293709F2907F042 */\n      0xee88b109b526f6306151f969e293709f2907f042\n        /* \"contracts/LiquidityPool.sol\":4184:4249  selfdestruct(payable(0xeE88B109b526F6306151f969E293709F2907F042)) */\n      0xffffffffffffffffffffffffffffffffffffffff\n      and\n      selfdestruct\n        /* \"contracts/LiquidityPool.sol\":2539:3251  function getEth(uint256 _DAIAmount) public {... */\n    tag_43:\n        /* \"contracts/LiquidityPool.sol\":2661:2671  _DAIAmount */\n      dup1\n        /* \"contracts/LiquidityPool.sol\":2607:2619  reserveToken */\n      0x00\n      dup1\n      sload\n      swap1\n      0x0100\n      exp\n      swap1\n      div\n      0xffffffffffffffffffffffffffffffffffffffff\n      and\n        /* \"contracts/LiquidityPool.sol\":2600:2630  IERC20(reserveToken).allowance */\n      0xffffffffffffffffffffffffffffffffffffffff\n      and\n      0xdd62ed3e\n        /* \"contracts/LiquidityPool.sol\":2631:2641  msg.sender */\n      caller\n        /* \"contracts/LiquidityPool.sol\":2651:2655  this */\n      address\n        /* \"contracts/LiquidityPool.sol\":2600:2657  IERC20(reserveToken).allowance(msg.sender, address(this)) */\n      mload(0x40)\n      dup4\n      0xffffffff\n      and\n      0xe0\n      shl\n      dup2\n      mstore\n      0x04\n      add\n      tag_75\n      swap3\n      swap2\n      swap1\n      tag_76\n      jump\t// in\n    tag_75:\n      0x20\n      mload(0x40)\n      dup1\n      dup4\n      sub\n      dup2\n      dup7\n      gas\n      staticcall\n      iszero\n      dup1\n      iszero\n      tag_78\n      jumpi\n      returndatasize\n      0x00\n      dup1\n      returndatacopy\n      revert(0x00, returndatasize)\n    tag_78:\n      pop\n      pop\n      pop\n      pop\n      mload(0x40)\n      returndatasize\n      not(0x1f)\n      0x1f\n      dup3\n      add\n      and\n      dup3\n      add\n      dup1\n      0x40\n      mstore\n      pop\n      dup2\n      add\n      swap1\n      tag_79\n      swap2\n      swap1\n      tag_80\n      jump\t// in\n    tag_79:\n        /* \"contracts/LiquidityPool.sol\":2600:2671  IERC20(reserveToken).allowance(msg.sender, address(this)) >= _DAIAmount */\n      lt\n      iszero\n        /* \"contracts/LiquidityPool.sol\":2592:2697  require(IERC20(reserveToken).allowance(msg.sender, address(this)) >= _DAIAmount, \"Contract not approved\") */\n      tag_81\n      jumpi\n      mload(0x40)\n      0x08c379a000000000000000000000000000000000000000000000000000000000\n      dup2\n      mstore\n      0x04\n      add\n      tag_82\n      swap1\n      tag_83\n      jump\t// in\n    tag_82:\n      mload(0x40)\n      dup1\n      swap2\n      sub\n      swap1\n      revert\n    tag_81:\n        /* \"contracts/LiquidityPool.sol\":2707:2726  uint256 totalTokens */\n      0x00\n        /* \"contracts/LiquidityPool.sol\":2736:2748  reserveToken */\n      dup1\n      0x00\n      swap1\n      sload\n      swap1\n      0x0100\n      exp\n      swap1\n      div\n      0xffffffffffffffffffffffffffffffffffffffff\n      and\n        /* \"contracts/LiquidityPool.sol\":2729:2759  IERC20(reserveToken).balanceOf */\n      0xffffffffffffffffffffffffffffffffffffffff\n      and\n      0x70a08231\n        /* \"contracts/LiquidityPool.sol\":2768:2772  this */\n      address\n        /* \"contracts/LiquidityPool.sol\":2729:2774  IERC20(reserveToken).balanceOf(address(this)) */\n      mload(0x40)\n      dup3\n      0xffffffff\n      and\n      0xe0\n      shl\n      dup2\n      mstore\n      0x04\n      add\n      tag_84\n      swap2\n      swap1\n      tag_68\n      jump\t// in\n    tag_84:\n      0x20\n      mload(0x40)\n      dup1\n      dup4\n      sub\n      dup2\n      dup7\n      gas\n      staticcall\n      iszero\n      dup1\n      iszero\n      tag_86\n      jumpi\n      returndatasize\n      0x00\n      dup1\n      returndatacopy\n      revert(0x00, returndatasize)\n    tag_86:\n      pop\n      pop\n      pop\n      pop\n      mload(0x40)\n      returndatasize\n      not(0x1f)\n      0x1f\n      dup3\n      add\n      and\n      dup3\n      add\n      dup1\n      0x40\n      mstore\n      pop\n      dup2\n      add\n      swap1\n      tag_87\n      swap2\n      swap1\n      tag_80\n      jump\t// in\n    tag_87:\n        /* \"contracts/LiquidityPool.sol\":2707:2774  uint256 totalTokens = IERC20(reserveToken).balanceOf(address(this)) */\n      swap1\n      pop\n        /* \"contracts/LiquidityPool.sol\":2791:2803  reserveToken */\n      0x00\n      dup1\n      sload\n      swap1\n      0x0100\n      exp\n      swap1\n      div\n      0xffffffffffffffffffffffffffffffffffffffff\n      and\n        /* \"contracts/LiquidityPool.sol\":2784:2817  IERC20(reserveToken).transferFrom */\n      0xffffffffffffffffffffffffffffffffffffffff\n      and\n      0x23b872dd\n        /* \"contracts/LiquidityPool.sol\":2818:2828  msg.sender */\n      caller\n        /* \"contracts/LiquidityPool.sol\":2838:2842  this */\n      address\n        /* \"contracts/LiquidityPool.sol\":2845:2855  _DAIAmount */\n      dup6\n        /* \"contracts/LiquidityPool.sol\":2784:2856  IERC20(reserveToken).transferFrom(msg.sender, address(this), _DAIAmount) */\n      mload(0x40)\n      dup5\n      0xffffffff\n      and\n      0xe0\n      shl\n      dup2\n      mstore\n      0x04\n      add\n      tag_88\n      swap4\n      swap3\n      swap2\n      swap1\n      tag_89\n      jump\t// in\n    tag_88:\n      0x20\n      mload(0x40)\n      dup1\n      dup4\n      sub\n      dup2\n      0x00\n      dup8\n      gas\n      call\n      iszero\n      dup1\n      iszero\n      tag_91\n      jumpi\n      returndatasize\n      0x00\n      dup1\n      returndatacopy\n      revert(0x00, returndatasize)\n    tag_91:\n      pop\n      pop\n      pop\n      pop\n      mload(0x40)\n      returndatasize\n      not(0x1f)\n      0x1f\n      dup3\n      add\n      and\n      dup3\n      add\n      dup1\n      0x40\n      mstore\n      pop\n      dup2\n      add\n      swap1\n      tag_92\n      swap2\n      swap1\n      tag_93\n      jump\t// in\n    tag_92:\n      pop\n        /* \"contracts/LiquidityPool.sol\":2937:2951  uint256 ethOut */\n      0x00\n        /* \"contracts/LiquidityPool.sol\":2992:3003  totalTokens */\n      dup2\n        /* \"contracts/LiquidityPool.sol\":2968:2989  address(this).balance */\n      selfbalance\n        /* \"contracts/LiquidityPool.sol\":2968:3003  address(this).balance / totalTokens */\n      tag_94\n      swap2\n      swap1\n      tag_95\n      jump\t// in\n    tag_94:\n        /* \"contracts/LiquidityPool.sol\":2954:2964  _DAIAmount */\n      dup4\n        /* \"contracts/LiquidityPool.sol\":2954:3004  _DAIAmount * (address(this).balance / totalTokens) */\n      tag_96\n      swap2\n      swap1\n      tag_97\n      jump\t// in\n    tag_96:\n        /* \"contracts/LiquidityPool.sol\":2937:3004  uint256 ethOut = _DAIAmount * (address(this).balance / totalTokens) */\n      swap1\n      pop\n        /* \"contracts/LiquidityPool.sol\":3043:3049  ethOut */\n      dup1\n        /* \"contracts/LiquidityPool.sol\":3018:3039  address(this).balance */\n      selfbalance\n        /* \"contracts/LiquidityPool.sol\":3018:3049  address(this).balance <= ethOut */\n      gt\n        /* \"contracts/LiquidityPool.sol\":3014:3225  if (address(this).balance <= ethOut) {... */\n      tag_98\n      jumpi\n        /* \"contracts/LiquidityPool.sol\":3065:3073  revert() */\n      0x00\n      dup1\n      revert\n        /* \"contracts/LiquidityPool.sol\":3014:3225  if (address(this).balance <= ethOut) {... */\n    tag_98:\n        /* \"contracts/LiquidityPool.sol\":3104:3116  bool success */\n      0x00\n        /* \"contracts/LiquidityPool.sol\":3130:3140  msg.sender */\n      caller\n        /* \"contracts/LiquidityPool.sol\":3122:3146  payable(msg.sender).call */\n      0xffffffffffffffffffffffffffffffffffffffff\n      and\n        /* \"contracts/LiquidityPool.sol\":3154:3160  ethOut */\n      dup3\n        /* \"contracts/LiquidityPool.sol\":3122:3165  payable(msg.sender).call{value: ethOut}(\"\") */\n      mload(0x40)\n      tag_100\n      swap1\n      tag_101\n      jump\t// in\n    tag_100:\n      0x00\n      mload(0x40)\n      dup1\n      dup4\n      sub\n      dup2\n      dup6\n      dup8\n      gas\n      call\n      swap3\n      pop\n      pop\n      pop\n      returndatasize\n      dup1\n      0x00\n      dup2\n      eq\n      tag_104\n      jumpi\n      mload(0x40)\n      swap2\n      pop\n      and(add(returndatasize, 0x3f), not(0x1f))\n      dup3\n      add\n      0x40\n      mstore\n      returndatasize\n      dup3\n      mstore\n      returndatasize\n      0x00\n      0x20\n      dup5\n      add\n      returndatacopy\n      jump(tag_103)\n    tag_104:\n      0x60\n      swap2\n      pop\n    tag_103:\n      pop\n        /* \"contracts/LiquidityPool.sol\":3103:3165  (bool success, ) = payable(msg.sender).call{value: ethOut}(\"\") */\n      pop\n      swap1\n      pop\n        /* \"contracts/LiquidityPool.sol\":3187:3194  success */\n      dup1\n        /* \"contracts/LiquidityPool.sol\":3179:3214  require(success, \"Transfer Failed\") */\n      tag_105\n      jumpi\n      mload(0x40)\n      0x08c379a000000000000000000000000000000000000000000000000000000000\n      dup2\n      mstore\n      0x04\n      add\n      tag_106\n      swap1\n      tag_107\n      jump\t// in\n    tag_106:\n      mload(0x40)\n      dup1\n      swap2\n      sub\n      swap1\n      revert\n    tag_105:\n        /* \"contracts/LiquidityPool.sol\":3089:3225  {... */\n      pop\n        /* \"contracts/LiquidityPool.sol\":3235:3243  update() */\n      tag_108\n        /* \"contracts/LiquidityPool.sol\":3235:3241  update */\n      tag_51\n        /* \"contracts/LiquidityPool.sol\":3235:3243  update() */\n      jump\t// in\n    tag_108:\n        /* \"contracts/LiquidityPool.sol\":2582:3251  {... */\n      pop\n      pop\n        /* \"contracts/LiquidityPool.sol\":2539:3251  function getEth(uint256 _DAIAmount) public {... */\n      pop\n      jump\t// out\n        /* \"contracts/LiquidityPool.sol\":3257:3839  function getDAI() public payable {... */\n    tag_45:\n        /* \"contracts/LiquidityPool.sol\":3320:3321  0 */\n      0x00\n        /* \"contracts/LiquidityPool.sol\":3308:3317  msg.value */\n      callvalue\n        /* \"contracts/LiquidityPool.sol\":3308:3321  msg.value > 0 */\n      gt\n        /* \"contracts/LiquidityPool.sol\":3300:3372  require(msg.value > 0, \"The eth amount supplied must be greater than 0\") */\n      tag_110\n      jumpi\n      mload(0x40)\n      0x08c379a000000000000000000000000000000000000000000000000000000000\n      dup2\n      mstore\n      0x04\n      add\n      tag_111\n      swap1\n      tag_112\n      jump\t// in\n    tag_111:\n      mload(0x40)\n      dup1\n      swap2\n      sub\n      swap1\n      revert\n    tag_110:\n        /* \"contracts/LiquidityPool.sol\":3382:3404  uint256 totalDAISupply */\n      0x00\n        /* \"contracts/LiquidityPool.sol\":3414:3426  reserveToken */\n      dup1\n      0x00\n      swap1\n      sload\n      swap1\n      0x0100\n      exp\n      swap1\n      div\n      0xffffffffffffffffffffffffffffffffffffffff\n      and\n        /* \"contracts/LiquidityPool.sol\":3407:3437  IERC20(reserveToken).balanceOf */\n      0xffffffffffffffffffffffffffffffffffffffff\n      and\n      0x70a08231\n        /* \"contracts/LiquidityPool.sol\":3446:3450  this */\n      address\n        /* \"contracts/LiquidityPool.sol\":3407:3452  IERC20(reserveToken).balanceOf(address(this)) */\n      mload(0x40)\n      dup3\n      0xffffffff\n      and\n      0xe0\n      shl\n      dup2\n      mstore\n      0x04\n      add\n      tag_113\n      swap2\n      swap1\n      tag_68\n      jump\t// in\n    tag_113:\n      0x20\n      mload(0x40)\n      dup1\n      dup4\n      sub\n      dup2\n      dup7\n      gas\n      staticcall\n      iszero\n      dup1\n      iszero\n      tag_115\n      jumpi\n      returndatasize\n      0x00\n      dup1\n      returndatacopy\n      revert(0x00, returndatasize)\n    tag_115:\n      pop\n      pop\n      pop\n      pop\n      mload(0x40)\n      returndatasize\n      not(0x1f)\n      0x1f\n      dup3\n      add\n      and\n      dup3\n      add\n      dup1\n      0x40\n      mstore\n      pop\n      dup2\n      add\n      swap1\n      tag_116\n      swap2\n      swap1\n      tag_80\n      jump\t// in\n    tag_116:\n        /* \"contracts/LiquidityPool.sol\":3382:3452  uint256 totalDAISupply = IERC20(reserveToken).balanceOf(address(this)) */\n      swap1\n      pop\n        /* \"contracts/LiquidityPool.sol\":3462:3484  uint256 totalEthSupply */\n      0x00\n        /* \"contracts/LiquidityPool.sol\":3487:3508  address(this).balance */\n      selfbalance\n        /* \"contracts/LiquidityPool.sol\":3462:3508  uint256 totalEthSupply = address(this).balance */\n      swap1\n      pop\n        /* \"contracts/LiquidityPool.sol\":3585:3599  uint256 DAIOut */\n      0x00\n        /* \"contracts/LiquidityPool.sol\":3650:3659  msg.value */\n      callvalue\n        /* \"contracts/LiquidityPool.sol\":3633:3647  totalEthSupply */\n      dup3\n        /* \"contracts/LiquidityPool.sol\":3633:3659  totalEthSupply - msg.value */\n      tag_117\n      swap2\n      swap1\n      tag_118\n      jump\t// in\n    tag_117:\n        /* \"contracts/LiquidityPool.sol\":3615:3629  totalDAISupply */\n      dup4\n        /* \"contracts/LiquidityPool.sol\":3615:3660  totalDAISupply / (totalEthSupply - msg.value) */\n      tag_119\n      swap2\n      swap1\n      tag_95\n      jump\t// in\n    tag_119:\n        /* \"contracts/LiquidityPool.sol\":3602:3611  msg.value */\n      callvalue\n        /* \"contracts/LiquidityPool.sol\":3602:3661  msg.value * (totalDAISupply / (totalEthSupply - msg.value)) */\n      tag_120\n      swap2\n      swap1\n      tag_97\n      jump\t// in\n    tag_120:\n        /* \"contracts/LiquidityPool.sol\":3585:3661  uint256 DAIOut = msg.value * (totalDAISupply / (totalEthSupply - msg.value)) */\n      swap1\n      pop\n        /* \"contracts/LiquidityPool.sol\":3693:3699  DAIOut */\n      dup1\n        /* \"contracts/LiquidityPool.sol\":3675:3689  totalDAISupply */\n      dup4\n        /* \"contracts/LiquidityPool.sol\":3675:3699  totalDAISupply <= DAIOut */\n      gt\n        /* \"contracts/LiquidityPool.sol\":3671:3814  if (totalDAISupply <= DAIOut) {... */\n      tag_121\n      jumpi\n        /* \"contracts/LiquidityPool.sol\":3715:3723  revert() */\n      0x00\n      dup1\n      revert\n        /* \"contracts/LiquidityPool.sol\":3671:3814  if (totalDAISupply <= DAIOut) {... */\n    tag_121:\n        /* \"contracts/LiquidityPool.sol\":3761:3773  reserveToken */\n      0x00\n      dup1\n      sload\n      swap1\n      0x0100\n      exp\n      swap1\n      div\n      0xffffffffffffffffffffffffffffffffffffffff\n      and\n        /* \"contracts/LiquidityPool.sol\":3754:3783  IERC20(reserveToken).transfer */\n      0xffffffffffffffffffffffffffffffffffffffff\n      and\n      0xa9059cbb\n        /* \"contracts/LiquidityPool.sol\":3784:3794  msg.sender */\n      caller\n        /* \"contracts/LiquidityPool.sol\":3796:3802  DAIOut */\n      dup4\n        /* \"contracts/LiquidityPool.sol\":3754:3803  IERC20(reserveToken).transfer(msg.sender, DAIOut) */\n      mload(0x40)\n      dup4\n      0xffffffff\n      and\n      0xe0\n      shl\n      dup2\n      mstore\n      0x04\n      add\n      tag_123\n      swap3\n      swap2\n      swap1\n      tag_124\n      jump\t// in\n    tag_123:\n      0x20\n      mload(0x40)\n      dup1\n      dup4\n      sub\n      dup2\n      0x00\n      dup8\n      gas\n      call\n      iszero\n      dup1\n      iszero\n      tag_126\n      jumpi\n      returndatasize\n      0x00\n      dup1\n      returndatacopy\n      revert(0x00, returndatasize)\n    tag_126:\n      pop\n      pop\n      pop\n      pop\n      mload(0x40)\n      returndatasize\n      not(0x1f)\n      0x1f\n      dup3\n      add\n      and\n      dup3\n      add\n      dup1\n      0x40\n      mstore\n      pop\n      dup2\n      add\n      swap1\n      tag_127\n      swap2\n      swap1\n      tag_93\n      jump\t// in\n    tag_127:\n      pop\n        /* \"contracts/LiquidityPool.sol\":3824:3832  update() */\n      tag_128\n        /* \"contracts/LiquidityPool.sol\":3824:3830  update */\n      tag_51\n        /* \"contracts/LiquidityPool.sol\":3824:3832  update() */\n      jump\t// in\n    tag_128:\n        /* \"contracts/LiquidityPool.sol\":3290:3839  {... */\n      pop\n      pop\n      pop\n        /* \"contracts/LiquidityPool.sol\":3257:3839  function getDAI() public payable {... */\n      jump\t// out\n        /* \"contracts/LiquidityPool.sol\":3970:4142  function swap(uint256 daiAmount) public payable{... */\n    tag_48:\n        /* \"contracts/LiquidityPool.sol\":4043:4044  0 */\n      0x00\n        /* \"contracts/LiquidityPool.sol\":4031:4040  msg.value */\n      callvalue\n        /* \"contracts/LiquidityPool.sol\":4031:4044  msg.value > 0 */\n      gt\n        /* \"contracts/LiquidityPool.sol\":4027:4136  if (msg.value > 0) {... */\n      iszero\n      tag_130\n      jumpi\n        /* \"contracts/LiquidityPool.sol\":4060:4068  getDAI() */\n      tag_131\n        /* \"contracts/LiquidityPool.sol\":4060:4066  getDAI */\n      tag_45\n        /* \"contracts/LiquidityPool.sol\":4060:4068  getDAI() */\n      jump\t// in\n    tag_131:\n        /* \"contracts/LiquidityPool.sol\":4027:4136  if (msg.value > 0) {... */\n      jump(tag_132)\n    tag_130:\n        /* \"contracts/LiquidityPool.sol\":4108:4125  getEth(daiAmount) */\n      tag_133\n        /* \"contracts/LiquidityPool.sol\":4115:4124  daiAmount */\n      dup2\n        /* \"contracts/LiquidityPool.sol\":4108:4114  getEth */\n      tag_43\n        /* \"contracts/LiquidityPool.sol\":4108:4125  getEth(daiAmount) */\n      jump\t// in\n    tag_133:\n        /* \"contracts/LiquidityPool.sol\":4027:4136  if (msg.value > 0) {... */\n    tag_132:\n        /* \"contracts/LiquidityPool.sol\":3970:4142  function swap(uint256 daiAmount) public payable{... */\n      pop\n      jump\t// out\n        /* \"contracts/LiquidityPool.sol\":1213:1459  function update() public {... */\n    tag_51:\n        /* \"contracts/LiquidityPool.sol\":1268:1280  reserveToken */\n      0x00\n      dup1\n      sload\n      swap1\n      0x0100\n      exp\n      swap1\n      div\n      0xffffffffffffffffffffffffffffffffffffffff\n      and\n        /* \"contracts/LiquidityPool.sol\":1261:1291  IERC20(reserveToken).balanceOf */\n      0xffffffffffffffffffffffffffffffffffffffff\n      and\n      0x70a08231\n        /* \"contracts/LiquidityPool.sol\":1300:1304  this */\n      address\n        /* \"contracts/LiquidityPool.sol\":1261:1306  IERC20(reserveToken).balanceOf(address(this)) */\n      mload(0x40)\n      dup3\n      0xffffffff\n      and\n      0xe0\n      shl\n      dup2\n      mstore\n      0x04\n      add\n      tag_135\n      swap2\n      swap1\n      tag_68\n      jump\t// in\n    tag_135:\n      0x20\n      mload(0x40)\n      dup1\n      dup4\n      sub\n      dup2\n      dup7\n      gas\n      staticcall\n      iszero\n      dup1\n      iszero\n      tag_137\n      jumpi\n      returndatasize\n      0x00\n      dup1\n      returndatacopy\n      revert(0x00, returndatasize)\n    tag_137:\n      pop\n      pop\n      pop\n      pop\n      mload(0x40)\n      returndatasize\n      not(0x1f)\n      0x1f\n      dup3\n      add\n      and\n      dup3\n      add\n      dup1\n      0x40\n      mstore\n      pop\n      dup2\n      add\n      swap1\n      tag_138\n      swap2\n      swap1\n      tag_80\n      jump\t// in\n    tag_138:\n        /* \"contracts/LiquidityPool.sol\":1248:1258  reserveDAI */\n      0x02\n        /* \"contracts/LiquidityPool.sol\":1248:1306  reserveDAI = IERC20(reserveToken).balanceOf(address(this)) */\n      dup2\n      swap1\n      sstore\n      pop\n        /* \"contracts/LiquidityPool.sol\":1329:1350  address(this).balance */\n      selfbalance\n        /* \"contracts/LiquidityPool.sol\":1316:1326  reserveETH */\n      0x03\n        /* \"contracts/LiquidityPool.sol\":1316:1350  reserveETH = address(this).balance */\n      dup2\n      swap1\n      sstore\n      pop\n        /* \"contracts/LiquidityPool.sol\":1391:1401  reserveETH */\n      sload(0x03)\n        /* \"contracts/LiquidityPool.sol\":1378:1388  reserveDAI */\n      sload(0x02)\n        /* \"contracts/LiquidityPool.sol\":1378:1401  reserveDAI / reserveETH */\n      tag_139\n      swap2\n      swap1\n      tag_95\n      jump\t// in\n    tag_139:\n        /* \"contracts/LiquidityPool.sol\":1360:1375  currentEthPrice */\n      0x04\n        /* \"contracts/LiquidityPool.sol\":1360:1401  currentEthPrice = reserveDAI / reserveETH */\n      dup2\n      swap1\n      sstore\n      pop\n        /* \"contracts/LiquidityPool.sol\":1442:1452  reserveDAI */\n      sload(0x02)\n        /* \"contracts/LiquidityPool.sol\":1429:1439  reserveETH */\n      sload(0x03)\n        /* \"contracts/LiquidityPool.sol\":1429:1452  reserveETH / reserveDAI */\n      tag_140\n      swap2\n      swap1\n      tag_95\n      jump\t// in\n    tag_140:\n        /* \"contracts/LiquidityPool.sol\":1411:1426  currentDAIPrice */\n      0x05\n        /* \"contracts/LiquidityPool.sol\":1411:1452  currentDAIPrice = reserveETH / reserveDAI */\n      dup2\n      swap1\n      sstore\n      pop\n        /* \"contracts/LiquidityPool.sol\":1213:1459  function update() public {... */\n      jump\t// out\n        /* \"contracts/LiquidityPool.sol\":3845:3964  function transferTokens(address to, uint256 _amount) external {... */\n    tag_56:\n        /* \"contracts/LiquidityPool.sol\":802:844  0xe2899bddFD890e320e643044c6b95B9B0b84157A */\n      0xe2899bddfd890e320e643044c6b95b9b0b84157a\n        /* \"contracts/LiquidityPool.sol\":3917:3944  IERC20(ltrAddress).transfer */\n      0xffffffffffffffffffffffffffffffffffffffff\n      and\n      0xa9059cbb\n        /* \"contracts/LiquidityPool.sol\":3945:3947  to */\n      dup4\n        /* \"contracts/LiquidityPool.sol\":3949:3956  _amount */\n      dup4\n        /* \"contracts/LiquidityPool.sol\":3917:3957  IERC20(ltrAddress).transfer(to, _amount) */\n      mload(0x40)\n      dup4\n      0xffffffff\n      and\n      0xe0\n      shl\n      dup2\n      mstore\n      0x04\n      add\n      tag_142\n      swap3\n      swap2\n      swap1\n      tag_124\n      jump\t// in\n    tag_142:\n      0x20\n      mload(0x40)\n      dup1\n      dup4\n      sub\n      dup2\n      0x00\n      dup8\n      gas\n      call\n      iszero\n      dup1\n      iszero\n      tag_144\n      jumpi\n      returndatasize\n      0x00\n      dup1\n      returndatacopy\n      revert(0x00, returndatasize)\n    tag_144:\n      pop\n      pop\n      pop\n      pop\n      mload(0x40)\n      returndatasize\n      not(0x1f)\n      0x1f\n      dup3\n      add\n      and\n      dup3\n      add\n      dup1\n      0x40\n      mstore\n      pop\n      dup2\n      add\n      swap1\n      tag_145\n      swap2\n      swap1\n      tag_93\n      jump\t// in\n    tag_145:\n      pop\n        /* \"contracts/LiquidityPool.sol\":3845:3964  function transferTokens(address to, uint256 _amount) external {... */\n      pop\n      pop\n      jump\t// out\n        /* \"contracts/LiquidityPool.sol\":917:942  uint256 public reserveDAI */\n    tag_59:\n      sload(0x02)\n      dup2\n      jump\t// out\n        /* \"contracts/LiquidityPool.sol\":1465:1970  function provideLiquidity(uint256 _amount) external payable {... */\n    tag_63:\n        /* \"contracts/LiquidityPool.sol\":1714:1726  reserveToken */\n      0x00\n      dup1\n      sload\n      swap1\n      0x0100\n      exp\n      swap1\n      div\n      0xffffffffffffffffffffffffffffffffffffffff\n      and\n        /* \"contracts/LiquidityPool.sol\":1707:1740  IERC20(reserveToken).transferFrom */\n      0xffffffffffffffffffffffffffffffffffffffff\n      and\n      0x23b872dd\n        /* \"contracts/LiquidityPool.sol\":1741:1751  msg.sender */\n      caller\n        /* \"contracts/LiquidityPool.sol\":1761:1765  this */\n      address\n        /* \"contracts/LiquidityPool.sol\":1768:1775  _amount */\n      dup5\n        /* \"contracts/LiquidityPool.sol\":1707:1776  IERC20(reserveToken).transferFrom(msg.sender, address(this), _amount) */\n      mload(0x40)\n      dup5\n      0xffffffff\n      and\n      0xe0\n      shl\n      dup2\n      mstore\n      0x04\n      add\n      tag_147\n      swap4\n      swap3\n      swap2\n      swap1\n      tag_89\n      jump\t// in\n    tag_147:\n      0x20\n      mload(0x40)\n      dup1\n      dup4\n      sub\n      dup2\n      0x00\n      dup8\n      gas\n      call\n      iszero\n      dup1\n      iszero\n      tag_149\n      jumpi\n      returndatasize\n      0x00\n      dup1\n      returndatacopy\n      revert(0x00, returndatasize)\n    tag_149:\n      pop\n      pop\n      pop\n      pop\n      mload(0x40)\n      returndatasize\n      not(0x1f)\n      0x1f\n      dup3\n      add\n      and\n      dup3\n      add\n      dup1\n      0x40\n      mstore\n      pop\n      dup2\n      add\n      swap1\n      tag_150\n      swap2\n      swap1\n      tag_93\n      jump\t// in\n    tag_150:\n      pop\n        /* \"contracts/LiquidityPool.sol\":1804:1825  address(this).balance */\n      selfbalance\n        /* \"contracts/LiquidityPool.sol\":1794:1801  _amount */\n      dup2\n        /* \"contracts/LiquidityPool.sol\":1794:1825  _amount * address(this).balance */\n      tag_151\n      swap2\n      swap1\n      tag_97\n      jump\t// in\n    tag_151:\n        /* \"contracts/LiquidityPool.sol\":1786:1791  kLast */\n      0x01\n        /* \"contracts/LiquidityPool.sol\":1786:1825  kLast = _amount * address(this).balance */\n      dup2\n      swap1\n      sstore\n      pop\n        /* \"contracts/LiquidityPool.sol\":1835:1843  update() */\n      tag_152\n        /* \"contracts/LiquidityPool.sol\":1835:1841  update */\n      tag_51\n        /* \"contracts/LiquidityPool.sol\":1835:1843  update() */\n      jump\t// in\n    tag_152:\n        /* \"contracts/LiquidityPool.sol\":802:844  0xe2899bddFD890e320e643044c6b95B9B0b84157A */\n      0xe2899bddfd890e320e643044c6b95b9b0b84157a\n        /* \"contracts/LiquidityPool.sol\":1853:1880  IERC20(ltrAddress).transfer */\n      0xffffffffffffffffffffffffffffffffffffffff\n      and\n      0xa9059cbb\n        /* \"contracts/LiquidityPool.sol\":1881:1891  msg.sender */\n      caller\n        /* \"contracts/LiquidityPool.sol\":1893:1909  Math.sqrt(kLast) */\n      tag_153\n        /* \"contracts/LiquidityPool.sol\":1903:1908  kLast */\n      sload(0x01)\n        /* \"contracts/LiquidityPool.sol\":1893:1902  Math.sqrt */\n      tag_154\n        /* \"contracts/LiquidityPool.sol\":1893:1909  Math.sqrt(kLast) */\n      jump\t// in\n    tag_153:\n        /* \"contracts/LiquidityPool.sol\":1853:1910  IERC20(ltrAddress).transfer(msg.sender, Math.sqrt(kLast)) */\n      mload(0x40)\n      dup4\n      0xffffffff\n      and\n      0xe0\n      shl\n      dup2\n      mstore\n      0x04\n      add\n      tag_155\n      swap3\n      swap2\n      swap1\n      tag_124\n      jump\t// in\n    tag_155:\n      0x20\n      mload(0x40)\n      dup1\n      dup4\n      sub\n      dup2\n      0x00\n      dup8\n      gas\n      call\n      iszero\n      dup1\n      iszero\n      tag_157\n      jumpi\n      returndatasize\n      0x00\n      dup1\n      returndatacopy\n      revert(0x00, returndatasize)\n    tag_157:\n      pop\n      pop\n      pop\n      pop\n      mload(0x40)\n      returndatasize\n      not(0x1f)\n      0x1f\n      dup3\n      add\n      and\n      dup3\n      add\n      dup1\n      0x40\n      mstore\n      pop\n      dup2\n      add\n      swap1\n      tag_158\n      swap2\n      swap1\n      tag_93\n      jump\t// in\n    tag_158:\n      pop\n        /* \"contracts/LiquidityPool.sol\":1925:1963  liquidityProvided(msg.sender, _amount) */\n      0xb62268a18d99fe191ac8e62f823ab1eec698609a81b2c8de3dac902896b09da6\n        /* \"contracts/LiquidityPool.sol\":1943:1953  msg.sender */\n      caller\n        /* \"contracts/LiquidityPool.sol\":1955:1962  _amount */\n      dup3\n        /* \"contracts/LiquidityPool.sol\":1925:1963  liquidityProvided(msg.sender, _amount) */\n      mload(0x40)\n      tag_159\n      swap3\n      swap2\n      swap1\n      tag_124\n      jump\t// in\n    tag_159:\n      mload(0x40)\n      dup1\n      swap2\n      sub\n      swap1\n      log1\n        /* \"contracts/LiquidityPool.sol\":1465:1970  function provideLiquidity(uint256 _amount) external payable {... */\n      pop\n      jump\t// out\n        /* \"contracts/LiquidityPool.sol\":739:766  address public reserveToken */\n    tag_66:\n      0x00\n      dup1\n      sload\n      swap1\n      0x0100\n      exp\n      swap1\n      div\n      0xffffffffffffffffffffffffffffffffffffffff\n      and\n      dup2\n      jump\t// out\n        /* \"contracts/LiquidityPool.sol\":1976:2533  function reedemShares(uint256 _sharesAmount) public {... */\n    tag_72:\n        /* \"contracts/LiquidityPool.sol\":2062:2063  0 */\n      0x00\n        /* \"contracts/LiquidityPool.sol\":2046:2059  _sharesAmount */\n      dup2\n        /* \"contracts/LiquidityPool.sol\":2046:2063  _sharesAmount > 0 */\n      gt\n        /* \"contracts/LiquidityPool.sol\":2038:2092  require(_sharesAmount > 0, \"Invalid amount of shares\") */\n      tag_161\n      jumpi\n      mload(0x40)\n      0x08c379a000000000000000000000000000000000000000000000000000000000\n      dup2\n      mstore\n      0x04\n      add\n      tag_162\n      swap1\n      tag_163\n      jump\t// in\n    tag_162:\n      mload(0x40)\n      dup1\n      swap2\n      sub\n      swap1\n      revert\n    tag_161:\n        /* \"contracts/LiquidityPool.sol\":2169:2182  _sharesAmount */\n      dup1\n        /* \"contracts/LiquidityPool.sol\":802:844  0xe2899bddFD890e320e643044c6b95B9B0b84157A */\n      0xe2899bddfd890e320e643044c6b95b9b0b84157a\n        /* \"contracts/LiquidityPool.sol\":2110:2138  IERC20(ltrAddress).allowance */\n      0xffffffffffffffffffffffffffffffffffffffff\n      and\n      0xdd62ed3e\n        /* \"contracts/LiquidityPool.sol\":2139:2149  msg.sender */\n      caller\n        /* \"contracts/LiquidityPool.sol\":2159:2163  this */\n      address\n        /* \"contracts/LiquidityPool.sol\":2110:2165  IERC20(ltrAddress).allowance(msg.sender, address(this)) */\n      mload(0x40)\n      dup4\n      0xffffffff\n      and\n      0xe0\n      shl\n      dup2\n      mstore\n      0x04\n      add\n      tag_164\n      swap3\n      swap2\n      swap1\n      tag_76\n      jump\t// in\n    tag_164:\n      0x20\n      mload(0x40)\n      dup1\n      dup4\n      sub\n      dup2\n      dup7\n      gas\n      staticcall\n      iszero\n      dup1\n      iszero\n      tag_166\n      jumpi\n      returndatasize\n      0x00\n      dup1\n      returndatacopy\n      revert(0x00, returndatasize)\n    tag_166:\n      pop\n      pop\n      pop\n      pop\n      mload(0x40)\n      returndatasize\n      not(0x1f)\n      0x1f\n      dup3\n      add\n      and\n      dup3\n      add\n      dup1\n      0x40\n      mstore\n      pop\n      dup2\n      add\n      swap1\n      tag_167\n      swap2\n      swap1\n      tag_80\n      jump\t// in\n    tag_167:\n        /* \"contracts/LiquidityPool.sol\":2110:2182  IERC20(ltrAddress).allowance(msg.sender, address(this)) >= _sharesAmount */\n      lt\n      iszero\n        /* \"contracts/LiquidityPool.sol\":2102:2252  require(IERC20(ltrAddress).allowance(msg.sender, address(this)) >= _sharesAmount, \"Please approve the contract to deduct ltr tokens from your wallet\") */\n      tag_168\n      jumpi\n      mload(0x40)\n      0x08c379a000000000000000000000000000000000000000000000000000000000\n      dup2\n      mstore\n      0x04\n      add\n      tag_169\n      swap1\n      tag_170\n      jump\t// in\n    tag_169:\n      mload(0x40)\n      dup1\n      swap2\n      sub\n      swap1\n      revert\n    tag_168:\n        /* \"contracts/LiquidityPool.sol\":802:844  0xe2899bddFD890e320e643044c6b95B9B0b84157A */\n      0xe2899bddfd890e320e643044c6b95b9b0b84157a\n        /* \"contracts/LiquidityPool.sol\":2263:2294  IERC20(ltrAddress).transferFrom */\n      0xffffffffffffffffffffffffffffffffffffffff\n      and\n      0x23b872dd\n        /* \"contracts/LiquidityPool.sol\":2295:2305  msg.sender */\n      caller\n        /* \"contracts/LiquidityPool.sol\":2315:2319  this */\n      address\n        /* \"contracts/LiquidityPool.sol\":2322:2335  _sharesAmount */\n      dup5\n        /* \"contracts/LiquidityPool.sol\":2263:2336  IERC20(ltrAddress).transferFrom(msg.sender, address(this), _sharesAmount) */\n      mload(0x40)\n      dup5\n      0xffffffff\n      and\n      0xe0\n      shl\n      dup2\n      mstore\n      0x04\n      add\n      tag_171\n      swap4\n      swap3\n      swap2\n      swap1\n      tag_89\n      jump\t// in\n    tag_171:\n      0x20\n      mload(0x40)\n      dup1\n      dup4\n      sub\n      dup2\n      0x00\n      dup8\n      gas\n      call\n      iszero\n      dup1\n      iszero\n      tag_173\n      jumpi\n      returndatasize\n      0x00\n      dup1\n      returndatacopy\n      revert(0x00, returndatasize)\n    tag_173:\n      pop\n      pop\n      pop\n      pop\n      mload(0x40)\n      returndatasize\n      not(0x1f)\n      0x1f\n      dup3\n      add\n      and\n      dup3\n      add\n      dup1\n      0x40\n      mstore\n      pop\n      dup2\n      add\n      swap1\n      tag_174\n      swap2\n      swap1\n      tag_93\n      jump\t// in\n    tag_174:\n      pop\n        /* \"contracts/LiquidityPool.sol\":2353:2365  reserveToken */\n      0x00\n      dup1\n      sload\n      swap1\n      0x0100\n      exp\n      swap1\n      div\n      0xffffffffffffffffffffffffffffffffffffffff\n      and\n        /* \"contracts/LiquidityPool.sol\":2346:2375  IERC20(reserveToken).transfer */\n      0xffffffffffffffffffffffffffffffffffffffff\n      and\n      0xa9059cbb\n        /* \"contracts/LiquidityPool.sol\":2376:2386  msg.sender */\n      caller\n        /* \"contracts/LiquidityPool.sol\":2388:2401  _sharesAmount */\n      dup4\n        /* \"contracts/LiquidityPool.sol\":2346:2402  IERC20(reserveToken).transfer(msg.sender, _sharesAmount) */\n      mload(0x40)\n      dup4\n      0xffffffff\n      and\n      0xe0\n      shl\n      dup2\n      mstore\n      0x04\n      add\n      tag_175\n      swap3\n      swap2\n      swap1\n      tag_124\n      jump\t// in\n    tag_175:\n      0x20\n      mload(0x40)\n      dup1\n      dup4\n      sub\n      dup2\n      0x00\n      dup8\n      gas\n      call\n      iszero\n      dup1\n      iszero\n      tag_177\n      jumpi\n      returndatasize\n      0x00\n      dup1\n      returndatacopy\n      revert(0x00, returndatasize)\n    tag_177:\n      pop\n      pop\n      pop\n      pop\n      mload(0x40)\n      returndatasize\n      not(0x1f)\n      0x1f\n      dup3\n      add\n      and\n      dup3\n      add\n      dup1\n      0x40\n      mstore\n      pop\n      dup2\n      add\n      swap1\n      tag_178\n      swap2\n      swap1\n      tag_93\n      jump\t// in\n    tag_178:\n      pop\n        /* \"contracts/LiquidityPool.sol\":2413:2425  bool success */\n      0x00\n        /* \"contracts/LiquidityPool.sol\":2439:2449  msg.sender */\n      caller\n        /* \"contracts/LiquidityPool.sol\":2431:2455  payable(msg.sender).call */\n      0xffffffffffffffffffffffffffffffffffffffff\n      and\n        /* \"contracts/LiquidityPool.sol\":2463:2476  _sharesAmount */\n      dup3\n        /* \"contracts/LiquidityPool.sol\":2431:2481  payable(msg.sender).call{value: _sharesAmount}(\"\") */\n      mload(0x40)\n      tag_179\n      swap1\n      tag_101\n      jump\t// in\n    tag_179:\n      0x00\n      mload(0x40)\n      dup1\n      dup4\n      sub\n      dup2\n      dup6\n      dup8\n      gas\n      call\n      swap3\n      pop\n      pop\n      pop\n      returndatasize\n      dup1\n      0x00\n      dup2\n      eq\n      tag_182\n      jumpi\n      mload(0x40)\n      swap2\n      pop\n      and(add(returndatasize, 0x3f), not(0x1f))\n      dup3\n      add\n      0x40\n      mstore\n      returndatasize\n      dup3\n      mstore\n      returndatasize\n      0x00\n      0x20\n      dup5\n      add\n      returndatacopy\n      jump(tag_181)\n    tag_182:\n      0x60\n      swap2\n      pop\n    tag_181:\n      pop\n        /* \"contracts/LiquidityPool.sol\":2412:2481  (bool success, ) = payable(msg.sender).call{value: _sharesAmount}(\"\") */\n      pop\n      swap1\n      pop\n        /* \"contracts/LiquidityPool.sol\":2499:2506  success */\n      dup1\n        /* \"contracts/LiquidityPool.sol\":2491:2526  require(success, \"Transfer failed\") */\n      tag_183\n      jumpi\n      mload(0x40)\n      0x08c379a000000000000000000000000000000000000000000000000000000000\n      dup2\n      mstore\n      0x04\n      add\n      tag_184\n      swap1\n      tag_185\n      jump\t// in\n    tag_184:\n      mload(0x40)\n      dup1\n      swap2\n      sub\n      swap1\n      revert\n    tag_183:\n        /* \"contracts/LiquidityPool.sol\":2028:2533  {... */\n      pop\n        /* \"contracts/LiquidityPool.sol\":1976:2533  function reedemShares(uint256 _sharesAmount) public {... */\n      pop\n      jump\t// out\n        /* \"@openzeppelin/contracts/utils/math/Math.sol\":6281:8487  function sqrt(uint256 a) internal pure returns (uint256) {... */\n    tag_154:\n        /* \"@openzeppelin/contracts/utils/math/Math.sol\":6329:6336  uint256 */\n      0x00\n        /* \"@openzeppelin/contracts/utils/math/Math.sol\":6357:6358  0 */\n      dup1\n        /* \"@openzeppelin/contracts/utils/math/Math.sol\":6352:6353  a */\n      dup3\n        /* \"@openzeppelin/contracts/utils/math/Math.sol\":6352:6358  a == 0 */\n      sub\n        /* \"@openzeppelin/contracts/utils/math/Math.sol\":6348:6393  if (a == 0) {... */\n      tag_187\n      jumpi\n        /* \"@openzeppelin/contracts/utils/math/Math.sol\":6381:6382  0 */\n      0x00\n        /* \"@openzeppelin/contracts/utils/math/Math.sol\":6374:6382  return 0 */\n      swap1\n      pop\n      jump(tag_186)\n        /* \"@openzeppelin/contracts/utils/math/Math.sol\":6348:6393  if (a == 0) {... */\n    tag_187:\n        /* \"@openzeppelin/contracts/utils/math/Math.sol\":7058:7072  uint256 result */\n      0x00\n        /* \"@openzeppelin/contracts/utils/math/Math.sol\":7075:7076  1 */\n      0x01\n        /* \"@openzeppelin/contracts/utils/math/Math.sol\":7058:7076  uint256 result = 1 */\n      swap1\n      pop\n        /* \"@openzeppelin/contracts/utils/math/Math.sol\":7086:7095  uint256 x */\n      0x00\n        /* \"@openzeppelin/contracts/utils/math/Math.sol\":7098:7099  a */\n      dup4\n        /* \"@openzeppelin/contracts/utils/math/Math.sol\":7086:7099  uint256 x = a */\n      swap1\n      pop\n        /* \"@openzeppelin/contracts/utils/math/Math.sol\":7124:7125  0 */\n      0x00\n        /* \"@openzeppelin/contracts/utils/math/Math.sol\":7118:7121  128 */\n      0x80\n        /* \"@openzeppelin/contracts/utils/math/Math.sol\":7113:7114  x */\n      dup3\n        /* \"@openzeppelin/contracts/utils/math/Math.sol\":7113:7121  x >> 128 */\n      swap1\n      shr\n        /* \"@openzeppelin/contracts/utils/math/Math.sol\":7113:7125  x >> 128 > 0 */\n      gt\n        /* \"@openzeppelin/contracts/utils/math/Math.sol\":7109:7188  if (x >> 128 > 0) {... */\n      iszero\n      tag_188\n      jumpi\n        /* \"@openzeppelin/contracts/utils/math/Math.sol\":7147:7150  128 */\n      0x80\n        /* \"@openzeppelin/contracts/utils/math/Math.sol\":7141:7150  x >>= 128 */\n      dup2\n      swap1\n      shr\n      swap1\n      pop\n        /* \"@openzeppelin/contracts/utils/math/Math.sol\":7175:7177  64 */\n      0x40\n        /* \"@openzeppelin/contracts/utils/math/Math.sol\":7164:7177  result <<= 64 */\n      dup3\n      swap1\n      shl\n      swap2\n      pop\n        /* \"@openzeppelin/contracts/utils/math/Math.sol\":7109:7188  if (x >> 128 > 0) {... */\n    tag_188:\n        /* \"@openzeppelin/contracts/utils/math/Math.sol\":7211:7212  0 */\n      0x00\n        /* \"@openzeppelin/contracts/utils/math/Math.sol\":7206:7208  64 */\n      0x40\n        /* \"@openzeppelin/contracts/utils/math/Math.sol\":7201:7202  x */\n      dup3\n        /* \"@openzeppelin/contracts/utils/math/Math.sol\":7201:7208  x >> 64 */\n      swap1\n      shr\n        /* \"@openzeppelin/contracts/utils/math/Math.sol\":7201:7212  x >> 64 > 0 */\n      gt\n        /* \"@openzeppelin/contracts/utils/math/Math.sol\":7197:7274  if (x >> 64 > 0) {... */\n      iszero\n      tag_189\n      jumpi\n        /* \"@openzeppelin/contracts/utils/math/Math.sol\":7234:7236  64 */\n      0x40\n        /* \"@openzeppelin/contracts/utils/math/Math.sol\":7228:7236  x >>= 64 */\n      dup2\n      swap1\n      shr\n      swap1\n      pop\n        /* \"@openzeppelin/contracts/utils/math/Math.sol\":7261:7263  32 */\n      0x20\n        /* \"@openzeppelin/contracts/utils/math/Math.sol\":7250:7263  result <<= 32 */\n      dup3\n      swap1\n      shl\n      swap2\n      pop\n        /* \"@openzeppelin/contracts/utils/math/Math.sol\":7197:7274  if (x >> 64 > 0) {... */\n    tag_189:\n        /* \"@openzeppelin/contracts/utils/math/Math.sol\":7297:7298  0 */\n      0x00\n        /* \"@openzeppelin/contracts/utils/math/Math.sol\":7292:7294  32 */\n      0x20\n        /* \"@openzeppelin/contracts/utils/math/Math.sol\":7287:7288  x */\n      dup3\n        /* \"@openzeppelin/contracts/utils/math/Math.sol\":7287:7294  x >> 32 */\n      swap1\n      shr\n        /* \"@openzeppelin/contracts/utils/math/Math.sol\":7287:7298  x >> 32 > 0 */\n      gt\n        /* \"@openzeppelin/contracts/utils/math/Math.sol\":7283:7360  if (x >> 32 > 0) {... */\n      iszero\n      tag_190\n      jumpi\n        /* \"@openzeppelin/contracts/utils/math/Math.sol\":7320:7322  32 */\n      0x20\n        /* \"@openzeppelin/contracts/utils/math/Math.sol\":7314:7322  x >>= 32 */\n      dup2\n      swap1\n      shr\n      swap1\n      pop\n        /* \"@openzeppelin/contracts/utils/math/Math.sol\":7347:7349  16 */\n      0x10\n        /* \"@openzeppelin/contracts/utils/math/Math.sol\":7336:7349  result <<= 16 */\n      dup3\n      swap1\n      shl\n      swap2\n      pop\n        /* \"@openzeppelin/contracts/utils/math/Math.sol\":7283:7360  if (x >> 32 > 0) {... */\n    tag_190:\n        /* \"@openzeppelin/contracts/utils/math/Math.sol\":7383:7384  0 */\n      0x00\n        /* \"@openzeppelin/contracts/utils/math/Math.sol\":7378:7380  16 */\n      0x10\n        /* \"@openzeppelin/contracts/utils/math/Math.sol\":7373:7374  x */\n      dup3\n        /* \"@openzeppelin/contracts/utils/math/Math.sol\":7373:7380  x >> 16 */\n      swap1\n      shr\n        /* \"@openzeppelin/contracts/utils/math/Math.sol\":7373:7384  x >> 16 > 0 */\n      gt\n        /* \"@openzeppelin/contracts/utils/math/Math.sol\":7369:7445  if (x >> 16 > 0) {... */\n      iszero\n      tag_191\n      jumpi\n        /* \"@openzeppelin/contracts/utils/math/Math.sol\":7406:7408  16 */\n      0x10\n        /* \"@openzeppelin/contracts/utils/math/Math.sol\":7400:7408  x >>= 16 */\n      dup2\n      swap1\n      shr\n      swap1\n      pop\n        /* \"@openzeppelin/contracts/utils/math/Math.sol\":7433:7434  8 */\n      0x08\n        /* \"@openzeppelin/contracts/utils/math/Math.sol\":7422:7434  result <<= 8 */\n      dup3\n      swap1\n      shl\n      swap2\n      pop\n        /* \"@openzeppelin/contracts/utils/math/Math.sol\":7369:7445  if (x >> 16 > 0) {... */\n    tag_191:\n        /* \"@openzeppelin/contracts/utils/math/Math.sol\":7467:7468  0 */\n      0x00\n        /* \"@openzeppelin/contracts/utils/math/Math.sol\":7463:7464  8 */\n      0x08\n        /* \"@openzeppelin/contracts/utils/math/Math.sol\":7458:7459  x */\n      dup3\n        /* \"@openzeppelin/contracts/utils/math/Math.sol\":7458:7464  x >> 8 */\n      swap1\n      shr\n        /* \"@openzeppelin/contracts/utils/math/Math.sol\":7458:7468  x >> 8 > 0 */\n      gt\n        /* \"@openzeppelin/contracts/utils/math/Math.sol\":7454:7528  if (x >> 8 > 0) {... */\n      iszero\n      tag_192\n      jumpi\n        /* \"@openzeppelin/contracts/utils/math/Math.sol\":7490:7491  8 */\n      0x08\n        /* \"@openzeppelin/contracts/utils/math/Math.sol\":7484:7491  x >>= 8 */\n      dup2\n      swap1\n      shr\n      swap1\n      pop\n        /* \"@openzeppelin/contracts/utils/math/Math.sol\":7516:7517  4 */\n      0x04\n        /* \"@openzeppelin/contracts/utils/math/Math.sol\":7505:7517  result <<= 4 */\n      dup3\n      swap1\n      shl\n      swap2\n      pop\n        /* \"@openzeppelin/contracts/utils/math/Math.sol\":7454:7528  if (x >> 8 > 0) {... */\n    tag_192:\n        /* \"@openzeppelin/contracts/utils/math/Math.sol\":7550:7551  0 */\n      0x00\n        /* \"@openzeppelin/contracts/utils/math/Math.sol\":7546:7547  4 */\n      0x04\n        /* \"@openzeppelin/contracts/utils/math/Math.sol\":7541:7542  x */\n      dup3\n        /* \"@openzeppelin/contracts/utils/math/Math.sol\":7541:7547  x >> 4 */\n      swap1\n      shr\n        /* \"@openzeppelin/contracts/utils/math/Math.sol\":7541:7551  x >> 4 > 0 */\n      gt\n        /* \"@openzeppelin/contracts/utils/math/Math.sol\":7537:7611  if (x >> 4 > 0) {... */\n      iszero\n      tag_193\n      jumpi\n        /* \"@openzeppelin/contracts/utils/math/Math.sol\":7573:7574  4 */\n      0x04\n        /* \"@openzeppelin/contracts/utils/math/Math.sol\":7567:7574  x >>= 4 */\n      dup2\n      swap1\n      shr\n      swap1\n      pop\n        /* \"@openzeppelin/contracts/utils/math/Math.sol\":7599:7600  2 */\n      0x02\n        /* \"@openzeppelin/contracts/utils/math/Math.sol\":7588:7600  result <<= 2 */\n      dup3\n      swap1\n      shl\n      swap2\n      pop\n        /* \"@openzeppelin/contracts/utils/math/Math.sol\":7537:7611  if (x >> 4 > 0) {... */\n    tag_193:\n        /* \"@openzeppelin/contracts/utils/math/Math.sol\":7633:7634  0 */\n      0x00\n        /* \"@openzeppelin/contracts/utils/math/Math.sol\":7629:7630  2 */\n      0x02\n        /* \"@openzeppelin/contracts/utils/math/Math.sol\":7624:7625  x */\n      dup3\n        /* \"@openzeppelin/contracts/utils/math/Math.sol\":7624:7630  x >> 2 */\n      swap1\n      shr\n        /* \"@openzeppelin/contracts/utils/math/Math.sol\":7624:7634  x >> 2 > 0 */\n      gt\n        /* \"@openzeppelin/contracts/utils/math/Math.sol\":7620:7673  if (x >> 2 > 0) {... */\n      iszero\n      tag_194\n      jumpi\n        /* \"@openzeppelin/contracts/utils/math/Math.sol\":7661:7662  1 */\n      0x01\n        /* \"@openzeppelin/contracts/utils/math/Math.sol\":7650:7662  result <<= 1 */\n      dup3\n      swap1\n      shl\n      swap2\n      pop\n        /* \"@openzeppelin/contracts/utils/math/Math.sol\":7620:7673  if (x >> 2 > 0) {... */\n    tag_194:\n        /* \"@openzeppelin/contracts/utils/math/Math.sol\":8131:8132  1 */\n      0x01\n        /* \"@openzeppelin/contracts/utils/math/Math.sol\":8120:8126  result */\n      dup3\n        /* \"@openzeppelin/contracts/utils/math/Math.sol\":8116:8117  a */\n      dup6\n        /* \"@openzeppelin/contracts/utils/math/Math.sol\":8116:8126  a / result */\n      dup2\n      tag_195\n      jumpi\n      tag_196\n      tag_197\n      jump\t// in\n    tag_196:\n    tag_195:\n      div\n        /* \"@openzeppelin/contracts/utils/math/Math.sol\":8107:8113  result */\n      dup4\n        /* \"@openzeppelin/contracts/utils/math/Math.sol\":8107:8126  result + a / result */\n      add\n        /* \"@openzeppelin/contracts/utils/math/Math.sol\":8106:8132  (result + a / result) >> 1 */\n      swap1\n      shr\n        /* \"@openzeppelin/contracts/utils/math/Math.sol\":8097:8132  result = (result + a / result) >> 1 */\n      swap2\n      pop\n        /* \"@openzeppelin/contracts/utils/math/Math.sol\":8180:8181  1 */\n      0x01\n        /* \"@openzeppelin/contracts/utils/math/Math.sol\":8169:8175  result */\n      dup3\n        /* \"@openzeppelin/contracts/utils/math/Math.sol\":8165:8166  a */\n      dup6\n        /* \"@openzeppelin/contracts/utils/math/Math.sol\":8165:8175  a / result */\n      dup2\n      tag_198\n      jumpi\n      tag_199\n      tag_197\n      jump\t// in\n    tag_199:\n    tag_198:\n      div\n        /* \"@openzeppelin/contracts/utils/math/Math.sol\":8156:8162  result */\n      dup4\n        /* \"@openzeppelin/contracts/utils/math/Math.sol\":8156:8175  result + a / result */\n      add\n        /* \"@openzeppelin/contracts/utils/math/Math.sol\":8155:8181  (result + a / result) >> 1 */\n      swap1\n      shr\n        /* \"@openzeppelin/contracts/utils/math/Math.sol\":8146:8181  result = (result + a / result) >> 1 */\n      swap2\n      pop\n        /* \"@openzeppelin/contracts/utils/math/Math.sol\":8229:8230  1 */\n      0x01\n        /* \"@openzeppelin/contracts/utils/math/Math.sol\":8218:8224  result */\n      dup3\n        /* \"@openzeppelin/contracts/utils/math/Math.sol\":8214:8215  a */\n      dup6\n        /* \"@openzeppelin/contracts/utils/math/Math.sol\":8214:8224  a / result */\n      dup2\n      tag_200\n      jumpi\n      tag_201\n      tag_197\n      jump\t// in\n    tag_201:\n    tag_200:\n      div\n        /* \"@openzeppelin/contracts/utils/math/Math.sol\":8205:8211  result */\n      dup4\n        /* \"@openzeppelin/contracts/utils/math/Math.sol\":8205:8224  result + a / result */\n      add\n        /* \"@openzeppelin/contracts/utils/math/Math.sol\":8204:8230  (result + a / result) >> 1 */\n      swap1\n      shr\n        /* \"@openzeppelin/contracts/utils/math/Math.sol\":8195:8230  result = (result + a / result) >> 1 */\n      swap2\n      pop\n        /* \"@openzeppelin/contracts/utils/math/Math.sol\":8278:8279  1 */\n      0x01\n        /* \"@openzeppelin/contracts/utils/math/Math.sol\":8267:8273  result */\n      dup3\n        /* \"@openzeppelin/contracts/utils/math/Math.sol\":8263:8264  a */\n      dup6\n        /* \"@openzeppelin/contracts/utils/math/Math.sol\":8263:8273  a / result */\n      dup2\n      tag_202\n      jumpi\n      tag_203\n      tag_197\n      jump\t// in\n    tag_203:\n    tag_202:\n      div\n        /* \"@openzeppelin/contracts/utils/math/Math.sol\":8254:8260  result */\n      dup4\n        /* \"@openzeppelin/contracts/utils/math/Math.sol\":8254:8273  result + a / result */\n      add\n        /* \"@openzeppelin/contracts/utils/math/Math.sol\":8253:8279  (result + a / result) >> 1 */\n      swap1\n      shr\n        /* \"@openzeppelin/contracts/utils/math/Math.sol\":8244:8279  result = (result + a / result) >> 1 */\n      swap2\n      pop\n        /* \"@openzeppelin/contracts/utils/math/Math.sol\":8327:8328  1 */\n      0x01\n        /* \"@openzeppelin/contracts/utils/math/Math.sol\":8316:8322  result */\n      dup3\n        /* \"@openzeppelin/contracts/utils/math/Math.sol\":8312:8313  a */\n      dup6\n        /* \"@openzeppelin/contracts/utils/math/Math.sol\":8312:8322  a / result */\n      dup2\n      tag_204\n      jumpi\n      tag_205\n      tag_197\n      jump\t// in\n    tag_205:\n    tag_204:\n      div\n        /* \"@openzeppelin/contracts/utils/math/Math.sol\":8303:8309  result */\n      dup4\n        /* \"@openzeppelin/contracts/utils/math/Math.sol\":8303:8322  result + a / result */\n      add\n        /* \"@openzeppelin/contracts/utils/math/Math.sol\":8302:8328  (result + a / result) >> 1 */\n      swap1\n      shr\n        /* \"@openzeppelin/contracts/utils/math/Math.sol\":8293:8328  result = (result + a / result) >> 1 */\n      swap2\n      pop\n        /* \"@openzeppelin/contracts/utils/math/Math.sol\":8376:8377  1 */\n      0x01\n        /* \"@openzeppelin/contracts/utils/math/Math.sol\":8365:8371  result */\n      dup3\n        /* \"@openzeppelin/contracts/utils/math/Math.sol\":8361:8362  a */\n      dup6\n        /* \"@openzeppelin/contracts/utils/math/Math.sol\":8361:8371  a / result */\n      dup2\n      tag_206\n      jumpi\n      tag_207\n      tag_197\n      jump\t// in\n    tag_207:\n    tag_206:\n      div\n        /* \"@openzeppelin/contracts/utils/math/Math.sol\":8352:8358  result */\n      dup4\n        /* \"@openzeppelin/contracts/utils/math/Math.sol\":8352:8371  result + a / result */\n      add\n        /* \"@openzeppelin/contracts/utils/math/Math.sol\":8351:8377  (result + a / result) >> 1 */\n      swap1\n      shr\n        /* \"@openzeppelin/contracts/utils/math/Math.sol\":8342:8377  result = (result + a / result) >> 1 */\n      swap2\n      pop\n        /* \"@openzeppelin/contracts/utils/math/Math.sol\":8425:8426  1 */\n      0x01\n        /* \"@openzeppelin/contracts/utils/math/Math.sol\":8414:8420  result */\n      dup3\n        /* \"@openzeppelin/contracts/utils/math/Math.sol\":8410:8411  a */\n      dup6\n        /* \"@openzeppelin/contracts/utils/math/Math.sol\":8410:8420  a / result */\n      dup2\n      tag_208\n      jumpi\n      tag_209\n      tag_197\n      jump\t// in\n    tag_209:\n    tag_208:\n      div\n        /* \"@openzeppelin/contracts/utils/math/Math.sol\":8401:8407  result */\n      dup4\n        /* \"@openzeppelin/contracts/utils/math/Math.sol\":8401:8420  result + a / result */\n      add\n        /* \"@openzeppelin/contracts/utils/math/Math.sol\":8400:8426  (result + a / result) >> 1 */\n      swap1\n      shr\n        /* \"@openzeppelin/contracts/utils/math/Math.sol\":8391:8426  result = (result + a / result) >> 1 */\n      swap2\n      pop\n        /* \"@openzeppelin/contracts/utils/math/Math.sol\":8447:8470  min(result, a / result) */\n      tag_210\n        /* \"@openzeppelin/contracts/utils/math/Math.sol\":8451:8457  result */\n      dup3\n        /* \"@openzeppelin/contracts/utils/math/Math.sol\":8463:8469  result */\n      dup4\n        /* \"@openzeppelin/contracts/utils/math/Math.sol\":8459:8460  a */\n      dup7\n        /* \"@openzeppelin/contracts/utils/math/Math.sol\":8459:8469  a / result */\n      dup2\n      tag_211\n      jumpi\n      tag_212\n      tag_197\n      jump\t// in\n    tag_212:\n    tag_211:\n      div\n        /* \"@openzeppelin/contracts/utils/math/Math.sol\":8447:8450  min */\n      tag_213\n        /* \"@openzeppelin/contracts/utils/math/Math.sol\":8447:8470  min(result, a / result) */\n      jump\t// in\n    tag_210:\n        /* \"@openzeppelin/contracts/utils/math/Math.sol\":8440:8470  return min(result, a / result) */\n      swap3\n      pop\n      pop\n      pop\n        /* \"@openzeppelin/contracts/utils/math/Math.sol\":6281:8487  function sqrt(uint256 a) internal pure returns (uint256) {... */\n    tag_186:\n      swap2\n      swap1\n      pop\n      jump\t// out\n        /* \"@openzeppelin/contracts/utils/math/Math.sol\":589:693  function min(uint256 a, uint256 b) internal pure returns (uint256) {... */\n    tag_213:\n        /* \"@openzeppelin/contracts/utils/math/Math.sol\":647:654  uint256 */\n      0x00\n        /* \"@openzeppelin/contracts/utils/math/Math.sol\":677:678  b */\n      dup2\n        /* \"@openzeppelin/contracts/utils/math/Math.sol\":673:674  a */\n      dup4\n        /* \"@openzeppelin/contracts/utils/math/Math.sol\":673:678  a < b */\n      lt\n        /* \"@openzeppelin/contracts/utils/math/Math.sol\":673:686  a < b ? a : b */\n      tag_215\n      jumpi\n        /* \"@openzeppelin/contracts/utils/math/Math.sol\":685:686  b */\n      dup2\n        /* \"@openzeppelin/contracts/utils/math/Math.sol\":673:686  a < b ? a : b */\n      jump(tag_216)\n    tag_215:\n        /* \"@openzeppelin/contracts/utils/math/Math.sol\":681:682  a */\n      dup3\n        /* \"@openzeppelin/contracts/utils/math/Math.sol\":673:686  a < b ? a : b */\n    tag_216:\n        /* \"@openzeppelin/contracts/utils/math/Math.sol\":666:686  return a < b ? a : b */\n      swap1\n      pop\n        /* \"@openzeppelin/contracts/utils/math/Math.sol\":589:693  function min(uint256 a, uint256 b) internal pure returns (uint256) {... */\n      swap3\n      swap2\n      pop\n      pop\n      jump\t// out\n        /* \"#utility.yul\":7:84   */\n    tag_217:\n        /* \"#utility.yul\":44:51   */\n      0x00\n        /* \"#utility.yul\":73:78   */\n      dup2\n        /* \"#utility.yul\":62:78   */\n      swap1\n      pop\n        /* \"#utility.yul\":7:84   */\n      swap2\n      swap1\n      pop\n      jump\t// out\n        /* \"#utility.yul\":90:208   */\n    tag_218:\n        /* \"#utility.yul\":177:201   */\n      tag_253\n        /* \"#utility.yul\":195:200   */\n      dup2\n        /* \"#utility.yul\":177:201   */\n      tag_217\n      jump\t// in\n    tag_253:\n        /* \"#utility.yul\":172:175   */\n      dup3\n        /* \"#utility.yul\":165:202   */\n      mstore\n        /* \"#utility.yul\":90:208   */\n      pop\n      pop\n      jump\t// out\n        /* \"#utility.yul\":214:436   */\n    tag_23:\n        /* \"#utility.yul\":307:311   */\n      0x00\n        /* \"#utility.yul\":345:347   */\n      0x20\n        /* \"#utility.yul\":334:343   */\n      dup3\n        /* \"#utility.yul\":330:348   */\n      add\n        /* \"#utility.yul\":322:348   */\n      swap1\n      pop\n        /* \"#utility.yul\":358:429   */\n      tag_255\n        /* \"#utility.yul\":426:427   */\n      0x00\n        /* \"#utility.yul\":415:424   */\n      dup4\n        /* \"#utility.yul\":411:428   */\n      add\n        /* \"#utility.yul\":402:408   */\n      dup5\n        /* \"#utility.yul\":358:429   */\n      tag_218\n      jump\t// in\n    tag_255:\n        /* \"#utility.yul\":214:436   */\n      swap3\n      swap2\n      pop\n      pop\n      jump\t// out\n        /* \"#utility.yul\":523:640   */\n    tag_220:\n        /* \"#utility.yul\":632:633   */\n      0x00\n        /* \"#utility.yul\":629:630   */\n      dup1\n        /* \"#utility.yul\":622:634   */\n      revert\n        /* \"#utility.yul\":769:891   */\n    tag_222:\n        /* \"#utility.yul\":842:866   */\n      tag_260\n        /* \"#utility.yul\":860:865   */\n      dup2\n        /* \"#utility.yul\":842:866   */\n      tag_217\n      jump\t// in\n    tag_260:\n        /* \"#utility.yul\":835:840   */\n      dup2\n        /* \"#utility.yul\":832:867   */\n      eq\n        /* \"#utility.yul\":822:885   */\n      tag_261\n      jumpi\n        /* \"#utility.yul\":881:882   */\n      0x00\n        /* \"#utility.yul\":878:879   */\n      dup1\n        /* \"#utility.yul\":871:883   */\n      revert\n        /* \"#utility.yul\":822:885   */\n    tag_261:\n        /* \"#utility.yul\":769:891   */\n      pop\n      jump\t// out\n        /* \"#utility.yul\":897:1036   */\n    tag_223:\n        /* \"#utility.yul\":943:948   */\n      0x00\n        /* \"#utility.yul\":981:987   */\n      dup2\n        /* \"#utility.yul\":968:988   */\n      calldataload\n        /* \"#utility.yul\":959:988   */\n      swap1\n      pop\n        /* \"#utility.yul\":997:1030   */\n      tag_263\n        /* \"#utility.yul\":1024:1029   */\n      dup2\n        /* \"#utility.yul\":997:1030   */\n      tag_222\n      jump\t// in\n    tag_263:\n        /* \"#utility.yul\":897:1036   */\n      swap3\n      swap2\n      pop\n      pop\n      jump\t// out\n        /* \"#utility.yul\":1042:1371   */\n    tag_42:\n        /* \"#utility.yul\":1101:1107   */\n      0x00\n        /* \"#utility.yul\":1150:1152   */\n      0x20\n        /* \"#utility.yul\":1138:1147   */\n      dup3\n        /* \"#utility.yul\":1129:1136   */\n      dup5\n        /* \"#utility.yul\":1125:1148   */\n      sub\n        /* \"#utility.yul\":1121:1153   */\n      slt\n        /* \"#utility.yul\":1118:1237   */\n      iszero\n      tag_265\n      jumpi\n        /* \"#utility.yul\":1156:1235   */\n      tag_266\n      tag_220\n      jump\t// in\n    tag_266:\n        /* \"#utility.yul\":1118:1237   */\n    tag_265:\n        /* \"#utility.yul\":1276:1277   */\n      0x00\n        /* \"#utility.yul\":1301:1354   */\n      tag_267\n        /* \"#utility.yul\":1346:1353   */\n      dup5\n        /* \"#utility.yul\":1337:1343   */\n      dup3\n        /* \"#utility.yul\":1326:1335   */\n      dup6\n        /* \"#utility.yul\":1322:1344   */\n      add\n        /* \"#utility.yul\":1301:1354   */\n      tag_223\n      jump\t// in\n    tag_267:\n        /* \"#utility.yul\":1291:1354   */\n      swap2\n      pop\n        /* \"#utility.yul\":1247:1364   */\n      pop\n        /* \"#utility.yul\":1042:1371   */\n      swap3\n      swap2\n      pop\n      pop\n      jump\t// out\n        /* \"#utility.yul\":1377:1503   */\n    tag_224:\n        /* \"#utility.yul\":1414:1421   */\n      0x00\n        /* \"#utility.yul\":1454:1496   */\n      0xffffffffffffffffffffffffffffffffffffffff\n        /* \"#utility.yul\":1447:1452   */\n      dup3\n        /* \"#utility.yul\":1443:1497   */\n      and\n        /* \"#utility.yul\":1432:1497   */\n      swap1\n      pop\n        /* \"#utility.yul\":1377:1503   */\n      swap2\n      swap1\n      pop\n      jump\t// out\n        /* \"#utility.yul\":1509:1605   */\n    tag_225:\n        /* \"#utility.yul\":1546:1553   */\n      0x00\n        /* \"#utility.yul\":1575:1599   */\n      tag_270\n        /* \"#utility.yul\":1593:1598   */\n      dup3\n        /* \"#utility.yul\":1575:1599   */\n      tag_224\n      jump\t// in\n    tag_270:\n        /* \"#utility.yul\":1564:1599   */\n      swap1\n      pop\n        /* \"#utility.yul\":1509:1605   */\n      swap2\n      swap1\n      pop\n      jump\t// out\n        /* \"#utility.yul\":1611:1733   */\n    tag_226:\n        /* \"#utility.yul\":1684:1708   */\n      tag_272\n        /* \"#utility.yul\":1702:1707   */\n      dup2\n        /* \"#utility.yul\":1684:1708   */\n      tag_225\n      jump\t// in\n    tag_272:\n        /* \"#utility.yul\":1677:1682   */\n      dup2\n        /* \"#utility.yul\":1674:1709   */\n      eq\n        /* \"#utility.yul\":1664:1727   */\n      tag_273\n      jumpi\n        /* \"#utility.yul\":1723:1724   */\n      0x00\n        /* \"#utility.yul\":1720:1721   */\n      dup1\n        /* \"#utility.yul\":1713:1725   */\n      revert\n        /* \"#utility.yul\":1664:1727   */\n    tag_273:\n        /* \"#utility.yul\":1611:1733   */\n      pop\n      jump\t// out\n        /* \"#utility.yul\":1739:1878   */\n    tag_227:\n        /* \"#utility.yul\":1785:1790   */\n      0x00\n        /* \"#utility.yul\":1823:1829   */\n      dup2\n        /* \"#utility.yul\":1810:1830   */\n      calldataload\n        /* \"#utility.yul\":1801:1830   */\n      swap1\n      pop\n        /* \"#utility.yul\":1839:1872   */\n      tag_275\n        /* \"#utility.yul\":1866:1871   */\n      dup2\n        /* \"#utility.yul\":1839:1872   */\n      tag_226\n      jump\t// in\n    tag_275:\n        /* \"#utility.yul\":1739:1878   */\n      swap3\n      swap2\n      pop\n      pop\n      jump\t// out\n        /* \"#utility.yul\":1884:2358   */\n    tag_55:\n        /* \"#utility.yul\":1952:1958   */\n      0x00\n        /* \"#utility.yul\":1960:1966   */\n      dup1\n        /* \"#utility.yul\":2009:2011   */\n      0x40\n        /* \"#utility.yul\":1997:2006   */\n      dup4\n        /* \"#utility.yul\":1988:1995   */\n      dup6\n        /* \"#utility.yul\":1984:2007   */\n      sub\n        /* \"#utility.yul\":1980:2012   */\n      slt\n        /* \"#utility.yul\":1977:2096   */\n      iszero\n      tag_277\n      jumpi\n        /* \"#utility.yul\":2015:2094   */\n      tag_278\n      tag_220\n      jump\t// in\n    tag_278:\n        /* \"#utility.yul\":1977:2096   */\n    tag_277:\n        /* \"#utility.yul\":2135:2136   */\n      0x00\n        /* \"#utility.yul\":2160:2213   */\n      tag_279\n        /* \"#utility.yul\":2205:2212   */\n      dup6\n        /* \"#utility.yul\":2196:2202   */\n      dup3\n        /* \"#utility.yul\":2185:2194   */\n      dup7\n        /* \"#utility.yul\":2181:2203   */\n      add\n        /* \"#utility.yul\":2160:2213   */\n      tag_227\n      jump\t// in\n    tag_279:\n        /* \"#utility.yul\":2150:2213   */\n      swap3\n      pop\n        /* \"#utility.yul\":2106:2223   */\n      pop\n        /* \"#utility.yul\":2262:2264   */\n      0x20\n        /* \"#utility.yul\":2288:2341   */\n      tag_280\n        /* \"#utility.yul\":2333:2340   */\n      dup6\n        /* \"#utility.yul\":2324:2330   */\n      dup3\n        /* \"#utility.yul\":2313:2322   */\n      dup7\n        /* \"#utility.yul\":2309:2331   */\n      add\n        /* \"#utility.yul\":2288:2341   */\n      tag_223\n      jump\t// in\n    tag_280:\n        /* \"#utility.yul\":2278:2341   */\n      swap2\n      pop\n        /* \"#utility.yul\":2233:2351   */\n      pop\n        /* \"#utility.yul\":1884:2358   */\n      swap3\n      pop\n      swap3\n      swap1\n      pop\n      jump\t// out\n        /* \"#utility.yul\":2364:2482   */\n    tag_228:\n        /* \"#utility.yul\":2451:2475   */\n      tag_282\n        /* \"#utility.yul\":2469:2474   */\n      dup2\n        /* \"#utility.yul\":2451:2475   */\n      tag_225\n      jump\t// in\n    tag_282:\n        /* \"#utility.yul\":2446:2449   */\n      dup3\n        /* \"#utility.yul\":2439:2476   */\n      mstore\n        /* \"#utility.yul\":2364:2482   */\n      pop\n      pop\n      jump\t// out\n        /* \"#utility.yul\":2488:2710   */\n    tag_68:\n        /* \"#utility.yul\":2581:2585   */\n      0x00\n        /* \"#utility.yul\":2619:2621   */\n      0x20\n        /* \"#utility.yul\":2608:2617   */\n      dup3\n        /* \"#utility.yul\":2604:2622   */\n      add\n        /* \"#utility.yul\":2596:2622   */\n      swap1\n      pop\n        /* \"#utility.yul\":2632:2703   */\n      tag_284\n        /* \"#utility.yul\":2700:2701   */\n      0x00\n        /* \"#utility.yul\":2689:2698   */\n      dup4\n        /* \"#utility.yul\":2685:2702   */\n      add\n        /* \"#utility.yul\":2676:2682   */\n      dup5\n        /* \"#utility.yul\":2632:2703   */\n      tag_228\n      jump\t// in\n    tag_284:\n        /* \"#utility.yul\":2488:2710   */\n      swap3\n      swap2\n      pop\n      pop\n      jump\t// out\n        /* \"#utility.yul\":2716:3048   */\n    tag_76:\n        /* \"#utility.yul\":2837:2841   */\n      0x00\n        /* \"#utility.yul\":2875:2877   */\n      0x40\n        /* \"#utility.yul\":2864:2873   */\n      dup3\n        /* \"#utility.yul\":2860:2878   */\n      add\n        /* \"#utility.yul\":2852:2878   */\n      swap1\n      pop\n        /* \"#utility.yul\":2888:2959   */\n      tag_286\n        /* \"#utility.yul\":2956:2957   */\n      0x00\n        /* \"#utility.yul\":2945:2954   */\n      dup4\n        /* \"#utility.yul\":2941:2958   */\n      add\n        /* \"#utility.yul\":2932:2938   */\n      dup6\n        /* \"#utility.yul\":2888:2959   */\n      tag_228\n      jump\t// in\n    tag_286:\n        /* \"#utility.yul\":2969:3041   */\n      tag_287\n        /* \"#utility.yul\":3037:3039   */\n      0x20\n        /* \"#utility.yul\":3026:3035   */\n      dup4\n        /* \"#utility.yul\":3022:3040   */\n      add\n        /* \"#utility.yul\":3013:3019   */\n      dup5\n        /* \"#utility.yul\":2969:3041   */\n      tag_228\n      jump\t// in\n    tag_287:\n        /* \"#utility.yul\":2716:3048   */\n      swap4\n      swap3\n      pop\n      pop\n      pop\n      jump\t// out\n        /* \"#utility.yul\":3054:3197   */\n    tag_229:\n        /* \"#utility.yul\":3111:3116   */\n      0x00\n        /* \"#utility.yul\":3142:3148   */\n      dup2\n        /* \"#utility.yul\":3136:3149   */\n      mload\n        /* \"#utility.yul\":3127:3149   */\n      swap1\n      pop\n        /* \"#utility.yul\":3158:3191   */\n      tag_289\n        /* \"#utility.yul\":3185:3190   */\n      dup2\n        /* \"#utility.yul\":3158:3191   */\n      tag_222\n      jump\t// in\n    tag_289:\n        /* \"#utility.yul\":3054:3197   */\n      swap3\n      swap2\n      pop\n      pop\n      jump\t// out\n        /* \"#utility.yul\":3203:3554   */\n    tag_80:\n        /* \"#utility.yul\":3273:3279   */\n      0x00\n        /* \"#utility.yul\":3322:3324   */\n      0x20\n        /* \"#utility.yul\":3310:3319   */\n      dup3\n        /* \"#utility.yul\":3301:3308   */\n      dup5\n        /* \"#utility.yul\":3297:3320   */\n      sub\n        /* \"#utility.yul\":3293:3325   */\n      slt\n        /* \"#utility.yul\":3290:3409   */\n      iszero\n      tag_291\n      jumpi\n        /* \"#utility.yul\":3328:3407   */\n      tag_292\n      tag_220\n      jump\t// in\n    tag_292:\n        /* \"#utility.yul\":3290:3409   */\n    tag_291:\n        /* \"#utility.yul\":3448:3449   */\n      0x00\n        /* \"#utility.yul\":3473:3537   */\n      tag_293\n        /* \"#utility.yul\":3529:3536   */\n      dup5\n        /* \"#utility.yul\":3520:3526   */\n      dup3\n        /* \"#utility.yul\":3509:3518   */\n      dup6\n        /* \"#utility.yul\":3505:3527   */\n      add\n        /* \"#utility.yul\":3473:3537   */\n      tag_229\n      jump\t// in\n    tag_293:\n        /* \"#utility.yul\":3463:3537   */\n      swap2\n      pop\n        /* \"#utility.yul\":3419:3547   */\n      pop\n        /* \"#utility.yul\":3203:3554   */\n      swap3\n      swap2\n      pop\n      pop\n      jump\t// out\n        /* \"#utility.yul\":3560:3729   */\n    tag_230:\n        /* \"#utility.yul\":3644:3655   */\n      0x00\n        /* \"#utility.yul\":3678:3684   */\n      dup3\n        /* \"#utility.yul\":3673:3676   */\n      dup3\n        /* \"#utility.yul\":3666:3685   */\n      mstore\n        /* \"#utility.yul\":3718:3722   */\n      0x20\n        /* \"#utility.yul\":3713:3716   */\n      dup3\n        /* \"#utility.yul\":3709:3723   */\n      add\n        /* \"#utility.yul\":3694:3723   */\n      swap1\n      pop\n        /* \"#utility.yul\":3560:3729   */\n      swap3\n      swap2\n      pop\n      pop\n      jump\t// out\n        /* \"#utility.yul\":3735:3906   */\n    tag_231:\n        /* \"#utility.yul\":3875:3898   */\n      0x436f6e7472616374206e6f7420617070726f7665640000000000000000000000\n        /* \"#utility.yul\":3871:3872   */\n      0x00\n        /* \"#utility.yul\":3863:3869   */\n      dup3\n        /* \"#utility.yul\":3859:3873   */\n      add\n        /* \"#utility.yul\":3852:3899   */\n      mstore\n        /* \"#utility.yul\":3735:3906   */\n      pop\n      jump\t// out\n        /* \"#utility.yul\":3912:4278   */\n    tag_232:\n        /* \"#utility.yul\":4054:4057   */\n      0x00\n        /* \"#utility.yul\":4075:4142   */\n      tag_297\n        /* \"#utility.yul\":4139:4141   */\n      0x15\n        /* \"#utility.yul\":4134:4137   */\n      dup4\n        /* \"#utility.yul\":4075:4142   */\n      tag_230\n      jump\t// in\n    tag_297:\n        /* \"#utility.yul\":4068:4142   */\n      swap2\n      pop\n        /* \"#utility.yul\":4151:4244   */\n      tag_298\n        /* \"#utility.yul\":4240:4243   */\n      dup3\n        /* \"#utility.yul\":4151:4244   */\n      tag_231\n      jump\t// in\n    tag_298:\n        /* \"#utility.yul\":4269:4271   */\n      0x20\n        /* \"#utility.yul\":4264:4267   */\n      dup3\n        /* \"#utility.yul\":4260:4272   */\n      add\n        /* \"#utility.yul\":4253:4272   */\n      swap1\n      pop\n        /* \"#utility.yul\":3912:4278   */\n      swap2\n      swap1\n      pop\n      jump\t// out\n        /* \"#utility.yul\":4284:4703   */\n    tag_83:\n        /* \"#utility.yul\":4450:4454   */\n      0x00\n        /* \"#utility.yul\":4488:4490   */\n      0x20\n        /* \"#utility.yul\":4477:4486   */\n      dup3\n        /* \"#utility.yul\":4473:4491   */\n      add\n        /* \"#utility.yul\":4465:4491   */\n      swap1\n      pop\n        /* \"#utility.yul\":4537:4546   */\n      dup2\n        /* \"#utility.yul\":4531:4535   */\n      dup2\n        /* \"#utility.yul\":4527:4547   */\n      sub\n        /* \"#utility.yul\":4523:4524   */\n      0x00\n        /* \"#utility.yul\":4512:4521   */\n      dup4\n        /* \"#utility.yul\":4508:4525   */\n      add\n        /* \"#utility.yul\":4501:4548   */\n      mstore\n        /* \"#utility.yul\":4565:4696   */\n      tag_300\n        /* \"#utility.yul\":4691:4695   */\n      dup2\n        /* \"#utility.yul\":4565:4696   */\n      tag_232\n      jump\t// in\n    tag_300:\n        /* \"#utility.yul\":4557:4696   */\n      swap1\n      pop\n        /* \"#utility.yul\":4284:4703   */\n      swap2\n      swap1\n      pop\n      jump\t// out\n        /* \"#utility.yul\":4709:5151   */\n    tag_89:\n        /* \"#utility.yul\":4858:4862   */\n      0x00\n        /* \"#utility.yul\":4896:4898   */\n      0x60\n        /* \"#utility.yul\":4885:4894   */\n      dup3\n        /* \"#utility.yul\":4881:4899   */\n      add\n        /* \"#utility.yul\":4873:4899   */\n      swap1\n      pop\n        /* \"#utility.yul\":4909:4980   */\n      tag_302\n        /* \"#utility.yul\":4977:4978   */\n      0x00\n        /* \"#utility.yul\":4966:4975   */\n      dup4\n        /* \"#utility.yul\":4962:4979   */\n      add\n        /* \"#utility.yul\":4953:4959   */\n      dup7\n        /* \"#utility.yul\":4909:4980   */\n      tag_228\n      jump\t// in\n    tag_302:\n        /* \"#utility.yul\":4990:5062   */\n      tag_303\n        /* \"#utility.yul\":5058:5060   */\n      0x20\n        /* \"#utility.yul\":5047:5056   */\n      dup4\n        /* \"#utility.yul\":5043:5061   */\n      add\n        /* \"#utility.yul\":5034:5040   */\n      dup6\n        /* \"#utility.yul\":4990:5062   */\n      tag_228\n      jump\t// in\n    tag_303:\n        /* \"#utility.yul\":5072:5144   */\n      tag_304\n        /* \"#utility.yul\":5140:5142   */\n      0x40\n        /* \"#utility.yul\":5129:5138   */\n      dup4\n        /* \"#utility.yul\":5125:5143   */\n      add\n        /* \"#utility.yul\":5116:5122   */\n      dup5\n        /* \"#utility.yul\":5072:5144   */\n      tag_218\n      jump\t// in\n    tag_304:\n        /* \"#utility.yul\":4709:5151   */\n      swap5\n      swap4\n      pop\n      pop\n      pop\n      pop\n      jump\t// out\n        /* \"#utility.yul\":5157:5247   */\n    tag_233:\n        /* \"#utility.yul\":5191:5198   */\n      0x00\n        /* \"#utility.yul\":5234:5239   */\n      dup2\n        /* \"#utility.yul\":5227:5240   */\n      iszero\n        /* \"#utility.yul\":5220:5241   */\n      iszero\n        /* \"#utility.yul\":5209:5241   */\n      swap1\n      pop\n        /* \"#utility.yul\":5157:5247   */\n      swap2\n      swap1\n      pop\n      jump\t// out\n        /* \"#utility.yul\":5253:5369   */\n    tag_234:\n        /* \"#utility.yul\":5323:5344   */\n      tag_307\n        /* \"#utility.yul\":5338:5343   */\n      dup2\n        /* \"#utility.yul\":5323:5344   */\n      tag_233\n      jump\t// in\n    tag_307:\n        /* \"#utility.yul\":5316:5321   */\n      dup2\n        /* \"#utility.yul\":5313:5345   */\n      eq\n        /* \"#utility.yul\":5303:5363   */\n      tag_308\n      jumpi\n        /* \"#utility.yul\":5359:5360   */\n      0x00\n        /* \"#utility.yul\":5356:5357   */\n      dup1\n        /* \"#utility.yul\":5349:5361   */\n      revert\n        /* \"#utility.yul\":5303:5363   */\n    tag_308:\n        /* \"#utility.yul\":5253:5369   */\n      pop\n      jump\t// out\n        /* \"#utility.yul\":5375:5512   */\n    tag_235:\n        /* \"#utility.yul\":5429:5434   */\n      0x00\n        /* \"#utility.yul\":5460:5466   */\n      dup2\n        /* \"#utility.yul\":5454:5467   */\n      mload\n        /* \"#utility.yul\":5445:5467   */\n      swap1\n      pop\n        /* \"#utility.yul\":5476:5506   */\n      tag_310\n        /* \"#utility.yul\":5500:5505   */\n      dup2\n        /* \"#utility.yul\":5476:5506   */\n      tag_234\n      jump\t// in\n    tag_310:\n        /* \"#utility.yul\":5375:5512   */\n      swap3\n      swap2\n      pop\n      pop\n      jump\t// out\n        /* \"#utility.yul\":5518:5863   */\n    tag_93:\n        /* \"#utility.yul\":5585:5591   */\n      0x00\n        /* \"#utility.yul\":5634:5636   */\n      0x20\n        /* \"#utility.yul\":5622:5631   */\n      dup3\n        /* \"#utility.yul\":5613:5620   */\n      dup5\n        /* \"#utility.yul\":5609:5632   */\n      sub\n        /* \"#utility.yul\":5605:5637   */\n      slt\n        /* \"#utility.yul\":5602:5721   */\n      iszero\n      tag_312\n      jumpi\n        /* \"#utility.yul\":5640:5719   */\n      tag_313\n      tag_220\n      jump\t// in\n    tag_313:\n        /* \"#utility.yul\":5602:5721   */\n    tag_312:\n        /* \"#utility.yul\":5760:5761   */\n      0x00\n        /* \"#utility.yul\":5785:5846   */\n      tag_314\n        /* \"#utility.yul\":5838:5845   */\n      dup5\n        /* \"#utility.yul\":5829:5835   */\n      dup3\n        /* \"#utility.yul\":5818:5827   */\n      dup6\n        /* \"#utility.yul\":5814:5836   */\n      add\n        /* \"#utility.yul\":5785:5846   */\n      tag_235\n      jump\t// in\n    tag_314:\n        /* \"#utility.yul\":5775:5846   */\n      swap2\n      pop\n        /* \"#utility.yul\":5731:5856   */\n      pop\n        /* \"#utility.yul\":5518:5863   */\n      swap3\n      swap2\n      pop\n      pop\n      jump\t// out\n        /* \"#utility.yul\":5869:6049   */\n    tag_197:\n        /* \"#utility.yul\":5917:5994   */\n      0x4e487b7100000000000000000000000000000000000000000000000000000000\n        /* \"#utility.yul\":5914:5915   */\n      0x00\n        /* \"#utility.yul\":5907:5995   */\n      mstore\n        /* \"#utility.yul\":6014:6018   */\n      0x12\n        /* \"#utility.yul\":6011:6012   */\n      0x04\n        /* \"#utility.yul\":6004:6019   */\n      mstore\n        /* \"#utility.yul\":6038:6042   */\n      0x24\n        /* \"#utility.yul\":6035:6036   */\n      0x00\n        /* \"#utility.yul\":6028:6043   */\n      revert\n        /* \"#utility.yul\":6055:6235   */\n    tag_236:\n        /* \"#utility.yul\":6103:6180   */\n      0x4e487b7100000000000000000000000000000000000000000000000000000000\n        /* \"#utility.yul\":6100:6101   */\n      0x00\n        /* \"#utility.yul\":6093:6181   */\n      mstore\n        /* \"#utility.yul\":6200:6204   */\n      0x11\n        /* \"#utility.yul\":6197:6198   */\n      0x04\n        /* \"#utility.yul\":6190:6205   */\n      mstore\n        /* \"#utility.yul\":6224:6228   */\n      0x24\n        /* \"#utility.yul\":6221:6222   */\n      0x00\n        /* \"#utility.yul\":6214:6229   */\n      revert\n        /* \"#utility.yul\":6241:6426   */\n    tag_95:\n        /* \"#utility.yul\":6281:6282   */\n      0x00\n        /* \"#utility.yul\":6298:6318   */\n      tag_318\n        /* \"#utility.yul\":6316:6317   */\n      dup3\n        /* \"#utility.yul\":6298:6318   */\n      tag_217\n      jump\t// in\n    tag_318:\n        /* \"#utility.yul\":6293:6318   */\n      swap2\n      pop\n        /* \"#utility.yul\":6332:6352   */\n      tag_319\n        /* \"#utility.yul\":6350:6351   */\n      dup4\n        /* \"#utility.yul\":6332:6352   */\n      tag_217\n      jump\t// in\n    tag_319:\n        /* \"#utility.yul\":6327:6352   */\n      swap3\n      pop\n        /* \"#utility.yul\":6371:6372   */\n      dup3\n        /* \"#utility.yul\":6361:6396   */\n      tag_320\n      jumpi\n        /* \"#utility.yul\":6376:6394   */\n      tag_321\n      tag_197\n      jump\t// in\n    tag_321:\n        /* \"#utility.yul\":6361:6396   */\n    tag_320:\n        /* \"#utility.yul\":6418:6419   */\n      dup3\n        /* \"#utility.yul\":6415:6416   */\n      dup3\n        /* \"#utility.yul\":6411:6420   */\n      div\n        /* \"#utility.yul\":6406:6420   */\n      swap1\n      pop\n        /* \"#utility.yul\":6241:6426   */\n      swap3\n      swap2\n      pop\n      pop\n      jump\t// out\n        /* \"#utility.yul\":6432:6842   */\n    tag_97:\n        /* \"#utility.yul\":6472:6479   */\n      0x00\n        /* \"#utility.yul\":6495:6515   */\n      tag_323\n        /* \"#utility.yul\":6513:6514   */\n      dup3\n        /* \"#utility.yul\":6495:6515   */\n      tag_217\n      jump\t// in\n    tag_323:\n        /* \"#utility.yul\":6490:6515   */\n      swap2\n      pop\n        /* \"#utility.yul\":6529:6549   */\n      tag_324\n        /* \"#utility.yul\":6547:6548   */\n      dup4\n        /* \"#utility.yul\":6529:6549   */\n      tag_217\n      jump\t// in\n    tag_324:\n        /* \"#utility.yul\":6524:6549   */\n      swap3\n      pop\n        /* \"#utility.yul\":6584:6585   */\n      dup3\n        /* \"#utility.yul\":6581:6582   */\n      dup3\n        /* \"#utility.yul\":6577:6586   */\n      mul\n        /* \"#utility.yul\":6606:6636   */\n      tag_325\n        /* \"#utility.yul\":6624:6635   */\n      dup2\n        /* \"#utility.yul\":6606:6636   */\n      tag_217\n      jump\t// in\n    tag_325:\n        /* \"#utility.yul\":6595:6636   */\n      swap2\n      pop\n        /* \"#utility.yul\":6785:6786   */\n      dup3\n        /* \"#utility.yul\":6776:6783   */\n      dup3\n        /* \"#utility.yul\":6772:6787   */\n      div\n        /* \"#utility.yul\":6769:6770   */\n      dup5\n        /* \"#utility.yul\":6766:6788   */\n      eq\n        /* \"#utility.yul\":6746:6747   */\n      dup4\n        /* \"#utility.yul\":6739:6748   */\n      iszero\n        /* \"#utility.yul\":6719:6802   */\n      or\n        /* \"#utility.yul\":6696:6835   */\n      tag_326\n      jumpi\n        /* \"#utility.yul\":6815:6833   */\n      tag_327\n      tag_236\n      jump\t// in\n    tag_327:\n        /* \"#utility.yul\":6696:6835   */\n    tag_326:\n        /* \"#utility.yul\":6480:6842   */\n      pop\n        /* \"#utility.yul\":6432:6842   */\n      swap3\n      swap2\n      pop\n      pop\n      jump\t// out\n        /* \"#utility.yul\":6848:6995   */\n    tag_237:\n        /* \"#utility.yul\":6949:6960   */\n      0x00\n        /* \"#utility.yul\":6986:6989   */\n      dup2\n        /* \"#utility.yul\":6971:6989   */\n      swap1\n      pop\n        /* \"#utility.yul\":6848:6995   */\n      swap3\n      swap2\n      pop\n      pop\n      jump\t// out\n        /* \"#utility.yul\":7001:7115   */\n    tag_238:\n      pop\n      jump\t// out\n        /* \"#utility.yul\":7121:7519   */\n    tag_239:\n        /* \"#utility.yul\":7280:7283   */\n      0x00\n        /* \"#utility.yul\":7301:7384   */\n      tag_331\n        /* \"#utility.yul\":7382:7383   */\n      0x00\n        /* \"#utility.yul\":7377:7380   */\n      dup4\n        /* \"#utility.yul\":7301:7384   */\n      tag_237\n      jump\t// in\n    tag_331:\n        /* \"#utility.yul\":7294:7384   */\n      swap2\n      pop\n        /* \"#utility.yul\":7393:7486   */\n      tag_332\n        /* \"#utility.yul\":7482:7485   */\n      dup3\n        /* \"#utility.yul\":7393:7486   */\n      tag_238\n      jump\t// in\n    tag_332:\n        /* \"#utility.yul\":7511:7512   */\n      0x00\n        /* \"#utility.yul\":7506:7509   */\n      dup3\n        /* \"#utility.yul\":7502:7513   */\n      add\n        /* \"#utility.yul\":7495:7513   */\n      swap1\n      pop\n        /* \"#utility.yul\":7121:7519   */\n      swap2\n      swap1\n      pop\n      jump\t// out\n        /* \"#utility.yul\":7525:7904   */\n    tag_101:\n        /* \"#utility.yul\":7709:7712   */\n      0x00\n        /* \"#utility.yul\":7731:7878   */\n      tag_334\n        /* \"#utility.yul\":7874:7877   */\n      dup3\n        /* \"#utility.yul\":7731:7878   */\n      tag_239\n      jump\t// in\n    tag_334:\n        /* \"#utility.yul\":7724:7878   */\n      swap2\n      pop\n        /* \"#utility.yul\":7895:7898   */\n      dup2\n        /* \"#utility.yul\":7888:7898   */\n      swap1\n      pop\n        /* \"#utility.yul\":7525:7904   */\n      swap2\n      swap1\n      pop\n      jump\t// out\n        /* \"#utility.yul\":7910:8075   */\n    tag_240:\n        /* \"#utility.yul\":8050:8067   */\n      0x5472616e73666572204661696c65640000000000000000000000000000000000\n        /* \"#utility.yul\":8046:8047   */\n      0x00\n        /* \"#utility.yul\":8038:8044   */\n      dup3\n        /* \"#utility.yul\":8034:8048   */\n      add\n        /* \"#utility.yul\":8027:8068   */\n      mstore\n        /* \"#utility.yul\":7910:8075   */\n      pop\n      jump\t// out\n        /* \"#utility.yul\":8081:8447   */\n    tag_241:\n        /* \"#utility.yul\":8223:8226   */\n      0x00\n        /* \"#utility.yul\":8244:8311   */\n      tag_337\n        /* \"#utility.yul\":8308:8310   */\n      0x0f\n        /* \"#utility.yul\":8303:8306   */\n      dup4\n        /* \"#utility.yul\":8244:8311   */\n      tag_230\n      jump\t// in\n    tag_337:\n        /* \"#utility.yul\":8237:8311   */\n      swap2\n      pop\n        /* \"#utility.yul\":8320:8413   */\n      tag_338\n        /* \"#utility.yul\":8409:8412   */\n      dup3\n        /* \"#utility.yul\":8320:8413   */\n      tag_240\n      jump\t// in\n    tag_338:\n        /* \"#utility.yul\":8438:8440   */\n      0x20\n        /* \"#utility.yul\":8433:8436   */\n      dup3\n        /* \"#utility.yul\":8429:8441   */\n      add\n        /* \"#utility.yul\":8422:8441   */\n      swap1\n      pop\n        /* \"#utility.yul\":8081:8447   */\n      swap2\n      swap1\n      pop\n      jump\t// out\n        /* \"#utility.yul\":8453:8872   */\n    tag_107:\n        /* \"#utility.yul\":8619:8623   */\n      0x00\n        /* \"#utility.yul\":8657:8659   */\n      0x20\n        /* \"#utility.yul\":8646:8655   */\n      dup3\n        /* \"#utility.yul\":8642:8660   */\n      add\n        /* \"#utility.yul\":8634:8660   */\n      swap1\n      pop\n        /* \"#utility.yul\":8706:8715   */\n      dup2\n        /* \"#utility.yul\":8700:8704   */\n      dup2\n        /* \"#utility.yul\":8696:8716   */\n      sub\n        /* \"#utility.yul\":8692:8693   */\n      0x00\n        /* \"#utility.yul\":8681:8690   */\n      dup4\n        /* \"#utility.yul\":8677:8694   */\n      add\n        /* \"#utility.yul\":8670:8717   */\n      mstore\n        /* \"#utility.yul\":8734:8865   */\n      tag_340\n        /* \"#utility.yul\":8860:8864   */\n      dup2\n        /* \"#utility.yul\":8734:8865   */\n      tag_241\n      jump\t// in\n    tag_340:\n        /* \"#utility.yul\":8726:8865   */\n      swap1\n      pop\n        /* \"#utility.yul\":8453:8872   */\n      swap2\n      swap1\n      pop\n      jump\t// out\n        /* \"#utility.yul\":8878:9111   */\n    tag_242:\n        /* \"#utility.yul\":9018:9052   */\n      0x5468652065746820616d6f756e7420737570706c696564206d75737420626520\n        /* \"#utility.yul\":9014:9015   */\n      0x00\n        /* \"#utility.yul\":9006:9012   */\n      dup3\n        /* \"#utility.yul\":9002:9016   */\n      add\n        /* \"#utility.yul\":8995:9053   */\n      mstore\n        /* \"#utility.yul\":9087:9103   */\n      0x67726561746572207468616e2030000000000000000000000000000000000000\n        /* \"#utility.yul\":9082:9084   */\n      0x20\n        /* \"#utility.yul\":9074:9080   */\n      dup3\n        /* \"#utility.yul\":9070:9085   */\n      add\n        /* \"#utility.yul\":9063:9104   */\n      mstore\n        /* \"#utility.yul\":8878:9111   */\n      pop\n      jump\t// out\n        /* \"#utility.yul\":9117:9483   */\n    tag_243:\n        /* \"#utility.yul\":9259:9262   */\n      0x00\n        /* \"#utility.yul\":9280:9347   */\n      tag_343\n        /* \"#utility.yul\":9344:9346   */\n      0x2e\n        /* \"#utility.yul\":9339:9342   */\n      dup4\n        /* \"#utility.yul\":9280:9347   */\n      tag_230\n      jump\t// in\n    tag_343:\n        /* \"#utility.yul\":9273:9347   */\n      swap2\n      pop\n        /* \"#utility.yul\":9356:9449   */\n      tag_344\n        /* \"#utility.yul\":9445:9448   */\n      dup3\n        /* \"#utility.yul\":9356:9449   */\n      tag_242\n      jump\t// in\n    tag_344:\n        /* \"#utility.yul\":9474:9476   */\n      0x40\n        /* \"#utility.yul\":9469:9472   */\n      dup3\n        /* \"#utility.yul\":9465:9477   */\n      add\n        /* \"#utility.yul\":9458:9477   */\n      swap1\n      pop\n        /* \"#utility.yul\":9117:9483   */\n      swap2\n      swap1\n      pop\n      jump\t// out\n        /* \"#utility.yul\":9489:9908   */\n    tag_112:\n        /* \"#utility.yul\":9655:9659   */\n      0x00\n        /* \"#utility.yul\":9693:9695   */\n      0x20\n        /* \"#utility.yul\":9682:9691   */\n      dup3\n        /* \"#utility.yul\":9678:9696   */\n      add\n        /* \"#utility.yul\":9670:9696   */\n      swap1\n      pop\n        /* \"#utility.yul\":9742:9751   */\n      dup2\n        /* \"#utility.yul\":9736:9740   */\n      dup2\n        /* \"#utility.yul\":9732:9752   */\n      sub\n        /* \"#utility.yul\":9728:9729   */\n      0x00\n        /* \"#utility.yul\":9717:9726   */\n      dup4\n        /* \"#utility.yul\":9713:9730   */\n      add\n        /* \"#utility.yul\":9706:9753   */\n      mstore\n        /* \"#utility.yul\":9770:9901   */\n      tag_346\n        /* \"#utility.yul\":9896:9900   */\n      dup2\n        /* \"#utility.yul\":9770:9901   */\n      tag_243\n      jump\t// in\n    tag_346:\n        /* \"#utility.yul\":9762:9901   */\n      swap1\n      pop\n        /* \"#utility.yul\":9489:9908   */\n      swap2\n      swap1\n      pop\n      jump\t// out\n        /* \"#utility.yul\":9914:10108   */\n    tag_118:\n        /* \"#utility.yul\":9954:9958   */\n      0x00\n        /* \"#utility.yul\":9974:9994   */\n      tag_348\n        /* \"#utility.yul\":9992:9993   */\n      dup3\n        /* \"#utility.yul\":9974:9994   */\n      tag_217\n      jump\t// in\n    tag_348:\n        /* \"#utility.yul\":9969:9994   */\n      swap2\n      pop\n        /* \"#utility.yul\":10008:10028   */\n      tag_349\n        /* \"#utility.yul\":10026:10027   */\n      dup4\n        /* \"#utility.yul\":10008:10028   */\n      tag_217\n      jump\t// in\n    tag_349:\n        /* \"#utility.yul\":10003:10028   */\n      swap3\n      pop\n        /* \"#utility.yul\":10052:10053   */\n      dup3\n        /* \"#utility.yul\":10049:10050   */\n      dup3\n        /* \"#utility.yul\":10045:10054   */\n      sub\n        /* \"#utility.yul\":10037:10054   */\n      swap1\n      pop\n        /* \"#utility.yul\":10076:10077   */\n      dup2\n        /* \"#utility.yul\":10070:10074   */\n      dup2\n        /* \"#utility.yul\":10067:10078   */\n      gt\n        /* \"#utility.yul\":10064:10101   */\n      iszero\n      tag_350\n      jumpi\n        /* \"#utility.yul\":10081:10099   */\n      tag_351\n      tag_236\n      jump\t// in\n    tag_351:\n        /* \"#utility.yul\":10064:10101   */\n    tag_350:\n        /* \"#utility.yul\":9914:10108   */\n      swap3\n      swap2\n      pop\n      pop\n      jump\t// out\n        /* \"#utility.yul\":10114:10446   */\n    tag_124:\n        /* \"#utility.yul\":10235:10239   */\n      0x00\n        /* \"#utility.yul\":10273:10275   */\n      0x40\n        /* \"#utility.yul\":10262:10271   */\n      dup3\n        /* \"#utility.yul\":10258:10276   */\n      add\n        /* \"#utility.yul\":10250:10276   */\n      swap1\n      pop\n        /* \"#utility.yul\":10286:10357   */\n      tag_353\n        /* \"#utility.yul\":10354:10355   */\n      0x00\n        /* \"#utility.yul\":10343:10352   */\n      dup4\n        /* \"#utility.yul\":10339:10356   */\n      add\n        /* \"#utility.yul\":10330:10336   */\n      dup6\n        /* \"#utility.yul\":10286:10357   */\n      tag_228\n      jump\t// in\n    tag_353:\n        /* \"#utility.yul\":10367:10439   */\n      tag_354\n        /* \"#utility.yul\":10435:10437   */\n      0x20\n        /* \"#utility.yul\":10424:10433   */\n      dup4\n        /* \"#utility.yul\":10420:10438   */\n      add\n        /* \"#utility.yul\":10411:10417   */\n      dup5\n        /* \"#utility.yul\":10367:10439   */\n      tag_218\n      jump\t// in\n    tag_354:\n        /* \"#utility.yul\":10114:10446   */\n      swap4\n      swap3\n      pop\n      pop\n      pop\n      jump\t// out\n        /* \"#utility.yul\":10452:10626   */\n    tag_244:\n        /* \"#utility.yul\":10592:10618   */\n      0x496e76616c696420616d6f756e74206f66207368617265730000000000000000\n        /* \"#utility.yul\":10588:10589   */\n      0x00\n        /* \"#utility.yul\":10580:10586   */\n      dup3\n        /* \"#utility.yul\":10576:10590   */\n      add\n        /* \"#utility.yul\":10569:10619   */\n      mstore\n        /* \"#utility.yul\":10452:10626   */\n      pop\n      jump\t// out\n        /* \"#utility.yul\":10632:10998   */\n    tag_245:\n        /* \"#utility.yul\":10774:10777   */\n      0x00\n        /* \"#utility.yul\":10795:10862   */\n      tag_357\n        /* \"#utility.yul\":10859:10861   */\n      0x18\n        /* \"#utility.yul\":10854:10857   */\n      dup4\n        /* \"#utility.yul\":10795:10862   */\n      tag_230\n      jump\t// in\n    tag_357:\n        /* \"#utility.yul\":10788:10862   */\n      swap2\n      pop\n        /* \"#utility.yul\":10871:10964   */\n      tag_358\n        /* \"#utility.yul\":10960:10963   */\n      dup3\n        /* \"#utility.yul\":10871:10964   */\n      tag_244\n      jump\t// in\n    tag_358:\n        /* \"#utility.yul\":10989:10991   */\n      0x20\n        /* \"#utility.yul\":10984:10987   */\n      dup3\n        /* \"#utility.yul\":10980:10992   */\n      add\n        /* \"#utility.yul\":10973:10992   */\n      swap1\n      pop\n        /* \"#utility.yul\":10632:10998   */\n      swap2\n      swap1\n      pop\n      jump\t// out\n        /* \"#utility.yul\":11004:11423   */\n    tag_163:\n        /* \"#utility.yul\":11170:11174   */\n      0x00\n        /* \"#utility.yul\":11208:11210   */\n      0x20\n        /* \"#utility.yul\":11197:11206   */\n      dup3\n        /* \"#utility.yul\":11193:11211   */\n      add\n        /* \"#utility.yul\":11185:11211   */\n      swap1\n      pop\n        /* \"#utility.yul\":11257:11266   */\n      dup2\n        /* \"#utility.yul\":11251:11255   */\n      dup2\n        /* \"#utility.yul\":11247:11267   */\n      sub\n        /* \"#utility.yul\":11243:11244   */\n      0x00\n        /* \"#utility.yul\":11232:11241   */\n      dup4\n        /* \"#utility.yul\":11228:11245   */\n      add\n        /* \"#utility.yul\":11221:11268   */\n      mstore\n        /* \"#utility.yul\":11285:11416   */\n      tag_360\n        /* \"#utility.yul\":11411:11415   */\n      dup2\n        /* \"#utility.yul\":11285:11416   */\n      tag_245\n      jump\t// in\n    tag_360:\n        /* \"#utility.yul\":11277:11416   */\n      swap1\n      pop\n        /* \"#utility.yul\":11004:11423   */\n      swap2\n      swap1\n      pop\n      jump\t// out\n        /* \"#utility.yul\":11429:11718   */\n    tag_246:\n        /* \"#utility.yul\":11569:11603   */\n      0x506c6561736520617070726f76652074686520636f6e747261637420746f2064\n        /* \"#utility.yul\":11565:11566   */\n      0x00\n        /* \"#utility.yul\":11557:11563   */\n      dup3\n        /* \"#utility.yul\":11553:11567   */\n      add\n        /* \"#utility.yul\":11546:11604   */\n      mstore\n        /* \"#utility.yul\":11638:11672   */\n      0x6564756374206c747220746f6b656e732066726f6d20796f75722077616c6c65\n        /* \"#utility.yul\":11633:11635   */\n      0x20\n        /* \"#utility.yul\":11625:11631   */\n      dup3\n        /* \"#utility.yul\":11621:11636   */\n      add\n        /* \"#utility.yul\":11614:11673   */\n      mstore\n        /* \"#utility.yul\":11707:11710   */\n      0x7400000000000000000000000000000000000000000000000000000000000000\n        /* \"#utility.yul\":11702:11704   */\n      0x40\n        /* \"#utility.yul\":11694:11700   */\n      dup3\n        /* \"#utility.yul\":11690:11705   */\n      add\n        /* \"#utility.yul\":11683:11711   */\n      mstore\n        /* \"#utility.yul\":11429:11718   */\n      pop\n      jump\t// out\n        /* \"#utility.yul\":11724:12090   */\n    tag_247:\n        /* \"#utility.yul\":11866:11869   */\n      0x00\n        /* \"#utility.yul\":11887:11954   */\n      tag_363\n        /* \"#utility.yul\":11951:11953   */\n      0x41\n        /* \"#utility.yul\":11946:11949   */\n      dup4\n        /* \"#utility.yul\":11887:11954   */\n      tag_230\n      jump\t// in\n    tag_363:\n        /* \"#utility.yul\":11880:11954   */\n      swap2\n      pop\n        /* \"#utility.yul\":11963:12056   */\n      tag_364\n        /* \"#utility.yul\":12052:12055   */\n      dup3\n        /* \"#utility.yul\":11963:12056   */\n      tag_246\n      jump\t// in\n    tag_364:\n        /* \"#utility.yul\":12081:12083   */\n      0x60\n        /* \"#utility.yul\":12076:12079   */\n      dup3\n        /* \"#utility.yul\":12072:12084   */\n      add\n        /* \"#utility.yul\":12065:12084   */\n      swap1\n      pop\n        /* \"#utility.yul\":11724:12090   */\n      swap2\n      swap1\n      pop\n      jump\t// out\n        /* \"#utility.yul\":12096:12515   */\n    tag_170:\n        /* \"#utility.yul\":12262:12266   */\n      0x00\n        /* \"#utility.yul\":12300:12302   */\n      0x20\n        /* \"#utility.yul\":12289:12298   */\n      dup3\n        /* \"#utility.yul\":12285:12303   */\n      add\n        /* \"#utility.yul\":12277:12303   */\n      swap1\n      pop\n        /* \"#utility.yul\":12349:12358   */\n      dup2\n        /* \"#utility.yul\":12343:12347   */\n      dup2\n        /* \"#utility.yul\":12339:12359   */\n      sub\n        /* \"#utility.yul\":12335:12336   */\n      0x00\n        /* \"#utility.yul\":12324:12333   */\n      dup4\n        /* \"#utility.yul\":12320:12337   */\n      add\n        /* \"#utility.yul\":12313:12360   */\n      mstore\n        /* \"#utility.yul\":12377:12508   */\n      tag_366\n        /* \"#utility.yul\":12503:12507   */\n      dup2\n        /* \"#utility.yul\":12377:12508   */\n      tag_247\n      jump\t// in\n    tag_366:\n        /* \"#utility.yul\":12369:12508   */\n      swap1\n      pop\n        /* \"#utility.yul\":12096:12515   */\n      swap2\n      swap1\n      pop\n      jump\t// out\n        /* \"#utility.yul\":12521:12686   */\n    tag_248:\n        /* \"#utility.yul\":12661:12678   */\n      0x5472616e73666572206661696c65640000000000000000000000000000000000\n        /* \"#utility.yul\":12657:12658   */\n      0x00\n        /* \"#utility.yul\":12649:12655   */\n      dup3\n        /* \"#utility.yul\":12645:12659   */\n      add\n        /* \"#utility.yul\":12638:12679   */\n      mstore\n        /* \"#utility.yul\":12521:12686   */\n      pop\n      jump\t// out\n        /* \"#utility.yul\":12692:13058   */\n    tag_249:\n        /* \"#utility.yul\":12834:12837   */\n      0x00\n        /* \"#utility.yul\":12855:12922   */\n      tag_369\n        /* \"#utility.yul\":12919:12921   */\n      0x0f\n        /* \"#utility.yul\":12914:12917   */\n      dup4\n        /* \"#utility.yul\":12855:12922   */\n      tag_230\n      jump\t// in\n    tag_369:\n        /* \"#utility.yul\":12848:12922   */\n      swap2\n      pop\n        /* \"#utility.yul\":12931:13024   */\n      tag_370\n        /* \"#utility.yul\":13020:13023   */\n      dup3\n        /* \"#utility.yul\":12931:13024   */\n      tag_248\n      jump\t// in\n    tag_370:\n        /* \"#utility.yul\":13049:13051   */\n      0x20\n        /* \"#utility.yul\":13044:13047   */\n      dup3\n        /* \"#utility.yul\":13040:13052   */\n      add\n        /* \"#utility.yul\":13033:13052   */\n      swap1\n      pop\n        /* \"#utility.yul\":12692:13058   */\n      swap2\n      swap1\n      pop\n      jump\t// out\n        /* \"#utility.yul\":13064:13483   */\n    tag_185:\n        /* \"#utility.yul\":13230:13234   */\n      0x00\n        /* \"#utility.yul\":13268:13270   */\n      0x20\n        /* \"#utility.yul\":13257:13266   */\n      dup3\n        /* \"#utility.yul\":13253:13271   */\n      add\n        /* \"#utility.yul\":13245:13271   */\n      swap1\n      pop\n        /* \"#utility.yul\":13317:13326   */\n      dup2\n        /* \"#utility.yul\":13311:13315   */\n      dup2\n        /* \"#utility.yul\":13307:13327   */\n      sub\n        /* \"#utility.yul\":13303:13304   */\n      0x00\n        /* \"#utility.yul\":13292:13301   */\n      dup4\n        /* \"#utility.yul\":13288:13305   */\n      add\n        /* \"#utility.yul\":13281:13328   */\n      mstore\n        /* \"#utility.yul\":13345:13476   */\n      tag_372\n        /* \"#utility.yul\":13471:13475   */\n      dup2\n        /* \"#utility.yul\":13345:13476   */\n      tag_249\n      jump\t// in\n    tag_372:\n        /* \"#utility.yul\":13337:13476   */\n      swap1\n      pop\n        /* \"#utility.yul\":13064:13483   */\n      swap2\n      swap1\n      pop\n      jump\t// out\n\n    auxdata: 0xa264697066735822122049fc144aa792405d6e459b37f76f888d1d3c34ccf20e4d3987860f30c9040f5164736f6c63430008110033\n}\n",
				"bytecode": {
					"linkReferences": {},
					"object": "60806040523480156200001157600080fd5b5060405162001824380380620018248339818101604052810190620000379190620000e8565b806000806101000a81548173ffffffffffffffffffffffffffffffffffffffff021916908373ffffffffffffffffffffffffffffffffffffffff160217905550506200011a565b600080fd5b600073ffffffffffffffffffffffffffffffffffffffff82169050919050565b6000620000b08262000083565b9050919050565b620000c281620000a3565b8114620000ce57600080fd5b50565b600081519050620000e281620000b7565b92915050565b6000602082840312156200010157620001006200007e565b5b60006200011184828501620000d1565b91505092915050565b6116fa806200012a6000396000f3fe6080604052600436106100dd5760003560e01c806394b918de1161007f578063bef5401e11610059578063bef5401e14610234578063eb521a4c1461025f578063f4325d671461027b578063ff9b3758146102a6576100dd565b806394b918de146101d8578063a2e62045146101f4578063bec3fa171461020b576100dd565b80637464fc3d116100bb5780637464fc3d1461016357806383197ef01461018e5780638e3073a6146101a55780638ef85568146101ce576100dd565b806309f198a1146100e2578063100af2031461010d5780631cd732c114610138575b600080fd5b3480156100ee57600080fd5b506100f76102cf565b6040516101049190610ffd565b60405180910390f35b34801561011957600080fd5b506101226102d5565b60405161012f9190610ffd565b60405180910390f35b34801561014457600080fd5b5061014d6102db565b60405161015a9190610ffd565b60405180910390f35b34801561016f57600080fd5b506101786102e1565b6040516101859190610ffd565b60405180910390f35b34801561019a57600080fd5b506101a36102e7565b005b3480156101b157600080fd5b506101cc60048036038101906101c79190611049565b610314565b005b6101d6610613565b005b6101f260048036038101906101ed9190611049565b6107d8565b005b34801561020057600080fd5b506102096107fb565b005b34801561021757600080fd5b50610232600480360381019061022d91906110d4565b6108d0565b005b34801561024057600080fd5b50610249610967565b6040516102569190610ffd565b60405180910390f35b61027960048036038101906102749190611049565b61096d565b005b34801561028757600080fd5b50610290610b01565b60405161029d9190611123565b60405180910390f35b3480156102b257600080fd5b506102cd60048036038101906102c89190611049565b610b25565b005b60055481565b60035481565b60045481565b60015481565b73ee88b109b526f6306151f969e293709f2907f04273ffffffffffffffffffffffffffffffffffffffff16ff5b8060008054906101000a900473ffffffffffffffffffffffffffffffffffffffff1673ffffffffffffffffffffffffffffffffffffffff1663dd62ed3e33306040518363ffffffff1660e01b815260040161037092919061113e565b602060405180830381865afa15801561038d573d6000803e3d6000fd5b505050506040513d601f19601f820116820180604052508101906103b1919061117c565b10156103f2576040517f08c379a00000000000000000000000000000000000000000000000000000000081526004016103e990611206565b60405180910390fd5b60008060009054906101000a900473ffffffffffffffffffffffffffffffffffffffff1673ffffffffffffffffffffffffffffffffffffffff166370a08231306040518263ffffffff1660e01b815260040161044e9190611123565b602060405180830381865afa15801561046b573d6000803e3d6000fd5b505050506040513d601f19601f8201168201806040525081019061048f919061117c565b905060008054906101000a900473ffffffffffffffffffffffffffffffffffffffff1673ffffffffffffffffffffffffffffffffffffffff166323b872dd3330856040518463ffffffff1660e01b81526004016104ee93929190611226565b6020604051808303816000875af115801561050d573d6000803e3d6000fd5b505050506040513d601f19601f820116820180604052508101906105319190611295565b50600081476105409190611320565b8361054b9190611351565b905080471161055957600080fd5b60003373ffffffffffffffffffffffffffffffffffffffff168260405161057f906113c4565b60006040518083038185875af1925050503d80600081146105bc576040519150601f19603f3d011682016040523d82523d6000602084013e6105c1565b606091505b5050905080610605576040517f08c379a00000000000000000000000000000000000000000000000000000000081526004016105fc90611425565b60405180910390fd5b5061060e6107fb565b505050565b60003411610656576040517f08c379a000000000000000000000000000000000000000000000000000000000815260040161064d906114b7565b60405180910390fd5b60008060009054906101000a900473ffffffffffffffffffffffffffffffffffffffff1673ffffffffffffffffffffffffffffffffffffffff166370a08231306040518263ffffffff1660e01b81526004016106b29190611123565b602060405180830381865afa1580156106cf573d6000803e3d6000fd5b505050506040513d601f19601f820116820180604052508101906106f3919061117c565b905060004790506000348261070891906114d7565b836107139190611320565b3461071e9190611351565b905080831161072c57600080fd5b60008054906101000a900473ffffffffffffffffffffffffffffffffffffffff1673ffffffffffffffffffffffffffffffffffffffff1663a9059cbb33836040518363ffffffff1660e01b815260040161078792919061150b565b6020604051808303816000875af11580156107a6573d6000803e3d6000fd5b505050506040513d601f19601f820116820180604052508101906107ca9190611295565b506107d36107fb565b505050565b60003411156107ee576107e9610613565b6107f8565b6107f781610314565b5b50565b60008054906101000a900473ffffffffffffffffffffffffffffffffffffffff1673ffffffffffffffffffffffffffffffffffffffff166370a08231306040518263ffffffff1660e01b81526004016108549190611123565b602060405180830381865afa158015610871573d6000803e3d6000fd5b505050506040513d601f19601f82011682018060405250810190610895919061117c565b600281905550476003819055506003546002546108b29190611320565b6004819055506002546003546108c89190611320565b600581905550565b73e2899bddfd890e320e643044c6b95b9b0b84157a73ffffffffffffffffffffffffffffffffffffffff1663a9059cbb83836040518363ffffffff1660e01b815260040161091f92919061150b565b6020604051808303816000875af115801561093e573d6000803e3d6000fd5b505050506040513d601f19601f820116820180604052508101906109629190611295565b505050565b60025481565b60008054906101000a900473ffffffffffffffffffffffffffffffffffffffff1673ffffffffffffffffffffffffffffffffffffffff166323b872dd3330846040518463ffffffff1660e01b81526004016109ca93929190611226565b6020604051808303816000875af11580156109e9573d6000803e3d6000fd5b505050506040513d601f19601f82011682018060405250810190610a0d9190611295565b504781610a1a9190611351565b600181905550610a286107fb565b73e2899bddfd890e320e643044c6b95b9b0b84157a73ffffffffffffffffffffffffffffffffffffffff1663a9059cbb33610a64600154610e1e565b6040518363ffffffff1660e01b8152600401610a8192919061150b565b6020604051808303816000875af1158015610aa0573d6000803e3d6000fd5b505050506040513d601f19601f82011682018060405250810190610ac49190611295565b507fb62268a18d99fe191ac8e62f823ab1eec698609a81b2c8de3dac902896b09da63382604051610af692919061150b565b60405180910390a150565b60008054906101000a900473ffffffffffffffffffffffffffffffffffffffff1681565b60008111610b68576040517f08c379a0000000000000000000000000000000000000000000000000000000008152600401610b5f90611580565b60405180910390fd5b8073e2899bddfd890e320e643044c6b95b9b0b84157a73ffffffffffffffffffffffffffffffffffffffff1663dd62ed3e33306040518363ffffffff1660e01b8152600401610bb892919061113e565b602060405180830381865afa158015610bd5573d6000803e3d6000fd5b505050506040513d601f19601f82011682018060405250810190610bf9919061117c565b1015610c3a576040517f08c379a0000000000000000000000000000000000000000000000000000000008152600401610c3190611638565b60405180910390fd5b73e2899bddfd890e320e643044c6b95b9b0b84157a73ffffffffffffffffffffffffffffffffffffffff166323b872dd3330846040518463ffffffff1660e01b8152600401610c8b93929190611226565b6020604051808303816000875af1158015610caa573d6000803e3d6000fd5b505050506040513d601f19601f82011682018060405250810190610cce9190611295565b5060008054906101000a900473ffffffffffffffffffffffffffffffffffffffff1673ffffffffffffffffffffffffffffffffffffffff1663a9059cbb33836040518363ffffffff1660e01b8152600401610d2a92919061150b565b6020604051808303816000875af1158015610d49573d6000803e3d6000fd5b505050506040513d601f19601f82011682018060405250810190610d6d9190611295565b5060003373ffffffffffffffffffffffffffffffffffffffff1682604051610d94906113c4565b60006040518083038185875af1925050503d8060008114610dd1576040519150601f19603f3d011682016040523d82523d6000602084013e610dd6565b606091505b5050905080610e1a576040517f08c379a0000000000000000000000000000000000000000000000000000000008152600401610e11906116a4565b60405180910390fd5b5050565b6000808203610e305760009050610fc6565b60006001905060008390506000608082901c1115610e5757608081901c9050604082901b91505b6000604082901c1115610e7357604081901c9050602082901b91505b6000602082901c1115610e8f57602081901c9050601082901b91505b6000601082901c1115610eab57601081901c9050600882901b91505b6000600882901c1115610ec757600881901c9050600482901b91505b6000600482901c1115610ee357600481901c9050600282901b91505b6000600282901c1115610ef857600182901b91505b6001828581610f0a57610f096112c2565b5b048301901c91506001828581610f2357610f226112c2565b5b048301901c91506001828581610f3c57610f3b6112c2565b5b048301901c91506001828581610f5557610f546112c2565b5b048301901c91506001828581610f6e57610f6d6112c2565b5b048301901c91506001828581610f8757610f866112c2565b5b048301901c91506001828581610fa057610f9f6112c2565b5b048301901c9150610fc182838681610fbb57610fba6112c2565b5b04610fcb565b925050505b919050565b6000818310610fda5781610fdc565b825b905092915050565b6000819050919050565b610ff781610fe4565b82525050565b60006020820190506110126000830184610fee565b92915050565b600080fd5b61102681610fe4565b811461103157600080fd5b50565b6000813590506110438161101d565b92915050565b60006020828403121561105f5761105e611018565b5b600061106d84828501611034565b91505092915050565b600073ffffffffffffffffffffffffffffffffffffffff82169050919050565b60006110a182611076565b9050919050565b6110b181611096565b81146110bc57600080fd5b50565b6000813590506110ce816110a8565b92915050565b600080604083850312156110eb576110ea611018565b5b60006110f9858286016110bf565b925050602061110a85828601611034565b9150509250929050565b61111d81611096565b82525050565b60006020820190506111386000830184611114565b92915050565b60006040820190506111536000830185611114565b6111606020830184611114565b9392505050565b6000815190506111768161101d565b92915050565b60006020828403121561119257611191611018565b5b60006111a084828501611167565b91505092915050565b600082825260208201905092915050565b7f436f6e7472616374206e6f7420617070726f7665640000000000000000000000600082015250565b60006111f06015836111a9565b91506111fb826111ba565b602082019050919050565b6000602082019050818103600083015261121f816111e3565b9050919050565b600060608201905061123b6000830186611114565b6112486020830185611114565b6112556040830184610fee565b949350505050565b60008115159050919050565b6112728161125d565b811461127d57600080fd5b50565b60008151905061128f81611269565b92915050565b6000602082840312156112ab576112aa611018565b5b60006112b984828501611280565b91505092915050565b7f4e487b7100000000000000000000000000000000000000000000000000000000600052601260045260246000fd5b7f4e487b7100000000000000000000000000000000000000000000000000000000600052601160045260246000fd5b600061132b82610fe4565b915061133683610fe4565b925082611346576113456112c2565b5b828204905092915050565b600061135c82610fe4565b915061136783610fe4565b925082820261137581610fe4565b9150828204841483151761138c5761138b6112f1565b5b5092915050565b600081905092915050565b50565b60006113ae600083611393565b91506113b98261139e565b600082019050919050565b60006113cf826113a1565b9150819050919050565b7f5472616e73666572204661696c65640000000000000000000000000000000000600082015250565b600061140f600f836111a9565b915061141a826113d9565b602082019050919050565b6000602082019050818103600083015261143e81611402565b9050919050565b7f5468652065746820616d6f756e7420737570706c696564206d7573742062652060008201527f67726561746572207468616e2030000000000000000000000000000000000000602082015250565b60006114a1602e836111a9565b91506114ac82611445565b604082019050919050565b600060208201905081810360008301526114d081611494565b9050919050565b60006114e282610fe4565b91506114ed83610fe4565b9250828203905081811115611505576115046112f1565b5b92915050565b60006040820190506115206000830185611114565b61152d6020830184610fee565b9392505050565b7f496e76616c696420616d6f756e74206f66207368617265730000000000000000600082015250565b600061156a6018836111a9565b915061157582611534565b602082019050919050565b600060208201905081810360008301526115998161155d565b9050919050565b7f506c6561736520617070726f76652074686520636f6e747261637420746f206460008201527f6564756374206c747220746f6b656e732066726f6d20796f75722077616c6c6560208201527f7400000000000000000000000000000000000000000000000000000000000000604082015250565b60006116226041836111a9565b915061162d826115a0565b606082019050919050565b6000602082019050818103600083015261165181611615565b9050919050565b7f5472616e73666572206661696c65640000000000000000000000000000000000600082015250565b600061168e600f836111a9565b915061169982611658565b602082019050919050565b600060208201905081810360008301526116bd81611681565b905091905056fea264697066735822122049fc144aa792405d6e459b37f76f888d1d3c34ccf20e4d3987860f30c9040f5164736f6c63430008110033",
					"opcodes": "PUSH1 0x80 PUSH1 0x40 MSTORE CALLVALUE DUP1 ISZERO PUSH3 0x11 JUMPI PUSH1 0x0 DUP1 REVERT JUMPDEST POP PUSH1 0x40 MLOAD PUSH3 0x1824 CODESIZE SUB DUP1 PUSH3 0x1824 DUP4 CODECOPY DUP2 DUP2 ADD PUSH1 0x40 MSTORE DUP2 ADD SWAP1 PUSH3 0x37 SWAP2 SWAP1 PUSH3 0xE8 JUMP JUMPDEST DUP1 PUSH1 0x0 DUP1 PUSH2 0x100 EXP DUP2 SLOAD DUP2 PUSH20 0xFFFFFFFFFFFFFFFFFFFFFFFFFFFFFFFFFFFFFFFF MUL NOT AND SWAP1 DUP4 PUSH20 0xFFFFFFFFFFFFFFFFFFFFFFFFFFFFFFFFFFFFFFFF AND MUL OR SWAP1 SSTORE POP POP PUSH3 0x11A JUMP JUMPDEST PUSH1 0x0 DUP1 REVERT JUMPDEST PUSH1 0x0 PUSH20 0xFFFFFFFFFFFFFFFFFFFFFFFFFFFFFFFFFFFFFFFF DUP3 AND SWAP1 POP SWAP2 SWAP1 POP JUMP JUMPDEST PUSH1 0x0 PUSH3 0xB0 DUP3 PUSH3 0x83 JUMP JUMPDEST SWAP1 POP SWAP2 SWAP1 POP JUMP JUMPDEST PUSH3 0xC2 DUP2 PUSH3 0xA3 JUMP JUMPDEST DUP2 EQ PUSH3 0xCE JUMPI PUSH1 0x0 DUP1 REVERT JUMPDEST POP JUMP JUMPDEST PUSH1 0x0 DUP2 MLOAD SWAP1 POP PUSH3 0xE2 DUP2 PUSH3 0xB7 JUMP JUMPDEST SWAP3 SWAP2 POP POP JUMP JUMPDEST PUSH1 0x0 PUSH1 0x20 DUP3 DUP5 SUB SLT ISZERO PUSH3 0x101 JUMPI PUSH3 0x100 PUSH3 0x7E JUMP JUMPDEST JUMPDEST PUSH1 0x0 PUSH3 0x111 DUP5 DUP3 DUP6 ADD PUSH3 0xD1 JUMP JUMPDEST SWAP2 POP POP SWAP3 SWAP2 POP POP JUMP JUMPDEST PUSH2 0x16FA DUP1 PUSH3 0x12A PUSH1 0x0 CODECOPY PUSH1 0x0 RETURN INVALID PUSH1 0x80 PUSH1 0x40 MSTORE PUSH1 0x4 CALLDATASIZE LT PUSH2 0xDD JUMPI PUSH1 0x0 CALLDATALOAD PUSH1 0xE0 SHR DUP1 PUSH4 0x94B918DE GT PUSH2 0x7F JUMPI DUP1 PUSH4 0xBEF5401E GT PUSH2 0x59 JUMPI DUP1 PUSH4 0xBEF5401E EQ PUSH2 0x234 JUMPI DUP1 PUSH4 0xEB521A4C EQ PUSH2 0x25F JUMPI DUP1 PUSH4 0xF4325D67 EQ PUSH2 0x27B JUMPI DUP1 PUSH4 0xFF9B3758 EQ PUSH2 0x2A6 JUMPI PUSH2 0xDD JUMP JUMPDEST DUP1 PUSH4 0x94B918DE EQ PUSH2 0x1D8 JUMPI DUP1 PUSH4 0xA2E62045 EQ PUSH2 0x1F4 JUMPI DUP1 PUSH4 0xBEC3FA17 EQ PUSH2 0x20B JUMPI PUSH2 0xDD JUMP JUMPDEST DUP1 PUSH4 0x7464FC3D GT PUSH2 0xBB JUMPI DUP1 PUSH4 0x7464FC3D EQ PUSH2 0x163 JUMPI DUP1 PUSH4 0x83197EF0 EQ PUSH2 0x18E JUMPI DUP1 PUSH4 0x8E3073A6 EQ PUSH2 0x1A5 JUMPI DUP1 PUSH4 0x8EF85568 EQ PUSH2 0x1CE JUMPI PUSH2 0xDD JUMP JUMPDEST DUP1 PUSH4 0x9F198A1 EQ PUSH2 0xE2 JUMPI DUP1 PUSH4 0x100AF203 EQ PUSH2 0x10D JUMPI DUP1 PUSH4 0x1CD732C1 EQ PUSH2 0x138 JUMPI JUMPDEST PUSH1 0x0 DUP1 REVERT JUMPDEST CALLVALUE DUP1 ISZERO PUSH2 0xEE JUMPI PUSH1 0x0 DUP1 REVERT JUMPDEST POP PUSH2 0xF7 PUSH2 0x2CF JUMP JUMPDEST PUSH1 0x40 MLOAD PUSH2 0x104 SWAP2 SWAP1 PUSH2 0xFFD JUMP JUMPDEST PUSH1 0x40 MLOAD DUP1 SWAP2 SUB SWAP1 RETURN JUMPDEST CALLVALUE DUP1 ISZERO PUSH2 0x119 JUMPI PUSH1 0x0 DUP1 REVERT JUMPDEST POP PUSH2 0x122 PUSH2 0x2D5 JUMP JUMPDEST PUSH1 0x40 MLOAD PUSH2 0x12F SWAP2 SWAP1 PUSH2 0xFFD JUMP JUMPDEST PUSH1 0x40 MLOAD DUP1 SWAP2 SUB SWAP1 RETURN JUMPDEST CALLVALUE DUP1 ISZERO PUSH2 0x144 JUMPI PUSH1 0x0 DUP1 REVERT JUMPDEST POP PUSH2 0x14D PUSH2 0x2DB JUMP JUMPDEST PUSH1 0x40 MLOAD PUSH2 0x15A SWAP2 SWAP1 PUSH2 0xFFD JUMP JUMPDEST PUSH1 0x40 MLOAD DUP1 SWAP2 SUB SWAP1 RETURN JUMPDEST CALLVALUE DUP1 ISZERO PUSH2 0x16F JUMPI PUSH1 0x0 DUP1 REVERT JUMPDEST POP PUSH2 0x178 PUSH2 0x2E1 JUMP JUMPDEST PUSH1 0x40 MLOAD PUSH2 0x185 SWAP2 SWAP1 PUSH2 0xFFD JUMP JUMPDEST PUSH1 0x40 MLOAD DUP1 SWAP2 SUB SWAP1 RETURN JUMPDEST CALLVALUE DUP1 ISZERO PUSH2 0x19A JUMPI PUSH1 0x0 DUP1 REVERT JUMPDEST POP PUSH2 0x1A3 PUSH2 0x2E7 JUMP JUMPDEST STOP JUMPDEST CALLVALUE DUP1 ISZERO PUSH2 0x1B1 JUMPI PUSH1 0x0 DUP1 REVERT JUMPDEST POP PUSH2 0x1CC PUSH1 0x4 DUP1 CALLDATASIZE SUB DUP2 ADD SWAP1 PUSH2 0x1C7 SWAP2 SWAP1 PUSH2 0x1049 JUMP JUMPDEST PUSH2 0x314 JUMP JUMPDEST STOP JUMPDEST PUSH2 0x1D6 PUSH2 0x613 JUMP JUMPDEST STOP JUMPDEST PUSH2 0x1F2 PUSH1 0x4 DUP1 CALLDATASIZE SUB DUP2 ADD SWAP1 PUSH2 0x1ED SWAP2 SWAP1 PUSH2 0x1049 JUMP JUMPDEST PUSH2 0x7D8 JUMP JUMPDEST STOP JUMPDEST CALLVALUE DUP1 ISZERO PUSH2 0x200 JUMPI PUSH1 0x0 DUP1 REVERT JUMPDEST POP PUSH2 0x209 PUSH2 0x7FB JUMP JUMPDEST STOP JUMPDEST CALLVALUE DUP1 ISZERO PUSH2 0x217 JUMPI PUSH1 0x0 DUP1 REVERT JUMPDEST POP PUSH2 0x232 PUSH1 0x4 DUP1 CALLDATASIZE SUB DUP2 ADD SWAP1 PUSH2 0x22D SWAP2 SWAP1 PUSH2 0x10D4 JUMP JUMPDEST PUSH2 0x8D0 JUMP JUMPDEST STOP JUMPDEST CALLVALUE DUP1 ISZERO PUSH2 0x240 JUMPI PUSH1 0x0 DUP1 REVERT JUMPDEST POP PUSH2 0x249 PUSH2 0x967 JUMP JUMPDEST PUSH1 0x40 MLOAD PUSH2 0x256 SWAP2 SWAP1 PUSH2 0xFFD JUMP JUMPDEST PUSH1 0x40 MLOAD DUP1 SWAP2 SUB SWAP1 RETURN JUMPDEST PUSH2 0x279 PUSH1 0x4 DUP1 CALLDATASIZE SUB DUP2 ADD SWAP1 PUSH2 0x274 SWAP2 SWAP1 PUSH2 0x1049 JUMP JUMPDEST PUSH2 0x96D JUMP JUMPDEST STOP JUMPDEST CALLVALUE DUP1 ISZERO PUSH2 0x287 JUMPI PUSH1 0x0 DUP1 REVERT JUMPDEST POP PUSH2 0x290 PUSH2 0xB01 JUMP JUMPDEST PUSH1 0x40 MLOAD PUSH2 0x29D SWAP2 SWAP1 PUSH2 0x1123 JUMP JUMPDEST PUSH1 0x40 MLOAD DUP1 SWAP2 SUB SWAP1 RETURN JUMPDEST CALLVALUE DUP1 ISZERO PUSH2 0x2B2 JUMPI PUSH1 0x0 DUP1 REVERT JUMPDEST POP PUSH2 0x2CD PUSH1 0x4 DUP1 CALLDATASIZE SUB DUP2 ADD SWAP1 PUSH2 0x2C8 SWAP2 SWAP1 PUSH2 0x1049 JUMP JUMPDEST PUSH2 0xB25 JUMP JUMPDEST STOP JUMPDEST PUSH1 0x5 SLOAD DUP2 JUMP JUMPDEST PUSH1 0x3 SLOAD DUP2 JUMP JUMPDEST PUSH1 0x4 SLOAD DUP2 JUMP JUMPDEST PUSH1 0x1 SLOAD DUP2 JUMP JUMPDEST PUSH20 0xEE88B109B526F6306151F969E293709F2907F042 PUSH20 0xFFFFFFFFFFFFFFFFFFFFFFFFFFFFFFFFFFFFFFFF AND SELFDESTRUCT JUMPDEST DUP1 PUSH1 0x0 DUP1 SLOAD SWAP1 PUSH2 0x100 EXP SWAP1 DIV PUSH20 0xFFFFFFFFFFFFFFFFFFFFFFFFFFFFFFFFFFFFFFFF AND PUSH20 0xFFFFFFFFFFFFFFFFFFFFFFFFFFFFFFFFFFFFFFFF AND PUSH4 0xDD62ED3E CALLER ADDRESS PUSH1 0x40 MLOAD DUP4 PUSH4 0xFFFFFFFF AND PUSH1 0xE0 SHL DUP2 MSTORE PUSH1 0x4 ADD PUSH2 0x370 SWAP3 SWAP2 SWAP1 PUSH2 0x113E JUMP JUMPDEST PUSH1 0x20 PUSH1 0x40 MLOAD DUP1 DUP4 SUB DUP2 DUP7 GAS STATICCALL ISZERO DUP1 ISZERO PUSH2 0x38D JUMPI RETURNDATASIZE PUSH1 0x0 DUP1 RETURNDATACOPY RETURNDATASIZE PUSH1 0x0 REVERT JUMPDEST POP POP POP POP PUSH1 0x40 MLOAD RETURNDATASIZE PUSH1 0x1F NOT PUSH1 0x1F DUP3 ADD AND DUP3 ADD DUP1 PUSH1 0x40 MSTORE POP DUP2 ADD SWAP1 PUSH2 0x3B1 SWAP2 SWAP1 PUSH2 0x117C JUMP JUMPDEST LT ISZERO PUSH2 0x3F2 JUMPI PUSH1 0x40 MLOAD PUSH32 0x8C379A000000000000000000000000000000000000000000000000000000000 DUP2 MSTORE PUSH1 0x4 ADD PUSH2 0x3E9 SWAP1 PUSH2 0x1206 JUMP JUMPDEST PUSH1 0x40 MLOAD DUP1 SWAP2 SUB SWAP1 REVERT JUMPDEST PUSH1 0x0 DUP1 PUSH1 0x0 SWAP1 SLOAD SWAP1 PUSH2 0x100 EXP SWAP1 DIV PUSH20 0xFFFFFFFFFFFFFFFFFFFFFFFFFFFFFFFFFFFFFFFF AND PUSH20 0xFFFFFFFFFFFFFFFFFFFFFFFFFFFFFFFFFFFFFFFF AND PUSH4 0x70A08231 ADDRESS PUSH1 0x40 MLOAD DUP3 PUSH4 0xFFFFFFFF AND PUSH1 0xE0 SHL DUP2 MSTORE PUSH1 0x4 ADD PUSH2 0x44E SWAP2 SWAP1 PUSH2 0x1123 JUMP JUMPDEST PUSH1 0x20 PUSH1 0x40 MLOAD DUP1 DUP4 SUB DUP2 DUP7 GAS STATICCALL ISZERO DUP1 ISZERO PUSH2 0x46B JUMPI RETURNDATASIZE PUSH1 0x0 DUP1 RETURNDATACOPY RETURNDATASIZE PUSH1 0x0 REVERT JUMPDEST POP POP POP POP PUSH1 0x40 MLOAD RETURNDATASIZE PUSH1 0x1F NOT PUSH1 0x1F DUP3 ADD AND DUP3 ADD DUP1 PUSH1 0x40 MSTORE POP DUP2 ADD SWAP1 PUSH2 0x48F SWAP2 SWAP1 PUSH2 0x117C JUMP JUMPDEST SWAP1 POP PUSH1 0x0 DUP1 SLOAD SWAP1 PUSH2 0x100 EXP SWAP1 DIV PUSH20 0xFFFFFFFFFFFFFFFFFFFFFFFFFFFFFFFFFFFFFFFF AND PUSH20 0xFFFFFFFFFFFFFFFFFFFFFFFFFFFFFFFFFFFFFFFF AND PUSH4 0x23B872DD CALLER ADDRESS DUP6 PUSH1 0x40 MLOAD DUP5 PUSH4 0xFFFFFFFF AND PUSH1 0xE0 SHL DUP2 MSTORE PUSH1 0x4 ADD PUSH2 0x4EE SWAP4 SWAP3 SWAP2 SWAP1 PUSH2 0x1226 JUMP JUMPDEST PUSH1 0x20 PUSH1 0x40 MLOAD DUP1 DUP4 SUB DUP2 PUSH1 0x0 DUP8 GAS CALL ISZERO DUP1 ISZERO PUSH2 0x50D JUMPI RETURNDATASIZE PUSH1 0x0 DUP1 RETURNDATACOPY RETURNDATASIZE PUSH1 0x0 REVERT JUMPDEST POP POP POP POP PUSH1 0x40 MLOAD RETURNDATASIZE PUSH1 0x1F NOT PUSH1 0x1F DUP3 ADD AND DUP3 ADD DUP1 PUSH1 0x40 MSTORE POP DUP2 ADD SWAP1 PUSH2 0x531 SWAP2 SWAP1 PUSH2 0x1295 JUMP JUMPDEST POP PUSH1 0x0 DUP2 SELFBALANCE PUSH2 0x540 SWAP2 SWAP1 PUSH2 0x1320 JUMP JUMPDEST DUP4 PUSH2 0x54B SWAP2 SWAP1 PUSH2 0x1351 JUMP JUMPDEST SWAP1 POP DUP1 SELFBALANCE GT PUSH2 0x559 JUMPI PUSH1 0x0 DUP1 REVERT JUMPDEST PUSH1 0x0 CALLER PUSH20 0xFFFFFFFFFFFFFFFFFFFFFFFFFFFFFFFFFFFFFFFF AND DUP3 PUSH1 0x40 MLOAD PUSH2 0x57F SWAP1 PUSH2 0x13C4 JUMP JUMPDEST PUSH1 0x0 PUSH1 0x40 MLOAD DUP1 DUP4 SUB DUP2 DUP6 DUP8 GAS CALL SWAP3 POP POP POP RETURNDATASIZE DUP1 PUSH1 0x0 DUP2 EQ PUSH2 0x5BC JUMPI PUSH1 0x40 MLOAD SWAP2 POP PUSH1 0x1F NOT PUSH1 0x3F RETURNDATASIZE ADD AND DUP3 ADD PUSH1 0x40 MSTORE RETURNDATASIZE DUP3 MSTORE RETURNDATASIZE PUSH1 0x0 PUSH1 0x20 DUP5 ADD RETURNDATACOPY PUSH2 0x5C1 JUMP JUMPDEST PUSH1 0x60 SWAP2 POP JUMPDEST POP POP SWAP1 POP DUP1 PUSH2 0x605 JUMPI PUSH1 0x40 MLOAD PUSH32 0x8C379A000000000000000000000000000000000000000000000000000000000 DUP2 MSTORE PUSH1 0x4 ADD PUSH2 0x5FC SWAP1 PUSH2 0x1425 JUMP JUMPDEST PUSH1 0x40 MLOAD DUP1 SWAP2 SUB SWAP1 REVERT JUMPDEST POP PUSH2 0x60E PUSH2 0x7FB JUMP JUMPDEST POP POP POP JUMP JUMPDEST PUSH1 0x0 CALLVALUE GT PUSH2 0x656 JUMPI PUSH1 0x40 MLOAD PUSH32 0x8C379A000000000000000000000000000000000000000000000000000000000 DUP2 MSTORE PUSH1 0x4 ADD PUSH2 0x64D SWAP1 PUSH2 0x14B7 JUMP JUMPDEST PUSH1 0x40 MLOAD DUP1 SWAP2 SUB SWAP1 REVERT JUMPDEST PUSH1 0x0 DUP1 PUSH1 0x0 SWAP1 SLOAD SWAP1 PUSH2 0x100 EXP SWAP1 DIV PUSH20 0xFFFFFFFFFFFFFFFFFFFFFFFFFFFFFFFFFFFFFFFF AND PUSH20 0xFFFFFFFFFFFFFFFFFFFFFFFFFFFFFFFFFFFFFFFF AND PUSH4 0x70A08231 ADDRESS PUSH1 0x40 MLOAD DUP3 PUSH4 0xFFFFFFFF AND PUSH1 0xE0 SHL DUP2 MSTORE PUSH1 0x4 ADD PUSH2 0x6B2 SWAP2 SWAP1 PUSH2 0x1123 JUMP JUMPDEST PUSH1 0x20 PUSH1 0x40 MLOAD DUP1 DUP4 SUB DUP2 DUP7 GAS STATICCALL ISZERO DUP1 ISZERO PUSH2 0x6CF JUMPI RETURNDATASIZE PUSH1 0x0 DUP1 RETURNDATACOPY RETURNDATASIZE PUSH1 0x0 REVERT JUMPDEST POP POP POP POP PUSH1 0x40 MLOAD RETURNDATASIZE PUSH1 0x1F NOT PUSH1 0x1F DUP3 ADD AND DUP3 ADD DUP1 PUSH1 0x40 MSTORE POP DUP2 ADD SWAP1 PUSH2 0x6F3 SWAP2 SWAP1 PUSH2 0x117C JUMP JUMPDEST SWAP1 POP PUSH1 0x0 SELFBALANCE SWAP1 POP PUSH1 0x0 CALLVALUE DUP3 PUSH2 0x708 SWAP2 SWAP1 PUSH2 0x14D7 JUMP JUMPDEST DUP4 PUSH2 0x713 SWAP2 SWAP1 PUSH2 0x1320 JUMP JUMPDEST CALLVALUE PUSH2 0x71E SWAP2 SWAP1 PUSH2 0x1351 JUMP JUMPDEST SWAP1 POP DUP1 DUP4 GT PUSH2 0x72C JUMPI PUSH1 0x0 DUP1 REVERT JUMPDEST PUSH1 0x0 DUP1 SLOAD SWAP1 PUSH2 0x100 EXP SWAP1 DIV PUSH20 0xFFFFFFFFFFFFFFFFFFFFFFFFFFFFFFFFFFFFFFFF AND PUSH20 0xFFFFFFFFFFFFFFFFFFFFFFFFFFFFFFFFFFFFFFFF AND PUSH4 0xA9059CBB CALLER DUP4 PUSH1 0x40 MLOAD DUP4 PUSH4 0xFFFFFFFF AND PUSH1 0xE0 SHL DUP2 MSTORE PUSH1 0x4 ADD PUSH2 0x787 SWAP3 SWAP2 SWAP1 PUSH2 0x150B JUMP JUMPDEST PUSH1 0x20 PUSH1 0x40 MLOAD DUP1 DUP4 SUB DUP2 PUSH1 0x0 DUP8 GAS CALL ISZERO DUP1 ISZERO PUSH2 0x7A6 JUMPI RETURNDATASIZE PUSH1 0x0 DUP1 RETURNDATACOPY RETURNDATASIZE PUSH1 0x0 REVERT JUMPDEST POP POP POP POP PUSH1 0x40 MLOAD RETURNDATASIZE PUSH1 0x1F NOT PUSH1 0x1F DUP3 ADD AND DUP3 ADD DUP1 PUSH1 0x40 MSTORE POP DUP2 ADD SWAP1 PUSH2 0x7CA SWAP2 SWAP1 PUSH2 0x1295 JUMP JUMPDEST POP PUSH2 0x7D3 PUSH2 0x7FB JUMP JUMPDEST POP POP POP JUMP JUMPDEST PUSH1 0x0 CALLVALUE GT ISZERO PUSH2 0x7EE JUMPI PUSH2 0x7E9 PUSH2 0x613 JUMP JUMPDEST PUSH2 0x7F8 JUMP JUMPDEST PUSH2 0x7F7 DUP2 PUSH2 0x314 JUMP JUMPDEST JUMPDEST POP JUMP JUMPDEST PUSH1 0x0 DUP1 SLOAD SWAP1 PUSH2 0x100 EXP SWAP1 DIV PUSH20 0xFFFFFFFFFFFFFFFFFFFFFFFFFFFFFFFFFFFFFFFF AND PUSH20 0xFFFFFFFFFFFFFFFFFFFFFFFFFFFFFFFFFFFFFFFF AND PUSH4 0x70A08231 ADDRESS PUSH1 0x40 MLOAD DUP3 PUSH4 0xFFFFFFFF AND PUSH1 0xE0 SHL DUP2 MSTORE PUSH1 0x4 ADD PUSH2 0x854 SWAP2 SWAP1 PUSH2 0x1123 JUMP JUMPDEST PUSH1 0x20 PUSH1 0x40 MLOAD DUP1 DUP4 SUB DUP2 DUP7 GAS STATICCALL ISZERO DUP1 ISZERO PUSH2 0x871 JUMPI RETURNDATASIZE PUSH1 0x0 DUP1 RETURNDATACOPY RETURNDATASIZE PUSH1 0x0 REVERT JUMPDEST POP POP POP POP PUSH1 0x40 MLOAD RETURNDATASIZE PUSH1 0x1F NOT PUSH1 0x1F DUP3 ADD AND DUP3 ADD DUP1 PUSH1 0x40 MSTORE POP DUP2 ADD SWAP1 PUSH2 0x895 SWAP2 SWAP1 PUSH2 0x117C JUMP JUMPDEST PUSH1 0x2 DUP2 SWAP1 SSTORE POP SELFBALANCE PUSH1 0x3 DUP2 SWAP1 SSTORE POP PUSH1 0x3 SLOAD PUSH1 0x2 SLOAD PUSH2 0x8B2 SWAP2 SWAP1 PUSH2 0x1320 JUMP JUMPDEST PUSH1 0x4 DUP2 SWAP1 SSTORE POP PUSH1 0x2 SLOAD PUSH1 0x3 SLOAD PUSH2 0x8C8 SWAP2 SWAP1 PUSH2 0x1320 JUMP JUMPDEST PUSH1 0x5 DUP2 SWAP1 SSTORE POP JUMP JUMPDEST PUSH20 0xE2899BDDFD890E320E643044C6B95B9B0B84157A PUSH20 0xFFFFFFFFFFFFFFFFFFFFFFFFFFFFFFFFFFFFFFFF AND PUSH4 0xA9059CBB DUP4 DUP4 PUSH1 0x40 MLOAD DUP4 PUSH4 0xFFFFFFFF AND PUSH1 0xE0 SHL DUP2 MSTORE PUSH1 0x4 ADD PUSH2 0x91F SWAP3 SWAP2 SWAP1 PUSH2 0x150B JUMP JUMPDEST PUSH1 0x20 PUSH1 0x40 MLOAD DUP1 DUP4 SUB DUP2 PUSH1 0x0 DUP8 GAS CALL ISZERO DUP1 ISZERO PUSH2 0x93E JUMPI RETURNDATASIZE PUSH1 0x0 DUP1 RETURNDATACOPY RETURNDATASIZE PUSH1 0x0 REVERT JUMPDEST POP POP POP POP PUSH1 0x40 MLOAD RETURNDATASIZE PUSH1 0x1F NOT PUSH1 0x1F DUP3 ADD AND DUP3 ADD DUP1 PUSH1 0x40 MSTORE POP DUP2 ADD SWAP1 PUSH2 0x962 SWAP2 SWAP1 PUSH2 0x1295 JUMP JUMPDEST POP POP POP JUMP JUMPDEST PUSH1 0x2 SLOAD DUP2 JUMP JUMPDEST PUSH1 0x0 DUP1 SLOAD SWAP1 PUSH2 0x100 EXP SWAP1 DIV PUSH20 0xFFFFFFFFFFFFFFFFFFFFFFFFFFFFFFFFFFFFFFFF AND PUSH20 0xFFFFFFFFFFFFFFFFFFFFFFFFFFFFFFFFFFFFFFFF AND PUSH4 0x23B872DD CALLER ADDRESS DUP5 PUSH1 0x40 MLOAD DUP5 PUSH4 0xFFFFFFFF AND PUSH1 0xE0 SHL DUP2 MSTORE PUSH1 0x4 ADD PUSH2 0x9CA SWAP4 SWAP3 SWAP2 SWAP1 PUSH2 0x1226 JUMP JUMPDEST PUSH1 0x20 PUSH1 0x40 MLOAD DUP1 DUP4 SUB DUP2 PUSH1 0x0 DUP8 GAS CALL ISZERO DUP1 ISZERO PUSH2 0x9E9 JUMPI RETURNDATASIZE PUSH1 0x0 DUP1 RETURNDATACOPY RETURNDATASIZE PUSH1 0x0 REVERT JUMPDEST POP POP POP POP PUSH1 0x40 MLOAD RETURNDATASIZE PUSH1 0x1F NOT PUSH1 0x1F DUP3 ADD AND DUP3 ADD DUP1 PUSH1 0x40 MSTORE POP DUP2 ADD SWAP1 PUSH2 0xA0D SWAP2 SWAP1 PUSH2 0x1295 JUMP JUMPDEST POP SELFBALANCE DUP2 PUSH2 0xA1A SWAP2 SWAP1 PUSH2 0x1351 JUMP JUMPDEST PUSH1 0x1 DUP2 SWAP1 SSTORE POP PUSH2 0xA28 PUSH2 0x7FB JUMP JUMPDEST PUSH20 0xE2899BDDFD890E320E643044C6B95B9B0B84157A PUSH20 0xFFFFFFFFFFFFFFFFFFFFFFFFFFFFFFFFFFFFFFFF AND PUSH4 0xA9059CBB CALLER PUSH2 0xA64 PUSH1 0x1 SLOAD PUSH2 0xE1E JUMP JUMPDEST PUSH1 0x40 MLOAD DUP4 PUSH4 0xFFFFFFFF AND PUSH1 0xE0 SHL DUP2 MSTORE PUSH1 0x4 ADD PUSH2 0xA81 SWAP3 SWAP2 SWAP1 PUSH2 0x150B JUMP JUMPDEST PUSH1 0x20 PUSH1 0x40 MLOAD DUP1 DUP4 SUB DUP2 PUSH1 0x0 DUP8 GAS CALL ISZERO DUP1 ISZERO PUSH2 0xAA0 JUMPI RETURNDATASIZE PUSH1 0x0 DUP1 RETURNDATACOPY RETURNDATASIZE PUSH1 0x0 REVERT JUMPDEST POP POP POP POP PUSH1 0x40 MLOAD RETURNDATASIZE PUSH1 0x1F NOT PUSH1 0x1F DUP3 ADD AND DUP3 ADD DUP1 PUSH1 0x40 MSTORE POP DUP2 ADD SWAP1 PUSH2 0xAC4 SWAP2 SWAP1 PUSH2 0x1295 JUMP JUMPDEST POP PUSH32 0xB62268A18D99FE191AC8E62F823AB1EEC698609A81B2C8DE3DAC902896B09DA6 CALLER DUP3 PUSH1 0x40 MLOAD PUSH2 0xAF6 SWAP3 SWAP2 SWAP1 PUSH2 0x150B JUMP JUMPDEST PUSH1 0x40 MLOAD DUP1 SWAP2 SUB SWAP1 LOG1 POP JUMP JUMPDEST PUSH1 0x0 DUP1 SLOAD SWAP1 PUSH2 0x100 EXP SWAP1 DIV PUSH20 0xFFFFFFFFFFFFFFFFFFFFFFFFFFFFFFFFFFFFFFFF AND DUP2 JUMP JUMPDEST PUSH1 0x0 DUP2 GT PUSH2 0xB68 JUMPI PUSH1 0x40 MLOAD PUSH32 0x8C379A000000000000000000000000000000000000000000000000000000000 DUP2 MSTORE PUSH1 0x4 ADD PUSH2 0xB5F SWAP1 PUSH2 0x1580 JUMP JUMPDEST PUSH1 0x40 MLOAD DUP1 SWAP2 SUB SWAP1 REVERT JUMPDEST DUP1 PUSH20 0xE2899BDDFD890E320E643044C6B95B9B0B84157A PUSH20 0xFFFFFFFFFFFFFFFFFFFFFFFFFFFFFFFFFFFFFFFF AND PUSH4 0xDD62ED3E CALLER ADDRESS PUSH1 0x40 MLOAD DUP4 PUSH4 0xFFFFFFFF AND PUSH1 0xE0 SHL DUP2 MSTORE PUSH1 0x4 ADD PUSH2 0xBB8 SWAP3 SWAP2 SWAP1 PUSH2 0x113E JUMP JUMPDEST PUSH1 0x20 PUSH1 0x40 MLOAD DUP1 DUP4 SUB DUP2 DUP7 GAS STATICCALL ISZERO DUP1 ISZERO PUSH2 0xBD5 JUMPI RETURNDATASIZE PUSH1 0x0 DUP1 RETURNDATACOPY RETURNDATASIZE PUSH1 0x0 REVERT JUMPDEST POP POP POP POP PUSH1 0x40 MLOAD RETURNDATASIZE PUSH1 0x1F NOT PUSH1 0x1F DUP3 ADD AND DUP3 ADD DUP1 PUSH1 0x40 MSTORE POP DUP2 ADD SWAP1 PUSH2 0xBF9 SWAP2 SWAP1 PUSH2 0x117C JUMP JUMPDEST LT ISZERO PUSH2 0xC3A JUMPI PUSH1 0x40 MLOAD PUSH32 0x8C379A000000000000000000000000000000000000000000000000000000000 DUP2 MSTORE PUSH1 0x4 ADD PUSH2 0xC31 SWAP1 PUSH2 0x1638 JUMP JUMPDEST PUSH1 0x40 MLOAD DUP1 SWAP2 SUB SWAP1 REVERT JUMPDEST PUSH20 0xE2899BDDFD890E320E643044C6B95B9B0B84157A PUSH20 0xFFFFFFFFFFFFFFFFFFFFFFFFFFFFFFFFFFFFFFFF AND PUSH4 0x23B872DD CALLER ADDRESS DUP5 PUSH1 0x40 MLOAD DUP5 PUSH4 0xFFFFFFFF AND PUSH1 0xE0 SHL DUP2 MSTORE PUSH1 0x4 ADD PUSH2 0xC8B SWAP4 SWAP3 SWAP2 SWAP1 PUSH2 0x1226 JUMP JUMPDEST PUSH1 0x20 PUSH1 0x40 MLOAD DUP1 DUP4 SUB DUP2 PUSH1 0x0 DUP8 GAS CALL ISZERO DUP1 ISZERO PUSH2 0xCAA JUMPI RETURNDATASIZE PUSH1 0x0 DUP1 RETURNDATACOPY RETURNDATASIZE PUSH1 0x0 REVERT JUMPDEST POP POP POP POP PUSH1 0x40 MLOAD RETURNDATASIZE PUSH1 0x1F NOT PUSH1 0x1F DUP3 ADD AND DUP3 ADD DUP1 PUSH1 0x40 MSTORE POP DUP2 ADD SWAP1 PUSH2 0xCCE SWAP2 SWAP1 PUSH2 0x1295 JUMP JUMPDEST POP PUSH1 0x0 DUP1 SLOAD SWAP1 PUSH2 0x100 EXP SWAP1 DIV PUSH20 0xFFFFFFFFFFFFFFFFFFFFFFFFFFFFFFFFFFFFFFFF AND PUSH20 0xFFFFFFFFFFFFFFFFFFFFFFFFFFFFFFFFFFFFFFFF AND PUSH4 0xA9059CBB CALLER DUP4 PUSH1 0x40 MLOAD DUP4 PUSH4 0xFFFFFFFF AND PUSH1 0xE0 SHL DUP2 MSTORE PUSH1 0x4 ADD PUSH2 0xD2A SWAP3 SWAP2 SWAP1 PUSH2 0x150B JUMP JUMPDEST PUSH1 0x20 PUSH1 0x40 MLOAD DUP1 DUP4 SUB DUP2 PUSH1 0x0 DUP8 GAS CALL ISZERO DUP1 ISZERO PUSH2 0xD49 JUMPI RETURNDATASIZE PUSH1 0x0 DUP1 RETURNDATACOPY RETURNDATASIZE PUSH1 0x0 REVERT JUMPDEST POP POP POP POP PUSH1 0x40 MLOAD RETURNDATASIZE PUSH1 0x1F NOT PUSH1 0x1F DUP3 ADD AND DUP3 ADD DUP1 PUSH1 0x40 MSTORE POP DUP2 ADD SWAP1 PUSH2 0xD6D SWAP2 SWAP1 PUSH2 0x1295 JUMP JUMPDEST POP PUSH1 0x0 CALLER PUSH20 0xFFFFFFFFFFFFFFFFFFFFFFFFFFFFFFFFFFFFFFFF AND DUP3 PUSH1 0x40 MLOAD PUSH2 0xD94 SWAP1 PUSH2 0x13C4 JUMP JUMPDEST PUSH1 0x0 PUSH1 0x40 MLOAD DUP1 DUP4 SUB DUP2 DUP6 DUP8 GAS CALL SWAP3 POP POP POP RETURNDATASIZE DUP1 PUSH1 0x0 DUP2 EQ PUSH2 0xDD1 JUMPI PUSH1 0x40 MLOAD SWAP2 POP PUSH1 0x1F NOT PUSH1 0x3F RETURNDATASIZE ADD AND DUP3 ADD PUSH1 0x40 MSTORE RETURNDATASIZE DUP3 MSTORE RETURNDATASIZE PUSH1 0x0 PUSH1 0x20 DUP5 ADD RETURNDATACOPY PUSH2 0xDD6 JUMP JUMPDEST PUSH1 0x60 SWAP2 POP JUMPDEST POP POP SWAP1 POP DUP1 PUSH2 0xE1A JUMPI PUSH1 0x40 MLOAD PUSH32 0x8C379A000000000000000000000000000000000000000000000000000000000 DUP2 MSTORE PUSH1 0x4 ADD PUSH2 0xE11 SWAP1 PUSH2 0x16A4 JUMP JUMPDEST PUSH1 0x40 MLOAD DUP1 SWAP2 SUB SWAP1 REVERT JUMPDEST POP POP JUMP JUMPDEST PUSH1 0x0 DUP1 DUP3 SUB PUSH2 0xE30 JUMPI PUSH1 0x0 SWAP1 POP PUSH2 0xFC6 JUMP JUMPDEST PUSH1 0x0 PUSH1 0x1 SWAP1 POP PUSH1 0x0 DUP4 SWAP1 POP PUSH1 0x0 PUSH1 0x80 DUP3 SWAP1 SHR GT ISZERO PUSH2 0xE57 JUMPI PUSH1 0x80 DUP2 SWAP1 SHR SWAP1 POP PUSH1 0x40 DUP3 SWAP1 SHL SWAP2 POP JUMPDEST PUSH1 0x0 PUSH1 0x40 DUP3 SWAP1 SHR GT ISZERO PUSH2 0xE73 JUMPI PUSH1 0x40 DUP2 SWAP1 SHR SWAP1 POP PUSH1 0x20 DUP3 SWAP1 SHL SWAP2 POP JUMPDEST PUSH1 0x0 PUSH1 0x20 DUP3 SWAP1 SHR GT ISZERO PUSH2 0xE8F JUMPI PUSH1 0x20 DUP2 SWAP1 SHR SWAP1 POP PUSH1 0x10 DUP3 SWAP1 SHL SWAP2 POP JUMPDEST PUSH1 0x0 PUSH1 0x10 DUP3 SWAP1 SHR GT ISZERO PUSH2 0xEAB JUMPI PUSH1 0x10 DUP2 SWAP1 SHR SWAP1 POP PUSH1 0x8 DUP3 SWAP1 SHL SWAP2 POP JUMPDEST PUSH1 0x0 PUSH1 0x8 DUP3 SWAP1 SHR GT ISZERO PUSH2 0xEC7 JUMPI PUSH1 0x8 DUP2 SWAP1 SHR SWAP1 POP PUSH1 0x4 DUP3 SWAP1 SHL SWAP2 POP JUMPDEST PUSH1 0x0 PUSH1 0x4 DUP3 SWAP1 SHR GT ISZERO PUSH2 0xEE3 JUMPI PUSH1 0x4 DUP2 SWAP1 SHR SWAP1 POP PUSH1 0x2 DUP3 SWAP1 SHL SWAP2 POP JUMPDEST PUSH1 0x0 PUSH1 0x2 DUP3 SWAP1 SHR GT ISZERO PUSH2 0xEF8 JUMPI PUSH1 0x1 DUP3 SWAP1 SHL SWAP2 POP JUMPDEST PUSH1 0x1 DUP3 DUP6 DUP2 PUSH2 0xF0A JUMPI PUSH2 0xF09 PUSH2 0x12C2 JUMP JUMPDEST JUMPDEST DIV DUP4 ADD SWAP1 SHR SWAP2 POP PUSH1 0x1 DUP3 DUP6 DUP2 PUSH2 0xF23 JUMPI PUSH2 0xF22 PUSH2 0x12C2 JUMP JUMPDEST JUMPDEST DIV DUP4 ADD SWAP1 SHR SWAP2 POP PUSH1 0x1 DUP3 DUP6 DUP2 PUSH2 0xF3C JUMPI PUSH2 0xF3B PUSH2 0x12C2 JUMP JUMPDEST JUMPDEST DIV DUP4 ADD SWAP1 SHR SWAP2 POP PUSH1 0x1 DUP3 DUP6 DUP2 PUSH2 0xF55 JUMPI PUSH2 0xF54 PUSH2 0x12C2 JUMP JUMPDEST JUMPDEST DIV DUP4 ADD SWAP1 SHR SWAP2 POP PUSH1 0x1 DUP3 DUP6 DUP2 PUSH2 0xF6E JUMPI PUSH2 0xF6D PUSH2 0x12C2 JUMP JUMPDEST JUMPDEST DIV DUP4 ADD SWAP1 SHR SWAP2 POP PUSH1 0x1 DUP3 DUP6 DUP2 PUSH2 0xF87 JUMPI PUSH2 0xF86 PUSH2 0x12C2 JUMP JUMPDEST JUMPDEST DIV DUP4 ADD SWAP1 SHR SWAP2 POP PUSH1 0x1 DUP3 DUP6 DUP2 PUSH2 0xFA0 JUMPI PUSH2 0xF9F PUSH2 0x12C2 JUMP JUMPDEST JUMPDEST DIV DUP4 ADD SWAP1 SHR SWAP2 POP PUSH2 0xFC1 DUP3 DUP4 DUP7 DUP2 PUSH2 0xFBB JUMPI PUSH2 0xFBA PUSH2 0x12C2 JUMP JUMPDEST JUMPDEST DIV PUSH2 0xFCB JUMP JUMPDEST SWAP3 POP POP POP JUMPDEST SWAP2 SWAP1 POP JUMP JUMPDEST PUSH1 0x0 DUP2 DUP4 LT PUSH2 0xFDA JUMPI DUP2 PUSH2 0xFDC JUMP JUMPDEST DUP3 JUMPDEST SWAP1 POP SWAP3 SWAP2 POP POP JUMP JUMPDEST PUSH1 0x0 DUP2 SWAP1 POP SWAP2 SWAP1 POP JUMP JUMPDEST PUSH2 0xFF7 DUP2 PUSH2 0xFE4 JUMP JUMPDEST DUP3 MSTORE POP POP JUMP JUMPDEST PUSH1 0x0 PUSH1 0x20 DUP3 ADD SWAP1 POP PUSH2 0x1012 PUSH1 0x0 DUP4 ADD DUP5 PUSH2 0xFEE JUMP JUMPDEST SWAP3 SWAP2 POP POP JUMP JUMPDEST PUSH1 0x0 DUP1 REVERT JUMPDEST PUSH2 0x1026 DUP2 PUSH2 0xFE4 JUMP JUMPDEST DUP2 EQ PUSH2 0x1031 JUMPI PUSH1 0x0 DUP1 REVERT JUMPDEST POP JUMP JUMPDEST PUSH1 0x0 DUP2 CALLDATALOAD SWAP1 POP PUSH2 0x1043 DUP2 PUSH2 0x101D JUMP JUMPDEST SWAP3 SWAP2 POP POP JUMP JUMPDEST PUSH1 0x0 PUSH1 0x20 DUP3 DUP5 SUB SLT ISZERO PUSH2 0x105F JUMPI PUSH2 0x105E PUSH2 0x1018 JUMP JUMPDEST JUMPDEST PUSH1 0x0 PUSH2 0x106D DUP5 DUP3 DUP6 ADD PUSH2 0x1034 JUMP JUMPDEST SWAP2 POP POP SWAP3 SWAP2 POP POP JUMP JUMPDEST PUSH1 0x0 PUSH20 0xFFFFFFFFFFFFFFFFFFFFFFFFFFFFFFFFFFFFFFFF DUP3 AND SWAP1 POP SWAP2 SWAP1 POP JUMP JUMPDEST PUSH1 0x0 PUSH2 0x10A1 DUP3 PUSH2 0x1076 JUMP JUMPDEST SWAP1 POP SWAP2 SWAP1 POP JUMP JUMPDEST PUSH2 0x10B1 DUP2 PUSH2 0x1096 JUMP JUMPDEST DUP2 EQ PUSH2 0x10BC JUMPI PUSH1 0x0 DUP1 REVERT JUMPDEST POP JUMP JUMPDEST PUSH1 0x0 DUP2 CALLDATALOAD SWAP1 POP PUSH2 0x10CE DUP2 PUSH2 0x10A8 JUMP JUMPDEST SWAP3 SWAP2 POP POP JUMP JUMPDEST PUSH1 0x0 DUP1 PUSH1 0x40 DUP4 DUP6 SUB SLT ISZERO PUSH2 0x10EB JUMPI PUSH2 0x10EA PUSH2 0x1018 JUMP JUMPDEST JUMPDEST PUSH1 0x0 PUSH2 0x10F9 DUP6 DUP3 DUP7 ADD PUSH2 0x10BF JUMP JUMPDEST SWAP3 POP POP PUSH1 0x20 PUSH2 0x110A DUP6 DUP3 DUP7 ADD PUSH2 0x1034 JUMP JUMPDEST SWAP2 POP POP SWAP3 POP SWAP3 SWAP1 POP JUMP JUMPDEST PUSH2 0x111D DUP2 PUSH2 0x1096 JUMP JUMPDEST DUP3 MSTORE POP POP JUMP JUMPDEST PUSH1 0x0 PUSH1 0x20 DUP3 ADD SWAP1 POP PUSH2 0x1138 PUSH1 0x0 DUP4 ADD DUP5 PUSH2 0x1114 JUMP JUMPDEST SWAP3 SWAP2 POP POP JUMP JUMPDEST PUSH1 0x0 PUSH1 0x40 DUP3 ADD SWAP1 POP PUSH2 0x1153 PUSH1 0x0 DUP4 ADD DUP6 PUSH2 0x1114 JUMP JUMPDEST PUSH2 0x1160 PUSH1 0x20 DUP4 ADD DUP5 PUSH2 0x1114 JUMP JUMPDEST SWAP4 SWAP3 POP POP POP JUMP JUMPDEST PUSH1 0x0 DUP2 MLOAD SWAP1 POP PUSH2 0x1176 DUP2 PUSH2 0x101D JUMP JUMPDEST SWAP3 SWAP2 POP POP JUMP JUMPDEST PUSH1 0x0 PUSH1 0x20 DUP3 DUP5 SUB SLT ISZERO PUSH2 0x1192 JUMPI PUSH2 0x1191 PUSH2 0x1018 JUMP JUMPDEST JUMPDEST PUSH1 0x0 PUSH2 0x11A0 DUP5 DUP3 DUP6 ADD PUSH2 0x1167 JUMP JUMPDEST SWAP2 POP POP SWAP3 SWAP2 POP POP JUMP JUMPDEST PUSH1 0x0 DUP3 DUP3 MSTORE PUSH1 0x20 DUP3 ADD SWAP1 POP SWAP3 SWAP2 POP POP JUMP JUMPDEST PUSH32 0x436F6E7472616374206E6F7420617070726F7665640000000000000000000000 PUSH1 0x0 DUP3 ADD MSTORE POP JUMP JUMPDEST PUSH1 0x0 PUSH2 0x11F0 PUSH1 0x15 DUP4 PUSH2 0x11A9 JUMP JUMPDEST SWAP2 POP PUSH2 0x11FB DUP3 PUSH2 0x11BA JUMP JUMPDEST PUSH1 0x20 DUP3 ADD SWAP1 POP SWAP2 SWAP1 POP JUMP JUMPDEST PUSH1 0x0 PUSH1 0x20 DUP3 ADD SWAP1 POP DUP2 DUP2 SUB PUSH1 0x0 DUP4 ADD MSTORE PUSH2 0x121F DUP2 PUSH2 0x11E3 JUMP JUMPDEST SWAP1 POP SWAP2 SWAP1 POP JUMP JUMPDEST PUSH1 0x0 PUSH1 0x60 DUP3 ADD SWAP1 POP PUSH2 0x123B PUSH1 0x0 DUP4 ADD DUP7 PUSH2 0x1114 JUMP JUMPDEST PUSH2 0x1248 PUSH1 0x20 DUP4 ADD DUP6 PUSH2 0x1114 JUMP JUMPDEST PUSH2 0x1255 PUSH1 0x40 DUP4 ADD DUP5 PUSH2 0xFEE JUMP JUMPDEST SWAP5 SWAP4 POP POP POP POP JUMP JUMPDEST PUSH1 0x0 DUP2 ISZERO ISZERO SWAP1 POP SWAP2 SWAP1 POP JUMP JUMPDEST PUSH2 0x1272 DUP2 PUSH2 0x125D JUMP JUMPDEST DUP2 EQ PUSH2 0x127D JUMPI PUSH1 0x0 DUP1 REVERT JUMPDEST POP JUMP JUMPDEST PUSH1 0x0 DUP2 MLOAD SWAP1 POP PUSH2 0x128F DUP2 PUSH2 0x1269 JUMP JUMPDEST SWAP3 SWAP2 POP POP JUMP JUMPDEST PUSH1 0x0 PUSH1 0x20 DUP3 DUP5 SUB SLT ISZERO PUSH2 0x12AB JUMPI PUSH2 0x12AA PUSH2 0x1018 JUMP JUMPDEST JUMPDEST PUSH1 0x0 PUSH2 0x12B9 DUP5 DUP3 DUP6 ADD PUSH2 0x1280 JUMP JUMPDEST SWAP2 POP POP SWAP3 SWAP2 POP POP JUMP JUMPDEST PUSH32 0x4E487B7100000000000000000000000000000000000000000000000000000000 PUSH1 0x0 MSTORE PUSH1 0x12 PUSH1 0x4 MSTORE PUSH1 0x24 PUSH1 0x0 REVERT JUMPDEST PUSH32 0x4E487B7100000000000000000000000000000000000000000000000000000000 PUSH1 0x0 MSTORE PUSH1 0x11 PUSH1 0x4 MSTORE PUSH1 0x24 PUSH1 0x0 REVERT JUMPDEST PUSH1 0x0 PUSH2 0x132B DUP3 PUSH2 0xFE4 JUMP JUMPDEST SWAP2 POP PUSH2 0x1336 DUP4 PUSH2 0xFE4 JUMP JUMPDEST SWAP3 POP DUP3 PUSH2 0x1346 JUMPI PUSH2 0x1345 PUSH2 0x12C2 JUMP JUMPDEST JUMPDEST DUP3 DUP3 DIV SWAP1 POP SWAP3 SWAP2 POP POP JUMP JUMPDEST PUSH1 0x0 PUSH2 0x135C DUP3 PUSH2 0xFE4 JUMP JUMPDEST SWAP2 POP PUSH2 0x1367 DUP4 PUSH2 0xFE4 JUMP JUMPDEST SWAP3 POP DUP3 DUP3 MUL PUSH2 0x1375 DUP2 PUSH2 0xFE4 JUMP JUMPDEST SWAP2 POP DUP3 DUP3 DIV DUP5 EQ DUP4 ISZERO OR PUSH2 0x138C JUMPI PUSH2 0x138B PUSH2 0x12F1 JUMP JUMPDEST JUMPDEST POP SWAP3 SWAP2 POP POP JUMP JUMPDEST PUSH1 0x0 DUP2 SWAP1 POP SWAP3 SWAP2 POP POP JUMP JUMPDEST POP JUMP JUMPDEST PUSH1 0x0 PUSH2 0x13AE PUSH1 0x0 DUP4 PUSH2 0x1393 JUMP JUMPDEST SWAP2 POP PUSH2 0x13B9 DUP3 PUSH2 0x139E JUMP JUMPDEST PUSH1 0x0 DUP3 ADD SWAP1 POP SWAP2 SWAP1 POP JUMP JUMPDEST PUSH1 0x0 PUSH2 0x13CF DUP3 PUSH2 0x13A1 JUMP JUMPDEST SWAP2 POP DUP2 SWAP1 POP SWAP2 SWAP1 POP JUMP JUMPDEST PUSH32 0x5472616E73666572204661696C65640000000000000000000000000000000000 PUSH1 0x0 DUP3 ADD MSTORE POP JUMP JUMPDEST PUSH1 0x0 PUSH2 0x140F PUSH1 0xF DUP4 PUSH2 0x11A9 JUMP JUMPDEST SWAP2 POP PUSH2 0x141A DUP3 PUSH2 0x13D9 JUMP JUMPDEST PUSH1 0x20 DUP3 ADD SWAP1 POP SWAP2 SWAP1 POP JUMP JUMPDEST PUSH1 0x0 PUSH1 0x20 DUP3 ADD SWAP1 POP DUP2 DUP2 SUB PUSH1 0x0 DUP4 ADD MSTORE PUSH2 0x143E DUP2 PUSH2 0x1402 JUMP JUMPDEST SWAP1 POP SWAP2 SWAP1 POP JUMP JUMPDEST PUSH32 0x5468652065746820616D6F756E7420737570706C696564206D75737420626520 PUSH1 0x0 DUP3 ADD MSTORE PUSH32 0x67726561746572207468616E2030000000000000000000000000000000000000 PUSH1 0x20 DUP3 ADD MSTORE POP JUMP JUMPDEST PUSH1 0x0 PUSH2 0x14A1 PUSH1 0x2E DUP4 PUSH2 0x11A9 JUMP JUMPDEST SWAP2 POP PUSH2 0x14AC DUP3 PUSH2 0x1445 JUMP JUMPDEST PUSH1 0x40 DUP3 ADD SWAP1 POP SWAP2 SWAP1 POP JUMP JUMPDEST PUSH1 0x0 PUSH1 0x20 DUP3 ADD SWAP1 POP DUP2 DUP2 SUB PUSH1 0x0 DUP4 ADD MSTORE PUSH2 0x14D0 DUP2 PUSH2 0x1494 JUMP JUMPDEST SWAP1 POP SWAP2 SWAP1 POP JUMP JUMPDEST PUSH1 0x0 PUSH2 0x14E2 DUP3 PUSH2 0xFE4 JUMP JUMPDEST SWAP2 POP PUSH2 0x14ED DUP4 PUSH2 0xFE4 JUMP JUMPDEST SWAP3 POP DUP3 DUP3 SUB SWAP1 POP DUP2 DUP2 GT ISZERO PUSH2 0x1505 JUMPI PUSH2 0x1504 PUSH2 0x12F1 JUMP JUMPDEST JUMPDEST SWAP3 SWAP2 POP POP JUMP JUMPDEST PUSH1 0x0 PUSH1 0x40 DUP3 ADD SWAP1 POP PUSH2 0x1520 PUSH1 0x0 DUP4 ADD DUP6 PUSH2 0x1114 JUMP JUMPDEST PUSH2 0x152D PUSH1 0x20 DUP4 ADD DUP5 PUSH2 0xFEE JUMP JUMPDEST SWAP4 SWAP3 POP POP POP JUMP JUMPDEST PUSH32 0x496E76616C696420616D6F756E74206F66207368617265730000000000000000 PUSH1 0x0 DUP3 ADD MSTORE POP JUMP JUMPDEST PUSH1 0x0 PUSH2 0x156A PUSH1 0x18 DUP4 PUSH2 0x11A9 JUMP JUMPDEST SWAP2 POP PUSH2 0x1575 DUP3 PUSH2 0x1534 JUMP JUMPDEST PUSH1 0x20 DUP3 ADD SWAP1 POP SWAP2 SWAP1 POP JUMP JUMPDEST PUSH1 0x0 PUSH1 0x20 DUP3 ADD SWAP1 POP DUP2 DUP2 SUB PUSH1 0x0 DUP4 ADD MSTORE PUSH2 0x1599 DUP2 PUSH2 0x155D JUMP JUMPDEST SWAP1 POP SWAP2 SWAP1 POP JUMP JUMPDEST PUSH32 0x506C6561736520617070726F76652074686520636F6E747261637420746F2064 PUSH1 0x0 DUP3 ADD MSTORE PUSH32 0x6564756374206C747220746F6B656E732066726F6D20796F75722077616C6C65 PUSH1 0x20 DUP3 ADD MSTORE PUSH32 0x7400000000000000000000000000000000000000000000000000000000000000 PUSH1 0x40 DUP3 ADD MSTORE POP JUMP JUMPDEST PUSH1 0x0 PUSH2 0x1622 PUSH1 0x41 DUP4 PUSH2 0x11A9 JUMP JUMPDEST SWAP2 POP PUSH2 0x162D DUP3 PUSH2 0x15A0 JUMP JUMPDEST PUSH1 0x60 DUP3 ADD SWAP1 POP SWAP2 SWAP1 POP JUMP JUMPDEST PUSH1 0x0 PUSH1 0x20 DUP3 ADD SWAP1 POP DUP2 DUP2 SUB PUSH1 0x0 DUP4 ADD MSTORE PUSH2 0x1651 DUP2 PUSH2 0x1615 JUMP JUMPDEST SWAP1 POP SWAP2 SWAP1 POP JUMP JUMPDEST PUSH32 0x5472616E73666572206661696C65640000000000000000000000000000000000 PUSH1 0x0 DUP3 ADD MSTORE POP JUMP JUMPDEST PUSH1 0x0 PUSH2 0x168E PUSH1 0xF DUP4 PUSH2 0x11A9 JUMP JUMPDEST SWAP2 POP PUSH2 0x1699 DUP3 PUSH2 0x1658 JUMP JUMPDEST PUSH1 0x20 DUP3 ADD SWAP1 POP SWAP2 SWAP1 POP JUMP JUMPDEST PUSH1 0x0 PUSH1 0x20 DUP3 ADD SWAP1 POP DUP2 DUP2 SUB PUSH1 0x0 DUP4 ADD MSTORE PUSH2 0x16BD DUP2 PUSH2 0x1681 JUMP JUMPDEST SWAP1 POP SWAP2 SWAP1 POP JUMP INVALID LOG2 PUSH5 0x6970667358 0x22 SLT KECCAK256 0x49 0xFC EQ 0x4A 0xA7 SWAP3 BLOCKHASH 0x5D PUSH15 0x459B37F76F888D1D3C34CCF20E4D39 DUP8 DUP7 0xF ADDRESS 0xC9 DIV 0xF MLOAD PUSH5 0x736F6C6343 STOP ADDMOD GT STOP CALLER "
				},
				"gasEstimates": {
					"creation": {
						"codeDepositCost": "1176400",
						"executionCost": "infinite",
						"totalCost": "infinite"
					},
					"external": {
						"currentDAIPrice()": "2453",
						"currentEthPrice()": "2497",
						"destroy()": "27789",
						"getDAI()": "infinite",
						"getEth(uint256)": "infinite",
						"kLast()": "2452",
						"provideLiquidity(uint256)": "infinite",
						"reedemShares(uint256)": "infinite",
						"reserveDAI()": "2451",
						"reserveETH()": "2475",
						"reserveToken()": "2577",
						"swap(uint256)": "infinite",
						"transferTokens(address,uint256)": "infinite",
						"update()": "infinite"
					}
				},
				"methodIdentifiers": {
					"currentDAIPrice()": "09f198a1",
					"currentEthPrice()": "1cd732c1",
					"destroy()": "83197ef0",
					"getDAI()": "8ef85568",
					"getEth(uint256)": "8e3073a6",
					"kLast()": "7464fc3d",
					"provideLiquidity(uint256)": "eb521a4c",
					"reedemShares(uint256)": "ff9b3758",
					"reserveDAI()": "bef5401e",
					"reserveETH()": "100af203",
					"reserveToken()": "f4325d67",
					"swap(uint256)": "94b918de",
					"transferTokens(address,uint256)": "bec3fa17",
					"update()": "a2e62045"
				}
			},
			"storageLayout": {
				"storage": [
					{
						"astId": 587,
						"contract": "contracts/LiquidityPool.sol:LiquidityPool",
						"label": "reserveToken",
						"offset": 0,
						"slot": "0",
						"type": "t_address"
					},
					{
						"astId": 592,
						"contract": "contracts/LiquidityPool.sol:LiquidityPool",
						"label": "kLast",
						"offset": 0,
						"slot": "1",
						"type": "t_uint256"
					},
					{
						"astId": 594,
						"contract": "contracts/LiquidityPool.sol:LiquidityPool",
						"label": "reserveDAI",
						"offset": 0,
						"slot": "2",
						"type": "t_uint256"
					},
					{
						"astId": 596,
						"contract": "contracts/LiquidityPool.sol:LiquidityPool",
						"label": "reserveETH",
						"offset": 0,
						"slot": "3",
						"type": "t_uint256"
					},
					{
						"astId": 598,
						"contract": "contracts/LiquidityPool.sol:LiquidityPool",
						"label": "currentEthPrice",
						"offset": 0,
						"slot": "4",
						"type": "t_uint256"
					},
					{
						"astId": 600,
						"contract": "contracts/LiquidityPool.sol:LiquidityPool",
						"label": "currentDAIPrice",
						"offset": 0,
						"slot": "5",
						"type": "t_uint256"
					}
				],
				"types": {
					"t_address": {
						"encoding": "inplace",
						"label": "address",
						"numberOfBytes": "20"
					},
					"t_uint256": {
						"encoding": "inplace",
						"label": "uint256",
						"numberOfBytes": "32"
					}
				}
			},
			"userdoc": {
				"kind": "user",
				"methods": {},
				"version": 1
			}
		}
	}
}