{
	"contracts/Auction_1.sol": {
		"NFTAuction": {
			"abi": [
				{
					"inputs": [
						{
							"internalType": "address",
							"name": "_auctioneer",
							"type": "address"
						},
						{
							"internalType": "uint256",
							"name": "_startPrice",
							"type": "uint256"
						},
						{
							"internalType": "uint256",
							"name": "_tokenId",
							"type": "uint256"
						},
						{
							"internalType": "address",
							"name": "_tokenContract",
							"type": "address"
						}
					],
					"stateMutability": "nonpayable",
					"type": "constructor"
				},
				{
					"anonymous": false,
					"inputs": [
						{
							"indexed": false,
							"internalType": "enum NFTAuction.AuctionStatus",
							"name": "_status",
							"type": "uint8"
						}
					],
					"name": "AuctionState",
					"type": "event"
				},
				{
					"inputs": [],
					"name": "bid",
					"outputs": [],
					"stateMutability": "payable",
					"type": "function"
				},
				{
					"inputs": [
						{
							"internalType": "uint256",
							"name": "",
							"type": "uint256"
						}
					],
					"name": "bidsRegister",
					"outputs": [
						{
							"internalType": "address",
							"name": "",
							"type": "address"
						}
					],
					"stateMutability": "view",
					"type": "function"
				},
				{
					"inputs": [],
					"name": "closeAuction",
					"outputs": [],
					"stateMutability": "nonpayable",
					"type": "function"
				},
				{
					"inputs": [],
					"name": "currentBidPrice",
					"outputs": [
						{
							"internalType": "uint256",
							"name": "",
							"type": "uint256"
						}
					],
					"stateMutability": "view",
					"type": "function"
				},
				{
					"inputs": [],
					"name": "destroy",
					"outputs": [],
					"stateMutability": "payable",
					"type": "function"
				},
				{
					"inputs": [],
					"name": "highestBid",
					"outputs": [
						{
							"internalType": "uint256",
							"name": "",
							"type": "uint256"
						}
					],
					"stateMutability": "view",
					"type": "function"
				},
				{
					"inputs": [],
					"name": "highestBidder",
					"outputs": [
						{
							"internalType": "address",
							"name": "",
							"type": "address"
						}
					],
					"stateMutability": "view",
					"type": "function"
				},
				{
					"inputs": [],
					"name": "initialPrice",
					"outputs": [
						{
							"internalType": "uint256",
							"name": "",
							"type": "uint256"
						}
					],
					"stateMutability": "view",
					"type": "function"
				},
				{
					"inputs": [],
					"name": "startAuction",
					"outputs": [],
					"stateMutability": "nonpayable",
					"type": "function"
				},
				{
					"inputs": [],
					"name": "tokenContract",
					"outputs": [
						{
							"internalType": "address",
							"name": "",
							"type": "address"
						}
					],
					"stateMutability": "view",
					"type": "function"
				},
				{
					"inputs": [],
					"name": "tokenId",
					"outputs": [
						{
							"internalType": "uint256",
							"name": "",
							"type": "uint256"
						}
					],
					"stateMutability": "view",
					"type": "function"
				}
			],
			"devdoc": {
				"kind": "dev",
				"methods": {},
				"version": 1
			},
			"evm": {
				"assembly": "    /* \"contracts/Auction_1.sol\":124:2828  contract NFTAuction{... */\n  mstore(0x40, 0xc0)\n    /* \"contracts/Auction_1.sol\":603:946  constructor(address _auctioneer, uint256 _startPrice, uint256 _tokenId, address _tokenContract) {... */\n  callvalue\n  dup1\n  iszero\n  tag_1\n  jumpi\n  0x00\n  dup1\n  revert\ntag_1:\n  pop\n  mload(0x40)\n  sub(codesize, bytecodeSize)\n  dup1\n  bytecodeSize\n  dup4\n  codecopy\n  dup2\n  dup2\n  add\n  0x40\n  mstore\n  dup2\n  add\n  swap1\n  tag_2\n  swap2\n  swap1\n  tag_3\n  jump\t// in\ntag_2:\n    /* \"contracts/Auction_1.sol\":731:742  _auctioneer */\n  dup4\n    /* \"contracts/Auction_1.sol\":710:720  auctioneer */\n  0x01\n  0x00\n    /* \"contracts/Auction_1.sol\":710:743  auctioneer = payable(_auctioneer) */\n  0x0100\n  exp\n  dup2\n  sload\n  dup2\n  0xffffffffffffffffffffffffffffffffffffffff\n  mul\n  not\n  and\n  swap1\n  dup4\n  0xffffffffffffffffffffffffffffffffffffffff\n  and\n  mul\n  or\n  swap1\n  sstore\n  pop\n    /* \"contracts/Auction_1.sol\":769:780  _startPrice */\n  dup3\n    /* \"contracts/Auction_1.sol\":754:766  initialPrice */\n  0x02\n    /* \"contracts/Auction_1.sol\":754:780  initialPrice = _startPrice */\n  dup2\n  swap1\n  sstore\n  pop\n    /* \"contracts/Auction_1.sol\":801:809  _tokenId */\n  dup2\n    /* \"contracts/Auction_1.sol\":791:809  tokenId = _tokenId */\n  0x80\n  dup2\n  dup2\n  mstore\n  pop\n  pop\n    /* \"contracts/Auction_1.sol\":836:850  _tokenContract */\n  dup1\n    /* \"contracts/Auction_1.sol\":820:850  tokenContract = _tokenContract */\n  0xffffffffffffffffffffffffffffffffffffffff\n  and\n  0xa0\n  dup2\n  0xffffffffffffffffffffffffffffffffffffffff\n  and\n  dup2\n  mstore\n  pop\n  pop\n    /* \"contracts/Auction_1.sol\":870:890  AuctionStatus.CLOSED */\n  0x01\n    /* \"contracts/Auction_1.sol\":861:867  status */\n  0x08\n  0x00\n    /* \"contracts/Auction_1.sol\":861:890  status = AuctionStatus.CLOSED */\n  0x0100\n  exp\n  dup2\n  sload\n  dup2\n  0xff\n  mul\n  not\n  and\n  swap1\n  dup4\n  0x01\n  dup2\n  gt\n  iszero\n  tag_6\n  jumpi\n  tag_7\n  tag_8\n  jump\t// in\ntag_7:\ntag_6:\n  mul\n  or\n  swap1\n  sstore\n  pop\n    /* \"contracts/Auction_1.sol\":923:937  _tokenContract */\n  dup1\n    /* \"contracts/Auction_1.sol\":901:912  NFTContract */\n  0x00\n  dup1\n    /* \"contracts/Auction_1.sol\":901:938  NFTContract = IERC721(_tokenContract) */\n  0x0100\n  exp\n  dup2\n  sload\n  dup2\n  0xffffffffffffffffffffffffffffffffffffffff\n  mul\n  not\n  and\n  swap1\n  dup4\n  0xffffffffffffffffffffffffffffffffffffffff\n  and\n  mul\n  or\n  swap1\n  sstore\n  pop\n    /* \"contracts/Auction_1.sol\":603:946  constructor(address _auctioneer, uint256 _startPrice, uint256 _tokenId, address _tokenContract) {... */\n  pop\n  pop\n  pop\n  pop\n    /* \"contracts/Auction_1.sol\":124:2828  contract NFTAuction{... */\n  jump(tag_9)\n    /* \"#utility.yul\":88:205   */\ntag_11:\n    /* \"#utility.yul\":197:198   */\n  0x00\n    /* \"#utility.yul\":194:195   */\n  dup1\n    /* \"#utility.yul\":187:199   */\n  revert\n    /* \"#utility.yul\":334:460   */\ntag_13:\n    /* \"#utility.yul\":371:378   */\n  0x00\n    /* \"#utility.yul\":411:453   */\n  0xffffffffffffffffffffffffffffffffffffffff\n    /* \"#utility.yul\":404:409   */\n  dup3\n    /* \"#utility.yul\":400:454   */\n  and\n    /* \"#utility.yul\":389:454   */\n  swap1\n  pop\n    /* \"#utility.yul\":334:460   */\n  swap2\n  swap1\n  pop\n  jump\t// out\n    /* \"#utility.yul\":466:562   */\ntag_14:\n    /* \"#utility.yul\":503:510   */\n  0x00\n    /* \"#utility.yul\":532:556   */\n  tag_26\n    /* \"#utility.yul\":550:555   */\n  dup3\n    /* \"#utility.yul\":532:556   */\n  tag_13\n  jump\t// in\ntag_26:\n    /* \"#utility.yul\":521:556   */\n  swap1\n  pop\n    /* \"#utility.yul\":466:562   */\n  swap2\n  swap1\n  pop\n  jump\t// out\n    /* \"#utility.yul\":568:690   */\ntag_15:\n    /* \"#utility.yul\":641:665   */\n  tag_28\n    /* \"#utility.yul\":659:664   */\n  dup2\n    /* \"#utility.yul\":641:665   */\n  tag_14\n  jump\t// in\ntag_28:\n    /* \"#utility.yul\":634:639   */\n  dup2\n    /* \"#utility.yul\":631:666   */\n  eq\n    /* \"#utility.yul\":621:684   */\n  tag_29\n  jumpi\n    /* \"#utility.yul\":680:681   */\n  0x00\n    /* \"#utility.yul\":677:678   */\n  dup1\n    /* \"#utility.yul\":670:682   */\n  revert\n    /* \"#utility.yul\":621:684   */\ntag_29:\n    /* \"#utility.yul\":568:690   */\n  pop\n  jump\t// out\n    /* \"#utility.yul\":696:839   */\ntag_16:\n    /* \"#utility.yul\":753:758   */\n  0x00\n    /* \"#utility.yul\":784:790   */\n  dup2\n    /* \"#utility.yul\":778:791   */\n  mload\n    /* \"#utility.yul\":769:791   */\n  swap1\n  pop\n    /* \"#utility.yul\":800:833   */\n  tag_31\n    /* \"#utility.yul\":827:832   */\n  dup2\n    /* \"#utility.yul\":800:833   */\n  tag_15\n  jump\t// in\ntag_31:\n    /* \"#utility.yul\":696:839   */\n  swap3\n  swap2\n  pop\n  pop\n  jump\t// out\n    /* \"#utility.yul\":845:922   */\ntag_17:\n    /* \"#utility.yul\":882:889   */\n  0x00\n    /* \"#utility.yul\":911:916   */\n  dup2\n    /* \"#utility.yul\":900:916   */\n  swap1\n  pop\n    /* \"#utility.yul\":845:922   */\n  swap2\n  swap1\n  pop\n  jump\t// out\n    /* \"#utility.yul\":928:1050   */\ntag_18:\n    /* \"#utility.yul\":1001:1025   */\n  tag_34\n    /* \"#utility.yul\":1019:1024   */\n  dup2\n    /* \"#utility.yul\":1001:1025   */\n  tag_17\n  jump\t// in\ntag_34:\n    /* \"#utility.yul\":994:999   */\n  dup2\n    /* \"#utility.yul\":991:1026   */\n  eq\n    /* \"#utility.yul\":981:1044   */\n  tag_35\n  jumpi\n    /* \"#utility.yul\":1040:1041   */\n  0x00\n    /* \"#utility.yul\":1037:1038   */\n  dup1\n    /* \"#utility.yul\":1030:1042   */\n  revert\n    /* \"#utility.yul\":981:1044   */\ntag_35:\n    /* \"#utility.yul\":928:1050   */\n  pop\n  jump\t// out\n    /* \"#utility.yul\":1056:1199   */\ntag_19:\n    /* \"#utility.yul\":1113:1118   */\n  0x00\n    /* \"#utility.yul\":1144:1150   */\n  dup2\n    /* \"#utility.yul\":1138:1151   */\n  mload\n    /* \"#utility.yul\":1129:1151   */\n  swap1\n  pop\n    /* \"#utility.yul\":1160:1193   */\n  tag_37\n    /* \"#utility.yul\":1187:1192   */\n  dup2\n    /* \"#utility.yul\":1160:1193   */\n  tag_18\n  jump\t// in\ntag_37:\n    /* \"#utility.yul\":1056:1199   */\n  swap3\n  swap2\n  pop\n  pop\n  jump\t// out\n    /* \"#utility.yul\":1205:2025   */\ntag_3:\n    /* \"#utility.yul\":1302:1308   */\n  0x00\n    /* \"#utility.yul\":1310:1316   */\n  dup1\n    /* \"#utility.yul\":1318:1324   */\n  0x00\n    /* \"#utility.yul\":1326:1332   */\n  dup1\n    /* \"#utility.yul\":1375:1378   */\n  0x80\n    /* \"#utility.yul\":1363:1372   */\n  dup6\n    /* \"#utility.yul\":1354:1361   */\n  dup8\n    /* \"#utility.yul\":1350:1373   */\n  sub\n    /* \"#utility.yul\":1346:1379   */\n  slt\n    /* \"#utility.yul\":1343:1463   */\n  iszero\n  tag_39\n  jumpi\n    /* \"#utility.yul\":1382:1461   */\n  tag_40\n  tag_11\n  jump\t// in\ntag_40:\n    /* \"#utility.yul\":1343:1463   */\ntag_39:\n    /* \"#utility.yul\":1502:1503   */\n  0x00\n    /* \"#utility.yul\":1527:1591   */\n  tag_41\n    /* \"#utility.yul\":1583:1590   */\n  dup8\n    /* \"#utility.yul\":1574:1580   */\n  dup3\n    /* \"#utility.yul\":1563:1572   */\n  dup9\n    /* \"#utility.yul\":1559:1581   */\n  add\n    /* \"#utility.yul\":1527:1591   */\n  tag_16\n  jump\t// in\ntag_41:\n    /* \"#utility.yul\":1517:1591   */\n  swap5\n  pop\n    /* \"#utility.yul\":1473:1601   */\n  pop\n    /* \"#utility.yul\":1640:1642   */\n  0x20\n    /* \"#utility.yul\":1666:1730   */\n  tag_42\n    /* \"#utility.yul\":1722:1729   */\n  dup8\n    /* \"#utility.yul\":1713:1719   */\n  dup3\n    /* \"#utility.yul\":1702:1711   */\n  dup9\n    /* \"#utility.yul\":1698:1720   */\n  add\n    /* \"#utility.yul\":1666:1730   */\n  tag_19\n  jump\t// in\ntag_42:\n    /* \"#utility.yul\":1656:1730   */\n  swap4\n  pop\n    /* \"#utility.yul\":1611:1740   */\n  pop\n    /* \"#utility.yul\":1779:1781   */\n  0x40\n    /* \"#utility.yul\":1805:1869   */\n  tag_43\n    /* \"#utility.yul\":1861:1868   */\n  dup8\n    /* \"#utility.yul\":1852:1858   */\n  dup3\n    /* \"#utility.yul\":1841:1850   */\n  dup9\n    /* \"#utility.yul\":1837:1859   */\n  add\n    /* \"#utility.yul\":1805:1869   */\n  tag_19\n  jump\t// in\ntag_43:\n    /* \"#utility.yul\":1795:1869   */\n  swap3\n  pop\n    /* \"#utility.yul\":1750:1879   */\n  pop\n    /* \"#utility.yul\":1918:1920   */\n  0x60\n    /* \"#utility.yul\":1944:2008   */\n  tag_44\n    /* \"#utility.yul\":2000:2007   */\n  dup8\n    /* \"#utility.yul\":1991:1997   */\n  dup3\n    /* \"#utility.yul\":1980:1989   */\n  dup9\n    /* \"#utility.yul\":1976:1998   */\n  add\n    /* \"#utility.yul\":1944:2008   */\n  tag_16\n  jump\t// in\ntag_44:\n    /* \"#utility.yul\":1934:2008   */\n  swap2\n  pop\n    /* \"#utility.yul\":1889:2018   */\n  pop\n    /* \"#utility.yul\":1205:2025   */\n  swap3\n  swap6\n  swap2\n  swap5\n  pop\n  swap3\n  pop\n  jump\t// out\n    /* \"#utility.yul\":2031:2211   */\ntag_8:\n    /* \"#utility.yul\":2079:2156   */\n  0x4e487b7100000000000000000000000000000000000000000000000000000000\n    /* \"#utility.yul\":2076:2077   */\n  0x00\n    /* \"#utility.yul\":2069:2157   */\n  mstore\n    /* \"#utility.yul\":2176:2180   */\n  0x21\n    /* \"#utility.yul\":2173:2174   */\n  0x04\n    /* \"#utility.yul\":2166:2181   */\n  mstore\n    /* \"#utility.yul\":2200:2204   */\n  0x24\n    /* \"#utility.yul\":2197:2198   */\n  0x00\n    /* \"#utility.yul\":2190:2205   */\n  revert\n    /* \"contracts/Auction_1.sol\":124:2828  contract NFTAuction{... */\ntag_9:\n  mload(0x80)\n  mload(0xa0)\n  codecopy(0x00, dataOffset(sub_0), dataSize(sub_0))\n  0x00\n  assignImmutable(\"0xe3cb0ca89f217511efd4af6caea80048f9921bac3b9063844e65469cf515f138\")\n  0x00\n  assignImmutable(\"0x7b0ac78d4efde931c083b037c1c7f91b4cc8f27a159c1264ae53aa473f3e4e6a\")\n  return(0x00, dataSize(sub_0))\nstop\n\nsub_0: assembly {\n        /* \"contracts/Auction_1.sol\":124:2828  contract NFTAuction{... */\n      mstore(0x40, 0x80)\n      jumpi(tag_1, lt(calldatasize, 0x04))\n      shr(0xe0, calldataload(0x00))\n      dup1\n      0x6b64c769\n      gt\n      tag_13\n      jumpi\n      dup1\n      0x6b64c769\n      eq\n      tag_7\n      jumpi\n      dup1\n      0x83197ef0\n      eq\n      tag_8\n      jumpi\n      dup1\n      0x91f90157\n      eq\n      tag_9\n      jumpi\n      dup1\n      0xb8da82ea\n      eq\n      tag_10\n      jumpi\n      dup1\n      0xd57bde79\n      eq\n      tag_11\n      jumpi\n      dup1\n      0xdc689504\n      eq\n      tag_12\n      jumpi\n      jump(tag_1)\n    tag_13:\n      dup1\n      0x17d70f7c\n      eq\n      tag_2\n      jumpi\n      dup1\n      0x1998aeef\n      eq\n      tag_3\n      jumpi\n      dup1\n      0x1d0806ae\n      eq\n      tag_4\n      jumpi\n      dup1\n      0x378252f2\n      eq\n      tag_5\n      jumpi\n      dup1\n      0x55a373d6\n      eq\n      tag_6\n      jumpi\n    tag_1:\n      0x00\n      dup1\n      revert\n        /* \"contracts/Auction_1.sol\":363:395  uint256 public immutable tokenId */\n    tag_2:\n      callvalue\n      dup1\n      iszero\n      tag_14\n      jumpi\n      0x00\n      dup1\n      revert\n    tag_14:\n      pop\n      tag_15\n      tag_16\n      jump\t// in\n    tag_15:\n      mload(0x40)\n      tag_17\n      swap2\n      swap1\n      tag_18\n      jump\t// in\n    tag_17:\n      mload(0x40)\n      dup1\n      swap2\n      sub\n      swap1\n      return\n        /* \"contracts/Auction_1.sol\":2431:2741  function bid() external payable {... */\n    tag_3:\n      tag_19\n      tag_20\n      jump\t// in\n    tag_19:\n      stop\n        /* \"contracts/Auction_1.sol\":225:252  uint256 public initialPrice */\n    tag_4:\n      callvalue\n      dup1\n      iszero\n      tag_21\n      jumpi\n      0x00\n      dup1\n      revert\n    tag_21:\n      pop\n      tag_22\n      tag_23\n      jump\t// in\n    tag_22:\n      mload(0x40)\n      tag_24\n      swap2\n      swap1\n      tag_18\n      jump\t// in\n    tag_24:\n      mload(0x40)\n      dup1\n      swap2\n      sub\n      swap1\n      return\n        /* \"contracts/Auction_1.sol\":2007:2423  function closeAuction() external onlyAuctioneer isApproved {... */\n    tag_5:\n      callvalue\n      dup1\n      iszero\n      tag_25\n      jumpi\n      0x00\n      dup1\n      revert\n    tag_25:\n      pop\n      tag_26\n      tag_27\n      jump\t// in\n    tag_26:\n      stop\n        /* \"contracts/Auction_1.sol\":402:440  address public immutable tokenContract */\n    tag_6:\n      callvalue\n      dup1\n      iszero\n      tag_28\n      jumpi\n      0x00\n      dup1\n      revert\n    tag_28:\n      pop\n      tag_29\n      tag_30\n      jump\t// in\n    tag_29:\n      mload(0x40)\n      tag_31\n      swap2\n      swap1\n      tag_32\n      jump\t// in\n    tag_31:\n      mload(0x40)\n      dup1\n      swap2\n      sub\n      swap1\n      return\n        /* \"contracts/Auction_1.sol\":1317:1567  function startAuction() external onlyAuctioneer {... */\n    tag_7:\n      callvalue\n      dup1\n      iszero\n      tag_33\n      jumpi\n      0x00\n      dup1\n      revert\n    tag_33:\n      pop\n      tag_34\n      tag_35\n      jump\t// in\n    tag_34:\n      stop\n        /* \"contracts/Auction_1.sol\":2749:2825  function destroy() public payable{... */\n    tag_8:\n      tag_36\n      tag_37\n      jump\t// in\n    tag_36:\n      stop\n        /* \"contracts/Auction_1.sol\":328:356  address public highestBidder */\n    tag_9:\n      callvalue\n      dup1\n      iszero\n      tag_38\n      jumpi\n      0x00\n      dup1\n      revert\n    tag_38:\n      pop\n      tag_39\n      tag_40\n      jump\t// in\n    tag_39:\n      mload(0x40)\n      tag_41\n      swap2\n      swap1\n      tag_32\n      jump\t// in\n    tag_41:\n      mload(0x40)\n      dup1\n      swap2\n      sub\n      swap1\n      return\n        /* \"contracts/Auction_1.sol\":291:321  uint256 public currentBidPrice */\n    tag_10:\n      callvalue\n      dup1\n      iszero\n      tag_42\n      jumpi\n      0x00\n      dup1\n      revert\n    tag_42:\n      pop\n      tag_43\n      tag_44\n      jump\t// in\n    tag_43:\n      mload(0x40)\n      tag_45\n      swap2\n      swap1\n      tag_18\n      jump\t// in\n    tag_45:\n      mload(0x40)\n      dup1\n      swap2\n      sub\n      swap1\n      return\n        /* \"contracts/Auction_1.sol\":259:284  uint256 public highestBid */\n    tag_11:\n      callvalue\n      dup1\n      iszero\n      tag_46\n      jumpi\n      0x00\n      dup1\n      revert\n    tag_46:\n      pop\n      tag_47\n      tag_48\n      jump\t// in\n    tag_47:\n      mload(0x40)\n      tag_49\n      swap2\n      swap1\n      tag_18\n      jump\t// in\n    tag_49:\n      mload(0x40)\n      dup1\n      swap2\n      sub\n      swap1\n      return\n        /* \"contracts/Auction_1.sol\":447:494  mapping(uint256 => address) public bidsRegister */\n    tag_12:\n      callvalue\n      dup1\n      iszero\n      tag_50\n      jumpi\n      0x00\n      dup1\n      revert\n    tag_50:\n      pop\n      tag_51\n      0x04\n      dup1\n      calldatasize\n      sub\n      dup2\n      add\n      swap1\n      tag_52\n      swap2\n      swap1\n      tag_53\n      jump\t// in\n    tag_52:\n      tag_54\n      jump\t// in\n    tag_51:\n      mload(0x40)\n      tag_55\n      swap2\n      swap1\n      tag_32\n      jump\t// in\n    tag_55:\n      mload(0x40)\n      dup1\n      swap2\n      sub\n      swap1\n      return\n        /* \"contracts/Auction_1.sol\":363:395  uint256 public immutable tokenId */\n    tag_16:\n      immutable(\"0x7b0ac78d4efde931c083b037c1c7f91b4cc8f27a159c1264ae53aa473f3e4e6a\")\n      dup2\n      jump\t// out\n        /* \"contracts/Auction_1.sol\":2431:2741  function bid() external payable {... */\n    tag_20:\n        /* \"contracts/Auction_1.sol\":2492:2510  AuctionStatus.OPEN */\n      0x00\n        /* \"contracts/Auction_1.sol\":2482:2510  status == AuctionStatus.OPEN */\n      0x01\n      dup2\n      gt\n      iszero\n      tag_57\n      jumpi\n      tag_58\n      tag_59\n      jump\t// in\n    tag_58:\n    tag_57:\n        /* \"contracts/Auction_1.sol\":2482:2488  status */\n      0x08\n      0x00\n      swap1\n      sload\n      swap1\n      0x0100\n      exp\n      swap1\n      div\n      0xff\n      and\n        /* \"contracts/Auction_1.sol\":2482:2510  status == AuctionStatus.OPEN */\n      0x01\n      dup2\n      gt\n      iszero\n      tag_60\n      jumpi\n      tag_61\n      tag_59\n      jump\t// in\n    tag_61:\n    tag_60:\n      eq\n        /* \"contracts/Auction_1.sol\":2474:2544  require(status == AuctionStatus.OPEN, \"The Auction is already closed\") */\n      tag_62\n      jumpi\n      mload(0x40)\n      0x08c379a000000000000000000000000000000000000000000000000000000000\n      dup2\n      mstore\n      0x04\n      add\n      tag_63\n      swap1\n      tag_64\n      jump\t// in\n    tag_63:\n      mload(0x40)\n      dup1\n      swap2\n      sub\n      swap1\n      revert\n    tag_62:\n        /* \"contracts/Auction_1.sol\":2575:2590  currentBidPrice */\n      sload(0x04)\n        /* \"contracts/Auction_1.sol\":2563:2572  msg.value */\n      callvalue\n        /* \"contracts/Auction_1.sol\":2563:2590  msg.value > currentBidPrice */\n      gt\n        /* \"contracts/Auction_1.sol\":2555:2614  require(msg.value > currentBidPrice, \"You can't bid lower\") */\n      tag_65\n      jumpi\n      mload(0x40)\n      0x08c379a000000000000000000000000000000000000000000000000000000000\n      dup2\n      mstore\n      0x04\n      add\n      tag_66\n      swap1\n      tag_67\n      jump\t// in\n    tag_66:\n      mload(0x40)\n      dup1\n      swap2\n      sub\n      swap1\n      revert\n    tag_65:\n        /* \"contracts/Auction_1.sol\":2651:2661  msg.sender */\n      caller\n        /* \"contracts/Auction_1.sol\":2625:2637  bidsRegister */\n      0x06\n        /* \"contracts/Auction_1.sol\":2625:2648  bidsRegister[msg.value] */\n      0x00\n        /* \"contracts/Auction_1.sol\":2638:2647  msg.value */\n      callvalue\n        /* \"contracts/Auction_1.sol\":2625:2648  bidsRegister[msg.value] */\n      dup2\n      mstore\n      0x20\n      add\n      swap1\n      dup2\n      mstore\n      0x20\n      add\n      0x00\n      keccak256\n      0x00\n        /* \"contracts/Auction_1.sol\":2625:2661  bidsRegister[msg.value] = msg.sender */\n      0x0100\n      exp\n      dup2\n      sload\n      dup2\n      0xffffffffffffffffffffffffffffffffffffffff\n      mul\n      not\n      and\n      swap1\n      dup4\n      0xffffffffffffffffffffffffffffffffffffffff\n      and\n      mul\n      or\n      swap1\n      sstore\n      pop\n        /* \"contracts/Auction_1.sol\":2690:2699  msg.value */\n      callvalue\n        /* \"contracts/Auction_1.sol\":2672:2687  currentBidPrice */\n      0x04\n        /* \"contracts/Auction_1.sol\":2672:2699  currentBidPrice = msg.value */\n      dup2\n      swap1\n      sstore\n      pop\n        /* \"contracts/Auction_1.sol\":2710:2717  amounts */\n      0x07\n        /* \"contracts/Auction_1.sol\":2723:2732  msg.value */\n      callvalue\n        /* \"contracts/Auction_1.sol\":2710:2733  amounts.push(msg.value) */\n      swap1\n      dup1\n      0x01\n      dup2\n      sload\n      add\n      dup1\n      dup3\n      sstore\n      dup1\n      swap2\n      pop\n      pop\n      0x01\n      swap1\n      sub\n      swap1\n      0x00\n      mstore\n      keccak256(0x00, 0x20)\n      add\n      0x00\n      swap1\n      swap2\n      swap1\n      swap2\n      swap1\n      swap2\n      pop\n      sstore\n        /* \"contracts/Auction_1.sol\":2431:2741  function bid() external payable {... */\n      jump\t// out\n        /* \"contracts/Auction_1.sol\":225:252  uint256 public initialPrice */\n    tag_23:\n      sload(0x02)\n      dup2\n      jump\t// out\n        /* \"contracts/Auction_1.sol\":2007:2423  function closeAuction() external onlyAuctioneer isApproved {... */\n    tag_27:\n        /* \"contracts/Auction_1.sol\":1061:1071  auctioneer */\n      0x01\n      0x00\n      swap1\n      sload\n      swap1\n      0x0100\n      exp\n      swap1\n      div\n      0xffffffffffffffffffffffffffffffffffffffff\n      and\n        /* \"contracts/Auction_1.sol\":1047:1071  msg.sender == auctioneer */\n      0xffffffffffffffffffffffffffffffffffffffff\n      and\n        /* \"contracts/Auction_1.sol\":1047:1057  msg.sender */\n      caller\n        /* \"contracts/Auction_1.sol\":1047:1071  msg.sender == auctioneer */\n      0xffffffffffffffffffffffffffffffffffffffff\n      and\n      eq\n        /* \"contracts/Auction_1.sol\":1039:1122  require(msg.sender == auctioneer, \"Only the contract owner can call this function\") */\n      tag_70\n      jumpi\n      mload(0x40)\n      0x08c379a000000000000000000000000000000000000000000000000000000000\n      dup2\n      mstore\n      0x04\n      add\n      tag_71\n      swap1\n      tag_72\n      jump\t// in\n    tag_71:\n      mload(0x40)\n      dup1\n      swap2\n      sub\n      swap1\n      revert\n    tag_70:\n        /* \"contracts/Auction_1.sol\":1189:1200  NFTContract */\n      0x00\n      dup1\n      sload\n      swap1\n      0x0100\n      exp\n      swap1\n      div\n      0xffffffffffffffffffffffffffffffffffffffff\n      and\n        /* \"contracts/Auction_1.sol\":1189:1217  NFTContract.isApprovedForAll */\n      0xffffffffffffffffffffffffffffffffffffffff\n      and\n      0xe985e9c5\n        /* \"contracts/Auction_1.sol\":1218:1228  auctioneer */\n      0x01\n      0x00\n      swap1\n      sload\n      swap1\n      0x0100\n      exp\n      swap1\n      div\n      0xffffffffffffffffffffffffffffffffffffffff\n      and\n        /* \"contracts/Auction_1.sol\":1238:1242  this */\n      address\n        /* \"contracts/Auction_1.sol\":1189:1244  NFTContract.isApprovedForAll(auctioneer, address(this)) */\n      mload(0x40)\n      dup4\n      0xffffffff\n      and\n      0xe0\n      shl\n      dup2\n      mstore\n      0x04\n      add\n      tag_74\n      swap3\n      swap2\n      swap1\n      tag_75\n      jump\t// in\n    tag_74:\n      0x20\n      mload(0x40)\n      dup1\n      dup4\n      sub\n      dup2\n      dup7\n      gas\n      staticcall\n      iszero\n      dup1\n      iszero\n      tag_77\n      jumpi\n      returndatasize\n      0x00\n      dup1\n      returndatacopy\n      revert(0x00, returndatasize)\n    tag_77:\n      pop\n      pop\n      pop\n      pop\n      mload(0x40)\n      returndatasize\n      not(0x1f)\n      0x1f\n      dup3\n      add\n      and\n      dup3\n      add\n      dup1\n      0x40\n      mstore\n      pop\n      dup2\n      add\n      swap1\n      tag_78\n      swap2\n      swap1\n      tag_79\n      jump\t// in\n    tag_78:\n        /* \"contracts/Auction_1.sol\":1181:1289  require(NFTContract.isApprovedForAll(auctioneer, address(this)), \"Contract is not approved to transfer NFT\") */\n      tag_80\n      jumpi\n      mload(0x40)\n      0x08c379a000000000000000000000000000000000000000000000000000000000\n      dup2\n      mstore\n      0x04\n      add\n      tag_81\n      swap1\n      tag_82\n      jump\t// in\n    tag_81:\n      mload(0x40)\n      dup1\n      swap2\n      sub\n      swap1\n      revert\n    tag_80:\n        /* \"contracts/Auction_1.sol\":2095:2113  AuctionStatus.OPEN */\n      0x00\n        /* \"contracts/Auction_1.sol\":2085:2113  status == AuctionStatus.OPEN */\n      0x01\n      dup2\n      gt\n      iszero\n      tag_84\n      jumpi\n      tag_85\n      tag_59\n      jump\t// in\n    tag_85:\n    tag_84:\n        /* \"contracts/Auction_1.sol\":2085:2091  status */\n      0x08\n      0x00\n      swap1\n      sload\n      swap1\n      0x0100\n      exp\n      swap1\n      div\n      0xff\n      and\n        /* \"contracts/Auction_1.sol\":2085:2113  status == AuctionStatus.OPEN */\n      0x01\n      dup2\n      gt\n      iszero\n      tag_86\n      jumpi\n      tag_87\n      tag_59\n      jump\t// in\n    tag_87:\n    tag_86:\n      eq\n        /* \"contracts/Auction_1.sol\":2077:2147  require(status == AuctionStatus.OPEN, \"The Auction is already closed\") */\n      tag_88\n      jumpi\n      mload(0x40)\n      0x08c379a000000000000000000000000000000000000000000000000000000000\n      dup2\n      mstore\n      0x04\n      add\n      tag_89\n      swap1\n      tag_64\n      jump\t// in\n    tag_89:\n      mload(0x40)\n      dup1\n      swap2\n      sub\n      swap1\n      revert\n    tag_88:\n        /* \"contracts/Auction_1.sol\":2171:2186  currentBidPrice */\n      sload(0x04)\n        /* \"contracts/Auction_1.sol\":2158:2168  highestBid */\n      0x03\n        /* \"contracts/Auction_1.sol\":2158:2186  highestBid = currentBidPrice */\n      dup2\n      swap1\n      sstore\n      pop\n        /* \"contracts/Auction_1.sol\":2213:2225  bidsRegister */\n      0x06\n        /* \"contracts/Auction_1.sol\":2213:2242  bidsRegister[currentBidPrice] */\n      0x00\n        /* \"contracts/Auction_1.sol\":2226:2241  currentBidPrice */\n      sload(0x04)\n        /* \"contracts/Auction_1.sol\":2213:2242  bidsRegister[currentBidPrice] */\n      dup2\n      mstore\n      0x20\n      add\n      swap1\n      dup2\n      mstore\n      0x20\n      add\n      0x00\n      keccak256\n      0x00\n      swap1\n      sload\n      swap1\n      0x0100\n      exp\n      swap1\n      div\n      0xffffffffffffffffffffffffffffffffffffffff\n      and\n        /* \"contracts/Auction_1.sol\":2197:2210  highestBidder */\n      0x05\n      0x00\n        /* \"contracts/Auction_1.sol\":2197:2242  highestBidder = bidsRegister[currentBidPrice] */\n      0x0100\n      exp\n      dup2\n      sload\n      dup2\n      0xffffffffffffffffffffffffffffffffffffffff\n      mul\n      not\n      and\n      swap1\n      dup4\n      0xffffffffffffffffffffffffffffffffffffffff\n      and\n      mul\n      or\n      swap1\n      sstore\n      pop\n        /* \"contracts/Auction_1.sol\":2253:2264  NFTContract */\n      0x00\n      dup1\n      sload\n      swap1\n      0x0100\n      exp\n      swap1\n      div\n      0xffffffffffffffffffffffffffffffffffffffff\n      and\n        /* \"contracts/Auction_1.sol\":2253:2277  NFTContract.transferFrom */\n      0xffffffffffffffffffffffffffffffffffffffff\n      and\n      0x23b872dd\n        /* \"contracts/Auction_1.sol\":2278:2288  auctioneer */\n      0x01\n      0x00\n      swap1\n      sload\n      swap1\n      0x0100\n      exp\n      swap1\n      div\n      0xffffffffffffffffffffffffffffffffffffffff\n      and\n        /* \"contracts/Auction_1.sol\":2290:2303  highestBidder */\n      0x05\n      0x00\n      swap1\n      sload\n      swap1\n      0x0100\n      exp\n      swap1\n      div\n      0xffffffffffffffffffffffffffffffffffffffff\n      and\n        /* \"contracts/Auction_1.sol\":2305:2312  tokenId */\n      immutable(\"0x7b0ac78d4efde931c083b037c1c7f91b4cc8f27a159c1264ae53aa473f3e4e6a\")\n        /* \"contracts/Auction_1.sol\":2253:2313  NFTContract.transferFrom(auctioneer, highestBidder, tokenId) */\n      mload(0x40)\n      dup5\n      0xffffffff\n      and\n      0xe0\n      shl\n      dup2\n      mstore\n      0x04\n      add\n      tag_90\n      swap4\n      swap3\n      swap2\n      swap1\n      tag_91\n      jump\t// in\n    tag_90:\n      0x00\n      mload(0x40)\n      dup1\n      dup4\n      sub\n      dup2\n      0x00\n      dup8\n      dup1\n      extcodesize\n      iszero\n      dup1\n      iszero\n      tag_92\n      jumpi\n      0x00\n      dup1\n      revert\n    tag_92:\n      pop\n      gas\n      call\n      iszero\n      dup1\n      iszero\n      tag_94\n      jumpi\n      returndatasize\n      0x00\n      dup1\n      returndatacopy\n      revert(0x00, returndatasize)\n    tag_94:\n      pop\n      pop\n      pop\n      pop\n        /* \"contracts/Auction_1.sol\":2324:2339  batchTransfer() */\n      tag_95\n        /* \"contracts/Auction_1.sol\":2324:2337  batchTransfer */\n      tag_96\n        /* \"contracts/Auction_1.sol\":2324:2339  batchTransfer() */\n      jump\t// in\n    tag_95:\n        /* \"contracts/Auction_1.sol\":2359:2379  AuctionStatus.CLOSED */\n      0x01\n        /* \"contracts/Auction_1.sol\":2350:2356  status */\n      0x08\n      0x00\n        /* \"contracts/Auction_1.sol\":2350:2379  status = AuctionStatus.CLOSED */\n      0x0100\n      exp\n      dup2\n      sload\n      dup2\n      0xff\n      mul\n      not\n      and\n      swap1\n      dup4\n      0x01\n      dup2\n      gt\n      iszero\n      tag_97\n      jumpi\n      tag_98\n      tag_59\n      jump\t// in\n    tag_98:\n    tag_97:\n      mul\n      or\n      swap1\n      sstore\n      pop\n        /* \"contracts/Auction_1.sol\":2395:2415  AuctionState(status) */\n      0x8caed3b4bf01375b22dc7f84afe719ce12ab14864751a7d5e4142fe4e4a50a51\n        /* \"contracts/Auction_1.sol\":2408:2414  status */\n      0x08\n      0x00\n      swap1\n      sload\n      swap1\n      0x0100\n      exp\n      swap1\n      div\n      0xff\n      and\n        /* \"contracts/Auction_1.sol\":2395:2415  AuctionState(status) */\n      mload(0x40)\n      tag_99\n      swap2\n      swap1\n      tag_100\n      jump\t// in\n    tag_99:\n      mload(0x40)\n      dup1\n      swap2\n      sub\n      swap1\n      log1\n        /* \"contracts/Auction_1.sol\":2007:2423  function closeAuction() external onlyAuctioneer isApproved {... */\n      jump\t// out\n        /* \"contracts/Auction_1.sol\":402:440  address public immutable tokenContract */\n    tag_30:\n      immutable(\"0xe3cb0ca89f217511efd4af6caea80048f9921bac3b9063844e65469cf515f138\")\n      dup2\n      jump\t// out\n        /* \"contracts/Auction_1.sol\":1317:1567  function startAuction() external onlyAuctioneer {... */\n    tag_35:\n        /* \"contracts/Auction_1.sol\":1061:1071  auctioneer */\n      0x01\n      0x00\n      swap1\n      sload\n      swap1\n      0x0100\n      exp\n      swap1\n      div\n      0xffffffffffffffffffffffffffffffffffffffff\n      and\n        /* \"contracts/Auction_1.sol\":1047:1071  msg.sender == auctioneer */\n      0xffffffffffffffffffffffffffffffffffffffff\n      and\n        /* \"contracts/Auction_1.sol\":1047:1057  msg.sender */\n      caller\n        /* \"contracts/Auction_1.sol\":1047:1071  msg.sender == auctioneer */\n      0xffffffffffffffffffffffffffffffffffffffff\n      and\n      eq\n        /* \"contracts/Auction_1.sol\":1039:1122  require(msg.sender == auctioneer, \"Only the contract owner can call this function\") */\n      tag_102\n      jumpi\n      mload(0x40)\n      0x08c379a000000000000000000000000000000000000000000000000000000000\n      dup2\n      mstore\n      0x04\n      add\n      tag_103\n      swap1\n      tag_72\n      jump\t// in\n    tag_103:\n      mload(0x40)\n      dup1\n      swap2\n      sub\n      swap1\n      revert\n    tag_102:\n        /* \"contracts/Auction_1.sol\":1394:1414  AuctionStatus.CLOSED */\n      0x01\n        /* \"contracts/Auction_1.sol\":1384:1414  status == AuctionStatus.CLOSED */\n      dup1\n      dup2\n      gt\n      iszero\n      tag_105\n      jumpi\n      tag_106\n      tag_59\n      jump\t// in\n    tag_106:\n    tag_105:\n        /* \"contracts/Auction_1.sol\":1384:1390  status */\n      0x08\n      0x00\n      swap1\n      sload\n      swap1\n      0x0100\n      exp\n      swap1\n      div\n      0xff\n      and\n        /* \"contracts/Auction_1.sol\":1384:1414  status == AuctionStatus.CLOSED */\n      0x01\n      dup2\n      gt\n      iszero\n      tag_107\n      jumpi\n      tag_108\n      tag_59\n      jump\t// in\n    tag_108:\n    tag_107:\n      eq\n        /* \"contracts/Auction_1.sol\":1376:1446  require(status == AuctionStatus.CLOSED, \"The Auction is already open\") */\n      tag_109\n      jumpi\n      mload(0x40)\n      0x08c379a000000000000000000000000000000000000000000000000000000000\n      dup2\n      mstore\n      0x04\n      add\n      tag_110\n      swap1\n      tag_111\n      jump\t// in\n    tag_110:\n      mload(0x40)\n      dup1\n      swap2\n      sub\n      swap1\n      revert\n    tag_109:\n        /* \"contracts/Auction_1.sol\":1466:1484  AuctionStatus.OPEN */\n      0x00\n        /* \"contracts/Auction_1.sol\":1457:1463  status */\n      0x08\n      0x00\n        /* \"contracts/Auction_1.sol\":1457:1484  status = AuctionStatus.OPEN */\n      0x0100\n      exp\n      dup2\n      sload\n      dup2\n      0xff\n      mul\n      not\n      and\n      swap1\n      dup4\n      0x01\n      dup2\n      gt\n      iszero\n      tag_112\n      jumpi\n      tag_113\n      tag_59\n      jump\t// in\n    tag_113:\n    tag_112:\n      mul\n      or\n      swap1\n      sstore\n      pop\n        /* \"contracts/Auction_1.sol\":1539:1559  AuctionState(status) */\n      0x8caed3b4bf01375b22dc7f84afe719ce12ab14864751a7d5e4142fe4e4a50a51\n        /* \"contracts/Auction_1.sol\":1552:1558  status */\n      0x08\n      0x00\n      swap1\n      sload\n      swap1\n      0x0100\n      exp\n      swap1\n      div\n      0xff\n      and\n        /* \"contracts/Auction_1.sol\":1539:1559  AuctionState(status) */\n      mload(0x40)\n      tag_114\n      swap2\n      swap1\n      tag_100\n      jump\t// in\n    tag_114:\n      mload(0x40)\n      dup1\n      swap2\n      sub\n      swap1\n      log1\n        /* \"contracts/Auction_1.sol\":1317:1567  function startAuction() external onlyAuctioneer {... */\n      jump\t// out\n        /* \"contracts/Auction_1.sol\":2749:2825  function destroy() public payable{... */\n    tag_37:\n        /* \"contracts/Auction_1.sol\":2806:2816  auctioneer */\n      0x01\n      0x00\n      swap1\n      sload\n      swap1\n      0x0100\n      exp\n      swap1\n      div\n      0xffffffffffffffffffffffffffffffffffffffff\n      and\n        /* \"contracts/Auction_1.sol\":2793:2817  selfdestruct(auctioneer) */\n      0xffffffffffffffffffffffffffffffffffffffff\n      and\n      selfdestruct\n        /* \"contracts/Auction_1.sol\":328:356  address public highestBidder */\n    tag_40:\n      0x05\n      0x00\n      swap1\n      sload\n      swap1\n      0x0100\n      exp\n      swap1\n      div\n      0xffffffffffffffffffffffffffffffffffffffff\n      and\n      dup2\n      jump\t// out\n        /* \"contracts/Auction_1.sol\":291:321  uint256 public currentBidPrice */\n    tag_44:\n      sload(0x04)\n      dup2\n      jump\t// out\n        /* \"contracts/Auction_1.sol\":259:284  uint256 public highestBid */\n    tag_48:\n      sload(0x03)\n      dup2\n      jump\t// out\n        /* \"contracts/Auction_1.sol\":447:494  mapping(uint256 => address) public bidsRegister */\n    tag_54:\n      mstore(0x20, 0x06)\n      dup1\n      0x00\n      mstore\n      keccak256(0x00, 0x40)\n      0x00\n      swap2\n      pop\n      sload\n      swap1\n      0x0100\n      exp\n      swap1\n      div\n      0xffffffffffffffffffffffffffffffffffffffff\n      and\n      dup2\n      jump\t// out\n        /* \"contracts/Auction_1.sol\":1575:1999  function batchTransfer() private {... */\n    tag_96:\n        /* \"contracts/Auction_1.sol\":1623:1632  uint256 i */\n      0x00\n        /* \"contracts/Auction_1.sol\":1619:1992  for(uint256 i = 0; i < amounts.length - 1; i++) {... */\n    tag_117:\n        /* \"contracts/Auction_1.sol\":1659:1660  1 */\n      0x01\n        /* \"contracts/Auction_1.sol\":1642:1649  amounts */\n      0x07\n        /* \"contracts/Auction_1.sol\":1642:1656  amounts.length */\n      dup1\n      sload\n      swap1\n      pop\n        /* \"contracts/Auction_1.sol\":1642:1660  amounts.length - 1 */\n      tag_120\n      swap2\n      swap1\n      tag_121\n      jump\t// in\n    tag_120:\n        /* \"contracts/Auction_1.sol\":1638:1639  i */\n      dup2\n        /* \"contracts/Auction_1.sol\":1638:1660  i < amounts.length - 1 */\n      lt\n        /* \"contracts/Auction_1.sol\":1619:1992  for(uint256 i = 0; i < amounts.length - 1; i++) {... */\n      iszero\n      tag_118\n      jumpi\n        /* \"contracts/Auction_1.sol\":1682:1700  uint256 amountOwed */\n      0x00\n        /* \"contracts/Auction_1.sol\":1703:1710  amounts */\n      0x07\n        /* \"contracts/Auction_1.sol\":1711:1712  i */\n      dup3\n        /* \"contracts/Auction_1.sol\":1703:1713  amounts[i] */\n      dup2\n      sload\n      dup2\n      lt\n      tag_122\n      jumpi\n      tag_123\n      tag_124\n      jump\t// in\n    tag_123:\n    tag_122:\n      swap1\n      0x00\n      mstore\n      keccak256(0x00, 0x20)\n      add\n      sload\n        /* \"contracts/Auction_1.sol\":1682:1713  uint256 amountOwed = amounts[i] */\n      swap1\n      pop\n        /* \"contracts/Auction_1.sol\":1728:1749  address bidderAddress */\n      0x00\n        /* \"contracts/Auction_1.sol\":1752:1764  bidsRegister */\n      0x06\n        /* \"contracts/Auction_1.sol\":1752:1776  bidsRegister[amountOwed] */\n      0x00\n        /* \"contracts/Auction_1.sol\":1765:1775  amountOwed */\n      dup4\n        /* \"contracts/Auction_1.sol\":1752:1776  bidsRegister[amountOwed] */\n      dup2\n      mstore\n      0x20\n      add\n      swap1\n      dup2\n      mstore\n      0x20\n      add\n      0x00\n      keccak256\n      0x00\n      swap1\n      sload\n      swap1\n      0x0100\n      exp\n      swap1\n      div\n      0xffffffffffffffffffffffffffffffffffffffff\n      and\n        /* \"contracts/Auction_1.sol\":1728:1776  address bidderAddress = bidsRegister[amountOwed] */\n      swap1\n      pop\n        /* \"contracts/Auction_1.sol\":1792:1804  bool success */\n      0x00\n        /* \"contracts/Auction_1.sol\":1818:1831  bidderAddress */\n      dup2\n        /* \"contracts/Auction_1.sol\":1810:1837  payable(bidderAddress).call */\n      0xffffffffffffffffffffffffffffffffffffffff\n      and\n        /* \"contracts/Auction_1.sol\":1845:1855  amountOwed */\n      dup4\n        /* \"contracts/Auction_1.sol\":1810:1860  payable(bidderAddress).call{value: amountOwed}(\"\") */\n      mload(0x40)\n      tag_126\n      swap1\n      tag_127\n      jump\t// in\n    tag_126:\n      0x00\n      mload(0x40)\n      dup1\n      dup4\n      sub\n      dup2\n      dup6\n      dup8\n      gas\n      call\n      swap3\n      pop\n      pop\n      pop\n      returndatasize\n      dup1\n      0x00\n      dup2\n      eq\n      tag_130\n      jumpi\n      mload(0x40)\n      swap2\n      pop\n      and(add(returndatasize, 0x3f), not(0x1f))\n      dup3\n      add\n      0x40\n      mstore\n      returndatasize\n      dup3\n      mstore\n      returndatasize\n      0x00\n      0x20\n      dup5\n      add\n      returndatacopy\n      jump(tag_129)\n    tag_130:\n      0x60\n      swap2\n      pop\n    tag_129:\n      pop\n        /* \"contracts/Auction_1.sol\":1791:1860  (bool success, ) = payable(bidderAddress).call{value: amountOwed}(\"\") */\n      pop\n      swap1\n      pop\n        /* \"contracts/Auction_1.sol\":1972:1979  success */\n      dup1\n        /* \"contracts/Auction_1.sol\":1964:1980  require(success) */\n      tag_131\n      jumpi\n      0x00\n      dup1\n      revert\n    tag_131:\n        /* \"contracts/Auction_1.sol\":1667:1992  {... */\n      pop\n      pop\n      pop\n        /* \"contracts/Auction_1.sol\":1662:1665  i++ */\n      dup1\n      dup1\n      tag_132\n      swap1\n      tag_133\n      jump\t// in\n    tag_132:\n      swap2\n      pop\n      pop\n        /* \"contracts/Auction_1.sol\":1619:1992  for(uint256 i = 0; i < amounts.length - 1; i++) {... */\n      jump(tag_117)\n    tag_118:\n      pop\n        /* \"contracts/Auction_1.sol\":1575:1999  function batchTransfer() private {... */\n      jump\t// out\n        /* \"#utility.yul\":7:84   */\n    tag_134:\n        /* \"#utility.yul\":44:51   */\n      0x00\n        /* \"#utility.yul\":73:78   */\n      dup2\n        /* \"#utility.yul\":62:78   */\n      swap1\n      pop\n        /* \"#utility.yul\":7:84   */\n      swap2\n      swap1\n      pop\n      jump\t// out\n        /* \"#utility.yul\":90:208   */\n    tag_135:\n        /* \"#utility.yul\":177:201   */\n      tag_174\n        /* \"#utility.yul\":195:200   */\n      dup2\n        /* \"#utility.yul\":177:201   */\n      tag_134\n      jump\t// in\n    tag_174:\n        /* \"#utility.yul\":172:175   */\n      dup3\n        /* \"#utility.yul\":165:202   */\n      mstore\n        /* \"#utility.yul\":90:208   */\n      pop\n      pop\n      jump\t// out\n        /* \"#utility.yul\":214:436   */\n    tag_18:\n        /* \"#utility.yul\":307:311   */\n      0x00\n        /* \"#utility.yul\":345:347   */\n      0x20\n        /* \"#utility.yul\":334:343   */\n      dup3\n        /* \"#utility.yul\":330:348   */\n      add\n        /* \"#utility.yul\":322:348   */\n      swap1\n      pop\n        /* \"#utility.yul\":358:429   */\n      tag_176\n        /* \"#utility.yul\":426:427   */\n      0x00\n        /* \"#utility.yul\":415:424   */\n      dup4\n        /* \"#utility.yul\":411:428   */\n      add\n        /* \"#utility.yul\":402:408   */\n      dup5\n        /* \"#utility.yul\":358:429   */\n      tag_135\n      jump\t// in\n    tag_176:\n        /* \"#utility.yul\":214:436   */\n      swap3\n      swap2\n      pop\n      pop\n      jump\t// out\n        /* \"#utility.yul\":442:568   */\n    tag_136:\n        /* \"#utility.yul\":479:486   */\n      0x00\n        /* \"#utility.yul\":519:561   */\n      0xffffffffffffffffffffffffffffffffffffffff\n        /* \"#utility.yul\":512:517   */\n      dup3\n        /* \"#utility.yul\":508:562   */\n      and\n        /* \"#utility.yul\":497:562   */\n      swap1\n      pop\n        /* \"#utility.yul\":442:568   */\n      swap2\n      swap1\n      pop\n      jump\t// out\n        /* \"#utility.yul\":574:670   */\n    tag_137:\n        /* \"#utility.yul\":611:618   */\n      0x00\n        /* \"#utility.yul\":640:664   */\n      tag_179\n        /* \"#utility.yul\":658:663   */\n      dup3\n        /* \"#utility.yul\":640:664   */\n      tag_136\n      jump\t// in\n    tag_179:\n        /* \"#utility.yul\":629:664   */\n      swap1\n      pop\n        /* \"#utility.yul\":574:670   */\n      swap2\n      swap1\n      pop\n      jump\t// out\n        /* \"#utility.yul\":676:794   */\n    tag_138:\n        /* \"#utility.yul\":763:787   */\n      tag_181\n        /* \"#utility.yul\":781:786   */\n      dup2\n        /* \"#utility.yul\":763:787   */\n      tag_137\n      jump\t// in\n    tag_181:\n        /* \"#utility.yul\":758:761   */\n      dup3\n        /* \"#utility.yul\":751:788   */\n      mstore\n        /* \"#utility.yul\":676:794   */\n      pop\n      pop\n      jump\t// out\n        /* \"#utility.yul\":800:1022   */\n    tag_32:\n        /* \"#utility.yul\":893:897   */\n      0x00\n        /* \"#utility.yul\":931:933   */\n      0x20\n        /* \"#utility.yul\":920:929   */\n      dup3\n        /* \"#utility.yul\":916:934   */\n      add\n        /* \"#utility.yul\":908:934   */\n      swap1\n      pop\n        /* \"#utility.yul\":944:1015   */\n      tag_183\n        /* \"#utility.yul\":1012:1013   */\n      0x00\n        /* \"#utility.yul\":1001:1010   */\n      dup4\n        /* \"#utility.yul\":997:1014   */\n      add\n        /* \"#utility.yul\":988:994   */\n      dup5\n        /* \"#utility.yul\":944:1015   */\n      tag_138\n      jump\t// in\n    tag_183:\n        /* \"#utility.yul\":800:1022   */\n      swap3\n      swap2\n      pop\n      pop\n      jump\t// out\n        /* \"#utility.yul\":1109:1226   */\n    tag_140:\n        /* \"#utility.yul\":1218:1219   */\n      0x00\n        /* \"#utility.yul\":1215:1216   */\n      dup1\n        /* \"#utility.yul\":1208:1220   */\n      revert\n        /* \"#utility.yul\":1355:1477   */\n    tag_142:\n        /* \"#utility.yul\":1428:1452   */\n      tag_188\n        /* \"#utility.yul\":1446:1451   */\n      dup2\n        /* \"#utility.yul\":1428:1452   */\n      tag_134\n      jump\t// in\n    tag_188:\n        /* \"#utility.yul\":1421:1426   */\n      dup2\n        /* \"#utility.yul\":1418:1453   */\n      eq\n        /* \"#utility.yul\":1408:1471   */\n      tag_189\n      jumpi\n        /* \"#utility.yul\":1467:1468   */\n      0x00\n        /* \"#utility.yul\":1464:1465   */\n      dup1\n        /* \"#utility.yul\":1457:1469   */\n      revert\n        /* \"#utility.yul\":1408:1471   */\n    tag_189:\n        /* \"#utility.yul\":1355:1477   */\n      pop\n      jump\t// out\n        /* \"#utility.yul\":1483:1622   */\n    tag_143:\n        /* \"#utility.yul\":1529:1534   */\n      0x00\n        /* \"#utility.yul\":1567:1573   */\n      dup2\n        /* \"#utility.yul\":1554:1574   */\n      calldataload\n        /* \"#utility.yul\":1545:1574   */\n      swap1\n      pop\n        /* \"#utility.yul\":1583:1616   */\n      tag_191\n        /* \"#utility.yul\":1610:1615   */\n      dup2\n        /* \"#utility.yul\":1583:1616   */\n      tag_142\n      jump\t// in\n    tag_191:\n        /* \"#utility.yul\":1483:1622   */\n      swap3\n      swap2\n      pop\n      pop\n      jump\t// out\n        /* \"#utility.yul\":1628:1957   */\n    tag_53:\n        /* \"#utility.yul\":1687:1693   */\n      0x00\n        /* \"#utility.yul\":1736:1738   */\n      0x20\n        /* \"#utility.yul\":1724:1733   */\n      dup3\n        /* \"#utility.yul\":1715:1722   */\n      dup5\n        /* \"#utility.yul\":1711:1734   */\n      sub\n        /* \"#utility.yul\":1707:1739   */\n      slt\n        /* \"#utility.yul\":1704:1823   */\n      iszero\n      tag_193\n      jumpi\n        /* \"#utility.yul\":1742:1821   */\n      tag_194\n      tag_140\n      jump\t// in\n    tag_194:\n        /* \"#utility.yul\":1704:1823   */\n    tag_193:\n        /* \"#utility.yul\":1862:1863   */\n      0x00\n        /* \"#utility.yul\":1887:1940   */\n      tag_195\n        /* \"#utility.yul\":1932:1939   */\n      dup5\n        /* \"#utility.yul\":1923:1929   */\n      dup3\n        /* \"#utility.yul\":1912:1921   */\n      dup6\n        /* \"#utility.yul\":1908:1930   */\n      add\n        /* \"#utility.yul\":1887:1940   */\n      tag_143\n      jump\t// in\n    tag_195:\n        /* \"#utility.yul\":1877:1940   */\n      swap2\n      pop\n        /* \"#utility.yul\":1833:1950   */\n      pop\n        /* \"#utility.yul\":1628:1957   */\n      swap3\n      swap2\n      pop\n      pop\n      jump\t// out\n        /* \"#utility.yul\":1963:2143   */\n    tag_59:\n        /* \"#utility.yul\":2011:2088   */\n      0x4e487b7100000000000000000000000000000000000000000000000000000000\n        /* \"#utility.yul\":2008:2009   */\n      0x00\n        /* \"#utility.yul\":2001:2089   */\n      mstore\n        /* \"#utility.yul\":2108:2112   */\n      0x21\n        /* \"#utility.yul\":2105:2106   */\n      0x04\n        /* \"#utility.yul\":2098:2113   */\n      mstore\n        /* \"#utility.yul\":2132:2136   */\n      0x24\n        /* \"#utility.yul\":2129:2130   */\n      0x00\n        /* \"#utility.yul\":2122:2137   */\n      revert\n        /* \"#utility.yul\":2149:2318   */\n    tag_144:\n        /* \"#utility.yul\":2233:2244   */\n      0x00\n        /* \"#utility.yul\":2267:2273   */\n      dup3\n        /* \"#utility.yul\":2262:2265   */\n      dup3\n        /* \"#utility.yul\":2255:2274   */\n      mstore\n        /* \"#utility.yul\":2307:2311   */\n      0x20\n        /* \"#utility.yul\":2302:2305   */\n      dup3\n        /* \"#utility.yul\":2298:2312   */\n      add\n        /* \"#utility.yul\":2283:2312   */\n      swap1\n      pop\n        /* \"#utility.yul\":2149:2318   */\n      swap3\n      swap2\n      pop\n      pop\n      jump\t// out\n        /* \"#utility.yul\":2324:2503   */\n    tag_145:\n        /* \"#utility.yul\":2464:2495   */\n      0x5468652041756374696f6e20697320616c726561647920636c6f736564000000\n        /* \"#utility.yul\":2460:2461   */\n      0x00\n        /* \"#utility.yul\":2452:2458   */\n      dup3\n        /* \"#utility.yul\":2448:2462   */\n      add\n        /* \"#utility.yul\":2441:2496   */\n      mstore\n        /* \"#utility.yul\":2324:2503   */\n      pop\n      jump\t// out\n        /* \"#utility.yul\":2509:2875   */\n    tag_146:\n        /* \"#utility.yul\":2651:2654   */\n      0x00\n        /* \"#utility.yul\":2672:2739   */\n      tag_200\n        /* \"#utility.yul\":2736:2738   */\n      0x1d\n        /* \"#utility.yul\":2731:2734   */\n      dup4\n        /* \"#utility.yul\":2672:2739   */\n      tag_144\n      jump\t// in\n    tag_200:\n        /* \"#utility.yul\":2665:2739   */\n      swap2\n      pop\n        /* \"#utility.yul\":2748:2841   */\n      tag_201\n        /* \"#utility.yul\":2837:2840   */\n      dup3\n        /* \"#utility.yul\":2748:2841   */\n      tag_145\n      jump\t// in\n    tag_201:\n        /* \"#utility.yul\":2866:2868   */\n      0x20\n        /* \"#utility.yul\":2861:2864   */\n      dup3\n        /* \"#utility.yul\":2857:2869   */\n      add\n        /* \"#utility.yul\":2850:2869   */\n      swap1\n      pop\n        /* \"#utility.yul\":2509:2875   */\n      swap2\n      swap1\n      pop\n      jump\t// out\n        /* \"#utility.yul\":2881:3300   */\n    tag_64:\n        /* \"#utility.yul\":3047:3051   */\n      0x00\n        /* \"#utility.yul\":3085:3087   */\n      0x20\n        /* \"#utility.yul\":3074:3083   */\n      dup3\n        /* \"#utility.yul\":3070:3088   */\n      add\n        /* \"#utility.yul\":3062:3088   */\n      swap1\n      pop\n        /* \"#utility.yul\":3134:3143   */\n      dup2\n        /* \"#utility.yul\":3128:3132   */\n      dup2\n        /* \"#utility.yul\":3124:3144   */\n      sub\n        /* \"#utility.yul\":3120:3121   */\n      0x00\n        /* \"#utility.yul\":3109:3118   */\n      dup4\n        /* \"#utility.yul\":3105:3122   */\n      add\n        /* \"#utility.yul\":3098:3145   */\n      mstore\n        /* \"#utility.yul\":3162:3293   */\n      tag_203\n        /* \"#utility.yul\":3288:3292   */\n      dup2\n        /* \"#utility.yul\":3162:3293   */\n      tag_146\n      jump\t// in\n    tag_203:\n        /* \"#utility.yul\":3154:3293   */\n      swap1\n      pop\n        /* \"#utility.yul\":2881:3300   */\n      swap2\n      swap1\n      pop\n      jump\t// out\n        /* \"#utility.yul\":3306:3475   */\n    tag_147:\n        /* \"#utility.yul\":3446:3467   */\n      0x596f752063616e277420626964206c6f77657200000000000000000000000000\n        /* \"#utility.yul\":3442:3443   */\n      0x00\n        /* \"#utility.yul\":3434:3440   */\n      dup3\n        /* \"#utility.yul\":3430:3444   */\n      add\n        /* \"#utility.yul\":3423:3468   */\n      mstore\n        /* \"#utility.yul\":3306:3475   */\n      pop\n      jump\t// out\n        /* \"#utility.yul\":3481:3847   */\n    tag_148:\n        /* \"#utility.yul\":3623:3626   */\n      0x00\n        /* \"#utility.yul\":3644:3711   */\n      tag_206\n        /* \"#utility.yul\":3708:3710   */\n      0x13\n        /* \"#utility.yul\":3703:3706   */\n      dup4\n        /* \"#utility.yul\":3644:3711   */\n      tag_144\n      jump\t// in\n    tag_206:\n        /* \"#utility.yul\":3637:3711   */\n      swap2\n      pop\n        /* \"#utility.yul\":3720:3813   */\n      tag_207\n        /* \"#utility.yul\":3809:3812   */\n      dup3\n        /* \"#utility.yul\":3720:3813   */\n      tag_147\n      jump\t// in\n    tag_207:\n        /* \"#utility.yul\":3838:3840   */\n      0x20\n        /* \"#utility.yul\":3833:3836   */\n      dup3\n        /* \"#utility.yul\":3829:3841   */\n      add\n        /* \"#utility.yul\":3822:3841   */\n      swap1\n      pop\n        /* \"#utility.yul\":3481:3847   */\n      swap2\n      swap1\n      pop\n      jump\t// out\n        /* \"#utility.yul\":3853:4272   */\n    tag_67:\n        /* \"#utility.yul\":4019:4023   */\n      0x00\n        /* \"#utility.yul\":4057:4059   */\n      0x20\n        /* \"#utility.yul\":4046:4055   */\n      dup3\n        /* \"#utility.yul\":4042:4060   */\n      add\n        /* \"#utility.yul\":4034:4060   */\n      swap1\n      pop\n        /* \"#utility.yul\":4106:4115   */\n      dup2\n        /* \"#utility.yul\":4100:4104   */\n      dup2\n        /* \"#utility.yul\":4096:4116   */\n      sub\n        /* \"#utility.yul\":4092:4093   */\n      0x00\n        /* \"#utility.yul\":4081:4090   */\n      dup4\n        /* \"#utility.yul\":4077:4094   */\n      add\n        /* \"#utility.yul\":4070:4117   */\n      mstore\n        /* \"#utility.yul\":4134:4265   */\n      tag_209\n        /* \"#utility.yul\":4260:4264   */\n      dup2\n        /* \"#utility.yul\":4134:4265   */\n      tag_148\n      jump\t// in\n    tag_209:\n        /* \"#utility.yul\":4126:4265   */\n      swap1\n      pop\n        /* \"#utility.yul\":3853:4272   */\n      swap2\n      swap1\n      pop\n      jump\t// out\n        /* \"#utility.yul\":4278:4511   */\n    tag_149:\n        /* \"#utility.yul\":4418:4452   */\n      0x4f6e6c792074686520636f6e7472616374206f776e65722063616e2063616c6c\n        /* \"#utility.yul\":4414:4415   */\n      0x00\n        /* \"#utility.yul\":4406:4412   */\n      dup3\n        /* \"#utility.yul\":4402:4416   */\n      add\n        /* \"#utility.yul\":4395:4453   */\n      mstore\n        /* \"#utility.yul\":4487:4503   */\n      0x20746869732066756e6374696f6e000000000000000000000000000000000000\n        /* \"#utility.yul\":4482:4484   */\n      0x20\n        /* \"#utility.yul\":4474:4480   */\n      dup3\n        /* \"#utility.yul\":4470:4485   */\n      add\n        /* \"#utility.yul\":4463:4504   */\n      mstore\n        /* \"#utility.yul\":4278:4511   */\n      pop\n      jump\t// out\n        /* \"#utility.yul\":4517:4883   */\n    tag_150:\n        /* \"#utility.yul\":4659:4662   */\n      0x00\n        /* \"#utility.yul\":4680:4747   */\n      tag_212\n        /* \"#utility.yul\":4744:4746   */\n      0x2e\n        /* \"#utility.yul\":4739:4742   */\n      dup4\n        /* \"#utility.yul\":4680:4747   */\n      tag_144\n      jump\t// in\n    tag_212:\n        /* \"#utility.yul\":4673:4747   */\n      swap2\n      pop\n        /* \"#utility.yul\":4756:4849   */\n      tag_213\n        /* \"#utility.yul\":4845:4848   */\n      dup3\n        /* \"#utility.yul\":4756:4849   */\n      tag_149\n      jump\t// in\n    tag_213:\n        /* \"#utility.yul\":4874:4876   */\n      0x40\n        /* \"#utility.yul\":4869:4872   */\n      dup3\n        /* \"#utility.yul\":4865:4877   */\n      add\n        /* \"#utility.yul\":4858:4877   */\n      swap1\n      pop\n        /* \"#utility.yul\":4517:4883   */\n      swap2\n      swap1\n      pop\n      jump\t// out\n        /* \"#utility.yul\":4889:5308   */\n    tag_72:\n        /* \"#utility.yul\":5055:5059   */\n      0x00\n        /* \"#utility.yul\":5093:5095   */\n      0x20\n        /* \"#utility.yul\":5082:5091   */\n      dup3\n        /* \"#utility.yul\":5078:5096   */\n      add\n        /* \"#utility.yul\":5070:5096   */\n      swap1\n      pop\n        /* \"#utility.yul\":5142:5151   */\n      dup2\n        /* \"#utility.yul\":5136:5140   */\n      dup2\n        /* \"#utility.yul\":5132:5152   */\n      sub\n        /* \"#utility.yul\":5128:5129   */\n      0x00\n        /* \"#utility.yul\":5117:5126   */\n      dup4\n        /* \"#utility.yul\":5113:5130   */\n      add\n        /* \"#utility.yul\":5106:5153   */\n      mstore\n        /* \"#utility.yul\":5170:5301   */\n      tag_215\n        /* \"#utility.yul\":5296:5300   */\n      dup2\n        /* \"#utility.yul\":5170:5301   */\n      tag_150\n      jump\t// in\n    tag_215:\n        /* \"#utility.yul\":5162:5301   */\n      swap1\n      pop\n        /* \"#utility.yul\":4889:5308   */\n      swap2\n      swap1\n      pop\n      jump\t// out\n        /* \"#utility.yul\":5314:5374   */\n    tag_151:\n        /* \"#utility.yul\":5342:5345   */\n      0x00\n        /* \"#utility.yul\":5363:5368   */\n      dup2\n        /* \"#utility.yul\":5356:5368   */\n      swap1\n      pop\n        /* \"#utility.yul\":5314:5374   */\n      swap2\n      swap1\n      pop\n      jump\t// out\n        /* \"#utility.yul\":5380:5522   */\n    tag_152:\n        /* \"#utility.yul\":5430:5439   */\n      0x00\n        /* \"#utility.yul\":5463:5516   */\n      tag_218\n        /* \"#utility.yul\":5481:5515   */\n      tag_219\n        /* \"#utility.yul\":5490:5514   */\n      tag_220\n        /* \"#utility.yul\":5508:5513   */\n      dup5\n        /* \"#utility.yul\":5490:5514   */\n      tag_136\n      jump\t// in\n    tag_220:\n        /* \"#utility.yul\":5481:5515   */\n      tag_151\n      jump\t// in\n    tag_219:\n        /* \"#utility.yul\":5463:5516   */\n      tag_136\n      jump\t// in\n    tag_218:\n        /* \"#utility.yul\":5450:5516   */\n      swap1\n      pop\n        /* \"#utility.yul\":5380:5522   */\n      swap2\n      swap1\n      pop\n      jump\t// out\n        /* \"#utility.yul\":5528:5654   */\n    tag_153:\n        /* \"#utility.yul\":5578:5587   */\n      0x00\n        /* \"#utility.yul\":5611:5648   */\n      tag_222\n        /* \"#utility.yul\":5642:5647   */\n      dup3\n        /* \"#utility.yul\":5611:5648   */\n      tag_152\n      jump\t// in\n    tag_222:\n        /* \"#utility.yul\":5598:5648   */\n      swap1\n      pop\n        /* \"#utility.yul\":5528:5654   */\n      swap2\n      swap1\n      pop\n      jump\t// out\n        /* \"#utility.yul\":5660:5794   */\n    tag_154:\n        /* \"#utility.yul\":5718:5727   */\n      0x00\n        /* \"#utility.yul\":5751:5788   */\n      tag_224\n        /* \"#utility.yul\":5782:5787   */\n      dup3\n        /* \"#utility.yul\":5751:5788   */\n      tag_153\n      jump\t// in\n    tag_224:\n        /* \"#utility.yul\":5738:5788   */\n      swap1\n      pop\n        /* \"#utility.yul\":5660:5794   */\n      swap2\n      swap1\n      pop\n      jump\t// out\n        /* \"#utility.yul\":5800:5947   */\n    tag_155:\n        /* \"#utility.yul\":5895:5940   */\n      tag_226\n        /* \"#utility.yul\":5934:5939   */\n      dup2\n        /* \"#utility.yul\":5895:5940   */\n      tag_154\n      jump\t// in\n    tag_226:\n        /* \"#utility.yul\":5890:5893   */\n      dup3\n        /* \"#utility.yul\":5883:5941   */\n      mstore\n        /* \"#utility.yul\":5800:5947   */\n      pop\n      pop\n      jump\t// out\n        /* \"#utility.yul\":5953:6301   */\n    tag_75:\n        /* \"#utility.yul\":6082:6086   */\n      0x00\n        /* \"#utility.yul\":6120:6122   */\n      0x40\n        /* \"#utility.yul\":6109:6118   */\n      dup3\n        /* \"#utility.yul\":6105:6123   */\n      add\n        /* \"#utility.yul\":6097:6123   */\n      swap1\n      pop\n        /* \"#utility.yul\":6133:6212   */\n      tag_228\n        /* \"#utility.yul\":6209:6210   */\n      0x00\n        /* \"#utility.yul\":6198:6207   */\n      dup4\n        /* \"#utility.yul\":6194:6211   */\n      add\n        /* \"#utility.yul\":6185:6191   */\n      dup6\n        /* \"#utility.yul\":6133:6212   */\n      tag_155\n      jump\t// in\n    tag_228:\n        /* \"#utility.yul\":6222:6294   */\n      tag_229\n        /* \"#utility.yul\":6290:6292   */\n      0x20\n        /* \"#utility.yul\":6279:6288   */\n      dup4\n        /* \"#utility.yul\":6275:6293   */\n      add\n        /* \"#utility.yul\":6266:6272   */\n      dup5\n        /* \"#utility.yul\":6222:6294   */\n      tag_138\n      jump\t// in\n    tag_229:\n        /* \"#utility.yul\":5953:6301   */\n      swap4\n      swap3\n      pop\n      pop\n      pop\n      jump\t// out\n        /* \"#utility.yul\":6307:6397   */\n    tag_156:\n        /* \"#utility.yul\":6341:6348   */\n      0x00\n        /* \"#utility.yul\":6384:6389   */\n      dup2\n        /* \"#utility.yul\":6377:6390   */\n      iszero\n        /* \"#utility.yul\":6370:6391   */\n      iszero\n        /* \"#utility.yul\":6359:6391   */\n      swap1\n      pop\n        /* \"#utility.yul\":6307:6397   */\n      swap2\n      swap1\n      pop\n      jump\t// out\n        /* \"#utility.yul\":6403:6519   */\n    tag_157:\n        /* \"#utility.yul\":6473:6494   */\n      tag_232\n        /* \"#utility.yul\":6488:6493   */\n      dup2\n        /* \"#utility.yul\":6473:6494   */\n      tag_156\n      jump\t// in\n    tag_232:\n        /* \"#utility.yul\":6466:6471   */\n      dup2\n        /* \"#utility.yul\":6463:6495   */\n      eq\n        /* \"#utility.yul\":6453:6513   */\n      tag_233\n      jumpi\n        /* \"#utility.yul\":6509:6510   */\n      0x00\n        /* \"#utility.yul\":6506:6507   */\n      dup1\n        /* \"#utility.yul\":6499:6511   */\n      revert\n        /* \"#utility.yul\":6453:6513   */\n    tag_233:\n        /* \"#utility.yul\":6403:6519   */\n      pop\n      jump\t// out\n        /* \"#utility.yul\":6525:6662   */\n    tag_158:\n        /* \"#utility.yul\":6579:6584   */\n      0x00\n        /* \"#utility.yul\":6610:6616   */\n      dup2\n        /* \"#utility.yul\":6604:6617   */\n      mload\n        /* \"#utility.yul\":6595:6617   */\n      swap1\n      pop\n        /* \"#utility.yul\":6626:6656   */\n      tag_235\n        /* \"#utility.yul\":6650:6655   */\n      dup2\n        /* \"#utility.yul\":6626:6656   */\n      tag_157\n      jump\t// in\n    tag_235:\n        /* \"#utility.yul\":6525:6662   */\n      swap3\n      swap2\n      pop\n      pop\n      jump\t// out\n        /* \"#utility.yul\":6668:7013   */\n    tag_79:\n        /* \"#utility.yul\":6735:6741   */\n      0x00\n        /* \"#utility.yul\":6784:6786   */\n      0x20\n        /* \"#utility.yul\":6772:6781   */\n      dup3\n        /* \"#utility.yul\":6763:6770   */\n      dup5\n        /* \"#utility.yul\":6759:6782   */\n      sub\n        /* \"#utility.yul\":6755:6787   */\n      slt\n        /* \"#utility.yul\":6752:6871   */\n      iszero\n      tag_237\n      jumpi\n        /* \"#utility.yul\":6790:6869   */\n      tag_238\n      tag_140\n      jump\t// in\n    tag_238:\n        /* \"#utility.yul\":6752:6871   */\n    tag_237:\n        /* \"#utility.yul\":6910:6911   */\n      0x00\n        /* \"#utility.yul\":6935:6996   */\n      tag_239\n        /* \"#utility.yul\":6988:6995   */\n      dup5\n        /* \"#utility.yul\":6979:6985   */\n      dup3\n        /* \"#utility.yul\":6968:6977   */\n      dup6\n        /* \"#utility.yul\":6964:6986   */\n      add\n        /* \"#utility.yul\":6935:6996   */\n      tag_158\n      jump\t// in\n    tag_239:\n        /* \"#utility.yul\":6925:6996   */\n      swap2\n      pop\n        /* \"#utility.yul\":6881:7006   */\n      pop\n        /* \"#utility.yul\":6668:7013   */\n      swap3\n      swap2\n      pop\n      pop\n      jump\t// out\n        /* \"#utility.yul\":7019:7246   */\n    tag_159:\n        /* \"#utility.yul\":7159:7193   */\n      0x436f6e7472616374206973206e6f7420617070726f76656420746f207472616e\n        /* \"#utility.yul\":7155:7156   */\n      0x00\n        /* \"#utility.yul\":7147:7153   */\n      dup3\n        /* \"#utility.yul\":7143:7157   */\n      add\n        /* \"#utility.yul\":7136:7194   */\n      mstore\n        /* \"#utility.yul\":7228:7238   */\n      0x73666572204e4654000000000000000000000000000000000000000000000000\n        /* \"#utility.yul\":7223:7225   */\n      0x20\n        /* \"#utility.yul\":7215:7221   */\n      dup3\n        /* \"#utility.yul\":7211:7226   */\n      add\n        /* \"#utility.yul\":7204:7239   */\n      mstore\n        /* \"#utility.yul\":7019:7246   */\n      pop\n      jump\t// out\n        /* \"#utility.yul\":7252:7618   */\n    tag_160:\n        /* \"#utility.yul\":7394:7397   */\n      0x00\n        /* \"#utility.yul\":7415:7482   */\n      tag_242\n        /* \"#utility.yul\":7479:7481   */\n      0x28\n        /* \"#utility.yul\":7474:7477   */\n      dup4\n        /* \"#utility.yul\":7415:7482   */\n      tag_144\n      jump\t// in\n    tag_242:\n        /* \"#utility.yul\":7408:7482   */\n      swap2\n      pop\n        /* \"#utility.yul\":7491:7584   */\n      tag_243\n        /* \"#utility.yul\":7580:7583   */\n      dup3\n        /* \"#utility.yul\":7491:7584   */\n      tag_159\n      jump\t// in\n    tag_243:\n        /* \"#utility.yul\":7609:7611   */\n      0x40\n        /* \"#utility.yul\":7604:7607   */\n      dup3\n        /* \"#utility.yul\":7600:7612   */\n      add\n        /* \"#utility.yul\":7593:7612   */\n      swap1\n      pop\n        /* \"#utility.yul\":7252:7618   */\n      swap2\n      swap1\n      pop\n      jump\t// out\n        /* \"#utility.yul\":7624:8043   */\n    tag_82:\n        /* \"#utility.yul\":7790:7794   */\n      0x00\n        /* \"#utility.yul\":7828:7830   */\n      0x20\n        /* \"#utility.yul\":7817:7826   */\n      dup3\n        /* \"#utility.yul\":7813:7831   */\n      add\n        /* \"#utility.yul\":7805:7831   */\n      swap1\n      pop\n        /* \"#utility.yul\":7877:7886   */\n      dup2\n        /* \"#utility.yul\":7871:7875   */\n      dup2\n        /* \"#utility.yul\":7867:7887   */\n      sub\n        /* \"#utility.yul\":7863:7864   */\n      0x00\n        /* \"#utility.yul\":7852:7861   */\n      dup4\n        /* \"#utility.yul\":7848:7865   */\n      add\n        /* \"#utility.yul\":7841:7888   */\n      mstore\n        /* \"#utility.yul\":7905:8036   */\n      tag_245\n        /* \"#utility.yul\":8031:8035   */\n      dup2\n        /* \"#utility.yul\":7905:8036   */\n      tag_160\n      jump\t// in\n    tag_245:\n        /* \"#utility.yul\":7897:8036   */\n      swap1\n      pop\n        /* \"#utility.yul\":7624:8043   */\n      swap2\n      swap1\n      pop\n      jump\t// out\n        /* \"#utility.yul\":8049:8507   */\n    tag_91:\n        /* \"#utility.yul\":8206:8210   */\n      0x00\n        /* \"#utility.yul\":8244:8246   */\n      0x60\n        /* \"#utility.yul\":8233:8242   */\n      dup3\n        /* \"#utility.yul\":8229:8247   */\n      add\n        /* \"#utility.yul\":8221:8247   */\n      swap1\n      pop\n        /* \"#utility.yul\":8257:8336   */\n      tag_247\n        /* \"#utility.yul\":8333:8334   */\n      0x00\n        /* \"#utility.yul\":8322:8331   */\n      dup4\n        /* \"#utility.yul\":8318:8335   */\n      add\n        /* \"#utility.yul\":8309:8315   */\n      dup7\n        /* \"#utility.yul\":8257:8336   */\n      tag_155\n      jump\t// in\n    tag_247:\n        /* \"#utility.yul\":8346:8418   */\n      tag_248\n        /* \"#utility.yul\":8414:8416   */\n      0x20\n        /* \"#utility.yul\":8403:8412   */\n      dup4\n        /* \"#utility.yul\":8399:8417   */\n      add\n        /* \"#utility.yul\":8390:8396   */\n      dup6\n        /* \"#utility.yul\":8346:8418   */\n      tag_138\n      jump\t// in\n    tag_248:\n        /* \"#utility.yul\":8428:8500   */\n      tag_249\n        /* \"#utility.yul\":8496:8498   */\n      0x40\n        /* \"#utility.yul\":8485:8494   */\n      dup4\n        /* \"#utility.yul\":8481:8499   */\n      add\n        /* \"#utility.yul\":8472:8478   */\n      dup5\n        /* \"#utility.yul\":8428:8500   */\n      tag_135\n      jump\t// in\n    tag_249:\n        /* \"#utility.yul\":8049:8507   */\n      swap5\n      swap4\n      pop\n      pop\n      pop\n      pop\n      jump\t// out\n        /* \"#utility.yul\":8513:8635   */\n    tag_161:\n        /* \"#utility.yul\":8603:8604   */\n      0x02\n        /* \"#utility.yul\":8596:8601   */\n      dup2\n        /* \"#utility.yul\":8593:8605   */\n      lt\n        /* \"#utility.yul\":8583:8629   */\n      tag_251\n      jumpi\n        /* \"#utility.yul\":8609:8627   */\n      tag_252\n      tag_59\n      jump\t// in\n    tag_252:\n        /* \"#utility.yul\":8583:8629   */\n    tag_251:\n        /* \"#utility.yul\":8513:8635   */\n      pop\n      jump\t// out\n        /* \"#utility.yul\":8641:8786   */\n    tag_162:\n        /* \"#utility.yul\":8695:8702   */\n      0x00\n        /* \"#utility.yul\":8724:8729   */\n      dup2\n        /* \"#utility.yul\":8713:8729   */\n      swap1\n      pop\n        /* \"#utility.yul\":8730:8780   */\n      tag_254\n        /* \"#utility.yul\":8774:8779   */\n      dup3\n        /* \"#utility.yul\":8730:8780   */\n      tag_161\n      jump\t// in\n    tag_254:\n        /* \"#utility.yul\":8641:8786   */\n      swap2\n      swap1\n      pop\n      jump\t// out\n        /* \"#utility.yul\":8792:8937   */\n    tag_163:\n        /* \"#utility.yul\":8857:8866   */\n      0x00\n        /* \"#utility.yul\":8890:8931   */\n      tag_256\n        /* \"#utility.yul\":8925:8930   */\n      dup3\n        /* \"#utility.yul\":8890:8931   */\n      tag_162\n      jump\t// in\n    tag_256:\n        /* \"#utility.yul\":8877:8931   */\n      swap1\n      pop\n        /* \"#utility.yul\":8792:8937   */\n      swap2\n      swap1\n      pop\n      jump\t// out\n        /* \"#utility.yul\":8943:9104   */\n    tag_164:\n        /* \"#utility.yul\":9045:9097   */\n      tag_258\n        /* \"#utility.yul\":9091:9096   */\n      dup2\n        /* \"#utility.yul\":9045:9097   */\n      tag_163\n      jump\t// in\n    tag_258:\n        /* \"#utility.yul\":9040:9043   */\n      dup3\n        /* \"#utility.yul\":9033:9098   */\n      mstore\n        /* \"#utility.yul\":8943:9104   */\n      pop\n      pop\n      jump\t// out\n        /* \"#utility.yul\":9110:9362   */\n    tag_100:\n        /* \"#utility.yul\":9218:9222   */\n      0x00\n        /* \"#utility.yul\":9256:9258   */\n      0x20\n        /* \"#utility.yul\":9245:9254   */\n      dup3\n        /* \"#utility.yul\":9241:9259   */\n      add\n        /* \"#utility.yul\":9233:9259   */\n      swap1\n      pop\n        /* \"#utility.yul\":9269:9355   */\n      tag_260\n        /* \"#utility.yul\":9352:9353   */\n      0x00\n        /* \"#utility.yul\":9341:9350   */\n      dup4\n        /* \"#utility.yul\":9337:9354   */\n      add\n        /* \"#utility.yul\":9328:9334   */\n      dup5\n        /* \"#utility.yul\":9269:9355   */\n      tag_164\n      jump\t// in\n    tag_260:\n        /* \"#utility.yul\":9110:9362   */\n      swap3\n      swap2\n      pop\n      pop\n      jump\t// out\n        /* \"#utility.yul\":9368:9545   */\n    tag_165:\n        /* \"#utility.yul\":9508:9537   */\n      0x5468652041756374696f6e20697320616c7265616479206f70656e0000000000\n        /* \"#utility.yul\":9504:9505   */\n      0x00\n        /* \"#utility.yul\":9496:9502   */\n      dup3\n        /* \"#utility.yul\":9492:9506   */\n      add\n        /* \"#utility.yul\":9485:9538   */\n      mstore\n        /* \"#utility.yul\":9368:9545   */\n      pop\n      jump\t// out\n        /* \"#utility.yul\":9551:9917   */\n    tag_166:\n        /* \"#utility.yul\":9693:9696   */\n      0x00\n        /* \"#utility.yul\":9714:9781   */\n      tag_263\n        /* \"#utility.yul\":9778:9780   */\n      0x1b\n        /* \"#utility.yul\":9773:9776   */\n      dup4\n        /* \"#utility.yul\":9714:9781   */\n      tag_144\n      jump\t// in\n    tag_263:\n        /* \"#utility.yul\":9707:9781   */\n      swap2\n      pop\n        /* \"#utility.yul\":9790:9883   */\n      tag_264\n        /* \"#utility.yul\":9879:9882   */\n      dup3\n        /* \"#utility.yul\":9790:9883   */\n      tag_165\n      jump\t// in\n    tag_264:\n        /* \"#utility.yul\":9908:9910   */\n      0x20\n        /* \"#utility.yul\":9903:9906   */\n      dup3\n        /* \"#utility.yul\":9899:9911   */\n      add\n        /* \"#utility.yul\":9892:9911   */\n      swap1\n      pop\n        /* \"#utility.yul\":9551:9917   */\n      swap2\n      swap1\n      pop\n      jump\t// out\n        /* \"#utility.yul\":9923:10342   */\n    tag_111:\n        /* \"#utility.yul\":10089:10093   */\n      0x00\n        /* \"#utility.yul\":10127:10129   */\n      0x20\n        /* \"#utility.yul\":10116:10125   */\n      dup3\n        /* \"#utility.yul\":10112:10130   */\n      add\n        /* \"#utility.yul\":10104:10130   */\n      swap1\n      pop\n        /* \"#utility.yul\":10176:10185   */\n      dup2\n        /* \"#utility.yul\":10170:10174   */\n      dup2\n        /* \"#utility.yul\":10166:10186   */\n      sub\n        /* \"#utility.yul\":10162:10163   */\n      0x00\n        /* \"#utility.yul\":10151:10160   */\n      dup4\n        /* \"#utility.yul\":10147:10164   */\n      add\n        /* \"#utility.yul\":10140:10187   */\n      mstore\n        /* \"#utility.yul\":10204:10335   */\n      tag_266\n        /* \"#utility.yul\":10330:10334   */\n      dup2\n        /* \"#utility.yul\":10204:10335   */\n      tag_166\n      jump\t// in\n    tag_266:\n        /* \"#utility.yul\":10196:10335   */\n      swap1\n      pop\n        /* \"#utility.yul\":9923:10342   */\n      swap2\n      swap1\n      pop\n      jump\t// out\n        /* \"#utility.yul\":10348:10528   */\n    tag_167:\n        /* \"#utility.yul\":10396:10473   */\n      0x4e487b7100000000000000000000000000000000000000000000000000000000\n        /* \"#utility.yul\":10393:10394   */\n      0x00\n        /* \"#utility.yul\":10386:10474   */\n      mstore\n        /* \"#utility.yul\":10493:10497   */\n      0x11\n        /* \"#utility.yul\":10490:10491   */\n      0x04\n        /* \"#utility.yul\":10483:10498   */\n      mstore\n        /* \"#utility.yul\":10517:10521   */\n      0x24\n        /* \"#utility.yul\":10514:10515   */\n      0x00\n        /* \"#utility.yul\":10507:10522   */\n      revert\n        /* \"#utility.yul\":10534:10728   */\n    tag_121:\n        /* \"#utility.yul\":10574:10578   */\n      0x00\n        /* \"#utility.yul\":10594:10614   */\n      tag_269\n        /* \"#utility.yul\":10612:10613   */\n      dup3\n        /* \"#utility.yul\":10594:10614   */\n      tag_134\n      jump\t// in\n    tag_269:\n        /* \"#utility.yul\":10589:10614   */\n      swap2\n      pop\n        /* \"#utility.yul\":10628:10648   */\n      tag_270\n        /* \"#utility.yul\":10646:10647   */\n      dup4\n        /* \"#utility.yul\":10628:10648   */\n      tag_134\n      jump\t// in\n    tag_270:\n        /* \"#utility.yul\":10623:10648   */\n      swap3\n      pop\n        /* \"#utility.yul\":10672:10673   */\n      dup3\n        /* \"#utility.yul\":10669:10670   */\n      dup3\n        /* \"#utility.yul\":10665:10674   */\n      sub\n        /* \"#utility.yul\":10657:10674   */\n      swap1\n      pop\n        /* \"#utility.yul\":10696:10697   */\n      dup2\n        /* \"#utility.yul\":10690:10694   */\n      dup2\n        /* \"#utility.yul\":10687:10698   */\n      gt\n        /* \"#utility.yul\":10684:10721   */\n      iszero\n      tag_271\n      jumpi\n        /* \"#utility.yul\":10701:10719   */\n      tag_272\n      tag_167\n      jump\t// in\n    tag_272:\n        /* \"#utility.yul\":10684:10721   */\n    tag_271:\n        /* \"#utility.yul\":10534:10728   */\n      swap3\n      swap2\n      pop\n      pop\n      jump\t// out\n        /* \"#utility.yul\":10734:10914   */\n    tag_124:\n        /* \"#utility.yul\":10782:10859   */\n      0x4e487b7100000000000000000000000000000000000000000000000000000000\n        /* \"#utility.yul\":10779:10780   */\n      0x00\n        /* \"#utility.yul\":10772:10860   */\n      mstore\n        /* \"#utility.yul\":10879:10883   */\n      0x32\n        /* \"#utility.yul\":10876:10877   */\n      0x04\n        /* \"#utility.yul\":10869:10884   */\n      mstore\n        /* \"#utility.yul\":10903:10907   */\n      0x24\n        /* \"#utility.yul\":10900:10901   */\n      0x00\n        /* \"#utility.yul\":10893:10908   */\n      revert\n        /* \"#utility.yul\":10920:11067   */\n    tag_168:\n        /* \"#utility.yul\":11021:11032   */\n      0x00\n        /* \"#utility.yul\":11058:11061   */\n      dup2\n        /* \"#utility.yul\":11043:11061   */\n      swap1\n      pop\n        /* \"#utility.yul\":10920:11067   */\n      swap3\n      swap2\n      pop\n      pop\n      jump\t// out\n        /* \"#utility.yul\":11073:11187   */\n    tag_169:\n      pop\n      jump\t// out\n        /* \"#utility.yul\":11193:11591   */\n    tag_170:\n        /* \"#utility.yul\":11352:11355   */\n      0x00\n        /* \"#utility.yul\":11373:11456   */\n      tag_277\n        /* \"#utility.yul\":11454:11455   */\n      0x00\n        /* \"#utility.yul\":11449:11452   */\n      dup4\n        /* \"#utility.yul\":11373:11456   */\n      tag_168\n      jump\t// in\n    tag_277:\n        /* \"#utility.yul\":11366:11456   */\n      swap2\n      pop\n        /* \"#utility.yul\":11465:11558   */\n      tag_278\n        /* \"#utility.yul\":11554:11557   */\n      dup3\n        /* \"#utility.yul\":11465:11558   */\n      tag_169\n      jump\t// in\n    tag_278:\n        /* \"#utility.yul\":11583:11584   */\n      0x00\n        /* \"#utility.yul\":11578:11581   */\n      dup3\n        /* \"#utility.yul\":11574:11585   */\n      add\n        /* \"#utility.yul\":11567:11585   */\n      swap1\n      pop\n        /* \"#utility.yul\":11193:11591   */\n      swap2\n      swap1\n      pop\n      jump\t// out\n        /* \"#utility.yul\":11597:11976   */\n    tag_127:\n        /* \"#utility.yul\":11781:11784   */\n      0x00\n        /* \"#utility.yul\":11803:11950   */\n      tag_280\n        /* \"#utility.yul\":11946:11949   */\n      dup3\n        /* \"#utility.yul\":11803:11950   */\n      tag_170\n      jump\t// in\n    tag_280:\n        /* \"#utility.yul\":11796:11950   */\n      swap2\n      pop\n        /* \"#utility.yul\":11967:11970   */\n      dup2\n        /* \"#utility.yul\":11960:11970   */\n      swap1\n      pop\n        /* \"#utility.yul\":11597:11976   */\n      swap2\n      swap1\n      pop\n      jump\t// out\n        /* \"#utility.yul\":11982:12215   */\n    tag_133:\n        /* \"#utility.yul\":12021:12024   */\n      0x00\n        /* \"#utility.yul\":12044:12068   */\n      tag_282\n        /* \"#utility.yul\":12062:12067   */\n      dup3\n        /* \"#utility.yul\":12044:12068   */\n      tag_134\n      jump\t// in\n    tag_282:\n        /* \"#utility.yul\":12035:12068   */\n      swap2\n      pop\n        /* \"#utility.yul\":12090:12156   */\n      0xffffffffffffffffffffffffffffffffffffffffffffffffffffffffffffffff\n        /* \"#utility.yul\":12083:12088   */\n      dup3\n        /* \"#utility.yul\":12080:12157   */\n      sub\n        /* \"#utility.yul\":12077:12180   */\n      tag_283\n      jumpi\n        /* \"#utility.yul\":12160:12178   */\n      tag_284\n      tag_167\n      jump\t// in\n    tag_284:\n        /* \"#utility.yul\":12077:12180   */\n    tag_283:\n        /* \"#utility.yul\":12207:12208   */\n      0x01\n        /* \"#utility.yul\":12200:12205   */\n      dup3\n        /* \"#utility.yul\":12196:12209   */\n      add\n        /* \"#utility.yul\":12189:12209   */\n      swap1\n      pop\n        /* \"#utility.yul\":11982:12215   */\n      swap2\n      swap1\n      pop\n      jump\t// out\n\n    auxdata: 0xa26469706673582212201605aa4a3c3a523456c552d503731894da811f5466df00f5683a98efcfb2e4d064736f6c63430008110033\n}\n",
				"bytecode": {
					"linkReferences": {},
					"object": "60c06040523480156200001157600080fd5b50604051620013d5380380620013d58339818101604052810190620000379190620001d8565b83600160006101000a81548173ffffffffffffffffffffffffffffffffffffffff021916908373ffffffffffffffffffffffffffffffffffffffff1602179055508260028190555081608081815250508073ffffffffffffffffffffffffffffffffffffffff1660a08173ffffffffffffffffffffffffffffffffffffffff16815250506001600860006101000a81548160ff02191690836001811115620000e457620000e36200024a565b5b0217905550806000806101000a81548173ffffffffffffffffffffffffffffffffffffffff021916908373ffffffffffffffffffffffffffffffffffffffff1602179055505050505062000279565b600080fd5b600073ffffffffffffffffffffffffffffffffffffffff82169050919050565b6000620001658262000138565b9050919050565b620001778162000158565b81146200018357600080fd5b50565b60008151905062000197816200016c565b92915050565b6000819050919050565b620001b2816200019d565b8114620001be57600080fd5b50565b600081519050620001d281620001a7565b92915050565b60008060008060808587031215620001f557620001f462000133565b5b6000620002058782880162000186565b94505060206200021887828801620001c1565b93505060406200022b87828801620001c1565b92505060606200023e8782880162000186565b91505092959194509250565b7f4e487b7100000000000000000000000000000000000000000000000000000000600052602160045260246000fd5b60805160a05161112f620002a6600039600061077c0152600081816102240152610690015261112f6000f3fe60806040526004361061009c5760003560e01c80636b64c769116100645780636b64c7691461014357806383197ef01461015a57806391f9015714610164578063b8da82ea1461018f578063d57bde79146101ba578063dc689504146101e55761009c565b806317d70f7c146100a15780631998aeef146100cc5780631d0806ae146100d6578063378252f21461010157806355a373d614610118575b600080fd5b3480156100ad57600080fd5b506100b6610222565b6040516100c39190610ad5565b60405180910390f35b6100d4610246565b005b3480156100e257600080fd5b506100eb610384565b6040516100f89190610ad5565b60405180910390f35b34801561010d57600080fd5b5061011661038a565b005b34801561012457600080fd5b5061012d61077a565b60405161013a9190610b31565b60405180910390f35b34801561014f57600080fd5b5061015861079e565b005b610162610916565b005b34801561017057600080fd5b50610179610951565b6040516101869190610b31565b60405180910390f35b34801561019b57600080fd5b506101a4610977565b6040516101b19190610ad5565b60405180910390f35b3480156101c657600080fd5b506101cf61097d565b6040516101dc9190610ad5565b60405180910390f35b3480156101f157600080fd5b5061020c60048036038101906102079190610b7d565b610983565b6040516102199190610b31565b60405180910390f35b7f000000000000000000000000000000000000000000000000000000000000000081565b6000600181111561025a57610259610baa565b5b600860009054906101000a900460ff16600181111561027c5761027b610baa565b5b146102bc576040517f08c379a00000000000000000000000000000000000000000000000000000000081526004016102b390610c36565b60405180910390fd5b6004543411610300576040517f08c379a00000000000000000000000000000000000000000000000000000000081526004016102f790610ca2565b60405180910390fd5b336006600034815260200190815260200160002060006101000a81548173ffffffffffffffffffffffffffffffffffffffff021916908373ffffffffffffffffffffffffffffffffffffffff160217905550346004819055506007349080600181540180825580915050600190039060005260206000200160009091909190915055565b60025481565b600160009054906101000a900473ffffffffffffffffffffffffffffffffffffffff1673ffffffffffffffffffffffffffffffffffffffff163373ffffffffffffffffffffffffffffffffffffffff161461041a576040517f08c379a000000000000000000000000000000000000000000000000000000000815260040161041190610d34565b60405180910390fd5b60008054906101000a900473ffffffffffffffffffffffffffffffffffffffff1673ffffffffffffffffffffffffffffffffffffffff1663e985e9c5600160009054906101000a900473ffffffffffffffffffffffffffffffffffffffff16306040518363ffffffff1660e01b8152600401610497929190610db3565b602060405180830381865afa1580156104b4573d6000803e3d6000fd5b505050506040513d601f19601f820116820180604052508101906104d89190610e14565b610517576040517f08c379a000000000000000000000000000000000000000000000000000000000815260040161050e90610eb3565b60405180910390fd5b6000600181111561052b5761052a610baa565b5b600860009054906101000a900460ff16600181111561054d5761054c610baa565b5b1461058d576040517f08c379a000000000000000000000000000000000000000000000000000000000815260040161058490610c36565b60405180910390fd5b60045460038190555060066000600454815260200190815260200160002060009054906101000a900473ffffffffffffffffffffffffffffffffffffffff16600560006101000a81548173ffffffffffffffffffffffffffffffffffffffff021916908373ffffffffffffffffffffffffffffffffffffffff16021790555060008054906101000a900473ffffffffffffffffffffffffffffffffffffffff1673ffffffffffffffffffffffffffffffffffffffff166323b872dd600160009054906101000a900473ffffffffffffffffffffffffffffffffffffffff16600560009054906101000a900473ffffffffffffffffffffffffffffffffffffffff167f00000000000000000000000000000000000000000000000000000000000000006040518463ffffffff1660e01b81526004016106cd93929190610ed3565b600060405180830381600087803b1580156106e757600080fd5b505af11580156106fb573d6000803e3d6000fd5b505050506107076109b6565b6001600860006101000a81548160ff0219169083600181111561072d5761072c610baa565b5b02179055507f8caed3b4bf01375b22dc7f84afe719ce12ab14864751a7d5e4142fe4e4a50a51600860009054906101000a900460ff166040516107709190610f52565b60405180910390a1565b7f000000000000000000000000000000000000000000000000000000000000000081565b600160009054906101000a900473ffffffffffffffffffffffffffffffffffffffff1673ffffffffffffffffffffffffffffffffffffffff163373ffffffffffffffffffffffffffffffffffffffff161461082e576040517f08c379a000000000000000000000000000000000000000000000000000000000815260040161082590610d34565b60405180910390fd5b60018081111561084157610840610baa565b5b600860009054906101000a900460ff16600181111561086357610862610baa565b5b146108a3576040517f08c379a000000000000000000000000000000000000000000000000000000000815260040161089a90610fb9565b60405180910390fd5b6000600860006101000a81548160ff021916908360018111156108c9576108c8610baa565b5b02179055507f8caed3b4bf01375b22dc7f84afe719ce12ab14864751a7d5e4142fe4e4a50a51600860009054906101000a900460ff1660405161090c9190610f52565b60405180910390a1565b600160009054906101000a900473ffffffffffffffffffffffffffffffffffffffff1673ffffffffffffffffffffffffffffffffffffffff16ff5b600560009054906101000a900473ffffffffffffffffffffffffffffffffffffffff1681565b60045481565b60035481565b60066020528060005260406000206000915054906101000a900473ffffffffffffffffffffffffffffffffffffffff1681565b60005b60016007805490506109cb9190611008565b811015610ab9576000600782815481106109e8576109e761103c565b5b9060005260206000200154905060006006600083815260200190815260200160002060009054906101000a900473ffffffffffffffffffffffffffffffffffffffff16905060008173ffffffffffffffffffffffffffffffffffffffff1683604051610a539061109c565b60006040518083038185875af1925050503d8060008114610a90576040519150601f19603f3d011682016040523d82523d6000602084013e610a95565b606091505b5050905080610aa357600080fd5b5050508080610ab1906110b1565b9150506109b9565b50565b6000819050919050565b610acf81610abc565b82525050565b6000602082019050610aea6000830184610ac6565b92915050565b600073ffffffffffffffffffffffffffffffffffffffff82169050919050565b6000610b1b82610af0565b9050919050565b610b2b81610b10565b82525050565b6000602082019050610b466000830184610b22565b92915050565b600080fd5b610b5a81610abc565b8114610b6557600080fd5b50565b600081359050610b7781610b51565b92915050565b600060208284031215610b9357610b92610b4c565b5b6000610ba184828501610b68565b91505092915050565b7f4e487b7100000000000000000000000000000000000000000000000000000000600052602160045260246000fd5b600082825260208201905092915050565b7f5468652041756374696f6e20697320616c726561647920636c6f736564000000600082015250565b6000610c20601d83610bd9565b9150610c2b82610bea565b602082019050919050565b60006020820190508181036000830152610c4f81610c13565b9050919050565b7f596f752063616e277420626964206c6f77657200000000000000000000000000600082015250565b6000610c8c601383610bd9565b9150610c9782610c56565b602082019050919050565b60006020820190508181036000830152610cbb81610c7f565b9050919050565b7f4f6e6c792074686520636f6e7472616374206f776e65722063616e2063616c6c60008201527f20746869732066756e6374696f6e000000000000000000000000000000000000602082015250565b6000610d1e602e83610bd9565b9150610d2982610cc2565b604082019050919050565b60006020820190508181036000830152610d4d81610d11565b9050919050565b6000819050919050565b6000610d79610d74610d6f84610af0565b610d54565b610af0565b9050919050565b6000610d8b82610d5e565b9050919050565b6000610d9d82610d80565b9050919050565b610dad81610d92565b82525050565b6000604082019050610dc86000830185610da4565b610dd56020830184610b22565b9392505050565b60008115159050919050565b610df181610ddc565b8114610dfc57600080fd5b50565b600081519050610e0e81610de8565b92915050565b600060208284031215610e2a57610e29610b4c565b5b6000610e3884828501610dff565b91505092915050565b7f436f6e7472616374206973206e6f7420617070726f76656420746f207472616e60008201527f73666572204e4654000000000000000000000000000000000000000000000000602082015250565b6000610e9d602883610bd9565b9150610ea882610e41565b604082019050919050565b60006020820190508181036000830152610ecc81610e90565b9050919050565b6000606082019050610ee86000830186610da4565b610ef56020830185610b22565b610f026040830184610ac6565b949350505050565b60028110610f1b57610f1a610baa565b5b50565b6000819050610f2c82610f0a565b919050565b6000610f3c82610f1e565b9050919050565b610f4c81610f31565b82525050565b6000602082019050610f676000830184610f43565b92915050565b7f5468652041756374696f6e20697320616c7265616479206f70656e0000000000600082015250565b6000610fa3601b83610bd9565b9150610fae82610f6d565b602082019050919050565b60006020820190508181036000830152610fd281610f96565b9050919050565b7f4e487b7100000000000000000000000000000000000000000000000000000000600052601160045260246000fd5b600061101382610abc565b915061101e83610abc565b925082820390508181111561103657611035610fd9565b5b92915050565b7f4e487b7100000000000000000000000000000000000000000000000000000000600052603260045260246000fd5b600081905092915050565b50565b600061108660008361106b565b915061109182611076565b600082019050919050565b60006110a782611079565b9150819050919050565b60006110bc82610abc565b91507fffffffffffffffffffffffffffffffffffffffffffffffffffffffffffffffff82036110ee576110ed610fd9565b5b60018201905091905056fea26469706673582212201605aa4a3c3a523456c552d503731894da811f5466df00f5683a98efcfb2e4d064736f6c63430008110033",
					"opcodes": "PUSH1 0xC0 PUSH1 0x40 MSTORE CALLVALUE DUP1 ISZERO PUSH3 0x11 JUMPI PUSH1 0x0 DUP1 REVERT JUMPDEST POP PUSH1 0x40 MLOAD PUSH3 0x13D5 CODESIZE SUB DUP1 PUSH3 0x13D5 DUP4 CODECOPY DUP2 DUP2 ADD PUSH1 0x40 MSTORE DUP2 ADD SWAP1 PUSH3 0x37 SWAP2 SWAP1 PUSH3 0x1D8 JUMP JUMPDEST DUP4 PUSH1 0x1 PUSH1 0x0 PUSH2 0x100 EXP DUP2 SLOAD DUP2 PUSH20 0xFFFFFFFFFFFFFFFFFFFFFFFFFFFFFFFFFFFFFFFF MUL NOT AND SWAP1 DUP4 PUSH20 0xFFFFFFFFFFFFFFFFFFFFFFFFFFFFFFFFFFFFFFFF AND MUL OR SWAP1 SSTORE POP DUP3 PUSH1 0x2 DUP2 SWAP1 SSTORE POP DUP2 PUSH1 0x80 DUP2 DUP2 MSTORE POP POP DUP1 PUSH20 0xFFFFFFFFFFFFFFFFFFFFFFFFFFFFFFFFFFFFFFFF AND PUSH1 0xA0 DUP2 PUSH20 0xFFFFFFFFFFFFFFFFFFFFFFFFFFFFFFFFFFFFFFFF AND DUP2 MSTORE POP POP PUSH1 0x1 PUSH1 0x8 PUSH1 0x0 PUSH2 0x100 EXP DUP2 SLOAD DUP2 PUSH1 0xFF MUL NOT AND SWAP1 DUP4 PUSH1 0x1 DUP2 GT ISZERO PUSH3 0xE4 JUMPI PUSH3 0xE3 PUSH3 0x24A JUMP JUMPDEST JUMPDEST MUL OR SWAP1 SSTORE POP DUP1 PUSH1 0x0 DUP1 PUSH2 0x100 EXP DUP2 SLOAD DUP2 PUSH20 0xFFFFFFFFFFFFFFFFFFFFFFFFFFFFFFFFFFFFFFFF MUL NOT AND SWAP1 DUP4 PUSH20 0xFFFFFFFFFFFFFFFFFFFFFFFFFFFFFFFFFFFFFFFF AND MUL OR SWAP1 SSTORE POP POP POP POP POP PUSH3 0x279 JUMP JUMPDEST PUSH1 0x0 DUP1 REVERT JUMPDEST PUSH1 0x0 PUSH20 0xFFFFFFFFFFFFFFFFFFFFFFFFFFFFFFFFFFFFFFFF DUP3 AND SWAP1 POP SWAP2 SWAP1 POP JUMP JUMPDEST PUSH1 0x0 PUSH3 0x165 DUP3 PUSH3 0x138 JUMP JUMPDEST SWAP1 POP SWAP2 SWAP1 POP JUMP JUMPDEST PUSH3 0x177 DUP2 PUSH3 0x158 JUMP JUMPDEST DUP2 EQ PUSH3 0x183 JUMPI PUSH1 0x0 DUP1 REVERT JUMPDEST POP JUMP JUMPDEST PUSH1 0x0 DUP2 MLOAD SWAP1 POP PUSH3 0x197 DUP2 PUSH3 0x16C JUMP JUMPDEST SWAP3 SWAP2 POP POP JUMP JUMPDEST PUSH1 0x0 DUP2 SWAP1 POP SWAP2 SWAP1 POP JUMP JUMPDEST PUSH3 0x1B2 DUP2 PUSH3 0x19D JUMP JUMPDEST DUP2 EQ PUSH3 0x1BE JUMPI PUSH1 0x0 DUP1 REVERT JUMPDEST POP JUMP JUMPDEST PUSH1 0x0 DUP2 MLOAD SWAP1 POP PUSH3 0x1D2 DUP2 PUSH3 0x1A7 JUMP JUMPDEST SWAP3 SWAP2 POP POP JUMP JUMPDEST PUSH1 0x0 DUP1 PUSH1 0x0 DUP1 PUSH1 0x80 DUP6 DUP8 SUB SLT ISZERO PUSH3 0x1F5 JUMPI PUSH3 0x1F4 PUSH3 0x133 JUMP JUMPDEST JUMPDEST PUSH1 0x0 PUSH3 0x205 DUP8 DUP3 DUP9 ADD PUSH3 0x186 JUMP JUMPDEST SWAP5 POP POP PUSH1 0x20 PUSH3 0x218 DUP8 DUP3 DUP9 ADD PUSH3 0x1C1 JUMP JUMPDEST SWAP4 POP POP PUSH1 0x40 PUSH3 0x22B DUP8 DUP3 DUP9 ADD PUSH3 0x1C1 JUMP JUMPDEST SWAP3 POP POP PUSH1 0x60 PUSH3 0x23E DUP8 DUP3 DUP9 ADD PUSH3 0x186 JUMP JUMPDEST SWAP2 POP POP SWAP3 SWAP6 SWAP2 SWAP5 POP SWAP3 POP JUMP JUMPDEST PUSH32 0x4E487B7100000000000000000000000000000000000000000000000000000000 PUSH1 0x0 MSTORE PUSH1 0x21 PUSH1 0x4 MSTORE PUSH1 0x24 PUSH1 0x0 REVERT JUMPDEST PUSH1 0x80 MLOAD PUSH1 0xA0 MLOAD PUSH2 0x112F PUSH3 0x2A6 PUSH1 0x0 CODECOPY PUSH1 0x0 PUSH2 0x77C ADD MSTORE PUSH1 0x0 DUP2 DUP2 PUSH2 0x224 ADD MSTORE PUSH2 0x690 ADD MSTORE PUSH2 0x112F PUSH1 0x0 RETURN INVALID PUSH1 0x80 PUSH1 0x40 MSTORE PUSH1 0x4 CALLDATASIZE LT PUSH2 0x9C JUMPI PUSH1 0x0 CALLDATALOAD PUSH1 0xE0 SHR DUP1 PUSH4 0x6B64C769 GT PUSH2 0x64 JUMPI DUP1 PUSH4 0x6B64C769 EQ PUSH2 0x143 JUMPI DUP1 PUSH4 0x83197EF0 EQ PUSH2 0x15A JUMPI DUP1 PUSH4 0x91F90157 EQ PUSH2 0x164 JUMPI DUP1 PUSH4 0xB8DA82EA EQ PUSH2 0x18F JUMPI DUP1 PUSH4 0xD57BDE79 EQ PUSH2 0x1BA JUMPI DUP1 PUSH4 0xDC689504 EQ PUSH2 0x1E5 JUMPI PUSH2 0x9C JUMP JUMPDEST DUP1 PUSH4 0x17D70F7C EQ PUSH2 0xA1 JUMPI DUP1 PUSH4 0x1998AEEF EQ PUSH2 0xCC JUMPI DUP1 PUSH4 0x1D0806AE EQ PUSH2 0xD6 JUMPI DUP1 PUSH4 0x378252F2 EQ PUSH2 0x101 JUMPI DUP1 PUSH4 0x55A373D6 EQ PUSH2 0x118 JUMPI JUMPDEST PUSH1 0x0 DUP1 REVERT JUMPDEST CALLVALUE DUP1 ISZERO PUSH2 0xAD JUMPI PUSH1 0x0 DUP1 REVERT JUMPDEST POP PUSH2 0xB6 PUSH2 0x222 JUMP JUMPDEST PUSH1 0x40 MLOAD PUSH2 0xC3 SWAP2 SWAP1 PUSH2 0xAD5 JUMP JUMPDEST PUSH1 0x40 MLOAD DUP1 SWAP2 SUB SWAP1 RETURN JUMPDEST PUSH2 0xD4 PUSH2 0x246 JUMP JUMPDEST STOP JUMPDEST CALLVALUE DUP1 ISZERO PUSH2 0xE2 JUMPI PUSH1 0x0 DUP1 REVERT JUMPDEST POP PUSH2 0xEB PUSH2 0x384 JUMP JUMPDEST PUSH1 0x40 MLOAD PUSH2 0xF8 SWAP2 SWAP1 PUSH2 0xAD5 JUMP JUMPDEST PUSH1 0x40 MLOAD DUP1 SWAP2 SUB SWAP1 RETURN JUMPDEST CALLVALUE DUP1 ISZERO PUSH2 0x10D JUMPI PUSH1 0x0 DUP1 REVERT JUMPDEST POP PUSH2 0x116 PUSH2 0x38A JUMP JUMPDEST STOP JUMPDEST CALLVALUE DUP1 ISZERO PUSH2 0x124 JUMPI PUSH1 0x0 DUP1 REVERT JUMPDEST POP PUSH2 0x12D PUSH2 0x77A JUMP JUMPDEST PUSH1 0x40 MLOAD PUSH2 0x13A SWAP2 SWAP1 PUSH2 0xB31 JUMP JUMPDEST PUSH1 0x40 MLOAD DUP1 SWAP2 SUB SWAP1 RETURN JUMPDEST CALLVALUE DUP1 ISZERO PUSH2 0x14F JUMPI PUSH1 0x0 DUP1 REVERT JUMPDEST POP PUSH2 0x158 PUSH2 0x79E JUMP JUMPDEST STOP JUMPDEST PUSH2 0x162 PUSH2 0x916 JUMP JUMPDEST STOP JUMPDEST CALLVALUE DUP1 ISZERO PUSH2 0x170 JUMPI PUSH1 0x0 DUP1 REVERT JUMPDEST POP PUSH2 0x179 PUSH2 0x951 JUMP JUMPDEST PUSH1 0x40 MLOAD PUSH2 0x186 SWAP2 SWAP1 PUSH2 0xB31 JUMP JUMPDEST PUSH1 0x40 MLOAD DUP1 SWAP2 SUB SWAP1 RETURN JUMPDEST CALLVALUE DUP1 ISZERO PUSH2 0x19B JUMPI PUSH1 0x0 DUP1 REVERT JUMPDEST POP PUSH2 0x1A4 PUSH2 0x977 JUMP JUMPDEST PUSH1 0x40 MLOAD PUSH2 0x1B1 SWAP2 SWAP1 PUSH2 0xAD5 JUMP JUMPDEST PUSH1 0x40 MLOAD DUP1 SWAP2 SUB SWAP1 RETURN JUMPDEST CALLVALUE DUP1 ISZERO PUSH2 0x1C6 JUMPI PUSH1 0x0 DUP1 REVERT JUMPDEST POP PUSH2 0x1CF PUSH2 0x97D JUMP JUMPDEST PUSH1 0x40 MLOAD PUSH2 0x1DC SWAP2 SWAP1 PUSH2 0xAD5 JUMP JUMPDEST PUSH1 0x40 MLOAD DUP1 SWAP2 SUB SWAP1 RETURN JUMPDEST CALLVALUE DUP1 ISZERO PUSH2 0x1F1 JUMPI PUSH1 0x0 DUP1 REVERT JUMPDEST POP PUSH2 0x20C PUSH1 0x4 DUP1 CALLDATASIZE SUB DUP2 ADD SWAP1 PUSH2 0x207 SWAP2 SWAP1 PUSH2 0xB7D JUMP JUMPDEST PUSH2 0x983 JUMP JUMPDEST PUSH1 0x40 MLOAD PUSH2 0x219 SWAP2 SWAP1 PUSH2 0xB31 JUMP JUMPDEST PUSH1 0x40 MLOAD DUP1 SWAP2 SUB SWAP1 RETURN JUMPDEST PUSH32 0x0 DUP2 JUMP JUMPDEST PUSH1 0x0 PUSH1 0x1 DUP2 GT ISZERO PUSH2 0x25A JUMPI PUSH2 0x259 PUSH2 0xBAA JUMP JUMPDEST JUMPDEST PUSH1 0x8 PUSH1 0x0 SWAP1 SLOAD SWAP1 PUSH2 0x100 EXP SWAP1 DIV PUSH1 0xFF AND PUSH1 0x1 DUP2 GT ISZERO PUSH2 0x27C JUMPI PUSH2 0x27B PUSH2 0xBAA JUMP JUMPDEST JUMPDEST EQ PUSH2 0x2BC JUMPI PUSH1 0x40 MLOAD PUSH32 0x8C379A000000000000000000000000000000000000000000000000000000000 DUP2 MSTORE PUSH1 0x4 ADD PUSH2 0x2B3 SWAP1 PUSH2 0xC36 JUMP JUMPDEST PUSH1 0x40 MLOAD DUP1 SWAP2 SUB SWAP1 REVERT JUMPDEST PUSH1 0x4 SLOAD CALLVALUE GT PUSH2 0x300 JUMPI PUSH1 0x40 MLOAD PUSH32 0x8C379A000000000000000000000000000000000000000000000000000000000 DUP2 MSTORE PUSH1 0x4 ADD PUSH2 0x2F7 SWAP1 PUSH2 0xCA2 JUMP JUMPDEST PUSH1 0x40 MLOAD DUP1 SWAP2 SUB SWAP1 REVERT JUMPDEST CALLER PUSH1 0x6 PUSH1 0x0 CALLVALUE DUP2 MSTORE PUSH1 0x20 ADD SWAP1 DUP2 MSTORE PUSH1 0x20 ADD PUSH1 0x0 KECCAK256 PUSH1 0x0 PUSH2 0x100 EXP DUP2 SLOAD DUP2 PUSH20 0xFFFFFFFFFFFFFFFFFFFFFFFFFFFFFFFFFFFFFFFF MUL NOT AND SWAP1 DUP4 PUSH20 0xFFFFFFFFFFFFFFFFFFFFFFFFFFFFFFFFFFFFFFFF AND MUL OR SWAP1 SSTORE POP CALLVALUE PUSH1 0x4 DUP2 SWAP1 SSTORE POP PUSH1 0x7 CALLVALUE SWAP1 DUP1 PUSH1 0x1 DUP2 SLOAD ADD DUP1 DUP3 SSTORE DUP1 SWAP2 POP POP PUSH1 0x1 SWAP1 SUB SWAP1 PUSH1 0x0 MSTORE PUSH1 0x20 PUSH1 0x0 KECCAK256 ADD PUSH1 0x0 SWAP1 SWAP2 SWAP1 SWAP2 SWAP1 SWAP2 POP SSTORE JUMP JUMPDEST PUSH1 0x2 SLOAD DUP2 JUMP JUMPDEST PUSH1 0x1 PUSH1 0x0 SWAP1 SLOAD SWAP1 PUSH2 0x100 EXP SWAP1 DIV PUSH20 0xFFFFFFFFFFFFFFFFFFFFFFFFFFFFFFFFFFFFFFFF AND PUSH20 0xFFFFFFFFFFFFFFFFFFFFFFFFFFFFFFFFFFFFFFFF AND CALLER PUSH20 0xFFFFFFFFFFFFFFFFFFFFFFFFFFFFFFFFFFFFFFFF AND EQ PUSH2 0x41A JUMPI PUSH1 0x40 MLOAD PUSH32 0x8C379A000000000000000000000000000000000000000000000000000000000 DUP2 MSTORE PUSH1 0x4 ADD PUSH2 0x411 SWAP1 PUSH2 0xD34 JUMP JUMPDEST PUSH1 0x40 MLOAD DUP1 SWAP2 SUB SWAP1 REVERT JUMPDEST PUSH1 0x0 DUP1 SLOAD SWAP1 PUSH2 0x100 EXP SWAP1 DIV PUSH20 0xFFFFFFFFFFFFFFFFFFFFFFFFFFFFFFFFFFFFFFFF AND PUSH20 0xFFFFFFFFFFFFFFFFFFFFFFFFFFFFFFFFFFFFFFFF AND PUSH4 0xE985E9C5 PUSH1 0x1 PUSH1 0x0 SWAP1 SLOAD SWAP1 PUSH2 0x100 EXP SWAP1 DIV PUSH20 0xFFFFFFFFFFFFFFFFFFFFFFFFFFFFFFFFFFFFFFFF AND ADDRESS PUSH1 0x40 MLOAD DUP4 PUSH4 0xFFFFFFFF AND PUSH1 0xE0 SHL DUP2 MSTORE PUSH1 0x4 ADD PUSH2 0x497 SWAP3 SWAP2 SWAP1 PUSH2 0xDB3 JUMP JUMPDEST PUSH1 0x20 PUSH1 0x40 MLOAD DUP1 DUP4 SUB DUP2 DUP7 GAS STATICCALL ISZERO DUP1 ISZERO PUSH2 0x4B4 JUMPI RETURNDATASIZE PUSH1 0x0 DUP1 RETURNDATACOPY RETURNDATASIZE PUSH1 0x0 REVERT JUMPDEST POP POP POP POP PUSH1 0x40 MLOAD RETURNDATASIZE PUSH1 0x1F NOT PUSH1 0x1F DUP3 ADD AND DUP3 ADD DUP1 PUSH1 0x40 MSTORE POP DUP2 ADD SWAP1 PUSH2 0x4D8 SWAP2 SWAP1 PUSH2 0xE14 JUMP JUMPDEST PUSH2 0x517 JUMPI PUSH1 0x40 MLOAD PUSH32 0x8C379A000000000000000000000000000000000000000000000000000000000 DUP2 MSTORE PUSH1 0x4 ADD PUSH2 0x50E SWAP1 PUSH2 0xEB3 JUMP JUMPDEST PUSH1 0x40 MLOAD DUP1 SWAP2 SUB SWAP1 REVERT JUMPDEST PUSH1 0x0 PUSH1 0x1 DUP2 GT ISZERO PUSH2 0x52B JUMPI PUSH2 0x52A PUSH2 0xBAA JUMP JUMPDEST JUMPDEST PUSH1 0x8 PUSH1 0x0 SWAP1 SLOAD SWAP1 PUSH2 0x100 EXP SWAP1 DIV PUSH1 0xFF AND PUSH1 0x1 DUP2 GT ISZERO PUSH2 0x54D JUMPI PUSH2 0x54C PUSH2 0xBAA JUMP JUMPDEST JUMPDEST EQ PUSH2 0x58D JUMPI PUSH1 0x40 MLOAD PUSH32 0x8C379A000000000000000000000000000000000000000000000000000000000 DUP2 MSTORE PUSH1 0x4 ADD PUSH2 0x584 SWAP1 PUSH2 0xC36 JUMP JUMPDEST PUSH1 0x40 MLOAD DUP1 SWAP2 SUB SWAP1 REVERT JUMPDEST PUSH1 0x4 SLOAD PUSH1 0x3 DUP2 SWAP1 SSTORE POP PUSH1 0x6 PUSH1 0x0 PUSH1 0x4 SLOAD DUP2 MSTORE PUSH1 0x20 ADD SWAP1 DUP2 MSTORE PUSH1 0x20 ADD PUSH1 0x0 KECCAK256 PUSH1 0x0 SWAP1 SLOAD SWAP1 PUSH2 0x100 EXP SWAP1 DIV PUSH20 0xFFFFFFFFFFFFFFFFFFFFFFFFFFFFFFFFFFFFFFFF AND PUSH1 0x5 PUSH1 0x0 PUSH2 0x100 EXP DUP2 SLOAD DUP2 PUSH20 0xFFFFFFFFFFFFFFFFFFFFFFFFFFFFFFFFFFFFFFFF MUL NOT AND SWAP1 DUP4 PUSH20 0xFFFFFFFFFFFFFFFFFFFFFFFFFFFFFFFFFFFFFFFF AND MUL OR SWAP1 SSTORE POP PUSH1 0x0 DUP1 SLOAD SWAP1 PUSH2 0x100 EXP SWAP1 DIV PUSH20 0xFFFFFFFFFFFFFFFFFFFFFFFFFFFFFFFFFFFFFFFF AND PUSH20 0xFFFFFFFFFFFFFFFFFFFFFFFFFFFFFFFFFFFFFFFF AND PUSH4 0x23B872DD PUSH1 0x1 PUSH1 0x0 SWAP1 SLOAD SWAP1 PUSH2 0x100 EXP SWAP1 DIV PUSH20 0xFFFFFFFFFFFFFFFFFFFFFFFFFFFFFFFFFFFFFFFF AND PUSH1 0x5 PUSH1 0x0 SWAP1 SLOAD SWAP1 PUSH2 0x100 EXP SWAP1 DIV PUSH20 0xFFFFFFFFFFFFFFFFFFFFFFFFFFFFFFFFFFFFFFFF AND PUSH32 0x0 PUSH1 0x40 MLOAD DUP5 PUSH4 0xFFFFFFFF AND PUSH1 0xE0 SHL DUP2 MSTORE PUSH1 0x4 ADD PUSH2 0x6CD SWAP4 SWAP3 SWAP2 SWAP1 PUSH2 0xED3 JUMP JUMPDEST PUSH1 0x0 PUSH1 0x40 MLOAD DUP1 DUP4 SUB DUP2 PUSH1 0x0 DUP8 DUP1 EXTCODESIZE ISZERO DUP1 ISZERO PUSH2 0x6E7 JUMPI PUSH1 0x0 DUP1 REVERT JUMPDEST POP GAS CALL ISZERO DUP1 ISZERO PUSH2 0x6FB JUMPI RETURNDATASIZE PUSH1 0x0 DUP1 RETURNDATACOPY RETURNDATASIZE PUSH1 0x0 REVERT JUMPDEST POP POP POP POP PUSH2 0x707 PUSH2 0x9B6 JUMP JUMPDEST PUSH1 0x1 PUSH1 0x8 PUSH1 0x0 PUSH2 0x100 EXP DUP2 SLOAD DUP2 PUSH1 0xFF MUL NOT AND SWAP1 DUP4 PUSH1 0x1 DUP2 GT ISZERO PUSH2 0x72D JUMPI PUSH2 0x72C PUSH2 0xBAA JUMP JUMPDEST JUMPDEST MUL OR SWAP1 SSTORE POP PUSH32 0x8CAED3B4BF01375B22DC7F84AFE719CE12AB14864751A7D5E4142FE4E4A50A51 PUSH1 0x8 PUSH1 0x0 SWAP1 SLOAD SWAP1 PUSH2 0x100 EXP SWAP1 DIV PUSH1 0xFF AND PUSH1 0x40 MLOAD PUSH2 0x770 SWAP2 SWAP1 PUSH2 0xF52 JUMP JUMPDEST PUSH1 0x40 MLOAD DUP1 SWAP2 SUB SWAP1 LOG1 JUMP JUMPDEST PUSH32 0x0 DUP2 JUMP JUMPDEST PUSH1 0x1 PUSH1 0x0 SWAP1 SLOAD SWAP1 PUSH2 0x100 EXP SWAP1 DIV PUSH20 0xFFFFFFFFFFFFFFFFFFFFFFFFFFFFFFFFFFFFFFFF AND PUSH20 0xFFFFFFFFFFFFFFFFFFFFFFFFFFFFFFFFFFFFFFFF AND CALLER PUSH20 0xFFFFFFFFFFFFFFFFFFFFFFFFFFFFFFFFFFFFFFFF AND EQ PUSH2 0x82E JUMPI PUSH1 0x40 MLOAD PUSH32 0x8C379A000000000000000000000000000000000000000000000000000000000 DUP2 MSTORE PUSH1 0x4 ADD PUSH2 0x825 SWAP1 PUSH2 0xD34 JUMP JUMPDEST PUSH1 0x40 MLOAD DUP1 SWAP2 SUB SWAP1 REVERT JUMPDEST PUSH1 0x1 DUP1 DUP2 GT ISZERO PUSH2 0x841 JUMPI PUSH2 0x840 PUSH2 0xBAA JUMP JUMPDEST JUMPDEST PUSH1 0x8 PUSH1 0x0 SWAP1 SLOAD SWAP1 PUSH2 0x100 EXP SWAP1 DIV PUSH1 0xFF AND PUSH1 0x1 DUP2 GT ISZERO PUSH2 0x863 JUMPI PUSH2 0x862 PUSH2 0xBAA JUMP JUMPDEST JUMPDEST EQ PUSH2 0x8A3 JUMPI PUSH1 0x40 MLOAD PUSH32 0x8C379A000000000000000000000000000000000000000000000000000000000 DUP2 MSTORE PUSH1 0x4 ADD PUSH2 0x89A SWAP1 PUSH2 0xFB9 JUMP JUMPDEST PUSH1 0x40 MLOAD DUP1 SWAP2 SUB SWAP1 REVERT JUMPDEST PUSH1 0x0 PUSH1 0x8 PUSH1 0x0 PUSH2 0x100 EXP DUP2 SLOAD DUP2 PUSH1 0xFF MUL NOT AND SWAP1 DUP4 PUSH1 0x1 DUP2 GT ISZERO PUSH2 0x8C9 JUMPI PUSH2 0x8C8 PUSH2 0xBAA JUMP JUMPDEST JUMPDEST MUL OR SWAP1 SSTORE POP PUSH32 0x8CAED3B4BF01375B22DC7F84AFE719CE12AB14864751A7D5E4142FE4E4A50A51 PUSH1 0x8 PUSH1 0x0 SWAP1 SLOAD SWAP1 PUSH2 0x100 EXP SWAP1 DIV PUSH1 0xFF AND PUSH1 0x40 MLOAD PUSH2 0x90C SWAP2 SWAP1 PUSH2 0xF52 JUMP JUMPDEST PUSH1 0x40 MLOAD DUP1 SWAP2 SUB SWAP1 LOG1 JUMP JUMPDEST PUSH1 0x1 PUSH1 0x0 SWAP1 SLOAD SWAP1 PUSH2 0x100 EXP SWAP1 DIV PUSH20 0xFFFFFFFFFFFFFFFFFFFFFFFFFFFFFFFFFFFFFFFF AND PUSH20 0xFFFFFFFFFFFFFFFFFFFFFFFFFFFFFFFFFFFFFFFF AND SELFDESTRUCT JUMPDEST PUSH1 0x5 PUSH1 0x0 SWAP1 SLOAD SWAP1 PUSH2 0x100 EXP SWAP1 DIV PUSH20 0xFFFFFFFFFFFFFFFFFFFFFFFFFFFFFFFFFFFFFFFF AND DUP2 JUMP JUMPDEST PUSH1 0x4 SLOAD DUP2 JUMP JUMPDEST PUSH1 0x3 SLOAD DUP2 JUMP JUMPDEST PUSH1 0x6 PUSH1 0x20 MSTORE DUP1 PUSH1 0x0 MSTORE PUSH1 0x40 PUSH1 0x0 KECCAK256 PUSH1 0x0 SWAP2 POP SLOAD SWAP1 PUSH2 0x100 EXP SWAP1 DIV PUSH20 0xFFFFFFFFFFFFFFFFFFFFFFFFFFFFFFFFFFFFFFFF AND DUP2 JUMP JUMPDEST PUSH1 0x0 JUMPDEST PUSH1 0x1 PUSH1 0x7 DUP1 SLOAD SWAP1 POP PUSH2 0x9CB SWAP2 SWAP1 PUSH2 0x1008 JUMP JUMPDEST DUP2 LT ISZERO PUSH2 0xAB9 JUMPI PUSH1 0x0 PUSH1 0x7 DUP3 DUP2 SLOAD DUP2 LT PUSH2 0x9E8 JUMPI PUSH2 0x9E7 PUSH2 0x103C JUMP JUMPDEST JUMPDEST SWAP1 PUSH1 0x0 MSTORE PUSH1 0x20 PUSH1 0x0 KECCAK256 ADD SLOAD SWAP1 POP PUSH1 0x0 PUSH1 0x6 PUSH1 0x0 DUP4 DUP2 MSTORE PUSH1 0x20 ADD SWAP1 DUP2 MSTORE PUSH1 0x20 ADD PUSH1 0x0 KECCAK256 PUSH1 0x0 SWAP1 SLOAD SWAP1 PUSH2 0x100 EXP SWAP1 DIV PUSH20 0xFFFFFFFFFFFFFFFFFFFFFFFFFFFFFFFFFFFFFFFF AND SWAP1 POP PUSH1 0x0 DUP2 PUSH20 0xFFFFFFFFFFFFFFFFFFFFFFFFFFFFFFFFFFFFFFFF AND DUP4 PUSH1 0x40 MLOAD PUSH2 0xA53 SWAP1 PUSH2 0x109C JUMP JUMPDEST PUSH1 0x0 PUSH1 0x40 MLOAD DUP1 DUP4 SUB DUP2 DUP6 DUP8 GAS CALL SWAP3 POP POP POP RETURNDATASIZE DUP1 PUSH1 0x0 DUP2 EQ PUSH2 0xA90 JUMPI PUSH1 0x40 MLOAD SWAP2 POP PUSH1 0x1F NOT PUSH1 0x3F RETURNDATASIZE ADD AND DUP3 ADD PUSH1 0x40 MSTORE RETURNDATASIZE DUP3 MSTORE RETURNDATASIZE PUSH1 0x0 PUSH1 0x20 DUP5 ADD RETURNDATACOPY PUSH2 0xA95 JUMP JUMPDEST PUSH1 0x60 SWAP2 POP JUMPDEST POP POP SWAP1 POP DUP1 PUSH2 0xAA3 JUMPI PUSH1 0x0 DUP1 REVERT JUMPDEST POP POP POP DUP1 DUP1 PUSH2 0xAB1 SWAP1 PUSH2 0x10B1 JUMP JUMPDEST SWAP2 POP POP PUSH2 0x9B9 JUMP JUMPDEST POP JUMP JUMPDEST PUSH1 0x0 DUP2 SWAP1 POP SWAP2 SWAP1 POP JUMP JUMPDEST PUSH2 0xACF DUP2 PUSH2 0xABC JUMP JUMPDEST DUP3 MSTORE POP POP JUMP JUMPDEST PUSH1 0x0 PUSH1 0x20 DUP3 ADD SWAP1 POP PUSH2 0xAEA PUSH1 0x0 DUP4 ADD DUP5 PUSH2 0xAC6 JUMP JUMPDEST SWAP3 SWAP2 POP POP JUMP JUMPDEST PUSH1 0x0 PUSH20 0xFFFFFFFFFFFFFFFFFFFFFFFFFFFFFFFFFFFFFFFF DUP3 AND SWAP1 POP SWAP2 SWAP1 POP JUMP JUMPDEST PUSH1 0x0 PUSH2 0xB1B DUP3 PUSH2 0xAF0 JUMP JUMPDEST SWAP1 POP SWAP2 SWAP1 POP JUMP JUMPDEST PUSH2 0xB2B DUP2 PUSH2 0xB10 JUMP JUMPDEST DUP3 MSTORE POP POP JUMP JUMPDEST PUSH1 0x0 PUSH1 0x20 DUP3 ADD SWAP1 POP PUSH2 0xB46 PUSH1 0x0 DUP4 ADD DUP5 PUSH2 0xB22 JUMP JUMPDEST SWAP3 SWAP2 POP POP JUMP JUMPDEST PUSH1 0x0 DUP1 REVERT JUMPDEST PUSH2 0xB5A DUP2 PUSH2 0xABC JUMP JUMPDEST DUP2 EQ PUSH2 0xB65 JUMPI PUSH1 0x0 DUP1 REVERT JUMPDEST POP JUMP JUMPDEST PUSH1 0x0 DUP2 CALLDATALOAD SWAP1 POP PUSH2 0xB77 DUP2 PUSH2 0xB51 JUMP JUMPDEST SWAP3 SWAP2 POP POP JUMP JUMPDEST PUSH1 0x0 PUSH1 0x20 DUP3 DUP5 SUB SLT ISZERO PUSH2 0xB93 JUMPI PUSH2 0xB92 PUSH2 0xB4C JUMP JUMPDEST JUMPDEST PUSH1 0x0 PUSH2 0xBA1 DUP5 DUP3 DUP6 ADD PUSH2 0xB68 JUMP JUMPDEST SWAP2 POP POP SWAP3 SWAP2 POP POP JUMP JUMPDEST PUSH32 0x4E487B7100000000000000000000000000000000000000000000000000000000 PUSH1 0x0 MSTORE PUSH1 0x21 PUSH1 0x4 MSTORE PUSH1 0x24 PUSH1 0x0 REVERT JUMPDEST PUSH1 0x0 DUP3 DUP3 MSTORE PUSH1 0x20 DUP3 ADD SWAP1 POP SWAP3 SWAP2 POP POP JUMP JUMPDEST PUSH32 0x5468652041756374696F6E20697320616C726561647920636C6F736564000000 PUSH1 0x0 DUP3 ADD MSTORE POP JUMP JUMPDEST PUSH1 0x0 PUSH2 0xC20 PUSH1 0x1D DUP4 PUSH2 0xBD9 JUMP JUMPDEST SWAP2 POP PUSH2 0xC2B DUP3 PUSH2 0xBEA JUMP JUMPDEST PUSH1 0x20 DUP3 ADD SWAP1 POP SWAP2 SWAP1 POP JUMP JUMPDEST PUSH1 0x0 PUSH1 0x20 DUP3 ADD SWAP1 POP DUP2 DUP2 SUB PUSH1 0x0 DUP4 ADD MSTORE PUSH2 0xC4F DUP2 PUSH2 0xC13 JUMP JUMPDEST SWAP1 POP SWAP2 SWAP1 POP JUMP JUMPDEST PUSH32 0x596F752063616E277420626964206C6F77657200000000000000000000000000 PUSH1 0x0 DUP3 ADD MSTORE POP JUMP JUMPDEST PUSH1 0x0 PUSH2 0xC8C PUSH1 0x13 DUP4 PUSH2 0xBD9 JUMP JUMPDEST SWAP2 POP PUSH2 0xC97 DUP3 PUSH2 0xC56 JUMP JUMPDEST PUSH1 0x20 DUP3 ADD SWAP1 POP SWAP2 SWAP1 POP JUMP JUMPDEST PUSH1 0x0 PUSH1 0x20 DUP3 ADD SWAP1 POP DUP2 DUP2 SUB PUSH1 0x0 DUP4 ADD MSTORE PUSH2 0xCBB DUP2 PUSH2 0xC7F JUMP JUMPDEST SWAP1 POP SWAP2 SWAP1 POP JUMP JUMPDEST PUSH32 0x4F6E6C792074686520636F6E7472616374206F776E65722063616E2063616C6C PUSH1 0x0 DUP3 ADD MSTORE PUSH32 0x20746869732066756E6374696F6E000000000000000000000000000000000000 PUSH1 0x20 DUP3 ADD MSTORE POP JUMP JUMPDEST PUSH1 0x0 PUSH2 0xD1E PUSH1 0x2E DUP4 PUSH2 0xBD9 JUMP JUMPDEST SWAP2 POP PUSH2 0xD29 DUP3 PUSH2 0xCC2 JUMP JUMPDEST PUSH1 0x40 DUP3 ADD SWAP1 POP SWAP2 SWAP1 POP JUMP JUMPDEST PUSH1 0x0 PUSH1 0x20 DUP3 ADD SWAP1 POP DUP2 DUP2 SUB PUSH1 0x0 DUP4 ADD MSTORE PUSH2 0xD4D DUP2 PUSH2 0xD11 JUMP JUMPDEST SWAP1 POP SWAP2 SWAP1 POP JUMP JUMPDEST PUSH1 0x0 DUP2 SWAP1 POP SWAP2 SWAP1 POP JUMP JUMPDEST PUSH1 0x0 PUSH2 0xD79 PUSH2 0xD74 PUSH2 0xD6F DUP5 PUSH2 0xAF0 JUMP JUMPDEST PUSH2 0xD54 JUMP JUMPDEST PUSH2 0xAF0 JUMP JUMPDEST SWAP1 POP SWAP2 SWAP1 POP JUMP JUMPDEST PUSH1 0x0 PUSH2 0xD8B DUP3 PUSH2 0xD5E JUMP JUMPDEST SWAP1 POP SWAP2 SWAP1 POP JUMP JUMPDEST PUSH1 0x0 PUSH2 0xD9D DUP3 PUSH2 0xD80 JUMP JUMPDEST SWAP1 POP SWAP2 SWAP1 POP JUMP JUMPDEST PUSH2 0xDAD DUP2 PUSH2 0xD92 JUMP JUMPDEST DUP3 MSTORE POP POP JUMP JUMPDEST PUSH1 0x0 PUSH1 0x40 DUP3 ADD SWAP1 POP PUSH2 0xDC8 PUSH1 0x0 DUP4 ADD DUP6 PUSH2 0xDA4 JUMP JUMPDEST PUSH2 0xDD5 PUSH1 0x20 DUP4 ADD DUP5 PUSH2 0xB22 JUMP JUMPDEST SWAP4 SWAP3 POP POP POP JUMP JUMPDEST PUSH1 0x0 DUP2 ISZERO ISZERO SWAP1 POP SWAP2 SWAP1 POP JUMP JUMPDEST PUSH2 0xDF1 DUP2 PUSH2 0xDDC JUMP JUMPDEST DUP2 EQ PUSH2 0xDFC JUMPI PUSH1 0x0 DUP1 REVERT JUMPDEST POP JUMP JUMPDEST PUSH1 0x0 DUP2 MLOAD SWAP1 POP PUSH2 0xE0E DUP2 PUSH2 0xDE8 JUMP JUMPDEST SWAP3 SWAP2 POP POP JUMP JUMPDEST PUSH1 0x0 PUSH1 0x20 DUP3 DUP5 SUB SLT ISZERO PUSH2 0xE2A JUMPI PUSH2 0xE29 PUSH2 0xB4C JUMP JUMPDEST JUMPDEST PUSH1 0x0 PUSH2 0xE38 DUP5 DUP3 DUP6 ADD PUSH2 0xDFF JUMP JUMPDEST SWAP2 POP POP SWAP3 SWAP2 POP POP JUMP JUMPDEST PUSH32 0x436F6E7472616374206973206E6F7420617070726F76656420746F207472616E PUSH1 0x0 DUP3 ADD MSTORE PUSH32 0x73666572204E4654000000000000000000000000000000000000000000000000 PUSH1 0x20 DUP3 ADD MSTORE POP JUMP JUMPDEST PUSH1 0x0 PUSH2 0xE9D PUSH1 0x28 DUP4 PUSH2 0xBD9 JUMP JUMPDEST SWAP2 POP PUSH2 0xEA8 DUP3 PUSH2 0xE41 JUMP JUMPDEST PUSH1 0x40 DUP3 ADD SWAP1 POP SWAP2 SWAP1 POP JUMP JUMPDEST PUSH1 0x0 PUSH1 0x20 DUP3 ADD SWAP1 POP DUP2 DUP2 SUB PUSH1 0x0 DUP4 ADD MSTORE PUSH2 0xECC DUP2 PUSH2 0xE90 JUMP JUMPDEST SWAP1 POP SWAP2 SWAP1 POP JUMP JUMPDEST PUSH1 0x0 PUSH1 0x60 DUP3 ADD SWAP1 POP PUSH2 0xEE8 PUSH1 0x0 DUP4 ADD DUP7 PUSH2 0xDA4 JUMP JUMPDEST PUSH2 0xEF5 PUSH1 0x20 DUP4 ADD DUP6 PUSH2 0xB22 JUMP JUMPDEST PUSH2 0xF02 PUSH1 0x40 DUP4 ADD DUP5 PUSH2 0xAC6 JUMP JUMPDEST SWAP5 SWAP4 POP POP POP POP JUMP JUMPDEST PUSH1 0x2 DUP2 LT PUSH2 0xF1B JUMPI PUSH2 0xF1A PUSH2 0xBAA JUMP JUMPDEST JUMPDEST POP JUMP JUMPDEST PUSH1 0x0 DUP2 SWAP1 POP PUSH2 0xF2C DUP3 PUSH2 0xF0A JUMP JUMPDEST SWAP2 SWAP1 POP JUMP JUMPDEST PUSH1 0x0 PUSH2 0xF3C DUP3 PUSH2 0xF1E JUMP JUMPDEST SWAP1 POP SWAP2 SWAP1 POP JUMP JUMPDEST PUSH2 0xF4C DUP2 PUSH2 0xF31 JUMP JUMPDEST DUP3 MSTORE POP POP JUMP JUMPDEST PUSH1 0x0 PUSH1 0x20 DUP3 ADD SWAP1 POP PUSH2 0xF67 PUSH1 0x0 DUP4 ADD DUP5 PUSH2 0xF43 JUMP JUMPDEST SWAP3 SWAP2 POP POP JUMP JUMPDEST PUSH32 0x5468652041756374696F6E20697320616C7265616479206F70656E0000000000 PUSH1 0x0 DUP3 ADD MSTORE POP JUMP JUMPDEST PUSH1 0x0 PUSH2 0xFA3 PUSH1 0x1B DUP4 PUSH2 0xBD9 JUMP JUMPDEST SWAP2 POP PUSH2 0xFAE DUP3 PUSH2 0xF6D JUMP JUMPDEST PUSH1 0x20 DUP3 ADD SWAP1 POP SWAP2 SWAP1 POP JUMP JUMPDEST PUSH1 0x0 PUSH1 0x20 DUP3 ADD SWAP1 POP DUP2 DUP2 SUB PUSH1 0x0 DUP4 ADD MSTORE PUSH2 0xFD2 DUP2 PUSH2 0xF96 JUMP JUMPDEST SWAP1 POP SWAP2 SWAP1 POP JUMP JUMPDEST PUSH32 0x4E487B7100000000000000000000000000000000000000000000000000000000 PUSH1 0x0 MSTORE PUSH1 0x11 PUSH1 0x4 MSTORE PUSH1 0x24 PUSH1 0x0 REVERT JUMPDEST PUSH1 0x0 PUSH2 0x1013 DUP3 PUSH2 0xABC JUMP JUMPDEST SWAP2 POP PUSH2 0x101E DUP4 PUSH2 0xABC JUMP JUMPDEST SWAP3 POP DUP3 DUP3 SUB SWAP1 POP DUP2 DUP2 GT ISZERO PUSH2 0x1036 JUMPI PUSH2 0x1035 PUSH2 0xFD9 JUMP JUMPDEST JUMPDEST SWAP3 SWAP2 POP POP JUMP JUMPDEST PUSH32 0x4E487B7100000000000000000000000000000000000000000000000000000000 PUSH1 0x0 MSTORE PUSH1 0x32 PUSH1 0x4 MSTORE PUSH1 0x24 PUSH1 0x0 REVERT JUMPDEST PUSH1 0x0 DUP2 SWAP1 POP SWAP3 SWAP2 POP POP JUMP JUMPDEST POP JUMP JUMPDEST PUSH1 0x0 PUSH2 0x1086 PUSH1 0x0 DUP4 PUSH2 0x106B JUMP JUMPDEST SWAP2 POP PUSH2 0x1091 DUP3 PUSH2 0x1076 JUMP JUMPDEST PUSH1 0x0 DUP3 ADD SWAP1 POP SWAP2 SWAP1 POP JUMP JUMPDEST PUSH1 0x0 PUSH2 0x10A7 DUP3 PUSH2 0x1079 JUMP JUMPDEST SWAP2 POP DUP2 SWAP1 POP SWAP2 SWAP1 POP JUMP JUMPDEST PUSH1 0x0 PUSH2 0x10BC DUP3 PUSH2 0xABC JUMP JUMPDEST SWAP2 POP PUSH32 0xFFFFFFFFFFFFFFFFFFFFFFFFFFFFFFFFFFFFFFFFFFFFFFFFFFFFFFFFFFFFFFFF DUP3 SUB PUSH2 0x10EE JUMPI PUSH2 0x10ED PUSH2 0xFD9 JUMP JUMPDEST JUMPDEST PUSH1 0x1 DUP3 ADD SWAP1 POP SWAP2 SWAP1 POP JUMP INVALID LOG2 PUSH5 0x6970667358 0x22 SLT KECCAK256 AND SDIV 0xAA 0x4A EXTCODECOPY GASPRICE MSTORE CALLVALUE JUMP 0xC5 MSTORE 0xD5 SUB PUSH20 0x1894DA811F5466DF00F5683A98EFCFB2E4D06473 PUSH16 0x6C634300081100330000000000000000 "
				},
				"gasEstimates": {
					"creation": {
						"codeDepositCost": "879800",
						"executionCost": "infinite",
						"totalCost": "infinite"
					},
					"external": {
						"bid()": "97354",
						"bidsRegister(uint256)": "2949",
						"closeAuction()": "infinite",
						"currentBidPrice()": "2495",
						"destroy()": "29878",
						"highestBid()": "2517",
						"highestBidder()": "2558",
						"initialPrice()": "2474",
						"startAuction()": "32234",
						"tokenContract()": "infinite",
						"tokenId()": "infinite"
					},
					"internal": {
						"batchTransfer()": "infinite"
					}
				},
				"methodIdentifiers": {
					"bid()": "1998aeef",
					"bidsRegister(uint256)": "dc689504",
					"closeAuction()": "378252f2",
					"currentBidPrice()": "b8da82ea",
					"destroy()": "83197ef0",
					"highestBid()": "d57bde79",
					"highestBidder()": "91f90157",
					"initialPrice()": "1d0806ae",
					"startAuction()": "6b64c769",
					"tokenContract()": "55a373d6",
					"tokenId()": "17d70f7c"
				}
			},
			"storageLayout": {
				"storage": [
					{
						"astId": 133,
						"contract": "contracts/Auction_1.sol:NFTAuction",
						"label": "NFTContract",
						"offset": 0,
						"slot": "0",
						"type": "t_contract(IERC721)115"
					},
					{
						"astId": 135,
						"contract": "contracts/Auction_1.sol:NFTAuction",
						"label": "auctioneer",
						"offset": 0,
						"slot": "1",
						"type": "t_address_payable"
					},
					{
						"astId": 137,
						"contract": "contracts/Auction_1.sol:NFTAuction",
						"label": "initialPrice",
						"offset": 0,
						"slot": "2",
						"type": "t_uint256"
					},
					{
						"astId": 139,
						"contract": "contracts/Auction_1.sol:NFTAuction",
						"label": "highestBid",
						"offset": 0,
						"slot": "3",
						"type": "t_uint256"
					},
					{
						"astId": 141,
						"contract": "contracts/Auction_1.sol:NFTAuction",
						"label": "currentBidPrice",
						"offset": 0,
						"slot": "4",
						"type": "t_uint256"
					},
					{
						"astId": 143,
						"contract": "contracts/Auction_1.sol:NFTAuction",
						"label": "highestBidder",
						"offset": 0,
						"slot": "5",
						"type": "t_address"
					},
					{
						"astId": 151,
						"contract": "contracts/Auction_1.sol:NFTAuction",
						"label": "bidsRegister",
						"offset": 0,
						"slot": "6",
						"type": "t_mapping(t_uint256,t_address)"
					},
					{
						"astId": 154,
						"contract": "contracts/Auction_1.sol:NFTAuction",
						"label": "amounts",
						"offset": 0,
						"slot": "7",
						"type": "t_array(t_uint256)dyn_storage"
					},
					{
						"astId": 160,
						"contract": "contracts/Auction_1.sol:NFTAuction",
						"label": "status",
						"offset": 0,
						"slot": "8",
						"type": "t_enum(AuctionStatus)157"
					}
				],
				"types": {
					"t_address": {
						"encoding": "inplace",
						"label": "address",
						"numberOfBytes": "20"
					},
					"t_address_payable": {
						"encoding": "inplace",
						"label": "address payable",
						"numberOfBytes": "20"
					},
					"t_array(t_uint256)dyn_storage": {
						"base": "t_uint256",
						"encoding": "dynamic_array",
						"label": "uint256[]",
						"numberOfBytes": "32"
					},
					"t_contract(IERC721)115": {
						"encoding": "inplace",
						"label": "contract IERC721",
						"numberOfBytes": "20"
					},
					"t_enum(AuctionStatus)157": {
						"encoding": "inplace",
						"label": "enum NFTAuction.AuctionStatus",
						"numberOfBytes": "1"
					},
					"t_mapping(t_uint256,t_address)": {
						"encoding": "mapping",
						"key": "t_uint256",
						"label": "mapping(uint256 => address)",
						"numberOfBytes": "32",
						"value": "t_address"
					},
					"t_uint256": {
						"encoding": "inplace",
						"label": "uint256",
						"numberOfBytes": "32"
					}
				}
			},
			"userdoc": {
				"kind": "user",
				"methods": {},
				"version": 1
			}
		}
	}
}