{
	"contracts/Pool.sol": {
		"Pool": {
			"abi": [
				{
					"inputs": [
						{
							"internalType": "address",
							"name": "_token0",
							"type": "address"
						},
						{
							"internalType": "address",
							"name": "_token1",
							"type": "address"
						},
						{
							"internalType": "address",
							"name": "_ltrAddress",
							"type": "address"
						}
					],
					"stateMutability": "nonpayable",
					"type": "constructor"
				},
				{
					"anonymous": false,
					"inputs": [
						{
							"indexed": false,
							"internalType": "address",
							"name": "_liquidityProvider",
							"type": "address"
						},
						{
							"indexed": false,
							"internalType": "uint256",
							"name": "_shares",
							"type": "uint256"
						}
					],
					"name": "liquidityProvided",
					"type": "event"
				},
				{
					"inputs": [
						{
							"internalType": "uint256",
							"name": "_amount1",
							"type": "uint256"
						}
					],
					"name": "get0",
					"outputs": [],
					"stateMutability": "nonpayable",
					"type": "function"
				},
				{
					"inputs": [
						{
							"internalType": "uint256",
							"name": "_amount0",
							"type": "uint256"
						}
					],
					"name": "get1",
					"outputs": [],
					"stateMutability": "nonpayable",
					"type": "function"
				},
				{
					"inputs": [],
					"name": "kLast",
					"outputs": [
						{
							"internalType": "uint256",
							"name": "",
							"type": "uint256"
						}
					],
					"stateMutability": "view",
					"type": "function"
				},
				{
					"inputs": [],
					"name": "ltrAddress",
					"outputs": [
						{
							"internalType": "address",
							"name": "",
							"type": "address"
						}
					],
					"stateMutability": "view",
					"type": "function"
				},
				{
					"inputs": [],
					"name": "price0",
					"outputs": [
						{
							"internalType": "uint256",
							"name": "",
							"type": "uint256"
						}
					],
					"stateMutability": "view",
					"type": "function"
				},
				{
					"inputs": [],
					"name": "price1",
					"outputs": [
						{
							"internalType": "uint256",
							"name": "",
							"type": "uint256"
						}
					],
					"stateMutability": "view",
					"type": "function"
				},
				{
					"inputs": [
						{
							"internalType": "uint256",
							"name": "_amount0",
							"type": "uint256"
						},
						{
							"internalType": "uint256",
							"name": "_amount1",
							"type": "uint256"
						}
					],
					"name": "provideLiquidity",
					"outputs": [],
					"stateMutability": "nonpayable",
					"type": "function"
				},
				{
					"inputs": [],
					"name": "reserve0",
					"outputs": [
						{
							"internalType": "uint256",
							"name": "",
							"type": "uint256"
						}
					],
					"stateMutability": "view",
					"type": "function"
				},
				{
					"inputs": [],
					"name": "reserve1",
					"outputs": [
						{
							"internalType": "uint256",
							"name": "",
							"type": "uint256"
						}
					],
					"stateMutability": "view",
					"type": "function"
				},
				{
					"inputs": [],
					"name": "token0",
					"outputs": [
						{
							"internalType": "address",
							"name": "",
							"type": "address"
						}
					],
					"stateMutability": "view",
					"type": "function"
				},
				{
					"inputs": [],
					"name": "token1",
					"outputs": [
						{
							"internalType": "address",
							"name": "",
							"type": "address"
						}
					],
					"stateMutability": "view",
					"type": "function"
				}
			],
			"devdoc": {
				"kind": "dev",
				"methods": {},
				"version": 1
			},
			"evm": {
				"assembly": "    /* \"contracts/Pool.sol\":224:2666  contract Pool {... */\n  mstore(0x40, 0xe0)\n    /* \"contracts/Pool.sol\":573:733  constructor(address _token0, address _token1, address _ltrAddress) {... */\n  callvalue\n  dup1\n  iszero\n  tag_1\n  jumpi\n  0x00\n  dup1\n  revert\ntag_1:\n  pop\n  mload(0x40)\n  sub(codesize, bytecodeSize)\n  dup1\n  bytecodeSize\n  dup4\n  codecopy\n  dup2\n  dup2\n  add\n  0x40\n  mstore\n  dup2\n  add\n  swap1\n  tag_2\n  swap2\n  swap1\n  tag_3\n  jump\t// in\ntag_2:\n    /* \"contracts/Pool.sol\":659:666  _token0 */\n  dup3\n    /* \"contracts/Pool.sol\":650:666  token0 = _token0 */\n  0xffffffffffffffffffffffffffffffffffffffff\n  and\n  0x80\n  dup2\n  0xffffffffffffffffffffffffffffffffffffffff\n  and\n  0x60\n  shl\n  dup2\n  mstore\n  pop\n  pop\n    /* \"contracts/Pool.sol\":685:692  _token1 */\n  dup2\n    /* \"contracts/Pool.sol\":676:692  token1 = _token1 */\n  0xffffffffffffffffffffffffffffffffffffffff\n  and\n  0xa0\n  dup2\n  0xffffffffffffffffffffffffffffffffffffffff\n  and\n  0x60\n  shl\n  dup2\n  mstore\n  pop\n  pop\n    /* \"contracts/Pool.sol\":715:726  _ltrAddress */\n  dup1\n    /* \"contracts/Pool.sol\":702:726  ltrAddress = _ltrAddress */\n  0xffffffffffffffffffffffffffffffffffffffff\n  and\n  0xc0\n  dup2\n  0xffffffffffffffffffffffffffffffffffffffff\n  and\n  0x60\n  shl\n  dup2\n  mstore\n  pop\n  pop\n    /* \"contracts/Pool.sol\":573:733  constructor(address _token0, address _token1, address _ltrAddress) {... */\n  pop\n  pop\n  pop\n    /* \"contracts/Pool.sol\":224:2666  contract Pool {... */\n  jump(tag_6)\n    /* \"#utility.yul\":7:150   */\ntag_8:\n    /* \"#utility.yul\":64:69   */\n  0x00\n    /* \"#utility.yul\":95:101   */\n  dup2\n    /* \"#utility.yul\":89:102   */\n  mload\n    /* \"#utility.yul\":80:102   */\n  swap1\n  pop\n    /* \"#utility.yul\":111:144   */\n  tag_10\n    /* \"#utility.yul\":138:143   */\n  dup2\n    /* \"#utility.yul\":111:144   */\n  tag_11\n  jump\t// in\ntag_10:\n    /* \"#utility.yul\":7:150   */\n  swap3\n  swap2\n  pop\n  pop\n  jump\t// out\n    /* \"#utility.yul\":156:819   */\ntag_3:\n    /* \"#utility.yul\":244:250   */\n  0x00\n    /* \"#utility.yul\":252:258   */\n  dup1\n    /* \"#utility.yul\":260:266   */\n  0x00\n    /* \"#utility.yul\":309:311   */\n  0x60\n    /* \"#utility.yul\":297:306   */\n  dup5\n    /* \"#utility.yul\":288:295   */\n  dup7\n    /* \"#utility.yul\":284:307   */\n  sub\n    /* \"#utility.yul\":280:312   */\n  slt\n    /* \"#utility.yul\":277:396   */\n  iszero\n  tag_13\n  jumpi\n    /* \"#utility.yul\":315:394   */\n  tag_14\n  tag_15\n  jump\t// in\ntag_14:\n    /* \"#utility.yul\":277:396   */\ntag_13:\n    /* \"#utility.yul\":435:436   */\n  0x00\n    /* \"#utility.yul\":460:524   */\n  tag_16\n    /* \"#utility.yul\":516:523   */\n  dup7\n    /* \"#utility.yul\":507:513   */\n  dup3\n    /* \"#utility.yul\":496:505   */\n  dup8\n    /* \"#utility.yul\":492:514   */\n  add\n    /* \"#utility.yul\":460:524   */\n  tag_8\n  jump\t// in\ntag_16:\n    /* \"#utility.yul\":450:524   */\n  swap4\n  pop\n    /* \"#utility.yul\":406:534   */\n  pop\n    /* \"#utility.yul\":573:575   */\n  0x20\n    /* \"#utility.yul\":599:663   */\n  tag_17\n    /* \"#utility.yul\":655:662   */\n  dup7\n    /* \"#utility.yul\":646:652   */\n  dup3\n    /* \"#utility.yul\":635:644   */\n  dup8\n    /* \"#utility.yul\":631:653   */\n  add\n    /* \"#utility.yul\":599:663   */\n  tag_8\n  jump\t// in\ntag_17:\n    /* \"#utility.yul\":589:663   */\n  swap3\n  pop\n    /* \"#utility.yul\":544:673   */\n  pop\n    /* \"#utility.yul\":712:714   */\n  0x40\n    /* \"#utility.yul\":738:802   */\n  tag_18\n    /* \"#utility.yul\":794:801   */\n  dup7\n    /* \"#utility.yul\":785:791   */\n  dup3\n    /* \"#utility.yul\":774:783   */\n  dup8\n    /* \"#utility.yul\":770:792   */\n  add\n    /* \"#utility.yul\":738:802   */\n  tag_8\n  jump\t// in\ntag_18:\n    /* \"#utility.yul\":728:802   */\n  swap2\n  pop\n    /* \"#utility.yul\":683:812   */\n  pop\n    /* \"#utility.yul\":156:819   */\n  swap3\n  pop\n  swap3\n  pop\n  swap3\n  jump\t// out\n    /* \"#utility.yul\":906:1002   */\ntag_21:\n    /* \"#utility.yul\":943:950   */\n  0x00\n    /* \"#utility.yul\":972:996   */\n  tag_23\n    /* \"#utility.yul\":990:995   */\n  dup3\n    /* \"#utility.yul\":972:996   */\n  tag_24\n  jump\t// in\ntag_23:\n    /* \"#utility.yul\":961:996   */\n  swap1\n  pop\n    /* \"#utility.yul\":906:1002   */\n  swap2\n  swap1\n  pop\n  jump\t// out\n    /* \"#utility.yul\":1008:1134   */\ntag_24:\n    /* \"#utility.yul\":1045:1052   */\n  0x00\n    /* \"#utility.yul\":1085:1127   */\n  0xffffffffffffffffffffffffffffffffffffffff\n    /* \"#utility.yul\":1078:1083   */\n  dup3\n    /* \"#utility.yul\":1074:1128   */\n  and\n    /* \"#utility.yul\":1063:1128   */\n  swap1\n  pop\n    /* \"#utility.yul\":1008:1134   */\n  swap2\n  swap1\n  pop\n  jump\t// out\n    /* \"#utility.yul\":1263:1380   */\ntag_15:\n    /* \"#utility.yul\":1372:1373   */\n  0x00\n    /* \"#utility.yul\":1369:1370   */\n  dup1\n    /* \"#utility.yul\":1362:1374   */\n  revert\n    /* \"#utility.yul\":1386:1508   */\ntag_11:\n    /* \"#utility.yul\":1459:1483   */\n  tag_30\n    /* \"#utility.yul\":1477:1482   */\n  dup2\n    /* \"#utility.yul\":1459:1483   */\n  tag_21\n  jump\t// in\ntag_30:\n    /* \"#utility.yul\":1452:1457   */\n  dup2\n    /* \"#utility.yul\":1449:1484   */\n  eq\n    /* \"#utility.yul\":1439:1502   */\n  tag_31\n  jumpi\n    /* \"#utility.yul\":1498:1499   */\n  0x00\n    /* \"#utility.yul\":1495:1496   */\n  dup1\n    /* \"#utility.yul\":1488:1500   */\n  revert\n    /* \"#utility.yul\":1439:1502   */\ntag_31:\n    /* \"#utility.yul\":1386:1508   */\n  pop\n  jump\t// out\n    /* \"contracts/Pool.sol\":224:2666  contract Pool {... */\ntag_6:\n  shr(0x60, mload(0x80))\n  shr(0x60, mload(0xa0))\n  shr(0x60, mload(0xc0))\n  codecopy(0x00, dataOffset(sub_0), dataSize(sub_0))\n  0x00\n  assignImmutable(\"0xd76482dbf35305fc91ee39a65e61582d738cabad2061a7d338ce335afa2bb483\")\n  0x00\n  assignImmutable(\"0x8568f76a03b01e78020c34eaf7d99444bdfcfc02740b9216953e88c42652898d\")\n  0x00\n  assignImmutable(\"0x7c4b9619c581b88a141b2eb4807c7231fe75a5bedaa863d4150e3dabc19d88ab\")\n  return(0x00, dataSize(sub_0))\nstop\n\nsub_0: assembly {\n        /* \"contracts/Pool.sol\":224:2666  contract Pool {... */\n      mstore(0x40, 0x80)\n      callvalue\n      dup1\n      iszero\n      tag_1\n      jumpi\n      0x00\n      dup1\n      revert\n    tag_1:\n      pop\n      jumpi(tag_2, lt(calldatasize, 0x04))\n      shr(0xe0, calldataload(0x00))\n      dup1\n      0x7464fc3d\n      gt\n      tag_14\n      jumpi\n      dup1\n      0x7464fc3d\n      eq\n      tag_8\n      jumpi\n      dup1\n      0x7a16af7f\n      eq\n      tag_9\n      jumpi\n      dup1\n      0x9c117f0f\n      eq\n      tag_10\n      jumpi\n      dup1\n      0xa0a986f1\n      eq\n      tag_11\n      jumpi\n      dup1\n      0xba9c6845\n      eq\n      tag_12\n      jumpi\n      dup1\n      0xd21220a7\n      eq\n      tag_13\n      jumpi\n      jump(tag_2)\n    tag_14:\n      dup1\n      0x0dfe1681\n      eq\n      tag_3\n      jumpi\n      dup1\n      0x2af4ec36\n      eq\n      tag_4\n      jumpi\n      dup1\n      0x443cb4bc\n      eq\n      tag_5\n      jumpi\n      dup1\n      0x5a76f25e\n      eq\n      tag_6\n      jumpi\n      dup1\n      0x6caf25ce\n      eq\n      tag_7\n      jumpi\n    tag_2:\n      0x00\n      dup1\n      revert\n        /* \"contracts/Pool.sol\":244:275  address public immutable token0 */\n    tag_3:\n      tag_15\n      tag_16\n      jump\t// in\n    tag_15:\n      mload(0x40)\n      tag_17\n      swap2\n      swap1\n      tag_18\n      jump\t// in\n    tag_17:\n      mload(0x40)\n      dup1\n      swap2\n      sub\n      swap1\n      return\n        /* \"contracts/Pool.sol\":1691:2144  function get0(uint256 _amount1) public {... */\n    tag_4:\n      tag_19\n      0x04\n      dup1\n      calldatasize\n      sub\n      dup2\n      add\n      swap1\n      tag_20\n      swap2\n      swap1\n      tag_21\n      jump\t// in\n    tag_20:\n      tag_22\n      jump\t// in\n    tag_19:\n      stop\n        /* \"contracts/Pool.sol\":385:408  uint256 public reserve0 */\n    tag_5:\n      tag_23\n      tag_24\n      jump\t// in\n    tag_23:\n      mload(0x40)\n      tag_25\n      swap2\n      swap1\n      tag_26\n      jump\t// in\n    tag_25:\n      mload(0x40)\n      dup1\n      swap2\n      sub\n      swap1\n      return\n        /* \"contracts/Pool.sol\":414:437  uint256 public reserve1 */\n    tag_6:\n      tag_27\n      tag_28\n      jump\t// in\n    tag_27:\n      mload(0x40)\n      tag_29\n      swap2\n      swap1\n      tag_26\n      jump\t// in\n    tag_29:\n      mload(0x40)\n      dup1\n      swap2\n      sub\n      swap1\n      return\n        /* \"contracts/Pool.sol\":470:491  uint256 public price1 */\n    tag_7:\n      tag_30\n      tag_31\n      jump\t// in\n    tag_30:\n      mload(0x40)\n      tag_32\n      swap2\n      swap1\n      tag_26\n      jump\t// in\n    tag_32:\n      mload(0x40)\n      dup1\n      swap2\n      sub\n      swap1\n      return\n        /* \"contracts/Pool.sol\":359:379  uint256 public kLast */\n    tag_8:\n      tag_33\n      tag_34\n      jump\t// in\n    tag_33:\n      mload(0x40)\n      tag_35\n      swap2\n      swap1\n      tag_26\n      jump\t// in\n    tag_35:\n      mload(0x40)\n      dup1\n      swap2\n      sub\n      swap1\n      return\n        /* \"contracts/Pool.sol\":976:1685  function provideLiquidity(uint256 _amount0, uint256 _amount1) external {... */\n    tag_9:\n      tag_36\n      0x04\n      dup1\n      calldatasize\n      sub\n      dup2\n      add\n      swap1\n      tag_37\n      swap2\n      swap1\n      tag_38\n      jump\t// in\n    tag_37:\n      tag_39\n      jump\t// in\n    tag_36:\n      stop\n        /* \"contracts/Pool.sol\":2150:2603  function get1(uint256 _amount0) public {... */\n    tag_10:\n      tag_40\n      0x04\n      dup1\n      calldatasize\n      sub\n      dup2\n      add\n      swap1\n      tag_41\n      swap2\n      swap1\n      tag_21\n      jump\t// in\n    tag_41:\n      tag_42\n      jump\t// in\n    tag_40:\n      stop\n        /* \"contracts/Pool.sol\":443:464  uint256 public price0 */\n    tag_11:\n      tag_43\n      tag_44\n      jump\t// in\n    tag_43:\n      mload(0x40)\n      tag_45\n      swap2\n      swap1\n      tag_26\n      jump\t// in\n    tag_45:\n      mload(0x40)\n      dup1\n      swap2\n      sub\n      swap1\n      return\n        /* \"contracts/Pool.sol\":318:353  address public immutable ltrAddress */\n    tag_12:\n      tag_46\n      tag_47\n      jump\t// in\n    tag_46:\n      mload(0x40)\n      tag_48\n      swap2\n      swap1\n      tag_18\n      jump\t// in\n    tag_48:\n      mload(0x40)\n      dup1\n      swap2\n      sub\n      swap1\n      return\n        /* \"contracts/Pool.sol\":281:312  address public immutable token1 */\n    tag_13:\n      tag_49\n      tag_50\n      jump\t// in\n    tag_49:\n      mload(0x40)\n      tag_51\n      swap2\n      swap1\n      tag_18\n      jump\t// in\n    tag_51:\n      mload(0x40)\n      dup1\n      swap2\n      sub\n      swap1\n      return\n        /* \"contracts/Pool.sol\":244:275  address public immutable token0 */\n    tag_16:\n      immutable(\"0x7c4b9619c581b88a141b2eb4807c7231fe75a5bedaa863d4150e3dabc19d88ab\")\n      dup2\n      jump\t// out\n        /* \"contracts/Pool.sol\":1691:2144  function get0(uint256 _amount1) public {... */\n    tag_22:\n        /* \"contracts/Pool.sol\":1803:1811  _amount1 */\n      dup1\n        /* \"contracts/Pool.sol\":1755:1761  token1 */\n      immutable(\"0x8568f76a03b01e78020c34eaf7d99444bdfcfc02740b9216953e88c42652898d\")\n        /* \"contracts/Pool.sol\":1748:1772  IERC20(token1).allowance */\n      0xffffffffffffffffffffffffffffffffffffffff\n      and\n      0xdd62ed3e\n        /* \"contracts/Pool.sol\":1773:1783  msg.sender */\n      caller\n        /* \"contracts/Pool.sol\":1793:1797  this */\n      address\n        /* \"contracts/Pool.sol\":1748:1799  IERC20(token1).allowance(msg.sender, address(this)) */\n      mload(0x40)\n      dup4\n      0xffffffff\n      and\n      0xe0\n      shl\n      dup2\n      mstore\n      0x04\n      add\n      tag_53\n      swap3\n      swap2\n      swap1\n      tag_54\n      jump\t// in\n    tag_53:\n      0x20\n      mload(0x40)\n      dup1\n      dup4\n      sub\n      dup2\n      dup7\n      dup1\n      extcodesize\n      iszero\n      dup1\n      iszero\n      tag_55\n      jumpi\n      0x00\n      dup1\n      revert\n    tag_55:\n      pop\n      gas\n      staticcall\n      iszero\n      dup1\n      iszero\n      tag_57\n      jumpi\n      returndatasize\n      0x00\n      dup1\n      returndatacopy\n      revert(0x00, returndatasize)\n    tag_57:\n      pop\n      pop\n      pop\n      pop\n      mload(0x40)\n      returndatasize\n      not(0x1f)\n      0x1f\n      dup3\n      add\n      and\n      dup3\n      add\n      dup1\n      0x40\n      mstore\n      pop\n      dup2\n      add\n      swap1\n      tag_58\n      swap2\n      swap1\n      tag_59\n      jump\t// in\n    tag_58:\n        /* \"contracts/Pool.sol\":1748:1811  IERC20(token1).allowance(msg.sender, address(this)) >= _amount1 */\n      lt\n      iszero\n        /* \"contracts/Pool.sol\":1740:1837  require(IERC20(token1).allowance(msg.sender, address(this)) >= _amount1, \"Contract not approved\") */\n      tag_60\n      jumpi\n      mload(0x40)\n      0x08c379a000000000000000000000000000000000000000000000000000000000\n      dup2\n      mstore\n      0x04\n      add\n      tag_61\n      swap1\n      tag_62\n      jump\t// in\n    tag_61:\n      mload(0x40)\n      dup1\n      swap2\n      sub\n      swap1\n      revert\n    tag_60:\n        /* \"contracts/Pool.sol\":1854:1860  token1 */\n      immutable(\"0x8568f76a03b01e78020c34eaf7d99444bdfcfc02740b9216953e88c42652898d\")\n        /* \"contracts/Pool.sol\":1847:1874  IERC20(token1).transferFrom */\n      0xffffffffffffffffffffffffffffffffffffffff\n      and\n      0x23b872dd\n        /* \"contracts/Pool.sol\":1875:1885  msg.sender */\n      caller\n        /* \"contracts/Pool.sol\":1895:1899  this */\n      address\n        /* \"contracts/Pool.sol\":1902:1910  _amount1 */\n      dup5\n        /* \"contracts/Pool.sol\":1847:1911  IERC20(token1).transferFrom(msg.sender, address(this), _amount1) */\n      mload(0x40)\n      dup5\n      0xffffffff\n      and\n      0xe0\n      shl\n      dup2\n      mstore\n      0x04\n      add\n      tag_63\n      swap4\n      swap3\n      swap2\n      swap1\n      tag_64\n      jump\t// in\n    tag_63:\n      0x20\n      mload(0x40)\n      dup1\n      dup4\n      sub\n      dup2\n      0x00\n      dup8\n      dup1\n      extcodesize\n      iszero\n      dup1\n      iszero\n      tag_65\n      jumpi\n      0x00\n      dup1\n      revert\n    tag_65:\n      pop\n      gas\n      call\n      iszero\n      dup1\n      iszero\n      tag_67\n      jumpi\n      returndatasize\n      0x00\n      dup1\n      returndatacopy\n      revert(0x00, returndatasize)\n    tag_67:\n      pop\n      pop\n      pop\n      pop\n      mload(0x40)\n      returndatasize\n      not(0x1f)\n      0x1f\n      dup3\n      add\n      and\n      dup3\n      add\n      dup1\n      0x40\n      mstore\n      pop\n      dup2\n      add\n      swap1\n      tag_68\n      swap2\n      swap1\n      tag_69\n      jump\t// in\n    tag_68:\n      pop\n        /* \"contracts/Pool.sol\":1921:1938  uint256 amountOut */\n      0x00\n        /* \"contracts/Pool.sol\":1964:1972  reserve1 */\n      sload(0x02)\n        /* \"contracts/Pool.sol\":1953:1961  reserve0 */\n      sload(0x01)\n        /* \"contracts/Pool.sol\":1953:1972  reserve0 / reserve1 */\n      tag_70\n      swap2\n      swap1\n      tag_71\n      jump\t// in\n    tag_70:\n        /* \"contracts/Pool.sol\":1941:1949  _amount1 */\n      dup3\n        /* \"contracts/Pool.sol\":1941:1973  _amount1 * (reserve0 / reserve1) */\n      tag_72\n      swap2\n      swap1\n      tag_73\n      jump\t// in\n    tag_72:\n        /* \"contracts/Pool.sol\":1921:1973  uint256 amountOut = _amount1 * (reserve0 / reserve1) */\n      swap1\n      pop\n        /* \"contracts/Pool.sol\":1999:2008  amountOut */\n      dup1\n        /* \"contracts/Pool.sol\":1987:1995  reserve0 */\n      sload(0x01)\n        /* \"contracts/Pool.sol\":1987:2008  reserve0 <= amountOut */\n      gt\n        /* \"contracts/Pool.sol\":1983:2119  if (reserve0 <= amountOut) {... */\n      tag_74\n      jumpi\n        /* \"contracts/Pool.sol\":2024:2032  revert() */\n      0x00\n      dup1\n      revert\n        /* \"contracts/Pool.sol\":1983:2119  if (reserve0 <= amountOut) {... */\n    tag_74:\n        /* \"contracts/Pool.sol\":2069:2075  token0 */\n      immutable(\"0x7c4b9619c581b88a141b2eb4807c7231fe75a5bedaa863d4150e3dabc19d88ab\")\n        /* \"contracts/Pool.sol\":2062:2085  IERC20(token0).transfer */\n      0xffffffffffffffffffffffffffffffffffffffff\n      and\n      0xa9059cbb\n        /* \"contracts/Pool.sol\":2086:2096  msg.sender */\n      caller\n        /* \"contracts/Pool.sol\":2098:2107  amountOut */\n      dup4\n        /* \"contracts/Pool.sol\":2062:2108  IERC20(token0).transfer(msg.sender, amountOut) */\n      mload(0x40)\n      dup4\n      0xffffffff\n      and\n      0xe0\n      shl\n      dup2\n      mstore\n      0x04\n      add\n      tag_76\n      swap3\n      swap2\n      swap1\n      tag_77\n      jump\t// in\n    tag_76:\n      0x20\n      mload(0x40)\n      dup1\n      dup4\n      sub\n      dup2\n      0x00\n      dup8\n      dup1\n      extcodesize\n      iszero\n      dup1\n      iszero\n      tag_78\n      jumpi\n      0x00\n      dup1\n      revert\n    tag_78:\n      pop\n      gas\n      call\n      iszero\n      dup1\n      iszero\n      tag_80\n      jumpi\n      returndatasize\n      0x00\n      dup1\n      returndatacopy\n      revert(0x00, returndatasize)\n    tag_80:\n      pop\n      pop\n      pop\n      pop\n      mload(0x40)\n      returndatasize\n      not(0x1f)\n      0x1f\n      dup3\n      add\n      and\n      dup3\n      add\n      dup1\n      0x40\n      mstore\n      pop\n      dup2\n      add\n      swap1\n      tag_81\n      swap2\n      swap1\n      tag_69\n      jump\t// in\n    tag_81:\n      pop\n        /* \"contracts/Pool.sol\":2129:2137  update() */\n      tag_82\n        /* \"contracts/Pool.sol\":2129:2135  update */\n      tag_83\n        /* \"contracts/Pool.sol\":2129:2137  update() */\n      jump\t// in\n    tag_82:\n        /* \"contracts/Pool.sol\":1730:2144  {... */\n      pop\n        /* \"contracts/Pool.sol\":1691:2144  function get0(uint256 _amount1) public {... */\n      pop\n      jump\t// out\n        /* \"contracts/Pool.sol\":385:408  uint256 public reserve0 */\n    tag_24:\n      sload(0x01)\n      dup2\n      jump\t// out\n        /* \"contracts/Pool.sol\":414:437  uint256 public reserve1 */\n    tag_28:\n      sload(0x02)\n      dup2\n      jump\t// out\n        /* \"contracts/Pool.sol\":470:491  uint256 public price1 */\n    tag_31:\n      sload(0x04)\n      dup2\n      jump\t// out\n        /* \"contracts/Pool.sol\":359:379  uint256 public kLast */\n    tag_34:\n      sload(0x00)\n      dup2\n      jump\t// out\n        /* \"contracts/Pool.sol\":976:1685  function provideLiquidity(uint256 _amount0, uint256 _amount1) external {... */\n    tag_39:\n        /* \"contracts/Pool.sol\":1120:1128  _amount0 */\n      dup2\n        /* \"contracts/Pool.sol\":1072:1078  token0 */\n      immutable(\"0x7c4b9619c581b88a141b2eb4807c7231fe75a5bedaa863d4150e3dabc19d88ab\")\n        /* \"contracts/Pool.sol\":1065:1089  IERC20(token0).allowance */\n      0xffffffffffffffffffffffffffffffffffffffff\n      and\n      0xdd62ed3e\n        /* \"contracts/Pool.sol\":1090:1100  msg.sender */\n      caller\n        /* \"contracts/Pool.sol\":1110:1114  this */\n      address\n        /* \"contracts/Pool.sol\":1065:1116  IERC20(token0).allowance(msg.sender, address(this)) */\n      mload(0x40)\n      dup4\n      0xffffffff\n      and\n      0xe0\n      shl\n      dup2\n      mstore\n      0x04\n      add\n      tag_85\n      swap3\n      swap2\n      swap1\n      tag_54\n      jump\t// in\n    tag_85:\n      0x20\n      mload(0x40)\n      dup1\n      dup4\n      sub\n      dup2\n      dup7\n      dup1\n      extcodesize\n      iszero\n      dup1\n      iszero\n      tag_86\n      jumpi\n      0x00\n      dup1\n      revert\n    tag_86:\n      pop\n      gas\n      staticcall\n      iszero\n      dup1\n      iszero\n      tag_88\n      jumpi\n      returndatasize\n      0x00\n      dup1\n      returndatacopy\n      revert(0x00, returndatasize)\n    tag_88:\n      pop\n      pop\n      pop\n      pop\n      mload(0x40)\n      returndatasize\n      not(0x1f)\n      0x1f\n      dup3\n      add\n      and\n      dup3\n      add\n      dup1\n      0x40\n      mstore\n      pop\n      dup2\n      add\n      swap1\n      tag_89\n      swap2\n      swap1\n      tag_59\n      jump\t// in\n    tag_89:\n        /* \"contracts/Pool.sol\":1065:1128  IERC20(token0).allowance(msg.sender, address(this)) >= _amount0 */\n      lt\n      iszero\n        /* \"contracts/Pool.sol\":1057:1154  require(IERC20(token0).allowance(msg.sender, address(this)) >= _amount0, \"Contract not approved\") */\n      tag_90\n      jumpi\n      mload(0x40)\n      0x08c379a000000000000000000000000000000000000000000000000000000000\n      dup2\n      mstore\n      0x04\n      add\n      tag_91\n      swap1\n      tag_62\n      jump\t// in\n    tag_91:\n      mload(0x40)\n      dup1\n      swap2\n      sub\n      swap1\n      revert\n    tag_90:\n        /* \"contracts/Pool.sol\":1227:1235  _amount1 */\n      dup1\n        /* \"contracts/Pool.sol\":1179:1185  token1 */\n      immutable(\"0x8568f76a03b01e78020c34eaf7d99444bdfcfc02740b9216953e88c42652898d\")\n        /* \"contracts/Pool.sol\":1172:1196  IERC20(token1).allowance */\n      0xffffffffffffffffffffffffffffffffffffffff\n      and\n      0xdd62ed3e\n        /* \"contracts/Pool.sol\":1197:1207  msg.sender */\n      caller\n        /* \"contracts/Pool.sol\":1217:1221  this */\n      address\n        /* \"contracts/Pool.sol\":1172:1223  IERC20(token1).allowance(msg.sender, address(this)) */\n      mload(0x40)\n      dup4\n      0xffffffff\n      and\n      0xe0\n      shl\n      dup2\n      mstore\n      0x04\n      add\n      tag_92\n      swap3\n      swap2\n      swap1\n      tag_54\n      jump\t// in\n    tag_92:\n      0x20\n      mload(0x40)\n      dup1\n      dup4\n      sub\n      dup2\n      dup7\n      dup1\n      extcodesize\n      iszero\n      dup1\n      iszero\n      tag_93\n      jumpi\n      0x00\n      dup1\n      revert\n    tag_93:\n      pop\n      gas\n      staticcall\n      iszero\n      dup1\n      iszero\n      tag_95\n      jumpi\n      returndatasize\n      0x00\n      dup1\n      returndatacopy\n      revert(0x00, returndatasize)\n    tag_95:\n      pop\n      pop\n      pop\n      pop\n      mload(0x40)\n      returndatasize\n      not(0x1f)\n      0x1f\n      dup3\n      add\n      and\n      dup3\n      add\n      dup1\n      0x40\n      mstore\n      pop\n      dup2\n      add\n      swap1\n      tag_96\n      swap2\n      swap1\n      tag_59\n      jump\t// in\n    tag_96:\n        /* \"contracts/Pool.sol\":1172:1235  IERC20(token1).allowance(msg.sender, address(this)) >= _amount1 */\n      lt\n      iszero\n        /* \"contracts/Pool.sol\":1164:1261  require(IERC20(token1).allowance(msg.sender, address(this)) >= _amount1, \"Contract not approved\") */\n      tag_97\n      jumpi\n      mload(0x40)\n      0x08c379a000000000000000000000000000000000000000000000000000000000\n      dup2\n      mstore\n      0x04\n      add\n      tag_98\n      swap1\n      tag_62\n      jump\t// in\n    tag_98:\n      mload(0x40)\n      dup1\n      swap2\n      sub\n      swap1\n      revert\n    tag_97:\n        /* \"contracts/Pool.sol\":1278:1284  token0 */\n      immutable(\"0x7c4b9619c581b88a141b2eb4807c7231fe75a5bedaa863d4150e3dabc19d88ab\")\n        /* \"contracts/Pool.sol\":1271:1298  IERC20(token0).transferFrom */\n      0xffffffffffffffffffffffffffffffffffffffff\n      and\n      0x23b872dd\n        /* \"contracts/Pool.sol\":1299:1309  msg.sender */\n      caller\n        /* \"contracts/Pool.sol\":1319:1323  this */\n      address\n        /* \"contracts/Pool.sol\":1326:1334  _amount0 */\n      dup6\n        /* \"contracts/Pool.sol\":1271:1335  IERC20(token0).transferFrom(msg.sender, address(this), _amount0) */\n      mload(0x40)\n      dup5\n      0xffffffff\n      and\n      0xe0\n      shl\n      dup2\n      mstore\n      0x04\n      add\n      tag_99\n      swap4\n      swap3\n      swap2\n      swap1\n      tag_64\n      jump\t// in\n    tag_99:\n      0x20\n      mload(0x40)\n      dup1\n      dup4\n      sub\n      dup2\n      0x00\n      dup8\n      dup1\n      extcodesize\n      iszero\n      dup1\n      iszero\n      tag_100\n      jumpi\n      0x00\n      dup1\n      revert\n    tag_100:\n      pop\n      gas\n      call\n      iszero\n      dup1\n      iszero\n      tag_102\n      jumpi\n      returndatasize\n      0x00\n      dup1\n      returndatacopy\n      revert(0x00, returndatasize)\n    tag_102:\n      pop\n      pop\n      pop\n      pop\n      mload(0x40)\n      returndatasize\n      not(0x1f)\n      0x1f\n      dup3\n      add\n      and\n      dup3\n      add\n      dup1\n      0x40\n      mstore\n      pop\n      dup2\n      add\n      swap1\n      tag_103\n      swap2\n      swap1\n      tag_69\n      jump\t// in\n    tag_103:\n      pop\n        /* \"contracts/Pool.sol\":1352:1358  token1 */\n      immutable(\"0x8568f76a03b01e78020c34eaf7d99444bdfcfc02740b9216953e88c42652898d\")\n        /* \"contracts/Pool.sol\":1345:1372  IERC20(token1).transferFrom */\n      0xffffffffffffffffffffffffffffffffffffffff\n      and\n      0x23b872dd\n        /* \"contracts/Pool.sol\":1373:1383  msg.sender */\n      caller\n        /* \"contracts/Pool.sol\":1393:1397  this */\n      address\n        /* \"contracts/Pool.sol\":1400:1408  _amount1 */\n      dup5\n        /* \"contracts/Pool.sol\":1345:1409  IERC20(token1).transferFrom(msg.sender, address(this), _amount1) */\n      mload(0x40)\n      dup5\n      0xffffffff\n      and\n      0xe0\n      shl\n      dup2\n      mstore\n      0x04\n      add\n      tag_104\n      swap4\n      swap3\n      swap2\n      swap1\n      tag_64\n      jump\t// in\n    tag_104:\n      0x20\n      mload(0x40)\n      dup1\n      dup4\n      sub\n      dup2\n      0x00\n      dup8\n      dup1\n      extcodesize\n      iszero\n      dup1\n      iszero\n      tag_105\n      jumpi\n      0x00\n      dup1\n      revert\n    tag_105:\n      pop\n      gas\n      call\n      iszero\n      dup1\n      iszero\n      tag_107\n      jumpi\n      returndatasize\n      0x00\n      dup1\n      returndatacopy\n      revert(0x00, returndatasize)\n    tag_107:\n      pop\n      pop\n      pop\n      pop\n      mload(0x40)\n      returndatasize\n      not(0x1f)\n      0x1f\n      dup3\n      add\n      and\n      dup3\n      add\n      dup1\n      0x40\n      mstore\n      pop\n      dup2\n      add\n      swap1\n      tag_108\n      swap2\n      swap1\n      tag_69\n      jump\t// in\n    tag_108:\n      pop\n        /* \"contracts/Pool.sol\":1476:1482  token1 */\n      immutable(\"0x8568f76a03b01e78020c34eaf7d99444bdfcfc02740b9216953e88c42652898d\")\n        /* \"contracts/Pool.sol\":1469:1493  IERC20(token1).balanceOf */\n      0xffffffffffffffffffffffffffffffffffffffff\n      and\n      0x70a08231\n        /* \"contracts/Pool.sol\":1502:1506  this */\n      address\n        /* \"contracts/Pool.sol\":1469:1508  IERC20(token1).balanceOf(address(this)) */\n      mload(0x40)\n      dup3\n      0xffffffff\n      and\n      0xe0\n      shl\n      dup2\n      mstore\n      0x04\n      add\n      tag_109\n      swap2\n      swap1\n      tag_18\n      jump\t// in\n    tag_109:\n      0x20\n      mload(0x40)\n      dup1\n      dup4\n      sub\n      dup2\n      dup7\n      dup1\n      extcodesize\n      iszero\n      dup1\n      iszero\n      tag_110\n      jumpi\n      0x00\n      dup1\n      revert\n    tag_110:\n      pop\n      gas\n      staticcall\n      iszero\n      dup1\n      iszero\n      tag_112\n      jumpi\n      returndatasize\n      0x00\n      dup1\n      returndatacopy\n      revert(0x00, returndatasize)\n    tag_112:\n      pop\n      pop\n      pop\n      pop\n      mload(0x40)\n      returndatasize\n      not(0x1f)\n      0x1f\n      dup3\n      add\n      and\n      dup3\n      add\n      dup1\n      0x40\n      mstore\n      pop\n      dup2\n      add\n      swap1\n      tag_113\n      swap2\n      swap1\n      tag_59\n      jump\t// in\n    tag_113:\n        /* \"contracts/Pool.sol\":1434:1440  token0 */\n      immutable(\"0x7c4b9619c581b88a141b2eb4807c7231fe75a5bedaa863d4150e3dabc19d88ab\")\n        /* \"contracts/Pool.sol\":1427:1451  IERC20(token0).balanceOf */\n      0xffffffffffffffffffffffffffffffffffffffff\n      and\n      0x70a08231\n        /* \"contracts/Pool.sol\":1460:1464  this */\n      address\n        /* \"contracts/Pool.sol\":1427:1466  IERC20(token0).balanceOf(address(this)) */\n      mload(0x40)\n      dup3\n      0xffffffff\n      and\n      0xe0\n      shl\n      dup2\n      mstore\n      0x04\n      add\n      tag_114\n      swap2\n      swap1\n      tag_18\n      jump\t// in\n    tag_114:\n      0x20\n      mload(0x40)\n      dup1\n      dup4\n      sub\n      dup2\n      dup7\n      dup1\n      extcodesize\n      iszero\n      dup1\n      iszero\n      tag_115\n      jumpi\n      0x00\n      dup1\n      revert\n    tag_115:\n      pop\n      gas\n      staticcall\n      iszero\n      dup1\n      iszero\n      tag_117\n      jumpi\n      returndatasize\n      0x00\n      dup1\n      returndatacopy\n      revert(0x00, returndatasize)\n    tag_117:\n      pop\n      pop\n      pop\n      pop\n      mload(0x40)\n      returndatasize\n      not(0x1f)\n      0x1f\n      dup3\n      add\n      and\n      dup3\n      add\n      dup1\n      0x40\n      mstore\n      pop\n      dup2\n      add\n      swap1\n      tag_118\n      swap2\n      swap1\n      tag_59\n      jump\t// in\n    tag_118:\n        /* \"contracts/Pool.sol\":1427:1508  IERC20(token0).balanceOf(address(this)) * IERC20(token1).balanceOf(address(this)) */\n      tag_119\n      swap2\n      swap1\n      tag_73\n      jump\t// in\n    tag_119:\n        /* \"contracts/Pool.sol\":1419:1424  kLast */\n      0x00\n        /* \"contracts/Pool.sol\":1419:1508  kLast = IERC20(token0).balanceOf(address(this)) * IERC20(token1).balanceOf(address(this)) */\n      dup2\n      swap1\n      sstore\n      pop\n        /* \"contracts/Pool.sol\":1518:1532  uint256 shares */\n      0x00\n        /* \"contracts/Pool.sol\":1535:1551  Math.sqrt(kLast) */\n      tag_120\n        /* \"contracts/Pool.sol\":1545:1550  kLast */\n      sload(0x00)\n        /* \"contracts/Pool.sol\":1535:1544  Math.sqrt */\n      tag_121\n        /* \"contracts/Pool.sol\":1535:1551  Math.sqrt(kLast) */\n      jump\t// in\n    tag_120:\n        /* \"contracts/Pool.sol\":1518:1551  uint256 shares = Math.sqrt(kLast) */\n      swap1\n      pop\n        /* \"contracts/Pool.sol\":1568:1578  ltrAddress */\n      immutable(\"0xd76482dbf35305fc91ee39a65e61582d738cabad2061a7d338ce335afa2bb483\")\n        /* \"contracts/Pool.sol\":1561:1588  IERC20(ltrAddress).transfer */\n      0xffffffffffffffffffffffffffffffffffffffff\n      and\n      0xa9059cbb\n        /* \"contracts/Pool.sol\":1589:1599  msg.sender */\n      caller\n        /* \"contracts/Pool.sol\":1601:1607  shares */\n      dup4\n        /* \"contracts/Pool.sol\":1561:1608  IERC20(ltrAddress).transfer(msg.sender, shares) */\n      mload(0x40)\n      dup4\n      0xffffffff\n      and\n      0xe0\n      shl\n      dup2\n      mstore\n      0x04\n      add\n      tag_122\n      swap3\n      swap2\n      swap1\n      tag_77\n      jump\t// in\n    tag_122:\n      0x20\n      mload(0x40)\n      dup1\n      dup4\n      sub\n      dup2\n      0x00\n      dup8\n      dup1\n      extcodesize\n      iszero\n      dup1\n      iszero\n      tag_123\n      jumpi\n      0x00\n      dup1\n      revert\n    tag_123:\n      pop\n      gas\n      call\n      iszero\n      dup1\n      iszero\n      tag_125\n      jumpi\n      returndatasize\n      0x00\n      dup1\n      returndatacopy\n      revert(0x00, returndatasize)\n    tag_125:\n      pop\n      pop\n      pop\n      pop\n      mload(0x40)\n      returndatasize\n      not(0x1f)\n      0x1f\n      dup3\n      add\n      and\n      dup3\n      add\n      dup1\n      0x40\n      mstore\n      pop\n      dup2\n      add\n      swap1\n      tag_126\n      swap2\n      swap1\n      tag_69\n      jump\t// in\n    tag_126:\n      pop\n        /* \"contracts/Pool.sol\":1618:1626  update() */\n      tag_127\n        /* \"contracts/Pool.sol\":1618:1624  update */\n      tag_83\n        /* \"contracts/Pool.sol\":1618:1626  update() */\n      jump\t// in\n    tag_127:\n        /* \"contracts/Pool.sol\":1641:1678  liquidityProvided(msg.sender, shares) */\n      0xb62268a18d99fe191ac8e62f823ab1eec698609a81b2c8de3dac902896b09da6\n        /* \"contracts/Pool.sol\":1659:1669  msg.sender */\n      caller\n        /* \"contracts/Pool.sol\":1671:1677  shares */\n      dup3\n        /* \"contracts/Pool.sol\":1641:1678  liquidityProvided(msg.sender, shares) */\n      mload(0x40)\n      tag_128\n      swap3\n      swap2\n      swap1\n      tag_77\n      jump\t// in\n    tag_128:\n      mload(0x40)\n      dup1\n      swap2\n      sub\n      swap1\n      log1\n        /* \"contracts/Pool.sol\":1047:1685  {... */\n      pop\n        /* \"contracts/Pool.sol\":976:1685  function provideLiquidity(uint256 _amount0, uint256 _amount1) external {... */\n      pop\n      pop\n      jump\t// out\n        /* \"contracts/Pool.sol\":2150:2603  function get1(uint256 _amount0) public {... */\n    tag_42:\n        /* \"contracts/Pool.sol\":2262:2270  _amount0 */\n      dup1\n        /* \"contracts/Pool.sol\":2214:2220  token0 */\n      immutable(\"0x7c4b9619c581b88a141b2eb4807c7231fe75a5bedaa863d4150e3dabc19d88ab\")\n        /* \"contracts/Pool.sol\":2207:2231  IERC20(token0).allowance */\n      0xffffffffffffffffffffffffffffffffffffffff\n      and\n      0xdd62ed3e\n        /* \"contracts/Pool.sol\":2232:2242  msg.sender */\n      caller\n        /* \"contracts/Pool.sol\":2252:2256  this */\n      address\n        /* \"contracts/Pool.sol\":2207:2258  IERC20(token0).allowance(msg.sender, address(this)) */\n      mload(0x40)\n      dup4\n      0xffffffff\n      and\n      0xe0\n      shl\n      dup2\n      mstore\n      0x04\n      add\n      tag_130\n      swap3\n      swap2\n      swap1\n      tag_54\n      jump\t// in\n    tag_130:\n      0x20\n      mload(0x40)\n      dup1\n      dup4\n      sub\n      dup2\n      dup7\n      dup1\n      extcodesize\n      iszero\n      dup1\n      iszero\n      tag_131\n      jumpi\n      0x00\n      dup1\n      revert\n    tag_131:\n      pop\n      gas\n      staticcall\n      iszero\n      dup1\n      iszero\n      tag_133\n      jumpi\n      returndatasize\n      0x00\n      dup1\n      returndatacopy\n      revert(0x00, returndatasize)\n    tag_133:\n      pop\n      pop\n      pop\n      pop\n      mload(0x40)\n      returndatasize\n      not(0x1f)\n      0x1f\n      dup3\n      add\n      and\n      dup3\n      add\n      dup1\n      0x40\n      mstore\n      pop\n      dup2\n      add\n      swap1\n      tag_134\n      swap2\n      swap1\n      tag_59\n      jump\t// in\n    tag_134:\n        /* \"contracts/Pool.sol\":2207:2270  IERC20(token0).allowance(msg.sender, address(this)) >= _amount0 */\n      lt\n      iszero\n        /* \"contracts/Pool.sol\":2199:2296  require(IERC20(token0).allowance(msg.sender, address(this)) >= _amount0, \"Contract not approved\") */\n      tag_135\n      jumpi\n      mload(0x40)\n      0x08c379a000000000000000000000000000000000000000000000000000000000\n      dup2\n      mstore\n      0x04\n      add\n      tag_136\n      swap1\n      tag_62\n      jump\t// in\n    tag_136:\n      mload(0x40)\n      dup1\n      swap2\n      sub\n      swap1\n      revert\n    tag_135:\n        /* \"contracts/Pool.sol\":2313:2319  token0 */\n      immutable(\"0x7c4b9619c581b88a141b2eb4807c7231fe75a5bedaa863d4150e3dabc19d88ab\")\n        /* \"contracts/Pool.sol\":2306:2333  IERC20(token0).transferFrom */\n      0xffffffffffffffffffffffffffffffffffffffff\n      and\n      0x23b872dd\n        /* \"contracts/Pool.sol\":2334:2344  msg.sender */\n      caller\n        /* \"contracts/Pool.sol\":2354:2358  this */\n      address\n        /* \"contracts/Pool.sol\":2361:2369  _amount0 */\n      dup5\n        /* \"contracts/Pool.sol\":2306:2370  IERC20(token0).transferFrom(msg.sender, address(this), _amount0) */\n      mload(0x40)\n      dup5\n      0xffffffff\n      and\n      0xe0\n      shl\n      dup2\n      mstore\n      0x04\n      add\n      tag_137\n      swap4\n      swap3\n      swap2\n      swap1\n      tag_64\n      jump\t// in\n    tag_137:\n      0x20\n      mload(0x40)\n      dup1\n      dup4\n      sub\n      dup2\n      0x00\n      dup8\n      dup1\n      extcodesize\n      iszero\n      dup1\n      iszero\n      tag_138\n      jumpi\n      0x00\n      dup1\n      revert\n    tag_138:\n      pop\n      gas\n      call\n      iszero\n      dup1\n      iszero\n      tag_140\n      jumpi\n      returndatasize\n      0x00\n      dup1\n      returndatacopy\n      revert(0x00, returndatasize)\n    tag_140:\n      pop\n      pop\n      pop\n      pop\n      mload(0x40)\n      returndatasize\n      not(0x1f)\n      0x1f\n      dup3\n      add\n      and\n      dup3\n      add\n      dup1\n      0x40\n      mstore\n      pop\n      dup2\n      add\n      swap1\n      tag_141\n      swap2\n      swap1\n      tag_69\n      jump\t// in\n    tag_141:\n      pop\n        /* \"contracts/Pool.sol\":2380:2397  uint256 amountOut */\n      0x00\n        /* \"contracts/Pool.sol\":2423:2431  reserve0 */\n      sload(0x01)\n        /* \"contracts/Pool.sol\":2412:2420  reserve1 */\n      sload(0x02)\n        /* \"contracts/Pool.sol\":2412:2431  reserve1 / reserve0 */\n      tag_142\n      swap2\n      swap1\n      tag_71\n      jump\t// in\n    tag_142:\n        /* \"contracts/Pool.sol\":2400:2408  _amount0 */\n      dup3\n        /* \"contracts/Pool.sol\":2400:2432  _amount0 * (reserve1 / reserve0) */\n      tag_143\n      swap2\n      swap1\n      tag_73\n      jump\t// in\n    tag_143:\n        /* \"contracts/Pool.sol\":2380:2432  uint256 amountOut = _amount0 * (reserve1 / reserve0) */\n      swap1\n      pop\n        /* \"contracts/Pool.sol\":2458:2467  amountOut */\n      dup1\n        /* \"contracts/Pool.sol\":2446:2454  reserve1 */\n      sload(0x02)\n        /* \"contracts/Pool.sol\":2446:2467  reserve1 <= amountOut */\n      gt\n        /* \"contracts/Pool.sol\":2442:2578  if (reserve1 <= amountOut) {... */\n      tag_144\n      jumpi\n        /* \"contracts/Pool.sol\":2483:2491  revert() */\n      0x00\n      dup1\n      revert\n        /* \"contracts/Pool.sol\":2442:2578  if (reserve1 <= amountOut) {... */\n    tag_144:\n        /* \"contracts/Pool.sol\":2528:2534  token1 */\n      immutable(\"0x8568f76a03b01e78020c34eaf7d99444bdfcfc02740b9216953e88c42652898d\")\n        /* \"contracts/Pool.sol\":2521:2544  IERC20(token1).transfer */\n      0xffffffffffffffffffffffffffffffffffffffff\n      and\n      0xa9059cbb\n        /* \"contracts/Pool.sol\":2545:2555  msg.sender */\n      caller\n        /* \"contracts/Pool.sol\":2557:2566  amountOut */\n      dup4\n        /* \"contracts/Pool.sol\":2521:2567  IERC20(token1).transfer(msg.sender, amountOut) */\n      mload(0x40)\n      dup4\n      0xffffffff\n      and\n      0xe0\n      shl\n      dup2\n      mstore\n      0x04\n      add\n      tag_146\n      swap3\n      swap2\n      swap1\n      tag_77\n      jump\t// in\n    tag_146:\n      0x20\n      mload(0x40)\n      dup1\n      dup4\n      sub\n      dup2\n      0x00\n      dup8\n      dup1\n      extcodesize\n      iszero\n      dup1\n      iszero\n      tag_147\n      jumpi\n      0x00\n      dup1\n      revert\n    tag_147:\n      pop\n      gas\n      call\n      iszero\n      dup1\n      iszero\n      tag_149\n      jumpi\n      returndatasize\n      0x00\n      dup1\n      returndatacopy\n      revert(0x00, returndatasize)\n    tag_149:\n      pop\n      pop\n      pop\n      pop\n      mload(0x40)\n      returndatasize\n      not(0x1f)\n      0x1f\n      dup3\n      add\n      and\n      dup3\n      add\n      dup1\n      0x40\n      mstore\n      pop\n      dup2\n      add\n      swap1\n      tag_150\n      swap2\n      swap1\n      tag_69\n      jump\t// in\n    tag_150:\n      pop\n        /* \"contracts/Pool.sol\":2588:2596  update() */\n      tag_151\n        /* \"contracts/Pool.sol\":2588:2594  update */\n      tag_83\n        /* \"contracts/Pool.sol\":2588:2596  update() */\n      jump\t// in\n    tag_151:\n        /* \"contracts/Pool.sol\":2189:2603  {... */\n      pop\n        /* \"contracts/Pool.sol\":2150:2603  function get1(uint256 _amount0) public {... */\n      pop\n      jump\t// out\n        /* \"contracts/Pool.sol\":443:464  uint256 public price0 */\n    tag_44:\n      sload(0x03)\n      dup2\n      jump\t// out\n        /* \"contracts/Pool.sol\":318:353  address public immutable ltrAddress */\n    tag_47:\n      immutable(\"0xd76482dbf35305fc91ee39a65e61582d738cabad2061a7d338ce335afa2bb483\")\n      dup2\n      jump\t// out\n        /* \"contracts/Pool.sol\":281:312  address public immutable token1 */\n    tag_50:\n      immutable(\"0x8568f76a03b01e78020c34eaf7d99444bdfcfc02740b9216953e88c42652898d\")\n      dup2\n      jump\t// out\n        /* \"contracts/Pool.sol\":739:968  function update() private {... */\n    tag_83:\n        /* \"contracts/Pool.sol\":793:799  token0 */\n      immutable(\"0x7c4b9619c581b88a141b2eb4807c7231fe75a5bedaa863d4150e3dabc19d88ab\")\n        /* \"contracts/Pool.sol\":786:810  IERC20(token0).balanceOf */\n      0xffffffffffffffffffffffffffffffffffffffff\n      and\n      0x70a08231\n        /* \"contracts/Pool.sol\":819:823  this */\n      address\n        /* \"contracts/Pool.sol\":786:825  IERC20(token0).balanceOf(address(this)) */\n      mload(0x40)\n      dup3\n      0xffffffff\n      and\n      0xe0\n      shl\n      dup2\n      mstore\n      0x04\n      add\n      tag_153\n      swap2\n      swap1\n      tag_18\n      jump\t// in\n    tag_153:\n      0x20\n      mload(0x40)\n      dup1\n      dup4\n      sub\n      dup2\n      dup7\n      dup1\n      extcodesize\n      iszero\n      dup1\n      iszero\n      tag_154\n      jumpi\n      0x00\n      dup1\n      revert\n    tag_154:\n      pop\n      gas\n      staticcall\n      iszero\n      dup1\n      iszero\n      tag_156\n      jumpi\n      returndatasize\n      0x00\n      dup1\n      returndatacopy\n      revert(0x00, returndatasize)\n    tag_156:\n      pop\n      pop\n      pop\n      pop\n      mload(0x40)\n      returndatasize\n      not(0x1f)\n      0x1f\n      dup3\n      add\n      and\n      dup3\n      add\n      dup1\n      0x40\n      mstore\n      pop\n      dup2\n      add\n      swap1\n      tag_157\n      swap2\n      swap1\n      tag_59\n      jump\t// in\n    tag_157:\n        /* \"contracts/Pool.sol\":775:783  reserve0 */\n      0x01\n        /* \"contracts/Pool.sol\":775:825  reserve0 = IERC20(token0).balanceOf(address(this)) */\n      dup2\n      swap1\n      sstore\n      pop\n        /* \"contracts/Pool.sol\":853:859  token1 */\n      immutable(\"0x8568f76a03b01e78020c34eaf7d99444bdfcfc02740b9216953e88c42652898d\")\n        /* \"contracts/Pool.sol\":846:870  IERC20(token1).balanceOf */\n      0xffffffffffffffffffffffffffffffffffffffff\n      and\n      0x70a08231\n        /* \"contracts/Pool.sol\":879:883  this */\n      address\n        /* \"contracts/Pool.sol\":846:885  IERC20(token1).balanceOf(address(this)) */\n      mload(0x40)\n      dup3\n      0xffffffff\n      and\n      0xe0\n      shl\n      dup2\n      mstore\n      0x04\n      add\n      tag_158\n      swap2\n      swap1\n      tag_18\n      jump\t// in\n    tag_158:\n      0x20\n      mload(0x40)\n      dup1\n      dup4\n      sub\n      dup2\n      dup7\n      dup1\n      extcodesize\n      iszero\n      dup1\n      iszero\n      tag_159\n      jumpi\n      0x00\n      dup1\n      revert\n    tag_159:\n      pop\n      gas\n      staticcall\n      iszero\n      dup1\n      iszero\n      tag_161\n      jumpi\n      returndatasize\n      0x00\n      dup1\n      returndatacopy\n      revert(0x00, returndatasize)\n    tag_161:\n      pop\n      pop\n      pop\n      pop\n      mload(0x40)\n      returndatasize\n      not(0x1f)\n      0x1f\n      dup3\n      add\n      and\n      dup3\n      add\n      dup1\n      0x40\n      mstore\n      pop\n      dup2\n      add\n      swap1\n      tag_162\n      swap2\n      swap1\n      tag_59\n      jump\t// in\n    tag_162:\n        /* \"contracts/Pool.sol\":835:843  reserve1 */\n      0x02\n        /* \"contracts/Pool.sol\":835:885  reserve1 = IERC20(token1).balanceOf(address(this)) */\n      dup2\n      swap1\n      sstore\n      pop\n        /* \"contracts/Pool.sol\":915:923  reserve0 */\n      sload(0x01)\n        /* \"contracts/Pool.sol\":904:912  reserve1 */\n      sload(0x02)\n        /* \"contracts/Pool.sol\":904:923  reserve1 / reserve0 */\n      tag_163\n      swap2\n      swap1\n      tag_71\n      jump\t// in\n    tag_163:\n        /* \"contracts/Pool.sol\":895:901  price0 */\n      0x03\n        /* \"contracts/Pool.sol\":895:923  price0 = reserve1 / reserve0 */\n      dup2\n      swap1\n      sstore\n      pop\n        /* \"contracts/Pool.sol\":953:961  reserve1 */\n      sload(0x02)\n        /* \"contracts/Pool.sol\":942:950  reserve0 */\n      sload(0x01)\n        /* \"contracts/Pool.sol\":942:961  reserve0 / reserve1 */\n      tag_164\n      swap2\n      swap1\n      tag_71\n      jump\t// in\n    tag_164:\n        /* \"contracts/Pool.sol\":933:939  price1 */\n      0x04\n        /* \"contracts/Pool.sol\":933:961  price1 = reserve0 / reserve1 */\n      dup2\n      swap1\n      sstore\n      pop\n        /* \"contracts/Pool.sol\":739:968  function update() private {... */\n      jump\t// out\n        /* \"@openzeppelin/contracts/utils/math/Math.sol\":6281:8487  function sqrt(uint256 a) internal pure returns (uint256) {... */\n    tag_121:\n        /* \"@openzeppelin/contracts/utils/math/Math.sol\":6329:6336  uint256 */\n      0x00\n        /* \"@openzeppelin/contracts/utils/math/Math.sol\":6357:6358  0 */\n      dup1\n        /* \"@openzeppelin/contracts/utils/math/Math.sol\":6352:6353  a */\n      dup3\n        /* \"@openzeppelin/contracts/utils/math/Math.sol\":6352:6358  a == 0 */\n      eq\n        /* \"@openzeppelin/contracts/utils/math/Math.sol\":6348:6393  if (a == 0) {... */\n      iszero\n      tag_166\n      jumpi\n        /* \"@openzeppelin/contracts/utils/math/Math.sol\":6381:6382  0 */\n      0x00\n        /* \"@openzeppelin/contracts/utils/math/Math.sol\":6374:6382  return 0 */\n      swap1\n      pop\n      jump(tag_165)\n        /* \"@openzeppelin/contracts/utils/math/Math.sol\":6348:6393  if (a == 0) {... */\n    tag_166:\n        /* \"@openzeppelin/contracts/utils/math/Math.sol\":7058:7072  uint256 result */\n      0x00\n        /* \"@openzeppelin/contracts/utils/math/Math.sol\":7075:7076  1 */\n      0x01\n        /* \"@openzeppelin/contracts/utils/math/Math.sol\":7058:7076  uint256 result = 1 */\n      swap1\n      pop\n        /* \"@openzeppelin/contracts/utils/math/Math.sol\":7086:7095  uint256 x */\n      0x00\n        /* \"@openzeppelin/contracts/utils/math/Math.sol\":7098:7099  a */\n      dup4\n        /* \"@openzeppelin/contracts/utils/math/Math.sol\":7086:7099  uint256 x = a */\n      swap1\n      pop\n        /* \"@openzeppelin/contracts/utils/math/Math.sol\":7124:7125  0 */\n      0x00\n        /* \"@openzeppelin/contracts/utils/math/Math.sol\":7118:7121  128 */\n      0x80\n        /* \"@openzeppelin/contracts/utils/math/Math.sol\":7113:7114  x */\n      dup3\n        /* \"@openzeppelin/contracts/utils/math/Math.sol\":7113:7121  x >> 128 */\n      swap1\n      shr\n        /* \"@openzeppelin/contracts/utils/math/Math.sol\":7113:7125  x >> 128 > 0 */\n      gt\n        /* \"@openzeppelin/contracts/utils/math/Math.sol\":7109:7188  if (x >> 128 > 0) {... */\n      iszero\n      tag_167\n      jumpi\n        /* \"@openzeppelin/contracts/utils/math/Math.sol\":7147:7150  128 */\n      0x80\n        /* \"@openzeppelin/contracts/utils/math/Math.sol\":7141:7150  x >>= 128 */\n      dup2\n      swap1\n      shr\n      swap1\n      pop\n        /* \"@openzeppelin/contracts/utils/math/Math.sol\":7175:7177  64 */\n      0x40\n        /* \"@openzeppelin/contracts/utils/math/Math.sol\":7164:7177  result <<= 64 */\n      dup3\n      swap1\n      shl\n      swap2\n      pop\n        /* \"@openzeppelin/contracts/utils/math/Math.sol\":7109:7188  if (x >> 128 > 0) {... */\n    tag_167:\n        /* \"@openzeppelin/contracts/utils/math/Math.sol\":7211:7212  0 */\n      0x00\n        /* \"@openzeppelin/contracts/utils/math/Math.sol\":7206:7208  64 */\n      0x40\n        /* \"@openzeppelin/contracts/utils/math/Math.sol\":7201:7202  x */\n      dup3\n        /* \"@openzeppelin/contracts/utils/math/Math.sol\":7201:7208  x >> 64 */\n      swap1\n      shr\n        /* \"@openzeppelin/contracts/utils/math/Math.sol\":7201:7212  x >> 64 > 0 */\n      gt\n        /* \"@openzeppelin/contracts/utils/math/Math.sol\":7197:7274  if (x >> 64 > 0) {... */\n      iszero\n      tag_168\n      jumpi\n        /* \"@openzeppelin/contracts/utils/math/Math.sol\":7234:7236  64 */\n      0x40\n        /* \"@openzeppelin/contracts/utils/math/Math.sol\":7228:7236  x >>= 64 */\n      dup2\n      swap1\n      shr\n      swap1\n      pop\n        /* \"@openzeppelin/contracts/utils/math/Math.sol\":7261:7263  32 */\n      0x20\n        /* \"@openzeppelin/contracts/utils/math/Math.sol\":7250:7263  result <<= 32 */\n      dup3\n      swap1\n      shl\n      swap2\n      pop\n        /* \"@openzeppelin/contracts/utils/math/Math.sol\":7197:7274  if (x >> 64 > 0) {... */\n    tag_168:\n        /* \"@openzeppelin/contracts/utils/math/Math.sol\":7297:7298  0 */\n      0x00\n        /* \"@openzeppelin/contracts/utils/math/Math.sol\":7292:7294  32 */\n      0x20\n        /* \"@openzeppelin/contracts/utils/math/Math.sol\":7287:7288  x */\n      dup3\n        /* \"@openzeppelin/contracts/utils/math/Math.sol\":7287:7294  x >> 32 */\n      swap1\n      shr\n        /* \"@openzeppelin/contracts/utils/math/Math.sol\":7287:7298  x >> 32 > 0 */\n      gt\n        /* \"@openzeppelin/contracts/utils/math/Math.sol\":7283:7360  if (x >> 32 > 0) {... */\n      iszero\n      tag_169\n      jumpi\n        /* \"@openzeppelin/contracts/utils/math/Math.sol\":7320:7322  32 */\n      0x20\n        /* \"@openzeppelin/contracts/utils/math/Math.sol\":7314:7322  x >>= 32 */\n      dup2\n      swap1\n      shr\n      swap1\n      pop\n        /* \"@openzeppelin/contracts/utils/math/Math.sol\":7347:7349  16 */\n      0x10\n        /* \"@openzeppelin/contracts/utils/math/Math.sol\":7336:7349  result <<= 16 */\n      dup3\n      swap1\n      shl\n      swap2\n      pop\n        /* \"@openzeppelin/contracts/utils/math/Math.sol\":7283:7360  if (x >> 32 > 0) {... */\n    tag_169:\n        /* \"@openzeppelin/contracts/utils/math/Math.sol\":7383:7384  0 */\n      0x00\n        /* \"@openzeppelin/contracts/utils/math/Math.sol\":7378:7380  16 */\n      0x10\n        /* \"@openzeppelin/contracts/utils/math/Math.sol\":7373:7374  x */\n      dup3\n        /* \"@openzeppelin/contracts/utils/math/Math.sol\":7373:7380  x >> 16 */\n      swap1\n      shr\n        /* \"@openzeppelin/contracts/utils/math/Math.sol\":7373:7384  x >> 16 > 0 */\n      gt\n        /* \"@openzeppelin/contracts/utils/math/Math.sol\":7369:7445  if (x >> 16 > 0) {... */\n      iszero\n      tag_170\n      jumpi\n        /* \"@openzeppelin/contracts/utils/math/Math.sol\":7406:7408  16 */\n      0x10\n        /* \"@openzeppelin/contracts/utils/math/Math.sol\":7400:7408  x >>= 16 */\n      dup2\n      swap1\n      shr\n      swap1\n      pop\n        /* \"@openzeppelin/contracts/utils/math/Math.sol\":7433:7434  8 */\n      0x08\n        /* \"@openzeppelin/contracts/utils/math/Math.sol\":7422:7434  result <<= 8 */\n      dup3\n      swap1\n      shl\n      swap2\n      pop\n        /* \"@openzeppelin/contracts/utils/math/Math.sol\":7369:7445  if (x >> 16 > 0) {... */\n    tag_170:\n        /* \"@openzeppelin/contracts/utils/math/Math.sol\":7467:7468  0 */\n      0x00\n        /* \"@openzeppelin/contracts/utils/math/Math.sol\":7463:7464  8 */\n      0x08\n        /* \"@openzeppelin/contracts/utils/math/Math.sol\":7458:7459  x */\n      dup3\n        /* \"@openzeppelin/contracts/utils/math/Math.sol\":7458:7464  x >> 8 */\n      swap1\n      shr\n        /* \"@openzeppelin/contracts/utils/math/Math.sol\":7458:7468  x >> 8 > 0 */\n      gt\n        /* \"@openzeppelin/contracts/utils/math/Math.sol\":7454:7528  if (x >> 8 > 0) {... */\n      iszero\n      tag_171\n      jumpi\n        /* \"@openzeppelin/contracts/utils/math/Math.sol\":7490:7491  8 */\n      0x08\n        /* \"@openzeppelin/contracts/utils/math/Math.sol\":7484:7491  x >>= 8 */\n      dup2\n      swap1\n      shr\n      swap1\n      pop\n        /* \"@openzeppelin/contracts/utils/math/Math.sol\":7516:7517  4 */\n      0x04\n        /* \"@openzeppelin/contracts/utils/math/Math.sol\":7505:7517  result <<= 4 */\n      dup3\n      swap1\n      shl\n      swap2\n      pop\n        /* \"@openzeppelin/contracts/utils/math/Math.sol\":7454:7528  if (x >> 8 > 0) {... */\n    tag_171:\n        /* \"@openzeppelin/contracts/utils/math/Math.sol\":7550:7551  0 */\n      0x00\n        /* \"@openzeppelin/contracts/utils/math/Math.sol\":7546:7547  4 */\n      0x04\n        /* \"@openzeppelin/contracts/utils/math/Math.sol\":7541:7542  x */\n      dup3\n        /* \"@openzeppelin/contracts/utils/math/Math.sol\":7541:7547  x >> 4 */\n      swap1\n      shr\n        /* \"@openzeppelin/contracts/utils/math/Math.sol\":7541:7551  x >> 4 > 0 */\n      gt\n        /* \"@openzeppelin/contracts/utils/math/Math.sol\":7537:7611  if (x >> 4 > 0) {... */\n      iszero\n      tag_172\n      jumpi\n        /* \"@openzeppelin/contracts/utils/math/Math.sol\":7573:7574  4 */\n      0x04\n        /* \"@openzeppelin/contracts/utils/math/Math.sol\":7567:7574  x >>= 4 */\n      dup2\n      swap1\n      shr\n      swap1\n      pop\n        /* \"@openzeppelin/contracts/utils/math/Math.sol\":7599:7600  2 */\n      0x02\n        /* \"@openzeppelin/contracts/utils/math/Math.sol\":7588:7600  result <<= 2 */\n      dup3\n      swap1\n      shl\n      swap2\n      pop\n        /* \"@openzeppelin/contracts/utils/math/Math.sol\":7537:7611  if (x >> 4 > 0) {... */\n    tag_172:\n        /* \"@openzeppelin/contracts/utils/math/Math.sol\":7633:7634  0 */\n      0x00\n        /* \"@openzeppelin/contracts/utils/math/Math.sol\":7629:7630  2 */\n      0x02\n        /* \"@openzeppelin/contracts/utils/math/Math.sol\":7624:7625  x */\n      dup3\n        /* \"@openzeppelin/contracts/utils/math/Math.sol\":7624:7630  x >> 2 */\n      swap1\n      shr\n        /* \"@openzeppelin/contracts/utils/math/Math.sol\":7624:7634  x >> 2 > 0 */\n      gt\n        /* \"@openzeppelin/contracts/utils/math/Math.sol\":7620:7673  if (x >> 2 > 0) {... */\n      iszero\n      tag_173\n      jumpi\n        /* \"@openzeppelin/contracts/utils/math/Math.sol\":7661:7662  1 */\n      0x01\n        /* \"@openzeppelin/contracts/utils/math/Math.sol\":7650:7662  result <<= 1 */\n      dup3\n      swap1\n      shl\n      swap2\n      pop\n        /* \"@openzeppelin/contracts/utils/math/Math.sol\":7620:7673  if (x >> 2 > 0) {... */\n    tag_173:\n        /* \"@openzeppelin/contracts/utils/math/Math.sol\":8131:8132  1 */\n      0x01\n        /* \"@openzeppelin/contracts/utils/math/Math.sol\":8120:8126  result */\n      dup3\n        /* \"@openzeppelin/contracts/utils/math/Math.sol\":8116:8117  a */\n      dup6\n        /* \"@openzeppelin/contracts/utils/math/Math.sol\":8116:8126  a / result */\n      dup2\n      tag_174\n      jumpi\n      tag_175\n      tag_176\n      jump\t// in\n    tag_175:\n    tag_174:\n      div\n        /* \"@openzeppelin/contracts/utils/math/Math.sol\":8107:8113  result */\n      dup4\n        /* \"@openzeppelin/contracts/utils/math/Math.sol\":8107:8126  result + a / result */\n      add\n        /* \"@openzeppelin/contracts/utils/math/Math.sol\":8106:8132  (result + a / result) >> 1 */\n      swap1\n      shr\n        /* \"@openzeppelin/contracts/utils/math/Math.sol\":8097:8132  result = (result + a / result) >> 1 */\n      swap2\n      pop\n        /* \"@openzeppelin/contracts/utils/math/Math.sol\":8180:8181  1 */\n      0x01\n        /* \"@openzeppelin/contracts/utils/math/Math.sol\":8169:8175  result */\n      dup3\n        /* \"@openzeppelin/contracts/utils/math/Math.sol\":8165:8166  a */\n      dup6\n        /* \"@openzeppelin/contracts/utils/math/Math.sol\":8165:8175  a / result */\n      dup2\n      tag_177\n      jumpi\n      tag_178\n      tag_176\n      jump\t// in\n    tag_178:\n    tag_177:\n      div\n        /* \"@openzeppelin/contracts/utils/math/Math.sol\":8156:8162  result */\n      dup4\n        /* \"@openzeppelin/contracts/utils/math/Math.sol\":8156:8175  result + a / result */\n      add\n        /* \"@openzeppelin/contracts/utils/math/Math.sol\":8155:8181  (result + a / result) >> 1 */\n      swap1\n      shr\n        /* \"@openzeppelin/contracts/utils/math/Math.sol\":8146:8181  result = (result + a / result) >> 1 */\n      swap2\n      pop\n        /* \"@openzeppelin/contracts/utils/math/Math.sol\":8229:8230  1 */\n      0x01\n        /* \"@openzeppelin/contracts/utils/math/Math.sol\":8218:8224  result */\n      dup3\n        /* \"@openzeppelin/contracts/utils/math/Math.sol\":8214:8215  a */\n      dup6\n        /* \"@openzeppelin/contracts/utils/math/Math.sol\":8214:8224  a / result */\n      dup2\n      tag_179\n      jumpi\n      tag_180\n      tag_176\n      jump\t// in\n    tag_180:\n    tag_179:\n      div\n        /* \"@openzeppelin/contracts/utils/math/Math.sol\":8205:8211  result */\n      dup4\n        /* \"@openzeppelin/contracts/utils/math/Math.sol\":8205:8224  result + a / result */\n      add\n        /* \"@openzeppelin/contracts/utils/math/Math.sol\":8204:8230  (result + a / result) >> 1 */\n      swap1\n      shr\n        /* \"@openzeppelin/contracts/utils/math/Math.sol\":8195:8230  result = (result + a / result) >> 1 */\n      swap2\n      pop\n        /* \"@openzeppelin/contracts/utils/math/Math.sol\":8278:8279  1 */\n      0x01\n        /* \"@openzeppelin/contracts/utils/math/Math.sol\":8267:8273  result */\n      dup3\n        /* \"@openzeppelin/contracts/utils/math/Math.sol\":8263:8264  a */\n      dup6\n        /* \"@openzeppelin/contracts/utils/math/Math.sol\":8263:8273  a / result */\n      dup2\n      tag_181\n      jumpi\n      tag_182\n      tag_176\n      jump\t// in\n    tag_182:\n    tag_181:\n      div\n        /* \"@openzeppelin/contracts/utils/math/Math.sol\":8254:8260  result */\n      dup4\n        /* \"@openzeppelin/contracts/utils/math/Math.sol\":8254:8273  result + a / result */\n      add\n        /* \"@openzeppelin/contracts/utils/math/Math.sol\":8253:8279  (result + a / result) >> 1 */\n      swap1\n      shr\n        /* \"@openzeppelin/contracts/utils/math/Math.sol\":8244:8279  result = (result + a / result) >> 1 */\n      swap2\n      pop\n        /* \"@openzeppelin/contracts/utils/math/Math.sol\":8327:8328  1 */\n      0x01\n        /* \"@openzeppelin/contracts/utils/math/Math.sol\":8316:8322  result */\n      dup3\n        /* \"@openzeppelin/contracts/utils/math/Math.sol\":8312:8313  a */\n      dup6\n        /* \"@openzeppelin/contracts/utils/math/Math.sol\":8312:8322  a / result */\n      dup2\n      tag_183\n      jumpi\n      tag_184\n      tag_176\n      jump\t// in\n    tag_184:\n    tag_183:\n      div\n        /* \"@openzeppelin/contracts/utils/math/Math.sol\":8303:8309  result */\n      dup4\n        /* \"@openzeppelin/contracts/utils/math/Math.sol\":8303:8322  result + a / result */\n      add\n        /* \"@openzeppelin/contracts/utils/math/Math.sol\":8302:8328  (result + a / result) >> 1 */\n      swap1\n      shr\n        /* \"@openzeppelin/contracts/utils/math/Math.sol\":8293:8328  result = (result + a / result) >> 1 */\n      swap2\n      pop\n        /* \"@openzeppelin/contracts/utils/math/Math.sol\":8376:8377  1 */\n      0x01\n        /* \"@openzeppelin/contracts/utils/math/Math.sol\":8365:8371  result */\n      dup3\n        /* \"@openzeppelin/contracts/utils/math/Math.sol\":8361:8362  a */\n      dup6\n        /* \"@openzeppelin/contracts/utils/math/Math.sol\":8361:8371  a / result */\n      dup2\n      tag_185\n      jumpi\n      tag_186\n      tag_176\n      jump\t// in\n    tag_186:\n    tag_185:\n      div\n        /* \"@openzeppelin/contracts/utils/math/Math.sol\":8352:8358  result */\n      dup4\n        /* \"@openzeppelin/contracts/utils/math/Math.sol\":8352:8371  result + a / result */\n      add\n        /* \"@openzeppelin/contracts/utils/math/Math.sol\":8351:8377  (result + a / result) >> 1 */\n      swap1\n      shr\n        /* \"@openzeppelin/contracts/utils/math/Math.sol\":8342:8377  result = (result + a / result) >> 1 */\n      swap2\n      pop\n        /* \"@openzeppelin/contracts/utils/math/Math.sol\":8425:8426  1 */\n      0x01\n        /* \"@openzeppelin/contracts/utils/math/Math.sol\":8414:8420  result */\n      dup3\n        /* \"@openzeppelin/contracts/utils/math/Math.sol\":8410:8411  a */\n      dup6\n        /* \"@openzeppelin/contracts/utils/math/Math.sol\":8410:8420  a / result */\n      dup2\n      tag_187\n      jumpi\n      tag_188\n      tag_176\n      jump\t// in\n    tag_188:\n    tag_187:\n      div\n        /* \"@openzeppelin/contracts/utils/math/Math.sol\":8401:8407  result */\n      dup4\n        /* \"@openzeppelin/contracts/utils/math/Math.sol\":8401:8420  result + a / result */\n      add\n        /* \"@openzeppelin/contracts/utils/math/Math.sol\":8400:8426  (result + a / result) >> 1 */\n      swap1\n      shr\n        /* \"@openzeppelin/contracts/utils/math/Math.sol\":8391:8426  result = (result + a / result) >> 1 */\n      swap2\n      pop\n        /* \"@openzeppelin/contracts/utils/math/Math.sol\":8447:8470  min(result, a / result) */\n      tag_189\n        /* \"@openzeppelin/contracts/utils/math/Math.sol\":8451:8457  result */\n      dup3\n        /* \"@openzeppelin/contracts/utils/math/Math.sol\":8463:8469  result */\n      dup4\n        /* \"@openzeppelin/contracts/utils/math/Math.sol\":8459:8460  a */\n      dup7\n        /* \"@openzeppelin/contracts/utils/math/Math.sol\":8459:8469  a / result */\n      dup2\n      tag_190\n      jumpi\n      tag_191\n      tag_176\n      jump\t// in\n    tag_191:\n    tag_190:\n      div\n        /* \"@openzeppelin/contracts/utils/math/Math.sol\":8447:8450  min */\n      tag_192\n        /* \"@openzeppelin/contracts/utils/math/Math.sol\":8447:8470  min(result, a / result) */\n      jump\t// in\n    tag_189:\n        /* \"@openzeppelin/contracts/utils/math/Math.sol\":8440:8470  return min(result, a / result) */\n      swap3\n      pop\n      pop\n      pop\n        /* \"@openzeppelin/contracts/utils/math/Math.sol\":6281:8487  function sqrt(uint256 a) internal pure returns (uint256) {... */\n    tag_165:\n      swap2\n      swap1\n      pop\n      jump\t// out\n        /* \"@openzeppelin/contracts/utils/math/Math.sol\":589:693  function min(uint256 a, uint256 b) internal pure returns (uint256) {... */\n    tag_192:\n        /* \"@openzeppelin/contracts/utils/math/Math.sol\":647:654  uint256 */\n      0x00\n        /* \"@openzeppelin/contracts/utils/math/Math.sol\":677:678  b */\n      dup2\n        /* \"@openzeppelin/contracts/utils/math/Math.sol\":673:674  a */\n      dup4\n        /* \"@openzeppelin/contracts/utils/math/Math.sol\":673:678  a < b */\n      lt\n        /* \"@openzeppelin/contracts/utils/math/Math.sol\":673:686  a < b ? a : b */\n      tag_194\n      jumpi\n        /* \"@openzeppelin/contracts/utils/math/Math.sol\":685:686  b */\n      dup2\n        /* \"@openzeppelin/contracts/utils/math/Math.sol\":673:686  a < b ? a : b */\n      jump(tag_195)\n    tag_194:\n        /* \"@openzeppelin/contracts/utils/math/Math.sol\":681:682  a */\n      dup3\n        /* \"@openzeppelin/contracts/utils/math/Math.sol\":673:686  a < b ? a : b */\n    tag_195:\n        /* \"@openzeppelin/contracts/utils/math/Math.sol\":666:686  return a < b ? a : b */\n      swap1\n      pop\n        /* \"@openzeppelin/contracts/utils/math/Math.sol\":589:693  function min(uint256 a, uint256 b) internal pure returns (uint256) {... */\n      swap3\n      swap2\n      pop\n      pop\n      jump\t// out\n        /* \"#utility.yul\":7:144   */\n    tag_197:\n        /* \"#utility.yul\":61:66   */\n      0x00\n        /* \"#utility.yul\":92:98   */\n      dup2\n        /* \"#utility.yul\":86:99   */\n      mload\n        /* \"#utility.yul\":77:99   */\n      swap1\n      pop\n        /* \"#utility.yul\":108:138   */\n      tag_199\n        /* \"#utility.yul\":132:137   */\n      dup2\n        /* \"#utility.yul\":108:138   */\n      tag_200\n      jump\t// in\n    tag_199:\n        /* \"#utility.yul\":7:144   */\n      swap3\n      swap2\n      pop\n      pop\n      jump\t// out\n        /* \"#utility.yul\":150:289   */\n    tag_201:\n        /* \"#utility.yul\":196:201   */\n      0x00\n        /* \"#utility.yul\":234:240   */\n      dup2\n        /* \"#utility.yul\":221:241   */\n      calldataload\n        /* \"#utility.yul\":212:241   */\n      swap1\n      pop\n        /* \"#utility.yul\":250:283   */\n      tag_203\n        /* \"#utility.yul\":277:282   */\n      dup2\n        /* \"#utility.yul\":250:283   */\n      tag_204\n      jump\t// in\n    tag_203:\n        /* \"#utility.yul\":150:289   */\n      swap3\n      swap2\n      pop\n      pop\n      jump\t// out\n        /* \"#utility.yul\":295:438   */\n    tag_205:\n        /* \"#utility.yul\":352:357   */\n      0x00\n        /* \"#utility.yul\":383:389   */\n      dup2\n        /* \"#utility.yul\":377:390   */\n      mload\n        /* \"#utility.yul\":368:390   */\n      swap1\n      pop\n        /* \"#utility.yul\":399:432   */\n      tag_207\n        /* \"#utility.yul\":426:431   */\n      dup2\n        /* \"#utility.yul\":399:432   */\n      tag_204\n      jump\t// in\n    tag_207:\n        /* \"#utility.yul\":295:438   */\n      swap3\n      swap2\n      pop\n      pop\n      jump\t// out\n        /* \"#utility.yul\":444:789   */\n    tag_69:\n        /* \"#utility.yul\":511:517   */\n      0x00\n        /* \"#utility.yul\":560:562   */\n      0x20\n        /* \"#utility.yul\":548:557   */\n      dup3\n        /* \"#utility.yul\":539:546   */\n      dup5\n        /* \"#utility.yul\":535:558   */\n      sub\n        /* \"#utility.yul\":531:563   */\n      slt\n        /* \"#utility.yul\":528:647   */\n      iszero\n      tag_209\n      jumpi\n        /* \"#utility.yul\":566:645   */\n      tag_210\n      tag_211\n      jump\t// in\n    tag_210:\n        /* \"#utility.yul\":528:647   */\n    tag_209:\n        /* \"#utility.yul\":686:687   */\n      0x00\n        /* \"#utility.yul\":711:772   */\n      tag_212\n        /* \"#utility.yul\":764:771   */\n      dup5\n        /* \"#utility.yul\":755:761   */\n      dup3\n        /* \"#utility.yul\":744:753   */\n      dup6\n        /* \"#utility.yul\":740:762   */\n      add\n        /* \"#utility.yul\":711:772   */\n      tag_197\n      jump\t// in\n    tag_212:\n        /* \"#utility.yul\":701:772   */\n      swap2\n      pop\n        /* \"#utility.yul\":657:782   */\n      pop\n        /* \"#utility.yul\":444:789   */\n      swap3\n      swap2\n      pop\n      pop\n      jump\t// out\n        /* \"#utility.yul\":795:1124   */\n    tag_21:\n        /* \"#utility.yul\":854:860   */\n      0x00\n        /* \"#utility.yul\":903:905   */\n      0x20\n        /* \"#utility.yul\":891:900   */\n      dup3\n        /* \"#utility.yul\":882:889   */\n      dup5\n        /* \"#utility.yul\":878:901   */\n      sub\n        /* \"#utility.yul\":874:906   */\n      slt\n        /* \"#utility.yul\":871:990   */\n      iszero\n      tag_214\n      jumpi\n        /* \"#utility.yul\":909:988   */\n      tag_215\n      tag_211\n      jump\t// in\n    tag_215:\n        /* \"#utility.yul\":871:990   */\n    tag_214:\n        /* \"#utility.yul\":1029:1030   */\n      0x00\n        /* \"#utility.yul\":1054:1107   */\n      tag_216\n        /* \"#utility.yul\":1099:1106   */\n      dup5\n        /* \"#utility.yul\":1090:1096   */\n      dup3\n        /* \"#utility.yul\":1079:1088   */\n      dup6\n        /* \"#utility.yul\":1075:1097   */\n      add\n        /* \"#utility.yul\":1054:1107   */\n      tag_201\n      jump\t// in\n    tag_216:\n        /* \"#utility.yul\":1044:1107   */\n      swap2\n      pop\n        /* \"#utility.yul\":1000:1117   */\n      pop\n        /* \"#utility.yul\":795:1124   */\n      swap3\n      swap2\n      pop\n      pop\n      jump\t// out\n        /* \"#utility.yul\":1130:1481   */\n    tag_59:\n        /* \"#utility.yul\":1200:1206   */\n      0x00\n        /* \"#utility.yul\":1249:1251   */\n      0x20\n        /* \"#utility.yul\":1237:1246   */\n      dup3\n        /* \"#utility.yul\":1228:1235   */\n      dup5\n        /* \"#utility.yul\":1224:1247   */\n      sub\n        /* \"#utility.yul\":1220:1252   */\n      slt\n        /* \"#utility.yul\":1217:1336   */\n      iszero\n      tag_218\n      jumpi\n        /* \"#utility.yul\":1255:1334   */\n      tag_219\n      tag_211\n      jump\t// in\n    tag_219:\n        /* \"#utility.yul\":1217:1336   */\n    tag_218:\n        /* \"#utility.yul\":1375:1376   */\n      0x00\n        /* \"#utility.yul\":1400:1464   */\n      tag_220\n        /* \"#utility.yul\":1456:1463   */\n      dup5\n        /* \"#utility.yul\":1447:1453   */\n      dup3\n        /* \"#utility.yul\":1436:1445   */\n      dup6\n        /* \"#utility.yul\":1432:1454   */\n      add\n        /* \"#utility.yul\":1400:1464   */\n      tag_205\n      jump\t// in\n    tag_220:\n        /* \"#utility.yul\":1390:1464   */\n      swap2\n      pop\n        /* \"#utility.yul\":1346:1474   */\n      pop\n        /* \"#utility.yul\":1130:1481   */\n      swap3\n      swap2\n      pop\n      pop\n      jump\t// out\n        /* \"#utility.yul\":1487:1961   */\n    tag_38:\n        /* \"#utility.yul\":1555:1561   */\n      0x00\n        /* \"#utility.yul\":1563:1569   */\n      dup1\n        /* \"#utility.yul\":1612:1614   */\n      0x40\n        /* \"#utility.yul\":1600:1609   */\n      dup4\n        /* \"#utility.yul\":1591:1598   */\n      dup6\n        /* \"#utility.yul\":1587:1610   */\n      sub\n        /* \"#utility.yul\":1583:1615   */\n      slt\n        /* \"#utility.yul\":1580:1699   */\n      iszero\n      tag_222\n      jumpi\n        /* \"#utility.yul\":1618:1697   */\n      tag_223\n      tag_211\n      jump\t// in\n    tag_223:\n        /* \"#utility.yul\":1580:1699   */\n    tag_222:\n        /* \"#utility.yul\":1738:1739   */\n      0x00\n        /* \"#utility.yul\":1763:1816   */\n      tag_224\n        /* \"#utility.yul\":1808:1815   */\n      dup6\n        /* \"#utility.yul\":1799:1805   */\n      dup3\n        /* \"#utility.yul\":1788:1797   */\n      dup7\n        /* \"#utility.yul\":1784:1806   */\n      add\n        /* \"#utility.yul\":1763:1816   */\n      tag_201\n      jump\t// in\n    tag_224:\n        /* \"#utility.yul\":1753:1816   */\n      swap3\n      pop\n        /* \"#utility.yul\":1709:1826   */\n      pop\n        /* \"#utility.yul\":1865:1867   */\n      0x20\n        /* \"#utility.yul\":1891:1944   */\n      tag_225\n        /* \"#utility.yul\":1936:1943   */\n      dup6\n        /* \"#utility.yul\":1927:1933   */\n      dup3\n        /* \"#utility.yul\":1916:1925   */\n      dup7\n        /* \"#utility.yul\":1912:1934   */\n      add\n        /* \"#utility.yul\":1891:1944   */\n      tag_201\n      jump\t// in\n    tag_225:\n        /* \"#utility.yul\":1881:1944   */\n      swap2\n      pop\n        /* \"#utility.yul\":1836:1954   */\n      pop\n        /* \"#utility.yul\":1487:1961   */\n      swap3\n      pop\n      swap3\n      swap1\n      pop\n      jump\t// out\n        /* \"#utility.yul\":1967:2085   */\n    tag_226:\n        /* \"#utility.yul\":2054:2078   */\n      tag_228\n        /* \"#utility.yul\":2072:2077   */\n      dup2\n        /* \"#utility.yul\":2054:2078   */\n      tag_229\n      jump\t// in\n    tag_228:\n        /* \"#utility.yul\":2049:2052   */\n      dup3\n        /* \"#utility.yul\":2042:2079   */\n      mstore\n        /* \"#utility.yul\":1967:2085   */\n      pop\n      pop\n      jump\t// out\n        /* \"#utility.yul\":2091:2457   */\n    tag_230:\n        /* \"#utility.yul\":2233:2236   */\n      0x00\n        /* \"#utility.yul\":2254:2321   */\n      tag_232\n        /* \"#utility.yul\":2318:2320   */\n      0x15\n        /* \"#utility.yul\":2313:2316   */\n      dup4\n        /* \"#utility.yul\":2254:2321   */\n      tag_233\n      jump\t// in\n    tag_232:\n        /* \"#utility.yul\":2247:2321   */\n      swap2\n      pop\n        /* \"#utility.yul\":2330:2423   */\n      tag_234\n        /* \"#utility.yul\":2419:2422   */\n      dup3\n        /* \"#utility.yul\":2330:2423   */\n      tag_235\n      jump\t// in\n    tag_234:\n        /* \"#utility.yul\":2448:2450   */\n      0x20\n        /* \"#utility.yul\":2443:2446   */\n      dup3\n        /* \"#utility.yul\":2439:2451   */\n      add\n        /* \"#utility.yul\":2432:2451   */\n      swap1\n      pop\n        /* \"#utility.yul\":2091:2457   */\n      swap2\n      swap1\n      pop\n      jump\t// out\n        /* \"#utility.yul\":2463:2581   */\n    tag_236:\n        /* \"#utility.yul\":2550:2574   */\n      tag_238\n        /* \"#utility.yul\":2568:2573   */\n      dup2\n        /* \"#utility.yul\":2550:2574   */\n      tag_239\n      jump\t// in\n    tag_238:\n        /* \"#utility.yul\":2545:2548   */\n      dup3\n        /* \"#utility.yul\":2538:2575   */\n      mstore\n        /* \"#utility.yul\":2463:2581   */\n      pop\n      pop\n      jump\t// out\n        /* \"#utility.yul\":2587:2809   */\n    tag_18:\n        /* \"#utility.yul\":2680:2684   */\n      0x00\n        /* \"#utility.yul\":2718:2720   */\n      0x20\n        /* \"#utility.yul\":2707:2716   */\n      dup3\n        /* \"#utility.yul\":2703:2721   */\n      add\n        /* \"#utility.yul\":2695:2721   */\n      swap1\n      pop\n        /* \"#utility.yul\":2731:2802   */\n      tag_241\n        /* \"#utility.yul\":2799:2800   */\n      0x00\n        /* \"#utility.yul\":2788:2797   */\n      dup4\n        /* \"#utility.yul\":2784:2801   */\n      add\n        /* \"#utility.yul\":2775:2781   */\n      dup5\n        /* \"#utility.yul\":2731:2802   */\n      tag_226\n      jump\t// in\n    tag_241:\n        /* \"#utility.yul\":2587:2809   */\n      swap3\n      swap2\n      pop\n      pop\n      jump\t// out\n        /* \"#utility.yul\":2815:3147   */\n    tag_54:\n        /* \"#utility.yul\":2936:2940   */\n      0x00\n        /* \"#utility.yul\":2974:2976   */\n      0x40\n        /* \"#utility.yul\":2963:2972   */\n      dup3\n        /* \"#utility.yul\":2959:2977   */\n      add\n        /* \"#utility.yul\":2951:2977   */\n      swap1\n      pop\n        /* \"#utility.yul\":2987:3058   */\n      tag_243\n        /* \"#utility.yul\":3055:3056   */\n      0x00\n        /* \"#utility.yul\":3044:3053   */\n      dup4\n        /* \"#utility.yul\":3040:3057   */\n      add\n        /* \"#utility.yul\":3031:3037   */\n      dup6\n        /* \"#utility.yul\":2987:3058   */\n      tag_226\n      jump\t// in\n    tag_243:\n        /* \"#utility.yul\":3068:3140   */\n      tag_244\n        /* \"#utility.yul\":3136:3138   */\n      0x20\n        /* \"#utility.yul\":3125:3134   */\n      dup4\n        /* \"#utility.yul\":3121:3139   */\n      add\n        /* \"#utility.yul\":3112:3118   */\n      dup5\n        /* \"#utility.yul\":3068:3140   */\n      tag_226\n      jump\t// in\n    tag_244:\n        /* \"#utility.yul\":2815:3147   */\n      swap4\n      swap3\n      pop\n      pop\n      pop\n      jump\t// out\n        /* \"#utility.yul\":3153:3595   */\n    tag_64:\n        /* \"#utility.yul\":3302:3306   */\n      0x00\n        /* \"#utility.yul\":3340:3342   */\n      0x60\n        /* \"#utility.yul\":3329:3338   */\n      dup3\n        /* \"#utility.yul\":3325:3343   */\n      add\n        /* \"#utility.yul\":3317:3343   */\n      swap1\n      pop\n        /* \"#utility.yul\":3353:3424   */\n      tag_246\n        /* \"#utility.yul\":3421:3422   */\n      0x00\n        /* \"#utility.yul\":3410:3419   */\n      dup4\n        /* \"#utility.yul\":3406:3423   */\n      add\n        /* \"#utility.yul\":3397:3403   */\n      dup7\n        /* \"#utility.yul\":3353:3424   */\n      tag_226\n      jump\t// in\n    tag_246:\n        /* \"#utility.yul\":3434:3506   */\n      tag_247\n        /* \"#utility.yul\":3502:3504   */\n      0x20\n        /* \"#utility.yul\":3491:3500   */\n      dup4\n        /* \"#utility.yul\":3487:3505   */\n      add\n        /* \"#utility.yul\":3478:3484   */\n      dup6\n        /* \"#utility.yul\":3434:3506   */\n      tag_226\n      jump\t// in\n    tag_247:\n        /* \"#utility.yul\":3516:3588   */\n      tag_248\n        /* \"#utility.yul\":3584:3586   */\n      0x40\n        /* \"#utility.yul\":3573:3582   */\n      dup4\n        /* \"#utility.yul\":3569:3587   */\n      add\n        /* \"#utility.yul\":3560:3566   */\n      dup5\n        /* \"#utility.yul\":3516:3588   */\n      tag_236\n      jump\t// in\n    tag_248:\n        /* \"#utility.yul\":3153:3595   */\n      swap5\n      swap4\n      pop\n      pop\n      pop\n      pop\n      jump\t// out\n        /* \"#utility.yul\":3601:3933   */\n    tag_77:\n        /* \"#utility.yul\":3722:3726   */\n      0x00\n        /* \"#utility.yul\":3760:3762   */\n      0x40\n        /* \"#utility.yul\":3749:3758   */\n      dup3\n        /* \"#utility.yul\":3745:3763   */\n      add\n        /* \"#utility.yul\":3737:3763   */\n      swap1\n      pop\n        /* \"#utility.yul\":3773:3844   */\n      tag_250\n        /* \"#utility.yul\":3841:3842   */\n      0x00\n        /* \"#utility.yul\":3830:3839   */\n      dup4\n        /* \"#utility.yul\":3826:3843   */\n      add\n        /* \"#utility.yul\":3817:3823   */\n      dup6\n        /* \"#utility.yul\":3773:3844   */\n      tag_226\n      jump\t// in\n    tag_250:\n        /* \"#utility.yul\":3854:3926   */\n      tag_251\n        /* \"#utility.yul\":3922:3924   */\n      0x20\n        /* \"#utility.yul\":3911:3920   */\n      dup4\n        /* \"#utility.yul\":3907:3925   */\n      add\n        /* \"#utility.yul\":3898:3904   */\n      dup5\n        /* \"#utility.yul\":3854:3926   */\n      tag_236\n      jump\t// in\n    tag_251:\n        /* \"#utility.yul\":3601:3933   */\n      swap4\n      swap3\n      pop\n      pop\n      pop\n      jump\t// out\n        /* \"#utility.yul\":3939:4358   */\n    tag_62:\n        /* \"#utility.yul\":4105:4109   */\n      0x00\n        /* \"#utility.yul\":4143:4145   */\n      0x20\n        /* \"#utility.yul\":4132:4141   */\n      dup3\n        /* \"#utility.yul\":4128:4146   */\n      add\n        /* \"#utility.yul\":4120:4146   */\n      swap1\n      pop\n        /* \"#utility.yul\":4192:4201   */\n      dup2\n        /* \"#utility.yul\":4186:4190   */\n      dup2\n        /* \"#utility.yul\":4182:4202   */\n      sub\n        /* \"#utility.yul\":4178:4179   */\n      0x00\n        /* \"#utility.yul\":4167:4176   */\n      dup4\n        /* \"#utility.yul\":4163:4180   */\n      add\n        /* \"#utility.yul\":4156:4203   */\n      mstore\n        /* \"#utility.yul\":4220:4351   */\n      tag_253\n        /* \"#utility.yul\":4346:4350   */\n      dup2\n        /* \"#utility.yul\":4220:4351   */\n      tag_230\n      jump\t// in\n    tag_253:\n        /* \"#utility.yul\":4212:4351   */\n      swap1\n      pop\n        /* \"#utility.yul\":3939:4358   */\n      swap2\n      swap1\n      pop\n      jump\t// out\n        /* \"#utility.yul\":4364:4586   */\n    tag_26:\n        /* \"#utility.yul\":4457:4461   */\n      0x00\n        /* \"#utility.yul\":4495:4497   */\n      0x20\n        /* \"#utility.yul\":4484:4493   */\n      dup3\n        /* \"#utility.yul\":4480:4498   */\n      add\n        /* \"#utility.yul\":4472:4498   */\n      swap1\n      pop\n        /* \"#utility.yul\":4508:4579   */\n      tag_255\n        /* \"#utility.yul\":4576:4577   */\n      0x00\n        /* \"#utility.yul\":4565:4574   */\n      dup4\n        /* \"#utility.yul\":4561:4578   */\n      add\n        /* \"#utility.yul\":4552:4558   */\n      dup5\n        /* \"#utility.yul\":4508:4579   */\n      tag_236\n      jump\t// in\n    tag_255:\n        /* \"#utility.yul\":4364:4586   */\n      swap3\n      swap2\n      pop\n      pop\n      jump\t// out\n        /* \"#utility.yul\":4673:4842   */\n    tag_233:\n        /* \"#utility.yul\":4757:4768   */\n      0x00\n        /* \"#utility.yul\":4791:4797   */\n      dup3\n        /* \"#utility.yul\":4786:4789   */\n      dup3\n        /* \"#utility.yul\":4779:4798   */\n      mstore\n        /* \"#utility.yul\":4831:4835   */\n      0x20\n        /* \"#utility.yul\":4826:4829   */\n      dup3\n        /* \"#utility.yul\":4822:4836   */\n      add\n        /* \"#utility.yul\":4807:4836   */\n      swap1\n      pop\n        /* \"#utility.yul\":4673:4842   */\n      swap3\n      swap2\n      pop\n      pop\n      jump\t// out\n        /* \"#utility.yul\":4848:5033   */\n    tag_71:\n        /* \"#utility.yul\":4888:4889   */\n      0x00\n        /* \"#utility.yul\":4905:4925   */\n      tag_260\n        /* \"#utility.yul\":4923:4924   */\n      dup3\n        /* \"#utility.yul\":4905:4925   */\n      tag_239\n      jump\t// in\n    tag_260:\n        /* \"#utility.yul\":4900:4925   */\n      swap2\n      pop\n        /* \"#utility.yul\":4939:4959   */\n      tag_261\n        /* \"#utility.yul\":4957:4958   */\n      dup4\n        /* \"#utility.yul\":4939:4959   */\n      tag_239\n      jump\t// in\n    tag_261:\n        /* \"#utility.yul\":4934:4959   */\n      swap3\n      pop\n        /* \"#utility.yul\":4978:4979   */\n      dup3\n        /* \"#utility.yul\":4968:5003   */\n      tag_262\n      jumpi\n        /* \"#utility.yul\":4983:5001   */\n      tag_263\n      tag_176\n      jump\t// in\n    tag_263:\n        /* \"#utility.yul\":4968:5003   */\n    tag_262:\n        /* \"#utility.yul\":5025:5026   */\n      dup3\n        /* \"#utility.yul\":5022:5023   */\n      dup3\n        /* \"#utility.yul\":5018:5027   */\n      div\n        /* \"#utility.yul\":5013:5027   */\n      swap1\n      pop\n        /* \"#utility.yul\":4848:5033   */\n      swap3\n      swap2\n      pop\n      pop\n      jump\t// out\n        /* \"#utility.yul\":5039:5387   */\n    tag_73:\n        /* \"#utility.yul\":5079:5086   */\n      0x00\n        /* \"#utility.yul\":5102:5122   */\n      tag_265\n        /* \"#utility.yul\":5120:5121   */\n      dup3\n        /* \"#utility.yul\":5102:5122   */\n      tag_239\n      jump\t// in\n    tag_265:\n        /* \"#utility.yul\":5097:5122   */\n      swap2\n      pop\n        /* \"#utility.yul\":5136:5156   */\n      tag_266\n        /* \"#utility.yul\":5154:5155   */\n      dup4\n        /* \"#utility.yul\":5136:5156   */\n      tag_239\n      jump\t// in\n    tag_266:\n        /* \"#utility.yul\":5131:5156   */\n      swap3\n      pop\n        /* \"#utility.yul\":5324:5325   */\n      dup2\n        /* \"#utility.yul\":5256:5322   */\n      0xffffffffffffffffffffffffffffffffffffffffffffffffffffffffffffffff\n        /* \"#utility.yul\":5252:5326   */\n      div\n        /* \"#utility.yul\":5249:5250   */\n      dup4\n        /* \"#utility.yul\":5246:5327   */\n      gt\n        /* \"#utility.yul\":5241:5242   */\n      dup3\n        /* \"#utility.yul\":5234:5243   */\n      iszero\n        /* \"#utility.yul\":5227:5244   */\n      iszero\n        /* \"#utility.yul\":5223:5328   */\n      and\n        /* \"#utility.yul\":5220:5351   */\n      iszero\n      tag_267\n      jumpi\n        /* \"#utility.yul\":5331:5349   */\n      tag_268\n      tag_269\n      jump\t// in\n    tag_268:\n        /* \"#utility.yul\":5220:5351   */\n    tag_267:\n        /* \"#utility.yul\":5379:5380   */\n      dup3\n        /* \"#utility.yul\":5376:5377   */\n      dup3\n        /* \"#utility.yul\":5372:5381   */\n      mul\n        /* \"#utility.yul\":5361:5381   */\n      swap1\n      pop\n        /* \"#utility.yul\":5039:5387   */\n      swap3\n      swap2\n      pop\n      pop\n      jump\t// out\n        /* \"#utility.yul\":5393:5489   */\n    tag_229:\n        /* \"#utility.yul\":5430:5437   */\n      0x00\n        /* \"#utility.yul\":5459:5483   */\n      tag_271\n        /* \"#utility.yul\":5477:5482   */\n      dup3\n        /* \"#utility.yul\":5459:5483   */\n      tag_272\n      jump\t// in\n    tag_271:\n        /* \"#utility.yul\":5448:5483   */\n      swap1\n      pop\n        /* \"#utility.yul\":5393:5489   */\n      swap2\n      swap1\n      pop\n      jump\t// out\n        /* \"#utility.yul\":5495:5585   */\n    tag_273:\n        /* \"#utility.yul\":5529:5536   */\n      0x00\n        /* \"#utility.yul\":5572:5577   */\n      dup2\n        /* \"#utility.yul\":5565:5578   */\n      iszero\n        /* \"#utility.yul\":5558:5579   */\n      iszero\n        /* \"#utility.yul\":5547:5579   */\n      swap1\n      pop\n        /* \"#utility.yul\":5495:5585   */\n      swap2\n      swap1\n      pop\n      jump\t// out\n        /* \"#utility.yul\":5591:5717   */\n    tag_272:\n        /* \"#utility.yul\":5628:5635   */\n      0x00\n        /* \"#utility.yul\":5668:5710   */\n      0xffffffffffffffffffffffffffffffffffffffff\n        /* \"#utility.yul\":5661:5666   */\n      dup3\n        /* \"#utility.yul\":5657:5711   */\n      and\n        /* \"#utility.yul\":5646:5711   */\n      swap1\n      pop\n        /* \"#utility.yul\":5591:5717   */\n      swap2\n      swap1\n      pop\n      jump\t// out\n        /* \"#utility.yul\":5723:5800   */\n    tag_239:\n        /* \"#utility.yul\":5760:5767   */\n      0x00\n        /* \"#utility.yul\":5789:5794   */\n      dup2\n        /* \"#utility.yul\":5778:5794   */\n      swap1\n      pop\n        /* \"#utility.yul\":5723:5800   */\n      swap2\n      swap1\n      pop\n      jump\t// out\n        /* \"#utility.yul\":5806:5986   */\n    tag_269:\n        /* \"#utility.yul\":5854:5931   */\n      0x4e487b7100000000000000000000000000000000000000000000000000000000\n        /* \"#utility.yul\":5851:5852   */\n      0x00\n        /* \"#utility.yul\":5844:5932   */\n      mstore\n        /* \"#utility.yul\":5951:5955   */\n      0x11\n        /* \"#utility.yul\":5948:5949   */\n      0x04\n        /* \"#utility.yul\":5941:5956   */\n      mstore\n        /* \"#utility.yul\":5975:5979   */\n      0x24\n        /* \"#utility.yul\":5972:5973   */\n      0x00\n        /* \"#utility.yul\":5965:5980   */\n      revert\n        /* \"#utility.yul\":5992:6172   */\n    tag_176:\n        /* \"#utility.yul\":6040:6117   */\n      0x4e487b7100000000000000000000000000000000000000000000000000000000\n        /* \"#utility.yul\":6037:6038   */\n      0x00\n        /* \"#utility.yul\":6030:6118   */\n      mstore\n        /* \"#utility.yul\":6137:6141   */\n      0x12\n        /* \"#utility.yul\":6134:6135   */\n      0x04\n        /* \"#utility.yul\":6127:6142   */\n      mstore\n        /* \"#utility.yul\":6161:6165   */\n      0x24\n        /* \"#utility.yul\":6158:6159   */\n      0x00\n        /* \"#utility.yul\":6151:6166   */\n      revert\n        /* \"#utility.yul\":6301:6418   */\n    tag_211:\n        /* \"#utility.yul\":6410:6411   */\n      0x00\n        /* \"#utility.yul\":6407:6408   */\n      dup1\n        /* \"#utility.yul\":6400:6412   */\n      revert\n        /* \"#utility.yul\":6424:6595   */\n    tag_235:\n        /* \"#utility.yul\":6564:6587   */\n      0x436f6e7472616374206e6f7420617070726f7665640000000000000000000000\n        /* \"#utility.yul\":6560:6561   */\n      0x00\n        /* \"#utility.yul\":6552:6558   */\n      dup3\n        /* \"#utility.yul\":6548:6562   */\n      add\n        /* \"#utility.yul\":6541:6588   */\n      mstore\n        /* \"#utility.yul\":6424:6595   */\n      pop\n      jump\t// out\n        /* \"#utility.yul\":6601:6717   */\n    tag_200:\n        /* \"#utility.yul\":6671:6692   */\n      tag_284\n        /* \"#utility.yul\":6686:6691   */\n      dup2\n        /* \"#utility.yul\":6671:6692   */\n      tag_273\n      jump\t// in\n    tag_284:\n        /* \"#utility.yul\":6664:6669   */\n      dup2\n        /* \"#utility.yul\":6661:6693   */\n      eq\n        /* \"#utility.yul\":6651:6711   */\n      tag_285\n      jumpi\n        /* \"#utility.yul\":6707:6708   */\n      0x00\n        /* \"#utility.yul\":6704:6705   */\n      dup1\n        /* \"#utility.yul\":6697:6709   */\n      revert\n        /* \"#utility.yul\":6651:6711   */\n    tag_285:\n        /* \"#utility.yul\":6601:6717   */\n      pop\n      jump\t// out\n        /* \"#utility.yul\":6723:6845   */\n    tag_204:\n        /* \"#utility.yul\":6796:6820   */\n      tag_287\n        /* \"#utility.yul\":6814:6819   */\n      dup2\n        /* \"#utility.yul\":6796:6820   */\n      tag_239\n      jump\t// in\n    tag_287:\n        /* \"#utility.yul\":6789:6794   */\n      dup2\n        /* \"#utility.yul\":6786:6821   */\n      eq\n        /* \"#utility.yul\":6776:6839   */\n      tag_288\n      jumpi\n        /* \"#utility.yul\":6835:6836   */\n      0x00\n        /* \"#utility.yul\":6832:6833   */\n      dup1\n        /* \"#utility.yul\":6825:6837   */\n      revert\n        /* \"#utility.yul\":6776:6839   */\n    tag_288:\n        /* \"#utility.yul\":6723:6845   */\n      pop\n      jump\t// out\n\n    auxdata: 0xa2646970667358221220446d95eedec98e6b834df55bcb0fbd47edbd1ebfedc23024c0fb45289c0ae22864736f6c63430008070033\n}\n",
				"bytecode": {
					"linkReferences": {},
					"object": "60e06040523480156200001157600080fd5b50604051620016bd380380620016bd8339818101604052810190620000379190620000fc565b8273ffffffffffffffffffffffffffffffffffffffff1660808173ffffffffffffffffffffffffffffffffffffffff1660601b815250508173ffffffffffffffffffffffffffffffffffffffff1660a08173ffffffffffffffffffffffffffffffffffffffff1660601b815250508073ffffffffffffffffffffffffffffffffffffffff1660c08173ffffffffffffffffffffffffffffffffffffffff1660601b81525050505050620001ab565b600081519050620000f68162000191565b92915050565b6000806000606084860312156200011857620001176200018c565b5b60006200012886828701620000e5565b93505060206200013b86828701620000e5565b92505060406200014e86828701620000e5565b9150509250925092565b600062000165826200016c565b9050919050565b600073ffffffffffffffffffffffffffffffffffffffff82169050919050565b600080fd5b6200019c8162000158565b8114620001a857600080fd5b50565b60805160601c60a05160601c60c05160601c6114706200024d6000396000818161095f0152610cdd01526000818161021901528181610305015281816105a20152818161073e015281816107ee01528181610c1d01528181610d010152610dd40152600081816101f4015281816103e2015281816104b50152818161068e0152818161089701528181610a5401528181610b400152610d2501526114706000f3fe608060405234801561001057600080fd5b50600436106100a95760003560e01c80637464fc3d116100715780637464fc3d146101425780637a16af7f146101605780639c117f0f1461017c578063a0a986f114610198578063ba9c6845146101b6578063d21220a7146101d4576100a9565b80630dfe1681146100ae5780632af4ec36146100cc578063443cb4bc146100e85780635a76f25e146101065780636caf25ce14610124575b600080fd5b6100b66101f2565b6040516100c391906111bd565b60405180910390f35b6100e660048036038101906100e191906110e2565b610216565b005b6100f061049a565b6040516100fd9190611281565b60405180910390f35b61010e6104a0565b60405161011b9190611281565b60405180910390f35b61012c6104a6565b6040516101399190611281565b60405180910390f35b61014a6104ac565b6040516101579190611281565b60405180910390f35b61017a6004803603810190610175919061113c565b6104b2565b005b610196600480360381019061019191906110e2565b610a51565b005b6101a0610cd5565b6040516101ad9190611281565b60405180910390f35b6101be610cdb565b6040516101cb91906111bd565b60405180910390f35b6101dc610cff565b6040516101e991906111bd565b60405180910390f35b7f000000000000000000000000000000000000000000000000000000000000000081565b807f000000000000000000000000000000000000000000000000000000000000000073ffffffffffffffffffffffffffffffffffffffff1663dd62ed3e33306040518363ffffffff1660e01b81526004016102729291906111d8565b60206040518083038186803b15801561028a57600080fd5b505afa15801561029e573d6000803e3d6000fd5b505050506040513d601f19601f820116820180604052508101906102c2919061110f565b1015610303576040517f08c379a00000000000000000000000000000000000000000000000000000000081526004016102fa90611261565b60405180910390fd5b7f000000000000000000000000000000000000000000000000000000000000000073ffffffffffffffffffffffffffffffffffffffff166323b872dd3330846040518463ffffffff1660e01b815260040161036093929190611201565b602060405180830381600087803b15801561037a57600080fd5b505af115801561038e573d6000803e3d6000fd5b505050506040513d601f19601f820116820180604052508101906103b291906110b5565b5060006002546001546103c591906112ad565b826103d091906112de565b905080600154116103e057600080fd5b7f000000000000000000000000000000000000000000000000000000000000000073ffffffffffffffffffffffffffffffffffffffff1663a9059cbb33836040518363ffffffff1660e01b815260040161043b929190611238565b602060405180830381600087803b15801561045557600080fd5b505af1158015610469573d6000803e3d6000fd5b505050506040513d601f19601f8201168201806040525081019061048d91906110b5565b50610496610d23565b5050565b60015481565b60025481565b60045481565b60005481565b817f000000000000000000000000000000000000000000000000000000000000000073ffffffffffffffffffffffffffffffffffffffff1663dd62ed3e33306040518363ffffffff1660e01b815260040161050e9291906111d8565b60206040518083038186803b15801561052657600080fd5b505afa15801561053a573d6000803e3d6000fd5b505050506040513d601f19601f8201168201806040525081019061055e919061110f565b101561059f576040517f08c379a000000000000000000000000000000000000000000000000000000000815260040161059690611261565b60405180910390fd5b807f000000000000000000000000000000000000000000000000000000000000000073ffffffffffffffffffffffffffffffffffffffff1663dd62ed3e33306040518363ffffffff1660e01b81526004016105fb9291906111d8565b60206040518083038186803b15801561061357600080fd5b505afa158015610627573d6000803e3d6000fd5b505050506040513d601f19601f8201168201806040525081019061064b919061110f565b101561068c576040517f08c379a000000000000000000000000000000000000000000000000000000000815260040161068390611261565b60405180910390fd5b7f000000000000000000000000000000000000000000000000000000000000000073ffffffffffffffffffffffffffffffffffffffff166323b872dd3330856040518463ffffffff1660e01b81526004016106e993929190611201565b602060405180830381600087803b15801561070357600080fd5b505af1158015610717573d6000803e3d6000fd5b505050506040513d601f19601f8201168201806040525081019061073b91906110b5565b507f000000000000000000000000000000000000000000000000000000000000000073ffffffffffffffffffffffffffffffffffffffff166323b872dd3330846040518463ffffffff1660e01b815260040161079993929190611201565b602060405180830381600087803b1580156107b357600080fd5b505af11580156107c7573d6000803e3d6000fd5b505050506040513d601f19601f820116820180604052508101906107eb91906110b5565b507f000000000000000000000000000000000000000000000000000000000000000073ffffffffffffffffffffffffffffffffffffffff166370a08231306040518263ffffffff1660e01b815260040161084591906111bd565b60206040518083038186803b15801561085d57600080fd5b505afa158015610871573d6000803e3d6000fd5b505050506040513d601f19601f82011682018060405250810190610895919061110f565b7f000000000000000000000000000000000000000000000000000000000000000073ffffffffffffffffffffffffffffffffffffffff166370a08231306040518263ffffffff1660e01b81526004016108ee91906111bd565b60206040518083038186803b15801561090657600080fd5b505afa15801561091a573d6000803e3d6000fd5b505050506040513d601f19601f8201168201806040525081019061093e919061110f565b61094891906112de565b600081905550600061095b600054610eaf565b90507f000000000000000000000000000000000000000000000000000000000000000073ffffffffffffffffffffffffffffffffffffffff1663a9059cbb33836040518363ffffffff1660e01b81526004016109b8929190611238565b602060405180830381600087803b1580156109d257600080fd5b505af11580156109e6573d6000803e3d6000fd5b505050506040513d601f19601f82011682018060405250810190610a0a91906110b5565b50610a13610d23565b7fb62268a18d99fe191ac8e62f823ab1eec698609a81b2c8de3dac902896b09da63382604051610a44929190611238565b60405180910390a1505050565b807f000000000000000000000000000000000000000000000000000000000000000073ffffffffffffffffffffffffffffffffffffffff1663dd62ed3e33306040518363ffffffff1660e01b8152600401610aad9291906111d8565b60206040518083038186803b158015610ac557600080fd5b505afa158015610ad9573d6000803e3d6000fd5b505050506040513d601f19601f82011682018060405250810190610afd919061110f565b1015610b3e576040517f08c379a0000000000000000000000000000000000000000000000000000000008152600401610b3590611261565b60405180910390fd5b7f000000000000000000000000000000000000000000000000000000000000000073ffffffffffffffffffffffffffffffffffffffff166323b872dd3330846040518463ffffffff1660e01b8152600401610b9b93929190611201565b602060405180830381600087803b158015610bb557600080fd5b505af1158015610bc9573d6000803e3d6000fd5b505050506040513d601f19601f82011682018060405250810190610bed91906110b5565b506000600154600254610c0091906112ad565b82610c0b91906112de565b90508060025411610c1b57600080fd5b7f000000000000000000000000000000000000000000000000000000000000000073ffffffffffffffffffffffffffffffffffffffff1663a9059cbb33836040518363ffffffff1660e01b8152600401610c76929190611238565b602060405180830381600087803b158015610c9057600080fd5b505af1158015610ca4573d6000803e3d6000fd5b505050506040513d601f19601f82011682018060405250810190610cc891906110b5565b50610cd1610d23565b5050565b60035481565b7f000000000000000000000000000000000000000000000000000000000000000081565b7f000000000000000000000000000000000000000000000000000000000000000081565b7f000000000000000000000000000000000000000000000000000000000000000073ffffffffffffffffffffffffffffffffffffffff166370a08231306040518263ffffffff1660e01b8152600401610d7c91906111bd565b60206040518083038186803b158015610d9457600080fd5b505afa158015610da8573d6000803e3d6000fd5b505050506040513d601f19601f82011682018060405250810190610dcc919061110f565b6001819055507f000000000000000000000000000000000000000000000000000000000000000073ffffffffffffffffffffffffffffffffffffffff166370a08231306040518263ffffffff1660e01b8152600401610e2b91906111bd565b60206040518083038186803b158015610e4357600080fd5b505afa158015610e57573d6000803e3d6000fd5b505050506040513d601f19601f82011682018060405250810190610e7b919061110f565b600281905550600154600254610e9191906112ad565b600381905550600254600154610ea791906112ad565b600481905550565b600080821415610ec25760009050611058565b60006001905060008390506000608082901c1115610ee957608081901c9050604082901b91505b6000604082901c1115610f0557604081901c9050602082901b91505b6000602082901c1115610f2157602081901c9050601082901b91505b6000601082901c1115610f3d57601081901c9050600882901b91505b6000600882901c1115610f5957600881901c9050600482901b91505b6000600482901c1115610f7557600481901c9050600282901b91505b6000600282901c1115610f8a57600182901b91505b6001828581610f9c57610f9b6113af565b5b048301901c91506001828581610fb557610fb46113af565b5b048301901c91506001828581610fce57610fcd6113af565b5b048301901c91506001828581610fe757610fe66113af565b5b048301901c9150600182858161100057610fff6113af565b5b048301901c91506001828581611019576110186113af565b5b048301901c91506001828581611032576110316113af565b5b048301901c91506110538283868161104d5761104c6113af565b5b0461105d565b925050505b919050565b600081831061106c578161106e565b825b905092915050565b6000815190506110858161140c565b92915050565b60008135905061109a81611423565b92915050565b6000815190506110af81611423565b92915050565b6000602082840312156110cb576110ca6113de565b5b60006110d984828501611076565b91505092915050565b6000602082840312156110f8576110f76113de565b5b60006111068482850161108b565b91505092915050565b600060208284031215611125576111246113de565b5b6000611133848285016110a0565b91505092915050565b60008060408385031215611153576111526113de565b5b60006111618582860161108b565b92505060206111728582860161108b565b9150509250929050565b61118581611338565b82525050565b600061119860158361129c565b91506111a3826113e3565b602082019050919050565b6111b781611376565b82525050565b60006020820190506111d2600083018461117c565b92915050565b60006040820190506111ed600083018561117c565b6111fa602083018461117c565b9392505050565b6000606082019050611216600083018661117c565b611223602083018561117c565b61123060408301846111ae565b949350505050565b600060408201905061124d600083018561117c565b61125a60208301846111ae565b9392505050565b6000602082019050818103600083015261127a8161118b565b9050919050565b600060208201905061129660008301846111ae565b92915050565b600082825260208201905092915050565b60006112b882611376565b91506112c383611376565b9250826112d3576112d26113af565b5b828204905092915050565b60006112e982611376565b91506112f483611376565b9250817fffffffffffffffffffffffffffffffffffffffffffffffffffffffffffffffff048311821515161561132d5761132c611380565b5b828202905092915050565b600061134382611356565b9050919050565b60008115159050919050565b600073ffffffffffffffffffffffffffffffffffffffff82169050919050565b6000819050919050565b7f4e487b7100000000000000000000000000000000000000000000000000000000600052601160045260246000fd5b7f4e487b7100000000000000000000000000000000000000000000000000000000600052601260045260246000fd5b600080fd5b7f436f6e7472616374206e6f7420617070726f7665640000000000000000000000600082015250565b6114158161134a565b811461142057600080fd5b50565b61142c81611376565b811461143757600080fd5b5056fea2646970667358221220446d95eedec98e6b834df55bcb0fbd47edbd1ebfedc23024c0fb45289c0ae22864736f6c63430008070033",
					"opcodes": "PUSH1 0xE0 PUSH1 0x40 MSTORE CALLVALUE DUP1 ISZERO PUSH3 0x11 JUMPI PUSH1 0x0 DUP1 REVERT JUMPDEST POP PUSH1 0x40 MLOAD PUSH3 0x16BD CODESIZE SUB DUP1 PUSH3 0x16BD DUP4 CODECOPY DUP2 DUP2 ADD PUSH1 0x40 MSTORE DUP2 ADD SWAP1 PUSH3 0x37 SWAP2 SWAP1 PUSH3 0xFC JUMP JUMPDEST DUP3 PUSH20 0xFFFFFFFFFFFFFFFFFFFFFFFFFFFFFFFFFFFFFFFF AND PUSH1 0x80 DUP2 PUSH20 0xFFFFFFFFFFFFFFFFFFFFFFFFFFFFFFFFFFFFFFFF AND PUSH1 0x60 SHL DUP2 MSTORE POP POP DUP2 PUSH20 0xFFFFFFFFFFFFFFFFFFFFFFFFFFFFFFFFFFFFFFFF AND PUSH1 0xA0 DUP2 PUSH20 0xFFFFFFFFFFFFFFFFFFFFFFFFFFFFFFFFFFFFFFFF AND PUSH1 0x60 SHL DUP2 MSTORE POP POP DUP1 PUSH20 0xFFFFFFFFFFFFFFFFFFFFFFFFFFFFFFFFFFFFFFFF AND PUSH1 0xC0 DUP2 PUSH20 0xFFFFFFFFFFFFFFFFFFFFFFFFFFFFFFFFFFFFFFFF AND PUSH1 0x60 SHL DUP2 MSTORE POP POP POP POP POP PUSH3 0x1AB JUMP JUMPDEST PUSH1 0x0 DUP2 MLOAD SWAP1 POP PUSH3 0xF6 DUP2 PUSH3 0x191 JUMP JUMPDEST SWAP3 SWAP2 POP POP JUMP JUMPDEST PUSH1 0x0 DUP1 PUSH1 0x0 PUSH1 0x60 DUP5 DUP7 SUB SLT ISZERO PUSH3 0x118 JUMPI PUSH3 0x117 PUSH3 0x18C JUMP JUMPDEST JUMPDEST PUSH1 0x0 PUSH3 0x128 DUP7 DUP3 DUP8 ADD PUSH3 0xE5 JUMP JUMPDEST SWAP4 POP POP PUSH1 0x20 PUSH3 0x13B DUP7 DUP3 DUP8 ADD PUSH3 0xE5 JUMP JUMPDEST SWAP3 POP POP PUSH1 0x40 PUSH3 0x14E DUP7 DUP3 DUP8 ADD PUSH3 0xE5 JUMP JUMPDEST SWAP2 POP POP SWAP3 POP SWAP3 POP SWAP3 JUMP JUMPDEST PUSH1 0x0 PUSH3 0x165 DUP3 PUSH3 0x16C JUMP JUMPDEST SWAP1 POP SWAP2 SWAP1 POP JUMP JUMPDEST PUSH1 0x0 PUSH20 0xFFFFFFFFFFFFFFFFFFFFFFFFFFFFFFFFFFFFFFFF DUP3 AND SWAP1 POP SWAP2 SWAP1 POP JUMP JUMPDEST PUSH1 0x0 DUP1 REVERT JUMPDEST PUSH3 0x19C DUP2 PUSH3 0x158 JUMP JUMPDEST DUP2 EQ PUSH3 0x1A8 JUMPI PUSH1 0x0 DUP1 REVERT JUMPDEST POP JUMP JUMPDEST PUSH1 0x80 MLOAD PUSH1 0x60 SHR PUSH1 0xA0 MLOAD PUSH1 0x60 SHR PUSH1 0xC0 MLOAD PUSH1 0x60 SHR PUSH2 0x1470 PUSH3 0x24D PUSH1 0x0 CODECOPY PUSH1 0x0 DUP2 DUP2 PUSH2 0x95F ADD MSTORE PUSH2 0xCDD ADD MSTORE PUSH1 0x0 DUP2 DUP2 PUSH2 0x219 ADD MSTORE DUP2 DUP2 PUSH2 0x305 ADD MSTORE DUP2 DUP2 PUSH2 0x5A2 ADD MSTORE DUP2 DUP2 PUSH2 0x73E ADD MSTORE DUP2 DUP2 PUSH2 0x7EE ADD MSTORE DUP2 DUP2 PUSH2 0xC1D ADD MSTORE DUP2 DUP2 PUSH2 0xD01 ADD MSTORE PUSH2 0xDD4 ADD MSTORE PUSH1 0x0 DUP2 DUP2 PUSH2 0x1F4 ADD MSTORE DUP2 DUP2 PUSH2 0x3E2 ADD MSTORE DUP2 DUP2 PUSH2 0x4B5 ADD MSTORE DUP2 DUP2 PUSH2 0x68E ADD MSTORE DUP2 DUP2 PUSH2 0x897 ADD MSTORE DUP2 DUP2 PUSH2 0xA54 ADD MSTORE DUP2 DUP2 PUSH2 0xB40 ADD MSTORE PUSH2 0xD25 ADD MSTORE PUSH2 0x1470 PUSH1 0x0 RETURN INVALID PUSH1 0x80 PUSH1 0x40 MSTORE CALLVALUE DUP1 ISZERO PUSH2 0x10 JUMPI PUSH1 0x0 DUP1 REVERT JUMPDEST POP PUSH1 0x4 CALLDATASIZE LT PUSH2 0xA9 JUMPI PUSH1 0x0 CALLDATALOAD PUSH1 0xE0 SHR DUP1 PUSH4 0x7464FC3D GT PUSH2 0x71 JUMPI DUP1 PUSH4 0x7464FC3D EQ PUSH2 0x142 JUMPI DUP1 PUSH4 0x7A16AF7F EQ PUSH2 0x160 JUMPI DUP1 PUSH4 0x9C117F0F EQ PUSH2 0x17C JUMPI DUP1 PUSH4 0xA0A986F1 EQ PUSH2 0x198 JUMPI DUP1 PUSH4 0xBA9C6845 EQ PUSH2 0x1B6 JUMPI DUP1 PUSH4 0xD21220A7 EQ PUSH2 0x1D4 JUMPI PUSH2 0xA9 JUMP JUMPDEST DUP1 PUSH4 0xDFE1681 EQ PUSH2 0xAE JUMPI DUP1 PUSH4 0x2AF4EC36 EQ PUSH2 0xCC JUMPI DUP1 PUSH4 0x443CB4BC EQ PUSH2 0xE8 JUMPI DUP1 PUSH4 0x5A76F25E EQ PUSH2 0x106 JUMPI DUP1 PUSH4 0x6CAF25CE EQ PUSH2 0x124 JUMPI JUMPDEST PUSH1 0x0 DUP1 REVERT JUMPDEST PUSH2 0xB6 PUSH2 0x1F2 JUMP JUMPDEST PUSH1 0x40 MLOAD PUSH2 0xC3 SWAP2 SWAP1 PUSH2 0x11BD JUMP JUMPDEST PUSH1 0x40 MLOAD DUP1 SWAP2 SUB SWAP1 RETURN JUMPDEST PUSH2 0xE6 PUSH1 0x4 DUP1 CALLDATASIZE SUB DUP2 ADD SWAP1 PUSH2 0xE1 SWAP2 SWAP1 PUSH2 0x10E2 JUMP JUMPDEST PUSH2 0x216 JUMP JUMPDEST STOP JUMPDEST PUSH2 0xF0 PUSH2 0x49A JUMP JUMPDEST PUSH1 0x40 MLOAD PUSH2 0xFD SWAP2 SWAP1 PUSH2 0x1281 JUMP JUMPDEST PUSH1 0x40 MLOAD DUP1 SWAP2 SUB SWAP1 RETURN JUMPDEST PUSH2 0x10E PUSH2 0x4A0 JUMP JUMPDEST PUSH1 0x40 MLOAD PUSH2 0x11B SWAP2 SWAP1 PUSH2 0x1281 JUMP JUMPDEST PUSH1 0x40 MLOAD DUP1 SWAP2 SUB SWAP1 RETURN JUMPDEST PUSH2 0x12C PUSH2 0x4A6 JUMP JUMPDEST PUSH1 0x40 MLOAD PUSH2 0x139 SWAP2 SWAP1 PUSH2 0x1281 JUMP JUMPDEST PUSH1 0x40 MLOAD DUP1 SWAP2 SUB SWAP1 RETURN JUMPDEST PUSH2 0x14A PUSH2 0x4AC JUMP JUMPDEST PUSH1 0x40 MLOAD PUSH2 0x157 SWAP2 SWAP1 PUSH2 0x1281 JUMP JUMPDEST PUSH1 0x40 MLOAD DUP1 SWAP2 SUB SWAP1 RETURN JUMPDEST PUSH2 0x17A PUSH1 0x4 DUP1 CALLDATASIZE SUB DUP2 ADD SWAP1 PUSH2 0x175 SWAP2 SWAP1 PUSH2 0x113C JUMP JUMPDEST PUSH2 0x4B2 JUMP JUMPDEST STOP JUMPDEST PUSH2 0x196 PUSH1 0x4 DUP1 CALLDATASIZE SUB DUP2 ADD SWAP1 PUSH2 0x191 SWAP2 SWAP1 PUSH2 0x10E2 JUMP JUMPDEST PUSH2 0xA51 JUMP JUMPDEST STOP JUMPDEST PUSH2 0x1A0 PUSH2 0xCD5 JUMP JUMPDEST PUSH1 0x40 MLOAD PUSH2 0x1AD SWAP2 SWAP1 PUSH2 0x1281 JUMP JUMPDEST PUSH1 0x40 MLOAD DUP1 SWAP2 SUB SWAP1 RETURN JUMPDEST PUSH2 0x1BE PUSH2 0xCDB JUMP JUMPDEST PUSH1 0x40 MLOAD PUSH2 0x1CB SWAP2 SWAP1 PUSH2 0x11BD JUMP JUMPDEST PUSH1 0x40 MLOAD DUP1 SWAP2 SUB SWAP1 RETURN JUMPDEST PUSH2 0x1DC PUSH2 0xCFF JUMP JUMPDEST PUSH1 0x40 MLOAD PUSH2 0x1E9 SWAP2 SWAP1 PUSH2 0x11BD JUMP JUMPDEST PUSH1 0x40 MLOAD DUP1 SWAP2 SUB SWAP1 RETURN JUMPDEST PUSH32 0x0 DUP2 JUMP JUMPDEST DUP1 PUSH32 0x0 PUSH20 0xFFFFFFFFFFFFFFFFFFFFFFFFFFFFFFFFFFFFFFFF AND PUSH4 0xDD62ED3E CALLER ADDRESS PUSH1 0x40 MLOAD DUP4 PUSH4 0xFFFFFFFF AND PUSH1 0xE0 SHL DUP2 MSTORE PUSH1 0x4 ADD PUSH2 0x272 SWAP3 SWAP2 SWAP1 PUSH2 0x11D8 JUMP JUMPDEST PUSH1 0x20 PUSH1 0x40 MLOAD DUP1 DUP4 SUB DUP2 DUP7 DUP1 EXTCODESIZE ISZERO DUP1 ISZERO PUSH2 0x28A JUMPI PUSH1 0x0 DUP1 REVERT JUMPDEST POP GAS STATICCALL ISZERO DUP1 ISZERO PUSH2 0x29E JUMPI RETURNDATASIZE PUSH1 0x0 DUP1 RETURNDATACOPY RETURNDATASIZE PUSH1 0x0 REVERT JUMPDEST POP POP POP POP PUSH1 0x40 MLOAD RETURNDATASIZE PUSH1 0x1F NOT PUSH1 0x1F DUP3 ADD AND DUP3 ADD DUP1 PUSH1 0x40 MSTORE POP DUP2 ADD SWAP1 PUSH2 0x2C2 SWAP2 SWAP1 PUSH2 0x110F JUMP JUMPDEST LT ISZERO PUSH2 0x303 JUMPI PUSH1 0x40 MLOAD PUSH32 0x8C379A000000000000000000000000000000000000000000000000000000000 DUP2 MSTORE PUSH1 0x4 ADD PUSH2 0x2FA SWAP1 PUSH2 0x1261 JUMP JUMPDEST PUSH1 0x40 MLOAD DUP1 SWAP2 SUB SWAP1 REVERT JUMPDEST PUSH32 0x0 PUSH20 0xFFFFFFFFFFFFFFFFFFFFFFFFFFFFFFFFFFFFFFFF AND PUSH4 0x23B872DD CALLER ADDRESS DUP5 PUSH1 0x40 MLOAD DUP5 PUSH4 0xFFFFFFFF AND PUSH1 0xE0 SHL DUP2 MSTORE PUSH1 0x4 ADD PUSH2 0x360 SWAP4 SWAP3 SWAP2 SWAP1 PUSH2 0x1201 JUMP JUMPDEST PUSH1 0x20 PUSH1 0x40 MLOAD DUP1 DUP4 SUB DUP2 PUSH1 0x0 DUP8 DUP1 EXTCODESIZE ISZERO DUP1 ISZERO PUSH2 0x37A JUMPI PUSH1 0x0 DUP1 REVERT JUMPDEST POP GAS CALL ISZERO DUP1 ISZERO PUSH2 0x38E JUMPI RETURNDATASIZE PUSH1 0x0 DUP1 RETURNDATACOPY RETURNDATASIZE PUSH1 0x0 REVERT JUMPDEST POP POP POP POP PUSH1 0x40 MLOAD RETURNDATASIZE PUSH1 0x1F NOT PUSH1 0x1F DUP3 ADD AND DUP3 ADD DUP1 PUSH1 0x40 MSTORE POP DUP2 ADD SWAP1 PUSH2 0x3B2 SWAP2 SWAP1 PUSH2 0x10B5 JUMP JUMPDEST POP PUSH1 0x0 PUSH1 0x2 SLOAD PUSH1 0x1 SLOAD PUSH2 0x3C5 SWAP2 SWAP1 PUSH2 0x12AD JUMP JUMPDEST DUP3 PUSH2 0x3D0 SWAP2 SWAP1 PUSH2 0x12DE JUMP JUMPDEST SWAP1 POP DUP1 PUSH1 0x1 SLOAD GT PUSH2 0x3E0 JUMPI PUSH1 0x0 DUP1 REVERT JUMPDEST PUSH32 0x0 PUSH20 0xFFFFFFFFFFFFFFFFFFFFFFFFFFFFFFFFFFFFFFFF AND PUSH4 0xA9059CBB CALLER DUP4 PUSH1 0x40 MLOAD DUP4 PUSH4 0xFFFFFFFF AND PUSH1 0xE0 SHL DUP2 MSTORE PUSH1 0x4 ADD PUSH2 0x43B SWAP3 SWAP2 SWAP1 PUSH2 0x1238 JUMP JUMPDEST PUSH1 0x20 PUSH1 0x40 MLOAD DUP1 DUP4 SUB DUP2 PUSH1 0x0 DUP8 DUP1 EXTCODESIZE ISZERO DUP1 ISZERO PUSH2 0x455 JUMPI PUSH1 0x0 DUP1 REVERT JUMPDEST POP GAS CALL ISZERO DUP1 ISZERO PUSH2 0x469 JUMPI RETURNDATASIZE PUSH1 0x0 DUP1 RETURNDATACOPY RETURNDATASIZE PUSH1 0x0 REVERT JUMPDEST POP POP POP POP PUSH1 0x40 MLOAD RETURNDATASIZE PUSH1 0x1F NOT PUSH1 0x1F DUP3 ADD AND DUP3 ADD DUP1 PUSH1 0x40 MSTORE POP DUP2 ADD SWAP1 PUSH2 0x48D SWAP2 SWAP1 PUSH2 0x10B5 JUMP JUMPDEST POP PUSH2 0x496 PUSH2 0xD23 JUMP JUMPDEST POP POP JUMP JUMPDEST PUSH1 0x1 SLOAD DUP2 JUMP JUMPDEST PUSH1 0x2 SLOAD DUP2 JUMP JUMPDEST PUSH1 0x4 SLOAD DUP2 JUMP JUMPDEST PUSH1 0x0 SLOAD DUP2 JUMP JUMPDEST DUP2 PUSH32 0x0 PUSH20 0xFFFFFFFFFFFFFFFFFFFFFFFFFFFFFFFFFFFFFFFF AND PUSH4 0xDD62ED3E CALLER ADDRESS PUSH1 0x40 MLOAD DUP4 PUSH4 0xFFFFFFFF AND PUSH1 0xE0 SHL DUP2 MSTORE PUSH1 0x4 ADD PUSH2 0x50E SWAP3 SWAP2 SWAP1 PUSH2 0x11D8 JUMP JUMPDEST PUSH1 0x20 PUSH1 0x40 MLOAD DUP1 DUP4 SUB DUP2 DUP7 DUP1 EXTCODESIZE ISZERO DUP1 ISZERO PUSH2 0x526 JUMPI PUSH1 0x0 DUP1 REVERT JUMPDEST POP GAS STATICCALL ISZERO DUP1 ISZERO PUSH2 0x53A JUMPI RETURNDATASIZE PUSH1 0x0 DUP1 RETURNDATACOPY RETURNDATASIZE PUSH1 0x0 REVERT JUMPDEST POP POP POP POP PUSH1 0x40 MLOAD RETURNDATASIZE PUSH1 0x1F NOT PUSH1 0x1F DUP3 ADD AND DUP3 ADD DUP1 PUSH1 0x40 MSTORE POP DUP2 ADD SWAP1 PUSH2 0x55E SWAP2 SWAP1 PUSH2 0x110F JUMP JUMPDEST LT ISZERO PUSH2 0x59F JUMPI PUSH1 0x40 MLOAD PUSH32 0x8C379A000000000000000000000000000000000000000000000000000000000 DUP2 MSTORE PUSH1 0x4 ADD PUSH2 0x596 SWAP1 PUSH2 0x1261 JUMP JUMPDEST PUSH1 0x40 MLOAD DUP1 SWAP2 SUB SWAP1 REVERT JUMPDEST DUP1 PUSH32 0x0 PUSH20 0xFFFFFFFFFFFFFFFFFFFFFFFFFFFFFFFFFFFFFFFF AND PUSH4 0xDD62ED3E CALLER ADDRESS PUSH1 0x40 MLOAD DUP4 PUSH4 0xFFFFFFFF AND PUSH1 0xE0 SHL DUP2 MSTORE PUSH1 0x4 ADD PUSH2 0x5FB SWAP3 SWAP2 SWAP1 PUSH2 0x11D8 JUMP JUMPDEST PUSH1 0x20 PUSH1 0x40 MLOAD DUP1 DUP4 SUB DUP2 DUP7 DUP1 EXTCODESIZE ISZERO DUP1 ISZERO PUSH2 0x613 JUMPI PUSH1 0x0 DUP1 REVERT JUMPDEST POP GAS STATICCALL ISZERO DUP1 ISZERO PUSH2 0x627 JUMPI RETURNDATASIZE PUSH1 0x0 DUP1 RETURNDATACOPY RETURNDATASIZE PUSH1 0x0 REVERT JUMPDEST POP POP POP POP PUSH1 0x40 MLOAD RETURNDATASIZE PUSH1 0x1F NOT PUSH1 0x1F DUP3 ADD AND DUP3 ADD DUP1 PUSH1 0x40 MSTORE POP DUP2 ADD SWAP1 PUSH2 0x64B SWAP2 SWAP1 PUSH2 0x110F JUMP JUMPDEST LT ISZERO PUSH2 0x68C JUMPI PUSH1 0x40 MLOAD PUSH32 0x8C379A000000000000000000000000000000000000000000000000000000000 DUP2 MSTORE PUSH1 0x4 ADD PUSH2 0x683 SWAP1 PUSH2 0x1261 JUMP JUMPDEST PUSH1 0x40 MLOAD DUP1 SWAP2 SUB SWAP1 REVERT JUMPDEST PUSH32 0x0 PUSH20 0xFFFFFFFFFFFFFFFFFFFFFFFFFFFFFFFFFFFFFFFF AND PUSH4 0x23B872DD CALLER ADDRESS DUP6 PUSH1 0x40 MLOAD DUP5 PUSH4 0xFFFFFFFF AND PUSH1 0xE0 SHL DUP2 MSTORE PUSH1 0x4 ADD PUSH2 0x6E9 SWAP4 SWAP3 SWAP2 SWAP1 PUSH2 0x1201 JUMP JUMPDEST PUSH1 0x20 PUSH1 0x40 MLOAD DUP1 DUP4 SUB DUP2 PUSH1 0x0 DUP8 DUP1 EXTCODESIZE ISZERO DUP1 ISZERO PUSH2 0x703 JUMPI PUSH1 0x0 DUP1 REVERT JUMPDEST POP GAS CALL ISZERO DUP1 ISZERO PUSH2 0x717 JUMPI RETURNDATASIZE PUSH1 0x0 DUP1 RETURNDATACOPY RETURNDATASIZE PUSH1 0x0 REVERT JUMPDEST POP POP POP POP PUSH1 0x40 MLOAD RETURNDATASIZE PUSH1 0x1F NOT PUSH1 0x1F DUP3 ADD AND DUP3 ADD DUP1 PUSH1 0x40 MSTORE POP DUP2 ADD SWAP1 PUSH2 0x73B SWAP2 SWAP1 PUSH2 0x10B5 JUMP JUMPDEST POP PUSH32 0x0 PUSH20 0xFFFFFFFFFFFFFFFFFFFFFFFFFFFFFFFFFFFFFFFF AND PUSH4 0x23B872DD CALLER ADDRESS DUP5 PUSH1 0x40 MLOAD DUP5 PUSH4 0xFFFFFFFF AND PUSH1 0xE0 SHL DUP2 MSTORE PUSH1 0x4 ADD PUSH2 0x799 SWAP4 SWAP3 SWAP2 SWAP1 PUSH2 0x1201 JUMP JUMPDEST PUSH1 0x20 PUSH1 0x40 MLOAD DUP1 DUP4 SUB DUP2 PUSH1 0x0 DUP8 DUP1 EXTCODESIZE ISZERO DUP1 ISZERO PUSH2 0x7B3 JUMPI PUSH1 0x0 DUP1 REVERT JUMPDEST POP GAS CALL ISZERO DUP1 ISZERO PUSH2 0x7C7 JUMPI RETURNDATASIZE PUSH1 0x0 DUP1 RETURNDATACOPY RETURNDATASIZE PUSH1 0x0 REVERT JUMPDEST POP POP POP POP PUSH1 0x40 MLOAD RETURNDATASIZE PUSH1 0x1F NOT PUSH1 0x1F DUP3 ADD AND DUP3 ADD DUP1 PUSH1 0x40 MSTORE POP DUP2 ADD SWAP1 PUSH2 0x7EB SWAP2 SWAP1 PUSH2 0x10B5 JUMP JUMPDEST POP PUSH32 0x0 PUSH20 0xFFFFFFFFFFFFFFFFFFFFFFFFFFFFFFFFFFFFFFFF AND PUSH4 0x70A08231 ADDRESS PUSH1 0x40 MLOAD DUP3 PUSH4 0xFFFFFFFF AND PUSH1 0xE0 SHL DUP2 MSTORE PUSH1 0x4 ADD PUSH2 0x845 SWAP2 SWAP1 PUSH2 0x11BD JUMP JUMPDEST PUSH1 0x20 PUSH1 0x40 MLOAD DUP1 DUP4 SUB DUP2 DUP7 DUP1 EXTCODESIZE ISZERO DUP1 ISZERO PUSH2 0x85D JUMPI PUSH1 0x0 DUP1 REVERT JUMPDEST POP GAS STATICCALL ISZERO DUP1 ISZERO PUSH2 0x871 JUMPI RETURNDATASIZE PUSH1 0x0 DUP1 RETURNDATACOPY RETURNDATASIZE PUSH1 0x0 REVERT JUMPDEST POP POP POP POP PUSH1 0x40 MLOAD RETURNDATASIZE PUSH1 0x1F NOT PUSH1 0x1F DUP3 ADD AND DUP3 ADD DUP1 PUSH1 0x40 MSTORE POP DUP2 ADD SWAP1 PUSH2 0x895 SWAP2 SWAP1 PUSH2 0x110F JUMP JUMPDEST PUSH32 0x0 PUSH20 0xFFFFFFFFFFFFFFFFFFFFFFFFFFFFFFFFFFFFFFFF AND PUSH4 0x70A08231 ADDRESS PUSH1 0x40 MLOAD DUP3 PUSH4 0xFFFFFFFF AND PUSH1 0xE0 SHL DUP2 MSTORE PUSH1 0x4 ADD PUSH2 0x8EE SWAP2 SWAP1 PUSH2 0x11BD JUMP JUMPDEST PUSH1 0x20 PUSH1 0x40 MLOAD DUP1 DUP4 SUB DUP2 DUP7 DUP1 EXTCODESIZE ISZERO DUP1 ISZERO PUSH2 0x906 JUMPI PUSH1 0x0 DUP1 REVERT JUMPDEST POP GAS STATICCALL ISZERO DUP1 ISZERO PUSH2 0x91A JUMPI RETURNDATASIZE PUSH1 0x0 DUP1 RETURNDATACOPY RETURNDATASIZE PUSH1 0x0 REVERT JUMPDEST POP POP POP POP PUSH1 0x40 MLOAD RETURNDATASIZE PUSH1 0x1F NOT PUSH1 0x1F DUP3 ADD AND DUP3 ADD DUP1 PUSH1 0x40 MSTORE POP DUP2 ADD SWAP1 PUSH2 0x93E SWAP2 SWAP1 PUSH2 0x110F JUMP JUMPDEST PUSH2 0x948 SWAP2 SWAP1 PUSH2 0x12DE JUMP JUMPDEST PUSH1 0x0 DUP2 SWAP1 SSTORE POP PUSH1 0x0 PUSH2 0x95B PUSH1 0x0 SLOAD PUSH2 0xEAF JUMP JUMPDEST SWAP1 POP PUSH32 0x0 PUSH20 0xFFFFFFFFFFFFFFFFFFFFFFFFFFFFFFFFFFFFFFFF AND PUSH4 0xA9059CBB CALLER DUP4 PUSH1 0x40 MLOAD DUP4 PUSH4 0xFFFFFFFF AND PUSH1 0xE0 SHL DUP2 MSTORE PUSH1 0x4 ADD PUSH2 0x9B8 SWAP3 SWAP2 SWAP1 PUSH2 0x1238 JUMP JUMPDEST PUSH1 0x20 PUSH1 0x40 MLOAD DUP1 DUP4 SUB DUP2 PUSH1 0x0 DUP8 DUP1 EXTCODESIZE ISZERO DUP1 ISZERO PUSH2 0x9D2 JUMPI PUSH1 0x0 DUP1 REVERT JUMPDEST POP GAS CALL ISZERO DUP1 ISZERO PUSH2 0x9E6 JUMPI RETURNDATASIZE PUSH1 0x0 DUP1 RETURNDATACOPY RETURNDATASIZE PUSH1 0x0 REVERT JUMPDEST POP POP POP POP PUSH1 0x40 MLOAD RETURNDATASIZE PUSH1 0x1F NOT PUSH1 0x1F DUP3 ADD AND DUP3 ADD DUP1 PUSH1 0x40 MSTORE POP DUP2 ADD SWAP1 PUSH2 0xA0A SWAP2 SWAP1 PUSH2 0x10B5 JUMP JUMPDEST POP PUSH2 0xA13 PUSH2 0xD23 JUMP JUMPDEST PUSH32 0xB62268A18D99FE191AC8E62F823AB1EEC698609A81B2C8DE3DAC902896B09DA6 CALLER DUP3 PUSH1 0x40 MLOAD PUSH2 0xA44 SWAP3 SWAP2 SWAP1 PUSH2 0x1238 JUMP JUMPDEST PUSH1 0x40 MLOAD DUP1 SWAP2 SUB SWAP1 LOG1 POP POP POP JUMP JUMPDEST DUP1 PUSH32 0x0 PUSH20 0xFFFFFFFFFFFFFFFFFFFFFFFFFFFFFFFFFFFFFFFF AND PUSH4 0xDD62ED3E CALLER ADDRESS PUSH1 0x40 MLOAD DUP4 PUSH4 0xFFFFFFFF AND PUSH1 0xE0 SHL DUP2 MSTORE PUSH1 0x4 ADD PUSH2 0xAAD SWAP3 SWAP2 SWAP1 PUSH2 0x11D8 JUMP JUMPDEST PUSH1 0x20 PUSH1 0x40 MLOAD DUP1 DUP4 SUB DUP2 DUP7 DUP1 EXTCODESIZE ISZERO DUP1 ISZERO PUSH2 0xAC5 JUMPI PUSH1 0x0 DUP1 REVERT JUMPDEST POP GAS STATICCALL ISZERO DUP1 ISZERO PUSH2 0xAD9 JUMPI RETURNDATASIZE PUSH1 0x0 DUP1 RETURNDATACOPY RETURNDATASIZE PUSH1 0x0 REVERT JUMPDEST POP POP POP POP PUSH1 0x40 MLOAD RETURNDATASIZE PUSH1 0x1F NOT PUSH1 0x1F DUP3 ADD AND DUP3 ADD DUP1 PUSH1 0x40 MSTORE POP DUP2 ADD SWAP1 PUSH2 0xAFD SWAP2 SWAP1 PUSH2 0x110F JUMP JUMPDEST LT ISZERO PUSH2 0xB3E JUMPI PUSH1 0x40 MLOAD PUSH32 0x8C379A000000000000000000000000000000000000000000000000000000000 DUP2 MSTORE PUSH1 0x4 ADD PUSH2 0xB35 SWAP1 PUSH2 0x1261 JUMP JUMPDEST PUSH1 0x40 MLOAD DUP1 SWAP2 SUB SWAP1 REVERT JUMPDEST PUSH32 0x0 PUSH20 0xFFFFFFFFFFFFFFFFFFFFFFFFFFFFFFFFFFFFFFFF AND PUSH4 0x23B872DD CALLER ADDRESS DUP5 PUSH1 0x40 MLOAD DUP5 PUSH4 0xFFFFFFFF AND PUSH1 0xE0 SHL DUP2 MSTORE PUSH1 0x4 ADD PUSH2 0xB9B SWAP4 SWAP3 SWAP2 SWAP1 PUSH2 0x1201 JUMP JUMPDEST PUSH1 0x20 PUSH1 0x40 MLOAD DUP1 DUP4 SUB DUP2 PUSH1 0x0 DUP8 DUP1 EXTCODESIZE ISZERO DUP1 ISZERO PUSH2 0xBB5 JUMPI PUSH1 0x0 DUP1 REVERT JUMPDEST POP GAS CALL ISZERO DUP1 ISZERO PUSH2 0xBC9 JUMPI RETURNDATASIZE PUSH1 0x0 DUP1 RETURNDATACOPY RETURNDATASIZE PUSH1 0x0 REVERT JUMPDEST POP POP POP POP PUSH1 0x40 MLOAD RETURNDATASIZE PUSH1 0x1F NOT PUSH1 0x1F DUP3 ADD AND DUP3 ADD DUP1 PUSH1 0x40 MSTORE POP DUP2 ADD SWAP1 PUSH2 0xBED SWAP2 SWAP1 PUSH2 0x10B5 JUMP JUMPDEST POP PUSH1 0x0 PUSH1 0x1 SLOAD PUSH1 0x2 SLOAD PUSH2 0xC00 SWAP2 SWAP1 PUSH2 0x12AD JUMP JUMPDEST DUP3 PUSH2 0xC0B SWAP2 SWAP1 PUSH2 0x12DE JUMP JUMPDEST SWAP1 POP DUP1 PUSH1 0x2 SLOAD GT PUSH2 0xC1B JUMPI PUSH1 0x0 DUP1 REVERT JUMPDEST PUSH32 0x0 PUSH20 0xFFFFFFFFFFFFFFFFFFFFFFFFFFFFFFFFFFFFFFFF AND PUSH4 0xA9059CBB CALLER DUP4 PUSH1 0x40 MLOAD DUP4 PUSH4 0xFFFFFFFF AND PUSH1 0xE0 SHL DUP2 MSTORE PUSH1 0x4 ADD PUSH2 0xC76 SWAP3 SWAP2 SWAP1 PUSH2 0x1238 JUMP JUMPDEST PUSH1 0x20 PUSH1 0x40 MLOAD DUP1 DUP4 SUB DUP2 PUSH1 0x0 DUP8 DUP1 EXTCODESIZE ISZERO DUP1 ISZERO PUSH2 0xC90 JUMPI PUSH1 0x0 DUP1 REVERT JUMPDEST POP GAS CALL ISZERO DUP1 ISZERO PUSH2 0xCA4 JUMPI RETURNDATASIZE PUSH1 0x0 DUP1 RETURNDATACOPY RETURNDATASIZE PUSH1 0x0 REVERT JUMPDEST POP POP POP POP PUSH1 0x40 MLOAD RETURNDATASIZE PUSH1 0x1F NOT PUSH1 0x1F DUP3 ADD AND DUP3 ADD DUP1 PUSH1 0x40 MSTORE POP DUP2 ADD SWAP1 PUSH2 0xCC8 SWAP2 SWAP1 PUSH2 0x10B5 JUMP JUMPDEST POP PUSH2 0xCD1 PUSH2 0xD23 JUMP JUMPDEST POP POP JUMP JUMPDEST PUSH1 0x3 SLOAD DUP2 JUMP JUMPDEST PUSH32 0x0 DUP2 JUMP JUMPDEST PUSH32 0x0 DUP2 JUMP JUMPDEST PUSH32 0x0 PUSH20 0xFFFFFFFFFFFFFFFFFFFFFFFFFFFFFFFFFFFFFFFF AND PUSH4 0x70A08231 ADDRESS PUSH1 0x40 MLOAD DUP3 PUSH4 0xFFFFFFFF AND PUSH1 0xE0 SHL DUP2 MSTORE PUSH1 0x4 ADD PUSH2 0xD7C SWAP2 SWAP1 PUSH2 0x11BD JUMP JUMPDEST PUSH1 0x20 PUSH1 0x40 MLOAD DUP1 DUP4 SUB DUP2 DUP7 DUP1 EXTCODESIZE ISZERO DUP1 ISZERO PUSH2 0xD94 JUMPI PUSH1 0x0 DUP1 REVERT JUMPDEST POP GAS STATICCALL ISZERO DUP1 ISZERO PUSH2 0xDA8 JUMPI RETURNDATASIZE PUSH1 0x0 DUP1 RETURNDATACOPY RETURNDATASIZE PUSH1 0x0 REVERT JUMPDEST POP POP POP POP PUSH1 0x40 MLOAD RETURNDATASIZE PUSH1 0x1F NOT PUSH1 0x1F DUP3 ADD AND DUP3 ADD DUP1 PUSH1 0x40 MSTORE POP DUP2 ADD SWAP1 PUSH2 0xDCC SWAP2 SWAP1 PUSH2 0x110F JUMP JUMPDEST PUSH1 0x1 DUP2 SWAP1 SSTORE POP PUSH32 0x0 PUSH20 0xFFFFFFFFFFFFFFFFFFFFFFFFFFFFFFFFFFFFFFFF AND PUSH4 0x70A08231 ADDRESS PUSH1 0x40 MLOAD DUP3 PUSH4 0xFFFFFFFF AND PUSH1 0xE0 SHL DUP2 MSTORE PUSH1 0x4 ADD PUSH2 0xE2B SWAP2 SWAP1 PUSH2 0x11BD JUMP JUMPDEST PUSH1 0x20 PUSH1 0x40 MLOAD DUP1 DUP4 SUB DUP2 DUP7 DUP1 EXTCODESIZE ISZERO DUP1 ISZERO PUSH2 0xE43 JUMPI PUSH1 0x0 DUP1 REVERT JUMPDEST POP GAS STATICCALL ISZERO DUP1 ISZERO PUSH2 0xE57 JUMPI RETURNDATASIZE PUSH1 0x0 DUP1 RETURNDATACOPY RETURNDATASIZE PUSH1 0x0 REVERT JUMPDEST POP POP POP POP PUSH1 0x40 MLOAD RETURNDATASIZE PUSH1 0x1F NOT PUSH1 0x1F DUP3 ADD AND DUP3 ADD DUP1 PUSH1 0x40 MSTORE POP DUP2 ADD SWAP1 PUSH2 0xE7B SWAP2 SWAP1 PUSH2 0x110F JUMP JUMPDEST PUSH1 0x2 DUP2 SWAP1 SSTORE POP PUSH1 0x1 SLOAD PUSH1 0x2 SLOAD PUSH2 0xE91 SWAP2 SWAP1 PUSH2 0x12AD JUMP JUMPDEST PUSH1 0x3 DUP2 SWAP1 SSTORE POP PUSH1 0x2 SLOAD PUSH1 0x1 SLOAD PUSH2 0xEA7 SWAP2 SWAP1 PUSH2 0x12AD JUMP JUMPDEST PUSH1 0x4 DUP2 SWAP1 SSTORE POP JUMP JUMPDEST PUSH1 0x0 DUP1 DUP3 EQ ISZERO PUSH2 0xEC2 JUMPI PUSH1 0x0 SWAP1 POP PUSH2 0x1058 JUMP JUMPDEST PUSH1 0x0 PUSH1 0x1 SWAP1 POP PUSH1 0x0 DUP4 SWAP1 POP PUSH1 0x0 PUSH1 0x80 DUP3 SWAP1 SHR GT ISZERO PUSH2 0xEE9 JUMPI PUSH1 0x80 DUP2 SWAP1 SHR SWAP1 POP PUSH1 0x40 DUP3 SWAP1 SHL SWAP2 POP JUMPDEST PUSH1 0x0 PUSH1 0x40 DUP3 SWAP1 SHR GT ISZERO PUSH2 0xF05 JUMPI PUSH1 0x40 DUP2 SWAP1 SHR SWAP1 POP PUSH1 0x20 DUP3 SWAP1 SHL SWAP2 POP JUMPDEST PUSH1 0x0 PUSH1 0x20 DUP3 SWAP1 SHR GT ISZERO PUSH2 0xF21 JUMPI PUSH1 0x20 DUP2 SWAP1 SHR SWAP1 POP PUSH1 0x10 DUP3 SWAP1 SHL SWAP2 POP JUMPDEST PUSH1 0x0 PUSH1 0x10 DUP3 SWAP1 SHR GT ISZERO PUSH2 0xF3D JUMPI PUSH1 0x10 DUP2 SWAP1 SHR SWAP1 POP PUSH1 0x8 DUP3 SWAP1 SHL SWAP2 POP JUMPDEST PUSH1 0x0 PUSH1 0x8 DUP3 SWAP1 SHR GT ISZERO PUSH2 0xF59 JUMPI PUSH1 0x8 DUP2 SWAP1 SHR SWAP1 POP PUSH1 0x4 DUP3 SWAP1 SHL SWAP2 POP JUMPDEST PUSH1 0x0 PUSH1 0x4 DUP3 SWAP1 SHR GT ISZERO PUSH2 0xF75 JUMPI PUSH1 0x4 DUP2 SWAP1 SHR SWAP1 POP PUSH1 0x2 DUP3 SWAP1 SHL SWAP2 POP JUMPDEST PUSH1 0x0 PUSH1 0x2 DUP3 SWAP1 SHR GT ISZERO PUSH2 0xF8A JUMPI PUSH1 0x1 DUP3 SWAP1 SHL SWAP2 POP JUMPDEST PUSH1 0x1 DUP3 DUP6 DUP2 PUSH2 0xF9C JUMPI PUSH2 0xF9B PUSH2 0x13AF JUMP JUMPDEST JUMPDEST DIV DUP4 ADD SWAP1 SHR SWAP2 POP PUSH1 0x1 DUP3 DUP6 DUP2 PUSH2 0xFB5 JUMPI PUSH2 0xFB4 PUSH2 0x13AF JUMP JUMPDEST JUMPDEST DIV DUP4 ADD SWAP1 SHR SWAP2 POP PUSH1 0x1 DUP3 DUP6 DUP2 PUSH2 0xFCE JUMPI PUSH2 0xFCD PUSH2 0x13AF JUMP JUMPDEST JUMPDEST DIV DUP4 ADD SWAP1 SHR SWAP2 POP PUSH1 0x1 DUP3 DUP6 DUP2 PUSH2 0xFE7 JUMPI PUSH2 0xFE6 PUSH2 0x13AF JUMP JUMPDEST JUMPDEST DIV DUP4 ADD SWAP1 SHR SWAP2 POP PUSH1 0x1 DUP3 DUP6 DUP2 PUSH2 0x1000 JUMPI PUSH2 0xFFF PUSH2 0x13AF JUMP JUMPDEST JUMPDEST DIV DUP4 ADD SWAP1 SHR SWAP2 POP PUSH1 0x1 DUP3 DUP6 DUP2 PUSH2 0x1019 JUMPI PUSH2 0x1018 PUSH2 0x13AF JUMP JUMPDEST JUMPDEST DIV DUP4 ADD SWAP1 SHR SWAP2 POP PUSH1 0x1 DUP3 DUP6 DUP2 PUSH2 0x1032 JUMPI PUSH2 0x1031 PUSH2 0x13AF JUMP JUMPDEST JUMPDEST DIV DUP4 ADD SWAP1 SHR SWAP2 POP PUSH2 0x1053 DUP3 DUP4 DUP7 DUP2 PUSH2 0x104D JUMPI PUSH2 0x104C PUSH2 0x13AF JUMP JUMPDEST JUMPDEST DIV PUSH2 0x105D JUMP JUMPDEST SWAP3 POP POP POP JUMPDEST SWAP2 SWAP1 POP JUMP JUMPDEST PUSH1 0x0 DUP2 DUP4 LT PUSH2 0x106C JUMPI DUP2 PUSH2 0x106E JUMP JUMPDEST DUP3 JUMPDEST SWAP1 POP SWAP3 SWAP2 POP POP JUMP JUMPDEST PUSH1 0x0 DUP2 MLOAD SWAP1 POP PUSH2 0x1085 DUP2 PUSH2 0x140C JUMP JUMPDEST SWAP3 SWAP2 POP POP JUMP JUMPDEST PUSH1 0x0 DUP2 CALLDATALOAD SWAP1 POP PUSH2 0x109A DUP2 PUSH2 0x1423 JUMP JUMPDEST SWAP3 SWAP2 POP POP JUMP JUMPDEST PUSH1 0x0 DUP2 MLOAD SWAP1 POP PUSH2 0x10AF DUP2 PUSH2 0x1423 JUMP JUMPDEST SWAP3 SWAP2 POP POP JUMP JUMPDEST PUSH1 0x0 PUSH1 0x20 DUP3 DUP5 SUB SLT ISZERO PUSH2 0x10CB JUMPI PUSH2 0x10CA PUSH2 0x13DE JUMP JUMPDEST JUMPDEST PUSH1 0x0 PUSH2 0x10D9 DUP5 DUP3 DUP6 ADD PUSH2 0x1076 JUMP JUMPDEST SWAP2 POP POP SWAP3 SWAP2 POP POP JUMP JUMPDEST PUSH1 0x0 PUSH1 0x20 DUP3 DUP5 SUB SLT ISZERO PUSH2 0x10F8 JUMPI PUSH2 0x10F7 PUSH2 0x13DE JUMP JUMPDEST JUMPDEST PUSH1 0x0 PUSH2 0x1106 DUP5 DUP3 DUP6 ADD PUSH2 0x108B JUMP JUMPDEST SWAP2 POP POP SWAP3 SWAP2 POP POP JUMP JUMPDEST PUSH1 0x0 PUSH1 0x20 DUP3 DUP5 SUB SLT ISZERO PUSH2 0x1125 JUMPI PUSH2 0x1124 PUSH2 0x13DE JUMP JUMPDEST JUMPDEST PUSH1 0x0 PUSH2 0x1133 DUP5 DUP3 DUP6 ADD PUSH2 0x10A0 JUMP JUMPDEST SWAP2 POP POP SWAP3 SWAP2 POP POP JUMP JUMPDEST PUSH1 0x0 DUP1 PUSH1 0x40 DUP4 DUP6 SUB SLT ISZERO PUSH2 0x1153 JUMPI PUSH2 0x1152 PUSH2 0x13DE JUMP JUMPDEST JUMPDEST PUSH1 0x0 PUSH2 0x1161 DUP6 DUP3 DUP7 ADD PUSH2 0x108B JUMP JUMPDEST SWAP3 POP POP PUSH1 0x20 PUSH2 0x1172 DUP6 DUP3 DUP7 ADD PUSH2 0x108B JUMP JUMPDEST SWAP2 POP POP SWAP3 POP SWAP3 SWAP1 POP JUMP JUMPDEST PUSH2 0x1185 DUP2 PUSH2 0x1338 JUMP JUMPDEST DUP3 MSTORE POP POP JUMP JUMPDEST PUSH1 0x0 PUSH2 0x1198 PUSH1 0x15 DUP4 PUSH2 0x129C JUMP JUMPDEST SWAP2 POP PUSH2 0x11A3 DUP3 PUSH2 0x13E3 JUMP JUMPDEST PUSH1 0x20 DUP3 ADD SWAP1 POP SWAP2 SWAP1 POP JUMP JUMPDEST PUSH2 0x11B7 DUP2 PUSH2 0x1376 JUMP JUMPDEST DUP3 MSTORE POP POP JUMP JUMPDEST PUSH1 0x0 PUSH1 0x20 DUP3 ADD SWAP1 POP PUSH2 0x11D2 PUSH1 0x0 DUP4 ADD DUP5 PUSH2 0x117C JUMP JUMPDEST SWAP3 SWAP2 POP POP JUMP JUMPDEST PUSH1 0x0 PUSH1 0x40 DUP3 ADD SWAP1 POP PUSH2 0x11ED PUSH1 0x0 DUP4 ADD DUP6 PUSH2 0x117C JUMP JUMPDEST PUSH2 0x11FA PUSH1 0x20 DUP4 ADD DUP5 PUSH2 0x117C JUMP JUMPDEST SWAP4 SWAP3 POP POP POP JUMP JUMPDEST PUSH1 0x0 PUSH1 0x60 DUP3 ADD SWAP1 POP PUSH2 0x1216 PUSH1 0x0 DUP4 ADD DUP7 PUSH2 0x117C JUMP JUMPDEST PUSH2 0x1223 PUSH1 0x20 DUP4 ADD DUP6 PUSH2 0x117C JUMP JUMPDEST PUSH2 0x1230 PUSH1 0x40 DUP4 ADD DUP5 PUSH2 0x11AE JUMP JUMPDEST SWAP5 SWAP4 POP POP POP POP JUMP JUMPDEST PUSH1 0x0 PUSH1 0x40 DUP3 ADD SWAP1 POP PUSH2 0x124D PUSH1 0x0 DUP4 ADD DUP6 PUSH2 0x117C JUMP JUMPDEST PUSH2 0x125A PUSH1 0x20 DUP4 ADD DUP5 PUSH2 0x11AE JUMP JUMPDEST SWAP4 SWAP3 POP POP POP JUMP JUMPDEST PUSH1 0x0 PUSH1 0x20 DUP3 ADD SWAP1 POP DUP2 DUP2 SUB PUSH1 0x0 DUP4 ADD MSTORE PUSH2 0x127A DUP2 PUSH2 0x118B JUMP JUMPDEST SWAP1 POP SWAP2 SWAP1 POP JUMP JUMPDEST PUSH1 0x0 PUSH1 0x20 DUP3 ADD SWAP1 POP PUSH2 0x1296 PUSH1 0x0 DUP4 ADD DUP5 PUSH2 0x11AE JUMP JUMPDEST SWAP3 SWAP2 POP POP JUMP JUMPDEST PUSH1 0x0 DUP3 DUP3 MSTORE PUSH1 0x20 DUP3 ADD SWAP1 POP SWAP3 SWAP2 POP POP JUMP JUMPDEST PUSH1 0x0 PUSH2 0x12B8 DUP3 PUSH2 0x1376 JUMP JUMPDEST SWAP2 POP PUSH2 0x12C3 DUP4 PUSH2 0x1376 JUMP JUMPDEST SWAP3 POP DUP3 PUSH2 0x12D3 JUMPI PUSH2 0x12D2 PUSH2 0x13AF JUMP JUMPDEST JUMPDEST DUP3 DUP3 DIV SWAP1 POP SWAP3 SWAP2 POP POP JUMP JUMPDEST PUSH1 0x0 PUSH2 0x12E9 DUP3 PUSH2 0x1376 JUMP JUMPDEST SWAP2 POP PUSH2 0x12F4 DUP4 PUSH2 0x1376 JUMP JUMPDEST SWAP3 POP DUP2 PUSH32 0xFFFFFFFFFFFFFFFFFFFFFFFFFFFFFFFFFFFFFFFFFFFFFFFFFFFFFFFFFFFFFFFF DIV DUP4 GT DUP3 ISZERO ISZERO AND ISZERO PUSH2 0x132D JUMPI PUSH2 0x132C PUSH2 0x1380 JUMP JUMPDEST JUMPDEST DUP3 DUP3 MUL SWAP1 POP SWAP3 SWAP2 POP POP JUMP JUMPDEST PUSH1 0x0 PUSH2 0x1343 DUP3 PUSH2 0x1356 JUMP JUMPDEST SWAP1 POP SWAP2 SWAP1 POP JUMP JUMPDEST PUSH1 0x0 DUP2 ISZERO ISZERO SWAP1 POP SWAP2 SWAP1 POP JUMP JUMPDEST PUSH1 0x0 PUSH20 0xFFFFFFFFFFFFFFFFFFFFFFFFFFFFFFFFFFFFFFFF DUP3 AND SWAP1 POP SWAP2 SWAP1 POP JUMP JUMPDEST PUSH1 0x0 DUP2 SWAP1 POP SWAP2 SWAP1 POP JUMP JUMPDEST PUSH32 0x4E487B7100000000000000000000000000000000000000000000000000000000 PUSH1 0x0 MSTORE PUSH1 0x11 PUSH1 0x4 MSTORE PUSH1 0x24 PUSH1 0x0 REVERT JUMPDEST PUSH32 0x4E487B7100000000000000000000000000000000000000000000000000000000 PUSH1 0x0 MSTORE PUSH1 0x12 PUSH1 0x4 MSTORE PUSH1 0x24 PUSH1 0x0 REVERT JUMPDEST PUSH1 0x0 DUP1 REVERT JUMPDEST PUSH32 0x436F6E7472616374206E6F7420617070726F7665640000000000000000000000 PUSH1 0x0 DUP3 ADD MSTORE POP JUMP JUMPDEST PUSH2 0x1415 DUP2 PUSH2 0x134A JUMP JUMPDEST DUP2 EQ PUSH2 0x1420 JUMPI PUSH1 0x0 DUP1 REVERT JUMPDEST POP JUMP JUMPDEST PUSH2 0x142C DUP2 PUSH2 0x1376 JUMP JUMPDEST DUP2 EQ PUSH2 0x1437 JUMPI PUSH1 0x0 DUP1 REVERT JUMPDEST POP JUMP INVALID LOG2 PUSH5 0x6970667358 0x22 SLT KECCAK256 DIFFICULTY PUSH14 0x95EEDEC98E6B834DF55BCB0FBD47 0xED 0xBD 0x1E 0xBF 0xED 0xC2 ADDRESS 0x24 0xC0 0xFB GASLIMIT 0x28 SWAP13 EXP 0xE2 0x28 PUSH5 0x736F6C6343 STOP ADDMOD SMOD STOP CALLER "
				},
				"gasEstimates": {
					"creation": {
						"codeDepositCost": "1046400",
						"executionCost": "infinite",
						"totalCost": "infinite"
					},
					"external": {
						"get0(uint256)": "infinite",
						"get1(uint256)": "infinite",
						"kLast()": "2429",
						"ltrAddress()": "infinite",
						"price0()": "2495",
						"price1()": "2518",
						"provideLiquidity(uint256,uint256)": "infinite",
						"reserve0()": "2474",
						"reserve1()": "2496",
						"token0()": "infinite",
						"token1()": "infinite"
					},
					"internal": {
						"update()": "infinite"
					}
				},
				"methodIdentifiers": {
					"get0(uint256)": "2af4ec36",
					"get1(uint256)": "9c117f0f",
					"kLast()": "7464fc3d",
					"ltrAddress()": "ba9c6845",
					"price0()": "a0a986f1",
					"price1()": "6caf25ce",
					"provideLiquidity(uint256,uint256)": "7a16af7f",
					"reserve0()": "443cb4bc",
					"reserve1()": "5a76f25e",
					"token0()": "0dfe1681",
					"token1()": "d21220a7"
				}
			},
			"storageLayout": {
				"storage": [
					{
						"astId": 593,
						"contract": "contracts/Pool.sol:Pool",
						"label": "kLast",
						"offset": 0,
						"slot": "0",
						"type": "t_uint256"
					},
					{
						"astId": 595,
						"contract": "contracts/Pool.sol:Pool",
						"label": "reserve0",
						"offset": 0,
						"slot": "1",
						"type": "t_uint256"
					},
					{
						"astId": 597,
						"contract": "contracts/Pool.sol:Pool",
						"label": "reserve1",
						"offset": 0,
						"slot": "2",
						"type": "t_uint256"
					},
					{
						"astId": 599,
						"contract": "contracts/Pool.sol:Pool",
						"label": "price0",
						"offset": 0,
						"slot": "3",
						"type": "t_uint256"
					},
					{
						"astId": 601,
						"contract": "contracts/Pool.sol:Pool",
						"label": "price1",
						"offset": 0,
						"slot": "4",
						"type": "t_uint256"
					}
				],
				"types": {
					"t_uint256": {
						"encoding": "inplace",
						"label": "uint256",
						"numberOfBytes": "32"
					}
				}
			},
			"userdoc": {
				"kind": "user",
				"methods": {},
				"version": 1
			}
		}
	}
}