{
	"contracts/Auction_1.sol": {
		"NFTAuction": {
			"abi": [
				{
					"inputs": [
						{
							"internalType": "address",
							"name": "_auctioneer",
							"type": "address"
						},
						{
							"internalType": "uint256",
							"name": "_startPrice",
							"type": "uint256"
						},
						{
							"internalType": "uint256",
							"name": "_tokenId",
							"type": "uint256"
						},
						{
							"internalType": "address",
							"name": "_tokenContract",
							"type": "address"
						}
					],
					"stateMutability": "nonpayable",
					"type": "constructor"
				},
				{
					"anonymous": false,
					"inputs": [
						{
							"indexed": false,
							"internalType": "enum NFTAuction.AuctionStatus",
							"name": "_status",
							"type": "uint8"
						}
					],
					"name": "AuctionState",
					"type": "event"
				},
				{
					"inputs": [],
					"name": "bid",
					"outputs": [],
					"stateMutability": "payable",
					"type": "function"
				},
				{
					"inputs": [
						{
							"internalType": "address",
							"name": "",
							"type": "address"
						}
					],
					"name": "bidsRegister",
					"outputs": [
						{
							"internalType": "uint256",
							"name": "",
							"type": "uint256"
						}
					],
					"stateMutability": "view",
					"type": "function"
				},
				{
					"inputs": [],
					"name": "closeAuction",
					"outputs": [],
					"stateMutability": "nonpayable",
					"type": "function"
				},
				{
					"inputs": [],
					"name": "highestBid",
					"outputs": [
						{
							"internalType": "uint256",
							"name": "",
							"type": "uint256"
						}
					],
					"stateMutability": "view",
					"type": "function"
				},
				{
					"inputs": [],
					"name": "initialPrice",
					"outputs": [
						{
							"internalType": "uint256",
							"name": "",
							"type": "uint256"
						}
					],
					"stateMutability": "view",
					"type": "function"
				},
				{
					"inputs": [],
					"name": "startAuction",
					"outputs": [],
					"stateMutability": "nonpayable",
					"type": "function"
				},
				{
					"inputs": [],
					"name": "tokenContract",
					"outputs": [
						{
							"internalType": "address",
							"name": "",
							"type": "address"
						}
					],
					"stateMutability": "view",
					"type": "function"
				},
				{
					"inputs": [],
					"name": "tokenId",
					"outputs": [
						{
							"internalType": "uint256",
							"name": "",
							"type": "uint256"
						}
					],
					"stateMutability": "view",
					"type": "function"
				}
			],
			"devdoc": {
				"kind": "dev",
				"methods": {},
				"version": 1
			},
			"evm": {
				"assembly": "    /* \"contracts/Auction_1.sol\":62:1648  contract NFTAuction {... */\n  mstore(0x40, 0xc0)\n    /* \"contracts/Auction_1.sol\":404:699  constructor(address _auctioneer, uint256 _startPrice, uint256 _tokenId, address _tokenContract) {... */\n  callvalue\n  dup1\n  iszero\n  tag_1\n  jumpi\n  0x00\n  dup1\n  revert\ntag_1:\n  pop\n  mload(0x40)\n  sub(codesize, bytecodeSize)\n  dup1\n  bytecodeSize\n  dup4\n  codecopy\n  dup2\n  dup2\n  add\n  0x40\n  mstore\n  dup2\n  add\n  swap1\n  tag_2\n  swap2\n  swap1\n  tag_3\n  jump\t// in\ntag_2:\n    /* \"contracts/Auction_1.sol\":532:543  _auctioneer */\n  dup4\n    /* \"contracts/Auction_1.sol\":511:521  auctioneer */\n  0x00\n  dup1\n    /* \"contracts/Auction_1.sol\":511:544  auctioneer = payable(_auctioneer) */\n  0x0100\n  exp\n  dup2\n  sload\n  dup2\n  0xffffffffffffffffffffffffffffffffffffffff\n  mul\n  not\n  and\n  swap1\n  dup4\n  0xffffffffffffffffffffffffffffffffffffffff\n  and\n  mul\n  or\n  swap1\n  sstore\n  pop\n    /* \"contracts/Auction_1.sol\":570:581  _startPrice */\n  dup3\n    /* \"contracts/Auction_1.sol\":555:567  initialPrice */\n  0x01\n    /* \"contracts/Auction_1.sol\":555:581  initialPrice = _startPrice */\n  dup2\n  swap1\n  sstore\n  pop\n    /* \"contracts/Auction_1.sol\":602:610  _tokenId */\n  dup2\n    /* \"contracts/Auction_1.sol\":592:610  tokenId = _tokenId */\n  0x80\n  dup2\n  dup2\n  mstore\n  pop\n  pop\n    /* \"contracts/Auction_1.sol\":637:651  _tokenContract */\n  dup1\n    /* \"contracts/Auction_1.sol\":621:651  tokenContract = _tokenContract */\n  0xffffffffffffffffffffffffffffffffffffffff\n  and\n  0xa0\n  dup2\n  0xffffffffffffffffffffffffffffffffffffffff\n  and\n  dup2\n  mstore\n  pop\n  pop\n    /* \"contracts/Auction_1.sol\":671:691  AuctionStatus.CLOSED */\n  0x01\n    /* \"contracts/Auction_1.sol\":662:668  status */\n  0x04\n  0x00\n    /* \"contracts/Auction_1.sol\":662:691  status = AuctionStatus.CLOSED */\n  0x0100\n  exp\n  dup2\n  sload\n  dup2\n  0xff\n  mul\n  not\n  and\n  swap1\n  dup4\n  0x01\n  dup2\n  gt\n  iszero\n  tag_6\n  jumpi\n  tag_7\n  tag_8\n  jump\t// in\ntag_7:\ntag_6:\n  mul\n  or\n  swap1\n  sstore\n  pop\n    /* \"contracts/Auction_1.sol\":404:699  constructor(address _auctioneer, uint256 _startPrice, uint256 _tokenId, address _tokenContract) {... */\n  pop\n  pop\n  pop\n  pop\n    /* \"contracts/Auction_1.sol\":62:1648  contract NFTAuction {... */\n  jump(tag_9)\n    /* \"#utility.yul\":88:205   */\ntag_11:\n    /* \"#utility.yul\":197:198   */\n  0x00\n    /* \"#utility.yul\":194:195   */\n  dup1\n    /* \"#utility.yul\":187:199   */\n  revert\n    /* \"#utility.yul\":334:460   */\ntag_13:\n    /* \"#utility.yul\":371:378   */\n  0x00\n    /* \"#utility.yul\":411:453   */\n  0xffffffffffffffffffffffffffffffffffffffff\n    /* \"#utility.yul\":404:409   */\n  dup3\n    /* \"#utility.yul\":400:454   */\n  and\n    /* \"#utility.yul\":389:454   */\n  swap1\n  pop\n    /* \"#utility.yul\":334:460   */\n  swap2\n  swap1\n  pop\n  jump\t// out\n    /* \"#utility.yul\":466:562   */\ntag_14:\n    /* \"#utility.yul\":503:510   */\n  0x00\n    /* \"#utility.yul\":532:556   */\n  tag_26\n    /* \"#utility.yul\":550:555   */\n  dup3\n    /* \"#utility.yul\":532:556   */\n  tag_13\n  jump\t// in\ntag_26:\n    /* \"#utility.yul\":521:556   */\n  swap1\n  pop\n    /* \"#utility.yul\":466:562   */\n  swap2\n  swap1\n  pop\n  jump\t// out\n    /* \"#utility.yul\":568:690   */\ntag_15:\n    /* \"#utility.yul\":641:665   */\n  tag_28\n    /* \"#utility.yul\":659:664   */\n  dup2\n    /* \"#utility.yul\":641:665   */\n  tag_14\n  jump\t// in\ntag_28:\n    /* \"#utility.yul\":634:639   */\n  dup2\n    /* \"#utility.yul\":631:666   */\n  eq\n    /* \"#utility.yul\":621:684   */\n  tag_29\n  jumpi\n    /* \"#utility.yul\":680:681   */\n  0x00\n    /* \"#utility.yul\":677:678   */\n  dup1\n    /* \"#utility.yul\":670:682   */\n  revert\n    /* \"#utility.yul\":621:684   */\ntag_29:\n    /* \"#utility.yul\":568:690   */\n  pop\n  jump\t// out\n    /* \"#utility.yul\":696:839   */\ntag_16:\n    /* \"#utility.yul\":753:758   */\n  0x00\n    /* \"#utility.yul\":784:790   */\n  dup2\n    /* \"#utility.yul\":778:791   */\n  mload\n    /* \"#utility.yul\":769:791   */\n  swap1\n  pop\n    /* \"#utility.yul\":800:833   */\n  tag_31\n    /* \"#utility.yul\":827:832   */\n  dup2\n    /* \"#utility.yul\":800:833   */\n  tag_15\n  jump\t// in\ntag_31:\n    /* \"#utility.yul\":696:839   */\n  swap3\n  swap2\n  pop\n  pop\n  jump\t// out\n    /* \"#utility.yul\":845:922   */\ntag_17:\n    /* \"#utility.yul\":882:889   */\n  0x00\n    /* \"#utility.yul\":911:916   */\n  dup2\n    /* \"#utility.yul\":900:916   */\n  swap1\n  pop\n    /* \"#utility.yul\":845:922   */\n  swap2\n  swap1\n  pop\n  jump\t// out\n    /* \"#utility.yul\":928:1050   */\ntag_18:\n    /* \"#utility.yul\":1001:1025   */\n  tag_34\n    /* \"#utility.yul\":1019:1024   */\n  dup2\n    /* \"#utility.yul\":1001:1025   */\n  tag_17\n  jump\t// in\ntag_34:\n    /* \"#utility.yul\":994:999   */\n  dup2\n    /* \"#utility.yul\":991:1026   */\n  eq\n    /* \"#utility.yul\":981:1044   */\n  tag_35\n  jumpi\n    /* \"#utility.yul\":1040:1041   */\n  0x00\n    /* \"#utility.yul\":1037:1038   */\n  dup1\n    /* \"#utility.yul\":1030:1042   */\n  revert\n    /* \"#utility.yul\":981:1044   */\ntag_35:\n    /* \"#utility.yul\":928:1050   */\n  pop\n  jump\t// out\n    /* \"#utility.yul\":1056:1199   */\ntag_19:\n    /* \"#utility.yul\":1113:1118   */\n  0x00\n    /* \"#utility.yul\":1144:1150   */\n  dup2\n    /* \"#utility.yul\":1138:1151   */\n  mload\n    /* \"#utility.yul\":1129:1151   */\n  swap1\n  pop\n    /* \"#utility.yul\":1160:1193   */\n  tag_37\n    /* \"#utility.yul\":1187:1192   */\n  dup2\n    /* \"#utility.yul\":1160:1193   */\n  tag_18\n  jump\t// in\ntag_37:\n    /* \"#utility.yul\":1056:1199   */\n  swap3\n  swap2\n  pop\n  pop\n  jump\t// out\n    /* \"#utility.yul\":1205:2025   */\ntag_3:\n    /* \"#utility.yul\":1302:1308   */\n  0x00\n    /* \"#utility.yul\":1310:1316   */\n  dup1\n    /* \"#utility.yul\":1318:1324   */\n  0x00\n    /* \"#utility.yul\":1326:1332   */\n  dup1\n    /* \"#utility.yul\":1375:1378   */\n  0x80\n    /* \"#utility.yul\":1363:1372   */\n  dup6\n    /* \"#utility.yul\":1354:1361   */\n  dup8\n    /* \"#utility.yul\":1350:1373   */\n  sub\n    /* \"#utility.yul\":1346:1379   */\n  slt\n    /* \"#utility.yul\":1343:1463   */\n  iszero\n  tag_39\n  jumpi\n    /* \"#utility.yul\":1382:1461   */\n  tag_40\n  tag_11\n  jump\t// in\ntag_40:\n    /* \"#utility.yul\":1343:1463   */\ntag_39:\n    /* \"#utility.yul\":1502:1503   */\n  0x00\n    /* \"#utility.yul\":1527:1591   */\n  tag_41\n    /* \"#utility.yul\":1583:1590   */\n  dup8\n    /* \"#utility.yul\":1574:1580   */\n  dup3\n    /* \"#utility.yul\":1563:1572   */\n  dup9\n    /* \"#utility.yul\":1559:1581   */\n  add\n    /* \"#utility.yul\":1527:1591   */\n  tag_16\n  jump\t// in\ntag_41:\n    /* \"#utility.yul\":1517:1591   */\n  swap5\n  pop\n    /* \"#utility.yul\":1473:1601   */\n  pop\n    /* \"#utility.yul\":1640:1642   */\n  0x20\n    /* \"#utility.yul\":1666:1730   */\n  tag_42\n    /* \"#utility.yul\":1722:1729   */\n  dup8\n    /* \"#utility.yul\":1713:1719   */\n  dup3\n    /* \"#utility.yul\":1702:1711   */\n  dup9\n    /* \"#utility.yul\":1698:1720   */\n  add\n    /* \"#utility.yul\":1666:1730   */\n  tag_19\n  jump\t// in\ntag_42:\n    /* \"#utility.yul\":1656:1730   */\n  swap4\n  pop\n    /* \"#utility.yul\":1611:1740   */\n  pop\n    /* \"#utility.yul\":1779:1781   */\n  0x40\n    /* \"#utility.yul\":1805:1869   */\n  tag_43\n    /* \"#utility.yul\":1861:1868   */\n  dup8\n    /* \"#utility.yul\":1852:1858   */\n  dup3\n    /* \"#utility.yul\":1841:1850   */\n  dup9\n    /* \"#utility.yul\":1837:1859   */\n  add\n    /* \"#utility.yul\":1805:1869   */\n  tag_19\n  jump\t// in\ntag_43:\n    /* \"#utility.yul\":1795:1869   */\n  swap3\n  pop\n    /* \"#utility.yul\":1750:1879   */\n  pop\n    /* \"#utility.yul\":1918:1920   */\n  0x60\n    /* \"#utility.yul\":1944:2008   */\n  tag_44\n    /* \"#utility.yul\":2000:2007   */\n  dup8\n    /* \"#utility.yul\":1991:1997   */\n  dup3\n    /* \"#utility.yul\":1980:1989   */\n  dup9\n    /* \"#utility.yul\":1976:1998   */\n  add\n    /* \"#utility.yul\":1944:2008   */\n  tag_16\n  jump\t// in\ntag_44:\n    /* \"#utility.yul\":1934:2008   */\n  swap2\n  pop\n    /* \"#utility.yul\":1889:2018   */\n  pop\n    /* \"#utility.yul\":1205:2025   */\n  swap3\n  swap6\n  swap2\n  swap5\n  pop\n  swap3\n  pop\n  jump\t// out\n    /* \"#utility.yul\":2031:2211   */\ntag_8:\n    /* \"#utility.yul\":2079:2156   */\n  0x4e487b7100000000000000000000000000000000000000000000000000000000\n    /* \"#utility.yul\":2076:2077   */\n  0x00\n    /* \"#utility.yul\":2069:2157   */\n  mstore\n    /* \"#utility.yul\":2176:2180   */\n  0x21\n    /* \"#utility.yul\":2173:2174   */\n  0x04\n    /* \"#utility.yul\":2166:2181   */\n  mstore\n    /* \"#utility.yul\":2200:2204   */\n  0x24\n    /* \"#utility.yul\":2197:2198   */\n  0x00\n    /* \"#utility.yul\":2190:2205   */\n  revert\n    /* \"contracts/Auction_1.sol\":62:1648  contract NFTAuction {... */\ntag_9:\n  mload(0x80)\n  mload(0xa0)\n  codecopy(0x00, dataOffset(sub_0), dataSize(sub_0))\n  0x00\n  assignImmutable(\"0x7880aec93413f117ef14bd4e6d130875ab2c7d7d55a064fac3c2f7bd51516380\")\n  0x00\n  assignImmutable(\"0xd2f8f61201b2b11a78d6e866abc9c3db2ae8631fa656bfe5cb53668255367afb\")\n  return(0x00, dataSize(sub_0))\nstop\n\nsub_0: assembly {\n        /* \"contracts/Auction_1.sol\":62:1648  contract NFTAuction {... */\n      mstore(0x40, 0x80)\n      jumpi(tag_1, lt(calldatasize, 0x04))\n      shr(0xe0, calldataload(0x00))\n      dup1\n      0x55a373d6\n      gt\n      tag_10\n      jumpi\n      dup1\n      0x55a373d6\n      eq\n      tag_6\n      jumpi\n      dup1\n      0x6b64c769\n      eq\n      tag_7\n      jumpi\n      dup1\n      0xd57bde79\n      eq\n      tag_8\n      jumpi\n      dup1\n      0xf0ab49b1\n      eq\n      tag_9\n      jumpi\n      jump(tag_1)\n    tag_10:\n      dup1\n      0x17d70f7c\n      eq\n      tag_2\n      jumpi\n      dup1\n      0x1998aeef\n      eq\n      tag_3\n      jumpi\n      dup1\n      0x1d0806ae\n      eq\n      tag_4\n      jumpi\n      dup1\n      0x378252f2\n      eq\n      tag_5\n      jumpi\n    tag_1:\n      0x00\n      dup1\n      revert\n        /* \"contracts/Auction_1.sol\":196:228  uint256 public immutable tokenId */\n    tag_2:\n      callvalue\n      dup1\n      iszero\n      tag_11\n      jumpi\n      0x00\n      dup1\n      revert\n    tag_11:\n      pop\n      tag_12\n      tag_13\n      jump\t// in\n    tag_12:\n      mload(0x40)\n      tag_14\n      swap2\n      swap1\n      tag_15\n      jump\t// in\n    tag_14:\n      mload(0x40)\n      dup1\n      swap2\n      sub\n      swap1\n      return\n        /* \"contracts/Auction_1.sol\":1379:1645  function bid() external payable {... */\n    tag_3:\n      tag_16\n      tag_17\n      jump\t// in\n    tag_16:\n      stop\n        /* \"contracts/Auction_1.sol\":130:157  uint256 public initialPrice */\n    tag_4:\n      callvalue\n      dup1\n      iszero\n      tag_18\n      jumpi\n      0x00\n      dup1\n      revert\n    tag_18:\n      pop\n      tag_19\n      tag_20\n      jump\t// in\n    tag_19:\n      mload(0x40)\n      tag_21\n      swap2\n      swap1\n      tag_15\n      jump\t// in\n    tag_21:\n      mload(0x40)\n      dup1\n      swap2\n      sub\n      swap1\n      return\n        /* \"contracts/Auction_1.sol\":1158:1371  function closeAuction() external onlyAuctioneer {... */\n    tag_5:\n      callvalue\n      dup1\n      iszero\n      tag_22\n      jumpi\n      0x00\n      dup1\n      revert\n    tag_22:\n      pop\n      tag_23\n      tag_24\n      jump\t// in\n    tag_23:\n      stop\n        /* \"contracts/Auction_1.sol\":235:273  address public immutable tokenContract */\n    tag_6:\n      callvalue\n      dup1\n      iszero\n      tag_25\n      jumpi\n      0x00\n      dup1\n      revert\n    tag_25:\n      pop\n      tag_26\n      tag_27\n      jump\t// in\n    tag_26:\n      mload(0x40)\n      tag_28\n      swap2\n      swap1\n      tag_29\n      jump\t// in\n    tag_28:\n      mload(0x40)\n      dup1\n      swap2\n      sub\n      swap1\n      return\n        /* \"contracts/Auction_1.sol\":903:1150  function startAuction() external onlyAuctioneer {... */\n    tag_7:\n      callvalue\n      dup1\n      iszero\n      tag_30\n      jumpi\n      0x00\n      dup1\n      revert\n    tag_30:\n      pop\n      tag_31\n      tag_32\n      jump\t// in\n    tag_31:\n      stop\n        /* \"contracts/Auction_1.sol\":164:189  uint256 public highestBid */\n    tag_8:\n      callvalue\n      dup1\n      iszero\n      tag_33\n      jumpi\n      0x00\n      dup1\n      revert\n    tag_33:\n      pop\n      tag_34\n      tag_35\n      jump\t// in\n    tag_34:\n      mload(0x40)\n      tag_36\n      swap2\n      swap1\n      tag_15\n      jump\t// in\n    tag_36:\n      mload(0x40)\n      dup1\n      swap2\n      sub\n      swap1\n      return\n        /* \"contracts/Auction_1.sol\":280:327  mapping(address => uint256) public bidsRegister */\n    tag_9:\n      callvalue\n      dup1\n      iszero\n      tag_37\n      jumpi\n      0x00\n      dup1\n      revert\n    tag_37:\n      pop\n      tag_38\n      0x04\n      dup1\n      calldatasize\n      sub\n      dup2\n      add\n      swap1\n      tag_39\n      swap2\n      swap1\n      tag_40\n      jump\t// in\n    tag_39:\n      tag_41\n      jump\t// in\n    tag_38:\n      mload(0x40)\n      tag_42\n      swap2\n      swap1\n      tag_15\n      jump\t// in\n    tag_42:\n      mload(0x40)\n      dup1\n      swap2\n      sub\n      swap1\n      return\n        /* \"contracts/Auction_1.sol\":196:228  uint256 public immutable tokenId */\n    tag_13:\n      immutable(\"0xd2f8f61201b2b11a78d6e866abc9c3db2ae8631fa656bfe5cb53668255367afb\")\n      dup2\n      jump\t// out\n        /* \"contracts/Auction_1.sol\":1379:1645  function bid() external payable {... */\n    tag_17:\n        /* \"contracts/Auction_1.sol\":1440:1458  AuctionStatus.OPEN */\n      0x00\n        /* \"contracts/Auction_1.sol\":1430:1458  status == AuctionStatus.OPEN */\n      0x01\n      dup2\n      gt\n      iszero\n      tag_44\n      jumpi\n      tag_45\n      tag_46\n      jump\t// in\n    tag_45:\n    tag_44:\n        /* \"contracts/Auction_1.sol\":1430:1436  status */\n      0x04\n      0x00\n      swap1\n      sload\n      swap1\n      0x0100\n      exp\n      swap1\n      div\n      0xff\n      and\n        /* \"contracts/Auction_1.sol\":1430:1458  status == AuctionStatus.OPEN */\n      0x01\n      dup2\n      gt\n      iszero\n      tag_47\n      jumpi\n      tag_48\n      tag_46\n      jump\t// in\n    tag_48:\n    tag_47:\n      eq\n        /* \"contracts/Auction_1.sol\":1422:1492  require(status == AuctionStatus.OPEN, \"The Auction is already closed\") */\n      tag_49\n      jumpi\n      mload(0x40)\n      0x08c379a000000000000000000000000000000000000000000000000000000000\n      dup2\n      mstore\n      0x04\n      add\n      tag_50\n      swap1\n      tag_51\n      jump\t// in\n    tag_50:\n      mload(0x40)\n      dup1\n      swap2\n      sub\n      swap1\n      revert\n    tag_49:\n        /* \"contracts/Auction_1.sol\":1523:1533  highestBid */\n      sload(0x02)\n        /* \"contracts/Auction_1.sol\":1511:1520  msg.value */\n      callvalue\n        /* \"contracts/Auction_1.sol\":1511:1533  msg.value > highestBid */\n      gt\n        /* \"contracts/Auction_1.sol\":1503:1557  require(msg.value > highestBid, \"You can't bid lower\") */\n      tag_52\n      jumpi\n      mload(0x40)\n      0x08c379a000000000000000000000000000000000000000000000000000000000\n      dup2\n      mstore\n      0x04\n      add\n      tag_53\n      swap1\n      tag_54\n      jump\t// in\n    tag_53:\n      mload(0x40)\n      dup1\n      swap2\n      sub\n      swap1\n      revert\n    tag_52:\n        /* \"contracts/Auction_1.sol\":1595:1604  msg.value */\n      callvalue\n        /* \"contracts/Auction_1.sol\":1568:1580  bidsRegister */\n      0x03\n        /* \"contracts/Auction_1.sol\":1568:1592  bidsRegister[msg.sender] */\n      0x00\n        /* \"contracts/Auction_1.sol\":1581:1591  msg.sender */\n      caller\n        /* \"contracts/Auction_1.sol\":1568:1592  bidsRegister[msg.sender] */\n      0xffffffffffffffffffffffffffffffffffffffff\n      and\n      0xffffffffffffffffffffffffffffffffffffffff\n      and\n      dup2\n      mstore\n      0x20\n      add\n      swap1\n      dup2\n      mstore\n      0x20\n      add\n      0x00\n      keccak256\n        /* \"contracts/Auction_1.sol\":1568:1604  bidsRegister[msg.sender] = msg.value */\n      dup2\n      swap1\n      sstore\n      pop\n        /* \"contracts/Auction_1.sol\":1628:1637  msg.value */\n      callvalue\n        /* \"contracts/Auction_1.sol\":1615:1625  highestBid */\n      0x02\n        /* \"contracts/Auction_1.sol\":1615:1637  highestBid = msg.value */\n      dup2\n      swap1\n      sstore\n      pop\n        /* \"contracts/Auction_1.sol\":1379:1645  function bid() external payable {... */\n      jump\t// out\n        /* \"contracts/Auction_1.sol\":130:157  uint256 public initialPrice */\n    tag_20:\n      sload(0x01)\n      dup2\n      jump\t// out\n        /* \"contracts/Auction_1.sol\":1158:1371  function closeAuction() external onlyAuctioneer {... */\n    tag_24:\n        /* \"contracts/Auction_1.sol\":814:824  auctioneer */\n      0x00\n      dup1\n      sload\n      swap1\n      0x0100\n      exp\n      swap1\n      div\n      0xffffffffffffffffffffffffffffffffffffffff\n      and\n        /* \"contracts/Auction_1.sol\":800:824  msg.sender == auctioneer */\n      0xffffffffffffffffffffffffffffffffffffffff\n      and\n        /* \"contracts/Auction_1.sol\":800:810  msg.sender */\n      caller\n        /* \"contracts/Auction_1.sol\":800:824  msg.sender == auctioneer */\n      0xffffffffffffffffffffffffffffffffffffffff\n      and\n      eq\n        /* \"contracts/Auction_1.sol\":792:875  require(msg.sender == auctioneer, \"Only the contract owner can call this function\") */\n      tag_56\n      jumpi\n      mload(0x40)\n      0x08c379a000000000000000000000000000000000000000000000000000000000\n      dup2\n      mstore\n      0x04\n      add\n      tag_57\n      swap1\n      tag_58\n      jump\t// in\n    tag_57:\n      mload(0x40)\n      dup1\n      swap2\n      sub\n      swap1\n      revert\n    tag_56:\n        /* \"contracts/Auction_1.sol\":1235:1253  AuctionStatus.OPEN */\n      0x00\n        /* \"contracts/Auction_1.sol\":1225:1253  status == AuctionStatus.OPEN */\n      0x01\n      dup2\n      gt\n      iszero\n      tag_60\n      jumpi\n      tag_61\n      tag_46\n      jump\t// in\n    tag_61:\n    tag_60:\n        /* \"contracts/Auction_1.sol\":1225:1231  status */\n      0x04\n      0x00\n      swap1\n      sload\n      swap1\n      0x0100\n      exp\n      swap1\n      div\n      0xff\n      and\n        /* \"contracts/Auction_1.sol\":1225:1253  status == AuctionStatus.OPEN */\n      0x01\n      dup2\n      gt\n      iszero\n      tag_62\n      jumpi\n      tag_63\n      tag_46\n      jump\t// in\n    tag_63:\n    tag_62:\n      eq\n        /* \"contracts/Auction_1.sol\":1217:1287  require(status == AuctionStatus.OPEN, \"The Auction is already closed\") */\n      tag_64\n      jumpi\n      mload(0x40)\n      0x08c379a000000000000000000000000000000000000000000000000000000000\n      dup2\n      mstore\n      0x04\n      add\n      tag_65\n      swap1\n      tag_51\n      jump\t// in\n    tag_65:\n      mload(0x40)\n      dup1\n      swap2\n      sub\n      swap1\n      revert\n    tag_64:\n        /* \"contracts/Auction_1.sol\":1307:1327  AuctionStatus.CLOSED */\n      0x01\n        /* \"contracts/Auction_1.sol\":1298:1304  status */\n      0x04\n      0x00\n        /* \"contracts/Auction_1.sol\":1298:1327  status = AuctionStatus.CLOSED */\n      0x0100\n      exp\n      dup2\n      sload\n      dup2\n      0xff\n      mul\n      not\n      and\n      swap1\n      dup4\n      0x01\n      dup2\n      gt\n      iszero\n      tag_66\n      jumpi\n      tag_67\n      tag_46\n      jump\t// in\n    tag_67:\n    tag_66:\n      mul\n      or\n      swap1\n      sstore\n      pop\n        /* \"contracts/Auction_1.sol\":1343:1363  AuctionState(status) */\n      0x8caed3b4bf01375b22dc7f84afe719ce12ab14864751a7d5e4142fe4e4a50a51\n        /* \"contracts/Auction_1.sol\":1356:1362  status */\n      0x04\n      0x00\n      swap1\n      sload\n      swap1\n      0x0100\n      exp\n      swap1\n      div\n      0xff\n      and\n        /* \"contracts/Auction_1.sol\":1343:1363  AuctionState(status) */\n      mload(0x40)\n      tag_68\n      swap2\n      swap1\n      tag_69\n      jump\t// in\n    tag_68:\n      mload(0x40)\n      dup1\n      swap2\n      sub\n      swap1\n      log1\n        /* \"contracts/Auction_1.sol\":1158:1371  function closeAuction() external onlyAuctioneer {... */\n      jump\t// out\n        /* \"contracts/Auction_1.sol\":235:273  address public immutable tokenContract */\n    tag_27:\n      immutable(\"0x7880aec93413f117ef14bd4e6d130875ab2c7d7d55a064fac3c2f7bd51516380\")\n      dup2\n      jump\t// out\n        /* \"contracts/Auction_1.sol\":903:1150  function startAuction() external onlyAuctioneer {... */\n    tag_32:\n        /* \"contracts/Auction_1.sol\":814:824  auctioneer */\n      0x00\n      dup1\n      sload\n      swap1\n      0x0100\n      exp\n      swap1\n      div\n      0xffffffffffffffffffffffffffffffffffffffff\n      and\n        /* \"contracts/Auction_1.sol\":800:824  msg.sender == auctioneer */\n      0xffffffffffffffffffffffffffffffffffffffff\n      and\n        /* \"contracts/Auction_1.sol\":800:810  msg.sender */\n      caller\n        /* \"contracts/Auction_1.sol\":800:824  msg.sender == auctioneer */\n      0xffffffffffffffffffffffffffffffffffffffff\n      and\n      eq\n        /* \"contracts/Auction_1.sol\":792:875  require(msg.sender == auctioneer, \"Only the contract owner can call this function\") */\n      tag_71\n      jumpi\n      mload(0x40)\n      0x08c379a000000000000000000000000000000000000000000000000000000000\n      dup2\n      mstore\n      0x04\n      add\n      tag_72\n      swap1\n      tag_58\n      jump\t// in\n    tag_72:\n      mload(0x40)\n      dup1\n      swap2\n      sub\n      swap1\n      revert\n    tag_71:\n        /* \"contracts/Auction_1.sol\":980:1000  AuctionStatus.CLOSED */\n      0x01\n        /* \"contracts/Auction_1.sol\":970:1000  status == AuctionStatus.CLOSED */\n      dup1\n      dup2\n      gt\n      iszero\n      tag_74\n      jumpi\n      tag_75\n      tag_46\n      jump\t// in\n    tag_75:\n    tag_74:\n        /* \"contracts/Auction_1.sol\":970:976  status */\n      0x04\n      0x00\n      swap1\n      sload\n      swap1\n      0x0100\n      exp\n      swap1\n      div\n      0xff\n      and\n        /* \"contracts/Auction_1.sol\":970:1000  status == AuctionStatus.CLOSED */\n      0x01\n      dup2\n      gt\n      iszero\n      tag_76\n      jumpi\n      tag_77\n      tag_46\n      jump\t// in\n    tag_77:\n    tag_76:\n      eq\n        /* \"contracts/Auction_1.sol\":962:1032  require(status == AuctionStatus.CLOSED, \"The Auction is already open\") */\n      tag_78\n      jumpi\n      mload(0x40)\n      0x08c379a000000000000000000000000000000000000000000000000000000000\n      dup2\n      mstore\n      0x04\n      add\n      tag_79\n      swap1\n      tag_80\n      jump\t// in\n    tag_79:\n      mload(0x40)\n      dup1\n      swap2\n      sub\n      swap1\n      revert\n    tag_78:\n        /* \"contracts/Auction_1.sol\":1052:1070  AuctionStatus.OPEN */\n      0x00\n        /* \"contracts/Auction_1.sol\":1043:1049  status */\n      0x04\n      0x00\n        /* \"contracts/Auction_1.sol\":1043:1070  status = AuctionStatus.OPEN */\n      0x0100\n      exp\n      dup2\n      sload\n      dup2\n      0xff\n      mul\n      not\n      and\n      swap1\n      dup4\n      0x01\n      dup2\n      gt\n      iszero\n      tag_81\n      jumpi\n      tag_82\n      tag_46\n      jump\t// in\n    tag_82:\n    tag_81:\n      mul\n      or\n      swap1\n      sstore\n      pop\n        /* \"contracts/Auction_1.sol\":1094:1106  initialPrice */\n      sload(0x01)\n        /* \"contracts/Auction_1.sol\":1081:1091  highestBid */\n      0x02\n        /* \"contracts/Auction_1.sol\":1081:1106  highestBid = initialPrice */\n      dup2\n      swap1\n      sstore\n      pop\n        /* \"contracts/Auction_1.sol\":1122:1142  AuctionState(status) */\n      0x8caed3b4bf01375b22dc7f84afe719ce12ab14864751a7d5e4142fe4e4a50a51\n        /* \"contracts/Auction_1.sol\":1135:1141  status */\n      0x04\n      0x00\n      swap1\n      sload\n      swap1\n      0x0100\n      exp\n      swap1\n      div\n      0xff\n      and\n        /* \"contracts/Auction_1.sol\":1122:1142  AuctionState(status) */\n      mload(0x40)\n      tag_83\n      swap2\n      swap1\n      tag_69\n      jump\t// in\n    tag_83:\n      mload(0x40)\n      dup1\n      swap2\n      sub\n      swap1\n      log1\n        /* \"contracts/Auction_1.sol\":903:1150  function startAuction() external onlyAuctioneer {... */\n      jump\t// out\n        /* \"contracts/Auction_1.sol\":164:189  uint256 public highestBid */\n    tag_35:\n      sload(0x02)\n      dup2\n      jump\t// out\n        /* \"contracts/Auction_1.sol\":280:327  mapping(address => uint256) public bidsRegister */\n    tag_41:\n      mstore(0x20, 0x03)\n      dup1\n      0x00\n      mstore\n      keccak256(0x00, 0x40)\n      0x00\n      swap2\n      pop\n      swap1\n      pop\n      sload\n      dup2\n      jump\t// out\n        /* \"#utility.yul\":7:84   */\n    tag_84:\n        /* \"#utility.yul\":44:51   */\n      0x00\n        /* \"#utility.yul\":73:78   */\n      dup2\n        /* \"#utility.yul\":62:78   */\n      swap1\n      pop\n        /* \"#utility.yul\":7:84   */\n      swap2\n      swap1\n      pop\n      jump\t// out\n        /* \"#utility.yul\":90:208   */\n    tag_85:\n        /* \"#utility.yul\":177:201   */\n      tag_110\n        /* \"#utility.yul\":195:200   */\n      dup2\n        /* \"#utility.yul\":177:201   */\n      tag_84\n      jump\t// in\n    tag_110:\n        /* \"#utility.yul\":172:175   */\n      dup3\n        /* \"#utility.yul\":165:202   */\n      mstore\n        /* \"#utility.yul\":90:208   */\n      pop\n      pop\n      jump\t// out\n        /* \"#utility.yul\":214:436   */\n    tag_15:\n        /* \"#utility.yul\":307:311   */\n      0x00\n        /* \"#utility.yul\":345:347   */\n      0x20\n        /* \"#utility.yul\":334:343   */\n      dup3\n        /* \"#utility.yul\":330:348   */\n      add\n        /* \"#utility.yul\":322:348   */\n      swap1\n      pop\n        /* \"#utility.yul\":358:429   */\n      tag_112\n        /* \"#utility.yul\":426:427   */\n      0x00\n        /* \"#utility.yul\":415:424   */\n      dup4\n        /* \"#utility.yul\":411:428   */\n      add\n        /* \"#utility.yul\":402:408   */\n      dup5\n        /* \"#utility.yul\":358:429   */\n      tag_85\n      jump\t// in\n    tag_112:\n        /* \"#utility.yul\":214:436   */\n      swap3\n      swap2\n      pop\n      pop\n      jump\t// out\n        /* \"#utility.yul\":442:568   */\n    tag_86:\n        /* \"#utility.yul\":479:486   */\n      0x00\n        /* \"#utility.yul\":519:561   */\n      0xffffffffffffffffffffffffffffffffffffffff\n        /* \"#utility.yul\":512:517   */\n      dup3\n        /* \"#utility.yul\":508:562   */\n      and\n        /* \"#utility.yul\":497:562   */\n      swap1\n      pop\n        /* \"#utility.yul\":442:568   */\n      swap2\n      swap1\n      pop\n      jump\t// out\n        /* \"#utility.yul\":574:670   */\n    tag_87:\n        /* \"#utility.yul\":611:618   */\n      0x00\n        /* \"#utility.yul\":640:664   */\n      tag_115\n        /* \"#utility.yul\":658:663   */\n      dup3\n        /* \"#utility.yul\":640:664   */\n      tag_86\n      jump\t// in\n    tag_115:\n        /* \"#utility.yul\":629:664   */\n      swap1\n      pop\n        /* \"#utility.yul\":574:670   */\n      swap2\n      swap1\n      pop\n      jump\t// out\n        /* \"#utility.yul\":676:794   */\n    tag_88:\n        /* \"#utility.yul\":763:787   */\n      tag_117\n        /* \"#utility.yul\":781:786   */\n      dup2\n        /* \"#utility.yul\":763:787   */\n      tag_87\n      jump\t// in\n    tag_117:\n        /* \"#utility.yul\":758:761   */\n      dup3\n        /* \"#utility.yul\":751:788   */\n      mstore\n        /* \"#utility.yul\":676:794   */\n      pop\n      pop\n      jump\t// out\n        /* \"#utility.yul\":800:1022   */\n    tag_29:\n        /* \"#utility.yul\":893:897   */\n      0x00\n        /* \"#utility.yul\":931:933   */\n      0x20\n        /* \"#utility.yul\":920:929   */\n      dup3\n        /* \"#utility.yul\":916:934   */\n      add\n        /* \"#utility.yul\":908:934   */\n      swap1\n      pop\n        /* \"#utility.yul\":944:1015   */\n      tag_119\n        /* \"#utility.yul\":1012:1013   */\n      0x00\n        /* \"#utility.yul\":1001:1010   */\n      dup4\n        /* \"#utility.yul\":997:1014   */\n      add\n        /* \"#utility.yul\":988:994   */\n      dup5\n        /* \"#utility.yul\":944:1015   */\n      tag_88\n      jump\t// in\n    tag_119:\n        /* \"#utility.yul\":800:1022   */\n      swap3\n      swap2\n      pop\n      pop\n      jump\t// out\n        /* \"#utility.yul\":1109:1226   */\n    tag_90:\n        /* \"#utility.yul\":1218:1219   */\n      0x00\n        /* \"#utility.yul\":1215:1216   */\n      dup1\n        /* \"#utility.yul\":1208:1220   */\n      revert\n        /* \"#utility.yul\":1355:1477   */\n    tag_92:\n        /* \"#utility.yul\":1428:1452   */\n      tag_124\n        /* \"#utility.yul\":1446:1451   */\n      dup2\n        /* \"#utility.yul\":1428:1452   */\n      tag_87\n      jump\t// in\n    tag_124:\n        /* \"#utility.yul\":1421:1426   */\n      dup2\n        /* \"#utility.yul\":1418:1453   */\n      eq\n        /* \"#utility.yul\":1408:1471   */\n      tag_125\n      jumpi\n        /* \"#utility.yul\":1467:1468   */\n      0x00\n        /* \"#utility.yul\":1464:1465   */\n      dup1\n        /* \"#utility.yul\":1457:1469   */\n      revert\n        /* \"#utility.yul\":1408:1471   */\n    tag_125:\n        /* \"#utility.yul\":1355:1477   */\n      pop\n      jump\t// out\n        /* \"#utility.yul\":1483:1622   */\n    tag_93:\n        /* \"#utility.yul\":1529:1534   */\n      0x00\n        /* \"#utility.yul\":1567:1573   */\n      dup2\n        /* \"#utility.yul\":1554:1574   */\n      calldataload\n        /* \"#utility.yul\":1545:1574   */\n      swap1\n      pop\n        /* \"#utility.yul\":1583:1616   */\n      tag_127\n        /* \"#utility.yul\":1610:1615   */\n      dup2\n        /* \"#utility.yul\":1583:1616   */\n      tag_92\n      jump\t// in\n    tag_127:\n        /* \"#utility.yul\":1483:1622   */\n      swap3\n      swap2\n      pop\n      pop\n      jump\t// out\n        /* \"#utility.yul\":1628:1957   */\n    tag_40:\n        /* \"#utility.yul\":1687:1693   */\n      0x00\n        /* \"#utility.yul\":1736:1738   */\n      0x20\n        /* \"#utility.yul\":1724:1733   */\n      dup3\n        /* \"#utility.yul\":1715:1722   */\n      dup5\n        /* \"#utility.yul\":1711:1734   */\n      sub\n        /* \"#utility.yul\":1707:1739   */\n      slt\n        /* \"#utility.yul\":1704:1823   */\n      iszero\n      tag_129\n      jumpi\n        /* \"#utility.yul\":1742:1821   */\n      tag_130\n      tag_90\n      jump\t// in\n    tag_130:\n        /* \"#utility.yul\":1704:1823   */\n    tag_129:\n        /* \"#utility.yul\":1862:1863   */\n      0x00\n        /* \"#utility.yul\":1887:1940   */\n      tag_131\n        /* \"#utility.yul\":1932:1939   */\n      dup5\n        /* \"#utility.yul\":1923:1929   */\n      dup3\n        /* \"#utility.yul\":1912:1921   */\n      dup6\n        /* \"#utility.yul\":1908:1930   */\n      add\n        /* \"#utility.yul\":1887:1940   */\n      tag_93\n      jump\t// in\n    tag_131:\n        /* \"#utility.yul\":1877:1940   */\n      swap2\n      pop\n        /* \"#utility.yul\":1833:1950   */\n      pop\n        /* \"#utility.yul\":1628:1957   */\n      swap3\n      swap2\n      pop\n      pop\n      jump\t// out\n        /* \"#utility.yul\":1963:2143   */\n    tag_46:\n        /* \"#utility.yul\":2011:2088   */\n      0x4e487b7100000000000000000000000000000000000000000000000000000000\n        /* \"#utility.yul\":2008:2009   */\n      0x00\n        /* \"#utility.yul\":2001:2089   */\n      mstore\n        /* \"#utility.yul\":2108:2112   */\n      0x21\n        /* \"#utility.yul\":2105:2106   */\n      0x04\n        /* \"#utility.yul\":2098:2113   */\n      mstore\n        /* \"#utility.yul\":2132:2136   */\n      0x24\n        /* \"#utility.yul\":2129:2130   */\n      0x00\n        /* \"#utility.yul\":2122:2137   */\n      revert\n        /* \"#utility.yul\":2149:2318   */\n    tag_94:\n        /* \"#utility.yul\":2233:2244   */\n      0x00\n        /* \"#utility.yul\":2267:2273   */\n      dup3\n        /* \"#utility.yul\":2262:2265   */\n      dup3\n        /* \"#utility.yul\":2255:2274   */\n      mstore\n        /* \"#utility.yul\":2307:2311   */\n      0x20\n        /* \"#utility.yul\":2302:2305   */\n      dup3\n        /* \"#utility.yul\":2298:2312   */\n      add\n        /* \"#utility.yul\":2283:2312   */\n      swap1\n      pop\n        /* \"#utility.yul\":2149:2318   */\n      swap3\n      swap2\n      pop\n      pop\n      jump\t// out\n        /* \"#utility.yul\":2324:2503   */\n    tag_95:\n        /* \"#utility.yul\":2464:2495   */\n      0x5468652041756374696f6e20697320616c726561647920636c6f736564000000\n        /* \"#utility.yul\":2460:2461   */\n      0x00\n        /* \"#utility.yul\":2452:2458   */\n      dup3\n        /* \"#utility.yul\":2448:2462   */\n      add\n        /* \"#utility.yul\":2441:2496   */\n      mstore\n        /* \"#utility.yul\":2324:2503   */\n      pop\n      jump\t// out\n        /* \"#utility.yul\":2509:2875   */\n    tag_96:\n        /* \"#utility.yul\":2651:2654   */\n      0x00\n        /* \"#utility.yul\":2672:2739   */\n      tag_136\n        /* \"#utility.yul\":2736:2738   */\n      0x1d\n        /* \"#utility.yul\":2731:2734   */\n      dup4\n        /* \"#utility.yul\":2672:2739   */\n      tag_94\n      jump\t// in\n    tag_136:\n        /* \"#utility.yul\":2665:2739   */\n      swap2\n      pop\n        /* \"#utility.yul\":2748:2841   */\n      tag_137\n        /* \"#utility.yul\":2837:2840   */\n      dup3\n        /* \"#utility.yul\":2748:2841   */\n      tag_95\n      jump\t// in\n    tag_137:\n        /* \"#utility.yul\":2866:2868   */\n      0x20\n        /* \"#utility.yul\":2861:2864   */\n      dup3\n        /* \"#utility.yul\":2857:2869   */\n      add\n        /* \"#utility.yul\":2850:2869   */\n      swap1\n      pop\n        /* \"#utility.yul\":2509:2875   */\n      swap2\n      swap1\n      pop\n      jump\t// out\n        /* \"#utility.yul\":2881:3300   */\n    tag_51:\n        /* \"#utility.yul\":3047:3051   */\n      0x00\n        /* \"#utility.yul\":3085:3087   */\n      0x20\n        /* \"#utility.yul\":3074:3083   */\n      dup3\n        /* \"#utility.yul\":3070:3088   */\n      add\n        /* \"#utility.yul\":3062:3088   */\n      swap1\n      pop\n        /* \"#utility.yul\":3134:3143   */\n      dup2\n        /* \"#utility.yul\":3128:3132   */\n      dup2\n        /* \"#utility.yul\":3124:3144   */\n      sub\n        /* \"#utility.yul\":3120:3121   */\n      0x00\n        /* \"#utility.yul\":3109:3118   */\n      dup4\n        /* \"#utility.yul\":3105:3122   */\n      add\n        /* \"#utility.yul\":3098:3145   */\n      mstore\n        /* \"#utility.yul\":3162:3293   */\n      tag_139\n        /* \"#utility.yul\":3288:3292   */\n      dup2\n        /* \"#utility.yul\":3162:3293   */\n      tag_96\n      jump\t// in\n    tag_139:\n        /* \"#utility.yul\":3154:3293   */\n      swap1\n      pop\n        /* \"#utility.yul\":2881:3300   */\n      swap2\n      swap1\n      pop\n      jump\t// out\n        /* \"#utility.yul\":3306:3475   */\n    tag_97:\n        /* \"#utility.yul\":3446:3467   */\n      0x596f752063616e277420626964206c6f77657200000000000000000000000000\n        /* \"#utility.yul\":3442:3443   */\n      0x00\n        /* \"#utility.yul\":3434:3440   */\n      dup3\n        /* \"#utility.yul\":3430:3444   */\n      add\n        /* \"#utility.yul\":3423:3468   */\n      mstore\n        /* \"#utility.yul\":3306:3475   */\n      pop\n      jump\t// out\n        /* \"#utility.yul\":3481:3847   */\n    tag_98:\n        /* \"#utility.yul\":3623:3626   */\n      0x00\n        /* \"#utility.yul\":3644:3711   */\n      tag_142\n        /* \"#utility.yul\":3708:3710   */\n      0x13\n        /* \"#utility.yul\":3703:3706   */\n      dup4\n        /* \"#utility.yul\":3644:3711   */\n      tag_94\n      jump\t// in\n    tag_142:\n        /* \"#utility.yul\":3637:3711   */\n      swap2\n      pop\n        /* \"#utility.yul\":3720:3813   */\n      tag_143\n        /* \"#utility.yul\":3809:3812   */\n      dup3\n        /* \"#utility.yul\":3720:3813   */\n      tag_97\n      jump\t// in\n    tag_143:\n        /* \"#utility.yul\":3838:3840   */\n      0x20\n        /* \"#utility.yul\":3833:3836   */\n      dup3\n        /* \"#utility.yul\":3829:3841   */\n      add\n        /* \"#utility.yul\":3822:3841   */\n      swap1\n      pop\n        /* \"#utility.yul\":3481:3847   */\n      swap2\n      swap1\n      pop\n      jump\t// out\n        /* \"#utility.yul\":3853:4272   */\n    tag_54:\n        /* \"#utility.yul\":4019:4023   */\n      0x00\n        /* \"#utility.yul\":4057:4059   */\n      0x20\n        /* \"#utility.yul\":4046:4055   */\n      dup3\n        /* \"#utility.yul\":4042:4060   */\n      add\n        /* \"#utility.yul\":4034:4060   */\n      swap1\n      pop\n        /* \"#utility.yul\":4106:4115   */\n      dup2\n        /* \"#utility.yul\":4100:4104   */\n      dup2\n        /* \"#utility.yul\":4096:4116   */\n      sub\n        /* \"#utility.yul\":4092:4093   */\n      0x00\n        /* \"#utility.yul\":4081:4090   */\n      dup4\n        /* \"#utility.yul\":4077:4094   */\n      add\n        /* \"#utility.yul\":4070:4117   */\n      mstore\n        /* \"#utility.yul\":4134:4265   */\n      tag_145\n        /* \"#utility.yul\":4260:4264   */\n      dup2\n        /* \"#utility.yul\":4134:4265   */\n      tag_98\n      jump\t// in\n    tag_145:\n        /* \"#utility.yul\":4126:4265   */\n      swap1\n      pop\n        /* \"#utility.yul\":3853:4272   */\n      swap2\n      swap1\n      pop\n      jump\t// out\n        /* \"#utility.yul\":4278:4511   */\n    tag_99:\n        /* \"#utility.yul\":4418:4452   */\n      0x4f6e6c792074686520636f6e7472616374206f776e65722063616e2063616c6c\n        /* \"#utility.yul\":4414:4415   */\n      0x00\n        /* \"#utility.yul\":4406:4412   */\n      dup3\n        /* \"#utility.yul\":4402:4416   */\n      add\n        /* \"#utility.yul\":4395:4453   */\n      mstore\n        /* \"#utility.yul\":4487:4503   */\n      0x20746869732066756e6374696f6e000000000000000000000000000000000000\n        /* \"#utility.yul\":4482:4484   */\n      0x20\n        /* \"#utility.yul\":4474:4480   */\n      dup3\n        /* \"#utility.yul\":4470:4485   */\n      add\n        /* \"#utility.yul\":4463:4504   */\n      mstore\n        /* \"#utility.yul\":4278:4511   */\n      pop\n      jump\t// out\n        /* \"#utility.yul\":4517:4883   */\n    tag_100:\n        /* \"#utility.yul\":4659:4662   */\n      0x00\n        /* \"#utility.yul\":4680:4747   */\n      tag_148\n        /* \"#utility.yul\":4744:4746   */\n      0x2e\n        /* \"#utility.yul\":4739:4742   */\n      dup4\n        /* \"#utility.yul\":4680:4747   */\n      tag_94\n      jump\t// in\n    tag_148:\n        /* \"#utility.yul\":4673:4747   */\n      swap2\n      pop\n        /* \"#utility.yul\":4756:4849   */\n      tag_149\n        /* \"#utility.yul\":4845:4848   */\n      dup3\n        /* \"#utility.yul\":4756:4849   */\n      tag_99\n      jump\t// in\n    tag_149:\n        /* \"#utility.yul\":4874:4876   */\n      0x40\n        /* \"#utility.yul\":4869:4872   */\n      dup3\n        /* \"#utility.yul\":4865:4877   */\n      add\n        /* \"#utility.yul\":4858:4877   */\n      swap1\n      pop\n        /* \"#utility.yul\":4517:4883   */\n      swap2\n      swap1\n      pop\n      jump\t// out\n        /* \"#utility.yul\":4889:5308   */\n    tag_58:\n        /* \"#utility.yul\":5055:5059   */\n      0x00\n        /* \"#utility.yul\":5093:5095   */\n      0x20\n        /* \"#utility.yul\":5082:5091   */\n      dup3\n        /* \"#utility.yul\":5078:5096   */\n      add\n        /* \"#utility.yul\":5070:5096   */\n      swap1\n      pop\n        /* \"#utility.yul\":5142:5151   */\n      dup2\n        /* \"#utility.yul\":5136:5140   */\n      dup2\n        /* \"#utility.yul\":5132:5152   */\n      sub\n        /* \"#utility.yul\":5128:5129   */\n      0x00\n        /* \"#utility.yul\":5117:5126   */\n      dup4\n        /* \"#utility.yul\":5113:5130   */\n      add\n        /* \"#utility.yul\":5106:5153   */\n      mstore\n        /* \"#utility.yul\":5170:5301   */\n      tag_151\n        /* \"#utility.yul\":5296:5300   */\n      dup2\n        /* \"#utility.yul\":5170:5301   */\n      tag_100\n      jump\t// in\n    tag_151:\n        /* \"#utility.yul\":5162:5301   */\n      swap1\n      pop\n        /* \"#utility.yul\":4889:5308   */\n      swap2\n      swap1\n      pop\n      jump\t// out\n        /* \"#utility.yul\":5314:5435   */\n    tag_101:\n        /* \"#utility.yul\":5403:5404   */\n      0x02\n        /* \"#utility.yul\":5396:5401   */\n      dup2\n        /* \"#utility.yul\":5393:5405   */\n      lt\n        /* \"#utility.yul\":5383:5429   */\n      tag_153\n      jumpi\n        /* \"#utility.yul\":5409:5427   */\n      tag_154\n      tag_46\n      jump\t// in\n    tag_154:\n        /* \"#utility.yul\":5383:5429   */\n    tag_153:\n        /* \"#utility.yul\":5314:5435   */\n      pop\n      jump\t// out\n        /* \"#utility.yul\":5441:5584   */\n    tag_102:\n        /* \"#utility.yul\":5494:5501   */\n      0x00\n        /* \"#utility.yul\":5523:5528   */\n      dup2\n        /* \"#utility.yul\":5512:5528   */\n      swap1\n      pop\n        /* \"#utility.yul\":5529:5578   */\n      tag_156\n        /* \"#utility.yul\":5572:5577   */\n      dup3\n        /* \"#utility.yul\":5529:5578   */\n      tag_101\n      jump\t// in\n    tag_156:\n        /* \"#utility.yul\":5441:5584   */\n      swap2\n      swap1\n      pop\n      jump\t// out\n        /* \"#utility.yul\":5590:5733   */\n    tag_103:\n        /* \"#utility.yul\":5654:5663   */\n      0x00\n        /* \"#utility.yul\":5687:5727   */\n      tag_158\n        /* \"#utility.yul\":5721:5726   */\n      dup3\n        /* \"#utility.yul\":5687:5727   */\n      tag_102\n      jump\t// in\n    tag_158:\n        /* \"#utility.yul\":5674:5727   */\n      swap1\n      pop\n        /* \"#utility.yul\":5590:5733   */\n      swap2\n      swap1\n      pop\n      jump\t// out\n        /* \"#utility.yul\":5739:5898   */\n    tag_104:\n        /* \"#utility.yul\":5840:5891   */\n      tag_160\n        /* \"#utility.yul\":5885:5890   */\n      dup2\n        /* \"#utility.yul\":5840:5891   */\n      tag_103\n      jump\t// in\n    tag_160:\n        /* \"#utility.yul\":5835:5838   */\n      dup3\n        /* \"#utility.yul\":5828:5892   */\n      mstore\n        /* \"#utility.yul\":5739:5898   */\n      pop\n      pop\n      jump\t// out\n        /* \"#utility.yul\":5904:6154   */\n    tag_69:\n        /* \"#utility.yul\":6011:6015   */\n      0x00\n        /* \"#utility.yul\":6049:6051   */\n      0x20\n        /* \"#utility.yul\":6038:6047   */\n      dup3\n        /* \"#utility.yul\":6034:6052   */\n      add\n        /* \"#utility.yul\":6026:6052   */\n      swap1\n      pop\n        /* \"#utility.yul\":6062:6147   */\n      tag_162\n        /* \"#utility.yul\":6144:6145   */\n      0x00\n        /* \"#utility.yul\":6133:6142   */\n      dup4\n        /* \"#utility.yul\":6129:6146   */\n      add\n        /* \"#utility.yul\":6120:6126   */\n      dup5\n        /* \"#utility.yul\":6062:6147   */\n      tag_104\n      jump\t// in\n    tag_162:\n        /* \"#utility.yul\":5904:6154   */\n      swap3\n      swap2\n      pop\n      pop\n      jump\t// out\n        /* \"#utility.yul\":6160:6337   */\n    tag_105:\n        /* \"#utility.yul\":6300:6329   */\n      0x5468652041756374696f6e20697320616c7265616479206f70656e0000000000\n        /* \"#utility.yul\":6296:6297   */\n      0x00\n        /* \"#utility.yul\":6288:6294   */\n      dup3\n        /* \"#utility.yul\":6284:6298   */\n      add\n        /* \"#utility.yul\":6277:6330   */\n      mstore\n        /* \"#utility.yul\":6160:6337   */\n      pop\n      jump\t// out\n        /* \"#utility.yul\":6343:6709   */\n    tag_106:\n        /* \"#utility.yul\":6485:6488   */\n      0x00\n        /* \"#utility.yul\":6506:6573   */\n      tag_165\n        /* \"#utility.yul\":6570:6572   */\n      0x1b\n        /* \"#utility.yul\":6565:6568   */\n      dup4\n        /* \"#utility.yul\":6506:6573   */\n      tag_94\n      jump\t// in\n    tag_165:\n        /* \"#utility.yul\":6499:6573   */\n      swap2\n      pop\n        /* \"#utility.yul\":6582:6675   */\n      tag_166\n        /* \"#utility.yul\":6671:6674   */\n      dup3\n        /* \"#utility.yul\":6582:6675   */\n      tag_105\n      jump\t// in\n    tag_166:\n        /* \"#utility.yul\":6700:6702   */\n      0x20\n        /* \"#utility.yul\":6695:6698   */\n      dup3\n        /* \"#utility.yul\":6691:6703   */\n      add\n        /* \"#utility.yul\":6684:6703   */\n      swap1\n      pop\n        /* \"#utility.yul\":6343:6709   */\n      swap2\n      swap1\n      pop\n      jump\t// out\n        /* \"#utility.yul\":6715:7134   */\n    tag_80:\n        /* \"#utility.yul\":6881:6885   */\n      0x00\n        /* \"#utility.yul\":6919:6921   */\n      0x20\n        /* \"#utility.yul\":6908:6917   */\n      dup3\n        /* \"#utility.yul\":6904:6922   */\n      add\n        /* \"#utility.yul\":6896:6922   */\n      swap1\n      pop\n        /* \"#utility.yul\":6968:6977   */\n      dup2\n        /* \"#utility.yul\":6962:6966   */\n      dup2\n        /* \"#utility.yul\":6958:6978   */\n      sub\n        /* \"#utility.yul\":6954:6955   */\n      0x00\n        /* \"#utility.yul\":6943:6952   */\n      dup4\n        /* \"#utility.yul\":6939:6956   */\n      add\n        /* \"#utility.yul\":6932:6979   */\n      mstore\n        /* \"#utility.yul\":6996:7127   */\n      tag_168\n        /* \"#utility.yul\":7122:7126   */\n      dup2\n        /* \"#utility.yul\":6996:7127   */\n      tag_106\n      jump\t// in\n    tag_168:\n        /* \"#utility.yul\":6988:7127   */\n      swap1\n      pop\n        /* \"#utility.yul\":6715:7134   */\n      swap2\n      swap1\n      pop\n      jump\t// out\n\n    auxdata: 0xa26469706673582212206f1cdf10a14da8a2ab029a8299427857c9e24737a2a33d9272ef90b26d36a7e564736f6c63430008110033\n}\n",
				"bytecode": {
					"linkReferences": {},
					"object": "60c06040523480156200001157600080fd5b5060405162000c0538038062000c05833981810160405281019062000037919062000197565b836000806101000a81548173ffffffffffffffffffffffffffffffffffffffff021916908373ffffffffffffffffffffffffffffffffffffffff1602179055508260018190555081608081815250508073ffffffffffffffffffffffffffffffffffffffff1660a08173ffffffffffffffffffffffffffffffffffffffff16815250506001600460006101000a81548160ff02191690836001811115620000e357620000e262000209565b5b02179055505050505062000238565b600080fd5b600073ffffffffffffffffffffffffffffffffffffffff82169050919050565b60006200012482620000f7565b9050919050565b620001368162000117565b81146200014257600080fd5b50565b60008151905062000156816200012b565b92915050565b6000819050919050565b62000171816200015c565b81146200017d57600080fd5b50565b600081519050620001918162000166565b92915050565b60008060008060808587031215620001b457620001b3620000f2565b5b6000620001c48782880162000145565b9450506020620001d78782880162000180565b9350506040620001ea8782880162000180565b9250506060620001fd8782880162000145565b91505092959194509250565b7f4e487b7100000000000000000000000000000000000000000000000000000000600052602160045260246000fd5b60805160a0516109a76200025e600039600061044b015260006101a301526109a76000f3fe60806040526004361061007b5760003560e01c806355a373d61161004e57806355a373d6146100f75780636b64c76914610122578063d57bde7914610139578063f0ab49b1146101645761007b565b806317d70f7c146100805780631998aeef146100ab5780631d0806ae146100b5578063378252f2146100e0575b600080fd5b34801561008c57600080fd5b506100956101a1565b6040516100a29190610623565b60405180910390f35b6100b36101c5565b005b3480156100c157600080fd5b506100ca6102cc565b6040516100d79190610623565b60405180910390f35b3480156100ec57600080fd5b506100f56102d2565b005b34801561010357600080fd5b5061010c610449565b604051610119919061067f565b60405180910390f35b34801561012e57600080fd5b5061013761046d565b005b34801561014557600080fd5b5061014e6105ec565b60405161015b9190610623565b60405180910390f35b34801561017057600080fd5b5061018b600480360381019061018691906106cb565b6105f2565b6040516101989190610623565b60405180910390f35b7f000000000000000000000000000000000000000000000000000000000000000081565b600060018111156101d9576101d86106f8565b5b600460009054906101000a900460ff1660018111156101fb576101fa6106f8565b5b1461023b576040517f08c379a000000000000000000000000000000000000000000000000000000000815260040161023290610784565b60405180910390fd5b600254341161027f576040517f08c379a0000000000000000000000000000000000000000000000000000000008152600401610276906107f0565b60405180910390fd5b34600360003373ffffffffffffffffffffffffffffffffffffffff1673ffffffffffffffffffffffffffffffffffffffff1681526020019081526020016000208190555034600281905550565b60015481565b60008054906101000a900473ffffffffffffffffffffffffffffffffffffffff1673ffffffffffffffffffffffffffffffffffffffff163373ffffffffffffffffffffffffffffffffffffffff1614610360576040517f08c379a000000000000000000000000000000000000000000000000000000000815260040161035790610882565b60405180910390fd5b60006001811115610374576103736106f8565b5b600460009054906101000a900460ff166001811115610396576103956106f8565b5b146103d6576040517f08c379a00000000000000000000000000000000000000000000000000000000081526004016103cd90610784565b60405180910390fd5b6001600460006101000a81548160ff021916908360018111156103fc576103fb6106f8565b5b02179055507f8caed3b4bf01375b22dc7f84afe719ce12ab14864751a7d5e4142fe4e4a50a51600460009054906101000a900460ff1660405161043f91906108ea565b60405180910390a1565b7f000000000000000000000000000000000000000000000000000000000000000081565b60008054906101000a900473ffffffffffffffffffffffffffffffffffffffff1673ffffffffffffffffffffffffffffffffffffffff163373ffffffffffffffffffffffffffffffffffffffff16146104fb576040517f08c379a00000000000000000000000000000000000000000000000000000000081526004016104f290610882565b60405180910390fd5b60018081111561050e5761050d6106f8565b5b600460009054906101000a900460ff1660018111156105305761052f6106f8565b5b14610570576040517f08c379a000000000000000000000000000000000000000000000000000000000815260040161056790610951565b60405180910390fd5b6000600460006101000a81548160ff02191690836001811115610596576105956106f8565b5b02179055506001546002819055507f8caed3b4bf01375b22dc7f84afe719ce12ab14864751a7d5e4142fe4e4a50a51600460009054906101000a900460ff166040516105e291906108ea565b60405180910390a1565b60025481565b60036020528060005260406000206000915090505481565b6000819050919050565b61061d8161060a565b82525050565b60006020820190506106386000830184610614565b92915050565b600073ffffffffffffffffffffffffffffffffffffffff82169050919050565b60006106698261063e565b9050919050565b6106798161065e565b82525050565b60006020820190506106946000830184610670565b92915050565b600080fd5b6106a88161065e565b81146106b357600080fd5b50565b6000813590506106c58161069f565b92915050565b6000602082840312156106e1576106e061069a565b5b60006106ef848285016106b6565b91505092915050565b7f4e487b7100000000000000000000000000000000000000000000000000000000600052602160045260246000fd5b600082825260208201905092915050565b7f5468652041756374696f6e20697320616c726561647920636c6f736564000000600082015250565b600061076e601d83610727565b915061077982610738565b602082019050919050565b6000602082019050818103600083015261079d81610761565b9050919050565b7f596f752063616e277420626964206c6f77657200000000000000000000000000600082015250565b60006107da601383610727565b91506107e5826107a4565b602082019050919050565b60006020820190508181036000830152610809816107cd565b9050919050565b7f4f6e6c792074686520636f6e7472616374206f776e65722063616e2063616c6c60008201527f20746869732066756e6374696f6e000000000000000000000000000000000000602082015250565b600061086c602e83610727565b915061087782610810565b604082019050919050565b6000602082019050818103600083015261089b8161085f565b9050919050565b600281106108b3576108b26106f8565b5b50565b60008190506108c4826108a2565b919050565b60006108d4826108b6565b9050919050565b6108e4816108c9565b82525050565b60006020820190506108ff60008301846108db565b92915050565b7f5468652041756374696f6e20697320616c7265616479206f70656e0000000000600082015250565b600061093b601b83610727565b915061094682610905565b602082019050919050565b6000602082019050818103600083015261096a8161092e565b905091905056fea26469706673582212206f1cdf10a14da8a2ab029a8299427857c9e24737a2a33d9272ef90b26d36a7e564736f6c63430008110033",
					"opcodes": "PUSH1 0xC0 PUSH1 0x40 MSTORE CALLVALUE DUP1 ISZERO PUSH3 0x11 JUMPI PUSH1 0x0 DUP1 REVERT JUMPDEST POP PUSH1 0x40 MLOAD PUSH3 0xC05 CODESIZE SUB DUP1 PUSH3 0xC05 DUP4 CODECOPY DUP2 DUP2 ADD PUSH1 0x40 MSTORE DUP2 ADD SWAP1 PUSH3 0x37 SWAP2 SWAP1 PUSH3 0x197 JUMP JUMPDEST DUP4 PUSH1 0x0 DUP1 PUSH2 0x100 EXP DUP2 SLOAD DUP2 PUSH20 0xFFFFFFFFFFFFFFFFFFFFFFFFFFFFFFFFFFFFFFFF MUL NOT AND SWAP1 DUP4 PUSH20 0xFFFFFFFFFFFFFFFFFFFFFFFFFFFFFFFFFFFFFFFF AND MUL OR SWAP1 SSTORE POP DUP3 PUSH1 0x1 DUP2 SWAP1 SSTORE POP DUP2 PUSH1 0x80 DUP2 DUP2 MSTORE POP POP DUP1 PUSH20 0xFFFFFFFFFFFFFFFFFFFFFFFFFFFFFFFFFFFFFFFF AND PUSH1 0xA0 DUP2 PUSH20 0xFFFFFFFFFFFFFFFFFFFFFFFFFFFFFFFFFFFFFFFF AND DUP2 MSTORE POP POP PUSH1 0x1 PUSH1 0x4 PUSH1 0x0 PUSH2 0x100 EXP DUP2 SLOAD DUP2 PUSH1 0xFF MUL NOT AND SWAP1 DUP4 PUSH1 0x1 DUP2 GT ISZERO PUSH3 0xE3 JUMPI PUSH3 0xE2 PUSH3 0x209 JUMP JUMPDEST JUMPDEST MUL OR SWAP1 SSTORE POP POP POP POP POP PUSH3 0x238 JUMP JUMPDEST PUSH1 0x0 DUP1 REVERT JUMPDEST PUSH1 0x0 PUSH20 0xFFFFFFFFFFFFFFFFFFFFFFFFFFFFFFFFFFFFFFFF DUP3 AND SWAP1 POP SWAP2 SWAP1 POP JUMP JUMPDEST PUSH1 0x0 PUSH3 0x124 DUP3 PUSH3 0xF7 JUMP JUMPDEST SWAP1 POP SWAP2 SWAP1 POP JUMP JUMPDEST PUSH3 0x136 DUP2 PUSH3 0x117 JUMP JUMPDEST DUP2 EQ PUSH3 0x142 JUMPI PUSH1 0x0 DUP1 REVERT JUMPDEST POP JUMP JUMPDEST PUSH1 0x0 DUP2 MLOAD SWAP1 POP PUSH3 0x156 DUP2 PUSH3 0x12B JUMP JUMPDEST SWAP3 SWAP2 POP POP JUMP JUMPDEST PUSH1 0x0 DUP2 SWAP1 POP SWAP2 SWAP1 POP JUMP JUMPDEST PUSH3 0x171 DUP2 PUSH3 0x15C JUMP JUMPDEST DUP2 EQ PUSH3 0x17D JUMPI PUSH1 0x0 DUP1 REVERT JUMPDEST POP JUMP JUMPDEST PUSH1 0x0 DUP2 MLOAD SWAP1 POP PUSH3 0x191 DUP2 PUSH3 0x166 JUMP JUMPDEST SWAP3 SWAP2 POP POP JUMP JUMPDEST PUSH1 0x0 DUP1 PUSH1 0x0 DUP1 PUSH1 0x80 DUP6 DUP8 SUB SLT ISZERO PUSH3 0x1B4 JUMPI PUSH3 0x1B3 PUSH3 0xF2 JUMP JUMPDEST JUMPDEST PUSH1 0x0 PUSH3 0x1C4 DUP8 DUP3 DUP9 ADD PUSH3 0x145 JUMP JUMPDEST SWAP5 POP POP PUSH1 0x20 PUSH3 0x1D7 DUP8 DUP3 DUP9 ADD PUSH3 0x180 JUMP JUMPDEST SWAP4 POP POP PUSH1 0x40 PUSH3 0x1EA DUP8 DUP3 DUP9 ADD PUSH3 0x180 JUMP JUMPDEST SWAP3 POP POP PUSH1 0x60 PUSH3 0x1FD DUP8 DUP3 DUP9 ADD PUSH3 0x145 JUMP JUMPDEST SWAP2 POP POP SWAP3 SWAP6 SWAP2 SWAP5 POP SWAP3 POP JUMP JUMPDEST PUSH32 0x4E487B7100000000000000000000000000000000000000000000000000000000 PUSH1 0x0 MSTORE PUSH1 0x21 PUSH1 0x4 MSTORE PUSH1 0x24 PUSH1 0x0 REVERT JUMPDEST PUSH1 0x80 MLOAD PUSH1 0xA0 MLOAD PUSH2 0x9A7 PUSH3 0x25E PUSH1 0x0 CODECOPY PUSH1 0x0 PUSH2 0x44B ADD MSTORE PUSH1 0x0 PUSH2 0x1A3 ADD MSTORE PUSH2 0x9A7 PUSH1 0x0 RETURN INVALID PUSH1 0x80 PUSH1 0x40 MSTORE PUSH1 0x4 CALLDATASIZE LT PUSH2 0x7B JUMPI PUSH1 0x0 CALLDATALOAD PUSH1 0xE0 SHR DUP1 PUSH4 0x55A373D6 GT PUSH2 0x4E JUMPI DUP1 PUSH4 0x55A373D6 EQ PUSH2 0xF7 JUMPI DUP1 PUSH4 0x6B64C769 EQ PUSH2 0x122 JUMPI DUP1 PUSH4 0xD57BDE79 EQ PUSH2 0x139 JUMPI DUP1 PUSH4 0xF0AB49B1 EQ PUSH2 0x164 JUMPI PUSH2 0x7B JUMP JUMPDEST DUP1 PUSH4 0x17D70F7C EQ PUSH2 0x80 JUMPI DUP1 PUSH4 0x1998AEEF EQ PUSH2 0xAB JUMPI DUP1 PUSH4 0x1D0806AE EQ PUSH2 0xB5 JUMPI DUP1 PUSH4 0x378252F2 EQ PUSH2 0xE0 JUMPI JUMPDEST PUSH1 0x0 DUP1 REVERT JUMPDEST CALLVALUE DUP1 ISZERO PUSH2 0x8C JUMPI PUSH1 0x0 DUP1 REVERT JUMPDEST POP PUSH2 0x95 PUSH2 0x1A1 JUMP JUMPDEST PUSH1 0x40 MLOAD PUSH2 0xA2 SWAP2 SWAP1 PUSH2 0x623 JUMP JUMPDEST PUSH1 0x40 MLOAD DUP1 SWAP2 SUB SWAP1 RETURN JUMPDEST PUSH2 0xB3 PUSH2 0x1C5 JUMP JUMPDEST STOP JUMPDEST CALLVALUE DUP1 ISZERO PUSH2 0xC1 JUMPI PUSH1 0x0 DUP1 REVERT JUMPDEST POP PUSH2 0xCA PUSH2 0x2CC JUMP JUMPDEST PUSH1 0x40 MLOAD PUSH2 0xD7 SWAP2 SWAP1 PUSH2 0x623 JUMP JUMPDEST PUSH1 0x40 MLOAD DUP1 SWAP2 SUB SWAP1 RETURN JUMPDEST CALLVALUE DUP1 ISZERO PUSH2 0xEC JUMPI PUSH1 0x0 DUP1 REVERT JUMPDEST POP PUSH2 0xF5 PUSH2 0x2D2 JUMP JUMPDEST STOP JUMPDEST CALLVALUE DUP1 ISZERO PUSH2 0x103 JUMPI PUSH1 0x0 DUP1 REVERT JUMPDEST POP PUSH2 0x10C PUSH2 0x449 JUMP JUMPDEST PUSH1 0x40 MLOAD PUSH2 0x119 SWAP2 SWAP1 PUSH2 0x67F JUMP JUMPDEST PUSH1 0x40 MLOAD DUP1 SWAP2 SUB SWAP1 RETURN JUMPDEST CALLVALUE DUP1 ISZERO PUSH2 0x12E JUMPI PUSH1 0x0 DUP1 REVERT JUMPDEST POP PUSH2 0x137 PUSH2 0x46D JUMP JUMPDEST STOP JUMPDEST CALLVALUE DUP1 ISZERO PUSH2 0x145 JUMPI PUSH1 0x0 DUP1 REVERT JUMPDEST POP PUSH2 0x14E PUSH2 0x5EC JUMP JUMPDEST PUSH1 0x40 MLOAD PUSH2 0x15B SWAP2 SWAP1 PUSH2 0x623 JUMP JUMPDEST PUSH1 0x40 MLOAD DUP1 SWAP2 SUB SWAP1 RETURN JUMPDEST CALLVALUE DUP1 ISZERO PUSH2 0x170 JUMPI PUSH1 0x0 DUP1 REVERT JUMPDEST POP PUSH2 0x18B PUSH1 0x4 DUP1 CALLDATASIZE SUB DUP2 ADD SWAP1 PUSH2 0x186 SWAP2 SWAP1 PUSH2 0x6CB JUMP JUMPDEST PUSH2 0x5F2 JUMP JUMPDEST PUSH1 0x40 MLOAD PUSH2 0x198 SWAP2 SWAP1 PUSH2 0x623 JUMP JUMPDEST PUSH1 0x40 MLOAD DUP1 SWAP2 SUB SWAP1 RETURN JUMPDEST PUSH32 0x0 DUP2 JUMP JUMPDEST PUSH1 0x0 PUSH1 0x1 DUP2 GT ISZERO PUSH2 0x1D9 JUMPI PUSH2 0x1D8 PUSH2 0x6F8 JUMP JUMPDEST JUMPDEST PUSH1 0x4 PUSH1 0x0 SWAP1 SLOAD SWAP1 PUSH2 0x100 EXP SWAP1 DIV PUSH1 0xFF AND PUSH1 0x1 DUP2 GT ISZERO PUSH2 0x1FB JUMPI PUSH2 0x1FA PUSH2 0x6F8 JUMP JUMPDEST JUMPDEST EQ PUSH2 0x23B JUMPI PUSH1 0x40 MLOAD PUSH32 0x8C379A000000000000000000000000000000000000000000000000000000000 DUP2 MSTORE PUSH1 0x4 ADD PUSH2 0x232 SWAP1 PUSH2 0x784 JUMP JUMPDEST PUSH1 0x40 MLOAD DUP1 SWAP2 SUB SWAP1 REVERT JUMPDEST PUSH1 0x2 SLOAD CALLVALUE GT PUSH2 0x27F JUMPI PUSH1 0x40 MLOAD PUSH32 0x8C379A000000000000000000000000000000000000000000000000000000000 DUP2 MSTORE PUSH1 0x4 ADD PUSH2 0x276 SWAP1 PUSH2 0x7F0 JUMP JUMPDEST PUSH1 0x40 MLOAD DUP1 SWAP2 SUB SWAP1 REVERT JUMPDEST CALLVALUE PUSH1 0x3 PUSH1 0x0 CALLER PUSH20 0xFFFFFFFFFFFFFFFFFFFFFFFFFFFFFFFFFFFFFFFF AND PUSH20 0xFFFFFFFFFFFFFFFFFFFFFFFFFFFFFFFFFFFFFFFF AND DUP2 MSTORE PUSH1 0x20 ADD SWAP1 DUP2 MSTORE PUSH1 0x20 ADD PUSH1 0x0 KECCAK256 DUP2 SWAP1 SSTORE POP CALLVALUE PUSH1 0x2 DUP2 SWAP1 SSTORE POP JUMP JUMPDEST PUSH1 0x1 SLOAD DUP2 JUMP JUMPDEST PUSH1 0x0 DUP1 SLOAD SWAP1 PUSH2 0x100 EXP SWAP1 DIV PUSH20 0xFFFFFFFFFFFFFFFFFFFFFFFFFFFFFFFFFFFFFFFF AND PUSH20 0xFFFFFFFFFFFFFFFFFFFFFFFFFFFFFFFFFFFFFFFF AND CALLER PUSH20 0xFFFFFFFFFFFFFFFFFFFFFFFFFFFFFFFFFFFFFFFF AND EQ PUSH2 0x360 JUMPI PUSH1 0x40 MLOAD PUSH32 0x8C379A000000000000000000000000000000000000000000000000000000000 DUP2 MSTORE PUSH1 0x4 ADD PUSH2 0x357 SWAP1 PUSH2 0x882 JUMP JUMPDEST PUSH1 0x40 MLOAD DUP1 SWAP2 SUB SWAP1 REVERT JUMPDEST PUSH1 0x0 PUSH1 0x1 DUP2 GT ISZERO PUSH2 0x374 JUMPI PUSH2 0x373 PUSH2 0x6F8 JUMP JUMPDEST JUMPDEST PUSH1 0x4 PUSH1 0x0 SWAP1 SLOAD SWAP1 PUSH2 0x100 EXP SWAP1 DIV PUSH1 0xFF AND PUSH1 0x1 DUP2 GT ISZERO PUSH2 0x396 JUMPI PUSH2 0x395 PUSH2 0x6F8 JUMP JUMPDEST JUMPDEST EQ PUSH2 0x3D6 JUMPI PUSH1 0x40 MLOAD PUSH32 0x8C379A000000000000000000000000000000000000000000000000000000000 DUP2 MSTORE PUSH1 0x4 ADD PUSH2 0x3CD SWAP1 PUSH2 0x784 JUMP JUMPDEST PUSH1 0x40 MLOAD DUP1 SWAP2 SUB SWAP1 REVERT JUMPDEST PUSH1 0x1 PUSH1 0x4 PUSH1 0x0 PUSH2 0x100 EXP DUP2 SLOAD DUP2 PUSH1 0xFF MUL NOT AND SWAP1 DUP4 PUSH1 0x1 DUP2 GT ISZERO PUSH2 0x3FC JUMPI PUSH2 0x3FB PUSH2 0x6F8 JUMP JUMPDEST JUMPDEST MUL OR SWAP1 SSTORE POP PUSH32 0x8CAED3B4BF01375B22DC7F84AFE719CE12AB14864751A7D5E4142FE4E4A50A51 PUSH1 0x4 PUSH1 0x0 SWAP1 SLOAD SWAP1 PUSH2 0x100 EXP SWAP1 DIV PUSH1 0xFF AND PUSH1 0x40 MLOAD PUSH2 0x43F SWAP2 SWAP1 PUSH2 0x8EA JUMP JUMPDEST PUSH1 0x40 MLOAD DUP1 SWAP2 SUB SWAP1 LOG1 JUMP JUMPDEST PUSH32 0x0 DUP2 JUMP JUMPDEST PUSH1 0x0 DUP1 SLOAD SWAP1 PUSH2 0x100 EXP SWAP1 DIV PUSH20 0xFFFFFFFFFFFFFFFFFFFFFFFFFFFFFFFFFFFFFFFF AND PUSH20 0xFFFFFFFFFFFFFFFFFFFFFFFFFFFFFFFFFFFFFFFF AND CALLER PUSH20 0xFFFFFFFFFFFFFFFFFFFFFFFFFFFFFFFFFFFFFFFF AND EQ PUSH2 0x4FB JUMPI PUSH1 0x40 MLOAD PUSH32 0x8C379A000000000000000000000000000000000000000000000000000000000 DUP2 MSTORE PUSH1 0x4 ADD PUSH2 0x4F2 SWAP1 PUSH2 0x882 JUMP JUMPDEST PUSH1 0x40 MLOAD DUP1 SWAP2 SUB SWAP1 REVERT JUMPDEST PUSH1 0x1 DUP1 DUP2 GT ISZERO PUSH2 0x50E JUMPI PUSH2 0x50D PUSH2 0x6F8 JUMP JUMPDEST JUMPDEST PUSH1 0x4 PUSH1 0x0 SWAP1 SLOAD SWAP1 PUSH2 0x100 EXP SWAP1 DIV PUSH1 0xFF AND PUSH1 0x1 DUP2 GT ISZERO PUSH2 0x530 JUMPI PUSH2 0x52F PUSH2 0x6F8 JUMP JUMPDEST JUMPDEST EQ PUSH2 0x570 JUMPI PUSH1 0x40 MLOAD PUSH32 0x8C379A000000000000000000000000000000000000000000000000000000000 DUP2 MSTORE PUSH1 0x4 ADD PUSH2 0x567 SWAP1 PUSH2 0x951 JUMP JUMPDEST PUSH1 0x40 MLOAD DUP1 SWAP2 SUB SWAP1 REVERT JUMPDEST PUSH1 0x0 PUSH1 0x4 PUSH1 0x0 PUSH2 0x100 EXP DUP2 SLOAD DUP2 PUSH1 0xFF MUL NOT AND SWAP1 DUP4 PUSH1 0x1 DUP2 GT ISZERO PUSH2 0x596 JUMPI PUSH2 0x595 PUSH2 0x6F8 JUMP JUMPDEST JUMPDEST MUL OR SWAP1 SSTORE POP PUSH1 0x1 SLOAD PUSH1 0x2 DUP2 SWAP1 SSTORE POP PUSH32 0x8CAED3B4BF01375B22DC7F84AFE719CE12AB14864751A7D5E4142FE4E4A50A51 PUSH1 0x4 PUSH1 0x0 SWAP1 SLOAD SWAP1 PUSH2 0x100 EXP SWAP1 DIV PUSH1 0xFF AND PUSH1 0x40 MLOAD PUSH2 0x5E2 SWAP2 SWAP1 PUSH2 0x8EA JUMP JUMPDEST PUSH1 0x40 MLOAD DUP1 SWAP2 SUB SWAP1 LOG1 JUMP JUMPDEST PUSH1 0x2 SLOAD DUP2 JUMP JUMPDEST PUSH1 0x3 PUSH1 0x20 MSTORE DUP1 PUSH1 0x0 MSTORE PUSH1 0x40 PUSH1 0x0 KECCAK256 PUSH1 0x0 SWAP2 POP SWAP1 POP SLOAD DUP2 JUMP JUMPDEST PUSH1 0x0 DUP2 SWAP1 POP SWAP2 SWAP1 POP JUMP JUMPDEST PUSH2 0x61D DUP2 PUSH2 0x60A JUMP JUMPDEST DUP3 MSTORE POP POP JUMP JUMPDEST PUSH1 0x0 PUSH1 0x20 DUP3 ADD SWAP1 POP PUSH2 0x638 PUSH1 0x0 DUP4 ADD DUP5 PUSH2 0x614 JUMP JUMPDEST SWAP3 SWAP2 POP POP JUMP JUMPDEST PUSH1 0x0 PUSH20 0xFFFFFFFFFFFFFFFFFFFFFFFFFFFFFFFFFFFFFFFF DUP3 AND SWAP1 POP SWAP2 SWAP1 POP JUMP JUMPDEST PUSH1 0x0 PUSH2 0x669 DUP3 PUSH2 0x63E JUMP JUMPDEST SWAP1 POP SWAP2 SWAP1 POP JUMP JUMPDEST PUSH2 0x679 DUP2 PUSH2 0x65E JUMP JUMPDEST DUP3 MSTORE POP POP JUMP JUMPDEST PUSH1 0x0 PUSH1 0x20 DUP3 ADD SWAP1 POP PUSH2 0x694 PUSH1 0x0 DUP4 ADD DUP5 PUSH2 0x670 JUMP JUMPDEST SWAP3 SWAP2 POP POP JUMP JUMPDEST PUSH1 0x0 DUP1 REVERT JUMPDEST PUSH2 0x6A8 DUP2 PUSH2 0x65E JUMP JUMPDEST DUP2 EQ PUSH2 0x6B3 JUMPI PUSH1 0x0 DUP1 REVERT JUMPDEST POP JUMP JUMPDEST PUSH1 0x0 DUP2 CALLDATALOAD SWAP1 POP PUSH2 0x6C5 DUP2 PUSH2 0x69F JUMP JUMPDEST SWAP3 SWAP2 POP POP JUMP JUMPDEST PUSH1 0x0 PUSH1 0x20 DUP3 DUP5 SUB SLT ISZERO PUSH2 0x6E1 JUMPI PUSH2 0x6E0 PUSH2 0x69A JUMP JUMPDEST JUMPDEST PUSH1 0x0 PUSH2 0x6EF DUP5 DUP3 DUP6 ADD PUSH2 0x6B6 JUMP JUMPDEST SWAP2 POP POP SWAP3 SWAP2 POP POP JUMP JUMPDEST PUSH32 0x4E487B7100000000000000000000000000000000000000000000000000000000 PUSH1 0x0 MSTORE PUSH1 0x21 PUSH1 0x4 MSTORE PUSH1 0x24 PUSH1 0x0 REVERT JUMPDEST PUSH1 0x0 DUP3 DUP3 MSTORE PUSH1 0x20 DUP3 ADD SWAP1 POP SWAP3 SWAP2 POP POP JUMP JUMPDEST PUSH32 0x5468652041756374696F6E20697320616C726561647920636C6F736564000000 PUSH1 0x0 DUP3 ADD MSTORE POP JUMP JUMPDEST PUSH1 0x0 PUSH2 0x76E PUSH1 0x1D DUP4 PUSH2 0x727 JUMP JUMPDEST SWAP2 POP PUSH2 0x779 DUP3 PUSH2 0x738 JUMP JUMPDEST PUSH1 0x20 DUP3 ADD SWAP1 POP SWAP2 SWAP1 POP JUMP JUMPDEST PUSH1 0x0 PUSH1 0x20 DUP3 ADD SWAP1 POP DUP2 DUP2 SUB PUSH1 0x0 DUP4 ADD MSTORE PUSH2 0x79D DUP2 PUSH2 0x761 JUMP JUMPDEST SWAP1 POP SWAP2 SWAP1 POP JUMP JUMPDEST PUSH32 0x596F752063616E277420626964206C6F77657200000000000000000000000000 PUSH1 0x0 DUP3 ADD MSTORE POP JUMP JUMPDEST PUSH1 0x0 PUSH2 0x7DA PUSH1 0x13 DUP4 PUSH2 0x727 JUMP JUMPDEST SWAP2 POP PUSH2 0x7E5 DUP3 PUSH2 0x7A4 JUMP JUMPDEST PUSH1 0x20 DUP3 ADD SWAP1 POP SWAP2 SWAP1 POP JUMP JUMPDEST PUSH1 0x0 PUSH1 0x20 DUP3 ADD SWAP1 POP DUP2 DUP2 SUB PUSH1 0x0 DUP4 ADD MSTORE PUSH2 0x809 DUP2 PUSH2 0x7CD JUMP JUMPDEST SWAP1 POP SWAP2 SWAP1 POP JUMP JUMPDEST PUSH32 0x4F6E6C792074686520636F6E7472616374206F776E65722063616E2063616C6C PUSH1 0x0 DUP3 ADD MSTORE PUSH32 0x20746869732066756E6374696F6E000000000000000000000000000000000000 PUSH1 0x20 DUP3 ADD MSTORE POP JUMP JUMPDEST PUSH1 0x0 PUSH2 0x86C PUSH1 0x2E DUP4 PUSH2 0x727 JUMP JUMPDEST SWAP2 POP PUSH2 0x877 DUP3 PUSH2 0x810 JUMP JUMPDEST PUSH1 0x40 DUP3 ADD SWAP1 POP SWAP2 SWAP1 POP JUMP JUMPDEST PUSH1 0x0 PUSH1 0x20 DUP3 ADD SWAP1 POP DUP2 DUP2 SUB PUSH1 0x0 DUP4 ADD MSTORE PUSH2 0x89B DUP2 PUSH2 0x85F JUMP JUMPDEST SWAP1 POP SWAP2 SWAP1 POP JUMP JUMPDEST PUSH1 0x2 DUP2 LT PUSH2 0x8B3 JUMPI PUSH2 0x8B2 PUSH2 0x6F8 JUMP JUMPDEST JUMPDEST POP JUMP JUMPDEST PUSH1 0x0 DUP2 SWAP1 POP PUSH2 0x8C4 DUP3 PUSH2 0x8A2 JUMP JUMPDEST SWAP2 SWAP1 POP JUMP JUMPDEST PUSH1 0x0 PUSH2 0x8D4 DUP3 PUSH2 0x8B6 JUMP JUMPDEST SWAP1 POP SWAP2 SWAP1 POP JUMP JUMPDEST PUSH2 0x8E4 DUP2 PUSH2 0x8C9 JUMP JUMPDEST DUP3 MSTORE POP POP JUMP JUMPDEST PUSH1 0x0 PUSH1 0x20 DUP3 ADD SWAP1 POP PUSH2 0x8FF PUSH1 0x0 DUP4 ADD DUP5 PUSH2 0x8DB JUMP JUMPDEST SWAP3 SWAP2 POP POP JUMP JUMPDEST PUSH32 0x5468652041756374696F6E20697320616C7265616479206F70656E0000000000 PUSH1 0x0 DUP3 ADD MSTORE POP JUMP JUMPDEST PUSH1 0x0 PUSH2 0x93B PUSH1 0x1B DUP4 PUSH2 0x727 JUMP JUMPDEST SWAP2 POP PUSH2 0x946 DUP3 PUSH2 0x905 JUMP JUMPDEST PUSH1 0x20 DUP3 ADD SWAP1 POP SWAP2 SWAP1 POP JUMP JUMPDEST PUSH1 0x0 PUSH1 0x20 DUP3 ADD SWAP1 POP DUP2 DUP2 SUB PUSH1 0x0 DUP4 ADD MSTORE PUSH2 0x96A DUP2 PUSH2 0x92E JUMP JUMPDEST SWAP1 POP SWAP2 SWAP1 POP JUMP INVALID LOG2 PUSH5 0x6970667358 0x22 SLT KECCAK256 PUSH16 0x1CDF10A14DA8A2AB029A8299427857C9 0xE2 SELFBALANCE CALLDATACOPY LOG2 LOG3 RETURNDATASIZE SWAP3 PUSH19 0xEF90B26D36A7E564736F6C6343000811003300 "
				},
				"gasEstimates": {
					"creation": {
						"codeDepositCost": "494200",
						"executionCost": "infinite",
						"totalCost": "infinite"
					},
					"external": {
						"bid()": "48791",
						"bidsRegister(address)": "2880",
						"closeAuction()": "32298",
						"highestBid()": "2473",
						"initialPrice()": "2474",
						"startAuction()": "56467",
						"tokenContract()": "infinite",
						"tokenId()": "infinite"
					}
				},
				"methodIdentifiers": {
					"bid()": "1998aeef",
					"bidsRegister(address)": "f0ab49b1",
					"closeAuction()": "378252f2",
					"highestBid()": "d57bde79",
					"initialPrice()": "1d0806ae",
					"startAuction()": "6b64c769",
					"tokenContract()": "55a373d6",
					"tokenId()": "17d70f7c"
				}
			},
			"storageLayout": {
				"storage": [
					{
						"astId": 3,
						"contract": "contracts/Auction_1.sol:NFTAuction",
						"label": "auctioneer",
						"offset": 0,
						"slot": "0",
						"type": "t_address_payable"
					},
					{
						"astId": 5,
						"contract": "contracts/Auction_1.sol:NFTAuction",
						"label": "initialPrice",
						"offset": 0,
						"slot": "1",
						"type": "t_uint256"
					},
					{
						"astId": 7,
						"contract": "contracts/Auction_1.sol:NFTAuction",
						"label": "highestBid",
						"offset": 0,
						"slot": "2",
						"type": "t_uint256"
					},
					{
						"astId": 15,
						"contract": "contracts/Auction_1.sol:NFTAuction",
						"label": "bidsRegister",
						"offset": 0,
						"slot": "3",
						"type": "t_mapping(t_address,t_uint256)"
					},
					{
						"astId": 21,
						"contract": "contracts/Auction_1.sol:NFTAuction",
						"label": "status",
						"offset": 0,
						"slot": "4",
						"type": "t_enum(AuctionStatus)18"
					}
				],
				"types": {
					"t_address": {
						"encoding": "inplace",
						"label": "address",
						"numberOfBytes": "20"
					},
					"t_address_payable": {
						"encoding": "inplace",
						"label": "address payable",
						"numberOfBytes": "20"
					},
					"t_enum(AuctionStatus)18": {
						"encoding": "inplace",
						"label": "enum NFTAuction.AuctionStatus",
						"numberOfBytes": "1"
					},
					"t_mapping(t_address,t_uint256)": {
						"encoding": "mapping",
						"key": "t_address",
						"label": "mapping(address => uint256)",
						"numberOfBytes": "32",
						"value": "t_uint256"
					},
					"t_uint256": {
						"encoding": "inplace",
						"label": "uint256",
						"numberOfBytes": "32"
					}
				}
			},
			"userdoc": {
				"kind": "user",
				"methods": {},
				"version": 1
			}
		}
	}
}