{
	"contracts/Pool.sol": {
		"LiquidityPool": {
			"abi": [
				{
					"inputs": [
						{
							"internalType": "address",
							"name": "_tokenAddress",
							"type": "address"
						}
					],
					"stateMutability": "nonpayable",
					"type": "constructor"
				},
				{
					"anonymous": false,
					"inputs": [
						{
							"indexed": false,
							"internalType": "address",
							"name": "_liquidityProvider",
							"type": "address"
						},
						{
							"indexed": false,
							"internalType": "uint256",
							"name": "_shares",
							"type": "uint256"
						}
					],
					"name": "liquidityProvided",
					"type": "event"
				},
				{
					"inputs": [
						{
							"internalType": "uint256",
							"name": "_ethAmount",
							"type": "uint256"
						}
					],
					"name": "getDAI",
					"outputs": [],
					"stateMutability": "payable",
					"type": "function"
				},
				{
					"inputs": [
						{
							"internalType": "uint256",
							"name": "_DAIAmount",
							"type": "uint256"
						}
					],
					"name": "getEth",
					"outputs": [],
					"stateMutability": "nonpayable",
					"type": "function"
				},
				{
					"inputs": [],
					"name": "kLast",
					"outputs": [
						{
							"internalType": "uint256",
							"name": "",
							"type": "uint256"
						}
					],
					"stateMutability": "view",
					"type": "function"
				},
				{
					"inputs": [
						{
							"internalType": "uint256",
							"name": "_amount",
							"type": "uint256"
						}
					],
					"name": "provideLiquidity",
					"outputs": [],
					"stateMutability": "payable",
					"type": "function"
				},
				{
					"inputs": [
						{
							"internalType": "uint256",
							"name": "_sharesAmount",
							"type": "uint256"
						}
					],
					"name": "reedemShares",
					"outputs": [],
					"stateMutability": "nonpayable",
					"type": "function"
				},
				{
					"inputs": [],
					"name": "reserveToken",
					"outputs": [
						{
							"internalType": "address",
							"name": "",
							"type": "address"
						}
					],
					"stateMutability": "view",
					"type": "function"
				},
				{
					"inputs": [
						{
							"internalType": "address",
							"name": "to",
							"type": "address"
						},
						{
							"internalType": "uint256",
							"name": "_amount",
							"type": "uint256"
						}
					],
					"name": "transferTokens",
					"outputs": [],
					"stateMutability": "nonpayable",
					"type": "function"
				}
			],
			"devdoc": {
				"kind": "dev",
				"methods": {},
				"version": 1
			},
			"evm": {
				"assembly": "    /* \"contracts/Pool.sol\":310:2625  contract LiquidityPool {... */\n  mstore(0x40, 0x80)\n    /* \"contracts/Pool.sol\":596:675  constructor(address _tokenAddress){... */\n  callvalue\n  dup1\n  iszero\n  tag_1\n  jumpi\n  0x00\n  dup1\n  revert\ntag_1:\n  pop\n  mload(0x40)\n  sub(codesize, bytecodeSize)\n  dup1\n  bytecodeSize\n  dup4\n  codecopy\n  dup2\n  dup2\n  add\n  0x40\n  mstore\n  dup2\n  add\n  swap1\n  tag_2\n  swap2\n  swap1\n  tag_3\n  jump\t// in\ntag_2:\n    /* \"contracts/Pool.sol\":655:668  _tokenAddress */\n  dup1\n    /* \"contracts/Pool.sol\":640:652  reserveToken */\n  0x00\n  dup1\n    /* \"contracts/Pool.sol\":640:668  reserveToken = _tokenAddress */\n  0x0100\n  exp\n  dup2\n  sload\n  dup2\n  0xffffffffffffffffffffffffffffffffffffffff\n  mul\n  not\n  and\n  swap1\n  dup4\n  0xffffffffffffffffffffffffffffffffffffffff\n  and\n  mul\n  or\n  swap1\n  sstore\n  pop\n    /* \"contracts/Pool.sol\":596:675  constructor(address _tokenAddress){... */\n  pop\n    /* \"contracts/Pool.sol\":310:2625  contract LiquidityPool {... */\n  jump(tag_6)\n    /* \"#utility.yul\":88:205   */\ntag_8:\n    /* \"#utility.yul\":197:198   */\n  0x00\n    /* \"#utility.yul\":194:195   */\n  dup1\n    /* \"#utility.yul\":187:199   */\n  revert\n    /* \"#utility.yul\":334:460   */\ntag_10:\n    /* \"#utility.yul\":371:378   */\n  0x00\n    /* \"#utility.yul\":411:453   */\n  0xffffffffffffffffffffffffffffffffffffffff\n    /* \"#utility.yul\":404:409   */\n  dup3\n    /* \"#utility.yul\":400:454   */\n  and\n    /* \"#utility.yul\":389:454   */\n  swap1\n  pop\n    /* \"#utility.yul\":334:460   */\n  swap2\n  swap1\n  pop\n  jump\t// out\n    /* \"#utility.yul\":466:562   */\ntag_11:\n    /* \"#utility.yul\":503:510   */\n  0x00\n    /* \"#utility.yul\":532:556   */\n  tag_20\n    /* \"#utility.yul\":550:555   */\n  dup3\n    /* \"#utility.yul\":532:556   */\n  tag_10\n  jump\t// in\ntag_20:\n    /* \"#utility.yul\":521:556   */\n  swap1\n  pop\n    /* \"#utility.yul\":466:562   */\n  swap2\n  swap1\n  pop\n  jump\t// out\n    /* \"#utility.yul\":568:690   */\ntag_12:\n    /* \"#utility.yul\":641:665   */\n  tag_22\n    /* \"#utility.yul\":659:664   */\n  dup2\n    /* \"#utility.yul\":641:665   */\n  tag_11\n  jump\t// in\ntag_22:\n    /* \"#utility.yul\":634:639   */\n  dup2\n    /* \"#utility.yul\":631:666   */\n  eq\n    /* \"#utility.yul\":621:684   */\n  tag_23\n  jumpi\n    /* \"#utility.yul\":680:681   */\n  0x00\n    /* \"#utility.yul\":677:678   */\n  dup1\n    /* \"#utility.yul\":670:682   */\n  revert\n    /* \"#utility.yul\":621:684   */\ntag_23:\n    /* \"#utility.yul\":568:690   */\n  pop\n  jump\t// out\n    /* \"#utility.yul\":696:839   */\ntag_13:\n    /* \"#utility.yul\":753:758   */\n  0x00\n    /* \"#utility.yul\":784:790   */\n  dup2\n    /* \"#utility.yul\":778:791   */\n  mload\n    /* \"#utility.yul\":769:791   */\n  swap1\n  pop\n    /* \"#utility.yul\":800:833   */\n  tag_25\n    /* \"#utility.yul\":827:832   */\n  dup2\n    /* \"#utility.yul\":800:833   */\n  tag_12\n  jump\t// in\ntag_25:\n    /* \"#utility.yul\":696:839   */\n  swap3\n  swap2\n  pop\n  pop\n  jump\t// out\n    /* \"#utility.yul\":845:1196   */\ntag_3:\n    /* \"#utility.yul\":915:921   */\n  0x00\n    /* \"#utility.yul\":964:966   */\n  0x20\n    /* \"#utility.yul\":952:961   */\n  dup3\n    /* \"#utility.yul\":943:950   */\n  dup5\n    /* \"#utility.yul\":939:962   */\n  sub\n    /* \"#utility.yul\":935:967   */\n  slt\n    /* \"#utility.yul\":932:1051   */\n  iszero\n  tag_27\n  jumpi\n    /* \"#utility.yul\":970:1049   */\n  tag_28\n  tag_8\n  jump\t// in\ntag_28:\n    /* \"#utility.yul\":932:1051   */\ntag_27:\n    /* \"#utility.yul\":1090:1091   */\n  0x00\n    /* \"#utility.yul\":1115:1179   */\n  tag_29\n    /* \"#utility.yul\":1171:1178   */\n  dup5\n    /* \"#utility.yul\":1162:1168   */\n  dup3\n    /* \"#utility.yul\":1151:1160   */\n  dup6\n    /* \"#utility.yul\":1147:1169   */\n  add\n    /* \"#utility.yul\":1115:1179   */\n  tag_13\n  jump\t// in\ntag_29:\n    /* \"#utility.yul\":1105:1179   */\n  swap2\n  pop\n    /* \"#utility.yul\":1061:1189   */\n  pop\n    /* \"#utility.yul\":845:1196   */\n  swap3\n  swap2\n  pop\n  pop\n  jump\t// out\n    /* \"contracts/Pool.sol\":310:2625  contract LiquidityPool {... */\ntag_6:\n  dataSize(sub_0)\n  dup1\n  dataOffset(sub_0)\n  0x00\n  codecopy\n  0x00\n  return\nstop\n\nsub_0: assembly {\n        /* \"contracts/Pool.sol\":310:2625  contract LiquidityPool {... */\n      mstore(0x40, 0x80)\n      jumpi(tag_1, lt(calldatasize, 0x04))\n      shr(0xe0, calldataload(0x00))\n      dup1\n      0xbec3fa17\n      gt\n      tag_9\n      jumpi\n      dup1\n      0xbec3fa17\n      eq\n      tag_5\n      jumpi\n      dup1\n      0xeb521a4c\n      eq\n      tag_6\n      jumpi\n      dup1\n      0xf4325d67\n      eq\n      tag_7\n      jumpi\n      dup1\n      0xff9b3758\n      eq\n      tag_8\n      jumpi\n      jump(tag_1)\n    tag_9:\n      dup1\n      0x1aa5c70e\n      eq\n      tag_2\n      jumpi\n      dup1\n      0x7464fc3d\n      eq\n      tag_3\n      jumpi\n      dup1\n      0x8e3073a6\n      eq\n      tag_4\n      jumpi\n    tag_1:\n      0x00\n      dup1\n      revert\n        /* \"contracts/Pool.sol\":2317:2498  function getDAI(uint256 _ethAmount) public payable {... */\n    tag_2:\n      tag_10\n      0x04\n      dup1\n      calldatasize\n      sub\n      dup2\n      add\n      swap1\n      tag_11\n      swap2\n      swap1\n      tag_12\n      jump\t// in\n    tag_11:\n      tag_13\n      jump\t// in\n    tag_10:\n      stop\n        /* \"contracts/Pool.sol\":569:589  uint256 public kLast */\n    tag_3:\n      callvalue\n      dup1\n      iszero\n      tag_14\n      jumpi\n      0x00\n      dup1\n      revert\n    tag_14:\n      pop\n      tag_15\n      tag_16\n      jump\t// in\n    tag_15:\n      mload(0x40)\n      tag_17\n      swap2\n      swap1\n      tag_18\n      jump\t// in\n    tag_17:\n      mload(0x40)\n      dup1\n      swap2\n      sub\n      swap1\n      return\n        /* \"contracts/Pool.sol\":1943:2311  function getEth(uint256 _DAIAmount) public {... */\n    tag_4:\n      callvalue\n      dup1\n      iszero\n      tag_19\n      jumpi\n      0x00\n      dup1\n      revert\n    tag_19:\n      pop\n      tag_20\n      0x04\n      dup1\n      calldatasize\n      sub\n      dup2\n      add\n      swap1\n      tag_21\n      swap2\n      swap1\n      tag_12\n      jump\t// in\n    tag_21:\n      tag_22\n      jump\t// in\n    tag_20:\n      stop\n        /* \"contracts/Pool.sol\":2504:2623  function transferTokens(address to, uint256 _amount) external {... */\n    tag_5:\n      callvalue\n      dup1\n      iszero\n      tag_23\n      jumpi\n      0x00\n      dup1\n      revert\n    tag_23:\n      pop\n      tag_24\n      0x04\n      dup1\n      calldatasize\n      sub\n      dup2\n      add\n      swap1\n      tag_25\n      swap2\n      swap1\n      tag_26\n      jump\t// in\n    tag_25:\n      tag_27\n      jump\t// in\n    tag_24:\n      stop\n        /* \"contracts/Pool.sol\":756:1374  function provideLiquidity(uint256 _amount) external payable {... */\n    tag_6:\n      tag_28\n      0x04\n      dup1\n      calldatasize\n      sub\n      dup2\n      add\n      swap1\n      tag_29\n      swap2\n      swap1\n      tag_12\n      jump\t// in\n    tag_29:\n      tag_30\n      jump\t// in\n    tag_28:\n      stop\n        /* \"contracts/Pool.sol\":458:485  address public reserveToken */\n    tag_7:\n      callvalue\n      dup1\n      iszero\n      tag_31\n      jumpi\n      0x00\n      dup1\n      revert\n    tag_31:\n      pop\n      tag_32\n      tag_33\n      jump\t// in\n    tag_32:\n      mload(0x40)\n      tag_34\n      swap2\n      swap1\n      tag_35\n      jump\t// in\n    tag_34:\n      mload(0x40)\n      dup1\n      swap2\n      sub\n      swap1\n      return\n        /* \"contracts/Pool.sol\":1380:1937  function reedemShares(uint256 _sharesAmount) public {... */\n    tag_8:\n      callvalue\n      dup1\n      iszero\n      tag_36\n      jumpi\n      0x00\n      dup1\n      revert\n    tag_36:\n      pop\n      tag_37\n      0x04\n      dup1\n      calldatasize\n      sub\n      dup2\n      add\n      swap1\n      tag_38\n      swap2\n      swap1\n      tag_12\n      jump\t// in\n    tag_38:\n      tag_39\n      jump\t// in\n    tag_37:\n      stop\n        /* \"contracts/Pool.sol\":2317:2498  function getDAI(uint256 _ethAmount) public payable {... */\n    tag_13:\n        /* \"contracts/Pool.sol\":2399:2409  _ethAmount */\n      dup1\n        /* \"contracts/Pool.sol\":2386:2395  msg.value */\n      callvalue\n        /* \"contracts/Pool.sol\":2386:2409  msg.value == _ethAmount */\n      eq\n        /* \"contracts/Pool.sol\":2378:2428  require(msg.value == _ethAmount, \"Invalid amount\") */\n      tag_41\n      jumpi\n      mload(0x40)\n      0x08c379a000000000000000000000000000000000000000000000000000000000\n      dup2\n      mstore\n      0x04\n      add\n      tag_42\n      swap1\n      tag_43\n      jump\t// in\n    tag_42:\n      mload(0x40)\n      dup1\n      swap2\n      sub\n      swap1\n      revert\n    tag_41:\n        /* \"contracts/Pool.sol\":2445:2457  reserveToken */\n      0x00\n      dup1\n      sload\n      swap1\n      0x0100\n      exp\n      swap1\n      div\n      0xffffffffffffffffffffffffffffffffffffffff\n      and\n        /* \"contracts/Pool.sol\":2438:2467  IERC20(reserveToken).transfer */\n      0xffffffffffffffffffffffffffffffffffffffff\n      and\n      0xa9059cbb\n        /* \"contracts/Pool.sol\":2468:2478  msg.sender */\n      caller\n        /* \"contracts/Pool.sol\":2480:2490  _ethAmount */\n      dup4\n        /* \"contracts/Pool.sol\":2438:2491  IERC20(reserveToken).transfer(msg.sender, _ethAmount) */\n      mload(0x40)\n      dup4\n      0xffffffff\n      and\n      0xe0\n      shl\n      dup2\n      mstore\n      0x04\n      add\n      tag_44\n      swap3\n      swap2\n      swap1\n      tag_45\n      jump\t// in\n    tag_44:\n      0x20\n      mload(0x40)\n      dup1\n      dup4\n      sub\n      dup2\n      0x00\n      dup8\n      gas\n      call\n      iszero\n      dup1\n      iszero\n      tag_47\n      jumpi\n      returndatasize\n      0x00\n      dup1\n      returndatacopy\n      revert(0x00, returndatasize)\n    tag_47:\n      pop\n      pop\n      pop\n      pop\n      mload(0x40)\n      returndatasize\n      not(0x1f)\n      0x1f\n      dup3\n      add\n      and\n      dup3\n      add\n      dup1\n      0x40\n      mstore\n      pop\n      dup2\n      add\n      swap1\n      tag_48\n      swap2\n      swap1\n      tag_49\n      jump\t// in\n    tag_48:\n      pop\n        /* \"contracts/Pool.sol\":2317:2498  function getDAI(uint256 _ethAmount) public payable {... */\n      pop\n      jump\t// out\n        /* \"contracts/Pool.sol\":569:589  uint256 public kLast */\n    tag_16:\n      sload(0x01)\n      dup2\n      jump\t// out\n        /* \"contracts/Pool.sol\":1943:2311  function getEth(uint256 _DAIAmount) public {... */\n    tag_22:\n        /* \"contracts/Pool.sol\":2065:2075  _DAIAmount */\n      dup1\n        /* \"contracts/Pool.sol\":2011:2023  reserveToken */\n      0x00\n      dup1\n      sload\n      swap1\n      0x0100\n      exp\n      swap1\n      div\n      0xffffffffffffffffffffffffffffffffffffffff\n      and\n        /* \"contracts/Pool.sol\":2004:2034  IERC20(reserveToken).allowance */\n      0xffffffffffffffffffffffffffffffffffffffff\n      and\n      0xdd62ed3e\n        /* \"contracts/Pool.sol\":2035:2045  msg.sender */\n      caller\n        /* \"contracts/Pool.sol\":2055:2059  this */\n      address\n        /* \"contracts/Pool.sol\":2004:2061  IERC20(reserveToken).allowance(msg.sender, address(this)) */\n      mload(0x40)\n      dup4\n      0xffffffff\n      and\n      0xe0\n      shl\n      dup2\n      mstore\n      0x04\n      add\n      tag_51\n      swap3\n      swap2\n      swap1\n      tag_52\n      jump\t// in\n    tag_51:\n      0x20\n      mload(0x40)\n      dup1\n      dup4\n      sub\n      dup2\n      dup7\n      gas\n      staticcall\n      iszero\n      dup1\n      iszero\n      tag_54\n      jumpi\n      returndatasize\n      0x00\n      dup1\n      returndatacopy\n      revert(0x00, returndatasize)\n    tag_54:\n      pop\n      pop\n      pop\n      pop\n      mload(0x40)\n      returndatasize\n      not(0x1f)\n      0x1f\n      dup3\n      add\n      and\n      dup3\n      add\n      dup1\n      0x40\n      mstore\n      pop\n      dup2\n      add\n      swap1\n      tag_55\n      swap2\n      swap1\n      tag_56\n      jump\t// in\n    tag_55:\n        /* \"contracts/Pool.sol\":2004:2075  IERC20(reserveToken).allowance(msg.sender, address(this)) >= _DAIAmount */\n      lt\n      iszero\n        /* \"contracts/Pool.sol\":1996:2101  require(IERC20(reserveToken).allowance(msg.sender, address(this)) >= _DAIAmount, \"Contract not approved\") */\n      tag_57\n      jumpi\n      mload(0x40)\n      0x08c379a000000000000000000000000000000000000000000000000000000000\n      dup2\n      mstore\n      0x04\n      add\n      tag_58\n      swap1\n      tag_59\n      jump\t// in\n    tag_58:\n      mload(0x40)\n      dup1\n      swap2\n      sub\n      swap1\n      revert\n    tag_57:\n        /* \"contracts/Pool.sol\":2118:2130  reserveToken */\n      0x00\n      dup1\n      sload\n      swap1\n      0x0100\n      exp\n      swap1\n      div\n      0xffffffffffffffffffffffffffffffffffffffff\n      and\n        /* \"contracts/Pool.sol\":2111:2144  IERC20(reserveToken).transferFrom */\n      0xffffffffffffffffffffffffffffffffffffffff\n      and\n      0x23b872dd\n        /* \"contracts/Pool.sol\":2145:2155  msg.sender */\n      caller\n        /* \"contracts/Pool.sol\":2165:2169  this */\n      address\n        /* \"contracts/Pool.sol\":2172:2182  _DAIAmount */\n      dup5\n        /* \"contracts/Pool.sol\":2111:2183  IERC20(reserveToken).transferFrom(msg.sender, address(this), _DAIAmount) */\n      mload(0x40)\n      dup5\n      0xffffffff\n      and\n      0xe0\n      shl\n      dup2\n      mstore\n      0x04\n      add\n      tag_60\n      swap4\n      swap3\n      swap2\n      swap1\n      tag_61\n      jump\t// in\n    tag_60:\n      0x20\n      mload(0x40)\n      dup1\n      dup4\n      sub\n      dup2\n      0x00\n      dup8\n      gas\n      call\n      iszero\n      dup1\n      iszero\n      tag_63\n      jumpi\n      returndatasize\n      0x00\n      dup1\n      returndatacopy\n      revert(0x00, returndatasize)\n    tag_63:\n      pop\n      pop\n      pop\n      pop\n      mload(0x40)\n      returndatasize\n      not(0x1f)\n      0x1f\n      dup3\n      add\n      and\n      dup3\n      add\n      dup1\n      0x40\n      mstore\n      pop\n      dup2\n      add\n      swap1\n      tag_64\n      swap2\n      swap1\n      tag_49\n      jump\t// in\n    tag_64:\n      pop\n        /* \"contracts/Pool.sol\":2194:2206  bool success */\n      0x00\n        /* \"contracts/Pool.sol\":2220:2230  msg.sender */\n      caller\n        /* \"contracts/Pool.sol\":2212:2236  payable(msg.sender).call */\n      0xffffffffffffffffffffffffffffffffffffffff\n      and\n        /* \"contracts/Pool.sol\":2244:2254  _DAIAmount */\n      dup3\n        /* \"contracts/Pool.sol\":2212:2259  payable(msg.sender).call{value: _DAIAmount}(\"\") */\n      mload(0x40)\n      tag_65\n      swap1\n      tag_66\n      jump\t// in\n    tag_65:\n      0x00\n      mload(0x40)\n      dup1\n      dup4\n      sub\n      dup2\n      dup6\n      dup8\n      gas\n      call\n      swap3\n      pop\n      pop\n      pop\n      returndatasize\n      dup1\n      0x00\n      dup2\n      eq\n      tag_69\n      jumpi\n      mload(0x40)\n      swap2\n      pop\n      and(add(returndatasize, 0x3f), not(0x1f))\n      dup3\n      add\n      0x40\n      mstore\n      returndatasize\n      dup3\n      mstore\n      returndatasize\n      0x00\n      0x20\n      dup5\n      add\n      returndatacopy\n      jump(tag_68)\n    tag_69:\n      0x60\n      swap2\n      pop\n    tag_68:\n      pop\n        /* \"contracts/Pool.sol\":2193:2259  (bool success, ) = payable(msg.sender).call{value: _DAIAmount}(\"\") */\n      pop\n      swap1\n      pop\n        /* \"contracts/Pool.sol\":2277:2284  success */\n      dup1\n        /* \"contracts/Pool.sol\":2269:2304  require(success, \"Transfer Failed\") */\n      tag_70\n      jumpi\n      mload(0x40)\n      0x08c379a000000000000000000000000000000000000000000000000000000000\n      dup2\n      mstore\n      0x04\n      add\n      tag_71\n      swap1\n      tag_72\n      jump\t// in\n    tag_71:\n      mload(0x40)\n      dup1\n      swap2\n      sub\n      swap1\n      revert\n    tag_70:\n        /* \"contracts/Pool.sol\":1986:2311  {... */\n      pop\n        /* \"contracts/Pool.sol\":1943:2311  function getEth(uint256 _DAIAmount) public {... */\n      pop\n      jump\t// out\n        /* \"contracts/Pool.sol\":2504:2623  function transferTokens(address to, uint256 _amount) external {... */\n    tag_27:\n        /* \"contracts/Pool.sol\":521:563  0x39DB207Dff3411F4fab0483D419306873Cbc13d9 */\n      0x39db207dff3411f4fab0483d419306873cbc13d9\n        /* \"contracts/Pool.sol\":2576:2603  IERC20(ltrAddress).transfer */\n      0xffffffffffffffffffffffffffffffffffffffff\n      and\n      0xa9059cbb\n        /* \"contracts/Pool.sol\":2604:2606  to */\n      dup4\n        /* \"contracts/Pool.sol\":2608:2615  _amount */\n      dup4\n        /* \"contracts/Pool.sol\":2576:2616  IERC20(ltrAddress).transfer(to, _amount) */\n      mload(0x40)\n      dup4\n      0xffffffff\n      and\n      0xe0\n      shl\n      dup2\n      mstore\n      0x04\n      add\n      tag_74\n      swap3\n      swap2\n      swap1\n      tag_45\n      jump\t// in\n    tag_74:\n      0x20\n      mload(0x40)\n      dup1\n      dup4\n      sub\n      dup2\n      0x00\n      dup8\n      gas\n      call\n      iszero\n      dup1\n      iszero\n      tag_76\n      jumpi\n      returndatasize\n      0x00\n      dup1\n      returndatacopy\n      revert(0x00, returndatasize)\n    tag_76:\n      pop\n      pop\n      pop\n      pop\n      mload(0x40)\n      returndatasize\n      not(0x1f)\n      0x1f\n      dup3\n      add\n      and\n      dup3\n      add\n      dup1\n      0x40\n      mstore\n      pop\n      dup2\n      add\n      swap1\n      tag_77\n      swap2\n      swap1\n      tag_49\n      jump\t// in\n    tag_77:\n      pop\n        /* \"contracts/Pool.sol\":2504:2623  function transferTokens(address to, uint256 _amount) external {... */\n      pop\n      pop\n      jump\t// out\n        /* \"contracts/Pool.sol\":756:1374  function provideLiquidity(uint256 _amount) external payable {... */\n    tag_30:\n        /* \"contracts/Pool.sol\":1008:1020  reserveToken */\n      0x00\n      dup1\n      sload\n      swap1\n      0x0100\n      exp\n      swap1\n      div\n      0xffffffffffffffffffffffffffffffffffffffff\n      and\n        /* \"contracts/Pool.sol\":1001:1034  IERC20(reserveToken).transferFrom */\n      0xffffffffffffffffffffffffffffffffffffffff\n      and\n      0x23b872dd\n        /* \"contracts/Pool.sol\":1035:1045  msg.sender */\n      caller\n        /* \"contracts/Pool.sol\":1055:1059  this */\n      address\n        /* \"contracts/Pool.sol\":1062:1069  _amount */\n      dup5\n        /* \"contracts/Pool.sol\":1001:1070  IERC20(reserveToken).transferFrom(msg.sender, address(this), _amount) */\n      mload(0x40)\n      dup5\n      0xffffffff\n      and\n      0xe0\n      shl\n      dup2\n      mstore\n      0x04\n      add\n      tag_79\n      swap4\n      swap3\n      swap2\n      swap1\n      tag_61\n      jump\t// in\n    tag_79:\n      0x20\n      mload(0x40)\n      dup1\n      dup4\n      sub\n      dup2\n      0x00\n      dup8\n      gas\n      call\n      iszero\n      dup1\n      iszero\n      tag_81\n      jumpi\n      returndatasize\n      0x00\n      dup1\n      returndatacopy\n      revert(0x00, returndatasize)\n    tag_81:\n      pop\n      pop\n      pop\n      pop\n      mload(0x40)\n      returndatasize\n      not(0x1f)\n      0x1f\n      dup3\n      add\n      and\n      dup3\n      add\n      dup1\n      0x40\n      mstore\n      pop\n      dup2\n      add\n      swap1\n      tag_82\n      swap2\n      swap1\n      tag_49\n      jump\t// in\n    tag_82:\n      pop\n        /* \"contracts/Pool.sol\":1093:1094  0 */\n      0x00\n        /* \"contracts/Pool.sol\":1084:1089  kLast */\n      sload(0x01)\n        /* \"contracts/Pool.sol\":1084:1094  kLast == 0 */\n      sub\n        /* \"contracts/Pool.sol\":1080:1200  if (kLast == 0) {... */\n      tag_83\n      jumpi\n        /* \"contracts/Pool.sol\":1150:1162  reserveToken */\n      0x00\n      dup1\n      sload\n      swap1\n      0x0100\n      exp\n      swap1\n      div\n      0xffffffffffffffffffffffffffffffffffffffff\n      and\n        /* \"contracts/Pool.sol\":1143:1173  IERC20(reserveToken).balanceOf */\n      0xffffffffffffffffffffffffffffffffffffffff\n      and\n      0x70a08231\n        /* \"contracts/Pool.sol\":1182:1186  this */\n      address\n        /* \"contracts/Pool.sol\":1143:1188  IERC20(reserveToken).balanceOf(address(this)) */\n      mload(0x40)\n      dup3\n      0xffffffff\n      and\n      0xe0\n      shl\n      dup2\n      mstore\n      0x04\n      add\n      tag_84\n      swap2\n      swap1\n      tag_35\n      jump\t// in\n    tag_84:\n      0x20\n      mload(0x40)\n      dup1\n      dup4\n      sub\n      dup2\n      dup7\n      gas\n      staticcall\n      iszero\n      dup1\n      iszero\n      tag_86\n      jumpi\n      returndatasize\n      0x00\n      dup1\n      returndatacopy\n      revert(0x00, returndatasize)\n    tag_86:\n      pop\n      pop\n      pop\n      pop\n      mload(0x40)\n      returndatasize\n      not(0x1f)\n      0x1f\n      dup3\n      add\n      and\n      dup3\n      add\n      dup1\n      0x40\n      mstore\n      pop\n      dup2\n      add\n      swap1\n      tag_87\n      swap2\n      swap1\n      tag_56\n      jump\t// in\n    tag_87:\n        /* \"contracts/Pool.sol\":1119:1140  address(this).balance */\n      selfbalance\n        /* \"contracts/Pool.sol\":1119:1188  address(this).balance * IERC20(reserveToken).balanceOf(address(this)) */\n      tag_88\n      swap2\n      swap1\n      tag_89\n      jump\t// in\n    tag_88:\n        /* \"contracts/Pool.sol\":1110:1115  kLast */\n      0x01\n        /* \"contracts/Pool.sol\":1110:1189  kLast = (address(this).balance * IERC20(reserveToken).balanceOf(address(this))) */\n      dup2\n      swap1\n      sstore\n      pop\n        /* \"contracts/Pool.sol\":1080:1200  if (kLast == 0) {... */\n    tag_83:\n        /* \"contracts/Pool.sol\":1209:1225  uint256 LPShares */\n      0x00\n        /* \"contracts/Pool.sol\":1228:1255  Math.sqrt(kLast / 10 ** 18) */\n      tag_90\n        /* \"contracts/Pool.sol\":1246:1254  10 ** 18 */\n      0x0de0b6b3a7640000\n        /* \"contracts/Pool.sol\":1238:1243  kLast */\n      sload(0x01)\n        /* \"contracts/Pool.sol\":1238:1254  kLast / 10 ** 18 */\n      tag_91\n      swap2\n      swap1\n      tag_92\n      jump\t// in\n    tag_91:\n        /* \"contracts/Pool.sol\":1228:1237  Math.sqrt */\n      tag_93\n        /* \"contracts/Pool.sol\":1228:1255  Math.sqrt(kLast / 10 ** 18) */\n      jump\t// in\n    tag_90:\n        /* \"contracts/Pool.sol\":1209:1255  uint256 LPShares = Math.sqrt(kLast / 10 ** 18) */\n      swap1\n      pop\n        /* \"contracts/Pool.sol\":521:563  0x39DB207Dff3411F4fab0483D419306873Cbc13d9 */\n      0x39db207dff3411f4fab0483d419306873cbc13d9\n        /* \"contracts/Pool.sol\":1265:1292  IERC20(ltrAddress).transfer */\n      0xffffffffffffffffffffffffffffffffffffffff\n      and\n      0xa9059cbb\n        /* \"contracts/Pool.sol\":1293:1303  msg.sender */\n      caller\n        /* \"contracts/Pool.sol\":1305:1313  LPShares */\n      dup4\n        /* \"contracts/Pool.sol\":1265:1314  IERC20(ltrAddress).transfer(msg.sender, LPShares) */\n      mload(0x40)\n      dup4\n      0xffffffff\n      and\n      0xe0\n      shl\n      dup2\n      mstore\n      0x04\n      add\n      tag_94\n      swap3\n      swap2\n      swap1\n      tag_45\n      jump\t// in\n    tag_94:\n      0x20\n      mload(0x40)\n      dup1\n      dup4\n      sub\n      dup2\n      0x00\n      dup8\n      gas\n      call\n      iszero\n      dup1\n      iszero\n      tag_96\n      jumpi\n      returndatasize\n      0x00\n      dup1\n      returndatacopy\n      revert(0x00, returndatasize)\n    tag_96:\n      pop\n      pop\n      pop\n      pop\n      mload(0x40)\n      returndatasize\n      not(0x1f)\n      0x1f\n      dup3\n      add\n      and\n      dup3\n      add\n      dup1\n      0x40\n      mstore\n      pop\n      dup2\n      add\n      swap1\n      tag_97\n      swap2\n      swap1\n      tag_49\n      jump\t// in\n    tag_97:\n      pop\n        /* \"contracts/Pool.sol\":1329:1367  liquidityProvided(msg.sender, _amount) */\n      0xb62268a18d99fe191ac8e62f823ab1eec698609a81b2c8de3dac902896b09da6\n        /* \"contracts/Pool.sol\":1347:1357  msg.sender */\n      caller\n        /* \"contracts/Pool.sol\":1359:1366  _amount */\n      dup4\n        /* \"contracts/Pool.sol\":1329:1367  liquidityProvided(msg.sender, _amount) */\n      mload(0x40)\n      tag_98\n      swap3\n      swap2\n      swap1\n      tag_45\n      jump\t// in\n    tag_98:\n      mload(0x40)\n      dup1\n      swap2\n      sub\n      swap1\n      log1\n        /* \"contracts/Pool.sol\":816:1374  {... */\n      pop\n        /* \"contracts/Pool.sol\":756:1374  function provideLiquidity(uint256 _amount) external payable {... */\n      pop\n      jump\t// out\n        /* \"contracts/Pool.sol\":458:485  address public reserveToken */\n    tag_33:\n      0x00\n      dup1\n      sload\n      swap1\n      0x0100\n      exp\n      swap1\n      div\n      0xffffffffffffffffffffffffffffffffffffffff\n      and\n      dup2\n      jump\t// out\n        /* \"contracts/Pool.sol\":1380:1937  function reedemShares(uint256 _sharesAmount) public {... */\n    tag_39:\n        /* \"contracts/Pool.sol\":1466:1467  0 */\n      0x00\n        /* \"contracts/Pool.sol\":1450:1463  _sharesAmount */\n      dup2\n        /* \"contracts/Pool.sol\":1450:1467  _sharesAmount > 0 */\n      gt\n        /* \"contracts/Pool.sol\":1442:1496  require(_sharesAmount > 0, \"Invalid amount of shares\") */\n      tag_100\n      jumpi\n      mload(0x40)\n      0x08c379a000000000000000000000000000000000000000000000000000000000\n      dup2\n      mstore\n      0x04\n      add\n      tag_101\n      swap1\n      tag_102\n      jump\t// in\n    tag_101:\n      mload(0x40)\n      dup1\n      swap2\n      sub\n      swap1\n      revert\n    tag_100:\n        /* \"contracts/Pool.sol\":1573:1586  _sharesAmount */\n      dup1\n        /* \"contracts/Pool.sol\":521:563  0x39DB207Dff3411F4fab0483D419306873Cbc13d9 */\n      0x39db207dff3411f4fab0483d419306873cbc13d9\n        /* \"contracts/Pool.sol\":1514:1542  IERC20(ltrAddress).allowance */\n      0xffffffffffffffffffffffffffffffffffffffff\n      and\n      0xdd62ed3e\n        /* \"contracts/Pool.sol\":1543:1553  msg.sender */\n      caller\n        /* \"contracts/Pool.sol\":1563:1567  this */\n      address\n        /* \"contracts/Pool.sol\":1514:1569  IERC20(ltrAddress).allowance(msg.sender, address(this)) */\n      mload(0x40)\n      dup4\n      0xffffffff\n      and\n      0xe0\n      shl\n      dup2\n      mstore\n      0x04\n      add\n      tag_103\n      swap3\n      swap2\n      swap1\n      tag_52\n      jump\t// in\n    tag_103:\n      0x20\n      mload(0x40)\n      dup1\n      dup4\n      sub\n      dup2\n      dup7\n      gas\n      staticcall\n      iszero\n      dup1\n      iszero\n      tag_105\n      jumpi\n      returndatasize\n      0x00\n      dup1\n      returndatacopy\n      revert(0x00, returndatasize)\n    tag_105:\n      pop\n      pop\n      pop\n      pop\n      mload(0x40)\n      returndatasize\n      not(0x1f)\n      0x1f\n      dup3\n      add\n      and\n      dup3\n      add\n      dup1\n      0x40\n      mstore\n      pop\n      dup2\n      add\n      swap1\n      tag_106\n      swap2\n      swap1\n      tag_56\n      jump\t// in\n    tag_106:\n        /* \"contracts/Pool.sol\":1514:1586  IERC20(ltrAddress).allowance(msg.sender, address(this)) >= _sharesAmount */\n      lt\n      iszero\n        /* \"contracts/Pool.sol\":1506:1656  require(IERC20(ltrAddress).allowance(msg.sender, address(this)) >= _sharesAmount, \"Please approve the contract to deduct ltr tokens from your wallet\") */\n      tag_107\n      jumpi\n      mload(0x40)\n      0x08c379a000000000000000000000000000000000000000000000000000000000\n      dup2\n      mstore\n      0x04\n      add\n      tag_108\n      swap1\n      tag_109\n      jump\t// in\n    tag_108:\n      mload(0x40)\n      dup1\n      swap2\n      sub\n      swap1\n      revert\n    tag_107:\n        /* \"contracts/Pool.sol\":521:563  0x39DB207Dff3411F4fab0483D419306873Cbc13d9 */\n      0x39db207dff3411f4fab0483d419306873cbc13d9\n        /* \"contracts/Pool.sol\":1667:1698  IERC20(ltrAddress).transferFrom */\n      0xffffffffffffffffffffffffffffffffffffffff\n      and\n      0x23b872dd\n        /* \"contracts/Pool.sol\":1699:1709  msg.sender */\n      caller\n        /* \"contracts/Pool.sol\":1719:1723  this */\n      address\n        /* \"contracts/Pool.sol\":1726:1739  _sharesAmount */\n      dup5\n        /* \"contracts/Pool.sol\":1667:1740  IERC20(ltrAddress).transferFrom(msg.sender, address(this), _sharesAmount) */\n      mload(0x40)\n      dup5\n      0xffffffff\n      and\n      0xe0\n      shl\n      dup2\n      mstore\n      0x04\n      add\n      tag_110\n      swap4\n      swap3\n      swap2\n      swap1\n      tag_61\n      jump\t// in\n    tag_110:\n      0x20\n      mload(0x40)\n      dup1\n      dup4\n      sub\n      dup2\n      0x00\n      dup8\n      gas\n      call\n      iszero\n      dup1\n      iszero\n      tag_112\n      jumpi\n      returndatasize\n      0x00\n      dup1\n      returndatacopy\n      revert(0x00, returndatasize)\n    tag_112:\n      pop\n      pop\n      pop\n      pop\n      mload(0x40)\n      returndatasize\n      not(0x1f)\n      0x1f\n      dup3\n      add\n      and\n      dup3\n      add\n      dup1\n      0x40\n      mstore\n      pop\n      dup2\n      add\n      swap1\n      tag_113\n      swap2\n      swap1\n      tag_49\n      jump\t// in\n    tag_113:\n      pop\n        /* \"contracts/Pool.sol\":1757:1769  reserveToken */\n      0x00\n      dup1\n      sload\n      swap1\n      0x0100\n      exp\n      swap1\n      div\n      0xffffffffffffffffffffffffffffffffffffffff\n      and\n        /* \"contracts/Pool.sol\":1750:1779  IERC20(reserveToken).transfer */\n      0xffffffffffffffffffffffffffffffffffffffff\n      and\n      0xa9059cbb\n        /* \"contracts/Pool.sol\":1780:1790  msg.sender */\n      caller\n        /* \"contracts/Pool.sol\":1792:1805  _sharesAmount */\n      dup4\n        /* \"contracts/Pool.sol\":1750:1806  IERC20(reserveToken).transfer(msg.sender, _sharesAmount) */\n      mload(0x40)\n      dup4\n      0xffffffff\n      and\n      0xe0\n      shl\n      dup2\n      mstore\n      0x04\n      add\n      tag_114\n      swap3\n      swap2\n      swap1\n      tag_45\n      jump\t// in\n    tag_114:\n      0x20\n      mload(0x40)\n      dup1\n      dup4\n      sub\n      dup2\n      0x00\n      dup8\n      gas\n      call\n      iszero\n      dup1\n      iszero\n      tag_116\n      jumpi\n      returndatasize\n      0x00\n      dup1\n      returndatacopy\n      revert(0x00, returndatasize)\n    tag_116:\n      pop\n      pop\n      pop\n      pop\n      mload(0x40)\n      returndatasize\n      not(0x1f)\n      0x1f\n      dup3\n      add\n      and\n      dup3\n      add\n      dup1\n      0x40\n      mstore\n      pop\n      dup2\n      add\n      swap1\n      tag_117\n      swap2\n      swap1\n      tag_49\n      jump\t// in\n    tag_117:\n      pop\n        /* \"contracts/Pool.sol\":1817:1829  bool success */\n      0x00\n        /* \"contracts/Pool.sol\":1843:1853  msg.sender */\n      caller\n        /* \"contracts/Pool.sol\":1835:1859  payable(msg.sender).call */\n      0xffffffffffffffffffffffffffffffffffffffff\n      and\n        /* \"contracts/Pool.sol\":1867:1880  _sharesAmount */\n      dup3\n        /* \"contracts/Pool.sol\":1835:1885  payable(msg.sender).call{value: _sharesAmount}(\"\") */\n      mload(0x40)\n      tag_118\n      swap1\n      tag_66\n      jump\t// in\n    tag_118:\n      0x00\n      mload(0x40)\n      dup1\n      dup4\n      sub\n      dup2\n      dup6\n      dup8\n      gas\n      call\n      swap3\n      pop\n      pop\n      pop\n      returndatasize\n      dup1\n      0x00\n      dup2\n      eq\n      tag_121\n      jumpi\n      mload(0x40)\n      swap2\n      pop\n      and(add(returndatasize, 0x3f), not(0x1f))\n      dup3\n      add\n      0x40\n      mstore\n      returndatasize\n      dup3\n      mstore\n      returndatasize\n      0x00\n      0x20\n      dup5\n      add\n      returndatacopy\n      jump(tag_120)\n    tag_121:\n      0x60\n      swap2\n      pop\n    tag_120:\n      pop\n        /* \"contracts/Pool.sol\":1816:1885  (bool success, ) = payable(msg.sender).call{value: _sharesAmount}(\"\") */\n      pop\n      swap1\n      pop\n        /* \"contracts/Pool.sol\":1903:1910  success */\n      dup1\n        /* \"contracts/Pool.sol\":1895:1930  require(success, \"Transfer failed\") */\n      tag_122\n      jumpi\n      mload(0x40)\n      0x08c379a000000000000000000000000000000000000000000000000000000000\n      dup2\n      mstore\n      0x04\n      add\n      tag_123\n      swap1\n      tag_124\n      jump\t// in\n    tag_123:\n      mload(0x40)\n      dup1\n      swap2\n      sub\n      swap1\n      revert\n    tag_122:\n        /* \"contracts/Pool.sol\":1432:1937  {... */\n      pop\n        /* \"contracts/Pool.sol\":1380:1937  function reedemShares(uint256 _sharesAmount) public {... */\n      pop\n      jump\t// out\n        /* \"@openzeppelin/contracts/utils/math/Math.sol\":6281:8487  function sqrt(uint256 a) internal pure returns (uint256) {... */\n    tag_93:\n        /* \"@openzeppelin/contracts/utils/math/Math.sol\":6329:6336  uint256 */\n      0x00\n        /* \"@openzeppelin/contracts/utils/math/Math.sol\":6357:6358  0 */\n      dup1\n        /* \"@openzeppelin/contracts/utils/math/Math.sol\":6352:6353  a */\n      dup3\n        /* \"@openzeppelin/contracts/utils/math/Math.sol\":6352:6358  a == 0 */\n      sub\n        /* \"@openzeppelin/contracts/utils/math/Math.sol\":6348:6393  if (a == 0) {... */\n      tag_126\n      jumpi\n        /* \"@openzeppelin/contracts/utils/math/Math.sol\":6381:6382  0 */\n      0x00\n        /* \"@openzeppelin/contracts/utils/math/Math.sol\":6374:6382  return 0 */\n      swap1\n      pop\n      jump(tag_125)\n        /* \"@openzeppelin/contracts/utils/math/Math.sol\":6348:6393  if (a == 0) {... */\n    tag_126:\n        /* \"@openzeppelin/contracts/utils/math/Math.sol\":7058:7072  uint256 result */\n      0x00\n        /* \"@openzeppelin/contracts/utils/math/Math.sol\":7075:7076  1 */\n      0x01\n        /* \"@openzeppelin/contracts/utils/math/Math.sol\":7058:7076  uint256 result = 1 */\n      swap1\n      pop\n        /* \"@openzeppelin/contracts/utils/math/Math.sol\":7086:7095  uint256 x */\n      0x00\n        /* \"@openzeppelin/contracts/utils/math/Math.sol\":7098:7099  a */\n      dup4\n        /* \"@openzeppelin/contracts/utils/math/Math.sol\":7086:7099  uint256 x = a */\n      swap1\n      pop\n        /* \"@openzeppelin/contracts/utils/math/Math.sol\":7124:7125  0 */\n      0x00\n        /* \"@openzeppelin/contracts/utils/math/Math.sol\":7118:7121  128 */\n      0x80\n        /* \"@openzeppelin/contracts/utils/math/Math.sol\":7113:7114  x */\n      dup3\n        /* \"@openzeppelin/contracts/utils/math/Math.sol\":7113:7121  x >> 128 */\n      swap1\n      shr\n        /* \"@openzeppelin/contracts/utils/math/Math.sol\":7113:7125  x >> 128 > 0 */\n      gt\n        /* \"@openzeppelin/contracts/utils/math/Math.sol\":7109:7188  if (x >> 128 > 0) {... */\n      iszero\n      tag_127\n      jumpi\n        /* \"@openzeppelin/contracts/utils/math/Math.sol\":7147:7150  128 */\n      0x80\n        /* \"@openzeppelin/contracts/utils/math/Math.sol\":7141:7150  x >>= 128 */\n      dup2\n      swap1\n      shr\n      swap1\n      pop\n        /* \"@openzeppelin/contracts/utils/math/Math.sol\":7175:7177  64 */\n      0x40\n        /* \"@openzeppelin/contracts/utils/math/Math.sol\":7164:7177  result <<= 64 */\n      dup3\n      swap1\n      shl\n      swap2\n      pop\n        /* \"@openzeppelin/contracts/utils/math/Math.sol\":7109:7188  if (x >> 128 > 0) {... */\n    tag_127:\n        /* \"@openzeppelin/contracts/utils/math/Math.sol\":7211:7212  0 */\n      0x00\n        /* \"@openzeppelin/contracts/utils/math/Math.sol\":7206:7208  64 */\n      0x40\n        /* \"@openzeppelin/contracts/utils/math/Math.sol\":7201:7202  x */\n      dup3\n        /* \"@openzeppelin/contracts/utils/math/Math.sol\":7201:7208  x >> 64 */\n      swap1\n      shr\n        /* \"@openzeppelin/contracts/utils/math/Math.sol\":7201:7212  x >> 64 > 0 */\n      gt\n        /* \"@openzeppelin/contracts/utils/math/Math.sol\":7197:7274  if (x >> 64 > 0) {... */\n      iszero\n      tag_128\n      jumpi\n        /* \"@openzeppelin/contracts/utils/math/Math.sol\":7234:7236  64 */\n      0x40\n        /* \"@openzeppelin/contracts/utils/math/Math.sol\":7228:7236  x >>= 64 */\n      dup2\n      swap1\n      shr\n      swap1\n      pop\n        /* \"@openzeppelin/contracts/utils/math/Math.sol\":7261:7263  32 */\n      0x20\n        /* \"@openzeppelin/contracts/utils/math/Math.sol\":7250:7263  result <<= 32 */\n      dup3\n      swap1\n      shl\n      swap2\n      pop\n        /* \"@openzeppelin/contracts/utils/math/Math.sol\":7197:7274  if (x >> 64 > 0) {... */\n    tag_128:\n        /* \"@openzeppelin/contracts/utils/math/Math.sol\":7297:7298  0 */\n      0x00\n        /* \"@openzeppelin/contracts/utils/math/Math.sol\":7292:7294  32 */\n      0x20\n        /* \"@openzeppelin/contracts/utils/math/Math.sol\":7287:7288  x */\n      dup3\n        /* \"@openzeppelin/contracts/utils/math/Math.sol\":7287:7294  x >> 32 */\n      swap1\n      shr\n        /* \"@openzeppelin/contracts/utils/math/Math.sol\":7287:7298  x >> 32 > 0 */\n      gt\n        /* \"@openzeppelin/contracts/utils/math/Math.sol\":7283:7360  if (x >> 32 > 0) {... */\n      iszero\n      tag_129\n      jumpi\n        /* \"@openzeppelin/contracts/utils/math/Math.sol\":7320:7322  32 */\n      0x20\n        /* \"@openzeppelin/contracts/utils/math/Math.sol\":7314:7322  x >>= 32 */\n      dup2\n      swap1\n      shr\n      swap1\n      pop\n        /* \"@openzeppelin/contracts/utils/math/Math.sol\":7347:7349  16 */\n      0x10\n        /* \"@openzeppelin/contracts/utils/math/Math.sol\":7336:7349  result <<= 16 */\n      dup3\n      swap1\n      shl\n      swap2\n      pop\n        /* \"@openzeppelin/contracts/utils/math/Math.sol\":7283:7360  if (x >> 32 > 0) {... */\n    tag_129:\n        /* \"@openzeppelin/contracts/utils/math/Math.sol\":7383:7384  0 */\n      0x00\n        /* \"@openzeppelin/contracts/utils/math/Math.sol\":7378:7380  16 */\n      0x10\n        /* \"@openzeppelin/contracts/utils/math/Math.sol\":7373:7374  x */\n      dup3\n        /* \"@openzeppelin/contracts/utils/math/Math.sol\":7373:7380  x >> 16 */\n      swap1\n      shr\n        /* \"@openzeppelin/contracts/utils/math/Math.sol\":7373:7384  x >> 16 > 0 */\n      gt\n        /* \"@openzeppelin/contracts/utils/math/Math.sol\":7369:7445  if (x >> 16 > 0) {... */\n      iszero\n      tag_130\n      jumpi\n        /* \"@openzeppelin/contracts/utils/math/Math.sol\":7406:7408  16 */\n      0x10\n        /* \"@openzeppelin/contracts/utils/math/Math.sol\":7400:7408  x >>= 16 */\n      dup2\n      swap1\n      shr\n      swap1\n      pop\n        /* \"@openzeppelin/contracts/utils/math/Math.sol\":7433:7434  8 */\n      0x08\n        /* \"@openzeppelin/contracts/utils/math/Math.sol\":7422:7434  result <<= 8 */\n      dup3\n      swap1\n      shl\n      swap2\n      pop\n        /* \"@openzeppelin/contracts/utils/math/Math.sol\":7369:7445  if (x >> 16 > 0) {... */\n    tag_130:\n        /* \"@openzeppelin/contracts/utils/math/Math.sol\":7467:7468  0 */\n      0x00\n        /* \"@openzeppelin/contracts/utils/math/Math.sol\":7463:7464  8 */\n      0x08\n        /* \"@openzeppelin/contracts/utils/math/Math.sol\":7458:7459  x */\n      dup3\n        /* \"@openzeppelin/contracts/utils/math/Math.sol\":7458:7464  x >> 8 */\n      swap1\n      shr\n        /* \"@openzeppelin/contracts/utils/math/Math.sol\":7458:7468  x >> 8 > 0 */\n      gt\n        /* \"@openzeppelin/contracts/utils/math/Math.sol\":7454:7528  if (x >> 8 > 0) {... */\n      iszero\n      tag_131\n      jumpi\n        /* \"@openzeppelin/contracts/utils/math/Math.sol\":7490:7491  8 */\n      0x08\n        /* \"@openzeppelin/contracts/utils/math/Math.sol\":7484:7491  x >>= 8 */\n      dup2\n      swap1\n      shr\n      swap1\n      pop\n        /* \"@openzeppelin/contracts/utils/math/Math.sol\":7516:7517  4 */\n      0x04\n        /* \"@openzeppelin/contracts/utils/math/Math.sol\":7505:7517  result <<= 4 */\n      dup3\n      swap1\n      shl\n      swap2\n      pop\n        /* \"@openzeppelin/contracts/utils/math/Math.sol\":7454:7528  if (x >> 8 > 0) {... */\n    tag_131:\n        /* \"@openzeppelin/contracts/utils/math/Math.sol\":7550:7551  0 */\n      0x00\n        /* \"@openzeppelin/contracts/utils/math/Math.sol\":7546:7547  4 */\n      0x04\n        /* \"@openzeppelin/contracts/utils/math/Math.sol\":7541:7542  x */\n      dup3\n        /* \"@openzeppelin/contracts/utils/math/Math.sol\":7541:7547  x >> 4 */\n      swap1\n      shr\n        /* \"@openzeppelin/contracts/utils/math/Math.sol\":7541:7551  x >> 4 > 0 */\n      gt\n        /* \"@openzeppelin/contracts/utils/math/Math.sol\":7537:7611  if (x >> 4 > 0) {... */\n      iszero\n      tag_132\n      jumpi\n        /* \"@openzeppelin/contracts/utils/math/Math.sol\":7573:7574  4 */\n      0x04\n        /* \"@openzeppelin/contracts/utils/math/Math.sol\":7567:7574  x >>= 4 */\n      dup2\n      swap1\n      shr\n      swap1\n      pop\n        /* \"@openzeppelin/contracts/utils/math/Math.sol\":7599:7600  2 */\n      0x02\n        /* \"@openzeppelin/contracts/utils/math/Math.sol\":7588:7600  result <<= 2 */\n      dup3\n      swap1\n      shl\n      swap2\n      pop\n        /* \"@openzeppelin/contracts/utils/math/Math.sol\":7537:7611  if (x >> 4 > 0) {... */\n    tag_132:\n        /* \"@openzeppelin/contracts/utils/math/Math.sol\":7633:7634  0 */\n      0x00\n        /* \"@openzeppelin/contracts/utils/math/Math.sol\":7629:7630  2 */\n      0x02\n        /* \"@openzeppelin/contracts/utils/math/Math.sol\":7624:7625  x */\n      dup3\n        /* \"@openzeppelin/contracts/utils/math/Math.sol\":7624:7630  x >> 2 */\n      swap1\n      shr\n        /* \"@openzeppelin/contracts/utils/math/Math.sol\":7624:7634  x >> 2 > 0 */\n      gt\n        /* \"@openzeppelin/contracts/utils/math/Math.sol\":7620:7673  if (x >> 2 > 0) {... */\n      iszero\n      tag_133\n      jumpi\n        /* \"@openzeppelin/contracts/utils/math/Math.sol\":7661:7662  1 */\n      0x01\n        /* \"@openzeppelin/contracts/utils/math/Math.sol\":7650:7662  result <<= 1 */\n      dup3\n      swap1\n      shl\n      swap2\n      pop\n        /* \"@openzeppelin/contracts/utils/math/Math.sol\":7620:7673  if (x >> 2 > 0) {... */\n    tag_133:\n        /* \"@openzeppelin/contracts/utils/math/Math.sol\":8131:8132  1 */\n      0x01\n        /* \"@openzeppelin/contracts/utils/math/Math.sol\":8120:8126  result */\n      dup3\n        /* \"@openzeppelin/contracts/utils/math/Math.sol\":8116:8117  a */\n      dup6\n        /* \"@openzeppelin/contracts/utils/math/Math.sol\":8116:8126  a / result */\n      dup2\n      tag_134\n      jumpi\n      tag_135\n      tag_136\n      jump\t// in\n    tag_135:\n    tag_134:\n      div\n        /* \"@openzeppelin/contracts/utils/math/Math.sol\":8107:8113  result */\n      dup4\n        /* \"@openzeppelin/contracts/utils/math/Math.sol\":8107:8126  result + a / result */\n      add\n        /* \"@openzeppelin/contracts/utils/math/Math.sol\":8106:8132  (result + a / result) >> 1 */\n      swap1\n      shr\n        /* \"@openzeppelin/contracts/utils/math/Math.sol\":8097:8132  result = (result + a / result) >> 1 */\n      swap2\n      pop\n        /* \"@openzeppelin/contracts/utils/math/Math.sol\":8180:8181  1 */\n      0x01\n        /* \"@openzeppelin/contracts/utils/math/Math.sol\":8169:8175  result */\n      dup3\n        /* \"@openzeppelin/contracts/utils/math/Math.sol\":8165:8166  a */\n      dup6\n        /* \"@openzeppelin/contracts/utils/math/Math.sol\":8165:8175  a / result */\n      dup2\n      tag_137\n      jumpi\n      tag_138\n      tag_136\n      jump\t// in\n    tag_138:\n    tag_137:\n      div\n        /* \"@openzeppelin/contracts/utils/math/Math.sol\":8156:8162  result */\n      dup4\n        /* \"@openzeppelin/contracts/utils/math/Math.sol\":8156:8175  result + a / result */\n      add\n        /* \"@openzeppelin/contracts/utils/math/Math.sol\":8155:8181  (result + a / result) >> 1 */\n      swap1\n      shr\n        /* \"@openzeppelin/contracts/utils/math/Math.sol\":8146:8181  result = (result + a / result) >> 1 */\n      swap2\n      pop\n        /* \"@openzeppelin/contracts/utils/math/Math.sol\":8229:8230  1 */\n      0x01\n        /* \"@openzeppelin/contracts/utils/math/Math.sol\":8218:8224  result */\n      dup3\n        /* \"@openzeppelin/contracts/utils/math/Math.sol\":8214:8215  a */\n      dup6\n        /* \"@openzeppelin/contracts/utils/math/Math.sol\":8214:8224  a / result */\n      dup2\n      tag_139\n      jumpi\n      tag_140\n      tag_136\n      jump\t// in\n    tag_140:\n    tag_139:\n      div\n        /* \"@openzeppelin/contracts/utils/math/Math.sol\":8205:8211  result */\n      dup4\n        /* \"@openzeppelin/contracts/utils/math/Math.sol\":8205:8224  result + a / result */\n      add\n        /* \"@openzeppelin/contracts/utils/math/Math.sol\":8204:8230  (result + a / result) >> 1 */\n      swap1\n      shr\n        /* \"@openzeppelin/contracts/utils/math/Math.sol\":8195:8230  result = (result + a / result) >> 1 */\n      swap2\n      pop\n        /* \"@openzeppelin/contracts/utils/math/Math.sol\":8278:8279  1 */\n      0x01\n        /* \"@openzeppelin/contracts/utils/math/Math.sol\":8267:8273  result */\n      dup3\n        /* \"@openzeppelin/contracts/utils/math/Math.sol\":8263:8264  a */\n      dup6\n        /* \"@openzeppelin/contracts/utils/math/Math.sol\":8263:8273  a / result */\n      dup2\n      tag_141\n      jumpi\n      tag_142\n      tag_136\n      jump\t// in\n    tag_142:\n    tag_141:\n      div\n        /* \"@openzeppelin/contracts/utils/math/Math.sol\":8254:8260  result */\n      dup4\n        /* \"@openzeppelin/contracts/utils/math/Math.sol\":8254:8273  result + a / result */\n      add\n        /* \"@openzeppelin/contracts/utils/math/Math.sol\":8253:8279  (result + a / result) >> 1 */\n      swap1\n      shr\n        /* \"@openzeppelin/contracts/utils/math/Math.sol\":8244:8279  result = (result + a / result) >> 1 */\n      swap2\n      pop\n        /* \"@openzeppelin/contracts/utils/math/Math.sol\":8327:8328  1 */\n      0x01\n        /* \"@openzeppelin/contracts/utils/math/Math.sol\":8316:8322  result */\n      dup3\n        /* \"@openzeppelin/contracts/utils/math/Math.sol\":8312:8313  a */\n      dup6\n        /* \"@openzeppelin/contracts/utils/math/Math.sol\":8312:8322  a / result */\n      dup2\n      tag_143\n      jumpi\n      tag_144\n      tag_136\n      jump\t// in\n    tag_144:\n    tag_143:\n      div\n        /* \"@openzeppelin/contracts/utils/math/Math.sol\":8303:8309  result */\n      dup4\n        /* \"@openzeppelin/contracts/utils/math/Math.sol\":8303:8322  result + a / result */\n      add\n        /* \"@openzeppelin/contracts/utils/math/Math.sol\":8302:8328  (result + a / result) >> 1 */\n      swap1\n      shr\n        /* \"@openzeppelin/contracts/utils/math/Math.sol\":8293:8328  result = (result + a / result) >> 1 */\n      swap2\n      pop\n        /* \"@openzeppelin/contracts/utils/math/Math.sol\":8376:8377  1 */\n      0x01\n        /* \"@openzeppelin/contracts/utils/math/Math.sol\":8365:8371  result */\n      dup3\n        /* \"@openzeppelin/contracts/utils/math/Math.sol\":8361:8362  a */\n      dup6\n        /* \"@openzeppelin/contracts/utils/math/Math.sol\":8361:8371  a / result */\n      dup2\n      tag_145\n      jumpi\n      tag_146\n      tag_136\n      jump\t// in\n    tag_146:\n    tag_145:\n      div\n        /* \"@openzeppelin/contracts/utils/math/Math.sol\":8352:8358  result */\n      dup4\n        /* \"@openzeppelin/contracts/utils/math/Math.sol\":8352:8371  result + a / result */\n      add\n        /* \"@openzeppelin/contracts/utils/math/Math.sol\":8351:8377  (result + a / result) >> 1 */\n      swap1\n      shr\n        /* \"@openzeppelin/contracts/utils/math/Math.sol\":8342:8377  result = (result + a / result) >> 1 */\n      swap2\n      pop\n        /* \"@openzeppelin/contracts/utils/math/Math.sol\":8425:8426  1 */\n      0x01\n        /* \"@openzeppelin/contracts/utils/math/Math.sol\":8414:8420  result */\n      dup3\n        /* \"@openzeppelin/contracts/utils/math/Math.sol\":8410:8411  a */\n      dup6\n        /* \"@openzeppelin/contracts/utils/math/Math.sol\":8410:8420  a / result */\n      dup2\n      tag_147\n      jumpi\n      tag_148\n      tag_136\n      jump\t// in\n    tag_148:\n    tag_147:\n      div\n        /* \"@openzeppelin/contracts/utils/math/Math.sol\":8401:8407  result */\n      dup4\n        /* \"@openzeppelin/contracts/utils/math/Math.sol\":8401:8420  result + a / result */\n      add\n        /* \"@openzeppelin/contracts/utils/math/Math.sol\":8400:8426  (result + a / result) >> 1 */\n      swap1\n      shr\n        /* \"@openzeppelin/contracts/utils/math/Math.sol\":8391:8426  result = (result + a / result) >> 1 */\n      swap2\n      pop\n        /* \"@openzeppelin/contracts/utils/math/Math.sol\":8447:8470  min(result, a / result) */\n      tag_149\n        /* \"@openzeppelin/contracts/utils/math/Math.sol\":8451:8457  result */\n      dup3\n        /* \"@openzeppelin/contracts/utils/math/Math.sol\":8463:8469  result */\n      dup4\n        /* \"@openzeppelin/contracts/utils/math/Math.sol\":8459:8460  a */\n      dup7\n        /* \"@openzeppelin/contracts/utils/math/Math.sol\":8459:8469  a / result */\n      dup2\n      tag_150\n      jumpi\n      tag_151\n      tag_136\n      jump\t// in\n    tag_151:\n    tag_150:\n      div\n        /* \"@openzeppelin/contracts/utils/math/Math.sol\":8447:8450  min */\n      tag_152\n        /* \"@openzeppelin/contracts/utils/math/Math.sol\":8447:8470  min(result, a / result) */\n      jump\t// in\n    tag_149:\n        /* \"@openzeppelin/contracts/utils/math/Math.sol\":8440:8470  return min(result, a / result) */\n      swap3\n      pop\n      pop\n      pop\n        /* \"@openzeppelin/contracts/utils/math/Math.sol\":6281:8487  function sqrt(uint256 a) internal pure returns (uint256) {... */\n    tag_125:\n      swap2\n      swap1\n      pop\n      jump\t// out\n        /* \"@openzeppelin/contracts/utils/math/Math.sol\":589:693  function min(uint256 a, uint256 b) internal pure returns (uint256) {... */\n    tag_152:\n        /* \"@openzeppelin/contracts/utils/math/Math.sol\":647:654  uint256 */\n      0x00\n        /* \"@openzeppelin/contracts/utils/math/Math.sol\":677:678  b */\n      dup2\n        /* \"@openzeppelin/contracts/utils/math/Math.sol\":673:674  a */\n      dup4\n        /* \"@openzeppelin/contracts/utils/math/Math.sol\":673:678  a < b */\n      lt\n        /* \"@openzeppelin/contracts/utils/math/Math.sol\":673:686  a < b ? a : b */\n      tag_154\n      jumpi\n        /* \"@openzeppelin/contracts/utils/math/Math.sol\":685:686  b */\n      dup2\n        /* \"@openzeppelin/contracts/utils/math/Math.sol\":673:686  a < b ? a : b */\n      jump(tag_155)\n    tag_154:\n        /* \"@openzeppelin/contracts/utils/math/Math.sol\":681:682  a */\n      dup3\n        /* \"@openzeppelin/contracts/utils/math/Math.sol\":673:686  a < b ? a : b */\n    tag_155:\n        /* \"@openzeppelin/contracts/utils/math/Math.sol\":666:686  return a < b ? a : b */\n      swap1\n      pop\n        /* \"@openzeppelin/contracts/utils/math/Math.sol\":589:693  function min(uint256 a, uint256 b) internal pure returns (uint256) {... */\n      swap3\n      swap2\n      pop\n      pop\n      jump\t// out\n        /* \"#utility.yul\":88:205   */\n    tag_157:\n        /* \"#utility.yul\":197:198   */\n      0x00\n        /* \"#utility.yul\":194:195   */\n      dup1\n        /* \"#utility.yul\":187:199   */\n      revert\n        /* \"#utility.yul\":334:411   */\n    tag_159:\n        /* \"#utility.yul\":371:378   */\n      0x00\n        /* \"#utility.yul\":400:405   */\n      dup2\n        /* \"#utility.yul\":389:405   */\n      swap1\n      pop\n        /* \"#utility.yul\":334:411   */\n      swap2\n      swap1\n      pop\n      jump\t// out\n        /* \"#utility.yul\":417:539   */\n    tag_160:\n        /* \"#utility.yul\":490:514   */\n      tag_195\n        /* \"#utility.yul\":508:513   */\n      dup2\n        /* \"#utility.yul\":490:514   */\n      tag_159\n      jump\t// in\n    tag_195:\n        /* \"#utility.yul\":483:488   */\n      dup2\n        /* \"#utility.yul\":480:515   */\n      eq\n        /* \"#utility.yul\":470:533   */\n      tag_196\n      jumpi\n        /* \"#utility.yul\":529:530   */\n      0x00\n        /* \"#utility.yul\":526:527   */\n      dup1\n        /* \"#utility.yul\":519:531   */\n      revert\n        /* \"#utility.yul\":470:533   */\n    tag_196:\n        /* \"#utility.yul\":417:539   */\n      pop\n      jump\t// out\n        /* \"#utility.yul\":545:684   */\n    tag_161:\n        /* \"#utility.yul\":591:596   */\n      0x00\n        /* \"#utility.yul\":629:635   */\n      dup2\n        /* \"#utility.yul\":616:636   */\n      calldataload\n        /* \"#utility.yul\":607:636   */\n      swap1\n      pop\n        /* \"#utility.yul\":645:678   */\n      tag_198\n        /* \"#utility.yul\":672:677   */\n      dup2\n        /* \"#utility.yul\":645:678   */\n      tag_160\n      jump\t// in\n    tag_198:\n        /* \"#utility.yul\":545:684   */\n      swap3\n      swap2\n      pop\n      pop\n      jump\t// out\n        /* \"#utility.yul\":690:1019   */\n    tag_12:\n        /* \"#utility.yul\":749:755   */\n      0x00\n        /* \"#utility.yul\":798:800   */\n      0x20\n        /* \"#utility.yul\":786:795   */\n      dup3\n        /* \"#utility.yul\":777:784   */\n      dup5\n        /* \"#utility.yul\":773:796   */\n      sub\n        /* \"#utility.yul\":769:801   */\n      slt\n        /* \"#utility.yul\":766:885   */\n      iszero\n      tag_200\n      jumpi\n        /* \"#utility.yul\":804:883   */\n      tag_201\n      tag_157\n      jump\t// in\n    tag_201:\n        /* \"#utility.yul\":766:885   */\n    tag_200:\n        /* \"#utility.yul\":924:925   */\n      0x00\n        /* \"#utility.yul\":949:1002   */\n      tag_202\n        /* \"#utility.yul\":994:1001   */\n      dup5\n        /* \"#utility.yul\":985:991   */\n      dup3\n        /* \"#utility.yul\":974:983   */\n      dup6\n        /* \"#utility.yul\":970:992   */\n      add\n        /* \"#utility.yul\":949:1002   */\n      tag_161\n      jump\t// in\n    tag_202:\n        /* \"#utility.yul\":939:1002   */\n      swap2\n      pop\n        /* \"#utility.yul\":895:1012   */\n      pop\n        /* \"#utility.yul\":690:1019   */\n      swap3\n      swap2\n      pop\n      pop\n      jump\t// out\n        /* \"#utility.yul\":1025:1143   */\n    tag_162:\n        /* \"#utility.yul\":1112:1136   */\n      tag_204\n        /* \"#utility.yul\":1130:1135   */\n      dup2\n        /* \"#utility.yul\":1112:1136   */\n      tag_159\n      jump\t// in\n    tag_204:\n        /* \"#utility.yul\":1107:1110   */\n      dup3\n        /* \"#utility.yul\":1100:1137   */\n      mstore\n        /* \"#utility.yul\":1025:1143   */\n      pop\n      pop\n      jump\t// out\n        /* \"#utility.yul\":1149:1371   */\n    tag_18:\n        /* \"#utility.yul\":1242:1246   */\n      0x00\n        /* \"#utility.yul\":1280:1282   */\n      0x20\n        /* \"#utility.yul\":1269:1278   */\n      dup3\n        /* \"#utility.yul\":1265:1283   */\n      add\n        /* \"#utility.yul\":1257:1283   */\n      swap1\n      pop\n        /* \"#utility.yul\":1293:1364   */\n      tag_206\n        /* \"#utility.yul\":1361:1362   */\n      0x00\n        /* \"#utility.yul\":1350:1359   */\n      dup4\n        /* \"#utility.yul\":1346:1363   */\n      add\n        /* \"#utility.yul\":1337:1343   */\n      dup5\n        /* \"#utility.yul\":1293:1364   */\n      tag_162\n      jump\t// in\n    tag_206:\n        /* \"#utility.yul\":1149:1371   */\n      swap3\n      swap2\n      pop\n      pop\n      jump\t// out\n        /* \"#utility.yul\":1377:1503   */\n    tag_163:\n        /* \"#utility.yul\":1414:1421   */\n      0x00\n        /* \"#utility.yul\":1454:1496   */\n      0xffffffffffffffffffffffffffffffffffffffff\n        /* \"#utility.yul\":1447:1452   */\n      dup3\n        /* \"#utility.yul\":1443:1497   */\n      and\n        /* \"#utility.yul\":1432:1497   */\n      swap1\n      pop\n        /* \"#utility.yul\":1377:1503   */\n      swap2\n      swap1\n      pop\n      jump\t// out\n        /* \"#utility.yul\":1509:1605   */\n    tag_164:\n        /* \"#utility.yul\":1546:1553   */\n      0x00\n        /* \"#utility.yul\":1575:1599   */\n      tag_209\n        /* \"#utility.yul\":1593:1598   */\n      dup3\n        /* \"#utility.yul\":1575:1599   */\n      tag_163\n      jump\t// in\n    tag_209:\n        /* \"#utility.yul\":1564:1599   */\n      swap1\n      pop\n        /* \"#utility.yul\":1509:1605   */\n      swap2\n      swap1\n      pop\n      jump\t// out\n        /* \"#utility.yul\":1611:1733   */\n    tag_165:\n        /* \"#utility.yul\":1684:1708   */\n      tag_211\n        /* \"#utility.yul\":1702:1707   */\n      dup2\n        /* \"#utility.yul\":1684:1708   */\n      tag_164\n      jump\t// in\n    tag_211:\n        /* \"#utility.yul\":1677:1682   */\n      dup2\n        /* \"#utility.yul\":1674:1709   */\n      eq\n        /* \"#utility.yul\":1664:1727   */\n      tag_212\n      jumpi\n        /* \"#utility.yul\":1723:1724   */\n      0x00\n        /* \"#utility.yul\":1720:1721   */\n      dup1\n        /* \"#utility.yul\":1713:1725   */\n      revert\n        /* \"#utility.yul\":1664:1727   */\n    tag_212:\n        /* \"#utility.yul\":1611:1733   */\n      pop\n      jump\t// out\n        /* \"#utility.yul\":1739:1878   */\n    tag_166:\n        /* \"#utility.yul\":1785:1790   */\n      0x00\n        /* \"#utility.yul\":1823:1829   */\n      dup2\n        /* \"#utility.yul\":1810:1830   */\n      calldataload\n        /* \"#utility.yul\":1801:1830   */\n      swap1\n      pop\n        /* \"#utility.yul\":1839:1872   */\n      tag_214\n        /* \"#utility.yul\":1866:1871   */\n      dup2\n        /* \"#utility.yul\":1839:1872   */\n      tag_165\n      jump\t// in\n    tag_214:\n        /* \"#utility.yul\":1739:1878   */\n      swap3\n      swap2\n      pop\n      pop\n      jump\t// out\n        /* \"#utility.yul\":1884:2358   */\n    tag_26:\n        /* \"#utility.yul\":1952:1958   */\n      0x00\n        /* \"#utility.yul\":1960:1966   */\n      dup1\n        /* \"#utility.yul\":2009:2011   */\n      0x40\n        /* \"#utility.yul\":1997:2006   */\n      dup4\n        /* \"#utility.yul\":1988:1995   */\n      dup6\n        /* \"#utility.yul\":1984:2007   */\n      sub\n        /* \"#utility.yul\":1980:2012   */\n      slt\n        /* \"#utility.yul\":1977:2096   */\n      iszero\n      tag_216\n      jumpi\n        /* \"#utility.yul\":2015:2094   */\n      tag_217\n      tag_157\n      jump\t// in\n    tag_217:\n        /* \"#utility.yul\":1977:2096   */\n    tag_216:\n        /* \"#utility.yul\":2135:2136   */\n      0x00\n        /* \"#utility.yul\":2160:2213   */\n      tag_218\n        /* \"#utility.yul\":2205:2212   */\n      dup6\n        /* \"#utility.yul\":2196:2202   */\n      dup3\n        /* \"#utility.yul\":2185:2194   */\n      dup7\n        /* \"#utility.yul\":2181:2203   */\n      add\n        /* \"#utility.yul\":2160:2213   */\n      tag_166\n      jump\t// in\n    tag_218:\n        /* \"#utility.yul\":2150:2213   */\n      swap3\n      pop\n        /* \"#utility.yul\":2106:2223   */\n      pop\n        /* \"#utility.yul\":2262:2264   */\n      0x20\n        /* \"#utility.yul\":2288:2341   */\n      tag_219\n        /* \"#utility.yul\":2333:2340   */\n      dup6\n        /* \"#utility.yul\":2324:2330   */\n      dup3\n        /* \"#utility.yul\":2313:2322   */\n      dup7\n        /* \"#utility.yul\":2309:2331   */\n      add\n        /* \"#utility.yul\":2288:2341   */\n      tag_161\n      jump\t// in\n    tag_219:\n        /* \"#utility.yul\":2278:2341   */\n      swap2\n      pop\n        /* \"#utility.yul\":2233:2351   */\n      pop\n        /* \"#utility.yul\":1884:2358   */\n      swap3\n      pop\n      swap3\n      swap1\n      pop\n      jump\t// out\n        /* \"#utility.yul\":2364:2482   */\n    tag_167:\n        /* \"#utility.yul\":2451:2475   */\n      tag_221\n        /* \"#utility.yul\":2469:2474   */\n      dup2\n        /* \"#utility.yul\":2451:2475   */\n      tag_164\n      jump\t// in\n    tag_221:\n        /* \"#utility.yul\":2446:2449   */\n      dup3\n        /* \"#utility.yul\":2439:2476   */\n      mstore\n        /* \"#utility.yul\":2364:2482   */\n      pop\n      pop\n      jump\t// out\n        /* \"#utility.yul\":2488:2710   */\n    tag_35:\n        /* \"#utility.yul\":2581:2585   */\n      0x00\n        /* \"#utility.yul\":2619:2621   */\n      0x20\n        /* \"#utility.yul\":2608:2617   */\n      dup3\n        /* \"#utility.yul\":2604:2622   */\n      add\n        /* \"#utility.yul\":2596:2622   */\n      swap1\n      pop\n        /* \"#utility.yul\":2632:2703   */\n      tag_223\n        /* \"#utility.yul\":2700:2701   */\n      0x00\n        /* \"#utility.yul\":2689:2698   */\n      dup4\n        /* \"#utility.yul\":2685:2702   */\n      add\n        /* \"#utility.yul\":2676:2682   */\n      dup5\n        /* \"#utility.yul\":2632:2703   */\n      tag_167\n      jump\t// in\n    tag_223:\n        /* \"#utility.yul\":2488:2710   */\n      swap3\n      swap2\n      pop\n      pop\n      jump\t// out\n        /* \"#utility.yul\":2716:2885   */\n    tag_168:\n        /* \"#utility.yul\":2800:2811   */\n      0x00\n        /* \"#utility.yul\":2834:2840   */\n      dup3\n        /* \"#utility.yul\":2829:2832   */\n      dup3\n        /* \"#utility.yul\":2822:2841   */\n      mstore\n        /* \"#utility.yul\":2874:2878   */\n      0x20\n        /* \"#utility.yul\":2869:2872   */\n      dup3\n        /* \"#utility.yul\":2865:2879   */\n      add\n        /* \"#utility.yul\":2850:2879   */\n      swap1\n      pop\n        /* \"#utility.yul\":2716:2885   */\n      swap3\n      swap2\n      pop\n      pop\n      jump\t// out\n        /* \"#utility.yul\":2891:3055   */\n    tag_169:\n        /* \"#utility.yul\":3031:3047   */\n      0x496e76616c696420616d6f756e74000000000000000000000000000000000000\n        /* \"#utility.yul\":3027:3028   */\n      0x00\n        /* \"#utility.yul\":3019:3025   */\n      dup3\n        /* \"#utility.yul\":3015:3029   */\n      add\n        /* \"#utility.yul\":3008:3048   */\n      mstore\n        /* \"#utility.yul\":2891:3055   */\n      pop\n      jump\t// out\n        /* \"#utility.yul\":3061:3427   */\n    tag_170:\n        /* \"#utility.yul\":3203:3206   */\n      0x00\n        /* \"#utility.yul\":3224:3291   */\n      tag_227\n        /* \"#utility.yul\":3288:3290   */\n      0x0e\n        /* \"#utility.yul\":3283:3286   */\n      dup4\n        /* \"#utility.yul\":3224:3291   */\n      tag_168\n      jump\t// in\n    tag_227:\n        /* \"#utility.yul\":3217:3291   */\n      swap2\n      pop\n        /* \"#utility.yul\":3300:3393   */\n      tag_228\n        /* \"#utility.yul\":3389:3392   */\n      dup3\n        /* \"#utility.yul\":3300:3393   */\n      tag_169\n      jump\t// in\n    tag_228:\n        /* \"#utility.yul\":3418:3420   */\n      0x20\n        /* \"#utility.yul\":3413:3416   */\n      dup3\n        /* \"#utility.yul\":3409:3421   */\n      add\n        /* \"#utility.yul\":3402:3421   */\n      swap1\n      pop\n        /* \"#utility.yul\":3061:3427   */\n      swap2\n      swap1\n      pop\n      jump\t// out\n        /* \"#utility.yul\":3433:3852   */\n    tag_43:\n        /* \"#utility.yul\":3599:3603   */\n      0x00\n        /* \"#utility.yul\":3637:3639   */\n      0x20\n        /* \"#utility.yul\":3626:3635   */\n      dup3\n        /* \"#utility.yul\":3622:3640   */\n      add\n        /* \"#utility.yul\":3614:3640   */\n      swap1\n      pop\n        /* \"#utility.yul\":3686:3695   */\n      dup2\n        /* \"#utility.yul\":3680:3684   */\n      dup2\n        /* \"#utility.yul\":3676:3696   */\n      sub\n        /* \"#utility.yul\":3672:3673   */\n      0x00\n        /* \"#utility.yul\":3661:3670   */\n      dup4\n        /* \"#utility.yul\":3657:3674   */\n      add\n        /* \"#utility.yul\":3650:3697   */\n      mstore\n        /* \"#utility.yul\":3714:3845   */\n      tag_230\n        /* \"#utility.yul\":3840:3844   */\n      dup2\n        /* \"#utility.yul\":3714:3845   */\n      tag_170\n      jump\t// in\n    tag_230:\n        /* \"#utility.yul\":3706:3845   */\n      swap1\n      pop\n        /* \"#utility.yul\":3433:3852   */\n      swap2\n      swap1\n      pop\n      jump\t// out\n        /* \"#utility.yul\":3858:4190   */\n    tag_45:\n        /* \"#utility.yul\":3979:3983   */\n      0x00\n        /* \"#utility.yul\":4017:4019   */\n      0x40\n        /* \"#utility.yul\":4006:4015   */\n      dup3\n        /* \"#utility.yul\":4002:4020   */\n      add\n        /* \"#utility.yul\":3994:4020   */\n      swap1\n      pop\n        /* \"#utility.yul\":4030:4101   */\n      tag_232\n        /* \"#utility.yul\":4098:4099   */\n      0x00\n        /* \"#utility.yul\":4087:4096   */\n      dup4\n        /* \"#utility.yul\":4083:4100   */\n      add\n        /* \"#utility.yul\":4074:4080   */\n      dup6\n        /* \"#utility.yul\":4030:4101   */\n      tag_167\n      jump\t// in\n    tag_232:\n        /* \"#utility.yul\":4111:4183   */\n      tag_233\n        /* \"#utility.yul\":4179:4181   */\n      0x20\n        /* \"#utility.yul\":4168:4177   */\n      dup4\n        /* \"#utility.yul\":4164:4182   */\n      add\n        /* \"#utility.yul\":4155:4161   */\n      dup5\n        /* \"#utility.yul\":4111:4183   */\n      tag_162\n      jump\t// in\n    tag_233:\n        /* \"#utility.yul\":3858:4190   */\n      swap4\n      swap3\n      pop\n      pop\n      pop\n      jump\t// out\n        /* \"#utility.yul\":4196:4286   */\n    tag_171:\n        /* \"#utility.yul\":4230:4237   */\n      0x00\n        /* \"#utility.yul\":4273:4278   */\n      dup2\n        /* \"#utility.yul\":4266:4279   */\n      iszero\n        /* \"#utility.yul\":4259:4280   */\n      iszero\n        /* \"#utility.yul\":4248:4280   */\n      swap1\n      pop\n        /* \"#utility.yul\":4196:4286   */\n      swap2\n      swap1\n      pop\n      jump\t// out\n        /* \"#utility.yul\":4292:4408   */\n    tag_172:\n        /* \"#utility.yul\":4362:4383   */\n      tag_236\n        /* \"#utility.yul\":4377:4382   */\n      dup2\n        /* \"#utility.yul\":4362:4383   */\n      tag_171\n      jump\t// in\n    tag_236:\n        /* \"#utility.yul\":4355:4360   */\n      dup2\n        /* \"#utility.yul\":4352:4384   */\n      eq\n        /* \"#utility.yul\":4342:4402   */\n      tag_237\n      jumpi\n        /* \"#utility.yul\":4398:4399   */\n      0x00\n        /* \"#utility.yul\":4395:4396   */\n      dup1\n        /* \"#utility.yul\":4388:4400   */\n      revert\n        /* \"#utility.yul\":4342:4402   */\n    tag_237:\n        /* \"#utility.yul\":4292:4408   */\n      pop\n      jump\t// out\n        /* \"#utility.yul\":4414:4551   */\n    tag_173:\n        /* \"#utility.yul\":4468:4473   */\n      0x00\n        /* \"#utility.yul\":4499:4505   */\n      dup2\n        /* \"#utility.yul\":4493:4506   */\n      mload\n        /* \"#utility.yul\":4484:4506   */\n      swap1\n      pop\n        /* \"#utility.yul\":4515:4545   */\n      tag_239\n        /* \"#utility.yul\":4539:4544   */\n      dup2\n        /* \"#utility.yul\":4515:4545   */\n      tag_172\n      jump\t// in\n    tag_239:\n        /* \"#utility.yul\":4414:4551   */\n      swap3\n      swap2\n      pop\n      pop\n      jump\t// out\n        /* \"#utility.yul\":4557:4902   */\n    tag_49:\n        /* \"#utility.yul\":4624:4630   */\n      0x00\n        /* \"#utility.yul\":4673:4675   */\n      0x20\n        /* \"#utility.yul\":4661:4670   */\n      dup3\n        /* \"#utility.yul\":4652:4659   */\n      dup5\n        /* \"#utility.yul\":4648:4671   */\n      sub\n        /* \"#utility.yul\":4644:4676   */\n      slt\n        /* \"#utility.yul\":4641:4760   */\n      iszero\n      tag_241\n      jumpi\n        /* \"#utility.yul\":4679:4758   */\n      tag_242\n      tag_157\n      jump\t// in\n    tag_242:\n        /* \"#utility.yul\":4641:4760   */\n    tag_241:\n        /* \"#utility.yul\":4799:4800   */\n      0x00\n        /* \"#utility.yul\":4824:4885   */\n      tag_243\n        /* \"#utility.yul\":4877:4884   */\n      dup5\n        /* \"#utility.yul\":4868:4874   */\n      dup3\n        /* \"#utility.yul\":4857:4866   */\n      dup6\n        /* \"#utility.yul\":4853:4875   */\n      add\n        /* \"#utility.yul\":4824:4885   */\n      tag_173\n      jump\t// in\n    tag_243:\n        /* \"#utility.yul\":4814:4885   */\n      swap2\n      pop\n        /* \"#utility.yul\":4770:4895   */\n      pop\n        /* \"#utility.yul\":4557:4902   */\n      swap3\n      swap2\n      pop\n      pop\n      jump\t// out\n        /* \"#utility.yul\":4908:5240   */\n    tag_52:\n        /* \"#utility.yul\":5029:5033   */\n      0x00\n        /* \"#utility.yul\":5067:5069   */\n      0x40\n        /* \"#utility.yul\":5056:5065   */\n      dup3\n        /* \"#utility.yul\":5052:5070   */\n      add\n        /* \"#utility.yul\":5044:5070   */\n      swap1\n      pop\n        /* \"#utility.yul\":5080:5151   */\n      tag_245\n        /* \"#utility.yul\":5148:5149   */\n      0x00\n        /* \"#utility.yul\":5137:5146   */\n      dup4\n        /* \"#utility.yul\":5133:5150   */\n      add\n        /* \"#utility.yul\":5124:5130   */\n      dup6\n        /* \"#utility.yul\":5080:5151   */\n      tag_167\n      jump\t// in\n    tag_245:\n        /* \"#utility.yul\":5161:5233   */\n      tag_246\n        /* \"#utility.yul\":5229:5231   */\n      0x20\n        /* \"#utility.yul\":5218:5227   */\n      dup4\n        /* \"#utility.yul\":5214:5232   */\n      add\n        /* \"#utility.yul\":5205:5211   */\n      dup5\n        /* \"#utility.yul\":5161:5233   */\n      tag_167\n      jump\t// in\n    tag_246:\n        /* \"#utility.yul\":4908:5240   */\n      swap4\n      swap3\n      pop\n      pop\n      pop\n      jump\t// out\n        /* \"#utility.yul\":5246:5389   */\n    tag_174:\n        /* \"#utility.yul\":5303:5308   */\n      0x00\n        /* \"#utility.yul\":5334:5340   */\n      dup2\n        /* \"#utility.yul\":5328:5341   */\n      mload\n        /* \"#utility.yul\":5319:5341   */\n      swap1\n      pop\n        /* \"#utility.yul\":5350:5383   */\n      tag_248\n        /* \"#utility.yul\":5377:5382   */\n      dup2\n        /* \"#utility.yul\":5350:5383   */\n      tag_160\n      jump\t// in\n    tag_248:\n        /* \"#utility.yul\":5246:5389   */\n      swap3\n      swap2\n      pop\n      pop\n      jump\t// out\n        /* \"#utility.yul\":5395:5746   */\n    tag_56:\n        /* \"#utility.yul\":5465:5471   */\n      0x00\n        /* \"#utility.yul\":5514:5516   */\n      0x20\n        /* \"#utility.yul\":5502:5511   */\n      dup3\n        /* \"#utility.yul\":5493:5500   */\n      dup5\n        /* \"#utility.yul\":5489:5512   */\n      sub\n        /* \"#utility.yul\":5485:5517   */\n      slt\n        /* \"#utility.yul\":5482:5601   */\n      iszero\n      tag_250\n      jumpi\n        /* \"#utility.yul\":5520:5599   */\n      tag_251\n      tag_157\n      jump\t// in\n    tag_251:\n        /* \"#utility.yul\":5482:5601   */\n    tag_250:\n        /* \"#utility.yul\":5640:5641   */\n      0x00\n        /* \"#utility.yul\":5665:5729   */\n      tag_252\n        /* \"#utility.yul\":5721:5728   */\n      dup5\n        /* \"#utility.yul\":5712:5718   */\n      dup3\n        /* \"#utility.yul\":5701:5710   */\n      dup6\n        /* \"#utility.yul\":5697:5719   */\n      add\n        /* \"#utility.yul\":5665:5729   */\n      tag_174\n      jump\t// in\n    tag_252:\n        /* \"#utility.yul\":5655:5729   */\n      swap2\n      pop\n        /* \"#utility.yul\":5611:5739   */\n      pop\n        /* \"#utility.yul\":5395:5746   */\n      swap3\n      swap2\n      pop\n      pop\n      jump\t// out\n        /* \"#utility.yul\":5752:5923   */\n    tag_175:\n        /* \"#utility.yul\":5892:5915   */\n      0x436f6e7472616374206e6f7420617070726f7665640000000000000000000000\n        /* \"#utility.yul\":5888:5889   */\n      0x00\n        /* \"#utility.yul\":5880:5886   */\n      dup3\n        /* \"#utility.yul\":5876:5890   */\n      add\n        /* \"#utility.yul\":5869:5916   */\n      mstore\n        /* \"#utility.yul\":5752:5923   */\n      pop\n      jump\t// out\n        /* \"#utility.yul\":5929:6295   */\n    tag_176:\n        /* \"#utility.yul\":6071:6074   */\n      0x00\n        /* \"#utility.yul\":6092:6159   */\n      tag_255\n        /* \"#utility.yul\":6156:6158   */\n      0x15\n        /* \"#utility.yul\":6151:6154   */\n      dup4\n        /* \"#utility.yul\":6092:6159   */\n      tag_168\n      jump\t// in\n    tag_255:\n        /* \"#utility.yul\":6085:6159   */\n      swap2\n      pop\n        /* \"#utility.yul\":6168:6261   */\n      tag_256\n        /* \"#utility.yul\":6257:6260   */\n      dup3\n        /* \"#utility.yul\":6168:6261   */\n      tag_175\n      jump\t// in\n    tag_256:\n        /* \"#utility.yul\":6286:6288   */\n      0x20\n        /* \"#utility.yul\":6281:6284   */\n      dup3\n        /* \"#utility.yul\":6277:6289   */\n      add\n        /* \"#utility.yul\":6270:6289   */\n      swap1\n      pop\n        /* \"#utility.yul\":5929:6295   */\n      swap2\n      swap1\n      pop\n      jump\t// out\n        /* \"#utility.yul\":6301:6720   */\n    tag_59:\n        /* \"#utility.yul\":6467:6471   */\n      0x00\n        /* \"#utility.yul\":6505:6507   */\n      0x20\n        /* \"#utility.yul\":6494:6503   */\n      dup3\n        /* \"#utility.yul\":6490:6508   */\n      add\n        /* \"#utility.yul\":6482:6508   */\n      swap1\n      pop\n        /* \"#utility.yul\":6554:6563   */\n      dup2\n        /* \"#utility.yul\":6548:6552   */\n      dup2\n        /* \"#utility.yul\":6544:6564   */\n      sub\n        /* \"#utility.yul\":6540:6541   */\n      0x00\n        /* \"#utility.yul\":6529:6538   */\n      dup4\n        /* \"#utility.yul\":6525:6542   */\n      add\n        /* \"#utility.yul\":6518:6565   */\n      mstore\n        /* \"#utility.yul\":6582:6713   */\n      tag_258\n        /* \"#utility.yul\":6708:6712   */\n      dup2\n        /* \"#utility.yul\":6582:6713   */\n      tag_176\n      jump\t// in\n    tag_258:\n        /* \"#utility.yul\":6574:6713   */\n      swap1\n      pop\n        /* \"#utility.yul\":6301:6720   */\n      swap2\n      swap1\n      pop\n      jump\t// out\n        /* \"#utility.yul\":6726:7168   */\n    tag_61:\n        /* \"#utility.yul\":6875:6879   */\n      0x00\n        /* \"#utility.yul\":6913:6915   */\n      0x60\n        /* \"#utility.yul\":6902:6911   */\n      dup3\n        /* \"#utility.yul\":6898:6916   */\n      add\n        /* \"#utility.yul\":6890:6916   */\n      swap1\n      pop\n        /* \"#utility.yul\":6926:6997   */\n      tag_260\n        /* \"#utility.yul\":6994:6995   */\n      0x00\n        /* \"#utility.yul\":6983:6992   */\n      dup4\n        /* \"#utility.yul\":6979:6996   */\n      add\n        /* \"#utility.yul\":6970:6976   */\n      dup7\n        /* \"#utility.yul\":6926:6997   */\n      tag_167\n      jump\t// in\n    tag_260:\n        /* \"#utility.yul\":7007:7079   */\n      tag_261\n        /* \"#utility.yul\":7075:7077   */\n      0x20\n        /* \"#utility.yul\":7064:7073   */\n      dup4\n        /* \"#utility.yul\":7060:7078   */\n      add\n        /* \"#utility.yul\":7051:7057   */\n      dup6\n        /* \"#utility.yul\":7007:7079   */\n      tag_167\n      jump\t// in\n    tag_261:\n        /* \"#utility.yul\":7089:7161   */\n      tag_262\n        /* \"#utility.yul\":7157:7159   */\n      0x40\n        /* \"#utility.yul\":7146:7155   */\n      dup4\n        /* \"#utility.yul\":7142:7160   */\n      add\n        /* \"#utility.yul\":7133:7139   */\n      dup5\n        /* \"#utility.yul\":7089:7161   */\n      tag_162\n      jump\t// in\n    tag_262:\n        /* \"#utility.yul\":6726:7168   */\n      swap5\n      swap4\n      pop\n      pop\n      pop\n      pop\n      jump\t// out\n        /* \"#utility.yul\":7174:7321   */\n    tag_177:\n        /* \"#utility.yul\":7275:7286   */\n      0x00\n        /* \"#utility.yul\":7312:7315   */\n      dup2\n        /* \"#utility.yul\":7297:7315   */\n      swap1\n      pop\n        /* \"#utility.yul\":7174:7321   */\n      swap3\n      swap2\n      pop\n      pop\n      jump\t// out\n        /* \"#utility.yul\":7327:7441   */\n    tag_178:\n      pop\n      jump\t// out\n        /* \"#utility.yul\":7447:7845   */\n    tag_179:\n        /* \"#utility.yul\":7606:7609   */\n      0x00\n        /* \"#utility.yul\":7627:7710   */\n      tag_266\n        /* \"#utility.yul\":7708:7709   */\n      0x00\n        /* \"#utility.yul\":7703:7706   */\n      dup4\n        /* \"#utility.yul\":7627:7710   */\n      tag_177\n      jump\t// in\n    tag_266:\n        /* \"#utility.yul\":7620:7710   */\n      swap2\n      pop\n        /* \"#utility.yul\":7719:7812   */\n      tag_267\n        /* \"#utility.yul\":7808:7811   */\n      dup3\n        /* \"#utility.yul\":7719:7812   */\n      tag_178\n      jump\t// in\n    tag_267:\n        /* \"#utility.yul\":7837:7838   */\n      0x00\n        /* \"#utility.yul\":7832:7835   */\n      dup3\n        /* \"#utility.yul\":7828:7839   */\n      add\n        /* \"#utility.yul\":7821:7839   */\n      swap1\n      pop\n        /* \"#utility.yul\":7447:7845   */\n      swap2\n      swap1\n      pop\n      jump\t// out\n        /* \"#utility.yul\":7851:8230   */\n    tag_66:\n        /* \"#utility.yul\":8035:8038   */\n      0x00\n        /* \"#utility.yul\":8057:8204   */\n      tag_269\n        /* \"#utility.yul\":8200:8203   */\n      dup3\n        /* \"#utility.yul\":8057:8204   */\n      tag_179\n      jump\t// in\n    tag_269:\n        /* \"#utility.yul\":8050:8204   */\n      swap2\n      pop\n        /* \"#utility.yul\":8221:8224   */\n      dup2\n        /* \"#utility.yul\":8214:8224   */\n      swap1\n      pop\n        /* \"#utility.yul\":7851:8230   */\n      swap2\n      swap1\n      pop\n      jump\t// out\n        /* \"#utility.yul\":8236:8401   */\n    tag_180:\n        /* \"#utility.yul\":8376:8393   */\n      0x5472616e73666572204661696c65640000000000000000000000000000000000\n        /* \"#utility.yul\":8372:8373   */\n      0x00\n        /* \"#utility.yul\":8364:8370   */\n      dup3\n        /* \"#utility.yul\":8360:8374   */\n      add\n        /* \"#utility.yul\":8353:8394   */\n      mstore\n        /* \"#utility.yul\":8236:8401   */\n      pop\n      jump\t// out\n        /* \"#utility.yul\":8407:8773   */\n    tag_181:\n        /* \"#utility.yul\":8549:8552   */\n      0x00\n        /* \"#utility.yul\":8570:8637   */\n      tag_272\n        /* \"#utility.yul\":8634:8636   */\n      0x0f\n        /* \"#utility.yul\":8629:8632   */\n      dup4\n        /* \"#utility.yul\":8570:8637   */\n      tag_168\n      jump\t// in\n    tag_272:\n        /* \"#utility.yul\":8563:8637   */\n      swap2\n      pop\n        /* \"#utility.yul\":8646:8739   */\n      tag_273\n        /* \"#utility.yul\":8735:8738   */\n      dup3\n        /* \"#utility.yul\":8646:8739   */\n      tag_180\n      jump\t// in\n    tag_273:\n        /* \"#utility.yul\":8764:8766   */\n      0x20\n        /* \"#utility.yul\":8759:8762   */\n      dup3\n        /* \"#utility.yul\":8755:8767   */\n      add\n        /* \"#utility.yul\":8748:8767   */\n      swap1\n      pop\n        /* \"#utility.yul\":8407:8773   */\n      swap2\n      swap1\n      pop\n      jump\t// out\n        /* \"#utility.yul\":8779:9198   */\n    tag_72:\n        /* \"#utility.yul\":8945:8949   */\n      0x00\n        /* \"#utility.yul\":8983:8985   */\n      0x20\n        /* \"#utility.yul\":8972:8981   */\n      dup3\n        /* \"#utility.yul\":8968:8986   */\n      add\n        /* \"#utility.yul\":8960:8986   */\n      swap1\n      pop\n        /* \"#utility.yul\":9032:9041   */\n      dup2\n        /* \"#utility.yul\":9026:9030   */\n      dup2\n        /* \"#utility.yul\":9022:9042   */\n      sub\n        /* \"#utility.yul\":9018:9019   */\n      0x00\n        /* \"#utility.yul\":9007:9016   */\n      dup4\n        /* \"#utility.yul\":9003:9020   */\n      add\n        /* \"#utility.yul\":8996:9043   */\n      mstore\n        /* \"#utility.yul\":9060:9191   */\n      tag_275\n        /* \"#utility.yul\":9186:9190   */\n      dup2\n        /* \"#utility.yul\":9060:9191   */\n      tag_181\n      jump\t// in\n    tag_275:\n        /* \"#utility.yul\":9052:9191   */\n      swap1\n      pop\n        /* \"#utility.yul\":8779:9198   */\n      swap2\n      swap1\n      pop\n      jump\t// out\n        /* \"#utility.yul\":9204:9384   */\n    tag_182:\n        /* \"#utility.yul\":9252:9329   */\n      0x4e487b7100000000000000000000000000000000000000000000000000000000\n        /* \"#utility.yul\":9249:9250   */\n      0x00\n        /* \"#utility.yul\":9242:9330   */\n      mstore\n        /* \"#utility.yul\":9349:9353   */\n      0x11\n        /* \"#utility.yul\":9346:9347   */\n      0x04\n        /* \"#utility.yul\":9339:9354   */\n      mstore\n        /* \"#utility.yul\":9373:9377   */\n      0x24\n        /* \"#utility.yul\":9370:9371   */\n      0x00\n        /* \"#utility.yul\":9363:9378   */\n      revert\n        /* \"#utility.yul\":9390:9800   */\n    tag_89:\n        /* \"#utility.yul\":9430:9437   */\n      0x00\n        /* \"#utility.yul\":9453:9473   */\n      tag_278\n        /* \"#utility.yul\":9471:9472   */\n      dup3\n        /* \"#utility.yul\":9453:9473   */\n      tag_159\n      jump\t// in\n    tag_278:\n        /* \"#utility.yul\":9448:9473   */\n      swap2\n      pop\n        /* \"#utility.yul\":9487:9507   */\n      tag_279\n        /* \"#utility.yul\":9505:9506   */\n      dup4\n        /* \"#utility.yul\":9487:9507   */\n      tag_159\n      jump\t// in\n    tag_279:\n        /* \"#utility.yul\":9482:9507   */\n      swap3\n      pop\n        /* \"#utility.yul\":9542:9543   */\n      dup3\n        /* \"#utility.yul\":9539:9540   */\n      dup3\n        /* \"#utility.yul\":9535:9544   */\n      mul\n        /* \"#utility.yul\":9564:9594   */\n      tag_280\n        /* \"#utility.yul\":9582:9593   */\n      dup2\n        /* \"#utility.yul\":9564:9594   */\n      tag_159\n      jump\t// in\n    tag_280:\n        /* \"#utility.yul\":9553:9594   */\n      swap2\n      pop\n        /* \"#utility.yul\":9743:9744   */\n      dup3\n        /* \"#utility.yul\":9734:9741   */\n      dup3\n        /* \"#utility.yul\":9730:9745   */\n      div\n        /* \"#utility.yul\":9727:9728   */\n      dup5\n        /* \"#utility.yul\":9724:9746   */\n      eq\n        /* \"#utility.yul\":9704:9705   */\n      dup4\n        /* \"#utility.yul\":9697:9706   */\n      iszero\n        /* \"#utility.yul\":9677:9760   */\n      or\n        /* \"#utility.yul\":9654:9793   */\n      tag_281\n      jumpi\n        /* \"#utility.yul\":9773:9791   */\n      tag_282\n      tag_182\n      jump\t// in\n    tag_282:\n        /* \"#utility.yul\":9654:9793   */\n    tag_281:\n        /* \"#utility.yul\":9438:9800   */\n      pop\n        /* \"#utility.yul\":9390:9800   */\n      swap3\n      swap2\n      pop\n      pop\n      jump\t// out\n        /* \"#utility.yul\":9806:9986   */\n    tag_136:\n        /* \"#utility.yul\":9854:9931   */\n      0x4e487b7100000000000000000000000000000000000000000000000000000000\n        /* \"#utility.yul\":9851:9852   */\n      0x00\n        /* \"#utility.yul\":9844:9932   */\n      mstore\n        /* \"#utility.yul\":9951:9955   */\n      0x12\n        /* \"#utility.yul\":9948:9949   */\n      0x04\n        /* \"#utility.yul\":9941:9956   */\n      mstore\n        /* \"#utility.yul\":9975:9979   */\n      0x24\n        /* \"#utility.yul\":9972:9973   */\n      0x00\n        /* \"#utility.yul\":9965:9980   */\n      revert\n        /* \"#utility.yul\":9992:10177   */\n    tag_92:\n        /* \"#utility.yul\":10032:10033   */\n      0x00\n        /* \"#utility.yul\":10049:10069   */\n      tag_285\n        /* \"#utility.yul\":10067:10068   */\n      dup3\n        /* \"#utility.yul\":10049:10069   */\n      tag_159\n      jump\t// in\n    tag_285:\n        /* \"#utility.yul\":10044:10069   */\n      swap2\n      pop\n        /* \"#utility.yul\":10083:10103   */\n      tag_286\n        /* \"#utility.yul\":10101:10102   */\n      dup4\n        /* \"#utility.yul\":10083:10103   */\n      tag_159\n      jump\t// in\n    tag_286:\n        /* \"#utility.yul\":10078:10103   */\n      swap3\n      pop\n        /* \"#utility.yul\":10122:10123   */\n      dup3\n        /* \"#utility.yul\":10112:10147   */\n      tag_287\n      jumpi\n        /* \"#utility.yul\":10127:10145   */\n      tag_288\n      tag_136\n      jump\t// in\n    tag_288:\n        /* \"#utility.yul\":10112:10147   */\n    tag_287:\n        /* \"#utility.yul\":10169:10170   */\n      dup3\n        /* \"#utility.yul\":10166:10167   */\n      dup3\n        /* \"#utility.yul\":10162:10171   */\n      div\n        /* \"#utility.yul\":10157:10171   */\n      swap1\n      pop\n        /* \"#utility.yul\":9992:10177   */\n      swap3\n      swap2\n      pop\n      pop\n      jump\t// out\n        /* \"#utility.yul\":10183:10357   */\n    tag_183:\n        /* \"#utility.yul\":10323:10349   */\n      0x496e76616c696420616d6f756e74206f66207368617265730000000000000000\n        /* \"#utility.yul\":10319:10320   */\n      0x00\n        /* \"#utility.yul\":10311:10317   */\n      dup3\n        /* \"#utility.yul\":10307:10321   */\n      add\n        /* \"#utility.yul\":10300:10350   */\n      mstore\n        /* \"#utility.yul\":10183:10357   */\n      pop\n      jump\t// out\n        /* \"#utility.yul\":10363:10729   */\n    tag_184:\n        /* \"#utility.yul\":10505:10508   */\n      0x00\n        /* \"#utility.yul\":10526:10593   */\n      tag_291\n        /* \"#utility.yul\":10590:10592   */\n      0x18\n        /* \"#utility.yul\":10585:10588   */\n      dup4\n        /* \"#utility.yul\":10526:10593   */\n      tag_168\n      jump\t// in\n    tag_291:\n        /* \"#utility.yul\":10519:10593   */\n      swap2\n      pop\n        /* \"#utility.yul\":10602:10695   */\n      tag_292\n        /* \"#utility.yul\":10691:10694   */\n      dup3\n        /* \"#utility.yul\":10602:10695   */\n      tag_183\n      jump\t// in\n    tag_292:\n        /* \"#utility.yul\":10720:10722   */\n      0x20\n        /* \"#utility.yul\":10715:10718   */\n      dup3\n        /* \"#utility.yul\":10711:10723   */\n      add\n        /* \"#utility.yul\":10704:10723   */\n      swap1\n      pop\n        /* \"#utility.yul\":10363:10729   */\n      swap2\n      swap1\n      pop\n      jump\t// out\n        /* \"#utility.yul\":10735:11154   */\n    tag_102:\n        /* \"#utility.yul\":10901:10905   */\n      0x00\n        /* \"#utility.yul\":10939:10941   */\n      0x20\n        /* \"#utility.yul\":10928:10937   */\n      dup3\n        /* \"#utility.yul\":10924:10942   */\n      add\n        /* \"#utility.yul\":10916:10942   */\n      swap1\n      pop\n        /* \"#utility.yul\":10988:10997   */\n      dup2\n        /* \"#utility.yul\":10982:10986   */\n      dup2\n        /* \"#utility.yul\":10978:10998   */\n      sub\n        /* \"#utility.yul\":10974:10975   */\n      0x00\n        /* \"#utility.yul\":10963:10972   */\n      dup4\n        /* \"#utility.yul\":10959:10976   */\n      add\n        /* \"#utility.yul\":10952:10999   */\n      mstore\n        /* \"#utility.yul\":11016:11147   */\n      tag_294\n        /* \"#utility.yul\":11142:11146   */\n      dup2\n        /* \"#utility.yul\":11016:11147   */\n      tag_184\n      jump\t// in\n    tag_294:\n        /* \"#utility.yul\":11008:11147   */\n      swap1\n      pop\n        /* \"#utility.yul\":10735:11154   */\n      swap2\n      swap1\n      pop\n      jump\t// out\n        /* \"#utility.yul\":11160:11449   */\n    tag_185:\n        /* \"#utility.yul\":11300:11334   */\n      0x506c6561736520617070726f76652074686520636f6e747261637420746f2064\n        /* \"#utility.yul\":11296:11297   */\n      0x00\n        /* \"#utility.yul\":11288:11294   */\n      dup3\n        /* \"#utility.yul\":11284:11298   */\n      add\n        /* \"#utility.yul\":11277:11335   */\n      mstore\n        /* \"#utility.yul\":11369:11403   */\n      0x6564756374206c747220746f6b656e732066726f6d20796f75722077616c6c65\n        /* \"#utility.yul\":11364:11366   */\n      0x20\n        /* \"#utility.yul\":11356:11362   */\n      dup3\n        /* \"#utility.yul\":11352:11367   */\n      add\n        /* \"#utility.yul\":11345:11404   */\n      mstore\n        /* \"#utility.yul\":11438:11441   */\n      0x7400000000000000000000000000000000000000000000000000000000000000\n        /* \"#utility.yul\":11433:11435   */\n      0x40\n        /* \"#utility.yul\":11425:11431   */\n      dup3\n        /* \"#utility.yul\":11421:11436   */\n      add\n        /* \"#utility.yul\":11414:11442   */\n      mstore\n        /* \"#utility.yul\":11160:11449   */\n      pop\n      jump\t// out\n        /* \"#utility.yul\":11455:11821   */\n    tag_186:\n        /* \"#utility.yul\":11597:11600   */\n      0x00\n        /* \"#utility.yul\":11618:11685   */\n      tag_297\n        /* \"#utility.yul\":11682:11684   */\n      0x41\n        /* \"#utility.yul\":11677:11680   */\n      dup4\n        /* \"#utility.yul\":11618:11685   */\n      tag_168\n      jump\t// in\n    tag_297:\n        /* \"#utility.yul\":11611:11685   */\n      swap2\n      pop\n        /* \"#utility.yul\":11694:11787   */\n      tag_298\n        /* \"#utility.yul\":11783:11786   */\n      dup3\n        /* \"#utility.yul\":11694:11787   */\n      tag_185\n      jump\t// in\n    tag_298:\n        /* \"#utility.yul\":11812:11814   */\n      0x60\n        /* \"#utility.yul\":11807:11810   */\n      dup3\n        /* \"#utility.yul\":11803:11815   */\n      add\n        /* \"#utility.yul\":11796:11815   */\n      swap1\n      pop\n        /* \"#utility.yul\":11455:11821   */\n      swap2\n      swap1\n      pop\n      jump\t// out\n        /* \"#utility.yul\":11827:12246   */\n    tag_109:\n        /* \"#utility.yul\":11993:11997   */\n      0x00\n        /* \"#utility.yul\":12031:12033   */\n      0x20\n        /* \"#utility.yul\":12020:12029   */\n      dup3\n        /* \"#utility.yul\":12016:12034   */\n      add\n        /* \"#utility.yul\":12008:12034   */\n      swap1\n      pop\n        /* \"#utility.yul\":12080:12089   */\n      dup2\n        /* \"#utility.yul\":12074:12078   */\n      dup2\n        /* \"#utility.yul\":12070:12090   */\n      sub\n        /* \"#utility.yul\":12066:12067   */\n      0x00\n        /* \"#utility.yul\":12055:12064   */\n      dup4\n        /* \"#utility.yul\":12051:12068   */\n      add\n        /* \"#utility.yul\":12044:12091   */\n      mstore\n        /* \"#utility.yul\":12108:12239   */\n      tag_300\n        /* \"#utility.yul\":12234:12238   */\n      dup2\n        /* \"#utility.yul\":12108:12239   */\n      tag_186\n      jump\t// in\n    tag_300:\n        /* \"#utility.yul\":12100:12239   */\n      swap1\n      pop\n        /* \"#utility.yul\":11827:12246   */\n      swap2\n      swap1\n      pop\n      jump\t// out\n        /* \"#utility.yul\":12252:12417   */\n    tag_187:\n        /* \"#utility.yul\":12392:12409   */\n      0x5472616e73666572206661696c65640000000000000000000000000000000000\n        /* \"#utility.yul\":12388:12389   */\n      0x00\n        /* \"#utility.yul\":12380:12386   */\n      dup3\n        /* \"#utility.yul\":12376:12390   */\n      add\n        /* \"#utility.yul\":12369:12410   */\n      mstore\n        /* \"#utility.yul\":12252:12417   */\n      pop\n      jump\t// out\n        /* \"#utility.yul\":12423:12789   */\n    tag_188:\n        /* \"#utility.yul\":12565:12568   */\n      0x00\n        /* \"#utility.yul\":12586:12653   */\n      tag_303\n        /* \"#utility.yul\":12650:12652   */\n      0x0f\n        /* \"#utility.yul\":12645:12648   */\n      dup4\n        /* \"#utility.yul\":12586:12653   */\n      tag_168\n      jump\t// in\n    tag_303:\n        /* \"#utility.yul\":12579:12653   */\n      swap2\n      pop\n        /* \"#utility.yul\":12662:12755   */\n      tag_304\n        /* \"#utility.yul\":12751:12754   */\n      dup3\n        /* \"#utility.yul\":12662:12755   */\n      tag_187\n      jump\t// in\n    tag_304:\n        /* \"#utility.yul\":12780:12782   */\n      0x20\n        /* \"#utility.yul\":12775:12778   */\n      dup3\n        /* \"#utility.yul\":12771:12783   */\n      add\n        /* \"#utility.yul\":12764:12783   */\n      swap1\n      pop\n        /* \"#utility.yul\":12423:12789   */\n      swap2\n      swap1\n      pop\n      jump\t// out\n        /* \"#utility.yul\":12795:13214   */\n    tag_124:\n        /* \"#utility.yul\":12961:12965   */\n      0x00\n        /* \"#utility.yul\":12999:13001   */\n      0x20\n        /* \"#utility.yul\":12988:12997   */\n      dup3\n        /* \"#utility.yul\":12984:13002   */\n      add\n        /* \"#utility.yul\":12976:13002   */\n      swap1\n      pop\n        /* \"#utility.yul\":13048:13057   */\n      dup2\n        /* \"#utility.yul\":13042:13046   */\n      dup2\n        /* \"#utility.yul\":13038:13058   */\n      sub\n        /* \"#utility.yul\":13034:13035   */\n      0x00\n        /* \"#utility.yul\":13023:13032   */\n      dup4\n        /* \"#utility.yul\":13019:13036   */\n      add\n        /* \"#utility.yul\":13012:13059   */\n      mstore\n        /* \"#utility.yul\":13076:13207   */\n      tag_306\n        /* \"#utility.yul\":13202:13206   */\n      dup2\n        /* \"#utility.yul\":13076:13207   */\n      tag_188\n      jump\t// in\n    tag_306:\n        /* \"#utility.yul\":13068:13207   */\n      swap1\n      pop\n        /* \"#utility.yul\":12795:13214   */\n      swap2\n      swap1\n      pop\n      jump\t// out\n\n    auxdata: 0xa26469706673582212201d1d22067405ca671b0937af208797f271ddc3727bdd349cc091b381597b13c364736f6c63430008110033\n}\n",
				"bytecode": {
					"linkReferences": {},
					"object": "60806040523480156200001157600080fd5b5060405162001440380380620014408339818101604052810190620000379190620000e8565b806000806101000a81548173ffffffffffffffffffffffffffffffffffffffff021916908373ffffffffffffffffffffffffffffffffffffffff160217905550506200011a565b600080fd5b600073ffffffffffffffffffffffffffffffffffffffff82169050919050565b6000620000b08262000083565b9050919050565b620000c281620000a3565b8114620000ce57600080fd5b50565b600081519050620000e281620000b7565b92915050565b6000602082840312156200010157620001006200007e565b5b60006200011184828501620000d1565b91505092915050565b611316806200012a6000396000f3fe6080604052600436106100705760003560e01c8063bec3fa171161004e578063bec3fa17146100e5578063eb521a4c1461010e578063f4325d671461012a578063ff9b37581461015557610070565b80631aa5c70e146100755780637464fc3d146100915780638e3073a6146100bc575b600080fd5b61008f600480360381019061008a9190610c95565b61017e565b005b34801561009d57600080fd5b506100a6610262565b6040516100b39190610cd1565b60405180910390f35b3480156100c857600080fd5b506100e360048036038101906100de9190610c95565b610268565b005b3480156100f157600080fd5b5061010c60048036038101906101079190610d4a565b610497565b005b61012860048036038101906101239190610c95565b61052e565b005b34801561013657600080fd5b5061013f610777565b60405161014c9190610d99565b60405180910390f35b34801561016157600080fd5b5061017c60048036038101906101779190610c95565b61079b565b005b8034146101c0576040517f08c379a00000000000000000000000000000000000000000000000000000000081526004016101b790610e11565b60405180910390fd5b60008054906101000a900473ffffffffffffffffffffffffffffffffffffffff1673ffffffffffffffffffffffffffffffffffffffff1663a9059cbb33836040518363ffffffff1660e01b815260040161021b929190610e31565b6020604051808303816000875af115801561023a573d6000803e3d6000fd5b505050506040513d601f19601f8201168201806040525081019061025e9190610e92565b5050565b60015481565b8060008054906101000a900473ffffffffffffffffffffffffffffffffffffffff1673ffffffffffffffffffffffffffffffffffffffff1663dd62ed3e33306040518363ffffffff1660e01b81526004016102c4929190610ebf565b602060405180830381865afa1580156102e1573d6000803e3d6000fd5b505050506040513d601f19601f820116820180604052508101906103059190610efd565b1015610346576040517f08c379a000000000000000000000000000000000000000000000000000000000815260040161033d90610f76565b60405180910390fd5b60008054906101000a900473ffffffffffffffffffffffffffffffffffffffff1673ffffffffffffffffffffffffffffffffffffffff166323b872dd3330846040518463ffffffff1660e01b81526004016103a393929190610f96565b6020604051808303816000875af11580156103c2573d6000803e3d6000fd5b505050506040513d601f19601f820116820180604052508101906103e69190610e92565b5060003373ffffffffffffffffffffffffffffffffffffffff168260405161040d90610ffe565b60006040518083038185875af1925050503d806000811461044a576040519150601f19603f3d011682016040523d82523d6000602084013e61044f565b606091505b5050905080610493576040517f08c379a000000000000000000000000000000000000000000000000000000000815260040161048a9061105f565b60405180910390fd5b5050565b7339db207dff3411f4fab0483d419306873cbc13d973ffffffffffffffffffffffffffffffffffffffff1663a9059cbb83836040518363ffffffff1660e01b81526004016104e6929190610e31565b6020604051808303816000875af1158015610505573d6000803e3d6000fd5b505050506040513d601f19601f820116820180604052508101906105299190610e92565b505050565b60008054906101000a900473ffffffffffffffffffffffffffffffffffffffff1673ffffffffffffffffffffffffffffffffffffffff166323b872dd3330846040518463ffffffff1660e01b815260040161058b93929190610f96565b6020604051808303816000875af11580156105aa573d6000803e3d6000fd5b505050506040513d601f19601f820116820180604052508101906105ce9190610e92565b506000600154036106855760008054906101000a900473ffffffffffffffffffffffffffffffffffffffff1673ffffffffffffffffffffffffffffffffffffffff166370a08231306040518263ffffffff1660e01b81526004016106329190610d99565b602060405180830381865afa15801561064f573d6000803e3d6000fd5b505050506040513d601f19601f820116820180604052508101906106739190610efd565b4761067e91906110ae565b6001819055505b60006106a5670de0b6b3a76400006001546106a0919061111f565b610a94565b90507339db207dff3411f4fab0483d419306873cbc13d973ffffffffffffffffffffffffffffffffffffffff1663a9059cbb33836040518363ffffffff1660e01b81526004016106f6929190610e31565b6020604051808303816000875af1158015610715573d6000803e3d6000fd5b505050506040513d601f19601f820116820180604052508101906107399190610e92565b507fb62268a18d99fe191ac8e62f823ab1eec698609a81b2c8de3dac902896b09da6338360405161076b929190610e31565b60405180910390a15050565b60008054906101000a900473ffffffffffffffffffffffffffffffffffffffff1681565b600081116107de576040517f08c379a00000000000000000000000000000000000000000000000000000000081526004016107d59061119c565b60405180910390fd5b807339db207dff3411f4fab0483d419306873cbc13d973ffffffffffffffffffffffffffffffffffffffff1663dd62ed3e33306040518363ffffffff1660e01b815260040161082e929190610ebf565b602060405180830381865afa15801561084b573d6000803e3d6000fd5b505050506040513d601f19601f8201168201806040525081019061086f9190610efd565b10156108b0576040517f08c379a00000000000000000000000000000000000000000000000000000000081526004016108a790611254565b60405180910390fd5b7339db207dff3411f4fab0483d419306873cbc13d973ffffffffffffffffffffffffffffffffffffffff166323b872dd3330846040518463ffffffff1660e01b815260040161090193929190610f96565b6020604051808303816000875af1158015610920573d6000803e3d6000fd5b505050506040513d601f19601f820116820180604052508101906109449190610e92565b5060008054906101000a900473ffffffffffffffffffffffffffffffffffffffff1673ffffffffffffffffffffffffffffffffffffffff1663a9059cbb33836040518363ffffffff1660e01b81526004016109a0929190610e31565b6020604051808303816000875af11580156109bf573d6000803e3d6000fd5b505050506040513d601f19601f820116820180604052508101906109e39190610e92565b5060003373ffffffffffffffffffffffffffffffffffffffff1682604051610a0a90610ffe565b60006040518083038185875af1925050503d8060008114610a47576040519150601f19603f3d011682016040523d82523d6000602084013e610a4c565b606091505b5050905080610a90576040517f08c379a0000000000000000000000000000000000000000000000000000000008152600401610a87906112c0565b60405180910390fd5b5050565b6000808203610aa65760009050610c3c565b60006001905060008390506000608082901c1115610acd57608081901c9050604082901b91505b6000604082901c1115610ae957604081901c9050602082901b91505b6000602082901c1115610b0557602081901c9050601082901b91505b6000601082901c1115610b2157601081901c9050600882901b91505b6000600882901c1115610b3d57600881901c9050600482901b91505b6000600482901c1115610b5957600481901c9050600282901b91505b6000600282901c1115610b6e57600182901b91505b6001828581610b8057610b7f6110f0565b5b048301901c91506001828581610b9957610b986110f0565b5b048301901c91506001828581610bb257610bb16110f0565b5b048301901c91506001828581610bcb57610bca6110f0565b5b048301901c91506001828581610be457610be36110f0565b5b048301901c91506001828581610bfd57610bfc6110f0565b5b048301901c91506001828581610c1657610c156110f0565b5b048301901c9150610c3782838681610c3157610c306110f0565b5b04610c41565b925050505b919050565b6000818310610c505781610c52565b825b905092915050565b600080fd5b6000819050919050565b610c7281610c5f565b8114610c7d57600080fd5b50565b600081359050610c8f81610c69565b92915050565b600060208284031215610cab57610caa610c5a565b5b6000610cb984828501610c80565b91505092915050565b610ccb81610c5f565b82525050565b6000602082019050610ce66000830184610cc2565b92915050565b600073ffffffffffffffffffffffffffffffffffffffff82169050919050565b6000610d1782610cec565b9050919050565b610d2781610d0c565b8114610d3257600080fd5b50565b600081359050610d4481610d1e565b92915050565b60008060408385031215610d6157610d60610c5a565b5b6000610d6f85828601610d35565b9250506020610d8085828601610c80565b9150509250929050565b610d9381610d0c565b82525050565b6000602082019050610dae6000830184610d8a565b92915050565b600082825260208201905092915050565b7f496e76616c696420616d6f756e74000000000000000000000000000000000000600082015250565b6000610dfb600e83610db4565b9150610e0682610dc5565b602082019050919050565b60006020820190508181036000830152610e2a81610dee565b9050919050565b6000604082019050610e466000830185610d8a565b610e536020830184610cc2565b9392505050565b60008115159050919050565b610e6f81610e5a565b8114610e7a57600080fd5b50565b600081519050610e8c81610e66565b92915050565b600060208284031215610ea857610ea7610c5a565b5b6000610eb684828501610e7d565b91505092915050565b6000604082019050610ed46000830185610d8a565b610ee16020830184610d8a565b9392505050565b600081519050610ef781610c69565b92915050565b600060208284031215610f1357610f12610c5a565b5b6000610f2184828501610ee8565b91505092915050565b7f436f6e7472616374206e6f7420617070726f7665640000000000000000000000600082015250565b6000610f60601583610db4565b9150610f6b82610f2a565b602082019050919050565b60006020820190508181036000830152610f8f81610f53565b9050919050565b6000606082019050610fab6000830186610d8a565b610fb86020830185610d8a565b610fc56040830184610cc2565b949350505050565b600081905092915050565b50565b6000610fe8600083610fcd565b9150610ff382610fd8565b600082019050919050565b600061100982610fdb565b9150819050919050565b7f5472616e73666572204661696c65640000000000000000000000000000000000600082015250565b6000611049600f83610db4565b915061105482611013565b602082019050919050565b600060208201905081810360008301526110788161103c565b9050919050565b7f4e487b7100000000000000000000000000000000000000000000000000000000600052601160045260246000fd5b60006110b982610c5f565b91506110c483610c5f565b92508282026110d281610c5f565b915082820484148315176110e9576110e861107f565b5b5092915050565b7f4e487b7100000000000000000000000000000000000000000000000000000000600052601260045260246000fd5b600061112a82610c5f565b915061113583610c5f565b925082611145576111446110f0565b5b828204905092915050565b7f496e76616c696420616d6f756e74206f66207368617265730000000000000000600082015250565b6000611186601883610db4565b915061119182611150565b602082019050919050565b600060208201905081810360008301526111b581611179565b9050919050565b7f506c6561736520617070726f76652074686520636f6e747261637420746f206460008201527f6564756374206c747220746f6b656e732066726f6d20796f75722077616c6c6560208201527f7400000000000000000000000000000000000000000000000000000000000000604082015250565b600061123e604183610db4565b9150611249826111bc565b606082019050919050565b6000602082019050818103600083015261126d81611231565b9050919050565b7f5472616e73666572206661696c65640000000000000000000000000000000000600082015250565b60006112aa600f83610db4565b91506112b582611274565b602082019050919050565b600060208201905081810360008301526112d98161129d565b905091905056fea26469706673582212201d1d22067405ca671b0937af208797f271ddc3727bdd349cc091b381597b13c364736f6c63430008110033",
					"opcodes": "PUSH1 0x80 PUSH1 0x40 MSTORE CALLVALUE DUP1 ISZERO PUSH3 0x11 JUMPI PUSH1 0x0 DUP1 REVERT JUMPDEST POP PUSH1 0x40 MLOAD PUSH3 0x1440 CODESIZE SUB DUP1 PUSH3 0x1440 DUP4 CODECOPY DUP2 DUP2 ADD PUSH1 0x40 MSTORE DUP2 ADD SWAP1 PUSH3 0x37 SWAP2 SWAP1 PUSH3 0xE8 JUMP JUMPDEST DUP1 PUSH1 0x0 DUP1 PUSH2 0x100 EXP DUP2 SLOAD DUP2 PUSH20 0xFFFFFFFFFFFFFFFFFFFFFFFFFFFFFFFFFFFFFFFF MUL NOT AND SWAP1 DUP4 PUSH20 0xFFFFFFFFFFFFFFFFFFFFFFFFFFFFFFFFFFFFFFFF AND MUL OR SWAP1 SSTORE POP POP PUSH3 0x11A JUMP JUMPDEST PUSH1 0x0 DUP1 REVERT JUMPDEST PUSH1 0x0 PUSH20 0xFFFFFFFFFFFFFFFFFFFFFFFFFFFFFFFFFFFFFFFF DUP3 AND SWAP1 POP SWAP2 SWAP1 POP JUMP JUMPDEST PUSH1 0x0 PUSH3 0xB0 DUP3 PUSH3 0x83 JUMP JUMPDEST SWAP1 POP SWAP2 SWAP1 POP JUMP JUMPDEST PUSH3 0xC2 DUP2 PUSH3 0xA3 JUMP JUMPDEST DUP2 EQ PUSH3 0xCE JUMPI PUSH1 0x0 DUP1 REVERT JUMPDEST POP JUMP JUMPDEST PUSH1 0x0 DUP2 MLOAD SWAP1 POP PUSH3 0xE2 DUP2 PUSH3 0xB7 JUMP JUMPDEST SWAP3 SWAP2 POP POP JUMP JUMPDEST PUSH1 0x0 PUSH1 0x20 DUP3 DUP5 SUB SLT ISZERO PUSH3 0x101 JUMPI PUSH3 0x100 PUSH3 0x7E JUMP JUMPDEST JUMPDEST PUSH1 0x0 PUSH3 0x111 DUP5 DUP3 DUP6 ADD PUSH3 0xD1 JUMP JUMPDEST SWAP2 POP POP SWAP3 SWAP2 POP POP JUMP JUMPDEST PUSH2 0x1316 DUP1 PUSH3 0x12A PUSH1 0x0 CODECOPY PUSH1 0x0 RETURN INVALID PUSH1 0x80 PUSH1 0x40 MSTORE PUSH1 0x4 CALLDATASIZE LT PUSH2 0x70 JUMPI PUSH1 0x0 CALLDATALOAD PUSH1 0xE0 SHR DUP1 PUSH4 0xBEC3FA17 GT PUSH2 0x4E JUMPI DUP1 PUSH4 0xBEC3FA17 EQ PUSH2 0xE5 JUMPI DUP1 PUSH4 0xEB521A4C EQ PUSH2 0x10E JUMPI DUP1 PUSH4 0xF4325D67 EQ PUSH2 0x12A JUMPI DUP1 PUSH4 0xFF9B3758 EQ PUSH2 0x155 JUMPI PUSH2 0x70 JUMP JUMPDEST DUP1 PUSH4 0x1AA5C70E EQ PUSH2 0x75 JUMPI DUP1 PUSH4 0x7464FC3D EQ PUSH2 0x91 JUMPI DUP1 PUSH4 0x8E3073A6 EQ PUSH2 0xBC JUMPI JUMPDEST PUSH1 0x0 DUP1 REVERT JUMPDEST PUSH2 0x8F PUSH1 0x4 DUP1 CALLDATASIZE SUB DUP2 ADD SWAP1 PUSH2 0x8A SWAP2 SWAP1 PUSH2 0xC95 JUMP JUMPDEST PUSH2 0x17E JUMP JUMPDEST STOP JUMPDEST CALLVALUE DUP1 ISZERO PUSH2 0x9D JUMPI PUSH1 0x0 DUP1 REVERT JUMPDEST POP PUSH2 0xA6 PUSH2 0x262 JUMP JUMPDEST PUSH1 0x40 MLOAD PUSH2 0xB3 SWAP2 SWAP1 PUSH2 0xCD1 JUMP JUMPDEST PUSH1 0x40 MLOAD DUP1 SWAP2 SUB SWAP1 RETURN JUMPDEST CALLVALUE DUP1 ISZERO PUSH2 0xC8 JUMPI PUSH1 0x0 DUP1 REVERT JUMPDEST POP PUSH2 0xE3 PUSH1 0x4 DUP1 CALLDATASIZE SUB DUP2 ADD SWAP1 PUSH2 0xDE SWAP2 SWAP1 PUSH2 0xC95 JUMP JUMPDEST PUSH2 0x268 JUMP JUMPDEST STOP JUMPDEST CALLVALUE DUP1 ISZERO PUSH2 0xF1 JUMPI PUSH1 0x0 DUP1 REVERT JUMPDEST POP PUSH2 0x10C PUSH1 0x4 DUP1 CALLDATASIZE SUB DUP2 ADD SWAP1 PUSH2 0x107 SWAP2 SWAP1 PUSH2 0xD4A JUMP JUMPDEST PUSH2 0x497 JUMP JUMPDEST STOP JUMPDEST PUSH2 0x128 PUSH1 0x4 DUP1 CALLDATASIZE SUB DUP2 ADD SWAP1 PUSH2 0x123 SWAP2 SWAP1 PUSH2 0xC95 JUMP JUMPDEST PUSH2 0x52E JUMP JUMPDEST STOP JUMPDEST CALLVALUE DUP1 ISZERO PUSH2 0x136 JUMPI PUSH1 0x0 DUP1 REVERT JUMPDEST POP PUSH2 0x13F PUSH2 0x777 JUMP JUMPDEST PUSH1 0x40 MLOAD PUSH2 0x14C SWAP2 SWAP1 PUSH2 0xD99 JUMP JUMPDEST PUSH1 0x40 MLOAD DUP1 SWAP2 SUB SWAP1 RETURN JUMPDEST CALLVALUE DUP1 ISZERO PUSH2 0x161 JUMPI PUSH1 0x0 DUP1 REVERT JUMPDEST POP PUSH2 0x17C PUSH1 0x4 DUP1 CALLDATASIZE SUB DUP2 ADD SWAP1 PUSH2 0x177 SWAP2 SWAP1 PUSH2 0xC95 JUMP JUMPDEST PUSH2 0x79B JUMP JUMPDEST STOP JUMPDEST DUP1 CALLVALUE EQ PUSH2 0x1C0 JUMPI PUSH1 0x40 MLOAD PUSH32 0x8C379A000000000000000000000000000000000000000000000000000000000 DUP2 MSTORE PUSH1 0x4 ADD PUSH2 0x1B7 SWAP1 PUSH2 0xE11 JUMP JUMPDEST PUSH1 0x40 MLOAD DUP1 SWAP2 SUB SWAP1 REVERT JUMPDEST PUSH1 0x0 DUP1 SLOAD SWAP1 PUSH2 0x100 EXP SWAP1 DIV PUSH20 0xFFFFFFFFFFFFFFFFFFFFFFFFFFFFFFFFFFFFFFFF AND PUSH20 0xFFFFFFFFFFFFFFFFFFFFFFFFFFFFFFFFFFFFFFFF AND PUSH4 0xA9059CBB CALLER DUP4 PUSH1 0x40 MLOAD DUP4 PUSH4 0xFFFFFFFF AND PUSH1 0xE0 SHL DUP2 MSTORE PUSH1 0x4 ADD PUSH2 0x21B SWAP3 SWAP2 SWAP1 PUSH2 0xE31 JUMP JUMPDEST PUSH1 0x20 PUSH1 0x40 MLOAD DUP1 DUP4 SUB DUP2 PUSH1 0x0 DUP8 GAS CALL ISZERO DUP1 ISZERO PUSH2 0x23A JUMPI RETURNDATASIZE PUSH1 0x0 DUP1 RETURNDATACOPY RETURNDATASIZE PUSH1 0x0 REVERT JUMPDEST POP POP POP POP PUSH1 0x40 MLOAD RETURNDATASIZE PUSH1 0x1F NOT PUSH1 0x1F DUP3 ADD AND DUP3 ADD DUP1 PUSH1 0x40 MSTORE POP DUP2 ADD SWAP1 PUSH2 0x25E SWAP2 SWAP1 PUSH2 0xE92 JUMP JUMPDEST POP POP JUMP JUMPDEST PUSH1 0x1 SLOAD DUP2 JUMP JUMPDEST DUP1 PUSH1 0x0 DUP1 SLOAD SWAP1 PUSH2 0x100 EXP SWAP1 DIV PUSH20 0xFFFFFFFFFFFFFFFFFFFFFFFFFFFFFFFFFFFFFFFF AND PUSH20 0xFFFFFFFFFFFFFFFFFFFFFFFFFFFFFFFFFFFFFFFF AND PUSH4 0xDD62ED3E CALLER ADDRESS PUSH1 0x40 MLOAD DUP4 PUSH4 0xFFFFFFFF AND PUSH1 0xE0 SHL DUP2 MSTORE PUSH1 0x4 ADD PUSH2 0x2C4 SWAP3 SWAP2 SWAP1 PUSH2 0xEBF JUMP JUMPDEST PUSH1 0x20 PUSH1 0x40 MLOAD DUP1 DUP4 SUB DUP2 DUP7 GAS STATICCALL ISZERO DUP1 ISZERO PUSH2 0x2E1 JUMPI RETURNDATASIZE PUSH1 0x0 DUP1 RETURNDATACOPY RETURNDATASIZE PUSH1 0x0 REVERT JUMPDEST POP POP POP POP PUSH1 0x40 MLOAD RETURNDATASIZE PUSH1 0x1F NOT PUSH1 0x1F DUP3 ADD AND DUP3 ADD DUP1 PUSH1 0x40 MSTORE POP DUP2 ADD SWAP1 PUSH2 0x305 SWAP2 SWAP1 PUSH2 0xEFD JUMP JUMPDEST LT ISZERO PUSH2 0x346 JUMPI PUSH1 0x40 MLOAD PUSH32 0x8C379A000000000000000000000000000000000000000000000000000000000 DUP2 MSTORE PUSH1 0x4 ADD PUSH2 0x33D SWAP1 PUSH2 0xF76 JUMP JUMPDEST PUSH1 0x40 MLOAD DUP1 SWAP2 SUB SWAP1 REVERT JUMPDEST PUSH1 0x0 DUP1 SLOAD SWAP1 PUSH2 0x100 EXP SWAP1 DIV PUSH20 0xFFFFFFFFFFFFFFFFFFFFFFFFFFFFFFFFFFFFFFFF AND PUSH20 0xFFFFFFFFFFFFFFFFFFFFFFFFFFFFFFFFFFFFFFFF AND PUSH4 0x23B872DD CALLER ADDRESS DUP5 PUSH1 0x40 MLOAD DUP5 PUSH4 0xFFFFFFFF AND PUSH1 0xE0 SHL DUP2 MSTORE PUSH1 0x4 ADD PUSH2 0x3A3 SWAP4 SWAP3 SWAP2 SWAP1 PUSH2 0xF96 JUMP JUMPDEST PUSH1 0x20 PUSH1 0x40 MLOAD DUP1 DUP4 SUB DUP2 PUSH1 0x0 DUP8 GAS CALL ISZERO DUP1 ISZERO PUSH2 0x3C2 JUMPI RETURNDATASIZE PUSH1 0x0 DUP1 RETURNDATACOPY RETURNDATASIZE PUSH1 0x0 REVERT JUMPDEST POP POP POP POP PUSH1 0x40 MLOAD RETURNDATASIZE PUSH1 0x1F NOT PUSH1 0x1F DUP3 ADD AND DUP3 ADD DUP1 PUSH1 0x40 MSTORE POP DUP2 ADD SWAP1 PUSH2 0x3E6 SWAP2 SWAP1 PUSH2 0xE92 JUMP JUMPDEST POP PUSH1 0x0 CALLER PUSH20 0xFFFFFFFFFFFFFFFFFFFFFFFFFFFFFFFFFFFFFFFF AND DUP3 PUSH1 0x40 MLOAD PUSH2 0x40D SWAP1 PUSH2 0xFFE JUMP JUMPDEST PUSH1 0x0 PUSH1 0x40 MLOAD DUP1 DUP4 SUB DUP2 DUP6 DUP8 GAS CALL SWAP3 POP POP POP RETURNDATASIZE DUP1 PUSH1 0x0 DUP2 EQ PUSH2 0x44A JUMPI PUSH1 0x40 MLOAD SWAP2 POP PUSH1 0x1F NOT PUSH1 0x3F RETURNDATASIZE ADD AND DUP3 ADD PUSH1 0x40 MSTORE RETURNDATASIZE DUP3 MSTORE RETURNDATASIZE PUSH1 0x0 PUSH1 0x20 DUP5 ADD RETURNDATACOPY PUSH2 0x44F JUMP JUMPDEST PUSH1 0x60 SWAP2 POP JUMPDEST POP POP SWAP1 POP DUP1 PUSH2 0x493 JUMPI PUSH1 0x40 MLOAD PUSH32 0x8C379A000000000000000000000000000000000000000000000000000000000 DUP2 MSTORE PUSH1 0x4 ADD PUSH2 0x48A SWAP1 PUSH2 0x105F JUMP JUMPDEST PUSH1 0x40 MLOAD DUP1 SWAP2 SUB SWAP1 REVERT JUMPDEST POP POP JUMP JUMPDEST PUSH20 0x39DB207DFF3411F4FAB0483D419306873CBC13D9 PUSH20 0xFFFFFFFFFFFFFFFFFFFFFFFFFFFFFFFFFFFFFFFF AND PUSH4 0xA9059CBB DUP4 DUP4 PUSH1 0x40 MLOAD DUP4 PUSH4 0xFFFFFFFF AND PUSH1 0xE0 SHL DUP2 MSTORE PUSH1 0x4 ADD PUSH2 0x4E6 SWAP3 SWAP2 SWAP1 PUSH2 0xE31 JUMP JUMPDEST PUSH1 0x20 PUSH1 0x40 MLOAD DUP1 DUP4 SUB DUP2 PUSH1 0x0 DUP8 GAS CALL ISZERO DUP1 ISZERO PUSH2 0x505 JUMPI RETURNDATASIZE PUSH1 0x0 DUP1 RETURNDATACOPY RETURNDATASIZE PUSH1 0x0 REVERT JUMPDEST POP POP POP POP PUSH1 0x40 MLOAD RETURNDATASIZE PUSH1 0x1F NOT PUSH1 0x1F DUP3 ADD AND DUP3 ADD DUP1 PUSH1 0x40 MSTORE POP DUP2 ADD SWAP1 PUSH2 0x529 SWAP2 SWAP1 PUSH2 0xE92 JUMP JUMPDEST POP POP POP JUMP JUMPDEST PUSH1 0x0 DUP1 SLOAD SWAP1 PUSH2 0x100 EXP SWAP1 DIV PUSH20 0xFFFFFFFFFFFFFFFFFFFFFFFFFFFFFFFFFFFFFFFF AND PUSH20 0xFFFFFFFFFFFFFFFFFFFFFFFFFFFFFFFFFFFFFFFF AND PUSH4 0x23B872DD CALLER ADDRESS DUP5 PUSH1 0x40 MLOAD DUP5 PUSH4 0xFFFFFFFF AND PUSH1 0xE0 SHL DUP2 MSTORE PUSH1 0x4 ADD PUSH2 0x58B SWAP4 SWAP3 SWAP2 SWAP1 PUSH2 0xF96 JUMP JUMPDEST PUSH1 0x20 PUSH1 0x40 MLOAD DUP1 DUP4 SUB DUP2 PUSH1 0x0 DUP8 GAS CALL ISZERO DUP1 ISZERO PUSH2 0x5AA JUMPI RETURNDATASIZE PUSH1 0x0 DUP1 RETURNDATACOPY RETURNDATASIZE PUSH1 0x0 REVERT JUMPDEST POP POP POP POP PUSH1 0x40 MLOAD RETURNDATASIZE PUSH1 0x1F NOT PUSH1 0x1F DUP3 ADD AND DUP3 ADD DUP1 PUSH1 0x40 MSTORE POP DUP2 ADD SWAP1 PUSH2 0x5CE SWAP2 SWAP1 PUSH2 0xE92 JUMP JUMPDEST POP PUSH1 0x0 PUSH1 0x1 SLOAD SUB PUSH2 0x685 JUMPI PUSH1 0x0 DUP1 SLOAD SWAP1 PUSH2 0x100 EXP SWAP1 DIV PUSH20 0xFFFFFFFFFFFFFFFFFFFFFFFFFFFFFFFFFFFFFFFF AND PUSH20 0xFFFFFFFFFFFFFFFFFFFFFFFFFFFFFFFFFFFFFFFF AND PUSH4 0x70A08231 ADDRESS PUSH1 0x40 MLOAD DUP3 PUSH4 0xFFFFFFFF AND PUSH1 0xE0 SHL DUP2 MSTORE PUSH1 0x4 ADD PUSH2 0x632 SWAP2 SWAP1 PUSH2 0xD99 JUMP JUMPDEST PUSH1 0x20 PUSH1 0x40 MLOAD DUP1 DUP4 SUB DUP2 DUP7 GAS STATICCALL ISZERO DUP1 ISZERO PUSH2 0x64F JUMPI RETURNDATASIZE PUSH1 0x0 DUP1 RETURNDATACOPY RETURNDATASIZE PUSH1 0x0 REVERT JUMPDEST POP POP POP POP PUSH1 0x40 MLOAD RETURNDATASIZE PUSH1 0x1F NOT PUSH1 0x1F DUP3 ADD AND DUP3 ADD DUP1 PUSH1 0x40 MSTORE POP DUP2 ADD SWAP1 PUSH2 0x673 SWAP2 SWAP1 PUSH2 0xEFD JUMP JUMPDEST SELFBALANCE PUSH2 0x67E SWAP2 SWAP1 PUSH2 0x10AE JUMP JUMPDEST PUSH1 0x1 DUP2 SWAP1 SSTORE POP JUMPDEST PUSH1 0x0 PUSH2 0x6A5 PUSH8 0xDE0B6B3A7640000 PUSH1 0x1 SLOAD PUSH2 0x6A0 SWAP2 SWAP1 PUSH2 0x111F JUMP JUMPDEST PUSH2 0xA94 JUMP JUMPDEST SWAP1 POP PUSH20 0x39DB207DFF3411F4FAB0483D419306873CBC13D9 PUSH20 0xFFFFFFFFFFFFFFFFFFFFFFFFFFFFFFFFFFFFFFFF AND PUSH4 0xA9059CBB CALLER DUP4 PUSH1 0x40 MLOAD DUP4 PUSH4 0xFFFFFFFF AND PUSH1 0xE0 SHL DUP2 MSTORE PUSH1 0x4 ADD PUSH2 0x6F6 SWAP3 SWAP2 SWAP1 PUSH2 0xE31 JUMP JUMPDEST PUSH1 0x20 PUSH1 0x40 MLOAD DUP1 DUP4 SUB DUP2 PUSH1 0x0 DUP8 GAS CALL ISZERO DUP1 ISZERO PUSH2 0x715 JUMPI RETURNDATASIZE PUSH1 0x0 DUP1 RETURNDATACOPY RETURNDATASIZE PUSH1 0x0 REVERT JUMPDEST POP POP POP POP PUSH1 0x40 MLOAD RETURNDATASIZE PUSH1 0x1F NOT PUSH1 0x1F DUP3 ADD AND DUP3 ADD DUP1 PUSH1 0x40 MSTORE POP DUP2 ADD SWAP1 PUSH2 0x739 SWAP2 SWAP1 PUSH2 0xE92 JUMP JUMPDEST POP PUSH32 0xB62268A18D99FE191AC8E62F823AB1EEC698609A81B2C8DE3DAC902896B09DA6 CALLER DUP4 PUSH1 0x40 MLOAD PUSH2 0x76B SWAP3 SWAP2 SWAP1 PUSH2 0xE31 JUMP JUMPDEST PUSH1 0x40 MLOAD DUP1 SWAP2 SUB SWAP1 LOG1 POP POP JUMP JUMPDEST PUSH1 0x0 DUP1 SLOAD SWAP1 PUSH2 0x100 EXP SWAP1 DIV PUSH20 0xFFFFFFFFFFFFFFFFFFFFFFFFFFFFFFFFFFFFFFFF AND DUP2 JUMP JUMPDEST PUSH1 0x0 DUP2 GT PUSH2 0x7DE JUMPI PUSH1 0x40 MLOAD PUSH32 0x8C379A000000000000000000000000000000000000000000000000000000000 DUP2 MSTORE PUSH1 0x4 ADD PUSH2 0x7D5 SWAP1 PUSH2 0x119C JUMP JUMPDEST PUSH1 0x40 MLOAD DUP1 SWAP2 SUB SWAP1 REVERT JUMPDEST DUP1 PUSH20 0x39DB207DFF3411F4FAB0483D419306873CBC13D9 PUSH20 0xFFFFFFFFFFFFFFFFFFFFFFFFFFFFFFFFFFFFFFFF AND PUSH4 0xDD62ED3E CALLER ADDRESS PUSH1 0x40 MLOAD DUP4 PUSH4 0xFFFFFFFF AND PUSH1 0xE0 SHL DUP2 MSTORE PUSH1 0x4 ADD PUSH2 0x82E SWAP3 SWAP2 SWAP1 PUSH2 0xEBF JUMP JUMPDEST PUSH1 0x20 PUSH1 0x40 MLOAD DUP1 DUP4 SUB DUP2 DUP7 GAS STATICCALL ISZERO DUP1 ISZERO PUSH2 0x84B JUMPI RETURNDATASIZE PUSH1 0x0 DUP1 RETURNDATACOPY RETURNDATASIZE PUSH1 0x0 REVERT JUMPDEST POP POP POP POP PUSH1 0x40 MLOAD RETURNDATASIZE PUSH1 0x1F NOT PUSH1 0x1F DUP3 ADD AND DUP3 ADD DUP1 PUSH1 0x40 MSTORE POP DUP2 ADD SWAP1 PUSH2 0x86F SWAP2 SWAP1 PUSH2 0xEFD JUMP JUMPDEST LT ISZERO PUSH2 0x8B0 JUMPI PUSH1 0x40 MLOAD PUSH32 0x8C379A000000000000000000000000000000000000000000000000000000000 DUP2 MSTORE PUSH1 0x4 ADD PUSH2 0x8A7 SWAP1 PUSH2 0x1254 JUMP JUMPDEST PUSH1 0x40 MLOAD DUP1 SWAP2 SUB SWAP1 REVERT JUMPDEST PUSH20 0x39DB207DFF3411F4FAB0483D419306873CBC13D9 PUSH20 0xFFFFFFFFFFFFFFFFFFFFFFFFFFFFFFFFFFFFFFFF AND PUSH4 0x23B872DD CALLER ADDRESS DUP5 PUSH1 0x40 MLOAD DUP5 PUSH4 0xFFFFFFFF AND PUSH1 0xE0 SHL DUP2 MSTORE PUSH1 0x4 ADD PUSH2 0x901 SWAP4 SWAP3 SWAP2 SWAP1 PUSH2 0xF96 JUMP JUMPDEST PUSH1 0x20 PUSH1 0x40 MLOAD DUP1 DUP4 SUB DUP2 PUSH1 0x0 DUP8 GAS CALL ISZERO DUP1 ISZERO PUSH2 0x920 JUMPI RETURNDATASIZE PUSH1 0x0 DUP1 RETURNDATACOPY RETURNDATASIZE PUSH1 0x0 REVERT JUMPDEST POP POP POP POP PUSH1 0x40 MLOAD RETURNDATASIZE PUSH1 0x1F NOT PUSH1 0x1F DUP3 ADD AND DUP3 ADD DUP1 PUSH1 0x40 MSTORE POP DUP2 ADD SWAP1 PUSH2 0x944 SWAP2 SWAP1 PUSH2 0xE92 JUMP JUMPDEST POP PUSH1 0x0 DUP1 SLOAD SWAP1 PUSH2 0x100 EXP SWAP1 DIV PUSH20 0xFFFFFFFFFFFFFFFFFFFFFFFFFFFFFFFFFFFFFFFF AND PUSH20 0xFFFFFFFFFFFFFFFFFFFFFFFFFFFFFFFFFFFFFFFF AND PUSH4 0xA9059CBB CALLER DUP4 PUSH1 0x40 MLOAD DUP4 PUSH4 0xFFFFFFFF AND PUSH1 0xE0 SHL DUP2 MSTORE PUSH1 0x4 ADD PUSH2 0x9A0 SWAP3 SWAP2 SWAP1 PUSH2 0xE31 JUMP JUMPDEST PUSH1 0x20 PUSH1 0x40 MLOAD DUP1 DUP4 SUB DUP2 PUSH1 0x0 DUP8 GAS CALL ISZERO DUP1 ISZERO PUSH2 0x9BF JUMPI RETURNDATASIZE PUSH1 0x0 DUP1 RETURNDATACOPY RETURNDATASIZE PUSH1 0x0 REVERT JUMPDEST POP POP POP POP PUSH1 0x40 MLOAD RETURNDATASIZE PUSH1 0x1F NOT PUSH1 0x1F DUP3 ADD AND DUP3 ADD DUP1 PUSH1 0x40 MSTORE POP DUP2 ADD SWAP1 PUSH2 0x9E3 SWAP2 SWAP1 PUSH2 0xE92 JUMP JUMPDEST POP PUSH1 0x0 CALLER PUSH20 0xFFFFFFFFFFFFFFFFFFFFFFFFFFFFFFFFFFFFFFFF AND DUP3 PUSH1 0x40 MLOAD PUSH2 0xA0A SWAP1 PUSH2 0xFFE JUMP JUMPDEST PUSH1 0x0 PUSH1 0x40 MLOAD DUP1 DUP4 SUB DUP2 DUP6 DUP8 GAS CALL SWAP3 POP POP POP RETURNDATASIZE DUP1 PUSH1 0x0 DUP2 EQ PUSH2 0xA47 JUMPI PUSH1 0x40 MLOAD SWAP2 POP PUSH1 0x1F NOT PUSH1 0x3F RETURNDATASIZE ADD AND DUP3 ADD PUSH1 0x40 MSTORE RETURNDATASIZE DUP3 MSTORE RETURNDATASIZE PUSH1 0x0 PUSH1 0x20 DUP5 ADD RETURNDATACOPY PUSH2 0xA4C JUMP JUMPDEST PUSH1 0x60 SWAP2 POP JUMPDEST POP POP SWAP1 POP DUP1 PUSH2 0xA90 JUMPI PUSH1 0x40 MLOAD PUSH32 0x8C379A000000000000000000000000000000000000000000000000000000000 DUP2 MSTORE PUSH1 0x4 ADD PUSH2 0xA87 SWAP1 PUSH2 0x12C0 JUMP JUMPDEST PUSH1 0x40 MLOAD DUP1 SWAP2 SUB SWAP1 REVERT JUMPDEST POP POP JUMP JUMPDEST PUSH1 0x0 DUP1 DUP3 SUB PUSH2 0xAA6 JUMPI PUSH1 0x0 SWAP1 POP PUSH2 0xC3C JUMP JUMPDEST PUSH1 0x0 PUSH1 0x1 SWAP1 POP PUSH1 0x0 DUP4 SWAP1 POP PUSH1 0x0 PUSH1 0x80 DUP3 SWAP1 SHR GT ISZERO PUSH2 0xACD JUMPI PUSH1 0x80 DUP2 SWAP1 SHR SWAP1 POP PUSH1 0x40 DUP3 SWAP1 SHL SWAP2 POP JUMPDEST PUSH1 0x0 PUSH1 0x40 DUP3 SWAP1 SHR GT ISZERO PUSH2 0xAE9 JUMPI PUSH1 0x40 DUP2 SWAP1 SHR SWAP1 POP PUSH1 0x20 DUP3 SWAP1 SHL SWAP2 POP JUMPDEST PUSH1 0x0 PUSH1 0x20 DUP3 SWAP1 SHR GT ISZERO PUSH2 0xB05 JUMPI PUSH1 0x20 DUP2 SWAP1 SHR SWAP1 POP PUSH1 0x10 DUP3 SWAP1 SHL SWAP2 POP JUMPDEST PUSH1 0x0 PUSH1 0x10 DUP3 SWAP1 SHR GT ISZERO PUSH2 0xB21 JUMPI PUSH1 0x10 DUP2 SWAP1 SHR SWAP1 POP PUSH1 0x8 DUP3 SWAP1 SHL SWAP2 POP JUMPDEST PUSH1 0x0 PUSH1 0x8 DUP3 SWAP1 SHR GT ISZERO PUSH2 0xB3D JUMPI PUSH1 0x8 DUP2 SWAP1 SHR SWAP1 POP PUSH1 0x4 DUP3 SWAP1 SHL SWAP2 POP JUMPDEST PUSH1 0x0 PUSH1 0x4 DUP3 SWAP1 SHR GT ISZERO PUSH2 0xB59 JUMPI PUSH1 0x4 DUP2 SWAP1 SHR SWAP1 POP PUSH1 0x2 DUP3 SWAP1 SHL SWAP2 POP JUMPDEST PUSH1 0x0 PUSH1 0x2 DUP3 SWAP1 SHR GT ISZERO PUSH2 0xB6E JUMPI PUSH1 0x1 DUP3 SWAP1 SHL SWAP2 POP JUMPDEST PUSH1 0x1 DUP3 DUP6 DUP2 PUSH2 0xB80 JUMPI PUSH2 0xB7F PUSH2 0x10F0 JUMP JUMPDEST JUMPDEST DIV DUP4 ADD SWAP1 SHR SWAP2 POP PUSH1 0x1 DUP3 DUP6 DUP2 PUSH2 0xB99 JUMPI PUSH2 0xB98 PUSH2 0x10F0 JUMP JUMPDEST JUMPDEST DIV DUP4 ADD SWAP1 SHR SWAP2 POP PUSH1 0x1 DUP3 DUP6 DUP2 PUSH2 0xBB2 JUMPI PUSH2 0xBB1 PUSH2 0x10F0 JUMP JUMPDEST JUMPDEST DIV DUP4 ADD SWAP1 SHR SWAP2 POP PUSH1 0x1 DUP3 DUP6 DUP2 PUSH2 0xBCB JUMPI PUSH2 0xBCA PUSH2 0x10F0 JUMP JUMPDEST JUMPDEST DIV DUP4 ADD SWAP1 SHR SWAP2 POP PUSH1 0x1 DUP3 DUP6 DUP2 PUSH2 0xBE4 JUMPI PUSH2 0xBE3 PUSH2 0x10F0 JUMP JUMPDEST JUMPDEST DIV DUP4 ADD SWAP1 SHR SWAP2 POP PUSH1 0x1 DUP3 DUP6 DUP2 PUSH2 0xBFD JUMPI PUSH2 0xBFC PUSH2 0x10F0 JUMP JUMPDEST JUMPDEST DIV DUP4 ADD SWAP1 SHR SWAP2 POP PUSH1 0x1 DUP3 DUP6 DUP2 PUSH2 0xC16 JUMPI PUSH2 0xC15 PUSH2 0x10F0 JUMP JUMPDEST JUMPDEST DIV DUP4 ADD SWAP1 SHR SWAP2 POP PUSH2 0xC37 DUP3 DUP4 DUP7 DUP2 PUSH2 0xC31 JUMPI PUSH2 0xC30 PUSH2 0x10F0 JUMP JUMPDEST JUMPDEST DIV PUSH2 0xC41 JUMP JUMPDEST SWAP3 POP POP POP JUMPDEST SWAP2 SWAP1 POP JUMP JUMPDEST PUSH1 0x0 DUP2 DUP4 LT PUSH2 0xC50 JUMPI DUP2 PUSH2 0xC52 JUMP JUMPDEST DUP3 JUMPDEST SWAP1 POP SWAP3 SWAP2 POP POP JUMP JUMPDEST PUSH1 0x0 DUP1 REVERT JUMPDEST PUSH1 0x0 DUP2 SWAP1 POP SWAP2 SWAP1 POP JUMP JUMPDEST PUSH2 0xC72 DUP2 PUSH2 0xC5F JUMP JUMPDEST DUP2 EQ PUSH2 0xC7D JUMPI PUSH1 0x0 DUP1 REVERT JUMPDEST POP JUMP JUMPDEST PUSH1 0x0 DUP2 CALLDATALOAD SWAP1 POP PUSH2 0xC8F DUP2 PUSH2 0xC69 JUMP JUMPDEST SWAP3 SWAP2 POP POP JUMP JUMPDEST PUSH1 0x0 PUSH1 0x20 DUP3 DUP5 SUB SLT ISZERO PUSH2 0xCAB JUMPI PUSH2 0xCAA PUSH2 0xC5A JUMP JUMPDEST JUMPDEST PUSH1 0x0 PUSH2 0xCB9 DUP5 DUP3 DUP6 ADD PUSH2 0xC80 JUMP JUMPDEST SWAP2 POP POP SWAP3 SWAP2 POP POP JUMP JUMPDEST PUSH2 0xCCB DUP2 PUSH2 0xC5F JUMP JUMPDEST DUP3 MSTORE POP POP JUMP JUMPDEST PUSH1 0x0 PUSH1 0x20 DUP3 ADD SWAP1 POP PUSH2 0xCE6 PUSH1 0x0 DUP4 ADD DUP5 PUSH2 0xCC2 JUMP JUMPDEST SWAP3 SWAP2 POP POP JUMP JUMPDEST PUSH1 0x0 PUSH20 0xFFFFFFFFFFFFFFFFFFFFFFFFFFFFFFFFFFFFFFFF DUP3 AND SWAP1 POP SWAP2 SWAP1 POP JUMP JUMPDEST PUSH1 0x0 PUSH2 0xD17 DUP3 PUSH2 0xCEC JUMP JUMPDEST SWAP1 POP SWAP2 SWAP1 POP JUMP JUMPDEST PUSH2 0xD27 DUP2 PUSH2 0xD0C JUMP JUMPDEST DUP2 EQ PUSH2 0xD32 JUMPI PUSH1 0x0 DUP1 REVERT JUMPDEST POP JUMP JUMPDEST PUSH1 0x0 DUP2 CALLDATALOAD SWAP1 POP PUSH2 0xD44 DUP2 PUSH2 0xD1E JUMP JUMPDEST SWAP3 SWAP2 POP POP JUMP JUMPDEST PUSH1 0x0 DUP1 PUSH1 0x40 DUP4 DUP6 SUB SLT ISZERO PUSH2 0xD61 JUMPI PUSH2 0xD60 PUSH2 0xC5A JUMP JUMPDEST JUMPDEST PUSH1 0x0 PUSH2 0xD6F DUP6 DUP3 DUP7 ADD PUSH2 0xD35 JUMP JUMPDEST SWAP3 POP POP PUSH1 0x20 PUSH2 0xD80 DUP6 DUP3 DUP7 ADD PUSH2 0xC80 JUMP JUMPDEST SWAP2 POP POP SWAP3 POP SWAP3 SWAP1 POP JUMP JUMPDEST PUSH2 0xD93 DUP2 PUSH2 0xD0C JUMP JUMPDEST DUP3 MSTORE POP POP JUMP JUMPDEST PUSH1 0x0 PUSH1 0x20 DUP3 ADD SWAP1 POP PUSH2 0xDAE PUSH1 0x0 DUP4 ADD DUP5 PUSH2 0xD8A JUMP JUMPDEST SWAP3 SWAP2 POP POP JUMP JUMPDEST PUSH1 0x0 DUP3 DUP3 MSTORE PUSH1 0x20 DUP3 ADD SWAP1 POP SWAP3 SWAP2 POP POP JUMP JUMPDEST PUSH32 0x496E76616C696420616D6F756E74000000000000000000000000000000000000 PUSH1 0x0 DUP3 ADD MSTORE POP JUMP JUMPDEST PUSH1 0x0 PUSH2 0xDFB PUSH1 0xE DUP4 PUSH2 0xDB4 JUMP JUMPDEST SWAP2 POP PUSH2 0xE06 DUP3 PUSH2 0xDC5 JUMP JUMPDEST PUSH1 0x20 DUP3 ADD SWAP1 POP SWAP2 SWAP1 POP JUMP JUMPDEST PUSH1 0x0 PUSH1 0x20 DUP3 ADD SWAP1 POP DUP2 DUP2 SUB PUSH1 0x0 DUP4 ADD MSTORE PUSH2 0xE2A DUP2 PUSH2 0xDEE JUMP JUMPDEST SWAP1 POP SWAP2 SWAP1 POP JUMP JUMPDEST PUSH1 0x0 PUSH1 0x40 DUP3 ADD SWAP1 POP PUSH2 0xE46 PUSH1 0x0 DUP4 ADD DUP6 PUSH2 0xD8A JUMP JUMPDEST PUSH2 0xE53 PUSH1 0x20 DUP4 ADD DUP5 PUSH2 0xCC2 JUMP JUMPDEST SWAP4 SWAP3 POP POP POP JUMP JUMPDEST PUSH1 0x0 DUP2 ISZERO ISZERO SWAP1 POP SWAP2 SWAP1 POP JUMP JUMPDEST PUSH2 0xE6F DUP2 PUSH2 0xE5A JUMP JUMPDEST DUP2 EQ PUSH2 0xE7A JUMPI PUSH1 0x0 DUP1 REVERT JUMPDEST POP JUMP JUMPDEST PUSH1 0x0 DUP2 MLOAD SWAP1 POP PUSH2 0xE8C DUP2 PUSH2 0xE66 JUMP JUMPDEST SWAP3 SWAP2 POP POP JUMP JUMPDEST PUSH1 0x0 PUSH1 0x20 DUP3 DUP5 SUB SLT ISZERO PUSH2 0xEA8 JUMPI PUSH2 0xEA7 PUSH2 0xC5A JUMP JUMPDEST JUMPDEST PUSH1 0x0 PUSH2 0xEB6 DUP5 DUP3 DUP6 ADD PUSH2 0xE7D JUMP JUMPDEST SWAP2 POP POP SWAP3 SWAP2 POP POP JUMP JUMPDEST PUSH1 0x0 PUSH1 0x40 DUP3 ADD SWAP1 POP PUSH2 0xED4 PUSH1 0x0 DUP4 ADD DUP6 PUSH2 0xD8A JUMP JUMPDEST PUSH2 0xEE1 PUSH1 0x20 DUP4 ADD DUP5 PUSH2 0xD8A JUMP JUMPDEST SWAP4 SWAP3 POP POP POP JUMP JUMPDEST PUSH1 0x0 DUP2 MLOAD SWAP1 POP PUSH2 0xEF7 DUP2 PUSH2 0xC69 JUMP JUMPDEST SWAP3 SWAP2 POP POP JUMP JUMPDEST PUSH1 0x0 PUSH1 0x20 DUP3 DUP5 SUB SLT ISZERO PUSH2 0xF13 JUMPI PUSH2 0xF12 PUSH2 0xC5A JUMP JUMPDEST JUMPDEST PUSH1 0x0 PUSH2 0xF21 DUP5 DUP3 DUP6 ADD PUSH2 0xEE8 JUMP JUMPDEST SWAP2 POP POP SWAP3 SWAP2 POP POP JUMP JUMPDEST PUSH32 0x436F6E7472616374206E6F7420617070726F7665640000000000000000000000 PUSH1 0x0 DUP3 ADD MSTORE POP JUMP JUMPDEST PUSH1 0x0 PUSH2 0xF60 PUSH1 0x15 DUP4 PUSH2 0xDB4 JUMP JUMPDEST SWAP2 POP PUSH2 0xF6B DUP3 PUSH2 0xF2A JUMP JUMPDEST PUSH1 0x20 DUP3 ADD SWAP1 POP SWAP2 SWAP1 POP JUMP JUMPDEST PUSH1 0x0 PUSH1 0x20 DUP3 ADD SWAP1 POP DUP2 DUP2 SUB PUSH1 0x0 DUP4 ADD MSTORE PUSH2 0xF8F DUP2 PUSH2 0xF53 JUMP JUMPDEST SWAP1 POP SWAP2 SWAP1 POP JUMP JUMPDEST PUSH1 0x0 PUSH1 0x60 DUP3 ADD SWAP1 POP PUSH2 0xFAB PUSH1 0x0 DUP4 ADD DUP7 PUSH2 0xD8A JUMP JUMPDEST PUSH2 0xFB8 PUSH1 0x20 DUP4 ADD DUP6 PUSH2 0xD8A JUMP JUMPDEST PUSH2 0xFC5 PUSH1 0x40 DUP4 ADD DUP5 PUSH2 0xCC2 JUMP JUMPDEST SWAP5 SWAP4 POP POP POP POP JUMP JUMPDEST PUSH1 0x0 DUP2 SWAP1 POP SWAP3 SWAP2 POP POP JUMP JUMPDEST POP JUMP JUMPDEST PUSH1 0x0 PUSH2 0xFE8 PUSH1 0x0 DUP4 PUSH2 0xFCD JUMP JUMPDEST SWAP2 POP PUSH2 0xFF3 DUP3 PUSH2 0xFD8 JUMP JUMPDEST PUSH1 0x0 DUP3 ADD SWAP1 POP SWAP2 SWAP1 POP JUMP JUMPDEST PUSH1 0x0 PUSH2 0x1009 DUP3 PUSH2 0xFDB JUMP JUMPDEST SWAP2 POP DUP2 SWAP1 POP SWAP2 SWAP1 POP JUMP JUMPDEST PUSH32 0x5472616E73666572204661696C65640000000000000000000000000000000000 PUSH1 0x0 DUP3 ADD MSTORE POP JUMP JUMPDEST PUSH1 0x0 PUSH2 0x1049 PUSH1 0xF DUP4 PUSH2 0xDB4 JUMP JUMPDEST SWAP2 POP PUSH2 0x1054 DUP3 PUSH2 0x1013 JUMP JUMPDEST PUSH1 0x20 DUP3 ADD SWAP1 POP SWAP2 SWAP1 POP JUMP JUMPDEST PUSH1 0x0 PUSH1 0x20 DUP3 ADD SWAP1 POP DUP2 DUP2 SUB PUSH1 0x0 DUP4 ADD MSTORE PUSH2 0x1078 DUP2 PUSH2 0x103C JUMP JUMPDEST SWAP1 POP SWAP2 SWAP1 POP JUMP JUMPDEST PUSH32 0x4E487B7100000000000000000000000000000000000000000000000000000000 PUSH1 0x0 MSTORE PUSH1 0x11 PUSH1 0x4 MSTORE PUSH1 0x24 PUSH1 0x0 REVERT JUMPDEST PUSH1 0x0 PUSH2 0x10B9 DUP3 PUSH2 0xC5F JUMP JUMPDEST SWAP2 POP PUSH2 0x10C4 DUP4 PUSH2 0xC5F JUMP JUMPDEST SWAP3 POP DUP3 DUP3 MUL PUSH2 0x10D2 DUP2 PUSH2 0xC5F JUMP JUMPDEST SWAP2 POP DUP3 DUP3 DIV DUP5 EQ DUP4 ISZERO OR PUSH2 0x10E9 JUMPI PUSH2 0x10E8 PUSH2 0x107F JUMP JUMPDEST JUMPDEST POP SWAP3 SWAP2 POP POP JUMP JUMPDEST PUSH32 0x4E487B7100000000000000000000000000000000000000000000000000000000 PUSH1 0x0 MSTORE PUSH1 0x12 PUSH1 0x4 MSTORE PUSH1 0x24 PUSH1 0x0 REVERT JUMPDEST PUSH1 0x0 PUSH2 0x112A DUP3 PUSH2 0xC5F JUMP JUMPDEST SWAP2 POP PUSH2 0x1135 DUP4 PUSH2 0xC5F JUMP JUMPDEST SWAP3 POP DUP3 PUSH2 0x1145 JUMPI PUSH2 0x1144 PUSH2 0x10F0 JUMP JUMPDEST JUMPDEST DUP3 DUP3 DIV SWAP1 POP SWAP3 SWAP2 POP POP JUMP JUMPDEST PUSH32 0x496E76616C696420616D6F756E74206F66207368617265730000000000000000 PUSH1 0x0 DUP3 ADD MSTORE POP JUMP JUMPDEST PUSH1 0x0 PUSH2 0x1186 PUSH1 0x18 DUP4 PUSH2 0xDB4 JUMP JUMPDEST SWAP2 POP PUSH2 0x1191 DUP3 PUSH2 0x1150 JUMP JUMPDEST PUSH1 0x20 DUP3 ADD SWAP1 POP SWAP2 SWAP1 POP JUMP JUMPDEST PUSH1 0x0 PUSH1 0x20 DUP3 ADD SWAP1 POP DUP2 DUP2 SUB PUSH1 0x0 DUP4 ADD MSTORE PUSH2 0x11B5 DUP2 PUSH2 0x1179 JUMP JUMPDEST SWAP1 POP SWAP2 SWAP1 POP JUMP JUMPDEST PUSH32 0x506C6561736520617070726F76652074686520636F6E747261637420746F2064 PUSH1 0x0 DUP3 ADD MSTORE PUSH32 0x6564756374206C747220746F6B656E732066726F6D20796F75722077616C6C65 PUSH1 0x20 DUP3 ADD MSTORE PUSH32 0x7400000000000000000000000000000000000000000000000000000000000000 PUSH1 0x40 DUP3 ADD MSTORE POP JUMP JUMPDEST PUSH1 0x0 PUSH2 0x123E PUSH1 0x41 DUP4 PUSH2 0xDB4 JUMP JUMPDEST SWAP2 POP PUSH2 0x1249 DUP3 PUSH2 0x11BC JUMP JUMPDEST PUSH1 0x60 DUP3 ADD SWAP1 POP SWAP2 SWAP1 POP JUMP JUMPDEST PUSH1 0x0 PUSH1 0x20 DUP3 ADD SWAP1 POP DUP2 DUP2 SUB PUSH1 0x0 DUP4 ADD MSTORE PUSH2 0x126D DUP2 PUSH2 0x1231 JUMP JUMPDEST SWAP1 POP SWAP2 SWAP1 POP JUMP JUMPDEST PUSH32 0x5472616E73666572206661696C65640000000000000000000000000000000000 PUSH1 0x0 DUP3 ADD MSTORE POP JUMP JUMPDEST PUSH1 0x0 PUSH2 0x12AA PUSH1 0xF DUP4 PUSH2 0xDB4 JUMP JUMPDEST SWAP2 POP PUSH2 0x12B5 DUP3 PUSH2 0x1274 JUMP JUMPDEST PUSH1 0x20 DUP3 ADD SWAP1 POP SWAP2 SWAP1 POP JUMP JUMPDEST PUSH1 0x0 PUSH1 0x20 DUP3 ADD SWAP1 POP DUP2 DUP2 SUB PUSH1 0x0 DUP4 ADD MSTORE PUSH2 0x12D9 DUP2 PUSH2 0x129D JUMP JUMPDEST SWAP1 POP SWAP2 SWAP1 POP JUMP INVALID LOG2 PUSH5 0x6970667358 0x22 SLT KECCAK256 SAR SAR 0x22 MOD PUSH21 0x5CA671B0937AF208797F271DDC3727BDD349CC091 0xB3 DUP2 MSIZE PUSH28 0x13C364736F6C63430008110033000000000000000000000000000000 "
				},
				"gasEstimates": {
					"creation": {
						"codeDepositCost": "977200",
						"executionCost": "infinite",
						"totalCost": "infinite"
					},
					"external": {
						"getDAI(uint256)": "infinite",
						"getEth(uint256)": "infinite",
						"kLast()": "2452",
						"provideLiquidity(uint256)": "infinite",
						"reedemShares(uint256)": "infinite",
						"reserveToken()": "2555",
						"transferTokens(address,uint256)": "infinite"
					}
				},
				"methodIdentifiers": {
					"getDAI(uint256)": "1aa5c70e",
					"getEth(uint256)": "8e3073a6",
					"kLast()": "7464fc3d",
					"provideLiquidity(uint256)": "eb521a4c",
					"reedemShares(uint256)": "ff9b3758",
					"reserveToken()": "f4325d67",
					"transferTokens(address,uint256)": "bec3fa17"
				}
			},
			"storageLayout": {
				"storage": [
					{
						"astId": 587,
						"contract": "contracts/Pool.sol:LiquidityPool",
						"label": "reserveToken",
						"offset": 0,
						"slot": "0",
						"type": "t_address"
					},
					{
						"astId": 592,
						"contract": "contracts/Pool.sol:LiquidityPool",
						"label": "kLast",
						"offset": 0,
						"slot": "1",
						"type": "t_uint256"
					}
				],
				"types": {
					"t_address": {
						"encoding": "inplace",
						"label": "address",
						"numberOfBytes": "20"
					},
					"t_uint256": {
						"encoding": "inplace",
						"label": "uint256",
						"numberOfBytes": "32"
					}
				}
			},
			"userdoc": {
				"kind": "user",
				"methods": {},
				"version": 1
			}
		}
	}
}