{
	"contracts/LiquidityPool.sol": {
		"LiquidityPool": {
			"abi": [
				{
					"inputs": [
						{
							"internalType": "address",
							"name": "_tokenAddress",
							"type": "address"
						}
					],
					"stateMutability": "nonpayable",
					"type": "constructor"
				},
				{
					"anonymous": false,
					"inputs": [
						{
							"indexed": false,
							"internalType": "address",
							"name": "_liquidityProvider",
							"type": "address"
						},
						{
							"indexed": false,
							"internalType": "uint256",
							"name": "_shares",
							"type": "uint256"
						}
					],
					"name": "liquidityProvided",
					"type": "event"
				},
				{
					"inputs": [
						{
							"internalType": "uint256",
							"name": "_ethAmount",
							"type": "uint256"
						}
					],
					"name": "getDAI",
					"outputs": [],
					"stateMutability": "payable",
					"type": "function"
				},
				{
					"inputs": [
						{
							"internalType": "uint256",
							"name": "_DAIAmount",
							"type": "uint256"
						}
					],
					"name": "getEth",
					"outputs": [],
					"stateMutability": "nonpayable",
					"type": "function"
				},
				{
					"inputs": [
						{
							"internalType": "uint256",
							"name": "_amount",
							"type": "uint256"
						}
					],
					"name": "provideLiquidity",
					"outputs": [],
					"stateMutability": "payable",
					"type": "function"
				},
				{
					"inputs": [
						{
							"internalType": "uint256",
							"name": "_sharesAmount",
							"type": "uint256"
						}
					],
					"name": "reedemShares",
					"outputs": [],
					"stateMutability": "nonpayable",
					"type": "function"
				},
				{
					"inputs": [],
					"name": "reserveToken",
					"outputs": [
						{
							"internalType": "address",
							"name": "",
							"type": "address"
						}
					],
					"stateMutability": "view",
					"type": "function"
				}
			],
			"devdoc": {
				"kind": "dev",
				"methods": {},
				"version": 1
			},
			"evm": {
				"assembly": "    /* \"contracts/LiquidityPool.sol\":241:2133  contract LiquidityPool {... */\n  mstore(0x40, 0x80)\n    /* \"contracts/LiquidityPool.sol\":470:549  constructor(address _tokenAddress){... */\n  callvalue\n  dup1\n  iszero\n  tag_1\n  jumpi\n  0x00\n  dup1\n  revert\ntag_1:\n  pop\n  mload(0x40)\n  sub(codesize, bytecodeSize)\n  dup1\n  bytecodeSize\n  dup4\n  codecopy\n  dup2\n  dup2\n  add\n  0x40\n  mstore\n  dup2\n  add\n  swap1\n  tag_2\n  swap2\n  swap1\n  tag_3\n  jump\t// in\ntag_2:\n    /* \"contracts/LiquidityPool.sol\":529:542  _tokenAddress */\n  dup1\n    /* \"contracts/LiquidityPool.sol\":514:526  reserveToken */\n  0x00\n  dup1\n    /* \"contracts/LiquidityPool.sol\":514:542  reserveToken = _tokenAddress */\n  0x0100\n  exp\n  dup2\n  sload\n  dup2\n  0xffffffffffffffffffffffffffffffffffffffff\n  mul\n  not\n  and\n  swap1\n  dup4\n  0xffffffffffffffffffffffffffffffffffffffff\n  and\n  mul\n  or\n  swap1\n  sstore\n  pop\n    /* \"contracts/LiquidityPool.sol\":470:549  constructor(address _tokenAddress){... */\n  pop\n    /* \"contracts/LiquidityPool.sol\":241:2133  contract LiquidityPool {... */\n  jump(tag_6)\n    /* \"#utility.yul\":7:150   */\ntag_8:\n    /* \"#utility.yul\":64:69   */\n  0x00\n    /* \"#utility.yul\":95:101   */\n  dup2\n    /* \"#utility.yul\":89:102   */\n  mload\n    /* \"#utility.yul\":80:102   */\n  swap1\n  pop\n    /* \"#utility.yul\":111:144   */\n  tag_10\n    /* \"#utility.yul\":138:143   */\n  dup2\n    /* \"#utility.yul\":111:144   */\n  tag_11\n  jump\t// in\ntag_10:\n    /* \"#utility.yul\":7:150   */\n  swap3\n  swap2\n  pop\n  pop\n  jump\t// out\n    /* \"#utility.yul\":156:507   */\ntag_3:\n    /* \"#utility.yul\":226:232   */\n  0x00\n    /* \"#utility.yul\":275:277   */\n  0x20\n    /* \"#utility.yul\":263:272   */\n  dup3\n    /* \"#utility.yul\":254:261   */\n  dup5\n    /* \"#utility.yul\":250:273   */\n  sub\n    /* \"#utility.yul\":246:278   */\n  slt\n    /* \"#utility.yul\":243:362   */\n  iszero\n  tag_13\n  jumpi\n    /* \"#utility.yul\":281:360   */\n  tag_14\n  tag_15\n  jump\t// in\ntag_14:\n    /* \"#utility.yul\":243:362   */\ntag_13:\n    /* \"#utility.yul\":401:402   */\n  0x00\n    /* \"#utility.yul\":426:490   */\n  tag_16\n    /* \"#utility.yul\":482:489   */\n  dup5\n    /* \"#utility.yul\":473:479   */\n  dup3\n    /* \"#utility.yul\":462:471   */\n  dup6\n    /* \"#utility.yul\":458:480   */\n  add\n    /* \"#utility.yul\":426:490   */\n  tag_8\n  jump\t// in\ntag_16:\n    /* \"#utility.yul\":416:490   */\n  swap2\n  pop\n    /* \"#utility.yul\":372:500   */\n  pop\n    /* \"#utility.yul\":156:507   */\n  swap3\n  swap2\n  pop\n  pop\n  jump\t// out\n    /* \"#utility.yul\":594:690   */\ntag_19:\n    /* \"#utility.yul\":631:638   */\n  0x00\n    /* \"#utility.yul\":660:684   */\n  tag_21\n    /* \"#utility.yul\":678:683   */\n  dup3\n    /* \"#utility.yul\":660:684   */\n  tag_22\n  jump\t// in\ntag_21:\n    /* \"#utility.yul\":649:684   */\n  swap1\n  pop\n    /* \"#utility.yul\":594:690   */\n  swap2\n  swap1\n  pop\n  jump\t// out\n    /* \"#utility.yul\":696:822   */\ntag_22:\n    /* \"#utility.yul\":733:740   */\n  0x00\n    /* \"#utility.yul\":773:815   */\n  0xffffffffffffffffffffffffffffffffffffffff\n    /* \"#utility.yul\":766:771   */\n  dup3\n    /* \"#utility.yul\":762:816   */\n  and\n    /* \"#utility.yul\":751:816   */\n  swap1\n  pop\n    /* \"#utility.yul\":696:822   */\n  swap2\n  swap1\n  pop\n  jump\t// out\n    /* \"#utility.yul\":951:1068   */\ntag_15:\n    /* \"#utility.yul\":1060:1061   */\n  0x00\n    /* \"#utility.yul\":1057:1058   */\n  dup1\n    /* \"#utility.yul\":1050:1062   */\n  revert\n    /* \"#utility.yul\":1074:1196   */\ntag_11:\n    /* \"#utility.yul\":1147:1171   */\n  tag_28\n    /* \"#utility.yul\":1165:1170   */\n  dup2\n    /* \"#utility.yul\":1147:1171   */\n  tag_19\n  jump\t// in\ntag_28:\n    /* \"#utility.yul\":1140:1145   */\n  dup2\n    /* \"#utility.yul\":1137:1172   */\n  eq\n    /* \"#utility.yul\":1127:1190   */\n  tag_29\n  jumpi\n    /* \"#utility.yul\":1186:1187   */\n  0x00\n    /* \"#utility.yul\":1183:1184   */\n  dup1\n    /* \"#utility.yul\":1176:1188   */\n  revert\n    /* \"#utility.yul\":1127:1190   */\ntag_29:\n    /* \"#utility.yul\":1074:1196   */\n  pop\n  jump\t// out\n    /* \"contracts/LiquidityPool.sol\":241:2133  contract LiquidityPool {... */\ntag_6:\n  dataSize(sub_0)\n  dup1\n  dataOffset(sub_0)\n  0x00\n  codecopy\n  0x00\n  return\nstop\n\nsub_0: assembly {\n        /* \"contracts/LiquidityPool.sol\":241:2133  contract LiquidityPool {... */\n      mstore(0x40, 0x80)\n      jumpi(tag_1, lt(calldatasize, 0x04))\n      shr(0xe0, calldataload(0x00))\n      dup1\n      0x1aa5c70e\n      eq\n      tag_2\n      jumpi\n      dup1\n      0x8e3073a6\n      eq\n      tag_3\n      jumpi\n      dup1\n      0xeb521a4c\n      eq\n      tag_4\n      jumpi\n      dup1\n      0xf4325d67\n      eq\n      tag_5\n      jumpi\n      dup1\n      0xff9b3758\n      eq\n      tag_6\n      jumpi\n    tag_1:\n      0x00\n      dup1\n      revert\n        /* \"contracts/LiquidityPool.sol\":1950:2131  function getDAI(uint256 _ethAmount) public payable {... */\n    tag_2:\n      tag_7\n      0x04\n      dup1\n      calldatasize\n      sub\n      dup2\n      add\n      swap1\n      tag_8\n      swap2\n      swap1\n      tag_9\n      jump\t// in\n    tag_8:\n      tag_10\n      jump\t// in\n    tag_7:\n      stop\n        /* \"contracts/LiquidityPool.sol\":1621:1944  function getEth(uint256 _DAIAmount) public {... */\n    tag_3:\n      callvalue\n      dup1\n      iszero\n      tag_11\n      jumpi\n      0x00\n      dup1\n      revert\n    tag_11:\n      pop\n      tag_12\n      0x04\n      dup1\n      calldatasize\n      sub\n      dup2\n      add\n      swap1\n      tag_13\n      swap2\n      swap1\n      tag_9\n      jump\t// in\n    tag_13:\n      tag_14\n      jump\t// in\n    tag_12:\n      stop\n        /* \"contracts/LiquidityPool.sol\":630:1052  function provideLiquidity(uint256 _amount) external payable {... */\n    tag_4:\n      tag_15\n      0x04\n      dup1\n      calldatasize\n      sub\n      dup2\n      add\n      swap1\n      tag_16\n      swap2\n      swap1\n      tag_9\n      jump\t// in\n    tag_16:\n      tag_17\n      jump\t// in\n    tag_15:\n      stop\n        /* \"contracts/LiquidityPool.sol\":358:385  address public reserveToken */\n    tag_5:\n      callvalue\n      dup1\n      iszero\n      tag_18\n      jumpi\n      0x00\n      dup1\n      revert\n    tag_18:\n      pop\n      tag_19\n      tag_20\n      jump\t// in\n    tag_19:\n      mload(0x40)\n      tag_21\n      swap2\n      swap1\n      tag_22\n      jump\t// in\n    tag_21:\n      mload(0x40)\n      dup1\n      swap2\n      sub\n      swap1\n      return\n        /* \"contracts/LiquidityPool.sol\":1058:1615  function reedemShares(uint256 _sharesAmount) public {... */\n    tag_6:\n      callvalue\n      dup1\n      iszero\n      tag_23\n      jumpi\n      0x00\n      dup1\n      revert\n    tag_23:\n      pop\n      tag_24\n      0x04\n      dup1\n      calldatasize\n      sub\n      dup2\n      add\n      swap1\n      tag_25\n      swap2\n      swap1\n      tag_9\n      jump\t// in\n    tag_25:\n      tag_26\n      jump\t// in\n    tag_24:\n      stop\n        /* \"contracts/LiquidityPool.sol\":1950:2131  function getDAI(uint256 _ethAmount) public payable {... */\n    tag_10:\n        /* \"contracts/LiquidityPool.sol\":2032:2042  _ethAmount */\n      dup1\n        /* \"contracts/LiquidityPool.sol\":2019:2028  msg.value */\n      callvalue\n        /* \"contracts/LiquidityPool.sol\":2019:2042  msg.value == _ethAmount */\n      eq\n        /* \"contracts/LiquidityPool.sol\":2011:2061  require(msg.value == _ethAmount, \"Invalid amount\") */\n      tag_28\n      jumpi\n      mload(0x40)\n      0x08c379a000000000000000000000000000000000000000000000000000000000\n      dup2\n      mstore\n      0x04\n      add\n      tag_29\n      swap1\n      tag_30\n      jump\t// in\n    tag_29:\n      mload(0x40)\n      dup1\n      swap2\n      sub\n      swap1\n      revert\n    tag_28:\n        /* \"contracts/LiquidityPool.sol\":2078:2090  reserveToken */\n      0x00\n      dup1\n      sload\n      swap1\n      0x0100\n      exp\n      swap1\n      div\n      0xffffffffffffffffffffffffffffffffffffffff\n      and\n        /* \"contracts/LiquidityPool.sol\":2071:2100  IERC20(reserveToken).transfer */\n      0xffffffffffffffffffffffffffffffffffffffff\n      and\n      0xa9059cbb\n        /* \"contracts/LiquidityPool.sol\":2101:2111  msg.sender */\n      caller\n        /* \"contracts/LiquidityPool.sol\":2113:2123  _ethAmount */\n      dup4\n        /* \"contracts/LiquidityPool.sol\":2071:2124  IERC20(reserveToken).transfer(msg.sender, _ethAmount) */\n      mload(0x40)\n      dup4\n      0xffffffff\n      and\n      0xe0\n      shl\n      dup2\n      mstore\n      0x04\n      add\n      tag_31\n      swap3\n      swap2\n      swap1\n      tag_32\n      jump\t// in\n    tag_31:\n      0x20\n      mload(0x40)\n      dup1\n      dup4\n      sub\n      dup2\n      0x00\n      dup8\n      dup1\n      extcodesize\n      iszero\n      dup1\n      iszero\n      tag_33\n      jumpi\n      0x00\n      dup1\n      revert\n    tag_33:\n      pop\n      gas\n      call\n      iszero\n      dup1\n      iszero\n      tag_35\n      jumpi\n      returndatasize\n      0x00\n      dup1\n      returndatacopy\n      revert(0x00, returndatasize)\n    tag_35:\n      pop\n      pop\n      pop\n      pop\n      mload(0x40)\n      returndatasize\n      not(0x1f)\n      0x1f\n      dup3\n      add\n      and\n      dup3\n      add\n      dup1\n      0x40\n      mstore\n      pop\n      dup2\n      add\n      swap1\n      tag_36\n      swap2\n      swap1\n      tag_37\n      jump\t// in\n    tag_36:\n      pop\n        /* \"contracts/LiquidityPool.sol\":1950:2131  function getDAI(uint256 _ethAmount) public payable {... */\n      pop\n      jump\t// out\n        /* \"contracts/LiquidityPool.sol\":1621:1944  function getEth(uint256 _DAIAmount) public {... */\n    tag_14:\n        /* \"contracts/LiquidityPool.sol\":1743:1753  _DAIAmount */\n      dup1\n        /* \"contracts/LiquidityPool.sol\":1689:1701  reserveToken */\n      0x00\n      dup1\n      sload\n      swap1\n      0x0100\n      exp\n      swap1\n      div\n      0xffffffffffffffffffffffffffffffffffffffff\n      and\n        /* \"contracts/LiquidityPool.sol\":1682:1712  IERC20(reserveToken).allowance */\n      0xffffffffffffffffffffffffffffffffffffffff\n      and\n      0xdd62ed3e\n        /* \"contracts/LiquidityPool.sol\":1713:1723  msg.sender */\n      caller\n        /* \"contracts/LiquidityPool.sol\":1733:1737  this */\n      address\n        /* \"contracts/LiquidityPool.sol\":1682:1739  IERC20(reserveToken).allowance(msg.sender, address(this)) */\n      mload(0x40)\n      dup4\n      0xffffffff\n      and\n      0xe0\n      shl\n      dup2\n      mstore\n      0x04\n      add\n      tag_39\n      swap3\n      swap2\n      swap1\n      tag_40\n      jump\t// in\n    tag_39:\n      0x20\n      mload(0x40)\n      dup1\n      dup4\n      sub\n      dup2\n      dup7\n      dup1\n      extcodesize\n      iszero\n      dup1\n      iszero\n      tag_41\n      jumpi\n      0x00\n      dup1\n      revert\n    tag_41:\n      pop\n      gas\n      staticcall\n      iszero\n      dup1\n      iszero\n      tag_43\n      jumpi\n      returndatasize\n      0x00\n      dup1\n      returndatacopy\n      revert(0x00, returndatasize)\n    tag_43:\n      pop\n      pop\n      pop\n      pop\n      mload(0x40)\n      returndatasize\n      not(0x1f)\n      0x1f\n      dup3\n      add\n      and\n      dup3\n      add\n      dup1\n      0x40\n      mstore\n      pop\n      dup2\n      add\n      swap1\n      tag_44\n      swap2\n      swap1\n      tag_45\n      jump\t// in\n    tag_44:\n        /* \"contracts/LiquidityPool.sol\":1682:1753  IERC20(reserveToken).allowance(msg.sender, address(this)) >= _DAIAmount */\n      lt\n      iszero\n        /* \"contracts/LiquidityPool.sol\":1674:1779  require(IERC20(reserveToken).allowance(msg.sender, address(this)) >= _DAIAmount, \"Contract not approved\") */\n      tag_46\n      jumpi\n      mload(0x40)\n      0x08c379a000000000000000000000000000000000000000000000000000000000\n      dup2\n      mstore\n      0x04\n      add\n      tag_47\n      swap1\n      tag_48\n      jump\t// in\n    tag_47:\n      mload(0x40)\n      dup1\n      swap2\n      sub\n      swap1\n      revert\n    tag_46:\n        /* \"contracts/LiquidityPool.sol\":1796:1808  reserveToken */\n      0x00\n      dup1\n      sload\n      swap1\n      0x0100\n      exp\n      swap1\n      div\n      0xffffffffffffffffffffffffffffffffffffffff\n      and\n        /* \"contracts/LiquidityPool.sol\":1789:1822  IERC20(reserveToken).transferFrom */\n      0xffffffffffffffffffffffffffffffffffffffff\n      and\n      0x23b872dd\n        /* \"contracts/LiquidityPool.sol\":1823:1833  msg.sender */\n      caller\n        /* \"contracts/LiquidityPool.sol\":1843:1847  this */\n      address\n        /* \"contracts/LiquidityPool.sol\":1850:1860  _DAIAmount */\n      dup5\n        /* \"contracts/LiquidityPool.sol\":1789:1861  IERC20(reserveToken).transferFrom(msg.sender, address(this), _DAIAmount) */\n      mload(0x40)\n      dup5\n      0xffffffff\n      and\n      0xe0\n      shl\n      dup2\n      mstore\n      0x04\n      add\n      tag_49\n      swap4\n      swap3\n      swap2\n      swap1\n      tag_50\n      jump\t// in\n    tag_49:\n      0x20\n      mload(0x40)\n      dup1\n      dup4\n      sub\n      dup2\n      0x00\n      dup8\n      dup1\n      extcodesize\n      iszero\n      dup1\n      iszero\n      tag_51\n      jumpi\n      0x00\n      dup1\n      revert\n    tag_51:\n      pop\n      gas\n      call\n      iszero\n      dup1\n      iszero\n      tag_53\n      jumpi\n      returndatasize\n      0x00\n      dup1\n      returndatacopy\n      revert(0x00, returndatasize)\n    tag_53:\n      pop\n      pop\n      pop\n      pop\n      mload(0x40)\n      returndatasize\n      not(0x1f)\n      0x1f\n      dup3\n      add\n      and\n      dup3\n      add\n      dup1\n      0x40\n      mstore\n      pop\n      dup2\n      add\n      swap1\n      tag_54\n      swap2\n      swap1\n      tag_37\n      jump\t// in\n    tag_54:\n      pop\n        /* \"contracts/LiquidityPool.sol\":1872:1884  bool success */\n      0x00\n        /* \"contracts/LiquidityPool.sol\":1898:1908  msg.sender */\n      caller\n        /* \"contracts/LiquidityPool.sol\":1890:1914  payable(msg.sender).call */\n      0xffffffffffffffffffffffffffffffffffffffff\n      and\n        /* \"contracts/LiquidityPool.sol\":1922:1932  _DAIAmount */\n      dup3\n        /* \"contracts/LiquidityPool.sol\":1890:1937  payable(msg.sender).call{value: _DAIAmount}(\"\") */\n      mload(0x40)\n      tag_55\n      swap1\n      tag_56\n      jump\t// in\n    tag_55:\n      0x00\n      mload(0x40)\n      dup1\n      dup4\n      sub\n      dup2\n      dup6\n      dup8\n      gas\n      call\n      swap3\n      pop\n      pop\n      pop\n      returndatasize\n      dup1\n      0x00\n      dup2\n      eq\n      tag_59\n      jumpi\n      mload(0x40)\n      swap2\n      pop\n      and(add(returndatasize, 0x3f), not(0x1f))\n      dup3\n      add\n      0x40\n      mstore\n      returndatasize\n      dup3\n      mstore\n      returndatasize\n      0x00\n      0x20\n      dup5\n      add\n      returndatacopy\n      jump(tag_58)\n    tag_59:\n      0x60\n      swap2\n      pop\n    tag_58:\n      pop\n        /* \"contracts/LiquidityPool.sol\":1871:1937  (bool success, ) = payable(msg.sender).call{value: _DAIAmount}(\"\") */\n      pop\n      swap1\n      pop\n        /* \"contracts/LiquidityPool.sol\":1664:1944  {... */\n      pop\n        /* \"contracts/LiquidityPool.sol\":1621:1944  function getEth(uint256 _DAIAmount) public {... */\n      pop\n      jump\t// out\n        /* \"contracts/LiquidityPool.sol\":630:1052  function provideLiquidity(uint256 _amount) external payable {... */\n    tag_17:\n        /* \"contracts/LiquidityPool.sol\":721:728  _amount */\n      dup1\n        /* \"contracts/LiquidityPool.sol\":708:717  msg.value */\n      callvalue\n        /* \"contracts/LiquidityPool.sol\":708:728  msg.value == _amount */\n      eq\n        /* \"contracts/LiquidityPool.sol\":700:777  require(msg.value == _amount, \"The amount of ETH and tokens should be equal\") */\n      tag_61\n      jumpi\n      mload(0x40)\n      0x08c379a000000000000000000000000000000000000000000000000000000000\n      dup2\n      mstore\n      0x04\n      add\n      tag_62\n      swap1\n      tag_63\n      jump\t// in\n    tag_62:\n      mload(0x40)\n      dup1\n      swap2\n      sub\n      swap1\n      revert\n    tag_61:\n        /* \"contracts/LiquidityPool.sol\":872:884  reserveToken */\n      0x00\n      dup1\n      sload\n      swap1\n      0x0100\n      exp\n      swap1\n      div\n      0xffffffffffffffffffffffffffffffffffffffff\n      and\n        /* \"contracts/LiquidityPool.sol\":865:898  IERC20(reserveToken).transferFrom */\n      0xffffffffffffffffffffffffffffffffffffffff\n      and\n      0x23b872dd\n        /* \"contracts/LiquidityPool.sol\":899:909  msg.sender */\n      caller\n        /* \"contracts/LiquidityPool.sol\":919:923  this */\n      address\n        /* \"contracts/LiquidityPool.sol\":926:933  _amount */\n      dup5\n        /* \"contracts/LiquidityPool.sol\":865:934  IERC20(reserveToken).transferFrom(msg.sender, address(this), _amount) */\n      mload(0x40)\n      dup5\n      0xffffffff\n      and\n      0xe0\n      shl\n      dup2\n      mstore\n      0x04\n      add\n      tag_64\n      swap4\n      swap3\n      swap2\n      swap1\n      tag_50\n      jump\t// in\n    tag_64:\n      0x20\n      mload(0x40)\n      dup1\n      dup4\n      sub\n      dup2\n      0x00\n      dup8\n      dup1\n      extcodesize\n      iszero\n      dup1\n      iszero\n      tag_65\n      jumpi\n      0x00\n      dup1\n      revert\n    tag_65:\n      pop\n      gas\n      call\n      iszero\n      dup1\n      iszero\n      tag_67\n      jumpi\n      returndatasize\n      0x00\n      dup1\n      returndatacopy\n      revert(0x00, returndatasize)\n    tag_67:\n      pop\n      pop\n      pop\n      pop\n      mload(0x40)\n      returndatasize\n      not(0x1f)\n      0x1f\n      dup3\n      add\n      and\n      dup3\n      add\n      dup1\n      0x40\n      mstore\n      pop\n      dup2\n      add\n      swap1\n      tag_68\n      swap2\n      swap1\n      tag_37\n      jump\t// in\n    tag_68:\n      pop\n        /* \"contracts/LiquidityPool.sol\":421:463  0xf5e642e29D6516B2301dFa2Db87A40B4204B8d6B */\n      0xf5e642e29d6516b2301dfa2db87a40b4204b8d6b\n        /* \"contracts/LiquidityPool.sol\":944:971  IERC20(ltrAddress).transfer */\n      0xffffffffffffffffffffffffffffffffffffffff\n      and\n      0xa9059cbb\n        /* \"contracts/LiquidityPool.sol\":972:982  msg.sender */\n      caller\n        /* \"contracts/LiquidityPool.sol\":984:991  _amount */\n      dup4\n        /* \"contracts/LiquidityPool.sol\":944:992  IERC20(ltrAddress).transfer(msg.sender, _amount) */\n      mload(0x40)\n      dup4\n      0xffffffff\n      and\n      0xe0\n      shl\n      dup2\n      mstore\n      0x04\n      add\n      tag_69\n      swap3\n      swap2\n      swap1\n      tag_32\n      jump\t// in\n    tag_69:\n      0x20\n      mload(0x40)\n      dup1\n      dup4\n      sub\n      dup2\n      0x00\n      dup8\n      dup1\n      extcodesize\n      iszero\n      dup1\n      iszero\n      tag_70\n      jumpi\n      0x00\n      dup1\n      revert\n    tag_70:\n      pop\n      gas\n      call\n      iszero\n      dup1\n      iszero\n      tag_72\n      jumpi\n      returndatasize\n      0x00\n      dup1\n      returndatacopy\n      revert(0x00, returndatasize)\n    tag_72:\n      pop\n      pop\n      pop\n      pop\n      mload(0x40)\n      returndatasize\n      not(0x1f)\n      0x1f\n      dup3\n      add\n      and\n      dup3\n      add\n      dup1\n      0x40\n      mstore\n      pop\n      dup2\n      add\n      swap1\n      tag_73\n      swap2\n      swap1\n      tag_37\n      jump\t// in\n    tag_73:\n      pop\n        /* \"contracts/LiquidityPool.sol\":1007:1045  liquidityProvided(msg.sender, _amount) */\n      0xb62268a18d99fe191ac8e62f823ab1eec698609a81b2c8de3dac902896b09da6\n        /* \"contracts/LiquidityPool.sol\":1025:1035  msg.sender */\n      caller\n        /* \"contracts/LiquidityPool.sol\":1037:1044  _amount */\n      dup3\n        /* \"contracts/LiquidityPool.sol\":1007:1045  liquidityProvided(msg.sender, _amount) */\n      mload(0x40)\n      tag_74\n      swap3\n      swap2\n      swap1\n      tag_32\n      jump\t// in\n    tag_74:\n      mload(0x40)\n      dup1\n      swap2\n      sub\n      swap1\n      log1\n        /* \"contracts/LiquidityPool.sol\":630:1052  function provideLiquidity(uint256 _amount) external payable {... */\n      pop\n      jump\t// out\n        /* \"contracts/LiquidityPool.sol\":358:385  address public reserveToken */\n    tag_20:\n      0x00\n      dup1\n      sload\n      swap1\n      0x0100\n      exp\n      swap1\n      div\n      0xffffffffffffffffffffffffffffffffffffffff\n      and\n      dup2\n      jump\t// out\n        /* \"contracts/LiquidityPool.sol\":1058:1615  function reedemShares(uint256 _sharesAmount) public {... */\n    tag_26:\n        /* \"contracts/LiquidityPool.sol\":1144:1145  0 */\n      0x00\n        /* \"contracts/LiquidityPool.sol\":1128:1141  _sharesAmount */\n      dup2\n        /* \"contracts/LiquidityPool.sol\":1128:1145  _sharesAmount > 0 */\n      gt\n        /* \"contracts/LiquidityPool.sol\":1120:1174  require(_sharesAmount > 0, \"Invalid amount of shares\") */\n      tag_76\n      jumpi\n      mload(0x40)\n      0x08c379a000000000000000000000000000000000000000000000000000000000\n      dup2\n      mstore\n      0x04\n      add\n      tag_77\n      swap1\n      tag_78\n      jump\t// in\n    tag_77:\n      mload(0x40)\n      dup1\n      swap2\n      sub\n      swap1\n      revert\n    tag_76:\n        /* \"contracts/LiquidityPool.sol\":1251:1264  _sharesAmount */\n      dup1\n        /* \"contracts/LiquidityPool.sol\":421:463  0xf5e642e29D6516B2301dFa2Db87A40B4204B8d6B */\n      0xf5e642e29d6516b2301dfa2db87a40b4204b8d6b\n        /* \"contracts/LiquidityPool.sol\":1192:1220  IERC20(ltrAddress).allowance */\n      0xffffffffffffffffffffffffffffffffffffffff\n      and\n      0xdd62ed3e\n        /* \"contracts/LiquidityPool.sol\":1221:1231  msg.sender */\n      caller\n        /* \"contracts/LiquidityPool.sol\":1241:1245  this */\n      address\n        /* \"contracts/LiquidityPool.sol\":1192:1247  IERC20(ltrAddress).allowance(msg.sender, address(this)) */\n      mload(0x40)\n      dup4\n      0xffffffff\n      and\n      0xe0\n      shl\n      dup2\n      mstore\n      0x04\n      add\n      tag_79\n      swap3\n      swap2\n      swap1\n      tag_40\n      jump\t// in\n    tag_79:\n      0x20\n      mload(0x40)\n      dup1\n      dup4\n      sub\n      dup2\n      dup7\n      dup1\n      extcodesize\n      iszero\n      dup1\n      iszero\n      tag_80\n      jumpi\n      0x00\n      dup1\n      revert\n    tag_80:\n      pop\n      gas\n      staticcall\n      iszero\n      dup1\n      iszero\n      tag_82\n      jumpi\n      returndatasize\n      0x00\n      dup1\n      returndatacopy\n      revert(0x00, returndatasize)\n    tag_82:\n      pop\n      pop\n      pop\n      pop\n      mload(0x40)\n      returndatasize\n      not(0x1f)\n      0x1f\n      dup3\n      add\n      and\n      dup3\n      add\n      dup1\n      0x40\n      mstore\n      pop\n      dup2\n      add\n      swap1\n      tag_83\n      swap2\n      swap1\n      tag_45\n      jump\t// in\n    tag_83:\n        /* \"contracts/LiquidityPool.sol\":1192:1264  IERC20(ltrAddress).allowance(msg.sender, address(this)) >= _sharesAmount */\n      lt\n      iszero\n        /* \"contracts/LiquidityPool.sol\":1184:1334  require(IERC20(ltrAddress).allowance(msg.sender, address(this)) >= _sharesAmount, \"Please approve the contract to deduct ltr tokens from your wallet\") */\n      tag_84\n      jumpi\n      mload(0x40)\n      0x08c379a000000000000000000000000000000000000000000000000000000000\n      dup2\n      mstore\n      0x04\n      add\n      tag_85\n      swap1\n      tag_86\n      jump\t// in\n    tag_85:\n      mload(0x40)\n      dup1\n      swap2\n      sub\n      swap1\n      revert\n    tag_84:\n        /* \"contracts/LiquidityPool.sol\":421:463  0xf5e642e29D6516B2301dFa2Db87A40B4204B8d6B */\n      0xf5e642e29d6516b2301dfa2db87a40b4204b8d6b\n        /* \"contracts/LiquidityPool.sol\":1345:1376  IERC20(ltrAddress).transferFrom */\n      0xffffffffffffffffffffffffffffffffffffffff\n      and\n      0x23b872dd\n        /* \"contracts/LiquidityPool.sol\":1377:1387  msg.sender */\n      caller\n        /* \"contracts/LiquidityPool.sol\":1397:1401  this */\n      address\n        /* \"contracts/LiquidityPool.sol\":1404:1417  _sharesAmount */\n      dup5\n        /* \"contracts/LiquidityPool.sol\":1345:1418  IERC20(ltrAddress).transferFrom(msg.sender, address(this), _sharesAmount) */\n      mload(0x40)\n      dup5\n      0xffffffff\n      and\n      0xe0\n      shl\n      dup2\n      mstore\n      0x04\n      add\n      tag_87\n      swap4\n      swap3\n      swap2\n      swap1\n      tag_50\n      jump\t// in\n    tag_87:\n      0x20\n      mload(0x40)\n      dup1\n      dup4\n      sub\n      dup2\n      0x00\n      dup8\n      dup1\n      extcodesize\n      iszero\n      dup1\n      iszero\n      tag_88\n      jumpi\n      0x00\n      dup1\n      revert\n    tag_88:\n      pop\n      gas\n      call\n      iszero\n      dup1\n      iszero\n      tag_90\n      jumpi\n      returndatasize\n      0x00\n      dup1\n      returndatacopy\n      revert(0x00, returndatasize)\n    tag_90:\n      pop\n      pop\n      pop\n      pop\n      mload(0x40)\n      returndatasize\n      not(0x1f)\n      0x1f\n      dup3\n      add\n      and\n      dup3\n      add\n      dup1\n      0x40\n      mstore\n      pop\n      dup2\n      add\n      swap1\n      tag_91\n      swap2\n      swap1\n      tag_37\n      jump\t// in\n    tag_91:\n      pop\n        /* \"contracts/LiquidityPool.sol\":1435:1447  reserveToken */\n      0x00\n      dup1\n      sload\n      swap1\n      0x0100\n      exp\n      swap1\n      div\n      0xffffffffffffffffffffffffffffffffffffffff\n      and\n        /* \"contracts/LiquidityPool.sol\":1428:1457  IERC20(reserveToken).transfer */\n      0xffffffffffffffffffffffffffffffffffffffff\n      and\n      0xa9059cbb\n        /* \"contracts/LiquidityPool.sol\":1458:1468  msg.sender */\n      caller\n        /* \"contracts/LiquidityPool.sol\":1470:1483  _sharesAmount */\n      dup4\n        /* \"contracts/LiquidityPool.sol\":1428:1484  IERC20(reserveToken).transfer(msg.sender, _sharesAmount) */\n      mload(0x40)\n      dup4\n      0xffffffff\n      and\n      0xe0\n      shl\n      dup2\n      mstore\n      0x04\n      add\n      tag_92\n      swap3\n      swap2\n      swap1\n      tag_32\n      jump\t// in\n    tag_92:\n      0x20\n      mload(0x40)\n      dup1\n      dup4\n      sub\n      dup2\n      0x00\n      dup8\n      dup1\n      extcodesize\n      iszero\n      dup1\n      iszero\n      tag_93\n      jumpi\n      0x00\n      dup1\n      revert\n    tag_93:\n      pop\n      gas\n      call\n      iszero\n      dup1\n      iszero\n      tag_95\n      jumpi\n      returndatasize\n      0x00\n      dup1\n      returndatacopy\n      revert(0x00, returndatasize)\n    tag_95:\n      pop\n      pop\n      pop\n      pop\n      mload(0x40)\n      returndatasize\n      not(0x1f)\n      0x1f\n      dup3\n      add\n      and\n      dup3\n      add\n      dup1\n      0x40\n      mstore\n      pop\n      dup2\n      add\n      swap1\n      tag_96\n      swap2\n      swap1\n      tag_37\n      jump\t// in\n    tag_96:\n      pop\n        /* \"contracts/LiquidityPool.sol\":1495:1507  bool success */\n      0x00\n        /* \"contracts/LiquidityPool.sol\":1521:1531  msg.sender */\n      caller\n        /* \"contracts/LiquidityPool.sol\":1513:1537  payable(msg.sender).call */\n      0xffffffffffffffffffffffffffffffffffffffff\n      and\n        /* \"contracts/LiquidityPool.sol\":1545:1558  _sharesAmount */\n      dup3\n        /* \"contracts/LiquidityPool.sol\":1513:1563  payable(msg.sender).call{value: _sharesAmount}(\"\") */\n      mload(0x40)\n      tag_97\n      swap1\n      tag_56\n      jump\t// in\n    tag_97:\n      0x00\n      mload(0x40)\n      dup1\n      dup4\n      sub\n      dup2\n      dup6\n      dup8\n      gas\n      call\n      swap3\n      pop\n      pop\n      pop\n      returndatasize\n      dup1\n      0x00\n      dup2\n      eq\n      tag_100\n      jumpi\n      mload(0x40)\n      swap2\n      pop\n      and(add(returndatasize, 0x3f), not(0x1f))\n      dup3\n      add\n      0x40\n      mstore\n      returndatasize\n      dup3\n      mstore\n      returndatasize\n      0x00\n      0x20\n      dup5\n      add\n      returndatacopy\n      jump(tag_99)\n    tag_100:\n      0x60\n      swap2\n      pop\n    tag_99:\n      pop\n        /* \"contracts/LiquidityPool.sol\":1494:1563  (bool success, ) = payable(msg.sender).call{value: _sharesAmount}(\"\") */\n      pop\n      swap1\n      pop\n        /* \"contracts/LiquidityPool.sol\":1581:1588  success */\n      dup1\n        /* \"contracts/LiquidityPool.sol\":1573:1608  require(success, \"Transfer failed\") */\n      tag_101\n      jumpi\n      mload(0x40)\n      0x08c379a000000000000000000000000000000000000000000000000000000000\n      dup2\n      mstore\n      0x04\n      add\n      tag_102\n      swap1\n      tag_103\n      jump\t// in\n    tag_102:\n      mload(0x40)\n      dup1\n      swap2\n      sub\n      swap1\n      revert\n    tag_101:\n        /* \"contracts/LiquidityPool.sol\":1110:1615  {... */\n      pop\n        /* \"contracts/LiquidityPool.sol\":1058:1615  function reedemShares(uint256 _sharesAmount) public {... */\n      pop\n      jump\t// out\n        /* \"#utility.yul\":7:144   */\n    tag_105:\n        /* \"#utility.yul\":61:66   */\n      0x00\n        /* \"#utility.yul\":92:98   */\n      dup2\n        /* \"#utility.yul\":86:99   */\n      mload\n        /* \"#utility.yul\":77:99   */\n      swap1\n      pop\n        /* \"#utility.yul\":108:138   */\n      tag_107\n        /* \"#utility.yul\":132:137   */\n      dup2\n        /* \"#utility.yul\":108:138   */\n      tag_108\n      jump\t// in\n    tag_107:\n        /* \"#utility.yul\":7:144   */\n      swap3\n      swap2\n      pop\n      pop\n      jump\t// out\n        /* \"#utility.yul\":150:289   */\n    tag_109:\n        /* \"#utility.yul\":196:201   */\n      0x00\n        /* \"#utility.yul\":234:240   */\n      dup2\n        /* \"#utility.yul\":221:241   */\n      calldataload\n        /* \"#utility.yul\":212:241   */\n      swap1\n      pop\n        /* \"#utility.yul\":250:283   */\n      tag_111\n        /* \"#utility.yul\":277:282   */\n      dup2\n        /* \"#utility.yul\":250:283   */\n      tag_112\n      jump\t// in\n    tag_111:\n        /* \"#utility.yul\":150:289   */\n      swap3\n      swap2\n      pop\n      pop\n      jump\t// out\n        /* \"#utility.yul\":295:438   */\n    tag_113:\n        /* \"#utility.yul\":352:357   */\n      0x00\n        /* \"#utility.yul\":383:389   */\n      dup2\n        /* \"#utility.yul\":377:390   */\n      mload\n        /* \"#utility.yul\":368:390   */\n      swap1\n      pop\n        /* \"#utility.yul\":399:432   */\n      tag_115\n        /* \"#utility.yul\":426:431   */\n      dup2\n        /* \"#utility.yul\":399:432   */\n      tag_112\n      jump\t// in\n    tag_115:\n        /* \"#utility.yul\":295:438   */\n      swap3\n      swap2\n      pop\n      pop\n      jump\t// out\n        /* \"#utility.yul\":444:789   */\n    tag_37:\n        /* \"#utility.yul\":511:517   */\n      0x00\n        /* \"#utility.yul\":560:562   */\n      0x20\n        /* \"#utility.yul\":548:557   */\n      dup3\n        /* \"#utility.yul\":539:546   */\n      dup5\n        /* \"#utility.yul\":535:558   */\n      sub\n        /* \"#utility.yul\":531:563   */\n      slt\n        /* \"#utility.yul\":528:647   */\n      iszero\n      tag_117\n      jumpi\n        /* \"#utility.yul\":566:645   */\n      tag_118\n      tag_119\n      jump\t// in\n    tag_118:\n        /* \"#utility.yul\":528:647   */\n    tag_117:\n        /* \"#utility.yul\":686:687   */\n      0x00\n        /* \"#utility.yul\":711:772   */\n      tag_120\n        /* \"#utility.yul\":764:771   */\n      dup5\n        /* \"#utility.yul\":755:761   */\n      dup3\n        /* \"#utility.yul\":744:753   */\n      dup6\n        /* \"#utility.yul\":740:762   */\n      add\n        /* \"#utility.yul\":711:772   */\n      tag_105\n      jump\t// in\n    tag_120:\n        /* \"#utility.yul\":701:772   */\n      swap2\n      pop\n        /* \"#utility.yul\":657:782   */\n      pop\n        /* \"#utility.yul\":444:789   */\n      swap3\n      swap2\n      pop\n      pop\n      jump\t// out\n        /* \"#utility.yul\":795:1124   */\n    tag_9:\n        /* \"#utility.yul\":854:860   */\n      0x00\n        /* \"#utility.yul\":903:905   */\n      0x20\n        /* \"#utility.yul\":891:900   */\n      dup3\n        /* \"#utility.yul\":882:889   */\n      dup5\n        /* \"#utility.yul\":878:901   */\n      sub\n        /* \"#utility.yul\":874:906   */\n      slt\n        /* \"#utility.yul\":871:990   */\n      iszero\n      tag_122\n      jumpi\n        /* \"#utility.yul\":909:988   */\n      tag_123\n      tag_119\n      jump\t// in\n    tag_123:\n        /* \"#utility.yul\":871:990   */\n    tag_122:\n        /* \"#utility.yul\":1029:1030   */\n      0x00\n        /* \"#utility.yul\":1054:1107   */\n      tag_124\n        /* \"#utility.yul\":1099:1106   */\n      dup5\n        /* \"#utility.yul\":1090:1096   */\n      dup3\n        /* \"#utility.yul\":1079:1088   */\n      dup6\n        /* \"#utility.yul\":1075:1097   */\n      add\n        /* \"#utility.yul\":1054:1107   */\n      tag_109\n      jump\t// in\n    tag_124:\n        /* \"#utility.yul\":1044:1107   */\n      swap2\n      pop\n        /* \"#utility.yul\":1000:1117   */\n      pop\n        /* \"#utility.yul\":795:1124   */\n      swap3\n      swap2\n      pop\n      pop\n      jump\t// out\n        /* \"#utility.yul\":1130:1481   */\n    tag_45:\n        /* \"#utility.yul\":1200:1206   */\n      0x00\n        /* \"#utility.yul\":1249:1251   */\n      0x20\n        /* \"#utility.yul\":1237:1246   */\n      dup3\n        /* \"#utility.yul\":1228:1235   */\n      dup5\n        /* \"#utility.yul\":1224:1247   */\n      sub\n        /* \"#utility.yul\":1220:1252   */\n      slt\n        /* \"#utility.yul\":1217:1336   */\n      iszero\n      tag_126\n      jumpi\n        /* \"#utility.yul\":1255:1334   */\n      tag_127\n      tag_119\n      jump\t// in\n    tag_127:\n        /* \"#utility.yul\":1217:1336   */\n    tag_126:\n        /* \"#utility.yul\":1375:1376   */\n      0x00\n        /* \"#utility.yul\":1400:1464   */\n      tag_128\n        /* \"#utility.yul\":1456:1463   */\n      dup5\n        /* \"#utility.yul\":1447:1453   */\n      dup3\n        /* \"#utility.yul\":1436:1445   */\n      dup6\n        /* \"#utility.yul\":1432:1454   */\n      add\n        /* \"#utility.yul\":1400:1464   */\n      tag_113\n      jump\t// in\n    tag_128:\n        /* \"#utility.yul\":1390:1464   */\n      swap2\n      pop\n        /* \"#utility.yul\":1346:1474   */\n      pop\n        /* \"#utility.yul\":1130:1481   */\n      swap3\n      swap2\n      pop\n      pop\n      jump\t// out\n        /* \"#utility.yul\":1487:1605   */\n    tag_129:\n        /* \"#utility.yul\":1574:1598   */\n      tag_131\n        /* \"#utility.yul\":1592:1597   */\n      dup2\n        /* \"#utility.yul\":1574:1598   */\n      tag_132\n      jump\t// in\n    tag_131:\n        /* \"#utility.yul\":1569:1572   */\n      dup3\n        /* \"#utility.yul\":1562:1599   */\n      mstore\n        /* \"#utility.yul\":1487:1605   */\n      pop\n      pop\n      jump\t// out\n        /* \"#utility.yul\":1611:1977   */\n    tag_133:\n        /* \"#utility.yul\":1753:1756   */\n      0x00\n        /* \"#utility.yul\":1774:1841   */\n      tag_135\n        /* \"#utility.yul\":1838:1840   */\n      0x18\n        /* \"#utility.yul\":1833:1836   */\n      dup4\n        /* \"#utility.yul\":1774:1841   */\n      tag_136\n      jump\t// in\n    tag_135:\n        /* \"#utility.yul\":1767:1841   */\n      swap2\n      pop\n        /* \"#utility.yul\":1850:1943   */\n      tag_137\n        /* \"#utility.yul\":1939:1942   */\n      dup3\n        /* \"#utility.yul\":1850:1943   */\n      tag_138\n      jump\t// in\n    tag_137:\n        /* \"#utility.yul\":1968:1970   */\n      0x20\n        /* \"#utility.yul\":1963:1966   */\n      dup3\n        /* \"#utility.yul\":1959:1971   */\n      add\n        /* \"#utility.yul\":1952:1971   */\n      swap1\n      pop\n        /* \"#utility.yul\":1611:1977   */\n      swap2\n      swap1\n      pop\n      jump\t// out\n        /* \"#utility.yul\":1983:2349   */\n    tag_139:\n        /* \"#utility.yul\":2125:2128   */\n      0x00\n        /* \"#utility.yul\":2146:2213   */\n      tag_141\n        /* \"#utility.yul\":2210:2212   */\n      0x0f\n        /* \"#utility.yul\":2205:2208   */\n      dup4\n        /* \"#utility.yul\":2146:2213   */\n      tag_136\n      jump\t// in\n    tag_141:\n        /* \"#utility.yul\":2139:2213   */\n      swap2\n      pop\n        /* \"#utility.yul\":2222:2315   */\n      tag_142\n        /* \"#utility.yul\":2311:2314   */\n      dup3\n        /* \"#utility.yul\":2222:2315   */\n      tag_143\n      jump\t// in\n    tag_142:\n        /* \"#utility.yul\":2340:2342   */\n      0x20\n        /* \"#utility.yul\":2335:2338   */\n      dup3\n        /* \"#utility.yul\":2331:2343   */\n      add\n        /* \"#utility.yul\":2324:2343   */\n      swap1\n      pop\n        /* \"#utility.yul\":1983:2349   */\n      swap2\n      swap1\n      pop\n      jump\t// out\n        /* \"#utility.yul\":2355:2721   */\n    tag_144:\n        /* \"#utility.yul\":2497:2500   */\n      0x00\n        /* \"#utility.yul\":2518:2585   */\n      tag_146\n        /* \"#utility.yul\":2582:2584   */\n      0x0e\n        /* \"#utility.yul\":2577:2580   */\n      dup4\n        /* \"#utility.yul\":2518:2585   */\n      tag_136\n      jump\t// in\n    tag_146:\n        /* \"#utility.yul\":2511:2585   */\n      swap2\n      pop\n        /* \"#utility.yul\":2594:2687   */\n      tag_147\n        /* \"#utility.yul\":2683:2686   */\n      dup3\n        /* \"#utility.yul\":2594:2687   */\n      tag_148\n      jump\t// in\n    tag_147:\n        /* \"#utility.yul\":2712:2714   */\n      0x20\n        /* \"#utility.yul\":2707:2710   */\n      dup3\n        /* \"#utility.yul\":2703:2715   */\n      add\n        /* \"#utility.yul\":2696:2715   */\n      swap1\n      pop\n        /* \"#utility.yul\":2355:2721   */\n      swap2\n      swap1\n      pop\n      jump\t// out\n        /* \"#utility.yul\":2727:3093   */\n    tag_149:\n        /* \"#utility.yul\":2869:2872   */\n      0x00\n        /* \"#utility.yul\":2890:2957   */\n      tag_151\n        /* \"#utility.yul\":2954:2956   */\n      0x15\n        /* \"#utility.yul\":2949:2952   */\n      dup4\n        /* \"#utility.yul\":2890:2957   */\n      tag_136\n      jump\t// in\n    tag_151:\n        /* \"#utility.yul\":2883:2957   */\n      swap2\n      pop\n        /* \"#utility.yul\":2966:3059   */\n      tag_152\n        /* \"#utility.yul\":3055:3058   */\n      dup3\n        /* \"#utility.yul\":2966:3059   */\n      tag_153\n      jump\t// in\n    tag_152:\n        /* \"#utility.yul\":3084:3086   */\n      0x20\n        /* \"#utility.yul\":3079:3082   */\n      dup3\n        /* \"#utility.yul\":3075:3087   */\n      add\n        /* \"#utility.yul\":3068:3087   */\n      swap1\n      pop\n        /* \"#utility.yul\":2727:3093   */\n      swap2\n      swap1\n      pop\n      jump\t// out\n        /* \"#utility.yul\":3099:3465   */\n    tag_154:\n        /* \"#utility.yul\":3241:3244   */\n      0x00\n        /* \"#utility.yul\":3262:3329   */\n      tag_156\n        /* \"#utility.yul\":3326:3328   */\n      0x41\n        /* \"#utility.yul\":3321:3324   */\n      dup4\n        /* \"#utility.yul\":3262:3329   */\n      tag_136\n      jump\t// in\n    tag_156:\n        /* \"#utility.yul\":3255:3329   */\n      swap2\n      pop\n        /* \"#utility.yul\":3338:3431   */\n      tag_157\n        /* \"#utility.yul\":3427:3430   */\n      dup3\n        /* \"#utility.yul\":3338:3431   */\n      tag_158\n      jump\t// in\n    tag_157:\n        /* \"#utility.yul\":3456:3458   */\n      0x60\n        /* \"#utility.yul\":3451:3454   */\n      dup3\n        /* \"#utility.yul\":3447:3459   */\n      add\n        /* \"#utility.yul\":3440:3459   */\n      swap1\n      pop\n        /* \"#utility.yul\":3099:3465   */\n      swap2\n      swap1\n      pop\n      jump\t// out\n        /* \"#utility.yul\":3471:3869   */\n    tag_159:\n        /* \"#utility.yul\":3630:3633   */\n      0x00\n        /* \"#utility.yul\":3651:3734   */\n      tag_161\n        /* \"#utility.yul\":3732:3733   */\n      0x00\n        /* \"#utility.yul\":3727:3730   */\n      dup4\n        /* \"#utility.yul\":3651:3734   */\n      tag_162\n      jump\t// in\n    tag_161:\n        /* \"#utility.yul\":3644:3734   */\n      swap2\n      pop\n        /* \"#utility.yul\":3743:3836   */\n      tag_163\n        /* \"#utility.yul\":3832:3835   */\n      dup3\n        /* \"#utility.yul\":3743:3836   */\n      tag_164\n      jump\t// in\n    tag_163:\n        /* \"#utility.yul\":3861:3862   */\n      0x00\n        /* \"#utility.yul\":3856:3859   */\n      dup3\n        /* \"#utility.yul\":3852:3863   */\n      add\n        /* \"#utility.yul\":3845:3863   */\n      swap1\n      pop\n        /* \"#utility.yul\":3471:3869   */\n      swap2\n      swap1\n      pop\n      jump\t// out\n        /* \"#utility.yul\":3875:4241   */\n    tag_165:\n        /* \"#utility.yul\":4017:4020   */\n      0x00\n        /* \"#utility.yul\":4038:4105   */\n      tag_167\n        /* \"#utility.yul\":4102:4104   */\n      0x2c\n        /* \"#utility.yul\":4097:4100   */\n      dup4\n        /* \"#utility.yul\":4038:4105   */\n      tag_136\n      jump\t// in\n    tag_167:\n        /* \"#utility.yul\":4031:4105   */\n      swap2\n      pop\n        /* \"#utility.yul\":4114:4207   */\n      tag_168\n        /* \"#utility.yul\":4203:4206   */\n      dup3\n        /* \"#utility.yul\":4114:4207   */\n      tag_169\n      jump\t// in\n    tag_168:\n        /* \"#utility.yul\":4232:4234   */\n      0x40\n        /* \"#utility.yul\":4227:4230   */\n      dup3\n        /* \"#utility.yul\":4223:4235   */\n      add\n        /* \"#utility.yul\":4216:4235   */\n      swap1\n      pop\n        /* \"#utility.yul\":3875:4241   */\n      swap2\n      swap1\n      pop\n      jump\t// out\n        /* \"#utility.yul\":4247:4365   */\n    tag_170:\n        /* \"#utility.yul\":4334:4358   */\n      tag_172\n        /* \"#utility.yul\":4352:4357   */\n      dup2\n        /* \"#utility.yul\":4334:4358   */\n      tag_173\n      jump\t// in\n    tag_172:\n        /* \"#utility.yul\":4329:4332   */\n      dup3\n        /* \"#utility.yul\":4322:4359   */\n      mstore\n        /* \"#utility.yul\":4247:4365   */\n      pop\n      pop\n      jump\t// out\n        /* \"#utility.yul\":4371:4750   */\n    tag_56:\n        /* \"#utility.yul\":4555:4558   */\n      0x00\n        /* \"#utility.yul\":4577:4724   */\n      tag_175\n        /* \"#utility.yul\":4720:4723   */\n      dup3\n        /* \"#utility.yul\":4577:4724   */\n      tag_159\n      jump\t// in\n    tag_175:\n        /* \"#utility.yul\":4570:4724   */\n      swap2\n      pop\n        /* \"#utility.yul\":4741:4744   */\n      dup2\n        /* \"#utility.yul\":4734:4744   */\n      swap1\n      pop\n        /* \"#utility.yul\":4371:4750   */\n      swap2\n      swap1\n      pop\n      jump\t// out\n        /* \"#utility.yul\":4756:4978   */\n    tag_22:\n        /* \"#utility.yul\":4849:4853   */\n      0x00\n        /* \"#utility.yul\":4887:4889   */\n      0x20\n        /* \"#utility.yul\":4876:4885   */\n      dup3\n        /* \"#utility.yul\":4872:4890   */\n      add\n        /* \"#utility.yul\":4864:4890   */\n      swap1\n      pop\n        /* \"#utility.yul\":4900:4971   */\n      tag_177\n        /* \"#utility.yul\":4968:4969   */\n      0x00\n        /* \"#utility.yul\":4957:4966   */\n      dup4\n        /* \"#utility.yul\":4953:4970   */\n      add\n        /* \"#utility.yul\":4944:4950   */\n      dup5\n        /* \"#utility.yul\":4900:4971   */\n      tag_129\n      jump\t// in\n    tag_177:\n        /* \"#utility.yul\":4756:4978   */\n      swap3\n      swap2\n      pop\n      pop\n      jump\t// out\n        /* \"#utility.yul\":4984:5316   */\n    tag_40:\n        /* \"#utility.yul\":5105:5109   */\n      0x00\n        /* \"#utility.yul\":5143:5145   */\n      0x40\n        /* \"#utility.yul\":5132:5141   */\n      dup3\n        /* \"#utility.yul\":5128:5146   */\n      add\n        /* \"#utility.yul\":5120:5146   */\n      swap1\n      pop\n        /* \"#utility.yul\":5156:5227   */\n      tag_179\n        /* \"#utility.yul\":5224:5225   */\n      0x00\n        /* \"#utility.yul\":5213:5222   */\n      dup4\n        /* \"#utility.yul\":5209:5226   */\n      add\n        /* \"#utility.yul\":5200:5206   */\n      dup6\n        /* \"#utility.yul\":5156:5227   */\n      tag_129\n      jump\t// in\n    tag_179:\n        /* \"#utility.yul\":5237:5309   */\n      tag_180\n        /* \"#utility.yul\":5305:5307   */\n      0x20\n        /* \"#utility.yul\":5294:5303   */\n      dup4\n        /* \"#utility.yul\":5290:5308   */\n      add\n        /* \"#utility.yul\":5281:5287   */\n      dup5\n        /* \"#utility.yul\":5237:5309   */\n      tag_129\n      jump\t// in\n    tag_180:\n        /* \"#utility.yul\":4984:5316   */\n      swap4\n      swap3\n      pop\n      pop\n      pop\n      jump\t// out\n        /* \"#utility.yul\":5322:5764   */\n    tag_50:\n        /* \"#utility.yul\":5471:5475   */\n      0x00\n        /* \"#utility.yul\":5509:5511   */\n      0x60\n        /* \"#utility.yul\":5498:5507   */\n      dup3\n        /* \"#utility.yul\":5494:5512   */\n      add\n        /* \"#utility.yul\":5486:5512   */\n      swap1\n      pop\n        /* \"#utility.yul\":5522:5593   */\n      tag_182\n        /* \"#utility.yul\":5590:5591   */\n      0x00\n        /* \"#utility.yul\":5579:5588   */\n      dup4\n        /* \"#utility.yul\":5575:5592   */\n      add\n        /* \"#utility.yul\":5566:5572   */\n      dup7\n        /* \"#utility.yul\":5522:5593   */\n      tag_129\n      jump\t// in\n    tag_182:\n        /* \"#utility.yul\":5603:5675   */\n      tag_183\n        /* \"#utility.yul\":5671:5673   */\n      0x20\n        /* \"#utility.yul\":5660:5669   */\n      dup4\n        /* \"#utility.yul\":5656:5674   */\n      add\n        /* \"#utility.yul\":5647:5653   */\n      dup6\n        /* \"#utility.yul\":5603:5675   */\n      tag_129\n      jump\t// in\n    tag_183:\n        /* \"#utility.yul\":5685:5757   */\n      tag_184\n        /* \"#utility.yul\":5753:5755   */\n      0x40\n        /* \"#utility.yul\":5742:5751   */\n      dup4\n        /* \"#utility.yul\":5738:5756   */\n      add\n        /* \"#utility.yul\":5729:5735   */\n      dup5\n        /* \"#utility.yul\":5685:5757   */\n      tag_170\n      jump\t// in\n    tag_184:\n        /* \"#utility.yul\":5322:5764   */\n      swap5\n      swap4\n      pop\n      pop\n      pop\n      pop\n      jump\t// out\n        /* \"#utility.yul\":5770:6102   */\n    tag_32:\n        /* \"#utility.yul\":5891:5895   */\n      0x00\n        /* \"#utility.yul\":5929:5931   */\n      0x40\n        /* \"#utility.yul\":5918:5927   */\n      dup3\n        /* \"#utility.yul\":5914:5932   */\n      add\n        /* \"#utility.yul\":5906:5932   */\n      swap1\n      pop\n        /* \"#utility.yul\":5942:6013   */\n      tag_186\n        /* \"#utility.yul\":6010:6011   */\n      0x00\n        /* \"#utility.yul\":5999:6008   */\n      dup4\n        /* \"#utility.yul\":5995:6012   */\n      add\n        /* \"#utility.yul\":5986:5992   */\n      dup6\n        /* \"#utility.yul\":5942:6013   */\n      tag_129\n      jump\t// in\n    tag_186:\n        /* \"#utility.yul\":6023:6095   */\n      tag_187\n        /* \"#utility.yul\":6091:6093   */\n      0x20\n        /* \"#utility.yul\":6080:6089   */\n      dup4\n        /* \"#utility.yul\":6076:6094   */\n      add\n        /* \"#utility.yul\":6067:6073   */\n      dup5\n        /* \"#utility.yul\":6023:6095   */\n      tag_170\n      jump\t// in\n    tag_187:\n        /* \"#utility.yul\":5770:6102   */\n      swap4\n      swap3\n      pop\n      pop\n      pop\n      jump\t// out\n        /* \"#utility.yul\":6108:6527   */\n    tag_78:\n        /* \"#utility.yul\":6274:6278   */\n      0x00\n        /* \"#utility.yul\":6312:6314   */\n      0x20\n        /* \"#utility.yul\":6301:6310   */\n      dup3\n        /* \"#utility.yul\":6297:6315   */\n      add\n        /* \"#utility.yul\":6289:6315   */\n      swap1\n      pop\n        /* \"#utility.yul\":6361:6370   */\n      dup2\n        /* \"#utility.yul\":6355:6359   */\n      dup2\n        /* \"#utility.yul\":6351:6371   */\n      sub\n        /* \"#utility.yul\":6347:6348   */\n      0x00\n        /* \"#utility.yul\":6336:6345   */\n      dup4\n        /* \"#utility.yul\":6332:6349   */\n      add\n        /* \"#utility.yul\":6325:6372   */\n      mstore\n        /* \"#utility.yul\":6389:6520   */\n      tag_189\n        /* \"#utility.yul\":6515:6519   */\n      dup2\n        /* \"#utility.yul\":6389:6520   */\n      tag_133\n      jump\t// in\n    tag_189:\n        /* \"#utility.yul\":6381:6520   */\n      swap1\n      pop\n        /* \"#utility.yul\":6108:6527   */\n      swap2\n      swap1\n      pop\n      jump\t// out\n        /* \"#utility.yul\":6533:6952   */\n    tag_103:\n        /* \"#utility.yul\":6699:6703   */\n      0x00\n        /* \"#utility.yul\":6737:6739   */\n      0x20\n        /* \"#utility.yul\":6726:6735   */\n      dup3\n        /* \"#utility.yul\":6722:6740   */\n      add\n        /* \"#utility.yul\":6714:6740   */\n      swap1\n      pop\n        /* \"#utility.yul\":6786:6795   */\n      dup2\n        /* \"#utility.yul\":6780:6784   */\n      dup2\n        /* \"#utility.yul\":6776:6796   */\n      sub\n        /* \"#utility.yul\":6772:6773   */\n      0x00\n        /* \"#utility.yul\":6761:6770   */\n      dup4\n        /* \"#utility.yul\":6757:6774   */\n      add\n        /* \"#utility.yul\":6750:6797   */\n      mstore\n        /* \"#utility.yul\":6814:6945   */\n      tag_191\n        /* \"#utility.yul\":6940:6944   */\n      dup2\n        /* \"#utility.yul\":6814:6945   */\n      tag_139\n      jump\t// in\n    tag_191:\n        /* \"#utility.yul\":6806:6945   */\n      swap1\n      pop\n        /* \"#utility.yul\":6533:6952   */\n      swap2\n      swap1\n      pop\n      jump\t// out\n        /* \"#utility.yul\":6958:7377   */\n    tag_30:\n        /* \"#utility.yul\":7124:7128   */\n      0x00\n        /* \"#utility.yul\":7162:7164   */\n      0x20\n        /* \"#utility.yul\":7151:7160   */\n      dup3\n        /* \"#utility.yul\":7147:7165   */\n      add\n        /* \"#utility.yul\":7139:7165   */\n      swap1\n      pop\n        /* \"#utility.yul\":7211:7220   */\n      dup2\n        /* \"#utility.yul\":7205:7209   */\n      dup2\n        /* \"#utility.yul\":7201:7221   */\n      sub\n        /* \"#utility.yul\":7197:7198   */\n      0x00\n        /* \"#utility.yul\":7186:7195   */\n      dup4\n        /* \"#utility.yul\":7182:7199   */\n      add\n        /* \"#utility.yul\":7175:7222   */\n      mstore\n        /* \"#utility.yul\":7239:7370   */\n      tag_193\n        /* \"#utility.yul\":7365:7369   */\n      dup2\n        /* \"#utility.yul\":7239:7370   */\n      tag_144\n      jump\t// in\n    tag_193:\n        /* \"#utility.yul\":7231:7370   */\n      swap1\n      pop\n        /* \"#utility.yul\":6958:7377   */\n      swap2\n      swap1\n      pop\n      jump\t// out\n        /* \"#utility.yul\":7383:7802   */\n    tag_48:\n        /* \"#utility.yul\":7549:7553   */\n      0x00\n        /* \"#utility.yul\":7587:7589   */\n      0x20\n        /* \"#utility.yul\":7576:7585   */\n      dup3\n        /* \"#utility.yul\":7572:7590   */\n      add\n        /* \"#utility.yul\":7564:7590   */\n      swap1\n      pop\n        /* \"#utility.yul\":7636:7645   */\n      dup2\n        /* \"#utility.yul\":7630:7634   */\n      dup2\n        /* \"#utility.yul\":7626:7646   */\n      sub\n        /* \"#utility.yul\":7622:7623   */\n      0x00\n        /* \"#utility.yul\":7611:7620   */\n      dup4\n        /* \"#utility.yul\":7607:7624   */\n      add\n        /* \"#utility.yul\":7600:7647   */\n      mstore\n        /* \"#utility.yul\":7664:7795   */\n      tag_195\n        /* \"#utility.yul\":7790:7794   */\n      dup2\n        /* \"#utility.yul\":7664:7795   */\n      tag_149\n      jump\t// in\n    tag_195:\n        /* \"#utility.yul\":7656:7795   */\n      swap1\n      pop\n        /* \"#utility.yul\":7383:7802   */\n      swap2\n      swap1\n      pop\n      jump\t// out\n        /* \"#utility.yul\":7808:8227   */\n    tag_86:\n        /* \"#utility.yul\":7974:7978   */\n      0x00\n        /* \"#utility.yul\":8012:8014   */\n      0x20\n        /* \"#utility.yul\":8001:8010   */\n      dup3\n        /* \"#utility.yul\":7997:8015   */\n      add\n        /* \"#utility.yul\":7989:8015   */\n      swap1\n      pop\n        /* \"#utility.yul\":8061:8070   */\n      dup2\n        /* \"#utility.yul\":8055:8059   */\n      dup2\n        /* \"#utility.yul\":8051:8071   */\n      sub\n        /* \"#utility.yul\":8047:8048   */\n      0x00\n        /* \"#utility.yul\":8036:8045   */\n      dup4\n        /* \"#utility.yul\":8032:8049   */\n      add\n        /* \"#utility.yul\":8025:8072   */\n      mstore\n        /* \"#utility.yul\":8089:8220   */\n      tag_197\n        /* \"#utility.yul\":8215:8219   */\n      dup2\n        /* \"#utility.yul\":8089:8220   */\n      tag_154\n      jump\t// in\n    tag_197:\n        /* \"#utility.yul\":8081:8220   */\n      swap1\n      pop\n        /* \"#utility.yul\":7808:8227   */\n      swap2\n      swap1\n      pop\n      jump\t// out\n        /* \"#utility.yul\":8233:8652   */\n    tag_63:\n        /* \"#utility.yul\":8399:8403   */\n      0x00\n        /* \"#utility.yul\":8437:8439   */\n      0x20\n        /* \"#utility.yul\":8426:8435   */\n      dup3\n        /* \"#utility.yul\":8422:8440   */\n      add\n        /* \"#utility.yul\":8414:8440   */\n      swap1\n      pop\n        /* \"#utility.yul\":8486:8495   */\n      dup2\n        /* \"#utility.yul\":8480:8484   */\n      dup2\n        /* \"#utility.yul\":8476:8496   */\n      sub\n        /* \"#utility.yul\":8472:8473   */\n      0x00\n        /* \"#utility.yul\":8461:8470   */\n      dup4\n        /* \"#utility.yul\":8457:8474   */\n      add\n        /* \"#utility.yul\":8450:8497   */\n      mstore\n        /* \"#utility.yul\":8514:8645   */\n      tag_199\n        /* \"#utility.yul\":8640:8644   */\n      dup2\n        /* \"#utility.yul\":8514:8645   */\n      tag_165\n      jump\t// in\n    tag_199:\n        /* \"#utility.yul\":8506:8645   */\n      swap1\n      pop\n        /* \"#utility.yul\":8233:8652   */\n      swap2\n      swap1\n      pop\n      jump\t// out\n        /* \"#utility.yul\":8739:8886   */\n    tag_162:\n        /* \"#utility.yul\":8840:8851   */\n      0x00\n        /* \"#utility.yul\":8877:8880   */\n      dup2\n        /* \"#utility.yul\":8862:8880   */\n      swap1\n      pop\n        /* \"#utility.yul\":8739:8886   */\n      swap3\n      swap2\n      pop\n      pop\n      jump\t// out\n        /* \"#utility.yul\":8892:9061   */\n    tag_136:\n        /* \"#utility.yul\":8976:8987   */\n      0x00\n        /* \"#utility.yul\":9010:9016   */\n      dup3\n        /* \"#utility.yul\":9005:9008   */\n      dup3\n        /* \"#utility.yul\":8998:9017   */\n      mstore\n        /* \"#utility.yul\":9050:9054   */\n      0x20\n        /* \"#utility.yul\":9045:9048   */\n      dup3\n        /* \"#utility.yul\":9041:9055   */\n      add\n        /* \"#utility.yul\":9026:9055   */\n      swap1\n      pop\n        /* \"#utility.yul\":8892:9061   */\n      swap3\n      swap2\n      pop\n      pop\n      jump\t// out\n        /* \"#utility.yul\":9067:9163   */\n    tag_132:\n        /* \"#utility.yul\":9104:9111   */\n      0x00\n        /* \"#utility.yul\":9133:9157   */\n      tag_205\n        /* \"#utility.yul\":9151:9156   */\n      dup3\n        /* \"#utility.yul\":9133:9157   */\n      tag_206\n      jump\t// in\n    tag_205:\n        /* \"#utility.yul\":9122:9157   */\n      swap1\n      pop\n        /* \"#utility.yul\":9067:9163   */\n      swap2\n      swap1\n      pop\n      jump\t// out\n        /* \"#utility.yul\":9169:9259   */\n    tag_207:\n        /* \"#utility.yul\":9203:9210   */\n      0x00\n        /* \"#utility.yul\":9246:9251   */\n      dup2\n        /* \"#utility.yul\":9239:9252   */\n      iszero\n        /* \"#utility.yul\":9232:9253   */\n      iszero\n        /* \"#utility.yul\":9221:9253   */\n      swap1\n      pop\n        /* \"#utility.yul\":9169:9259   */\n      swap2\n      swap1\n      pop\n      jump\t// out\n        /* \"#utility.yul\":9265:9391   */\n    tag_206:\n        /* \"#utility.yul\":9302:9309   */\n      0x00\n        /* \"#utility.yul\":9342:9384   */\n      0xffffffffffffffffffffffffffffffffffffffff\n        /* \"#utility.yul\":9335:9340   */\n      dup3\n        /* \"#utility.yul\":9331:9385   */\n      and\n        /* \"#utility.yul\":9320:9385   */\n      swap1\n      pop\n        /* \"#utility.yul\":9265:9391   */\n      swap2\n      swap1\n      pop\n      jump\t// out\n        /* \"#utility.yul\":9397:9474   */\n    tag_173:\n        /* \"#utility.yul\":9434:9441   */\n      0x00\n        /* \"#utility.yul\":9463:9468   */\n      dup2\n        /* \"#utility.yul\":9452:9468   */\n      swap1\n      pop\n        /* \"#utility.yul\":9397:9474   */\n      swap2\n      swap1\n      pop\n      jump\t// out\n        /* \"#utility.yul\":9603:9720   */\n    tag_119:\n        /* \"#utility.yul\":9712:9713   */\n      0x00\n        /* \"#utility.yul\":9709:9710   */\n      dup1\n        /* \"#utility.yul\":9702:9714   */\n      revert\n        /* \"#utility.yul\":9726:9900   */\n    tag_138:\n        /* \"#utility.yul\":9866:9892   */\n      0x496e76616c696420616d6f756e74206f66207368617265730000000000000000\n        /* \"#utility.yul\":9862:9863   */\n      0x00\n        /* \"#utility.yul\":9854:9860   */\n      dup3\n        /* \"#utility.yul\":9850:9864   */\n      add\n        /* \"#utility.yul\":9843:9893   */\n      mstore\n        /* \"#utility.yul\":9726:9900   */\n      pop\n      jump\t// out\n        /* \"#utility.yul\":9906:10071   */\n    tag_143:\n        /* \"#utility.yul\":10046:10063   */\n      0x5472616e73666572206661696c65640000000000000000000000000000000000\n        /* \"#utility.yul\":10042:10043   */\n      0x00\n        /* \"#utility.yul\":10034:10040   */\n      dup3\n        /* \"#utility.yul\":10030:10044   */\n      add\n        /* \"#utility.yul\":10023:10064   */\n      mstore\n        /* \"#utility.yul\":9906:10071   */\n      pop\n      jump\t// out\n        /* \"#utility.yul\":10077:10241   */\n    tag_148:\n        /* \"#utility.yul\":10217:10233   */\n      0x496e76616c696420616d6f756e74000000000000000000000000000000000000\n        /* \"#utility.yul\":10213:10214   */\n      0x00\n        /* \"#utility.yul\":10205:10211   */\n      dup3\n        /* \"#utility.yul\":10201:10215   */\n      add\n        /* \"#utility.yul\":10194:10234   */\n      mstore\n        /* \"#utility.yul\":10077:10241   */\n      pop\n      jump\t// out\n        /* \"#utility.yul\":10247:10418   */\n    tag_153:\n        /* \"#utility.yul\":10387:10410   */\n      0x436f6e7472616374206e6f7420617070726f7665640000000000000000000000\n        /* \"#utility.yul\":10383:10384   */\n      0x00\n        /* \"#utility.yul\":10375:10381   */\n      dup3\n        /* \"#utility.yul\":10371:10385   */\n      add\n        /* \"#utility.yul\":10364:10411   */\n      mstore\n        /* \"#utility.yul\":10247:10418   */\n      pop\n      jump\t// out\n        /* \"#utility.yul\":10424:10713   */\n    tag_158:\n        /* \"#utility.yul\":10564:10598   */\n      0x506c6561736520617070726f76652074686520636f6e747261637420746f2064\n        /* \"#utility.yul\":10560:10561   */\n      0x00\n        /* \"#utility.yul\":10552:10558   */\n      dup3\n        /* \"#utility.yul\":10548:10562   */\n      add\n        /* \"#utility.yul\":10541:10599   */\n      mstore\n        /* \"#utility.yul\":10633:10667   */\n      0x6564756374206c747220746f6b656e732066726f6d20796f75722077616c6c65\n        /* \"#utility.yul\":10628:10630   */\n      0x20\n        /* \"#utility.yul\":10620:10626   */\n      dup3\n        /* \"#utility.yul\":10616:10631   */\n      add\n        /* \"#utility.yul\":10609:10668   */\n      mstore\n        /* \"#utility.yul\":10702:10705   */\n      0x7400000000000000000000000000000000000000000000000000000000000000\n        /* \"#utility.yul\":10697:10699   */\n      0x40\n        /* \"#utility.yul\":10689:10695   */\n      dup3\n        /* \"#utility.yul\":10685:10700   */\n      add\n        /* \"#utility.yul\":10678:10706   */\n      mstore\n        /* \"#utility.yul\":10424:10713   */\n      pop\n      jump\t// out\n        /* \"#utility.yul\":10719:10833   */\n    tag_164:\n      pop\n      jump\t// out\n        /* \"#utility.yul\":10839:11070   */\n    tag_169:\n        /* \"#utility.yul\":10979:11013   */\n      0x54686520616d6f756e74206f662045544820616e6420746f6b656e732073686f\n        /* \"#utility.yul\":10975:10976   */\n      0x00\n        /* \"#utility.yul\":10967:10973   */\n      dup3\n        /* \"#utility.yul\":10963:10977   */\n      add\n        /* \"#utility.yul\":10956:11014   */\n      mstore\n        /* \"#utility.yul\":11048:11062   */\n      0x756c6420626520657175616c0000000000000000000000000000000000000000\n        /* \"#utility.yul\":11043:11045   */\n      0x20\n        /* \"#utility.yul\":11035:11041   */\n      dup3\n        /* \"#utility.yul\":11031:11046   */\n      add\n        /* \"#utility.yul\":11024:11063   */\n      mstore\n        /* \"#utility.yul\":10839:11070   */\n      pop\n      jump\t// out\n        /* \"#utility.yul\":11076:11192   */\n    tag_108:\n        /* \"#utility.yul\":11146:11167   */\n      tag_222\n        /* \"#utility.yul\":11161:11166   */\n      dup2\n        /* \"#utility.yul\":11146:11167   */\n      tag_207\n      jump\t// in\n    tag_222:\n        /* \"#utility.yul\":11139:11144   */\n      dup2\n        /* \"#utility.yul\":11136:11168   */\n      eq\n        /* \"#utility.yul\":11126:11186   */\n      tag_223\n      jumpi\n        /* \"#utility.yul\":11182:11183   */\n      0x00\n        /* \"#utility.yul\":11179:11180   */\n      dup1\n        /* \"#utility.yul\":11172:11184   */\n      revert\n        /* \"#utility.yul\":11126:11186   */\n    tag_223:\n        /* \"#utility.yul\":11076:11192   */\n      pop\n      jump\t// out\n        /* \"#utility.yul\":11198:11320   */\n    tag_112:\n        /* \"#utility.yul\":11271:11295   */\n      tag_225\n        /* \"#utility.yul\":11289:11294   */\n      dup2\n        /* \"#utility.yul\":11271:11295   */\n      tag_173\n      jump\t// in\n    tag_225:\n        /* \"#utility.yul\":11264:11269   */\n      dup2\n        /* \"#utility.yul\":11261:11296   */\n      eq\n        /* \"#utility.yul\":11251:11314   */\n      tag_226\n      jumpi\n        /* \"#utility.yul\":11310:11311   */\n      0x00\n        /* \"#utility.yul\":11307:11308   */\n      dup1\n        /* \"#utility.yul\":11300:11312   */\n      revert\n        /* \"#utility.yul\":11251:11314   */\n    tag_226:\n        /* \"#utility.yul\":11198:11320   */\n      pop\n      jump\t// out\n\n    auxdata: 0xa2646970667358221220433ebaee311b040f224318c38b6571afce5550e26219969964c0c7caa7288a0064736f6c63430008070033\n}\n",
				"bytecode": {
					"linkReferences": {},
					"object": "608060405234801561001057600080fd5b5060405162000fc238038062000fc28339818101604052810190610034919061008f565b806000806101000a81548173ffffffffffffffffffffffffffffffffffffffff021916908373ffffffffffffffffffffffffffffffffffffffff1602179055505061010a565b600081519050610089816100f3565b92915050565b6000602082840312156100a5576100a46100ee565b5b60006100b38482850161007a565b91505092915050565b60006100c7826100ce565b9050919050565b600073ffffffffffffffffffffffffffffffffffffffff82169050919050565b600080fd5b6100fc816100bc565b811461010757600080fd5b50565b610ea8806200011a6000396000f3fe60806040526004361061004a5760003560e01c80631aa5c70e1461004f5780638e3073a61461006b578063eb521a4c14610094578063f4325d67146100b0578063ff9b3758146100db575b600080fd5b6100696004803603810190610064919061098a565b610104565b005b34801561007757600080fd5b50610092600480360381019061008d919061098a565b6101f7565b005b6100ae60048036038101906100a9919061098a565b610404565b005b3480156100bc57600080fd5b506100c56105d4565b6040516100d29190610b0c565b60405180910390f35b3480156100e757600080fd5b5061010260048036038101906100fd919061098a565b6105f8565b005b803414610146576040517f08c379a000000000000000000000000000000000000000000000000000000000815260040161013d90610bf0565b60405180910390fd5b60008054906101000a900473ffffffffffffffffffffffffffffffffffffffff1673ffffffffffffffffffffffffffffffffffffffff1663a9059cbb33836040518363ffffffff1660e01b81526004016101a1929190610b87565b602060405180830381600087803b1580156101bb57600080fd5b505af11580156101cf573d6000803e3d6000fd5b505050506040513d601f19601f820116820180604052508101906101f3919061095d565b5050565b8060008054906101000a900473ffffffffffffffffffffffffffffffffffffffff1673ffffffffffffffffffffffffffffffffffffffff1663dd62ed3e33306040518363ffffffff1660e01b8152600401610253929190610b27565b60206040518083038186803b15801561026b57600080fd5b505afa15801561027f573d6000803e3d6000fd5b505050506040513d601f19601f820116820180604052508101906102a391906109b7565b10156102e4576040517f08c379a00000000000000000000000000000000000000000000000000000000081526004016102db90610c10565b60405180910390fd5b60008054906101000a900473ffffffffffffffffffffffffffffffffffffffff1673ffffffffffffffffffffffffffffffffffffffff166323b872dd3330846040518463ffffffff1660e01b815260040161034193929190610b50565b602060405180830381600087803b15801561035b57600080fd5b505af115801561036f573d6000803e3d6000fd5b505050506040513d601f19601f82011682018060405250810190610393919061095d565b5060003373ffffffffffffffffffffffffffffffffffffffff16826040516103ba90610af7565b60006040518083038185875af1925050503d80600081146103f7576040519150601f19603f3d011682016040523d82523d6000602084013e6103fc565b606091505b505090505050565b803414610446576040517f08c379a000000000000000000000000000000000000000000000000000000000815260040161043d90610c50565b60405180910390fd5b60008054906101000a900473ffffffffffffffffffffffffffffffffffffffff1673ffffffffffffffffffffffffffffffffffffffff166323b872dd3330846040518463ffffffff1660e01b81526004016104a393929190610b50565b602060405180830381600087803b1580156104bd57600080fd5b505af11580156104d1573d6000803e3d6000fd5b505050506040513d601f19601f820116820180604052508101906104f5919061095d565b5073f5e642e29d6516b2301dfa2db87a40b4204b8d6b73ffffffffffffffffffffffffffffffffffffffff1663a9059cbb33836040518363ffffffff1660e01b8152600401610545929190610b87565b602060405180830381600087803b15801561055f57600080fd5b505af1158015610573573d6000803e3d6000fd5b505050506040513d601f19601f82011682018060405250810190610597919061095d565b507fb62268a18d99fe191ac8e62f823ab1eec698609a81b2c8de3dac902896b09da633826040516105c9929190610b87565b60405180910390a150565b60008054906101000a900473ffffffffffffffffffffffffffffffffffffffff1681565b6000811161063b576040517f08c379a000000000000000000000000000000000000000000000000000000000815260040161063290610bb0565b60405180910390fd5b8073f5e642e29d6516b2301dfa2db87a40b4204b8d6b73ffffffffffffffffffffffffffffffffffffffff1663dd62ed3e33306040518363ffffffff1660e01b815260040161068b929190610b27565b60206040518083038186803b1580156106a357600080fd5b505afa1580156106b7573d6000803e3d6000fd5b505050506040513d601f19601f820116820180604052508101906106db91906109b7565b101561071c576040517f08c379a000000000000000000000000000000000000000000000000000000000815260040161071390610c30565b60405180910390fd5b73f5e642e29d6516b2301dfa2db87a40b4204b8d6b73ffffffffffffffffffffffffffffffffffffffff166323b872dd3330846040518463ffffffff1660e01b815260040161076d93929190610b50565b602060405180830381600087803b15801561078757600080fd5b505af115801561079b573d6000803e3d6000fd5b505050506040513d601f19601f820116820180604052508101906107bf919061095d565b5060008054906101000a900473ffffffffffffffffffffffffffffffffffffffff1673ffffffffffffffffffffffffffffffffffffffff1663a9059cbb33836040518363ffffffff1660e01b815260040161081b929190610b87565b602060405180830381600087803b15801561083557600080fd5b505af1158015610849573d6000803e3d6000fd5b505050506040513d601f19601f8201168201806040525081019061086d919061095d565b5060003373ffffffffffffffffffffffffffffffffffffffff168260405161089490610af7565b60006040518083038185875af1925050503d80600081146108d1576040519150601f19603f3d011682016040523d82523d6000602084013e6108d6565b606091505b505090508061091a576040517f08c379a000000000000000000000000000000000000000000000000000000000815260040161091190610bd0565b60405180910390fd5b5050565b60008151905061092d81610e44565b92915050565b60008135905061094281610e5b565b92915050565b60008151905061095781610e5b565b92915050565b60006020828403121561097357610972610cd4565b5b60006109818482850161091e565b91505092915050565b6000602082840312156109a05761099f610cd4565b5b60006109ae84828501610933565b91505092915050565b6000602082840312156109cd576109cc610cd4565b5b60006109db84828501610948565b91505092915050565b6109ed81610c8c565b82525050565b6000610a00601883610c7b565b9150610a0b82610cd9565b602082019050919050565b6000610a23600f83610c7b565b9150610a2e82610d02565b602082019050919050565b6000610a46600e83610c7b565b9150610a5182610d2b565b602082019050919050565b6000610a69601583610c7b565b9150610a7482610d54565b602082019050919050565b6000610a8c604183610c7b565b9150610a9782610d7d565b606082019050919050565b6000610aaf600083610c70565b9150610aba82610df2565b600082019050919050565b6000610ad2602c83610c7b565b9150610add82610df5565b604082019050919050565b610af181610cca565b82525050565b6000610b0282610aa2565b9150819050919050565b6000602082019050610b2160008301846109e4565b92915050565b6000604082019050610b3c60008301856109e4565b610b4960208301846109e4565b9392505050565b6000606082019050610b6560008301866109e4565b610b7260208301856109e4565b610b7f6040830184610ae8565b949350505050565b6000604082019050610b9c60008301856109e4565b610ba96020830184610ae8565b9392505050565b60006020820190508181036000830152610bc9816109f3565b9050919050565b60006020820190508181036000830152610be981610a16565b9050919050565b60006020820190508181036000830152610c0981610a39565b9050919050565b60006020820190508181036000830152610c2981610a5c565b9050919050565b60006020820190508181036000830152610c4981610a7f565b9050919050565b60006020820190508181036000830152610c6981610ac5565b9050919050565b600081905092915050565b600082825260208201905092915050565b6000610c9782610caa565b9050919050565b60008115159050919050565b600073ffffffffffffffffffffffffffffffffffffffff82169050919050565b6000819050919050565b600080fd5b7f496e76616c696420616d6f756e74206f66207368617265730000000000000000600082015250565b7f5472616e73666572206661696c65640000000000000000000000000000000000600082015250565b7f496e76616c696420616d6f756e74000000000000000000000000000000000000600082015250565b7f436f6e7472616374206e6f7420617070726f7665640000000000000000000000600082015250565b7f506c6561736520617070726f76652074686520636f6e747261637420746f206460008201527f6564756374206c747220746f6b656e732066726f6d20796f75722077616c6c6560208201527f7400000000000000000000000000000000000000000000000000000000000000604082015250565b50565b7f54686520616d6f756e74206f662045544820616e6420746f6b656e732073686f60008201527f756c6420626520657175616c0000000000000000000000000000000000000000602082015250565b610e4d81610c9e565b8114610e5857600080fd5b50565b610e6481610cca565b8114610e6f57600080fd5b5056fea2646970667358221220433ebaee311b040f224318c38b6571afce5550e26219969964c0c7caa7288a0064736f6c63430008070033",
					"opcodes": "PUSH1 0x80 PUSH1 0x40 MSTORE CALLVALUE DUP1 ISZERO PUSH2 0x10 JUMPI PUSH1 0x0 DUP1 REVERT JUMPDEST POP PUSH1 0x40 MLOAD PUSH3 0xFC2 CODESIZE SUB DUP1 PUSH3 0xFC2 DUP4 CODECOPY DUP2 DUP2 ADD PUSH1 0x40 MSTORE DUP2 ADD SWAP1 PUSH2 0x34 SWAP2 SWAP1 PUSH2 0x8F JUMP JUMPDEST DUP1 PUSH1 0x0 DUP1 PUSH2 0x100 EXP DUP2 SLOAD DUP2 PUSH20 0xFFFFFFFFFFFFFFFFFFFFFFFFFFFFFFFFFFFFFFFF MUL NOT AND SWAP1 DUP4 PUSH20 0xFFFFFFFFFFFFFFFFFFFFFFFFFFFFFFFFFFFFFFFF AND MUL OR SWAP1 SSTORE POP POP PUSH2 0x10A JUMP JUMPDEST PUSH1 0x0 DUP2 MLOAD SWAP1 POP PUSH2 0x89 DUP2 PUSH2 0xF3 JUMP JUMPDEST SWAP3 SWAP2 POP POP JUMP JUMPDEST PUSH1 0x0 PUSH1 0x20 DUP3 DUP5 SUB SLT ISZERO PUSH2 0xA5 JUMPI PUSH2 0xA4 PUSH2 0xEE JUMP JUMPDEST JUMPDEST PUSH1 0x0 PUSH2 0xB3 DUP5 DUP3 DUP6 ADD PUSH2 0x7A JUMP JUMPDEST SWAP2 POP POP SWAP3 SWAP2 POP POP JUMP JUMPDEST PUSH1 0x0 PUSH2 0xC7 DUP3 PUSH2 0xCE JUMP JUMPDEST SWAP1 POP SWAP2 SWAP1 POP JUMP JUMPDEST PUSH1 0x0 PUSH20 0xFFFFFFFFFFFFFFFFFFFFFFFFFFFFFFFFFFFFFFFF DUP3 AND SWAP1 POP SWAP2 SWAP1 POP JUMP JUMPDEST PUSH1 0x0 DUP1 REVERT JUMPDEST PUSH2 0xFC DUP2 PUSH2 0xBC JUMP JUMPDEST DUP2 EQ PUSH2 0x107 JUMPI PUSH1 0x0 DUP1 REVERT JUMPDEST POP JUMP JUMPDEST PUSH2 0xEA8 DUP1 PUSH3 0x11A PUSH1 0x0 CODECOPY PUSH1 0x0 RETURN INVALID PUSH1 0x80 PUSH1 0x40 MSTORE PUSH1 0x4 CALLDATASIZE LT PUSH2 0x4A JUMPI PUSH1 0x0 CALLDATALOAD PUSH1 0xE0 SHR DUP1 PUSH4 0x1AA5C70E EQ PUSH2 0x4F JUMPI DUP1 PUSH4 0x8E3073A6 EQ PUSH2 0x6B JUMPI DUP1 PUSH4 0xEB521A4C EQ PUSH2 0x94 JUMPI DUP1 PUSH4 0xF4325D67 EQ PUSH2 0xB0 JUMPI DUP1 PUSH4 0xFF9B3758 EQ PUSH2 0xDB JUMPI JUMPDEST PUSH1 0x0 DUP1 REVERT JUMPDEST PUSH2 0x69 PUSH1 0x4 DUP1 CALLDATASIZE SUB DUP2 ADD SWAP1 PUSH2 0x64 SWAP2 SWAP1 PUSH2 0x98A JUMP JUMPDEST PUSH2 0x104 JUMP JUMPDEST STOP JUMPDEST CALLVALUE DUP1 ISZERO PUSH2 0x77 JUMPI PUSH1 0x0 DUP1 REVERT JUMPDEST POP PUSH2 0x92 PUSH1 0x4 DUP1 CALLDATASIZE SUB DUP2 ADD SWAP1 PUSH2 0x8D SWAP2 SWAP1 PUSH2 0x98A JUMP JUMPDEST PUSH2 0x1F7 JUMP JUMPDEST STOP JUMPDEST PUSH2 0xAE PUSH1 0x4 DUP1 CALLDATASIZE SUB DUP2 ADD SWAP1 PUSH2 0xA9 SWAP2 SWAP1 PUSH2 0x98A JUMP JUMPDEST PUSH2 0x404 JUMP JUMPDEST STOP JUMPDEST CALLVALUE DUP1 ISZERO PUSH2 0xBC JUMPI PUSH1 0x0 DUP1 REVERT JUMPDEST POP PUSH2 0xC5 PUSH2 0x5D4 JUMP JUMPDEST PUSH1 0x40 MLOAD PUSH2 0xD2 SWAP2 SWAP1 PUSH2 0xB0C JUMP JUMPDEST PUSH1 0x40 MLOAD DUP1 SWAP2 SUB SWAP1 RETURN JUMPDEST CALLVALUE DUP1 ISZERO PUSH2 0xE7 JUMPI PUSH1 0x0 DUP1 REVERT JUMPDEST POP PUSH2 0x102 PUSH1 0x4 DUP1 CALLDATASIZE SUB DUP2 ADD SWAP1 PUSH2 0xFD SWAP2 SWAP1 PUSH2 0x98A JUMP JUMPDEST PUSH2 0x5F8 JUMP JUMPDEST STOP JUMPDEST DUP1 CALLVALUE EQ PUSH2 0x146 JUMPI PUSH1 0x40 MLOAD PUSH32 0x8C379A000000000000000000000000000000000000000000000000000000000 DUP2 MSTORE PUSH1 0x4 ADD PUSH2 0x13D SWAP1 PUSH2 0xBF0 JUMP JUMPDEST PUSH1 0x40 MLOAD DUP1 SWAP2 SUB SWAP1 REVERT JUMPDEST PUSH1 0x0 DUP1 SLOAD SWAP1 PUSH2 0x100 EXP SWAP1 DIV PUSH20 0xFFFFFFFFFFFFFFFFFFFFFFFFFFFFFFFFFFFFFFFF AND PUSH20 0xFFFFFFFFFFFFFFFFFFFFFFFFFFFFFFFFFFFFFFFF AND PUSH4 0xA9059CBB CALLER DUP4 PUSH1 0x40 MLOAD DUP4 PUSH4 0xFFFFFFFF AND PUSH1 0xE0 SHL DUP2 MSTORE PUSH1 0x4 ADD PUSH2 0x1A1 SWAP3 SWAP2 SWAP1 PUSH2 0xB87 JUMP JUMPDEST PUSH1 0x20 PUSH1 0x40 MLOAD DUP1 DUP4 SUB DUP2 PUSH1 0x0 DUP8 DUP1 EXTCODESIZE ISZERO DUP1 ISZERO PUSH2 0x1BB JUMPI PUSH1 0x0 DUP1 REVERT JUMPDEST POP GAS CALL ISZERO DUP1 ISZERO PUSH2 0x1CF JUMPI RETURNDATASIZE PUSH1 0x0 DUP1 RETURNDATACOPY RETURNDATASIZE PUSH1 0x0 REVERT JUMPDEST POP POP POP POP PUSH1 0x40 MLOAD RETURNDATASIZE PUSH1 0x1F NOT PUSH1 0x1F DUP3 ADD AND DUP3 ADD DUP1 PUSH1 0x40 MSTORE POP DUP2 ADD SWAP1 PUSH2 0x1F3 SWAP2 SWAP1 PUSH2 0x95D JUMP JUMPDEST POP POP JUMP JUMPDEST DUP1 PUSH1 0x0 DUP1 SLOAD SWAP1 PUSH2 0x100 EXP SWAP1 DIV PUSH20 0xFFFFFFFFFFFFFFFFFFFFFFFFFFFFFFFFFFFFFFFF AND PUSH20 0xFFFFFFFFFFFFFFFFFFFFFFFFFFFFFFFFFFFFFFFF AND PUSH4 0xDD62ED3E CALLER ADDRESS PUSH1 0x40 MLOAD DUP4 PUSH4 0xFFFFFFFF AND PUSH1 0xE0 SHL DUP2 MSTORE PUSH1 0x4 ADD PUSH2 0x253 SWAP3 SWAP2 SWAP1 PUSH2 0xB27 JUMP JUMPDEST PUSH1 0x20 PUSH1 0x40 MLOAD DUP1 DUP4 SUB DUP2 DUP7 DUP1 EXTCODESIZE ISZERO DUP1 ISZERO PUSH2 0x26B JUMPI PUSH1 0x0 DUP1 REVERT JUMPDEST POP GAS STATICCALL ISZERO DUP1 ISZERO PUSH2 0x27F JUMPI RETURNDATASIZE PUSH1 0x0 DUP1 RETURNDATACOPY RETURNDATASIZE PUSH1 0x0 REVERT JUMPDEST POP POP POP POP PUSH1 0x40 MLOAD RETURNDATASIZE PUSH1 0x1F NOT PUSH1 0x1F DUP3 ADD AND DUP3 ADD DUP1 PUSH1 0x40 MSTORE POP DUP2 ADD SWAP1 PUSH2 0x2A3 SWAP2 SWAP1 PUSH2 0x9B7 JUMP JUMPDEST LT ISZERO PUSH2 0x2E4 JUMPI PUSH1 0x40 MLOAD PUSH32 0x8C379A000000000000000000000000000000000000000000000000000000000 DUP2 MSTORE PUSH1 0x4 ADD PUSH2 0x2DB SWAP1 PUSH2 0xC10 JUMP JUMPDEST PUSH1 0x40 MLOAD DUP1 SWAP2 SUB SWAP1 REVERT JUMPDEST PUSH1 0x0 DUP1 SLOAD SWAP1 PUSH2 0x100 EXP SWAP1 DIV PUSH20 0xFFFFFFFFFFFFFFFFFFFFFFFFFFFFFFFFFFFFFFFF AND PUSH20 0xFFFFFFFFFFFFFFFFFFFFFFFFFFFFFFFFFFFFFFFF AND PUSH4 0x23B872DD CALLER ADDRESS DUP5 PUSH1 0x40 MLOAD DUP5 PUSH4 0xFFFFFFFF AND PUSH1 0xE0 SHL DUP2 MSTORE PUSH1 0x4 ADD PUSH2 0x341 SWAP4 SWAP3 SWAP2 SWAP1 PUSH2 0xB50 JUMP JUMPDEST PUSH1 0x20 PUSH1 0x40 MLOAD DUP1 DUP4 SUB DUP2 PUSH1 0x0 DUP8 DUP1 EXTCODESIZE ISZERO DUP1 ISZERO PUSH2 0x35B JUMPI PUSH1 0x0 DUP1 REVERT JUMPDEST POP GAS CALL ISZERO DUP1 ISZERO PUSH2 0x36F JUMPI RETURNDATASIZE PUSH1 0x0 DUP1 RETURNDATACOPY RETURNDATASIZE PUSH1 0x0 REVERT JUMPDEST POP POP POP POP PUSH1 0x40 MLOAD RETURNDATASIZE PUSH1 0x1F NOT PUSH1 0x1F DUP3 ADD AND DUP3 ADD DUP1 PUSH1 0x40 MSTORE POP DUP2 ADD SWAP1 PUSH2 0x393 SWAP2 SWAP1 PUSH2 0x95D JUMP JUMPDEST POP PUSH1 0x0 CALLER PUSH20 0xFFFFFFFFFFFFFFFFFFFFFFFFFFFFFFFFFFFFFFFF AND DUP3 PUSH1 0x40 MLOAD PUSH2 0x3BA SWAP1 PUSH2 0xAF7 JUMP JUMPDEST PUSH1 0x0 PUSH1 0x40 MLOAD DUP1 DUP4 SUB DUP2 DUP6 DUP8 GAS CALL SWAP3 POP POP POP RETURNDATASIZE DUP1 PUSH1 0x0 DUP2 EQ PUSH2 0x3F7 JUMPI PUSH1 0x40 MLOAD SWAP2 POP PUSH1 0x1F NOT PUSH1 0x3F RETURNDATASIZE ADD AND DUP3 ADD PUSH1 0x40 MSTORE RETURNDATASIZE DUP3 MSTORE RETURNDATASIZE PUSH1 0x0 PUSH1 0x20 DUP5 ADD RETURNDATACOPY PUSH2 0x3FC JUMP JUMPDEST PUSH1 0x60 SWAP2 POP JUMPDEST POP POP SWAP1 POP POP POP JUMP JUMPDEST DUP1 CALLVALUE EQ PUSH2 0x446 JUMPI PUSH1 0x40 MLOAD PUSH32 0x8C379A000000000000000000000000000000000000000000000000000000000 DUP2 MSTORE PUSH1 0x4 ADD PUSH2 0x43D SWAP1 PUSH2 0xC50 JUMP JUMPDEST PUSH1 0x40 MLOAD DUP1 SWAP2 SUB SWAP1 REVERT JUMPDEST PUSH1 0x0 DUP1 SLOAD SWAP1 PUSH2 0x100 EXP SWAP1 DIV PUSH20 0xFFFFFFFFFFFFFFFFFFFFFFFFFFFFFFFFFFFFFFFF AND PUSH20 0xFFFFFFFFFFFFFFFFFFFFFFFFFFFFFFFFFFFFFFFF AND PUSH4 0x23B872DD CALLER ADDRESS DUP5 PUSH1 0x40 MLOAD DUP5 PUSH4 0xFFFFFFFF AND PUSH1 0xE0 SHL DUP2 MSTORE PUSH1 0x4 ADD PUSH2 0x4A3 SWAP4 SWAP3 SWAP2 SWAP1 PUSH2 0xB50 JUMP JUMPDEST PUSH1 0x20 PUSH1 0x40 MLOAD DUP1 DUP4 SUB DUP2 PUSH1 0x0 DUP8 DUP1 EXTCODESIZE ISZERO DUP1 ISZERO PUSH2 0x4BD JUMPI PUSH1 0x0 DUP1 REVERT JUMPDEST POP GAS CALL ISZERO DUP1 ISZERO PUSH2 0x4D1 JUMPI RETURNDATASIZE PUSH1 0x0 DUP1 RETURNDATACOPY RETURNDATASIZE PUSH1 0x0 REVERT JUMPDEST POP POP POP POP PUSH1 0x40 MLOAD RETURNDATASIZE PUSH1 0x1F NOT PUSH1 0x1F DUP3 ADD AND DUP3 ADD DUP1 PUSH1 0x40 MSTORE POP DUP2 ADD SWAP1 PUSH2 0x4F5 SWAP2 SWAP1 PUSH2 0x95D JUMP JUMPDEST POP PUSH20 0xF5E642E29D6516B2301DFA2DB87A40B4204B8D6B PUSH20 0xFFFFFFFFFFFFFFFFFFFFFFFFFFFFFFFFFFFFFFFF AND PUSH4 0xA9059CBB CALLER DUP4 PUSH1 0x40 MLOAD DUP4 PUSH4 0xFFFFFFFF AND PUSH1 0xE0 SHL DUP2 MSTORE PUSH1 0x4 ADD PUSH2 0x545 SWAP3 SWAP2 SWAP1 PUSH2 0xB87 JUMP JUMPDEST PUSH1 0x20 PUSH1 0x40 MLOAD DUP1 DUP4 SUB DUP2 PUSH1 0x0 DUP8 DUP1 EXTCODESIZE ISZERO DUP1 ISZERO PUSH2 0x55F JUMPI PUSH1 0x0 DUP1 REVERT JUMPDEST POP GAS CALL ISZERO DUP1 ISZERO PUSH2 0x573 JUMPI RETURNDATASIZE PUSH1 0x0 DUP1 RETURNDATACOPY RETURNDATASIZE PUSH1 0x0 REVERT JUMPDEST POP POP POP POP PUSH1 0x40 MLOAD RETURNDATASIZE PUSH1 0x1F NOT PUSH1 0x1F DUP3 ADD AND DUP3 ADD DUP1 PUSH1 0x40 MSTORE POP DUP2 ADD SWAP1 PUSH2 0x597 SWAP2 SWAP1 PUSH2 0x95D JUMP JUMPDEST POP PUSH32 0xB62268A18D99FE191AC8E62F823AB1EEC698609A81B2C8DE3DAC902896B09DA6 CALLER DUP3 PUSH1 0x40 MLOAD PUSH2 0x5C9 SWAP3 SWAP2 SWAP1 PUSH2 0xB87 JUMP JUMPDEST PUSH1 0x40 MLOAD DUP1 SWAP2 SUB SWAP1 LOG1 POP JUMP JUMPDEST PUSH1 0x0 DUP1 SLOAD SWAP1 PUSH2 0x100 EXP SWAP1 DIV PUSH20 0xFFFFFFFFFFFFFFFFFFFFFFFFFFFFFFFFFFFFFFFF AND DUP2 JUMP JUMPDEST PUSH1 0x0 DUP2 GT PUSH2 0x63B JUMPI PUSH1 0x40 MLOAD PUSH32 0x8C379A000000000000000000000000000000000000000000000000000000000 DUP2 MSTORE PUSH1 0x4 ADD PUSH2 0x632 SWAP1 PUSH2 0xBB0 JUMP JUMPDEST PUSH1 0x40 MLOAD DUP1 SWAP2 SUB SWAP1 REVERT JUMPDEST DUP1 PUSH20 0xF5E642E29D6516B2301DFA2DB87A40B4204B8D6B PUSH20 0xFFFFFFFFFFFFFFFFFFFFFFFFFFFFFFFFFFFFFFFF AND PUSH4 0xDD62ED3E CALLER ADDRESS PUSH1 0x40 MLOAD DUP4 PUSH4 0xFFFFFFFF AND PUSH1 0xE0 SHL DUP2 MSTORE PUSH1 0x4 ADD PUSH2 0x68B SWAP3 SWAP2 SWAP1 PUSH2 0xB27 JUMP JUMPDEST PUSH1 0x20 PUSH1 0x40 MLOAD DUP1 DUP4 SUB DUP2 DUP7 DUP1 EXTCODESIZE ISZERO DUP1 ISZERO PUSH2 0x6A3 JUMPI PUSH1 0x0 DUP1 REVERT JUMPDEST POP GAS STATICCALL ISZERO DUP1 ISZERO PUSH2 0x6B7 JUMPI RETURNDATASIZE PUSH1 0x0 DUP1 RETURNDATACOPY RETURNDATASIZE PUSH1 0x0 REVERT JUMPDEST POP POP POP POP PUSH1 0x40 MLOAD RETURNDATASIZE PUSH1 0x1F NOT PUSH1 0x1F DUP3 ADD AND DUP3 ADD DUP1 PUSH1 0x40 MSTORE POP DUP2 ADD SWAP1 PUSH2 0x6DB SWAP2 SWAP1 PUSH2 0x9B7 JUMP JUMPDEST LT ISZERO PUSH2 0x71C JUMPI PUSH1 0x40 MLOAD PUSH32 0x8C379A000000000000000000000000000000000000000000000000000000000 DUP2 MSTORE PUSH1 0x4 ADD PUSH2 0x713 SWAP1 PUSH2 0xC30 JUMP JUMPDEST PUSH1 0x40 MLOAD DUP1 SWAP2 SUB SWAP1 REVERT JUMPDEST PUSH20 0xF5E642E29D6516B2301DFA2DB87A40B4204B8D6B PUSH20 0xFFFFFFFFFFFFFFFFFFFFFFFFFFFFFFFFFFFFFFFF AND PUSH4 0x23B872DD CALLER ADDRESS DUP5 PUSH1 0x40 MLOAD DUP5 PUSH4 0xFFFFFFFF AND PUSH1 0xE0 SHL DUP2 MSTORE PUSH1 0x4 ADD PUSH2 0x76D SWAP4 SWAP3 SWAP2 SWAP1 PUSH2 0xB50 JUMP JUMPDEST PUSH1 0x20 PUSH1 0x40 MLOAD DUP1 DUP4 SUB DUP2 PUSH1 0x0 DUP8 DUP1 EXTCODESIZE ISZERO DUP1 ISZERO PUSH2 0x787 JUMPI PUSH1 0x0 DUP1 REVERT JUMPDEST POP GAS CALL ISZERO DUP1 ISZERO PUSH2 0x79B JUMPI RETURNDATASIZE PUSH1 0x0 DUP1 RETURNDATACOPY RETURNDATASIZE PUSH1 0x0 REVERT JUMPDEST POP POP POP POP PUSH1 0x40 MLOAD RETURNDATASIZE PUSH1 0x1F NOT PUSH1 0x1F DUP3 ADD AND DUP3 ADD DUP1 PUSH1 0x40 MSTORE POP DUP2 ADD SWAP1 PUSH2 0x7BF SWAP2 SWAP1 PUSH2 0x95D JUMP JUMPDEST POP PUSH1 0x0 DUP1 SLOAD SWAP1 PUSH2 0x100 EXP SWAP1 DIV PUSH20 0xFFFFFFFFFFFFFFFFFFFFFFFFFFFFFFFFFFFFFFFF AND PUSH20 0xFFFFFFFFFFFFFFFFFFFFFFFFFFFFFFFFFFFFFFFF AND PUSH4 0xA9059CBB CALLER DUP4 PUSH1 0x40 MLOAD DUP4 PUSH4 0xFFFFFFFF AND PUSH1 0xE0 SHL DUP2 MSTORE PUSH1 0x4 ADD PUSH2 0x81B SWAP3 SWAP2 SWAP1 PUSH2 0xB87 JUMP JUMPDEST PUSH1 0x20 PUSH1 0x40 MLOAD DUP1 DUP4 SUB DUP2 PUSH1 0x0 DUP8 DUP1 EXTCODESIZE ISZERO DUP1 ISZERO PUSH2 0x835 JUMPI PUSH1 0x0 DUP1 REVERT JUMPDEST POP GAS CALL ISZERO DUP1 ISZERO PUSH2 0x849 JUMPI RETURNDATASIZE PUSH1 0x0 DUP1 RETURNDATACOPY RETURNDATASIZE PUSH1 0x0 REVERT JUMPDEST POP POP POP POP PUSH1 0x40 MLOAD RETURNDATASIZE PUSH1 0x1F NOT PUSH1 0x1F DUP3 ADD AND DUP3 ADD DUP1 PUSH1 0x40 MSTORE POP DUP2 ADD SWAP1 PUSH2 0x86D SWAP2 SWAP1 PUSH2 0x95D JUMP JUMPDEST POP PUSH1 0x0 CALLER PUSH20 0xFFFFFFFFFFFFFFFFFFFFFFFFFFFFFFFFFFFFFFFF AND DUP3 PUSH1 0x40 MLOAD PUSH2 0x894 SWAP1 PUSH2 0xAF7 JUMP JUMPDEST PUSH1 0x0 PUSH1 0x40 MLOAD DUP1 DUP4 SUB DUP2 DUP6 DUP8 GAS CALL SWAP3 POP POP POP RETURNDATASIZE DUP1 PUSH1 0x0 DUP2 EQ PUSH2 0x8D1 JUMPI PUSH1 0x40 MLOAD SWAP2 POP PUSH1 0x1F NOT PUSH1 0x3F RETURNDATASIZE ADD AND DUP3 ADD PUSH1 0x40 MSTORE RETURNDATASIZE DUP3 MSTORE RETURNDATASIZE PUSH1 0x0 PUSH1 0x20 DUP5 ADD RETURNDATACOPY PUSH2 0x8D6 JUMP JUMPDEST PUSH1 0x60 SWAP2 POP JUMPDEST POP POP SWAP1 POP DUP1 PUSH2 0x91A JUMPI PUSH1 0x40 MLOAD PUSH32 0x8C379A000000000000000000000000000000000000000000000000000000000 DUP2 MSTORE PUSH1 0x4 ADD PUSH2 0x911 SWAP1 PUSH2 0xBD0 JUMP JUMPDEST PUSH1 0x40 MLOAD DUP1 SWAP2 SUB SWAP1 REVERT JUMPDEST POP POP JUMP JUMPDEST PUSH1 0x0 DUP2 MLOAD SWAP1 POP PUSH2 0x92D DUP2 PUSH2 0xE44 JUMP JUMPDEST SWAP3 SWAP2 POP POP JUMP JUMPDEST PUSH1 0x0 DUP2 CALLDATALOAD SWAP1 POP PUSH2 0x942 DUP2 PUSH2 0xE5B JUMP JUMPDEST SWAP3 SWAP2 POP POP JUMP JUMPDEST PUSH1 0x0 DUP2 MLOAD SWAP1 POP PUSH2 0x957 DUP2 PUSH2 0xE5B JUMP JUMPDEST SWAP3 SWAP2 POP POP JUMP JUMPDEST PUSH1 0x0 PUSH1 0x20 DUP3 DUP5 SUB SLT ISZERO PUSH2 0x973 JUMPI PUSH2 0x972 PUSH2 0xCD4 JUMP JUMPDEST JUMPDEST PUSH1 0x0 PUSH2 0x981 DUP5 DUP3 DUP6 ADD PUSH2 0x91E JUMP JUMPDEST SWAP2 POP POP SWAP3 SWAP2 POP POP JUMP JUMPDEST PUSH1 0x0 PUSH1 0x20 DUP3 DUP5 SUB SLT ISZERO PUSH2 0x9A0 JUMPI PUSH2 0x99F PUSH2 0xCD4 JUMP JUMPDEST JUMPDEST PUSH1 0x0 PUSH2 0x9AE DUP5 DUP3 DUP6 ADD PUSH2 0x933 JUMP JUMPDEST SWAP2 POP POP SWAP3 SWAP2 POP POP JUMP JUMPDEST PUSH1 0x0 PUSH1 0x20 DUP3 DUP5 SUB SLT ISZERO PUSH2 0x9CD JUMPI PUSH2 0x9CC PUSH2 0xCD4 JUMP JUMPDEST JUMPDEST PUSH1 0x0 PUSH2 0x9DB DUP5 DUP3 DUP6 ADD PUSH2 0x948 JUMP JUMPDEST SWAP2 POP POP SWAP3 SWAP2 POP POP JUMP JUMPDEST PUSH2 0x9ED DUP2 PUSH2 0xC8C JUMP JUMPDEST DUP3 MSTORE POP POP JUMP JUMPDEST PUSH1 0x0 PUSH2 0xA00 PUSH1 0x18 DUP4 PUSH2 0xC7B JUMP JUMPDEST SWAP2 POP PUSH2 0xA0B DUP3 PUSH2 0xCD9 JUMP JUMPDEST PUSH1 0x20 DUP3 ADD SWAP1 POP SWAP2 SWAP1 POP JUMP JUMPDEST PUSH1 0x0 PUSH2 0xA23 PUSH1 0xF DUP4 PUSH2 0xC7B JUMP JUMPDEST SWAP2 POP PUSH2 0xA2E DUP3 PUSH2 0xD02 JUMP JUMPDEST PUSH1 0x20 DUP3 ADD SWAP1 POP SWAP2 SWAP1 POP JUMP JUMPDEST PUSH1 0x0 PUSH2 0xA46 PUSH1 0xE DUP4 PUSH2 0xC7B JUMP JUMPDEST SWAP2 POP PUSH2 0xA51 DUP3 PUSH2 0xD2B JUMP JUMPDEST PUSH1 0x20 DUP3 ADD SWAP1 POP SWAP2 SWAP1 POP JUMP JUMPDEST PUSH1 0x0 PUSH2 0xA69 PUSH1 0x15 DUP4 PUSH2 0xC7B JUMP JUMPDEST SWAP2 POP PUSH2 0xA74 DUP3 PUSH2 0xD54 JUMP JUMPDEST PUSH1 0x20 DUP3 ADD SWAP1 POP SWAP2 SWAP1 POP JUMP JUMPDEST PUSH1 0x0 PUSH2 0xA8C PUSH1 0x41 DUP4 PUSH2 0xC7B JUMP JUMPDEST SWAP2 POP PUSH2 0xA97 DUP3 PUSH2 0xD7D JUMP JUMPDEST PUSH1 0x60 DUP3 ADD SWAP1 POP SWAP2 SWAP1 POP JUMP JUMPDEST PUSH1 0x0 PUSH2 0xAAF PUSH1 0x0 DUP4 PUSH2 0xC70 JUMP JUMPDEST SWAP2 POP PUSH2 0xABA DUP3 PUSH2 0xDF2 JUMP JUMPDEST PUSH1 0x0 DUP3 ADD SWAP1 POP SWAP2 SWAP1 POP JUMP JUMPDEST PUSH1 0x0 PUSH2 0xAD2 PUSH1 0x2C DUP4 PUSH2 0xC7B JUMP JUMPDEST SWAP2 POP PUSH2 0xADD DUP3 PUSH2 0xDF5 JUMP JUMPDEST PUSH1 0x40 DUP3 ADD SWAP1 POP SWAP2 SWAP1 POP JUMP JUMPDEST PUSH2 0xAF1 DUP2 PUSH2 0xCCA JUMP JUMPDEST DUP3 MSTORE POP POP JUMP JUMPDEST PUSH1 0x0 PUSH2 0xB02 DUP3 PUSH2 0xAA2 JUMP JUMPDEST SWAP2 POP DUP2 SWAP1 POP SWAP2 SWAP1 POP JUMP JUMPDEST PUSH1 0x0 PUSH1 0x20 DUP3 ADD SWAP1 POP PUSH2 0xB21 PUSH1 0x0 DUP4 ADD DUP5 PUSH2 0x9E4 JUMP JUMPDEST SWAP3 SWAP2 POP POP JUMP JUMPDEST PUSH1 0x0 PUSH1 0x40 DUP3 ADD SWAP1 POP PUSH2 0xB3C PUSH1 0x0 DUP4 ADD DUP6 PUSH2 0x9E4 JUMP JUMPDEST PUSH2 0xB49 PUSH1 0x20 DUP4 ADD DUP5 PUSH2 0x9E4 JUMP JUMPDEST SWAP4 SWAP3 POP POP POP JUMP JUMPDEST PUSH1 0x0 PUSH1 0x60 DUP3 ADD SWAP1 POP PUSH2 0xB65 PUSH1 0x0 DUP4 ADD DUP7 PUSH2 0x9E4 JUMP JUMPDEST PUSH2 0xB72 PUSH1 0x20 DUP4 ADD DUP6 PUSH2 0x9E4 JUMP JUMPDEST PUSH2 0xB7F PUSH1 0x40 DUP4 ADD DUP5 PUSH2 0xAE8 JUMP JUMPDEST SWAP5 SWAP4 POP POP POP POP JUMP JUMPDEST PUSH1 0x0 PUSH1 0x40 DUP3 ADD SWAP1 POP PUSH2 0xB9C PUSH1 0x0 DUP4 ADD DUP6 PUSH2 0x9E4 JUMP JUMPDEST PUSH2 0xBA9 PUSH1 0x20 DUP4 ADD DUP5 PUSH2 0xAE8 JUMP JUMPDEST SWAP4 SWAP3 POP POP POP JUMP JUMPDEST PUSH1 0x0 PUSH1 0x20 DUP3 ADD SWAP1 POP DUP2 DUP2 SUB PUSH1 0x0 DUP4 ADD MSTORE PUSH2 0xBC9 DUP2 PUSH2 0x9F3 JUMP JUMPDEST SWAP1 POP SWAP2 SWAP1 POP JUMP JUMPDEST PUSH1 0x0 PUSH1 0x20 DUP3 ADD SWAP1 POP DUP2 DUP2 SUB PUSH1 0x0 DUP4 ADD MSTORE PUSH2 0xBE9 DUP2 PUSH2 0xA16 JUMP JUMPDEST SWAP1 POP SWAP2 SWAP1 POP JUMP JUMPDEST PUSH1 0x0 PUSH1 0x20 DUP3 ADD SWAP1 POP DUP2 DUP2 SUB PUSH1 0x0 DUP4 ADD MSTORE PUSH2 0xC09 DUP2 PUSH2 0xA39 JUMP JUMPDEST SWAP1 POP SWAP2 SWAP1 POP JUMP JUMPDEST PUSH1 0x0 PUSH1 0x20 DUP3 ADD SWAP1 POP DUP2 DUP2 SUB PUSH1 0x0 DUP4 ADD MSTORE PUSH2 0xC29 DUP2 PUSH2 0xA5C JUMP JUMPDEST SWAP1 POP SWAP2 SWAP1 POP JUMP JUMPDEST PUSH1 0x0 PUSH1 0x20 DUP3 ADD SWAP1 POP DUP2 DUP2 SUB PUSH1 0x0 DUP4 ADD MSTORE PUSH2 0xC49 DUP2 PUSH2 0xA7F JUMP JUMPDEST SWAP1 POP SWAP2 SWAP1 POP JUMP JUMPDEST PUSH1 0x0 PUSH1 0x20 DUP3 ADD SWAP1 POP DUP2 DUP2 SUB PUSH1 0x0 DUP4 ADD MSTORE PUSH2 0xC69 DUP2 PUSH2 0xAC5 JUMP JUMPDEST SWAP1 POP SWAP2 SWAP1 POP JUMP JUMPDEST PUSH1 0x0 DUP2 SWAP1 POP SWAP3 SWAP2 POP POP JUMP JUMPDEST PUSH1 0x0 DUP3 DUP3 MSTORE PUSH1 0x20 DUP3 ADD SWAP1 POP SWAP3 SWAP2 POP POP JUMP JUMPDEST PUSH1 0x0 PUSH2 0xC97 DUP3 PUSH2 0xCAA JUMP JUMPDEST SWAP1 POP SWAP2 SWAP1 POP JUMP JUMPDEST PUSH1 0x0 DUP2 ISZERO ISZERO SWAP1 POP SWAP2 SWAP1 POP JUMP JUMPDEST PUSH1 0x0 PUSH20 0xFFFFFFFFFFFFFFFFFFFFFFFFFFFFFFFFFFFFFFFF DUP3 AND SWAP1 POP SWAP2 SWAP1 POP JUMP JUMPDEST PUSH1 0x0 DUP2 SWAP1 POP SWAP2 SWAP1 POP JUMP JUMPDEST PUSH1 0x0 DUP1 REVERT JUMPDEST PUSH32 0x496E76616C696420616D6F756E74206F66207368617265730000000000000000 PUSH1 0x0 DUP3 ADD MSTORE POP JUMP JUMPDEST PUSH32 0x5472616E73666572206661696C65640000000000000000000000000000000000 PUSH1 0x0 DUP3 ADD MSTORE POP JUMP JUMPDEST PUSH32 0x496E76616C696420616D6F756E74000000000000000000000000000000000000 PUSH1 0x0 DUP3 ADD MSTORE POP JUMP JUMPDEST PUSH32 0x436F6E7472616374206E6F7420617070726F7665640000000000000000000000 PUSH1 0x0 DUP3 ADD MSTORE POP JUMP JUMPDEST PUSH32 0x506C6561736520617070726F76652074686520636F6E747261637420746F2064 PUSH1 0x0 DUP3 ADD MSTORE PUSH32 0x6564756374206C747220746F6B656E732066726F6D20796F75722077616C6C65 PUSH1 0x20 DUP3 ADD MSTORE PUSH32 0x7400000000000000000000000000000000000000000000000000000000000000 PUSH1 0x40 DUP3 ADD MSTORE POP JUMP JUMPDEST POP JUMP JUMPDEST PUSH32 0x54686520616D6F756E74206F662045544820616E6420746F6B656E732073686F PUSH1 0x0 DUP3 ADD MSTORE PUSH32 0x756C6420626520657175616C0000000000000000000000000000000000000000 PUSH1 0x20 DUP3 ADD MSTORE POP JUMP JUMPDEST PUSH2 0xE4D DUP2 PUSH2 0xC9E JUMP JUMPDEST DUP2 EQ PUSH2 0xE58 JUMPI PUSH1 0x0 DUP1 REVERT JUMPDEST POP JUMP JUMPDEST PUSH2 0xE64 DUP2 PUSH2 0xCCA JUMP JUMPDEST DUP2 EQ PUSH2 0xE6F JUMPI PUSH1 0x0 DUP1 REVERT JUMPDEST POP JUMP INVALID LOG2 PUSH5 0x6970667358 0x22 SLT KECCAK256 NUMBER RETURNDATACOPY 0xBA 0xEE BALANCE SHL DIV 0xF 0x22 NUMBER XOR 0xC3 DUP12 PUSH6 0x71AFCE5550E2 PUSH3 0x199699 PUSH5 0xC0C7CAA728 DUP11 STOP PUSH5 0x736F6C6343 STOP ADDMOD SMOD STOP CALLER "
				},
				"gasEstimates": {
					"creation": {
						"codeDepositCost": "750400",
						"executionCost": "infinite",
						"totalCost": "infinite"
					},
					"external": {
						"getDAI(uint256)": "infinite",
						"getEth(uint256)": "infinite",
						"provideLiquidity(uint256)": "infinite",
						"reedemShares(uint256)": "infinite",
						"reserveToken()": "2555"
					}
				},
				"methodIdentifiers": {
					"getDAI(uint256)": "1aa5c70e",
					"getEth(uint256)": "8e3073a6",
					"provideLiquidity(uint256)": "eb521a4c",
					"reedemShares(uint256)": "ff9b3758",
					"reserveToken()": "f4325d67"
				}
			},
			"storageLayout": {
				"storage": [
					{
						"astId": 82,
						"contract": "contracts/LiquidityPool.sol:LiquidityPool",
						"label": "reserveToken",
						"offset": 0,
						"slot": "0",
						"type": "t_address"
					}
				],
				"types": {
					"t_address": {
						"encoding": "inplace",
						"label": "address",
						"numberOfBytes": "20"
					}
				}
			},
			"userdoc": {
				"kind": "user",
				"methods": {},
				"version": 1
			}
		}
	}
}