{
	"contracts/Transfer.sol": {
		"Transfer": {
			"abi": [
				{
					"inputs": [
						{
							"internalType": "address",
							"name": "_tokenAddress",
							"type": "address"
						},
						{
							"internalType": "address",
							"name": "_from",
							"type": "address"
						},
						{
							"internalType": "address",
							"name": "_to",
							"type": "address"
						},
						{
							"internalType": "uint256",
							"name": "_amount",
							"type": "uint256"
						}
					],
					"name": "transfer",
					"outputs": [],
					"stateMutability": "nonpayable",
					"type": "function"
				}
			],
			"devdoc": {
				"kind": "dev",
				"methods": {},
				"version": 1
			},
			"evm": {
				"assembly": "    /* \"contracts/Transfer.sol\":82:274  contract Transfer {... */\n  mstore(0x40, 0x80)\n  callvalue\n  dup1\n  iszero\n  tag_1\n  jumpi\n  0x00\n  dup1\n  revert\ntag_1:\n  pop\n  dataSize(sub_0)\n  dup1\n  dataOffset(sub_0)\n  0x00\n  codecopy\n  0x00\n  return\nstop\n\nsub_0: assembly {\n        /* \"contracts/Transfer.sol\":82:274  contract Transfer {... */\n      mstore(0x40, 0x80)\n      callvalue\n      dup1\n      iszero\n      tag_1\n      jumpi\n      0x00\n      dup1\n      revert\n    tag_1:\n      pop\n      jumpi(tag_2, lt(calldatasize, 0x04))\n      shr(0xe0, calldataload(0x00))\n      dup1\n      0xf18d03cc\n      eq\n      tag_3\n      jumpi\n    tag_2:\n      0x00\n      dup1\n      revert\n        /* \"contracts/Transfer.sol\":107:272  function transfer(address _tokenAddress, address _from, address _to, uint256 _amount) public {... */\n    tag_3:\n      tag_4\n      0x04\n      dup1\n      calldatasize\n      sub\n      dup2\n      add\n      swap1\n      tag_5\n      swap2\n      swap1\n      tag_6\n      jump\t// in\n    tag_5:\n      tag_7\n      jump\t// in\n    tag_4:\n      stop\n    tag_7:\n        /* \"contracts/Transfer.sol\":217:230  _tokenAddress */\n      dup4\n        /* \"contracts/Transfer.sol\":210:244  IERC20(_tokenAddress).transferFrom */\n      0xffffffffffffffffffffffffffffffffffffffff\n      and\n      0x23b872dd\n        /* \"contracts/Transfer.sol\":245:250  _from */\n      dup5\n        /* \"contracts/Transfer.sol\":252:255  _to */\n      dup5\n        /* \"contracts/Transfer.sol\":257:264  _amount */\n      dup5\n        /* \"contracts/Transfer.sol\":210:265  IERC20(_tokenAddress).transferFrom(_from, _to, _amount) */\n      mload(0x40)\n      dup5\n      0xffffffff\n      and\n      0xe0\n      shl\n      dup2\n      mstore\n      0x04\n      add\n      tag_9\n      swap4\n      swap3\n      swap2\n      swap1\n      tag_10\n      jump\t// in\n    tag_9:\n      0x20\n      mload(0x40)\n      dup1\n      dup4\n      sub\n      dup2\n      0x00\n      dup8\n      dup1\n      extcodesize\n      iszero\n      dup1\n      iszero\n      tag_11\n      jumpi\n      0x00\n      dup1\n      revert\n    tag_11:\n      pop\n      gas\n      call\n      iszero\n      dup1\n      iszero\n      tag_13\n      jumpi\n      returndatasize\n      0x00\n      dup1\n      returndatacopy\n      revert(0x00, returndatasize)\n    tag_13:\n      pop\n      pop\n      pop\n      pop\n      mload(0x40)\n      returndatasize\n      not(0x1f)\n      0x1f\n      dup3\n      add\n      and\n      dup3\n      add\n      dup1\n      0x40\n      mstore\n      pop\n      dup2\n      add\n      swap1\n      tag_14\n      swap2\n      swap1\n      tag_15\n      jump\t// in\n    tag_14:\n      pop\n        /* \"contracts/Transfer.sol\":107:272  function transfer(address _tokenAddress, address _from, address _to, uint256 _amount) public {... */\n      pop\n      pop\n      pop\n      pop\n      jump\t// out\n        /* \"#utility.yul\":7:146   */\n    tag_17:\n        /* \"#utility.yul\":53:58   */\n      0x00\n        /* \"#utility.yul\":91:97   */\n      dup2\n        /* \"#utility.yul\":78:98   */\n      calldataload\n        /* \"#utility.yul\":69:98   */\n      swap1\n      pop\n        /* \"#utility.yul\":107:140   */\n      tag_19\n        /* \"#utility.yul\":134:139   */\n      dup2\n        /* \"#utility.yul\":107:140   */\n      tag_20\n      jump\t// in\n    tag_19:\n        /* \"#utility.yul\":7:146   */\n      swap3\n      swap2\n      pop\n      pop\n      jump\t// out\n        /* \"#utility.yul\":152:289   */\n    tag_21:\n        /* \"#utility.yul\":206:211   */\n      0x00\n        /* \"#utility.yul\":237:243   */\n      dup2\n        /* \"#utility.yul\":231:244   */\n      mload\n        /* \"#utility.yul\":222:244   */\n      swap1\n      pop\n        /* \"#utility.yul\":253:283   */\n      tag_23\n        /* \"#utility.yul\":277:282   */\n      dup2\n        /* \"#utility.yul\":253:283   */\n      tag_24\n      jump\t// in\n    tag_23:\n        /* \"#utility.yul\":152:289   */\n      swap3\n      swap2\n      pop\n      pop\n      jump\t// out\n        /* \"#utility.yul\":295:434   */\n    tag_25:\n        /* \"#utility.yul\":341:346   */\n      0x00\n        /* \"#utility.yul\":379:385   */\n      dup2\n        /* \"#utility.yul\":366:386   */\n      calldataload\n        /* \"#utility.yul\":357:386   */\n      swap1\n      pop\n        /* \"#utility.yul\":395:428   */\n      tag_27\n        /* \"#utility.yul\":422:427   */\n      dup2\n        /* \"#utility.yul\":395:428   */\n      tag_28\n      jump\t// in\n    tag_27:\n        /* \"#utility.yul\":295:434   */\n      swap3\n      swap2\n      pop\n      pop\n      jump\t// out\n        /* \"#utility.yul\":440:1205   */\n    tag_6:\n        /* \"#utility.yul\":526:532   */\n      0x00\n        /* \"#utility.yul\":534:540   */\n      dup1\n        /* \"#utility.yul\":542:548   */\n      0x00\n        /* \"#utility.yul\":550:556   */\n      dup1\n        /* \"#utility.yul\":599:602   */\n      0x80\n        /* \"#utility.yul\":587:596   */\n      dup6\n        /* \"#utility.yul\":578:585   */\n      dup8\n        /* \"#utility.yul\":574:597   */\n      sub\n        /* \"#utility.yul\":570:603   */\n      slt\n        /* \"#utility.yul\":567:687   */\n      iszero\n      tag_30\n      jumpi\n        /* \"#utility.yul\":606:685   */\n      tag_31\n      tag_32\n      jump\t// in\n    tag_31:\n        /* \"#utility.yul\":567:687   */\n    tag_30:\n        /* \"#utility.yul\":726:727   */\n      0x00\n        /* \"#utility.yul\":751:804   */\n      tag_33\n        /* \"#utility.yul\":796:803   */\n      dup8\n        /* \"#utility.yul\":787:793   */\n      dup3\n        /* \"#utility.yul\":776:785   */\n      dup9\n        /* \"#utility.yul\":772:794   */\n      add\n        /* \"#utility.yul\":751:804   */\n      tag_17\n      jump\t// in\n    tag_33:\n        /* \"#utility.yul\":741:804   */\n      swap5\n      pop\n        /* \"#utility.yul\":697:814   */\n      pop\n        /* \"#utility.yul\":853:855   */\n      0x20\n        /* \"#utility.yul\":879:932   */\n      tag_34\n        /* \"#utility.yul\":924:931   */\n      dup8\n        /* \"#utility.yul\":915:921   */\n      dup3\n        /* \"#utility.yul\":904:913   */\n      dup9\n        /* \"#utility.yul\":900:922   */\n      add\n        /* \"#utility.yul\":879:932   */\n      tag_17\n      jump\t// in\n    tag_34:\n        /* \"#utility.yul\":869:932   */\n      swap4\n      pop\n        /* \"#utility.yul\":824:942   */\n      pop\n        /* \"#utility.yul\":981:983   */\n      0x40\n        /* \"#utility.yul\":1007:1060   */\n      tag_35\n        /* \"#utility.yul\":1052:1059   */\n      dup8\n        /* \"#utility.yul\":1043:1049   */\n      dup3\n        /* \"#utility.yul\":1032:1041   */\n      dup9\n        /* \"#utility.yul\":1028:1050   */\n      add\n        /* \"#utility.yul\":1007:1060   */\n      tag_17\n      jump\t// in\n    tag_35:\n        /* \"#utility.yul\":997:1060   */\n      swap3\n      pop\n        /* \"#utility.yul\":952:1070   */\n      pop\n        /* \"#utility.yul\":1109:1111   */\n      0x60\n        /* \"#utility.yul\":1135:1188   */\n      tag_36\n        /* \"#utility.yul\":1180:1187   */\n      dup8\n        /* \"#utility.yul\":1171:1177   */\n      dup3\n        /* \"#utility.yul\":1160:1169   */\n      dup9\n        /* \"#utility.yul\":1156:1178   */\n      add\n        /* \"#utility.yul\":1135:1188   */\n      tag_25\n      jump\t// in\n    tag_36:\n        /* \"#utility.yul\":1125:1188   */\n      swap2\n      pop\n        /* \"#utility.yul\":1080:1198   */\n      pop\n        /* \"#utility.yul\":440:1205   */\n      swap3\n      swap6\n      swap2\n      swap5\n      pop\n      swap3\n      pop\n      jump\t// out\n        /* \"#utility.yul\":1211:1556   */\n    tag_15:\n        /* \"#utility.yul\":1278:1284   */\n      0x00\n        /* \"#utility.yul\":1327:1329   */\n      0x20\n        /* \"#utility.yul\":1315:1324   */\n      dup3\n        /* \"#utility.yul\":1306:1313   */\n      dup5\n        /* \"#utility.yul\":1302:1325   */\n      sub\n        /* \"#utility.yul\":1298:1330   */\n      slt\n        /* \"#utility.yul\":1295:1414   */\n      iszero\n      tag_38\n      jumpi\n        /* \"#utility.yul\":1333:1412   */\n      tag_39\n      tag_32\n      jump\t// in\n    tag_39:\n        /* \"#utility.yul\":1295:1414   */\n    tag_38:\n        /* \"#utility.yul\":1453:1454   */\n      0x00\n        /* \"#utility.yul\":1478:1539   */\n      tag_40\n        /* \"#utility.yul\":1531:1538   */\n      dup5\n        /* \"#utility.yul\":1522:1528   */\n      dup3\n        /* \"#utility.yul\":1511:1520   */\n      dup6\n        /* \"#utility.yul\":1507:1529   */\n      add\n        /* \"#utility.yul\":1478:1539   */\n      tag_21\n      jump\t// in\n    tag_40:\n        /* \"#utility.yul\":1468:1539   */\n      swap2\n      pop\n        /* \"#utility.yul\":1424:1549   */\n      pop\n        /* \"#utility.yul\":1211:1556   */\n      swap3\n      swap2\n      pop\n      pop\n      jump\t// out\n        /* \"#utility.yul\":1562:1680   */\n    tag_41:\n        /* \"#utility.yul\":1649:1673   */\n      tag_43\n        /* \"#utility.yul\":1667:1672   */\n      dup2\n        /* \"#utility.yul\":1649:1673   */\n      tag_44\n      jump\t// in\n    tag_43:\n        /* \"#utility.yul\":1644:1647   */\n      dup3\n        /* \"#utility.yul\":1637:1674   */\n      mstore\n        /* \"#utility.yul\":1562:1680   */\n      pop\n      pop\n      jump\t// out\n        /* \"#utility.yul\":1686:1804   */\n    tag_45:\n        /* \"#utility.yul\":1773:1797   */\n      tag_47\n        /* \"#utility.yul\":1791:1796   */\n      dup2\n        /* \"#utility.yul\":1773:1797   */\n      tag_48\n      jump\t// in\n    tag_47:\n        /* \"#utility.yul\":1768:1771   */\n      dup3\n        /* \"#utility.yul\":1761:1798   */\n      mstore\n        /* \"#utility.yul\":1686:1804   */\n      pop\n      pop\n      jump\t// out\n        /* \"#utility.yul\":1810:2252   */\n    tag_10:\n        /* \"#utility.yul\":1959:1963   */\n      0x00\n        /* \"#utility.yul\":1997:1999   */\n      0x60\n        /* \"#utility.yul\":1986:1995   */\n      dup3\n        /* \"#utility.yul\":1982:2000   */\n      add\n        /* \"#utility.yul\":1974:2000   */\n      swap1\n      pop\n        /* \"#utility.yul\":2010:2081   */\n      tag_50\n        /* \"#utility.yul\":2078:2079   */\n      0x00\n        /* \"#utility.yul\":2067:2076   */\n      dup4\n        /* \"#utility.yul\":2063:2080   */\n      add\n        /* \"#utility.yul\":2054:2060   */\n      dup7\n        /* \"#utility.yul\":2010:2081   */\n      tag_41\n      jump\t// in\n    tag_50:\n        /* \"#utility.yul\":2091:2163   */\n      tag_51\n        /* \"#utility.yul\":2159:2161   */\n      0x20\n        /* \"#utility.yul\":2148:2157   */\n      dup4\n        /* \"#utility.yul\":2144:2162   */\n      add\n        /* \"#utility.yul\":2135:2141   */\n      dup6\n        /* \"#utility.yul\":2091:2163   */\n      tag_41\n      jump\t// in\n    tag_51:\n        /* \"#utility.yul\":2173:2245   */\n      tag_52\n        /* \"#utility.yul\":2241:2243   */\n      0x40\n        /* \"#utility.yul\":2230:2239   */\n      dup4\n        /* \"#utility.yul\":2226:2244   */\n      add\n        /* \"#utility.yul\":2217:2223   */\n      dup5\n        /* \"#utility.yul\":2173:2245   */\n      tag_45\n      jump\t// in\n    tag_52:\n        /* \"#utility.yul\":1810:2252   */\n      swap5\n      swap4\n      pop\n      pop\n      pop\n      pop\n      jump\t// out\n        /* \"#utility.yul\":2339:2435   */\n    tag_44:\n        /* \"#utility.yul\":2376:2383   */\n      0x00\n        /* \"#utility.yul\":2405:2429   */\n      tag_56\n        /* \"#utility.yul\":2423:2428   */\n      dup3\n        /* \"#utility.yul\":2405:2429   */\n      tag_57\n      jump\t// in\n    tag_56:\n        /* \"#utility.yul\":2394:2429   */\n      swap1\n      pop\n        /* \"#utility.yul\":2339:2435   */\n      swap2\n      swap1\n      pop\n      jump\t// out\n        /* \"#utility.yul\":2441:2531   */\n    tag_58:\n        /* \"#utility.yul\":2475:2482   */\n      0x00\n        /* \"#utility.yul\":2518:2523   */\n      dup2\n        /* \"#utility.yul\":2511:2524   */\n      iszero\n        /* \"#utility.yul\":2504:2525   */\n      iszero\n        /* \"#utility.yul\":2493:2525   */\n      swap1\n      pop\n        /* \"#utility.yul\":2441:2531   */\n      swap2\n      swap1\n      pop\n      jump\t// out\n        /* \"#utility.yul\":2537:2663   */\n    tag_57:\n        /* \"#utility.yul\":2574:2581   */\n      0x00\n        /* \"#utility.yul\":2614:2656   */\n      0xffffffffffffffffffffffffffffffffffffffff\n        /* \"#utility.yul\":2607:2612   */\n      dup3\n        /* \"#utility.yul\":2603:2657   */\n      and\n        /* \"#utility.yul\":2592:2657   */\n      swap1\n      pop\n        /* \"#utility.yul\":2537:2663   */\n      swap2\n      swap1\n      pop\n      jump\t// out\n        /* \"#utility.yul\":2669:2746   */\n    tag_48:\n        /* \"#utility.yul\":2706:2713   */\n      0x00\n        /* \"#utility.yul\":2735:2740   */\n      dup2\n        /* \"#utility.yul\":2724:2740   */\n      swap1\n      pop\n        /* \"#utility.yul\":2669:2746   */\n      swap2\n      swap1\n      pop\n      jump\t// out\n        /* \"#utility.yul\":2875:2992   */\n    tag_32:\n        /* \"#utility.yul\":2984:2985   */\n      0x00\n        /* \"#utility.yul\":2981:2982   */\n      dup1\n        /* \"#utility.yul\":2974:2986   */\n      revert\n        /* \"#utility.yul\":2998:3120   */\n    tag_20:\n        /* \"#utility.yul\":3071:3095   */\n      tag_66\n        /* \"#utility.yul\":3089:3094   */\n      dup2\n        /* \"#utility.yul\":3071:3095   */\n      tag_44\n      jump\t// in\n    tag_66:\n        /* \"#utility.yul\":3064:3069   */\n      dup2\n        /* \"#utility.yul\":3061:3096   */\n      eq\n        /* \"#utility.yul\":3051:3114   */\n      tag_67\n      jumpi\n        /* \"#utility.yul\":3110:3111   */\n      0x00\n        /* \"#utility.yul\":3107:3108   */\n      dup1\n        /* \"#utility.yul\":3100:3112   */\n      revert\n        /* \"#utility.yul\":3051:3114   */\n    tag_67:\n        /* \"#utility.yul\":2998:3120   */\n      pop\n      jump\t// out\n        /* \"#utility.yul\":3126:3242   */\n    tag_24:\n        /* \"#utility.yul\":3196:3217   */\n      tag_69\n        /* \"#utility.yul\":3211:3216   */\n      dup2\n        /* \"#utility.yul\":3196:3217   */\n      tag_58\n      jump\t// in\n    tag_69:\n        /* \"#utility.yul\":3189:3194   */\n      dup2\n        /* \"#utility.yul\":3186:3218   */\n      eq\n        /* \"#utility.yul\":3176:3236   */\n      tag_70\n      jumpi\n        /* \"#utility.yul\":3232:3233   */\n      0x00\n        /* \"#utility.yul\":3229:3230   */\n      dup1\n        /* \"#utility.yul\":3222:3234   */\n      revert\n        /* \"#utility.yul\":3176:3236   */\n    tag_70:\n        /* \"#utility.yul\":3126:3242   */\n      pop\n      jump\t// out\n        /* \"#utility.yul\":3248:3370   */\n    tag_28:\n        /* \"#utility.yul\":3321:3345   */\n      tag_72\n        /* \"#utility.yul\":3339:3344   */\n      dup2\n        /* \"#utility.yul\":3321:3345   */\n      tag_48\n      jump\t// in\n    tag_72:\n        /* \"#utility.yul\":3314:3319   */\n      dup2\n        /* \"#utility.yul\":3311:3346   */\n      eq\n        /* \"#utility.yul\":3301:3364   */\n      tag_73\n      jumpi\n        /* \"#utility.yul\":3360:3361   */\n      0x00\n        /* \"#utility.yul\":3357:3358   */\n      dup1\n        /* \"#utility.yul\":3350:3362   */\n      revert\n        /* \"#utility.yul\":3301:3364   */\n    tag_73:\n        /* \"#utility.yul\":3248:3370   */\n      pop\n      jump\t// out\n\n    auxdata: 0xa2646970667358221220658053def1ec063cb3f340c8e6e095ef4257dc461c984b678bc1b0a80609139264736f6c63430008070033\n}\n",
				"bytecode": {
					"linkReferences": {},
					"object": "608060405234801561001057600080fd5b506102d2806100206000396000f3fe608060405234801561001057600080fd5b506004361061002b5760003560e01c8063f18d03cc14610030575b600080fd5b61004a60048036038101906100459190610121565b61004c565b005b8373ffffffffffffffffffffffffffffffffffffffff166323b872dd8484846040518463ffffffff1660e01b8152600401610089939291906101d3565b602060405180830381600087803b1580156100a357600080fd5b505af11580156100b7573d6000803e3d6000fd5b505050506040513d601f19601f820116820180604052508101906100db9190610188565b5050505050565b6000813590506100f181610257565b92915050565b6000815190506101068161026e565b92915050565b60008135905061011b81610285565b92915050565b6000806000806080858703121561013b5761013a610252565b5b6000610149878288016100e2565b945050602061015a878288016100e2565b935050604061016b878288016100e2565b925050606061017c8782880161010c565b91505092959194509250565b60006020828403121561019e5761019d610252565b5b60006101ac848285016100f7565b91505092915050565b6101be8161020a565b82525050565b6101cd81610248565b82525050565b60006060820190506101e860008301866101b5565b6101f560208301856101b5565b61020260408301846101c4565b949350505050565b600061021582610228565b9050919050565b60008115159050919050565b600073ffffffffffffffffffffffffffffffffffffffff82169050919050565b6000819050919050565b600080fd5b6102608161020a565b811461026b57600080fd5b50565b6102778161021c565b811461028257600080fd5b50565b61028e81610248565b811461029957600080fd5b5056fea2646970667358221220658053def1ec063cb3f340c8e6e095ef4257dc461c984b678bc1b0a80609139264736f6c63430008070033",
					"opcodes": "PUSH1 0x80 PUSH1 0x40 MSTORE CALLVALUE DUP1 ISZERO PUSH2 0x10 JUMPI PUSH1 0x0 DUP1 REVERT JUMPDEST POP PUSH2 0x2D2 DUP1 PUSH2 0x20 PUSH1 0x0 CODECOPY PUSH1 0x0 RETURN INVALID PUSH1 0x80 PUSH1 0x40 MSTORE CALLVALUE DUP1 ISZERO PUSH2 0x10 JUMPI PUSH1 0x0 DUP1 REVERT JUMPDEST POP PUSH1 0x4 CALLDATASIZE LT PUSH2 0x2B JUMPI PUSH1 0x0 CALLDATALOAD PUSH1 0xE0 SHR DUP1 PUSH4 0xF18D03CC EQ PUSH2 0x30 JUMPI JUMPDEST PUSH1 0x0 DUP1 REVERT JUMPDEST PUSH2 0x4A PUSH1 0x4 DUP1 CALLDATASIZE SUB DUP2 ADD SWAP1 PUSH2 0x45 SWAP2 SWAP1 PUSH2 0x121 JUMP JUMPDEST PUSH2 0x4C JUMP JUMPDEST STOP JUMPDEST DUP4 PUSH20 0xFFFFFFFFFFFFFFFFFFFFFFFFFFFFFFFFFFFFFFFF AND PUSH4 0x23B872DD DUP5 DUP5 DUP5 PUSH1 0x40 MLOAD DUP5 PUSH4 0xFFFFFFFF AND PUSH1 0xE0 SHL DUP2 MSTORE PUSH1 0x4 ADD PUSH2 0x89 SWAP4 SWAP3 SWAP2 SWAP1 PUSH2 0x1D3 JUMP JUMPDEST PUSH1 0x20 PUSH1 0x40 MLOAD DUP1 DUP4 SUB DUP2 PUSH1 0x0 DUP8 DUP1 EXTCODESIZE ISZERO DUP1 ISZERO PUSH2 0xA3 JUMPI PUSH1 0x0 DUP1 REVERT JUMPDEST POP GAS CALL ISZERO DUP1 ISZERO PUSH2 0xB7 JUMPI RETURNDATASIZE PUSH1 0x0 DUP1 RETURNDATACOPY RETURNDATASIZE PUSH1 0x0 REVERT JUMPDEST POP POP POP POP PUSH1 0x40 MLOAD RETURNDATASIZE PUSH1 0x1F NOT PUSH1 0x1F DUP3 ADD AND DUP3 ADD DUP1 PUSH1 0x40 MSTORE POP DUP2 ADD SWAP1 PUSH2 0xDB SWAP2 SWAP1 PUSH2 0x188 JUMP JUMPDEST POP POP POP POP POP JUMP JUMPDEST PUSH1 0x0 DUP2 CALLDATALOAD SWAP1 POP PUSH2 0xF1 DUP2 PUSH2 0x257 JUMP JUMPDEST SWAP3 SWAP2 POP POP JUMP JUMPDEST PUSH1 0x0 DUP2 MLOAD SWAP1 POP PUSH2 0x106 DUP2 PUSH2 0x26E JUMP JUMPDEST SWAP3 SWAP2 POP POP JUMP JUMPDEST PUSH1 0x0 DUP2 CALLDATALOAD SWAP1 POP PUSH2 0x11B DUP2 PUSH2 0x285 JUMP JUMPDEST SWAP3 SWAP2 POP POP JUMP JUMPDEST PUSH1 0x0 DUP1 PUSH1 0x0 DUP1 PUSH1 0x80 DUP6 DUP8 SUB SLT ISZERO PUSH2 0x13B JUMPI PUSH2 0x13A PUSH2 0x252 JUMP JUMPDEST JUMPDEST PUSH1 0x0 PUSH2 0x149 DUP8 DUP3 DUP9 ADD PUSH2 0xE2 JUMP JUMPDEST SWAP5 POP POP PUSH1 0x20 PUSH2 0x15A DUP8 DUP3 DUP9 ADD PUSH2 0xE2 JUMP JUMPDEST SWAP4 POP POP PUSH1 0x40 PUSH2 0x16B DUP8 DUP3 DUP9 ADD PUSH2 0xE2 JUMP JUMPDEST SWAP3 POP POP PUSH1 0x60 PUSH2 0x17C DUP8 DUP3 DUP9 ADD PUSH2 0x10C JUMP JUMPDEST SWAP2 POP POP SWAP3 SWAP6 SWAP2 SWAP5 POP SWAP3 POP JUMP JUMPDEST PUSH1 0x0 PUSH1 0x20 DUP3 DUP5 SUB SLT ISZERO PUSH2 0x19E JUMPI PUSH2 0x19D PUSH2 0x252 JUMP JUMPDEST JUMPDEST PUSH1 0x0 PUSH2 0x1AC DUP5 DUP3 DUP6 ADD PUSH2 0xF7 JUMP JUMPDEST SWAP2 POP POP SWAP3 SWAP2 POP POP JUMP JUMPDEST PUSH2 0x1BE DUP2 PUSH2 0x20A JUMP JUMPDEST DUP3 MSTORE POP POP JUMP JUMPDEST PUSH2 0x1CD DUP2 PUSH2 0x248 JUMP JUMPDEST DUP3 MSTORE POP POP JUMP JUMPDEST PUSH1 0x0 PUSH1 0x60 DUP3 ADD SWAP1 POP PUSH2 0x1E8 PUSH1 0x0 DUP4 ADD DUP7 PUSH2 0x1B5 JUMP JUMPDEST PUSH2 0x1F5 PUSH1 0x20 DUP4 ADD DUP6 PUSH2 0x1B5 JUMP JUMPDEST PUSH2 0x202 PUSH1 0x40 DUP4 ADD DUP5 PUSH2 0x1C4 JUMP JUMPDEST SWAP5 SWAP4 POP POP POP POP JUMP JUMPDEST PUSH1 0x0 PUSH2 0x215 DUP3 PUSH2 0x228 JUMP JUMPDEST SWAP1 POP SWAP2 SWAP1 POP JUMP JUMPDEST PUSH1 0x0 DUP2 ISZERO ISZERO SWAP1 POP SWAP2 SWAP1 POP JUMP JUMPDEST PUSH1 0x0 PUSH20 0xFFFFFFFFFFFFFFFFFFFFFFFFFFFFFFFFFFFFFFFF DUP3 AND SWAP1 POP SWAP2 SWAP1 POP JUMP JUMPDEST PUSH1 0x0 DUP2 SWAP1 POP SWAP2 SWAP1 POP JUMP JUMPDEST PUSH1 0x0 DUP1 REVERT JUMPDEST PUSH2 0x260 DUP2 PUSH2 0x20A JUMP JUMPDEST DUP2 EQ PUSH2 0x26B JUMPI PUSH1 0x0 DUP1 REVERT JUMPDEST POP JUMP JUMPDEST PUSH2 0x277 DUP2 PUSH2 0x21C JUMP JUMPDEST DUP2 EQ PUSH2 0x282 JUMPI PUSH1 0x0 DUP1 REVERT JUMPDEST POP JUMP JUMPDEST PUSH2 0x28E DUP2 PUSH2 0x248 JUMP JUMPDEST DUP2 EQ PUSH2 0x299 JUMPI PUSH1 0x0 DUP1 REVERT JUMPDEST POP JUMP INVALID LOG2 PUSH5 0x6970667358 0x22 SLT KECCAK256 PUSH6 0x8053DEF1EC06 EXTCODECOPY 0xB3 RETURN BLOCKHASH 0xC8 0xE6 0xE0 SWAP6 0xEF TIMESTAMP JUMPI 0xDC CHAINID SHR SWAP9 0x4B PUSH8 0x8BC1B0A806091392 PUSH5 0x736F6C6343 STOP ADDMOD SMOD STOP CALLER "
				},
				"gasEstimates": {
					"creation": {
						"codeDepositCost": "144400",
						"executionCost": "190",
						"totalCost": "144590"
					},
					"external": {
						"transfer(address,address,address,uint256)": "infinite"
					}
				},
				"methodIdentifiers": {
					"transfer(address,address,address,uint256)": "f18d03cc"
				}
			},
			"storageLayout": {
				"storage": [],
				"types": null
			},
			"userdoc": {
				"kind": "user",
				"methods": {},
				"version": 1
			}
		}
	}
}