{
	"contracts/LiquidityPool.sol": {
		"LiquidityPool": {
			"abi": [
				{
					"inputs": [
						{
							"internalType": "address",
							"name": "_tokenAddress",
							"type": "address"
						}
					],
					"stateMutability": "nonpayable",
					"type": "constructor"
				},
				{
					"inputs": [
						{
							"internalType": "uint256",
							"name": "_amount",
							"type": "uint256"
						}
					],
					"name": "provideLiquidity",
					"outputs": [],
					"stateMutability": "payable",
					"type": "function"
				},
				{
					"inputs": [],
					"name": "token",
					"outputs": [
						{
							"internalType": "contract IERC20",
							"name": "",
							"type": "address"
						}
					],
					"stateMutability": "view",
					"type": "function"
				},
				{
					"inputs": [],
					"name": "tokenAddress",
					"outputs": [
						{
							"internalType": "address",
							"name": "",
							"type": "address"
						}
					],
					"stateMutability": "view",
					"type": "function"
				}
			],
			"devdoc": {
				"kind": "dev",
				"methods": {},
				"version": 1
			},
			"evm": {
				"assembly": "    /* \"contracts/LiquidityPool.sol\":241:738  contract LiquidityPool {... */\n  mstore(0x40, 0x80)\n    /* \"contracts/LiquidityPool.sol\":417:496  constructor(address _tokenAddress){... */\n  callvalue\n  dup1\n  iszero\n  tag_1\n  jumpi\n  0x00\n  dup1\n  revert\ntag_1:\n  pop\n  mload(0x40)\n  sub(codesize, bytecodeSize)\n  dup1\n  bytecodeSize\n  dup4\n  codecopy\n  dup2\n  dup2\n  add\n  0x40\n  mstore\n  dup2\n  add\n  swap1\n  tag_2\n  swap2\n  swap1\n  tag_3\n  jump\t// in\ntag_2:\n    /* \"contracts/LiquidityPool.sol\":477:489  tokenAddress */\n  0x01\n  0x00\n  swap1\n  sload\n  swap1\n  0x0100\n  exp\n  swap1\n  div\n  0xffffffffffffffffffffffffffffffffffffffff\n  and\n    /* \"contracts/LiquidityPool.sol\":461:489  _tokenAddress = tokenAddress */\n  swap1\n  pop\n    /* \"contracts/LiquidityPool.sol\":417:496  constructor(address _tokenAddress){... */\n  pop\n    /* \"contracts/LiquidityPool.sol\":241:738  contract LiquidityPool {... */\n  jump(tag_6)\n    /* \"#utility.yul\":7:150   */\ntag_8:\n    /* \"#utility.yul\":64:69   */\n  0x00\n    /* \"#utility.yul\":95:101   */\n  dup2\n    /* \"#utility.yul\":89:102   */\n  mload\n    /* \"#utility.yul\":80:102   */\n  swap1\n  pop\n    /* \"#utility.yul\":111:144   */\n  tag_10\n    /* \"#utility.yul\":138:143   */\n  dup2\n    /* \"#utility.yul\":111:144   */\n  tag_11\n  jump\t// in\ntag_10:\n    /* \"#utility.yul\":7:150   */\n  swap3\n  swap2\n  pop\n  pop\n  jump\t// out\n    /* \"#utility.yul\":156:507   */\ntag_3:\n    /* \"#utility.yul\":226:232   */\n  0x00\n    /* \"#utility.yul\":275:277   */\n  0x20\n    /* \"#utility.yul\":263:272   */\n  dup3\n    /* \"#utility.yul\":254:261   */\n  dup5\n    /* \"#utility.yul\":250:273   */\n  sub\n    /* \"#utility.yul\":246:278   */\n  slt\n    /* \"#utility.yul\":243:362   */\n  iszero\n  tag_13\n  jumpi\n    /* \"#utility.yul\":281:360   */\n  tag_14\n  tag_15\n  jump\t// in\ntag_14:\n    /* \"#utility.yul\":243:362   */\ntag_13:\n    /* \"#utility.yul\":401:402   */\n  0x00\n    /* \"#utility.yul\":426:490   */\n  tag_16\n    /* \"#utility.yul\":482:489   */\n  dup5\n    /* \"#utility.yul\":473:479   */\n  dup3\n    /* \"#utility.yul\":462:471   */\n  dup6\n    /* \"#utility.yul\":458:480   */\n  add\n    /* \"#utility.yul\":426:490   */\n  tag_8\n  jump\t// in\ntag_16:\n    /* \"#utility.yul\":416:490   */\n  swap2\n  pop\n    /* \"#utility.yul\":372:500   */\n  pop\n    /* \"#utility.yul\":156:507   */\n  swap3\n  swap2\n  pop\n  pop\n  jump\t// out\n    /* \"#utility.yul\":594:690   */\ntag_19:\n    /* \"#utility.yul\":631:638   */\n  0x00\n    /* \"#utility.yul\":660:684   */\n  tag_21\n    /* \"#utility.yul\":678:683   */\n  dup3\n    /* \"#utility.yul\":660:684   */\n  tag_22\n  jump\t// in\ntag_21:\n    /* \"#utility.yul\":649:684   */\n  swap1\n  pop\n    /* \"#utility.yul\":594:690   */\n  swap2\n  swap1\n  pop\n  jump\t// out\n    /* \"#utility.yul\":696:822   */\ntag_22:\n    /* \"#utility.yul\":733:740   */\n  0x00\n    /* \"#utility.yul\":773:815   */\n  0xffffffffffffffffffffffffffffffffffffffff\n    /* \"#utility.yul\":766:771   */\n  dup3\n    /* \"#utility.yul\":762:816   */\n  and\n    /* \"#utility.yul\":751:816   */\n  swap1\n  pop\n    /* \"#utility.yul\":696:822   */\n  swap2\n  swap1\n  pop\n  jump\t// out\n    /* \"#utility.yul\":951:1068   */\ntag_15:\n    /* \"#utility.yul\":1060:1061   */\n  0x00\n    /* \"#utility.yul\":1057:1058   */\n  dup1\n    /* \"#utility.yul\":1050:1062   */\n  revert\n    /* \"#utility.yul\":1074:1196   */\ntag_11:\n    /* \"#utility.yul\":1147:1171   */\n  tag_28\n    /* \"#utility.yul\":1165:1170   */\n  dup2\n    /* \"#utility.yul\":1147:1171   */\n  tag_19\n  jump\t// in\ntag_28:\n    /* \"#utility.yul\":1140:1145   */\n  dup2\n    /* \"#utility.yul\":1137:1172   */\n  eq\n    /* \"#utility.yul\":1127:1190   */\n  tag_29\n  jumpi\n    /* \"#utility.yul\":1186:1187   */\n  0x00\n    /* \"#utility.yul\":1183:1184   */\n  dup1\n    /* \"#utility.yul\":1176:1188   */\n  revert\n    /* \"#utility.yul\":1127:1190   */\ntag_29:\n    /* \"#utility.yul\":1074:1196   */\n  pop\n  jump\t// out\n    /* \"contracts/LiquidityPool.sol\":241:738  contract LiquidityPool {... */\ntag_6:\n  dataSize(sub_0)\n  dup1\n  dataOffset(sub_0)\n  0x00\n  codecopy\n  0x00\n  return\nstop\n\nsub_0: assembly {\n        /* \"contracts/LiquidityPool.sol\":241:738  contract LiquidityPool {... */\n      mstore(0x40, 0x80)\n      jumpi(tag_1, lt(calldatasize, 0x04))\n      shr(0xe0, calldataload(0x00))\n      dup1\n      0x9d76ea58\n      eq\n      tag_2\n      jumpi\n      dup1\n      0xeb521a4c\n      eq\n      tag_3\n      jumpi\n      dup1\n      0xfc0c546a\n      eq\n      tag_4\n      jumpi\n    tag_1:\n      0x00\n      dup1\n      revert\n        /* \"contracts/LiquidityPool.sol\":383:410  address public tokenAddress */\n    tag_2:\n      callvalue\n      dup1\n      iszero\n      tag_5\n      jumpi\n      0x00\n      dup1\n      revert\n    tag_5:\n      pop\n      tag_6\n      tag_7\n      jump\t// in\n    tag_6:\n      mload(0x40)\n      tag_8\n      swap2\n      swap1\n      tag_9\n      jump\t// in\n    tag_8:\n      mload(0x40)\n      dup1\n      swap2\n      sub\n      swap1\n      return\n        /* \"contracts/LiquidityPool.sol\":503:736  function provideLiquidity(uint256 _amount) external payable {... */\n    tag_3:\n      tag_10\n      0x04\n      dup1\n      calldatasize\n      sub\n      dup2\n      add\n      swap1\n      tag_11\n      swap2\n      swap1\n      tag_12\n      jump\t// in\n    tag_11:\n      tag_13\n      jump\t// in\n    tag_10:\n      stop\n        /* \"contracts/LiquidityPool.sol\":358:377  IERC20 public token */\n    tag_4:\n      callvalue\n      dup1\n      iszero\n      tag_14\n      jumpi\n      0x00\n      dup1\n      revert\n    tag_14:\n      pop\n      tag_15\n      tag_16\n      jump\t// in\n    tag_15:\n      mload(0x40)\n      tag_17\n      swap2\n      swap1\n      tag_18\n      jump\t// in\n    tag_17:\n      mload(0x40)\n      dup1\n      swap2\n      sub\n      swap1\n      return\n        /* \"contracts/LiquidityPool.sol\":383:410  address public tokenAddress */\n    tag_7:\n      0x01\n      0x00\n      swap1\n      sload\n      swap1\n      0x0100\n      exp\n      swap1\n      div\n      0xffffffffffffffffffffffffffffffffffffffff\n      and\n      dup2\n      jump\t// out\n        /* \"contracts/LiquidityPool.sol\":503:736  function provideLiquidity(uint256 _amount) external payable {... */\n    tag_13:\n        /* \"contracts/LiquidityPool.sol\":594:601  _amount */\n      dup1\n        /* \"contracts/LiquidityPool.sol\":581:590  msg.value */\n      callvalue\n        /* \"contracts/LiquidityPool.sol\":581:601  msg.value == _amount */\n      eq\n        /* \"contracts/LiquidityPool.sol\":573:650  require(msg.value == _amount, \"The amount of ETH and tokens should be equal\") */\n      tag_20\n      jumpi\n      mload(0x40)\n      0x08c379a000000000000000000000000000000000000000000000000000000000\n      dup2\n      mstore\n      0x04\n      add\n      tag_21\n      swap1\n      tag_22\n      jump\t// in\n    tag_21:\n      mload(0x40)\n      dup1\n      swap2\n      sub\n      swap1\n      revert\n    tag_20:\n        /* \"contracts/LiquidityPool.sol\":667:679  tokenAddress */\n      0x01\n      0x00\n      swap1\n      sload\n      swap1\n      0x0100\n      exp\n      swap1\n      div\n      0xffffffffffffffffffffffffffffffffffffffff\n      and\n        /* \"contracts/LiquidityPool.sol\":660:693  IERC20(tokenAddress).transferFrom */\n      0xffffffffffffffffffffffffffffffffffffffff\n      and\n      0x23b872dd\n        /* \"contracts/LiquidityPool.sol\":694:704  msg.sender */\n      caller\n        /* \"contracts/LiquidityPool.sol\":714:718  this */\n      address\n        /* \"contracts/LiquidityPool.sol\":721:728  _amount */\n      dup5\n        /* \"contracts/LiquidityPool.sol\":660:729  IERC20(tokenAddress).transferFrom(msg.sender, address(this), _amount) */\n      mload(0x40)\n      dup5\n      0xffffffff\n      and\n      0xe0\n      shl\n      dup2\n      mstore\n      0x04\n      add\n      tag_23\n      swap4\n      swap3\n      swap2\n      swap1\n      tag_24\n      jump\t// in\n    tag_23:\n      0x20\n      mload(0x40)\n      dup1\n      dup4\n      sub\n      dup2\n      0x00\n      dup8\n      dup1\n      extcodesize\n      iszero\n      dup1\n      iszero\n      tag_25\n      jumpi\n      0x00\n      dup1\n      revert\n    tag_25:\n      pop\n      gas\n      call\n      iszero\n      dup1\n      iszero\n      tag_27\n      jumpi\n      returndatasize\n      0x00\n      dup1\n      returndatacopy\n      revert(0x00, returndatasize)\n    tag_27:\n      pop\n      pop\n      pop\n      pop\n      mload(0x40)\n      returndatasize\n      not(0x1f)\n      0x1f\n      dup3\n      add\n      and\n      dup3\n      add\n      dup1\n      0x40\n      mstore\n      pop\n      dup2\n      add\n      swap1\n      tag_28\n      swap2\n      swap1\n      tag_29\n      jump\t// in\n    tag_28:\n      pop\n        /* \"contracts/LiquidityPool.sol\":503:736  function provideLiquidity(uint256 _amount) external payable {... */\n      pop\n      jump\t// out\n        /* \"contracts/LiquidityPool.sol\":358:377  IERC20 public token */\n    tag_16:\n      0x00\n      dup1\n      sload\n      swap1\n      0x0100\n      exp\n      swap1\n      div\n      0xffffffffffffffffffffffffffffffffffffffff\n      and\n      dup2\n      jump\t// out\n        /* \"#utility.yul\":7:144   */\n    tag_31:\n        /* \"#utility.yul\":61:66   */\n      0x00\n        /* \"#utility.yul\":92:98   */\n      dup2\n        /* \"#utility.yul\":86:99   */\n      mload\n        /* \"#utility.yul\":77:99   */\n      swap1\n      pop\n        /* \"#utility.yul\":108:138   */\n      tag_33\n        /* \"#utility.yul\":132:137   */\n      dup2\n        /* \"#utility.yul\":108:138   */\n      tag_34\n      jump\t// in\n    tag_33:\n        /* \"#utility.yul\":7:144   */\n      swap3\n      swap2\n      pop\n      pop\n      jump\t// out\n        /* \"#utility.yul\":150:289   */\n    tag_35:\n        /* \"#utility.yul\":196:201   */\n      0x00\n        /* \"#utility.yul\":234:240   */\n      dup2\n        /* \"#utility.yul\":221:241   */\n      calldataload\n        /* \"#utility.yul\":212:241   */\n      swap1\n      pop\n        /* \"#utility.yul\":250:283   */\n      tag_37\n        /* \"#utility.yul\":277:282   */\n      dup2\n        /* \"#utility.yul\":250:283   */\n      tag_38\n      jump\t// in\n    tag_37:\n        /* \"#utility.yul\":150:289   */\n      swap3\n      swap2\n      pop\n      pop\n      jump\t// out\n        /* \"#utility.yul\":295:640   */\n    tag_29:\n        /* \"#utility.yul\":362:368   */\n      0x00\n        /* \"#utility.yul\":411:413   */\n      0x20\n        /* \"#utility.yul\":399:408   */\n      dup3\n        /* \"#utility.yul\":390:397   */\n      dup5\n        /* \"#utility.yul\":386:409   */\n      sub\n        /* \"#utility.yul\":382:414   */\n      slt\n        /* \"#utility.yul\":379:498   */\n      iszero\n      tag_40\n      jumpi\n        /* \"#utility.yul\":417:496   */\n      tag_41\n      tag_42\n      jump\t// in\n    tag_41:\n        /* \"#utility.yul\":379:498   */\n    tag_40:\n        /* \"#utility.yul\":537:538   */\n      0x00\n        /* \"#utility.yul\":562:623   */\n      tag_43\n        /* \"#utility.yul\":615:622   */\n      dup5\n        /* \"#utility.yul\":606:612   */\n      dup3\n        /* \"#utility.yul\":595:604   */\n      dup6\n        /* \"#utility.yul\":591:613   */\n      add\n        /* \"#utility.yul\":562:623   */\n      tag_31\n      jump\t// in\n    tag_43:\n        /* \"#utility.yul\":552:623   */\n      swap2\n      pop\n        /* \"#utility.yul\":508:633   */\n      pop\n        /* \"#utility.yul\":295:640   */\n      swap3\n      swap2\n      pop\n      pop\n      jump\t// out\n        /* \"#utility.yul\":646:975   */\n    tag_12:\n        /* \"#utility.yul\":705:711   */\n      0x00\n        /* \"#utility.yul\":754:756   */\n      0x20\n        /* \"#utility.yul\":742:751   */\n      dup3\n        /* \"#utility.yul\":733:740   */\n      dup5\n        /* \"#utility.yul\":729:752   */\n      sub\n        /* \"#utility.yul\":725:757   */\n      slt\n        /* \"#utility.yul\":722:841   */\n      iszero\n      tag_45\n      jumpi\n        /* \"#utility.yul\":760:839   */\n      tag_46\n      tag_42\n      jump\t// in\n    tag_46:\n        /* \"#utility.yul\":722:841   */\n    tag_45:\n        /* \"#utility.yul\":880:881   */\n      0x00\n        /* \"#utility.yul\":905:958   */\n      tag_47\n        /* \"#utility.yul\":950:957   */\n      dup5\n        /* \"#utility.yul\":941:947   */\n      dup3\n        /* \"#utility.yul\":930:939   */\n      dup6\n        /* \"#utility.yul\":926:948   */\n      add\n        /* \"#utility.yul\":905:958   */\n      tag_35\n      jump\t// in\n    tag_47:\n        /* \"#utility.yul\":895:958   */\n      swap2\n      pop\n        /* \"#utility.yul\":851:968   */\n      pop\n        /* \"#utility.yul\":646:975   */\n      swap3\n      swap2\n      pop\n      pop\n      jump\t// out\n        /* \"#utility.yul\":981:1099   */\n    tag_48:\n        /* \"#utility.yul\":1068:1092   */\n      tag_50\n        /* \"#utility.yul\":1086:1091   */\n      dup2\n        /* \"#utility.yul\":1068:1092   */\n      tag_51\n      jump\t// in\n    tag_50:\n        /* \"#utility.yul\":1063:1066   */\n      dup3\n        /* \"#utility.yul\":1056:1093   */\n      mstore\n        /* \"#utility.yul\":981:1099   */\n      pop\n      pop\n      jump\t// out\n        /* \"#utility.yul\":1105:1262   */\n    tag_52:\n        /* \"#utility.yul\":1205:1255   */\n      tag_54\n        /* \"#utility.yul\":1249:1254   */\n      dup2\n        /* \"#utility.yul\":1205:1255   */\n      tag_55\n      jump\t// in\n    tag_54:\n        /* \"#utility.yul\":1200:1203   */\n      dup3\n        /* \"#utility.yul\":1193:1256   */\n      mstore\n        /* \"#utility.yul\":1105:1262   */\n      pop\n      pop\n      jump\t// out\n        /* \"#utility.yul\":1268:1634   */\n    tag_56:\n        /* \"#utility.yul\":1410:1413   */\n      0x00\n        /* \"#utility.yul\":1431:1498   */\n      tag_58\n        /* \"#utility.yul\":1495:1497   */\n      0x2c\n        /* \"#utility.yul\":1490:1493   */\n      dup4\n        /* \"#utility.yul\":1431:1498   */\n      tag_59\n      jump\t// in\n    tag_58:\n        /* \"#utility.yul\":1424:1498   */\n      swap2\n      pop\n        /* \"#utility.yul\":1507:1600   */\n      tag_60\n        /* \"#utility.yul\":1596:1599   */\n      dup3\n        /* \"#utility.yul\":1507:1600   */\n      tag_61\n      jump\t// in\n    tag_60:\n        /* \"#utility.yul\":1625:1627   */\n      0x40\n        /* \"#utility.yul\":1620:1623   */\n      dup3\n        /* \"#utility.yul\":1616:1628   */\n      add\n        /* \"#utility.yul\":1609:1628   */\n      swap1\n      pop\n        /* \"#utility.yul\":1268:1634   */\n      swap2\n      swap1\n      pop\n      jump\t// out\n        /* \"#utility.yul\":1640:1758   */\n    tag_62:\n        /* \"#utility.yul\":1727:1751   */\n      tag_64\n        /* \"#utility.yul\":1745:1750   */\n      dup2\n        /* \"#utility.yul\":1727:1751   */\n      tag_65\n      jump\t// in\n    tag_64:\n        /* \"#utility.yul\":1722:1725   */\n      dup3\n        /* \"#utility.yul\":1715:1752   */\n      mstore\n        /* \"#utility.yul\":1640:1758   */\n      pop\n      pop\n      jump\t// out\n        /* \"#utility.yul\":1764:1986   */\n    tag_9:\n        /* \"#utility.yul\":1857:1861   */\n      0x00\n        /* \"#utility.yul\":1895:1897   */\n      0x20\n        /* \"#utility.yul\":1884:1893   */\n      dup3\n        /* \"#utility.yul\":1880:1898   */\n      add\n        /* \"#utility.yul\":1872:1898   */\n      swap1\n      pop\n        /* \"#utility.yul\":1908:1979   */\n      tag_67\n        /* \"#utility.yul\":1976:1977   */\n      0x00\n        /* \"#utility.yul\":1965:1974   */\n      dup4\n        /* \"#utility.yul\":1961:1978   */\n      add\n        /* \"#utility.yul\":1952:1958   */\n      dup5\n        /* \"#utility.yul\":1908:1979   */\n      tag_48\n      jump\t// in\n    tag_67:\n        /* \"#utility.yul\":1764:1986   */\n      swap3\n      swap2\n      pop\n      pop\n      jump\t// out\n        /* \"#utility.yul\":1992:2434   */\n    tag_24:\n        /* \"#utility.yul\":2141:2145   */\n      0x00\n        /* \"#utility.yul\":2179:2181   */\n      0x60\n        /* \"#utility.yul\":2168:2177   */\n      dup3\n        /* \"#utility.yul\":2164:2182   */\n      add\n        /* \"#utility.yul\":2156:2182   */\n      swap1\n      pop\n        /* \"#utility.yul\":2192:2263   */\n      tag_69\n        /* \"#utility.yul\":2260:2261   */\n      0x00\n        /* \"#utility.yul\":2249:2258   */\n      dup4\n        /* \"#utility.yul\":2245:2262   */\n      add\n        /* \"#utility.yul\":2236:2242   */\n      dup7\n        /* \"#utility.yul\":2192:2263   */\n      tag_48\n      jump\t// in\n    tag_69:\n        /* \"#utility.yul\":2273:2345   */\n      tag_70\n        /* \"#utility.yul\":2341:2343   */\n      0x20\n        /* \"#utility.yul\":2330:2339   */\n      dup4\n        /* \"#utility.yul\":2326:2344   */\n      add\n        /* \"#utility.yul\":2317:2323   */\n      dup6\n        /* \"#utility.yul\":2273:2345   */\n      tag_48\n      jump\t// in\n    tag_70:\n        /* \"#utility.yul\":2355:2427   */\n      tag_71\n        /* \"#utility.yul\":2423:2425   */\n      0x40\n        /* \"#utility.yul\":2412:2421   */\n      dup4\n        /* \"#utility.yul\":2408:2426   */\n      add\n        /* \"#utility.yul\":2399:2405   */\n      dup5\n        /* \"#utility.yul\":2355:2427   */\n      tag_62\n      jump\t// in\n    tag_71:\n        /* \"#utility.yul\":1992:2434   */\n      swap5\n      swap4\n      pop\n      pop\n      pop\n      pop\n      jump\t// out\n        /* \"#utility.yul\":2440:2688   */\n    tag_18:\n        /* \"#utility.yul\":2546:2550   */\n      0x00\n        /* \"#utility.yul\":2584:2586   */\n      0x20\n        /* \"#utility.yul\":2573:2582   */\n      dup3\n        /* \"#utility.yul\":2569:2587   */\n      add\n        /* \"#utility.yul\":2561:2587   */\n      swap1\n      pop\n        /* \"#utility.yul\":2597:2681   */\n      tag_73\n        /* \"#utility.yul\":2678:2679   */\n      0x00\n        /* \"#utility.yul\":2667:2676   */\n      dup4\n        /* \"#utility.yul\":2663:2680   */\n      add\n        /* \"#utility.yul\":2654:2660   */\n      dup5\n        /* \"#utility.yul\":2597:2681   */\n      tag_52\n      jump\t// in\n    tag_73:\n        /* \"#utility.yul\":2440:2688   */\n      swap3\n      swap2\n      pop\n      pop\n      jump\t// out\n        /* \"#utility.yul\":2694:3113   */\n    tag_22:\n        /* \"#utility.yul\":2860:2864   */\n      0x00\n        /* \"#utility.yul\":2898:2900   */\n      0x20\n        /* \"#utility.yul\":2887:2896   */\n      dup3\n        /* \"#utility.yul\":2883:2901   */\n      add\n        /* \"#utility.yul\":2875:2901   */\n      swap1\n      pop\n        /* \"#utility.yul\":2947:2956   */\n      dup2\n        /* \"#utility.yul\":2941:2945   */\n      dup2\n        /* \"#utility.yul\":2937:2957   */\n      sub\n        /* \"#utility.yul\":2933:2934   */\n      0x00\n        /* \"#utility.yul\":2922:2931   */\n      dup4\n        /* \"#utility.yul\":2918:2935   */\n      add\n        /* \"#utility.yul\":2911:2958   */\n      mstore\n        /* \"#utility.yul\":2975:3106   */\n      tag_75\n        /* \"#utility.yul\":3101:3105   */\n      dup2\n        /* \"#utility.yul\":2975:3106   */\n      tag_56\n      jump\t// in\n    tag_75:\n        /* \"#utility.yul\":2967:3106   */\n      swap1\n      pop\n        /* \"#utility.yul\":2694:3113   */\n      swap2\n      swap1\n      pop\n      jump\t// out\n        /* \"#utility.yul\":3200:3369   */\n    tag_59:\n        /* \"#utility.yul\":3284:3295   */\n      0x00\n        /* \"#utility.yul\":3318:3324   */\n      dup3\n        /* \"#utility.yul\":3313:3316   */\n      dup3\n        /* \"#utility.yul\":3306:3325   */\n      mstore\n        /* \"#utility.yul\":3358:3362   */\n      0x20\n        /* \"#utility.yul\":3353:3356   */\n      dup3\n        /* \"#utility.yul\":3349:3363   */\n      add\n        /* \"#utility.yul\":3334:3363   */\n      swap1\n      pop\n        /* \"#utility.yul\":3200:3369   */\n      swap3\n      swap2\n      pop\n      pop\n      jump\t// out\n        /* \"#utility.yul\":3375:3471   */\n    tag_51:\n        /* \"#utility.yul\":3412:3419   */\n      0x00\n        /* \"#utility.yul\":3441:3465   */\n      tag_80\n        /* \"#utility.yul\":3459:3464   */\n      dup3\n        /* \"#utility.yul\":3441:3465   */\n      tag_81\n      jump\t// in\n    tag_80:\n        /* \"#utility.yul\":3430:3465   */\n      swap1\n      pop\n        /* \"#utility.yul\":3375:3471   */\n      swap2\n      swap1\n      pop\n      jump\t// out\n        /* \"#utility.yul\":3477:3567   */\n    tag_82:\n        /* \"#utility.yul\":3511:3518   */\n      0x00\n        /* \"#utility.yul\":3554:3559   */\n      dup2\n        /* \"#utility.yul\":3547:3560   */\n      iszero\n        /* \"#utility.yul\":3540:3561   */\n      iszero\n        /* \"#utility.yul\":3529:3561   */\n      swap1\n      pop\n        /* \"#utility.yul\":3477:3567   */\n      swap2\n      swap1\n      pop\n      jump\t// out\n        /* \"#utility.yul\":3573:3699   */\n    tag_81:\n        /* \"#utility.yul\":3610:3617   */\n      0x00\n        /* \"#utility.yul\":3650:3692   */\n      0xffffffffffffffffffffffffffffffffffffffff\n        /* \"#utility.yul\":3643:3648   */\n      dup3\n        /* \"#utility.yul\":3639:3693   */\n      and\n        /* \"#utility.yul\":3628:3693   */\n      swap1\n      pop\n        /* \"#utility.yul\":3573:3699   */\n      swap2\n      swap1\n      pop\n      jump\t// out\n        /* \"#utility.yul\":3705:3782   */\n    tag_65:\n        /* \"#utility.yul\":3742:3749   */\n      0x00\n        /* \"#utility.yul\":3771:3776   */\n      dup2\n        /* \"#utility.yul\":3760:3776   */\n      swap1\n      pop\n        /* \"#utility.yul\":3705:3782   */\n      swap2\n      swap1\n      pop\n      jump\t// out\n        /* \"#utility.yul\":3788:3927   */\n    tag_55:\n        /* \"#utility.yul\":3851:3860   */\n      0x00\n        /* \"#utility.yul\":3884:3921   */\n      tag_87\n        /* \"#utility.yul\":3915:3920   */\n      dup3\n        /* \"#utility.yul\":3884:3921   */\n      tag_88\n      jump\t// in\n    tag_87:\n        /* \"#utility.yul\":3871:3921   */\n      swap1\n      pop\n        /* \"#utility.yul\":3788:3927   */\n      swap2\n      swap1\n      pop\n      jump\t// out\n        /* \"#utility.yul\":3933:4059   */\n    tag_88:\n        /* \"#utility.yul\":3983:3992   */\n      0x00\n        /* \"#utility.yul\":4016:4053   */\n      tag_90\n        /* \"#utility.yul\":4047:4052   */\n      dup3\n        /* \"#utility.yul\":4016:4053   */\n      tag_91\n      jump\t// in\n    tag_90:\n        /* \"#utility.yul\":4003:4053   */\n      swap1\n      pop\n        /* \"#utility.yul\":3933:4059   */\n      swap2\n      swap1\n      pop\n      jump\t// out\n        /* \"#utility.yul\":4065:4178   */\n    tag_91:\n        /* \"#utility.yul\":4115:4124   */\n      0x00\n        /* \"#utility.yul\":4148:4172   */\n      tag_93\n        /* \"#utility.yul\":4166:4171   */\n      dup3\n        /* \"#utility.yul\":4148:4172   */\n      tag_81\n      jump\t// in\n    tag_93:\n        /* \"#utility.yul\":4135:4172   */\n      swap1\n      pop\n        /* \"#utility.yul\":4065:4178   */\n      swap2\n      swap1\n      pop\n      jump\t// out\n        /* \"#utility.yul\":4307:4424   */\n    tag_42:\n        /* \"#utility.yul\":4416:4417   */\n      0x00\n        /* \"#utility.yul\":4413:4414   */\n      dup1\n        /* \"#utility.yul\":4406:4418   */\n      revert\n        /* \"#utility.yul\":4430:4661   */\n    tag_61:\n        /* \"#utility.yul\":4570:4604   */\n      0x54686520616d6f756e74206f662045544820616e6420746f6b656e732073686f\n        /* \"#utility.yul\":4566:4567   */\n      0x00\n        /* \"#utility.yul\":4558:4564   */\n      dup3\n        /* \"#utility.yul\":4554:4568   */\n      add\n        /* \"#utility.yul\":4547:4605   */\n      mstore\n        /* \"#utility.yul\":4639:4653   */\n      0x756c6420626520657175616c0000000000000000000000000000000000000000\n        /* \"#utility.yul\":4634:4636   */\n      0x20\n        /* \"#utility.yul\":4626:4632   */\n      dup3\n        /* \"#utility.yul\":4622:4637   */\n      add\n        /* \"#utility.yul\":4615:4654   */\n      mstore\n        /* \"#utility.yul\":4430:4661   */\n      pop\n      jump\t// out\n        /* \"#utility.yul\":4667:4783   */\n    tag_34:\n        /* \"#utility.yul\":4737:4758   */\n      tag_99\n        /* \"#utility.yul\":4752:4757   */\n      dup2\n        /* \"#utility.yul\":4737:4758   */\n      tag_82\n      jump\t// in\n    tag_99:\n        /* \"#utility.yul\":4730:4735   */\n      dup2\n        /* \"#utility.yul\":4727:4759   */\n      eq\n        /* \"#utility.yul\":4717:4777   */\n      tag_100\n      jumpi\n        /* \"#utility.yul\":4773:4774   */\n      0x00\n        /* \"#utility.yul\":4770:4771   */\n      dup1\n        /* \"#utility.yul\":4763:4775   */\n      revert\n        /* \"#utility.yul\":4717:4777   */\n    tag_100:\n        /* \"#utility.yul\":4667:4783   */\n      pop\n      jump\t// out\n        /* \"#utility.yul\":4789:4911   */\n    tag_38:\n        /* \"#utility.yul\":4862:4886   */\n      tag_102\n        /* \"#utility.yul\":4880:4885   */\n      dup2\n        /* \"#utility.yul\":4862:4886   */\n      tag_65\n      jump\t// in\n    tag_102:\n        /* \"#utility.yul\":4855:4860   */\n      dup2\n        /* \"#utility.yul\":4852:4887   */\n      eq\n        /* \"#utility.yul\":4842:4905   */\n      tag_103\n      jumpi\n        /* \"#utility.yul\":4901:4902   */\n      0x00\n        /* \"#utility.yul\":4898:4899   */\n      dup1\n        /* \"#utility.yul\":4891:4903   */\n      revert\n        /* \"#utility.yul\":4842:4905   */\n    tag_103:\n        /* \"#utility.yul\":4789:4911   */\n      pop\n      jump\t// out\n\n    auxdata: 0xa2646970667358221220cd908891b125e9efc755fbc4591a74f34b113d7103e86df1e04120db070ed33764736f6c63430008070033\n}\n",
				"bytecode": {
					"linkReferences": {},
					"object": "608060405234801561001057600080fd5b5060405161059038038061059083398181016040528101906100329190610072565b600160009054906101000a900473ffffffffffffffffffffffffffffffffffffffff169050506100ed565b60008151905061006c816100d6565b92915050565b600060208284031215610088576100876100d1565b5b60006100968482850161005d565b91505092915050565b60006100aa826100b1565b9050919050565b600073ffffffffffffffffffffffffffffffffffffffff82169050919050565b600080fd5b6100df8161009f565b81146100ea57600080fd5b50565b610494806100fc6000396000f3fe6080604052600436106100345760003560e01c80639d76ea5814610039578063eb521a4c14610064578063fc0c546a14610080575b600080fd5b34801561004557600080fd5b5061004e6100ab565b60405161005b91906102c0565b60405180910390f35b61007e60048036038101906100799190610243565b6100d1565b005b34801561008c57600080fd5b506100956101c8565b6040516100a29190610312565b60405180910390f35b600160009054906101000a900473ffffffffffffffffffffffffffffffffffffffff1681565b803414610113576040517f08c379a000000000000000000000000000000000000000000000000000000000815260040161010a9061032d565b60405180910390fd5b600160009054906101000a900473ffffffffffffffffffffffffffffffffffffffff1673ffffffffffffffffffffffffffffffffffffffff166323b872dd3330846040518463ffffffff1660e01b8152600401610172939291906102db565b602060405180830381600087803b15801561018c57600080fd5b505af11580156101a0573d6000803e3d6000fd5b505050506040513d601f19601f820116820180604052508101906101c49190610216565b5050565b60008054906101000a900473ffffffffffffffffffffffffffffffffffffffff1681565b6000815190506101fb81610430565b92915050565b60008135905061021081610447565b92915050565b60006020828403121561022c5761022b6103dc565b5b600061023a848285016101ec565b91505092915050565b600060208284031215610259576102586103dc565b5b600061026784828501610201565b91505092915050565b6102798161035e565b82525050565b610288816103a6565b82525050565b600061029b602c8361034d565b91506102a6826103e1565b604082019050919050565b6102ba8161039c565b82525050565b60006020820190506102d56000830184610270565b92915050565b60006060820190506102f06000830186610270565b6102fd6020830185610270565b61030a60408301846102b1565b949350505050565b6000602082019050610327600083018461027f565b92915050565b600060208201905081810360008301526103468161028e565b9050919050565b600082825260208201905092915050565b60006103698261037c565b9050919050565b60008115159050919050565b600073ffffffffffffffffffffffffffffffffffffffff82169050919050565b6000819050919050565b60006103b1826103b8565b9050919050565b60006103c3826103ca565b9050919050565b60006103d58261037c565b9050919050565b600080fd5b7f54686520616d6f756e74206f662045544820616e6420746f6b656e732073686f60008201527f756c6420626520657175616c0000000000000000000000000000000000000000602082015250565b61043981610370565b811461044457600080fd5b50565b6104508161039c565b811461045b57600080fd5b5056fea2646970667358221220cd908891b125e9efc755fbc4591a74f34b113d7103e86df1e04120db070ed33764736f6c63430008070033",
					"opcodes": "PUSH1 0x80 PUSH1 0x40 MSTORE CALLVALUE DUP1 ISZERO PUSH2 0x10 JUMPI PUSH1 0x0 DUP1 REVERT JUMPDEST POP PUSH1 0x40 MLOAD PUSH2 0x590 CODESIZE SUB DUP1 PUSH2 0x590 DUP4 CODECOPY DUP2 DUP2 ADD PUSH1 0x40 MSTORE DUP2 ADD SWAP1 PUSH2 0x32 SWAP2 SWAP1 PUSH2 0x72 JUMP JUMPDEST PUSH1 0x1 PUSH1 0x0 SWAP1 SLOAD SWAP1 PUSH2 0x100 EXP SWAP1 DIV PUSH20 0xFFFFFFFFFFFFFFFFFFFFFFFFFFFFFFFFFFFFFFFF AND SWAP1 POP POP PUSH2 0xED JUMP JUMPDEST PUSH1 0x0 DUP2 MLOAD SWAP1 POP PUSH2 0x6C DUP2 PUSH2 0xD6 JUMP JUMPDEST SWAP3 SWAP2 POP POP JUMP JUMPDEST PUSH1 0x0 PUSH1 0x20 DUP3 DUP5 SUB SLT ISZERO PUSH2 0x88 JUMPI PUSH2 0x87 PUSH2 0xD1 JUMP JUMPDEST JUMPDEST PUSH1 0x0 PUSH2 0x96 DUP5 DUP3 DUP6 ADD PUSH2 0x5D JUMP JUMPDEST SWAP2 POP POP SWAP3 SWAP2 POP POP JUMP JUMPDEST PUSH1 0x0 PUSH2 0xAA DUP3 PUSH2 0xB1 JUMP JUMPDEST SWAP1 POP SWAP2 SWAP1 POP JUMP JUMPDEST PUSH1 0x0 PUSH20 0xFFFFFFFFFFFFFFFFFFFFFFFFFFFFFFFFFFFFFFFF DUP3 AND SWAP1 POP SWAP2 SWAP1 POP JUMP JUMPDEST PUSH1 0x0 DUP1 REVERT JUMPDEST PUSH2 0xDF DUP2 PUSH2 0x9F JUMP JUMPDEST DUP2 EQ PUSH2 0xEA JUMPI PUSH1 0x0 DUP1 REVERT JUMPDEST POP JUMP JUMPDEST PUSH2 0x494 DUP1 PUSH2 0xFC PUSH1 0x0 CODECOPY PUSH1 0x0 RETURN INVALID PUSH1 0x80 PUSH1 0x40 MSTORE PUSH1 0x4 CALLDATASIZE LT PUSH2 0x34 JUMPI PUSH1 0x0 CALLDATALOAD PUSH1 0xE0 SHR DUP1 PUSH4 0x9D76EA58 EQ PUSH2 0x39 JUMPI DUP1 PUSH4 0xEB521A4C EQ PUSH2 0x64 JUMPI DUP1 PUSH4 0xFC0C546A EQ PUSH2 0x80 JUMPI JUMPDEST PUSH1 0x0 DUP1 REVERT JUMPDEST CALLVALUE DUP1 ISZERO PUSH2 0x45 JUMPI PUSH1 0x0 DUP1 REVERT JUMPDEST POP PUSH2 0x4E PUSH2 0xAB JUMP JUMPDEST PUSH1 0x40 MLOAD PUSH2 0x5B SWAP2 SWAP1 PUSH2 0x2C0 JUMP JUMPDEST PUSH1 0x40 MLOAD DUP1 SWAP2 SUB SWAP1 RETURN JUMPDEST PUSH2 0x7E PUSH1 0x4 DUP1 CALLDATASIZE SUB DUP2 ADD SWAP1 PUSH2 0x79 SWAP2 SWAP1 PUSH2 0x243 JUMP JUMPDEST PUSH2 0xD1 JUMP JUMPDEST STOP JUMPDEST CALLVALUE DUP1 ISZERO PUSH2 0x8C JUMPI PUSH1 0x0 DUP1 REVERT JUMPDEST POP PUSH2 0x95 PUSH2 0x1C8 JUMP JUMPDEST PUSH1 0x40 MLOAD PUSH2 0xA2 SWAP2 SWAP1 PUSH2 0x312 JUMP JUMPDEST PUSH1 0x40 MLOAD DUP1 SWAP2 SUB SWAP1 RETURN JUMPDEST PUSH1 0x1 PUSH1 0x0 SWAP1 SLOAD SWAP1 PUSH2 0x100 EXP SWAP1 DIV PUSH20 0xFFFFFFFFFFFFFFFFFFFFFFFFFFFFFFFFFFFFFFFF AND DUP2 JUMP JUMPDEST DUP1 CALLVALUE EQ PUSH2 0x113 JUMPI PUSH1 0x40 MLOAD PUSH32 0x8C379A000000000000000000000000000000000000000000000000000000000 DUP2 MSTORE PUSH1 0x4 ADD PUSH2 0x10A SWAP1 PUSH2 0x32D JUMP JUMPDEST PUSH1 0x40 MLOAD DUP1 SWAP2 SUB SWAP1 REVERT JUMPDEST PUSH1 0x1 PUSH1 0x0 SWAP1 SLOAD SWAP1 PUSH2 0x100 EXP SWAP1 DIV PUSH20 0xFFFFFFFFFFFFFFFFFFFFFFFFFFFFFFFFFFFFFFFF AND PUSH20 0xFFFFFFFFFFFFFFFFFFFFFFFFFFFFFFFFFFFFFFFF AND PUSH4 0x23B872DD CALLER ADDRESS DUP5 PUSH1 0x40 MLOAD DUP5 PUSH4 0xFFFFFFFF AND PUSH1 0xE0 SHL DUP2 MSTORE PUSH1 0x4 ADD PUSH2 0x172 SWAP4 SWAP3 SWAP2 SWAP1 PUSH2 0x2DB JUMP JUMPDEST PUSH1 0x20 PUSH1 0x40 MLOAD DUP1 DUP4 SUB DUP2 PUSH1 0x0 DUP8 DUP1 EXTCODESIZE ISZERO DUP1 ISZERO PUSH2 0x18C JUMPI PUSH1 0x0 DUP1 REVERT JUMPDEST POP GAS CALL ISZERO DUP1 ISZERO PUSH2 0x1A0 JUMPI RETURNDATASIZE PUSH1 0x0 DUP1 RETURNDATACOPY RETURNDATASIZE PUSH1 0x0 REVERT JUMPDEST POP POP POP POP PUSH1 0x40 MLOAD RETURNDATASIZE PUSH1 0x1F NOT PUSH1 0x1F DUP3 ADD AND DUP3 ADD DUP1 PUSH1 0x40 MSTORE POP DUP2 ADD SWAP1 PUSH2 0x1C4 SWAP2 SWAP1 PUSH2 0x216 JUMP JUMPDEST POP POP JUMP JUMPDEST PUSH1 0x0 DUP1 SLOAD SWAP1 PUSH2 0x100 EXP SWAP1 DIV PUSH20 0xFFFFFFFFFFFFFFFFFFFFFFFFFFFFFFFFFFFFFFFF AND DUP2 JUMP JUMPDEST PUSH1 0x0 DUP2 MLOAD SWAP1 POP PUSH2 0x1FB DUP2 PUSH2 0x430 JUMP JUMPDEST SWAP3 SWAP2 POP POP JUMP JUMPDEST PUSH1 0x0 DUP2 CALLDATALOAD SWAP1 POP PUSH2 0x210 DUP2 PUSH2 0x447 JUMP JUMPDEST SWAP3 SWAP2 POP POP JUMP JUMPDEST PUSH1 0x0 PUSH1 0x20 DUP3 DUP5 SUB SLT ISZERO PUSH2 0x22C JUMPI PUSH2 0x22B PUSH2 0x3DC JUMP JUMPDEST JUMPDEST PUSH1 0x0 PUSH2 0x23A DUP5 DUP3 DUP6 ADD PUSH2 0x1EC JUMP JUMPDEST SWAP2 POP POP SWAP3 SWAP2 POP POP JUMP JUMPDEST PUSH1 0x0 PUSH1 0x20 DUP3 DUP5 SUB SLT ISZERO PUSH2 0x259 JUMPI PUSH2 0x258 PUSH2 0x3DC JUMP JUMPDEST JUMPDEST PUSH1 0x0 PUSH2 0x267 DUP5 DUP3 DUP6 ADD PUSH2 0x201 JUMP JUMPDEST SWAP2 POP POP SWAP3 SWAP2 POP POP JUMP JUMPDEST PUSH2 0x279 DUP2 PUSH2 0x35E JUMP JUMPDEST DUP3 MSTORE POP POP JUMP JUMPDEST PUSH2 0x288 DUP2 PUSH2 0x3A6 JUMP JUMPDEST DUP3 MSTORE POP POP JUMP JUMPDEST PUSH1 0x0 PUSH2 0x29B PUSH1 0x2C DUP4 PUSH2 0x34D JUMP JUMPDEST SWAP2 POP PUSH2 0x2A6 DUP3 PUSH2 0x3E1 JUMP JUMPDEST PUSH1 0x40 DUP3 ADD SWAP1 POP SWAP2 SWAP1 POP JUMP JUMPDEST PUSH2 0x2BA DUP2 PUSH2 0x39C JUMP JUMPDEST DUP3 MSTORE POP POP JUMP JUMPDEST PUSH1 0x0 PUSH1 0x20 DUP3 ADD SWAP1 POP PUSH2 0x2D5 PUSH1 0x0 DUP4 ADD DUP5 PUSH2 0x270 JUMP JUMPDEST SWAP3 SWAP2 POP POP JUMP JUMPDEST PUSH1 0x0 PUSH1 0x60 DUP3 ADD SWAP1 POP PUSH2 0x2F0 PUSH1 0x0 DUP4 ADD DUP7 PUSH2 0x270 JUMP JUMPDEST PUSH2 0x2FD PUSH1 0x20 DUP4 ADD DUP6 PUSH2 0x270 JUMP JUMPDEST PUSH2 0x30A PUSH1 0x40 DUP4 ADD DUP5 PUSH2 0x2B1 JUMP JUMPDEST SWAP5 SWAP4 POP POP POP POP JUMP JUMPDEST PUSH1 0x0 PUSH1 0x20 DUP3 ADD SWAP1 POP PUSH2 0x327 PUSH1 0x0 DUP4 ADD DUP5 PUSH2 0x27F JUMP JUMPDEST SWAP3 SWAP2 POP POP JUMP JUMPDEST PUSH1 0x0 PUSH1 0x20 DUP3 ADD SWAP1 POP DUP2 DUP2 SUB PUSH1 0x0 DUP4 ADD MSTORE PUSH2 0x346 DUP2 PUSH2 0x28E JUMP JUMPDEST SWAP1 POP SWAP2 SWAP1 POP JUMP JUMPDEST PUSH1 0x0 DUP3 DUP3 MSTORE PUSH1 0x20 DUP3 ADD SWAP1 POP SWAP3 SWAP2 POP POP JUMP JUMPDEST PUSH1 0x0 PUSH2 0x369 DUP3 PUSH2 0x37C JUMP JUMPDEST SWAP1 POP SWAP2 SWAP1 POP JUMP JUMPDEST PUSH1 0x0 DUP2 ISZERO ISZERO SWAP1 POP SWAP2 SWAP1 POP JUMP JUMPDEST PUSH1 0x0 PUSH20 0xFFFFFFFFFFFFFFFFFFFFFFFFFFFFFFFFFFFFFFFF DUP3 AND SWAP1 POP SWAP2 SWAP1 POP JUMP JUMPDEST PUSH1 0x0 DUP2 SWAP1 POP SWAP2 SWAP1 POP JUMP JUMPDEST PUSH1 0x0 PUSH2 0x3B1 DUP3 PUSH2 0x3B8 JUMP JUMPDEST SWAP1 POP SWAP2 SWAP1 POP JUMP JUMPDEST PUSH1 0x0 PUSH2 0x3C3 DUP3 PUSH2 0x3CA JUMP JUMPDEST SWAP1 POP SWAP2 SWAP1 POP JUMP JUMPDEST PUSH1 0x0 PUSH2 0x3D5 DUP3 PUSH2 0x37C JUMP JUMPDEST SWAP1 POP SWAP2 SWAP1 POP JUMP JUMPDEST PUSH1 0x0 DUP1 REVERT JUMPDEST PUSH32 0x54686520616D6F756E74206F662045544820616E6420746F6B656E732073686F PUSH1 0x0 DUP3 ADD MSTORE PUSH32 0x756C6420626520657175616C0000000000000000000000000000000000000000 PUSH1 0x20 DUP3 ADD MSTORE POP JUMP JUMPDEST PUSH2 0x439 DUP2 PUSH2 0x370 JUMP JUMPDEST DUP2 EQ PUSH2 0x444 JUMPI PUSH1 0x0 DUP1 REVERT JUMPDEST POP JUMP JUMPDEST PUSH2 0x450 DUP2 PUSH2 0x39C JUMP JUMPDEST DUP2 EQ PUSH2 0x45B JUMPI PUSH1 0x0 DUP1 REVERT JUMPDEST POP JUMP INVALID LOG2 PUSH5 0x6970667358 0x22 SLT KECCAK256 0xCD SWAP1 DUP9 SWAP2 0xB1 0x25 0xE9 0xEF 0xC7 SSTORE 0xFB 0xC4 MSIZE BYTE PUSH21 0xF34B113D7103E86DF1E04120DB070ED33764736F6C PUSH4 0x43000807 STOP CALLER "
				},
				"gasEstimates": {
					"creation": {
						"codeDepositCost": "234400",
						"executionCost": "infinite",
						"totalCost": "infinite"
					},
					"external": {
						"provideLiquidity(uint256)": "infinite",
						"token()": "2619",
						"tokenAddress()": "2492"
					}
				},
				"methodIdentifiers": {
					"provideLiquidity(uint256)": "eb521a4c",
					"token()": "fc0c546a",
					"tokenAddress()": "9d76ea58"
				}
			},
			"storageLayout": {
				"storage": [
					{
						"astId": 83,
						"contract": "contracts/LiquidityPool.sol:LiquidityPool",
						"label": "token",
						"offset": 0,
						"slot": "0",
						"type": "t_contract(IERC20)77"
					},
					{
						"astId": 85,
						"contract": "contracts/LiquidityPool.sol:LiquidityPool",
						"label": "tokenAddress",
						"offset": 0,
						"slot": "1",
						"type": "t_address"
					}
				],
				"types": {
					"t_address": {
						"encoding": "inplace",
						"label": "address",
						"numberOfBytes": "20"
					},
					"t_contract(IERC20)77": {
						"encoding": "inplace",
						"label": "contract IERC20",
						"numberOfBytes": "20"
					}
				}
			},
			"userdoc": {
				"kind": "user",
				"methods": {},
				"version": 1
			}
		}
	}
}