{
	"contracts/Auction_1.sol": {
		"NFTAuction": {
			"abi": [
				{
					"inputs": [
						{
							"internalType": "address",
							"name": "_auctioneer",
							"type": "address"
						},
						{
							"internalType": "uint256",
							"name": "_startPrice",
							"type": "uint256"
						},
						{
							"internalType": "uint256",
							"name": "_tokenId",
							"type": "uint256"
						},
						{
							"internalType": "address",
							"name": "_tokenContract",
							"type": "address"
						}
					],
					"stateMutability": "nonpayable",
					"type": "constructor"
				},
				{
					"anonymous": false,
					"inputs": [
						{
							"indexed": false,
							"internalType": "enum NFTAuction.AuctionStatus",
							"name": "_status",
							"type": "uint8"
						}
					],
					"name": "AuctionState",
					"type": "event"
				},
				{
					"inputs": [],
					"name": "bid",
					"outputs": [],
					"stateMutability": "payable",
					"type": "function"
				},
				{
					"inputs": [
						{
							"internalType": "uint256",
							"name": "",
							"type": "uint256"
						}
					],
					"name": "bidsRegister",
					"outputs": [
						{
							"internalType": "address",
							"name": "",
							"type": "address"
						}
					],
					"stateMutability": "view",
					"type": "function"
				},
				{
					"inputs": [],
					"name": "closeAuction",
					"outputs": [],
					"stateMutability": "nonpayable",
					"type": "function"
				},
				{
					"inputs": [],
					"name": "currentBidPrice",
					"outputs": [
						{
							"internalType": "uint256",
							"name": "",
							"type": "uint256"
						}
					],
					"stateMutability": "view",
					"type": "function"
				},
				{
					"inputs": [],
					"name": "highestBid",
					"outputs": [
						{
							"internalType": "uint256",
							"name": "",
							"type": "uint256"
						}
					],
					"stateMutability": "view",
					"type": "function"
				},
				{
					"inputs": [],
					"name": "highestBidder",
					"outputs": [
						{
							"internalType": "address",
							"name": "",
							"type": "address"
						}
					],
					"stateMutability": "view",
					"type": "function"
				},
				{
					"inputs": [],
					"name": "initialPrice",
					"outputs": [
						{
							"internalType": "uint256",
							"name": "",
							"type": "uint256"
						}
					],
					"stateMutability": "view",
					"type": "function"
				},
				{
					"inputs": [],
					"name": "startAuction",
					"outputs": [],
					"stateMutability": "nonpayable",
					"type": "function"
				},
				{
					"inputs": [],
					"name": "tokenContract",
					"outputs": [
						{
							"internalType": "address",
							"name": "",
							"type": "address"
						}
					],
					"stateMutability": "view",
					"type": "function"
				},
				{
					"inputs": [],
					"name": "tokenId",
					"outputs": [
						{
							"internalType": "uint256",
							"name": "",
							"type": "uint256"
						}
					],
					"stateMutability": "view",
					"type": "function"
				}
			],
			"devdoc": {
				"kind": "dev",
				"methods": {},
				"version": 1
			},
			"evm": {
				"assembly": "    /* \"contracts/Auction_1.sol\":124:2207  contract NFTAuction{... */\n  mstore(0x40, 0xc0)\n    /* \"contracts/Auction_1.sol\":571:914  constructor(address _auctioneer, uint256 _startPrice, uint256 _tokenId, address _tokenContract) {... */\n  callvalue\n  dup1\n  iszero\n  tag_1\n  jumpi\n  0x00\n  dup1\n  revert\ntag_1:\n  pop\n  mload(0x40)\n  sub(codesize, bytecodeSize)\n  dup1\n  bytecodeSize\n  dup4\n  codecopy\n  dup2\n  dup2\n  add\n  0x40\n  mstore\n  dup2\n  add\n  swap1\n  tag_2\n  swap2\n  swap1\n  tag_3\n  jump\t// in\ntag_2:\n    /* \"contracts/Auction_1.sol\":699:710  _auctioneer */\n  dup4\n    /* \"contracts/Auction_1.sol\":678:688  auctioneer */\n  0x01\n  0x00\n    /* \"contracts/Auction_1.sol\":678:711  auctioneer = payable(_auctioneer) */\n  0x0100\n  exp\n  dup2\n  sload\n  dup2\n  0xffffffffffffffffffffffffffffffffffffffff\n  mul\n  not\n  and\n  swap1\n  dup4\n  0xffffffffffffffffffffffffffffffffffffffff\n  and\n  mul\n  or\n  swap1\n  sstore\n  pop\n    /* \"contracts/Auction_1.sol\":737:748  _startPrice */\n  dup3\n    /* \"contracts/Auction_1.sol\":722:734  initialPrice */\n  0x02\n    /* \"contracts/Auction_1.sol\":722:748  initialPrice = _startPrice */\n  dup2\n  swap1\n  sstore\n  pop\n    /* \"contracts/Auction_1.sol\":769:777  _tokenId */\n  dup2\n    /* \"contracts/Auction_1.sol\":759:777  tokenId = _tokenId */\n  0x80\n  dup2\n  dup2\n  mstore\n  pop\n  pop\n    /* \"contracts/Auction_1.sol\":804:818  _tokenContract */\n  dup1\n    /* \"contracts/Auction_1.sol\":788:818  tokenContract = _tokenContract */\n  0xffffffffffffffffffffffffffffffffffffffff\n  and\n  0xa0\n  dup2\n  0xffffffffffffffffffffffffffffffffffffffff\n  and\n  dup2\n  mstore\n  pop\n  pop\n    /* \"contracts/Auction_1.sol\":838:858  AuctionStatus.CLOSED */\n  0x01\n    /* \"contracts/Auction_1.sol\":829:835  status */\n  0x07\n  0x00\n    /* \"contracts/Auction_1.sol\":829:858  status = AuctionStatus.CLOSED */\n  0x0100\n  exp\n  dup2\n  sload\n  dup2\n  0xff\n  mul\n  not\n  and\n  swap1\n  dup4\n  0x01\n  dup2\n  gt\n  iszero\n  tag_6\n  jumpi\n  tag_7\n  tag_8\n  jump\t// in\ntag_7:\ntag_6:\n  mul\n  or\n  swap1\n  sstore\n  pop\n    /* \"contracts/Auction_1.sol\":891:905  _tokenContract */\n  dup1\n    /* \"contracts/Auction_1.sol\":869:880  NFTContract */\n  0x00\n  dup1\n    /* \"contracts/Auction_1.sol\":869:906  NFTContract = IERC721(_tokenContract) */\n  0x0100\n  exp\n  dup2\n  sload\n  dup2\n  0xffffffffffffffffffffffffffffffffffffffff\n  mul\n  not\n  and\n  swap1\n  dup4\n  0xffffffffffffffffffffffffffffffffffffffff\n  and\n  mul\n  or\n  swap1\n  sstore\n  pop\n    /* \"contracts/Auction_1.sol\":571:914  constructor(address _auctioneer, uint256 _startPrice, uint256 _tokenId, address _tokenContract) {... */\n  pop\n  pop\n  pop\n  pop\n    /* \"contracts/Auction_1.sol\":124:2207  contract NFTAuction{... */\n  jump(tag_9)\n    /* \"#utility.yul\":88:205   */\ntag_11:\n    /* \"#utility.yul\":197:198   */\n  0x00\n    /* \"#utility.yul\":194:195   */\n  dup1\n    /* \"#utility.yul\":187:199   */\n  revert\n    /* \"#utility.yul\":334:460   */\ntag_13:\n    /* \"#utility.yul\":371:378   */\n  0x00\n    /* \"#utility.yul\":411:453   */\n  0xffffffffffffffffffffffffffffffffffffffff\n    /* \"#utility.yul\":404:409   */\n  dup3\n    /* \"#utility.yul\":400:454   */\n  and\n    /* \"#utility.yul\":389:454   */\n  swap1\n  pop\n    /* \"#utility.yul\":334:460   */\n  swap2\n  swap1\n  pop\n  jump\t// out\n    /* \"#utility.yul\":466:562   */\ntag_14:\n    /* \"#utility.yul\":503:510   */\n  0x00\n    /* \"#utility.yul\":532:556   */\n  tag_26\n    /* \"#utility.yul\":550:555   */\n  dup3\n    /* \"#utility.yul\":532:556   */\n  tag_13\n  jump\t// in\ntag_26:\n    /* \"#utility.yul\":521:556   */\n  swap1\n  pop\n    /* \"#utility.yul\":466:562   */\n  swap2\n  swap1\n  pop\n  jump\t// out\n    /* \"#utility.yul\":568:690   */\ntag_15:\n    /* \"#utility.yul\":641:665   */\n  tag_28\n    /* \"#utility.yul\":659:664   */\n  dup2\n    /* \"#utility.yul\":641:665   */\n  tag_14\n  jump\t// in\ntag_28:\n    /* \"#utility.yul\":634:639   */\n  dup2\n    /* \"#utility.yul\":631:666   */\n  eq\n    /* \"#utility.yul\":621:684   */\n  tag_29\n  jumpi\n    /* \"#utility.yul\":680:681   */\n  0x00\n    /* \"#utility.yul\":677:678   */\n  dup1\n    /* \"#utility.yul\":670:682   */\n  revert\n    /* \"#utility.yul\":621:684   */\ntag_29:\n    /* \"#utility.yul\":568:690   */\n  pop\n  jump\t// out\n    /* \"#utility.yul\":696:839   */\ntag_16:\n    /* \"#utility.yul\":753:758   */\n  0x00\n    /* \"#utility.yul\":784:790   */\n  dup2\n    /* \"#utility.yul\":778:791   */\n  mload\n    /* \"#utility.yul\":769:791   */\n  swap1\n  pop\n    /* \"#utility.yul\":800:833   */\n  tag_31\n    /* \"#utility.yul\":827:832   */\n  dup2\n    /* \"#utility.yul\":800:833   */\n  tag_15\n  jump\t// in\ntag_31:\n    /* \"#utility.yul\":696:839   */\n  swap3\n  swap2\n  pop\n  pop\n  jump\t// out\n    /* \"#utility.yul\":845:922   */\ntag_17:\n    /* \"#utility.yul\":882:889   */\n  0x00\n    /* \"#utility.yul\":911:916   */\n  dup2\n    /* \"#utility.yul\":900:916   */\n  swap1\n  pop\n    /* \"#utility.yul\":845:922   */\n  swap2\n  swap1\n  pop\n  jump\t// out\n    /* \"#utility.yul\":928:1050   */\ntag_18:\n    /* \"#utility.yul\":1001:1025   */\n  tag_34\n    /* \"#utility.yul\":1019:1024   */\n  dup2\n    /* \"#utility.yul\":1001:1025   */\n  tag_17\n  jump\t// in\ntag_34:\n    /* \"#utility.yul\":994:999   */\n  dup2\n    /* \"#utility.yul\":991:1026   */\n  eq\n    /* \"#utility.yul\":981:1044   */\n  tag_35\n  jumpi\n    /* \"#utility.yul\":1040:1041   */\n  0x00\n    /* \"#utility.yul\":1037:1038   */\n  dup1\n    /* \"#utility.yul\":1030:1042   */\n  revert\n    /* \"#utility.yul\":981:1044   */\ntag_35:\n    /* \"#utility.yul\":928:1050   */\n  pop\n  jump\t// out\n    /* \"#utility.yul\":1056:1199   */\ntag_19:\n    /* \"#utility.yul\":1113:1118   */\n  0x00\n    /* \"#utility.yul\":1144:1150   */\n  dup2\n    /* \"#utility.yul\":1138:1151   */\n  mload\n    /* \"#utility.yul\":1129:1151   */\n  swap1\n  pop\n    /* \"#utility.yul\":1160:1193   */\n  tag_37\n    /* \"#utility.yul\":1187:1192   */\n  dup2\n    /* \"#utility.yul\":1160:1193   */\n  tag_18\n  jump\t// in\ntag_37:\n    /* \"#utility.yul\":1056:1199   */\n  swap3\n  swap2\n  pop\n  pop\n  jump\t// out\n    /* \"#utility.yul\":1205:2025   */\ntag_3:\n    /* \"#utility.yul\":1302:1308   */\n  0x00\n    /* \"#utility.yul\":1310:1316   */\n  dup1\n    /* \"#utility.yul\":1318:1324   */\n  0x00\n    /* \"#utility.yul\":1326:1332   */\n  dup1\n    /* \"#utility.yul\":1375:1378   */\n  0x80\n    /* \"#utility.yul\":1363:1372   */\n  dup6\n    /* \"#utility.yul\":1354:1361   */\n  dup8\n    /* \"#utility.yul\":1350:1373   */\n  sub\n    /* \"#utility.yul\":1346:1379   */\n  slt\n    /* \"#utility.yul\":1343:1463   */\n  iszero\n  tag_39\n  jumpi\n    /* \"#utility.yul\":1382:1461   */\n  tag_40\n  tag_11\n  jump\t// in\ntag_40:\n    /* \"#utility.yul\":1343:1463   */\ntag_39:\n    /* \"#utility.yul\":1502:1503   */\n  0x00\n    /* \"#utility.yul\":1527:1591   */\n  tag_41\n    /* \"#utility.yul\":1583:1590   */\n  dup8\n    /* \"#utility.yul\":1574:1580   */\n  dup3\n    /* \"#utility.yul\":1563:1572   */\n  dup9\n    /* \"#utility.yul\":1559:1581   */\n  add\n    /* \"#utility.yul\":1527:1591   */\n  tag_16\n  jump\t// in\ntag_41:\n    /* \"#utility.yul\":1517:1591   */\n  swap5\n  pop\n    /* \"#utility.yul\":1473:1601   */\n  pop\n    /* \"#utility.yul\":1640:1642   */\n  0x20\n    /* \"#utility.yul\":1666:1730   */\n  tag_42\n    /* \"#utility.yul\":1722:1729   */\n  dup8\n    /* \"#utility.yul\":1713:1719   */\n  dup3\n    /* \"#utility.yul\":1702:1711   */\n  dup9\n    /* \"#utility.yul\":1698:1720   */\n  add\n    /* \"#utility.yul\":1666:1730   */\n  tag_19\n  jump\t// in\ntag_42:\n    /* \"#utility.yul\":1656:1730   */\n  swap4\n  pop\n    /* \"#utility.yul\":1611:1740   */\n  pop\n    /* \"#utility.yul\":1779:1781   */\n  0x40\n    /* \"#utility.yul\":1805:1869   */\n  tag_43\n    /* \"#utility.yul\":1861:1868   */\n  dup8\n    /* \"#utility.yul\":1852:1858   */\n  dup3\n    /* \"#utility.yul\":1841:1850   */\n  dup9\n    /* \"#utility.yul\":1837:1859   */\n  add\n    /* \"#utility.yul\":1805:1869   */\n  tag_19\n  jump\t// in\ntag_43:\n    /* \"#utility.yul\":1795:1869   */\n  swap3\n  pop\n    /* \"#utility.yul\":1750:1879   */\n  pop\n    /* \"#utility.yul\":1918:1920   */\n  0x60\n    /* \"#utility.yul\":1944:2008   */\n  tag_44\n    /* \"#utility.yul\":2000:2007   */\n  dup8\n    /* \"#utility.yul\":1991:1997   */\n  dup3\n    /* \"#utility.yul\":1980:1989   */\n  dup9\n    /* \"#utility.yul\":1976:1998   */\n  add\n    /* \"#utility.yul\":1944:2008   */\n  tag_16\n  jump\t// in\ntag_44:\n    /* \"#utility.yul\":1934:2008   */\n  swap2\n  pop\n    /* \"#utility.yul\":1889:2018   */\n  pop\n    /* \"#utility.yul\":1205:2025   */\n  swap3\n  swap6\n  swap2\n  swap5\n  pop\n  swap3\n  pop\n  jump\t// out\n    /* \"#utility.yul\":2031:2211   */\ntag_8:\n    /* \"#utility.yul\":2079:2156   */\n  0x4e487b7100000000000000000000000000000000000000000000000000000000\n    /* \"#utility.yul\":2076:2077   */\n  0x00\n    /* \"#utility.yul\":2069:2157   */\n  mstore\n    /* \"#utility.yul\":2176:2180   */\n  0x21\n    /* \"#utility.yul\":2173:2174   */\n  0x04\n    /* \"#utility.yul\":2166:2181   */\n  mstore\n    /* \"#utility.yul\":2200:2204   */\n  0x24\n    /* \"#utility.yul\":2197:2198   */\n  0x00\n    /* \"#utility.yul\":2190:2205   */\n  revert\n    /* \"contracts/Auction_1.sol\":124:2207  contract NFTAuction{... */\ntag_9:\n  mload(0x80)\n  mload(0xa0)\n  codecopy(0x00, dataOffset(sub_0), dataSize(sub_0))\n  0x00\n  assignImmutable(\"0xe3cb0ca89f217511efd4af6caea80048f9921bac3b9063844e65469cf515f138\")\n  0x00\n  assignImmutable(\"0x7b0ac78d4efde931c083b037c1c7f91b4cc8f27a159c1264ae53aa473f3e4e6a\")\n  return(0x00, dataSize(sub_0))\nstop\n\nsub_0: assembly {\n        /* \"contracts/Auction_1.sol\":124:2207  contract NFTAuction{... */\n      mstore(0x40, 0x80)\n      jumpi(tag_1, lt(calldatasize, 0x04))\n      shr(0xe0, calldataload(0x00))\n      dup1\n      0x6b64c769\n      gt\n      tag_12\n      jumpi\n      dup1\n      0x6b64c769\n      eq\n      tag_7\n      jumpi\n      dup1\n      0x91f90157\n      eq\n      tag_8\n      jumpi\n      dup1\n      0xb8da82ea\n      eq\n      tag_9\n      jumpi\n      dup1\n      0xd57bde79\n      eq\n      tag_10\n      jumpi\n      dup1\n      0xdc689504\n      eq\n      tag_11\n      jumpi\n      jump(tag_1)\n    tag_12:\n      dup1\n      0x17d70f7c\n      eq\n      tag_2\n      jumpi\n      dup1\n      0x1998aeef\n      eq\n      tag_3\n      jumpi\n      dup1\n      0x1d0806ae\n      eq\n      tag_4\n      jumpi\n      dup1\n      0x378252f2\n      eq\n      tag_5\n      jumpi\n      dup1\n      0x55a373d6\n      eq\n      tag_6\n      jumpi\n    tag_1:\n      0x00\n      dup1\n      revert\n        /* \"contracts/Auction_1.sol\":363:395  uint256 public immutable tokenId */\n    tag_2:\n      callvalue\n      dup1\n      iszero\n      tag_13\n      jumpi\n      0x00\n      dup1\n      revert\n    tag_13:\n      pop\n      tag_14\n      tag_15\n      jump\t// in\n    tag_14:\n      mload(0x40)\n      tag_16\n      swap2\n      swap1\n      tag_17\n      jump\t// in\n    tag_16:\n      mload(0x40)\n      dup1\n      swap2\n      sub\n      swap1\n      return\n        /* \"contracts/Auction_1.sol\":1933:2204  function bid() external payable {... */\n    tag_3:\n      tag_18\n      tag_19\n      jump\t// in\n    tag_18:\n      stop\n        /* \"contracts/Auction_1.sol\":225:252  uint256 public initialPrice */\n    tag_4:\n      callvalue\n      dup1\n      iszero\n      tag_20\n      jumpi\n      0x00\n      dup1\n      revert\n    tag_20:\n      pop\n      tag_21\n      tag_22\n      jump\t// in\n    tag_21:\n      mload(0x40)\n      tag_23\n      swap2\n      swap1\n      tag_17\n      jump\t// in\n    tag_23:\n      mload(0x40)\n      dup1\n      swap2\n      sub\n      swap1\n      return\n        /* \"contracts/Auction_1.sol\":1540:1925  function closeAuction() external onlyAuctioneer isApproved {... */\n    tag_5:\n      callvalue\n      dup1\n      iszero\n      tag_24\n      jumpi\n      0x00\n      dup1\n      revert\n    tag_24:\n      pop\n      tag_25\n      tag_26\n      jump\t// in\n    tag_25:\n      stop\n        /* \"contracts/Auction_1.sol\":402:440  address public immutable tokenContract */\n    tag_6:\n      callvalue\n      dup1\n      iszero\n      tag_27\n      jumpi\n      0x00\n      dup1\n      revert\n    tag_27:\n      pop\n      tag_28\n      tag_29\n      jump\t// in\n    tag_28:\n      mload(0x40)\n      tag_30\n      swap2\n      swap1\n      tag_31\n      jump\t// in\n    tag_30:\n      mload(0x40)\n      dup1\n      swap2\n      sub\n      swap1\n      return\n        /* \"contracts/Auction_1.sol\":1285:1532  function startAuction() external onlyAuctioneer {... */\n    tag_7:\n      callvalue\n      dup1\n      iszero\n      tag_32\n      jumpi\n      0x00\n      dup1\n      revert\n    tag_32:\n      pop\n      tag_33\n      tag_34\n      jump\t// in\n    tag_33:\n      stop\n        /* \"contracts/Auction_1.sol\":328:356  address public highestBidder */\n    tag_8:\n      callvalue\n      dup1\n      iszero\n      tag_35\n      jumpi\n      0x00\n      dup1\n      revert\n    tag_35:\n      pop\n      tag_36\n      tag_37\n      jump\t// in\n    tag_36:\n      mload(0x40)\n      tag_38\n      swap2\n      swap1\n      tag_31\n      jump\t// in\n    tag_38:\n      mload(0x40)\n      dup1\n      swap2\n      sub\n      swap1\n      return\n        /* \"contracts/Auction_1.sol\":291:321  uint256 public currentBidPrice */\n    tag_9:\n      callvalue\n      dup1\n      iszero\n      tag_39\n      jumpi\n      0x00\n      dup1\n      revert\n    tag_39:\n      pop\n      tag_40\n      tag_41\n      jump\t// in\n    tag_40:\n      mload(0x40)\n      tag_42\n      swap2\n      swap1\n      tag_17\n      jump\t// in\n    tag_42:\n      mload(0x40)\n      dup1\n      swap2\n      sub\n      swap1\n      return\n        /* \"contracts/Auction_1.sol\":259:284  uint256 public highestBid */\n    tag_10:\n      callvalue\n      dup1\n      iszero\n      tag_43\n      jumpi\n      0x00\n      dup1\n      revert\n    tag_43:\n      pop\n      tag_44\n      tag_45\n      jump\t// in\n    tag_44:\n      mload(0x40)\n      tag_46\n      swap2\n      swap1\n      tag_17\n      jump\t// in\n    tag_46:\n      mload(0x40)\n      dup1\n      swap2\n      sub\n      swap1\n      return\n        /* \"contracts/Auction_1.sol\":447:494  mapping(uint256 => address) public bidsRegister */\n    tag_11:\n      callvalue\n      dup1\n      iszero\n      tag_47\n      jumpi\n      0x00\n      dup1\n      revert\n    tag_47:\n      pop\n      tag_48\n      0x04\n      dup1\n      calldatasize\n      sub\n      dup2\n      add\n      swap1\n      tag_49\n      swap2\n      swap1\n      tag_50\n      jump\t// in\n    tag_49:\n      tag_51\n      jump\t// in\n    tag_48:\n      mload(0x40)\n      tag_52\n      swap2\n      swap1\n      tag_31\n      jump\t// in\n    tag_52:\n      mload(0x40)\n      dup1\n      swap2\n      sub\n      swap1\n      return\n        /* \"contracts/Auction_1.sol\":363:395  uint256 public immutable tokenId */\n    tag_15:\n      immutable(\"0x7b0ac78d4efde931c083b037c1c7f91b4cc8f27a159c1264ae53aa473f3e4e6a\")\n      dup2\n      jump\t// out\n        /* \"contracts/Auction_1.sol\":1933:2204  function bid() external payable {... */\n    tag_19:\n        /* \"contracts/Auction_1.sol\":1994:2012  AuctionStatus.OPEN */\n      0x00\n        /* \"contracts/Auction_1.sol\":1984:2012  status == AuctionStatus.OPEN */\n      0x01\n      dup2\n      gt\n      iszero\n      tag_54\n      jumpi\n      tag_55\n      tag_56\n      jump\t// in\n    tag_55:\n    tag_54:\n        /* \"contracts/Auction_1.sol\":1984:1990  status */\n      0x07\n      0x00\n      swap1\n      sload\n      swap1\n      0x0100\n      exp\n      swap1\n      div\n      0xff\n      and\n        /* \"contracts/Auction_1.sol\":1984:2012  status == AuctionStatus.OPEN */\n      0x01\n      dup2\n      gt\n      iszero\n      tag_57\n      jumpi\n      tag_58\n      tag_56\n      jump\t// in\n    tag_58:\n    tag_57:\n      eq\n        /* \"contracts/Auction_1.sol\":1976:2046  require(status == AuctionStatus.OPEN, \"The Auction is already closed\") */\n      tag_59\n      jumpi\n      mload(0x40)\n      0x08c379a000000000000000000000000000000000000000000000000000000000\n      dup2\n      mstore\n      0x04\n      add\n      tag_60\n      swap1\n      tag_61\n      jump\t// in\n    tag_60:\n      mload(0x40)\n      dup1\n      swap2\n      sub\n      swap1\n      revert\n    tag_59:\n        /* \"contracts/Auction_1.sol\":2077:2087  highestBid */\n      sload(0x03)\n        /* \"contracts/Auction_1.sol\":2065:2074  msg.value */\n      callvalue\n        /* \"contracts/Auction_1.sol\":2065:2087  msg.value > highestBid */\n      gt\n        /* \"contracts/Auction_1.sol\":2057:2111  require(msg.value > highestBid, \"You can't bid lower\") */\n      tag_62\n      jumpi\n      mload(0x40)\n      0x08c379a000000000000000000000000000000000000000000000000000000000\n      dup2\n      mstore\n      0x04\n      add\n      tag_63\n      swap1\n      tag_64\n      jump\t// in\n    tag_63:\n      mload(0x40)\n      dup1\n      swap2\n      sub\n      swap1\n      revert\n    tag_62:\n        /* \"contracts/Auction_1.sol\":2148:2158  msg.sender */\n      caller\n        /* \"contracts/Auction_1.sol\":2122:2134  bidsRegister */\n      0x06\n        /* \"contracts/Auction_1.sol\":2122:2145  bidsRegister[msg.value] */\n      0x00\n        /* \"contracts/Auction_1.sol\":2135:2144  msg.value */\n      callvalue\n        /* \"contracts/Auction_1.sol\":2122:2145  bidsRegister[msg.value] */\n      dup2\n      mstore\n      0x20\n      add\n      swap1\n      dup2\n      mstore\n      0x20\n      add\n      0x00\n      keccak256\n      0x00\n        /* \"contracts/Auction_1.sol\":2122:2158  bidsRegister[msg.value] = msg.sender */\n      0x0100\n      exp\n      dup2\n      sload\n      dup2\n      0xffffffffffffffffffffffffffffffffffffffff\n      mul\n      not\n      and\n      swap1\n      dup4\n      0xffffffffffffffffffffffffffffffffffffffff\n      and\n      mul\n      or\n      swap1\n      sstore\n      pop\n        /* \"contracts/Auction_1.sol\":2187:2196  msg.value */\n      callvalue\n        /* \"contracts/Auction_1.sol\":2169:2184  currentBidPrice */\n      0x04\n        /* \"contracts/Auction_1.sol\":2169:2196  currentBidPrice = msg.value */\n      dup2\n      swap1\n      sstore\n      pop\n        /* \"contracts/Auction_1.sol\":1933:2204  function bid() external payable {... */\n      jump\t// out\n        /* \"contracts/Auction_1.sol\":225:252  uint256 public initialPrice */\n    tag_22:\n      sload(0x02)\n      dup2\n      jump\t// out\n        /* \"contracts/Auction_1.sol\":1540:1925  function closeAuction() external onlyAuctioneer isApproved {... */\n    tag_26:\n        /* \"contracts/Auction_1.sol\":1029:1039  auctioneer */\n      0x01\n      0x00\n      swap1\n      sload\n      swap1\n      0x0100\n      exp\n      swap1\n      div\n      0xffffffffffffffffffffffffffffffffffffffff\n      and\n        /* \"contracts/Auction_1.sol\":1015:1039  msg.sender == auctioneer */\n      0xffffffffffffffffffffffffffffffffffffffff\n      and\n        /* \"contracts/Auction_1.sol\":1015:1025  msg.sender */\n      caller\n        /* \"contracts/Auction_1.sol\":1015:1039  msg.sender == auctioneer */\n      0xffffffffffffffffffffffffffffffffffffffff\n      and\n      eq\n        /* \"contracts/Auction_1.sol\":1007:1090  require(msg.sender == auctioneer, \"Only the contract owner can call this function\") */\n      tag_66\n      jumpi\n      mload(0x40)\n      0x08c379a000000000000000000000000000000000000000000000000000000000\n      dup2\n      mstore\n      0x04\n      add\n      tag_67\n      swap1\n      tag_68\n      jump\t// in\n    tag_67:\n      mload(0x40)\n      dup1\n      swap2\n      sub\n      swap1\n      revert\n    tag_66:\n        /* \"contracts/Auction_1.sol\":1157:1168  NFTContract */\n      0x00\n      dup1\n      sload\n      swap1\n      0x0100\n      exp\n      swap1\n      div\n      0xffffffffffffffffffffffffffffffffffffffff\n      and\n        /* \"contracts/Auction_1.sol\":1157:1185  NFTContract.isApprovedForAll */\n      0xffffffffffffffffffffffffffffffffffffffff\n      and\n      0xe985e9c5\n        /* \"contracts/Auction_1.sol\":1186:1196  auctioneer */\n      0x01\n      0x00\n      swap1\n      sload\n      swap1\n      0x0100\n      exp\n      swap1\n      div\n      0xffffffffffffffffffffffffffffffffffffffff\n      and\n        /* \"contracts/Auction_1.sol\":1206:1210  this */\n      address\n        /* \"contracts/Auction_1.sol\":1157:1212  NFTContract.isApprovedForAll(auctioneer, address(this)) */\n      mload(0x40)\n      dup4\n      0xffffffff\n      and\n      0xe0\n      shl\n      dup2\n      mstore\n      0x04\n      add\n      tag_70\n      swap3\n      swap2\n      swap1\n      tag_71\n      jump\t// in\n    tag_70:\n      0x20\n      mload(0x40)\n      dup1\n      dup4\n      sub\n      dup2\n      dup7\n      gas\n      staticcall\n      iszero\n      dup1\n      iszero\n      tag_73\n      jumpi\n      returndatasize\n      0x00\n      dup1\n      returndatacopy\n      revert(0x00, returndatasize)\n    tag_73:\n      pop\n      pop\n      pop\n      pop\n      mload(0x40)\n      returndatasize\n      not(0x1f)\n      0x1f\n      dup3\n      add\n      and\n      dup3\n      add\n      dup1\n      0x40\n      mstore\n      pop\n      dup2\n      add\n      swap1\n      tag_74\n      swap2\n      swap1\n      tag_75\n      jump\t// in\n    tag_74:\n        /* \"contracts/Auction_1.sol\":1149:1257  require(NFTContract.isApprovedForAll(auctioneer, address(this)), \"Contract is not approved to transfer NFT\") */\n      tag_76\n      jumpi\n      mload(0x40)\n      0x08c379a000000000000000000000000000000000000000000000000000000000\n      dup2\n      mstore\n      0x04\n      add\n      tag_77\n      swap1\n      tag_78\n      jump\t// in\n    tag_77:\n      mload(0x40)\n      dup1\n      swap2\n      sub\n      swap1\n      revert\n    tag_76:\n        /* \"contracts/Auction_1.sol\":1628:1646  AuctionStatus.OPEN */\n      0x00\n        /* \"contracts/Auction_1.sol\":1618:1646  status == AuctionStatus.OPEN */\n      0x01\n      dup2\n      gt\n      iszero\n      tag_80\n      jumpi\n      tag_81\n      tag_56\n      jump\t// in\n    tag_81:\n    tag_80:\n        /* \"contracts/Auction_1.sol\":1618:1624  status */\n      0x07\n      0x00\n      swap1\n      sload\n      swap1\n      0x0100\n      exp\n      swap1\n      div\n      0xff\n      and\n        /* \"contracts/Auction_1.sol\":1618:1646  status == AuctionStatus.OPEN */\n      0x01\n      dup2\n      gt\n      iszero\n      tag_82\n      jumpi\n      tag_83\n      tag_56\n      jump\t// in\n    tag_83:\n    tag_82:\n      eq\n        /* \"contracts/Auction_1.sol\":1610:1680  require(status == AuctionStatus.OPEN, \"The Auction is already closed\") */\n      tag_84\n      jumpi\n      mload(0x40)\n      0x08c379a000000000000000000000000000000000000000000000000000000000\n      dup2\n      mstore\n      0x04\n      add\n      tag_85\n      swap1\n      tag_61\n      jump\t// in\n    tag_85:\n      mload(0x40)\n      dup1\n      swap2\n      sub\n      swap1\n      revert\n    tag_84:\n        /* \"contracts/Auction_1.sol\":1707:1719  bidsRegister */\n      0x06\n        /* \"contracts/Auction_1.sol\":1707:1731  bidsRegister[highestBid] */\n      0x00\n        /* \"contracts/Auction_1.sol\":1720:1730  highestBid */\n      sload(0x03)\n        /* \"contracts/Auction_1.sol\":1707:1731  bidsRegister[highestBid] */\n      dup2\n      mstore\n      0x20\n      add\n      swap1\n      dup2\n      mstore\n      0x20\n      add\n      0x00\n      keccak256\n      0x00\n      swap1\n      sload\n      swap1\n      0x0100\n      exp\n      swap1\n      div\n      0xffffffffffffffffffffffffffffffffffffffff\n      and\n        /* \"contracts/Auction_1.sol\":1691:1704  highestBidder */\n      0x05\n      0x00\n        /* \"contracts/Auction_1.sol\":1691:1731  highestBidder = bidsRegister[highestBid] */\n      0x0100\n      exp\n      dup2\n      sload\n      dup2\n      0xffffffffffffffffffffffffffffffffffffffff\n      mul\n      not\n      and\n      swap1\n      dup4\n      0xffffffffffffffffffffffffffffffffffffffff\n      and\n      mul\n      or\n      swap1\n      sstore\n      pop\n        /* \"contracts/Auction_1.sol\":1755:1770  currentBidPrice */\n      sload(0x04)\n        /* \"contracts/Auction_1.sol\":1742:1752  highestBid */\n      0x03\n        /* \"contracts/Auction_1.sol\":1742:1770  highestBid = currentBidPrice */\n      dup2\n      swap1\n      sstore\n      pop\n        /* \"contracts/Auction_1.sol\":1781:1792  NFTContract */\n      0x00\n      dup1\n      sload\n      swap1\n      0x0100\n      exp\n      swap1\n      div\n      0xffffffffffffffffffffffffffffffffffffffff\n      and\n        /* \"contracts/Auction_1.sol\":1781:1805  NFTContract.transferFrom */\n      0xffffffffffffffffffffffffffffffffffffffff\n      and\n      0x23b872dd\n        /* \"contracts/Auction_1.sol\":1806:1816  auctioneer */\n      0x01\n      0x00\n      swap1\n      sload\n      swap1\n      0x0100\n      exp\n      swap1\n      div\n      0xffffffffffffffffffffffffffffffffffffffff\n      and\n        /* \"contracts/Auction_1.sol\":1818:1831  highestBidder */\n      0x05\n      0x00\n      swap1\n      sload\n      swap1\n      0x0100\n      exp\n      swap1\n      div\n      0xffffffffffffffffffffffffffffffffffffffff\n      and\n        /* \"contracts/Auction_1.sol\":1833:1840  tokenId */\n      immutable(\"0x7b0ac78d4efde931c083b037c1c7f91b4cc8f27a159c1264ae53aa473f3e4e6a\")\n        /* \"contracts/Auction_1.sol\":1781:1841  NFTContract.transferFrom(auctioneer, highestBidder, tokenId) */\n      mload(0x40)\n      dup5\n      0xffffffff\n      and\n      0xe0\n      shl\n      dup2\n      mstore\n      0x04\n      add\n      tag_86\n      swap4\n      swap3\n      swap2\n      swap1\n      tag_87\n      jump\t// in\n    tag_86:\n      0x00\n      mload(0x40)\n      dup1\n      dup4\n      sub\n      dup2\n      0x00\n      dup8\n      dup1\n      extcodesize\n      iszero\n      dup1\n      iszero\n      tag_88\n      jumpi\n      0x00\n      dup1\n      revert\n    tag_88:\n      pop\n      gas\n      call\n      iszero\n      dup1\n      iszero\n      tag_90\n      jumpi\n      returndatasize\n      0x00\n      dup1\n      returndatacopy\n      revert(0x00, returndatasize)\n    tag_90:\n      pop\n      pop\n      pop\n      pop\n        /* \"contracts/Auction_1.sol\":1861:1881  AuctionStatus.CLOSED */\n      0x01\n        /* \"contracts/Auction_1.sol\":1852:1858  status */\n      0x07\n      0x00\n        /* \"contracts/Auction_1.sol\":1852:1881  status = AuctionStatus.CLOSED */\n      0x0100\n      exp\n      dup2\n      sload\n      dup2\n      0xff\n      mul\n      not\n      and\n      swap1\n      dup4\n      0x01\n      dup2\n      gt\n      iszero\n      tag_91\n      jumpi\n      tag_92\n      tag_56\n      jump\t// in\n    tag_92:\n    tag_91:\n      mul\n      or\n      swap1\n      sstore\n      pop\n        /* \"contracts/Auction_1.sol\":1897:1917  AuctionState(status) */\n      0x8caed3b4bf01375b22dc7f84afe719ce12ab14864751a7d5e4142fe4e4a50a51\n        /* \"contracts/Auction_1.sol\":1910:1916  status */\n      0x07\n      0x00\n      swap1\n      sload\n      swap1\n      0x0100\n      exp\n      swap1\n      div\n      0xff\n      and\n        /* \"contracts/Auction_1.sol\":1897:1917  AuctionState(status) */\n      mload(0x40)\n      tag_93\n      swap2\n      swap1\n      tag_94\n      jump\t// in\n    tag_93:\n      mload(0x40)\n      dup1\n      swap2\n      sub\n      swap1\n      log1\n        /* \"contracts/Auction_1.sol\":1540:1925  function closeAuction() external onlyAuctioneer isApproved {... */\n      jump\t// out\n        /* \"contracts/Auction_1.sol\":402:440  address public immutable tokenContract */\n    tag_29:\n      immutable(\"0xe3cb0ca89f217511efd4af6caea80048f9921bac3b9063844e65469cf515f138\")\n      dup2\n      jump\t// out\n        /* \"contracts/Auction_1.sol\":1285:1532  function startAuction() external onlyAuctioneer {... */\n    tag_34:\n        /* \"contracts/Auction_1.sol\":1029:1039  auctioneer */\n      0x01\n      0x00\n      swap1\n      sload\n      swap1\n      0x0100\n      exp\n      swap1\n      div\n      0xffffffffffffffffffffffffffffffffffffffff\n      and\n        /* \"contracts/Auction_1.sol\":1015:1039  msg.sender == auctioneer */\n      0xffffffffffffffffffffffffffffffffffffffff\n      and\n        /* \"contracts/Auction_1.sol\":1015:1025  msg.sender */\n      caller\n        /* \"contracts/Auction_1.sol\":1015:1039  msg.sender == auctioneer */\n      0xffffffffffffffffffffffffffffffffffffffff\n      and\n      eq\n        /* \"contracts/Auction_1.sol\":1007:1090  require(msg.sender == auctioneer, \"Only the contract owner can call this function\") */\n      tag_96\n      jumpi\n      mload(0x40)\n      0x08c379a000000000000000000000000000000000000000000000000000000000\n      dup2\n      mstore\n      0x04\n      add\n      tag_97\n      swap1\n      tag_68\n      jump\t// in\n    tag_97:\n      mload(0x40)\n      dup1\n      swap2\n      sub\n      swap1\n      revert\n    tag_96:\n        /* \"contracts/Auction_1.sol\":1362:1382  AuctionStatus.CLOSED */\n      0x01\n        /* \"contracts/Auction_1.sol\":1352:1382  status == AuctionStatus.CLOSED */\n      dup1\n      dup2\n      gt\n      iszero\n      tag_99\n      jumpi\n      tag_100\n      tag_56\n      jump\t// in\n    tag_100:\n    tag_99:\n        /* \"contracts/Auction_1.sol\":1352:1358  status */\n      0x07\n      0x00\n      swap1\n      sload\n      swap1\n      0x0100\n      exp\n      swap1\n      div\n      0xff\n      and\n        /* \"contracts/Auction_1.sol\":1352:1382  status == AuctionStatus.CLOSED */\n      0x01\n      dup2\n      gt\n      iszero\n      tag_101\n      jumpi\n      tag_102\n      tag_56\n      jump\t// in\n    tag_102:\n    tag_101:\n      eq\n        /* \"contracts/Auction_1.sol\":1344:1414  require(status == AuctionStatus.CLOSED, \"The Auction is already open\") */\n      tag_103\n      jumpi\n      mload(0x40)\n      0x08c379a000000000000000000000000000000000000000000000000000000000\n      dup2\n      mstore\n      0x04\n      add\n      tag_104\n      swap1\n      tag_105\n      jump\t// in\n    tag_104:\n      mload(0x40)\n      dup1\n      swap2\n      sub\n      swap1\n      revert\n    tag_103:\n        /* \"contracts/Auction_1.sol\":1434:1452  AuctionStatus.OPEN */\n      0x00\n        /* \"contracts/Auction_1.sol\":1425:1431  status */\n      0x07\n      0x00\n        /* \"contracts/Auction_1.sol\":1425:1452  status = AuctionStatus.OPEN */\n      0x0100\n      exp\n      dup2\n      sload\n      dup2\n      0xff\n      mul\n      not\n      and\n      swap1\n      dup4\n      0x01\n      dup2\n      gt\n      iszero\n      tag_106\n      jumpi\n      tag_107\n      tag_56\n      jump\t// in\n    tag_107:\n    tag_106:\n      mul\n      or\n      swap1\n      sstore\n      pop\n        /* \"contracts/Auction_1.sol\":1476:1488  initialPrice */\n      sload(0x02)\n        /* \"contracts/Auction_1.sol\":1463:1473  highestBid */\n      0x03\n        /* \"contracts/Auction_1.sol\":1463:1488  highestBid = initialPrice */\n      dup2\n      swap1\n      sstore\n      pop\n        /* \"contracts/Auction_1.sol\":1504:1524  AuctionState(status) */\n      0x8caed3b4bf01375b22dc7f84afe719ce12ab14864751a7d5e4142fe4e4a50a51\n        /* \"contracts/Auction_1.sol\":1517:1523  status */\n      0x07\n      0x00\n      swap1\n      sload\n      swap1\n      0x0100\n      exp\n      swap1\n      div\n      0xff\n      and\n        /* \"contracts/Auction_1.sol\":1504:1524  AuctionState(status) */\n      mload(0x40)\n      tag_108\n      swap2\n      swap1\n      tag_94\n      jump\t// in\n    tag_108:\n      mload(0x40)\n      dup1\n      swap2\n      sub\n      swap1\n      log1\n        /* \"contracts/Auction_1.sol\":1285:1532  function startAuction() external onlyAuctioneer {... */\n      jump\t// out\n        /* \"contracts/Auction_1.sol\":328:356  address public highestBidder */\n    tag_37:\n      0x05\n      0x00\n      swap1\n      sload\n      swap1\n      0x0100\n      exp\n      swap1\n      div\n      0xffffffffffffffffffffffffffffffffffffffff\n      and\n      dup2\n      jump\t// out\n        /* \"contracts/Auction_1.sol\":291:321  uint256 public currentBidPrice */\n    tag_41:\n      sload(0x04)\n      dup2\n      jump\t// out\n        /* \"contracts/Auction_1.sol\":259:284  uint256 public highestBid */\n    tag_45:\n      sload(0x03)\n      dup2\n      jump\t// out\n        /* \"contracts/Auction_1.sol\":447:494  mapping(uint256 => address) public bidsRegister */\n    tag_51:\n      mstore(0x20, 0x06)\n      dup1\n      0x00\n      mstore\n      keccak256(0x00, 0x40)\n      0x00\n      swap2\n      pop\n      sload\n      swap1\n      0x0100\n      exp\n      swap1\n      div\n      0xffffffffffffffffffffffffffffffffffffffff\n      and\n      dup2\n      jump\t// out\n        /* \"#utility.yul\":7:84   */\n    tag_109:\n        /* \"#utility.yul\":44:51   */\n      0x00\n        /* \"#utility.yul\":73:78   */\n      dup2\n        /* \"#utility.yul\":62:78   */\n      swap1\n      pop\n        /* \"#utility.yul\":7:84   */\n      swap2\n      swap1\n      pop\n      jump\t// out\n        /* \"#utility.yul\":90:208   */\n    tag_110:\n        /* \"#utility.yul\":177:201   */\n      tag_145\n        /* \"#utility.yul\":195:200   */\n      dup2\n        /* \"#utility.yul\":177:201   */\n      tag_109\n      jump\t// in\n    tag_145:\n        /* \"#utility.yul\":172:175   */\n      dup3\n        /* \"#utility.yul\":165:202   */\n      mstore\n        /* \"#utility.yul\":90:208   */\n      pop\n      pop\n      jump\t// out\n        /* \"#utility.yul\":214:436   */\n    tag_17:\n        /* \"#utility.yul\":307:311   */\n      0x00\n        /* \"#utility.yul\":345:347   */\n      0x20\n        /* \"#utility.yul\":334:343   */\n      dup3\n        /* \"#utility.yul\":330:348   */\n      add\n        /* \"#utility.yul\":322:348   */\n      swap1\n      pop\n        /* \"#utility.yul\":358:429   */\n      tag_147\n        /* \"#utility.yul\":426:427   */\n      0x00\n        /* \"#utility.yul\":415:424   */\n      dup4\n        /* \"#utility.yul\":411:428   */\n      add\n        /* \"#utility.yul\":402:408   */\n      dup5\n        /* \"#utility.yul\":358:429   */\n      tag_110\n      jump\t// in\n    tag_147:\n        /* \"#utility.yul\":214:436   */\n      swap3\n      swap2\n      pop\n      pop\n      jump\t// out\n        /* \"#utility.yul\":442:568   */\n    tag_111:\n        /* \"#utility.yul\":479:486   */\n      0x00\n        /* \"#utility.yul\":519:561   */\n      0xffffffffffffffffffffffffffffffffffffffff\n        /* \"#utility.yul\":512:517   */\n      dup3\n        /* \"#utility.yul\":508:562   */\n      and\n        /* \"#utility.yul\":497:562   */\n      swap1\n      pop\n        /* \"#utility.yul\":442:568   */\n      swap2\n      swap1\n      pop\n      jump\t// out\n        /* \"#utility.yul\":574:670   */\n    tag_112:\n        /* \"#utility.yul\":611:618   */\n      0x00\n        /* \"#utility.yul\":640:664   */\n      tag_150\n        /* \"#utility.yul\":658:663   */\n      dup3\n        /* \"#utility.yul\":640:664   */\n      tag_111\n      jump\t// in\n    tag_150:\n        /* \"#utility.yul\":629:664   */\n      swap1\n      pop\n        /* \"#utility.yul\":574:670   */\n      swap2\n      swap1\n      pop\n      jump\t// out\n        /* \"#utility.yul\":676:794   */\n    tag_113:\n        /* \"#utility.yul\":763:787   */\n      tag_152\n        /* \"#utility.yul\":781:786   */\n      dup2\n        /* \"#utility.yul\":763:787   */\n      tag_112\n      jump\t// in\n    tag_152:\n        /* \"#utility.yul\":758:761   */\n      dup3\n        /* \"#utility.yul\":751:788   */\n      mstore\n        /* \"#utility.yul\":676:794   */\n      pop\n      pop\n      jump\t// out\n        /* \"#utility.yul\":800:1022   */\n    tag_31:\n        /* \"#utility.yul\":893:897   */\n      0x00\n        /* \"#utility.yul\":931:933   */\n      0x20\n        /* \"#utility.yul\":920:929   */\n      dup3\n        /* \"#utility.yul\":916:934   */\n      add\n        /* \"#utility.yul\":908:934   */\n      swap1\n      pop\n        /* \"#utility.yul\":944:1015   */\n      tag_154\n        /* \"#utility.yul\":1012:1013   */\n      0x00\n        /* \"#utility.yul\":1001:1010   */\n      dup4\n        /* \"#utility.yul\":997:1014   */\n      add\n        /* \"#utility.yul\":988:994   */\n      dup5\n        /* \"#utility.yul\":944:1015   */\n      tag_113\n      jump\t// in\n    tag_154:\n        /* \"#utility.yul\":800:1022   */\n      swap3\n      swap2\n      pop\n      pop\n      jump\t// out\n        /* \"#utility.yul\":1109:1226   */\n    tag_115:\n        /* \"#utility.yul\":1218:1219   */\n      0x00\n        /* \"#utility.yul\":1215:1216   */\n      dup1\n        /* \"#utility.yul\":1208:1220   */\n      revert\n        /* \"#utility.yul\":1355:1477   */\n    tag_117:\n        /* \"#utility.yul\":1428:1452   */\n      tag_159\n        /* \"#utility.yul\":1446:1451   */\n      dup2\n        /* \"#utility.yul\":1428:1452   */\n      tag_109\n      jump\t// in\n    tag_159:\n        /* \"#utility.yul\":1421:1426   */\n      dup2\n        /* \"#utility.yul\":1418:1453   */\n      eq\n        /* \"#utility.yul\":1408:1471   */\n      tag_160\n      jumpi\n        /* \"#utility.yul\":1467:1468   */\n      0x00\n        /* \"#utility.yul\":1464:1465   */\n      dup1\n        /* \"#utility.yul\":1457:1469   */\n      revert\n        /* \"#utility.yul\":1408:1471   */\n    tag_160:\n        /* \"#utility.yul\":1355:1477   */\n      pop\n      jump\t// out\n        /* \"#utility.yul\":1483:1622   */\n    tag_118:\n        /* \"#utility.yul\":1529:1534   */\n      0x00\n        /* \"#utility.yul\":1567:1573   */\n      dup2\n        /* \"#utility.yul\":1554:1574   */\n      calldataload\n        /* \"#utility.yul\":1545:1574   */\n      swap1\n      pop\n        /* \"#utility.yul\":1583:1616   */\n      tag_162\n        /* \"#utility.yul\":1610:1615   */\n      dup2\n        /* \"#utility.yul\":1583:1616   */\n      tag_117\n      jump\t// in\n    tag_162:\n        /* \"#utility.yul\":1483:1622   */\n      swap3\n      swap2\n      pop\n      pop\n      jump\t// out\n        /* \"#utility.yul\":1628:1957   */\n    tag_50:\n        /* \"#utility.yul\":1687:1693   */\n      0x00\n        /* \"#utility.yul\":1736:1738   */\n      0x20\n        /* \"#utility.yul\":1724:1733   */\n      dup3\n        /* \"#utility.yul\":1715:1722   */\n      dup5\n        /* \"#utility.yul\":1711:1734   */\n      sub\n        /* \"#utility.yul\":1707:1739   */\n      slt\n        /* \"#utility.yul\":1704:1823   */\n      iszero\n      tag_164\n      jumpi\n        /* \"#utility.yul\":1742:1821   */\n      tag_165\n      tag_115\n      jump\t// in\n    tag_165:\n        /* \"#utility.yul\":1704:1823   */\n    tag_164:\n        /* \"#utility.yul\":1862:1863   */\n      0x00\n        /* \"#utility.yul\":1887:1940   */\n      tag_166\n        /* \"#utility.yul\":1932:1939   */\n      dup5\n        /* \"#utility.yul\":1923:1929   */\n      dup3\n        /* \"#utility.yul\":1912:1921   */\n      dup6\n        /* \"#utility.yul\":1908:1930   */\n      add\n        /* \"#utility.yul\":1887:1940   */\n      tag_118\n      jump\t// in\n    tag_166:\n        /* \"#utility.yul\":1877:1940   */\n      swap2\n      pop\n        /* \"#utility.yul\":1833:1950   */\n      pop\n        /* \"#utility.yul\":1628:1957   */\n      swap3\n      swap2\n      pop\n      pop\n      jump\t// out\n        /* \"#utility.yul\":1963:2143   */\n    tag_56:\n        /* \"#utility.yul\":2011:2088   */\n      0x4e487b7100000000000000000000000000000000000000000000000000000000\n        /* \"#utility.yul\":2008:2009   */\n      0x00\n        /* \"#utility.yul\":2001:2089   */\n      mstore\n        /* \"#utility.yul\":2108:2112   */\n      0x21\n        /* \"#utility.yul\":2105:2106   */\n      0x04\n        /* \"#utility.yul\":2098:2113   */\n      mstore\n        /* \"#utility.yul\":2132:2136   */\n      0x24\n        /* \"#utility.yul\":2129:2130   */\n      0x00\n        /* \"#utility.yul\":2122:2137   */\n      revert\n        /* \"#utility.yul\":2149:2318   */\n    tag_119:\n        /* \"#utility.yul\":2233:2244   */\n      0x00\n        /* \"#utility.yul\":2267:2273   */\n      dup3\n        /* \"#utility.yul\":2262:2265   */\n      dup3\n        /* \"#utility.yul\":2255:2274   */\n      mstore\n        /* \"#utility.yul\":2307:2311   */\n      0x20\n        /* \"#utility.yul\":2302:2305   */\n      dup3\n        /* \"#utility.yul\":2298:2312   */\n      add\n        /* \"#utility.yul\":2283:2312   */\n      swap1\n      pop\n        /* \"#utility.yul\":2149:2318   */\n      swap3\n      swap2\n      pop\n      pop\n      jump\t// out\n        /* \"#utility.yul\":2324:2503   */\n    tag_120:\n        /* \"#utility.yul\":2464:2495   */\n      0x5468652041756374696f6e20697320616c726561647920636c6f736564000000\n        /* \"#utility.yul\":2460:2461   */\n      0x00\n        /* \"#utility.yul\":2452:2458   */\n      dup3\n        /* \"#utility.yul\":2448:2462   */\n      add\n        /* \"#utility.yul\":2441:2496   */\n      mstore\n        /* \"#utility.yul\":2324:2503   */\n      pop\n      jump\t// out\n        /* \"#utility.yul\":2509:2875   */\n    tag_121:\n        /* \"#utility.yul\":2651:2654   */\n      0x00\n        /* \"#utility.yul\":2672:2739   */\n      tag_171\n        /* \"#utility.yul\":2736:2738   */\n      0x1d\n        /* \"#utility.yul\":2731:2734   */\n      dup4\n        /* \"#utility.yul\":2672:2739   */\n      tag_119\n      jump\t// in\n    tag_171:\n        /* \"#utility.yul\":2665:2739   */\n      swap2\n      pop\n        /* \"#utility.yul\":2748:2841   */\n      tag_172\n        /* \"#utility.yul\":2837:2840   */\n      dup3\n        /* \"#utility.yul\":2748:2841   */\n      tag_120\n      jump\t// in\n    tag_172:\n        /* \"#utility.yul\":2866:2868   */\n      0x20\n        /* \"#utility.yul\":2861:2864   */\n      dup3\n        /* \"#utility.yul\":2857:2869   */\n      add\n        /* \"#utility.yul\":2850:2869   */\n      swap1\n      pop\n        /* \"#utility.yul\":2509:2875   */\n      swap2\n      swap1\n      pop\n      jump\t// out\n        /* \"#utility.yul\":2881:3300   */\n    tag_61:\n        /* \"#utility.yul\":3047:3051   */\n      0x00\n        /* \"#utility.yul\":3085:3087   */\n      0x20\n        /* \"#utility.yul\":3074:3083   */\n      dup3\n        /* \"#utility.yul\":3070:3088   */\n      add\n        /* \"#utility.yul\":3062:3088   */\n      swap1\n      pop\n        /* \"#utility.yul\":3134:3143   */\n      dup2\n        /* \"#utility.yul\":3128:3132   */\n      dup2\n        /* \"#utility.yul\":3124:3144   */\n      sub\n        /* \"#utility.yul\":3120:3121   */\n      0x00\n        /* \"#utility.yul\":3109:3118   */\n      dup4\n        /* \"#utility.yul\":3105:3122   */\n      add\n        /* \"#utility.yul\":3098:3145   */\n      mstore\n        /* \"#utility.yul\":3162:3293   */\n      tag_174\n        /* \"#utility.yul\":3288:3292   */\n      dup2\n        /* \"#utility.yul\":3162:3293   */\n      tag_121\n      jump\t// in\n    tag_174:\n        /* \"#utility.yul\":3154:3293   */\n      swap1\n      pop\n        /* \"#utility.yul\":2881:3300   */\n      swap2\n      swap1\n      pop\n      jump\t// out\n        /* \"#utility.yul\":3306:3475   */\n    tag_122:\n        /* \"#utility.yul\":3446:3467   */\n      0x596f752063616e277420626964206c6f77657200000000000000000000000000\n        /* \"#utility.yul\":3442:3443   */\n      0x00\n        /* \"#utility.yul\":3434:3440   */\n      dup3\n        /* \"#utility.yul\":3430:3444   */\n      add\n        /* \"#utility.yul\":3423:3468   */\n      mstore\n        /* \"#utility.yul\":3306:3475   */\n      pop\n      jump\t// out\n        /* \"#utility.yul\":3481:3847   */\n    tag_123:\n        /* \"#utility.yul\":3623:3626   */\n      0x00\n        /* \"#utility.yul\":3644:3711   */\n      tag_177\n        /* \"#utility.yul\":3708:3710   */\n      0x13\n        /* \"#utility.yul\":3703:3706   */\n      dup4\n        /* \"#utility.yul\":3644:3711   */\n      tag_119\n      jump\t// in\n    tag_177:\n        /* \"#utility.yul\":3637:3711   */\n      swap2\n      pop\n        /* \"#utility.yul\":3720:3813   */\n      tag_178\n        /* \"#utility.yul\":3809:3812   */\n      dup3\n        /* \"#utility.yul\":3720:3813   */\n      tag_122\n      jump\t// in\n    tag_178:\n        /* \"#utility.yul\":3838:3840   */\n      0x20\n        /* \"#utility.yul\":3833:3836   */\n      dup3\n        /* \"#utility.yul\":3829:3841   */\n      add\n        /* \"#utility.yul\":3822:3841   */\n      swap1\n      pop\n        /* \"#utility.yul\":3481:3847   */\n      swap2\n      swap1\n      pop\n      jump\t// out\n        /* \"#utility.yul\":3853:4272   */\n    tag_64:\n        /* \"#utility.yul\":4019:4023   */\n      0x00\n        /* \"#utility.yul\":4057:4059   */\n      0x20\n        /* \"#utility.yul\":4046:4055   */\n      dup3\n        /* \"#utility.yul\":4042:4060   */\n      add\n        /* \"#utility.yul\":4034:4060   */\n      swap1\n      pop\n        /* \"#utility.yul\":4106:4115   */\n      dup2\n        /* \"#utility.yul\":4100:4104   */\n      dup2\n        /* \"#utility.yul\":4096:4116   */\n      sub\n        /* \"#utility.yul\":4092:4093   */\n      0x00\n        /* \"#utility.yul\":4081:4090   */\n      dup4\n        /* \"#utility.yul\":4077:4094   */\n      add\n        /* \"#utility.yul\":4070:4117   */\n      mstore\n        /* \"#utility.yul\":4134:4265   */\n      tag_180\n        /* \"#utility.yul\":4260:4264   */\n      dup2\n        /* \"#utility.yul\":4134:4265   */\n      tag_123\n      jump\t// in\n    tag_180:\n        /* \"#utility.yul\":4126:4265   */\n      swap1\n      pop\n        /* \"#utility.yul\":3853:4272   */\n      swap2\n      swap1\n      pop\n      jump\t// out\n        /* \"#utility.yul\":4278:4511   */\n    tag_124:\n        /* \"#utility.yul\":4418:4452   */\n      0x4f6e6c792074686520636f6e7472616374206f776e65722063616e2063616c6c\n        /* \"#utility.yul\":4414:4415   */\n      0x00\n        /* \"#utility.yul\":4406:4412   */\n      dup3\n        /* \"#utility.yul\":4402:4416   */\n      add\n        /* \"#utility.yul\":4395:4453   */\n      mstore\n        /* \"#utility.yul\":4487:4503   */\n      0x20746869732066756e6374696f6e000000000000000000000000000000000000\n        /* \"#utility.yul\":4482:4484   */\n      0x20\n        /* \"#utility.yul\":4474:4480   */\n      dup3\n        /* \"#utility.yul\":4470:4485   */\n      add\n        /* \"#utility.yul\":4463:4504   */\n      mstore\n        /* \"#utility.yul\":4278:4511   */\n      pop\n      jump\t// out\n        /* \"#utility.yul\":4517:4883   */\n    tag_125:\n        /* \"#utility.yul\":4659:4662   */\n      0x00\n        /* \"#utility.yul\":4680:4747   */\n      tag_183\n        /* \"#utility.yul\":4744:4746   */\n      0x2e\n        /* \"#utility.yul\":4739:4742   */\n      dup4\n        /* \"#utility.yul\":4680:4747   */\n      tag_119\n      jump\t// in\n    tag_183:\n        /* \"#utility.yul\":4673:4747   */\n      swap2\n      pop\n        /* \"#utility.yul\":4756:4849   */\n      tag_184\n        /* \"#utility.yul\":4845:4848   */\n      dup3\n        /* \"#utility.yul\":4756:4849   */\n      tag_124\n      jump\t// in\n    tag_184:\n        /* \"#utility.yul\":4874:4876   */\n      0x40\n        /* \"#utility.yul\":4869:4872   */\n      dup3\n        /* \"#utility.yul\":4865:4877   */\n      add\n        /* \"#utility.yul\":4858:4877   */\n      swap1\n      pop\n        /* \"#utility.yul\":4517:4883   */\n      swap2\n      swap1\n      pop\n      jump\t// out\n        /* \"#utility.yul\":4889:5308   */\n    tag_68:\n        /* \"#utility.yul\":5055:5059   */\n      0x00\n        /* \"#utility.yul\":5093:5095   */\n      0x20\n        /* \"#utility.yul\":5082:5091   */\n      dup3\n        /* \"#utility.yul\":5078:5096   */\n      add\n        /* \"#utility.yul\":5070:5096   */\n      swap1\n      pop\n        /* \"#utility.yul\":5142:5151   */\n      dup2\n        /* \"#utility.yul\":5136:5140   */\n      dup2\n        /* \"#utility.yul\":5132:5152   */\n      sub\n        /* \"#utility.yul\":5128:5129   */\n      0x00\n        /* \"#utility.yul\":5117:5126   */\n      dup4\n        /* \"#utility.yul\":5113:5130   */\n      add\n        /* \"#utility.yul\":5106:5153   */\n      mstore\n        /* \"#utility.yul\":5170:5301   */\n      tag_186\n        /* \"#utility.yul\":5296:5300   */\n      dup2\n        /* \"#utility.yul\":5170:5301   */\n      tag_125\n      jump\t// in\n    tag_186:\n        /* \"#utility.yul\":5162:5301   */\n      swap1\n      pop\n        /* \"#utility.yul\":4889:5308   */\n      swap2\n      swap1\n      pop\n      jump\t// out\n        /* \"#utility.yul\":5314:5374   */\n    tag_126:\n        /* \"#utility.yul\":5342:5345   */\n      0x00\n        /* \"#utility.yul\":5363:5368   */\n      dup2\n        /* \"#utility.yul\":5356:5368   */\n      swap1\n      pop\n        /* \"#utility.yul\":5314:5374   */\n      swap2\n      swap1\n      pop\n      jump\t// out\n        /* \"#utility.yul\":5380:5522   */\n    tag_127:\n        /* \"#utility.yul\":5430:5439   */\n      0x00\n        /* \"#utility.yul\":5463:5516   */\n      tag_189\n        /* \"#utility.yul\":5481:5515   */\n      tag_190\n        /* \"#utility.yul\":5490:5514   */\n      tag_191\n        /* \"#utility.yul\":5508:5513   */\n      dup5\n        /* \"#utility.yul\":5490:5514   */\n      tag_111\n      jump\t// in\n    tag_191:\n        /* \"#utility.yul\":5481:5515   */\n      tag_126\n      jump\t// in\n    tag_190:\n        /* \"#utility.yul\":5463:5516   */\n      tag_111\n      jump\t// in\n    tag_189:\n        /* \"#utility.yul\":5450:5516   */\n      swap1\n      pop\n        /* \"#utility.yul\":5380:5522   */\n      swap2\n      swap1\n      pop\n      jump\t// out\n        /* \"#utility.yul\":5528:5654   */\n    tag_128:\n        /* \"#utility.yul\":5578:5587   */\n      0x00\n        /* \"#utility.yul\":5611:5648   */\n      tag_193\n        /* \"#utility.yul\":5642:5647   */\n      dup3\n        /* \"#utility.yul\":5611:5648   */\n      tag_127\n      jump\t// in\n    tag_193:\n        /* \"#utility.yul\":5598:5648   */\n      swap1\n      pop\n        /* \"#utility.yul\":5528:5654   */\n      swap2\n      swap1\n      pop\n      jump\t// out\n        /* \"#utility.yul\":5660:5794   */\n    tag_129:\n        /* \"#utility.yul\":5718:5727   */\n      0x00\n        /* \"#utility.yul\":5751:5788   */\n      tag_195\n        /* \"#utility.yul\":5782:5787   */\n      dup3\n        /* \"#utility.yul\":5751:5788   */\n      tag_128\n      jump\t// in\n    tag_195:\n        /* \"#utility.yul\":5738:5788   */\n      swap1\n      pop\n        /* \"#utility.yul\":5660:5794   */\n      swap2\n      swap1\n      pop\n      jump\t// out\n        /* \"#utility.yul\":5800:5947   */\n    tag_130:\n        /* \"#utility.yul\":5895:5940   */\n      tag_197\n        /* \"#utility.yul\":5934:5939   */\n      dup2\n        /* \"#utility.yul\":5895:5940   */\n      tag_129\n      jump\t// in\n    tag_197:\n        /* \"#utility.yul\":5890:5893   */\n      dup3\n        /* \"#utility.yul\":5883:5941   */\n      mstore\n        /* \"#utility.yul\":5800:5947   */\n      pop\n      pop\n      jump\t// out\n        /* \"#utility.yul\":5953:6301   */\n    tag_71:\n        /* \"#utility.yul\":6082:6086   */\n      0x00\n        /* \"#utility.yul\":6120:6122   */\n      0x40\n        /* \"#utility.yul\":6109:6118   */\n      dup3\n        /* \"#utility.yul\":6105:6123   */\n      add\n        /* \"#utility.yul\":6097:6123   */\n      swap1\n      pop\n        /* \"#utility.yul\":6133:6212   */\n      tag_199\n        /* \"#utility.yul\":6209:6210   */\n      0x00\n        /* \"#utility.yul\":6198:6207   */\n      dup4\n        /* \"#utility.yul\":6194:6211   */\n      add\n        /* \"#utility.yul\":6185:6191   */\n      dup6\n        /* \"#utility.yul\":6133:6212   */\n      tag_130\n      jump\t// in\n    tag_199:\n        /* \"#utility.yul\":6222:6294   */\n      tag_200\n        /* \"#utility.yul\":6290:6292   */\n      0x20\n        /* \"#utility.yul\":6279:6288   */\n      dup4\n        /* \"#utility.yul\":6275:6293   */\n      add\n        /* \"#utility.yul\":6266:6272   */\n      dup5\n        /* \"#utility.yul\":6222:6294   */\n      tag_113\n      jump\t// in\n    tag_200:\n        /* \"#utility.yul\":5953:6301   */\n      swap4\n      swap3\n      pop\n      pop\n      pop\n      jump\t// out\n        /* \"#utility.yul\":6307:6397   */\n    tag_131:\n        /* \"#utility.yul\":6341:6348   */\n      0x00\n        /* \"#utility.yul\":6384:6389   */\n      dup2\n        /* \"#utility.yul\":6377:6390   */\n      iszero\n        /* \"#utility.yul\":6370:6391   */\n      iszero\n        /* \"#utility.yul\":6359:6391   */\n      swap1\n      pop\n        /* \"#utility.yul\":6307:6397   */\n      swap2\n      swap1\n      pop\n      jump\t// out\n        /* \"#utility.yul\":6403:6519   */\n    tag_132:\n        /* \"#utility.yul\":6473:6494   */\n      tag_203\n        /* \"#utility.yul\":6488:6493   */\n      dup2\n        /* \"#utility.yul\":6473:6494   */\n      tag_131\n      jump\t// in\n    tag_203:\n        /* \"#utility.yul\":6466:6471   */\n      dup2\n        /* \"#utility.yul\":6463:6495   */\n      eq\n        /* \"#utility.yul\":6453:6513   */\n      tag_204\n      jumpi\n        /* \"#utility.yul\":6509:6510   */\n      0x00\n        /* \"#utility.yul\":6506:6507   */\n      dup1\n        /* \"#utility.yul\":6499:6511   */\n      revert\n        /* \"#utility.yul\":6453:6513   */\n    tag_204:\n        /* \"#utility.yul\":6403:6519   */\n      pop\n      jump\t// out\n        /* \"#utility.yul\":6525:6662   */\n    tag_133:\n        /* \"#utility.yul\":6579:6584   */\n      0x00\n        /* \"#utility.yul\":6610:6616   */\n      dup2\n        /* \"#utility.yul\":6604:6617   */\n      mload\n        /* \"#utility.yul\":6595:6617   */\n      swap1\n      pop\n        /* \"#utility.yul\":6626:6656   */\n      tag_206\n        /* \"#utility.yul\":6650:6655   */\n      dup2\n        /* \"#utility.yul\":6626:6656   */\n      tag_132\n      jump\t// in\n    tag_206:\n        /* \"#utility.yul\":6525:6662   */\n      swap3\n      swap2\n      pop\n      pop\n      jump\t// out\n        /* \"#utility.yul\":6668:7013   */\n    tag_75:\n        /* \"#utility.yul\":6735:6741   */\n      0x00\n        /* \"#utility.yul\":6784:6786   */\n      0x20\n        /* \"#utility.yul\":6772:6781   */\n      dup3\n        /* \"#utility.yul\":6763:6770   */\n      dup5\n        /* \"#utility.yul\":6759:6782   */\n      sub\n        /* \"#utility.yul\":6755:6787   */\n      slt\n        /* \"#utility.yul\":6752:6871   */\n      iszero\n      tag_208\n      jumpi\n        /* \"#utility.yul\":6790:6869   */\n      tag_209\n      tag_115\n      jump\t// in\n    tag_209:\n        /* \"#utility.yul\":6752:6871   */\n    tag_208:\n        /* \"#utility.yul\":6910:6911   */\n      0x00\n        /* \"#utility.yul\":6935:6996   */\n      tag_210\n        /* \"#utility.yul\":6988:6995   */\n      dup5\n        /* \"#utility.yul\":6979:6985   */\n      dup3\n        /* \"#utility.yul\":6968:6977   */\n      dup6\n        /* \"#utility.yul\":6964:6986   */\n      add\n        /* \"#utility.yul\":6935:6996   */\n      tag_133\n      jump\t// in\n    tag_210:\n        /* \"#utility.yul\":6925:6996   */\n      swap2\n      pop\n        /* \"#utility.yul\":6881:7006   */\n      pop\n        /* \"#utility.yul\":6668:7013   */\n      swap3\n      swap2\n      pop\n      pop\n      jump\t// out\n        /* \"#utility.yul\":7019:7246   */\n    tag_134:\n        /* \"#utility.yul\":7159:7193   */\n      0x436f6e7472616374206973206e6f7420617070726f76656420746f207472616e\n        /* \"#utility.yul\":7155:7156   */\n      0x00\n        /* \"#utility.yul\":7147:7153   */\n      dup3\n        /* \"#utility.yul\":7143:7157   */\n      add\n        /* \"#utility.yul\":7136:7194   */\n      mstore\n        /* \"#utility.yul\":7228:7238   */\n      0x73666572204e4654000000000000000000000000000000000000000000000000\n        /* \"#utility.yul\":7223:7225   */\n      0x20\n        /* \"#utility.yul\":7215:7221   */\n      dup3\n        /* \"#utility.yul\":7211:7226   */\n      add\n        /* \"#utility.yul\":7204:7239   */\n      mstore\n        /* \"#utility.yul\":7019:7246   */\n      pop\n      jump\t// out\n        /* \"#utility.yul\":7252:7618   */\n    tag_135:\n        /* \"#utility.yul\":7394:7397   */\n      0x00\n        /* \"#utility.yul\":7415:7482   */\n      tag_213\n        /* \"#utility.yul\":7479:7481   */\n      0x28\n        /* \"#utility.yul\":7474:7477   */\n      dup4\n        /* \"#utility.yul\":7415:7482   */\n      tag_119\n      jump\t// in\n    tag_213:\n        /* \"#utility.yul\":7408:7482   */\n      swap2\n      pop\n        /* \"#utility.yul\":7491:7584   */\n      tag_214\n        /* \"#utility.yul\":7580:7583   */\n      dup3\n        /* \"#utility.yul\":7491:7584   */\n      tag_134\n      jump\t// in\n    tag_214:\n        /* \"#utility.yul\":7609:7611   */\n      0x40\n        /* \"#utility.yul\":7604:7607   */\n      dup3\n        /* \"#utility.yul\":7600:7612   */\n      add\n        /* \"#utility.yul\":7593:7612   */\n      swap1\n      pop\n        /* \"#utility.yul\":7252:7618   */\n      swap2\n      swap1\n      pop\n      jump\t// out\n        /* \"#utility.yul\":7624:8043   */\n    tag_78:\n        /* \"#utility.yul\":7790:7794   */\n      0x00\n        /* \"#utility.yul\":7828:7830   */\n      0x20\n        /* \"#utility.yul\":7817:7826   */\n      dup3\n        /* \"#utility.yul\":7813:7831   */\n      add\n        /* \"#utility.yul\":7805:7831   */\n      swap1\n      pop\n        /* \"#utility.yul\":7877:7886   */\n      dup2\n        /* \"#utility.yul\":7871:7875   */\n      dup2\n        /* \"#utility.yul\":7867:7887   */\n      sub\n        /* \"#utility.yul\":7863:7864   */\n      0x00\n        /* \"#utility.yul\":7852:7861   */\n      dup4\n        /* \"#utility.yul\":7848:7865   */\n      add\n        /* \"#utility.yul\":7841:7888   */\n      mstore\n        /* \"#utility.yul\":7905:8036   */\n      tag_216\n        /* \"#utility.yul\":8031:8035   */\n      dup2\n        /* \"#utility.yul\":7905:8036   */\n      tag_135\n      jump\t// in\n    tag_216:\n        /* \"#utility.yul\":7897:8036   */\n      swap1\n      pop\n        /* \"#utility.yul\":7624:8043   */\n      swap2\n      swap1\n      pop\n      jump\t// out\n        /* \"#utility.yul\":8049:8507   */\n    tag_87:\n        /* \"#utility.yul\":8206:8210   */\n      0x00\n        /* \"#utility.yul\":8244:8246   */\n      0x60\n        /* \"#utility.yul\":8233:8242   */\n      dup3\n        /* \"#utility.yul\":8229:8247   */\n      add\n        /* \"#utility.yul\":8221:8247   */\n      swap1\n      pop\n        /* \"#utility.yul\":8257:8336   */\n      tag_218\n        /* \"#utility.yul\":8333:8334   */\n      0x00\n        /* \"#utility.yul\":8322:8331   */\n      dup4\n        /* \"#utility.yul\":8318:8335   */\n      add\n        /* \"#utility.yul\":8309:8315   */\n      dup7\n        /* \"#utility.yul\":8257:8336   */\n      tag_130\n      jump\t// in\n    tag_218:\n        /* \"#utility.yul\":8346:8418   */\n      tag_219\n        /* \"#utility.yul\":8414:8416   */\n      0x20\n        /* \"#utility.yul\":8403:8412   */\n      dup4\n        /* \"#utility.yul\":8399:8417   */\n      add\n        /* \"#utility.yul\":8390:8396   */\n      dup6\n        /* \"#utility.yul\":8346:8418   */\n      tag_113\n      jump\t// in\n    tag_219:\n        /* \"#utility.yul\":8428:8500   */\n      tag_220\n        /* \"#utility.yul\":8496:8498   */\n      0x40\n        /* \"#utility.yul\":8485:8494   */\n      dup4\n        /* \"#utility.yul\":8481:8499   */\n      add\n        /* \"#utility.yul\":8472:8478   */\n      dup5\n        /* \"#utility.yul\":8428:8500   */\n      tag_110\n      jump\t// in\n    tag_220:\n        /* \"#utility.yul\":8049:8507   */\n      swap5\n      swap4\n      pop\n      pop\n      pop\n      pop\n      jump\t// out\n        /* \"#utility.yul\":8513:8635   */\n    tag_136:\n        /* \"#utility.yul\":8603:8604   */\n      0x02\n        /* \"#utility.yul\":8596:8601   */\n      dup2\n        /* \"#utility.yul\":8593:8605   */\n      lt\n        /* \"#utility.yul\":8583:8629   */\n      tag_222\n      jumpi\n        /* \"#utility.yul\":8609:8627   */\n      tag_223\n      tag_56\n      jump\t// in\n    tag_223:\n        /* \"#utility.yul\":8583:8629   */\n    tag_222:\n        /* \"#utility.yul\":8513:8635   */\n      pop\n      jump\t// out\n        /* \"#utility.yul\":8641:8786   */\n    tag_137:\n        /* \"#utility.yul\":8695:8702   */\n      0x00\n        /* \"#utility.yul\":8724:8729   */\n      dup2\n        /* \"#utility.yul\":8713:8729   */\n      swap1\n      pop\n        /* \"#utility.yul\":8730:8780   */\n      tag_225\n        /* \"#utility.yul\":8774:8779   */\n      dup3\n        /* \"#utility.yul\":8730:8780   */\n      tag_136\n      jump\t// in\n    tag_225:\n        /* \"#utility.yul\":8641:8786   */\n      swap2\n      swap1\n      pop\n      jump\t// out\n        /* \"#utility.yul\":8792:8937   */\n    tag_138:\n        /* \"#utility.yul\":8857:8866   */\n      0x00\n        /* \"#utility.yul\":8890:8931   */\n      tag_227\n        /* \"#utility.yul\":8925:8930   */\n      dup3\n        /* \"#utility.yul\":8890:8931   */\n      tag_137\n      jump\t// in\n    tag_227:\n        /* \"#utility.yul\":8877:8931   */\n      swap1\n      pop\n        /* \"#utility.yul\":8792:8937   */\n      swap2\n      swap1\n      pop\n      jump\t// out\n        /* \"#utility.yul\":8943:9104   */\n    tag_139:\n        /* \"#utility.yul\":9045:9097   */\n      tag_229\n        /* \"#utility.yul\":9091:9096   */\n      dup2\n        /* \"#utility.yul\":9045:9097   */\n      tag_138\n      jump\t// in\n    tag_229:\n        /* \"#utility.yul\":9040:9043   */\n      dup3\n        /* \"#utility.yul\":9033:9098   */\n      mstore\n        /* \"#utility.yul\":8943:9104   */\n      pop\n      pop\n      jump\t// out\n        /* \"#utility.yul\":9110:9362   */\n    tag_94:\n        /* \"#utility.yul\":9218:9222   */\n      0x00\n        /* \"#utility.yul\":9256:9258   */\n      0x20\n        /* \"#utility.yul\":9245:9254   */\n      dup3\n        /* \"#utility.yul\":9241:9259   */\n      add\n        /* \"#utility.yul\":9233:9259   */\n      swap1\n      pop\n        /* \"#utility.yul\":9269:9355   */\n      tag_231\n        /* \"#utility.yul\":9352:9353   */\n      0x00\n        /* \"#utility.yul\":9341:9350   */\n      dup4\n        /* \"#utility.yul\":9337:9354   */\n      add\n        /* \"#utility.yul\":9328:9334   */\n      dup5\n        /* \"#utility.yul\":9269:9355   */\n      tag_139\n      jump\t// in\n    tag_231:\n        /* \"#utility.yul\":9110:9362   */\n      swap3\n      swap2\n      pop\n      pop\n      jump\t// out\n        /* \"#utility.yul\":9368:9545   */\n    tag_140:\n        /* \"#utility.yul\":9508:9537   */\n      0x5468652041756374696f6e20697320616c7265616479206f70656e0000000000\n        /* \"#utility.yul\":9504:9505   */\n      0x00\n        /* \"#utility.yul\":9496:9502   */\n      dup3\n        /* \"#utility.yul\":9492:9506   */\n      add\n        /* \"#utility.yul\":9485:9538   */\n      mstore\n        /* \"#utility.yul\":9368:9545   */\n      pop\n      jump\t// out\n        /* \"#utility.yul\":9551:9917   */\n    tag_141:\n        /* \"#utility.yul\":9693:9696   */\n      0x00\n        /* \"#utility.yul\":9714:9781   */\n      tag_234\n        /* \"#utility.yul\":9778:9780   */\n      0x1b\n        /* \"#utility.yul\":9773:9776   */\n      dup4\n        /* \"#utility.yul\":9714:9781   */\n      tag_119\n      jump\t// in\n    tag_234:\n        /* \"#utility.yul\":9707:9781   */\n      swap2\n      pop\n        /* \"#utility.yul\":9790:9883   */\n      tag_235\n        /* \"#utility.yul\":9879:9882   */\n      dup3\n        /* \"#utility.yul\":9790:9883   */\n      tag_140\n      jump\t// in\n    tag_235:\n        /* \"#utility.yul\":9908:9910   */\n      0x20\n        /* \"#utility.yul\":9903:9906   */\n      dup3\n        /* \"#utility.yul\":9899:9911   */\n      add\n        /* \"#utility.yul\":9892:9911   */\n      swap1\n      pop\n        /* \"#utility.yul\":9551:9917   */\n      swap2\n      swap1\n      pop\n      jump\t// out\n        /* \"#utility.yul\":9923:10342   */\n    tag_105:\n        /* \"#utility.yul\":10089:10093   */\n      0x00\n        /* \"#utility.yul\":10127:10129   */\n      0x20\n        /* \"#utility.yul\":10116:10125   */\n      dup3\n        /* \"#utility.yul\":10112:10130   */\n      add\n        /* \"#utility.yul\":10104:10130   */\n      swap1\n      pop\n        /* \"#utility.yul\":10176:10185   */\n      dup2\n        /* \"#utility.yul\":10170:10174   */\n      dup2\n        /* \"#utility.yul\":10166:10186   */\n      sub\n        /* \"#utility.yul\":10162:10163   */\n      0x00\n        /* \"#utility.yul\":10151:10160   */\n      dup4\n        /* \"#utility.yul\":10147:10164   */\n      add\n        /* \"#utility.yul\":10140:10187   */\n      mstore\n        /* \"#utility.yul\":10204:10335   */\n      tag_237\n        /* \"#utility.yul\":10330:10334   */\n      dup2\n        /* \"#utility.yul\":10204:10335   */\n      tag_141\n      jump\t// in\n    tag_237:\n        /* \"#utility.yul\":10196:10335   */\n      swap1\n      pop\n        /* \"#utility.yul\":9923:10342   */\n      swap2\n      swap1\n      pop\n      jump\t// out\n\n    auxdata: 0xa2646970667358221220168b8073f9a401ebe70f70d56a739551bda5e521ebf5f789f4ca09207be20de364736f6c63430008110033\n}\n",
				"bytecode": {
					"linkReferences": {},
					"object": "60c06040523480156200001157600080fd5b5060405162001137380380620011378339818101604052810190620000379190620001d8565b83600160006101000a81548173ffffffffffffffffffffffffffffffffffffffff021916908373ffffffffffffffffffffffffffffffffffffffff1602179055508260028190555081608081815250508073ffffffffffffffffffffffffffffffffffffffff1660a08173ffffffffffffffffffffffffffffffffffffffff16815250506001600760006101000a81548160ff02191690836001811115620000e457620000e36200024a565b5b0217905550806000806101000a81548173ffffffffffffffffffffffffffffffffffffffff021916908373ffffffffffffffffffffffffffffffffffffffff1602179055505050505062000279565b600080fd5b600073ffffffffffffffffffffffffffffffffffffffff82169050919050565b6000620001658262000138565b9050919050565b620001778162000158565b81146200018357600080fd5b50565b60008151905062000197816200016c565b92915050565b6000819050919050565b620001b2816200019d565b8114620001be57600080fd5b50565b600081519050620001d281620001a7565b92915050565b60008060008060808587031215620001f557620001f462000133565b5b6000620002058782880162000186565b94505060206200021887828801620001c1565b93505060406200022b87828801620001c1565b92505060606200023e8782880162000186565b91505092959194509250565b7f4e487b7100000000000000000000000000000000000000000000000000000000600052602160045260246000fd5b60805160a051610e91620002a6600039600061073601526000818161020f01526106520152610e916000f3fe6080604052600436106100915760003560e01c80636b64c769116100595780636b64c7691461013857806391f901571461014f578063b8da82ea1461017a578063d57bde79146101a5578063dc689504146101d057610091565b806317d70f7c146100965780631998aeef146100c15780631d0806ae146100cb578063378252f2146100f657806355a373d61461010d575b600080fd5b3480156100a257600080fd5b506100ab61020d565b6040516100b89190610957565b60405180910390f35b6100c9610231565b005b3480156100d757600080fd5b506100e0610346565b6040516100ed9190610957565b60405180910390f35b34801561010257600080fd5b5061010b61034c565b005b34801561011957600080fd5b50610122610734565b60405161012f91906109b3565b60405180910390f35b34801561014457600080fd5b5061014d610758565b005b34801561015b57600080fd5b506101646108d9565b60405161017191906109b3565b60405180910390f35b34801561018657600080fd5b5061018f6108ff565b60405161019c9190610957565b60405180910390f35b3480156101b157600080fd5b506101ba610905565b6040516101c79190610957565b60405180910390f35b3480156101dc57600080fd5b506101f760048036038101906101f291906109ff565b61090b565b60405161020491906109b3565b60405180910390f35b7f000000000000000000000000000000000000000000000000000000000000000081565b6000600181111561024557610244610a2c565b5b600760009054906101000a900460ff16600181111561026757610266610a2c565b5b146102a7576040517f08c379a000000000000000000000000000000000000000000000000000000000815260040161029e90610ab8565b60405180910390fd5b60035434116102eb576040517f08c379a00000000000000000000000000000000000000000000000000000000081526004016102e290610b24565b60405180910390fd5b336006600034815260200190815260200160002060006101000a81548173ffffffffffffffffffffffffffffffffffffffff021916908373ffffffffffffffffffffffffffffffffffffffff16021790555034600481905550565b60025481565b600160009054906101000a900473ffffffffffffffffffffffffffffffffffffffff1673ffffffffffffffffffffffffffffffffffffffff163373ffffffffffffffffffffffffffffffffffffffff16146103dc576040517f08c379a00000000000000000000000000000000000000000000000000000000081526004016103d390610bb6565b60405180910390fd5b60008054906101000a900473ffffffffffffffffffffffffffffffffffffffff1673ffffffffffffffffffffffffffffffffffffffff1663e985e9c5600160009054906101000a900473ffffffffffffffffffffffffffffffffffffffff16306040518363ffffffff1660e01b8152600401610459929190610c35565b602060405180830381865afa158015610476573d6000803e3d6000fd5b505050506040513d601f19601f8201168201806040525081019061049a9190610c96565b6104d9576040517f08c379a00000000000000000000000000000000000000000000000000000000081526004016104d090610d35565b60405180910390fd5b600060018111156104ed576104ec610a2c565b5b600760009054906101000a900460ff16600181111561050f5761050e610a2c565b5b1461054f576040517f08c379a000000000000000000000000000000000000000000000000000000000815260040161054690610ab8565b60405180910390fd5b60066000600354815260200190815260200160002060009054906101000a900473ffffffffffffffffffffffffffffffffffffffff16600560006101000a81548173ffffffffffffffffffffffffffffffffffffffff021916908373ffffffffffffffffffffffffffffffffffffffff16021790555060045460038190555060008054906101000a900473ffffffffffffffffffffffffffffffffffffffff1673ffffffffffffffffffffffffffffffffffffffff166323b872dd600160009054906101000a900473ffffffffffffffffffffffffffffffffffffffff16600560009054906101000a900473ffffffffffffffffffffffffffffffffffffffff167f00000000000000000000000000000000000000000000000000000000000000006040518463ffffffff1660e01b815260040161068f93929190610d55565b600060405180830381600087803b1580156106a957600080fd5b505af11580156106bd573d6000803e3d6000fd5b505050506001600760006101000a81548160ff021916908360018111156106e7576106e6610a2c565b5b02179055507f8caed3b4bf01375b22dc7f84afe719ce12ab14864751a7d5e4142fe4e4a50a51600760009054906101000a900460ff1660405161072a9190610dd4565b60405180910390a1565b7f000000000000000000000000000000000000000000000000000000000000000081565b600160009054906101000a900473ffffffffffffffffffffffffffffffffffffffff1673ffffffffffffffffffffffffffffffffffffffff163373ffffffffffffffffffffffffffffffffffffffff16146107e8576040517f08c379a00000000000000000000000000000000000000000000000000000000081526004016107df90610bb6565b60405180910390fd5b6001808111156107fb576107fa610a2c565b5b600760009054906101000a900460ff16600181111561081d5761081c610a2c565b5b1461085d576040517f08c379a000000000000000000000000000000000000000000000000000000000815260040161085490610e3b565b60405180910390fd5b6000600760006101000a81548160ff0219169083600181111561088357610882610a2c565b5b02179055506002546003819055507f8caed3b4bf01375b22dc7f84afe719ce12ab14864751a7d5e4142fe4e4a50a51600760009054906101000a900460ff166040516108cf9190610dd4565b60405180910390a1565b600560009054906101000a900473ffffffffffffffffffffffffffffffffffffffff1681565b60045481565b60035481565b60066020528060005260406000206000915054906101000a900473ffffffffffffffffffffffffffffffffffffffff1681565b6000819050919050565b6109518161093e565b82525050565b600060208201905061096c6000830184610948565b92915050565b600073ffffffffffffffffffffffffffffffffffffffff82169050919050565b600061099d82610972565b9050919050565b6109ad81610992565b82525050565b60006020820190506109c860008301846109a4565b92915050565b600080fd5b6109dc8161093e565b81146109e757600080fd5b50565b6000813590506109f9816109d3565b92915050565b600060208284031215610a1557610a146109ce565b5b6000610a23848285016109ea565b91505092915050565b7f4e487b7100000000000000000000000000000000000000000000000000000000600052602160045260246000fd5b600082825260208201905092915050565b7f5468652041756374696f6e20697320616c726561647920636c6f736564000000600082015250565b6000610aa2601d83610a5b565b9150610aad82610a6c565b602082019050919050565b60006020820190508181036000830152610ad181610a95565b9050919050565b7f596f752063616e277420626964206c6f77657200000000000000000000000000600082015250565b6000610b0e601383610a5b565b9150610b1982610ad8565b602082019050919050565b60006020820190508181036000830152610b3d81610b01565b9050919050565b7f4f6e6c792074686520636f6e7472616374206f776e65722063616e2063616c6c60008201527f20746869732066756e6374696f6e000000000000000000000000000000000000602082015250565b6000610ba0602e83610a5b565b9150610bab82610b44565b604082019050919050565b60006020820190508181036000830152610bcf81610b93565b9050919050565b6000819050919050565b6000610bfb610bf6610bf184610972565b610bd6565b610972565b9050919050565b6000610c0d82610be0565b9050919050565b6000610c1f82610c02565b9050919050565b610c2f81610c14565b82525050565b6000604082019050610c4a6000830185610c26565b610c5760208301846109a4565b9392505050565b60008115159050919050565b610c7381610c5e565b8114610c7e57600080fd5b50565b600081519050610c9081610c6a565b92915050565b600060208284031215610cac57610cab6109ce565b5b6000610cba84828501610c81565b91505092915050565b7f436f6e7472616374206973206e6f7420617070726f76656420746f207472616e60008201527f73666572204e4654000000000000000000000000000000000000000000000000602082015250565b6000610d1f602883610a5b565b9150610d2a82610cc3565b604082019050919050565b60006020820190508181036000830152610d4e81610d12565b9050919050565b6000606082019050610d6a6000830186610c26565b610d7760208301856109a4565b610d846040830184610948565b949350505050565b60028110610d9d57610d9c610a2c565b5b50565b6000819050610dae82610d8c565b919050565b6000610dbe82610da0565b9050919050565b610dce81610db3565b82525050565b6000602082019050610de96000830184610dc5565b92915050565b7f5468652041756374696f6e20697320616c7265616479206f70656e0000000000600082015250565b6000610e25601b83610a5b565b9150610e3082610def565b602082019050919050565b60006020820190508181036000830152610e5481610e18565b905091905056fea2646970667358221220168b8073f9a401ebe70f70d56a739551bda5e521ebf5f789f4ca09207be20de364736f6c63430008110033",
					"opcodes": "PUSH1 0xC0 PUSH1 0x40 MSTORE CALLVALUE DUP1 ISZERO PUSH3 0x11 JUMPI PUSH1 0x0 DUP1 REVERT JUMPDEST POP PUSH1 0x40 MLOAD PUSH3 0x1137 CODESIZE SUB DUP1 PUSH3 0x1137 DUP4 CODECOPY DUP2 DUP2 ADD PUSH1 0x40 MSTORE DUP2 ADD SWAP1 PUSH3 0x37 SWAP2 SWAP1 PUSH3 0x1D8 JUMP JUMPDEST DUP4 PUSH1 0x1 PUSH1 0x0 PUSH2 0x100 EXP DUP2 SLOAD DUP2 PUSH20 0xFFFFFFFFFFFFFFFFFFFFFFFFFFFFFFFFFFFFFFFF MUL NOT AND SWAP1 DUP4 PUSH20 0xFFFFFFFFFFFFFFFFFFFFFFFFFFFFFFFFFFFFFFFF AND MUL OR SWAP1 SSTORE POP DUP3 PUSH1 0x2 DUP2 SWAP1 SSTORE POP DUP2 PUSH1 0x80 DUP2 DUP2 MSTORE POP POP DUP1 PUSH20 0xFFFFFFFFFFFFFFFFFFFFFFFFFFFFFFFFFFFFFFFF AND PUSH1 0xA0 DUP2 PUSH20 0xFFFFFFFFFFFFFFFFFFFFFFFFFFFFFFFFFFFFFFFF AND DUP2 MSTORE POP POP PUSH1 0x1 PUSH1 0x7 PUSH1 0x0 PUSH2 0x100 EXP DUP2 SLOAD DUP2 PUSH1 0xFF MUL NOT AND SWAP1 DUP4 PUSH1 0x1 DUP2 GT ISZERO PUSH3 0xE4 JUMPI PUSH3 0xE3 PUSH3 0x24A JUMP JUMPDEST JUMPDEST MUL OR SWAP1 SSTORE POP DUP1 PUSH1 0x0 DUP1 PUSH2 0x100 EXP DUP2 SLOAD DUP2 PUSH20 0xFFFFFFFFFFFFFFFFFFFFFFFFFFFFFFFFFFFFFFFF MUL NOT AND SWAP1 DUP4 PUSH20 0xFFFFFFFFFFFFFFFFFFFFFFFFFFFFFFFFFFFFFFFF AND MUL OR SWAP1 SSTORE POP POP POP POP POP PUSH3 0x279 JUMP JUMPDEST PUSH1 0x0 DUP1 REVERT JUMPDEST PUSH1 0x0 PUSH20 0xFFFFFFFFFFFFFFFFFFFFFFFFFFFFFFFFFFFFFFFF DUP3 AND SWAP1 POP SWAP2 SWAP1 POP JUMP JUMPDEST PUSH1 0x0 PUSH3 0x165 DUP3 PUSH3 0x138 JUMP JUMPDEST SWAP1 POP SWAP2 SWAP1 POP JUMP JUMPDEST PUSH3 0x177 DUP2 PUSH3 0x158 JUMP JUMPDEST DUP2 EQ PUSH3 0x183 JUMPI PUSH1 0x0 DUP1 REVERT JUMPDEST POP JUMP JUMPDEST PUSH1 0x0 DUP2 MLOAD SWAP1 POP PUSH3 0x197 DUP2 PUSH3 0x16C JUMP JUMPDEST SWAP3 SWAP2 POP POP JUMP JUMPDEST PUSH1 0x0 DUP2 SWAP1 POP SWAP2 SWAP1 POP JUMP JUMPDEST PUSH3 0x1B2 DUP2 PUSH3 0x19D JUMP JUMPDEST DUP2 EQ PUSH3 0x1BE JUMPI PUSH1 0x0 DUP1 REVERT JUMPDEST POP JUMP JUMPDEST PUSH1 0x0 DUP2 MLOAD SWAP1 POP PUSH3 0x1D2 DUP2 PUSH3 0x1A7 JUMP JUMPDEST SWAP3 SWAP2 POP POP JUMP JUMPDEST PUSH1 0x0 DUP1 PUSH1 0x0 DUP1 PUSH1 0x80 DUP6 DUP8 SUB SLT ISZERO PUSH3 0x1F5 JUMPI PUSH3 0x1F4 PUSH3 0x133 JUMP JUMPDEST JUMPDEST PUSH1 0x0 PUSH3 0x205 DUP8 DUP3 DUP9 ADD PUSH3 0x186 JUMP JUMPDEST SWAP5 POP POP PUSH1 0x20 PUSH3 0x218 DUP8 DUP3 DUP9 ADD PUSH3 0x1C1 JUMP JUMPDEST SWAP4 POP POP PUSH1 0x40 PUSH3 0x22B DUP8 DUP3 DUP9 ADD PUSH3 0x1C1 JUMP JUMPDEST SWAP3 POP POP PUSH1 0x60 PUSH3 0x23E DUP8 DUP3 DUP9 ADD PUSH3 0x186 JUMP JUMPDEST SWAP2 POP POP SWAP3 SWAP6 SWAP2 SWAP5 POP SWAP3 POP JUMP JUMPDEST PUSH32 0x4E487B7100000000000000000000000000000000000000000000000000000000 PUSH1 0x0 MSTORE PUSH1 0x21 PUSH1 0x4 MSTORE PUSH1 0x24 PUSH1 0x0 REVERT JUMPDEST PUSH1 0x80 MLOAD PUSH1 0xA0 MLOAD PUSH2 0xE91 PUSH3 0x2A6 PUSH1 0x0 CODECOPY PUSH1 0x0 PUSH2 0x736 ADD MSTORE PUSH1 0x0 DUP2 DUP2 PUSH2 0x20F ADD MSTORE PUSH2 0x652 ADD MSTORE PUSH2 0xE91 PUSH1 0x0 RETURN INVALID PUSH1 0x80 PUSH1 0x40 MSTORE PUSH1 0x4 CALLDATASIZE LT PUSH2 0x91 JUMPI PUSH1 0x0 CALLDATALOAD PUSH1 0xE0 SHR DUP1 PUSH4 0x6B64C769 GT PUSH2 0x59 JUMPI DUP1 PUSH4 0x6B64C769 EQ PUSH2 0x138 JUMPI DUP1 PUSH4 0x91F90157 EQ PUSH2 0x14F JUMPI DUP1 PUSH4 0xB8DA82EA EQ PUSH2 0x17A JUMPI DUP1 PUSH4 0xD57BDE79 EQ PUSH2 0x1A5 JUMPI DUP1 PUSH4 0xDC689504 EQ PUSH2 0x1D0 JUMPI PUSH2 0x91 JUMP JUMPDEST DUP1 PUSH4 0x17D70F7C EQ PUSH2 0x96 JUMPI DUP1 PUSH4 0x1998AEEF EQ PUSH2 0xC1 JUMPI DUP1 PUSH4 0x1D0806AE EQ PUSH2 0xCB JUMPI DUP1 PUSH4 0x378252F2 EQ PUSH2 0xF6 JUMPI DUP1 PUSH4 0x55A373D6 EQ PUSH2 0x10D JUMPI JUMPDEST PUSH1 0x0 DUP1 REVERT JUMPDEST CALLVALUE DUP1 ISZERO PUSH2 0xA2 JUMPI PUSH1 0x0 DUP1 REVERT JUMPDEST POP PUSH2 0xAB PUSH2 0x20D JUMP JUMPDEST PUSH1 0x40 MLOAD PUSH2 0xB8 SWAP2 SWAP1 PUSH2 0x957 JUMP JUMPDEST PUSH1 0x40 MLOAD DUP1 SWAP2 SUB SWAP1 RETURN JUMPDEST PUSH2 0xC9 PUSH2 0x231 JUMP JUMPDEST STOP JUMPDEST CALLVALUE DUP1 ISZERO PUSH2 0xD7 JUMPI PUSH1 0x0 DUP1 REVERT JUMPDEST POP PUSH2 0xE0 PUSH2 0x346 JUMP JUMPDEST PUSH1 0x40 MLOAD PUSH2 0xED SWAP2 SWAP1 PUSH2 0x957 JUMP JUMPDEST PUSH1 0x40 MLOAD DUP1 SWAP2 SUB SWAP1 RETURN JUMPDEST CALLVALUE DUP1 ISZERO PUSH2 0x102 JUMPI PUSH1 0x0 DUP1 REVERT JUMPDEST POP PUSH2 0x10B PUSH2 0x34C JUMP JUMPDEST STOP JUMPDEST CALLVALUE DUP1 ISZERO PUSH2 0x119 JUMPI PUSH1 0x0 DUP1 REVERT JUMPDEST POP PUSH2 0x122 PUSH2 0x734 JUMP JUMPDEST PUSH1 0x40 MLOAD PUSH2 0x12F SWAP2 SWAP1 PUSH2 0x9B3 JUMP JUMPDEST PUSH1 0x40 MLOAD DUP1 SWAP2 SUB SWAP1 RETURN JUMPDEST CALLVALUE DUP1 ISZERO PUSH2 0x144 JUMPI PUSH1 0x0 DUP1 REVERT JUMPDEST POP PUSH2 0x14D PUSH2 0x758 JUMP JUMPDEST STOP JUMPDEST CALLVALUE DUP1 ISZERO PUSH2 0x15B JUMPI PUSH1 0x0 DUP1 REVERT JUMPDEST POP PUSH2 0x164 PUSH2 0x8D9 JUMP JUMPDEST PUSH1 0x40 MLOAD PUSH2 0x171 SWAP2 SWAP1 PUSH2 0x9B3 JUMP JUMPDEST PUSH1 0x40 MLOAD DUP1 SWAP2 SUB SWAP1 RETURN JUMPDEST CALLVALUE DUP1 ISZERO PUSH2 0x186 JUMPI PUSH1 0x0 DUP1 REVERT JUMPDEST POP PUSH2 0x18F PUSH2 0x8FF JUMP JUMPDEST PUSH1 0x40 MLOAD PUSH2 0x19C SWAP2 SWAP1 PUSH2 0x957 JUMP JUMPDEST PUSH1 0x40 MLOAD DUP1 SWAP2 SUB SWAP1 RETURN JUMPDEST CALLVALUE DUP1 ISZERO PUSH2 0x1B1 JUMPI PUSH1 0x0 DUP1 REVERT JUMPDEST POP PUSH2 0x1BA PUSH2 0x905 JUMP JUMPDEST PUSH1 0x40 MLOAD PUSH2 0x1C7 SWAP2 SWAP1 PUSH2 0x957 JUMP JUMPDEST PUSH1 0x40 MLOAD DUP1 SWAP2 SUB SWAP1 RETURN JUMPDEST CALLVALUE DUP1 ISZERO PUSH2 0x1DC JUMPI PUSH1 0x0 DUP1 REVERT JUMPDEST POP PUSH2 0x1F7 PUSH1 0x4 DUP1 CALLDATASIZE SUB DUP2 ADD SWAP1 PUSH2 0x1F2 SWAP2 SWAP1 PUSH2 0x9FF JUMP JUMPDEST PUSH2 0x90B JUMP JUMPDEST PUSH1 0x40 MLOAD PUSH2 0x204 SWAP2 SWAP1 PUSH2 0x9B3 JUMP JUMPDEST PUSH1 0x40 MLOAD DUP1 SWAP2 SUB SWAP1 RETURN JUMPDEST PUSH32 0x0 DUP2 JUMP JUMPDEST PUSH1 0x0 PUSH1 0x1 DUP2 GT ISZERO PUSH2 0x245 JUMPI PUSH2 0x244 PUSH2 0xA2C JUMP JUMPDEST JUMPDEST PUSH1 0x7 PUSH1 0x0 SWAP1 SLOAD SWAP1 PUSH2 0x100 EXP SWAP1 DIV PUSH1 0xFF AND PUSH1 0x1 DUP2 GT ISZERO PUSH2 0x267 JUMPI PUSH2 0x266 PUSH2 0xA2C JUMP JUMPDEST JUMPDEST EQ PUSH2 0x2A7 JUMPI PUSH1 0x40 MLOAD PUSH32 0x8C379A000000000000000000000000000000000000000000000000000000000 DUP2 MSTORE PUSH1 0x4 ADD PUSH2 0x29E SWAP1 PUSH2 0xAB8 JUMP JUMPDEST PUSH1 0x40 MLOAD DUP1 SWAP2 SUB SWAP1 REVERT JUMPDEST PUSH1 0x3 SLOAD CALLVALUE GT PUSH2 0x2EB JUMPI PUSH1 0x40 MLOAD PUSH32 0x8C379A000000000000000000000000000000000000000000000000000000000 DUP2 MSTORE PUSH1 0x4 ADD PUSH2 0x2E2 SWAP1 PUSH2 0xB24 JUMP JUMPDEST PUSH1 0x40 MLOAD DUP1 SWAP2 SUB SWAP1 REVERT JUMPDEST CALLER PUSH1 0x6 PUSH1 0x0 CALLVALUE DUP2 MSTORE PUSH1 0x20 ADD SWAP1 DUP2 MSTORE PUSH1 0x20 ADD PUSH1 0x0 KECCAK256 PUSH1 0x0 PUSH2 0x100 EXP DUP2 SLOAD DUP2 PUSH20 0xFFFFFFFFFFFFFFFFFFFFFFFFFFFFFFFFFFFFFFFF MUL NOT AND SWAP1 DUP4 PUSH20 0xFFFFFFFFFFFFFFFFFFFFFFFFFFFFFFFFFFFFFFFF AND MUL OR SWAP1 SSTORE POP CALLVALUE PUSH1 0x4 DUP2 SWAP1 SSTORE POP JUMP JUMPDEST PUSH1 0x2 SLOAD DUP2 JUMP JUMPDEST PUSH1 0x1 PUSH1 0x0 SWAP1 SLOAD SWAP1 PUSH2 0x100 EXP SWAP1 DIV PUSH20 0xFFFFFFFFFFFFFFFFFFFFFFFFFFFFFFFFFFFFFFFF AND PUSH20 0xFFFFFFFFFFFFFFFFFFFFFFFFFFFFFFFFFFFFFFFF AND CALLER PUSH20 0xFFFFFFFFFFFFFFFFFFFFFFFFFFFFFFFFFFFFFFFF AND EQ PUSH2 0x3DC JUMPI PUSH1 0x40 MLOAD PUSH32 0x8C379A000000000000000000000000000000000000000000000000000000000 DUP2 MSTORE PUSH1 0x4 ADD PUSH2 0x3D3 SWAP1 PUSH2 0xBB6 JUMP JUMPDEST PUSH1 0x40 MLOAD DUP1 SWAP2 SUB SWAP1 REVERT JUMPDEST PUSH1 0x0 DUP1 SLOAD SWAP1 PUSH2 0x100 EXP SWAP1 DIV PUSH20 0xFFFFFFFFFFFFFFFFFFFFFFFFFFFFFFFFFFFFFFFF AND PUSH20 0xFFFFFFFFFFFFFFFFFFFFFFFFFFFFFFFFFFFFFFFF AND PUSH4 0xE985E9C5 PUSH1 0x1 PUSH1 0x0 SWAP1 SLOAD SWAP1 PUSH2 0x100 EXP SWAP1 DIV PUSH20 0xFFFFFFFFFFFFFFFFFFFFFFFFFFFFFFFFFFFFFFFF AND ADDRESS PUSH1 0x40 MLOAD DUP4 PUSH4 0xFFFFFFFF AND PUSH1 0xE0 SHL DUP2 MSTORE PUSH1 0x4 ADD PUSH2 0x459 SWAP3 SWAP2 SWAP1 PUSH2 0xC35 JUMP JUMPDEST PUSH1 0x20 PUSH1 0x40 MLOAD DUP1 DUP4 SUB DUP2 DUP7 GAS STATICCALL ISZERO DUP1 ISZERO PUSH2 0x476 JUMPI RETURNDATASIZE PUSH1 0x0 DUP1 RETURNDATACOPY RETURNDATASIZE PUSH1 0x0 REVERT JUMPDEST POP POP POP POP PUSH1 0x40 MLOAD RETURNDATASIZE PUSH1 0x1F NOT PUSH1 0x1F DUP3 ADD AND DUP3 ADD DUP1 PUSH1 0x40 MSTORE POP DUP2 ADD SWAP1 PUSH2 0x49A SWAP2 SWAP1 PUSH2 0xC96 JUMP JUMPDEST PUSH2 0x4D9 JUMPI PUSH1 0x40 MLOAD PUSH32 0x8C379A000000000000000000000000000000000000000000000000000000000 DUP2 MSTORE PUSH1 0x4 ADD PUSH2 0x4D0 SWAP1 PUSH2 0xD35 JUMP JUMPDEST PUSH1 0x40 MLOAD DUP1 SWAP2 SUB SWAP1 REVERT JUMPDEST PUSH1 0x0 PUSH1 0x1 DUP2 GT ISZERO PUSH2 0x4ED JUMPI PUSH2 0x4EC PUSH2 0xA2C JUMP JUMPDEST JUMPDEST PUSH1 0x7 PUSH1 0x0 SWAP1 SLOAD SWAP1 PUSH2 0x100 EXP SWAP1 DIV PUSH1 0xFF AND PUSH1 0x1 DUP2 GT ISZERO PUSH2 0x50F JUMPI PUSH2 0x50E PUSH2 0xA2C JUMP JUMPDEST JUMPDEST EQ PUSH2 0x54F JUMPI PUSH1 0x40 MLOAD PUSH32 0x8C379A000000000000000000000000000000000000000000000000000000000 DUP2 MSTORE PUSH1 0x4 ADD PUSH2 0x546 SWAP1 PUSH2 0xAB8 JUMP JUMPDEST PUSH1 0x40 MLOAD DUP1 SWAP2 SUB SWAP1 REVERT JUMPDEST PUSH1 0x6 PUSH1 0x0 PUSH1 0x3 SLOAD DUP2 MSTORE PUSH1 0x20 ADD SWAP1 DUP2 MSTORE PUSH1 0x20 ADD PUSH1 0x0 KECCAK256 PUSH1 0x0 SWAP1 SLOAD SWAP1 PUSH2 0x100 EXP SWAP1 DIV PUSH20 0xFFFFFFFFFFFFFFFFFFFFFFFFFFFFFFFFFFFFFFFF AND PUSH1 0x5 PUSH1 0x0 PUSH2 0x100 EXP DUP2 SLOAD DUP2 PUSH20 0xFFFFFFFFFFFFFFFFFFFFFFFFFFFFFFFFFFFFFFFF MUL NOT AND SWAP1 DUP4 PUSH20 0xFFFFFFFFFFFFFFFFFFFFFFFFFFFFFFFFFFFFFFFF AND MUL OR SWAP1 SSTORE POP PUSH1 0x4 SLOAD PUSH1 0x3 DUP2 SWAP1 SSTORE POP PUSH1 0x0 DUP1 SLOAD SWAP1 PUSH2 0x100 EXP SWAP1 DIV PUSH20 0xFFFFFFFFFFFFFFFFFFFFFFFFFFFFFFFFFFFFFFFF AND PUSH20 0xFFFFFFFFFFFFFFFFFFFFFFFFFFFFFFFFFFFFFFFF AND PUSH4 0x23B872DD PUSH1 0x1 PUSH1 0x0 SWAP1 SLOAD SWAP1 PUSH2 0x100 EXP SWAP1 DIV PUSH20 0xFFFFFFFFFFFFFFFFFFFFFFFFFFFFFFFFFFFFFFFF AND PUSH1 0x5 PUSH1 0x0 SWAP1 SLOAD SWAP1 PUSH2 0x100 EXP SWAP1 DIV PUSH20 0xFFFFFFFFFFFFFFFFFFFFFFFFFFFFFFFFFFFFFFFF AND PUSH32 0x0 PUSH1 0x40 MLOAD DUP5 PUSH4 0xFFFFFFFF AND PUSH1 0xE0 SHL DUP2 MSTORE PUSH1 0x4 ADD PUSH2 0x68F SWAP4 SWAP3 SWAP2 SWAP1 PUSH2 0xD55 JUMP JUMPDEST PUSH1 0x0 PUSH1 0x40 MLOAD DUP1 DUP4 SUB DUP2 PUSH1 0x0 DUP8 DUP1 EXTCODESIZE ISZERO DUP1 ISZERO PUSH2 0x6A9 JUMPI PUSH1 0x0 DUP1 REVERT JUMPDEST POP GAS CALL ISZERO DUP1 ISZERO PUSH2 0x6BD JUMPI RETURNDATASIZE PUSH1 0x0 DUP1 RETURNDATACOPY RETURNDATASIZE PUSH1 0x0 REVERT JUMPDEST POP POP POP POP PUSH1 0x1 PUSH1 0x7 PUSH1 0x0 PUSH2 0x100 EXP DUP2 SLOAD DUP2 PUSH1 0xFF MUL NOT AND SWAP1 DUP4 PUSH1 0x1 DUP2 GT ISZERO PUSH2 0x6E7 JUMPI PUSH2 0x6E6 PUSH2 0xA2C JUMP JUMPDEST JUMPDEST MUL OR SWAP1 SSTORE POP PUSH32 0x8CAED3B4BF01375B22DC7F84AFE719CE12AB14864751A7D5E4142FE4E4A50A51 PUSH1 0x7 PUSH1 0x0 SWAP1 SLOAD SWAP1 PUSH2 0x100 EXP SWAP1 DIV PUSH1 0xFF AND PUSH1 0x40 MLOAD PUSH2 0x72A SWAP2 SWAP1 PUSH2 0xDD4 JUMP JUMPDEST PUSH1 0x40 MLOAD DUP1 SWAP2 SUB SWAP1 LOG1 JUMP JUMPDEST PUSH32 0x0 DUP2 JUMP JUMPDEST PUSH1 0x1 PUSH1 0x0 SWAP1 SLOAD SWAP1 PUSH2 0x100 EXP SWAP1 DIV PUSH20 0xFFFFFFFFFFFFFFFFFFFFFFFFFFFFFFFFFFFFFFFF AND PUSH20 0xFFFFFFFFFFFFFFFFFFFFFFFFFFFFFFFFFFFFFFFF AND CALLER PUSH20 0xFFFFFFFFFFFFFFFFFFFFFFFFFFFFFFFFFFFFFFFF AND EQ PUSH2 0x7E8 JUMPI PUSH1 0x40 MLOAD PUSH32 0x8C379A000000000000000000000000000000000000000000000000000000000 DUP2 MSTORE PUSH1 0x4 ADD PUSH2 0x7DF SWAP1 PUSH2 0xBB6 JUMP JUMPDEST PUSH1 0x40 MLOAD DUP1 SWAP2 SUB SWAP1 REVERT JUMPDEST PUSH1 0x1 DUP1 DUP2 GT ISZERO PUSH2 0x7FB JUMPI PUSH2 0x7FA PUSH2 0xA2C JUMP JUMPDEST JUMPDEST PUSH1 0x7 PUSH1 0x0 SWAP1 SLOAD SWAP1 PUSH2 0x100 EXP SWAP1 DIV PUSH1 0xFF AND PUSH1 0x1 DUP2 GT ISZERO PUSH2 0x81D JUMPI PUSH2 0x81C PUSH2 0xA2C JUMP JUMPDEST JUMPDEST EQ PUSH2 0x85D JUMPI PUSH1 0x40 MLOAD PUSH32 0x8C379A000000000000000000000000000000000000000000000000000000000 DUP2 MSTORE PUSH1 0x4 ADD PUSH2 0x854 SWAP1 PUSH2 0xE3B JUMP JUMPDEST PUSH1 0x40 MLOAD DUP1 SWAP2 SUB SWAP1 REVERT JUMPDEST PUSH1 0x0 PUSH1 0x7 PUSH1 0x0 PUSH2 0x100 EXP DUP2 SLOAD DUP2 PUSH1 0xFF MUL NOT AND SWAP1 DUP4 PUSH1 0x1 DUP2 GT ISZERO PUSH2 0x883 JUMPI PUSH2 0x882 PUSH2 0xA2C JUMP JUMPDEST JUMPDEST MUL OR SWAP1 SSTORE POP PUSH1 0x2 SLOAD PUSH1 0x3 DUP2 SWAP1 SSTORE POP PUSH32 0x8CAED3B4BF01375B22DC7F84AFE719CE12AB14864751A7D5E4142FE4E4A50A51 PUSH1 0x7 PUSH1 0x0 SWAP1 SLOAD SWAP1 PUSH2 0x100 EXP SWAP1 DIV PUSH1 0xFF AND PUSH1 0x40 MLOAD PUSH2 0x8CF SWAP2 SWAP1 PUSH2 0xDD4 JUMP JUMPDEST PUSH1 0x40 MLOAD DUP1 SWAP2 SUB SWAP1 LOG1 JUMP JUMPDEST PUSH1 0x5 PUSH1 0x0 SWAP1 SLOAD SWAP1 PUSH2 0x100 EXP SWAP1 DIV PUSH20 0xFFFFFFFFFFFFFFFFFFFFFFFFFFFFFFFFFFFFFFFF AND DUP2 JUMP JUMPDEST PUSH1 0x4 SLOAD DUP2 JUMP JUMPDEST PUSH1 0x3 SLOAD DUP2 JUMP JUMPDEST PUSH1 0x6 PUSH1 0x20 MSTORE DUP1 PUSH1 0x0 MSTORE PUSH1 0x40 PUSH1 0x0 KECCAK256 PUSH1 0x0 SWAP2 POP SLOAD SWAP1 PUSH2 0x100 EXP SWAP1 DIV PUSH20 0xFFFFFFFFFFFFFFFFFFFFFFFFFFFFFFFFFFFFFFFF AND DUP2 JUMP JUMPDEST PUSH1 0x0 DUP2 SWAP1 POP SWAP2 SWAP1 POP JUMP JUMPDEST PUSH2 0x951 DUP2 PUSH2 0x93E JUMP JUMPDEST DUP3 MSTORE POP POP JUMP JUMPDEST PUSH1 0x0 PUSH1 0x20 DUP3 ADD SWAP1 POP PUSH2 0x96C PUSH1 0x0 DUP4 ADD DUP5 PUSH2 0x948 JUMP JUMPDEST SWAP3 SWAP2 POP POP JUMP JUMPDEST PUSH1 0x0 PUSH20 0xFFFFFFFFFFFFFFFFFFFFFFFFFFFFFFFFFFFFFFFF DUP3 AND SWAP1 POP SWAP2 SWAP1 POP JUMP JUMPDEST PUSH1 0x0 PUSH2 0x99D DUP3 PUSH2 0x972 JUMP JUMPDEST SWAP1 POP SWAP2 SWAP1 POP JUMP JUMPDEST PUSH2 0x9AD DUP2 PUSH2 0x992 JUMP JUMPDEST DUP3 MSTORE POP POP JUMP JUMPDEST PUSH1 0x0 PUSH1 0x20 DUP3 ADD SWAP1 POP PUSH2 0x9C8 PUSH1 0x0 DUP4 ADD DUP5 PUSH2 0x9A4 JUMP JUMPDEST SWAP3 SWAP2 POP POP JUMP JUMPDEST PUSH1 0x0 DUP1 REVERT JUMPDEST PUSH2 0x9DC DUP2 PUSH2 0x93E JUMP JUMPDEST DUP2 EQ PUSH2 0x9E7 JUMPI PUSH1 0x0 DUP1 REVERT JUMPDEST POP JUMP JUMPDEST PUSH1 0x0 DUP2 CALLDATALOAD SWAP1 POP PUSH2 0x9F9 DUP2 PUSH2 0x9D3 JUMP JUMPDEST SWAP3 SWAP2 POP POP JUMP JUMPDEST PUSH1 0x0 PUSH1 0x20 DUP3 DUP5 SUB SLT ISZERO PUSH2 0xA15 JUMPI PUSH2 0xA14 PUSH2 0x9CE JUMP JUMPDEST JUMPDEST PUSH1 0x0 PUSH2 0xA23 DUP5 DUP3 DUP6 ADD PUSH2 0x9EA JUMP JUMPDEST SWAP2 POP POP SWAP3 SWAP2 POP POP JUMP JUMPDEST PUSH32 0x4E487B7100000000000000000000000000000000000000000000000000000000 PUSH1 0x0 MSTORE PUSH1 0x21 PUSH1 0x4 MSTORE PUSH1 0x24 PUSH1 0x0 REVERT JUMPDEST PUSH1 0x0 DUP3 DUP3 MSTORE PUSH1 0x20 DUP3 ADD SWAP1 POP SWAP3 SWAP2 POP POP JUMP JUMPDEST PUSH32 0x5468652041756374696F6E20697320616C726561647920636C6F736564000000 PUSH1 0x0 DUP3 ADD MSTORE POP JUMP JUMPDEST PUSH1 0x0 PUSH2 0xAA2 PUSH1 0x1D DUP4 PUSH2 0xA5B JUMP JUMPDEST SWAP2 POP PUSH2 0xAAD DUP3 PUSH2 0xA6C JUMP JUMPDEST PUSH1 0x20 DUP3 ADD SWAP1 POP SWAP2 SWAP1 POP JUMP JUMPDEST PUSH1 0x0 PUSH1 0x20 DUP3 ADD SWAP1 POP DUP2 DUP2 SUB PUSH1 0x0 DUP4 ADD MSTORE PUSH2 0xAD1 DUP2 PUSH2 0xA95 JUMP JUMPDEST SWAP1 POP SWAP2 SWAP1 POP JUMP JUMPDEST PUSH32 0x596F752063616E277420626964206C6F77657200000000000000000000000000 PUSH1 0x0 DUP3 ADD MSTORE POP JUMP JUMPDEST PUSH1 0x0 PUSH2 0xB0E PUSH1 0x13 DUP4 PUSH2 0xA5B JUMP JUMPDEST SWAP2 POP PUSH2 0xB19 DUP3 PUSH2 0xAD8 JUMP JUMPDEST PUSH1 0x20 DUP3 ADD SWAP1 POP SWAP2 SWAP1 POP JUMP JUMPDEST PUSH1 0x0 PUSH1 0x20 DUP3 ADD SWAP1 POP DUP2 DUP2 SUB PUSH1 0x0 DUP4 ADD MSTORE PUSH2 0xB3D DUP2 PUSH2 0xB01 JUMP JUMPDEST SWAP1 POP SWAP2 SWAP1 POP JUMP JUMPDEST PUSH32 0x4F6E6C792074686520636F6E7472616374206F776E65722063616E2063616C6C PUSH1 0x0 DUP3 ADD MSTORE PUSH32 0x20746869732066756E6374696F6E000000000000000000000000000000000000 PUSH1 0x20 DUP3 ADD MSTORE POP JUMP JUMPDEST PUSH1 0x0 PUSH2 0xBA0 PUSH1 0x2E DUP4 PUSH2 0xA5B JUMP JUMPDEST SWAP2 POP PUSH2 0xBAB DUP3 PUSH2 0xB44 JUMP JUMPDEST PUSH1 0x40 DUP3 ADD SWAP1 POP SWAP2 SWAP1 POP JUMP JUMPDEST PUSH1 0x0 PUSH1 0x20 DUP3 ADD SWAP1 POP DUP2 DUP2 SUB PUSH1 0x0 DUP4 ADD MSTORE PUSH2 0xBCF DUP2 PUSH2 0xB93 JUMP JUMPDEST SWAP1 POP SWAP2 SWAP1 POP JUMP JUMPDEST PUSH1 0x0 DUP2 SWAP1 POP SWAP2 SWAP1 POP JUMP JUMPDEST PUSH1 0x0 PUSH2 0xBFB PUSH2 0xBF6 PUSH2 0xBF1 DUP5 PUSH2 0x972 JUMP JUMPDEST PUSH2 0xBD6 JUMP JUMPDEST PUSH2 0x972 JUMP JUMPDEST SWAP1 POP SWAP2 SWAP1 POP JUMP JUMPDEST PUSH1 0x0 PUSH2 0xC0D DUP3 PUSH2 0xBE0 JUMP JUMPDEST SWAP1 POP SWAP2 SWAP1 POP JUMP JUMPDEST PUSH1 0x0 PUSH2 0xC1F DUP3 PUSH2 0xC02 JUMP JUMPDEST SWAP1 POP SWAP2 SWAP1 POP JUMP JUMPDEST PUSH2 0xC2F DUP2 PUSH2 0xC14 JUMP JUMPDEST DUP3 MSTORE POP POP JUMP JUMPDEST PUSH1 0x0 PUSH1 0x40 DUP3 ADD SWAP1 POP PUSH2 0xC4A PUSH1 0x0 DUP4 ADD DUP6 PUSH2 0xC26 JUMP JUMPDEST PUSH2 0xC57 PUSH1 0x20 DUP4 ADD DUP5 PUSH2 0x9A4 JUMP JUMPDEST SWAP4 SWAP3 POP POP POP JUMP JUMPDEST PUSH1 0x0 DUP2 ISZERO ISZERO SWAP1 POP SWAP2 SWAP1 POP JUMP JUMPDEST PUSH2 0xC73 DUP2 PUSH2 0xC5E JUMP JUMPDEST DUP2 EQ PUSH2 0xC7E JUMPI PUSH1 0x0 DUP1 REVERT JUMPDEST POP JUMP JUMPDEST PUSH1 0x0 DUP2 MLOAD SWAP1 POP PUSH2 0xC90 DUP2 PUSH2 0xC6A JUMP JUMPDEST SWAP3 SWAP2 POP POP JUMP JUMPDEST PUSH1 0x0 PUSH1 0x20 DUP3 DUP5 SUB SLT ISZERO PUSH2 0xCAC JUMPI PUSH2 0xCAB PUSH2 0x9CE JUMP JUMPDEST JUMPDEST PUSH1 0x0 PUSH2 0xCBA DUP5 DUP3 DUP6 ADD PUSH2 0xC81 JUMP JUMPDEST SWAP2 POP POP SWAP3 SWAP2 POP POP JUMP JUMPDEST PUSH32 0x436F6E7472616374206973206E6F7420617070726F76656420746F207472616E PUSH1 0x0 DUP3 ADD MSTORE PUSH32 0x73666572204E4654000000000000000000000000000000000000000000000000 PUSH1 0x20 DUP3 ADD MSTORE POP JUMP JUMPDEST PUSH1 0x0 PUSH2 0xD1F PUSH1 0x28 DUP4 PUSH2 0xA5B JUMP JUMPDEST SWAP2 POP PUSH2 0xD2A DUP3 PUSH2 0xCC3 JUMP JUMPDEST PUSH1 0x40 DUP3 ADD SWAP1 POP SWAP2 SWAP1 POP JUMP JUMPDEST PUSH1 0x0 PUSH1 0x20 DUP3 ADD SWAP1 POP DUP2 DUP2 SUB PUSH1 0x0 DUP4 ADD MSTORE PUSH2 0xD4E DUP2 PUSH2 0xD12 JUMP JUMPDEST SWAP1 POP SWAP2 SWAP1 POP JUMP JUMPDEST PUSH1 0x0 PUSH1 0x60 DUP3 ADD SWAP1 POP PUSH2 0xD6A PUSH1 0x0 DUP4 ADD DUP7 PUSH2 0xC26 JUMP JUMPDEST PUSH2 0xD77 PUSH1 0x20 DUP4 ADD DUP6 PUSH2 0x9A4 JUMP JUMPDEST PUSH2 0xD84 PUSH1 0x40 DUP4 ADD DUP5 PUSH2 0x948 JUMP JUMPDEST SWAP5 SWAP4 POP POP POP POP JUMP JUMPDEST PUSH1 0x2 DUP2 LT PUSH2 0xD9D JUMPI PUSH2 0xD9C PUSH2 0xA2C JUMP JUMPDEST JUMPDEST POP JUMP JUMPDEST PUSH1 0x0 DUP2 SWAP1 POP PUSH2 0xDAE DUP3 PUSH2 0xD8C JUMP JUMPDEST SWAP2 SWAP1 POP JUMP JUMPDEST PUSH1 0x0 PUSH2 0xDBE DUP3 PUSH2 0xDA0 JUMP JUMPDEST SWAP1 POP SWAP2 SWAP1 POP JUMP JUMPDEST PUSH2 0xDCE DUP2 PUSH2 0xDB3 JUMP JUMPDEST DUP3 MSTORE POP POP JUMP JUMPDEST PUSH1 0x0 PUSH1 0x20 DUP3 ADD SWAP1 POP PUSH2 0xDE9 PUSH1 0x0 DUP4 ADD DUP5 PUSH2 0xDC5 JUMP JUMPDEST SWAP3 SWAP2 POP POP JUMP JUMPDEST PUSH32 0x5468652041756374696F6E20697320616C7265616479206F70656E0000000000 PUSH1 0x0 DUP3 ADD MSTORE POP JUMP JUMPDEST PUSH1 0x0 PUSH2 0xE25 PUSH1 0x1B DUP4 PUSH2 0xA5B JUMP JUMPDEST SWAP2 POP PUSH2 0xE30 DUP3 PUSH2 0xDEF JUMP JUMPDEST PUSH1 0x20 DUP3 ADD SWAP1 POP SWAP2 SWAP1 POP JUMP JUMPDEST PUSH1 0x0 PUSH1 0x20 DUP3 ADD SWAP1 POP DUP2 DUP2 SUB PUSH1 0x0 DUP4 ADD MSTORE PUSH2 0xE54 DUP2 PUSH2 0xE18 JUMP JUMPDEST SWAP1 POP SWAP2 SWAP1 POP JUMP INVALID LOG2 PUSH5 0x6970667358 0x22 SLT KECCAK256 AND DUP12 DUP1 PUSH20 0xF9A401EBE70F70D56A739551BDA5E521EBF5F789 DELEGATECALL 0xCA MULMOD KECCAK256 PUSH28 0xE20DE364736F6C634300081100330000000000000000000000000000 "
				},
				"gasEstimates": {
					"creation": {
						"codeDepositCost": "745800",
						"executionCost": "infinite",
						"totalCost": "infinite"
					},
					"external": {
						"bid()": "50932",
						"bidsRegister(uint256)": "2927",
						"closeAuction()": "infinite",
						"currentBidPrice()": "2473",
						"highestBid()": "2495",
						"highestBidder()": "2536",
						"initialPrice()": "2474",
						"startAuction()": "56448",
						"tokenContract()": "infinite",
						"tokenId()": "infinite"
					}
				},
				"methodIdentifiers": {
					"bid()": "1998aeef",
					"bidsRegister(uint256)": "dc689504",
					"closeAuction()": "378252f2",
					"currentBidPrice()": "b8da82ea",
					"highestBid()": "d57bde79",
					"highestBidder()": "91f90157",
					"initialPrice()": "1d0806ae",
					"startAuction()": "6b64c769",
					"tokenContract()": "55a373d6",
					"tokenId()": "17d70f7c"
				}
			},
			"storageLayout": {
				"storage": [
					{
						"astId": 133,
						"contract": "contracts/Auction_1.sol:NFTAuction",
						"label": "NFTContract",
						"offset": 0,
						"slot": "0",
						"type": "t_contract(IERC721)115"
					},
					{
						"astId": 135,
						"contract": "contracts/Auction_1.sol:NFTAuction",
						"label": "auctioneer",
						"offset": 0,
						"slot": "1",
						"type": "t_address_payable"
					},
					{
						"astId": 137,
						"contract": "contracts/Auction_1.sol:NFTAuction",
						"label": "initialPrice",
						"offset": 0,
						"slot": "2",
						"type": "t_uint256"
					},
					{
						"astId": 139,
						"contract": "contracts/Auction_1.sol:NFTAuction",
						"label": "highestBid",
						"offset": 0,
						"slot": "3",
						"type": "t_uint256"
					},
					{
						"astId": 141,
						"contract": "contracts/Auction_1.sol:NFTAuction",
						"label": "currentBidPrice",
						"offset": 0,
						"slot": "4",
						"type": "t_uint256"
					},
					{
						"astId": 143,
						"contract": "contracts/Auction_1.sol:NFTAuction",
						"label": "highestBidder",
						"offset": 0,
						"slot": "5",
						"type": "t_address"
					},
					{
						"astId": 151,
						"contract": "contracts/Auction_1.sol:NFTAuction",
						"label": "bidsRegister",
						"offset": 0,
						"slot": "6",
						"type": "t_mapping(t_uint256,t_address)"
					},
					{
						"astId": 157,
						"contract": "contracts/Auction_1.sol:NFTAuction",
						"label": "status",
						"offset": 0,
						"slot": "7",
						"type": "t_enum(AuctionStatus)154"
					}
				],
				"types": {
					"t_address": {
						"encoding": "inplace",
						"label": "address",
						"numberOfBytes": "20"
					},
					"t_address_payable": {
						"encoding": "inplace",
						"label": "address payable",
						"numberOfBytes": "20"
					},
					"t_contract(IERC721)115": {
						"encoding": "inplace",
						"label": "contract IERC721",
						"numberOfBytes": "20"
					},
					"t_enum(AuctionStatus)154": {
						"encoding": "inplace",
						"label": "enum NFTAuction.AuctionStatus",
						"numberOfBytes": "1"
					},
					"t_mapping(t_uint256,t_address)": {
						"encoding": "mapping",
						"key": "t_uint256",
						"label": "mapping(uint256 => address)",
						"numberOfBytes": "32",
						"value": "t_address"
					},
					"t_uint256": {
						"encoding": "inplace",
						"label": "uint256",
						"numberOfBytes": "32"
					}
				}
			},
			"userdoc": {
				"kind": "user",
				"methods": {},
				"version": 1
			}
		}
	}
}