{
	"contracts/Auction_1.sol": {
		"NFTAuction": {
			"abi": [
				{
					"inputs": [
						{
							"internalType": "address",
							"name": "_auctioneer",
							"type": "address"
						},
						{
							"internalType": "uint256",
							"name": "_startPrice",
							"type": "uint256"
						},
						{
							"internalType": "uint256",
							"name": "_tokenId",
							"type": "uint256"
						},
						{
							"internalType": "address",
							"name": "_tokenContract",
							"type": "address"
						}
					],
					"stateMutability": "nonpayable",
					"type": "constructor"
				},
				{
					"anonymous": false,
					"inputs": [
						{
							"indexed": false,
							"internalType": "enum NFTAuction.AuctionStatus",
							"name": "_status",
							"type": "uint8"
						}
					],
					"name": "AuctionState",
					"type": "event"
				},
				{
					"inputs": [],
					"name": "bid",
					"outputs": [],
					"stateMutability": "payable",
					"type": "function"
				},
				{
					"inputs": [
						{
							"internalType": "uint256",
							"name": "",
							"type": "uint256"
						}
					],
					"name": "bidsRegister",
					"outputs": [
						{
							"internalType": "address",
							"name": "",
							"type": "address"
						}
					],
					"stateMutability": "view",
					"type": "function"
				},
				{
					"inputs": [],
					"name": "closeAuction",
					"outputs": [],
					"stateMutability": "nonpayable",
					"type": "function"
				},
				{
					"inputs": [],
					"name": "highestBid",
					"outputs": [
						{
							"internalType": "uint256",
							"name": "",
							"type": "uint256"
						}
					],
					"stateMutability": "view",
					"type": "function"
				},
				{
					"inputs": [],
					"name": "highestBidder",
					"outputs": [
						{
							"internalType": "address",
							"name": "",
							"type": "address"
						}
					],
					"stateMutability": "view",
					"type": "function"
				},
				{
					"inputs": [],
					"name": "initialPrice",
					"outputs": [
						{
							"internalType": "uint256",
							"name": "",
							"type": "uint256"
						}
					],
					"stateMutability": "view",
					"type": "function"
				},
				{
					"inputs": [],
					"name": "startAuction",
					"outputs": [],
					"stateMutability": "nonpayable",
					"type": "function"
				},
				{
					"inputs": [],
					"name": "tokenContract",
					"outputs": [
						{
							"internalType": "address",
							"name": "",
							"type": "address"
						}
					],
					"stateMutability": "view",
					"type": "function"
				},
				{
					"inputs": [],
					"name": "tokenId",
					"outputs": [
						{
							"internalType": "uint256",
							"name": "",
							"type": "uint256"
						}
					],
					"stateMutability": "view",
					"type": "function"
				}
			],
			"devdoc": {
				"kind": "dev",
				"methods": {},
				"version": 1
			},
			"evm": {
				"assembly": "    /* \"contracts/Auction_1.sol\":124:2126  contract NFTAuction{... */\n  mstore(0x40, 0xc0)\n    /* \"contracts/Auction_1.sol\":534:877  constructor(address _auctioneer, uint256 _startPrice, uint256 _tokenId, address _tokenContract) {... */\n  callvalue\n  dup1\n  iszero\n  tag_1\n  jumpi\n  0x00\n  dup1\n  revert\ntag_1:\n  pop\n  mload(0x40)\n  sub(codesize, bytecodeSize)\n  dup1\n  bytecodeSize\n  dup4\n  codecopy\n  dup2\n  dup2\n  add\n  0x40\n  mstore\n  dup2\n  add\n  swap1\n  tag_2\n  swap2\n  swap1\n  tag_3\n  jump\t// in\ntag_2:\n    /* \"contracts/Auction_1.sol\":662:673  _auctioneer */\n  dup4\n    /* \"contracts/Auction_1.sol\":641:651  auctioneer */\n  0x01\n  0x00\n    /* \"contracts/Auction_1.sol\":641:674  auctioneer = payable(_auctioneer) */\n  0x0100\n  exp\n  dup2\n  sload\n  dup2\n  0xffffffffffffffffffffffffffffffffffffffff\n  mul\n  not\n  and\n  swap1\n  dup4\n  0xffffffffffffffffffffffffffffffffffffffff\n  and\n  mul\n  or\n  swap1\n  sstore\n  pop\n    /* \"contracts/Auction_1.sol\":700:711  _startPrice */\n  dup3\n    /* \"contracts/Auction_1.sol\":685:697  initialPrice */\n  0x02\n    /* \"contracts/Auction_1.sol\":685:711  initialPrice = _startPrice */\n  dup2\n  swap1\n  sstore\n  pop\n    /* \"contracts/Auction_1.sol\":732:740  _tokenId */\n  dup2\n    /* \"contracts/Auction_1.sol\":722:740  tokenId = _tokenId */\n  0x80\n  dup2\n  dup2\n  mstore\n  pop\n  pop\n    /* \"contracts/Auction_1.sol\":767:781  _tokenContract */\n  dup1\n    /* \"contracts/Auction_1.sol\":751:781  tokenContract = _tokenContract */\n  0xffffffffffffffffffffffffffffffffffffffff\n  and\n  0xa0\n  dup2\n  0xffffffffffffffffffffffffffffffffffffffff\n  and\n  dup2\n  mstore\n  pop\n  pop\n    /* \"contracts/Auction_1.sol\":801:821  AuctionStatus.CLOSED */\n  0x01\n    /* \"contracts/Auction_1.sol\":792:798  status */\n  0x06\n  0x00\n    /* \"contracts/Auction_1.sol\":792:821  status = AuctionStatus.CLOSED */\n  0x0100\n  exp\n  dup2\n  sload\n  dup2\n  0xff\n  mul\n  not\n  and\n  swap1\n  dup4\n  0x01\n  dup2\n  gt\n  iszero\n  tag_6\n  jumpi\n  tag_7\n  tag_8\n  jump\t// in\ntag_7:\ntag_6:\n  mul\n  or\n  swap1\n  sstore\n  pop\n    /* \"contracts/Auction_1.sol\":854:868  _tokenContract */\n  dup1\n    /* \"contracts/Auction_1.sol\":832:843  NFTContract */\n  0x00\n  dup1\n    /* \"contracts/Auction_1.sol\":832:869  NFTContract = IERC721(_tokenContract) */\n  0x0100\n  exp\n  dup2\n  sload\n  dup2\n  0xffffffffffffffffffffffffffffffffffffffff\n  mul\n  not\n  and\n  swap1\n  dup4\n  0xffffffffffffffffffffffffffffffffffffffff\n  and\n  mul\n  or\n  swap1\n  sstore\n  pop\n    /* \"contracts/Auction_1.sol\":534:877  constructor(address _auctioneer, uint256 _startPrice, uint256 _tokenId, address _tokenContract) {... */\n  pop\n  pop\n  pop\n  pop\n    /* \"contracts/Auction_1.sol\":124:2126  contract NFTAuction{... */\n  jump(tag_9)\n    /* \"#utility.yul\":88:205   */\ntag_11:\n    /* \"#utility.yul\":197:198   */\n  0x00\n    /* \"#utility.yul\":194:195   */\n  dup1\n    /* \"#utility.yul\":187:199   */\n  revert\n    /* \"#utility.yul\":334:460   */\ntag_13:\n    /* \"#utility.yul\":371:378   */\n  0x00\n    /* \"#utility.yul\":411:453   */\n  0xffffffffffffffffffffffffffffffffffffffff\n    /* \"#utility.yul\":404:409   */\n  dup3\n    /* \"#utility.yul\":400:454   */\n  and\n    /* \"#utility.yul\":389:454   */\n  swap1\n  pop\n    /* \"#utility.yul\":334:460   */\n  swap2\n  swap1\n  pop\n  jump\t// out\n    /* \"#utility.yul\":466:562   */\ntag_14:\n    /* \"#utility.yul\":503:510   */\n  0x00\n    /* \"#utility.yul\":532:556   */\n  tag_26\n    /* \"#utility.yul\":550:555   */\n  dup3\n    /* \"#utility.yul\":532:556   */\n  tag_13\n  jump\t// in\ntag_26:\n    /* \"#utility.yul\":521:556   */\n  swap1\n  pop\n    /* \"#utility.yul\":466:562   */\n  swap2\n  swap1\n  pop\n  jump\t// out\n    /* \"#utility.yul\":568:690   */\ntag_15:\n    /* \"#utility.yul\":641:665   */\n  tag_28\n    /* \"#utility.yul\":659:664   */\n  dup2\n    /* \"#utility.yul\":641:665   */\n  tag_14\n  jump\t// in\ntag_28:\n    /* \"#utility.yul\":634:639   */\n  dup2\n    /* \"#utility.yul\":631:666   */\n  eq\n    /* \"#utility.yul\":621:684   */\n  tag_29\n  jumpi\n    /* \"#utility.yul\":680:681   */\n  0x00\n    /* \"#utility.yul\":677:678   */\n  dup1\n    /* \"#utility.yul\":670:682   */\n  revert\n    /* \"#utility.yul\":621:684   */\ntag_29:\n    /* \"#utility.yul\":568:690   */\n  pop\n  jump\t// out\n    /* \"#utility.yul\":696:839   */\ntag_16:\n    /* \"#utility.yul\":753:758   */\n  0x00\n    /* \"#utility.yul\":784:790   */\n  dup2\n    /* \"#utility.yul\":778:791   */\n  mload\n    /* \"#utility.yul\":769:791   */\n  swap1\n  pop\n    /* \"#utility.yul\":800:833   */\n  tag_31\n    /* \"#utility.yul\":827:832   */\n  dup2\n    /* \"#utility.yul\":800:833   */\n  tag_15\n  jump\t// in\ntag_31:\n    /* \"#utility.yul\":696:839   */\n  swap3\n  swap2\n  pop\n  pop\n  jump\t// out\n    /* \"#utility.yul\":845:922   */\ntag_17:\n    /* \"#utility.yul\":882:889   */\n  0x00\n    /* \"#utility.yul\":911:916   */\n  dup2\n    /* \"#utility.yul\":900:916   */\n  swap1\n  pop\n    /* \"#utility.yul\":845:922   */\n  swap2\n  swap1\n  pop\n  jump\t// out\n    /* \"#utility.yul\":928:1050   */\ntag_18:\n    /* \"#utility.yul\":1001:1025   */\n  tag_34\n    /* \"#utility.yul\":1019:1024   */\n  dup2\n    /* \"#utility.yul\":1001:1025   */\n  tag_17\n  jump\t// in\ntag_34:\n    /* \"#utility.yul\":994:999   */\n  dup2\n    /* \"#utility.yul\":991:1026   */\n  eq\n    /* \"#utility.yul\":981:1044   */\n  tag_35\n  jumpi\n    /* \"#utility.yul\":1040:1041   */\n  0x00\n    /* \"#utility.yul\":1037:1038   */\n  dup1\n    /* \"#utility.yul\":1030:1042   */\n  revert\n    /* \"#utility.yul\":981:1044   */\ntag_35:\n    /* \"#utility.yul\":928:1050   */\n  pop\n  jump\t// out\n    /* \"#utility.yul\":1056:1199   */\ntag_19:\n    /* \"#utility.yul\":1113:1118   */\n  0x00\n    /* \"#utility.yul\":1144:1150   */\n  dup2\n    /* \"#utility.yul\":1138:1151   */\n  mload\n    /* \"#utility.yul\":1129:1151   */\n  swap1\n  pop\n    /* \"#utility.yul\":1160:1193   */\n  tag_37\n    /* \"#utility.yul\":1187:1192   */\n  dup2\n    /* \"#utility.yul\":1160:1193   */\n  tag_18\n  jump\t// in\ntag_37:\n    /* \"#utility.yul\":1056:1199   */\n  swap3\n  swap2\n  pop\n  pop\n  jump\t// out\n    /* \"#utility.yul\":1205:2025   */\ntag_3:\n    /* \"#utility.yul\":1302:1308   */\n  0x00\n    /* \"#utility.yul\":1310:1316   */\n  dup1\n    /* \"#utility.yul\":1318:1324   */\n  0x00\n    /* \"#utility.yul\":1326:1332   */\n  dup1\n    /* \"#utility.yul\":1375:1378   */\n  0x80\n    /* \"#utility.yul\":1363:1372   */\n  dup6\n    /* \"#utility.yul\":1354:1361   */\n  dup8\n    /* \"#utility.yul\":1350:1373   */\n  sub\n    /* \"#utility.yul\":1346:1379   */\n  slt\n    /* \"#utility.yul\":1343:1463   */\n  iszero\n  tag_39\n  jumpi\n    /* \"#utility.yul\":1382:1461   */\n  tag_40\n  tag_11\n  jump\t// in\ntag_40:\n    /* \"#utility.yul\":1343:1463   */\ntag_39:\n    /* \"#utility.yul\":1502:1503   */\n  0x00\n    /* \"#utility.yul\":1527:1591   */\n  tag_41\n    /* \"#utility.yul\":1583:1590   */\n  dup8\n    /* \"#utility.yul\":1574:1580   */\n  dup3\n    /* \"#utility.yul\":1563:1572   */\n  dup9\n    /* \"#utility.yul\":1559:1581   */\n  add\n    /* \"#utility.yul\":1527:1591   */\n  tag_16\n  jump\t// in\ntag_41:\n    /* \"#utility.yul\":1517:1591   */\n  swap5\n  pop\n    /* \"#utility.yul\":1473:1601   */\n  pop\n    /* \"#utility.yul\":1640:1642   */\n  0x20\n    /* \"#utility.yul\":1666:1730   */\n  tag_42\n    /* \"#utility.yul\":1722:1729   */\n  dup8\n    /* \"#utility.yul\":1713:1719   */\n  dup3\n    /* \"#utility.yul\":1702:1711   */\n  dup9\n    /* \"#utility.yul\":1698:1720   */\n  add\n    /* \"#utility.yul\":1666:1730   */\n  tag_19\n  jump\t// in\ntag_42:\n    /* \"#utility.yul\":1656:1730   */\n  swap4\n  pop\n    /* \"#utility.yul\":1611:1740   */\n  pop\n    /* \"#utility.yul\":1779:1781   */\n  0x40\n    /* \"#utility.yul\":1805:1869   */\n  tag_43\n    /* \"#utility.yul\":1861:1868   */\n  dup8\n    /* \"#utility.yul\":1852:1858   */\n  dup3\n    /* \"#utility.yul\":1841:1850   */\n  dup9\n    /* \"#utility.yul\":1837:1859   */\n  add\n    /* \"#utility.yul\":1805:1869   */\n  tag_19\n  jump\t// in\ntag_43:\n    /* \"#utility.yul\":1795:1869   */\n  swap3\n  pop\n    /* \"#utility.yul\":1750:1879   */\n  pop\n    /* \"#utility.yul\":1918:1920   */\n  0x60\n    /* \"#utility.yul\":1944:2008   */\n  tag_44\n    /* \"#utility.yul\":2000:2007   */\n  dup8\n    /* \"#utility.yul\":1991:1997   */\n  dup3\n    /* \"#utility.yul\":1980:1989   */\n  dup9\n    /* \"#utility.yul\":1976:1998   */\n  add\n    /* \"#utility.yul\":1944:2008   */\n  tag_16\n  jump\t// in\ntag_44:\n    /* \"#utility.yul\":1934:2008   */\n  swap2\n  pop\n    /* \"#utility.yul\":1889:2018   */\n  pop\n    /* \"#utility.yul\":1205:2025   */\n  swap3\n  swap6\n  swap2\n  swap5\n  pop\n  swap3\n  pop\n  jump\t// out\n    /* \"#utility.yul\":2031:2211   */\ntag_8:\n    /* \"#utility.yul\":2079:2156   */\n  0x4e487b7100000000000000000000000000000000000000000000000000000000\n    /* \"#utility.yul\":2076:2077   */\n  0x00\n    /* \"#utility.yul\":2069:2157   */\n  mstore\n    /* \"#utility.yul\":2176:2180   */\n  0x21\n    /* \"#utility.yul\":2173:2174   */\n  0x04\n    /* \"#utility.yul\":2166:2181   */\n  mstore\n    /* \"#utility.yul\":2200:2204   */\n  0x24\n    /* \"#utility.yul\":2197:2198   */\n  0x00\n    /* \"#utility.yul\":2190:2205   */\n  revert\n    /* \"contracts/Auction_1.sol\":124:2126  contract NFTAuction{... */\ntag_9:\n  mload(0x80)\n  mload(0xa0)\n  codecopy(0x00, dataOffset(sub_0), dataSize(sub_0))\n  0x00\n  assignImmutable(\"0x7b0ac78d4efde931c083b037c1c7f91b4cc8f27a159c1264ae53aa473f3e4e6a\")\n  0x00\n  assignImmutable(\"0xcfe93e00cbaaf37bad5f0b2ff3ab98072b4f3a2656e148b3bcccb553f2fa678f\")\n  return(0x00, dataSize(sub_0))\nstop\n\nsub_0: assembly {\n        /* \"contracts/Auction_1.sol\":124:2126  contract NFTAuction{... */\n      mstore(0x40, 0x80)\n      jumpi(tag_1, lt(calldatasize, 0x04))\n      shr(0xe0, calldataload(0x00))\n      dup1\n      0x55a373d6\n      gt\n      tag_11\n      jumpi\n      dup1\n      0x55a373d6\n      eq\n      tag_6\n      jumpi\n      dup1\n      0x6b64c769\n      eq\n      tag_7\n      jumpi\n      dup1\n      0x91f90157\n      eq\n      tag_8\n      jumpi\n      dup1\n      0xd57bde79\n      eq\n      tag_9\n      jumpi\n      dup1\n      0xdc689504\n      eq\n      tag_10\n      jumpi\n      jump(tag_1)\n    tag_11:\n      dup1\n      0x17d70f7c\n      eq\n      tag_2\n      jumpi\n      dup1\n      0x1998aeef\n      eq\n      tag_3\n      jumpi\n      dup1\n      0x1d0806ae\n      eq\n      tag_4\n      jumpi\n      dup1\n      0x378252f2\n      eq\n      tag_5\n      jumpi\n    tag_1:\n      0x00\n      dup1\n      revert\n        /* \"contracts/Auction_1.sol\":326:358  uint256 public immutable tokenId */\n    tag_2:\n      callvalue\n      dup1\n      iszero\n      tag_12\n      jumpi\n      0x00\n      dup1\n      revert\n    tag_12:\n      pop\n      tag_13\n      tag_14\n      jump\t// in\n    tag_13:\n      mload(0x40)\n      tag_15\n      swap2\n      swap1\n      tag_16\n      jump\t// in\n    tag_15:\n      mload(0x40)\n      dup1\n      swap2\n      sub\n      swap1\n      return\n        /* \"contracts/Auction_1.sol\":1857:2123  function bid() external payable {... */\n    tag_3:\n      tag_17\n      tag_18\n      jump\t// in\n    tag_17:\n      stop\n        /* \"contracts/Auction_1.sol\":225:252  uint256 public initialPrice */\n    tag_4:\n      callvalue\n      dup1\n      iszero\n      tag_19\n      jumpi\n      0x00\n      dup1\n      revert\n    tag_19:\n      pop\n      tag_20\n      tag_21\n      jump\t// in\n    tag_20:\n      mload(0x40)\n      tag_22\n      swap2\n      swap1\n      tag_16\n      jump\t// in\n    tag_22:\n      mload(0x40)\n      dup1\n      swap2\n      sub\n      swap1\n      return\n        /* \"contracts/Auction_1.sol\":1503:1849  function closeAuction() external onlyAuctioneer isApproved {... */\n    tag_5:\n      callvalue\n      dup1\n      iszero\n      tag_23\n      jumpi\n      0x00\n      dup1\n      revert\n    tag_23:\n      pop\n      tag_24\n      tag_25\n      jump\t// in\n    tag_24:\n      stop\n        /* \"contracts/Auction_1.sol\":365:403  address public immutable tokenContract */\n    tag_6:\n      callvalue\n      dup1\n      iszero\n      tag_26\n      jumpi\n      0x00\n      dup1\n      revert\n    tag_26:\n      pop\n      tag_27\n      tag_28\n      jump\t// in\n    tag_27:\n      mload(0x40)\n      tag_29\n      swap2\n      swap1\n      tag_30\n      jump\t// in\n    tag_29:\n      mload(0x40)\n      dup1\n      swap2\n      sub\n      swap1\n      return\n        /* \"contracts/Auction_1.sol\":1248:1495  function startAuction() external onlyAuctioneer {... */\n    tag_7:\n      callvalue\n      dup1\n      iszero\n      tag_31\n      jumpi\n      0x00\n      dup1\n      revert\n    tag_31:\n      pop\n      tag_32\n      tag_33\n      jump\t// in\n    tag_32:\n      stop\n        /* \"contracts/Auction_1.sol\":291:319  address public highestBidder */\n    tag_8:\n      callvalue\n      dup1\n      iszero\n      tag_34\n      jumpi\n      0x00\n      dup1\n      revert\n    tag_34:\n      pop\n      tag_35\n      tag_36\n      jump\t// in\n    tag_35:\n      mload(0x40)\n      tag_37\n      swap2\n      swap1\n      tag_30\n      jump\t// in\n    tag_37:\n      mload(0x40)\n      dup1\n      swap2\n      sub\n      swap1\n      return\n        /* \"contracts/Auction_1.sol\":259:284  uint256 public highestBid */\n    tag_9:\n      callvalue\n      dup1\n      iszero\n      tag_38\n      jumpi\n      0x00\n      dup1\n      revert\n    tag_38:\n      pop\n      tag_39\n      tag_40\n      jump\t// in\n    tag_39:\n      mload(0x40)\n      tag_41\n      swap2\n      swap1\n      tag_16\n      jump\t// in\n    tag_41:\n      mload(0x40)\n      dup1\n      swap2\n      sub\n      swap1\n      return\n        /* \"contracts/Auction_1.sol\":410:457  mapping(uint256 => address) public bidsRegister */\n    tag_10:\n      callvalue\n      dup1\n      iszero\n      tag_42\n      jumpi\n      0x00\n      dup1\n      revert\n    tag_42:\n      pop\n      tag_43\n      0x04\n      dup1\n      calldatasize\n      sub\n      dup2\n      add\n      swap1\n      tag_44\n      swap2\n      swap1\n      tag_45\n      jump\t// in\n    tag_44:\n      tag_46\n      jump\t// in\n    tag_43:\n      mload(0x40)\n      tag_47\n      swap2\n      swap1\n      tag_30\n      jump\t// in\n    tag_47:\n      mload(0x40)\n      dup1\n      swap2\n      sub\n      swap1\n      return\n        /* \"contracts/Auction_1.sol\":326:358  uint256 public immutable tokenId */\n    tag_14:\n      immutable(\"0xcfe93e00cbaaf37bad5f0b2ff3ab98072b4f3a2656e148b3bcccb553f2fa678f\")\n      dup2\n      jump\t// out\n        /* \"contracts/Auction_1.sol\":1857:2123  function bid() external payable {... */\n    tag_18:\n        /* \"contracts/Auction_1.sol\":1918:1936  AuctionStatus.OPEN */\n      0x00\n        /* \"contracts/Auction_1.sol\":1908:1936  status == AuctionStatus.OPEN */\n      0x01\n      dup2\n      gt\n      iszero\n      tag_49\n      jumpi\n      tag_50\n      tag_51\n      jump\t// in\n    tag_50:\n    tag_49:\n        /* \"contracts/Auction_1.sol\":1908:1914  status */\n      0x06\n      0x00\n      swap1\n      sload\n      swap1\n      0x0100\n      exp\n      swap1\n      div\n      0xff\n      and\n        /* \"contracts/Auction_1.sol\":1908:1936  status == AuctionStatus.OPEN */\n      0x01\n      dup2\n      gt\n      iszero\n      tag_52\n      jumpi\n      tag_53\n      tag_51\n      jump\t// in\n    tag_53:\n    tag_52:\n      eq\n        /* \"contracts/Auction_1.sol\":1900:1970  require(status == AuctionStatus.OPEN, \"The Auction is already closed\") */\n      tag_54\n      jumpi\n      mload(0x40)\n      0x08c379a000000000000000000000000000000000000000000000000000000000\n      dup2\n      mstore\n      0x04\n      add\n      tag_55\n      swap1\n      tag_56\n      jump\t// in\n    tag_55:\n      mload(0x40)\n      dup1\n      swap2\n      sub\n      swap1\n      revert\n    tag_54:\n        /* \"contracts/Auction_1.sol\":2001:2011  highestBid */\n      sload(0x03)\n        /* \"contracts/Auction_1.sol\":1989:1998  msg.value */\n      callvalue\n        /* \"contracts/Auction_1.sol\":1989:2011  msg.value > highestBid */\n      gt\n        /* \"contracts/Auction_1.sol\":1981:2035  require(msg.value > highestBid, \"You can't bid lower\") */\n      tag_57\n      jumpi\n      mload(0x40)\n      0x08c379a000000000000000000000000000000000000000000000000000000000\n      dup2\n      mstore\n      0x04\n      add\n      tag_58\n      swap1\n      tag_59\n      jump\t// in\n    tag_58:\n      mload(0x40)\n      dup1\n      swap2\n      sub\n      swap1\n      revert\n    tag_57:\n        /* \"contracts/Auction_1.sol\":2072:2082  msg.sender */\n      caller\n        /* \"contracts/Auction_1.sol\":2046:2058  bidsRegister */\n      0x05\n        /* \"contracts/Auction_1.sol\":2046:2069  bidsRegister[msg.value] */\n      0x00\n        /* \"contracts/Auction_1.sol\":2059:2068  msg.value */\n      callvalue\n        /* \"contracts/Auction_1.sol\":2046:2069  bidsRegister[msg.value] */\n      dup2\n      mstore\n      0x20\n      add\n      swap1\n      dup2\n      mstore\n      0x20\n      add\n      0x00\n      keccak256\n      0x00\n        /* \"contracts/Auction_1.sol\":2046:2082  bidsRegister[msg.value] = msg.sender */\n      0x0100\n      exp\n      dup2\n      sload\n      dup2\n      0xffffffffffffffffffffffffffffffffffffffff\n      mul\n      not\n      and\n      swap1\n      dup4\n      0xffffffffffffffffffffffffffffffffffffffff\n      and\n      mul\n      or\n      swap1\n      sstore\n      pop\n        /* \"contracts/Auction_1.sol\":2106:2115  msg.value */\n      callvalue\n        /* \"contracts/Auction_1.sol\":2093:2103  highestBid */\n      0x03\n        /* \"contracts/Auction_1.sol\":2093:2115  highestBid = msg.value */\n      dup2\n      swap1\n      sstore\n      pop\n        /* \"contracts/Auction_1.sol\":1857:2123  function bid() external payable {... */\n      jump\t// out\n        /* \"contracts/Auction_1.sol\":225:252  uint256 public initialPrice */\n    tag_21:\n      sload(0x02)\n      dup2\n      jump\t// out\n        /* \"contracts/Auction_1.sol\":1503:1849  function closeAuction() external onlyAuctioneer isApproved {... */\n    tag_25:\n        /* \"contracts/Auction_1.sol\":992:1002  auctioneer */\n      0x01\n      0x00\n      swap1\n      sload\n      swap1\n      0x0100\n      exp\n      swap1\n      div\n      0xffffffffffffffffffffffffffffffffffffffff\n      and\n        /* \"contracts/Auction_1.sol\":978:1002  msg.sender == auctioneer */\n      0xffffffffffffffffffffffffffffffffffffffff\n      and\n        /* \"contracts/Auction_1.sol\":978:988  msg.sender */\n      caller\n        /* \"contracts/Auction_1.sol\":978:1002  msg.sender == auctioneer */\n      0xffffffffffffffffffffffffffffffffffffffff\n      and\n      eq\n        /* \"contracts/Auction_1.sol\":970:1053  require(msg.sender == auctioneer, \"Only the contract owner can call this function\") */\n      tag_61\n      jumpi\n      mload(0x40)\n      0x08c379a000000000000000000000000000000000000000000000000000000000\n      dup2\n      mstore\n      0x04\n      add\n      tag_62\n      swap1\n      tag_63\n      jump\t// in\n    tag_62:\n      mload(0x40)\n      dup1\n      swap2\n      sub\n      swap1\n      revert\n    tag_61:\n        /* \"contracts/Auction_1.sol\":1120:1131  NFTContract */\n      0x00\n      dup1\n      sload\n      swap1\n      0x0100\n      exp\n      swap1\n      div\n      0xffffffffffffffffffffffffffffffffffffffff\n      and\n        /* \"contracts/Auction_1.sol\":1120:1148  NFTContract.isApprovedForAll */\n      0xffffffffffffffffffffffffffffffffffffffff\n      and\n      0xe985e9c5\n        /* \"contracts/Auction_1.sol\":1149:1159  auctioneer */\n      0x01\n      0x00\n      swap1\n      sload\n      swap1\n      0x0100\n      exp\n      swap1\n      div\n      0xffffffffffffffffffffffffffffffffffffffff\n      and\n        /* \"contracts/Auction_1.sol\":1169:1173  this */\n      address\n        /* \"contracts/Auction_1.sol\":1120:1175  NFTContract.isApprovedForAll(auctioneer, address(this)) */\n      mload(0x40)\n      dup4\n      0xffffffff\n      and\n      0xe0\n      shl\n      dup2\n      mstore\n      0x04\n      add\n      tag_65\n      swap3\n      swap2\n      swap1\n      tag_66\n      jump\t// in\n    tag_65:\n      0x20\n      mload(0x40)\n      dup1\n      dup4\n      sub\n      dup2\n      dup7\n      gas\n      staticcall\n      iszero\n      dup1\n      iszero\n      tag_68\n      jumpi\n      returndatasize\n      0x00\n      dup1\n      returndatacopy\n      revert(0x00, returndatasize)\n    tag_68:\n      pop\n      pop\n      pop\n      pop\n      mload(0x40)\n      returndatasize\n      not(0x1f)\n      0x1f\n      dup3\n      add\n      and\n      dup3\n      add\n      dup1\n      0x40\n      mstore\n      pop\n      dup2\n      add\n      swap1\n      tag_69\n      swap2\n      swap1\n      tag_70\n      jump\t// in\n    tag_69:\n        /* \"contracts/Auction_1.sol\":1112:1220  require(NFTContract.isApprovedForAll(auctioneer, address(this)), \"Contract is not approved to transfer NFT\") */\n      tag_71\n      jumpi\n      mload(0x40)\n      0x08c379a000000000000000000000000000000000000000000000000000000000\n      dup2\n      mstore\n      0x04\n      add\n      tag_72\n      swap1\n      tag_73\n      jump\t// in\n    tag_72:\n      mload(0x40)\n      dup1\n      swap2\n      sub\n      swap1\n      revert\n    tag_71:\n        /* \"contracts/Auction_1.sol\":1591:1609  AuctionStatus.OPEN */\n      0x00\n        /* \"contracts/Auction_1.sol\":1581:1609  status == AuctionStatus.OPEN */\n      0x01\n      dup2\n      gt\n      iszero\n      tag_75\n      jumpi\n      tag_76\n      tag_51\n      jump\t// in\n    tag_76:\n    tag_75:\n        /* \"contracts/Auction_1.sol\":1581:1587  status */\n      0x06\n      0x00\n      swap1\n      sload\n      swap1\n      0x0100\n      exp\n      swap1\n      div\n      0xff\n      and\n        /* \"contracts/Auction_1.sol\":1581:1609  status == AuctionStatus.OPEN */\n      0x01\n      dup2\n      gt\n      iszero\n      tag_77\n      jumpi\n      tag_78\n      tag_51\n      jump\t// in\n    tag_78:\n    tag_77:\n      eq\n        /* \"contracts/Auction_1.sol\":1573:1643  require(status == AuctionStatus.OPEN, \"The Auction is already closed\") */\n      tag_79\n      jumpi\n      mload(0x40)\n      0x08c379a000000000000000000000000000000000000000000000000000000000\n      dup2\n      mstore\n      0x04\n      add\n      tag_80\n      swap1\n      tag_56\n      jump\t// in\n    tag_80:\n      mload(0x40)\n      dup1\n      swap2\n      sub\n      swap1\n      revert\n    tag_79:\n        /* \"contracts/Auction_1.sol\":1670:1682  bidsRegister */\n      0x05\n        /* \"contracts/Auction_1.sol\":1670:1694  bidsRegister[highestBid] */\n      0x00\n        /* \"contracts/Auction_1.sol\":1683:1693  highestBid */\n      sload(0x03)\n        /* \"contracts/Auction_1.sol\":1670:1694  bidsRegister[highestBid] */\n      dup2\n      mstore\n      0x20\n      add\n      swap1\n      dup2\n      mstore\n      0x20\n      add\n      0x00\n      keccak256\n      0x00\n      swap1\n      sload\n      swap1\n      0x0100\n      exp\n      swap1\n      div\n      0xffffffffffffffffffffffffffffffffffffffff\n      and\n        /* \"contracts/Auction_1.sol\":1654:1667  highestBidder */\n      0x04\n      0x00\n        /* \"contracts/Auction_1.sol\":1654:1694  highestBidder = bidsRegister[highestBid] */\n      0x0100\n      exp\n      dup2\n      sload\n      dup2\n      0xffffffffffffffffffffffffffffffffffffffff\n      mul\n      not\n      and\n      swap1\n      dup4\n      0xffffffffffffffffffffffffffffffffffffffff\n      and\n      mul\n      or\n      swap1\n      sstore\n      pop\n        /* \"contracts/Auction_1.sol\":1705:1716  NFTContract */\n      0x00\n      dup1\n      sload\n      swap1\n      0x0100\n      exp\n      swap1\n      div\n      0xffffffffffffffffffffffffffffffffffffffff\n      and\n        /* \"contracts/Auction_1.sol\":1705:1729  NFTContract.transferFrom */\n      0xffffffffffffffffffffffffffffffffffffffff\n      and\n      0x23b872dd\n        /* \"contracts/Auction_1.sol\":1730:1740  auctioneer */\n      0x01\n      0x00\n      swap1\n      sload\n      swap1\n      0x0100\n      exp\n      swap1\n      div\n      0xffffffffffffffffffffffffffffffffffffffff\n      and\n        /* \"contracts/Auction_1.sol\":1742:1755  highestBidder */\n      0x04\n      0x00\n      swap1\n      sload\n      swap1\n      0x0100\n      exp\n      swap1\n      div\n      0xffffffffffffffffffffffffffffffffffffffff\n      and\n        /* \"contracts/Auction_1.sol\":1757:1764  tokenId */\n      immutable(\"0xcfe93e00cbaaf37bad5f0b2ff3ab98072b4f3a2656e148b3bcccb553f2fa678f\")\n        /* \"contracts/Auction_1.sol\":1705:1765  NFTContract.transferFrom(auctioneer, highestBidder, tokenId) */\n      mload(0x40)\n      dup5\n      0xffffffff\n      and\n      0xe0\n      shl\n      dup2\n      mstore\n      0x04\n      add\n      tag_81\n      swap4\n      swap3\n      swap2\n      swap1\n      tag_82\n      jump\t// in\n    tag_81:\n      0x00\n      mload(0x40)\n      dup1\n      dup4\n      sub\n      dup2\n      0x00\n      dup8\n      dup1\n      extcodesize\n      iszero\n      dup1\n      iszero\n      tag_83\n      jumpi\n      0x00\n      dup1\n      revert\n    tag_83:\n      pop\n      gas\n      call\n      iszero\n      dup1\n      iszero\n      tag_85\n      jumpi\n      returndatasize\n      0x00\n      dup1\n      returndatacopy\n      revert(0x00, returndatasize)\n    tag_85:\n      pop\n      pop\n      pop\n      pop\n        /* \"contracts/Auction_1.sol\":1785:1805  AuctionStatus.CLOSED */\n      0x01\n        /* \"contracts/Auction_1.sol\":1776:1782  status */\n      0x06\n      0x00\n        /* \"contracts/Auction_1.sol\":1776:1805  status = AuctionStatus.CLOSED */\n      0x0100\n      exp\n      dup2\n      sload\n      dup2\n      0xff\n      mul\n      not\n      and\n      swap1\n      dup4\n      0x01\n      dup2\n      gt\n      iszero\n      tag_86\n      jumpi\n      tag_87\n      tag_51\n      jump\t// in\n    tag_87:\n    tag_86:\n      mul\n      or\n      swap1\n      sstore\n      pop\n        /* \"contracts/Auction_1.sol\":1821:1841  AuctionState(status) */\n      0x8caed3b4bf01375b22dc7f84afe719ce12ab14864751a7d5e4142fe4e4a50a51\n        /* \"contracts/Auction_1.sol\":1834:1840  status */\n      0x06\n      0x00\n      swap1\n      sload\n      swap1\n      0x0100\n      exp\n      swap1\n      div\n      0xff\n      and\n        /* \"contracts/Auction_1.sol\":1821:1841  AuctionState(status) */\n      mload(0x40)\n      tag_88\n      swap2\n      swap1\n      tag_89\n      jump\t// in\n    tag_88:\n      mload(0x40)\n      dup1\n      swap2\n      sub\n      swap1\n      log1\n        /* \"contracts/Auction_1.sol\":1503:1849  function closeAuction() external onlyAuctioneer isApproved {... */\n      jump\t// out\n        /* \"contracts/Auction_1.sol\":365:403  address public immutable tokenContract */\n    tag_28:\n      immutable(\"0x7b0ac78d4efde931c083b037c1c7f91b4cc8f27a159c1264ae53aa473f3e4e6a\")\n      dup2\n      jump\t// out\n        /* \"contracts/Auction_1.sol\":1248:1495  function startAuction() external onlyAuctioneer {... */\n    tag_33:\n        /* \"contracts/Auction_1.sol\":992:1002  auctioneer */\n      0x01\n      0x00\n      swap1\n      sload\n      swap1\n      0x0100\n      exp\n      swap1\n      div\n      0xffffffffffffffffffffffffffffffffffffffff\n      and\n        /* \"contracts/Auction_1.sol\":978:1002  msg.sender == auctioneer */\n      0xffffffffffffffffffffffffffffffffffffffff\n      and\n        /* \"contracts/Auction_1.sol\":978:988  msg.sender */\n      caller\n        /* \"contracts/Auction_1.sol\":978:1002  msg.sender == auctioneer */\n      0xffffffffffffffffffffffffffffffffffffffff\n      and\n      eq\n        /* \"contracts/Auction_1.sol\":970:1053  require(msg.sender == auctioneer, \"Only the contract owner can call this function\") */\n      tag_91\n      jumpi\n      mload(0x40)\n      0x08c379a000000000000000000000000000000000000000000000000000000000\n      dup2\n      mstore\n      0x04\n      add\n      tag_92\n      swap1\n      tag_63\n      jump\t// in\n    tag_92:\n      mload(0x40)\n      dup1\n      swap2\n      sub\n      swap1\n      revert\n    tag_91:\n        /* \"contracts/Auction_1.sol\":1325:1345  AuctionStatus.CLOSED */\n      0x01\n        /* \"contracts/Auction_1.sol\":1315:1345  status == AuctionStatus.CLOSED */\n      dup1\n      dup2\n      gt\n      iszero\n      tag_94\n      jumpi\n      tag_95\n      tag_51\n      jump\t// in\n    tag_95:\n    tag_94:\n        /* \"contracts/Auction_1.sol\":1315:1321  status */\n      0x06\n      0x00\n      swap1\n      sload\n      swap1\n      0x0100\n      exp\n      swap1\n      div\n      0xff\n      and\n        /* \"contracts/Auction_1.sol\":1315:1345  status == AuctionStatus.CLOSED */\n      0x01\n      dup2\n      gt\n      iszero\n      tag_96\n      jumpi\n      tag_97\n      tag_51\n      jump\t// in\n    tag_97:\n    tag_96:\n      eq\n        /* \"contracts/Auction_1.sol\":1307:1377  require(status == AuctionStatus.CLOSED, \"The Auction is already open\") */\n      tag_98\n      jumpi\n      mload(0x40)\n      0x08c379a000000000000000000000000000000000000000000000000000000000\n      dup2\n      mstore\n      0x04\n      add\n      tag_99\n      swap1\n      tag_100\n      jump\t// in\n    tag_99:\n      mload(0x40)\n      dup1\n      swap2\n      sub\n      swap1\n      revert\n    tag_98:\n        /* \"contracts/Auction_1.sol\":1397:1415  AuctionStatus.OPEN */\n      0x00\n        /* \"contracts/Auction_1.sol\":1388:1394  status */\n      0x06\n      0x00\n        /* \"contracts/Auction_1.sol\":1388:1415  status = AuctionStatus.OPEN */\n      0x0100\n      exp\n      dup2\n      sload\n      dup2\n      0xff\n      mul\n      not\n      and\n      swap1\n      dup4\n      0x01\n      dup2\n      gt\n      iszero\n      tag_101\n      jumpi\n      tag_102\n      tag_51\n      jump\t// in\n    tag_102:\n    tag_101:\n      mul\n      or\n      swap1\n      sstore\n      pop\n        /* \"contracts/Auction_1.sol\":1439:1451  initialPrice */\n      sload(0x02)\n        /* \"contracts/Auction_1.sol\":1426:1436  highestBid */\n      0x03\n        /* \"contracts/Auction_1.sol\":1426:1451  highestBid = initialPrice */\n      dup2\n      swap1\n      sstore\n      pop\n        /* \"contracts/Auction_1.sol\":1467:1487  AuctionState(status) */\n      0x8caed3b4bf01375b22dc7f84afe719ce12ab14864751a7d5e4142fe4e4a50a51\n        /* \"contracts/Auction_1.sol\":1480:1486  status */\n      0x06\n      0x00\n      swap1\n      sload\n      swap1\n      0x0100\n      exp\n      swap1\n      div\n      0xff\n      and\n        /* \"contracts/Auction_1.sol\":1467:1487  AuctionState(status) */\n      mload(0x40)\n      tag_103\n      swap2\n      swap1\n      tag_89\n      jump\t// in\n    tag_103:\n      mload(0x40)\n      dup1\n      swap2\n      sub\n      swap1\n      log1\n        /* \"contracts/Auction_1.sol\":1248:1495  function startAuction() external onlyAuctioneer {... */\n      jump\t// out\n        /* \"contracts/Auction_1.sol\":291:319  address public highestBidder */\n    tag_36:\n      0x04\n      0x00\n      swap1\n      sload\n      swap1\n      0x0100\n      exp\n      swap1\n      div\n      0xffffffffffffffffffffffffffffffffffffffff\n      and\n      dup2\n      jump\t// out\n        /* \"contracts/Auction_1.sol\":259:284  uint256 public highestBid */\n    tag_40:\n      sload(0x03)\n      dup2\n      jump\t// out\n        /* \"contracts/Auction_1.sol\":410:457  mapping(uint256 => address) public bidsRegister */\n    tag_46:\n      mstore(0x20, 0x05)\n      dup1\n      0x00\n      mstore\n      keccak256(0x00, 0x40)\n      0x00\n      swap2\n      pop\n      sload\n      swap1\n      0x0100\n      exp\n      swap1\n      div\n      0xffffffffffffffffffffffffffffffffffffffff\n      and\n      dup2\n      jump\t// out\n        /* \"#utility.yul\":7:84   */\n    tag_104:\n        /* \"#utility.yul\":44:51   */\n      0x00\n        /* \"#utility.yul\":73:78   */\n      dup2\n        /* \"#utility.yul\":62:78   */\n      swap1\n      pop\n        /* \"#utility.yul\":7:84   */\n      swap2\n      swap1\n      pop\n      jump\t// out\n        /* \"#utility.yul\":90:208   */\n    tag_105:\n        /* \"#utility.yul\":177:201   */\n      tag_140\n        /* \"#utility.yul\":195:200   */\n      dup2\n        /* \"#utility.yul\":177:201   */\n      tag_104\n      jump\t// in\n    tag_140:\n        /* \"#utility.yul\":172:175   */\n      dup3\n        /* \"#utility.yul\":165:202   */\n      mstore\n        /* \"#utility.yul\":90:208   */\n      pop\n      pop\n      jump\t// out\n        /* \"#utility.yul\":214:436   */\n    tag_16:\n        /* \"#utility.yul\":307:311   */\n      0x00\n        /* \"#utility.yul\":345:347   */\n      0x20\n        /* \"#utility.yul\":334:343   */\n      dup3\n        /* \"#utility.yul\":330:348   */\n      add\n        /* \"#utility.yul\":322:348   */\n      swap1\n      pop\n        /* \"#utility.yul\":358:429   */\n      tag_142\n        /* \"#utility.yul\":426:427   */\n      0x00\n        /* \"#utility.yul\":415:424   */\n      dup4\n        /* \"#utility.yul\":411:428   */\n      add\n        /* \"#utility.yul\":402:408   */\n      dup5\n        /* \"#utility.yul\":358:429   */\n      tag_105\n      jump\t// in\n    tag_142:\n        /* \"#utility.yul\":214:436   */\n      swap3\n      swap2\n      pop\n      pop\n      jump\t// out\n        /* \"#utility.yul\":442:568   */\n    tag_106:\n        /* \"#utility.yul\":479:486   */\n      0x00\n        /* \"#utility.yul\":519:561   */\n      0xffffffffffffffffffffffffffffffffffffffff\n        /* \"#utility.yul\":512:517   */\n      dup3\n        /* \"#utility.yul\":508:562   */\n      and\n        /* \"#utility.yul\":497:562   */\n      swap1\n      pop\n        /* \"#utility.yul\":442:568   */\n      swap2\n      swap1\n      pop\n      jump\t// out\n        /* \"#utility.yul\":574:670   */\n    tag_107:\n        /* \"#utility.yul\":611:618   */\n      0x00\n        /* \"#utility.yul\":640:664   */\n      tag_145\n        /* \"#utility.yul\":658:663   */\n      dup3\n        /* \"#utility.yul\":640:664   */\n      tag_106\n      jump\t// in\n    tag_145:\n        /* \"#utility.yul\":629:664   */\n      swap1\n      pop\n        /* \"#utility.yul\":574:670   */\n      swap2\n      swap1\n      pop\n      jump\t// out\n        /* \"#utility.yul\":676:794   */\n    tag_108:\n        /* \"#utility.yul\":763:787   */\n      tag_147\n        /* \"#utility.yul\":781:786   */\n      dup2\n        /* \"#utility.yul\":763:787   */\n      tag_107\n      jump\t// in\n    tag_147:\n        /* \"#utility.yul\":758:761   */\n      dup3\n        /* \"#utility.yul\":751:788   */\n      mstore\n        /* \"#utility.yul\":676:794   */\n      pop\n      pop\n      jump\t// out\n        /* \"#utility.yul\":800:1022   */\n    tag_30:\n        /* \"#utility.yul\":893:897   */\n      0x00\n        /* \"#utility.yul\":931:933   */\n      0x20\n        /* \"#utility.yul\":920:929   */\n      dup3\n        /* \"#utility.yul\":916:934   */\n      add\n        /* \"#utility.yul\":908:934   */\n      swap1\n      pop\n        /* \"#utility.yul\":944:1015   */\n      tag_149\n        /* \"#utility.yul\":1012:1013   */\n      0x00\n        /* \"#utility.yul\":1001:1010   */\n      dup4\n        /* \"#utility.yul\":997:1014   */\n      add\n        /* \"#utility.yul\":988:994   */\n      dup5\n        /* \"#utility.yul\":944:1015   */\n      tag_108\n      jump\t// in\n    tag_149:\n        /* \"#utility.yul\":800:1022   */\n      swap3\n      swap2\n      pop\n      pop\n      jump\t// out\n        /* \"#utility.yul\":1109:1226   */\n    tag_110:\n        /* \"#utility.yul\":1218:1219   */\n      0x00\n        /* \"#utility.yul\":1215:1216   */\n      dup1\n        /* \"#utility.yul\":1208:1220   */\n      revert\n        /* \"#utility.yul\":1355:1477   */\n    tag_112:\n        /* \"#utility.yul\":1428:1452   */\n      tag_154\n        /* \"#utility.yul\":1446:1451   */\n      dup2\n        /* \"#utility.yul\":1428:1452   */\n      tag_104\n      jump\t// in\n    tag_154:\n        /* \"#utility.yul\":1421:1426   */\n      dup2\n        /* \"#utility.yul\":1418:1453   */\n      eq\n        /* \"#utility.yul\":1408:1471   */\n      tag_155\n      jumpi\n        /* \"#utility.yul\":1467:1468   */\n      0x00\n        /* \"#utility.yul\":1464:1465   */\n      dup1\n        /* \"#utility.yul\":1457:1469   */\n      revert\n        /* \"#utility.yul\":1408:1471   */\n    tag_155:\n        /* \"#utility.yul\":1355:1477   */\n      pop\n      jump\t// out\n        /* \"#utility.yul\":1483:1622   */\n    tag_113:\n        /* \"#utility.yul\":1529:1534   */\n      0x00\n        /* \"#utility.yul\":1567:1573   */\n      dup2\n        /* \"#utility.yul\":1554:1574   */\n      calldataload\n        /* \"#utility.yul\":1545:1574   */\n      swap1\n      pop\n        /* \"#utility.yul\":1583:1616   */\n      tag_157\n        /* \"#utility.yul\":1610:1615   */\n      dup2\n        /* \"#utility.yul\":1583:1616   */\n      tag_112\n      jump\t// in\n    tag_157:\n        /* \"#utility.yul\":1483:1622   */\n      swap3\n      swap2\n      pop\n      pop\n      jump\t// out\n        /* \"#utility.yul\":1628:1957   */\n    tag_45:\n        /* \"#utility.yul\":1687:1693   */\n      0x00\n        /* \"#utility.yul\":1736:1738   */\n      0x20\n        /* \"#utility.yul\":1724:1733   */\n      dup3\n        /* \"#utility.yul\":1715:1722   */\n      dup5\n        /* \"#utility.yul\":1711:1734   */\n      sub\n        /* \"#utility.yul\":1707:1739   */\n      slt\n        /* \"#utility.yul\":1704:1823   */\n      iszero\n      tag_159\n      jumpi\n        /* \"#utility.yul\":1742:1821   */\n      tag_160\n      tag_110\n      jump\t// in\n    tag_160:\n        /* \"#utility.yul\":1704:1823   */\n    tag_159:\n        /* \"#utility.yul\":1862:1863   */\n      0x00\n        /* \"#utility.yul\":1887:1940   */\n      tag_161\n        /* \"#utility.yul\":1932:1939   */\n      dup5\n        /* \"#utility.yul\":1923:1929   */\n      dup3\n        /* \"#utility.yul\":1912:1921   */\n      dup6\n        /* \"#utility.yul\":1908:1930   */\n      add\n        /* \"#utility.yul\":1887:1940   */\n      tag_113\n      jump\t// in\n    tag_161:\n        /* \"#utility.yul\":1877:1940   */\n      swap2\n      pop\n        /* \"#utility.yul\":1833:1950   */\n      pop\n        /* \"#utility.yul\":1628:1957   */\n      swap3\n      swap2\n      pop\n      pop\n      jump\t// out\n        /* \"#utility.yul\":1963:2143   */\n    tag_51:\n        /* \"#utility.yul\":2011:2088   */\n      0x4e487b7100000000000000000000000000000000000000000000000000000000\n        /* \"#utility.yul\":2008:2009   */\n      0x00\n        /* \"#utility.yul\":2001:2089   */\n      mstore\n        /* \"#utility.yul\":2108:2112   */\n      0x21\n        /* \"#utility.yul\":2105:2106   */\n      0x04\n        /* \"#utility.yul\":2098:2113   */\n      mstore\n        /* \"#utility.yul\":2132:2136   */\n      0x24\n        /* \"#utility.yul\":2129:2130   */\n      0x00\n        /* \"#utility.yul\":2122:2137   */\n      revert\n        /* \"#utility.yul\":2149:2318   */\n    tag_114:\n        /* \"#utility.yul\":2233:2244   */\n      0x00\n        /* \"#utility.yul\":2267:2273   */\n      dup3\n        /* \"#utility.yul\":2262:2265   */\n      dup3\n        /* \"#utility.yul\":2255:2274   */\n      mstore\n        /* \"#utility.yul\":2307:2311   */\n      0x20\n        /* \"#utility.yul\":2302:2305   */\n      dup3\n        /* \"#utility.yul\":2298:2312   */\n      add\n        /* \"#utility.yul\":2283:2312   */\n      swap1\n      pop\n        /* \"#utility.yul\":2149:2318   */\n      swap3\n      swap2\n      pop\n      pop\n      jump\t// out\n        /* \"#utility.yul\":2324:2503   */\n    tag_115:\n        /* \"#utility.yul\":2464:2495   */\n      0x5468652041756374696f6e20697320616c726561647920636c6f736564000000\n        /* \"#utility.yul\":2460:2461   */\n      0x00\n        /* \"#utility.yul\":2452:2458   */\n      dup3\n        /* \"#utility.yul\":2448:2462   */\n      add\n        /* \"#utility.yul\":2441:2496   */\n      mstore\n        /* \"#utility.yul\":2324:2503   */\n      pop\n      jump\t// out\n        /* \"#utility.yul\":2509:2875   */\n    tag_116:\n        /* \"#utility.yul\":2651:2654   */\n      0x00\n        /* \"#utility.yul\":2672:2739   */\n      tag_166\n        /* \"#utility.yul\":2736:2738   */\n      0x1d\n        /* \"#utility.yul\":2731:2734   */\n      dup4\n        /* \"#utility.yul\":2672:2739   */\n      tag_114\n      jump\t// in\n    tag_166:\n        /* \"#utility.yul\":2665:2739   */\n      swap2\n      pop\n        /* \"#utility.yul\":2748:2841   */\n      tag_167\n        /* \"#utility.yul\":2837:2840   */\n      dup3\n        /* \"#utility.yul\":2748:2841   */\n      tag_115\n      jump\t// in\n    tag_167:\n        /* \"#utility.yul\":2866:2868   */\n      0x20\n        /* \"#utility.yul\":2861:2864   */\n      dup3\n        /* \"#utility.yul\":2857:2869   */\n      add\n        /* \"#utility.yul\":2850:2869   */\n      swap1\n      pop\n        /* \"#utility.yul\":2509:2875   */\n      swap2\n      swap1\n      pop\n      jump\t// out\n        /* \"#utility.yul\":2881:3300   */\n    tag_56:\n        /* \"#utility.yul\":3047:3051   */\n      0x00\n        /* \"#utility.yul\":3085:3087   */\n      0x20\n        /* \"#utility.yul\":3074:3083   */\n      dup3\n        /* \"#utility.yul\":3070:3088   */\n      add\n        /* \"#utility.yul\":3062:3088   */\n      swap1\n      pop\n        /* \"#utility.yul\":3134:3143   */\n      dup2\n        /* \"#utility.yul\":3128:3132   */\n      dup2\n        /* \"#utility.yul\":3124:3144   */\n      sub\n        /* \"#utility.yul\":3120:3121   */\n      0x00\n        /* \"#utility.yul\":3109:3118   */\n      dup4\n        /* \"#utility.yul\":3105:3122   */\n      add\n        /* \"#utility.yul\":3098:3145   */\n      mstore\n        /* \"#utility.yul\":3162:3293   */\n      tag_169\n        /* \"#utility.yul\":3288:3292   */\n      dup2\n        /* \"#utility.yul\":3162:3293   */\n      tag_116\n      jump\t// in\n    tag_169:\n        /* \"#utility.yul\":3154:3293   */\n      swap1\n      pop\n        /* \"#utility.yul\":2881:3300   */\n      swap2\n      swap1\n      pop\n      jump\t// out\n        /* \"#utility.yul\":3306:3475   */\n    tag_117:\n        /* \"#utility.yul\":3446:3467   */\n      0x596f752063616e277420626964206c6f77657200000000000000000000000000\n        /* \"#utility.yul\":3442:3443   */\n      0x00\n        /* \"#utility.yul\":3434:3440   */\n      dup3\n        /* \"#utility.yul\":3430:3444   */\n      add\n        /* \"#utility.yul\":3423:3468   */\n      mstore\n        /* \"#utility.yul\":3306:3475   */\n      pop\n      jump\t// out\n        /* \"#utility.yul\":3481:3847   */\n    tag_118:\n        /* \"#utility.yul\":3623:3626   */\n      0x00\n        /* \"#utility.yul\":3644:3711   */\n      tag_172\n        /* \"#utility.yul\":3708:3710   */\n      0x13\n        /* \"#utility.yul\":3703:3706   */\n      dup4\n        /* \"#utility.yul\":3644:3711   */\n      tag_114\n      jump\t// in\n    tag_172:\n        /* \"#utility.yul\":3637:3711   */\n      swap2\n      pop\n        /* \"#utility.yul\":3720:3813   */\n      tag_173\n        /* \"#utility.yul\":3809:3812   */\n      dup3\n        /* \"#utility.yul\":3720:3813   */\n      tag_117\n      jump\t// in\n    tag_173:\n        /* \"#utility.yul\":3838:3840   */\n      0x20\n        /* \"#utility.yul\":3833:3836   */\n      dup3\n        /* \"#utility.yul\":3829:3841   */\n      add\n        /* \"#utility.yul\":3822:3841   */\n      swap1\n      pop\n        /* \"#utility.yul\":3481:3847   */\n      swap2\n      swap1\n      pop\n      jump\t// out\n        /* \"#utility.yul\":3853:4272   */\n    tag_59:\n        /* \"#utility.yul\":4019:4023   */\n      0x00\n        /* \"#utility.yul\":4057:4059   */\n      0x20\n        /* \"#utility.yul\":4046:4055   */\n      dup3\n        /* \"#utility.yul\":4042:4060   */\n      add\n        /* \"#utility.yul\":4034:4060   */\n      swap1\n      pop\n        /* \"#utility.yul\":4106:4115   */\n      dup2\n        /* \"#utility.yul\":4100:4104   */\n      dup2\n        /* \"#utility.yul\":4096:4116   */\n      sub\n        /* \"#utility.yul\":4092:4093   */\n      0x00\n        /* \"#utility.yul\":4081:4090   */\n      dup4\n        /* \"#utility.yul\":4077:4094   */\n      add\n        /* \"#utility.yul\":4070:4117   */\n      mstore\n        /* \"#utility.yul\":4134:4265   */\n      tag_175\n        /* \"#utility.yul\":4260:4264   */\n      dup2\n        /* \"#utility.yul\":4134:4265   */\n      tag_118\n      jump\t// in\n    tag_175:\n        /* \"#utility.yul\":4126:4265   */\n      swap1\n      pop\n        /* \"#utility.yul\":3853:4272   */\n      swap2\n      swap1\n      pop\n      jump\t// out\n        /* \"#utility.yul\":4278:4511   */\n    tag_119:\n        /* \"#utility.yul\":4418:4452   */\n      0x4f6e6c792074686520636f6e7472616374206f776e65722063616e2063616c6c\n        /* \"#utility.yul\":4414:4415   */\n      0x00\n        /* \"#utility.yul\":4406:4412   */\n      dup3\n        /* \"#utility.yul\":4402:4416   */\n      add\n        /* \"#utility.yul\":4395:4453   */\n      mstore\n        /* \"#utility.yul\":4487:4503   */\n      0x20746869732066756e6374696f6e000000000000000000000000000000000000\n        /* \"#utility.yul\":4482:4484   */\n      0x20\n        /* \"#utility.yul\":4474:4480   */\n      dup3\n        /* \"#utility.yul\":4470:4485   */\n      add\n        /* \"#utility.yul\":4463:4504   */\n      mstore\n        /* \"#utility.yul\":4278:4511   */\n      pop\n      jump\t// out\n        /* \"#utility.yul\":4517:4883   */\n    tag_120:\n        /* \"#utility.yul\":4659:4662   */\n      0x00\n        /* \"#utility.yul\":4680:4747   */\n      tag_178\n        /* \"#utility.yul\":4744:4746   */\n      0x2e\n        /* \"#utility.yul\":4739:4742   */\n      dup4\n        /* \"#utility.yul\":4680:4747   */\n      tag_114\n      jump\t// in\n    tag_178:\n        /* \"#utility.yul\":4673:4747   */\n      swap2\n      pop\n        /* \"#utility.yul\":4756:4849   */\n      tag_179\n        /* \"#utility.yul\":4845:4848   */\n      dup3\n        /* \"#utility.yul\":4756:4849   */\n      tag_119\n      jump\t// in\n    tag_179:\n        /* \"#utility.yul\":4874:4876   */\n      0x40\n        /* \"#utility.yul\":4869:4872   */\n      dup3\n        /* \"#utility.yul\":4865:4877   */\n      add\n        /* \"#utility.yul\":4858:4877   */\n      swap1\n      pop\n        /* \"#utility.yul\":4517:4883   */\n      swap2\n      swap1\n      pop\n      jump\t// out\n        /* \"#utility.yul\":4889:5308   */\n    tag_63:\n        /* \"#utility.yul\":5055:5059   */\n      0x00\n        /* \"#utility.yul\":5093:5095   */\n      0x20\n        /* \"#utility.yul\":5082:5091   */\n      dup3\n        /* \"#utility.yul\":5078:5096   */\n      add\n        /* \"#utility.yul\":5070:5096   */\n      swap1\n      pop\n        /* \"#utility.yul\":5142:5151   */\n      dup2\n        /* \"#utility.yul\":5136:5140   */\n      dup2\n        /* \"#utility.yul\":5132:5152   */\n      sub\n        /* \"#utility.yul\":5128:5129   */\n      0x00\n        /* \"#utility.yul\":5117:5126   */\n      dup4\n        /* \"#utility.yul\":5113:5130   */\n      add\n        /* \"#utility.yul\":5106:5153   */\n      mstore\n        /* \"#utility.yul\":5170:5301   */\n      tag_181\n        /* \"#utility.yul\":5296:5300   */\n      dup2\n        /* \"#utility.yul\":5170:5301   */\n      tag_120\n      jump\t// in\n    tag_181:\n        /* \"#utility.yul\":5162:5301   */\n      swap1\n      pop\n        /* \"#utility.yul\":4889:5308   */\n      swap2\n      swap1\n      pop\n      jump\t// out\n        /* \"#utility.yul\":5314:5374   */\n    tag_121:\n        /* \"#utility.yul\":5342:5345   */\n      0x00\n        /* \"#utility.yul\":5363:5368   */\n      dup2\n        /* \"#utility.yul\":5356:5368   */\n      swap1\n      pop\n        /* \"#utility.yul\":5314:5374   */\n      swap2\n      swap1\n      pop\n      jump\t// out\n        /* \"#utility.yul\":5380:5522   */\n    tag_122:\n        /* \"#utility.yul\":5430:5439   */\n      0x00\n        /* \"#utility.yul\":5463:5516   */\n      tag_184\n        /* \"#utility.yul\":5481:5515   */\n      tag_185\n        /* \"#utility.yul\":5490:5514   */\n      tag_186\n        /* \"#utility.yul\":5508:5513   */\n      dup5\n        /* \"#utility.yul\":5490:5514   */\n      tag_106\n      jump\t// in\n    tag_186:\n        /* \"#utility.yul\":5481:5515   */\n      tag_121\n      jump\t// in\n    tag_185:\n        /* \"#utility.yul\":5463:5516   */\n      tag_106\n      jump\t// in\n    tag_184:\n        /* \"#utility.yul\":5450:5516   */\n      swap1\n      pop\n        /* \"#utility.yul\":5380:5522   */\n      swap2\n      swap1\n      pop\n      jump\t// out\n        /* \"#utility.yul\":5528:5654   */\n    tag_123:\n        /* \"#utility.yul\":5578:5587   */\n      0x00\n        /* \"#utility.yul\":5611:5648   */\n      tag_188\n        /* \"#utility.yul\":5642:5647   */\n      dup3\n        /* \"#utility.yul\":5611:5648   */\n      tag_122\n      jump\t// in\n    tag_188:\n        /* \"#utility.yul\":5598:5648   */\n      swap1\n      pop\n        /* \"#utility.yul\":5528:5654   */\n      swap2\n      swap1\n      pop\n      jump\t// out\n        /* \"#utility.yul\":5660:5794   */\n    tag_124:\n        /* \"#utility.yul\":5718:5727   */\n      0x00\n        /* \"#utility.yul\":5751:5788   */\n      tag_190\n        /* \"#utility.yul\":5782:5787   */\n      dup3\n        /* \"#utility.yul\":5751:5788   */\n      tag_123\n      jump\t// in\n    tag_190:\n        /* \"#utility.yul\":5738:5788   */\n      swap1\n      pop\n        /* \"#utility.yul\":5660:5794   */\n      swap2\n      swap1\n      pop\n      jump\t// out\n        /* \"#utility.yul\":5800:5947   */\n    tag_125:\n        /* \"#utility.yul\":5895:5940   */\n      tag_192\n        /* \"#utility.yul\":5934:5939   */\n      dup2\n        /* \"#utility.yul\":5895:5940   */\n      tag_124\n      jump\t// in\n    tag_192:\n        /* \"#utility.yul\":5890:5893   */\n      dup3\n        /* \"#utility.yul\":5883:5941   */\n      mstore\n        /* \"#utility.yul\":5800:5947   */\n      pop\n      pop\n      jump\t// out\n        /* \"#utility.yul\":5953:6301   */\n    tag_66:\n        /* \"#utility.yul\":6082:6086   */\n      0x00\n        /* \"#utility.yul\":6120:6122   */\n      0x40\n        /* \"#utility.yul\":6109:6118   */\n      dup3\n        /* \"#utility.yul\":6105:6123   */\n      add\n        /* \"#utility.yul\":6097:6123   */\n      swap1\n      pop\n        /* \"#utility.yul\":6133:6212   */\n      tag_194\n        /* \"#utility.yul\":6209:6210   */\n      0x00\n        /* \"#utility.yul\":6198:6207   */\n      dup4\n        /* \"#utility.yul\":6194:6211   */\n      add\n        /* \"#utility.yul\":6185:6191   */\n      dup6\n        /* \"#utility.yul\":6133:6212   */\n      tag_125\n      jump\t// in\n    tag_194:\n        /* \"#utility.yul\":6222:6294   */\n      tag_195\n        /* \"#utility.yul\":6290:6292   */\n      0x20\n        /* \"#utility.yul\":6279:6288   */\n      dup4\n        /* \"#utility.yul\":6275:6293   */\n      add\n        /* \"#utility.yul\":6266:6272   */\n      dup5\n        /* \"#utility.yul\":6222:6294   */\n      tag_108\n      jump\t// in\n    tag_195:\n        /* \"#utility.yul\":5953:6301   */\n      swap4\n      swap3\n      pop\n      pop\n      pop\n      jump\t// out\n        /* \"#utility.yul\":6307:6397   */\n    tag_126:\n        /* \"#utility.yul\":6341:6348   */\n      0x00\n        /* \"#utility.yul\":6384:6389   */\n      dup2\n        /* \"#utility.yul\":6377:6390   */\n      iszero\n        /* \"#utility.yul\":6370:6391   */\n      iszero\n        /* \"#utility.yul\":6359:6391   */\n      swap1\n      pop\n        /* \"#utility.yul\":6307:6397   */\n      swap2\n      swap1\n      pop\n      jump\t// out\n        /* \"#utility.yul\":6403:6519   */\n    tag_127:\n        /* \"#utility.yul\":6473:6494   */\n      tag_198\n        /* \"#utility.yul\":6488:6493   */\n      dup2\n        /* \"#utility.yul\":6473:6494   */\n      tag_126\n      jump\t// in\n    tag_198:\n        /* \"#utility.yul\":6466:6471   */\n      dup2\n        /* \"#utility.yul\":6463:6495   */\n      eq\n        /* \"#utility.yul\":6453:6513   */\n      tag_199\n      jumpi\n        /* \"#utility.yul\":6509:6510   */\n      0x00\n        /* \"#utility.yul\":6506:6507   */\n      dup1\n        /* \"#utility.yul\":6499:6511   */\n      revert\n        /* \"#utility.yul\":6453:6513   */\n    tag_199:\n        /* \"#utility.yul\":6403:6519   */\n      pop\n      jump\t// out\n        /* \"#utility.yul\":6525:6662   */\n    tag_128:\n        /* \"#utility.yul\":6579:6584   */\n      0x00\n        /* \"#utility.yul\":6610:6616   */\n      dup2\n        /* \"#utility.yul\":6604:6617   */\n      mload\n        /* \"#utility.yul\":6595:6617   */\n      swap1\n      pop\n        /* \"#utility.yul\":6626:6656   */\n      tag_201\n        /* \"#utility.yul\":6650:6655   */\n      dup2\n        /* \"#utility.yul\":6626:6656   */\n      tag_127\n      jump\t// in\n    tag_201:\n        /* \"#utility.yul\":6525:6662   */\n      swap3\n      swap2\n      pop\n      pop\n      jump\t// out\n        /* \"#utility.yul\":6668:7013   */\n    tag_70:\n        /* \"#utility.yul\":6735:6741   */\n      0x00\n        /* \"#utility.yul\":6784:6786   */\n      0x20\n        /* \"#utility.yul\":6772:6781   */\n      dup3\n        /* \"#utility.yul\":6763:6770   */\n      dup5\n        /* \"#utility.yul\":6759:6782   */\n      sub\n        /* \"#utility.yul\":6755:6787   */\n      slt\n        /* \"#utility.yul\":6752:6871   */\n      iszero\n      tag_203\n      jumpi\n        /* \"#utility.yul\":6790:6869   */\n      tag_204\n      tag_110\n      jump\t// in\n    tag_204:\n        /* \"#utility.yul\":6752:6871   */\n    tag_203:\n        /* \"#utility.yul\":6910:6911   */\n      0x00\n        /* \"#utility.yul\":6935:6996   */\n      tag_205\n        /* \"#utility.yul\":6988:6995   */\n      dup5\n        /* \"#utility.yul\":6979:6985   */\n      dup3\n        /* \"#utility.yul\":6968:6977   */\n      dup6\n        /* \"#utility.yul\":6964:6986   */\n      add\n        /* \"#utility.yul\":6935:6996   */\n      tag_128\n      jump\t// in\n    tag_205:\n        /* \"#utility.yul\":6925:6996   */\n      swap2\n      pop\n        /* \"#utility.yul\":6881:7006   */\n      pop\n        /* \"#utility.yul\":6668:7013   */\n      swap3\n      swap2\n      pop\n      pop\n      jump\t// out\n        /* \"#utility.yul\":7019:7246   */\n    tag_129:\n        /* \"#utility.yul\":7159:7193   */\n      0x436f6e7472616374206973206e6f7420617070726f76656420746f207472616e\n        /* \"#utility.yul\":7155:7156   */\n      0x00\n        /* \"#utility.yul\":7147:7153   */\n      dup3\n        /* \"#utility.yul\":7143:7157   */\n      add\n        /* \"#utility.yul\":7136:7194   */\n      mstore\n        /* \"#utility.yul\":7228:7238   */\n      0x73666572204e4654000000000000000000000000000000000000000000000000\n        /* \"#utility.yul\":7223:7225   */\n      0x20\n        /* \"#utility.yul\":7215:7221   */\n      dup3\n        /* \"#utility.yul\":7211:7226   */\n      add\n        /* \"#utility.yul\":7204:7239   */\n      mstore\n        /* \"#utility.yul\":7019:7246   */\n      pop\n      jump\t// out\n        /* \"#utility.yul\":7252:7618   */\n    tag_130:\n        /* \"#utility.yul\":7394:7397   */\n      0x00\n        /* \"#utility.yul\":7415:7482   */\n      tag_208\n        /* \"#utility.yul\":7479:7481   */\n      0x28\n        /* \"#utility.yul\":7474:7477   */\n      dup4\n        /* \"#utility.yul\":7415:7482   */\n      tag_114\n      jump\t// in\n    tag_208:\n        /* \"#utility.yul\":7408:7482   */\n      swap2\n      pop\n        /* \"#utility.yul\":7491:7584   */\n      tag_209\n        /* \"#utility.yul\":7580:7583   */\n      dup3\n        /* \"#utility.yul\":7491:7584   */\n      tag_129\n      jump\t// in\n    tag_209:\n        /* \"#utility.yul\":7609:7611   */\n      0x40\n        /* \"#utility.yul\":7604:7607   */\n      dup3\n        /* \"#utility.yul\":7600:7612   */\n      add\n        /* \"#utility.yul\":7593:7612   */\n      swap1\n      pop\n        /* \"#utility.yul\":7252:7618   */\n      swap2\n      swap1\n      pop\n      jump\t// out\n        /* \"#utility.yul\":7624:8043   */\n    tag_73:\n        /* \"#utility.yul\":7790:7794   */\n      0x00\n        /* \"#utility.yul\":7828:7830   */\n      0x20\n        /* \"#utility.yul\":7817:7826   */\n      dup3\n        /* \"#utility.yul\":7813:7831   */\n      add\n        /* \"#utility.yul\":7805:7831   */\n      swap1\n      pop\n        /* \"#utility.yul\":7877:7886   */\n      dup2\n        /* \"#utility.yul\":7871:7875   */\n      dup2\n        /* \"#utility.yul\":7867:7887   */\n      sub\n        /* \"#utility.yul\":7863:7864   */\n      0x00\n        /* \"#utility.yul\":7852:7861   */\n      dup4\n        /* \"#utility.yul\":7848:7865   */\n      add\n        /* \"#utility.yul\":7841:7888   */\n      mstore\n        /* \"#utility.yul\":7905:8036   */\n      tag_211\n        /* \"#utility.yul\":8031:8035   */\n      dup2\n        /* \"#utility.yul\":7905:8036   */\n      tag_130\n      jump\t// in\n    tag_211:\n        /* \"#utility.yul\":7897:8036   */\n      swap1\n      pop\n        /* \"#utility.yul\":7624:8043   */\n      swap2\n      swap1\n      pop\n      jump\t// out\n        /* \"#utility.yul\":8049:8507   */\n    tag_82:\n        /* \"#utility.yul\":8206:8210   */\n      0x00\n        /* \"#utility.yul\":8244:8246   */\n      0x60\n        /* \"#utility.yul\":8233:8242   */\n      dup3\n        /* \"#utility.yul\":8229:8247   */\n      add\n        /* \"#utility.yul\":8221:8247   */\n      swap1\n      pop\n        /* \"#utility.yul\":8257:8336   */\n      tag_213\n        /* \"#utility.yul\":8333:8334   */\n      0x00\n        /* \"#utility.yul\":8322:8331   */\n      dup4\n        /* \"#utility.yul\":8318:8335   */\n      add\n        /* \"#utility.yul\":8309:8315   */\n      dup7\n        /* \"#utility.yul\":8257:8336   */\n      tag_125\n      jump\t// in\n    tag_213:\n        /* \"#utility.yul\":8346:8418   */\n      tag_214\n        /* \"#utility.yul\":8414:8416   */\n      0x20\n        /* \"#utility.yul\":8403:8412   */\n      dup4\n        /* \"#utility.yul\":8399:8417   */\n      add\n        /* \"#utility.yul\":8390:8396   */\n      dup6\n        /* \"#utility.yul\":8346:8418   */\n      tag_108\n      jump\t// in\n    tag_214:\n        /* \"#utility.yul\":8428:8500   */\n      tag_215\n        /* \"#utility.yul\":8496:8498   */\n      0x40\n        /* \"#utility.yul\":8485:8494   */\n      dup4\n        /* \"#utility.yul\":8481:8499   */\n      add\n        /* \"#utility.yul\":8472:8478   */\n      dup5\n        /* \"#utility.yul\":8428:8500   */\n      tag_105\n      jump\t// in\n    tag_215:\n        /* \"#utility.yul\":8049:8507   */\n      swap5\n      swap4\n      pop\n      pop\n      pop\n      pop\n      jump\t// out\n        /* \"#utility.yul\":8513:8635   */\n    tag_131:\n        /* \"#utility.yul\":8603:8604   */\n      0x02\n        /* \"#utility.yul\":8596:8601   */\n      dup2\n        /* \"#utility.yul\":8593:8605   */\n      lt\n        /* \"#utility.yul\":8583:8629   */\n      tag_217\n      jumpi\n        /* \"#utility.yul\":8609:8627   */\n      tag_218\n      tag_51\n      jump\t// in\n    tag_218:\n        /* \"#utility.yul\":8583:8629   */\n    tag_217:\n        /* \"#utility.yul\":8513:8635   */\n      pop\n      jump\t// out\n        /* \"#utility.yul\":8641:8786   */\n    tag_132:\n        /* \"#utility.yul\":8695:8702   */\n      0x00\n        /* \"#utility.yul\":8724:8729   */\n      dup2\n        /* \"#utility.yul\":8713:8729   */\n      swap1\n      pop\n        /* \"#utility.yul\":8730:8780   */\n      tag_220\n        /* \"#utility.yul\":8774:8779   */\n      dup3\n        /* \"#utility.yul\":8730:8780   */\n      tag_131\n      jump\t// in\n    tag_220:\n        /* \"#utility.yul\":8641:8786   */\n      swap2\n      swap1\n      pop\n      jump\t// out\n        /* \"#utility.yul\":8792:8937   */\n    tag_133:\n        /* \"#utility.yul\":8857:8866   */\n      0x00\n        /* \"#utility.yul\":8890:8931   */\n      tag_222\n        /* \"#utility.yul\":8925:8930   */\n      dup3\n        /* \"#utility.yul\":8890:8931   */\n      tag_132\n      jump\t// in\n    tag_222:\n        /* \"#utility.yul\":8877:8931   */\n      swap1\n      pop\n        /* \"#utility.yul\":8792:8937   */\n      swap2\n      swap1\n      pop\n      jump\t// out\n        /* \"#utility.yul\":8943:9104   */\n    tag_134:\n        /* \"#utility.yul\":9045:9097   */\n      tag_224\n        /* \"#utility.yul\":9091:9096   */\n      dup2\n        /* \"#utility.yul\":9045:9097   */\n      tag_133\n      jump\t// in\n    tag_224:\n        /* \"#utility.yul\":9040:9043   */\n      dup3\n        /* \"#utility.yul\":9033:9098   */\n      mstore\n        /* \"#utility.yul\":8943:9104   */\n      pop\n      pop\n      jump\t// out\n        /* \"#utility.yul\":9110:9362   */\n    tag_89:\n        /* \"#utility.yul\":9218:9222   */\n      0x00\n        /* \"#utility.yul\":9256:9258   */\n      0x20\n        /* \"#utility.yul\":9245:9254   */\n      dup3\n        /* \"#utility.yul\":9241:9259   */\n      add\n        /* \"#utility.yul\":9233:9259   */\n      swap1\n      pop\n        /* \"#utility.yul\":9269:9355   */\n      tag_226\n        /* \"#utility.yul\":9352:9353   */\n      0x00\n        /* \"#utility.yul\":9341:9350   */\n      dup4\n        /* \"#utility.yul\":9337:9354   */\n      add\n        /* \"#utility.yul\":9328:9334   */\n      dup5\n        /* \"#utility.yul\":9269:9355   */\n      tag_134\n      jump\t// in\n    tag_226:\n        /* \"#utility.yul\":9110:9362   */\n      swap3\n      swap2\n      pop\n      pop\n      jump\t// out\n        /* \"#utility.yul\":9368:9545   */\n    tag_135:\n        /* \"#utility.yul\":9508:9537   */\n      0x5468652041756374696f6e20697320616c7265616479206f70656e0000000000\n        /* \"#utility.yul\":9504:9505   */\n      0x00\n        /* \"#utility.yul\":9496:9502   */\n      dup3\n        /* \"#utility.yul\":9492:9506   */\n      add\n        /* \"#utility.yul\":9485:9538   */\n      mstore\n        /* \"#utility.yul\":9368:9545   */\n      pop\n      jump\t// out\n        /* \"#utility.yul\":9551:9917   */\n    tag_136:\n        /* \"#utility.yul\":9693:9696   */\n      0x00\n        /* \"#utility.yul\":9714:9781   */\n      tag_229\n        /* \"#utility.yul\":9778:9780   */\n      0x1b\n        /* \"#utility.yul\":9773:9776   */\n      dup4\n        /* \"#utility.yul\":9714:9781   */\n      tag_114\n      jump\t// in\n    tag_229:\n        /* \"#utility.yul\":9707:9781   */\n      swap2\n      pop\n        /* \"#utility.yul\":9790:9883   */\n      tag_230\n        /* \"#utility.yul\":9879:9882   */\n      dup3\n        /* \"#utility.yul\":9790:9883   */\n      tag_135\n      jump\t// in\n    tag_230:\n        /* \"#utility.yul\":9908:9910   */\n      0x20\n        /* \"#utility.yul\":9903:9906   */\n      dup3\n        /* \"#utility.yul\":9899:9911   */\n      add\n        /* \"#utility.yul\":9892:9911   */\n      swap1\n      pop\n        /* \"#utility.yul\":9551:9917   */\n      swap2\n      swap1\n      pop\n      jump\t// out\n        /* \"#utility.yul\":9923:10342   */\n    tag_100:\n        /* \"#utility.yul\":10089:10093   */\n      0x00\n        /* \"#utility.yul\":10127:10129   */\n      0x20\n        /* \"#utility.yul\":10116:10125   */\n      dup3\n        /* \"#utility.yul\":10112:10130   */\n      add\n        /* \"#utility.yul\":10104:10130   */\n      swap1\n      pop\n        /* \"#utility.yul\":10176:10185   */\n      dup2\n        /* \"#utility.yul\":10170:10174   */\n      dup2\n        /* \"#utility.yul\":10166:10186   */\n      sub\n        /* \"#utility.yul\":10162:10163   */\n      0x00\n        /* \"#utility.yul\":10151:10160   */\n      dup4\n        /* \"#utility.yul\":10147:10164   */\n      add\n        /* \"#utility.yul\":10140:10187   */\n      mstore\n        /* \"#utility.yul\":10204:10335   */\n      tag_232\n        /* \"#utility.yul\":10330:10334   */\n      dup2\n        /* \"#utility.yul\":10204:10335   */\n      tag_136\n      jump\t// in\n    tag_232:\n        /* \"#utility.yul\":10196:10335   */\n      swap1\n      pop\n        /* \"#utility.yul\":9923:10342   */\n      swap2\n      swap1\n      pop\n      jump\t// out\n\n    auxdata: 0xa26469706673582212202d4f0938435703889daab31b256b35a27f84c84f3657be1e21557129acc224ba64736f6c63430008110033\n}\n",
				"bytecode": {
					"linkReferences": {},
					"object": "60c06040523480156200001157600080fd5b50604051620010f2380380620010f28339818101604052810190620000379190620001d8565b83600160006101000a81548173ffffffffffffffffffffffffffffffffffffffff021916908373ffffffffffffffffffffffffffffffffffffffff1602179055508260028190555081608081815250508073ffffffffffffffffffffffffffffffffffffffff1660a08173ffffffffffffffffffffffffffffffffffffffff16815250506001600660006101000a81548160ff02191690836001811115620000e457620000e36200024a565b5b0217905550806000806101000a81548173ffffffffffffffffffffffffffffffffffffffff021916908373ffffffffffffffffffffffffffffffffffffffff1602179055505050505062000279565b600080fd5b600073ffffffffffffffffffffffffffffffffffffffff82169050919050565b6000620001658262000138565b9050919050565b620001778162000158565b81146200018357600080fd5b50565b60008151905062000197816200016c565b92915050565b6000819050919050565b620001b2816200019d565b8114620001be57600080fd5b50565b600081519050620001d281620001a7565b92915050565b60008060008060808587031215620001f557620001f462000133565b5b6000620002058782880162000186565b94505060206200021887828801620001c1565b93505060406200022b87828801620001c1565b92505060606200023e8782880162000186565b91505092959194509250565b7f4e487b7100000000000000000000000000000000000000000000000000000000600052602160045260246000fd5b60805160a051610e4c620002a660003960006106f70152600081816101d901526106130152610e4c6000f3fe6080604052600436106100865760003560e01c806355a373d61161005957806355a373d6146101025780636b64c7691461012d57806391f9015714610144578063d57bde791461016f578063dc6895041461019a57610086565b806317d70f7c1461008b5780631998aeef146100b65780631d0806ae146100c0578063378252f2146100eb575b600080fd5b34801561009757600080fd5b506100a06101d7565b6040516100ad9190610912565b60405180910390f35b6100be6101fb565b005b3480156100cc57600080fd5b506100d5610310565b6040516100e29190610912565b60405180910390f35b3480156100f757600080fd5b50610100610316565b005b34801561010e57600080fd5b506101176106f5565b604051610124919061096e565b60405180910390f35b34801561013957600080fd5b50610142610719565b005b34801561015057600080fd5b5061015961089a565b604051610166919061096e565b60405180910390f35b34801561017b57600080fd5b506101846108c0565b6040516101919190610912565b60405180910390f35b3480156101a657600080fd5b506101c160048036038101906101bc91906109ba565b6108c6565b6040516101ce919061096e565b60405180910390f35b7f000000000000000000000000000000000000000000000000000000000000000081565b6000600181111561020f5761020e6109e7565b5b600660009054906101000a900460ff166001811115610231576102306109e7565b5b14610271576040517f08c379a000000000000000000000000000000000000000000000000000000000815260040161026890610a73565b60405180910390fd5b60035434116102b5576040517f08c379a00000000000000000000000000000000000000000000000000000000081526004016102ac90610adf565b60405180910390fd5b336005600034815260200190815260200160002060006101000a81548173ffffffffffffffffffffffffffffffffffffffff021916908373ffffffffffffffffffffffffffffffffffffffff16021790555034600381905550565b60025481565b600160009054906101000a900473ffffffffffffffffffffffffffffffffffffffff1673ffffffffffffffffffffffffffffffffffffffff163373ffffffffffffffffffffffffffffffffffffffff16146103a6576040517f08c379a000000000000000000000000000000000000000000000000000000000815260040161039d90610b71565b60405180910390fd5b60008054906101000a900473ffffffffffffffffffffffffffffffffffffffff1673ffffffffffffffffffffffffffffffffffffffff1663e985e9c5600160009054906101000a900473ffffffffffffffffffffffffffffffffffffffff16306040518363ffffffff1660e01b8152600401610423929190610bf0565b602060405180830381865afa158015610440573d6000803e3d6000fd5b505050506040513d601f19601f820116820180604052508101906104649190610c51565b6104a3576040517f08c379a000000000000000000000000000000000000000000000000000000000815260040161049a90610cf0565b60405180910390fd5b600060018111156104b7576104b66109e7565b5b600660009054906101000a900460ff1660018111156104d9576104d86109e7565b5b14610519576040517f08c379a000000000000000000000000000000000000000000000000000000000815260040161051090610a73565b60405180910390fd5b60056000600354815260200190815260200160002060009054906101000a900473ffffffffffffffffffffffffffffffffffffffff16600460006101000a81548173ffffffffffffffffffffffffffffffffffffffff021916908373ffffffffffffffffffffffffffffffffffffffff16021790555060008054906101000a900473ffffffffffffffffffffffffffffffffffffffff1673ffffffffffffffffffffffffffffffffffffffff166323b872dd600160009054906101000a900473ffffffffffffffffffffffffffffffffffffffff16600460009054906101000a900473ffffffffffffffffffffffffffffffffffffffff167f00000000000000000000000000000000000000000000000000000000000000006040518463ffffffff1660e01b815260040161065093929190610d10565b600060405180830381600087803b15801561066a57600080fd5b505af115801561067e573d6000803e3d6000fd5b505050506001600660006101000a81548160ff021916908360018111156106a8576106a76109e7565b5b02179055507f8caed3b4bf01375b22dc7f84afe719ce12ab14864751a7d5e4142fe4e4a50a51600660009054906101000a900460ff166040516106eb9190610d8f565b60405180910390a1565b7f000000000000000000000000000000000000000000000000000000000000000081565b600160009054906101000a900473ffffffffffffffffffffffffffffffffffffffff1673ffffffffffffffffffffffffffffffffffffffff163373ffffffffffffffffffffffffffffffffffffffff16146107a9576040517f08c379a00000000000000000000000000000000000000000000000000000000081526004016107a090610b71565b60405180910390fd5b6001808111156107bc576107bb6109e7565b5b600660009054906101000a900460ff1660018111156107de576107dd6109e7565b5b1461081e576040517f08c379a000000000000000000000000000000000000000000000000000000000815260040161081590610df6565b60405180910390fd5b6000600660006101000a81548160ff02191690836001811115610844576108436109e7565b5b02179055506002546003819055507f8caed3b4bf01375b22dc7f84afe719ce12ab14864751a7d5e4142fe4e4a50a51600660009054906101000a900460ff166040516108909190610d8f565b60405180910390a1565b600460009054906101000a900473ffffffffffffffffffffffffffffffffffffffff1681565b60035481565b60056020528060005260406000206000915054906101000a900473ffffffffffffffffffffffffffffffffffffffff1681565b6000819050919050565b61090c816108f9565b82525050565b60006020820190506109276000830184610903565b92915050565b600073ffffffffffffffffffffffffffffffffffffffff82169050919050565b60006109588261092d565b9050919050565b6109688161094d565b82525050565b6000602082019050610983600083018461095f565b92915050565b600080fd5b610997816108f9565b81146109a257600080fd5b50565b6000813590506109b48161098e565b92915050565b6000602082840312156109d0576109cf610989565b5b60006109de848285016109a5565b91505092915050565b7f4e487b7100000000000000000000000000000000000000000000000000000000600052602160045260246000fd5b600082825260208201905092915050565b7f5468652041756374696f6e20697320616c726561647920636c6f736564000000600082015250565b6000610a5d601d83610a16565b9150610a6882610a27565b602082019050919050565b60006020820190508181036000830152610a8c81610a50565b9050919050565b7f596f752063616e277420626964206c6f77657200000000000000000000000000600082015250565b6000610ac9601383610a16565b9150610ad482610a93565b602082019050919050565b60006020820190508181036000830152610af881610abc565b9050919050565b7f4f6e6c792074686520636f6e7472616374206f776e65722063616e2063616c6c60008201527f20746869732066756e6374696f6e000000000000000000000000000000000000602082015250565b6000610b5b602e83610a16565b9150610b6682610aff565b604082019050919050565b60006020820190508181036000830152610b8a81610b4e565b9050919050565b6000819050919050565b6000610bb6610bb1610bac8461092d565b610b91565b61092d565b9050919050565b6000610bc882610b9b565b9050919050565b6000610bda82610bbd565b9050919050565b610bea81610bcf565b82525050565b6000604082019050610c056000830185610be1565b610c12602083018461095f565b9392505050565b60008115159050919050565b610c2e81610c19565b8114610c3957600080fd5b50565b600081519050610c4b81610c25565b92915050565b600060208284031215610c6757610c66610989565b5b6000610c7584828501610c3c565b91505092915050565b7f436f6e7472616374206973206e6f7420617070726f76656420746f207472616e60008201527f73666572204e4654000000000000000000000000000000000000000000000000602082015250565b6000610cda602883610a16565b9150610ce582610c7e565b604082019050919050565b60006020820190508181036000830152610d0981610ccd565b9050919050565b6000606082019050610d256000830186610be1565b610d32602083018561095f565b610d3f6040830184610903565b949350505050565b60028110610d5857610d576109e7565b5b50565b6000819050610d6982610d47565b919050565b6000610d7982610d5b565b9050919050565b610d8981610d6e565b82525050565b6000602082019050610da46000830184610d80565b92915050565b7f5468652041756374696f6e20697320616c7265616479206f70656e0000000000600082015250565b6000610de0601b83610a16565b9150610deb82610daa565b602082019050919050565b60006020820190508181036000830152610e0f81610dd3565b905091905056fea26469706673582212202d4f0938435703889daab31b256b35a27f84c84f3657be1e21557129acc224ba64736f6c63430008110033",
					"opcodes": "PUSH1 0xC0 PUSH1 0x40 MSTORE CALLVALUE DUP1 ISZERO PUSH3 0x11 JUMPI PUSH1 0x0 DUP1 REVERT JUMPDEST POP PUSH1 0x40 MLOAD PUSH3 0x10F2 CODESIZE SUB DUP1 PUSH3 0x10F2 DUP4 CODECOPY DUP2 DUP2 ADD PUSH1 0x40 MSTORE DUP2 ADD SWAP1 PUSH3 0x37 SWAP2 SWAP1 PUSH3 0x1D8 JUMP JUMPDEST DUP4 PUSH1 0x1 PUSH1 0x0 PUSH2 0x100 EXP DUP2 SLOAD DUP2 PUSH20 0xFFFFFFFFFFFFFFFFFFFFFFFFFFFFFFFFFFFFFFFF MUL NOT AND SWAP1 DUP4 PUSH20 0xFFFFFFFFFFFFFFFFFFFFFFFFFFFFFFFFFFFFFFFF AND MUL OR SWAP1 SSTORE POP DUP3 PUSH1 0x2 DUP2 SWAP1 SSTORE POP DUP2 PUSH1 0x80 DUP2 DUP2 MSTORE POP POP DUP1 PUSH20 0xFFFFFFFFFFFFFFFFFFFFFFFFFFFFFFFFFFFFFFFF AND PUSH1 0xA0 DUP2 PUSH20 0xFFFFFFFFFFFFFFFFFFFFFFFFFFFFFFFFFFFFFFFF AND DUP2 MSTORE POP POP PUSH1 0x1 PUSH1 0x6 PUSH1 0x0 PUSH2 0x100 EXP DUP2 SLOAD DUP2 PUSH1 0xFF MUL NOT AND SWAP1 DUP4 PUSH1 0x1 DUP2 GT ISZERO PUSH3 0xE4 JUMPI PUSH3 0xE3 PUSH3 0x24A JUMP JUMPDEST JUMPDEST MUL OR SWAP1 SSTORE POP DUP1 PUSH1 0x0 DUP1 PUSH2 0x100 EXP DUP2 SLOAD DUP2 PUSH20 0xFFFFFFFFFFFFFFFFFFFFFFFFFFFFFFFFFFFFFFFF MUL NOT AND SWAP1 DUP4 PUSH20 0xFFFFFFFFFFFFFFFFFFFFFFFFFFFFFFFFFFFFFFFF AND MUL OR SWAP1 SSTORE POP POP POP POP POP PUSH3 0x279 JUMP JUMPDEST PUSH1 0x0 DUP1 REVERT JUMPDEST PUSH1 0x0 PUSH20 0xFFFFFFFFFFFFFFFFFFFFFFFFFFFFFFFFFFFFFFFF DUP3 AND SWAP1 POP SWAP2 SWAP1 POP JUMP JUMPDEST PUSH1 0x0 PUSH3 0x165 DUP3 PUSH3 0x138 JUMP JUMPDEST SWAP1 POP SWAP2 SWAP1 POP JUMP JUMPDEST PUSH3 0x177 DUP2 PUSH3 0x158 JUMP JUMPDEST DUP2 EQ PUSH3 0x183 JUMPI PUSH1 0x0 DUP1 REVERT JUMPDEST POP JUMP JUMPDEST PUSH1 0x0 DUP2 MLOAD SWAP1 POP PUSH3 0x197 DUP2 PUSH3 0x16C JUMP JUMPDEST SWAP3 SWAP2 POP POP JUMP JUMPDEST PUSH1 0x0 DUP2 SWAP1 POP SWAP2 SWAP1 POP JUMP JUMPDEST PUSH3 0x1B2 DUP2 PUSH3 0x19D JUMP JUMPDEST DUP2 EQ PUSH3 0x1BE JUMPI PUSH1 0x0 DUP1 REVERT JUMPDEST POP JUMP JUMPDEST PUSH1 0x0 DUP2 MLOAD SWAP1 POP PUSH3 0x1D2 DUP2 PUSH3 0x1A7 JUMP JUMPDEST SWAP3 SWAP2 POP POP JUMP JUMPDEST PUSH1 0x0 DUP1 PUSH1 0x0 DUP1 PUSH1 0x80 DUP6 DUP8 SUB SLT ISZERO PUSH3 0x1F5 JUMPI PUSH3 0x1F4 PUSH3 0x133 JUMP JUMPDEST JUMPDEST PUSH1 0x0 PUSH3 0x205 DUP8 DUP3 DUP9 ADD PUSH3 0x186 JUMP JUMPDEST SWAP5 POP POP PUSH1 0x20 PUSH3 0x218 DUP8 DUP3 DUP9 ADD PUSH3 0x1C1 JUMP JUMPDEST SWAP4 POP POP PUSH1 0x40 PUSH3 0x22B DUP8 DUP3 DUP9 ADD PUSH3 0x1C1 JUMP JUMPDEST SWAP3 POP POP PUSH1 0x60 PUSH3 0x23E DUP8 DUP3 DUP9 ADD PUSH3 0x186 JUMP JUMPDEST SWAP2 POP POP SWAP3 SWAP6 SWAP2 SWAP5 POP SWAP3 POP JUMP JUMPDEST PUSH32 0x4E487B7100000000000000000000000000000000000000000000000000000000 PUSH1 0x0 MSTORE PUSH1 0x21 PUSH1 0x4 MSTORE PUSH1 0x24 PUSH1 0x0 REVERT JUMPDEST PUSH1 0x80 MLOAD PUSH1 0xA0 MLOAD PUSH2 0xE4C PUSH3 0x2A6 PUSH1 0x0 CODECOPY PUSH1 0x0 PUSH2 0x6F7 ADD MSTORE PUSH1 0x0 DUP2 DUP2 PUSH2 0x1D9 ADD MSTORE PUSH2 0x613 ADD MSTORE PUSH2 0xE4C PUSH1 0x0 RETURN INVALID PUSH1 0x80 PUSH1 0x40 MSTORE PUSH1 0x4 CALLDATASIZE LT PUSH2 0x86 JUMPI PUSH1 0x0 CALLDATALOAD PUSH1 0xE0 SHR DUP1 PUSH4 0x55A373D6 GT PUSH2 0x59 JUMPI DUP1 PUSH4 0x55A373D6 EQ PUSH2 0x102 JUMPI DUP1 PUSH4 0x6B64C769 EQ PUSH2 0x12D JUMPI DUP1 PUSH4 0x91F90157 EQ PUSH2 0x144 JUMPI DUP1 PUSH4 0xD57BDE79 EQ PUSH2 0x16F JUMPI DUP1 PUSH4 0xDC689504 EQ PUSH2 0x19A JUMPI PUSH2 0x86 JUMP JUMPDEST DUP1 PUSH4 0x17D70F7C EQ PUSH2 0x8B JUMPI DUP1 PUSH4 0x1998AEEF EQ PUSH2 0xB6 JUMPI DUP1 PUSH4 0x1D0806AE EQ PUSH2 0xC0 JUMPI DUP1 PUSH4 0x378252F2 EQ PUSH2 0xEB JUMPI JUMPDEST PUSH1 0x0 DUP1 REVERT JUMPDEST CALLVALUE DUP1 ISZERO PUSH2 0x97 JUMPI PUSH1 0x0 DUP1 REVERT JUMPDEST POP PUSH2 0xA0 PUSH2 0x1D7 JUMP JUMPDEST PUSH1 0x40 MLOAD PUSH2 0xAD SWAP2 SWAP1 PUSH2 0x912 JUMP JUMPDEST PUSH1 0x40 MLOAD DUP1 SWAP2 SUB SWAP1 RETURN JUMPDEST PUSH2 0xBE PUSH2 0x1FB JUMP JUMPDEST STOP JUMPDEST CALLVALUE DUP1 ISZERO PUSH2 0xCC JUMPI PUSH1 0x0 DUP1 REVERT JUMPDEST POP PUSH2 0xD5 PUSH2 0x310 JUMP JUMPDEST PUSH1 0x40 MLOAD PUSH2 0xE2 SWAP2 SWAP1 PUSH2 0x912 JUMP JUMPDEST PUSH1 0x40 MLOAD DUP1 SWAP2 SUB SWAP1 RETURN JUMPDEST CALLVALUE DUP1 ISZERO PUSH2 0xF7 JUMPI PUSH1 0x0 DUP1 REVERT JUMPDEST POP PUSH2 0x100 PUSH2 0x316 JUMP JUMPDEST STOP JUMPDEST CALLVALUE DUP1 ISZERO PUSH2 0x10E JUMPI PUSH1 0x0 DUP1 REVERT JUMPDEST POP PUSH2 0x117 PUSH2 0x6F5 JUMP JUMPDEST PUSH1 0x40 MLOAD PUSH2 0x124 SWAP2 SWAP1 PUSH2 0x96E JUMP JUMPDEST PUSH1 0x40 MLOAD DUP1 SWAP2 SUB SWAP1 RETURN JUMPDEST CALLVALUE DUP1 ISZERO PUSH2 0x139 JUMPI PUSH1 0x0 DUP1 REVERT JUMPDEST POP PUSH2 0x142 PUSH2 0x719 JUMP JUMPDEST STOP JUMPDEST CALLVALUE DUP1 ISZERO PUSH2 0x150 JUMPI PUSH1 0x0 DUP1 REVERT JUMPDEST POP PUSH2 0x159 PUSH2 0x89A JUMP JUMPDEST PUSH1 0x40 MLOAD PUSH2 0x166 SWAP2 SWAP1 PUSH2 0x96E JUMP JUMPDEST PUSH1 0x40 MLOAD DUP1 SWAP2 SUB SWAP1 RETURN JUMPDEST CALLVALUE DUP1 ISZERO PUSH2 0x17B JUMPI PUSH1 0x0 DUP1 REVERT JUMPDEST POP PUSH2 0x184 PUSH2 0x8C0 JUMP JUMPDEST PUSH1 0x40 MLOAD PUSH2 0x191 SWAP2 SWAP1 PUSH2 0x912 JUMP JUMPDEST PUSH1 0x40 MLOAD DUP1 SWAP2 SUB SWAP1 RETURN JUMPDEST CALLVALUE DUP1 ISZERO PUSH2 0x1A6 JUMPI PUSH1 0x0 DUP1 REVERT JUMPDEST POP PUSH2 0x1C1 PUSH1 0x4 DUP1 CALLDATASIZE SUB DUP2 ADD SWAP1 PUSH2 0x1BC SWAP2 SWAP1 PUSH2 0x9BA JUMP JUMPDEST PUSH2 0x8C6 JUMP JUMPDEST PUSH1 0x40 MLOAD PUSH2 0x1CE SWAP2 SWAP1 PUSH2 0x96E JUMP JUMPDEST PUSH1 0x40 MLOAD DUP1 SWAP2 SUB SWAP1 RETURN JUMPDEST PUSH32 0x0 DUP2 JUMP JUMPDEST PUSH1 0x0 PUSH1 0x1 DUP2 GT ISZERO PUSH2 0x20F JUMPI PUSH2 0x20E PUSH2 0x9E7 JUMP JUMPDEST JUMPDEST PUSH1 0x6 PUSH1 0x0 SWAP1 SLOAD SWAP1 PUSH2 0x100 EXP SWAP1 DIV PUSH1 0xFF AND PUSH1 0x1 DUP2 GT ISZERO PUSH2 0x231 JUMPI PUSH2 0x230 PUSH2 0x9E7 JUMP JUMPDEST JUMPDEST EQ PUSH2 0x271 JUMPI PUSH1 0x40 MLOAD PUSH32 0x8C379A000000000000000000000000000000000000000000000000000000000 DUP2 MSTORE PUSH1 0x4 ADD PUSH2 0x268 SWAP1 PUSH2 0xA73 JUMP JUMPDEST PUSH1 0x40 MLOAD DUP1 SWAP2 SUB SWAP1 REVERT JUMPDEST PUSH1 0x3 SLOAD CALLVALUE GT PUSH2 0x2B5 JUMPI PUSH1 0x40 MLOAD PUSH32 0x8C379A000000000000000000000000000000000000000000000000000000000 DUP2 MSTORE PUSH1 0x4 ADD PUSH2 0x2AC SWAP1 PUSH2 0xADF JUMP JUMPDEST PUSH1 0x40 MLOAD DUP1 SWAP2 SUB SWAP1 REVERT JUMPDEST CALLER PUSH1 0x5 PUSH1 0x0 CALLVALUE DUP2 MSTORE PUSH1 0x20 ADD SWAP1 DUP2 MSTORE PUSH1 0x20 ADD PUSH1 0x0 KECCAK256 PUSH1 0x0 PUSH2 0x100 EXP DUP2 SLOAD DUP2 PUSH20 0xFFFFFFFFFFFFFFFFFFFFFFFFFFFFFFFFFFFFFFFF MUL NOT AND SWAP1 DUP4 PUSH20 0xFFFFFFFFFFFFFFFFFFFFFFFFFFFFFFFFFFFFFFFF AND MUL OR SWAP1 SSTORE POP CALLVALUE PUSH1 0x3 DUP2 SWAP1 SSTORE POP JUMP JUMPDEST PUSH1 0x2 SLOAD DUP2 JUMP JUMPDEST PUSH1 0x1 PUSH1 0x0 SWAP1 SLOAD SWAP1 PUSH2 0x100 EXP SWAP1 DIV PUSH20 0xFFFFFFFFFFFFFFFFFFFFFFFFFFFFFFFFFFFFFFFF AND PUSH20 0xFFFFFFFFFFFFFFFFFFFFFFFFFFFFFFFFFFFFFFFF AND CALLER PUSH20 0xFFFFFFFFFFFFFFFFFFFFFFFFFFFFFFFFFFFFFFFF AND EQ PUSH2 0x3A6 JUMPI PUSH1 0x40 MLOAD PUSH32 0x8C379A000000000000000000000000000000000000000000000000000000000 DUP2 MSTORE PUSH1 0x4 ADD PUSH2 0x39D SWAP1 PUSH2 0xB71 JUMP JUMPDEST PUSH1 0x40 MLOAD DUP1 SWAP2 SUB SWAP1 REVERT JUMPDEST PUSH1 0x0 DUP1 SLOAD SWAP1 PUSH2 0x100 EXP SWAP1 DIV PUSH20 0xFFFFFFFFFFFFFFFFFFFFFFFFFFFFFFFFFFFFFFFF AND PUSH20 0xFFFFFFFFFFFFFFFFFFFFFFFFFFFFFFFFFFFFFFFF AND PUSH4 0xE985E9C5 PUSH1 0x1 PUSH1 0x0 SWAP1 SLOAD SWAP1 PUSH2 0x100 EXP SWAP1 DIV PUSH20 0xFFFFFFFFFFFFFFFFFFFFFFFFFFFFFFFFFFFFFFFF AND ADDRESS PUSH1 0x40 MLOAD DUP4 PUSH4 0xFFFFFFFF AND PUSH1 0xE0 SHL DUP2 MSTORE PUSH1 0x4 ADD PUSH2 0x423 SWAP3 SWAP2 SWAP1 PUSH2 0xBF0 JUMP JUMPDEST PUSH1 0x20 PUSH1 0x40 MLOAD DUP1 DUP4 SUB DUP2 DUP7 GAS STATICCALL ISZERO DUP1 ISZERO PUSH2 0x440 JUMPI RETURNDATASIZE PUSH1 0x0 DUP1 RETURNDATACOPY RETURNDATASIZE PUSH1 0x0 REVERT JUMPDEST POP POP POP POP PUSH1 0x40 MLOAD RETURNDATASIZE PUSH1 0x1F NOT PUSH1 0x1F DUP3 ADD AND DUP3 ADD DUP1 PUSH1 0x40 MSTORE POP DUP2 ADD SWAP1 PUSH2 0x464 SWAP2 SWAP1 PUSH2 0xC51 JUMP JUMPDEST PUSH2 0x4A3 JUMPI PUSH1 0x40 MLOAD PUSH32 0x8C379A000000000000000000000000000000000000000000000000000000000 DUP2 MSTORE PUSH1 0x4 ADD PUSH2 0x49A SWAP1 PUSH2 0xCF0 JUMP JUMPDEST PUSH1 0x40 MLOAD DUP1 SWAP2 SUB SWAP1 REVERT JUMPDEST PUSH1 0x0 PUSH1 0x1 DUP2 GT ISZERO PUSH2 0x4B7 JUMPI PUSH2 0x4B6 PUSH2 0x9E7 JUMP JUMPDEST JUMPDEST PUSH1 0x6 PUSH1 0x0 SWAP1 SLOAD SWAP1 PUSH2 0x100 EXP SWAP1 DIV PUSH1 0xFF AND PUSH1 0x1 DUP2 GT ISZERO PUSH2 0x4D9 JUMPI PUSH2 0x4D8 PUSH2 0x9E7 JUMP JUMPDEST JUMPDEST EQ PUSH2 0x519 JUMPI PUSH1 0x40 MLOAD PUSH32 0x8C379A000000000000000000000000000000000000000000000000000000000 DUP2 MSTORE PUSH1 0x4 ADD PUSH2 0x510 SWAP1 PUSH2 0xA73 JUMP JUMPDEST PUSH1 0x40 MLOAD DUP1 SWAP2 SUB SWAP1 REVERT JUMPDEST PUSH1 0x5 PUSH1 0x0 PUSH1 0x3 SLOAD DUP2 MSTORE PUSH1 0x20 ADD SWAP1 DUP2 MSTORE PUSH1 0x20 ADD PUSH1 0x0 KECCAK256 PUSH1 0x0 SWAP1 SLOAD SWAP1 PUSH2 0x100 EXP SWAP1 DIV PUSH20 0xFFFFFFFFFFFFFFFFFFFFFFFFFFFFFFFFFFFFFFFF AND PUSH1 0x4 PUSH1 0x0 PUSH2 0x100 EXP DUP2 SLOAD DUP2 PUSH20 0xFFFFFFFFFFFFFFFFFFFFFFFFFFFFFFFFFFFFFFFF MUL NOT AND SWAP1 DUP4 PUSH20 0xFFFFFFFFFFFFFFFFFFFFFFFFFFFFFFFFFFFFFFFF AND MUL OR SWAP1 SSTORE POP PUSH1 0x0 DUP1 SLOAD SWAP1 PUSH2 0x100 EXP SWAP1 DIV PUSH20 0xFFFFFFFFFFFFFFFFFFFFFFFFFFFFFFFFFFFFFFFF AND PUSH20 0xFFFFFFFFFFFFFFFFFFFFFFFFFFFFFFFFFFFFFFFF AND PUSH4 0x23B872DD PUSH1 0x1 PUSH1 0x0 SWAP1 SLOAD SWAP1 PUSH2 0x100 EXP SWAP1 DIV PUSH20 0xFFFFFFFFFFFFFFFFFFFFFFFFFFFFFFFFFFFFFFFF AND PUSH1 0x4 PUSH1 0x0 SWAP1 SLOAD SWAP1 PUSH2 0x100 EXP SWAP1 DIV PUSH20 0xFFFFFFFFFFFFFFFFFFFFFFFFFFFFFFFFFFFFFFFF AND PUSH32 0x0 PUSH1 0x40 MLOAD DUP5 PUSH4 0xFFFFFFFF AND PUSH1 0xE0 SHL DUP2 MSTORE PUSH1 0x4 ADD PUSH2 0x650 SWAP4 SWAP3 SWAP2 SWAP1 PUSH2 0xD10 JUMP JUMPDEST PUSH1 0x0 PUSH1 0x40 MLOAD DUP1 DUP4 SUB DUP2 PUSH1 0x0 DUP8 DUP1 EXTCODESIZE ISZERO DUP1 ISZERO PUSH2 0x66A JUMPI PUSH1 0x0 DUP1 REVERT JUMPDEST POP GAS CALL ISZERO DUP1 ISZERO PUSH2 0x67E JUMPI RETURNDATASIZE PUSH1 0x0 DUP1 RETURNDATACOPY RETURNDATASIZE PUSH1 0x0 REVERT JUMPDEST POP POP POP POP PUSH1 0x1 PUSH1 0x6 PUSH1 0x0 PUSH2 0x100 EXP DUP2 SLOAD DUP2 PUSH1 0xFF MUL NOT AND SWAP1 DUP4 PUSH1 0x1 DUP2 GT ISZERO PUSH2 0x6A8 JUMPI PUSH2 0x6A7 PUSH2 0x9E7 JUMP JUMPDEST JUMPDEST MUL OR SWAP1 SSTORE POP PUSH32 0x8CAED3B4BF01375B22DC7F84AFE719CE12AB14864751A7D5E4142FE4E4A50A51 PUSH1 0x6 PUSH1 0x0 SWAP1 SLOAD SWAP1 PUSH2 0x100 EXP SWAP1 DIV PUSH1 0xFF AND PUSH1 0x40 MLOAD PUSH2 0x6EB SWAP2 SWAP1 PUSH2 0xD8F JUMP JUMPDEST PUSH1 0x40 MLOAD DUP1 SWAP2 SUB SWAP1 LOG1 JUMP JUMPDEST PUSH32 0x0 DUP2 JUMP JUMPDEST PUSH1 0x1 PUSH1 0x0 SWAP1 SLOAD SWAP1 PUSH2 0x100 EXP SWAP1 DIV PUSH20 0xFFFFFFFFFFFFFFFFFFFFFFFFFFFFFFFFFFFFFFFF AND PUSH20 0xFFFFFFFFFFFFFFFFFFFFFFFFFFFFFFFFFFFFFFFF AND CALLER PUSH20 0xFFFFFFFFFFFFFFFFFFFFFFFFFFFFFFFFFFFFFFFF AND EQ PUSH2 0x7A9 JUMPI PUSH1 0x40 MLOAD PUSH32 0x8C379A000000000000000000000000000000000000000000000000000000000 DUP2 MSTORE PUSH1 0x4 ADD PUSH2 0x7A0 SWAP1 PUSH2 0xB71 JUMP JUMPDEST PUSH1 0x40 MLOAD DUP1 SWAP2 SUB SWAP1 REVERT JUMPDEST PUSH1 0x1 DUP1 DUP2 GT ISZERO PUSH2 0x7BC JUMPI PUSH2 0x7BB PUSH2 0x9E7 JUMP JUMPDEST JUMPDEST PUSH1 0x6 PUSH1 0x0 SWAP1 SLOAD SWAP1 PUSH2 0x100 EXP SWAP1 DIV PUSH1 0xFF AND PUSH1 0x1 DUP2 GT ISZERO PUSH2 0x7DE JUMPI PUSH2 0x7DD PUSH2 0x9E7 JUMP JUMPDEST JUMPDEST EQ PUSH2 0x81E JUMPI PUSH1 0x40 MLOAD PUSH32 0x8C379A000000000000000000000000000000000000000000000000000000000 DUP2 MSTORE PUSH1 0x4 ADD PUSH2 0x815 SWAP1 PUSH2 0xDF6 JUMP JUMPDEST PUSH1 0x40 MLOAD DUP1 SWAP2 SUB SWAP1 REVERT JUMPDEST PUSH1 0x0 PUSH1 0x6 PUSH1 0x0 PUSH2 0x100 EXP DUP2 SLOAD DUP2 PUSH1 0xFF MUL NOT AND SWAP1 DUP4 PUSH1 0x1 DUP2 GT ISZERO PUSH2 0x844 JUMPI PUSH2 0x843 PUSH2 0x9E7 JUMP JUMPDEST JUMPDEST MUL OR SWAP1 SSTORE POP PUSH1 0x2 SLOAD PUSH1 0x3 DUP2 SWAP1 SSTORE POP PUSH32 0x8CAED3B4BF01375B22DC7F84AFE719CE12AB14864751A7D5E4142FE4E4A50A51 PUSH1 0x6 PUSH1 0x0 SWAP1 SLOAD SWAP1 PUSH2 0x100 EXP SWAP1 DIV PUSH1 0xFF AND PUSH1 0x40 MLOAD PUSH2 0x890 SWAP2 SWAP1 PUSH2 0xD8F JUMP JUMPDEST PUSH1 0x40 MLOAD DUP1 SWAP2 SUB SWAP1 LOG1 JUMP JUMPDEST PUSH1 0x4 PUSH1 0x0 SWAP1 SLOAD SWAP1 PUSH2 0x100 EXP SWAP1 DIV PUSH20 0xFFFFFFFFFFFFFFFFFFFFFFFFFFFFFFFFFFFFFFFF AND DUP2 JUMP JUMPDEST PUSH1 0x3 SLOAD DUP2 JUMP JUMPDEST PUSH1 0x5 PUSH1 0x20 MSTORE DUP1 PUSH1 0x0 MSTORE PUSH1 0x40 PUSH1 0x0 KECCAK256 PUSH1 0x0 SWAP2 POP SLOAD SWAP1 PUSH2 0x100 EXP SWAP1 DIV PUSH20 0xFFFFFFFFFFFFFFFFFFFFFFFFFFFFFFFFFFFFFFFF AND DUP2 JUMP JUMPDEST PUSH1 0x0 DUP2 SWAP1 POP SWAP2 SWAP1 POP JUMP JUMPDEST PUSH2 0x90C DUP2 PUSH2 0x8F9 JUMP JUMPDEST DUP3 MSTORE POP POP JUMP JUMPDEST PUSH1 0x0 PUSH1 0x20 DUP3 ADD SWAP1 POP PUSH2 0x927 PUSH1 0x0 DUP4 ADD DUP5 PUSH2 0x903 JUMP JUMPDEST SWAP3 SWAP2 POP POP JUMP JUMPDEST PUSH1 0x0 PUSH20 0xFFFFFFFFFFFFFFFFFFFFFFFFFFFFFFFFFFFFFFFF DUP3 AND SWAP1 POP SWAP2 SWAP1 POP JUMP JUMPDEST PUSH1 0x0 PUSH2 0x958 DUP3 PUSH2 0x92D JUMP JUMPDEST SWAP1 POP SWAP2 SWAP1 POP JUMP JUMPDEST PUSH2 0x968 DUP2 PUSH2 0x94D JUMP JUMPDEST DUP3 MSTORE POP POP JUMP JUMPDEST PUSH1 0x0 PUSH1 0x20 DUP3 ADD SWAP1 POP PUSH2 0x983 PUSH1 0x0 DUP4 ADD DUP5 PUSH2 0x95F JUMP JUMPDEST SWAP3 SWAP2 POP POP JUMP JUMPDEST PUSH1 0x0 DUP1 REVERT JUMPDEST PUSH2 0x997 DUP2 PUSH2 0x8F9 JUMP JUMPDEST DUP2 EQ PUSH2 0x9A2 JUMPI PUSH1 0x0 DUP1 REVERT JUMPDEST POP JUMP JUMPDEST PUSH1 0x0 DUP2 CALLDATALOAD SWAP1 POP PUSH2 0x9B4 DUP2 PUSH2 0x98E JUMP JUMPDEST SWAP3 SWAP2 POP POP JUMP JUMPDEST PUSH1 0x0 PUSH1 0x20 DUP3 DUP5 SUB SLT ISZERO PUSH2 0x9D0 JUMPI PUSH2 0x9CF PUSH2 0x989 JUMP JUMPDEST JUMPDEST PUSH1 0x0 PUSH2 0x9DE DUP5 DUP3 DUP6 ADD PUSH2 0x9A5 JUMP JUMPDEST SWAP2 POP POP SWAP3 SWAP2 POP POP JUMP JUMPDEST PUSH32 0x4E487B7100000000000000000000000000000000000000000000000000000000 PUSH1 0x0 MSTORE PUSH1 0x21 PUSH1 0x4 MSTORE PUSH1 0x24 PUSH1 0x0 REVERT JUMPDEST PUSH1 0x0 DUP3 DUP3 MSTORE PUSH1 0x20 DUP3 ADD SWAP1 POP SWAP3 SWAP2 POP POP JUMP JUMPDEST PUSH32 0x5468652041756374696F6E20697320616C726561647920636C6F736564000000 PUSH1 0x0 DUP3 ADD MSTORE POP JUMP JUMPDEST PUSH1 0x0 PUSH2 0xA5D PUSH1 0x1D DUP4 PUSH2 0xA16 JUMP JUMPDEST SWAP2 POP PUSH2 0xA68 DUP3 PUSH2 0xA27 JUMP JUMPDEST PUSH1 0x20 DUP3 ADD SWAP1 POP SWAP2 SWAP1 POP JUMP JUMPDEST PUSH1 0x0 PUSH1 0x20 DUP3 ADD SWAP1 POP DUP2 DUP2 SUB PUSH1 0x0 DUP4 ADD MSTORE PUSH2 0xA8C DUP2 PUSH2 0xA50 JUMP JUMPDEST SWAP1 POP SWAP2 SWAP1 POP JUMP JUMPDEST PUSH32 0x596F752063616E277420626964206C6F77657200000000000000000000000000 PUSH1 0x0 DUP3 ADD MSTORE POP JUMP JUMPDEST PUSH1 0x0 PUSH2 0xAC9 PUSH1 0x13 DUP4 PUSH2 0xA16 JUMP JUMPDEST SWAP2 POP PUSH2 0xAD4 DUP3 PUSH2 0xA93 JUMP JUMPDEST PUSH1 0x20 DUP3 ADD SWAP1 POP SWAP2 SWAP1 POP JUMP JUMPDEST PUSH1 0x0 PUSH1 0x20 DUP3 ADD SWAP1 POP DUP2 DUP2 SUB PUSH1 0x0 DUP4 ADD MSTORE PUSH2 0xAF8 DUP2 PUSH2 0xABC JUMP JUMPDEST SWAP1 POP SWAP2 SWAP1 POP JUMP JUMPDEST PUSH32 0x4F6E6C792074686520636F6E7472616374206F776E65722063616E2063616C6C PUSH1 0x0 DUP3 ADD MSTORE PUSH32 0x20746869732066756E6374696F6E000000000000000000000000000000000000 PUSH1 0x20 DUP3 ADD MSTORE POP JUMP JUMPDEST PUSH1 0x0 PUSH2 0xB5B PUSH1 0x2E DUP4 PUSH2 0xA16 JUMP JUMPDEST SWAP2 POP PUSH2 0xB66 DUP3 PUSH2 0xAFF JUMP JUMPDEST PUSH1 0x40 DUP3 ADD SWAP1 POP SWAP2 SWAP1 POP JUMP JUMPDEST PUSH1 0x0 PUSH1 0x20 DUP3 ADD SWAP1 POP DUP2 DUP2 SUB PUSH1 0x0 DUP4 ADD MSTORE PUSH2 0xB8A DUP2 PUSH2 0xB4E JUMP JUMPDEST SWAP1 POP SWAP2 SWAP1 POP JUMP JUMPDEST PUSH1 0x0 DUP2 SWAP1 POP SWAP2 SWAP1 POP JUMP JUMPDEST PUSH1 0x0 PUSH2 0xBB6 PUSH2 0xBB1 PUSH2 0xBAC DUP5 PUSH2 0x92D JUMP JUMPDEST PUSH2 0xB91 JUMP JUMPDEST PUSH2 0x92D JUMP JUMPDEST SWAP1 POP SWAP2 SWAP1 POP JUMP JUMPDEST PUSH1 0x0 PUSH2 0xBC8 DUP3 PUSH2 0xB9B JUMP JUMPDEST SWAP1 POP SWAP2 SWAP1 POP JUMP JUMPDEST PUSH1 0x0 PUSH2 0xBDA DUP3 PUSH2 0xBBD JUMP JUMPDEST SWAP1 POP SWAP2 SWAP1 POP JUMP JUMPDEST PUSH2 0xBEA DUP2 PUSH2 0xBCF JUMP JUMPDEST DUP3 MSTORE POP POP JUMP JUMPDEST PUSH1 0x0 PUSH1 0x40 DUP3 ADD SWAP1 POP PUSH2 0xC05 PUSH1 0x0 DUP4 ADD DUP6 PUSH2 0xBE1 JUMP JUMPDEST PUSH2 0xC12 PUSH1 0x20 DUP4 ADD DUP5 PUSH2 0x95F JUMP JUMPDEST SWAP4 SWAP3 POP POP POP JUMP JUMPDEST PUSH1 0x0 DUP2 ISZERO ISZERO SWAP1 POP SWAP2 SWAP1 POP JUMP JUMPDEST PUSH2 0xC2E DUP2 PUSH2 0xC19 JUMP JUMPDEST DUP2 EQ PUSH2 0xC39 JUMPI PUSH1 0x0 DUP1 REVERT JUMPDEST POP JUMP JUMPDEST PUSH1 0x0 DUP2 MLOAD SWAP1 POP PUSH2 0xC4B DUP2 PUSH2 0xC25 JUMP JUMPDEST SWAP3 SWAP2 POP POP JUMP JUMPDEST PUSH1 0x0 PUSH1 0x20 DUP3 DUP5 SUB SLT ISZERO PUSH2 0xC67 JUMPI PUSH2 0xC66 PUSH2 0x989 JUMP JUMPDEST JUMPDEST PUSH1 0x0 PUSH2 0xC75 DUP5 DUP3 DUP6 ADD PUSH2 0xC3C JUMP JUMPDEST SWAP2 POP POP SWAP3 SWAP2 POP POP JUMP JUMPDEST PUSH32 0x436F6E7472616374206973206E6F7420617070726F76656420746F207472616E PUSH1 0x0 DUP3 ADD MSTORE PUSH32 0x73666572204E4654000000000000000000000000000000000000000000000000 PUSH1 0x20 DUP3 ADD MSTORE POP JUMP JUMPDEST PUSH1 0x0 PUSH2 0xCDA PUSH1 0x28 DUP4 PUSH2 0xA16 JUMP JUMPDEST SWAP2 POP PUSH2 0xCE5 DUP3 PUSH2 0xC7E JUMP JUMPDEST PUSH1 0x40 DUP3 ADD SWAP1 POP SWAP2 SWAP1 POP JUMP JUMPDEST PUSH1 0x0 PUSH1 0x20 DUP3 ADD SWAP1 POP DUP2 DUP2 SUB PUSH1 0x0 DUP4 ADD MSTORE PUSH2 0xD09 DUP2 PUSH2 0xCCD JUMP JUMPDEST SWAP1 POP SWAP2 SWAP1 POP JUMP JUMPDEST PUSH1 0x0 PUSH1 0x60 DUP3 ADD SWAP1 POP PUSH2 0xD25 PUSH1 0x0 DUP4 ADD DUP7 PUSH2 0xBE1 JUMP JUMPDEST PUSH2 0xD32 PUSH1 0x20 DUP4 ADD DUP6 PUSH2 0x95F JUMP JUMPDEST PUSH2 0xD3F PUSH1 0x40 DUP4 ADD DUP5 PUSH2 0x903 JUMP JUMPDEST SWAP5 SWAP4 POP POP POP POP JUMP JUMPDEST PUSH1 0x2 DUP2 LT PUSH2 0xD58 JUMPI PUSH2 0xD57 PUSH2 0x9E7 JUMP JUMPDEST JUMPDEST POP JUMP JUMPDEST PUSH1 0x0 DUP2 SWAP1 POP PUSH2 0xD69 DUP3 PUSH2 0xD47 JUMP JUMPDEST SWAP2 SWAP1 POP JUMP JUMPDEST PUSH1 0x0 PUSH2 0xD79 DUP3 PUSH2 0xD5B JUMP JUMPDEST SWAP1 POP SWAP2 SWAP1 POP JUMP JUMPDEST PUSH2 0xD89 DUP2 PUSH2 0xD6E JUMP JUMPDEST DUP3 MSTORE POP POP JUMP JUMPDEST PUSH1 0x0 PUSH1 0x20 DUP3 ADD SWAP1 POP PUSH2 0xDA4 PUSH1 0x0 DUP4 ADD DUP5 PUSH2 0xD80 JUMP JUMPDEST SWAP3 SWAP2 POP POP JUMP JUMPDEST PUSH32 0x5468652041756374696F6E20697320616C7265616479206F70656E0000000000 PUSH1 0x0 DUP3 ADD MSTORE POP JUMP JUMPDEST PUSH1 0x0 PUSH2 0xDE0 PUSH1 0x1B DUP4 PUSH2 0xA16 JUMP JUMPDEST SWAP2 POP PUSH2 0xDEB DUP3 PUSH2 0xDAA JUMP JUMPDEST PUSH1 0x20 DUP3 ADD SWAP1 POP SWAP2 SWAP1 POP JUMP JUMPDEST PUSH1 0x0 PUSH1 0x20 DUP3 ADD SWAP1 POP DUP2 DUP2 SUB PUSH1 0x0 DUP4 ADD MSTORE PUSH2 0xE0F DUP2 PUSH2 0xDD3 JUMP JUMPDEST SWAP1 POP SWAP2 SWAP1 POP JUMP INVALID LOG2 PUSH5 0x6970667358 0x22 SLT KECCAK256 0x2D 0x4F MULMOD CODESIZE NUMBER JUMPI SUB DUP9 SWAP14 0xAA 0xB3 SHL 0x25 PUSH12 0x35A27F84C84F3657BE1E2155 PUSH18 0x29ACC224BA64736F6C634300081100330000 "
				},
				"gasEstimates": {
					"creation": {
						"codeDepositCost": "732000",
						"executionCost": "infinite",
						"totalCost": "infinite"
					},
					"external": {
						"bid()": "50932",
						"bidsRegister(uint256)": "2927",
						"closeAuction()": "infinite",
						"highestBid()": "2495",
						"highestBidder()": "2558",
						"initialPrice()": "2474",
						"startAuction()": "56470",
						"tokenContract()": "infinite",
						"tokenId()": "infinite"
					}
				},
				"methodIdentifiers": {
					"bid()": "1998aeef",
					"bidsRegister(uint256)": "dc689504",
					"closeAuction()": "378252f2",
					"highestBid()": "d57bde79",
					"highestBidder()": "91f90157",
					"initialPrice()": "1d0806ae",
					"startAuction()": "6b64c769",
					"tokenContract()": "55a373d6",
					"tokenId()": "17d70f7c"
				}
			},
			"storageLayout": {
				"storage": [
					{
						"astId": 133,
						"contract": "contracts/Auction_1.sol:NFTAuction",
						"label": "NFTContract",
						"offset": 0,
						"slot": "0",
						"type": "t_contract(IERC721)115"
					},
					{
						"astId": 135,
						"contract": "contracts/Auction_1.sol:NFTAuction",
						"label": "auctioneer",
						"offset": 0,
						"slot": "1",
						"type": "t_address_payable"
					},
					{
						"astId": 137,
						"contract": "contracts/Auction_1.sol:NFTAuction",
						"label": "initialPrice",
						"offset": 0,
						"slot": "2",
						"type": "t_uint256"
					},
					{
						"astId": 139,
						"contract": "contracts/Auction_1.sol:NFTAuction",
						"label": "highestBid",
						"offset": 0,
						"slot": "3",
						"type": "t_uint256"
					},
					{
						"astId": 141,
						"contract": "contracts/Auction_1.sol:NFTAuction",
						"label": "highestBidder",
						"offset": 0,
						"slot": "4",
						"type": "t_address"
					},
					{
						"astId": 149,
						"contract": "contracts/Auction_1.sol:NFTAuction",
						"label": "bidsRegister",
						"offset": 0,
						"slot": "5",
						"type": "t_mapping(t_uint256,t_address)"
					},
					{
						"astId": 155,
						"contract": "contracts/Auction_1.sol:NFTAuction",
						"label": "status",
						"offset": 0,
						"slot": "6",
						"type": "t_enum(AuctionStatus)152"
					}
				],
				"types": {
					"t_address": {
						"encoding": "inplace",
						"label": "address",
						"numberOfBytes": "20"
					},
					"t_address_payable": {
						"encoding": "inplace",
						"label": "address payable",
						"numberOfBytes": "20"
					},
					"t_contract(IERC721)115": {
						"encoding": "inplace",
						"label": "contract IERC721",
						"numberOfBytes": "20"
					},
					"t_enum(AuctionStatus)152": {
						"encoding": "inplace",
						"label": "enum NFTAuction.AuctionStatus",
						"numberOfBytes": "1"
					},
					"t_mapping(t_uint256,t_address)": {
						"encoding": "mapping",
						"key": "t_uint256",
						"label": "mapping(uint256 => address)",
						"numberOfBytes": "32",
						"value": "t_address"
					},
					"t_uint256": {
						"encoding": "inplace",
						"label": "uint256",
						"numberOfBytes": "32"
					}
				}
			},
			"userdoc": {
				"kind": "user",
				"methods": {},
				"version": 1
			}
		}
	}
}