{
	"contracts/factory.sol": {
		"CounterFactory": {
			"abi": [
				{
					"constant": false,
					"inputs": [],
					"name": "createCounter",
					"outputs": [],
					"payable": false,
					"stateMutability": "nonpayable",
					"type": "function"
				},
				{
					"constant": true,
					"inputs": [
						{
							"internalType": "address",
							"name": "account",
							"type": "address"
						}
					],
					"name": "getCount",
					"outputs": [
						{
							"internalType": "uint256",
							"name": "",
							"type": "uint256"
						}
					],
					"payable": false,
					"stateMutability": "view",
					"type": "function"
				},
				{
					"constant": true,
					"inputs": [],
					"name": "getMyCount",
					"outputs": [
						{
							"internalType": "uint256",
							"name": "",
							"type": "uint256"
						}
					],
					"payable": false,
					"stateMutability": "view",
					"type": "function"
				},
				{
					"constant": false,
					"inputs": [],
					"name": "increment",
					"outputs": [],
					"payable": false,
					"stateMutability": "nonpayable",
					"type": "function"
				}
			],
			"devdoc": {
				"methods": {}
			},
			"evm": {
				"assembly": "    /* \"contracts/factory.sol\":717:1409  contract CounterFactory {\r... */\n  mstore(0x40, 0x80)\n  callvalue\n    /* \"--CODEGEN--\":8:17   */\n  dup1\n    /* \"--CODEGEN--\":5:7   */\n  iszero\n  tag_1\n  jumpi\n    /* \"--CODEGEN--\":30:31   */\n  0x00\n    /* \"--CODEGEN--\":27:28   */\n  dup1\n    /* \"--CODEGEN--\":20:32   */\n  revert\n    /* \"--CODEGEN--\":5:7   */\ntag_1:\n    /* \"contracts/factory.sol\":717:1409  contract CounterFactory {\r... */\n  pop\n  dataSize(sub_0)\n  dup1\n  dataOffset(sub_0)\n  0x00\n  codecopy\n  0x00\n  return\nstop\n\nsub_0: assembly {\n        /* \"contracts/factory.sol\":717:1409  contract CounterFactory {\r... */\n      mstore(0x40, 0x80)\n      callvalue\n        /* \"--CODEGEN--\":8:17   */\n      dup1\n        /* \"--CODEGEN--\":5:7   */\n      iszero\n      tag_1\n      jumpi\n        /* \"--CODEGEN--\":30:31   */\n      0x00\n        /* \"--CODEGEN--\":27:28   */\n      dup1\n        /* \"--CODEGEN--\":20:32   */\n      revert\n        /* \"--CODEGEN--\":5:7   */\n    tag_1:\n        /* \"contracts/factory.sol\":717:1409  contract CounterFactory {\r... */\n      pop\n      jumpi(tag_2, lt(calldatasize, 0x04))\n      shr(0xe0, calldataload(0x00))\n      dup1\n      0x4f0cd27b\n      eq\n      tag_3\n      jumpi\n      dup1\n      0x4fc9fd50\n      eq\n      tag_4\n      jumpi\n      dup1\n      0x78b52948\n      eq\n      tag_5\n      jumpi\n      dup1\n      0xd09de08a\n      eq\n      tag_6\n      jumpi\n    tag_2:\n      0x00\n      dup1\n      revert\n        /* \"contracts/factory.sol\":1121:1296  function getCount(address account) public view returns (uint256) {\r... */\n    tag_3:\n      tag_7\n      0x04\n      dup1\n      calldatasize\n      sub\n        /* \"--CODEGEN--\":13:15   */\n      0x20\n        /* \"--CODEGEN--\":8:11   */\n      dup2\n        /* \"--CODEGEN--\":5:16   */\n      lt\n        /* \"--CODEGEN--\":2:4   */\n      iszero\n      tag_8\n      jumpi\n        /* \"--CODEGEN--\":29:30   */\n      0x00\n        /* \"--CODEGEN--\":26:27   */\n      dup1\n        /* \"--CODEGEN--\":19:31   */\n      revert\n        /* \"--CODEGEN--\":2:4   */\n    tag_8:\n        /* \"contracts/factory.sol\":1121:1296  function getCount(address account) public view returns (uint256) {\r... */\n      dup2\n      add\n      swap1\n      dup1\n      dup1\n      calldataload\n      0xffffffffffffffffffffffffffffffffffffffff\n      and\n      swap1\n      0x20\n      add\n      swap1\n      swap3\n      swap2\n      swap1\n      pop\n      pop\n      pop\n      tag_9\n      jump\t// in\n    tag_7:\n      mload(0x40)\n      dup1\n      dup3\n      dup2\n      mstore\n      0x20\n      add\n      swap2\n      pop\n      pop\n      mload(0x40)\n      dup1\n      swap2\n      sub\n      swap1\n      return\n        /* \"contracts/factory.sol\":1304:1404  function getMyCount() public view returns (uint256) {\r... */\n    tag_4:\n      tag_10\n      tag_11\n      jump\t// in\n    tag_10:\n      mload(0x40)\n      dup1\n      dup3\n      dup2\n      mstore\n      0x20\n      add\n      swap2\n      pop\n      pop\n      mload(0x40)\n      dup1\n      swap2\n      sub\n      swap1\n      return\n        /* \"contracts/factory.sol\":796:950  function createCounter() public {\r... */\n    tag_5:\n      tag_12\n      tag_13\n      jump\t// in\n    tag_12:\n      stop\n        /* \"contracts/factory.sol\":958:1113  function increment() public {\r... */\n    tag_6:\n      tag_14\n      tag_15\n      jump\t// in\n    tag_14:\n      stop\n        /* \"contracts/factory.sol\":1121:1296  function getCount(address account) public view returns (uint256) {\r... */\n    tag_9:\n        /* \"contracts/factory.sol\":1177:1184  uint256 */\n      0x00\n        /* \"contracts/factory.sol\":1236:1237  0 */\n      dup1\n        /* \"contracts/factory.sol\":1206:1238  _counters[account] != Counter(0) */\n      0xffffffffffffffffffffffffffffffffffffffff\n      and\n        /* \"contracts/factory.sol\":1206:1215  _counters */\n      0x00\n        /* \"contracts/factory.sol\":1206:1224  _counters[account] */\n      dup1\n        /* \"contracts/factory.sol\":1216:1223  account */\n      dup5\n        /* \"contracts/factory.sol\":1206:1224  _counters[account] */\n      0xffffffffffffffffffffffffffffffffffffffff\n      and\n      0xffffffffffffffffffffffffffffffffffffffff\n      and\n      dup2\n      mstore\n      0x20\n      add\n      swap1\n      dup2\n      mstore\n      0x20\n      add\n      0x00\n      keccak256\n      0x00\n      swap1\n      sload\n      swap1\n      0x0100\n      exp\n      swap1\n      div\n      0xffffffffffffffffffffffffffffffffffffffff\n      and\n        /* \"contracts/factory.sol\":1206:1238  _counters[account] != Counter(0) */\n      0xffffffffffffffffffffffffffffffffffffffff\n      and\n      eq\n      iszero\n        /* \"contracts/factory.sol\":1197:1239  require (_counters[account] != Counter(0)) */\n      tag_17\n      jumpi\n      0x00\n      dup1\n      revert\n    tag_17:\n        /* \"contracts/factory.sol\":1258:1267  _counters */\n      0x00\n        /* \"contracts/factory.sol\":1258:1276  _counters[account] */\n      dup1\n        /* \"contracts/factory.sol\":1268:1275  account */\n      dup4\n        /* \"contracts/factory.sol\":1258:1276  _counters[account] */\n      0xffffffffffffffffffffffffffffffffffffffff\n      and\n      0xffffffffffffffffffffffffffffffffffffffff\n      and\n      dup2\n      mstore\n      0x20\n      add\n      swap1\n      dup2\n      mstore\n      0x20\n      add\n      0x00\n      keccak256\n      0x00\n      swap1\n      sload\n      swap1\n      0x0100\n      exp\n      swap1\n      div\n      0xffffffffffffffffffffffffffffffffffffffff\n      and\n        /* \"contracts/factory.sol\":1258:1285  _counters[account].getCount */\n      0xffffffffffffffffffffffffffffffffffffffff\n      and\n      0xa87d942c\n        /* \"contracts/factory.sol\":1258:1287  _counters[account].getCount() */\n      mload(0x40)\n      dup2\n      0xffffffff\n      and\n      0xe0\n      shl\n      dup2\n      mstore\n      0x04\n      add\n      0x20\n      mload(0x40)\n      dup1\n      dup4\n      sub\n      dup2\n      dup7\n      dup1\n      extcodesize\n      iszero\n        /* \"--CODEGEN--\":8:17   */\n      dup1\n        /* \"--CODEGEN--\":5:7   */\n      iszero\n      tag_18\n      jumpi\n        /* \"--CODEGEN--\":30:31   */\n      0x00\n        /* \"--CODEGEN--\":27:28   */\n      dup1\n        /* \"--CODEGEN--\":20:32   */\n      revert\n        /* \"--CODEGEN--\":5:7   */\n    tag_18:\n        /* \"contracts/factory.sol\":1258:1287  _counters[account].getCount() */\n      pop\n      gas\n      staticcall\n      iszero\n        /* \"--CODEGEN--\":8:17   */\n      dup1\n        /* \"--CODEGEN--\":5:7   */\n      iszero\n      tag_19\n      jumpi\n        /* \"--CODEGEN--\":45:61   */\n      returndatasize\n        /* \"--CODEGEN--\":42:43   */\n      0x00\n        /* \"--CODEGEN--\":39:40   */\n      dup1\n        /* \"--CODEGEN--\":24:62   */\n      returndatacopy\n        /* \"--CODEGEN--\":77:93   */\n      returndatasize\n        /* \"--CODEGEN--\":74:75   */\n      0x00\n        /* \"--CODEGEN--\":67:94   */\n      revert\n        /* \"--CODEGEN--\":5:7   */\n    tag_19:\n        /* \"contracts/factory.sol\":1258:1287  _counters[account].getCount() */\n      pop\n      pop\n      pop\n      pop\n      mload(0x40)\n      returndatasize\n        /* \"--CODEGEN--\":13:15   */\n      0x20\n        /* \"--CODEGEN--\":8:11   */\n      dup2\n        /* \"--CODEGEN--\":5:16   */\n      lt\n        /* \"--CODEGEN--\":2:4   */\n      iszero\n      tag_20\n      jumpi\n        /* \"--CODEGEN--\":29:30   */\n      0x00\n        /* \"--CODEGEN--\":26:27   */\n      dup1\n        /* \"--CODEGEN--\":19:31   */\n      revert\n        /* \"--CODEGEN--\":2:4   */\n    tag_20:\n        /* \"contracts/factory.sol\":1258:1287  _counters[account].getCount() */\n      dup2\n      add\n      swap1\n      dup1\n      dup1\n      mload\n      swap1\n      0x20\n      add\n      swap1\n      swap3\n      swap2\n      swap1\n      pop\n      pop\n      pop\n        /* \"contracts/factory.sol\":1250:1288  return (_counters[account].getCount()) */\n      swap1\n      pop\n        /* \"contracts/factory.sol\":1121:1296  function getCount(address account) public view returns (uint256) {\r... */\n      swap2\n      swap1\n      pop\n      jump\t// out\n        /* \"contracts/factory.sol\":1304:1404  function getMyCount() public view returns (uint256) {\r... */\n    tag_11:\n        /* \"contracts/factory.sol\":1347:1354  uint256 */\n      0x00\n        /* \"contracts/factory.sol\":1375:1395  getCount(msg.sender) */\n      tag_22\n        /* \"contracts/factory.sol\":1384:1394  msg.sender */\n      caller\n        /* \"contracts/factory.sol\":1375:1383  getCount */\n      tag_9\n        /* \"contracts/factory.sol\":1375:1395  getCount(msg.sender) */\n      jump\t// in\n    tag_22:\n        /* \"contracts/factory.sol\":1367:1396  return (getCount(msg.sender)) */\n      swap1\n      pop\n        /* \"contracts/factory.sol\":1304:1404  function getMyCount() public view returns (uint256) {\r... */\n      swap1\n      jump\t// out\n        /* \"contracts/factory.sol\":796:950  function createCounter() public {\r... */\n    tag_13:\n        /* \"contracts/factory.sol\":881:882  0 */\n      0x00\n        /* \"contracts/factory.sol\":848:883  _counters[msg.sender] == Counter(0) */\n      0xffffffffffffffffffffffffffffffffffffffff\n      and\n        /* \"contracts/factory.sol\":848:857  _counters */\n      0x00\n        /* \"contracts/factory.sol\":848:869  _counters[msg.sender] */\n      dup1\n        /* \"contracts/factory.sol\":858:868  msg.sender */\n      caller\n        /* \"contracts/factory.sol\":848:869  _counters[msg.sender] */\n      0xffffffffffffffffffffffffffffffffffffffff\n      and\n      0xffffffffffffffffffffffffffffffffffffffff\n      and\n      dup2\n      mstore\n      0x20\n      add\n      swap1\n      dup2\n      mstore\n      0x20\n      add\n      0x00\n      keccak256\n      0x00\n      swap1\n      sload\n      swap1\n      0x0100\n      exp\n      swap1\n      div\n      0xffffffffffffffffffffffffffffffffffffffff\n      and\n        /* \"contracts/factory.sol\":848:883  _counters[msg.sender] == Counter(0) */\n      0xffffffffffffffffffffffffffffffffffffffff\n      and\n      eq\n        /* \"contracts/factory.sol\":839:884  require (_counters[msg.sender] == Counter(0)) */\n      tag_24\n      jumpi\n      0x00\n      dup1\n      revert\n    tag_24:\n        /* \"contracts/factory.sol\":931:941  msg.sender */\n      caller\n        /* \"contracts/factory.sol\":919:942  new Counter(msg.sender) */\n      mload(0x40)\n      tag_25\n      swap1\n      tag_26\n      jump\t// in\n    tag_25:\n      dup1\n      dup3\n      0xffffffffffffffffffffffffffffffffffffffff\n      and\n      0xffffffffffffffffffffffffffffffffffffffff\n      and\n      dup2\n      mstore\n      0x20\n      add\n      swap2\n      pop\n      pop\n      mload(0x40)\n      dup1\n      swap2\n      sub\n      swap1\n      0x00\n      create\n      dup1\n      iszero\n        /* \"--CODEGEN--\":8:17   */\n      dup1\n        /* \"--CODEGEN--\":5:7   */\n      iszero\n      tag_27\n      jumpi\n        /* \"--CODEGEN--\":45:61   */\n      returndatasize\n        /* \"--CODEGEN--\":42:43   */\n      0x00\n        /* \"--CODEGEN--\":39:40   */\n      dup1\n        /* \"--CODEGEN--\":24:62   */\n      returndatacopy\n        /* \"--CODEGEN--\":77:93   */\n      returndatasize\n        /* \"--CODEGEN--\":74:75   */\n      0x00\n        /* \"--CODEGEN--\":67:94   */\n      revert\n        /* \"--CODEGEN--\":5:7   */\n    tag_27:\n        /* \"contracts/factory.sol\":919:942  new Counter(msg.sender) */\n      pop\n        /* \"contracts/factory.sol\":895:904  _counters */\n      0x00\n        /* \"contracts/factory.sol\":895:916  _counters[msg.sender] */\n      dup1\n        /* \"contracts/factory.sol\":905:915  msg.sender */\n      caller\n        /* \"contracts/factory.sol\":895:916  _counters[msg.sender] */\n      0xffffffffffffffffffffffffffffffffffffffff\n      and\n      0xffffffffffffffffffffffffffffffffffffffff\n      and\n      dup2\n      mstore\n      0x20\n      add\n      swap1\n      dup2\n      mstore\n      0x20\n      add\n      0x00\n      keccak256\n      0x00\n        /* \"contracts/factory.sol\":895:942  _counters[msg.sender] = new Counter(msg.sender) */\n      0x0100\n      exp\n      dup2\n      sload\n      dup2\n      0xffffffffffffffffffffffffffffffffffffffff\n      mul\n      not\n      and\n      swap1\n      dup4\n      0xffffffffffffffffffffffffffffffffffffffff\n      and\n      mul\n      or\n      swap1\n      sstore\n      pop\n        /* \"contracts/factory.sol\":796:950  function createCounter() public {\r... */\n      jump\t// out\n        /* \"contracts/factory.sol\":958:1113  function increment() public {\r... */\n    tag_15:\n        /* \"contracts/factory.sol\":1039:1040  0 */\n      0x00\n        /* \"contracts/factory.sol\":1006:1041  _counters[msg.sender] != Counter(0) */\n      0xffffffffffffffffffffffffffffffffffffffff\n      and\n        /* \"contracts/factory.sol\":1006:1015  _counters */\n      0x00\n        /* \"contracts/factory.sol\":1006:1027  _counters[msg.sender] */\n      dup1\n        /* \"contracts/factory.sol\":1016:1026  msg.sender */\n      caller\n        /* \"contracts/factory.sol\":1006:1027  _counters[msg.sender] */\n      0xffffffffffffffffffffffffffffffffffffffff\n      and\n      0xffffffffffffffffffffffffffffffffffffffff\n      and\n      dup2\n      mstore\n      0x20\n      add\n      swap1\n      dup2\n      mstore\n      0x20\n      add\n      0x00\n      keccak256\n      0x00\n      swap1\n      sload\n      swap1\n      0x0100\n      exp\n      swap1\n      div\n      0xffffffffffffffffffffffffffffffffffffffff\n      and\n        /* \"contracts/factory.sol\":1006:1041  _counters[msg.sender] != Counter(0) */\n      0xffffffffffffffffffffffffffffffffffffffff\n      and\n      eq\n      iszero\n        /* \"contracts/factory.sol\":997:1042  require (_counters[msg.sender] != Counter(0)) */\n      tag_29\n      jumpi\n      0x00\n      dup1\n      revert\n    tag_29:\n        /* \"contracts/factory.sol\":1061:1070  _counters */\n      0x00\n        /* \"contracts/factory.sol\":1061:1082  _counters[msg.sender] */\n      dup1\n        /* \"contracts/factory.sol\":1071:1081  msg.sender */\n      caller\n        /* \"contracts/factory.sol\":1061:1082  _counters[msg.sender] */\n      0xffffffffffffffffffffffffffffffffffffffff\n      and\n      0xffffffffffffffffffffffffffffffffffffffff\n      and\n      dup2\n      mstore\n      0x20\n      add\n      swap1\n      dup2\n      mstore\n      0x20\n      add\n      0x00\n      keccak256\n      0x00\n      swap1\n      sload\n      swap1\n      0x0100\n      exp\n      swap1\n      div\n      0xffffffffffffffffffffffffffffffffffffffff\n      and\n        /* \"contracts/factory.sol\":1053:1093  Counter(_counters[msg.sender]).increment */\n      0xffffffffffffffffffffffffffffffffffffffff\n      and\n      0x45f43dd8\n        /* \"contracts/factory.sol\":1094:1104  msg.sender */\n      caller\n        /* \"contracts/factory.sol\":1053:1105  Counter(_counters[msg.sender]).increment(msg.sender) */\n      mload(0x40)\n      dup3\n      0xffffffff\n      and\n      0xe0\n      shl\n      dup2\n      mstore\n      0x04\n      add\n      dup1\n      dup3\n      0xffffffffffffffffffffffffffffffffffffffff\n      and\n      0xffffffffffffffffffffffffffffffffffffffff\n      and\n      dup2\n      mstore\n      0x20\n      add\n      swap2\n      pop\n      pop\n      0x00\n      mload(0x40)\n      dup1\n      dup4\n      sub\n      dup2\n      0x00\n      dup8\n      dup1\n      extcodesize\n      iszero\n        /* \"--CODEGEN--\":8:17   */\n      dup1\n        /* \"--CODEGEN--\":5:7   */\n      iszero\n      tag_30\n      jumpi\n        /* \"--CODEGEN--\":30:31   */\n      0x00\n        /* \"--CODEGEN--\":27:28   */\n      dup1\n        /* \"--CODEGEN--\":20:32   */\n      revert\n        /* \"--CODEGEN--\":5:7   */\n    tag_30:\n        /* \"contracts/factory.sol\":1053:1105  Counter(_counters[msg.sender]).increment(msg.sender) */\n      pop\n      gas\n      call\n      iszero\n        /* \"--CODEGEN--\":8:17   */\n      dup1\n        /* \"--CODEGEN--\":5:7   */\n      iszero\n      tag_31\n      jumpi\n        /* \"--CODEGEN--\":45:61   */\n      returndatasize\n        /* \"--CODEGEN--\":42:43   */\n      0x00\n        /* \"--CODEGEN--\":39:40   */\n      dup1\n        /* \"--CODEGEN--\":24:62   */\n      returndatacopy\n        /* \"--CODEGEN--\":77:93   */\n      returndatasize\n        /* \"--CODEGEN--\":74:75   */\n      0x00\n        /* \"--CODEGEN--\":67:94   */\n      revert\n        /* \"--CODEGEN--\":5:7   */\n    tag_31:\n        /* \"contracts/factory.sol\":1053:1105  Counter(_counters[msg.sender]).increment(msg.sender) */\n      pop\n      pop\n      pop\n      pop\n        /* \"contracts/factory.sol\":958:1113  function increment() public {\r... */\n      jump\t// out\n        /* \"contracts/factory.sol\":717:1409  contract CounterFactory {\r... */\n    tag_26:\n      dataSize(sub_0)\n      dup1\n      dataOffset(sub_0)\n      dup4\n      codecopy\n      add\n      swap1\n      jump\t// out\n    stop\n\n    sub_0: assembly {\n            /* \"contracts/factory.sol\":27:713  contract Counter {\r... */\n          mstore(0x40, 0x80)\n            /* \"contracts/factory.sol\":411:510  constructor(address owner) public {\r... */\n          callvalue\n            /* \"--CODEGEN--\":8:17   */\n          dup1\n            /* \"--CODEGEN--\":5:7   */\n          iszero\n          tag_1\n          jumpi\n            /* \"--CODEGEN--\":30:31   */\n          0x00\n            /* \"--CODEGEN--\":27:28   */\n          dup1\n            /* \"--CODEGEN--\":20:32   */\n          revert\n            /* \"--CODEGEN--\":5:7   */\n        tag_1:\n            /* \"contracts/factory.sol\":411:510  constructor(address owner) public {\r... */\n          pop\n          mload(0x40)\n          sub(codesize, bytecodeSize)\n          dup1\n          bytecodeSize\n          dup4\n          codecopy\n          dup2\n          dup2\n          add\n          0x40\n          mstore\n            /* \"--CODEGEN--\":13:15   */\n          0x20\n            /* \"--CODEGEN--\":8:11   */\n          dup2\n            /* \"--CODEGEN--\":5:16   */\n          lt\n            /* \"--CODEGEN--\":2:4   */\n          iszero\n          tag_2\n          jumpi\n            /* \"--CODEGEN--\":29:30   */\n          0x00\n            /* \"--CODEGEN--\":26:27   */\n          dup1\n            /* \"--CODEGEN--\":19:31   */\n          revert\n            /* \"--CODEGEN--\":2:4   */\n        tag_2:\n            /* \"contracts/factory.sol\":411:510  constructor(address owner) public {\r... */\n          dup2\n          add\n          swap1\n          dup1\n          dup1\n          mload\n          swap1\n          0x20\n          add\n          swap1\n          swap3\n          swap2\n          swap1\n          pop\n          pop\n          pop\n            /* \"contracts/factory.sol\":465:470  owner */\n          dup1\n            /* \"contracts/factory.sol\":456:462  _owner */\n          0x01\n          0x00\n            /* \"contracts/factory.sol\":456:470  _owner = owner */\n          0x0100\n          exp\n          dup2\n          sload\n          dup2\n          0xffffffffffffffffffffffffffffffffffffffff\n          mul\n          not\n          and\n          swap1\n          dup4\n          0xffffffffffffffffffffffffffffffffffffffff\n          and\n          mul\n          or\n          swap1\n          sstore\n          pop\n            /* \"contracts/factory.sol\":492:502  msg.sender */\n          caller\n            /* \"contracts/factory.sol\":481:489  _factory */\n          0x02\n          0x00\n            /* \"contracts/factory.sol\":481:502  _factory = msg.sender */\n          0x0100\n          exp\n          dup2\n          sload\n          dup2\n          0xffffffffffffffffffffffffffffffffffffffff\n          mul\n          not\n          and\n          swap1\n          dup4\n          0xffffffffffffffffffffffffffffffffffffffff\n          and\n          mul\n          or\n          swap1\n          sstore\n          pop\n            /* \"contracts/factory.sol\":411:510  constructor(address owner) public {\r... */\n          pop\n            /* \"contracts/factory.sol\":27:713  contract Counter {\r... */\n          dataSize(sub_0)\n          dup1\n          dataOffset(sub_0)\n          0x00\n          codecopy\n          0x00\n          return\n        stop\n\n        sub_0: assembly {\n                /* \"contracts/factory.sol\":27:713  contract Counter {\r... */\n              mstore(0x40, 0x80)\n              callvalue\n                /* \"--CODEGEN--\":8:17   */\n              dup1\n                /* \"--CODEGEN--\":5:7   */\n              iszero\n              tag_1\n              jumpi\n                /* \"--CODEGEN--\":30:31   */\n              0x00\n                /* \"--CODEGEN--\":27:28   */\n              dup1\n                /* \"--CODEGEN--\":20:32   */\n              revert\n                /* \"--CODEGEN--\":5:7   */\n            tag_1:\n                /* \"contracts/factory.sol\":27:713  contract Counter {\r... */\n              pop\n              jumpi(tag_2, lt(calldatasize, 0x04))\n              shr(0xe0, calldataload(0x00))\n              dup1\n              0x45f43dd8\n              eq\n              tag_3\n              jumpi\n              dup1\n              0xa87d942c\n              eq\n              tag_4\n              jumpi\n            tag_2:\n              0x00\n              dup1\n              revert\n                /* \"contracts/factory.sol\":609:708  function increment(address caller) public onlyFactory onlyOwner(caller) {\r... */\n            tag_3:\n              tag_5\n              0x04\n              dup1\n              calldatasize\n              sub\n                /* \"--CODEGEN--\":13:15   */\n              0x20\n                /* \"--CODEGEN--\":8:11   */\n              dup2\n                /* \"--CODEGEN--\":5:16   */\n              lt\n                /* \"--CODEGEN--\":2:4   */\n              iszero\n              tag_6\n              jumpi\n                /* \"--CODEGEN--\":29:30   */\n              0x00\n                /* \"--CODEGEN--\":26:27   */\n              dup1\n                /* \"--CODEGEN--\":19:31   */\n              revert\n                /* \"--CODEGEN--\":2:4   */\n            tag_6:\n                /* \"contracts/factory.sol\":609:708  function increment(address caller) public onlyFactory onlyOwner(caller) {\r... */\n              dup2\n              add\n              swap1\n              dup1\n              dup1\n              calldataload\n              0xffffffffffffffffffffffffffffffffffffffff\n              and\n              swap1\n              0x20\n              add\n              swap1\n              swap3\n              swap2\n              swap1\n              pop\n              pop\n              pop\n              tag_7\n              jump\t// in\n            tag_5:\n              stop\n                /* \"contracts/factory.sol\":519:601  function getCount() public view returns (uint256) {\r... */\n            tag_4:\n              tag_8\n              tag_9\n              jump\t// in\n            tag_8:\n              mload(0x40)\n              dup1\n              dup3\n              dup2\n              mstore\n              0x20\n              add\n              swap2\n              pop\n              pop\n              mload(0x40)\n              dup1\n              swap2\n              sub\n              swap1\n              return\n                /* \"contracts/factory.sol\":609:708  function increment(address caller) public onlyFactory onlyOwner(caller) {\r... */\n            tag_7:\n                /* \"contracts/factory.sol\":342:350  _factory */\n              0x02\n              0x00\n              swap1\n              sload\n              swap1\n              0x0100\n              exp\n              swap1\n              div\n              0xffffffffffffffffffffffffffffffffffffffff\n              and\n                /* \"contracts/factory.sol\":328:350  msg.sender == _factory */\n              0xffffffffffffffffffffffffffffffffffffffff\n              and\n                /* \"contracts/factory.sol\":328:338  msg.sender */\n              caller\n                /* \"contracts/factory.sol\":328:350  msg.sender == _factory */\n              0xffffffffffffffffffffffffffffffffffffffff\n              and\n              eq\n                /* \"contracts/factory.sol\":320:382  require(msg.sender == _factory, \"You need to use the factory\") */\n              tag_11\n              jumpi\n              mload(0x40)\n              0x08c379a000000000000000000000000000000000000000000000000000000000\n              dup2\n              mstore\n              0x04\n              add\n              dup1\n              dup1\n              0x20\n              add\n              dup3\n              dup2\n              sub\n              dup3\n              mstore\n              0x1b\n              dup2\n              mstore\n              0x20\n              add\n              dup1\n              0x596f75206e65656420746f207573652074686520666163746f72790000000000\n              dup2\n              mstore\n              pop\n              0x20\n              add\n              swap2\n              pop\n              pop\n              mload(0x40)\n              dup1\n              swap2\n              sub\n              swap1\n              revert\n            tag_11:\n                /* \"contracts/factory.sol\":673:679  caller */\n              dup1\n                /* \"contracts/factory.sol\":211:217  _owner */\n              0x01\n              0x00\n              swap1\n              sload\n              swap1\n              0x0100\n              exp\n              swap1\n              div\n              0xffffffffffffffffffffffffffffffffffffffff\n              and\n                /* \"contracts/factory.sol\":201:217  caller == _owner */\n              0xffffffffffffffffffffffffffffffffffffffff\n              and\n                /* \"contracts/factory.sol\":201:207  caller */\n              dup2\n                /* \"contracts/factory.sol\":201:217  caller == _owner */\n              0xffffffffffffffffffffffffffffffffffffffff\n              and\n              eq\n                /* \"contracts/factory.sol\":193:258  require(caller == _owner, \"You're not the owner of the contract\") */\n              tag_13\n              jumpi\n              mload(0x40)\n              0x08c379a000000000000000000000000000000000000000000000000000000000\n              dup2\n              mstore\n              0x04\n              add\n              dup1\n              dup1\n              0x20\n              add\n              dup3\n              dup2\n              sub\n              dup3\n              mstore\n              0x24\n              dup2\n              mstore\n              0x20\n              add\n              dup1\n              data_e4d24787af80a508cde8ca2f2ddea99c072da9abbbeb4eac011d69c4a579656a\n              0x24\n              swap2\n              codecopy\n              0x40\n              add\n              swap2\n              pop\n              pop\n              mload(0x40)\n              dup1\n              swap2\n              sub\n              swap1\n              revert\n            tag_13:\n                /* \"contracts/factory.sol\":692:698  _count */\n              0x00\n              dup1\n                /* \"contracts/factory.sol\":692:700  _count++ */\n              dup2\n              sload\n              dup1\n              swap3\n              swap2\n              swap1\n              0x01\n              add\n              swap2\n              swap1\n              pop\n              sstore\n              pop\n                /* \"contracts/factory.sol\":393:394  _ */\n              pop\n                /* \"contracts/factory.sol\":609:708  function increment(address caller) public onlyFactory onlyOwner(caller) {\r... */\n              pop\n              jump\t// out\n                /* \"contracts/factory.sol\":519:601  function getCount() public view returns (uint256) {\r... */\n            tag_9:\n                /* \"contracts/factory.sol\":560:567  uint256 */\n              0x00\n                /* \"contracts/factory.sol\":587:593  _count */\n              dup1\n              sload\n                /* \"contracts/factory.sol\":580:593  return _count */\n              swap1\n              pop\n                /* \"contracts/factory.sol\":519:601  function getCount() public view returns (uint256) {\r... */\n              swap1\n              jump\t// out\n            stop\n            data_e4d24787af80a508cde8ca2f2ddea99c072da9abbbeb4eac011d69c4a579656a 596f75277265206e6f7420746865206f776e6572206f662074686520636f6e7472616374\n\n            auxdata: 0xa265627a7a7231582088d926253f9861df97c5db14878e6bc62e02b623ca36b440e86d3f3f2594a41664736f6c63430005110032\n        }\n    }\n\n    auxdata: 0xa265627a7a723158209b58187ea2def7e017318521070f2a914454223abac1459eaddea68d1607e9a764736f6c63430005110032\n}\n",
				"bytecode": {
					"linkReferences": {},
					"object": "608060405234801561001057600080fd5b50610904806100206000396000f3fe608060405234801561001057600080fd5b506004361061004c5760003560e01c80634f0cd27b146100515780634fc9fd50146100a957806378b52948146100c7578063d09de08a146100d1575b600080fd5b6100936004803603602081101561006757600080fd5b81019080803573ffffffffffffffffffffffffffffffffffffffff1690602001909291905050506100db565b6040518082815260200191505060405180910390f35b6100b161025a565b6040518082815260200191505060405180910390f35b6100cf61026a565b005b6100d96103df565b005b60008073ffffffffffffffffffffffffffffffffffffffff166000808473ffffffffffffffffffffffffffffffffffffffff1673ffffffffffffffffffffffffffffffffffffffff16815260200190815260200160002060009054906101000a900473ffffffffffffffffffffffffffffffffffffffff1673ffffffffffffffffffffffffffffffffffffffff16141561017457600080fd5b6000808373ffffffffffffffffffffffffffffffffffffffff1673ffffffffffffffffffffffffffffffffffffffff16815260200190815260200160002060009054906101000a900473ffffffffffffffffffffffffffffffffffffffff1673ffffffffffffffffffffffffffffffffffffffff1663a87d942c6040518163ffffffff1660e01b815260040160206040518083038186803b15801561021857600080fd5b505afa15801561022c573d6000803e3d6000fd5b505050506040513d602081101561024257600080fd5b81019080805190602001909291905050509050919050565b6000610265336100db565b905090565b600073ffffffffffffffffffffffffffffffffffffffff166000803373ffffffffffffffffffffffffffffffffffffffff1673ffffffffffffffffffffffffffffffffffffffff16815260200190815260200160002060009054906101000a900473ffffffffffffffffffffffffffffffffffffffff1673ffffffffffffffffffffffffffffffffffffffff161461030157600080fd5b3360405161030e9061056e565b808273ffffffffffffffffffffffffffffffffffffffff1673ffffffffffffffffffffffffffffffffffffffff168152602001915050604051809103906000f080158015610360573d6000803e3d6000fd5b506000803373ffffffffffffffffffffffffffffffffffffffff1673ffffffffffffffffffffffffffffffffffffffff16815260200190815260200160002060006101000a81548173ffffffffffffffffffffffffffffffffffffffff021916908373ffffffffffffffffffffffffffffffffffffffff160217905550565b600073ffffffffffffffffffffffffffffffffffffffff166000803373ffffffffffffffffffffffffffffffffffffffff1673ffffffffffffffffffffffffffffffffffffffff16815260200190815260200160002060009054906101000a900473ffffffffffffffffffffffffffffffffffffffff1673ffffffffffffffffffffffffffffffffffffffff16141561047757600080fd5b6000803373ffffffffffffffffffffffffffffffffffffffff1673ffffffffffffffffffffffffffffffffffffffff16815260200190815260200160002060009054906101000a900473ffffffffffffffffffffffffffffffffffffffff1673ffffffffffffffffffffffffffffffffffffffff166345f43dd8336040518263ffffffff1660e01b8152600401808273ffffffffffffffffffffffffffffffffffffffff1673ffffffffffffffffffffffffffffffffffffffff168152602001915050600060405180830381600087803b15801561055457600080fd5b505af1158015610568573d6000803e3d6000fd5b50505050565b6103548061057c8339019056fe608060405234801561001057600080fd5b506040516103543803806103548339818101604052602081101561003357600080fd5b810190808051906020019092919050505080600160006101000a81548173ffffffffffffffffffffffffffffffffffffffff021916908373ffffffffffffffffffffffffffffffffffffffff16021790555033600260006101000a81548173ffffffffffffffffffffffffffffffffffffffff021916908373ffffffffffffffffffffffffffffffffffffffff1602179055505061027e806100d66000396000f3fe608060405234801561001057600080fd5b50600436106100365760003560e01c806345f43dd81461003b578063a87d942c1461007f575b600080fd5b61007d6004803603602081101561005157600080fd5b81019080803573ffffffffffffffffffffffffffffffffffffffff16906020019092919050505061009d565b005b61008761021c565b6040518082815260200191505060405180910390f35b600260009054906101000a900473ffffffffffffffffffffffffffffffffffffffff1673ffffffffffffffffffffffffffffffffffffffff163373ffffffffffffffffffffffffffffffffffffffff1614610160576040517f08c379a000000000000000000000000000000000000000000000000000000000815260040180806020018281038252601b8152602001807f596f75206e65656420746f207573652074686520666163746f7279000000000081525060200191505060405180910390fd5b80600160009054906101000a900473ffffffffffffffffffffffffffffffffffffffff1673ffffffffffffffffffffffffffffffffffffffff168173ffffffffffffffffffffffffffffffffffffffff1614610207576040517f08c379a00000000000000000000000000000000000000000000000000000000081526004018080602001828103825260248152602001806102266024913960400191505060405180910390fd5b60008081548092919060010191905055505050565b6000805490509056fe596f75277265206e6f7420746865206f776e6572206f662074686520636f6e7472616374a265627a7a7231582088d926253f9861df97c5db14878e6bc62e02b623ca36b440e86d3f3f2594a41664736f6c63430005110032a265627a7a723158209b58187ea2def7e017318521070f2a914454223abac1459eaddea68d1607e9a764736f6c63430005110032",
					"opcodes": "PUSH1 0x80 PUSH1 0x40 MSTORE CALLVALUE DUP1 ISZERO PUSH2 0x10 JUMPI PUSH1 0x0 DUP1 REVERT JUMPDEST POP PUSH2 0x904 DUP1 PUSH2 0x20 PUSH1 0x0 CODECOPY PUSH1 0x0 RETURN INVALID PUSH1 0x80 PUSH1 0x40 MSTORE CALLVALUE DUP1 ISZERO PUSH2 0x10 JUMPI PUSH1 0x0 DUP1 REVERT JUMPDEST POP PUSH1 0x4 CALLDATASIZE LT PUSH2 0x4C JUMPI PUSH1 0x0 CALLDATALOAD PUSH1 0xE0 SHR DUP1 PUSH4 0x4F0CD27B EQ PUSH2 0x51 JUMPI DUP1 PUSH4 0x4FC9FD50 EQ PUSH2 0xA9 JUMPI DUP1 PUSH4 0x78B52948 EQ PUSH2 0xC7 JUMPI DUP1 PUSH4 0xD09DE08A EQ PUSH2 0xD1 JUMPI JUMPDEST PUSH1 0x0 DUP1 REVERT JUMPDEST PUSH2 0x93 PUSH1 0x4 DUP1 CALLDATASIZE SUB PUSH1 0x20 DUP2 LT ISZERO PUSH2 0x67 JUMPI PUSH1 0x0 DUP1 REVERT JUMPDEST DUP2 ADD SWAP1 DUP1 DUP1 CALLDATALOAD PUSH20 0xFFFFFFFFFFFFFFFFFFFFFFFFFFFFFFFFFFFFFFFF AND SWAP1 PUSH1 0x20 ADD SWAP1 SWAP3 SWAP2 SWAP1 POP POP POP PUSH2 0xDB JUMP JUMPDEST PUSH1 0x40 MLOAD DUP1 DUP3 DUP2 MSTORE PUSH1 0x20 ADD SWAP2 POP POP PUSH1 0x40 MLOAD DUP1 SWAP2 SUB SWAP1 RETURN JUMPDEST PUSH2 0xB1 PUSH2 0x25A JUMP JUMPDEST PUSH1 0x40 MLOAD DUP1 DUP3 DUP2 MSTORE PUSH1 0x20 ADD SWAP2 POP POP PUSH1 0x40 MLOAD DUP1 SWAP2 SUB SWAP1 RETURN JUMPDEST PUSH2 0xCF PUSH2 0x26A JUMP JUMPDEST STOP JUMPDEST PUSH2 0xD9 PUSH2 0x3DF JUMP JUMPDEST STOP JUMPDEST PUSH1 0x0 DUP1 PUSH20 0xFFFFFFFFFFFFFFFFFFFFFFFFFFFFFFFFFFFFFFFF AND PUSH1 0x0 DUP1 DUP5 PUSH20 0xFFFFFFFFFFFFFFFFFFFFFFFFFFFFFFFFFFFFFFFF AND PUSH20 0xFFFFFFFFFFFFFFFFFFFFFFFFFFFFFFFFFFFFFFFF AND DUP2 MSTORE PUSH1 0x20 ADD SWAP1 DUP2 MSTORE PUSH1 0x20 ADD PUSH1 0x0 KECCAK256 PUSH1 0x0 SWAP1 SLOAD SWAP1 PUSH2 0x100 EXP SWAP1 DIV PUSH20 0xFFFFFFFFFFFFFFFFFFFFFFFFFFFFFFFFFFFFFFFF AND PUSH20 0xFFFFFFFFFFFFFFFFFFFFFFFFFFFFFFFFFFFFFFFF AND EQ ISZERO PUSH2 0x174 JUMPI PUSH1 0x0 DUP1 REVERT JUMPDEST PUSH1 0x0 DUP1 DUP4 PUSH20 0xFFFFFFFFFFFFFFFFFFFFFFFFFFFFFFFFFFFFFFFF AND PUSH20 0xFFFFFFFFFFFFFFFFFFFFFFFFFFFFFFFFFFFFFFFF AND DUP2 MSTORE PUSH1 0x20 ADD SWAP1 DUP2 MSTORE PUSH1 0x20 ADD PUSH1 0x0 KECCAK256 PUSH1 0x0 SWAP1 SLOAD SWAP1 PUSH2 0x100 EXP SWAP1 DIV PUSH20 0xFFFFFFFFFFFFFFFFFFFFFFFFFFFFFFFFFFFFFFFF AND PUSH20 0xFFFFFFFFFFFFFFFFFFFFFFFFFFFFFFFFFFFFFFFF AND PUSH4 0xA87D942C PUSH1 0x40 MLOAD DUP2 PUSH4 0xFFFFFFFF AND PUSH1 0xE0 SHL DUP2 MSTORE PUSH1 0x4 ADD PUSH1 0x20 PUSH1 0x40 MLOAD DUP1 DUP4 SUB DUP2 DUP7 DUP1 EXTCODESIZE ISZERO DUP1 ISZERO PUSH2 0x218 JUMPI PUSH1 0x0 DUP1 REVERT JUMPDEST POP GAS STATICCALL ISZERO DUP1 ISZERO PUSH2 0x22C JUMPI RETURNDATASIZE PUSH1 0x0 DUP1 RETURNDATACOPY RETURNDATASIZE PUSH1 0x0 REVERT JUMPDEST POP POP POP POP PUSH1 0x40 MLOAD RETURNDATASIZE PUSH1 0x20 DUP2 LT ISZERO PUSH2 0x242 JUMPI PUSH1 0x0 DUP1 REVERT JUMPDEST DUP2 ADD SWAP1 DUP1 DUP1 MLOAD SWAP1 PUSH1 0x20 ADD SWAP1 SWAP3 SWAP2 SWAP1 POP POP POP SWAP1 POP SWAP2 SWAP1 POP JUMP JUMPDEST PUSH1 0x0 PUSH2 0x265 CALLER PUSH2 0xDB JUMP JUMPDEST SWAP1 POP SWAP1 JUMP JUMPDEST PUSH1 0x0 PUSH20 0xFFFFFFFFFFFFFFFFFFFFFFFFFFFFFFFFFFFFFFFF AND PUSH1 0x0 DUP1 CALLER PUSH20 0xFFFFFFFFFFFFFFFFFFFFFFFFFFFFFFFFFFFFFFFF AND PUSH20 0xFFFFFFFFFFFFFFFFFFFFFFFFFFFFFFFFFFFFFFFF AND DUP2 MSTORE PUSH1 0x20 ADD SWAP1 DUP2 MSTORE PUSH1 0x20 ADD PUSH1 0x0 KECCAK256 PUSH1 0x0 SWAP1 SLOAD SWAP1 PUSH2 0x100 EXP SWAP1 DIV PUSH20 0xFFFFFFFFFFFFFFFFFFFFFFFFFFFFFFFFFFFFFFFF AND PUSH20 0xFFFFFFFFFFFFFFFFFFFFFFFFFFFFFFFFFFFFFFFF AND EQ PUSH2 0x301 JUMPI PUSH1 0x0 DUP1 REVERT JUMPDEST CALLER PUSH1 0x40 MLOAD PUSH2 0x30E SWAP1 PUSH2 0x56E JUMP JUMPDEST DUP1 DUP3 PUSH20 0xFFFFFFFFFFFFFFFFFFFFFFFFFFFFFFFFFFFFFFFF AND PUSH20 0xFFFFFFFFFFFFFFFFFFFFFFFFFFFFFFFFFFFFFFFF AND DUP2 MSTORE PUSH1 0x20 ADD SWAP2 POP POP PUSH1 0x40 MLOAD DUP1 SWAP2 SUB SWAP1 PUSH1 0x0 CREATE DUP1 ISZERO DUP1 ISZERO PUSH2 0x360 JUMPI RETURNDATASIZE PUSH1 0x0 DUP1 RETURNDATACOPY RETURNDATASIZE PUSH1 0x0 REVERT JUMPDEST POP PUSH1 0x0 DUP1 CALLER PUSH20 0xFFFFFFFFFFFFFFFFFFFFFFFFFFFFFFFFFFFFFFFF AND PUSH20 0xFFFFFFFFFFFFFFFFFFFFFFFFFFFFFFFFFFFFFFFF AND DUP2 MSTORE PUSH1 0x20 ADD SWAP1 DUP2 MSTORE PUSH1 0x20 ADD PUSH1 0x0 KECCAK256 PUSH1 0x0 PUSH2 0x100 EXP DUP2 SLOAD DUP2 PUSH20 0xFFFFFFFFFFFFFFFFFFFFFFFFFFFFFFFFFFFFFFFF MUL NOT AND SWAP1 DUP4 PUSH20 0xFFFFFFFFFFFFFFFFFFFFFFFFFFFFFFFFFFFFFFFF AND MUL OR SWAP1 SSTORE POP JUMP JUMPDEST PUSH1 0x0 PUSH20 0xFFFFFFFFFFFFFFFFFFFFFFFFFFFFFFFFFFFFFFFF AND PUSH1 0x0 DUP1 CALLER PUSH20 0xFFFFFFFFFFFFFFFFFFFFFFFFFFFFFFFFFFFFFFFF AND PUSH20 0xFFFFFFFFFFFFFFFFFFFFFFFFFFFFFFFFFFFFFFFF AND DUP2 MSTORE PUSH1 0x20 ADD SWAP1 DUP2 MSTORE PUSH1 0x20 ADD PUSH1 0x0 KECCAK256 PUSH1 0x0 SWAP1 SLOAD SWAP1 PUSH2 0x100 EXP SWAP1 DIV PUSH20 0xFFFFFFFFFFFFFFFFFFFFFFFFFFFFFFFFFFFFFFFF AND PUSH20 0xFFFFFFFFFFFFFFFFFFFFFFFFFFFFFFFFFFFFFFFF AND EQ ISZERO PUSH2 0x477 JUMPI PUSH1 0x0 DUP1 REVERT JUMPDEST PUSH1 0x0 DUP1 CALLER PUSH20 0xFFFFFFFFFFFFFFFFFFFFFFFFFFFFFFFFFFFFFFFF AND PUSH20 0xFFFFFFFFFFFFFFFFFFFFFFFFFFFFFFFFFFFFFFFF AND DUP2 MSTORE PUSH1 0x20 ADD SWAP1 DUP2 MSTORE PUSH1 0x20 ADD PUSH1 0x0 KECCAK256 PUSH1 0x0 SWAP1 SLOAD SWAP1 PUSH2 0x100 EXP SWAP1 DIV PUSH20 0xFFFFFFFFFFFFFFFFFFFFFFFFFFFFFFFFFFFFFFFF AND PUSH20 0xFFFFFFFFFFFFFFFFFFFFFFFFFFFFFFFFFFFFFFFF AND PUSH4 0x45F43DD8 CALLER PUSH1 0x40 MLOAD DUP3 PUSH4 0xFFFFFFFF AND PUSH1 0xE0 SHL DUP2 MSTORE PUSH1 0x4 ADD DUP1 DUP3 PUSH20 0xFFFFFFFFFFFFFFFFFFFFFFFFFFFFFFFFFFFFFFFF AND PUSH20 0xFFFFFFFFFFFFFFFFFFFFFFFFFFFFFFFFFFFFFFFF AND DUP2 MSTORE PUSH1 0x20 ADD SWAP2 POP POP PUSH1 0x0 PUSH1 0x40 MLOAD DUP1 DUP4 SUB DUP2 PUSH1 0x0 DUP8 DUP1 EXTCODESIZE ISZERO DUP1 ISZERO PUSH2 0x554 JUMPI PUSH1 0x0 DUP1 REVERT JUMPDEST POP GAS CALL ISZERO DUP1 ISZERO PUSH2 0x568 JUMPI RETURNDATASIZE PUSH1 0x0 DUP1 RETURNDATACOPY RETURNDATASIZE PUSH1 0x0 REVERT JUMPDEST POP POP POP POP JUMP JUMPDEST PUSH2 0x354 DUP1 PUSH2 0x57C DUP4 CODECOPY ADD SWAP1 JUMP INVALID PUSH1 0x80 PUSH1 0x40 MSTORE CALLVALUE DUP1 ISZERO PUSH2 0x10 JUMPI PUSH1 0x0 DUP1 REVERT JUMPDEST POP PUSH1 0x40 MLOAD PUSH2 0x354 CODESIZE SUB DUP1 PUSH2 0x354 DUP4 CODECOPY DUP2 DUP2 ADD PUSH1 0x40 MSTORE PUSH1 0x20 DUP2 LT ISZERO PUSH2 0x33 JUMPI PUSH1 0x0 DUP1 REVERT JUMPDEST DUP2 ADD SWAP1 DUP1 DUP1 MLOAD SWAP1 PUSH1 0x20 ADD SWAP1 SWAP3 SWAP2 SWAP1 POP POP POP DUP1 PUSH1 0x1 PUSH1 0x0 PUSH2 0x100 EXP DUP2 SLOAD DUP2 PUSH20 0xFFFFFFFFFFFFFFFFFFFFFFFFFFFFFFFFFFFFFFFF MUL NOT AND SWAP1 DUP4 PUSH20 0xFFFFFFFFFFFFFFFFFFFFFFFFFFFFFFFFFFFFFFFF AND MUL OR SWAP1 SSTORE POP CALLER PUSH1 0x2 PUSH1 0x0 PUSH2 0x100 EXP DUP2 SLOAD DUP2 PUSH20 0xFFFFFFFFFFFFFFFFFFFFFFFFFFFFFFFFFFFFFFFF MUL NOT AND SWAP1 DUP4 PUSH20 0xFFFFFFFFFFFFFFFFFFFFFFFFFFFFFFFFFFFFFFFF AND MUL OR SWAP1 SSTORE POP POP PUSH2 0x27E DUP1 PUSH2 0xD6 PUSH1 0x0 CODECOPY PUSH1 0x0 RETURN INVALID PUSH1 0x80 PUSH1 0x40 MSTORE CALLVALUE DUP1 ISZERO PUSH2 0x10 JUMPI PUSH1 0x0 DUP1 REVERT JUMPDEST POP PUSH1 0x4 CALLDATASIZE LT PUSH2 0x36 JUMPI PUSH1 0x0 CALLDATALOAD PUSH1 0xE0 SHR DUP1 PUSH4 0x45F43DD8 EQ PUSH2 0x3B JUMPI DUP1 PUSH4 0xA87D942C EQ PUSH2 0x7F JUMPI JUMPDEST PUSH1 0x0 DUP1 REVERT JUMPDEST PUSH2 0x7D PUSH1 0x4 DUP1 CALLDATASIZE SUB PUSH1 0x20 DUP2 LT ISZERO PUSH2 0x51 JUMPI PUSH1 0x0 DUP1 REVERT JUMPDEST DUP2 ADD SWAP1 DUP1 DUP1 CALLDATALOAD PUSH20 0xFFFFFFFFFFFFFFFFFFFFFFFFFFFFFFFFFFFFFFFF AND SWAP1 PUSH1 0x20 ADD SWAP1 SWAP3 SWAP2 SWAP1 POP POP POP PUSH2 0x9D JUMP JUMPDEST STOP JUMPDEST PUSH2 0x87 PUSH2 0x21C JUMP JUMPDEST PUSH1 0x40 MLOAD DUP1 DUP3 DUP2 MSTORE PUSH1 0x20 ADD SWAP2 POP POP PUSH1 0x40 MLOAD DUP1 SWAP2 SUB SWAP1 RETURN JUMPDEST PUSH1 0x2 PUSH1 0x0 SWAP1 SLOAD SWAP1 PUSH2 0x100 EXP SWAP1 DIV PUSH20 0xFFFFFFFFFFFFFFFFFFFFFFFFFFFFFFFFFFFFFFFF AND PUSH20 0xFFFFFFFFFFFFFFFFFFFFFFFFFFFFFFFFFFFFFFFF AND CALLER PUSH20 0xFFFFFFFFFFFFFFFFFFFFFFFFFFFFFFFFFFFFFFFF AND EQ PUSH2 0x160 JUMPI PUSH1 0x40 MLOAD PUSH32 0x8C379A000000000000000000000000000000000000000000000000000000000 DUP2 MSTORE PUSH1 0x4 ADD DUP1 DUP1 PUSH1 0x20 ADD DUP3 DUP2 SUB DUP3 MSTORE PUSH1 0x1B DUP2 MSTORE PUSH1 0x20 ADD DUP1 PUSH32 0x596F75206E65656420746F207573652074686520666163746F72790000000000 DUP2 MSTORE POP PUSH1 0x20 ADD SWAP2 POP POP PUSH1 0x40 MLOAD DUP1 SWAP2 SUB SWAP1 REVERT JUMPDEST DUP1 PUSH1 0x1 PUSH1 0x0 SWAP1 SLOAD SWAP1 PUSH2 0x100 EXP SWAP1 DIV PUSH20 0xFFFFFFFFFFFFFFFFFFFFFFFFFFFFFFFFFFFFFFFF AND PUSH20 0xFFFFFFFFFFFFFFFFFFFFFFFFFFFFFFFFFFFFFFFF AND DUP2 PUSH20 0xFFFFFFFFFFFFFFFFFFFFFFFFFFFFFFFFFFFFFFFF AND EQ PUSH2 0x207 JUMPI PUSH1 0x40 MLOAD PUSH32 0x8C379A000000000000000000000000000000000000000000000000000000000 DUP2 MSTORE PUSH1 0x4 ADD DUP1 DUP1 PUSH1 0x20 ADD DUP3 DUP2 SUB DUP3 MSTORE PUSH1 0x24 DUP2 MSTORE PUSH1 0x20 ADD DUP1 PUSH2 0x226 PUSH1 0x24 SWAP2 CODECOPY PUSH1 0x40 ADD SWAP2 POP POP PUSH1 0x40 MLOAD DUP1 SWAP2 SUB SWAP1 REVERT JUMPDEST PUSH1 0x0 DUP1 DUP2 SLOAD DUP1 SWAP3 SWAP2 SWAP1 PUSH1 0x1 ADD SWAP2 SWAP1 POP SSTORE POP POP POP JUMP JUMPDEST PUSH1 0x0 DUP1 SLOAD SWAP1 POP SWAP1 JUMP INVALID MSIZE PUSH16 0x75277265206E6F7420746865206F776E PUSH6 0x72206F662074 PUSH9 0x6520636F6E74726163 PUSH21 0xA265627A7A7231582088D926253F9861DF97C5DB14 DUP8 DUP15 PUSH12 0xC62E02B623CA36B440E86D3F EXTCODEHASH 0x25 SWAP5 LOG4 AND PUSH5 0x736F6C6343 STOP SDIV GT STOP ORIGIN LOG2 PUSH6 0x627A7A723158 KECCAK256 SWAP12 PC XOR PUSH31 0xA2DEF7E017318521070F2A914454223ABAC1459EADDEA68D1607E9A764736F PUSH13 0x63430005110032000000000000 "
				},
				"gasEstimates": {
					"creation": {
						"codeDepositCost": "461600",
						"executionCost": "499",
						"totalCost": "462099"
					},
					"external": {
						"createCounter()": "infinite",
						"getCount(address)": "infinite",
						"getMyCount()": "infinite",
						"increment()": "infinite"
					}
				},
				"methodIdentifiers": {
					"createCounter()": "78b52948",
					"getCount(address)": "4f0cd27b",
					"getMyCount()": "4fc9fd50",
					"increment()": "d09de08a"
				}
			},
			"storageLayout": {
				"storage": [
					{
						"astId": 74,
						"contract": "contracts/factory.sol:CounterFactory",
						"label": "_counters",
						"offset": 0,
						"slot": "0",
						"type": "t_mapping(t_address,t_contract(Counter)70)"
					}
				],
				"types": {
					"t_address": {
						"encoding": "inplace",
						"label": "address",
						"numberOfBytes": "20"
					},
					"t_contract(Counter)70": {
						"encoding": "inplace",
						"label": "contract Counter",
						"numberOfBytes": "20"
					},
					"t_mapping(t_address,t_contract(Counter)70)": {
						"encoding": "mapping",
						"key": "t_address",
						"label": "mapping(address => contract Counter)",
						"numberOfBytes": "32",
						"value": "t_contract(Counter)70"
					}
				}
			},
			"userdoc": {
				"methods": {}
			}
		}
	}
}