{
	"contracts/LiquidityPool.sol": {
		"LiquidityPool": {
			"abi": [
				{
					"inputs": [
						{
							"internalType": "uint256",
							"name": "_amount",
							"type": "uint256"
						}
					],
					"name": "provideLiquidity",
					"outputs": [],
					"stateMutability": "payable",
					"type": "function"
				},
				{
					"inputs": [],
					"name": "token",
					"outputs": [
						{
							"internalType": "contract IERC20",
							"name": "",
							"type": "address"
						}
					],
					"stateMutability": "view",
					"type": "function"
				}
			],
			"devdoc": {
				"kind": "dev",
				"methods": {},
				"version": 1
			},
			"evm": {
				"assembly": "    /* \"contracts/LiquidityPool.sol\":241:455  contract LiquidityPool {... */\n  mstore(0x40, 0x80)\n  callvalue\n  dup1\n  iszero\n  tag_1\n  jumpi\n  0x00\n  dup1\n  revert\ntag_1:\n  pop\n  dataSize(sub_0)\n  dup1\n  dataOffset(sub_0)\n  0x00\n  codecopy\n  0x00\n  return\nstop\n\nsub_0: assembly {\n        /* \"contracts/LiquidityPool.sol\":241:455  contract LiquidityPool {... */\n      mstore(0x40, 0x80)\n      jumpi(tag_1, lt(calldatasize, 0x04))\n      shr(0xe0, calldataload(0x00))\n      dup1\n      0xeb521a4c\n      eq\n      tag_2\n      jumpi\n      dup1\n      0xfc0c546a\n      eq\n      tag_3\n      jumpi\n    tag_1:\n      0x00\n      dup1\n      revert\n        /* \"contracts/LiquidityPool.sol\":385:453  function provideLiquidity(uint256 _amount) external payable {... */\n    tag_2:\n      tag_4\n      0x04\n      dup1\n      calldatasize\n      sub\n      dup2\n      add\n      swap1\n      tag_5\n      swap2\n      swap1\n      tag_6\n      jump\t// in\n    tag_5:\n      tag_7\n      jump\t// in\n    tag_4:\n      stop\n        /* \"contracts/LiquidityPool.sol\":358:377  IERC20 public token */\n    tag_3:\n      callvalue\n      dup1\n      iszero\n      tag_8\n      jumpi\n      0x00\n      dup1\n      revert\n    tag_8:\n      pop\n      tag_9\n      tag_10\n      jump\t// in\n    tag_9:\n      mload(0x40)\n      tag_11\n      swap2\n      swap1\n      tag_12\n      jump\t// in\n    tag_11:\n      mload(0x40)\n      dup1\n      swap2\n      sub\n      swap1\n      return\n        /* \"contracts/LiquidityPool.sol\":385:453  function provideLiquidity(uint256 _amount) external payable {... */\n    tag_7:\n      pop\n      jump\t// out\n        /* \"contracts/LiquidityPool.sol\":358:377  IERC20 public token */\n    tag_10:\n      0x00\n      dup1\n      sload\n      swap1\n      0x0100\n      exp\n      swap1\n      div\n      0xffffffffffffffffffffffffffffffffffffffff\n      and\n      dup2\n      jump\t// out\n        /* \"#utility.yul\":7:146   */\n    tag_15:\n        /* \"#utility.yul\":53:58   */\n      0x00\n        /* \"#utility.yul\":91:97   */\n      dup2\n        /* \"#utility.yul\":78:98   */\n      calldataload\n        /* \"#utility.yul\":69:98   */\n      swap1\n      pop\n        /* \"#utility.yul\":107:140   */\n      tag_17\n        /* \"#utility.yul\":134:139   */\n      dup2\n        /* \"#utility.yul\":107:140   */\n      tag_18\n      jump\t// in\n    tag_17:\n        /* \"#utility.yul\":7:146   */\n      swap3\n      swap2\n      pop\n      pop\n      jump\t// out\n        /* \"#utility.yul\":152:481   */\n    tag_6:\n        /* \"#utility.yul\":211:217   */\n      0x00\n        /* \"#utility.yul\":260:262   */\n      0x20\n        /* \"#utility.yul\":248:257   */\n      dup3\n        /* \"#utility.yul\":239:246   */\n      dup5\n        /* \"#utility.yul\":235:258   */\n      sub\n        /* \"#utility.yul\":231:263   */\n      slt\n        /* \"#utility.yul\":228:347   */\n      iszero\n      tag_20\n      jumpi\n        /* \"#utility.yul\":266:345   */\n      tag_21\n      tag_22\n      jump\t// in\n    tag_21:\n        /* \"#utility.yul\":228:347   */\n    tag_20:\n        /* \"#utility.yul\":386:387   */\n      0x00\n        /* \"#utility.yul\":411:464   */\n      tag_23\n        /* \"#utility.yul\":456:463   */\n      dup5\n        /* \"#utility.yul\":447:453   */\n      dup3\n        /* \"#utility.yul\":436:445   */\n      dup6\n        /* \"#utility.yul\":432:454   */\n      add\n        /* \"#utility.yul\":411:464   */\n      tag_15\n      jump\t// in\n    tag_23:\n        /* \"#utility.yul\":401:464   */\n      swap2\n      pop\n        /* \"#utility.yul\":357:474   */\n      pop\n        /* \"#utility.yul\":152:481   */\n      swap3\n      swap2\n      pop\n      pop\n      jump\t// out\n        /* \"#utility.yul\":487:644   */\n    tag_24:\n        /* \"#utility.yul\":587:637   */\n      tag_26\n        /* \"#utility.yul\":631:636   */\n      dup2\n        /* \"#utility.yul\":587:637   */\n      tag_27\n      jump\t// in\n    tag_26:\n        /* \"#utility.yul\":582:585   */\n      dup3\n        /* \"#utility.yul\":575:638   */\n      mstore\n        /* \"#utility.yul\":487:644   */\n      pop\n      pop\n      jump\t// out\n        /* \"#utility.yul\":650:898   */\n    tag_12:\n        /* \"#utility.yul\":756:760   */\n      0x00\n        /* \"#utility.yul\":794:796   */\n      0x20\n        /* \"#utility.yul\":783:792   */\n      dup3\n        /* \"#utility.yul\":779:797   */\n      add\n        /* \"#utility.yul\":771:797   */\n      swap1\n      pop\n        /* \"#utility.yul\":807:891   */\n      tag_29\n        /* \"#utility.yul\":888:889   */\n      0x00\n        /* \"#utility.yul\":877:886   */\n      dup4\n        /* \"#utility.yul\":873:890   */\n      add\n        /* \"#utility.yul\":864:870   */\n      dup5\n        /* \"#utility.yul\":807:891   */\n      tag_24\n      jump\t// in\n    tag_29:\n        /* \"#utility.yul\":650:898   */\n      swap3\n      swap2\n      pop\n      pop\n      jump\t// out\n        /* \"#utility.yul\":985:1111   */\n    tag_32:\n        /* \"#utility.yul\":1022:1029   */\n      0x00\n        /* \"#utility.yul\":1062:1104   */\n      0xffffffffffffffffffffffffffffffffffffffff\n        /* \"#utility.yul\":1055:1060   */\n      dup3\n        /* \"#utility.yul\":1051:1105   */\n      and\n        /* \"#utility.yul\":1040:1105   */\n      swap1\n      pop\n        /* \"#utility.yul\":985:1111   */\n      swap2\n      swap1\n      pop\n      jump\t// out\n        /* \"#utility.yul\":1117:1194   */\n    tag_34:\n        /* \"#utility.yul\":1154:1161   */\n      0x00\n        /* \"#utility.yul\":1183:1188   */\n      dup2\n        /* \"#utility.yul\":1172:1188   */\n      swap1\n      pop\n        /* \"#utility.yul\":1117:1194   */\n      swap2\n      swap1\n      pop\n      jump\t// out\n        /* \"#utility.yul\":1200:1339   */\n    tag_27:\n        /* \"#utility.yul\":1263:1272   */\n      0x00\n        /* \"#utility.yul\":1296:1333   */\n      tag_37\n        /* \"#utility.yul\":1327:1332   */\n      dup3\n        /* \"#utility.yul\":1296:1333   */\n      tag_38\n      jump\t// in\n    tag_37:\n        /* \"#utility.yul\":1283:1333   */\n      swap1\n      pop\n        /* \"#utility.yul\":1200:1339   */\n      swap2\n      swap1\n      pop\n      jump\t// out\n        /* \"#utility.yul\":1345:1471   */\n    tag_38:\n        /* \"#utility.yul\":1395:1404   */\n      0x00\n        /* \"#utility.yul\":1428:1465   */\n      tag_40\n        /* \"#utility.yul\":1459:1464   */\n      dup3\n        /* \"#utility.yul\":1428:1465   */\n      tag_41\n      jump\t// in\n    tag_40:\n        /* \"#utility.yul\":1415:1465   */\n      swap1\n      pop\n        /* \"#utility.yul\":1345:1471   */\n      swap2\n      swap1\n      pop\n      jump\t// out\n        /* \"#utility.yul\":1477:1590   */\n    tag_41:\n        /* \"#utility.yul\":1527:1536   */\n      0x00\n        /* \"#utility.yul\":1560:1584   */\n      tag_43\n        /* \"#utility.yul\":1578:1583   */\n      dup3\n        /* \"#utility.yul\":1560:1584   */\n      tag_32\n      jump\t// in\n    tag_43:\n        /* \"#utility.yul\":1547:1584   */\n      swap1\n      pop\n        /* \"#utility.yul\":1477:1590   */\n      swap2\n      swap1\n      pop\n      jump\t// out\n        /* \"#utility.yul\":1719:1836   */\n    tag_22:\n        /* \"#utility.yul\":1828:1829   */\n      0x00\n        /* \"#utility.yul\":1825:1826   */\n      dup1\n        /* \"#utility.yul\":1818:1830   */\n      revert\n        /* \"#utility.yul\":1842:1964   */\n    tag_18:\n        /* \"#utility.yul\":1915:1939   */\n      tag_48\n        /* \"#utility.yul\":1933:1938   */\n      dup2\n        /* \"#utility.yul\":1915:1939   */\n      tag_34\n      jump\t// in\n    tag_48:\n        /* \"#utility.yul\":1908:1913   */\n      dup2\n        /* \"#utility.yul\":1905:1940   */\n      eq\n        /* \"#utility.yul\":1895:1958   */\n      tag_49\n      jumpi\n        /* \"#utility.yul\":1954:1955   */\n      0x00\n        /* \"#utility.yul\":1951:1952   */\n      dup1\n        /* \"#utility.yul\":1944:1956   */\n      revert\n        /* \"#utility.yul\":1895:1958   */\n    tag_49:\n        /* \"#utility.yul\":1842:1964   */\n      pop\n      jump\t// out\n\n    auxdata: 0xa26469706673582212203cfa5d9131b05727143ae61f66296312116ce0f2a951bdcbefede28df92d304b64736f6c63430008070033\n}\n",
				"bytecode": {
					"linkReferences": {},
					"object": "608060405234801561001057600080fd5b506101ba806100206000396000f3fe6080604052600436106100295760003560e01c8063eb521a4c1461002e578063fc0c546a1461004a575b600080fd5b610048600480360381019061004391906100b1565b610075565b005b34801561005657600080fd5b5061005f610078565b60405161006c91906100ed565b60405180910390f35b50565b60008054906101000a900473ffffffffffffffffffffffffffffffffffffffff1681565b6000813590506100ab8161016d565b92915050565b6000602082840312156100c7576100c6610168565b5b60006100d58482850161009c565b91505092915050565b6100e781610132565b82525050565b600060208201905061010260008301846100de565b92915050565b600073ffffffffffffffffffffffffffffffffffffffff82169050919050565b6000819050919050565b600061013d82610144565b9050919050565b600061014f82610156565b9050919050565b600061016182610108565b9050919050565b600080fd5b61017681610128565b811461018157600080fd5b5056fea26469706673582212203cfa5d9131b05727143ae61f66296312116ce0f2a951bdcbefede28df92d304b64736f6c63430008070033",
					"opcodes": "PUSH1 0x80 PUSH1 0x40 MSTORE CALLVALUE DUP1 ISZERO PUSH2 0x10 JUMPI PUSH1 0x0 DUP1 REVERT JUMPDEST POP PUSH2 0x1BA DUP1 PUSH2 0x20 PUSH1 0x0 CODECOPY PUSH1 0x0 RETURN INVALID PUSH1 0x80 PUSH1 0x40 MSTORE PUSH1 0x4 CALLDATASIZE LT PUSH2 0x29 JUMPI PUSH1 0x0 CALLDATALOAD PUSH1 0xE0 SHR DUP1 PUSH4 0xEB521A4C EQ PUSH2 0x2E JUMPI DUP1 PUSH4 0xFC0C546A EQ PUSH2 0x4A JUMPI JUMPDEST PUSH1 0x0 DUP1 REVERT JUMPDEST PUSH2 0x48 PUSH1 0x4 DUP1 CALLDATASIZE SUB DUP2 ADD SWAP1 PUSH2 0x43 SWAP2 SWAP1 PUSH2 0xB1 JUMP JUMPDEST PUSH2 0x75 JUMP JUMPDEST STOP JUMPDEST CALLVALUE DUP1 ISZERO PUSH2 0x56 JUMPI PUSH1 0x0 DUP1 REVERT JUMPDEST POP PUSH2 0x5F PUSH2 0x78 JUMP JUMPDEST PUSH1 0x40 MLOAD PUSH2 0x6C SWAP2 SWAP1 PUSH2 0xED JUMP JUMPDEST PUSH1 0x40 MLOAD DUP1 SWAP2 SUB SWAP1 RETURN JUMPDEST POP JUMP JUMPDEST PUSH1 0x0 DUP1 SLOAD SWAP1 PUSH2 0x100 EXP SWAP1 DIV PUSH20 0xFFFFFFFFFFFFFFFFFFFFFFFFFFFFFFFFFFFFFFFF AND DUP2 JUMP JUMPDEST PUSH1 0x0 DUP2 CALLDATALOAD SWAP1 POP PUSH2 0xAB DUP2 PUSH2 0x16D JUMP JUMPDEST SWAP3 SWAP2 POP POP JUMP JUMPDEST PUSH1 0x0 PUSH1 0x20 DUP3 DUP5 SUB SLT ISZERO PUSH2 0xC7 JUMPI PUSH2 0xC6 PUSH2 0x168 JUMP JUMPDEST JUMPDEST PUSH1 0x0 PUSH2 0xD5 DUP5 DUP3 DUP6 ADD PUSH2 0x9C JUMP JUMPDEST SWAP2 POP POP SWAP3 SWAP2 POP POP JUMP JUMPDEST PUSH2 0xE7 DUP2 PUSH2 0x132 JUMP JUMPDEST DUP3 MSTORE POP POP JUMP JUMPDEST PUSH1 0x0 PUSH1 0x20 DUP3 ADD SWAP1 POP PUSH2 0x102 PUSH1 0x0 DUP4 ADD DUP5 PUSH2 0xDE JUMP JUMPDEST SWAP3 SWAP2 POP POP JUMP JUMPDEST PUSH1 0x0 PUSH20 0xFFFFFFFFFFFFFFFFFFFFFFFFFFFFFFFFFFFFFFFF DUP3 AND SWAP1 POP SWAP2 SWAP1 POP JUMP JUMPDEST PUSH1 0x0 DUP2 SWAP1 POP SWAP2 SWAP1 POP JUMP JUMPDEST PUSH1 0x0 PUSH2 0x13D DUP3 PUSH2 0x144 JUMP JUMPDEST SWAP1 POP SWAP2 SWAP1 POP JUMP JUMPDEST PUSH1 0x0 PUSH2 0x14F DUP3 PUSH2 0x156 JUMP JUMPDEST SWAP1 POP SWAP2 SWAP1 POP JUMP JUMPDEST PUSH1 0x0 PUSH2 0x161 DUP3 PUSH2 0x108 JUMP JUMPDEST SWAP1 POP SWAP2 SWAP1 POP JUMP JUMPDEST PUSH1 0x0 DUP1 REVERT JUMPDEST PUSH2 0x176 DUP2 PUSH2 0x128 JUMP JUMPDEST DUP2 EQ PUSH2 0x181 JUMPI PUSH1 0x0 DUP1 REVERT JUMPDEST POP JUMP INVALID LOG2 PUSH5 0x6970667358 0x22 SLT KECCAK256 EXTCODECOPY STATICCALL 0x5D SWAP2 BALANCE 0xB0 JUMPI 0x27 EQ GASPRICE 0xE6 0x1F PUSH7 0x296312116CE0F2 0xA9 MLOAD 0xBD 0xCB 0xEF 0xED 0xE2 DUP14 0xF9 0x2D ADDRESS 0x4B PUSH5 0x736F6C6343 STOP ADDMOD SMOD STOP CALLER "
				},
				"gasEstimates": {
					"creation": {
						"codeDepositCost": "88400",
						"executionCost": "135",
						"totalCost": "88535"
					},
					"external": {
						"provideLiquidity(uint256)": "360",
						"token()": "2597"
					}
				},
				"methodIdentifiers": {
					"provideLiquidity(uint256)": "eb521a4c",
					"token()": "fc0c546a"
				}
			},
			"storageLayout": {
				"storage": [
					{
						"astId": 83,
						"contract": "contracts/LiquidityPool.sol:LiquidityPool",
						"label": "token",
						"offset": 0,
						"slot": "0",
						"type": "t_contract(IERC20)77"
					}
				],
				"types": {
					"t_contract(IERC20)77": {
						"encoding": "inplace",
						"label": "contract IERC20",
						"numberOfBytes": "20"
					}
				}
			},
			"userdoc": {
				"kind": "user",
				"methods": {},
				"version": 1
			}
		}
	}
}