{
	"contracts/LiquidityPool.sol": {
		"LiquidityPool": {
			"abi": [
				{
					"inputs": [
						{
							"internalType": "address",
							"name": "_tokenAddress",
							"type": "address"
						}
					],
					"stateMutability": "nonpayable",
					"type": "constructor"
				},
				{
					"anonymous": false,
					"inputs": [
						{
							"indexed": false,
							"internalType": "address",
							"name": "_liquidityProvider",
							"type": "address"
						},
						{
							"indexed": false,
							"internalType": "uint256",
							"name": "_shares",
							"type": "uint256"
						}
					],
					"name": "liquidityProvided",
					"type": "event"
				},
				{
					"inputs": [
						{
							"internalType": "uint256",
							"name": "_amount",
							"type": "uint256"
						}
					],
					"name": "provideLiquidity",
					"outputs": [],
					"stateMutability": "payable",
					"type": "function"
				},
				{
					"inputs": [],
					"name": "reserveToken",
					"outputs": [
						{
							"internalType": "address",
							"name": "",
							"type": "address"
						}
					],
					"stateMutability": "view",
					"type": "function"
				}
			],
			"devdoc": {
				"kind": "dev",
				"methods": {},
				"version": 1
			},
			"evm": {
				"assembly": "    /* \"contracts/LiquidityPool.sol\":241:1051  contract LiquidityPool {... */\n  mstore(0x40, 0x80)\n    /* \"contracts/LiquidityPool.sol\":470:549  constructor(address _tokenAddress){... */\n  callvalue\n  dup1\n  iszero\n  tag_1\n  jumpi\n  0x00\n  dup1\n  revert\ntag_1:\n  pop\n  mload(0x40)\n  sub(codesize, bytecodeSize)\n  dup1\n  bytecodeSize\n  dup4\n  codecopy\n  dup2\n  dup2\n  add\n  0x40\n  mstore\n  dup2\n  add\n  swap1\n  tag_2\n  swap2\n  swap1\n  tag_3\n  jump\t// in\ntag_2:\n    /* \"contracts/LiquidityPool.sol\":529:542  _tokenAddress */\n  dup1\n    /* \"contracts/LiquidityPool.sol\":514:526  reserveToken */\n  0x00\n  dup1\n    /* \"contracts/LiquidityPool.sol\":514:542  reserveToken = _tokenAddress */\n  0x0100\n  exp\n  dup2\n  sload\n  dup2\n  0xffffffffffffffffffffffffffffffffffffffff\n  mul\n  not\n  and\n  swap1\n  dup4\n  0xffffffffffffffffffffffffffffffffffffffff\n  and\n  mul\n  or\n  swap1\n  sstore\n  pop\n    /* \"contracts/LiquidityPool.sol\":470:549  constructor(address _tokenAddress){... */\n  pop\n    /* \"contracts/LiquidityPool.sol\":241:1051  contract LiquidityPool {... */\n  jump(tag_6)\n    /* \"#utility.yul\":7:150   */\ntag_8:\n    /* \"#utility.yul\":64:69   */\n  0x00\n    /* \"#utility.yul\":95:101   */\n  dup2\n    /* \"#utility.yul\":89:102   */\n  mload\n    /* \"#utility.yul\":80:102   */\n  swap1\n  pop\n    /* \"#utility.yul\":111:144   */\n  tag_10\n    /* \"#utility.yul\":138:143   */\n  dup2\n    /* \"#utility.yul\":111:144   */\n  tag_11\n  jump\t// in\ntag_10:\n    /* \"#utility.yul\":7:150   */\n  swap3\n  swap2\n  pop\n  pop\n  jump\t// out\n    /* \"#utility.yul\":156:507   */\ntag_3:\n    /* \"#utility.yul\":226:232   */\n  0x00\n    /* \"#utility.yul\":275:277   */\n  0x20\n    /* \"#utility.yul\":263:272   */\n  dup3\n    /* \"#utility.yul\":254:261   */\n  dup5\n    /* \"#utility.yul\":250:273   */\n  sub\n    /* \"#utility.yul\":246:278   */\n  slt\n    /* \"#utility.yul\":243:362   */\n  iszero\n  tag_13\n  jumpi\n    /* \"#utility.yul\":281:360   */\n  tag_14\n  tag_15\n  jump\t// in\ntag_14:\n    /* \"#utility.yul\":243:362   */\ntag_13:\n    /* \"#utility.yul\":401:402   */\n  0x00\n    /* \"#utility.yul\":426:490   */\n  tag_16\n    /* \"#utility.yul\":482:489   */\n  dup5\n    /* \"#utility.yul\":473:479   */\n  dup3\n    /* \"#utility.yul\":462:471   */\n  dup6\n    /* \"#utility.yul\":458:480   */\n  add\n    /* \"#utility.yul\":426:490   */\n  tag_8\n  jump\t// in\ntag_16:\n    /* \"#utility.yul\":416:490   */\n  swap2\n  pop\n    /* \"#utility.yul\":372:500   */\n  pop\n    /* \"#utility.yul\":156:507   */\n  swap3\n  swap2\n  pop\n  pop\n  jump\t// out\n    /* \"#utility.yul\":594:690   */\ntag_19:\n    /* \"#utility.yul\":631:638   */\n  0x00\n    /* \"#utility.yul\":660:684   */\n  tag_21\n    /* \"#utility.yul\":678:683   */\n  dup3\n    /* \"#utility.yul\":660:684   */\n  tag_22\n  jump\t// in\ntag_21:\n    /* \"#utility.yul\":649:684   */\n  swap1\n  pop\n    /* \"#utility.yul\":594:690   */\n  swap2\n  swap1\n  pop\n  jump\t// out\n    /* \"#utility.yul\":696:822   */\ntag_22:\n    /* \"#utility.yul\":733:740   */\n  0x00\n    /* \"#utility.yul\":773:815   */\n  0xffffffffffffffffffffffffffffffffffffffff\n    /* \"#utility.yul\":766:771   */\n  dup3\n    /* \"#utility.yul\":762:816   */\n  and\n    /* \"#utility.yul\":751:816   */\n  swap1\n  pop\n    /* \"#utility.yul\":696:822   */\n  swap2\n  swap1\n  pop\n  jump\t// out\n    /* \"#utility.yul\":951:1068   */\ntag_15:\n    /* \"#utility.yul\":1060:1061   */\n  0x00\n    /* \"#utility.yul\":1057:1058   */\n  dup1\n    /* \"#utility.yul\":1050:1062   */\n  revert\n    /* \"#utility.yul\":1074:1196   */\ntag_11:\n    /* \"#utility.yul\":1147:1171   */\n  tag_28\n    /* \"#utility.yul\":1165:1170   */\n  dup2\n    /* \"#utility.yul\":1147:1171   */\n  tag_19\n  jump\t// in\ntag_28:\n    /* \"#utility.yul\":1140:1145   */\n  dup2\n    /* \"#utility.yul\":1137:1172   */\n  eq\n    /* \"#utility.yul\":1127:1190   */\n  tag_29\n  jumpi\n    /* \"#utility.yul\":1186:1187   */\n  0x00\n    /* \"#utility.yul\":1183:1184   */\n  dup1\n    /* \"#utility.yul\":1176:1188   */\n  revert\n    /* \"#utility.yul\":1127:1190   */\ntag_29:\n    /* \"#utility.yul\":1074:1196   */\n  pop\n  jump\t// out\n    /* \"contracts/LiquidityPool.sol\":241:1051  contract LiquidityPool {... */\ntag_6:\n  dataSize(sub_0)\n  dup1\n  dataOffset(sub_0)\n  0x00\n  codecopy\n  0x00\n  return\nstop\n\nsub_0: assembly {\n        /* \"contracts/LiquidityPool.sol\":241:1051  contract LiquidityPool {... */\n      mstore(0x40, 0x80)\n      jumpi(tag_1, lt(calldatasize, 0x04))\n      shr(0xe0, calldataload(0x00))\n      dup1\n      0xeb521a4c\n      eq\n      tag_2\n      jumpi\n      dup1\n      0xf4325d67\n      eq\n      tag_3\n      jumpi\n    tag_1:\n      0x00\n      dup1\n      revert\n        /* \"contracts/LiquidityPool.sol\":630:1049  function provideLiquidity(uint256 _amount) external payable {... */\n    tag_2:\n      tag_4\n      0x04\n      dup1\n      calldatasize\n      sub\n      dup2\n      add\n      swap1\n      tag_5\n      swap2\n      swap1\n      tag_6\n      jump\t// in\n    tag_5:\n      tag_7\n      jump\t// in\n    tag_4:\n      stop\n        /* \"contracts/LiquidityPool.sol\":358:385  address public reserveToken */\n    tag_3:\n      callvalue\n      dup1\n      iszero\n      tag_8\n      jumpi\n      0x00\n      dup1\n      revert\n    tag_8:\n      pop\n      tag_9\n      tag_10\n      jump\t// in\n    tag_9:\n      mload(0x40)\n      tag_11\n      swap2\n      swap1\n      tag_12\n      jump\t// in\n    tag_11:\n      mload(0x40)\n      dup1\n      swap2\n      sub\n      swap1\n      return\n        /* \"contracts/LiquidityPool.sol\":630:1049  function provideLiquidity(uint256 _amount) external payable {... */\n    tag_7:\n        /* \"contracts/LiquidityPool.sol\":721:728  _amount */\n      dup1\n        /* \"contracts/LiquidityPool.sol\":708:717  msg.value */\n      callvalue\n        /* \"contracts/LiquidityPool.sol\":708:728  msg.value == _amount */\n      eq\n        /* \"contracts/LiquidityPool.sol\":700:777  require(msg.value == _amount, \"The amount of ETH and tokens should be equal\") */\n      tag_14\n      jumpi\n      mload(0x40)\n      0x08c379a000000000000000000000000000000000000000000000000000000000\n      dup2\n      mstore\n      0x04\n      add\n      tag_15\n      swap1\n      tag_16\n      jump\t// in\n    tag_15:\n      mload(0x40)\n      dup1\n      swap2\n      sub\n      swap1\n      revert\n    tag_14:\n        /* \"contracts/LiquidityPool.sol\":421:463  0xf5e642e29D6516B2301dFa2Db87A40B4204B8d6B */\n      0xf5e642e29d6516b2301dfa2db87a40b4204b8d6b\n        /* \"contracts/LiquidityPool.sol\":787:813  IERC20(ltrAddress).approve */\n      0xffffffffffffffffffffffffffffffffffffffff\n      and\n      0x095ea7b3\n        /* \"contracts/LiquidityPool.sol\":822:826  this */\n      address\n        /* \"contracts/LiquidityPool.sol\":829:851  1000000000000000000000 */\n      0x3635c9adc5dea00000\n        /* \"contracts/LiquidityPool.sol\":787:852  IERC20(ltrAddress).approve(address(this), 1000000000000000000000) */\n      mload(0x40)\n      dup4\n      0xffffffff\n      and\n      0xe0\n      shl\n      dup2\n      mstore\n      0x04\n      add\n      tag_17\n      swap3\n      swap2\n      swap1\n      tag_18\n      jump\t// in\n    tag_17:\n      0x20\n      mload(0x40)\n      dup1\n      dup4\n      sub\n      dup2\n      0x00\n      dup8\n      dup1\n      extcodesize\n      iszero\n      dup1\n      iszero\n      tag_19\n      jumpi\n      0x00\n      dup1\n      revert\n    tag_19:\n      pop\n      gas\n      call\n      iszero\n      dup1\n      iszero\n      tag_21\n      jumpi\n      returndatasize\n      0x00\n      dup1\n      returndatacopy\n      revert(0x00, returndatasize)\n    tag_21:\n      pop\n      pop\n      pop\n      pop\n      mload(0x40)\n      returndatasize\n      not(0x1f)\n      0x1f\n      dup3\n      add\n      and\n      dup3\n      add\n      dup1\n      0x40\n      mstore\n      pop\n      dup2\n      add\n      swap1\n      tag_22\n      swap2\n      swap1\n      tag_23\n      jump\t// in\n    tag_22:\n      pop\n        /* \"contracts/LiquidityPool.sol\":869:881  reserveToken */\n      0x00\n      dup1\n      sload\n      swap1\n      0x0100\n      exp\n      swap1\n      div\n      0xffffffffffffffffffffffffffffffffffffffff\n      and\n        /* \"contracts/LiquidityPool.sol\":862:895  IERC20(reserveToken).transferFrom */\n      0xffffffffffffffffffffffffffffffffffffffff\n      and\n      0x23b872dd\n        /* \"contracts/LiquidityPool.sol\":896:906  msg.sender */\n      caller\n        /* \"contracts/LiquidityPool.sol\":916:920  this */\n      address\n        /* \"contracts/LiquidityPool.sol\":923:930  _amount */\n      dup5\n        /* \"contracts/LiquidityPool.sol\":862:931  IERC20(reserveToken).transferFrom(msg.sender, address(this), _amount) */\n      mload(0x40)\n      dup5\n      0xffffffff\n      and\n      0xe0\n      shl\n      dup2\n      mstore\n      0x04\n      add\n      tag_24\n      swap4\n      swap3\n      swap2\n      swap1\n      tag_25\n      jump\t// in\n    tag_24:\n      0x20\n      mload(0x40)\n      dup1\n      dup4\n      sub\n      dup2\n      0x00\n      dup8\n      dup1\n      extcodesize\n      iszero\n      dup1\n      iszero\n      tag_26\n      jumpi\n      0x00\n      dup1\n      revert\n    tag_26:\n      pop\n      gas\n      call\n      iszero\n      dup1\n      iszero\n      tag_28\n      jumpi\n      returndatasize\n      0x00\n      dup1\n      returndatacopy\n      revert(0x00, returndatasize)\n    tag_28:\n      pop\n      pop\n      pop\n      pop\n      mload(0x40)\n      returndatasize\n      not(0x1f)\n      0x1f\n      dup3\n      add\n      and\n      dup3\n      add\n      dup1\n      0x40\n      mstore\n      pop\n      dup2\n      add\n      swap1\n      tag_29\n      swap2\n      swap1\n      tag_23\n      jump\t// in\n    tag_29:\n      pop\n        /* \"contracts/LiquidityPool.sol\":421:463  0xf5e642e29D6516B2301dFa2Db87A40B4204B8d6B */\n      0xf5e642e29d6516b2301dfa2db87a40b4204b8d6b\n        /* \"contracts/LiquidityPool.sol\":941:968  IERC20(ltrAddress).transfer */\n      0xffffffffffffffffffffffffffffffffffffffff\n      and\n      0xa9059cbb\n        /* \"contracts/LiquidityPool.sol\":969:979  msg.sender */\n      caller\n        /* \"contracts/LiquidityPool.sol\":981:988  _amount */\n      dup4\n        /* \"contracts/LiquidityPool.sol\":941:989  IERC20(ltrAddress).transfer(msg.sender, _amount) */\n      mload(0x40)\n      dup4\n      0xffffffff\n      and\n      0xe0\n      shl\n      dup2\n      mstore\n      0x04\n      add\n      tag_30\n      swap3\n      swap2\n      swap1\n      tag_31\n      jump\t// in\n    tag_30:\n      0x20\n      mload(0x40)\n      dup1\n      dup4\n      sub\n      dup2\n      0x00\n      dup8\n      dup1\n      extcodesize\n      iszero\n      dup1\n      iszero\n      tag_32\n      jumpi\n      0x00\n      dup1\n      revert\n    tag_32:\n      pop\n      gas\n      call\n      iszero\n      dup1\n      iszero\n      tag_34\n      jumpi\n      returndatasize\n      0x00\n      dup1\n      returndatacopy\n      revert(0x00, returndatasize)\n    tag_34:\n      pop\n      pop\n      pop\n      pop\n      mload(0x40)\n      returndatasize\n      not(0x1f)\n      0x1f\n      dup3\n      add\n      and\n      dup3\n      add\n      dup1\n      0x40\n      mstore\n      pop\n      dup2\n      add\n      swap1\n      tag_35\n      swap2\n      swap1\n      tag_23\n      jump\t// in\n    tag_35:\n      pop\n        /* \"contracts/LiquidityPool.sol\":1004:1042  liquidityProvided(msg.sender, _amount) */\n      0xb62268a18d99fe191ac8e62f823ab1eec698609a81b2c8de3dac902896b09da6\n        /* \"contracts/LiquidityPool.sol\":1022:1032  msg.sender */\n      caller\n        /* \"contracts/LiquidityPool.sol\":1034:1041  _amount */\n      dup3\n        /* \"contracts/LiquidityPool.sol\":1004:1042  liquidityProvided(msg.sender, _amount) */\n      mload(0x40)\n      tag_36\n      swap3\n      swap2\n      swap1\n      tag_31\n      jump\t// in\n    tag_36:\n      mload(0x40)\n      dup1\n      swap2\n      sub\n      swap1\n      log1\n        /* \"contracts/LiquidityPool.sol\":630:1049  function provideLiquidity(uint256 _amount) external payable {... */\n      pop\n      jump\t// out\n        /* \"contracts/LiquidityPool.sol\":358:385  address public reserveToken */\n    tag_10:\n      0x00\n      dup1\n      sload\n      swap1\n      0x0100\n      exp\n      swap1\n      div\n      0xffffffffffffffffffffffffffffffffffffffff\n      and\n      dup2\n      jump\t// out\n        /* \"#utility.yul\":7:144   */\n    tag_38:\n        /* \"#utility.yul\":61:66   */\n      0x00\n        /* \"#utility.yul\":92:98   */\n      dup2\n        /* \"#utility.yul\":86:99   */\n      mload\n        /* \"#utility.yul\":77:99   */\n      swap1\n      pop\n        /* \"#utility.yul\":108:138   */\n      tag_40\n        /* \"#utility.yul\":132:137   */\n      dup2\n        /* \"#utility.yul\":108:138   */\n      tag_41\n      jump\t// in\n    tag_40:\n        /* \"#utility.yul\":7:144   */\n      swap3\n      swap2\n      pop\n      pop\n      jump\t// out\n        /* \"#utility.yul\":150:289   */\n    tag_42:\n        /* \"#utility.yul\":196:201   */\n      0x00\n        /* \"#utility.yul\":234:240   */\n      dup2\n        /* \"#utility.yul\":221:241   */\n      calldataload\n        /* \"#utility.yul\":212:241   */\n      swap1\n      pop\n        /* \"#utility.yul\":250:283   */\n      tag_44\n        /* \"#utility.yul\":277:282   */\n      dup2\n        /* \"#utility.yul\":250:283   */\n      tag_45\n      jump\t// in\n    tag_44:\n        /* \"#utility.yul\":150:289   */\n      swap3\n      swap2\n      pop\n      pop\n      jump\t// out\n        /* \"#utility.yul\":295:640   */\n    tag_23:\n        /* \"#utility.yul\":362:368   */\n      0x00\n        /* \"#utility.yul\":411:413   */\n      0x20\n        /* \"#utility.yul\":399:408   */\n      dup3\n        /* \"#utility.yul\":390:397   */\n      dup5\n        /* \"#utility.yul\":386:409   */\n      sub\n        /* \"#utility.yul\":382:414   */\n      slt\n        /* \"#utility.yul\":379:498   */\n      iszero\n      tag_47\n      jumpi\n        /* \"#utility.yul\":417:496   */\n      tag_48\n      tag_49\n      jump\t// in\n    tag_48:\n        /* \"#utility.yul\":379:498   */\n    tag_47:\n        /* \"#utility.yul\":537:538   */\n      0x00\n        /* \"#utility.yul\":562:623   */\n      tag_50\n        /* \"#utility.yul\":615:622   */\n      dup5\n        /* \"#utility.yul\":606:612   */\n      dup3\n        /* \"#utility.yul\":595:604   */\n      dup6\n        /* \"#utility.yul\":591:613   */\n      add\n        /* \"#utility.yul\":562:623   */\n      tag_38\n      jump\t// in\n    tag_50:\n        /* \"#utility.yul\":552:623   */\n      swap2\n      pop\n        /* \"#utility.yul\":508:633   */\n      pop\n        /* \"#utility.yul\":295:640   */\n      swap3\n      swap2\n      pop\n      pop\n      jump\t// out\n        /* \"#utility.yul\":646:975   */\n    tag_6:\n        /* \"#utility.yul\":705:711   */\n      0x00\n        /* \"#utility.yul\":754:756   */\n      0x20\n        /* \"#utility.yul\":742:751   */\n      dup3\n        /* \"#utility.yul\":733:740   */\n      dup5\n        /* \"#utility.yul\":729:752   */\n      sub\n        /* \"#utility.yul\":725:757   */\n      slt\n        /* \"#utility.yul\":722:841   */\n      iszero\n      tag_52\n      jumpi\n        /* \"#utility.yul\":760:839   */\n      tag_53\n      tag_49\n      jump\t// in\n    tag_53:\n        /* \"#utility.yul\":722:841   */\n    tag_52:\n        /* \"#utility.yul\":880:881   */\n      0x00\n        /* \"#utility.yul\":905:958   */\n      tag_54\n        /* \"#utility.yul\":950:957   */\n      dup5\n        /* \"#utility.yul\":941:947   */\n      dup3\n        /* \"#utility.yul\":930:939   */\n      dup6\n        /* \"#utility.yul\":926:948   */\n      add\n        /* \"#utility.yul\":905:958   */\n      tag_42\n      jump\t// in\n    tag_54:\n        /* \"#utility.yul\":895:958   */\n      swap2\n      pop\n        /* \"#utility.yul\":851:968   */\n      pop\n        /* \"#utility.yul\":646:975   */\n      swap3\n      swap2\n      pop\n      pop\n      jump\t// out\n        /* \"#utility.yul\":981:1099   */\n    tag_55:\n        /* \"#utility.yul\":1068:1092   */\n      tag_57\n        /* \"#utility.yul\":1086:1091   */\n      dup2\n        /* \"#utility.yul\":1068:1092   */\n      tag_58\n      jump\t// in\n    tag_57:\n        /* \"#utility.yul\":1063:1066   */\n      dup3\n        /* \"#utility.yul\":1056:1093   */\n      mstore\n        /* \"#utility.yul\":981:1099   */\n      pop\n      pop\n      jump\t// out\n        /* \"#utility.yul\":1105:1294   */\n    tag_59:\n        /* \"#utility.yul\":1221:1287   */\n      tag_61\n        /* \"#utility.yul\":1281:1286   */\n      dup2\n        /* \"#utility.yul\":1221:1287   */\n      tag_62\n      jump\t// in\n    tag_61:\n        /* \"#utility.yul\":1216:1219   */\n      dup3\n        /* \"#utility.yul\":1209:1288   */\n      mstore\n        /* \"#utility.yul\":1105:1294   */\n      pop\n      pop\n      jump\t// out\n        /* \"#utility.yul\":1300:1666   */\n    tag_63:\n        /* \"#utility.yul\":1442:1445   */\n      0x00\n        /* \"#utility.yul\":1463:1530   */\n      tag_65\n        /* \"#utility.yul\":1527:1529   */\n      0x2c\n        /* \"#utility.yul\":1522:1525   */\n      dup4\n        /* \"#utility.yul\":1463:1530   */\n      tag_66\n      jump\t// in\n    tag_65:\n        /* \"#utility.yul\":1456:1530   */\n      swap2\n      pop\n        /* \"#utility.yul\":1539:1632   */\n      tag_67\n        /* \"#utility.yul\":1628:1631   */\n      dup3\n        /* \"#utility.yul\":1539:1632   */\n      tag_68\n      jump\t// in\n    tag_67:\n        /* \"#utility.yul\":1657:1659   */\n      0x40\n        /* \"#utility.yul\":1652:1655   */\n      dup3\n        /* \"#utility.yul\":1648:1660   */\n      add\n        /* \"#utility.yul\":1641:1660   */\n      swap1\n      pop\n        /* \"#utility.yul\":1300:1666   */\n      swap2\n      swap1\n      pop\n      jump\t// out\n        /* \"#utility.yul\":1672:1790   */\n    tag_69:\n        /* \"#utility.yul\":1759:1783   */\n      tag_71\n        /* \"#utility.yul\":1777:1782   */\n      dup2\n        /* \"#utility.yul\":1759:1783   */\n      tag_72\n      jump\t// in\n    tag_71:\n        /* \"#utility.yul\":1754:1757   */\n      dup3\n        /* \"#utility.yul\":1747:1784   */\n      mstore\n        /* \"#utility.yul\":1672:1790   */\n      pop\n      pop\n      jump\t// out\n        /* \"#utility.yul\":1796:2018   */\n    tag_12:\n        /* \"#utility.yul\":1889:1893   */\n      0x00\n        /* \"#utility.yul\":1927:1929   */\n      0x20\n        /* \"#utility.yul\":1916:1925   */\n      dup3\n        /* \"#utility.yul\":1912:1930   */\n      add\n        /* \"#utility.yul\":1904:1930   */\n      swap1\n      pop\n        /* \"#utility.yul\":1940:2011   */\n      tag_74\n        /* \"#utility.yul\":2008:2009   */\n      0x00\n        /* \"#utility.yul\":1997:2006   */\n      dup4\n        /* \"#utility.yul\":1993:2010   */\n      add\n        /* \"#utility.yul\":1984:1990   */\n      dup5\n        /* \"#utility.yul\":1940:2011   */\n      tag_55\n      jump\t// in\n    tag_74:\n        /* \"#utility.yul\":1796:2018   */\n      swap3\n      swap2\n      pop\n      pop\n      jump\t// out\n        /* \"#utility.yul\":2024:2466   */\n    tag_25:\n        /* \"#utility.yul\":2173:2177   */\n      0x00\n        /* \"#utility.yul\":2211:2213   */\n      0x60\n        /* \"#utility.yul\":2200:2209   */\n      dup3\n        /* \"#utility.yul\":2196:2214   */\n      add\n        /* \"#utility.yul\":2188:2214   */\n      swap1\n      pop\n        /* \"#utility.yul\":2224:2295   */\n      tag_76\n        /* \"#utility.yul\":2292:2293   */\n      0x00\n        /* \"#utility.yul\":2281:2290   */\n      dup4\n        /* \"#utility.yul\":2277:2294   */\n      add\n        /* \"#utility.yul\":2268:2274   */\n      dup7\n        /* \"#utility.yul\":2224:2295   */\n      tag_55\n      jump\t// in\n    tag_76:\n        /* \"#utility.yul\":2305:2377   */\n      tag_77\n        /* \"#utility.yul\":2373:2375   */\n      0x20\n        /* \"#utility.yul\":2362:2371   */\n      dup4\n        /* \"#utility.yul\":2358:2376   */\n      add\n        /* \"#utility.yul\":2349:2355   */\n      dup6\n        /* \"#utility.yul\":2305:2377   */\n      tag_55\n      jump\t// in\n    tag_77:\n        /* \"#utility.yul\":2387:2459   */\n      tag_78\n        /* \"#utility.yul\":2455:2457   */\n      0x40\n        /* \"#utility.yul\":2444:2453   */\n      dup4\n        /* \"#utility.yul\":2440:2458   */\n      add\n        /* \"#utility.yul\":2431:2437   */\n      dup5\n        /* \"#utility.yul\":2387:2459   */\n      tag_69\n      jump\t// in\n    tag_78:\n        /* \"#utility.yul\":2024:2466   */\n      swap5\n      swap4\n      pop\n      pop\n      pop\n      pop\n      jump\t// out\n        /* \"#utility.yul\":2472:2862   */\n    tag_18:\n        /* \"#utility.yul\":2622:2626   */\n      0x00\n        /* \"#utility.yul\":2660:2662   */\n      0x40\n        /* \"#utility.yul\":2649:2658   */\n      dup3\n        /* \"#utility.yul\":2645:2663   */\n      add\n        /* \"#utility.yul\":2637:2663   */\n      swap1\n      pop\n        /* \"#utility.yul\":2673:2744   */\n      tag_80\n        /* \"#utility.yul\":2741:2742   */\n      0x00\n        /* \"#utility.yul\":2730:2739   */\n      dup4\n        /* \"#utility.yul\":2726:2743   */\n      add\n        /* \"#utility.yul\":2717:2723   */\n      dup6\n        /* \"#utility.yul\":2673:2744   */\n      tag_55\n      jump\t// in\n    tag_80:\n        /* \"#utility.yul\":2754:2855   */\n      tag_81\n        /* \"#utility.yul\":2851:2853   */\n      0x20\n        /* \"#utility.yul\":2840:2849   */\n      dup4\n        /* \"#utility.yul\":2836:2854   */\n      add\n        /* \"#utility.yul\":2827:2833   */\n      dup5\n        /* \"#utility.yul\":2754:2855   */\n      tag_59\n      jump\t// in\n    tag_81:\n        /* \"#utility.yul\":2472:2862   */\n      swap4\n      swap3\n      pop\n      pop\n      pop\n      jump\t// out\n        /* \"#utility.yul\":2868:3200   */\n    tag_31:\n        /* \"#utility.yul\":2989:2993   */\n      0x00\n        /* \"#utility.yul\":3027:3029   */\n      0x40\n        /* \"#utility.yul\":3016:3025   */\n      dup3\n        /* \"#utility.yul\":3012:3030   */\n      add\n        /* \"#utility.yul\":3004:3030   */\n      swap1\n      pop\n        /* \"#utility.yul\":3040:3111   */\n      tag_83\n        /* \"#utility.yul\":3108:3109   */\n      0x00\n        /* \"#utility.yul\":3097:3106   */\n      dup4\n        /* \"#utility.yul\":3093:3110   */\n      add\n        /* \"#utility.yul\":3084:3090   */\n      dup6\n        /* \"#utility.yul\":3040:3111   */\n      tag_55\n      jump\t// in\n    tag_83:\n        /* \"#utility.yul\":3121:3193   */\n      tag_84\n        /* \"#utility.yul\":3189:3191   */\n      0x20\n        /* \"#utility.yul\":3178:3187   */\n      dup4\n        /* \"#utility.yul\":3174:3192   */\n      add\n        /* \"#utility.yul\":3165:3171   */\n      dup5\n        /* \"#utility.yul\":3121:3193   */\n      tag_69\n      jump\t// in\n    tag_84:\n        /* \"#utility.yul\":2868:3200   */\n      swap4\n      swap3\n      pop\n      pop\n      pop\n      jump\t// out\n        /* \"#utility.yul\":3206:3625   */\n    tag_16:\n        /* \"#utility.yul\":3372:3376   */\n      0x00\n        /* \"#utility.yul\":3410:3412   */\n      0x20\n        /* \"#utility.yul\":3399:3408   */\n      dup3\n        /* \"#utility.yul\":3395:3413   */\n      add\n        /* \"#utility.yul\":3387:3413   */\n      swap1\n      pop\n        /* \"#utility.yul\":3459:3468   */\n      dup2\n        /* \"#utility.yul\":3453:3457   */\n      dup2\n        /* \"#utility.yul\":3449:3469   */\n      sub\n        /* \"#utility.yul\":3445:3446   */\n      0x00\n        /* \"#utility.yul\":3434:3443   */\n      dup4\n        /* \"#utility.yul\":3430:3447   */\n      add\n        /* \"#utility.yul\":3423:3470   */\n      mstore\n        /* \"#utility.yul\":3487:3618   */\n      tag_86\n        /* \"#utility.yul\":3613:3617   */\n      dup2\n        /* \"#utility.yul\":3487:3618   */\n      tag_63\n      jump\t// in\n    tag_86:\n        /* \"#utility.yul\":3479:3618   */\n      swap1\n      pop\n        /* \"#utility.yul\":3206:3625   */\n      swap2\n      swap1\n      pop\n      jump\t// out\n        /* \"#utility.yul\":3712:3881   */\n    tag_66:\n        /* \"#utility.yul\":3796:3807   */\n      0x00\n        /* \"#utility.yul\":3830:3836   */\n      dup3\n        /* \"#utility.yul\":3825:3828   */\n      dup3\n        /* \"#utility.yul\":3818:3837   */\n      mstore\n        /* \"#utility.yul\":3870:3874   */\n      0x20\n        /* \"#utility.yul\":3865:3868   */\n      dup3\n        /* \"#utility.yul\":3861:3875   */\n      add\n        /* \"#utility.yul\":3846:3875   */\n      swap1\n      pop\n        /* \"#utility.yul\":3712:3881   */\n      swap3\n      swap2\n      pop\n      pop\n      jump\t// out\n        /* \"#utility.yul\":3887:3983   */\n    tag_58:\n        /* \"#utility.yul\":3924:3931   */\n      0x00\n        /* \"#utility.yul\":3953:3977   */\n      tag_91\n        /* \"#utility.yul\":3971:3976   */\n      dup3\n        /* \"#utility.yul\":3953:3977   */\n      tag_92\n      jump\t// in\n    tag_91:\n        /* \"#utility.yul\":3942:3977   */\n      swap1\n      pop\n        /* \"#utility.yul\":3887:3983   */\n      swap2\n      swap1\n      pop\n      jump\t// out\n        /* \"#utility.yul\":3989:4079   */\n    tag_93:\n        /* \"#utility.yul\":4023:4030   */\n      0x00\n        /* \"#utility.yul\":4066:4071   */\n      dup2\n        /* \"#utility.yul\":4059:4072   */\n      iszero\n        /* \"#utility.yul\":4052:4073   */\n      iszero\n        /* \"#utility.yul\":4041:4073   */\n      swap1\n      pop\n        /* \"#utility.yul\":3989:4079   */\n      swap2\n      swap1\n      pop\n      jump\t// out\n        /* \"#utility.yul\":4085:4211   */\n    tag_92:\n        /* \"#utility.yul\":4122:4129   */\n      0x00\n        /* \"#utility.yul\":4162:4204   */\n      0xffffffffffffffffffffffffffffffffffffffff\n        /* \"#utility.yul\":4155:4160   */\n      dup3\n        /* \"#utility.yul\":4151:4205   */\n      and\n        /* \"#utility.yul\":4140:4205   */\n      swap1\n      pop\n        /* \"#utility.yul\":4085:4211   */\n      swap2\n      swap1\n      pop\n      jump\t// out\n        /* \"#utility.yul\":4217:4294   */\n    tag_72:\n        /* \"#utility.yul\":4254:4261   */\n      0x00\n        /* \"#utility.yul\":4283:4288   */\n      dup2\n        /* \"#utility.yul\":4272:4288   */\n      swap1\n      pop\n        /* \"#utility.yul\":4217:4294   */\n      swap2\n      swap1\n      pop\n      jump\t// out\n        /* \"#utility.yul\":4300:4442   */\n    tag_62:\n        /* \"#utility.yul\":4379:4388   */\n      0x00\n        /* \"#utility.yul\":4412:4436   */\n      tag_98\n        /* \"#utility.yul\":4430:4435   */\n      dup3\n        /* \"#utility.yul\":4412:4436   */\n      tag_72\n      jump\t// in\n    tag_98:\n        /* \"#utility.yul\":4399:4436   */\n      swap1\n      pop\n        /* \"#utility.yul\":4300:4442   */\n      swap2\n      swap1\n      pop\n      jump\t// out\n        /* \"#utility.yul\":4571:4688   */\n    tag_49:\n        /* \"#utility.yul\":4680:4681   */\n      0x00\n        /* \"#utility.yul\":4677:4678   */\n      dup1\n        /* \"#utility.yul\":4670:4682   */\n      revert\n        /* \"#utility.yul\":4694:4925   */\n    tag_68:\n        /* \"#utility.yul\":4834:4868   */\n      0x54686520616d6f756e74206f662045544820616e6420746f6b656e732073686f\n        /* \"#utility.yul\":4830:4831   */\n      0x00\n        /* \"#utility.yul\":4822:4828   */\n      dup3\n        /* \"#utility.yul\":4818:4832   */\n      add\n        /* \"#utility.yul\":4811:4869   */\n      mstore\n        /* \"#utility.yul\":4903:4917   */\n      0x756c6420626520657175616c0000000000000000000000000000000000000000\n        /* \"#utility.yul\":4898:4900   */\n      0x20\n        /* \"#utility.yul\":4890:4896   */\n      dup3\n        /* \"#utility.yul\":4886:4901   */\n      add\n        /* \"#utility.yul\":4879:4918   */\n      mstore\n        /* \"#utility.yul\":4694:4925   */\n      pop\n      jump\t// out\n        /* \"#utility.yul\":4931:5047   */\n    tag_41:\n        /* \"#utility.yul\":5001:5022   */\n      tag_104\n        /* \"#utility.yul\":5016:5021   */\n      dup2\n        /* \"#utility.yul\":5001:5022   */\n      tag_93\n      jump\t// in\n    tag_104:\n        /* \"#utility.yul\":4994:4999   */\n      dup2\n        /* \"#utility.yul\":4991:5023   */\n      eq\n        /* \"#utility.yul\":4981:5041   */\n      tag_105\n      jumpi\n        /* \"#utility.yul\":5037:5038   */\n      0x00\n        /* \"#utility.yul\":5034:5035   */\n      dup1\n        /* \"#utility.yul\":5027:5039   */\n      revert\n        /* \"#utility.yul\":4981:5041   */\n    tag_105:\n        /* \"#utility.yul\":4931:5047   */\n      pop\n      jump\t// out\n        /* \"#utility.yul\":5053:5175   */\n    tag_45:\n        /* \"#utility.yul\":5126:5150   */\n      tag_107\n        /* \"#utility.yul\":5144:5149   */\n      dup2\n        /* \"#utility.yul\":5126:5150   */\n      tag_72\n      jump\t// in\n    tag_107:\n        /* \"#utility.yul\":5119:5124   */\n      dup2\n        /* \"#utility.yul\":5116:5151   */\n      eq\n        /* \"#utility.yul\":5106:5169   */\n      tag_108\n      jumpi\n        /* \"#utility.yul\":5165:5166   */\n      0x00\n        /* \"#utility.yul\":5162:5163   */\n      dup1\n        /* \"#utility.yul\":5155:5167   */\n      revert\n        /* \"#utility.yul\":5106:5169   */\n    tag_108:\n        /* \"#utility.yul\":5053:5175   */\n      pop\n      jump\t// out\n\n    auxdata: 0xa264697066735822122080ffe53195fdc1fc9bf72f4b2cbd9f43fb2b9ce4bc5a7607ccfa7bb76d48b60964736f6c63430008070033\n}\n",
				"bytecode": {
					"linkReferences": {},
					"object": "608060405234801561001057600080fd5b506040516106e63803806106e68339818101604052810190610032919061008d565b806000806101000a81548173ffffffffffffffffffffffffffffffffffffffff021916908373ffffffffffffffffffffffffffffffffffffffff16021790555050610108565b600081519050610087816100f1565b92915050565b6000602082840312156100a3576100a26100ec565b5b60006100b184828501610078565b91505092915050565b60006100c5826100cc565b9050919050565b600073ffffffffffffffffffffffffffffffffffffffff82169050919050565b600080fd5b6100fa816100ba565b811461010557600080fd5b50565b6105cf806101176000396000f3fe6080604052600436106100295760003560e01c8063eb521a4c1461002e578063f4325d671461004a575b600080fd5b6100486004803603810190610043919061036b565b610075565b005b34801561005657600080fd5b5061005f6102f0565b60405161006c91906103e8565b60405180910390f35b8034146100b7576040517f08c379a00000000000000000000000000000000000000000000000000000000081526004016100ae9061048c565b60405180910390fd5b73f5e642e29d6516b2301dfa2db87a40b4204b8d6b73ffffffffffffffffffffffffffffffffffffffff1663095ea7b330683635c9adc5dea000006040518363ffffffff1660e01b815260040161010f92919061043a565b602060405180830381600087803b15801561012957600080fd5b505af115801561013d573d6000803e3d6000fd5b505050506040513d601f19601f82011682018060405250810190610161919061033e565b5060008054906101000a900473ffffffffffffffffffffffffffffffffffffffff1673ffffffffffffffffffffffffffffffffffffffff166323b872dd3330846040518463ffffffff1660e01b81526004016101bf93929190610403565b602060405180830381600087803b1580156101d957600080fd5b505af11580156101ed573d6000803e3d6000fd5b505050506040513d601f19601f82011682018060405250810190610211919061033e565b5073f5e642e29d6516b2301dfa2db87a40b4204b8d6b73ffffffffffffffffffffffffffffffffffffffff1663a9059cbb33836040518363ffffffff1660e01b8152600401610261929190610463565b602060405180830381600087803b15801561027b57600080fd5b505af115801561028f573d6000803e3d6000fd5b505050506040513d601f19601f820116820180604052508101906102b3919061033e565b507fb62268a18d99fe191ac8e62f823ab1eec698609a81b2c8de3dac902896b09da633826040516102e5929190610463565b60405180910390a150565b60008054906101000a900473ffffffffffffffffffffffffffffffffffffffff1681565b6000815190506103238161056b565b92915050565b60008135905061033881610582565b92915050565b60006020828403121561035457610353610517565b5b600061036284828501610314565b91505092915050565b60006020828403121561038157610380610517565b5b600061038f84828501610329565b91505092915050565b6103a1816104bd565b82525050565b6103b081610505565b82525050565b60006103c3602c836104ac565b91506103ce8261051c565b604082019050919050565b6103e2816104fb565b82525050565b60006020820190506103fd6000830184610398565b92915050565b60006060820190506104186000830186610398565b6104256020830185610398565b61043260408301846103d9565b949350505050565b600060408201905061044f6000830185610398565b61045c60208301846103a7565b9392505050565b60006040820190506104786000830185610398565b61048560208301846103d9565b9392505050565b600060208201905081810360008301526104a5816103b6565b9050919050565b600082825260208201905092915050565b60006104c8826104db565b9050919050565b60008115159050919050565b600073ffffffffffffffffffffffffffffffffffffffff82169050919050565b6000819050919050565b6000610510826104fb565b9050919050565b600080fd5b7f54686520616d6f756e74206f662045544820616e6420746f6b656e732073686f60008201527f756c6420626520657175616c0000000000000000000000000000000000000000602082015250565b610574816104cf565b811461057f57600080fd5b50565b61058b816104fb565b811461059657600080fd5b5056fea264697066735822122080ffe53195fdc1fc9bf72f4b2cbd9f43fb2b9ce4bc5a7607ccfa7bb76d48b60964736f6c63430008070033",
					"opcodes": "PUSH1 0x80 PUSH1 0x40 MSTORE CALLVALUE DUP1 ISZERO PUSH2 0x10 JUMPI PUSH1 0x0 DUP1 REVERT JUMPDEST POP PUSH1 0x40 MLOAD PUSH2 0x6E6 CODESIZE SUB DUP1 PUSH2 0x6E6 DUP4 CODECOPY DUP2 DUP2 ADD PUSH1 0x40 MSTORE DUP2 ADD SWAP1 PUSH2 0x32 SWAP2 SWAP1 PUSH2 0x8D JUMP JUMPDEST DUP1 PUSH1 0x0 DUP1 PUSH2 0x100 EXP DUP2 SLOAD DUP2 PUSH20 0xFFFFFFFFFFFFFFFFFFFFFFFFFFFFFFFFFFFFFFFF MUL NOT AND SWAP1 DUP4 PUSH20 0xFFFFFFFFFFFFFFFFFFFFFFFFFFFFFFFFFFFFFFFF AND MUL OR SWAP1 SSTORE POP POP PUSH2 0x108 JUMP JUMPDEST PUSH1 0x0 DUP2 MLOAD SWAP1 POP PUSH2 0x87 DUP2 PUSH2 0xF1 JUMP JUMPDEST SWAP3 SWAP2 POP POP JUMP JUMPDEST PUSH1 0x0 PUSH1 0x20 DUP3 DUP5 SUB SLT ISZERO PUSH2 0xA3 JUMPI PUSH2 0xA2 PUSH2 0xEC JUMP JUMPDEST JUMPDEST PUSH1 0x0 PUSH2 0xB1 DUP5 DUP3 DUP6 ADD PUSH2 0x78 JUMP JUMPDEST SWAP2 POP POP SWAP3 SWAP2 POP POP JUMP JUMPDEST PUSH1 0x0 PUSH2 0xC5 DUP3 PUSH2 0xCC JUMP JUMPDEST SWAP1 POP SWAP2 SWAP1 POP JUMP JUMPDEST PUSH1 0x0 PUSH20 0xFFFFFFFFFFFFFFFFFFFFFFFFFFFFFFFFFFFFFFFF DUP3 AND SWAP1 POP SWAP2 SWAP1 POP JUMP JUMPDEST PUSH1 0x0 DUP1 REVERT JUMPDEST PUSH2 0xFA DUP2 PUSH2 0xBA JUMP JUMPDEST DUP2 EQ PUSH2 0x105 JUMPI PUSH1 0x0 DUP1 REVERT JUMPDEST POP JUMP JUMPDEST PUSH2 0x5CF DUP1 PUSH2 0x117 PUSH1 0x0 CODECOPY PUSH1 0x0 RETURN INVALID PUSH1 0x80 PUSH1 0x40 MSTORE PUSH1 0x4 CALLDATASIZE LT PUSH2 0x29 JUMPI PUSH1 0x0 CALLDATALOAD PUSH1 0xE0 SHR DUP1 PUSH4 0xEB521A4C EQ PUSH2 0x2E JUMPI DUP1 PUSH4 0xF4325D67 EQ PUSH2 0x4A JUMPI JUMPDEST PUSH1 0x0 DUP1 REVERT JUMPDEST PUSH2 0x48 PUSH1 0x4 DUP1 CALLDATASIZE SUB DUP2 ADD SWAP1 PUSH2 0x43 SWAP2 SWAP1 PUSH2 0x36B JUMP JUMPDEST PUSH2 0x75 JUMP JUMPDEST STOP JUMPDEST CALLVALUE DUP1 ISZERO PUSH2 0x56 JUMPI PUSH1 0x0 DUP1 REVERT JUMPDEST POP PUSH2 0x5F PUSH2 0x2F0 JUMP JUMPDEST PUSH1 0x40 MLOAD PUSH2 0x6C SWAP2 SWAP1 PUSH2 0x3E8 JUMP JUMPDEST PUSH1 0x40 MLOAD DUP1 SWAP2 SUB SWAP1 RETURN JUMPDEST DUP1 CALLVALUE EQ PUSH2 0xB7 JUMPI PUSH1 0x40 MLOAD PUSH32 0x8C379A000000000000000000000000000000000000000000000000000000000 DUP2 MSTORE PUSH1 0x4 ADD PUSH2 0xAE SWAP1 PUSH2 0x48C JUMP JUMPDEST PUSH1 0x40 MLOAD DUP1 SWAP2 SUB SWAP1 REVERT JUMPDEST PUSH20 0xF5E642E29D6516B2301DFA2DB87A40B4204B8D6B PUSH20 0xFFFFFFFFFFFFFFFFFFFFFFFFFFFFFFFFFFFFFFFF AND PUSH4 0x95EA7B3 ADDRESS PUSH9 0x3635C9ADC5DEA00000 PUSH1 0x40 MLOAD DUP4 PUSH4 0xFFFFFFFF AND PUSH1 0xE0 SHL DUP2 MSTORE PUSH1 0x4 ADD PUSH2 0x10F SWAP3 SWAP2 SWAP1 PUSH2 0x43A JUMP JUMPDEST PUSH1 0x20 PUSH1 0x40 MLOAD DUP1 DUP4 SUB DUP2 PUSH1 0x0 DUP8 DUP1 EXTCODESIZE ISZERO DUP1 ISZERO PUSH2 0x129 JUMPI PUSH1 0x0 DUP1 REVERT JUMPDEST POP GAS CALL ISZERO DUP1 ISZERO PUSH2 0x13D JUMPI RETURNDATASIZE PUSH1 0x0 DUP1 RETURNDATACOPY RETURNDATASIZE PUSH1 0x0 REVERT JUMPDEST POP POP POP POP PUSH1 0x40 MLOAD RETURNDATASIZE PUSH1 0x1F NOT PUSH1 0x1F DUP3 ADD AND DUP3 ADD DUP1 PUSH1 0x40 MSTORE POP DUP2 ADD SWAP1 PUSH2 0x161 SWAP2 SWAP1 PUSH2 0x33E JUMP JUMPDEST POP PUSH1 0x0 DUP1 SLOAD SWAP1 PUSH2 0x100 EXP SWAP1 DIV PUSH20 0xFFFFFFFFFFFFFFFFFFFFFFFFFFFFFFFFFFFFFFFF AND PUSH20 0xFFFFFFFFFFFFFFFFFFFFFFFFFFFFFFFFFFFFFFFF AND PUSH4 0x23B872DD CALLER ADDRESS DUP5 PUSH1 0x40 MLOAD DUP5 PUSH4 0xFFFFFFFF AND PUSH1 0xE0 SHL DUP2 MSTORE PUSH1 0x4 ADD PUSH2 0x1BF SWAP4 SWAP3 SWAP2 SWAP1 PUSH2 0x403 JUMP JUMPDEST PUSH1 0x20 PUSH1 0x40 MLOAD DUP1 DUP4 SUB DUP2 PUSH1 0x0 DUP8 DUP1 EXTCODESIZE ISZERO DUP1 ISZERO PUSH2 0x1D9 JUMPI PUSH1 0x0 DUP1 REVERT JUMPDEST POP GAS CALL ISZERO DUP1 ISZERO PUSH2 0x1ED JUMPI RETURNDATASIZE PUSH1 0x0 DUP1 RETURNDATACOPY RETURNDATASIZE PUSH1 0x0 REVERT JUMPDEST POP POP POP POP PUSH1 0x40 MLOAD RETURNDATASIZE PUSH1 0x1F NOT PUSH1 0x1F DUP3 ADD AND DUP3 ADD DUP1 PUSH1 0x40 MSTORE POP DUP2 ADD SWAP1 PUSH2 0x211 SWAP2 SWAP1 PUSH2 0x33E JUMP JUMPDEST POP PUSH20 0xF5E642E29D6516B2301DFA2DB87A40B4204B8D6B PUSH20 0xFFFFFFFFFFFFFFFFFFFFFFFFFFFFFFFFFFFFFFFF AND PUSH4 0xA9059CBB CALLER DUP4 PUSH1 0x40 MLOAD DUP4 PUSH4 0xFFFFFFFF AND PUSH1 0xE0 SHL DUP2 MSTORE PUSH1 0x4 ADD PUSH2 0x261 SWAP3 SWAP2 SWAP1 PUSH2 0x463 JUMP JUMPDEST PUSH1 0x20 PUSH1 0x40 MLOAD DUP1 DUP4 SUB DUP2 PUSH1 0x0 DUP8 DUP1 EXTCODESIZE ISZERO DUP1 ISZERO PUSH2 0x27B JUMPI PUSH1 0x0 DUP1 REVERT JUMPDEST POP GAS CALL ISZERO DUP1 ISZERO PUSH2 0x28F JUMPI RETURNDATASIZE PUSH1 0x0 DUP1 RETURNDATACOPY RETURNDATASIZE PUSH1 0x0 REVERT JUMPDEST POP POP POP POP PUSH1 0x40 MLOAD RETURNDATASIZE PUSH1 0x1F NOT PUSH1 0x1F DUP3 ADD AND DUP3 ADD DUP1 PUSH1 0x40 MSTORE POP DUP2 ADD SWAP1 PUSH2 0x2B3 SWAP2 SWAP1 PUSH2 0x33E JUMP JUMPDEST POP PUSH32 0xB62268A18D99FE191AC8E62F823AB1EEC698609A81B2C8DE3DAC902896B09DA6 CALLER DUP3 PUSH1 0x40 MLOAD PUSH2 0x2E5 SWAP3 SWAP2 SWAP1 PUSH2 0x463 JUMP JUMPDEST PUSH1 0x40 MLOAD DUP1 SWAP2 SUB SWAP1 LOG1 POP JUMP JUMPDEST PUSH1 0x0 DUP1 SLOAD SWAP1 PUSH2 0x100 EXP SWAP1 DIV PUSH20 0xFFFFFFFFFFFFFFFFFFFFFFFFFFFFFFFFFFFFFFFF AND DUP2 JUMP JUMPDEST PUSH1 0x0 DUP2 MLOAD SWAP1 POP PUSH2 0x323 DUP2 PUSH2 0x56B JUMP JUMPDEST SWAP3 SWAP2 POP POP JUMP JUMPDEST PUSH1 0x0 DUP2 CALLDATALOAD SWAP1 POP PUSH2 0x338 DUP2 PUSH2 0x582 JUMP JUMPDEST SWAP3 SWAP2 POP POP JUMP JUMPDEST PUSH1 0x0 PUSH1 0x20 DUP3 DUP5 SUB SLT ISZERO PUSH2 0x354 JUMPI PUSH2 0x353 PUSH2 0x517 JUMP JUMPDEST JUMPDEST PUSH1 0x0 PUSH2 0x362 DUP5 DUP3 DUP6 ADD PUSH2 0x314 JUMP JUMPDEST SWAP2 POP POP SWAP3 SWAP2 POP POP JUMP JUMPDEST PUSH1 0x0 PUSH1 0x20 DUP3 DUP5 SUB SLT ISZERO PUSH2 0x381 JUMPI PUSH2 0x380 PUSH2 0x517 JUMP JUMPDEST JUMPDEST PUSH1 0x0 PUSH2 0x38F DUP5 DUP3 DUP6 ADD PUSH2 0x329 JUMP JUMPDEST SWAP2 POP POP SWAP3 SWAP2 POP POP JUMP JUMPDEST PUSH2 0x3A1 DUP2 PUSH2 0x4BD JUMP JUMPDEST DUP3 MSTORE POP POP JUMP JUMPDEST PUSH2 0x3B0 DUP2 PUSH2 0x505 JUMP JUMPDEST DUP3 MSTORE POP POP JUMP JUMPDEST PUSH1 0x0 PUSH2 0x3C3 PUSH1 0x2C DUP4 PUSH2 0x4AC JUMP JUMPDEST SWAP2 POP PUSH2 0x3CE DUP3 PUSH2 0x51C JUMP JUMPDEST PUSH1 0x40 DUP3 ADD SWAP1 POP SWAP2 SWAP1 POP JUMP JUMPDEST PUSH2 0x3E2 DUP2 PUSH2 0x4FB JUMP JUMPDEST DUP3 MSTORE POP POP JUMP JUMPDEST PUSH1 0x0 PUSH1 0x20 DUP3 ADD SWAP1 POP PUSH2 0x3FD PUSH1 0x0 DUP4 ADD DUP5 PUSH2 0x398 JUMP JUMPDEST SWAP3 SWAP2 POP POP JUMP JUMPDEST PUSH1 0x0 PUSH1 0x60 DUP3 ADD SWAP1 POP PUSH2 0x418 PUSH1 0x0 DUP4 ADD DUP7 PUSH2 0x398 JUMP JUMPDEST PUSH2 0x425 PUSH1 0x20 DUP4 ADD DUP6 PUSH2 0x398 JUMP JUMPDEST PUSH2 0x432 PUSH1 0x40 DUP4 ADD DUP5 PUSH2 0x3D9 JUMP JUMPDEST SWAP5 SWAP4 POP POP POP POP JUMP JUMPDEST PUSH1 0x0 PUSH1 0x40 DUP3 ADD SWAP1 POP PUSH2 0x44F PUSH1 0x0 DUP4 ADD DUP6 PUSH2 0x398 JUMP JUMPDEST PUSH2 0x45C PUSH1 0x20 DUP4 ADD DUP5 PUSH2 0x3A7 JUMP JUMPDEST SWAP4 SWAP3 POP POP POP JUMP JUMPDEST PUSH1 0x0 PUSH1 0x40 DUP3 ADD SWAP1 POP PUSH2 0x478 PUSH1 0x0 DUP4 ADD DUP6 PUSH2 0x398 JUMP JUMPDEST PUSH2 0x485 PUSH1 0x20 DUP4 ADD DUP5 PUSH2 0x3D9 JUMP JUMPDEST SWAP4 SWAP3 POP POP POP JUMP JUMPDEST PUSH1 0x0 PUSH1 0x20 DUP3 ADD SWAP1 POP DUP2 DUP2 SUB PUSH1 0x0 DUP4 ADD MSTORE PUSH2 0x4A5 DUP2 PUSH2 0x3B6 JUMP JUMPDEST SWAP1 POP SWAP2 SWAP1 POP JUMP JUMPDEST PUSH1 0x0 DUP3 DUP3 MSTORE PUSH1 0x20 DUP3 ADD SWAP1 POP SWAP3 SWAP2 POP POP JUMP JUMPDEST PUSH1 0x0 PUSH2 0x4C8 DUP3 PUSH2 0x4DB JUMP JUMPDEST SWAP1 POP SWAP2 SWAP1 POP JUMP JUMPDEST PUSH1 0x0 DUP2 ISZERO ISZERO SWAP1 POP SWAP2 SWAP1 POP JUMP JUMPDEST PUSH1 0x0 PUSH20 0xFFFFFFFFFFFFFFFFFFFFFFFFFFFFFFFFFFFFFFFF DUP3 AND SWAP1 POP SWAP2 SWAP1 POP JUMP JUMPDEST PUSH1 0x0 DUP2 SWAP1 POP SWAP2 SWAP1 POP JUMP JUMPDEST PUSH1 0x0 PUSH2 0x510 DUP3 PUSH2 0x4FB JUMP JUMPDEST SWAP1 POP SWAP2 SWAP1 POP JUMP JUMPDEST PUSH1 0x0 DUP1 REVERT JUMPDEST PUSH32 0x54686520616D6F756E74206F662045544820616E6420746F6B656E732073686F PUSH1 0x0 DUP3 ADD MSTORE PUSH32 0x756C6420626520657175616C0000000000000000000000000000000000000000 PUSH1 0x20 DUP3 ADD MSTORE POP JUMP JUMPDEST PUSH2 0x574 DUP2 PUSH2 0x4CF JUMP JUMPDEST DUP2 EQ PUSH2 0x57F JUMPI PUSH1 0x0 DUP1 REVERT JUMPDEST POP JUMP JUMPDEST PUSH2 0x58B DUP2 PUSH2 0x4FB JUMP JUMPDEST DUP2 EQ PUSH2 0x596 JUMPI PUSH1 0x0 DUP1 REVERT JUMPDEST POP JUMP INVALID LOG2 PUSH5 0x6970667358 0x22 SLT KECCAK256 DUP1 SELFDESTRUCT 0xE5 BALANCE SWAP6 REVERT 0xC1 0xFC SWAP12 0xF7 0x2F 0x4B 0x2C 0xBD SWAP16 NUMBER 0xFB 0x2B SWAP13 0xE4 0xBC GAS PUSH23 0x7CCFA7BB76D48B60964736F6C63430008070033000000 "
				},
				"gasEstimates": {
					"creation": {
						"codeDepositCost": "297400",
						"executionCost": "infinite",
						"totalCost": "infinite"
					},
					"external": {
						"provideLiquidity(uint256)": "infinite",
						"reserveToken()": "2511"
					}
				},
				"methodIdentifiers": {
					"provideLiquidity(uint256)": "eb521a4c",
					"reserveToken()": "f4325d67"
				}
			},
			"storageLayout": {
				"storage": [
					{
						"astId": 82,
						"contract": "contracts/LiquidityPool.sol:LiquidityPool",
						"label": "reserveToken",
						"offset": 0,
						"slot": "0",
						"type": "t_address"
					}
				],
				"types": {
					"t_address": {
						"encoding": "inplace",
						"label": "address",
						"numberOfBytes": "20"
					}
				}
			},
			"userdoc": {
				"kind": "user",
				"methods": {},
				"version": 1
			}
		}
	}
}