{
	"contracts/LiquidityPool.sol": {
		"LiquidityPool": {
			"abi": [
				{
					"inputs": [
						{
							"internalType": "address",
							"name": "_tokenAddress",
							"type": "address"
						}
					],
					"stateMutability": "nonpayable",
					"type": "constructor"
				},
				{
					"anonymous": false,
					"inputs": [
						{
							"indexed": false,
							"internalType": "address",
							"name": "_liquidityProvider",
							"type": "address"
						},
						{
							"indexed": false,
							"internalType": "uint256",
							"name": "_shares",
							"type": "uint256"
						}
					],
					"name": "liquidityProvided",
					"type": "event"
				},
				{
					"inputs": [
						{
							"internalType": "uint256",
							"name": "_ethAmount",
							"type": "uint256"
						}
					],
					"name": "getDAI",
					"outputs": [],
					"stateMutability": "payable",
					"type": "function"
				},
				{
					"inputs": [
						{
							"internalType": "uint256",
							"name": "_DAIAmount",
							"type": "uint256"
						}
					],
					"name": "getEth",
					"outputs": [],
					"stateMutability": "nonpayable",
					"type": "function"
				},
				{
					"inputs": [
						{
							"internalType": "uint256",
							"name": "_amount",
							"type": "uint256"
						}
					],
					"name": "provideLiquidity",
					"outputs": [],
					"stateMutability": "payable",
					"type": "function"
				},
				{
					"inputs": [
						{
							"internalType": "uint256",
							"name": "_sharesAmount",
							"type": "uint256"
						}
					],
					"name": "reedemShares",
					"outputs": [],
					"stateMutability": "nonpayable",
					"type": "function"
				},
				{
					"inputs": [],
					"name": "reserveToken",
					"outputs": [
						{
							"internalType": "address",
							"name": "",
							"type": "address"
						}
					],
					"stateMutability": "view",
					"type": "function"
				},
				{
					"inputs": [
						{
							"internalType": "address",
							"name": "to",
							"type": "address"
						},
						{
							"internalType": "uint256",
							"name": "_amount",
							"type": "uint256"
						}
					],
					"name": "transferTokens",
					"outputs": [],
					"stateMutability": "nonpayable",
					"type": "function"
				}
			],
			"devdoc": {
				"kind": "dev",
				"methods": {},
				"version": 1
			},
			"evm": {
				"assembly": "    /* \"contracts/LiquidityPool.sol\":241:2303  contract LiquidityPool {... */\n  mstore(0x40, 0x80)\n    /* \"contracts/LiquidityPool.sol\":470:549  constructor(address _tokenAddress){... */\n  callvalue\n  dup1\n  iszero\n  tag_1\n  jumpi\n  0x00\n  dup1\n  revert\ntag_1:\n  pop\n  mload(0x40)\n  sub(codesize, bytecodeSize)\n  dup1\n  bytecodeSize\n  dup4\n  codecopy\n  dup2\n  dup2\n  add\n  0x40\n  mstore\n  dup2\n  add\n  swap1\n  tag_2\n  swap2\n  swap1\n  tag_3\n  jump\t// in\ntag_2:\n    /* \"contracts/LiquidityPool.sol\":529:542  _tokenAddress */\n  dup1\n    /* \"contracts/LiquidityPool.sol\":514:526  reserveToken */\n  0x00\n  dup1\n    /* \"contracts/LiquidityPool.sol\":514:542  reserveToken = _tokenAddress */\n  0x0100\n  exp\n  dup2\n  sload\n  dup2\n  0xffffffffffffffffffffffffffffffffffffffff\n  mul\n  not\n  and\n  swap1\n  dup4\n  0xffffffffffffffffffffffffffffffffffffffff\n  and\n  mul\n  or\n  swap1\n  sstore\n  pop\n    /* \"contracts/LiquidityPool.sol\":470:549  constructor(address _tokenAddress){... */\n  pop\n    /* \"contracts/LiquidityPool.sol\":241:2303  contract LiquidityPool {... */\n  jump(tag_6)\n    /* \"#utility.yul\":88:205   */\ntag_8:\n    /* \"#utility.yul\":197:198   */\n  0x00\n    /* \"#utility.yul\":194:195   */\n  dup1\n    /* \"#utility.yul\":187:199   */\n  revert\n    /* \"#utility.yul\":334:460   */\ntag_10:\n    /* \"#utility.yul\":371:378   */\n  0x00\n    /* \"#utility.yul\":411:453   */\n  0xffffffffffffffffffffffffffffffffffffffff\n    /* \"#utility.yul\":404:409   */\n  dup3\n    /* \"#utility.yul\":400:454   */\n  and\n    /* \"#utility.yul\":389:454   */\n  swap1\n  pop\n    /* \"#utility.yul\":334:460   */\n  swap2\n  swap1\n  pop\n  jump\t// out\n    /* \"#utility.yul\":466:562   */\ntag_11:\n    /* \"#utility.yul\":503:510   */\n  0x00\n    /* \"#utility.yul\":532:556   */\n  tag_20\n    /* \"#utility.yul\":550:555   */\n  dup3\n    /* \"#utility.yul\":532:556   */\n  tag_10\n  jump\t// in\ntag_20:\n    /* \"#utility.yul\":521:556   */\n  swap1\n  pop\n    /* \"#utility.yul\":466:562   */\n  swap2\n  swap1\n  pop\n  jump\t// out\n    /* \"#utility.yul\":568:690   */\ntag_12:\n    /* \"#utility.yul\":641:665   */\n  tag_22\n    /* \"#utility.yul\":659:664   */\n  dup2\n    /* \"#utility.yul\":641:665   */\n  tag_11\n  jump\t// in\ntag_22:\n    /* \"#utility.yul\":634:639   */\n  dup2\n    /* \"#utility.yul\":631:666   */\n  eq\n    /* \"#utility.yul\":621:684   */\n  tag_23\n  jumpi\n    /* \"#utility.yul\":680:681   */\n  0x00\n    /* \"#utility.yul\":677:678   */\n  dup1\n    /* \"#utility.yul\":670:682   */\n  revert\n    /* \"#utility.yul\":621:684   */\ntag_23:\n    /* \"#utility.yul\":568:690   */\n  pop\n  jump\t// out\n    /* \"#utility.yul\":696:839   */\ntag_13:\n    /* \"#utility.yul\":753:758   */\n  0x00\n    /* \"#utility.yul\":784:790   */\n  dup2\n    /* \"#utility.yul\":778:791   */\n  mload\n    /* \"#utility.yul\":769:791   */\n  swap1\n  pop\n    /* \"#utility.yul\":800:833   */\n  tag_25\n    /* \"#utility.yul\":827:832   */\n  dup2\n    /* \"#utility.yul\":800:833   */\n  tag_12\n  jump\t// in\ntag_25:\n    /* \"#utility.yul\":696:839   */\n  swap3\n  swap2\n  pop\n  pop\n  jump\t// out\n    /* \"#utility.yul\":845:1196   */\ntag_3:\n    /* \"#utility.yul\":915:921   */\n  0x00\n    /* \"#utility.yul\":964:966   */\n  0x20\n    /* \"#utility.yul\":952:961   */\n  dup3\n    /* \"#utility.yul\":943:950   */\n  dup5\n    /* \"#utility.yul\":939:962   */\n  sub\n    /* \"#utility.yul\":935:967   */\n  slt\n    /* \"#utility.yul\":932:1051   */\n  iszero\n  tag_27\n  jumpi\n    /* \"#utility.yul\":970:1049   */\n  tag_28\n  tag_8\n  jump\t// in\ntag_28:\n    /* \"#utility.yul\":932:1051   */\ntag_27:\n    /* \"#utility.yul\":1090:1091   */\n  0x00\n    /* \"#utility.yul\":1115:1179   */\n  tag_29\n    /* \"#utility.yul\":1171:1178   */\n  dup5\n    /* \"#utility.yul\":1162:1168   */\n  dup3\n    /* \"#utility.yul\":1151:1160   */\n  dup6\n    /* \"#utility.yul\":1147:1169   */\n  add\n    /* \"#utility.yul\":1115:1179   */\n  tag_13\n  jump\t// in\ntag_29:\n    /* \"#utility.yul\":1105:1179   */\n  swap2\n  pop\n    /* \"#utility.yul\":1061:1189   */\n  pop\n    /* \"#utility.yul\":845:1196   */\n  swap3\n  swap2\n  pop\n  pop\n  jump\t// out\n    /* \"contracts/LiquidityPool.sol\":241:2303  contract LiquidityPool {... */\ntag_6:\n  dataSize(sub_0)\n  dup1\n  dataOffset(sub_0)\n  0x00\n  codecopy\n  0x00\n  return\nstop\n\nsub_0: assembly {\n        /* \"contracts/LiquidityPool.sol\":241:2303  contract LiquidityPool {... */\n      mstore(0x40, 0x80)\n      jumpi(tag_1, lt(calldatasize, 0x04))\n      shr(0xe0, calldataload(0x00))\n      dup1\n      0x1aa5c70e\n      eq\n      tag_2\n      jumpi\n      dup1\n      0x8e3073a6\n      eq\n      tag_3\n      jumpi\n      dup1\n      0xbec3fa17\n      eq\n      tag_4\n      jumpi\n      dup1\n      0xeb521a4c\n      eq\n      tag_5\n      jumpi\n      dup1\n      0xf4325d67\n      eq\n      tag_6\n      jumpi\n      dup1\n      0xff9b3758\n      eq\n      tag_7\n      jumpi\n    tag_1:\n      0x00\n      dup1\n      revert\n        /* \"contracts/LiquidityPool.sol\":1995:2176  function getDAI(uint256 _ethAmount) public payable {... */\n    tag_2:\n      tag_8\n      0x04\n      dup1\n      calldatasize\n      sub\n      dup2\n      add\n      swap1\n      tag_9\n      swap2\n      swap1\n      tag_10\n      jump\t// in\n    tag_9:\n      tag_11\n      jump\t// in\n    tag_8:\n      stop\n        /* \"contracts/LiquidityPool.sol\":1621:1989  function getEth(uint256 _DAIAmount) public {... */\n    tag_3:\n      callvalue\n      dup1\n      iszero\n      tag_12\n      jumpi\n      0x00\n      dup1\n      revert\n    tag_12:\n      pop\n      tag_13\n      0x04\n      dup1\n      calldatasize\n      sub\n      dup2\n      add\n      swap1\n      tag_14\n      swap2\n      swap1\n      tag_10\n      jump\t// in\n    tag_14:\n      tag_15\n      jump\t// in\n    tag_13:\n      stop\n        /* \"contracts/LiquidityPool.sol\":2182:2301  function transferTokens(address to, uint256 _amount) external {... */\n    tag_4:\n      callvalue\n      dup1\n      iszero\n      tag_16\n      jumpi\n      0x00\n      dup1\n      revert\n    tag_16:\n      pop\n      tag_17\n      0x04\n      dup1\n      calldatasize\n      sub\n      dup2\n      add\n      swap1\n      tag_18\n      swap2\n      swap1\n      tag_19\n      jump\t// in\n    tag_18:\n      tag_20\n      jump\t// in\n    tag_17:\n      stop\n        /* \"contracts/LiquidityPool.sol\":630:1052  function provideLiquidity(uint256 _amount) external payable {... */\n    tag_5:\n      tag_21\n      0x04\n      dup1\n      calldatasize\n      sub\n      dup2\n      add\n      swap1\n      tag_22\n      swap2\n      swap1\n      tag_10\n      jump\t// in\n    tag_22:\n      tag_23\n      jump\t// in\n    tag_21:\n      stop\n        /* \"contracts/LiquidityPool.sol\":358:385  address public reserveToken */\n    tag_6:\n      callvalue\n      dup1\n      iszero\n      tag_24\n      jumpi\n      0x00\n      dup1\n      revert\n    tag_24:\n      pop\n      tag_25\n      tag_26\n      jump\t// in\n    tag_25:\n      mload(0x40)\n      tag_27\n      swap2\n      swap1\n      tag_28\n      jump\t// in\n    tag_27:\n      mload(0x40)\n      dup1\n      swap2\n      sub\n      swap1\n      return\n        /* \"contracts/LiquidityPool.sol\":1058:1615  function reedemShares(uint256 _sharesAmount) public {... */\n    tag_7:\n      callvalue\n      dup1\n      iszero\n      tag_29\n      jumpi\n      0x00\n      dup1\n      revert\n    tag_29:\n      pop\n      tag_30\n      0x04\n      dup1\n      calldatasize\n      sub\n      dup2\n      add\n      swap1\n      tag_31\n      swap2\n      swap1\n      tag_10\n      jump\t// in\n    tag_31:\n      tag_32\n      jump\t// in\n    tag_30:\n      stop\n        /* \"contracts/LiquidityPool.sol\":1995:2176  function getDAI(uint256 _ethAmount) public payable {... */\n    tag_11:\n        /* \"contracts/LiquidityPool.sol\":2077:2087  _ethAmount */\n      dup1\n        /* \"contracts/LiquidityPool.sol\":2064:2073  msg.value */\n      callvalue\n        /* \"contracts/LiquidityPool.sol\":2064:2087  msg.value == _ethAmount */\n      eq\n        /* \"contracts/LiquidityPool.sol\":2056:2106  require(msg.value == _ethAmount, \"Invalid amount\") */\n      tag_34\n      jumpi\n      mload(0x40)\n      0x08c379a000000000000000000000000000000000000000000000000000000000\n      dup2\n      mstore\n      0x04\n      add\n      tag_35\n      swap1\n      tag_36\n      jump\t// in\n    tag_35:\n      mload(0x40)\n      dup1\n      swap2\n      sub\n      swap1\n      revert\n    tag_34:\n        /* \"contracts/LiquidityPool.sol\":2123:2135  reserveToken */\n      0x00\n      dup1\n      sload\n      swap1\n      0x0100\n      exp\n      swap1\n      div\n      0xffffffffffffffffffffffffffffffffffffffff\n      and\n        /* \"contracts/LiquidityPool.sol\":2116:2145  IERC20(reserveToken).transfer */\n      0xffffffffffffffffffffffffffffffffffffffff\n      and\n      0xa9059cbb\n        /* \"contracts/LiquidityPool.sol\":2146:2156  msg.sender */\n      caller\n        /* \"contracts/LiquidityPool.sol\":2158:2168  _ethAmount */\n      dup4\n        /* \"contracts/LiquidityPool.sol\":2116:2169  IERC20(reserveToken).transfer(msg.sender, _ethAmount) */\n      mload(0x40)\n      dup4\n      0xffffffff\n      and\n      0xe0\n      shl\n      dup2\n      mstore\n      0x04\n      add\n      tag_37\n      swap3\n      swap2\n      swap1\n      tag_38\n      jump\t// in\n    tag_37:\n      0x20\n      mload(0x40)\n      dup1\n      dup4\n      sub\n      dup2\n      0x00\n      dup8\n      gas\n      call\n      iszero\n      dup1\n      iszero\n      tag_40\n      jumpi\n      returndatasize\n      0x00\n      dup1\n      returndatacopy\n      revert(0x00, returndatasize)\n    tag_40:\n      pop\n      pop\n      pop\n      pop\n      mload(0x40)\n      returndatasize\n      not(0x1f)\n      0x1f\n      dup3\n      add\n      and\n      dup3\n      add\n      dup1\n      0x40\n      mstore\n      pop\n      dup2\n      add\n      swap1\n      tag_41\n      swap2\n      swap1\n      tag_42\n      jump\t// in\n    tag_41:\n      pop\n        /* \"contracts/LiquidityPool.sol\":1995:2176  function getDAI(uint256 _ethAmount) public payable {... */\n      pop\n      jump\t// out\n        /* \"contracts/LiquidityPool.sol\":1621:1989  function getEth(uint256 _DAIAmount) public {... */\n    tag_15:\n        /* \"contracts/LiquidityPool.sol\":1743:1753  _DAIAmount */\n      dup1\n        /* \"contracts/LiquidityPool.sol\":1689:1701  reserveToken */\n      0x00\n      dup1\n      sload\n      swap1\n      0x0100\n      exp\n      swap1\n      div\n      0xffffffffffffffffffffffffffffffffffffffff\n      and\n        /* \"contracts/LiquidityPool.sol\":1682:1712  IERC20(reserveToken).allowance */\n      0xffffffffffffffffffffffffffffffffffffffff\n      and\n      0xdd62ed3e\n        /* \"contracts/LiquidityPool.sol\":1713:1723  msg.sender */\n      caller\n        /* \"contracts/LiquidityPool.sol\":1733:1737  this */\n      address\n        /* \"contracts/LiquidityPool.sol\":1682:1739  IERC20(reserveToken).allowance(msg.sender, address(this)) */\n      mload(0x40)\n      dup4\n      0xffffffff\n      and\n      0xe0\n      shl\n      dup2\n      mstore\n      0x04\n      add\n      tag_44\n      swap3\n      swap2\n      swap1\n      tag_45\n      jump\t// in\n    tag_44:\n      0x20\n      mload(0x40)\n      dup1\n      dup4\n      sub\n      dup2\n      dup7\n      gas\n      staticcall\n      iszero\n      dup1\n      iszero\n      tag_47\n      jumpi\n      returndatasize\n      0x00\n      dup1\n      returndatacopy\n      revert(0x00, returndatasize)\n    tag_47:\n      pop\n      pop\n      pop\n      pop\n      mload(0x40)\n      returndatasize\n      not(0x1f)\n      0x1f\n      dup3\n      add\n      and\n      dup3\n      add\n      dup1\n      0x40\n      mstore\n      pop\n      dup2\n      add\n      swap1\n      tag_48\n      swap2\n      swap1\n      tag_49\n      jump\t// in\n    tag_48:\n        /* \"contracts/LiquidityPool.sol\":1682:1753  IERC20(reserveToken).allowance(msg.sender, address(this)) >= _DAIAmount */\n      lt\n      iszero\n        /* \"contracts/LiquidityPool.sol\":1674:1779  require(IERC20(reserveToken).allowance(msg.sender, address(this)) >= _DAIAmount, \"Contract not approved\") */\n      tag_50\n      jumpi\n      mload(0x40)\n      0x08c379a000000000000000000000000000000000000000000000000000000000\n      dup2\n      mstore\n      0x04\n      add\n      tag_51\n      swap1\n      tag_52\n      jump\t// in\n    tag_51:\n      mload(0x40)\n      dup1\n      swap2\n      sub\n      swap1\n      revert\n    tag_50:\n        /* \"contracts/LiquidityPool.sol\":1796:1808  reserveToken */\n      0x00\n      dup1\n      sload\n      swap1\n      0x0100\n      exp\n      swap1\n      div\n      0xffffffffffffffffffffffffffffffffffffffff\n      and\n        /* \"contracts/LiquidityPool.sol\":1789:1822  IERC20(reserveToken).transferFrom */\n      0xffffffffffffffffffffffffffffffffffffffff\n      and\n      0x23b872dd\n        /* \"contracts/LiquidityPool.sol\":1823:1833  msg.sender */\n      caller\n        /* \"contracts/LiquidityPool.sol\":1843:1847  this */\n      address\n        /* \"contracts/LiquidityPool.sol\":1850:1860  _DAIAmount */\n      dup5\n        /* \"contracts/LiquidityPool.sol\":1789:1861  IERC20(reserveToken).transferFrom(msg.sender, address(this), _DAIAmount) */\n      mload(0x40)\n      dup5\n      0xffffffff\n      and\n      0xe0\n      shl\n      dup2\n      mstore\n      0x04\n      add\n      tag_53\n      swap4\n      swap3\n      swap2\n      swap1\n      tag_54\n      jump\t// in\n    tag_53:\n      0x20\n      mload(0x40)\n      dup1\n      dup4\n      sub\n      dup2\n      0x00\n      dup8\n      gas\n      call\n      iszero\n      dup1\n      iszero\n      tag_56\n      jumpi\n      returndatasize\n      0x00\n      dup1\n      returndatacopy\n      revert(0x00, returndatasize)\n    tag_56:\n      pop\n      pop\n      pop\n      pop\n      mload(0x40)\n      returndatasize\n      not(0x1f)\n      0x1f\n      dup3\n      add\n      and\n      dup3\n      add\n      dup1\n      0x40\n      mstore\n      pop\n      dup2\n      add\n      swap1\n      tag_57\n      swap2\n      swap1\n      tag_42\n      jump\t// in\n    tag_57:\n      pop\n        /* \"contracts/LiquidityPool.sol\":1872:1884  bool success */\n      0x00\n        /* \"contracts/LiquidityPool.sol\":1898:1908  msg.sender */\n      caller\n        /* \"contracts/LiquidityPool.sol\":1890:1914  payable(msg.sender).call */\n      0xffffffffffffffffffffffffffffffffffffffff\n      and\n        /* \"contracts/LiquidityPool.sol\":1922:1932  _DAIAmount */\n      dup3\n        /* \"contracts/LiquidityPool.sol\":1890:1937  payable(msg.sender).call{value: _DAIAmount}(\"\") */\n      mload(0x40)\n      tag_58\n      swap1\n      tag_59\n      jump\t// in\n    tag_58:\n      0x00\n      mload(0x40)\n      dup1\n      dup4\n      sub\n      dup2\n      dup6\n      dup8\n      gas\n      call\n      swap3\n      pop\n      pop\n      pop\n      returndatasize\n      dup1\n      0x00\n      dup2\n      eq\n      tag_62\n      jumpi\n      mload(0x40)\n      swap2\n      pop\n      and(add(returndatasize, 0x3f), not(0x1f))\n      dup3\n      add\n      0x40\n      mstore\n      returndatasize\n      dup3\n      mstore\n      returndatasize\n      0x00\n      0x20\n      dup5\n      add\n      returndatacopy\n      jump(tag_61)\n    tag_62:\n      0x60\n      swap2\n      pop\n    tag_61:\n      pop\n        /* \"contracts/LiquidityPool.sol\":1871:1937  (bool success, ) = payable(msg.sender).call{value: _DAIAmount}(\"\") */\n      pop\n      swap1\n      pop\n        /* \"contracts/LiquidityPool.sol\":1955:1962  success */\n      dup1\n        /* \"contracts/LiquidityPool.sol\":1947:1982  require(success, \"Transfer Failed\") */\n      tag_63\n      jumpi\n      mload(0x40)\n      0x08c379a000000000000000000000000000000000000000000000000000000000\n      dup2\n      mstore\n      0x04\n      add\n      tag_64\n      swap1\n      tag_65\n      jump\t// in\n    tag_64:\n      mload(0x40)\n      dup1\n      swap2\n      sub\n      swap1\n      revert\n    tag_63:\n        /* \"contracts/LiquidityPool.sol\":1664:1989  {... */\n      pop\n        /* \"contracts/LiquidityPool.sol\":1621:1989  function getEth(uint256 _DAIAmount) public {... */\n      pop\n      jump\t// out\n        /* \"contracts/LiquidityPool.sol\":2182:2301  function transferTokens(address to, uint256 _amount) external {... */\n    tag_20:\n        /* \"contracts/LiquidityPool.sol\":421:463  0x39DB207Dff3411F4fab0483D419306873Cbc13d9 */\n      0x39db207dff3411f4fab0483d419306873cbc13d9\n        /* \"contracts/LiquidityPool.sol\":2254:2281  IERC20(ltrAddress).transfer */\n      0xffffffffffffffffffffffffffffffffffffffff\n      and\n      0xa9059cbb\n        /* \"contracts/LiquidityPool.sol\":2282:2284  to */\n      dup4\n        /* \"contracts/LiquidityPool.sol\":2286:2293  _amount */\n      dup4\n        /* \"contracts/LiquidityPool.sol\":2254:2294  IERC20(ltrAddress).transfer(to, _amount) */\n      mload(0x40)\n      dup4\n      0xffffffff\n      and\n      0xe0\n      shl\n      dup2\n      mstore\n      0x04\n      add\n      tag_67\n      swap3\n      swap2\n      swap1\n      tag_38\n      jump\t// in\n    tag_67:\n      0x20\n      mload(0x40)\n      dup1\n      dup4\n      sub\n      dup2\n      0x00\n      dup8\n      gas\n      call\n      iszero\n      dup1\n      iszero\n      tag_69\n      jumpi\n      returndatasize\n      0x00\n      dup1\n      returndatacopy\n      revert(0x00, returndatasize)\n    tag_69:\n      pop\n      pop\n      pop\n      pop\n      mload(0x40)\n      returndatasize\n      not(0x1f)\n      0x1f\n      dup3\n      add\n      and\n      dup3\n      add\n      dup1\n      0x40\n      mstore\n      pop\n      dup2\n      add\n      swap1\n      tag_70\n      swap2\n      swap1\n      tag_42\n      jump\t// in\n    tag_70:\n      pop\n        /* \"contracts/LiquidityPool.sol\":2182:2301  function transferTokens(address to, uint256 _amount) external {... */\n      pop\n      pop\n      jump\t// out\n        /* \"contracts/LiquidityPool.sol\":630:1052  function provideLiquidity(uint256 _amount) external payable {... */\n    tag_23:\n        /* \"contracts/LiquidityPool.sol\":721:728  _amount */\n      dup1\n        /* \"contracts/LiquidityPool.sol\":708:717  msg.value */\n      callvalue\n        /* \"contracts/LiquidityPool.sol\":708:728  msg.value == _amount */\n      eq\n        /* \"contracts/LiquidityPool.sol\":700:777  require(msg.value == _amount, \"The amount of ETH and tokens should be equal\") */\n      tag_72\n      jumpi\n      mload(0x40)\n      0x08c379a000000000000000000000000000000000000000000000000000000000\n      dup2\n      mstore\n      0x04\n      add\n      tag_73\n      swap1\n      tag_74\n      jump\t// in\n    tag_73:\n      mload(0x40)\n      dup1\n      swap2\n      sub\n      swap1\n      revert\n    tag_72:\n        /* \"contracts/LiquidityPool.sol\":872:884  reserveToken */\n      0x00\n      dup1\n      sload\n      swap1\n      0x0100\n      exp\n      swap1\n      div\n      0xffffffffffffffffffffffffffffffffffffffff\n      and\n        /* \"contracts/LiquidityPool.sol\":865:898  IERC20(reserveToken).transferFrom */\n      0xffffffffffffffffffffffffffffffffffffffff\n      and\n      0x23b872dd\n        /* \"contracts/LiquidityPool.sol\":899:909  msg.sender */\n      caller\n        /* \"contracts/LiquidityPool.sol\":919:923  this */\n      address\n        /* \"contracts/LiquidityPool.sol\":926:933  _amount */\n      dup5\n        /* \"contracts/LiquidityPool.sol\":865:934  IERC20(reserveToken).transferFrom(msg.sender, address(this), _amount) */\n      mload(0x40)\n      dup5\n      0xffffffff\n      and\n      0xe0\n      shl\n      dup2\n      mstore\n      0x04\n      add\n      tag_75\n      swap4\n      swap3\n      swap2\n      swap1\n      tag_54\n      jump\t// in\n    tag_75:\n      0x20\n      mload(0x40)\n      dup1\n      dup4\n      sub\n      dup2\n      0x00\n      dup8\n      gas\n      call\n      iszero\n      dup1\n      iszero\n      tag_77\n      jumpi\n      returndatasize\n      0x00\n      dup1\n      returndatacopy\n      revert(0x00, returndatasize)\n    tag_77:\n      pop\n      pop\n      pop\n      pop\n      mload(0x40)\n      returndatasize\n      not(0x1f)\n      0x1f\n      dup3\n      add\n      and\n      dup3\n      add\n      dup1\n      0x40\n      mstore\n      pop\n      dup2\n      add\n      swap1\n      tag_78\n      swap2\n      swap1\n      tag_42\n      jump\t// in\n    tag_78:\n      pop\n        /* \"contracts/LiquidityPool.sol\":421:463  0x39DB207Dff3411F4fab0483D419306873Cbc13d9 */\n      0x39db207dff3411f4fab0483d419306873cbc13d9\n        /* \"contracts/LiquidityPool.sol\":944:971  IERC20(ltrAddress).transfer */\n      0xffffffffffffffffffffffffffffffffffffffff\n      and\n      0xa9059cbb\n        /* \"contracts/LiquidityPool.sol\":972:982  msg.sender */\n      caller\n        /* \"contracts/LiquidityPool.sol\":984:991  _amount */\n      dup4\n        /* \"contracts/LiquidityPool.sol\":944:992  IERC20(ltrAddress).transfer(msg.sender, _amount) */\n      mload(0x40)\n      dup4\n      0xffffffff\n      and\n      0xe0\n      shl\n      dup2\n      mstore\n      0x04\n      add\n      tag_79\n      swap3\n      swap2\n      swap1\n      tag_38\n      jump\t// in\n    tag_79:\n      0x20\n      mload(0x40)\n      dup1\n      dup4\n      sub\n      dup2\n      0x00\n      dup8\n      gas\n      call\n      iszero\n      dup1\n      iszero\n      tag_81\n      jumpi\n      returndatasize\n      0x00\n      dup1\n      returndatacopy\n      revert(0x00, returndatasize)\n    tag_81:\n      pop\n      pop\n      pop\n      pop\n      mload(0x40)\n      returndatasize\n      not(0x1f)\n      0x1f\n      dup3\n      add\n      and\n      dup3\n      add\n      dup1\n      0x40\n      mstore\n      pop\n      dup2\n      add\n      swap1\n      tag_82\n      swap2\n      swap1\n      tag_42\n      jump\t// in\n    tag_82:\n      pop\n        /* \"contracts/LiquidityPool.sol\":1007:1045  liquidityProvided(msg.sender, _amount) */\n      0xb62268a18d99fe191ac8e62f823ab1eec698609a81b2c8de3dac902896b09da6\n        /* \"contracts/LiquidityPool.sol\":1025:1035  msg.sender */\n      caller\n        /* \"contracts/LiquidityPool.sol\":1037:1044  _amount */\n      dup3\n        /* \"contracts/LiquidityPool.sol\":1007:1045  liquidityProvided(msg.sender, _amount) */\n      mload(0x40)\n      tag_83\n      swap3\n      swap2\n      swap1\n      tag_38\n      jump\t// in\n    tag_83:\n      mload(0x40)\n      dup1\n      swap2\n      sub\n      swap1\n      log1\n        /* \"contracts/LiquidityPool.sol\":630:1052  function provideLiquidity(uint256 _amount) external payable {... */\n      pop\n      jump\t// out\n        /* \"contracts/LiquidityPool.sol\":358:385  address public reserveToken */\n    tag_26:\n      0x00\n      dup1\n      sload\n      swap1\n      0x0100\n      exp\n      swap1\n      div\n      0xffffffffffffffffffffffffffffffffffffffff\n      and\n      dup2\n      jump\t// out\n        /* \"contracts/LiquidityPool.sol\":1058:1615  function reedemShares(uint256 _sharesAmount) public {... */\n    tag_32:\n        /* \"contracts/LiquidityPool.sol\":1144:1145  0 */\n      0x00\n        /* \"contracts/LiquidityPool.sol\":1128:1141  _sharesAmount */\n      dup2\n        /* \"contracts/LiquidityPool.sol\":1128:1145  _sharesAmount > 0 */\n      gt\n        /* \"contracts/LiquidityPool.sol\":1120:1174  require(_sharesAmount > 0, \"Invalid amount of shares\") */\n      tag_85\n      jumpi\n      mload(0x40)\n      0x08c379a000000000000000000000000000000000000000000000000000000000\n      dup2\n      mstore\n      0x04\n      add\n      tag_86\n      swap1\n      tag_87\n      jump\t// in\n    tag_86:\n      mload(0x40)\n      dup1\n      swap2\n      sub\n      swap1\n      revert\n    tag_85:\n        /* \"contracts/LiquidityPool.sol\":1251:1264  _sharesAmount */\n      dup1\n        /* \"contracts/LiquidityPool.sol\":421:463  0x39DB207Dff3411F4fab0483D419306873Cbc13d9 */\n      0x39db207dff3411f4fab0483d419306873cbc13d9\n        /* \"contracts/LiquidityPool.sol\":1192:1220  IERC20(ltrAddress).allowance */\n      0xffffffffffffffffffffffffffffffffffffffff\n      and\n      0xdd62ed3e\n        /* \"contracts/LiquidityPool.sol\":1221:1231  msg.sender */\n      caller\n        /* \"contracts/LiquidityPool.sol\":1241:1245  this */\n      address\n        /* \"contracts/LiquidityPool.sol\":1192:1247  IERC20(ltrAddress).allowance(msg.sender, address(this)) */\n      mload(0x40)\n      dup4\n      0xffffffff\n      and\n      0xe0\n      shl\n      dup2\n      mstore\n      0x04\n      add\n      tag_88\n      swap3\n      swap2\n      swap1\n      tag_45\n      jump\t// in\n    tag_88:\n      0x20\n      mload(0x40)\n      dup1\n      dup4\n      sub\n      dup2\n      dup7\n      gas\n      staticcall\n      iszero\n      dup1\n      iszero\n      tag_90\n      jumpi\n      returndatasize\n      0x00\n      dup1\n      returndatacopy\n      revert(0x00, returndatasize)\n    tag_90:\n      pop\n      pop\n      pop\n      pop\n      mload(0x40)\n      returndatasize\n      not(0x1f)\n      0x1f\n      dup3\n      add\n      and\n      dup3\n      add\n      dup1\n      0x40\n      mstore\n      pop\n      dup2\n      add\n      swap1\n      tag_91\n      swap2\n      swap1\n      tag_49\n      jump\t// in\n    tag_91:\n        /* \"contracts/LiquidityPool.sol\":1192:1264  IERC20(ltrAddress).allowance(msg.sender, address(this)) >= _sharesAmount */\n      lt\n      iszero\n        /* \"contracts/LiquidityPool.sol\":1184:1334  require(IERC20(ltrAddress).allowance(msg.sender, address(this)) >= _sharesAmount, \"Please approve the contract to deduct ltr tokens from your wallet\") */\n      tag_92\n      jumpi\n      mload(0x40)\n      0x08c379a000000000000000000000000000000000000000000000000000000000\n      dup2\n      mstore\n      0x04\n      add\n      tag_93\n      swap1\n      tag_94\n      jump\t// in\n    tag_93:\n      mload(0x40)\n      dup1\n      swap2\n      sub\n      swap1\n      revert\n    tag_92:\n        /* \"contracts/LiquidityPool.sol\":421:463  0x39DB207Dff3411F4fab0483D419306873Cbc13d9 */\n      0x39db207dff3411f4fab0483d419306873cbc13d9\n        /* \"contracts/LiquidityPool.sol\":1345:1376  IERC20(ltrAddress).transferFrom */\n      0xffffffffffffffffffffffffffffffffffffffff\n      and\n      0x23b872dd\n        /* \"contracts/LiquidityPool.sol\":1377:1387  msg.sender */\n      caller\n        /* \"contracts/LiquidityPool.sol\":1397:1401  this */\n      address\n        /* \"contracts/LiquidityPool.sol\":1404:1417  _sharesAmount */\n      dup5\n        /* \"contracts/LiquidityPool.sol\":1345:1418  IERC20(ltrAddress).transferFrom(msg.sender, address(this), _sharesAmount) */\n      mload(0x40)\n      dup5\n      0xffffffff\n      and\n      0xe0\n      shl\n      dup2\n      mstore\n      0x04\n      add\n      tag_95\n      swap4\n      swap3\n      swap2\n      swap1\n      tag_54\n      jump\t// in\n    tag_95:\n      0x20\n      mload(0x40)\n      dup1\n      dup4\n      sub\n      dup2\n      0x00\n      dup8\n      gas\n      call\n      iszero\n      dup1\n      iszero\n      tag_97\n      jumpi\n      returndatasize\n      0x00\n      dup1\n      returndatacopy\n      revert(0x00, returndatasize)\n    tag_97:\n      pop\n      pop\n      pop\n      pop\n      mload(0x40)\n      returndatasize\n      not(0x1f)\n      0x1f\n      dup3\n      add\n      and\n      dup3\n      add\n      dup1\n      0x40\n      mstore\n      pop\n      dup2\n      add\n      swap1\n      tag_98\n      swap2\n      swap1\n      tag_42\n      jump\t// in\n    tag_98:\n      pop\n        /* \"contracts/LiquidityPool.sol\":1435:1447  reserveToken */\n      0x00\n      dup1\n      sload\n      swap1\n      0x0100\n      exp\n      swap1\n      div\n      0xffffffffffffffffffffffffffffffffffffffff\n      and\n        /* \"contracts/LiquidityPool.sol\":1428:1457  IERC20(reserveToken).transfer */\n      0xffffffffffffffffffffffffffffffffffffffff\n      and\n      0xa9059cbb\n        /* \"contracts/LiquidityPool.sol\":1458:1468  msg.sender */\n      caller\n        /* \"contracts/LiquidityPool.sol\":1470:1483  _sharesAmount */\n      dup4\n        /* \"contracts/LiquidityPool.sol\":1428:1484  IERC20(reserveToken).transfer(msg.sender, _sharesAmount) */\n      mload(0x40)\n      dup4\n      0xffffffff\n      and\n      0xe0\n      shl\n      dup2\n      mstore\n      0x04\n      add\n      tag_99\n      swap3\n      swap2\n      swap1\n      tag_38\n      jump\t// in\n    tag_99:\n      0x20\n      mload(0x40)\n      dup1\n      dup4\n      sub\n      dup2\n      0x00\n      dup8\n      gas\n      call\n      iszero\n      dup1\n      iszero\n      tag_101\n      jumpi\n      returndatasize\n      0x00\n      dup1\n      returndatacopy\n      revert(0x00, returndatasize)\n    tag_101:\n      pop\n      pop\n      pop\n      pop\n      mload(0x40)\n      returndatasize\n      not(0x1f)\n      0x1f\n      dup3\n      add\n      and\n      dup3\n      add\n      dup1\n      0x40\n      mstore\n      pop\n      dup2\n      add\n      swap1\n      tag_102\n      swap2\n      swap1\n      tag_42\n      jump\t// in\n    tag_102:\n      pop\n        /* \"contracts/LiquidityPool.sol\":1495:1507  bool success */\n      0x00\n        /* \"contracts/LiquidityPool.sol\":1521:1531  msg.sender */\n      caller\n        /* \"contracts/LiquidityPool.sol\":1513:1537  payable(msg.sender).call */\n      0xffffffffffffffffffffffffffffffffffffffff\n      and\n        /* \"contracts/LiquidityPool.sol\":1545:1558  _sharesAmount */\n      dup3\n        /* \"contracts/LiquidityPool.sol\":1513:1563  payable(msg.sender).call{value: _sharesAmount}(\"\") */\n      mload(0x40)\n      tag_103\n      swap1\n      tag_59\n      jump\t// in\n    tag_103:\n      0x00\n      mload(0x40)\n      dup1\n      dup4\n      sub\n      dup2\n      dup6\n      dup8\n      gas\n      call\n      swap3\n      pop\n      pop\n      pop\n      returndatasize\n      dup1\n      0x00\n      dup2\n      eq\n      tag_106\n      jumpi\n      mload(0x40)\n      swap2\n      pop\n      and(add(returndatasize, 0x3f), not(0x1f))\n      dup3\n      add\n      0x40\n      mstore\n      returndatasize\n      dup3\n      mstore\n      returndatasize\n      0x00\n      0x20\n      dup5\n      add\n      returndatacopy\n      jump(tag_105)\n    tag_106:\n      0x60\n      swap2\n      pop\n    tag_105:\n      pop\n        /* \"contracts/LiquidityPool.sol\":1494:1563  (bool success, ) = payable(msg.sender).call{value: _sharesAmount}(\"\") */\n      pop\n      swap1\n      pop\n        /* \"contracts/LiquidityPool.sol\":1581:1588  success */\n      dup1\n        /* \"contracts/LiquidityPool.sol\":1573:1608  require(success, \"Transfer failed\") */\n      tag_107\n      jumpi\n      mload(0x40)\n      0x08c379a000000000000000000000000000000000000000000000000000000000\n      dup2\n      mstore\n      0x04\n      add\n      tag_108\n      swap1\n      tag_109\n      jump\t// in\n    tag_108:\n      mload(0x40)\n      dup1\n      swap2\n      sub\n      swap1\n      revert\n    tag_107:\n        /* \"contracts/LiquidityPool.sol\":1110:1615  {... */\n      pop\n        /* \"contracts/LiquidityPool.sol\":1058:1615  function reedemShares(uint256 _sharesAmount) public {... */\n      pop\n      jump\t// out\n        /* \"#utility.yul\":88:205   */\n    tag_111:\n        /* \"#utility.yul\":197:198   */\n      0x00\n        /* \"#utility.yul\":194:195   */\n      dup1\n        /* \"#utility.yul\":187:199   */\n      revert\n        /* \"#utility.yul\":334:411   */\n    tag_113:\n        /* \"#utility.yul\":371:378   */\n      0x00\n        /* \"#utility.yul\":400:405   */\n      dup2\n        /* \"#utility.yul\":389:405   */\n      swap1\n      pop\n        /* \"#utility.yul\":334:411   */\n      swap2\n      swap1\n      pop\n      jump\t// out\n        /* \"#utility.yul\":417:539   */\n    tag_114:\n        /* \"#utility.yul\":490:514   */\n      tag_150\n        /* \"#utility.yul\":508:513   */\n      dup2\n        /* \"#utility.yul\":490:514   */\n      tag_113\n      jump\t// in\n    tag_150:\n        /* \"#utility.yul\":483:488   */\n      dup2\n        /* \"#utility.yul\":480:515   */\n      eq\n        /* \"#utility.yul\":470:533   */\n      tag_151\n      jumpi\n        /* \"#utility.yul\":529:530   */\n      0x00\n        /* \"#utility.yul\":526:527   */\n      dup1\n        /* \"#utility.yul\":519:531   */\n      revert\n        /* \"#utility.yul\":470:533   */\n    tag_151:\n        /* \"#utility.yul\":417:539   */\n      pop\n      jump\t// out\n        /* \"#utility.yul\":545:684   */\n    tag_115:\n        /* \"#utility.yul\":591:596   */\n      0x00\n        /* \"#utility.yul\":629:635   */\n      dup2\n        /* \"#utility.yul\":616:636   */\n      calldataload\n        /* \"#utility.yul\":607:636   */\n      swap1\n      pop\n        /* \"#utility.yul\":645:678   */\n      tag_153\n        /* \"#utility.yul\":672:677   */\n      dup2\n        /* \"#utility.yul\":645:678   */\n      tag_114\n      jump\t// in\n    tag_153:\n        /* \"#utility.yul\":545:684   */\n      swap3\n      swap2\n      pop\n      pop\n      jump\t// out\n        /* \"#utility.yul\":690:1019   */\n    tag_10:\n        /* \"#utility.yul\":749:755   */\n      0x00\n        /* \"#utility.yul\":798:800   */\n      0x20\n        /* \"#utility.yul\":786:795   */\n      dup3\n        /* \"#utility.yul\":777:784   */\n      dup5\n        /* \"#utility.yul\":773:796   */\n      sub\n        /* \"#utility.yul\":769:801   */\n      slt\n        /* \"#utility.yul\":766:885   */\n      iszero\n      tag_155\n      jumpi\n        /* \"#utility.yul\":804:883   */\n      tag_156\n      tag_111\n      jump\t// in\n    tag_156:\n        /* \"#utility.yul\":766:885   */\n    tag_155:\n        /* \"#utility.yul\":924:925   */\n      0x00\n        /* \"#utility.yul\":949:1002   */\n      tag_157\n        /* \"#utility.yul\":994:1001   */\n      dup5\n        /* \"#utility.yul\":985:991   */\n      dup3\n        /* \"#utility.yul\":974:983   */\n      dup6\n        /* \"#utility.yul\":970:992   */\n      add\n        /* \"#utility.yul\":949:1002   */\n      tag_115\n      jump\t// in\n    tag_157:\n        /* \"#utility.yul\":939:1002   */\n      swap2\n      pop\n        /* \"#utility.yul\":895:1012   */\n      pop\n        /* \"#utility.yul\":690:1019   */\n      swap3\n      swap2\n      pop\n      pop\n      jump\t// out\n        /* \"#utility.yul\":1025:1151   */\n    tag_116:\n        /* \"#utility.yul\":1062:1069   */\n      0x00\n        /* \"#utility.yul\":1102:1144   */\n      0xffffffffffffffffffffffffffffffffffffffff\n        /* \"#utility.yul\":1095:1100   */\n      dup3\n        /* \"#utility.yul\":1091:1145   */\n      and\n        /* \"#utility.yul\":1080:1145   */\n      swap1\n      pop\n        /* \"#utility.yul\":1025:1151   */\n      swap2\n      swap1\n      pop\n      jump\t// out\n        /* \"#utility.yul\":1157:1253   */\n    tag_117:\n        /* \"#utility.yul\":1194:1201   */\n      0x00\n        /* \"#utility.yul\":1223:1247   */\n      tag_160\n        /* \"#utility.yul\":1241:1246   */\n      dup3\n        /* \"#utility.yul\":1223:1247   */\n      tag_116\n      jump\t// in\n    tag_160:\n        /* \"#utility.yul\":1212:1247   */\n      swap1\n      pop\n        /* \"#utility.yul\":1157:1253   */\n      swap2\n      swap1\n      pop\n      jump\t// out\n        /* \"#utility.yul\":1259:1381   */\n    tag_118:\n        /* \"#utility.yul\":1332:1356   */\n      tag_162\n        /* \"#utility.yul\":1350:1355   */\n      dup2\n        /* \"#utility.yul\":1332:1356   */\n      tag_117\n      jump\t// in\n    tag_162:\n        /* \"#utility.yul\":1325:1330   */\n      dup2\n        /* \"#utility.yul\":1322:1357   */\n      eq\n        /* \"#utility.yul\":1312:1375   */\n      tag_163\n      jumpi\n        /* \"#utility.yul\":1371:1372   */\n      0x00\n        /* \"#utility.yul\":1368:1369   */\n      dup1\n        /* \"#utility.yul\":1361:1373   */\n      revert\n        /* \"#utility.yul\":1312:1375   */\n    tag_163:\n        /* \"#utility.yul\":1259:1381   */\n      pop\n      jump\t// out\n        /* \"#utility.yul\":1387:1526   */\n    tag_119:\n        /* \"#utility.yul\":1433:1438   */\n      0x00\n        /* \"#utility.yul\":1471:1477   */\n      dup2\n        /* \"#utility.yul\":1458:1478   */\n      calldataload\n        /* \"#utility.yul\":1449:1478   */\n      swap1\n      pop\n        /* \"#utility.yul\":1487:1520   */\n      tag_165\n        /* \"#utility.yul\":1514:1519   */\n      dup2\n        /* \"#utility.yul\":1487:1520   */\n      tag_118\n      jump\t// in\n    tag_165:\n        /* \"#utility.yul\":1387:1526   */\n      swap3\n      swap2\n      pop\n      pop\n      jump\t// out\n        /* \"#utility.yul\":1532:2006   */\n    tag_19:\n        /* \"#utility.yul\":1600:1606   */\n      0x00\n        /* \"#utility.yul\":1608:1614   */\n      dup1\n        /* \"#utility.yul\":1657:1659   */\n      0x40\n        /* \"#utility.yul\":1645:1654   */\n      dup4\n        /* \"#utility.yul\":1636:1643   */\n      dup6\n        /* \"#utility.yul\":1632:1655   */\n      sub\n        /* \"#utility.yul\":1628:1660   */\n      slt\n        /* \"#utility.yul\":1625:1744   */\n      iszero\n      tag_167\n      jumpi\n        /* \"#utility.yul\":1663:1742   */\n      tag_168\n      tag_111\n      jump\t// in\n    tag_168:\n        /* \"#utility.yul\":1625:1744   */\n    tag_167:\n        /* \"#utility.yul\":1783:1784   */\n      0x00\n        /* \"#utility.yul\":1808:1861   */\n      tag_169\n        /* \"#utility.yul\":1853:1860   */\n      dup6\n        /* \"#utility.yul\":1844:1850   */\n      dup3\n        /* \"#utility.yul\":1833:1842   */\n      dup7\n        /* \"#utility.yul\":1829:1851   */\n      add\n        /* \"#utility.yul\":1808:1861   */\n      tag_119\n      jump\t// in\n    tag_169:\n        /* \"#utility.yul\":1798:1861   */\n      swap3\n      pop\n        /* \"#utility.yul\":1754:1871   */\n      pop\n        /* \"#utility.yul\":1910:1912   */\n      0x20\n        /* \"#utility.yul\":1936:1989   */\n      tag_170\n        /* \"#utility.yul\":1981:1988   */\n      dup6\n        /* \"#utility.yul\":1972:1978   */\n      dup3\n        /* \"#utility.yul\":1961:1970   */\n      dup7\n        /* \"#utility.yul\":1957:1979   */\n      add\n        /* \"#utility.yul\":1936:1989   */\n      tag_115\n      jump\t// in\n    tag_170:\n        /* \"#utility.yul\":1926:1989   */\n      swap2\n      pop\n        /* \"#utility.yul\":1881:1999   */\n      pop\n        /* \"#utility.yul\":1532:2006   */\n      swap3\n      pop\n      swap3\n      swap1\n      pop\n      jump\t// out\n        /* \"#utility.yul\":2012:2130   */\n    tag_120:\n        /* \"#utility.yul\":2099:2123   */\n      tag_172\n        /* \"#utility.yul\":2117:2122   */\n      dup2\n        /* \"#utility.yul\":2099:2123   */\n      tag_117\n      jump\t// in\n    tag_172:\n        /* \"#utility.yul\":2094:2097   */\n      dup3\n        /* \"#utility.yul\":2087:2124   */\n      mstore\n        /* \"#utility.yul\":2012:2130   */\n      pop\n      pop\n      jump\t// out\n        /* \"#utility.yul\":2136:2358   */\n    tag_28:\n        /* \"#utility.yul\":2229:2233   */\n      0x00\n        /* \"#utility.yul\":2267:2269   */\n      0x20\n        /* \"#utility.yul\":2256:2265   */\n      dup3\n        /* \"#utility.yul\":2252:2270   */\n      add\n        /* \"#utility.yul\":2244:2270   */\n      swap1\n      pop\n        /* \"#utility.yul\":2280:2351   */\n      tag_174\n        /* \"#utility.yul\":2348:2349   */\n      0x00\n        /* \"#utility.yul\":2337:2346   */\n      dup4\n        /* \"#utility.yul\":2333:2350   */\n      add\n        /* \"#utility.yul\":2324:2330   */\n      dup5\n        /* \"#utility.yul\":2280:2351   */\n      tag_120\n      jump\t// in\n    tag_174:\n        /* \"#utility.yul\":2136:2358   */\n      swap3\n      swap2\n      pop\n      pop\n      jump\t// out\n        /* \"#utility.yul\":2364:2533   */\n    tag_121:\n        /* \"#utility.yul\":2448:2459   */\n      0x00\n        /* \"#utility.yul\":2482:2488   */\n      dup3\n        /* \"#utility.yul\":2477:2480   */\n      dup3\n        /* \"#utility.yul\":2470:2489   */\n      mstore\n        /* \"#utility.yul\":2522:2526   */\n      0x20\n        /* \"#utility.yul\":2517:2520   */\n      dup3\n        /* \"#utility.yul\":2513:2527   */\n      add\n        /* \"#utility.yul\":2498:2527   */\n      swap1\n      pop\n        /* \"#utility.yul\":2364:2533   */\n      swap3\n      swap2\n      pop\n      pop\n      jump\t// out\n        /* \"#utility.yul\":2539:2703   */\n    tag_122:\n        /* \"#utility.yul\":2679:2695   */\n      0x496e76616c696420616d6f756e74000000000000000000000000000000000000\n        /* \"#utility.yul\":2675:2676   */\n      0x00\n        /* \"#utility.yul\":2667:2673   */\n      dup3\n        /* \"#utility.yul\":2663:2677   */\n      add\n        /* \"#utility.yul\":2656:2696   */\n      mstore\n        /* \"#utility.yul\":2539:2703   */\n      pop\n      jump\t// out\n        /* \"#utility.yul\":2709:3075   */\n    tag_123:\n        /* \"#utility.yul\":2851:2854   */\n      0x00\n        /* \"#utility.yul\":2872:2939   */\n      tag_178\n        /* \"#utility.yul\":2936:2938   */\n      0x0e\n        /* \"#utility.yul\":2931:2934   */\n      dup4\n        /* \"#utility.yul\":2872:2939   */\n      tag_121\n      jump\t// in\n    tag_178:\n        /* \"#utility.yul\":2865:2939   */\n      swap2\n      pop\n        /* \"#utility.yul\":2948:3041   */\n      tag_179\n        /* \"#utility.yul\":3037:3040   */\n      dup3\n        /* \"#utility.yul\":2948:3041   */\n      tag_122\n      jump\t// in\n    tag_179:\n        /* \"#utility.yul\":3066:3068   */\n      0x20\n        /* \"#utility.yul\":3061:3064   */\n      dup3\n        /* \"#utility.yul\":3057:3069   */\n      add\n        /* \"#utility.yul\":3050:3069   */\n      swap1\n      pop\n        /* \"#utility.yul\":2709:3075   */\n      swap2\n      swap1\n      pop\n      jump\t// out\n        /* \"#utility.yul\":3081:3500   */\n    tag_36:\n        /* \"#utility.yul\":3247:3251   */\n      0x00\n        /* \"#utility.yul\":3285:3287   */\n      0x20\n        /* \"#utility.yul\":3274:3283   */\n      dup3\n        /* \"#utility.yul\":3270:3288   */\n      add\n        /* \"#utility.yul\":3262:3288   */\n      swap1\n      pop\n        /* \"#utility.yul\":3334:3343   */\n      dup2\n        /* \"#utility.yul\":3328:3332   */\n      dup2\n        /* \"#utility.yul\":3324:3344   */\n      sub\n        /* \"#utility.yul\":3320:3321   */\n      0x00\n        /* \"#utility.yul\":3309:3318   */\n      dup4\n        /* \"#utility.yul\":3305:3322   */\n      add\n        /* \"#utility.yul\":3298:3345   */\n      mstore\n        /* \"#utility.yul\":3362:3493   */\n      tag_181\n        /* \"#utility.yul\":3488:3492   */\n      dup2\n        /* \"#utility.yul\":3362:3493   */\n      tag_123\n      jump\t// in\n    tag_181:\n        /* \"#utility.yul\":3354:3493   */\n      swap1\n      pop\n        /* \"#utility.yul\":3081:3500   */\n      swap2\n      swap1\n      pop\n      jump\t// out\n        /* \"#utility.yul\":3506:3624   */\n    tag_124:\n        /* \"#utility.yul\":3593:3617   */\n      tag_183\n        /* \"#utility.yul\":3611:3616   */\n      dup2\n        /* \"#utility.yul\":3593:3617   */\n      tag_113\n      jump\t// in\n    tag_183:\n        /* \"#utility.yul\":3588:3591   */\n      dup3\n        /* \"#utility.yul\":3581:3618   */\n      mstore\n        /* \"#utility.yul\":3506:3624   */\n      pop\n      pop\n      jump\t// out\n        /* \"#utility.yul\":3630:3962   */\n    tag_38:\n        /* \"#utility.yul\":3751:3755   */\n      0x00\n        /* \"#utility.yul\":3789:3791   */\n      0x40\n        /* \"#utility.yul\":3778:3787   */\n      dup3\n        /* \"#utility.yul\":3774:3792   */\n      add\n        /* \"#utility.yul\":3766:3792   */\n      swap1\n      pop\n        /* \"#utility.yul\":3802:3873   */\n      tag_185\n        /* \"#utility.yul\":3870:3871   */\n      0x00\n        /* \"#utility.yul\":3859:3868   */\n      dup4\n        /* \"#utility.yul\":3855:3872   */\n      add\n        /* \"#utility.yul\":3846:3852   */\n      dup6\n        /* \"#utility.yul\":3802:3873   */\n      tag_120\n      jump\t// in\n    tag_185:\n        /* \"#utility.yul\":3883:3955   */\n      tag_186\n        /* \"#utility.yul\":3951:3953   */\n      0x20\n        /* \"#utility.yul\":3940:3949   */\n      dup4\n        /* \"#utility.yul\":3936:3954   */\n      add\n        /* \"#utility.yul\":3927:3933   */\n      dup5\n        /* \"#utility.yul\":3883:3955   */\n      tag_124\n      jump\t// in\n    tag_186:\n        /* \"#utility.yul\":3630:3962   */\n      swap4\n      swap3\n      pop\n      pop\n      pop\n      jump\t// out\n        /* \"#utility.yul\":3968:4058   */\n    tag_125:\n        /* \"#utility.yul\":4002:4009   */\n      0x00\n        /* \"#utility.yul\":4045:4050   */\n      dup2\n        /* \"#utility.yul\":4038:4051   */\n      iszero\n        /* \"#utility.yul\":4031:4052   */\n      iszero\n        /* \"#utility.yul\":4020:4052   */\n      swap1\n      pop\n        /* \"#utility.yul\":3968:4058   */\n      swap2\n      swap1\n      pop\n      jump\t// out\n        /* \"#utility.yul\":4064:4180   */\n    tag_126:\n        /* \"#utility.yul\":4134:4155   */\n      tag_189\n        /* \"#utility.yul\":4149:4154   */\n      dup2\n        /* \"#utility.yul\":4134:4155   */\n      tag_125\n      jump\t// in\n    tag_189:\n        /* \"#utility.yul\":4127:4132   */\n      dup2\n        /* \"#utility.yul\":4124:4156   */\n      eq\n        /* \"#utility.yul\":4114:4174   */\n      tag_190\n      jumpi\n        /* \"#utility.yul\":4170:4171   */\n      0x00\n        /* \"#utility.yul\":4167:4168   */\n      dup1\n        /* \"#utility.yul\":4160:4172   */\n      revert\n        /* \"#utility.yul\":4114:4174   */\n    tag_190:\n        /* \"#utility.yul\":4064:4180   */\n      pop\n      jump\t// out\n        /* \"#utility.yul\":4186:4323   */\n    tag_127:\n        /* \"#utility.yul\":4240:4245   */\n      0x00\n        /* \"#utility.yul\":4271:4277   */\n      dup2\n        /* \"#utility.yul\":4265:4278   */\n      mload\n        /* \"#utility.yul\":4256:4278   */\n      swap1\n      pop\n        /* \"#utility.yul\":4287:4317   */\n      tag_192\n        /* \"#utility.yul\":4311:4316   */\n      dup2\n        /* \"#utility.yul\":4287:4317   */\n      tag_126\n      jump\t// in\n    tag_192:\n        /* \"#utility.yul\":4186:4323   */\n      swap3\n      swap2\n      pop\n      pop\n      jump\t// out\n        /* \"#utility.yul\":4329:4674   */\n    tag_42:\n        /* \"#utility.yul\":4396:4402   */\n      0x00\n        /* \"#utility.yul\":4445:4447   */\n      0x20\n        /* \"#utility.yul\":4433:4442   */\n      dup3\n        /* \"#utility.yul\":4424:4431   */\n      dup5\n        /* \"#utility.yul\":4420:4443   */\n      sub\n        /* \"#utility.yul\":4416:4448   */\n      slt\n        /* \"#utility.yul\":4413:4532   */\n      iszero\n      tag_194\n      jumpi\n        /* \"#utility.yul\":4451:4530   */\n      tag_195\n      tag_111\n      jump\t// in\n    tag_195:\n        /* \"#utility.yul\":4413:4532   */\n    tag_194:\n        /* \"#utility.yul\":4571:4572   */\n      0x00\n        /* \"#utility.yul\":4596:4657   */\n      tag_196\n        /* \"#utility.yul\":4649:4656   */\n      dup5\n        /* \"#utility.yul\":4640:4646   */\n      dup3\n        /* \"#utility.yul\":4629:4638   */\n      dup6\n        /* \"#utility.yul\":4625:4647   */\n      add\n        /* \"#utility.yul\":4596:4657   */\n      tag_127\n      jump\t// in\n    tag_196:\n        /* \"#utility.yul\":4586:4657   */\n      swap2\n      pop\n        /* \"#utility.yul\":4542:4667   */\n      pop\n        /* \"#utility.yul\":4329:4674   */\n      swap3\n      swap2\n      pop\n      pop\n      jump\t// out\n        /* \"#utility.yul\":4680:5012   */\n    tag_45:\n        /* \"#utility.yul\":4801:4805   */\n      0x00\n        /* \"#utility.yul\":4839:4841   */\n      0x40\n        /* \"#utility.yul\":4828:4837   */\n      dup3\n        /* \"#utility.yul\":4824:4842   */\n      add\n        /* \"#utility.yul\":4816:4842   */\n      swap1\n      pop\n        /* \"#utility.yul\":4852:4923   */\n      tag_198\n        /* \"#utility.yul\":4920:4921   */\n      0x00\n        /* \"#utility.yul\":4909:4918   */\n      dup4\n        /* \"#utility.yul\":4905:4922   */\n      add\n        /* \"#utility.yul\":4896:4902   */\n      dup6\n        /* \"#utility.yul\":4852:4923   */\n      tag_120\n      jump\t// in\n    tag_198:\n        /* \"#utility.yul\":4933:5005   */\n      tag_199\n        /* \"#utility.yul\":5001:5003   */\n      0x20\n        /* \"#utility.yul\":4990:4999   */\n      dup4\n        /* \"#utility.yul\":4986:5004   */\n      add\n        /* \"#utility.yul\":4977:4983   */\n      dup5\n        /* \"#utility.yul\":4933:5005   */\n      tag_120\n      jump\t// in\n    tag_199:\n        /* \"#utility.yul\":4680:5012   */\n      swap4\n      swap3\n      pop\n      pop\n      pop\n      jump\t// out\n        /* \"#utility.yul\":5018:5161   */\n    tag_128:\n        /* \"#utility.yul\":5075:5080   */\n      0x00\n        /* \"#utility.yul\":5106:5112   */\n      dup2\n        /* \"#utility.yul\":5100:5113   */\n      mload\n        /* \"#utility.yul\":5091:5113   */\n      swap1\n      pop\n        /* \"#utility.yul\":5122:5155   */\n      tag_201\n        /* \"#utility.yul\":5149:5154   */\n      dup2\n        /* \"#utility.yul\":5122:5155   */\n      tag_114\n      jump\t// in\n    tag_201:\n        /* \"#utility.yul\":5018:5161   */\n      swap3\n      swap2\n      pop\n      pop\n      jump\t// out\n        /* \"#utility.yul\":5167:5518   */\n    tag_49:\n        /* \"#utility.yul\":5237:5243   */\n      0x00\n        /* \"#utility.yul\":5286:5288   */\n      0x20\n        /* \"#utility.yul\":5274:5283   */\n      dup3\n        /* \"#utility.yul\":5265:5272   */\n      dup5\n        /* \"#utility.yul\":5261:5284   */\n      sub\n        /* \"#utility.yul\":5257:5289   */\n      slt\n        /* \"#utility.yul\":5254:5373   */\n      iszero\n      tag_203\n      jumpi\n        /* \"#utility.yul\":5292:5371   */\n      tag_204\n      tag_111\n      jump\t// in\n    tag_204:\n        /* \"#utility.yul\":5254:5373   */\n    tag_203:\n        /* \"#utility.yul\":5412:5413   */\n      0x00\n        /* \"#utility.yul\":5437:5501   */\n      tag_205\n        /* \"#utility.yul\":5493:5500   */\n      dup5\n        /* \"#utility.yul\":5484:5490   */\n      dup3\n        /* \"#utility.yul\":5473:5482   */\n      dup6\n        /* \"#utility.yul\":5469:5491   */\n      add\n        /* \"#utility.yul\":5437:5501   */\n      tag_128\n      jump\t// in\n    tag_205:\n        /* \"#utility.yul\":5427:5501   */\n      swap2\n      pop\n        /* \"#utility.yul\":5383:5511   */\n      pop\n        /* \"#utility.yul\":5167:5518   */\n      swap3\n      swap2\n      pop\n      pop\n      jump\t// out\n        /* \"#utility.yul\":5524:5695   */\n    tag_129:\n        /* \"#utility.yul\":5664:5687   */\n      0x436f6e7472616374206e6f7420617070726f7665640000000000000000000000\n        /* \"#utility.yul\":5660:5661   */\n      0x00\n        /* \"#utility.yul\":5652:5658   */\n      dup3\n        /* \"#utility.yul\":5648:5662   */\n      add\n        /* \"#utility.yul\":5641:5688   */\n      mstore\n        /* \"#utility.yul\":5524:5695   */\n      pop\n      jump\t// out\n        /* \"#utility.yul\":5701:6067   */\n    tag_130:\n        /* \"#utility.yul\":5843:5846   */\n      0x00\n        /* \"#utility.yul\":5864:5931   */\n      tag_208\n        /* \"#utility.yul\":5928:5930   */\n      0x15\n        /* \"#utility.yul\":5923:5926   */\n      dup4\n        /* \"#utility.yul\":5864:5931   */\n      tag_121\n      jump\t// in\n    tag_208:\n        /* \"#utility.yul\":5857:5931   */\n      swap2\n      pop\n        /* \"#utility.yul\":5940:6033   */\n      tag_209\n        /* \"#utility.yul\":6029:6032   */\n      dup3\n        /* \"#utility.yul\":5940:6033   */\n      tag_129\n      jump\t// in\n    tag_209:\n        /* \"#utility.yul\":6058:6060   */\n      0x20\n        /* \"#utility.yul\":6053:6056   */\n      dup3\n        /* \"#utility.yul\":6049:6061   */\n      add\n        /* \"#utility.yul\":6042:6061   */\n      swap1\n      pop\n        /* \"#utility.yul\":5701:6067   */\n      swap2\n      swap1\n      pop\n      jump\t// out\n        /* \"#utility.yul\":6073:6492   */\n    tag_52:\n        /* \"#utility.yul\":6239:6243   */\n      0x00\n        /* \"#utility.yul\":6277:6279   */\n      0x20\n        /* \"#utility.yul\":6266:6275   */\n      dup3\n        /* \"#utility.yul\":6262:6280   */\n      add\n        /* \"#utility.yul\":6254:6280   */\n      swap1\n      pop\n        /* \"#utility.yul\":6326:6335   */\n      dup2\n        /* \"#utility.yul\":6320:6324   */\n      dup2\n        /* \"#utility.yul\":6316:6336   */\n      sub\n        /* \"#utility.yul\":6312:6313   */\n      0x00\n        /* \"#utility.yul\":6301:6310   */\n      dup4\n        /* \"#utility.yul\":6297:6314   */\n      add\n        /* \"#utility.yul\":6290:6337   */\n      mstore\n        /* \"#utility.yul\":6354:6485   */\n      tag_211\n        /* \"#utility.yul\":6480:6484   */\n      dup2\n        /* \"#utility.yul\":6354:6485   */\n      tag_130\n      jump\t// in\n    tag_211:\n        /* \"#utility.yul\":6346:6485   */\n      swap1\n      pop\n        /* \"#utility.yul\":6073:6492   */\n      swap2\n      swap1\n      pop\n      jump\t// out\n        /* \"#utility.yul\":6498:6940   */\n    tag_54:\n        /* \"#utility.yul\":6647:6651   */\n      0x00\n        /* \"#utility.yul\":6685:6687   */\n      0x60\n        /* \"#utility.yul\":6674:6683   */\n      dup3\n        /* \"#utility.yul\":6670:6688   */\n      add\n        /* \"#utility.yul\":6662:6688   */\n      swap1\n      pop\n        /* \"#utility.yul\":6698:6769   */\n      tag_213\n        /* \"#utility.yul\":6766:6767   */\n      0x00\n        /* \"#utility.yul\":6755:6764   */\n      dup4\n        /* \"#utility.yul\":6751:6768   */\n      add\n        /* \"#utility.yul\":6742:6748   */\n      dup7\n        /* \"#utility.yul\":6698:6769   */\n      tag_120\n      jump\t// in\n    tag_213:\n        /* \"#utility.yul\":6779:6851   */\n      tag_214\n        /* \"#utility.yul\":6847:6849   */\n      0x20\n        /* \"#utility.yul\":6836:6845   */\n      dup4\n        /* \"#utility.yul\":6832:6850   */\n      add\n        /* \"#utility.yul\":6823:6829   */\n      dup6\n        /* \"#utility.yul\":6779:6851   */\n      tag_120\n      jump\t// in\n    tag_214:\n        /* \"#utility.yul\":6861:6933   */\n      tag_215\n        /* \"#utility.yul\":6929:6931   */\n      0x40\n        /* \"#utility.yul\":6918:6927   */\n      dup4\n        /* \"#utility.yul\":6914:6932   */\n      add\n        /* \"#utility.yul\":6905:6911   */\n      dup5\n        /* \"#utility.yul\":6861:6933   */\n      tag_124\n      jump\t// in\n    tag_215:\n        /* \"#utility.yul\":6498:6940   */\n      swap5\n      swap4\n      pop\n      pop\n      pop\n      pop\n      jump\t// out\n        /* \"#utility.yul\":6946:7093   */\n    tag_131:\n        /* \"#utility.yul\":7047:7058   */\n      0x00\n        /* \"#utility.yul\":7084:7087   */\n      dup2\n        /* \"#utility.yul\":7069:7087   */\n      swap1\n      pop\n        /* \"#utility.yul\":6946:7093   */\n      swap3\n      swap2\n      pop\n      pop\n      jump\t// out\n        /* \"#utility.yul\":7099:7213   */\n    tag_132:\n      pop\n      jump\t// out\n        /* \"#utility.yul\":7219:7617   */\n    tag_133:\n        /* \"#utility.yul\":7378:7381   */\n      0x00\n        /* \"#utility.yul\":7399:7482   */\n      tag_219\n        /* \"#utility.yul\":7480:7481   */\n      0x00\n        /* \"#utility.yul\":7475:7478   */\n      dup4\n        /* \"#utility.yul\":7399:7482   */\n      tag_131\n      jump\t// in\n    tag_219:\n        /* \"#utility.yul\":7392:7482   */\n      swap2\n      pop\n        /* \"#utility.yul\":7491:7584   */\n      tag_220\n        /* \"#utility.yul\":7580:7583   */\n      dup3\n        /* \"#utility.yul\":7491:7584   */\n      tag_132\n      jump\t// in\n    tag_220:\n        /* \"#utility.yul\":7609:7610   */\n      0x00\n        /* \"#utility.yul\":7604:7607   */\n      dup3\n        /* \"#utility.yul\":7600:7611   */\n      add\n        /* \"#utility.yul\":7593:7611   */\n      swap1\n      pop\n        /* \"#utility.yul\":7219:7617   */\n      swap2\n      swap1\n      pop\n      jump\t// out\n        /* \"#utility.yul\":7623:8002   */\n    tag_59:\n        /* \"#utility.yul\":7807:7810   */\n      0x00\n        /* \"#utility.yul\":7829:7976   */\n      tag_222\n        /* \"#utility.yul\":7972:7975   */\n      dup3\n        /* \"#utility.yul\":7829:7976   */\n      tag_133\n      jump\t// in\n    tag_222:\n        /* \"#utility.yul\":7822:7976   */\n      swap2\n      pop\n        /* \"#utility.yul\":7993:7996   */\n      dup2\n        /* \"#utility.yul\":7986:7996   */\n      swap1\n      pop\n        /* \"#utility.yul\":7623:8002   */\n      swap2\n      swap1\n      pop\n      jump\t// out\n        /* \"#utility.yul\":8008:8173   */\n    tag_134:\n        /* \"#utility.yul\":8148:8165   */\n      0x5472616e73666572204661696c65640000000000000000000000000000000000\n        /* \"#utility.yul\":8144:8145   */\n      0x00\n        /* \"#utility.yul\":8136:8142   */\n      dup3\n        /* \"#utility.yul\":8132:8146   */\n      add\n        /* \"#utility.yul\":8125:8166   */\n      mstore\n        /* \"#utility.yul\":8008:8173   */\n      pop\n      jump\t// out\n        /* \"#utility.yul\":8179:8545   */\n    tag_135:\n        /* \"#utility.yul\":8321:8324   */\n      0x00\n        /* \"#utility.yul\":8342:8409   */\n      tag_225\n        /* \"#utility.yul\":8406:8408   */\n      0x0f\n        /* \"#utility.yul\":8401:8404   */\n      dup4\n        /* \"#utility.yul\":8342:8409   */\n      tag_121\n      jump\t// in\n    tag_225:\n        /* \"#utility.yul\":8335:8409   */\n      swap2\n      pop\n        /* \"#utility.yul\":8418:8511   */\n      tag_226\n        /* \"#utility.yul\":8507:8510   */\n      dup3\n        /* \"#utility.yul\":8418:8511   */\n      tag_134\n      jump\t// in\n    tag_226:\n        /* \"#utility.yul\":8536:8538   */\n      0x20\n        /* \"#utility.yul\":8531:8534   */\n      dup3\n        /* \"#utility.yul\":8527:8539   */\n      add\n        /* \"#utility.yul\":8520:8539   */\n      swap1\n      pop\n        /* \"#utility.yul\":8179:8545   */\n      swap2\n      swap1\n      pop\n      jump\t// out\n        /* \"#utility.yul\":8551:8970   */\n    tag_65:\n        /* \"#utility.yul\":8717:8721   */\n      0x00\n        /* \"#utility.yul\":8755:8757   */\n      0x20\n        /* \"#utility.yul\":8744:8753   */\n      dup3\n        /* \"#utility.yul\":8740:8758   */\n      add\n        /* \"#utility.yul\":8732:8758   */\n      swap1\n      pop\n        /* \"#utility.yul\":8804:8813   */\n      dup2\n        /* \"#utility.yul\":8798:8802   */\n      dup2\n        /* \"#utility.yul\":8794:8814   */\n      sub\n        /* \"#utility.yul\":8790:8791   */\n      0x00\n        /* \"#utility.yul\":8779:8788   */\n      dup4\n        /* \"#utility.yul\":8775:8792   */\n      add\n        /* \"#utility.yul\":8768:8815   */\n      mstore\n        /* \"#utility.yul\":8832:8963   */\n      tag_228\n        /* \"#utility.yul\":8958:8962   */\n      dup2\n        /* \"#utility.yul\":8832:8963   */\n      tag_135\n      jump\t// in\n    tag_228:\n        /* \"#utility.yul\":8824:8963   */\n      swap1\n      pop\n        /* \"#utility.yul\":8551:8970   */\n      swap2\n      swap1\n      pop\n      jump\t// out\n        /* \"#utility.yul\":8976:9207   */\n    tag_136:\n        /* \"#utility.yul\":9116:9150   */\n      0x54686520616d6f756e74206f662045544820616e6420746f6b656e732073686f\n        /* \"#utility.yul\":9112:9113   */\n      0x00\n        /* \"#utility.yul\":9104:9110   */\n      dup3\n        /* \"#utility.yul\":9100:9114   */\n      add\n        /* \"#utility.yul\":9093:9151   */\n      mstore\n        /* \"#utility.yul\":9185:9199   */\n      0x756c6420626520657175616c0000000000000000000000000000000000000000\n        /* \"#utility.yul\":9180:9182   */\n      0x20\n        /* \"#utility.yul\":9172:9178   */\n      dup3\n        /* \"#utility.yul\":9168:9183   */\n      add\n        /* \"#utility.yul\":9161:9200   */\n      mstore\n        /* \"#utility.yul\":8976:9207   */\n      pop\n      jump\t// out\n        /* \"#utility.yul\":9213:9579   */\n    tag_137:\n        /* \"#utility.yul\":9355:9358   */\n      0x00\n        /* \"#utility.yul\":9376:9443   */\n      tag_231\n        /* \"#utility.yul\":9440:9442   */\n      0x2c\n        /* \"#utility.yul\":9435:9438   */\n      dup4\n        /* \"#utility.yul\":9376:9443   */\n      tag_121\n      jump\t// in\n    tag_231:\n        /* \"#utility.yul\":9369:9443   */\n      swap2\n      pop\n        /* \"#utility.yul\":9452:9545   */\n      tag_232\n        /* \"#utility.yul\":9541:9544   */\n      dup3\n        /* \"#utility.yul\":9452:9545   */\n      tag_136\n      jump\t// in\n    tag_232:\n        /* \"#utility.yul\":9570:9572   */\n      0x40\n        /* \"#utility.yul\":9565:9568   */\n      dup3\n        /* \"#utility.yul\":9561:9573   */\n      add\n        /* \"#utility.yul\":9554:9573   */\n      swap1\n      pop\n        /* \"#utility.yul\":9213:9579   */\n      swap2\n      swap1\n      pop\n      jump\t// out\n        /* \"#utility.yul\":9585:10004   */\n    tag_74:\n        /* \"#utility.yul\":9751:9755   */\n      0x00\n        /* \"#utility.yul\":9789:9791   */\n      0x20\n        /* \"#utility.yul\":9778:9787   */\n      dup3\n        /* \"#utility.yul\":9774:9792   */\n      add\n        /* \"#utility.yul\":9766:9792   */\n      swap1\n      pop\n        /* \"#utility.yul\":9838:9847   */\n      dup2\n        /* \"#utility.yul\":9832:9836   */\n      dup2\n        /* \"#utility.yul\":9828:9848   */\n      sub\n        /* \"#utility.yul\":9824:9825   */\n      0x00\n        /* \"#utility.yul\":9813:9822   */\n      dup4\n        /* \"#utility.yul\":9809:9826   */\n      add\n        /* \"#utility.yul\":9802:9849   */\n      mstore\n        /* \"#utility.yul\":9866:9997   */\n      tag_234\n        /* \"#utility.yul\":9992:9996   */\n      dup2\n        /* \"#utility.yul\":9866:9997   */\n      tag_137\n      jump\t// in\n    tag_234:\n        /* \"#utility.yul\":9858:9997   */\n      swap1\n      pop\n        /* \"#utility.yul\":9585:10004   */\n      swap2\n      swap1\n      pop\n      jump\t// out\n        /* \"#utility.yul\":10010:10184   */\n    tag_138:\n        /* \"#utility.yul\":10150:10176   */\n      0x496e76616c696420616d6f756e74206f66207368617265730000000000000000\n        /* \"#utility.yul\":10146:10147   */\n      0x00\n        /* \"#utility.yul\":10138:10144   */\n      dup3\n        /* \"#utility.yul\":10134:10148   */\n      add\n        /* \"#utility.yul\":10127:10177   */\n      mstore\n        /* \"#utility.yul\":10010:10184   */\n      pop\n      jump\t// out\n        /* \"#utility.yul\":10190:10556   */\n    tag_139:\n        /* \"#utility.yul\":10332:10335   */\n      0x00\n        /* \"#utility.yul\":10353:10420   */\n      tag_237\n        /* \"#utility.yul\":10417:10419   */\n      0x18\n        /* \"#utility.yul\":10412:10415   */\n      dup4\n        /* \"#utility.yul\":10353:10420   */\n      tag_121\n      jump\t// in\n    tag_237:\n        /* \"#utility.yul\":10346:10420   */\n      swap2\n      pop\n        /* \"#utility.yul\":10429:10522   */\n      tag_238\n        /* \"#utility.yul\":10518:10521   */\n      dup3\n        /* \"#utility.yul\":10429:10522   */\n      tag_138\n      jump\t// in\n    tag_238:\n        /* \"#utility.yul\":10547:10549   */\n      0x20\n        /* \"#utility.yul\":10542:10545   */\n      dup3\n        /* \"#utility.yul\":10538:10550   */\n      add\n        /* \"#utility.yul\":10531:10550   */\n      swap1\n      pop\n        /* \"#utility.yul\":10190:10556   */\n      swap2\n      swap1\n      pop\n      jump\t// out\n        /* \"#utility.yul\":10562:10981   */\n    tag_87:\n        /* \"#utility.yul\":10728:10732   */\n      0x00\n        /* \"#utility.yul\":10766:10768   */\n      0x20\n        /* \"#utility.yul\":10755:10764   */\n      dup3\n        /* \"#utility.yul\":10751:10769   */\n      add\n        /* \"#utility.yul\":10743:10769   */\n      swap1\n      pop\n        /* \"#utility.yul\":10815:10824   */\n      dup2\n        /* \"#utility.yul\":10809:10813   */\n      dup2\n        /* \"#utility.yul\":10805:10825   */\n      sub\n        /* \"#utility.yul\":10801:10802   */\n      0x00\n        /* \"#utility.yul\":10790:10799   */\n      dup4\n        /* \"#utility.yul\":10786:10803   */\n      add\n        /* \"#utility.yul\":10779:10826   */\n      mstore\n        /* \"#utility.yul\":10843:10974   */\n      tag_240\n        /* \"#utility.yul\":10969:10973   */\n      dup2\n        /* \"#utility.yul\":10843:10974   */\n      tag_139\n      jump\t// in\n    tag_240:\n        /* \"#utility.yul\":10835:10974   */\n      swap1\n      pop\n        /* \"#utility.yul\":10562:10981   */\n      swap2\n      swap1\n      pop\n      jump\t// out\n        /* \"#utility.yul\":10987:11276   */\n    tag_140:\n        /* \"#utility.yul\":11127:11161   */\n      0x506c6561736520617070726f76652074686520636f6e747261637420746f2064\n        /* \"#utility.yul\":11123:11124   */\n      0x00\n        /* \"#utility.yul\":11115:11121   */\n      dup3\n        /* \"#utility.yul\":11111:11125   */\n      add\n        /* \"#utility.yul\":11104:11162   */\n      mstore\n        /* \"#utility.yul\":11196:11230   */\n      0x6564756374206c747220746f6b656e732066726f6d20796f75722077616c6c65\n        /* \"#utility.yul\":11191:11193   */\n      0x20\n        /* \"#utility.yul\":11183:11189   */\n      dup3\n        /* \"#utility.yul\":11179:11194   */\n      add\n        /* \"#utility.yul\":11172:11231   */\n      mstore\n        /* \"#utility.yul\":11265:11268   */\n      0x7400000000000000000000000000000000000000000000000000000000000000\n        /* \"#utility.yul\":11260:11262   */\n      0x40\n        /* \"#utility.yul\":11252:11258   */\n      dup3\n        /* \"#utility.yul\":11248:11263   */\n      add\n        /* \"#utility.yul\":11241:11269   */\n      mstore\n        /* \"#utility.yul\":10987:11276   */\n      pop\n      jump\t// out\n        /* \"#utility.yul\":11282:11648   */\n    tag_141:\n        /* \"#utility.yul\":11424:11427   */\n      0x00\n        /* \"#utility.yul\":11445:11512   */\n      tag_243\n        /* \"#utility.yul\":11509:11511   */\n      0x41\n        /* \"#utility.yul\":11504:11507   */\n      dup4\n        /* \"#utility.yul\":11445:11512   */\n      tag_121\n      jump\t// in\n    tag_243:\n        /* \"#utility.yul\":11438:11512   */\n      swap2\n      pop\n        /* \"#utility.yul\":11521:11614   */\n      tag_244\n        /* \"#utility.yul\":11610:11613   */\n      dup3\n        /* \"#utility.yul\":11521:11614   */\n      tag_140\n      jump\t// in\n    tag_244:\n        /* \"#utility.yul\":11639:11641   */\n      0x60\n        /* \"#utility.yul\":11634:11637   */\n      dup3\n        /* \"#utility.yul\":11630:11642   */\n      add\n        /* \"#utility.yul\":11623:11642   */\n      swap1\n      pop\n        /* \"#utility.yul\":11282:11648   */\n      swap2\n      swap1\n      pop\n      jump\t// out\n        /* \"#utility.yul\":11654:12073   */\n    tag_94:\n        /* \"#utility.yul\":11820:11824   */\n      0x00\n        /* \"#utility.yul\":11858:11860   */\n      0x20\n        /* \"#utility.yul\":11847:11856   */\n      dup3\n        /* \"#utility.yul\":11843:11861   */\n      add\n        /* \"#utility.yul\":11835:11861   */\n      swap1\n      pop\n        /* \"#utility.yul\":11907:11916   */\n      dup2\n        /* \"#utility.yul\":11901:11905   */\n      dup2\n        /* \"#utility.yul\":11897:11917   */\n      sub\n        /* \"#utility.yul\":11893:11894   */\n      0x00\n        /* \"#utility.yul\":11882:11891   */\n      dup4\n        /* \"#utility.yul\":11878:11895   */\n      add\n        /* \"#utility.yul\":11871:11918   */\n      mstore\n        /* \"#utility.yul\":11935:12066   */\n      tag_246\n        /* \"#utility.yul\":12061:12065   */\n      dup2\n        /* \"#utility.yul\":11935:12066   */\n      tag_141\n      jump\t// in\n    tag_246:\n        /* \"#utility.yul\":11927:12066   */\n      swap1\n      pop\n        /* \"#utility.yul\":11654:12073   */\n      swap2\n      swap1\n      pop\n      jump\t// out\n        /* \"#utility.yul\":12079:12244   */\n    tag_142:\n        /* \"#utility.yul\":12219:12236   */\n      0x5472616e73666572206661696c65640000000000000000000000000000000000\n        /* \"#utility.yul\":12215:12216   */\n      0x00\n        /* \"#utility.yul\":12207:12213   */\n      dup3\n        /* \"#utility.yul\":12203:12217   */\n      add\n        /* \"#utility.yul\":12196:12237   */\n      mstore\n        /* \"#utility.yul\":12079:12244   */\n      pop\n      jump\t// out\n        /* \"#utility.yul\":12250:12616   */\n    tag_143:\n        /* \"#utility.yul\":12392:12395   */\n      0x00\n        /* \"#utility.yul\":12413:12480   */\n      tag_249\n        /* \"#utility.yul\":12477:12479   */\n      0x0f\n        /* \"#utility.yul\":12472:12475   */\n      dup4\n        /* \"#utility.yul\":12413:12480   */\n      tag_121\n      jump\t// in\n    tag_249:\n        /* \"#utility.yul\":12406:12480   */\n      swap2\n      pop\n        /* \"#utility.yul\":12489:12582   */\n      tag_250\n        /* \"#utility.yul\":12578:12581   */\n      dup3\n        /* \"#utility.yul\":12489:12582   */\n      tag_142\n      jump\t// in\n    tag_250:\n        /* \"#utility.yul\":12607:12609   */\n      0x20\n        /* \"#utility.yul\":12602:12605   */\n      dup3\n        /* \"#utility.yul\":12598:12610   */\n      add\n        /* \"#utility.yul\":12591:12610   */\n      swap1\n      pop\n        /* \"#utility.yul\":12250:12616   */\n      swap2\n      swap1\n      pop\n      jump\t// out\n        /* \"#utility.yul\":12622:13041   */\n    tag_109:\n        /* \"#utility.yul\":12788:12792   */\n      0x00\n        /* \"#utility.yul\":12826:12828   */\n      0x20\n        /* \"#utility.yul\":12815:12824   */\n      dup3\n        /* \"#utility.yul\":12811:12829   */\n      add\n        /* \"#utility.yul\":12803:12829   */\n      swap1\n      pop\n        /* \"#utility.yul\":12875:12884   */\n      dup2\n        /* \"#utility.yul\":12869:12873   */\n      dup2\n        /* \"#utility.yul\":12865:12885   */\n      sub\n        /* \"#utility.yul\":12861:12862   */\n      0x00\n        /* \"#utility.yul\":12850:12859   */\n      dup4\n        /* \"#utility.yul\":12846:12863   */\n      add\n        /* \"#utility.yul\":12839:12886   */\n      mstore\n        /* \"#utility.yul\":12903:13034   */\n      tag_252\n        /* \"#utility.yul\":13029:13033   */\n      dup2\n        /* \"#utility.yul\":12903:13034   */\n      tag_143\n      jump\t// in\n    tag_252:\n        /* \"#utility.yul\":12895:13034   */\n      swap1\n      pop\n        /* \"#utility.yul\":12622:13041   */\n      swap2\n      swap1\n      pop\n      jump\t// out\n\n    auxdata: 0xa26469706673582212204ffa6ebf0aa0e18081af9d7a045e04f0f2353ced00aec1bc78223601ff08d50c64736f6c63430008110033\n}\n",
				"bytecode": {
					"linkReferences": {},
					"object": "60806040523480156200001157600080fd5b506040516200113d3803806200113d8339818101604052810190620000379190620000e8565b806000806101000a81548173ffffffffffffffffffffffffffffffffffffffff021916908373ffffffffffffffffffffffffffffffffffffffff160217905550506200011a565b600080fd5b600073ffffffffffffffffffffffffffffffffffffffff82169050919050565b6000620000b08262000083565b9050919050565b620000c281620000a3565b8114620000ce57600080fd5b50565b600081519050620000e281620000b7565b92915050565b6000602082840312156200010157620001006200007e565b5b60006200011184828501620000d1565b91505092915050565b611013806200012a6000396000f3fe6080604052600436106100555760003560e01c80631aa5c70e1461005a5780638e3073a614610076578063bec3fa171461009f578063eb521a4c146100c8578063f4325d67146100e4578063ff9b37581461010f575b600080fd5b610074600480360381019061006f91906109ec565b610138565b005b34801561008257600080fd5b5061009d600480360381019061009891906109ec565b61021c565b005b3480156100ab57600080fd5b506100c660048036038101906100c19190610a77565b61044b565b005b6100e260048036038101906100dd91906109ec565b6104e2565b005b3480156100f057600080fd5b506100f9610694565b6040516101069190610ac6565b60405180910390f35b34801561011b57600080fd5b50610136600480360381019061013191906109ec565b6106b8565b005b80341461017a576040517f08c379a000000000000000000000000000000000000000000000000000000000815260040161017190610b3e565b60405180910390fd5b60008054906101000a900473ffffffffffffffffffffffffffffffffffffffff1673ffffffffffffffffffffffffffffffffffffffff1663a9059cbb33836040518363ffffffff1660e01b81526004016101d5929190610b6d565b6020604051808303816000875af11580156101f4573d6000803e3d6000fd5b505050506040513d601f19601f820116820180604052508101906102189190610bce565b5050565b8060008054906101000a900473ffffffffffffffffffffffffffffffffffffffff1673ffffffffffffffffffffffffffffffffffffffff1663dd62ed3e33306040518363ffffffff1660e01b8152600401610278929190610bfb565b602060405180830381865afa158015610295573d6000803e3d6000fd5b505050506040513d601f19601f820116820180604052508101906102b99190610c39565b10156102fa576040517f08c379a00000000000000000000000000000000000000000000000000000000081526004016102f190610cb2565b60405180910390fd5b60008054906101000a900473ffffffffffffffffffffffffffffffffffffffff1673ffffffffffffffffffffffffffffffffffffffff166323b872dd3330846040518463ffffffff1660e01b815260040161035793929190610cd2565b6020604051808303816000875af1158015610376573d6000803e3d6000fd5b505050506040513d601f19601f8201168201806040525081019061039a9190610bce565b5060003373ffffffffffffffffffffffffffffffffffffffff16826040516103c190610d3a565b60006040518083038185875af1925050503d80600081146103fe576040519150601f19603f3d011682016040523d82523d6000602084013e610403565b606091505b5050905080610447576040517f08c379a000000000000000000000000000000000000000000000000000000000815260040161043e90610d9b565b60405180910390fd5b5050565b7339db207dff3411f4fab0483d419306873cbc13d973ffffffffffffffffffffffffffffffffffffffff1663a9059cbb83836040518363ffffffff1660e01b815260040161049a929190610b6d565b6020604051808303816000875af11580156104b9573d6000803e3d6000fd5b505050506040513d601f19601f820116820180604052508101906104dd9190610bce565b505050565b803414610524576040517f08c379a000000000000000000000000000000000000000000000000000000000815260040161051b90610e2d565b60405180910390fd5b60008054906101000a900473ffffffffffffffffffffffffffffffffffffffff1673ffffffffffffffffffffffffffffffffffffffff166323b872dd3330846040518463ffffffff1660e01b815260040161058193929190610cd2565b6020604051808303816000875af11580156105a0573d6000803e3d6000fd5b505050506040513d601f19601f820116820180604052508101906105c49190610bce565b507339db207dff3411f4fab0483d419306873cbc13d973ffffffffffffffffffffffffffffffffffffffff1663a9059cbb33836040518363ffffffff1660e01b8152600401610614929190610b6d565b6020604051808303816000875af1158015610633573d6000803e3d6000fd5b505050506040513d601f19601f820116820180604052508101906106579190610bce565b507fb62268a18d99fe191ac8e62f823ab1eec698609a81b2c8de3dac902896b09da63382604051610689929190610b6d565b60405180910390a150565b60008054906101000a900473ffffffffffffffffffffffffffffffffffffffff1681565b600081116106fb576040517f08c379a00000000000000000000000000000000000000000000000000000000081526004016106f290610e99565b60405180910390fd5b807339db207dff3411f4fab0483d419306873cbc13d973ffffffffffffffffffffffffffffffffffffffff1663dd62ed3e33306040518363ffffffff1660e01b815260040161074b929190610bfb565b602060405180830381865afa158015610768573d6000803e3d6000fd5b505050506040513d601f19601f8201168201806040525081019061078c9190610c39565b10156107cd576040517f08c379a00000000000000000000000000000000000000000000000000000000081526004016107c490610f51565b60405180910390fd5b7339db207dff3411f4fab0483d419306873cbc13d973ffffffffffffffffffffffffffffffffffffffff166323b872dd3330846040518463ffffffff1660e01b815260040161081e93929190610cd2565b6020604051808303816000875af115801561083d573d6000803e3d6000fd5b505050506040513d601f19601f820116820180604052508101906108619190610bce565b5060008054906101000a900473ffffffffffffffffffffffffffffffffffffffff1673ffffffffffffffffffffffffffffffffffffffff1663a9059cbb33836040518363ffffffff1660e01b81526004016108bd929190610b6d565b6020604051808303816000875af11580156108dc573d6000803e3d6000fd5b505050506040513d601f19601f820116820180604052508101906109009190610bce565b5060003373ffffffffffffffffffffffffffffffffffffffff168260405161092790610d3a565b60006040518083038185875af1925050503d8060008114610964576040519150601f19603f3d011682016040523d82523d6000602084013e610969565b606091505b50509050806109ad576040517f08c379a00000000000000000000000000000000000000000000000000000000081526004016109a490610fbd565b60405180910390fd5b5050565b600080fd5b6000819050919050565b6109c9816109b6565b81146109d457600080fd5b50565b6000813590506109e6816109c0565b92915050565b600060208284031215610a0257610a016109b1565b5b6000610a10848285016109d7565b91505092915050565b600073ffffffffffffffffffffffffffffffffffffffff82169050919050565b6000610a4482610a19565b9050919050565b610a5481610a39565b8114610a5f57600080fd5b50565b600081359050610a7181610a4b565b92915050565b60008060408385031215610a8e57610a8d6109b1565b5b6000610a9c85828601610a62565b9250506020610aad858286016109d7565b9150509250929050565b610ac081610a39565b82525050565b6000602082019050610adb6000830184610ab7565b92915050565b600082825260208201905092915050565b7f496e76616c696420616d6f756e74000000000000000000000000000000000000600082015250565b6000610b28600e83610ae1565b9150610b3382610af2565b602082019050919050565b60006020820190508181036000830152610b5781610b1b565b9050919050565b610b67816109b6565b82525050565b6000604082019050610b826000830185610ab7565b610b8f6020830184610b5e565b9392505050565b60008115159050919050565b610bab81610b96565b8114610bb657600080fd5b50565b600081519050610bc881610ba2565b92915050565b600060208284031215610be457610be36109b1565b5b6000610bf284828501610bb9565b91505092915050565b6000604082019050610c106000830185610ab7565b610c1d6020830184610ab7565b9392505050565b600081519050610c33816109c0565b92915050565b600060208284031215610c4f57610c4e6109b1565b5b6000610c5d84828501610c24565b91505092915050565b7f436f6e7472616374206e6f7420617070726f7665640000000000000000000000600082015250565b6000610c9c601583610ae1565b9150610ca782610c66565b602082019050919050565b60006020820190508181036000830152610ccb81610c8f565b9050919050565b6000606082019050610ce76000830186610ab7565b610cf46020830185610ab7565b610d016040830184610b5e565b949350505050565b600081905092915050565b50565b6000610d24600083610d09565b9150610d2f82610d14565b600082019050919050565b6000610d4582610d17565b9150819050919050565b7f5472616e73666572204661696c65640000000000000000000000000000000000600082015250565b6000610d85600f83610ae1565b9150610d9082610d4f565b602082019050919050565b60006020820190508181036000830152610db481610d78565b9050919050565b7f54686520616d6f756e74206f662045544820616e6420746f6b656e732073686f60008201527f756c6420626520657175616c0000000000000000000000000000000000000000602082015250565b6000610e17602c83610ae1565b9150610e2282610dbb565b604082019050919050565b60006020820190508181036000830152610e4681610e0a565b9050919050565b7f496e76616c696420616d6f756e74206f66207368617265730000000000000000600082015250565b6000610e83601883610ae1565b9150610e8e82610e4d565b602082019050919050565b60006020820190508181036000830152610eb281610e76565b9050919050565b7f506c6561736520617070726f76652074686520636f6e747261637420746f206460008201527f6564756374206c747220746f6b656e732066726f6d20796f75722077616c6c6560208201527f7400000000000000000000000000000000000000000000000000000000000000604082015250565b6000610f3b604183610ae1565b9150610f4682610eb9565b606082019050919050565b60006020820190508181036000830152610f6a81610f2e565b9050919050565b7f5472616e73666572206661696c65640000000000000000000000000000000000600082015250565b6000610fa7600f83610ae1565b9150610fb282610f71565b602082019050919050565b60006020820190508181036000830152610fd681610f9a565b905091905056fea26469706673582212204ffa6ebf0aa0e18081af9d7a045e04f0f2353ced00aec1bc78223601ff08d50c64736f6c63430008110033",
					"opcodes": "PUSH1 0x80 PUSH1 0x40 MSTORE CALLVALUE DUP1 ISZERO PUSH3 0x11 JUMPI PUSH1 0x0 DUP1 REVERT JUMPDEST POP PUSH1 0x40 MLOAD PUSH3 0x113D CODESIZE SUB DUP1 PUSH3 0x113D DUP4 CODECOPY DUP2 DUP2 ADD PUSH1 0x40 MSTORE DUP2 ADD SWAP1 PUSH3 0x37 SWAP2 SWAP1 PUSH3 0xE8 JUMP JUMPDEST DUP1 PUSH1 0x0 DUP1 PUSH2 0x100 EXP DUP2 SLOAD DUP2 PUSH20 0xFFFFFFFFFFFFFFFFFFFFFFFFFFFFFFFFFFFFFFFF MUL NOT AND SWAP1 DUP4 PUSH20 0xFFFFFFFFFFFFFFFFFFFFFFFFFFFFFFFFFFFFFFFF AND MUL OR SWAP1 SSTORE POP POP PUSH3 0x11A JUMP JUMPDEST PUSH1 0x0 DUP1 REVERT JUMPDEST PUSH1 0x0 PUSH20 0xFFFFFFFFFFFFFFFFFFFFFFFFFFFFFFFFFFFFFFFF DUP3 AND SWAP1 POP SWAP2 SWAP1 POP JUMP JUMPDEST PUSH1 0x0 PUSH3 0xB0 DUP3 PUSH3 0x83 JUMP JUMPDEST SWAP1 POP SWAP2 SWAP1 POP JUMP JUMPDEST PUSH3 0xC2 DUP2 PUSH3 0xA3 JUMP JUMPDEST DUP2 EQ PUSH3 0xCE JUMPI PUSH1 0x0 DUP1 REVERT JUMPDEST POP JUMP JUMPDEST PUSH1 0x0 DUP2 MLOAD SWAP1 POP PUSH3 0xE2 DUP2 PUSH3 0xB7 JUMP JUMPDEST SWAP3 SWAP2 POP POP JUMP JUMPDEST PUSH1 0x0 PUSH1 0x20 DUP3 DUP5 SUB SLT ISZERO PUSH3 0x101 JUMPI PUSH3 0x100 PUSH3 0x7E JUMP JUMPDEST JUMPDEST PUSH1 0x0 PUSH3 0x111 DUP5 DUP3 DUP6 ADD PUSH3 0xD1 JUMP JUMPDEST SWAP2 POP POP SWAP3 SWAP2 POP POP JUMP JUMPDEST PUSH2 0x1013 DUP1 PUSH3 0x12A PUSH1 0x0 CODECOPY PUSH1 0x0 RETURN INVALID PUSH1 0x80 PUSH1 0x40 MSTORE PUSH1 0x4 CALLDATASIZE LT PUSH2 0x55 JUMPI PUSH1 0x0 CALLDATALOAD PUSH1 0xE0 SHR DUP1 PUSH4 0x1AA5C70E EQ PUSH2 0x5A JUMPI DUP1 PUSH4 0x8E3073A6 EQ PUSH2 0x76 JUMPI DUP1 PUSH4 0xBEC3FA17 EQ PUSH2 0x9F JUMPI DUP1 PUSH4 0xEB521A4C EQ PUSH2 0xC8 JUMPI DUP1 PUSH4 0xF4325D67 EQ PUSH2 0xE4 JUMPI DUP1 PUSH4 0xFF9B3758 EQ PUSH2 0x10F JUMPI JUMPDEST PUSH1 0x0 DUP1 REVERT JUMPDEST PUSH2 0x74 PUSH1 0x4 DUP1 CALLDATASIZE SUB DUP2 ADD SWAP1 PUSH2 0x6F SWAP2 SWAP1 PUSH2 0x9EC JUMP JUMPDEST PUSH2 0x138 JUMP JUMPDEST STOP JUMPDEST CALLVALUE DUP1 ISZERO PUSH2 0x82 JUMPI PUSH1 0x0 DUP1 REVERT JUMPDEST POP PUSH2 0x9D PUSH1 0x4 DUP1 CALLDATASIZE SUB DUP2 ADD SWAP1 PUSH2 0x98 SWAP2 SWAP1 PUSH2 0x9EC JUMP JUMPDEST PUSH2 0x21C JUMP JUMPDEST STOP JUMPDEST CALLVALUE DUP1 ISZERO PUSH2 0xAB JUMPI PUSH1 0x0 DUP1 REVERT JUMPDEST POP PUSH2 0xC6 PUSH1 0x4 DUP1 CALLDATASIZE SUB DUP2 ADD SWAP1 PUSH2 0xC1 SWAP2 SWAP1 PUSH2 0xA77 JUMP JUMPDEST PUSH2 0x44B JUMP JUMPDEST STOP JUMPDEST PUSH2 0xE2 PUSH1 0x4 DUP1 CALLDATASIZE SUB DUP2 ADD SWAP1 PUSH2 0xDD SWAP2 SWAP1 PUSH2 0x9EC JUMP JUMPDEST PUSH2 0x4E2 JUMP JUMPDEST STOP JUMPDEST CALLVALUE DUP1 ISZERO PUSH2 0xF0 JUMPI PUSH1 0x0 DUP1 REVERT JUMPDEST POP PUSH2 0xF9 PUSH2 0x694 JUMP JUMPDEST PUSH1 0x40 MLOAD PUSH2 0x106 SWAP2 SWAP1 PUSH2 0xAC6 JUMP JUMPDEST PUSH1 0x40 MLOAD DUP1 SWAP2 SUB SWAP1 RETURN JUMPDEST CALLVALUE DUP1 ISZERO PUSH2 0x11B JUMPI PUSH1 0x0 DUP1 REVERT JUMPDEST POP PUSH2 0x136 PUSH1 0x4 DUP1 CALLDATASIZE SUB DUP2 ADD SWAP1 PUSH2 0x131 SWAP2 SWAP1 PUSH2 0x9EC JUMP JUMPDEST PUSH2 0x6B8 JUMP JUMPDEST STOP JUMPDEST DUP1 CALLVALUE EQ PUSH2 0x17A JUMPI PUSH1 0x40 MLOAD PUSH32 0x8C379A000000000000000000000000000000000000000000000000000000000 DUP2 MSTORE PUSH1 0x4 ADD PUSH2 0x171 SWAP1 PUSH2 0xB3E JUMP JUMPDEST PUSH1 0x40 MLOAD DUP1 SWAP2 SUB SWAP1 REVERT JUMPDEST PUSH1 0x0 DUP1 SLOAD SWAP1 PUSH2 0x100 EXP SWAP1 DIV PUSH20 0xFFFFFFFFFFFFFFFFFFFFFFFFFFFFFFFFFFFFFFFF AND PUSH20 0xFFFFFFFFFFFFFFFFFFFFFFFFFFFFFFFFFFFFFFFF AND PUSH4 0xA9059CBB CALLER DUP4 PUSH1 0x40 MLOAD DUP4 PUSH4 0xFFFFFFFF AND PUSH1 0xE0 SHL DUP2 MSTORE PUSH1 0x4 ADD PUSH2 0x1D5 SWAP3 SWAP2 SWAP1 PUSH2 0xB6D JUMP JUMPDEST PUSH1 0x20 PUSH1 0x40 MLOAD DUP1 DUP4 SUB DUP2 PUSH1 0x0 DUP8 GAS CALL ISZERO DUP1 ISZERO PUSH2 0x1F4 JUMPI RETURNDATASIZE PUSH1 0x0 DUP1 RETURNDATACOPY RETURNDATASIZE PUSH1 0x0 REVERT JUMPDEST POP POP POP POP PUSH1 0x40 MLOAD RETURNDATASIZE PUSH1 0x1F NOT PUSH1 0x1F DUP3 ADD AND DUP3 ADD DUP1 PUSH1 0x40 MSTORE POP DUP2 ADD SWAP1 PUSH2 0x218 SWAP2 SWAP1 PUSH2 0xBCE JUMP JUMPDEST POP POP JUMP JUMPDEST DUP1 PUSH1 0x0 DUP1 SLOAD SWAP1 PUSH2 0x100 EXP SWAP1 DIV PUSH20 0xFFFFFFFFFFFFFFFFFFFFFFFFFFFFFFFFFFFFFFFF AND PUSH20 0xFFFFFFFFFFFFFFFFFFFFFFFFFFFFFFFFFFFFFFFF AND PUSH4 0xDD62ED3E CALLER ADDRESS PUSH1 0x40 MLOAD DUP4 PUSH4 0xFFFFFFFF AND PUSH1 0xE0 SHL DUP2 MSTORE PUSH1 0x4 ADD PUSH2 0x278 SWAP3 SWAP2 SWAP1 PUSH2 0xBFB JUMP JUMPDEST PUSH1 0x20 PUSH1 0x40 MLOAD DUP1 DUP4 SUB DUP2 DUP7 GAS STATICCALL ISZERO DUP1 ISZERO PUSH2 0x295 JUMPI RETURNDATASIZE PUSH1 0x0 DUP1 RETURNDATACOPY RETURNDATASIZE PUSH1 0x0 REVERT JUMPDEST POP POP POP POP PUSH1 0x40 MLOAD RETURNDATASIZE PUSH1 0x1F NOT PUSH1 0x1F DUP3 ADD AND DUP3 ADD DUP1 PUSH1 0x40 MSTORE POP DUP2 ADD SWAP1 PUSH2 0x2B9 SWAP2 SWAP1 PUSH2 0xC39 JUMP JUMPDEST LT ISZERO PUSH2 0x2FA JUMPI PUSH1 0x40 MLOAD PUSH32 0x8C379A000000000000000000000000000000000000000000000000000000000 DUP2 MSTORE PUSH1 0x4 ADD PUSH2 0x2F1 SWAP1 PUSH2 0xCB2 JUMP JUMPDEST PUSH1 0x40 MLOAD DUP1 SWAP2 SUB SWAP1 REVERT JUMPDEST PUSH1 0x0 DUP1 SLOAD SWAP1 PUSH2 0x100 EXP SWAP1 DIV PUSH20 0xFFFFFFFFFFFFFFFFFFFFFFFFFFFFFFFFFFFFFFFF AND PUSH20 0xFFFFFFFFFFFFFFFFFFFFFFFFFFFFFFFFFFFFFFFF AND PUSH4 0x23B872DD CALLER ADDRESS DUP5 PUSH1 0x40 MLOAD DUP5 PUSH4 0xFFFFFFFF AND PUSH1 0xE0 SHL DUP2 MSTORE PUSH1 0x4 ADD PUSH2 0x357 SWAP4 SWAP3 SWAP2 SWAP1 PUSH2 0xCD2 JUMP JUMPDEST PUSH1 0x20 PUSH1 0x40 MLOAD DUP1 DUP4 SUB DUP2 PUSH1 0x0 DUP8 GAS CALL ISZERO DUP1 ISZERO PUSH2 0x376 JUMPI RETURNDATASIZE PUSH1 0x0 DUP1 RETURNDATACOPY RETURNDATASIZE PUSH1 0x0 REVERT JUMPDEST POP POP POP POP PUSH1 0x40 MLOAD RETURNDATASIZE PUSH1 0x1F NOT PUSH1 0x1F DUP3 ADD AND DUP3 ADD DUP1 PUSH1 0x40 MSTORE POP DUP2 ADD SWAP1 PUSH2 0x39A SWAP2 SWAP1 PUSH2 0xBCE JUMP JUMPDEST POP PUSH1 0x0 CALLER PUSH20 0xFFFFFFFFFFFFFFFFFFFFFFFFFFFFFFFFFFFFFFFF AND DUP3 PUSH1 0x40 MLOAD PUSH2 0x3C1 SWAP1 PUSH2 0xD3A JUMP JUMPDEST PUSH1 0x0 PUSH1 0x40 MLOAD DUP1 DUP4 SUB DUP2 DUP6 DUP8 GAS CALL SWAP3 POP POP POP RETURNDATASIZE DUP1 PUSH1 0x0 DUP2 EQ PUSH2 0x3FE JUMPI PUSH1 0x40 MLOAD SWAP2 POP PUSH1 0x1F NOT PUSH1 0x3F RETURNDATASIZE ADD AND DUP3 ADD PUSH1 0x40 MSTORE RETURNDATASIZE DUP3 MSTORE RETURNDATASIZE PUSH1 0x0 PUSH1 0x20 DUP5 ADD RETURNDATACOPY PUSH2 0x403 JUMP JUMPDEST PUSH1 0x60 SWAP2 POP JUMPDEST POP POP SWAP1 POP DUP1 PUSH2 0x447 JUMPI PUSH1 0x40 MLOAD PUSH32 0x8C379A000000000000000000000000000000000000000000000000000000000 DUP2 MSTORE PUSH1 0x4 ADD PUSH2 0x43E SWAP1 PUSH2 0xD9B JUMP JUMPDEST PUSH1 0x40 MLOAD DUP1 SWAP2 SUB SWAP1 REVERT JUMPDEST POP POP JUMP JUMPDEST PUSH20 0x39DB207DFF3411F4FAB0483D419306873CBC13D9 PUSH20 0xFFFFFFFFFFFFFFFFFFFFFFFFFFFFFFFFFFFFFFFF AND PUSH4 0xA9059CBB DUP4 DUP4 PUSH1 0x40 MLOAD DUP4 PUSH4 0xFFFFFFFF AND PUSH1 0xE0 SHL DUP2 MSTORE PUSH1 0x4 ADD PUSH2 0x49A SWAP3 SWAP2 SWAP1 PUSH2 0xB6D JUMP JUMPDEST PUSH1 0x20 PUSH1 0x40 MLOAD DUP1 DUP4 SUB DUP2 PUSH1 0x0 DUP8 GAS CALL ISZERO DUP1 ISZERO PUSH2 0x4B9 JUMPI RETURNDATASIZE PUSH1 0x0 DUP1 RETURNDATACOPY RETURNDATASIZE PUSH1 0x0 REVERT JUMPDEST POP POP POP POP PUSH1 0x40 MLOAD RETURNDATASIZE PUSH1 0x1F NOT PUSH1 0x1F DUP3 ADD AND DUP3 ADD DUP1 PUSH1 0x40 MSTORE POP DUP2 ADD SWAP1 PUSH2 0x4DD SWAP2 SWAP1 PUSH2 0xBCE JUMP JUMPDEST POP POP POP JUMP JUMPDEST DUP1 CALLVALUE EQ PUSH2 0x524 JUMPI PUSH1 0x40 MLOAD PUSH32 0x8C379A000000000000000000000000000000000000000000000000000000000 DUP2 MSTORE PUSH1 0x4 ADD PUSH2 0x51B SWAP1 PUSH2 0xE2D JUMP JUMPDEST PUSH1 0x40 MLOAD DUP1 SWAP2 SUB SWAP1 REVERT JUMPDEST PUSH1 0x0 DUP1 SLOAD SWAP1 PUSH2 0x100 EXP SWAP1 DIV PUSH20 0xFFFFFFFFFFFFFFFFFFFFFFFFFFFFFFFFFFFFFFFF AND PUSH20 0xFFFFFFFFFFFFFFFFFFFFFFFFFFFFFFFFFFFFFFFF AND PUSH4 0x23B872DD CALLER ADDRESS DUP5 PUSH1 0x40 MLOAD DUP5 PUSH4 0xFFFFFFFF AND PUSH1 0xE0 SHL DUP2 MSTORE PUSH1 0x4 ADD PUSH2 0x581 SWAP4 SWAP3 SWAP2 SWAP1 PUSH2 0xCD2 JUMP JUMPDEST PUSH1 0x20 PUSH1 0x40 MLOAD DUP1 DUP4 SUB DUP2 PUSH1 0x0 DUP8 GAS CALL ISZERO DUP1 ISZERO PUSH2 0x5A0 JUMPI RETURNDATASIZE PUSH1 0x0 DUP1 RETURNDATACOPY RETURNDATASIZE PUSH1 0x0 REVERT JUMPDEST POP POP POP POP PUSH1 0x40 MLOAD RETURNDATASIZE PUSH1 0x1F NOT PUSH1 0x1F DUP3 ADD AND DUP3 ADD DUP1 PUSH1 0x40 MSTORE POP DUP2 ADD SWAP1 PUSH2 0x5C4 SWAP2 SWAP1 PUSH2 0xBCE JUMP JUMPDEST POP PUSH20 0x39DB207DFF3411F4FAB0483D419306873CBC13D9 PUSH20 0xFFFFFFFFFFFFFFFFFFFFFFFFFFFFFFFFFFFFFFFF AND PUSH4 0xA9059CBB CALLER DUP4 PUSH1 0x40 MLOAD DUP4 PUSH4 0xFFFFFFFF AND PUSH1 0xE0 SHL DUP2 MSTORE PUSH1 0x4 ADD PUSH2 0x614 SWAP3 SWAP2 SWAP1 PUSH2 0xB6D JUMP JUMPDEST PUSH1 0x20 PUSH1 0x40 MLOAD DUP1 DUP4 SUB DUP2 PUSH1 0x0 DUP8 GAS CALL ISZERO DUP1 ISZERO PUSH2 0x633 JUMPI RETURNDATASIZE PUSH1 0x0 DUP1 RETURNDATACOPY RETURNDATASIZE PUSH1 0x0 REVERT JUMPDEST POP POP POP POP PUSH1 0x40 MLOAD RETURNDATASIZE PUSH1 0x1F NOT PUSH1 0x1F DUP3 ADD AND DUP3 ADD DUP1 PUSH1 0x40 MSTORE POP DUP2 ADD SWAP1 PUSH2 0x657 SWAP2 SWAP1 PUSH2 0xBCE JUMP JUMPDEST POP PUSH32 0xB62268A18D99FE191AC8E62F823AB1EEC698609A81B2C8DE3DAC902896B09DA6 CALLER DUP3 PUSH1 0x40 MLOAD PUSH2 0x689 SWAP3 SWAP2 SWAP1 PUSH2 0xB6D JUMP JUMPDEST PUSH1 0x40 MLOAD DUP1 SWAP2 SUB SWAP1 LOG1 POP JUMP JUMPDEST PUSH1 0x0 DUP1 SLOAD SWAP1 PUSH2 0x100 EXP SWAP1 DIV PUSH20 0xFFFFFFFFFFFFFFFFFFFFFFFFFFFFFFFFFFFFFFFF AND DUP2 JUMP JUMPDEST PUSH1 0x0 DUP2 GT PUSH2 0x6FB JUMPI PUSH1 0x40 MLOAD PUSH32 0x8C379A000000000000000000000000000000000000000000000000000000000 DUP2 MSTORE PUSH1 0x4 ADD PUSH2 0x6F2 SWAP1 PUSH2 0xE99 JUMP JUMPDEST PUSH1 0x40 MLOAD DUP1 SWAP2 SUB SWAP1 REVERT JUMPDEST DUP1 PUSH20 0x39DB207DFF3411F4FAB0483D419306873CBC13D9 PUSH20 0xFFFFFFFFFFFFFFFFFFFFFFFFFFFFFFFFFFFFFFFF AND PUSH4 0xDD62ED3E CALLER ADDRESS PUSH1 0x40 MLOAD DUP4 PUSH4 0xFFFFFFFF AND PUSH1 0xE0 SHL DUP2 MSTORE PUSH1 0x4 ADD PUSH2 0x74B SWAP3 SWAP2 SWAP1 PUSH2 0xBFB JUMP JUMPDEST PUSH1 0x20 PUSH1 0x40 MLOAD DUP1 DUP4 SUB DUP2 DUP7 GAS STATICCALL ISZERO DUP1 ISZERO PUSH2 0x768 JUMPI RETURNDATASIZE PUSH1 0x0 DUP1 RETURNDATACOPY RETURNDATASIZE PUSH1 0x0 REVERT JUMPDEST POP POP POP POP PUSH1 0x40 MLOAD RETURNDATASIZE PUSH1 0x1F NOT PUSH1 0x1F DUP3 ADD AND DUP3 ADD DUP1 PUSH1 0x40 MSTORE POP DUP2 ADD SWAP1 PUSH2 0x78C SWAP2 SWAP1 PUSH2 0xC39 JUMP JUMPDEST LT ISZERO PUSH2 0x7CD JUMPI PUSH1 0x40 MLOAD PUSH32 0x8C379A000000000000000000000000000000000000000000000000000000000 DUP2 MSTORE PUSH1 0x4 ADD PUSH2 0x7C4 SWAP1 PUSH2 0xF51 JUMP JUMPDEST PUSH1 0x40 MLOAD DUP1 SWAP2 SUB SWAP1 REVERT JUMPDEST PUSH20 0x39DB207DFF3411F4FAB0483D419306873CBC13D9 PUSH20 0xFFFFFFFFFFFFFFFFFFFFFFFFFFFFFFFFFFFFFFFF AND PUSH4 0x23B872DD CALLER ADDRESS DUP5 PUSH1 0x40 MLOAD DUP5 PUSH4 0xFFFFFFFF AND PUSH1 0xE0 SHL DUP2 MSTORE PUSH1 0x4 ADD PUSH2 0x81E SWAP4 SWAP3 SWAP2 SWAP1 PUSH2 0xCD2 JUMP JUMPDEST PUSH1 0x20 PUSH1 0x40 MLOAD DUP1 DUP4 SUB DUP2 PUSH1 0x0 DUP8 GAS CALL ISZERO DUP1 ISZERO PUSH2 0x83D JUMPI RETURNDATASIZE PUSH1 0x0 DUP1 RETURNDATACOPY RETURNDATASIZE PUSH1 0x0 REVERT JUMPDEST POP POP POP POP PUSH1 0x40 MLOAD RETURNDATASIZE PUSH1 0x1F NOT PUSH1 0x1F DUP3 ADD AND DUP3 ADD DUP1 PUSH1 0x40 MSTORE POP DUP2 ADD SWAP1 PUSH2 0x861 SWAP2 SWAP1 PUSH2 0xBCE JUMP JUMPDEST POP PUSH1 0x0 DUP1 SLOAD SWAP1 PUSH2 0x100 EXP SWAP1 DIV PUSH20 0xFFFFFFFFFFFFFFFFFFFFFFFFFFFFFFFFFFFFFFFF AND PUSH20 0xFFFFFFFFFFFFFFFFFFFFFFFFFFFFFFFFFFFFFFFF AND PUSH4 0xA9059CBB CALLER DUP4 PUSH1 0x40 MLOAD DUP4 PUSH4 0xFFFFFFFF AND PUSH1 0xE0 SHL DUP2 MSTORE PUSH1 0x4 ADD PUSH2 0x8BD SWAP3 SWAP2 SWAP1 PUSH2 0xB6D JUMP JUMPDEST PUSH1 0x20 PUSH1 0x40 MLOAD DUP1 DUP4 SUB DUP2 PUSH1 0x0 DUP8 GAS CALL ISZERO DUP1 ISZERO PUSH2 0x8DC JUMPI RETURNDATASIZE PUSH1 0x0 DUP1 RETURNDATACOPY RETURNDATASIZE PUSH1 0x0 REVERT JUMPDEST POP POP POP POP PUSH1 0x40 MLOAD RETURNDATASIZE PUSH1 0x1F NOT PUSH1 0x1F DUP3 ADD AND DUP3 ADD DUP1 PUSH1 0x40 MSTORE POP DUP2 ADD SWAP1 PUSH2 0x900 SWAP2 SWAP1 PUSH2 0xBCE JUMP JUMPDEST POP PUSH1 0x0 CALLER PUSH20 0xFFFFFFFFFFFFFFFFFFFFFFFFFFFFFFFFFFFFFFFF AND DUP3 PUSH1 0x40 MLOAD PUSH2 0x927 SWAP1 PUSH2 0xD3A JUMP JUMPDEST PUSH1 0x0 PUSH1 0x40 MLOAD DUP1 DUP4 SUB DUP2 DUP6 DUP8 GAS CALL SWAP3 POP POP POP RETURNDATASIZE DUP1 PUSH1 0x0 DUP2 EQ PUSH2 0x964 JUMPI PUSH1 0x40 MLOAD SWAP2 POP PUSH1 0x1F NOT PUSH1 0x3F RETURNDATASIZE ADD AND DUP3 ADD PUSH1 0x40 MSTORE RETURNDATASIZE DUP3 MSTORE RETURNDATASIZE PUSH1 0x0 PUSH1 0x20 DUP5 ADD RETURNDATACOPY PUSH2 0x969 JUMP JUMPDEST PUSH1 0x60 SWAP2 POP JUMPDEST POP POP SWAP1 POP DUP1 PUSH2 0x9AD JUMPI PUSH1 0x40 MLOAD PUSH32 0x8C379A000000000000000000000000000000000000000000000000000000000 DUP2 MSTORE PUSH1 0x4 ADD PUSH2 0x9A4 SWAP1 PUSH2 0xFBD JUMP JUMPDEST PUSH1 0x40 MLOAD DUP1 SWAP2 SUB SWAP1 REVERT JUMPDEST POP POP JUMP JUMPDEST PUSH1 0x0 DUP1 REVERT JUMPDEST PUSH1 0x0 DUP2 SWAP1 POP SWAP2 SWAP1 POP JUMP JUMPDEST PUSH2 0x9C9 DUP2 PUSH2 0x9B6 JUMP JUMPDEST DUP2 EQ PUSH2 0x9D4 JUMPI PUSH1 0x0 DUP1 REVERT JUMPDEST POP JUMP JUMPDEST PUSH1 0x0 DUP2 CALLDATALOAD SWAP1 POP PUSH2 0x9E6 DUP2 PUSH2 0x9C0 JUMP JUMPDEST SWAP3 SWAP2 POP POP JUMP JUMPDEST PUSH1 0x0 PUSH1 0x20 DUP3 DUP5 SUB SLT ISZERO PUSH2 0xA02 JUMPI PUSH2 0xA01 PUSH2 0x9B1 JUMP JUMPDEST JUMPDEST PUSH1 0x0 PUSH2 0xA10 DUP5 DUP3 DUP6 ADD PUSH2 0x9D7 JUMP JUMPDEST SWAP2 POP POP SWAP3 SWAP2 POP POP JUMP JUMPDEST PUSH1 0x0 PUSH20 0xFFFFFFFFFFFFFFFFFFFFFFFFFFFFFFFFFFFFFFFF DUP3 AND SWAP1 POP SWAP2 SWAP1 POP JUMP JUMPDEST PUSH1 0x0 PUSH2 0xA44 DUP3 PUSH2 0xA19 JUMP JUMPDEST SWAP1 POP SWAP2 SWAP1 POP JUMP JUMPDEST PUSH2 0xA54 DUP2 PUSH2 0xA39 JUMP JUMPDEST DUP2 EQ PUSH2 0xA5F JUMPI PUSH1 0x0 DUP1 REVERT JUMPDEST POP JUMP JUMPDEST PUSH1 0x0 DUP2 CALLDATALOAD SWAP1 POP PUSH2 0xA71 DUP2 PUSH2 0xA4B JUMP JUMPDEST SWAP3 SWAP2 POP POP JUMP JUMPDEST PUSH1 0x0 DUP1 PUSH1 0x40 DUP4 DUP6 SUB SLT ISZERO PUSH2 0xA8E JUMPI PUSH2 0xA8D PUSH2 0x9B1 JUMP JUMPDEST JUMPDEST PUSH1 0x0 PUSH2 0xA9C DUP6 DUP3 DUP7 ADD PUSH2 0xA62 JUMP JUMPDEST SWAP3 POP POP PUSH1 0x20 PUSH2 0xAAD DUP6 DUP3 DUP7 ADD PUSH2 0x9D7 JUMP JUMPDEST SWAP2 POP POP SWAP3 POP SWAP3 SWAP1 POP JUMP JUMPDEST PUSH2 0xAC0 DUP2 PUSH2 0xA39 JUMP JUMPDEST DUP3 MSTORE POP POP JUMP JUMPDEST PUSH1 0x0 PUSH1 0x20 DUP3 ADD SWAP1 POP PUSH2 0xADB PUSH1 0x0 DUP4 ADD DUP5 PUSH2 0xAB7 JUMP JUMPDEST SWAP3 SWAP2 POP POP JUMP JUMPDEST PUSH1 0x0 DUP3 DUP3 MSTORE PUSH1 0x20 DUP3 ADD SWAP1 POP SWAP3 SWAP2 POP POP JUMP JUMPDEST PUSH32 0x496E76616C696420616D6F756E74000000000000000000000000000000000000 PUSH1 0x0 DUP3 ADD MSTORE POP JUMP JUMPDEST PUSH1 0x0 PUSH2 0xB28 PUSH1 0xE DUP4 PUSH2 0xAE1 JUMP JUMPDEST SWAP2 POP PUSH2 0xB33 DUP3 PUSH2 0xAF2 JUMP JUMPDEST PUSH1 0x20 DUP3 ADD SWAP1 POP SWAP2 SWAP1 POP JUMP JUMPDEST PUSH1 0x0 PUSH1 0x20 DUP3 ADD SWAP1 POP DUP2 DUP2 SUB PUSH1 0x0 DUP4 ADD MSTORE PUSH2 0xB57 DUP2 PUSH2 0xB1B JUMP JUMPDEST SWAP1 POP SWAP2 SWAP1 POP JUMP JUMPDEST PUSH2 0xB67 DUP2 PUSH2 0x9B6 JUMP JUMPDEST DUP3 MSTORE POP POP JUMP JUMPDEST PUSH1 0x0 PUSH1 0x40 DUP3 ADD SWAP1 POP PUSH2 0xB82 PUSH1 0x0 DUP4 ADD DUP6 PUSH2 0xAB7 JUMP JUMPDEST PUSH2 0xB8F PUSH1 0x20 DUP4 ADD DUP5 PUSH2 0xB5E JUMP JUMPDEST SWAP4 SWAP3 POP POP POP JUMP JUMPDEST PUSH1 0x0 DUP2 ISZERO ISZERO SWAP1 POP SWAP2 SWAP1 POP JUMP JUMPDEST PUSH2 0xBAB DUP2 PUSH2 0xB96 JUMP JUMPDEST DUP2 EQ PUSH2 0xBB6 JUMPI PUSH1 0x0 DUP1 REVERT JUMPDEST POP JUMP JUMPDEST PUSH1 0x0 DUP2 MLOAD SWAP1 POP PUSH2 0xBC8 DUP2 PUSH2 0xBA2 JUMP JUMPDEST SWAP3 SWAP2 POP POP JUMP JUMPDEST PUSH1 0x0 PUSH1 0x20 DUP3 DUP5 SUB SLT ISZERO PUSH2 0xBE4 JUMPI PUSH2 0xBE3 PUSH2 0x9B1 JUMP JUMPDEST JUMPDEST PUSH1 0x0 PUSH2 0xBF2 DUP5 DUP3 DUP6 ADD PUSH2 0xBB9 JUMP JUMPDEST SWAP2 POP POP SWAP3 SWAP2 POP POP JUMP JUMPDEST PUSH1 0x0 PUSH1 0x40 DUP3 ADD SWAP1 POP PUSH2 0xC10 PUSH1 0x0 DUP4 ADD DUP6 PUSH2 0xAB7 JUMP JUMPDEST PUSH2 0xC1D PUSH1 0x20 DUP4 ADD DUP5 PUSH2 0xAB7 JUMP JUMPDEST SWAP4 SWAP3 POP POP POP JUMP JUMPDEST PUSH1 0x0 DUP2 MLOAD SWAP1 POP PUSH2 0xC33 DUP2 PUSH2 0x9C0 JUMP JUMPDEST SWAP3 SWAP2 POP POP JUMP JUMPDEST PUSH1 0x0 PUSH1 0x20 DUP3 DUP5 SUB SLT ISZERO PUSH2 0xC4F JUMPI PUSH2 0xC4E PUSH2 0x9B1 JUMP JUMPDEST JUMPDEST PUSH1 0x0 PUSH2 0xC5D DUP5 DUP3 DUP6 ADD PUSH2 0xC24 JUMP JUMPDEST SWAP2 POP POP SWAP3 SWAP2 POP POP JUMP JUMPDEST PUSH32 0x436F6E7472616374206E6F7420617070726F7665640000000000000000000000 PUSH1 0x0 DUP3 ADD MSTORE POP JUMP JUMPDEST PUSH1 0x0 PUSH2 0xC9C PUSH1 0x15 DUP4 PUSH2 0xAE1 JUMP JUMPDEST SWAP2 POP PUSH2 0xCA7 DUP3 PUSH2 0xC66 JUMP JUMPDEST PUSH1 0x20 DUP3 ADD SWAP1 POP SWAP2 SWAP1 POP JUMP JUMPDEST PUSH1 0x0 PUSH1 0x20 DUP3 ADD SWAP1 POP DUP2 DUP2 SUB PUSH1 0x0 DUP4 ADD MSTORE PUSH2 0xCCB DUP2 PUSH2 0xC8F JUMP JUMPDEST SWAP1 POP SWAP2 SWAP1 POP JUMP JUMPDEST PUSH1 0x0 PUSH1 0x60 DUP3 ADD SWAP1 POP PUSH2 0xCE7 PUSH1 0x0 DUP4 ADD DUP7 PUSH2 0xAB7 JUMP JUMPDEST PUSH2 0xCF4 PUSH1 0x20 DUP4 ADD DUP6 PUSH2 0xAB7 JUMP JUMPDEST PUSH2 0xD01 PUSH1 0x40 DUP4 ADD DUP5 PUSH2 0xB5E JUMP JUMPDEST SWAP5 SWAP4 POP POP POP POP JUMP JUMPDEST PUSH1 0x0 DUP2 SWAP1 POP SWAP3 SWAP2 POP POP JUMP JUMPDEST POP JUMP JUMPDEST PUSH1 0x0 PUSH2 0xD24 PUSH1 0x0 DUP4 PUSH2 0xD09 JUMP JUMPDEST SWAP2 POP PUSH2 0xD2F DUP3 PUSH2 0xD14 JUMP JUMPDEST PUSH1 0x0 DUP3 ADD SWAP1 POP SWAP2 SWAP1 POP JUMP JUMPDEST PUSH1 0x0 PUSH2 0xD45 DUP3 PUSH2 0xD17 JUMP JUMPDEST SWAP2 POP DUP2 SWAP1 POP SWAP2 SWAP1 POP JUMP JUMPDEST PUSH32 0x5472616E73666572204661696C65640000000000000000000000000000000000 PUSH1 0x0 DUP3 ADD MSTORE POP JUMP JUMPDEST PUSH1 0x0 PUSH2 0xD85 PUSH1 0xF DUP4 PUSH2 0xAE1 JUMP JUMPDEST SWAP2 POP PUSH2 0xD90 DUP3 PUSH2 0xD4F JUMP JUMPDEST PUSH1 0x20 DUP3 ADD SWAP1 POP SWAP2 SWAP1 POP JUMP JUMPDEST PUSH1 0x0 PUSH1 0x20 DUP3 ADD SWAP1 POP DUP2 DUP2 SUB PUSH1 0x0 DUP4 ADD MSTORE PUSH2 0xDB4 DUP2 PUSH2 0xD78 JUMP JUMPDEST SWAP1 POP SWAP2 SWAP1 POP JUMP JUMPDEST PUSH32 0x54686520616D6F756E74206F662045544820616E6420746F6B656E732073686F PUSH1 0x0 DUP3 ADD MSTORE PUSH32 0x756C6420626520657175616C0000000000000000000000000000000000000000 PUSH1 0x20 DUP3 ADD MSTORE POP JUMP JUMPDEST PUSH1 0x0 PUSH2 0xE17 PUSH1 0x2C DUP4 PUSH2 0xAE1 JUMP JUMPDEST SWAP2 POP PUSH2 0xE22 DUP3 PUSH2 0xDBB JUMP JUMPDEST PUSH1 0x40 DUP3 ADD SWAP1 POP SWAP2 SWAP1 POP JUMP JUMPDEST PUSH1 0x0 PUSH1 0x20 DUP3 ADD SWAP1 POP DUP2 DUP2 SUB PUSH1 0x0 DUP4 ADD MSTORE PUSH2 0xE46 DUP2 PUSH2 0xE0A JUMP JUMPDEST SWAP1 POP SWAP2 SWAP1 POP JUMP JUMPDEST PUSH32 0x496E76616C696420616D6F756E74206F66207368617265730000000000000000 PUSH1 0x0 DUP3 ADD MSTORE POP JUMP JUMPDEST PUSH1 0x0 PUSH2 0xE83 PUSH1 0x18 DUP4 PUSH2 0xAE1 JUMP JUMPDEST SWAP2 POP PUSH2 0xE8E DUP3 PUSH2 0xE4D JUMP JUMPDEST PUSH1 0x20 DUP3 ADD SWAP1 POP SWAP2 SWAP1 POP JUMP JUMPDEST PUSH1 0x0 PUSH1 0x20 DUP3 ADD SWAP1 POP DUP2 DUP2 SUB PUSH1 0x0 DUP4 ADD MSTORE PUSH2 0xEB2 DUP2 PUSH2 0xE76 JUMP JUMPDEST SWAP1 POP SWAP2 SWAP1 POP JUMP JUMPDEST PUSH32 0x506C6561736520617070726F76652074686520636F6E747261637420746F2064 PUSH1 0x0 DUP3 ADD MSTORE PUSH32 0x6564756374206C747220746F6B656E732066726F6D20796F75722077616C6C65 PUSH1 0x20 DUP3 ADD MSTORE PUSH32 0x7400000000000000000000000000000000000000000000000000000000000000 PUSH1 0x40 DUP3 ADD MSTORE POP JUMP JUMPDEST PUSH1 0x0 PUSH2 0xF3B PUSH1 0x41 DUP4 PUSH2 0xAE1 JUMP JUMPDEST SWAP2 POP PUSH2 0xF46 DUP3 PUSH2 0xEB9 JUMP JUMPDEST PUSH1 0x60 DUP3 ADD SWAP1 POP SWAP2 SWAP1 POP JUMP JUMPDEST PUSH1 0x0 PUSH1 0x20 DUP3 ADD SWAP1 POP DUP2 DUP2 SUB PUSH1 0x0 DUP4 ADD MSTORE PUSH2 0xF6A DUP2 PUSH2 0xF2E JUMP JUMPDEST SWAP1 POP SWAP2 SWAP1 POP JUMP JUMPDEST PUSH32 0x5472616E73666572206661696C65640000000000000000000000000000000000 PUSH1 0x0 DUP3 ADD MSTORE POP JUMP JUMPDEST PUSH1 0x0 PUSH2 0xFA7 PUSH1 0xF DUP4 PUSH2 0xAE1 JUMP JUMPDEST SWAP2 POP PUSH2 0xFB2 DUP3 PUSH2 0xF71 JUMP JUMPDEST PUSH1 0x20 DUP3 ADD SWAP1 POP SWAP2 SWAP1 POP JUMP JUMPDEST PUSH1 0x0 PUSH1 0x20 DUP3 ADD SWAP1 POP DUP2 DUP2 SUB PUSH1 0x0 DUP4 ADD MSTORE PUSH2 0xFD6 DUP2 PUSH2 0xF9A JUMP JUMPDEST SWAP1 POP SWAP2 SWAP1 POP JUMP INVALID LOG2 PUSH5 0x6970667358 0x22 SLT KECCAK256 0x4F STATICCALL PUSH15 0xBF0AA0E18081AF9D7A045E04F0F235 EXTCODECOPY 0xED STOP 0xAE 0xC1 0xBC PUSH25 0x223601FF08D50C64736F6C6343000811003300000000000000 "
				},
				"gasEstimates": {
					"creation": {
						"codeDepositCost": "823000",
						"executionCost": "infinite",
						"totalCost": "infinite"
					},
					"external": {
						"getDAI(uint256)": "infinite",
						"getEth(uint256)": "infinite",
						"provideLiquidity(uint256)": "infinite",
						"reedemShares(uint256)": "infinite",
						"reserveToken()": "2577",
						"transferTokens(address,uint256)": "infinite"
					}
				},
				"methodIdentifiers": {
					"getDAI(uint256)": "1aa5c70e",
					"getEth(uint256)": "8e3073a6",
					"provideLiquidity(uint256)": "eb521a4c",
					"reedemShares(uint256)": "ff9b3758",
					"reserveToken()": "f4325d67",
					"transferTokens(address,uint256)": "bec3fa17"
				}
			},
			"storageLayout": {
				"storage": [
					{
						"astId": 101,
						"contract": "contracts/LiquidityPool.sol:LiquidityPool",
						"label": "reserveToken",
						"offset": 0,
						"slot": "0",
						"type": "t_address"
					}
				],
				"types": {
					"t_address": {
						"encoding": "inplace",
						"label": "address",
						"numberOfBytes": "20"
					}
				}
			},
			"userdoc": {
				"kind": "user",
				"methods": {},
				"version": 1
			}
		}
	}
}